{
	"41AccessControl.sol": {
		"AccessControl": {
			"abi": [
				{
					"inputs": [],
					"stateMutability": "nonpayable",
					"type": "constructor"
				},
				{
					"anonymous": false,
					"inputs": [
						{
							"indexed": false,
							"internalType": "bytes32",
							"name": "_role",
							"type": "bytes32"
						},
						{
							"indexed": false,
							"internalType": "string",
							"name": "",
							"type": "string"
						}
					],
					"name": "GrantLog",
					"type": "event"
				},
				{
					"anonymous": false,
					"inputs": [
						{
							"indexed": false,
							"internalType": "bytes32",
							"name": "_role",
							"type": "bytes32"
						},
						{
							"indexed": false,
							"internalType": "string",
							"name": "",
							"type": "string"
						}
					],
					"name": "RevokeLog",
					"type": "event"
				},
				{
					"inputs": [
						{
							"internalType": "bytes32",
							"name": "_role",
							"type": "bytes32"
						},
						{
							"internalType": "address",
							"name": "addr",
							"type": "address"
						}
					],
					"name": "grantRole",
					"outputs": [],
					"stateMutability": "nonpayable",
					"type": "function"
				},
				{
					"inputs": [
						{
							"internalType": "bytes32",
							"name": "_role",
							"type": "bytes32"
						},
						{
							"internalType": "address",
							"name": "_addr",
							"type": "address"
						}
					],
					"name": "queryRole",
					"outputs": [
						{
							"internalType": "string",
							"name": "",
							"type": "string"
						}
					],
					"stateMutability": "view",
					"type": "function"
				},
				{
					"inputs": [
						{
							"internalType": "bytes32",
							"name": "_role",
							"type": "bytes32"
						},
						{
							"internalType": "address",
							"name": "addr",
							"type": "address"
						}
					],
					"name": "revokeRole",
					"outputs": [],
					"stateMutability": "nonpayable",
					"type": "function"
				}
			],
			"devdoc": {
				"kind": "dev",
				"methods": {},
				"version": 1
			},
			"evm": {
				"assembly": "    /* \"41AccessControl.sol\":261:2073  contract AccessControl{... */\n  mstore(0x40, 0x80)\n    /* \"41AccessControl.sol\":887:947  constructor() {... */\n  callvalue\n  dup1\n  iszero\n  tag_1\n  jumpi\n  0x00\n  dup1\n  revert\ntag_1:\n  pop\n    /* \"41AccessControl.sol\":911:940  _grantRole(ADMIN, msg.sender) */\n  tag_4\n    /* \"41AccessControl.sol\":642:667  abi.encodePacked(\"ADMIN\") */\n  add(0x20, mload(0x40))\n  tag_5\n  swap1\n  tag_6\n  jump\t// in\ntag_5:\n  mload(0x40)\n  0x20\n  dup2\n  dup4\n  sub\n  sub\n  dup2\n  mstore\n  swap1\n  0x40\n  mstore\n    /* \"41AccessControl.sol\":632:668  keccak256(abi.encodePacked(\"ADMIN\")) */\n  dup1\n  mload\n  swap1\n  0x20\n  add\n  keccak256\n    /* \"41AccessControl.sol\":929:939  msg.sender */\n  caller\n    /* \"41AccessControl.sol\":911:921  _grantRole */\n  shl(0x20, tag_7)\n    /* \"41AccessControl.sol\":911:940  _grantRole(ADMIN, msg.sender) */\n  0x20\n  shr\n  jump\t// in\ntag_4:\n    /* \"41AccessControl.sol\":261:2073  contract AccessControl{... */\n  jump(tag_8)\n    /* \"41AccessControl.sol\":1326:1572  function _grantRole(bytes32 _role,address addr) internal {... */\ntag_7:\n    /* \"41AccessControl.sol\":1517:1521  true */\n  0x01\n    /* \"41AccessControl.sol\":1496:1501  roles */\n  0x00\n    /* \"41AccessControl.sol\":1496:1508  roles[_role] */\n  dup1\n    /* \"41AccessControl.sol\":1502:1507  _role */\n  dup5\n    /* \"41AccessControl.sol\":1496:1508  roles[_role] */\n  dup2\n  mstore\n  0x20\n  add\n  swap1\n  dup2\n  mstore\n  0x20\n  add\n  0x00\n  keccak256\n    /* \"41AccessControl.sol\":1496:1514  roles[_role][addr] */\n  0x00\n    /* \"41AccessControl.sol\":1509:1513  addr */\n  dup4\n    /* \"41AccessControl.sol\":1496:1514  roles[_role][addr] */\n  0xffffffffffffffffffffffffffffffffffffffff\n  and\n  0xffffffffffffffffffffffffffffffffffffffff\n  and\n  dup2\n  mstore\n  0x20\n  add\n  swap1\n  dup2\n  mstore\n  0x20\n  add\n  0x00\n  keccak256\n  0x00\n    /* \"41AccessControl.sol\":1496:1521  roles[_role][addr] = true */\n  0x0100\n  exp\n  dup2\n  sload\n  dup2\n  0xff\n  mul\n  not\n  and\n  swap1\n  dup4\n  iszero\n  iszero\n  mul\n  or\n  swap1\n  sstore\n  pop\n    /* \"41AccessControl.sol\":1536:1565  GrantLog(_role,\"grant ADMIN\") */\n  0xd396efed995c9c719c485f5ca99e5f2919aacec90a5e68efa191f2cddf42f8a6\n    /* \"41AccessControl.sol\":1545:1550  _role */\n  dup3\n    /* \"41AccessControl.sol\":1536:1565  GrantLog(_role,\"grant ADMIN\") */\n  mload(0x40)\n  tag_10\n  swap2\n  swap1\n  tag_11\n  jump\t// in\ntag_10:\n  mload(0x40)\n  dup1\n  swap2\n  sub\n  swap1\n  log1\n    /* \"41AccessControl.sol\":1326:1572  function _grantRole(bytes32 _role,address addr) internal {... */\n  pop\n  pop\n  jump\t// out\n    /* \"#utility.yul\":7:125   */\ntag_13:\n    /* \"#utility.yul\":94:118   */\n  tag_15\n    /* \"#utility.yul\":112:117   */\n  dup2\n    /* \"#utility.yul\":94:118   */\n  tag_16\n  jump\t// in\ntag_15:\n    /* \"#utility.yul\":89:92   */\n  dup3\n    /* \"#utility.yul\":82:119   */\n  mstore\n    /* \"#utility.yul\":7:125   */\n  pop\n  pop\n  jump\t// out\n    /* \"#utility.yul\":131:497   */\ntag_17:\n    /* \"#utility.yul\":273:276   */\n  0x00\n    /* \"#utility.yul\":294:361   */\n  tag_19\n    /* \"#utility.yul\":358:360   */\n  0x0b\n    /* \"#utility.yul\":353:356   */\n  dup4\n    /* \"#utility.yul\":294:361   */\n  tag_20\n  jump\t// in\ntag_19:\n    /* \"#utility.yul\":287:361   */\n  swap2\n  pop\n    /* \"#utility.yul\":370:463   */\n  tag_21\n    /* \"#utility.yul\":459:462   */\n  dup3\n    /* \"#utility.yul\":370:463   */\n  tag_22\n  jump\t// in\ntag_21:\n    /* \"#utility.yul\":488:490   */\n  0x20\n    /* \"#utility.yul\":483:486   */\n  dup3\n    /* \"#utility.yul\":479:491   */\n  add\n    /* \"#utility.yul\":472:491   */\n  swap1\n  pop\n    /* \"#utility.yul\":131:497   */\n  swap2\n  swap1\n  pop\n  jump\t// out\n    /* \"#utility.yul\":503:903   */\ntag_23:\n    /* \"#utility.yul\":663:666   */\n  0x00\n    /* \"#utility.yul\":684:768   */\n  tag_25\n    /* \"#utility.yul\":766:767   */\n  0x05\n    /* \"#utility.yul\":761:764   */\n  dup4\n    /* \"#utility.yul\":684:768   */\n  tag_26\n  jump\t// in\ntag_25:\n    /* \"#utility.yul\":677:768   */\n  swap2\n  pop\n    /* \"#utility.yul\":777:870   */\n  tag_27\n    /* \"#utility.yul\":866:869   */\n  dup3\n    /* \"#utility.yul\":777:870   */\n  tag_28\n  jump\t// in\ntag_27:\n    /* \"#utility.yul\":895:896   */\n  0x05\n    /* \"#utility.yul\":890:893   */\n  dup3\n    /* \"#utility.yul\":886:897   */\n  add\n    /* \"#utility.yul\":879:897   */\n  swap1\n  pop\n    /* \"#utility.yul\":503:903   */\n  swap2\n  swap1\n  pop\n  jump\t// out\n    /* \"#utility.yul\":909:1290   */\ntag_6:\n    /* \"#utility.yul\":1094:1097   */\n  0x00\n    /* \"#utility.yul\":1116:1264   */\n  tag_30\n    /* \"#utility.yul\":1260:1263   */\n  dup3\n    /* \"#utility.yul\":1116:1264   */\n  tag_23\n  jump\t// in\ntag_30:\n    /* \"#utility.yul\":1109:1264   */\n  swap2\n  pop\n    /* \"#utility.yul\":1281:1284   */\n  dup2\n    /* \"#utility.yul\":1274:1284   */\n  swap1\n  pop\n    /* \"#utility.yul\":909:1290   */\n  swap2\n  swap1\n  pop\n  jump\t// out\n    /* \"#utility.yul\":1296:1825   */\ntag_11:\n    /* \"#utility.yul\":1490:1494   */\n  0x00\n    /* \"#utility.yul\":1528:1530   */\n  0x40\n    /* \"#utility.yul\":1517:1526   */\n  dup3\n    /* \"#utility.yul\":1513:1531   */\n  add\n    /* \"#utility.yul\":1505:1531   */\n  swap1\n  pop\n    /* \"#utility.yul\":1541:1612   */\n  tag_32\n    /* \"#utility.yul\":1609:1610   */\n  0x00\n    /* \"#utility.yul\":1598:1607   */\n  dup4\n    /* \"#utility.yul\":1594:1611   */\n  add\n    /* \"#utility.yul\":1585:1591   */\n  dup5\n    /* \"#utility.yul\":1541:1612   */\n  tag_13\n  jump\t// in\ntag_32:\n    /* \"#utility.yul\":1659:1668   */\n  dup2\n    /* \"#utility.yul\":1653:1657   */\n  dup2\n    /* \"#utility.yul\":1649:1669   */\n  sub\n    /* \"#utility.yul\":1644:1646   */\n  0x20\n    /* \"#utility.yul\":1633:1642   */\n  dup4\n    /* \"#utility.yul\":1629:1647   */\n  add\n    /* \"#utility.yul\":1622:1670   */\n  mstore\n    /* \"#utility.yul\":1687:1818   */\n  tag_33\n    /* \"#utility.yul\":1813:1817   */\n  dup2\n    /* \"#utility.yul\":1687:1818   */\n  tag_17\n  jump\t// in\ntag_33:\n    /* \"#utility.yul\":1679:1818   */\n  swap1\n  pop\n    /* \"#utility.yul\":1296:1825   */\n  swap3\n  swap2\n  pop\n  pop\n  jump\t// out\n    /* \"#utility.yul\":1831:2000   */\ntag_20:\n    /* \"#utility.yul\":1915:1926   */\n  0x00\n    /* \"#utility.yul\":1949:1955   */\n  dup3\n    /* \"#utility.yul\":1944:1947   */\n  dup3\n    /* \"#utility.yul\":1937:1956   */\n  mstore\n    /* \"#utility.yul\":1989:1993   */\n  0x20\n    /* \"#utility.yul\":1984:1987   */\n  dup3\n    /* \"#utility.yul\":1980:1994   */\n  add\n    /* \"#utility.yul\":1965:1994   */\n  swap1\n  pop\n    /* \"#utility.yul\":1831:2000   */\n  swap3\n  swap2\n  pop\n  pop\n  jump\t// out\n    /* \"#utility.yul\":2006:2154   */\ntag_26:\n    /* \"#utility.yul\":2108:2119   */\n  0x00\n    /* \"#utility.yul\":2145:2148   */\n  dup2\n    /* \"#utility.yul\":2130:2148   */\n  swap1\n  pop\n    /* \"#utility.yul\":2006:2154   */\n  swap3\n  swap2\n  pop\n  pop\n  jump\t// out\n    /* \"#utility.yul\":2160:2237   */\ntag_16:\n    /* \"#utility.yul\":2197:2204   */\n  0x00\n    /* \"#utility.yul\":2226:2231   */\n  dup2\n    /* \"#utility.yul\":2215:2231   */\n  swap1\n  pop\n    /* \"#utility.yul\":2160:2237   */\n  swap2\n  swap1\n  pop\n  jump\t// out\n    /* \"#utility.yul\":2243:2404   */\ntag_22:\n    /* \"#utility.yul\":2383:2396   */\n  0x6772616e742041444d494e000000000000000000000000000000000000000000\n    /* \"#utility.yul\":2379:2380   */\n  0x00\n    /* \"#utility.yul\":2371:2377   */\n  dup3\n    /* \"#utility.yul\":2367:2381   */\n  add\n    /* \"#utility.yul\":2360:2397   */\n  mstore\n    /* \"#utility.yul\":2243:2404   */\n  pop\n  jump\t// out\n    /* \"#utility.yul\":2410:2565   */\ntag_28:\n    /* \"#utility.yul\":2550:2557   */\n  0x41444d494e000000000000000000000000000000000000000000000000000000\n    /* \"#utility.yul\":2546:2547   */\n  0x00\n    /* \"#utility.yul\":2538:2544   */\n  dup3\n    /* \"#utility.yul\":2534:2548   */\n  add\n    /* \"#utility.yul\":2527:2558   */\n  mstore\n    /* \"#utility.yul\":2410:2565   */\n  pop\n  jump\t// out\n    /* \"41AccessControl.sol\":261:2073  contract AccessControl{... */\ntag_8:\n  dataSize(sub_0)\n  dup1\n  dataOffset(sub_0)\n  0x00\n  codecopy\n  0x00\n  return\nstop\n\nsub_0: assembly {\n        /* \"41AccessControl.sol\":261:2073  contract AccessControl{... */\n      mstore(0x40, 0x80)\n      callvalue\n      dup1\n      iszero\n      tag_1\n      jumpi\n      0x00\n      dup1\n      revert\n    tag_1:\n      pop\n      jumpi(tag_2, lt(calldatasize, 0x04))\n      shr(0xe0, calldataload(0x00))\n      dup1\n      0x2f2ff15d\n      eq\n      tag_3\n      jumpi\n      dup1\n      0xbb9027b6\n      eq\n      tag_4\n      jumpi\n      dup1\n      0xd547741f\n      eq\n      tag_5\n      jumpi\n    tag_2:\n      0x00\n      dup1\n      revert\n        /* \"41AccessControl.sol\":1165:1276  function grantRole(bytes32 _role,address addr)external onlyOwner(ADMIN){... */\n    tag_3:\n      tag_6\n      0x04\n      dup1\n      calldatasize\n      sub\n      dup2\n      add\n      swap1\n      tag_7\n      swap2\n      swap1\n      tag_8\n      jump\t// in\n    tag_7:\n      tag_9\n      jump\t// in\n    tag_6:\n      stop\n        /* \"41AccessControl.sol\":1789:2069  function queryRole(bytes32 _role,address _addr)external view returns(string memory){... */\n    tag_4:\n      tag_10\n      0x04\n      dup1\n      calldatasize\n      sub\n      dup2\n      add\n      swap1\n      tag_11\n      swap2\n      swap1\n      tag_8\n      jump\t// in\n    tag_11:\n      tag_12\n      jump\t// in\n    tag_10:\n      mload(0x40)\n      tag_13\n      swap2\n      swap1\n      tag_14\n      jump\t// in\n    tag_13:\n      mload(0x40)\n      dup1\n      swap2\n      sub\n      swap1\n      return\n        /* \"41AccessControl.sol\":1622:1783  function revokeRole(bytes32 _role,address addr)external onlyOwner(ADMIN){... */\n    tag_5:\n      tag_15\n      0x04\n      dup1\n      calldatasize\n      sub\n      dup2\n      add\n      swap1\n      tag_16\n      swap2\n      swap1\n      tag_8\n      jump\t// in\n    tag_16:\n      tag_17\n      jump\t// in\n    tag_15:\n      stop\n        /* \"41AccessControl.sol\":1165:1276  function grantRole(bytes32 _role,address addr)external onlyOwner(ADMIN){... */\n    tag_9:\n        /* \"41AccessControl.sol\":642:667  abi.encodePacked(\"ADMIN\") */\n      add(0x20, mload(0x40))\n      tag_18\n      swap1\n      tag_19\n      jump\t// in\n    tag_18:\n      mload(0x40)\n      0x20\n      dup2\n      dup4\n      sub\n      sub\n      dup2\n      mstore\n      swap1\n      0x40\n      mstore\n        /* \"41AccessControl.sol\":632:668  keccak256(abi.encodePacked(\"ADMIN\")) */\n      dup1\n      mload\n      swap1\n      0x20\n      add\n      keccak256\n        /* \"41AccessControl.sol\":1074:1079  roles */\n      0x00\n        /* \"41AccessControl.sol\":1074:1086  roles[_role] */\n      dup1\n        /* \"41AccessControl.sol\":1080:1085  _role */\n      dup3\n        /* \"41AccessControl.sol\":1074:1086  roles[_role] */\n      dup2\n      mstore\n      0x20\n      add\n      swap1\n      dup2\n      mstore\n      0x20\n      add\n      0x00\n      keccak256\n        /* \"41AccessControl.sol\":1074:1098  roles[_role][msg.sender] */\n      0x00\n        /* \"41AccessControl.sol\":1087:1097  msg.sender */\n      caller\n        /* \"41AccessControl.sol\":1074:1098  roles[_role][msg.sender] */\n      0xffffffffffffffffffffffffffffffffffffffff\n      and\n      0xffffffffffffffffffffffffffffffffffffffff\n      and\n      dup2\n      mstore\n      0x20\n      add\n      swap1\n      dup2\n      mstore\n      0x20\n      add\n      0x00\n      keccak256\n      0x00\n      swap1\n      sload\n      swap1\n      0x0100\n      exp\n      swap1\n      div\n      0xff\n      and\n        /* \"41AccessControl.sol\":1066:1134  require(roles[_role][msg.sender], \"not allow current role operate!\") */\n      tag_21\n      jumpi\n      mload(0x40)\n      0x08c379a000000000000000000000000000000000000000000000000000000000\n      dup2\n      mstore\n      0x04\n      add\n      tag_22\n      swap1\n      tag_23\n      jump\t// in\n    tag_22:\n      mload(0x40)\n      dup1\n      swap2\n      sub\n      swap1\n      revert\n    tag_21:\n        /* \"41AccessControl.sol\":1246:1269  _grantRole(_role, addr) */\n      tag_25\n        /* \"41AccessControl.sol\":1257:1262  _role */\n      dup4\n        /* \"41AccessControl.sol\":1264:1268  addr */\n      dup4\n        /* \"41AccessControl.sol\":1246:1256  _grantRole */\n      tag_26\n        /* \"41AccessControl.sol\":1246:1269  _grantRole(_role, addr) */\n      jump\t// in\n    tag_25:\n        /* \"41AccessControl.sol\":1165:1276  function grantRole(bytes32 _role,address addr)external onlyOwner(ADMIN){... */\n      pop\n      pop\n      pop\n      jump\t// out\n        /* \"41AccessControl.sol\":1789:2069  function queryRole(bytes32 _role,address _addr)external view returns(string memory){... */\n    tag_12:\n        /* \"41AccessControl.sol\":1858:1871  string memory */\n      0x60\n        /* \"41AccessControl.sol\":1882:1900  string memory res1 */\n      0x00\n        /* \"41AccessControl.sol\":1882:1913  string memory res1 = \"is ADMIN\" */\n      mload(0x40)\n      dup1\n      0x40\n      add\n      0x40\n      mstore\n      dup1\n      0x08\n      dup2\n      mstore\n      0x20\n      add\n      0x69732041444d494e000000000000000000000000000000000000000000000000\n      dup2\n      mstore\n      pop\n      swap1\n      pop\n        /* \"41AccessControl.sol\":1923:1941  string memory res2 */\n      0x00\n        /* \"41AccessControl.sol\":1923:1953  string memory res2 = \"is USER\" */\n      mload(0x40)\n      dup1\n      0x40\n      add\n      0x40\n      mstore\n      dup1\n      0x07\n      dup2\n      mstore\n      0x20\n      add\n      0x6973205553455200000000000000000000000000000000000000000000000000\n      dup2\n      mstore\n      pop\n      swap1\n      pop\n        /* \"41AccessControl.sol\":1967:1972  roles */\n      0x00\n        /* \"41AccessControl.sol\":1967:1979  roles[_role] */\n      dup1\n        /* \"41AccessControl.sol\":1973:1978  _role */\n      dup7\n        /* \"41AccessControl.sol\":1967:1979  roles[_role] */\n      dup2\n      mstore\n      0x20\n      add\n      swap1\n      dup2\n      mstore\n      0x20\n      add\n      0x00\n      keccak256\n        /* \"41AccessControl.sol\":1967:1986  roles[_role][_addr] */\n      0x00\n        /* \"41AccessControl.sol\":1980:1985  _addr */\n      dup6\n        /* \"41AccessControl.sol\":1967:1986  roles[_role][_addr] */\n      0xffffffffffffffffffffffffffffffffffffffff\n      and\n      0xffffffffffffffffffffffffffffffffffffffff\n      and\n      dup2\n      mstore\n      0x20\n      add\n      swap1\n      dup2\n      mstore\n      0x20\n      add\n      0x00\n      keccak256\n      0x00\n      swap1\n      sload\n      swap1\n      0x0100\n      exp\n      swap1\n      div\n      0xff\n      and\n        /* \"41AccessControl.sol\":1963:2063  if (roles[_role][_addr]){... */\n      iszero\n      tag_28\n      jumpi\n        /* \"41AccessControl.sol\":2008:2012  res1 */\n      dup2\n        /* \"41AccessControl.sol\":2001:2012  return res1 */\n      swap3\n      pop\n      pop\n      pop\n      jump(tag_27)\n        /* \"41AccessControl.sol\":1963:2063  if (roles[_role][_addr]){... */\n    tag_28:\n        /* \"41AccessControl.sol\":2048:2052  res2 */\n      dup1\n        /* \"41AccessControl.sol\":2041:2052  return res2 */\n      swap3\n      pop\n      pop\n      pop\n        /* \"41AccessControl.sol\":1789:2069  function queryRole(bytes32 _role,address _addr)external view returns(string memory){... */\n    tag_27:\n      swap3\n      swap2\n      pop\n      pop\n      jump\t// out\n        /* \"41AccessControl.sol\":1622:1783  function revokeRole(bytes32 _role,address addr)external onlyOwner(ADMIN){... */\n    tag_17:\n        /* \"41AccessControl.sol\":642:667  abi.encodePacked(\"ADMIN\") */\n      add(0x20, mload(0x40))\n      tag_30\n      swap1\n      tag_19\n      jump\t// in\n    tag_30:\n      mload(0x40)\n      0x20\n      dup2\n      dup4\n      sub\n      sub\n      dup2\n      mstore\n      swap1\n      0x40\n      mstore\n        /* \"41AccessControl.sol\":632:668  keccak256(abi.encodePacked(\"ADMIN\")) */\n      dup1\n      mload\n      swap1\n      0x20\n      add\n      keccak256\n        /* \"41AccessControl.sol\":1074:1079  roles */\n      0x00\n        /* \"41AccessControl.sol\":1074:1086  roles[_role] */\n      dup1\n        /* \"41AccessControl.sol\":1080:1085  _role */\n      dup3\n        /* \"41AccessControl.sol\":1074:1086  roles[_role] */\n      dup2\n      mstore\n      0x20\n      add\n      swap1\n      dup2\n      mstore\n      0x20\n      add\n      0x00\n      keccak256\n        /* \"41AccessControl.sol\":1074:1098  roles[_role][msg.sender] */\n      0x00\n        /* \"41AccessControl.sol\":1087:1097  msg.sender */\n      caller\n        /* \"41AccessControl.sol\":1074:1098  roles[_role][msg.sender] */\n      0xffffffffffffffffffffffffffffffffffffffff\n      and\n      0xffffffffffffffffffffffffffffffffffffffff\n      and\n      dup2\n      mstore\n      0x20\n      add\n      swap1\n      dup2\n      mstore\n      0x20\n      add\n      0x00\n      keccak256\n      0x00\n      swap1\n      sload\n      swap1\n      0x0100\n      exp\n      swap1\n      div\n      0xff\n      and\n        /* \"41AccessControl.sol\":1066:1134  require(roles[_role][msg.sender], \"not allow current role operate!\") */\n      tag_32\n      jumpi\n      mload(0x40)\n      0x08c379a000000000000000000000000000000000000000000000000000000000\n      dup2\n      mstore\n      0x04\n      add\n      tag_33\n      swap1\n      tag_23\n      jump\t// in\n    tag_33:\n      mload(0x40)\n      dup1\n      swap2\n      sub\n      swap1\n      revert\n    tag_32:\n        /* \"41AccessControl.sol\":1725:1730  false */\n      0x00\n        /* \"41AccessControl.sol\":1704:1709  roles */\n      dup1\n        /* \"41AccessControl.sol\":1704:1716  roles[_role] */\n      0x00\n        /* \"41AccessControl.sol\":1710:1715  _role */\n      dup6\n        /* \"41AccessControl.sol\":1704:1716  roles[_role] */\n      dup2\n      mstore\n      0x20\n      add\n      swap1\n      dup2\n      mstore\n      0x20\n      add\n      0x00\n      keccak256\n        /* \"41AccessControl.sol\":1704:1722  roles[_role][addr] */\n      0x00\n        /* \"41AccessControl.sol\":1717:1721  addr */\n      dup5\n        /* \"41AccessControl.sol\":1704:1722  roles[_role][addr] */\n      0xffffffffffffffffffffffffffffffffffffffff\n      and\n      0xffffffffffffffffffffffffffffffffffffffff\n      and\n      dup2\n      mstore\n      0x20\n      add\n      swap1\n      dup2\n      mstore\n      0x20\n      add\n      0x00\n      keccak256\n      0x00\n        /* \"41AccessControl.sol\":1704:1730  roles[_role][addr] = false */\n      0x0100\n      exp\n      dup2\n      sload\n      dup2\n      0xff\n      mul\n      not\n      and\n      swap1\n      dup4\n      iszero\n      iszero\n      mul\n      or\n      swap1\n      sstore\n      pop\n        /* \"41AccessControl.sol\":1745:1776  RevokeLog(_role,\"revoke ADMIN\") */\n      0xea2bf9d7f000f40a2bfd899aa8d8033fe014ed9daa10b3d4cb4276209554e5d7\n        /* \"41AccessControl.sol\":1755:1760  _role */\n      dup4\n        /* \"41AccessControl.sol\":1745:1776  RevokeLog(_role,\"revoke ADMIN\") */\n      mload(0x40)\n      tag_35\n      swap2\n      swap1\n      tag_36\n      jump\t// in\n    tag_35:\n      mload(0x40)\n      dup1\n      swap2\n      sub\n      swap1\n      log1\n        /* \"41AccessControl.sol\":1622:1783  function revokeRole(bytes32 _role,address addr)external onlyOwner(ADMIN){... */\n      pop\n      pop\n      pop\n      jump\t// out\n        /* \"41AccessControl.sol\":1326:1572  function _grantRole(bytes32 _role,address addr) internal {... */\n    tag_26:\n        /* \"41AccessControl.sol\":1517:1521  true */\n      0x01\n        /* \"41AccessControl.sol\":1496:1501  roles */\n      0x00\n        /* \"41AccessControl.sol\":1496:1508  roles[_role] */\n      dup1\n        /* \"41AccessControl.sol\":1502:1507  _role */\n      dup5\n        /* \"41AccessControl.sol\":1496:1508  roles[_role] */\n      dup2\n      mstore\n      0x20\n      add\n      swap1\n      dup2\n      mstore\n      0x20\n      add\n      0x00\n      keccak256\n        /* \"41AccessControl.sol\":1496:1514  roles[_role][addr] */\n      0x00\n        /* \"41AccessControl.sol\":1509:1513  addr */\n      dup4\n        /* \"41AccessControl.sol\":1496:1514  roles[_role][addr] */\n      0xffffffffffffffffffffffffffffffffffffffff\n      and\n      0xffffffffffffffffffffffffffffffffffffffff\n      and\n      dup2\n      mstore\n      0x20\n      add\n      swap1\n      dup2\n      mstore\n      0x20\n      add\n      0x00\n      keccak256\n      0x00\n        /* \"41AccessControl.sol\":1496:1521  roles[_role][addr] = true */\n      0x0100\n      exp\n      dup2\n      sload\n      dup2\n      0xff\n      mul\n      not\n      and\n      swap1\n      dup4\n      iszero\n      iszero\n      mul\n      or\n      swap1\n      sstore\n      pop\n        /* \"41AccessControl.sol\":1536:1565  GrantLog(_role,\"grant ADMIN\") */\n      0xd396efed995c9c719c485f5ca99e5f2919aacec90a5e68efa191f2cddf42f8a6\n        /* \"41AccessControl.sol\":1545:1550  _role */\n      dup3\n        /* \"41AccessControl.sol\":1536:1565  GrantLog(_role,\"grant ADMIN\") */\n      mload(0x40)\n      tag_38\n      swap2\n      swap1\n      tag_39\n      jump\t// in\n    tag_38:\n      mload(0x40)\n      dup1\n      swap2\n      sub\n      swap1\n      log1\n        /* \"41AccessControl.sol\":1326:1572  function _grantRole(bytes32 _role,address addr) internal {... */\n      pop\n      pop\n      jump\t// out\n        /* \"#utility.yul\":7:146   */\n    tag_41:\n        /* \"#utility.yul\":53:58   */\n      0x00\n        /* \"#utility.yul\":91:97   */\n      dup2\n        /* \"#utility.yul\":78:98   */\n      calldataload\n        /* \"#utility.yul\":69:98   */\n      swap1\n      pop\n        /* \"#utility.yul\":107:140   */\n      tag_43\n        /* \"#utility.yul\":134:139   */\n      dup2\n        /* \"#utility.yul\":107:140   */\n      tag_44\n      jump\t// in\n    tag_43:\n        /* \"#utility.yul\":7:146   */\n      swap3\n      swap2\n      pop\n      pop\n      jump\t// out\n        /* \"#utility.yul\":152:291   */\n    tag_45:\n        /* \"#utility.yul\":198:203   */\n      0x00\n        /* \"#utility.yul\":236:242   */\n      dup2\n        /* \"#utility.yul\":223:243   */\n      calldataload\n        /* \"#utility.yul\":214:243   */\n      swap1\n      pop\n        /* \"#utility.yul\":252:285   */\n      tag_47\n        /* \"#utility.yul\":279:284   */\n      dup2\n        /* \"#utility.yul\":252:285   */\n      tag_48\n      jump\t// in\n    tag_47:\n        /* \"#utility.yul\":152:291   */\n      swap3\n      swap2\n      pop\n      pop\n      jump\t// out\n        /* \"#utility.yul\":297:771   */\n    tag_8:\n        /* \"#utility.yul\":365:371   */\n      0x00\n        /* \"#utility.yul\":373:379   */\n      dup1\n        /* \"#utility.yul\":422:424   */\n      0x40\n        /* \"#utility.yul\":410:419   */\n      dup4\n        /* \"#utility.yul\":401:408   */\n      dup6\n        /* \"#utility.yul\":397:420   */\n      sub\n        /* \"#utility.yul\":393:425   */\n      slt\n        /* \"#utility.yul\":390:509   */\n      iszero\n      tag_50\n      jumpi\n        /* \"#utility.yul\":428:507   */\n      tag_51\n      tag_52\n      jump\t// in\n    tag_51:\n        /* \"#utility.yul\":390:509   */\n    tag_50:\n        /* \"#utility.yul\":548:549   */\n      0x00\n        /* \"#utility.yul\":573:626   */\n      tag_53\n        /* \"#utility.yul\":618:625   */\n      dup6\n        /* \"#utility.yul\":609:615   */\n      dup3\n        /* \"#utility.yul\":598:607   */\n      dup7\n        /* \"#utility.yul\":594:616   */\n      add\n        /* \"#utility.yul\":573:626   */\n      tag_45\n      jump\t// in\n    tag_53:\n        /* \"#utility.yul\":563:626   */\n      swap3\n      pop\n        /* \"#utility.yul\":519:636   */\n      pop\n        /* \"#utility.yul\":675:677   */\n      0x20\n        /* \"#utility.yul\":701:754   */\n      tag_54\n        /* \"#utility.yul\":746:753   */\n      dup6\n        /* \"#utility.yul\":737:743   */\n      dup3\n        /* \"#utility.yul\":726:735   */\n      dup7\n        /* \"#utility.yul\":722:744   */\n      add\n        /* \"#utility.yul\":701:754   */\n      tag_41\n      jump\t// in\n    tag_54:\n        /* \"#utility.yul\":691:754   */\n      swap2\n      pop\n        /* \"#utility.yul\":646:764   */\n      pop\n        /* \"#utility.yul\":297:771   */\n      swap3\n      pop\n      swap3\n      swap1\n      pop\n      jump\t// out\n        /* \"#utility.yul\":777:895   */\n    tag_55:\n        /* \"#utility.yul\":864:888   */\n      tag_57\n        /* \"#utility.yul\":882:887   */\n      dup2\n        /* \"#utility.yul\":864:888   */\n      tag_58\n      jump\t// in\n    tag_57:\n        /* \"#utility.yul\":859:862   */\n      dup3\n        /* \"#utility.yul\":852:889   */\n      mstore\n        /* \"#utility.yul\":777:895   */\n      pop\n      pop\n      jump\t// out\n        /* \"#utility.yul\":901:1265   */\n    tag_59:\n        /* \"#utility.yul\":989:992   */\n      0x00\n        /* \"#utility.yul\":1017:1056   */\n      tag_61\n        /* \"#utility.yul\":1050:1055   */\n      dup3\n        /* \"#utility.yul\":1017:1056   */\n      tag_62\n      jump\t// in\n    tag_61:\n        /* \"#utility.yul\":1072:1143   */\n      tag_63\n        /* \"#utility.yul\":1136:1142   */\n      dup2\n        /* \"#utility.yul\":1131:1134   */\n      dup6\n        /* \"#utility.yul\":1072:1143   */\n      tag_64\n      jump\t// in\n    tag_63:\n        /* \"#utility.yul\":1065:1143   */\n      swap4\n      pop\n        /* \"#utility.yul\":1152:1204   */\n      tag_65\n        /* \"#utility.yul\":1197:1203   */\n      dup2\n        /* \"#utility.yul\":1192:1195   */\n      dup6\n        /* \"#utility.yul\":1185:1189   */\n      0x20\n        /* \"#utility.yul\":1178:1183   */\n      dup7\n        /* \"#utility.yul\":1174:1190   */\n      add\n        /* \"#utility.yul\":1152:1204   */\n      tag_66\n      jump\t// in\n    tag_65:\n        /* \"#utility.yul\":1229:1258   */\n      tag_67\n        /* \"#utility.yul\":1251:1257   */\n      dup2\n        /* \"#utility.yul\":1229:1258   */\n      tag_68\n      jump\t// in\n    tag_67:\n        /* \"#utility.yul\":1224:1227   */\n      dup5\n        /* \"#utility.yul\":1220:1259   */\n      add\n        /* \"#utility.yul\":1213:1259   */\n      swap2\n      pop\n        /* \"#utility.yul\":993:1265   */\n      pop\n        /* \"#utility.yul\":901:1265   */\n      swap3\n      swap2\n      pop\n      pop\n      jump\t// out\n        /* \"#utility.yul\":1271:1637   */\n    tag_69:\n        /* \"#utility.yul\":1413:1416   */\n      0x00\n        /* \"#utility.yul\":1434:1501   */\n      tag_71\n        /* \"#utility.yul\":1498:1500   */\n      0x0c\n        /* \"#utility.yul\":1493:1496   */\n      dup4\n        /* \"#utility.yul\":1434:1501   */\n      tag_64\n      jump\t// in\n    tag_71:\n        /* \"#utility.yul\":1427:1501   */\n      swap2\n      pop\n        /* \"#utility.yul\":1510:1603   */\n      tag_72\n        /* \"#utility.yul\":1599:1602   */\n      dup3\n        /* \"#utility.yul\":1510:1603   */\n      tag_73\n      jump\t// in\n    tag_72:\n        /* \"#utility.yul\":1628:1630   */\n      0x20\n        /* \"#utility.yul\":1623:1626   */\n      dup3\n        /* \"#utility.yul\":1619:1631   */\n      add\n        /* \"#utility.yul\":1612:1631   */\n      swap1\n      pop\n        /* \"#utility.yul\":1271:1637   */\n      swap2\n      swap1\n      pop\n      jump\t// out\n        /* \"#utility.yul\":1643:2009   */\n    tag_74:\n        /* \"#utility.yul\":1785:1788   */\n      0x00\n        /* \"#utility.yul\":1806:1873   */\n      tag_76\n        /* \"#utility.yul\":1870:1872   */\n      0x1f\n        /* \"#utility.yul\":1865:1868   */\n      dup4\n        /* \"#utility.yul\":1806:1873   */\n      tag_64\n      jump\t// in\n    tag_76:\n        /* \"#utility.yul\":1799:1873   */\n      swap2\n      pop\n        /* \"#utility.yul\":1882:1975   */\n      tag_77\n        /* \"#utility.yul\":1971:1974   */\n      dup3\n        /* \"#utility.yul\":1882:1975   */\n      tag_78\n      jump\t// in\n    tag_77:\n        /* \"#utility.yul\":2000:2002   */\n      0x20\n        /* \"#utility.yul\":1995:1998   */\n      dup3\n        /* \"#utility.yul\":1991:2003   */\n      add\n        /* \"#utility.yul\":1984:2003   */\n      swap1\n      pop\n        /* \"#utility.yul\":1643:2009   */\n      swap2\n      swap1\n      pop\n      jump\t// out\n        /* \"#utility.yul\":2015:2381   */\n    tag_79:\n        /* \"#utility.yul\":2157:2160   */\n      0x00\n        /* \"#utility.yul\":2178:2245   */\n      tag_81\n        /* \"#utility.yul\":2242:2244   */\n      0x0b\n        /* \"#utility.yul\":2237:2240   */\n      dup4\n        /* \"#utility.yul\":2178:2245   */\n      tag_64\n      jump\t// in\n    tag_81:\n        /* \"#utility.yul\":2171:2245   */\n      swap2\n      pop\n        /* \"#utility.yul\":2254:2347   */\n      tag_82\n        /* \"#utility.yul\":2343:2346   */\n      dup3\n        /* \"#utility.yul\":2254:2347   */\n      tag_83\n      jump\t// in\n    tag_82:\n        /* \"#utility.yul\":2372:2374   */\n      0x20\n        /* \"#utility.yul\":2367:2370   */\n      dup3\n        /* \"#utility.yul\":2363:2375   */\n      add\n        /* \"#utility.yul\":2356:2375   */\n      swap1\n      pop\n        /* \"#utility.yul\":2015:2381   */\n      swap2\n      swap1\n      pop\n      jump\t// out\n        /* \"#utility.yul\":2387:2787   */\n    tag_84:\n        /* \"#utility.yul\":2547:2550   */\n      0x00\n        /* \"#utility.yul\":2568:2652   */\n      tag_86\n        /* \"#utility.yul\":2650:2651   */\n      0x05\n        /* \"#utility.yul\":2645:2648   */\n      dup4\n        /* \"#utility.yul\":2568:2652   */\n      tag_87\n      jump\t// in\n    tag_86:\n        /* \"#utility.yul\":2561:2652   */\n      swap2\n      pop\n        /* \"#utility.yul\":2661:2754   */\n      tag_88\n        /* \"#utility.yul\":2750:2753   */\n      dup3\n        /* \"#utility.yul\":2661:2754   */\n      tag_89\n      jump\t// in\n    tag_88:\n        /* \"#utility.yul\":2779:2780   */\n      0x05\n        /* \"#utility.yul\":2774:2777   */\n      dup3\n        /* \"#utility.yul\":2770:2781   */\n      add\n        /* \"#utility.yul\":2763:2781   */\n      swap1\n      pop\n        /* \"#utility.yul\":2387:2787   */\n      swap2\n      swap1\n      pop\n      jump\t// out\n        /* \"#utility.yul\":2793:3174   */\n    tag_19:\n        /* \"#utility.yul\":2978:2981   */\n      0x00\n        /* \"#utility.yul\":3000:3148   */\n      tag_91\n        /* \"#utility.yul\":3144:3147   */\n      dup3\n        /* \"#utility.yul\":3000:3148   */\n      tag_84\n      jump\t// in\n    tag_91:\n        /* \"#utility.yul\":2993:3148   */\n      swap2\n      pop\n        /* \"#utility.yul\":3165:3168   */\n      dup2\n        /* \"#utility.yul\":3158:3168   */\n      swap1\n      pop\n        /* \"#utility.yul\":2793:3174   */\n      swap2\n      swap1\n      pop\n      jump\t// out\n        /* \"#utility.yul\":3180:3709   */\n    tag_36:\n        /* \"#utility.yul\":3374:3378   */\n      0x00\n        /* \"#utility.yul\":3412:3414   */\n      0x40\n        /* \"#utility.yul\":3401:3410   */\n      dup3\n        /* \"#utility.yul\":3397:3415   */\n      add\n        /* \"#utility.yul\":3389:3415   */\n      swap1\n      pop\n        /* \"#utility.yul\":3425:3496   */\n      tag_93\n        /* \"#utility.yul\":3493:3494   */\n      0x00\n        /* \"#utility.yul\":3482:3491   */\n      dup4\n        /* \"#utility.yul\":3478:3495   */\n      add\n        /* \"#utility.yul\":3469:3475   */\n      dup5\n        /* \"#utility.yul\":3425:3496   */\n      tag_55\n      jump\t// in\n    tag_93:\n        /* \"#utility.yul\":3543:3552   */\n      dup2\n        /* \"#utility.yul\":3537:3541   */\n      dup2\n        /* \"#utility.yul\":3533:3553   */\n      sub\n        /* \"#utility.yul\":3528:3530   */\n      0x20\n        /* \"#utility.yul\":3517:3526   */\n      dup4\n        /* \"#utility.yul\":3513:3531   */\n      add\n        /* \"#utility.yul\":3506:3554   */\n      mstore\n        /* \"#utility.yul\":3571:3702   */\n      tag_94\n        /* \"#utility.yul\":3697:3701   */\n      dup2\n        /* \"#utility.yul\":3571:3702   */\n      tag_69\n      jump\t// in\n    tag_94:\n        /* \"#utility.yul\":3563:3702   */\n      swap1\n      pop\n        /* \"#utility.yul\":3180:3709   */\n      swap3\n      swap2\n      pop\n      pop\n      jump\t// out\n        /* \"#utility.yul\":3715:4244   */\n    tag_39:\n        /* \"#utility.yul\":3909:3913   */\n      0x00\n        /* \"#utility.yul\":3947:3949   */\n      0x40\n        /* \"#utility.yul\":3936:3945   */\n      dup3\n        /* \"#utility.yul\":3932:3950   */\n      add\n        /* \"#utility.yul\":3924:3950   */\n      swap1\n      pop\n        /* \"#utility.yul\":3960:4031   */\n      tag_96\n        /* \"#utility.yul\":4028:4029   */\n      0x00\n        /* \"#utility.yul\":4017:4026   */\n      dup4\n        /* \"#utility.yul\":4013:4030   */\n      add\n        /* \"#utility.yul\":4004:4010   */\n      dup5\n        /* \"#utility.yul\":3960:4031   */\n      tag_55\n      jump\t// in\n    tag_96:\n        /* \"#utility.yul\":4078:4087   */\n      dup2\n        /* \"#utility.yul\":4072:4076   */\n      dup2\n        /* \"#utility.yul\":4068:4088   */\n      sub\n        /* \"#utility.yul\":4063:4065   */\n      0x20\n        /* \"#utility.yul\":4052:4061   */\n      dup4\n        /* \"#utility.yul\":4048:4066   */\n      add\n        /* \"#utility.yul\":4041:4089   */\n      mstore\n        /* \"#utility.yul\":4106:4237   */\n      tag_97\n        /* \"#utility.yul\":4232:4236   */\n      dup2\n        /* \"#utility.yul\":4106:4237   */\n      tag_79\n      jump\t// in\n    tag_97:\n        /* \"#utility.yul\":4098:4237   */\n      swap1\n      pop\n        /* \"#utility.yul\":3715:4244   */\n      swap3\n      swap2\n      pop\n      pop\n      jump\t// out\n        /* \"#utility.yul\":4250:4563   */\n    tag_14:\n        /* \"#utility.yul\":4363:4367   */\n      0x00\n        /* \"#utility.yul\":4401:4403   */\n      0x20\n        /* \"#utility.yul\":4390:4399   */\n      dup3\n        /* \"#utility.yul\":4386:4404   */\n      add\n        /* \"#utility.yul\":4378:4404   */\n      swap1\n      pop\n        /* \"#utility.yul\":4450:4459   */\n      dup2\n        /* \"#utility.yul\":4444:4448   */\n      dup2\n        /* \"#utility.yul\":4440:4460   */\n      sub\n        /* \"#utility.yul\":4436:4437   */\n      0x00\n        /* \"#utility.yul\":4425:4434   */\n      dup4\n        /* \"#utility.yul\":4421:4438   */\n      add\n        /* \"#utility.yul\":4414:4461   */\n      mstore\n        /* \"#utility.yul\":4478:4556   */\n      tag_99\n        /* \"#utility.yul\":4551:4555   */\n      dup2\n        /* \"#utility.yul\":4542:4548   */\n      dup5\n        /* \"#utility.yul\":4478:4556   */\n      tag_59\n      jump\t// in\n    tag_99:\n        /* \"#utility.yul\":4470:4556   */\n      swap1\n      pop\n        /* \"#utility.yul\":4250:4563   */\n      swap3\n      swap2\n      pop\n      pop\n      jump\t// out\n        /* \"#utility.yul\":4569:4988   */\n    tag_23:\n        /* \"#utility.yul\":4735:4739   */\n      0x00\n        /* \"#utility.yul\":4773:4775   */\n      0x20\n        /* \"#utility.yul\":4762:4771   */\n      dup3\n        /* \"#utility.yul\":4758:4776   */\n      add\n        /* \"#utility.yul\":4750:4776   */\n      swap1\n      pop\n        /* \"#utility.yul\":4822:4831   */\n      dup2\n        /* \"#utility.yul\":4816:4820   */\n      dup2\n        /* \"#utility.yul\":4812:4832   */\n      sub\n        /* \"#utility.yul\":4808:4809   */\n      0x00\n        /* \"#utility.yul\":4797:4806   */\n      dup4\n        /* \"#utility.yul\":4793:4810   */\n      add\n        /* \"#utility.yul\":4786:4833   */\n      mstore\n        /* \"#utility.yul\":4850:4981   */\n      tag_101\n        /* \"#utility.yul\":4976:4980   */\n      dup2\n        /* \"#utility.yul\":4850:4981   */\n      tag_74\n      jump\t// in\n    tag_101:\n        /* \"#utility.yul\":4842:4981   */\n      swap1\n      pop\n        /* \"#utility.yul\":4569:4988   */\n      swap2\n      swap1\n      pop\n      jump\t// out\n        /* \"#utility.yul\":5075:5174   */\n    tag_62:\n        /* \"#utility.yul\":5127:5133   */\n      0x00\n        /* \"#utility.yul\":5161:5166   */\n      dup2\n        /* \"#utility.yul\":5155:5167   */\n      mload\n        /* \"#utility.yul\":5145:5167   */\n      swap1\n      pop\n        /* \"#utility.yul\":5075:5174   */\n      swap2\n      swap1\n      pop\n      jump\t// out\n        /* \"#utility.yul\":5180:5349   */\n    tag_64:\n        /* \"#utility.yul\":5264:5275   */\n      0x00\n        /* \"#utility.yul\":5298:5304   */\n      dup3\n        /* \"#utility.yul\":5293:5296   */\n      dup3\n        /* \"#utility.yul\":5286:5305   */\n      mstore\n        /* \"#utility.yul\":5338:5342   */\n      0x20\n        /* \"#utility.yul\":5333:5336   */\n      dup3\n        /* \"#utility.yul\":5329:5343   */\n      add\n        /* \"#utility.yul\":5314:5343   */\n      swap1\n      pop\n        /* \"#utility.yul\":5180:5349   */\n      swap3\n      swap2\n      pop\n      pop\n      jump\t// out\n        /* \"#utility.yul\":5355:5503   */\n    tag_87:\n        /* \"#utility.yul\":5457:5468   */\n      0x00\n        /* \"#utility.yul\":5494:5497   */\n      dup2\n        /* \"#utility.yul\":5479:5497   */\n      swap1\n      pop\n        /* \"#utility.yul\":5355:5503   */\n      swap3\n      swap2\n      pop\n      pop\n      jump\t// out\n        /* \"#utility.yul\":5509:5605   */\n    tag_107:\n        /* \"#utility.yul\":5546:5553   */\n      0x00\n        /* \"#utility.yul\":5575:5599   */\n      tag_109\n        /* \"#utility.yul\":5593:5598   */\n      dup3\n        /* \"#utility.yul\":5575:5599   */\n      tag_110\n      jump\t// in\n    tag_109:\n        /* \"#utility.yul\":5564:5599   */\n      swap1\n      pop\n        /* \"#utility.yul\":5509:5605   */\n      swap2\n      swap1\n      pop\n      jump\t// out\n        /* \"#utility.yul\":5611:5688   */\n    tag_58:\n        /* \"#utility.yul\":5648:5655   */\n      0x00\n        /* \"#utility.yul\":5677:5682   */\n      dup2\n        /* \"#utility.yul\":5666:5682   */\n      swap1\n      pop\n        /* \"#utility.yul\":5611:5688   */\n      swap2\n      swap1\n      pop\n      jump\t// out\n        /* \"#utility.yul\":5694:5820   */\n    tag_110:\n        /* \"#utility.yul\":5731:5738   */\n      0x00\n        /* \"#utility.yul\":5771:5813   */\n      0xffffffffffffffffffffffffffffffffffffffff\n        /* \"#utility.yul\":5764:5769   */\n      dup3\n        /* \"#utility.yul\":5760:5814   */\n      and\n        /* \"#utility.yul\":5749:5814   */\n      swap1\n      pop\n        /* \"#utility.yul\":5694:5820   */\n      swap2\n      swap1\n      pop\n      jump\t// out\n        /* \"#utility.yul\":5826:6133   */\n    tag_66:\n        /* \"#utility.yul\":5894:5895   */\n      0x00\n        /* \"#utility.yul\":5904:6017   */\n    tag_114:\n        /* \"#utility.yul\":5918:5924   */\n      dup4\n        /* \"#utility.yul\":5915:5916   */\n      dup2\n        /* \"#utility.yul\":5912:5925   */\n      lt\n        /* \"#utility.yul\":5904:6017   */\n      iszero\n      tag_116\n      jumpi\n        /* \"#utility.yul\":6003:6004   */\n      dup1\n        /* \"#utility.yul\":5998:6001   */\n      dup3\n        /* \"#utility.yul\":5994:6005   */\n      add\n        /* \"#utility.yul\":5988:6006   */\n      mload\n        /* \"#utility.yul\":5984:5985   */\n      dup2\n        /* \"#utility.yul\":5979:5982   */\n      dup5\n        /* \"#utility.yul\":5975:5986   */\n      add\n        /* \"#utility.yul\":5968:6007   */\n      mstore\n        /* \"#utility.yul\":5940:5942   */\n      0x20\n        /* \"#utility.yul\":5937:5938   */\n      dup2\n        /* \"#utility.yul\":5933:5943   */\n      add\n        /* \"#utility.yul\":5928:5943   */\n      swap1\n      pop\n        /* \"#utility.yul\":5904:6017   */\n      jump(tag_114)\n    tag_116:\n        /* \"#utility.yul\":6035:6041   */\n      dup4\n        /* \"#utility.yul\":6032:6033   */\n      dup2\n        /* \"#utility.yul\":6029:6042   */\n      gt\n        /* \"#utility.yul\":6026:6127   */\n      iszero\n      tag_117\n      jumpi\n        /* \"#utility.yul\":6115:6116   */\n      0x00\n        /* \"#utility.yul\":6106:6112   */\n      dup5\n        /* \"#utility.yul\":6101:6104   */\n      dup5\n        /* \"#utility.yul\":6097:6113   */\n      add\n        /* \"#utility.yul\":6090:6117   */\n      mstore\n        /* \"#utility.yul\":6026:6127   */\n    tag_117:\n        /* \"#utility.yul\":5875:6133   */\n      pop\n        /* \"#utility.yul\":5826:6133   */\n      pop\n      pop\n      pop\n      jump\t// out\n        /* \"#utility.yul\":6262:6379   */\n    tag_52:\n        /* \"#utility.yul\":6371:6372   */\n      0x00\n        /* \"#utility.yul\":6368:6369   */\n      dup1\n        /* \"#utility.yul\":6361:6373   */\n      revert\n        /* \"#utility.yul\":6385:6487   */\n    tag_68:\n        /* \"#utility.yul\":6426:6432   */\n      0x00\n        /* \"#utility.yul\":6477:6479   */\n      0x1f\n        /* \"#utility.yul\":6473:6480   */\n      not\n        /* \"#utility.yul\":6468:6470   */\n      0x1f\n        /* \"#utility.yul\":6461:6466   */\n      dup4\n        /* \"#utility.yul\":6457:6471   */\n      add\n        /* \"#utility.yul\":6453:6481   */\n      and\n        /* \"#utility.yul\":6443:6481   */\n      swap1\n      pop\n        /* \"#utility.yul\":6385:6487   */\n      swap2\n      swap1\n      pop\n      jump\t// out\n        /* \"#utility.yul\":6493:6655   */\n    tag_73:\n        /* \"#utility.yul\":6633:6647   */\n      0x7265766f6b652041444d494e0000000000000000000000000000000000000000\n        /* \"#utility.yul\":6629:6630   */\n      0x00\n        /* \"#utility.yul\":6621:6627   */\n      dup3\n        /* \"#utility.yul\":6617:6631   */\n      add\n        /* \"#utility.yul\":6610:6648   */\n      mstore\n        /* \"#utility.yul\":6493:6655   */\n      pop\n      jump\t// out\n        /* \"#utility.yul\":6661:6842   */\n    tag_78:\n        /* \"#utility.yul\":6801:6834   */\n      0x6e6f7420616c6c6f772063757272656e7420726f6c65206f7065726174652100\n        /* \"#utility.yul\":6797:6798   */\n      0x00\n        /* \"#utility.yul\":6789:6795   */\n      dup3\n        /* \"#utility.yul\":6785:6799   */\n      add\n        /* \"#utility.yul\":6778:6835   */\n      mstore\n        /* \"#utility.yul\":6661:6842   */\n      pop\n      jump\t// out\n        /* \"#utility.yul\":6848:7009   */\n    tag_83:\n        /* \"#utility.yul\":6988:7001   */\n      0x6772616e742041444d494e000000000000000000000000000000000000000000\n        /* \"#utility.yul\":6984:6985   */\n      0x00\n        /* \"#utility.yul\":6976:6982   */\n      dup3\n        /* \"#utility.yul\":6972:6986   */\n      add\n        /* \"#utility.yul\":6965:7002   */\n      mstore\n        /* \"#utility.yul\":6848:7009   */\n      pop\n      jump\t// out\n        /* \"#utility.yul\":7015:7170   */\n    tag_89:\n        /* \"#utility.yul\":7155:7162   */\n      0x41444d494e000000000000000000000000000000000000000000000000000000\n        /* \"#utility.yul\":7151:7152   */\n      0x00\n        /* \"#utility.yul\":7143:7149   */\n      dup3\n        /* \"#utility.yul\":7139:7153   */\n      add\n        /* \"#utility.yul\":7132:7163   */\n      mstore\n        /* \"#utility.yul\":7015:7170   */\n      pop\n      jump\t// out\n        /* \"#utility.yul\":7176:7298   */\n    tag_44:\n        /* \"#utility.yul\":7249:7273   */\n      tag_127\n        /* \"#utility.yul\":7267:7272   */\n      dup2\n        /* \"#utility.yul\":7249:7273   */\n      tag_107\n      jump\t// in\n    tag_127:\n        /* \"#utility.yul\":7242:7247   */\n      dup2\n        /* \"#utility.yul\":7239:7274   */\n      eq\n        /* \"#utility.yul\":7229:7292   */\n      tag_128\n      jumpi\n        /* \"#utility.yul\":7288:7289   */\n      0x00\n        /* \"#utility.yul\":7285:7286   */\n      dup1\n        /* \"#utility.yul\":7278:7290   */\n      revert\n        /* \"#utility.yul\":7229:7292   */\n    tag_128:\n        /* \"#utility.yul\":7176:7298   */\n      pop\n      jump\t// out\n        /* \"#utility.yul\":7304:7426   */\n    tag_48:\n        /* \"#utility.yul\":7377:7401   */\n      tag_130\n        /* \"#utility.yul\":7395:7400   */\n      dup2\n        /* \"#utility.yul\":7377:7401   */\n      tag_58\n      jump\t// in\n    tag_130:\n        /* \"#utility.yul\":7370:7375   */\n      dup2\n        /* \"#utility.yul\":7367:7402   */\n      eq\n        /* \"#utility.yul\":7357:7420   */\n      tag_131\n      jumpi\n        /* \"#utility.yul\":7416:7417   */\n      0x00\n        /* \"#utility.yul\":7413:7414   */\n      dup1\n        /* \"#utility.yul\":7406:7418   */\n      revert\n        /* \"#utility.yul\":7357:7420   */\n    tag_131:\n        /* \"#utility.yul\":7304:7426   */\n      pop\n      jump\t// out\n\n    auxdata: 0xa2646970667358221220c62d7cc3bcac45329738fa19120cd08513e03ee1612fe79a739fdf86d653259964736f6c63430008070033\n}\n",
				"bytecode": {
					"linkReferences": {},
					"object": "608060405234801561001057600080fd5b5061004560405160200161002390610142565b604051602081830303815290604052805190602001203361004a60201b60201c565b6101fd565b600160008084815260200190815260200160002060008373ffffffffffffffffffffffffffffffffffffffff1673ffffffffffffffffffffffffffffffffffffffff16815260200190815260200160002060006101000a81548160ff0219169083151502179055507fd396efed995c9c719c485f5ca99e5f2919aacec90a5e68efa191f2cddf42f8a6826040516100e19190610157565b60405180910390a15050565b6100f6816101a1565b82525050565b6000610109600b83610185565b9150610114826101ab565b602082019050919050565b600061012c600583610196565b9150610137826101d4565b600582019050919050565b600061014d8261011f565b9150819050919050565b600060408201905061016c60008301846100ed565b818103602083015261017d816100fc565b905092915050565b600082825260208201905092915050565b600081905092915050565b6000819050919050565b7f6772616e742041444d494e000000000000000000000000000000000000000000600082015250565b7f41444d494e000000000000000000000000000000000000000000000000000000600082015250565b6108198061020c6000396000f3fe608060405234801561001057600080fd5b50600436106100415760003560e01c80632f2ff15d14610046578063bb9027b614610062578063d547741f14610092575b600080fd5b610060600480360381019061005b919061049e565b6100ae565b005b61007c6004803603810190610077919061049e565b61017e565b6040516100899190610623565b60405180910390f35b6100ac60048036038101906100a7919061049e565b61026c565b005b6040516020016100bd906105b2565b6040516020818303038152906040528051906020012060008082815260200190815260200160002060003373ffffffffffffffffffffffffffffffffffffffff1673ffffffffffffffffffffffffffffffffffffffff16815260200190815260200160002060009054906101000a900460ff1661016f576040517f08c379a000000000000000000000000000000000000000000000000000000000815260040161016690610645565b60405180910390fd5b61017983836103d1565b505050565b606060006040518060400160405280600881526020017f69732041444d494e000000000000000000000000000000000000000000000000815250905060006040518060400160405280600781526020017f6973205553455200000000000000000000000000000000000000000000000000815250905060008086815260200190815260200160002060008573ffffffffffffffffffffffffffffffffffffffff1673ffffffffffffffffffffffffffffffffffffffff16815260200190815260200160002060009054906101000a900460ff1615610260578192505050610266565b80925050505b92915050565b60405160200161027b906105b2565b6040516020818303038152906040528051906020012060008082815260200190815260200160002060003373ffffffffffffffffffffffffffffffffffffffff1673ffffffffffffffffffffffffffffffffffffffff16815260200190815260200160002060009054906101000a900460ff1661032d576040517f08c379a000000000000000000000000000000000000000000000000000000000815260040161032490610645565b60405180910390fd5b600080600085815260200190815260200160002060008473ffffffffffffffffffffffffffffffffffffffff1673ffffffffffffffffffffffffffffffffffffffff16815260200190815260200160002060006101000a81548160ff0219169083151502179055507fea2bf9d7f000f40a2bfd899aa8d8033fe014ed9daa10b3d4cb4276209554e5d7836040516103c491906105c7565b60405180910390a1505050565b600160008084815260200190815260200160002060008373ffffffffffffffffffffffffffffffffffffffff1673ffffffffffffffffffffffffffffffffffffffff16815260200190815260200160002060006101000a81548160ff0219169083151502179055507fd396efed995c9c719c485f5ca99e5f2919aacec90a5e68efa191f2cddf42f8a68260405161046891906105f5565b60405180910390a15050565b600081359050610483816107b5565b92915050565b600081359050610498816107cc565b92915050565b600080604083850312156104b5576104b46106fb565b5b60006104c385828601610489565b92505060206104d485828601610474565b9150509250929050565b6104e78161069e565b82525050565b60006104f882610665565b6105028185610670565b93506105128185602086016106c8565b61051b81610700565b840191505092915050565b6000610533600c83610670565b915061053e82610711565b602082019050919050565b6000610556601f83610670565b91506105618261073a565b602082019050919050565b6000610579600b83610670565b915061058482610763565b602082019050919050565b600061059c600583610681565b91506105a78261078c565b600582019050919050565b60006105bd8261058f565b9150819050919050565b60006040820190506105dc60008301846104de565b81810360208301526105ed81610526565b905092915050565b600060408201905061060a60008301846104de565b818103602083015261061b8161056c565b905092915050565b6000602082019050818103600083015261063d81846104ed565b905092915050565b6000602082019050818103600083015261065e81610549565b9050919050565b600081519050919050565b600082825260208201905092915050565b600081905092915050565b6000610697826106a8565b9050919050565b6000819050919050565b600073ffffffffffffffffffffffffffffffffffffffff82169050919050565b60005b838110156106e65780820151818401526020810190506106cb565b838111156106f5576000848401525b50505050565b600080fd5b6000601f19601f8301169050919050565b7f7265766f6b652041444d494e0000000000000000000000000000000000000000600082015250565b7f6e6f7420616c6c6f772063757272656e7420726f6c65206f7065726174652100600082015250565b7f6772616e742041444d494e000000000000000000000000000000000000000000600082015250565b7f41444d494e000000000000000000000000000000000000000000000000000000600082015250565b6107be8161068c565b81146107c957600080fd5b50565b6107d58161069e565b81146107e057600080fd5b5056fea2646970667358221220c62d7cc3bcac45329738fa19120cd08513e03ee1612fe79a739fdf86d653259964736f6c63430008070033",
					"opcodes": "PUSH1 0x80 PUSH1 0x40 MSTORE CALLVALUE DUP1 ISZERO PUSH2 0x10 JUMPI PUSH1 0x0 DUP1 REVERT JUMPDEST POP PUSH2 0x45 PUSH1 0x40 MLOAD PUSH1 0x20 ADD PUSH2 0x23 SWAP1 PUSH2 0x142 JUMP JUMPDEST PUSH1 0x40 MLOAD PUSH1 0x20 DUP2 DUP4 SUB SUB DUP2 MSTORE SWAP1 PUSH1 0x40 MSTORE DUP1 MLOAD SWAP1 PUSH1 0x20 ADD KECCAK256 CALLER PUSH2 0x4A PUSH1 0x20 SHL PUSH1 0x20 SHR JUMP JUMPDEST PUSH2 0x1FD JUMP JUMPDEST PUSH1 0x1 PUSH1 0x0 DUP1 DUP5 DUP2 MSTORE PUSH1 0x20 ADD SWAP1 DUP2 MSTORE PUSH1 0x20 ADD PUSH1 0x0 KECCAK256 PUSH1 0x0 DUP4 PUSH20 0xFFFFFFFFFFFFFFFFFFFFFFFFFFFFFFFFFFFFFFFF AND PUSH20 0xFFFFFFFFFFFFFFFFFFFFFFFFFFFFFFFFFFFFFFFF AND DUP2 MSTORE PUSH1 0x20 ADD SWAP1 DUP2 MSTORE PUSH1 0x20 ADD PUSH1 0x0 KECCAK256 PUSH1 0x0 PUSH2 0x100 EXP DUP2 SLOAD DUP2 PUSH1 0xFF MUL NOT AND SWAP1 DUP4 ISZERO ISZERO MUL OR SWAP1 SSTORE POP PUSH32 0xD396EFED995C9C719C485F5CA99E5F2919AACEC90A5E68EFA191F2CDDF42F8A6 DUP3 PUSH1 0x40 MLOAD PUSH2 0xE1 SWAP2 SWAP1 PUSH2 0x157 JUMP JUMPDEST PUSH1 0x40 MLOAD DUP1 SWAP2 SUB SWAP1 LOG1 POP POP JUMP JUMPDEST PUSH2 0xF6 DUP2 PUSH2 0x1A1 JUMP JUMPDEST DUP3 MSTORE POP POP JUMP JUMPDEST PUSH1 0x0 PUSH2 0x109 PUSH1 0xB DUP4 PUSH2 0x185 JUMP JUMPDEST SWAP2 POP PUSH2 0x114 DUP3 PUSH2 0x1AB JUMP JUMPDEST PUSH1 0x20 DUP3 ADD SWAP1 POP SWAP2 SWAP1 POP JUMP JUMPDEST PUSH1 0x0 PUSH2 0x12C PUSH1 0x5 DUP4 PUSH2 0x196 JUMP JUMPDEST SWAP2 POP PUSH2 0x137 DUP3 PUSH2 0x1D4 JUMP JUMPDEST PUSH1 0x5 DUP3 ADD SWAP1 POP SWAP2 SWAP1 POP JUMP JUMPDEST PUSH1 0x0 PUSH2 0x14D DUP3 PUSH2 0x11F JUMP JUMPDEST SWAP2 POP DUP2 SWAP1 POP SWAP2 SWAP1 POP JUMP JUMPDEST PUSH1 0x0 PUSH1 0x40 DUP3 ADD SWAP1 POP PUSH2 0x16C PUSH1 0x0 DUP4 ADD DUP5 PUSH2 0xED JUMP JUMPDEST DUP2 DUP2 SUB PUSH1 0x20 DUP4 ADD MSTORE PUSH2 0x17D DUP2 PUSH2 0xFC JUMP JUMPDEST SWAP1 POP SWAP3 SWAP2 POP POP JUMP JUMPDEST PUSH1 0x0 DUP3 DUP3 MSTORE PUSH1 0x20 DUP3 ADD SWAP1 POP SWAP3 SWAP2 POP POP JUMP JUMPDEST PUSH1 0x0 DUP2 SWAP1 POP SWAP3 SWAP2 POP POP JUMP JUMPDEST PUSH1 0x0 DUP2 SWAP1 POP SWAP2 SWAP1 POP JUMP JUMPDEST PUSH32 0x6772616E742041444D494E000000000000000000000000000000000000000000 PUSH1 0x0 DUP3 ADD MSTORE POP JUMP JUMPDEST PUSH32 0x41444D494E000000000000000000000000000000000000000000000000000000 PUSH1 0x0 DUP3 ADD MSTORE POP JUMP JUMPDEST PUSH2 0x819 DUP1 PUSH2 0x20C PUSH1 0x0 CODECOPY PUSH1 0x0 RETURN INVALID PUSH1 0x80 PUSH1 0x40 MSTORE CALLVALUE DUP1 ISZERO PUSH2 0x10 JUMPI PUSH1 0x0 DUP1 REVERT JUMPDEST POP PUSH1 0x4 CALLDATASIZE LT PUSH2 0x41 JUMPI PUSH1 0x0 CALLDATALOAD PUSH1 0xE0 SHR DUP1 PUSH4 0x2F2FF15D EQ PUSH2 0x46 JUMPI DUP1 PUSH4 0xBB9027B6 EQ PUSH2 0x62 JUMPI DUP1 PUSH4 0xD547741F EQ PUSH2 0x92 JUMPI JUMPDEST PUSH1 0x0 DUP1 REVERT JUMPDEST PUSH2 0x60 PUSH1 0x4 DUP1 CALLDATASIZE SUB DUP2 ADD SWAP1 PUSH2 0x5B SWAP2 SWAP1 PUSH2 0x49E JUMP JUMPDEST PUSH2 0xAE JUMP JUMPDEST STOP JUMPDEST PUSH2 0x7C PUSH1 0x4 DUP1 CALLDATASIZE SUB DUP2 ADD SWAP1 PUSH2 0x77 SWAP2 SWAP1 PUSH2 0x49E JUMP JUMPDEST PUSH2 0x17E JUMP JUMPDEST PUSH1 0x40 MLOAD PUSH2 0x89 SWAP2 SWAP1 PUSH2 0x623 JUMP JUMPDEST PUSH1 0x40 MLOAD DUP1 SWAP2 SUB SWAP1 RETURN JUMPDEST PUSH2 0xAC PUSH1 0x4 DUP1 CALLDATASIZE SUB DUP2 ADD SWAP1 PUSH2 0xA7 SWAP2 SWAP1 PUSH2 0x49E JUMP JUMPDEST PUSH2 0x26C JUMP JUMPDEST STOP JUMPDEST PUSH1 0x40 MLOAD PUSH1 0x20 ADD PUSH2 0xBD SWAP1 PUSH2 0x5B2 JUMP JUMPDEST PUSH1 0x40 MLOAD PUSH1 0x20 DUP2 DUP4 SUB SUB DUP2 MSTORE SWAP1 PUSH1 0x40 MSTORE DUP1 MLOAD SWAP1 PUSH1 0x20 ADD KECCAK256 PUSH1 0x0 DUP1 DUP3 DUP2 MSTORE PUSH1 0x20 ADD SWAP1 DUP2 MSTORE PUSH1 0x20 ADD PUSH1 0x0 KECCAK256 PUSH1 0x0 CALLER PUSH20 0xFFFFFFFFFFFFFFFFFFFFFFFFFFFFFFFFFFFFFFFF AND PUSH20 0xFFFFFFFFFFFFFFFFFFFFFFFFFFFFFFFFFFFFFFFF AND DUP2 MSTORE PUSH1 0x20 ADD SWAP1 DUP2 MSTORE PUSH1 0x20 ADD PUSH1 0x0 KECCAK256 PUSH1 0x0 SWAP1 SLOAD SWAP1 PUSH2 0x100 EXP SWAP1 DIV PUSH1 0xFF AND PUSH2 0x16F JUMPI PUSH1 0x40 MLOAD PUSH32 0x8C379A000000000000000000000000000000000000000000000000000000000 DUP2 MSTORE PUSH1 0x4 ADD PUSH2 0x166 SWAP1 PUSH2 0x645 JUMP JUMPDEST PUSH1 0x40 MLOAD DUP1 SWAP2 SUB SWAP1 REVERT JUMPDEST PUSH2 0x179 DUP4 DUP4 PUSH2 0x3D1 JUMP JUMPDEST POP POP POP JUMP JUMPDEST PUSH1 0x60 PUSH1 0x0 PUSH1 0x40 MLOAD DUP1 PUSH1 0x40 ADD PUSH1 0x40 MSTORE DUP1 PUSH1 0x8 DUP2 MSTORE PUSH1 0x20 ADD PUSH32 0x69732041444D494E000000000000000000000000000000000000000000000000 DUP2 MSTORE POP SWAP1 POP PUSH1 0x0 PUSH1 0x40 MLOAD DUP1 PUSH1 0x40 ADD PUSH1 0x40 MSTORE DUP1 PUSH1 0x7 DUP2 MSTORE PUSH1 0x20 ADD PUSH32 0x6973205553455200000000000000000000000000000000000000000000000000 DUP2 MSTORE POP SWAP1 POP PUSH1 0x0 DUP1 DUP7 DUP2 MSTORE PUSH1 0x20 ADD SWAP1 DUP2 MSTORE PUSH1 0x20 ADD PUSH1 0x0 KECCAK256 PUSH1 0x0 DUP6 PUSH20 0xFFFFFFFFFFFFFFFFFFFFFFFFFFFFFFFFFFFFFFFF AND PUSH20 0xFFFFFFFFFFFFFFFFFFFFFFFFFFFFFFFFFFFFFFFF AND DUP2 MSTORE PUSH1 0x20 ADD SWAP1 DUP2 MSTORE PUSH1 0x20 ADD PUSH1 0x0 KECCAK256 PUSH1 0x0 SWAP1 SLOAD SWAP1 PUSH2 0x100 EXP SWAP1 DIV PUSH1 0xFF AND ISZERO PUSH2 0x260 JUMPI DUP2 SWAP3 POP POP POP PUSH2 0x266 JUMP JUMPDEST DUP1 SWAP3 POP POP POP JUMPDEST SWAP3 SWAP2 POP POP JUMP JUMPDEST PUSH1 0x40 MLOAD PUSH1 0x20 ADD PUSH2 0x27B SWAP1 PUSH2 0x5B2 JUMP JUMPDEST PUSH1 0x40 MLOAD PUSH1 0x20 DUP2 DUP4 SUB SUB DUP2 MSTORE SWAP1 PUSH1 0x40 MSTORE DUP1 MLOAD SWAP1 PUSH1 0x20 ADD KECCAK256 PUSH1 0x0 DUP1 DUP3 DUP2 MSTORE PUSH1 0x20 ADD SWAP1 DUP2 MSTORE PUSH1 0x20 ADD PUSH1 0x0 KECCAK256 PUSH1 0x0 CALLER PUSH20 0xFFFFFFFFFFFFFFFFFFFFFFFFFFFFFFFFFFFFFFFF AND PUSH20 0xFFFFFFFFFFFFFFFFFFFFFFFFFFFFFFFFFFFFFFFF AND DUP2 MSTORE PUSH1 0x20 ADD SWAP1 DUP2 MSTORE PUSH1 0x20 ADD PUSH1 0x0 KECCAK256 PUSH1 0x0 SWAP1 SLOAD SWAP1 PUSH2 0x100 EXP SWAP1 DIV PUSH1 0xFF AND PUSH2 0x32D JUMPI PUSH1 0x40 MLOAD PUSH32 0x8C379A000000000000000000000000000000000000000000000000000000000 DUP2 MSTORE PUSH1 0x4 ADD PUSH2 0x324 SWAP1 PUSH2 0x645 JUMP JUMPDEST PUSH1 0x40 MLOAD DUP1 SWAP2 SUB SWAP1 REVERT JUMPDEST PUSH1 0x0 DUP1 PUSH1 0x0 DUP6 DUP2 MSTORE PUSH1 0x20 ADD SWAP1 DUP2 MSTORE PUSH1 0x20 ADD PUSH1 0x0 KECCAK256 PUSH1 0x0 DUP5 PUSH20 0xFFFFFFFFFFFFFFFFFFFFFFFFFFFFFFFFFFFFFFFF AND PUSH20 0xFFFFFFFFFFFFFFFFFFFFFFFFFFFFFFFFFFFFFFFF AND DUP2 MSTORE PUSH1 0x20 ADD SWAP1 DUP2 MSTORE PUSH1 0x20 ADD PUSH1 0x0 KECCAK256 PUSH1 0x0 PUSH2 0x100 EXP DUP2 SLOAD DUP2 PUSH1 0xFF MUL NOT AND SWAP1 DUP4 ISZERO ISZERO MUL OR SWAP1 SSTORE POP PUSH32 0xEA2BF9D7F000F40A2BFD899AA8D8033FE014ED9DAA10B3D4CB4276209554E5D7 DUP4 PUSH1 0x40 MLOAD PUSH2 0x3C4 SWAP2 SWAP1 PUSH2 0x5C7 JUMP JUMPDEST PUSH1 0x40 MLOAD DUP1 SWAP2 SUB SWAP1 LOG1 POP POP POP JUMP JUMPDEST PUSH1 0x1 PUSH1 0x0 DUP1 DUP5 DUP2 MSTORE PUSH1 0x20 ADD SWAP1 DUP2 MSTORE PUSH1 0x20 ADD PUSH1 0x0 KECCAK256 PUSH1 0x0 DUP4 PUSH20 0xFFFFFFFFFFFFFFFFFFFFFFFFFFFFFFFFFFFFFFFF AND PUSH20 0xFFFFFFFFFFFFFFFFFFFFFFFFFFFFFFFFFFFFFFFF AND DUP2 MSTORE PUSH1 0x20 ADD SWAP1 DUP2 MSTORE PUSH1 0x20 ADD PUSH1 0x0 KECCAK256 PUSH1 0x0 PUSH2 0x100 EXP DUP2 SLOAD DUP2 PUSH1 0xFF MUL NOT AND SWAP1 DUP4 ISZERO ISZERO MUL OR SWAP1 SSTORE POP PUSH32 0xD396EFED995C9C719C485F5CA99E5F2919AACEC90A5E68EFA191F2CDDF42F8A6 DUP3 PUSH1 0x40 MLOAD PUSH2 0x468 SWAP2 SWAP1 PUSH2 0x5F5 JUMP JUMPDEST PUSH1 0x40 MLOAD DUP1 SWAP2 SUB SWAP1 LOG1 POP POP JUMP JUMPDEST PUSH1 0x0 DUP2 CALLDATALOAD SWAP1 POP PUSH2 0x483 DUP2 PUSH2 0x7B5 JUMP JUMPDEST SWAP3 SWAP2 POP POP JUMP JUMPDEST PUSH1 0x0 DUP2 CALLDATALOAD SWAP1 POP PUSH2 0x498 DUP2 PUSH2 0x7CC JUMP JUMPDEST SWAP3 SWAP2 POP POP JUMP JUMPDEST PUSH1 0x0 DUP1 PUSH1 0x40 DUP4 DUP6 SUB SLT ISZERO PUSH2 0x4B5 JUMPI PUSH2 0x4B4 PUSH2 0x6FB JUMP JUMPDEST JUMPDEST PUSH1 0x0 PUSH2 0x4C3 DUP6 DUP3 DUP7 ADD PUSH2 0x489 JUMP JUMPDEST SWAP3 POP POP PUSH1 0x20 PUSH2 0x4D4 DUP6 DUP3 DUP7 ADD PUSH2 0x474 JUMP JUMPDEST SWAP2 POP POP SWAP3 POP SWAP3 SWAP1 POP JUMP JUMPDEST PUSH2 0x4E7 DUP2 PUSH2 0x69E JUMP JUMPDEST DUP3 MSTORE POP POP JUMP JUMPDEST PUSH1 0x0 PUSH2 0x4F8 DUP3 PUSH2 0x665 JUMP JUMPDEST PUSH2 0x502 DUP2 DUP6 PUSH2 0x670 JUMP JUMPDEST SWAP4 POP PUSH2 0x512 DUP2 DUP6 PUSH1 0x20 DUP7 ADD PUSH2 0x6C8 JUMP JUMPDEST PUSH2 0x51B DUP2 PUSH2 0x700 JUMP JUMPDEST DUP5 ADD SWAP2 POP POP SWAP3 SWAP2 POP POP JUMP JUMPDEST PUSH1 0x0 PUSH2 0x533 PUSH1 0xC DUP4 PUSH2 0x670 JUMP JUMPDEST SWAP2 POP PUSH2 0x53E DUP3 PUSH2 0x711 JUMP JUMPDEST PUSH1 0x20 DUP3 ADD SWAP1 POP SWAP2 SWAP1 POP JUMP JUMPDEST PUSH1 0x0 PUSH2 0x556 PUSH1 0x1F DUP4 PUSH2 0x670 JUMP JUMPDEST SWAP2 POP PUSH2 0x561 DUP3 PUSH2 0x73A JUMP JUMPDEST PUSH1 0x20 DUP3 ADD SWAP1 POP SWAP2 SWAP1 POP JUMP JUMPDEST PUSH1 0x0 PUSH2 0x579 PUSH1 0xB DUP4 PUSH2 0x670 JUMP JUMPDEST SWAP2 POP PUSH2 0x584 DUP3 PUSH2 0x763 JUMP JUMPDEST PUSH1 0x20 DUP3 ADD SWAP1 POP SWAP2 SWAP1 POP JUMP JUMPDEST PUSH1 0x0 PUSH2 0x59C PUSH1 0x5 DUP4 PUSH2 0x681 JUMP JUMPDEST SWAP2 POP PUSH2 0x5A7 DUP3 PUSH2 0x78C JUMP JUMPDEST PUSH1 0x5 DUP3 ADD SWAP1 POP SWAP2 SWAP1 POP JUMP JUMPDEST PUSH1 0x0 PUSH2 0x5BD DUP3 PUSH2 0x58F JUMP JUMPDEST SWAP2 POP DUP2 SWAP1 POP SWAP2 SWAP1 POP JUMP JUMPDEST PUSH1 0x0 PUSH1 0x40 DUP3 ADD SWAP1 POP PUSH2 0x5DC PUSH1 0x0 DUP4 ADD DUP5 PUSH2 0x4DE JUMP JUMPDEST DUP2 DUP2 SUB PUSH1 0x20 DUP4 ADD MSTORE PUSH2 0x5ED DUP2 PUSH2 0x526 JUMP JUMPDEST SWAP1 POP SWAP3 SWAP2 POP POP JUMP JUMPDEST PUSH1 0x0 PUSH1 0x40 DUP3 ADD SWAP1 POP PUSH2 0x60A PUSH1 0x0 DUP4 ADD DUP5 PUSH2 0x4DE JUMP JUMPDEST DUP2 DUP2 SUB PUSH1 0x20 DUP4 ADD MSTORE PUSH2 0x61B DUP2 PUSH2 0x56C JUMP JUMPDEST SWAP1 POP SWAP3 SWAP2 POP POP JUMP JUMPDEST PUSH1 0x0 PUSH1 0x20 DUP3 ADD SWAP1 POP DUP2 DUP2 SUB PUSH1 0x0 DUP4 ADD MSTORE PUSH2 0x63D DUP2 DUP5 PUSH2 0x4ED JUMP JUMPDEST SWAP1 POP SWAP3 SWAP2 POP POP JUMP JUMPDEST PUSH1 0x0 PUSH1 0x20 DUP3 ADD SWAP1 POP DUP2 DUP2 SUB PUSH1 0x0 DUP4 ADD MSTORE PUSH2 0x65E DUP2 PUSH2 0x549 JUMP JUMPDEST SWAP1 POP SWAP2 SWAP1 POP JUMP JUMPDEST PUSH1 0x0 DUP2 MLOAD SWAP1 POP SWAP2 SWAP1 POP JUMP JUMPDEST PUSH1 0x0 DUP3 DUP3 MSTORE PUSH1 0x20 DUP3 ADD SWAP1 POP SWAP3 SWAP2 POP POP JUMP JUMPDEST PUSH1 0x0 DUP2 SWAP1 POP SWAP3 SWAP2 POP POP JUMP JUMPDEST PUSH1 0x0 PUSH2 0x697 DUP3 PUSH2 0x6A8 JUMP JUMPDEST SWAP1 POP SWAP2 SWAP1 POP JUMP JUMPDEST PUSH1 0x0 DUP2 SWAP1 POP SWAP2 SWAP1 POP JUMP JUMPDEST PUSH1 0x0 PUSH20 0xFFFFFFFFFFFFFFFFFFFFFFFFFFFFFFFFFFFFFFFF DUP3 AND SWAP1 POP SWAP2 SWAP1 POP JUMP JUMPDEST PUSH1 0x0 JUMPDEST DUP4 DUP2 LT ISZERO PUSH2 0x6E6 JUMPI DUP1 DUP3 ADD MLOAD DUP2 DUP5 ADD MSTORE PUSH1 0x20 DUP2 ADD SWAP1 POP PUSH2 0x6CB JUMP JUMPDEST DUP4 DUP2 GT ISZERO PUSH2 0x6F5 JUMPI PUSH1 0x0 DUP5 DUP5 ADD MSTORE JUMPDEST POP POP POP POP JUMP JUMPDEST PUSH1 0x0 DUP1 REVERT JUMPDEST PUSH1 0x0 PUSH1 0x1F NOT PUSH1 0x1F DUP4 ADD AND SWAP1 POP SWAP2 SWAP1 POP JUMP JUMPDEST PUSH32 0x7265766F6B652041444D494E0000000000000000000000000000000000000000 PUSH1 0x0 DUP3 ADD MSTORE POP JUMP JUMPDEST PUSH32 0x6E6F7420616C6C6F772063757272656E7420726F6C65206F7065726174652100 PUSH1 0x0 DUP3 ADD MSTORE POP JUMP JUMPDEST PUSH32 0x6772616E742041444D494E000000000000000000000000000000000000000000 PUSH1 0x0 DUP3 ADD MSTORE POP JUMP JUMPDEST PUSH32 0x41444D494E000000000000000000000000000000000000000000000000000000 PUSH1 0x0 DUP3 ADD MSTORE POP JUMP JUMPDEST PUSH2 0x7BE DUP2 PUSH2 0x68C JUMP JUMPDEST DUP2 EQ PUSH2 0x7C9 JUMPI PUSH1 0x0 DUP1 REVERT JUMPDEST POP JUMP JUMPDEST PUSH2 0x7D5 DUP2 PUSH2 0x69E JUMP JUMPDEST DUP2 EQ PUSH2 0x7E0 JUMPI PUSH1 0x0 DUP1 REVERT JUMPDEST POP JUMP INVALID LOG2 PUSH5 0x6970667358 0x22 SLT KECCAK256 0xC6 0x2D PUSH29 0xC3BCAC45329738FA19120CD08513E03EE1612FE79A739FDF86D6532599 PUSH5 0x736F6C6343 STOP ADDMOD SMOD STOP CALLER "
				},
				"gasEstimates": {
					"creation": {
						"codeDepositCost": "414600",
						"executionCost": "infinite",
						"totalCost": "infinite"
					},
					"external": {
						"grantRole(bytes32,address)": "infinite",
						"queryRole(bytes32,address)": "infinite",
						"revokeRole(bytes32,address)": "infinite"
					},
					"internal": {
						"_grantRole(bytes32,address)": "infinite"
					}
				},
				"methodIdentifiers": {
					"grantRole(bytes32,address)": "2f2ff15d",
					"queryRole(bytes32,address)": "bb9027b6",
					"revokeRole(bytes32,address)": "d547741f"
				}
			},
			"storageLayout": {
				"storage": [
					{
						"astId": 19,
						"contract": "41AccessControl.sol:AccessControl",
						"label": "roles",
						"offset": 0,
						"slot": "0",
						"type": "t_mapping(t_bytes32,t_mapping(t_address,t_bool))"
					}
				],
				"types": {
					"t_address": {
						"encoding": "inplace",
						"label": "address",
						"numberOfBytes": "20"
					},
					"t_bool": {
						"encoding": "inplace",
						"label": "bool",
						"numberOfBytes": "1"
					},
					"t_bytes32": {
						"encoding": "inplace",
						"label": "bytes32",
						"numberOfBytes": "32"
					},
					"t_mapping(t_address,t_bool)": {
						"encoding": "mapping",
						"key": "t_address",
						"label": "mapping(address => bool)",
						"numberOfBytes": "32",
						"value": "t_bool"
					},
					"t_mapping(t_bytes32,t_mapping(t_address,t_bool))": {
						"encoding": "mapping",
						"key": "t_bytes32",
						"label": "mapping(bytes32 => mapping(address => bool))",
						"numberOfBytes": "32",
						"value": "t_mapping(t_address,t_bool)"
					}
				}
			},
			"userdoc": {
				"kind": "user",
				"methods": {},
				"version": 1
			}
		}
	}
}