{
	"33SendEthZuoYe.sol": {
		"SendEthZuoYe": {
			"abi": [
				{
					"anonymous": false,
					"inputs": [
						{
							"indexed": false,
							"internalType": "string",
							"name": "Fun",
							"type": "string"
						},
						{
							"indexed": false,
							"internalType": "uint256",
							"name": "gas",
							"type": "uint256"
						}
					],
					"name": "Log",
					"type": "event"
				},
				{
					"inputs": [],
					"name": "account_money",
					"outputs": [
						{
							"internalType": "uint256",
							"name": "",
							"type": "uint256"
						}
					],
					"stateMutability": "view",
					"type": "function"
				},
				{
					"inputs": [
						{
							"internalType": "address payable",
							"name": "_to",
							"type": "address"
						}
					],
					"name": "callFun",
					"outputs": [],
					"stateMutability": "payable",
					"type": "function"
				},
				{
					"inputs": [],
					"name": "queryAccount",
					"outputs": [
						{
							"internalType": "uint256",
							"name": "",
							"type": "uint256"
						}
					],
					"stateMutability": "view",
					"type": "function"
				},
				{
					"inputs": [
						{
							"internalType": "address payable",
							"name": "_to",
							"type": "address"
						}
					],
					"name": "sendFun",
					"outputs": [],
					"stateMutability": "payable",
					"type": "function"
				},
				{
					"inputs": [
						{
							"internalType": "address payable",
							"name": "_to",
							"type": "address"
						}
					],
					"name": "transferFun",
					"outputs": [],
					"stateMutability": "payable",
					"type": "function"
				}
			],
			"devdoc": {
				"kind": "dev",
				"methods": {},
				"version": 1
			},
			"evm": {
				"assembly": "    /* \"33SendEthZuoYe.sol\":341:1629  contract SendEthZuoYe{... */\n  mstore(0x40, 0x80)\n  callvalue\n  dup1\n  iszero\n  tag_1\n  jumpi\n  0x00\n  dup1\n  revert\ntag_1:\n  pop\n  dataSize(sub_0)\n  dup1\n  dataOffset(sub_0)\n  0x00\n  codecopy\n  0x00\n  return\nstop\n\nsub_0: assembly {\n        /* \"33SendEthZuoYe.sol\":341:1629  contract SendEthZuoYe{... */\n      mstore(0x40, 0x80)\n      jumpi(tag_1, lt(calldatasize, 0x04))\n      shr(0xe0, calldataload(0x00))\n      dup1\n      0x19a5f57e\n      eq\n      tag_2\n      jumpi\n      dup1\n      0x25a89c96\n      eq\n      tag_3\n      jumpi\n      dup1\n      0x2a8ce70b\n      eq\n      tag_4\n      jumpi\n      dup1\n      0xb701254a\n      eq\n      tag_5\n      jumpi\n      dup1\n      0xf47f66af\n      eq\n      tag_6\n      jumpi\n    tag_1:\n      0x00\n      dup1\n      revert\n        /* \"33SendEthZuoYe.sol\":1326:1627  function callFun(address payable _to) external payable{... */\n    tag_2:\n      tag_7\n      0x04\n      dup1\n      calldatasize\n      sub\n      dup2\n      add\n      swap1\n      tag_8\n      swap2\n      swap1\n      tag_9\n      jump\t// in\n    tag_8:\n      tag_10\n      jump\t// in\n    tag_7:\n      stop\n        /* \"33SendEthZuoYe.sol\":468:493  uint public account_money */\n    tag_3:\n      callvalue\n      dup1\n      iszero\n      tag_11\n      jumpi\n      0x00\n      dup1\n      revert\n    tag_11:\n      pop\n      tag_12\n      tag_13\n      jump\t// in\n    tag_12:\n      mload(0x40)\n      tag_14\n      swap2\n      swap1\n      tag_15\n      jump\t// in\n    tag_14:\n      mload(0x40)\n      dup1\n      swap2\n      sub\n      swap1\n      return\n        /* \"33SendEthZuoYe.sol\":1141:1320  function sendFun(address payable _to) external payable {... */\n    tag_4:\n      tag_16\n      0x04\n      dup1\n      calldatasize\n      sub\n      dup2\n      add\n      swap1\n      tag_17\n      swap2\n      swap1\n      tag_9\n      jump\t// in\n    tag_17:\n      tag_18\n      jump\t// in\n    tag_16:\n      stop\n        /* \"33SendEthZuoYe.sol\":623:795  function queryAccount() public view returns(uint){... */\n    tag_5:\n      callvalue\n      dup1\n      iszero\n      tag_19\n      jumpi\n      0x00\n      dup1\n      revert\n    tag_19:\n      pop\n      tag_20\n      tag_21\n      jump\t// in\n    tag_20:\n      mload(0x40)\n      tag_22\n      swap2\n      swap1\n      tag_15\n      jump\t// in\n    tag_22:\n      mload(0x40)\n      dup1\n      swap2\n      sub\n      swap1\n      return\n        /* \"33SendEthZuoYe.sol\":877:1087  function transferFun(address payable _to)external payable{... */\n    tag_6:\n      tag_23\n      0x04\n      dup1\n      calldatasize\n      sub\n      dup2\n      add\n      swap1\n      tag_24\n      swap2\n      swap1\n      tag_9\n      jump\t// in\n    tag_24:\n      tag_25\n      jump\t// in\n    tag_23:\n      stop\n        /* \"33SendEthZuoYe.sol\":1326:1627  function callFun(address payable _to) external payable{... */\n    tag_10:\n        /* \"33SendEthZuoYe.sol\":1498:1510  bool success */\n      0x00\n        /* \"33SendEthZuoYe.sol\":1515:1518  _to */\n      dup2\n        /* \"33SendEthZuoYe.sol\":1515:1523  _to.call */\n      0xffffffffffffffffffffffffffffffffffffffff\n      and\n        /* \"33SendEthZuoYe.sol\":1530:1531  1 */\n      0x01\n        /* \"33SendEthZuoYe.sol\":1515:1536  _to.call{value:1}(\"\") */\n      mload(0x40)\n      tag_27\n      swap1\n      tag_28\n      jump\t// in\n    tag_27:\n      0x00\n      mload(0x40)\n      dup1\n      dup4\n      sub\n      dup2\n      dup6\n      dup8\n      gas\n      call\n      swap3\n      pop\n      pop\n      pop\n      returndatasize\n      dup1\n      0x00\n      dup2\n      eq\n      tag_31\n      jumpi\n      mload(0x40)\n      swap2\n      pop\n      and(add(returndatasize, 0x3f), not(0x1f))\n      dup3\n      add\n      0x40\n      mstore\n      returndatasize\n      dup3\n      mstore\n      returndatasize\n      0x00\n      0x20\n      dup5\n      add\n      returndatacopy\n      jump(tag_30)\n    tag_31:\n      0x60\n      swap2\n      pop\n    tag_30:\n      pop\n        /* \"33SendEthZuoYe.sol\":1497:1536  (bool success,) = _to.call{value:1}(\"\") */\n      pop\n      swap1\n      pop\n        /* \"33SendEthZuoYe.sol\":1554:1561  success */\n      dup1\n        /* \"33SendEthZuoYe.sol\":1546:1576  require(success,\"call failed\") */\n      tag_32\n      jumpi\n      mload(0x40)\n      0x08c379a000000000000000000000000000000000000000000000000000000000\n      dup2\n      mstore\n      0x04\n      add\n      tag_33\n      swap1\n      tag_34\n      jump\t// in\n    tag_33:\n      mload(0x40)\n      dup1\n      swap2\n      sub\n      swap1\n      revert\n    tag_32:\n        /* \"33SendEthZuoYe.sol\":1591:1620  Log(\"transferFun\", gasleft()) */\n      0xdd970dd9b5bfe707922155b058a407655cb18288b807e2216442bca8ad83d6b5\n        /* \"33SendEthZuoYe.sol\":1610:1619  gasleft() */\n      gas\n        /* \"33SendEthZuoYe.sol\":1591:1620  Log(\"transferFun\", gasleft()) */\n      mload(0x40)\n      tag_35\n      swap2\n      swap1\n      tag_36\n      jump\t// in\n    tag_35:\n      mload(0x40)\n      dup1\n      swap2\n      sub\n      swap1\n      log1\n        /* \"33SendEthZuoYe.sol\":1380:1627  {... */\n      pop\n        /* \"33SendEthZuoYe.sol\":1326:1627  function callFun(address payable _to) external payable{... */\n      pop\n      jump\t// out\n        /* \"33SendEthZuoYe.sol\":468:493  uint public account_money */\n    tag_13:\n      sload(0x00)\n      dup2\n      jump\t// out\n        /* \"33SendEthZuoYe.sol\":1141:1320  function sendFun(address payable _to) external payable {... */\n    tag_18:\n        /* \"33SendEthZuoYe.sol\":1206:1218  bool success */\n      0x00\n        /* \"33SendEthZuoYe.sol\":1221:1224  _to */\n      dup2\n        /* \"33SendEthZuoYe.sol\":1221:1229  _to.send */\n      0xffffffffffffffffffffffffffffffffffffffff\n      and\n        /* \"33SendEthZuoYe.sol\":1221:1232  _to.send(1) */\n      0x08fc\n        /* \"33SendEthZuoYe.sol\":1230:1231  1 */\n      0x01\n        /* \"33SendEthZuoYe.sol\":1221:1232  _to.send(1) */\n      swap1\n      dup2\n      iszero\n      mul\n      swap1\n      mload(0x40)\n      0x00\n      mload(0x40)\n      dup1\n      dup4\n      sub\n      dup2\n      dup6\n      dup9\n      dup9\n      call\n      swap4\n      pop\n      pop\n      pop\n      pop\n        /* \"33SendEthZuoYe.sol\":1206:1232  bool success = _to.send(1) */\n      swap1\n      pop\n        /* \"33SendEthZuoYe.sol\":1250:1257  success */\n      dup1\n        /* \"33SendEthZuoYe.sol\":1242:1273  require(success,\"fail to send\") */\n      tag_39\n      jumpi\n      mload(0x40)\n      0x08c379a000000000000000000000000000000000000000000000000000000000\n      dup2\n      mstore\n      0x04\n      add\n      tag_40\n      swap1\n      tag_41\n      jump\t// in\n    tag_40:\n      mload(0x40)\n      dup1\n      swap2\n      sub\n      swap1\n      revert\n    tag_39:\n        /* \"33SendEthZuoYe.sol\":1288:1313  Log(\"sendFun\", gasleft()) */\n      0xdd970dd9b5bfe707922155b058a407655cb18288b807e2216442bca8ad83d6b5\n        /* \"33SendEthZuoYe.sol\":1303:1312  gasleft() */\n      gas\n        /* \"33SendEthZuoYe.sol\":1288:1313  Log(\"sendFun\", gasleft()) */\n      mload(0x40)\n      tag_42\n      swap2\n      swap1\n      tag_43\n      jump\t// in\n    tag_42:\n      mload(0x40)\n      dup1\n      swap2\n      sub\n      swap1\n      log1\n        /* \"33SendEthZuoYe.sol\":1196:1320  {... */\n      pop\n        /* \"33SendEthZuoYe.sol\":1141:1320  function sendFun(address payable _to) external payable {... */\n      pop\n      jump\t// out\n        /* \"33SendEthZuoYe.sol\":623:795  function queryAccount() public view returns(uint){... */\n    tag_21:\n        /* \"33SendEthZuoYe.sol\":667:671  uint */\n      0x00\n        /* \"33SendEthZuoYe.sol\":770:780  msg.sender */\n      caller\n        /* \"33SendEthZuoYe.sol\":770:788  msg.sender.balance */\n      0xffffffffffffffffffffffffffffffffffffffff\n      and\n      balance\n        /* \"33SendEthZuoYe.sol\":763:788  return msg.sender.balance */\n      swap1\n      pop\n        /* \"33SendEthZuoYe.sol\":623:795  function queryAccount() public view returns(uint){... */\n      swap1\n      jump\t// out\n        /* \"33SendEthZuoYe.sol\":877:1087  function transferFun(address payable _to)external payable{... */\n    tag_25:\n        /* \"33SendEthZuoYe.sol\":963:977  queryAccount() */\n      tag_46\n        /* \"33SendEthZuoYe.sol\":963:975  queryAccount */\n      tag_21\n        /* \"33SendEthZuoYe.sol\":963:977  queryAccount() */\n      jump\t// in\n    tag_46:\n        /* \"33SendEthZuoYe.sol\":952:961  msg.value */\n      callvalue\n        /* \"33SendEthZuoYe.sol\":952:977  msg.value<=queryAccount() */\n      gt\n      iszero\n        /* \"33SendEthZuoYe.sol\":944:1011  require(msg.value<=queryAccount(),\"sender value more than account\") */\n      tag_47\n      jumpi\n      mload(0x40)\n      0x08c379a000000000000000000000000000000000000000000000000000000000\n      dup2\n      mstore\n      0x04\n      add\n      tag_48\n      swap1\n      tag_49\n      jump\t// in\n    tag_48:\n      mload(0x40)\n      dup1\n      swap2\n      sub\n      swap1\n      revert\n    tag_47:\n        /* \"33SendEthZuoYe.sol\":1021:1024  _to */\n      dup1\n        /* \"33SendEthZuoYe.sol\":1021:1033  _to.transfer */\n      0xffffffffffffffffffffffffffffffffffffffff\n      and\n        /* \"33SendEthZuoYe.sol\":1021:1036  _to.transfer(1) */\n      0x08fc\n        /* \"33SendEthZuoYe.sol\":1034:1035  1 */\n      0x01\n        /* \"33SendEthZuoYe.sol\":1021:1036  _to.transfer(1) */\n      swap1\n      dup2\n      iszero\n      mul\n      swap1\n      mload(0x40)\n      0x00\n      mload(0x40)\n      dup1\n      dup4\n      sub\n      dup2\n      dup6\n      dup9\n      dup9\n      call\n      swap4\n      pop\n      pop\n      pop\n      pop\n      iszero\n      dup1\n      iszero\n      tag_51\n      jumpi\n      returndatasize\n      0x00\n      dup1\n      returndatacopy\n      revert(0x00, returndatasize)\n    tag_51:\n      pop\n        /* \"33SendEthZuoYe.sol\":1051:1080  Log(\"transferFun\", gasleft()) */\n      0xdd970dd9b5bfe707922155b058a407655cb18288b807e2216442bca8ad83d6b5\n        /* \"33SendEthZuoYe.sol\":1070:1079  gasleft() */\n      gas\n        /* \"33SendEthZuoYe.sol\":1051:1080  Log(\"transferFun\", gasleft()) */\n      mload(0x40)\n      tag_52\n      swap2\n      swap1\n      tag_36\n      jump\t// in\n    tag_52:\n      mload(0x40)\n      dup1\n      swap2\n      sub\n      swap1\n      log1\n        /* \"33SendEthZuoYe.sol\":877:1087  function transferFun(address payable _to)external payable{... */\n      pop\n      jump\t// out\n        /* \"#utility.yul\":7:162   */\n    tag_54:\n        /* \"#utility.yul\":61:66   */\n      0x00\n        /* \"#utility.yul\":99:105   */\n      dup2\n        /* \"#utility.yul\":86:106   */\n      calldataload\n        /* \"#utility.yul\":77:106   */\n      swap1\n      pop\n        /* \"#utility.yul\":115:156   */\n      tag_56\n        /* \"#utility.yul\":150:155   */\n      dup2\n        /* \"#utility.yul\":115:156   */\n      tag_57\n      jump\t// in\n    tag_56:\n        /* \"#utility.yul\":7:162   */\n      swap3\n      swap2\n      pop\n      pop\n      jump\t// out\n        /* \"#utility.yul\":168:513   */\n    tag_9:\n        /* \"#utility.yul\":235:241   */\n      0x00\n        /* \"#utility.yul\":284:286   */\n      0x20\n        /* \"#utility.yul\":272:281   */\n      dup3\n        /* \"#utility.yul\":263:270   */\n      dup5\n        /* \"#utility.yul\":259:282   */\n      sub\n        /* \"#utility.yul\":255:287   */\n      slt\n        /* \"#utility.yul\":252:371   */\n      iszero\n      tag_59\n      jumpi\n        /* \"#utility.yul\":290:369   */\n      tag_60\n      tag_61\n      jump\t// in\n    tag_60:\n        /* \"#utility.yul\":252:371   */\n    tag_59:\n        /* \"#utility.yul\":410:411   */\n      0x00\n        /* \"#utility.yul\":435:496   */\n      tag_62\n        /* \"#utility.yul\":488:495   */\n      dup5\n        /* \"#utility.yul\":479:485   */\n      dup3\n        /* \"#utility.yul\":468:477   */\n      dup6\n        /* \"#utility.yul\":464:486   */\n      add\n        /* \"#utility.yul\":435:496   */\n      tag_54\n      jump\t// in\n    tag_62:\n        /* \"#utility.yul\":425:496   */\n      swap2\n      pop\n        /* \"#utility.yul\":381:506   */\n      pop\n        /* \"#utility.yul\":168:513   */\n      swap3\n      swap2\n      pop\n      pop\n      jump\t// out\n        /* \"#utility.yul\":519:885   */\n    tag_63:\n        /* \"#utility.yul\":661:664   */\n      0x00\n        /* \"#utility.yul\":682:749   */\n      tag_65\n        /* \"#utility.yul\":746:748   */\n      0x1e\n        /* \"#utility.yul\":741:744   */\n      dup4\n        /* \"#utility.yul\":682:749   */\n      tag_66\n      jump\t// in\n    tag_65:\n        /* \"#utility.yul\":675:749   */\n      swap2\n      pop\n        /* \"#utility.yul\":758:851   */\n      tag_67\n        /* \"#utility.yul\":847:850   */\n      dup3\n        /* \"#utility.yul\":758:851   */\n      tag_68\n      jump\t// in\n    tag_67:\n        /* \"#utility.yul\":876:878   */\n      0x20\n        /* \"#utility.yul\":871:874   */\n      dup3\n        /* \"#utility.yul\":867:879   */\n      add\n        /* \"#utility.yul\":860:879   */\n      swap1\n      pop\n        /* \"#utility.yul\":519:885   */\n      swap2\n      swap1\n      pop\n      jump\t// out\n        /* \"#utility.yul\":891:1257   */\n    tag_69:\n        /* \"#utility.yul\":1033:1036   */\n      0x00\n        /* \"#utility.yul\":1054:1121   */\n      tag_71\n        /* \"#utility.yul\":1118:1120   */\n      0x0b\n        /* \"#utility.yul\":1113:1116   */\n      dup4\n        /* \"#utility.yul\":1054:1121   */\n      tag_66\n      jump\t// in\n    tag_71:\n        /* \"#utility.yul\":1047:1121   */\n      swap2\n      pop\n        /* \"#utility.yul\":1130:1223   */\n      tag_72\n        /* \"#utility.yul\":1219:1222   */\n      dup3\n        /* \"#utility.yul\":1130:1223   */\n      tag_73\n      jump\t// in\n    tag_72:\n        /* \"#utility.yul\":1248:1250   */\n      0x20\n        /* \"#utility.yul\":1243:1246   */\n      dup3\n        /* \"#utility.yul\":1239:1251   */\n      add\n        /* \"#utility.yul\":1232:1251   */\n      swap1\n      pop\n        /* \"#utility.yul\":891:1257   */\n      swap2\n      swap1\n      pop\n      jump\t// out\n        /* \"#utility.yul\":1263:1629   */\n    tag_74:\n        /* \"#utility.yul\":1405:1408   */\n      0x00\n        /* \"#utility.yul\":1426:1493   */\n      tag_76\n        /* \"#utility.yul\":1490:1492   */\n      0x0b\n        /* \"#utility.yul\":1485:1488   */\n      dup4\n        /* \"#utility.yul\":1426:1493   */\n      tag_66\n      jump\t// in\n    tag_76:\n        /* \"#utility.yul\":1419:1493   */\n      swap2\n      pop\n        /* \"#utility.yul\":1502:1595   */\n      tag_77\n        /* \"#utility.yul\":1591:1594   */\n      dup3\n        /* \"#utility.yul\":1502:1595   */\n      tag_78\n      jump\t// in\n    tag_77:\n        /* \"#utility.yul\":1620:1622   */\n      0x20\n        /* \"#utility.yul\":1615:1618   */\n      dup3\n        /* \"#utility.yul\":1611:1623   */\n      add\n        /* \"#utility.yul\":1604:1623   */\n      swap1\n      pop\n        /* \"#utility.yul\":1263:1629   */\n      swap2\n      swap1\n      pop\n      jump\t// out\n        /* \"#utility.yul\":1635:2000   */\n    tag_79:\n        /* \"#utility.yul\":1777:1780   */\n      0x00\n        /* \"#utility.yul\":1798:1864   */\n      tag_81\n        /* \"#utility.yul\":1862:1863   */\n      0x07\n        /* \"#utility.yul\":1857:1860   */\n      dup4\n        /* \"#utility.yul\":1798:1864   */\n      tag_66\n      jump\t// in\n    tag_81:\n        /* \"#utility.yul\":1791:1864   */\n      swap2\n      pop\n        /* \"#utility.yul\":1873:1966   */\n      tag_82\n        /* \"#utility.yul\":1962:1965   */\n      dup3\n        /* \"#utility.yul\":1873:1966   */\n      tag_83\n      jump\t// in\n    tag_82:\n        /* \"#utility.yul\":1991:1993   */\n      0x20\n        /* \"#utility.yul\":1986:1989   */\n      dup3\n        /* \"#utility.yul\":1982:1994   */\n      add\n        /* \"#utility.yul\":1975:1994   */\n      swap1\n      pop\n        /* \"#utility.yul\":1635:2000   */\n      swap2\n      swap1\n      pop\n      jump\t// out\n        /* \"#utility.yul\":2006:2404   */\n    tag_84:\n        /* \"#utility.yul\":2165:2168   */\n      0x00\n        /* \"#utility.yul\":2186:2269   */\n      tag_86\n        /* \"#utility.yul\":2267:2268   */\n      0x00\n        /* \"#utility.yul\":2262:2265   */\n      dup4\n        /* \"#utility.yul\":2186:2269   */\n      tag_87\n      jump\t// in\n    tag_86:\n        /* \"#utility.yul\":2179:2269   */\n      swap2\n      pop\n        /* \"#utility.yul\":2278:2371   */\n      tag_88\n        /* \"#utility.yul\":2367:2370   */\n      dup3\n        /* \"#utility.yul\":2278:2371   */\n      tag_89\n      jump\t// in\n    tag_88:\n        /* \"#utility.yul\":2396:2397   */\n      0x00\n        /* \"#utility.yul\":2391:2394   */\n      dup3\n        /* \"#utility.yul\":2387:2398   */\n      add\n        /* \"#utility.yul\":2380:2398   */\n      swap1\n      pop\n        /* \"#utility.yul\":2006:2404   */\n      swap2\n      swap1\n      pop\n      jump\t// out\n        /* \"#utility.yul\":2410:2776   */\n    tag_90:\n        /* \"#utility.yul\":2552:2555   */\n      0x00\n        /* \"#utility.yul\":2573:2640   */\n      tag_92\n        /* \"#utility.yul\":2637:2639   */\n      0x0c\n        /* \"#utility.yul\":2632:2635   */\n      dup4\n        /* \"#utility.yul\":2573:2640   */\n      tag_66\n      jump\t// in\n    tag_92:\n        /* \"#utility.yul\":2566:2640   */\n      swap2\n      pop\n        /* \"#utility.yul\":2649:2742   */\n      tag_93\n        /* \"#utility.yul\":2738:2741   */\n      dup3\n        /* \"#utility.yul\":2649:2742   */\n      tag_94\n      jump\t// in\n    tag_93:\n        /* \"#utility.yul\":2767:2769   */\n      0x20\n        /* \"#utility.yul\":2762:2765   */\n      dup3\n        /* \"#utility.yul\":2758:2770   */\n      add\n        /* \"#utility.yul\":2751:2770   */\n      swap1\n      pop\n        /* \"#utility.yul\":2410:2776   */\n      swap2\n      swap1\n      pop\n      jump\t// out\n        /* \"#utility.yul\":2782:2900   */\n    tag_95:\n        /* \"#utility.yul\":2869:2893   */\n      tag_97\n        /* \"#utility.yul\":2887:2892   */\n      dup2\n        /* \"#utility.yul\":2869:2893   */\n      tag_98\n      jump\t// in\n    tag_97:\n        /* \"#utility.yul\":2864:2867   */\n      dup3\n        /* \"#utility.yul\":2857:2894   */\n      mstore\n        /* \"#utility.yul\":2782:2900   */\n      pop\n      pop\n      jump\t// out\n        /* \"#utility.yul\":2906:3285   */\n    tag_28:\n        /* \"#utility.yul\":3090:3093   */\n      0x00\n        /* \"#utility.yul\":3112:3259   */\n      tag_100\n        /* \"#utility.yul\":3255:3258   */\n      dup3\n        /* \"#utility.yul\":3112:3259   */\n      tag_84\n      jump\t// in\n    tag_100:\n        /* \"#utility.yul\":3105:3259   */\n      swap2\n      pop\n        /* \"#utility.yul\":3276:3279   */\n      dup2\n        /* \"#utility.yul\":3269:3279   */\n      swap1\n      pop\n        /* \"#utility.yul\":2906:3285   */\n      swap2\n      swap1\n      pop\n      jump\t// out\n        /* \"#utility.yul\":3291:3710   */\n    tag_49:\n        /* \"#utility.yul\":3457:3461   */\n      0x00\n        /* \"#utility.yul\":3495:3497   */\n      0x20\n        /* \"#utility.yul\":3484:3493   */\n      dup3\n        /* \"#utility.yul\":3480:3498   */\n      add\n        /* \"#utility.yul\":3472:3498   */\n      swap1\n      pop\n        /* \"#utility.yul\":3544:3553   */\n      dup2\n        /* \"#utility.yul\":3538:3542   */\n      dup2\n        /* \"#utility.yul\":3534:3554   */\n      sub\n        /* \"#utility.yul\":3530:3531   */\n      0x00\n        /* \"#utility.yul\":3519:3528   */\n      dup4\n        /* \"#utility.yul\":3515:3532   */\n      add\n        /* \"#utility.yul\":3508:3555   */\n      mstore\n        /* \"#utility.yul\":3572:3703   */\n      tag_102\n        /* \"#utility.yul\":3698:3702   */\n      dup2\n        /* \"#utility.yul\":3572:3703   */\n      tag_63\n      jump\t// in\n    tag_102:\n        /* \"#utility.yul\":3564:3703   */\n      swap1\n      pop\n        /* \"#utility.yul\":3291:3710   */\n      swap2\n      swap1\n      pop\n      jump\t// out\n        /* \"#utility.yul\":3716:4245   */\n    tag_36:\n        /* \"#utility.yul\":3910:3914   */\n      0x00\n        /* \"#utility.yul\":3948:3950   */\n      0x40\n        /* \"#utility.yul\":3937:3946   */\n      dup3\n        /* \"#utility.yul\":3933:3951   */\n      add\n        /* \"#utility.yul\":3925:3951   */\n      swap1\n      pop\n        /* \"#utility.yul\":3997:4006   */\n      dup2\n        /* \"#utility.yul\":3991:3995   */\n      dup2\n        /* \"#utility.yul\":3987:4007   */\n      sub\n        /* \"#utility.yul\":3983:3984   */\n      0x00\n        /* \"#utility.yul\":3972:3981   */\n      dup4\n        /* \"#utility.yul\":3968:3985   */\n      add\n        /* \"#utility.yul\":3961:4008   */\n      mstore\n        /* \"#utility.yul\":4025:4156   */\n      tag_104\n        /* \"#utility.yul\":4151:4155   */\n      dup2\n        /* \"#utility.yul\":4025:4156   */\n      tag_69\n      jump\t// in\n    tag_104:\n        /* \"#utility.yul\":4017:4156   */\n      swap1\n      pop\n        /* \"#utility.yul\":4166:4238   */\n      tag_105\n        /* \"#utility.yul\":4234:4236   */\n      0x20\n        /* \"#utility.yul\":4223:4232   */\n      dup4\n        /* \"#utility.yul\":4219:4237   */\n      add\n        /* \"#utility.yul\":4210:4216   */\n      dup5\n        /* \"#utility.yul\":4166:4238   */\n      tag_95\n      jump\t// in\n    tag_105:\n        /* \"#utility.yul\":3716:4245   */\n      swap3\n      swap2\n      pop\n      pop\n      jump\t// out\n        /* \"#utility.yul\":4251:4670   */\n    tag_34:\n        /* \"#utility.yul\":4417:4421   */\n      0x00\n        /* \"#utility.yul\":4455:4457   */\n      0x20\n        /* \"#utility.yul\":4444:4453   */\n      dup3\n        /* \"#utility.yul\":4440:4458   */\n      add\n        /* \"#utility.yul\":4432:4458   */\n      swap1\n      pop\n        /* \"#utility.yul\":4504:4513   */\n      dup2\n        /* \"#utility.yul\":4498:4502   */\n      dup2\n        /* \"#utility.yul\":4494:4514   */\n      sub\n        /* \"#utility.yul\":4490:4491   */\n      0x00\n        /* \"#utility.yul\":4479:4488   */\n      dup4\n        /* \"#utility.yul\":4475:4492   */\n      add\n        /* \"#utility.yul\":4468:4515   */\n      mstore\n        /* \"#utility.yul\":4532:4663   */\n      tag_107\n        /* \"#utility.yul\":4658:4662   */\n      dup2\n        /* \"#utility.yul\":4532:4663   */\n      tag_74\n      jump\t// in\n    tag_107:\n        /* \"#utility.yul\":4524:4663   */\n      swap1\n      pop\n        /* \"#utility.yul\":4251:4670   */\n      swap2\n      swap1\n      pop\n      jump\t// out\n        /* \"#utility.yul\":4676:5205   */\n    tag_43:\n        /* \"#utility.yul\":4870:4874   */\n      0x00\n        /* \"#utility.yul\":4908:4910   */\n      0x40\n        /* \"#utility.yul\":4897:4906   */\n      dup3\n        /* \"#utility.yul\":4893:4911   */\n      add\n        /* \"#utility.yul\":4885:4911   */\n      swap1\n      pop\n        /* \"#utility.yul\":4957:4966   */\n      dup2\n        /* \"#utility.yul\":4951:4955   */\n      dup2\n        /* \"#utility.yul\":4947:4967   */\n      sub\n        /* \"#utility.yul\":4943:4944   */\n      0x00\n        /* \"#utility.yul\":4932:4941   */\n      dup4\n        /* \"#utility.yul\":4928:4945   */\n      add\n        /* \"#utility.yul\":4921:4968   */\n      mstore\n        /* \"#utility.yul\":4985:5116   */\n      tag_109\n        /* \"#utility.yul\":5111:5115   */\n      dup2\n        /* \"#utility.yul\":4985:5116   */\n      tag_79\n      jump\t// in\n    tag_109:\n        /* \"#utility.yul\":4977:5116   */\n      swap1\n      pop\n        /* \"#utility.yul\":5126:5198   */\n      tag_110\n        /* \"#utility.yul\":5194:5196   */\n      0x20\n        /* \"#utility.yul\":5183:5192   */\n      dup4\n        /* \"#utility.yul\":5179:5197   */\n      add\n        /* \"#utility.yul\":5170:5176   */\n      dup5\n        /* \"#utility.yul\":5126:5198   */\n      tag_95\n      jump\t// in\n    tag_110:\n        /* \"#utility.yul\":4676:5205   */\n      swap3\n      swap2\n      pop\n      pop\n      jump\t// out\n        /* \"#utility.yul\":5211:5630   */\n    tag_41:\n        /* \"#utility.yul\":5377:5381   */\n      0x00\n        /* \"#utility.yul\":5415:5417   */\n      0x20\n        /* \"#utility.yul\":5404:5413   */\n      dup3\n        /* \"#utility.yul\":5400:5418   */\n      add\n        /* \"#utility.yul\":5392:5418   */\n      swap1\n      pop\n        /* \"#utility.yul\":5464:5473   */\n      dup2\n        /* \"#utility.yul\":5458:5462   */\n      dup2\n        /* \"#utility.yul\":5454:5474   */\n      sub\n        /* \"#utility.yul\":5450:5451   */\n      0x00\n        /* \"#utility.yul\":5439:5448   */\n      dup4\n        /* \"#utility.yul\":5435:5452   */\n      add\n        /* \"#utility.yul\":5428:5475   */\n      mstore\n        /* \"#utility.yul\":5492:5623   */\n      tag_112\n        /* \"#utility.yul\":5618:5622   */\n      dup2\n        /* \"#utility.yul\":5492:5623   */\n      tag_90\n      jump\t// in\n    tag_112:\n        /* \"#utility.yul\":5484:5623   */\n      swap1\n      pop\n        /* \"#utility.yul\":5211:5630   */\n      swap2\n      swap1\n      pop\n      jump\t// out\n        /* \"#utility.yul\":5636:5858   */\n    tag_15:\n        /* \"#utility.yul\":5729:5733   */\n      0x00\n        /* \"#utility.yul\":5767:5769   */\n      0x20\n        /* \"#utility.yul\":5756:5765   */\n      dup3\n        /* \"#utility.yul\":5752:5770   */\n      add\n        /* \"#utility.yul\":5744:5770   */\n      swap1\n      pop\n        /* \"#utility.yul\":5780:5851   */\n      tag_114\n        /* \"#utility.yul\":5848:5849   */\n      0x00\n        /* \"#utility.yul\":5837:5846   */\n      dup4\n        /* \"#utility.yul\":5833:5850   */\n      add\n        /* \"#utility.yul\":5824:5830   */\n      dup5\n        /* \"#utility.yul\":5780:5851   */\n      tag_95\n      jump\t// in\n    tag_114:\n        /* \"#utility.yul\":5636:5858   */\n      swap3\n      swap2\n      pop\n      pop\n      jump\t// out\n        /* \"#utility.yul\":5945:6092   */\n    tag_87:\n        /* \"#utility.yul\":6046:6057   */\n      0x00\n        /* \"#utility.yul\":6083:6086   */\n      dup2\n        /* \"#utility.yul\":6068:6086   */\n      swap1\n      pop\n        /* \"#utility.yul\":5945:6092   */\n      swap3\n      swap2\n      pop\n      pop\n      jump\t// out\n        /* \"#utility.yul\":6098:6267   */\n    tag_66:\n        /* \"#utility.yul\":6182:6193   */\n      0x00\n        /* \"#utility.yul\":6216:6222   */\n      dup3\n        /* \"#utility.yul\":6211:6214   */\n      dup3\n        /* \"#utility.yul\":6204:6223   */\n      mstore\n        /* \"#utility.yul\":6256:6260   */\n      0x20\n        /* \"#utility.yul\":6251:6254   */\n      dup3\n        /* \"#utility.yul\":6247:6261   */\n      add\n        /* \"#utility.yul\":6232:6261   */\n      swap1\n      pop\n        /* \"#utility.yul\":6098:6267   */\n      swap3\n      swap2\n      pop\n      pop\n      jump\t// out\n        /* \"#utility.yul\":6273:6377   */\n    tag_119:\n        /* \"#utility.yul\":6318:6325   */\n      0x00\n        /* \"#utility.yul\":6347:6371   */\n      tag_121\n        /* \"#utility.yul\":6365:6370   */\n      dup3\n        /* \"#utility.yul\":6347:6371   */\n      tag_122\n      jump\t// in\n    tag_121:\n        /* \"#utility.yul\":6336:6371   */\n      swap1\n      pop\n        /* \"#utility.yul\":6273:6377   */\n      swap2\n      swap1\n      pop\n      jump\t// out\n        /* \"#utility.yul\":6383:6509   */\n    tag_122:\n        /* \"#utility.yul\":6420:6427   */\n      0x00\n        /* \"#utility.yul\":6460:6502   */\n      0xffffffffffffffffffffffffffffffffffffffff\n        /* \"#utility.yul\":6453:6458   */\n      dup3\n        /* \"#utility.yul\":6449:6503   */\n      and\n        /* \"#utility.yul\":6438:6503   */\n      swap1\n      pop\n        /* \"#utility.yul\":6383:6509   */\n      swap2\n      swap1\n      pop\n      jump\t// out\n        /* \"#utility.yul\":6515:6592   */\n    tag_98:\n        /* \"#utility.yul\":6552:6559   */\n      0x00\n        /* \"#utility.yul\":6581:6586   */\n      dup2\n        /* \"#utility.yul\":6570:6586   */\n      swap1\n      pop\n        /* \"#utility.yul\":6515:6592   */\n      swap2\n      swap1\n      pop\n      jump\t// out\n        /* \"#utility.yul\":6721:6838   */\n    tag_61:\n        /* \"#utility.yul\":6830:6831   */\n      0x00\n        /* \"#utility.yul\":6827:6828   */\n      dup1\n        /* \"#utility.yul\":6820:6832   */\n      revert\n        /* \"#utility.yul\":6844:7024   */\n    tag_68:\n        /* \"#utility.yul\":6984:7016   */\n      0x73656e6465722076616c7565206d6f7265207468616e206163636f756e740000\n        /* \"#utility.yul\":6980:6981   */\n      0x00\n        /* \"#utility.yul\":6972:6978   */\n      dup3\n        /* \"#utility.yul\":6968:6982   */\n      add\n        /* \"#utility.yul\":6961:7017   */\n      mstore\n        /* \"#utility.yul\":6844:7024   */\n      pop\n      jump\t// out\n        /* \"#utility.yul\":7030:7191   */\n    tag_73:\n        /* \"#utility.yul\":7170:7183   */\n      0x7472616e7366657246756e000000000000000000000000000000000000000000\n        /* \"#utility.yul\":7166:7167   */\n      0x00\n        /* \"#utility.yul\":7158:7164   */\n      dup3\n        /* \"#utility.yul\":7154:7168   */\n      add\n        /* \"#utility.yul\":7147:7184   */\n      mstore\n        /* \"#utility.yul\":7030:7191   */\n      pop\n      jump\t// out\n        /* \"#utility.yul\":7197:7358   */\n    tag_78:\n        /* \"#utility.yul\":7337:7350   */\n      0x63616c6c206661696c6564000000000000000000000000000000000000000000\n        /* \"#utility.yul\":7333:7334   */\n      0x00\n        /* \"#utility.yul\":7325:7331   */\n      dup3\n        /* \"#utility.yul\":7321:7335   */\n      add\n        /* \"#utility.yul\":7314:7351   */\n      mstore\n        /* \"#utility.yul\":7197:7358   */\n      pop\n      jump\t// out\n        /* \"#utility.yul\":7364:7521   */\n    tag_83:\n        /* \"#utility.yul\":7504:7513   */\n      0x73656e6446756e00000000000000000000000000000000000000000000000000\n        /* \"#utility.yul\":7500:7501   */\n      0x00\n        /* \"#utility.yul\":7492:7498   */\n      dup3\n        /* \"#utility.yul\":7488:7502   */\n      add\n        /* \"#utility.yul\":7481:7514   */\n      mstore\n        /* \"#utility.yul\":7364:7521   */\n      pop\n      jump\t// out\n        /* \"#utility.yul\":7527:7641   */\n    tag_89:\n      pop\n      jump\t// out\n        /* \"#utility.yul\":7647:7809   */\n    tag_94:\n        /* \"#utility.yul\":7787:7801   */\n      0x6661696c20746f2073656e640000000000000000000000000000000000000000\n        /* \"#utility.yul\":7783:7784   */\n      0x00\n        /* \"#utility.yul\":7775:7781   */\n      dup3\n        /* \"#utility.yul\":7771:7785   */\n      add\n        /* \"#utility.yul\":7764:7802   */\n      mstore\n        /* \"#utility.yul\":7647:7809   */\n      pop\n      jump\t// out\n        /* \"#utility.yul\":7815:7953   */\n    tag_57:\n        /* \"#utility.yul\":7896:7928   */\n      tag_135\n        /* \"#utility.yul\":7922:7927   */\n      dup2\n        /* \"#utility.yul\":7896:7928   */\n      tag_119\n      jump\t// in\n    tag_135:\n        /* \"#utility.yul\":7889:7894   */\n      dup2\n        /* \"#utility.yul\":7886:7929   */\n      eq\n        /* \"#utility.yul\":7876:7947   */\n      tag_136\n      jumpi\n        /* \"#utility.yul\":7943:7944   */\n      0x00\n        /* \"#utility.yul\":7940:7941   */\n      dup1\n        /* \"#utility.yul\":7933:7945   */\n      revert\n        /* \"#utility.yul\":7876:7947   */\n    tag_136:\n        /* \"#utility.yul\":7815:7953   */\n      pop\n      jump\t// out\n\n    auxdata: 0xa264697066735822122029dfa73ae3b0e15df0ef4cfc379023bcef03f1640c1881a6dd68c5e3cc3f5ab164736f6c63430008070033\n}\n",
				"bytecode": {
					"linkReferences": {},
					"object": "608060405234801561001057600080fd5b50610710806100206000396000f3fe60806040526004361061004a5760003560e01c806319a5f57e1461004f57806325a89c961461006b5780632a8ce70b14610096578063b701254a146100b2578063f47f66af146100dd575b600080fd5b6100696004803603810190610064919061039c565b6100f9565b005b34801561007757600080fd5b506100806101e1565b60405161008d919061057b565b60405180910390f35b6100b060048036038101906100ab919061039c565b6101e7565b005b3480156100be57600080fd5b506100c761029c565b6040516100d4919061057b565b60405180910390f35b6100f760048036038101906100f2919061039c565b6102bb565b005b60008173ffffffffffffffffffffffffffffffffffffffff166001604051610120906104aa565b60006040518083038185875af1925050503d806000811461015d576040519150601f19603f3d011682016040523d82523d6000602084013e610162565b606091505b50509050806101a6576040517f08c379a000000000000000000000000000000000000000000000000000000000815260040161019d9061050d565b60405180910390fd5b7fdd970dd9b5bfe707922155b058a407655cb18288b807e2216442bca8ad83d6b55a6040516101d591906104df565b60405180910390a15050565b60005481565b60008173ffffffffffffffffffffffffffffffffffffffff166108fc60019081150290604051600060405180830381858888f19350505050905080610261576040517f08c379a00000000000000000000000000000000000000000000000000000000081526004016102589061055b565b60405180910390fd5b7fdd970dd9b5bfe707922155b058a407655cb18288b807e2216442bca8ad83d6b55a604051610290919061052d565b60405180910390a15050565b60003373ffffffffffffffffffffffffffffffffffffffff1631905090565b6102c361029c565b341115610305576040517f08c379a00000000000000000000000000000000000000000000000000000000081526004016102fc906104bf565b60405180910390fd5b8073ffffffffffffffffffffffffffffffffffffffff166108fc60019081150290604051600060405180830381858888f1935050505015801561034c573d6000803e3d6000fd5b507fdd970dd9b5bfe707922155b058a407655cb18288b807e2216442bca8ad83d6b55a60405161037c91906104df565b60405180910390a150565b600081359050610396816106c3565b92915050565b6000602082840312156103b2576103b16105ee565b5b60006103c084828501610387565b91505092915050565b60006103d6601e836105a1565b91506103e1826105f3565b602082019050919050565b60006103f9600b836105a1565b91506104048261061c565b602082019050919050565b600061041c600b836105a1565b915061042782610645565b602082019050919050565b600061043f6007836105a1565b915061044a8261066e565b602082019050919050565b6000610462600083610596565b915061046d82610697565b600082019050919050565b6000610485600c836105a1565b91506104908261069a565b602082019050919050565b6104a4816105e4565b82525050565b60006104b582610455565b9150819050919050565b600060208201905081810360008301526104d8816103c9565b9050919050565b600060408201905081810360008301526104f8816103ec565b9050610507602083018461049b565b92915050565b600060208201905081810360008301526105268161040f565b9050919050565b6000604082019050818103600083015261054681610432565b9050610555602083018461049b565b92915050565b6000602082019050818103600083015261057481610478565b9050919050565b6000602082019050610590600083018461049b565b92915050565b600081905092915050565b600082825260208201905092915050565b60006105bd826105c4565b9050919050565b600073ffffffffffffffffffffffffffffffffffffffff82169050919050565b6000819050919050565b600080fd5b7f73656e6465722076616c7565206d6f7265207468616e206163636f756e740000600082015250565b7f7472616e7366657246756e000000000000000000000000000000000000000000600082015250565b7f63616c6c206661696c6564000000000000000000000000000000000000000000600082015250565b7f73656e6446756e00000000000000000000000000000000000000000000000000600082015250565b50565b7f6661696c20746f2073656e640000000000000000000000000000000000000000600082015250565b6106cc816105b2565b81146106d757600080fd5b5056fea264697066735822122029dfa73ae3b0e15df0ef4cfc379023bcef03f1640c1881a6dd68c5e3cc3f5ab164736f6c63430008070033",
					"opcodes": "PUSH1 0x80 PUSH1 0x40 MSTORE CALLVALUE DUP1 ISZERO PUSH2 0x10 JUMPI PUSH1 0x0 DUP1 REVERT JUMPDEST POP PUSH2 0x710 DUP1 PUSH2 0x20 PUSH1 0x0 CODECOPY PUSH1 0x0 RETURN INVALID PUSH1 0x80 PUSH1 0x40 MSTORE PUSH1 0x4 CALLDATASIZE LT PUSH2 0x4A JUMPI PUSH1 0x0 CALLDATALOAD PUSH1 0xE0 SHR DUP1 PUSH4 0x19A5F57E EQ PUSH2 0x4F JUMPI DUP1 PUSH4 0x25A89C96 EQ PUSH2 0x6B JUMPI DUP1 PUSH4 0x2A8CE70B EQ PUSH2 0x96 JUMPI DUP1 PUSH4 0xB701254A EQ PUSH2 0xB2 JUMPI DUP1 PUSH4 0xF47F66AF EQ PUSH2 0xDD JUMPI JUMPDEST PUSH1 0x0 DUP1 REVERT JUMPDEST PUSH2 0x69 PUSH1 0x4 DUP1 CALLDATASIZE SUB DUP2 ADD SWAP1 PUSH2 0x64 SWAP2 SWAP1 PUSH2 0x39C JUMP JUMPDEST PUSH2 0xF9 JUMP JUMPDEST STOP JUMPDEST CALLVALUE DUP1 ISZERO PUSH2 0x77 JUMPI PUSH1 0x0 DUP1 REVERT JUMPDEST POP PUSH2 0x80 PUSH2 0x1E1 JUMP JUMPDEST PUSH1 0x40 MLOAD PUSH2 0x8D SWAP2 SWAP1 PUSH2 0x57B JUMP JUMPDEST PUSH1 0x40 MLOAD DUP1 SWAP2 SUB SWAP1 RETURN JUMPDEST PUSH2 0xB0 PUSH1 0x4 DUP1 CALLDATASIZE SUB DUP2 ADD SWAP1 PUSH2 0xAB SWAP2 SWAP1 PUSH2 0x39C JUMP JUMPDEST PUSH2 0x1E7 JUMP JUMPDEST STOP JUMPDEST CALLVALUE DUP1 ISZERO PUSH2 0xBE JUMPI PUSH1 0x0 DUP1 REVERT JUMPDEST POP PUSH2 0xC7 PUSH2 0x29C JUMP JUMPDEST PUSH1 0x40 MLOAD PUSH2 0xD4 SWAP2 SWAP1 PUSH2 0x57B JUMP JUMPDEST PUSH1 0x40 MLOAD DUP1 SWAP2 SUB SWAP1 RETURN JUMPDEST PUSH2 0xF7 PUSH1 0x4 DUP1 CALLDATASIZE SUB DUP2 ADD SWAP1 PUSH2 0xF2 SWAP2 SWAP1 PUSH2 0x39C JUMP JUMPDEST PUSH2 0x2BB JUMP JUMPDEST STOP JUMPDEST PUSH1 0x0 DUP2 PUSH20 0xFFFFFFFFFFFFFFFFFFFFFFFFFFFFFFFFFFFFFFFF AND PUSH1 0x1 PUSH1 0x40 MLOAD PUSH2 0x120 SWAP1 PUSH2 0x4AA JUMP JUMPDEST PUSH1 0x0 PUSH1 0x40 MLOAD DUP1 DUP4 SUB DUP2 DUP6 DUP8 GAS CALL SWAP3 POP POP POP RETURNDATASIZE DUP1 PUSH1 0x0 DUP2 EQ PUSH2 0x15D JUMPI PUSH1 0x40 MLOAD SWAP2 POP PUSH1 0x1F NOT PUSH1 0x3F RETURNDATASIZE ADD AND DUP3 ADD PUSH1 0x40 MSTORE RETURNDATASIZE DUP3 MSTORE RETURNDATASIZE PUSH1 0x0 PUSH1 0x20 DUP5 ADD RETURNDATACOPY PUSH2 0x162 JUMP JUMPDEST PUSH1 0x60 SWAP2 POP JUMPDEST POP POP SWAP1 POP DUP1 PUSH2 0x1A6 JUMPI PUSH1 0x40 MLOAD PUSH32 0x8C379A000000000000000000000000000000000000000000000000000000000 DUP2 MSTORE PUSH1 0x4 ADD PUSH2 0x19D SWAP1 PUSH2 0x50D JUMP JUMPDEST PUSH1 0x40 MLOAD DUP1 SWAP2 SUB SWAP1 REVERT JUMPDEST PUSH32 0xDD970DD9B5BFE707922155B058A407655CB18288B807E2216442BCA8AD83D6B5 GAS PUSH1 0x40 MLOAD PUSH2 0x1D5 SWAP2 SWAP1 PUSH2 0x4DF JUMP JUMPDEST PUSH1 0x40 MLOAD DUP1 SWAP2 SUB SWAP1 LOG1 POP POP JUMP JUMPDEST PUSH1 0x0 SLOAD DUP2 JUMP JUMPDEST PUSH1 0x0 DUP2 PUSH20 0xFFFFFFFFFFFFFFFFFFFFFFFFFFFFFFFFFFFFFFFF AND PUSH2 0x8FC PUSH1 0x1 SWAP1 DUP2 ISZERO MUL SWAP1 PUSH1 0x40 MLOAD PUSH1 0x0 PUSH1 0x40 MLOAD DUP1 DUP4 SUB DUP2 DUP6 DUP9 DUP9 CALL SWAP4 POP POP POP POP SWAP1 POP DUP1 PUSH2 0x261 JUMPI PUSH1 0x40 MLOAD PUSH32 0x8C379A000000000000000000000000000000000000000000000000000000000 DUP2 MSTORE PUSH1 0x4 ADD PUSH2 0x258 SWAP1 PUSH2 0x55B JUMP JUMPDEST PUSH1 0x40 MLOAD DUP1 SWAP2 SUB SWAP1 REVERT JUMPDEST PUSH32 0xDD970DD9B5BFE707922155B058A407655CB18288B807E2216442BCA8AD83D6B5 GAS PUSH1 0x40 MLOAD PUSH2 0x290 SWAP2 SWAP1 PUSH2 0x52D JUMP JUMPDEST PUSH1 0x40 MLOAD DUP1 SWAP2 SUB SWAP1 LOG1 POP POP JUMP JUMPDEST PUSH1 0x0 CALLER PUSH20 0xFFFFFFFFFFFFFFFFFFFFFFFFFFFFFFFFFFFFFFFF AND BALANCE SWAP1 POP SWAP1 JUMP JUMPDEST PUSH2 0x2C3 PUSH2 0x29C JUMP JUMPDEST CALLVALUE GT ISZERO PUSH2 0x305 JUMPI PUSH1 0x40 MLOAD PUSH32 0x8C379A000000000000000000000000000000000000000000000000000000000 DUP2 MSTORE PUSH1 0x4 ADD PUSH2 0x2FC SWAP1 PUSH2 0x4BF JUMP JUMPDEST PUSH1 0x40 MLOAD DUP1 SWAP2 SUB SWAP1 REVERT JUMPDEST DUP1 PUSH20 0xFFFFFFFFFFFFFFFFFFFFFFFFFFFFFFFFFFFFFFFF AND PUSH2 0x8FC PUSH1 0x1 SWAP1 DUP2 ISZERO MUL SWAP1 PUSH1 0x40 MLOAD PUSH1 0x0 PUSH1 0x40 MLOAD DUP1 DUP4 SUB DUP2 DUP6 DUP9 DUP9 CALL SWAP4 POP POP POP POP ISZERO DUP1 ISZERO PUSH2 0x34C JUMPI RETURNDATASIZE PUSH1 0x0 DUP1 RETURNDATACOPY RETURNDATASIZE PUSH1 0x0 REVERT JUMPDEST POP PUSH32 0xDD970DD9B5BFE707922155B058A407655CB18288B807E2216442BCA8AD83D6B5 GAS PUSH1 0x40 MLOAD PUSH2 0x37C SWAP2 SWAP1 PUSH2 0x4DF JUMP JUMPDEST PUSH1 0x40 MLOAD DUP1 SWAP2 SUB SWAP1 LOG1 POP JUMP JUMPDEST PUSH1 0x0 DUP2 CALLDATALOAD SWAP1 POP PUSH2 0x396 DUP2 PUSH2 0x6C3 JUMP JUMPDEST SWAP3 SWAP2 POP POP JUMP JUMPDEST PUSH1 0x0 PUSH1 0x20 DUP3 DUP5 SUB SLT ISZERO PUSH2 0x3B2 JUMPI PUSH2 0x3B1 PUSH2 0x5EE JUMP JUMPDEST JUMPDEST PUSH1 0x0 PUSH2 0x3C0 DUP5 DUP3 DUP6 ADD PUSH2 0x387 JUMP JUMPDEST SWAP2 POP POP SWAP3 SWAP2 POP POP JUMP JUMPDEST PUSH1 0x0 PUSH2 0x3D6 PUSH1 0x1E DUP4 PUSH2 0x5A1 JUMP JUMPDEST SWAP2 POP PUSH2 0x3E1 DUP3 PUSH2 0x5F3 JUMP JUMPDEST PUSH1 0x20 DUP3 ADD SWAP1 POP SWAP2 SWAP1 POP JUMP JUMPDEST PUSH1 0x0 PUSH2 0x3F9 PUSH1 0xB DUP4 PUSH2 0x5A1 JUMP JUMPDEST SWAP2 POP PUSH2 0x404 DUP3 PUSH2 0x61C JUMP JUMPDEST PUSH1 0x20 DUP3 ADD SWAP1 POP SWAP2 SWAP1 POP JUMP JUMPDEST PUSH1 0x0 PUSH2 0x41C PUSH1 0xB DUP4 PUSH2 0x5A1 JUMP JUMPDEST SWAP2 POP PUSH2 0x427 DUP3 PUSH2 0x645 JUMP JUMPDEST PUSH1 0x20 DUP3 ADD SWAP1 POP SWAP2 SWAP1 POP JUMP JUMPDEST PUSH1 0x0 PUSH2 0x43F PUSH1 0x7 DUP4 PUSH2 0x5A1 JUMP JUMPDEST SWAP2 POP PUSH2 0x44A DUP3 PUSH2 0x66E JUMP JUMPDEST PUSH1 0x20 DUP3 ADD SWAP1 POP SWAP2 SWAP1 POP JUMP JUMPDEST PUSH1 0x0 PUSH2 0x462 PUSH1 0x0 DUP4 PUSH2 0x596 JUMP JUMPDEST SWAP2 POP PUSH2 0x46D DUP3 PUSH2 0x697 JUMP JUMPDEST PUSH1 0x0 DUP3 ADD SWAP1 POP SWAP2 SWAP1 POP JUMP JUMPDEST PUSH1 0x0 PUSH2 0x485 PUSH1 0xC DUP4 PUSH2 0x5A1 JUMP JUMPDEST SWAP2 POP PUSH2 0x490 DUP3 PUSH2 0x69A JUMP JUMPDEST PUSH1 0x20 DUP3 ADD SWAP1 POP SWAP2 SWAP1 POP JUMP JUMPDEST PUSH2 0x4A4 DUP2 PUSH2 0x5E4 JUMP JUMPDEST DUP3 MSTORE POP POP JUMP JUMPDEST PUSH1 0x0 PUSH2 0x4B5 DUP3 PUSH2 0x455 JUMP JUMPDEST SWAP2 POP DUP2 SWAP1 POP SWAP2 SWAP1 POP JUMP JUMPDEST PUSH1 0x0 PUSH1 0x20 DUP3 ADD SWAP1 POP DUP2 DUP2 SUB PUSH1 0x0 DUP4 ADD MSTORE PUSH2 0x4D8 DUP2 PUSH2 0x3C9 JUMP JUMPDEST SWAP1 POP SWAP2 SWAP1 POP JUMP JUMPDEST PUSH1 0x0 PUSH1 0x40 DUP3 ADD SWAP1 POP DUP2 DUP2 SUB PUSH1 0x0 DUP4 ADD MSTORE PUSH2 0x4F8 DUP2 PUSH2 0x3EC JUMP JUMPDEST SWAP1 POP PUSH2 0x507 PUSH1 0x20 DUP4 ADD DUP5 PUSH2 0x49B JUMP JUMPDEST SWAP3 SWAP2 POP POP JUMP JUMPDEST PUSH1 0x0 PUSH1 0x20 DUP3 ADD SWAP1 POP DUP2 DUP2 SUB PUSH1 0x0 DUP4 ADD MSTORE PUSH2 0x526 DUP2 PUSH2 0x40F JUMP JUMPDEST SWAP1 POP SWAP2 SWAP1 POP JUMP JUMPDEST PUSH1 0x0 PUSH1 0x40 DUP3 ADD SWAP1 POP DUP2 DUP2 SUB PUSH1 0x0 DUP4 ADD MSTORE PUSH2 0x546 DUP2 PUSH2 0x432 JUMP JUMPDEST SWAP1 POP PUSH2 0x555 PUSH1 0x20 DUP4 ADD DUP5 PUSH2 0x49B JUMP JUMPDEST SWAP3 SWAP2 POP POP JUMP JUMPDEST PUSH1 0x0 PUSH1 0x20 DUP3 ADD SWAP1 POP DUP2 DUP2 SUB PUSH1 0x0 DUP4 ADD MSTORE PUSH2 0x574 DUP2 PUSH2 0x478 JUMP JUMPDEST SWAP1 POP SWAP2 SWAP1 POP JUMP JUMPDEST PUSH1 0x0 PUSH1 0x20 DUP3 ADD SWAP1 POP PUSH2 0x590 PUSH1 0x0 DUP4 ADD DUP5 PUSH2 0x49B JUMP JUMPDEST SWAP3 SWAP2 POP POP JUMP JUMPDEST PUSH1 0x0 DUP2 SWAP1 POP SWAP3 SWAP2 POP POP JUMP JUMPDEST PUSH1 0x0 DUP3 DUP3 MSTORE PUSH1 0x20 DUP3 ADD SWAP1 POP SWAP3 SWAP2 POP POP JUMP JUMPDEST PUSH1 0x0 PUSH2 0x5BD DUP3 PUSH2 0x5C4 JUMP JUMPDEST SWAP1 POP SWAP2 SWAP1 POP JUMP JUMPDEST PUSH1 0x0 PUSH20 0xFFFFFFFFFFFFFFFFFFFFFFFFFFFFFFFFFFFFFFFF DUP3 AND SWAP1 POP SWAP2 SWAP1 POP JUMP JUMPDEST PUSH1 0x0 DUP2 SWAP1 POP SWAP2 SWAP1 POP JUMP JUMPDEST PUSH1 0x0 DUP1 REVERT JUMPDEST PUSH32 0x73656E6465722076616C7565206D6F7265207468616E206163636F756E740000 PUSH1 0x0 DUP3 ADD MSTORE POP JUMP JUMPDEST PUSH32 0x7472616E7366657246756E000000000000000000000000000000000000000000 PUSH1 0x0 DUP3 ADD MSTORE POP JUMP JUMPDEST PUSH32 0x63616C6C206661696C6564000000000000000000000000000000000000000000 PUSH1 0x0 DUP3 ADD MSTORE POP JUMP JUMPDEST PUSH32 0x73656E6446756E00000000000000000000000000000000000000000000000000 PUSH1 0x0 DUP3 ADD MSTORE POP JUMP JUMPDEST POP JUMP JUMPDEST PUSH32 0x6661696C20746F2073656E640000000000000000000000000000000000000000 PUSH1 0x0 DUP3 ADD MSTORE POP JUMP JUMPDEST PUSH2 0x6CC DUP2 PUSH2 0x5B2 JUMP JUMPDEST DUP2 EQ PUSH2 0x6D7 JUMPI PUSH1 0x0 DUP1 REVERT JUMPDEST POP JUMP INVALID LOG2 PUSH5 0x6970667358 0x22 SLT KECCAK256 0x29 0xDF 0xA7 GASPRICE 0xE3 0xB0 0xE1 0x5D CREATE 0xEF 0x4C 0xFC CALLDATACOPY SWAP1 0x23 0xBC 0xEF SUB CALL PUSH5 0xC1881A6DD PUSH9 0xC5E3CC3F5AB164736F PUSH13 0x63430008070033000000000000 "
				},
				"gasEstimates": {
					"creation": {
						"codeDepositCost": "361600",
						"executionCost": "399",
						"totalCost": "361999"
					},
					"external": {
						"account_money()": "2429",
						"callFun(address)": "infinite",
						"queryAccount()": "2986",
						"sendFun(address)": "infinite",
						"transferFun(address)": "infinite"
					}
				},
				"methodIdentifiers": {
					"account_money()": "25a89c96",
					"callFun(address)": "19a5f57e",
					"queryAccount()": "b701254a",
					"sendFun(address)": "2a8ce70b",
					"transferFun(address)": "f47f66af"
				}
			},
			"storageLayout": {
				"storage": [
					{
						"astId": 3,
						"contract": "33SendEthZuoYe.sol:SendEthZuoYe",
						"label": "account_money",
						"offset": 0,
						"slot": "0",
						"type": "t_uint256"
					}
				],
				"types": {
					"t_uint256": {
						"encoding": "inplace",
						"label": "uint256",
						"numberOfBytes": "32"
					}
				}
			},
			"userdoc": {
				"kind": "user",
				"methods": {},
				"version": 1
			}
		}
	}
}