{
	"45EnglishAuction.sol": {
		"EnglishAuction": {
			"abi": [
				{
					"inputs": [
						{
							"internalType": "uint256",
							"name": "_duration",
							"type": "uint256"
						},
						{
							"internalType": "uint256",
							"name": "_startPrice",
							"type": "uint256"
						},
						{
							"internalType": "address",
							"name": "_nftContract",
							"type": "address"
						},
						{
							"internalType": "uint256",
							"name": "_tokenId",
							"type": "uint256"
						}
					],
					"stateMutability": "nonpayable",
					"type": "constructor"
				},
				{
					"anonymous": false,
					"inputs": [
						{
							"indexed": true,
							"internalType": "address",
							"name": "_bidder",
							"type": "address"
						},
						{
							"indexed": true,
							"internalType": "uint256",
							"name": "_bidPrice",
							"type": "uint256"
						},
						{
							"indexed": false,
							"internalType": "uint256",
							"name": "_lastPrice",
							"type": "uint256"
						}
					],
					"name": "BidderLog",
					"type": "event"
				},
				{
					"anonymous": false,
					"inputs": [
						{
							"indexed": false,
							"internalType": "address",
							"name": "_buyer",
							"type": "address"
						},
						{
							"indexed": false,
							"internalType": "uint256",
							"name": "_buyPrice",
							"type": "uint256"
						}
					],
					"name": "BuyLog",
					"type": "event"
				},
				{
					"anonymous": false,
					"inputs": [
						{
							"indexed": true,
							"internalType": "address",
							"name": "_bidder",
							"type": "address"
						},
						{
							"indexed": true,
							"internalType": "uint256",
							"name": "_bidPrice",
							"type": "uint256"
						},
						{
							"indexed": false,
							"internalType": "uint256",
							"name": "totalBidMoney",
							"type": "uint256"
						}
					],
					"name": "RefundLog",
					"type": "event"
				},
				{
					"inputs": [],
					"name": "auctionState",
					"outputs": [
						{
							"internalType": "bool",
							"name": "",
							"type": "bool"
						}
					],
					"stateMutability": "view",
					"type": "function"
				},
				{
					"inputs": [],
					"name": "bid",
					"outputs": [],
					"stateMutability": "payable",
					"type": "function"
				},
				{
					"inputs": [
						{
							"internalType": "address",
							"name": "",
							"type": "address"
						}
					],
					"name": "bids",
					"outputs": [
						{
							"internalType": "uint256",
							"name": "",
							"type": "uint256"
						}
					],
					"stateMutability": "view",
					"type": "function"
				},
				{
					"inputs": [],
					"name": "endAuction",
					"outputs": [
						{
							"internalType": "address",
							"name": "",
							"type": "address"
						}
					],
					"stateMutability": "nonpayable",
					"type": "function"
				},
				{
					"inputs": [],
					"name": "highBidPrice",
					"outputs": [
						{
							"internalType": "uint256",
							"name": "",
							"type": "uint256"
						}
					],
					"stateMutability": "view",
					"type": "function"
				},
				{
					"inputs": [],
					"name": "highBidder",
					"outputs": [
						{
							"internalType": "address",
							"name": "",
							"type": "address"
						}
					],
					"stateMutability": "view",
					"type": "function"
				},
				{
					"inputs": [],
					"name": "isauctionActivity",
					"outputs": [
						{
							"internalType": "bool",
							"name": "",
							"type": "bool"
						}
					],
					"stateMutability": "view",
					"type": "function"
				},
				{
					"inputs": [],
					"name": "refund",
					"outputs": [],
					"stateMutability": "nonpayable",
					"type": "function"
				},
				{
					"inputs": [],
					"name": "saller",
					"outputs": [
						{
							"internalType": "address",
							"name": "",
							"type": "address"
						}
					],
					"stateMutability": "view",
					"type": "function"
				}
			],
			"devdoc": {
				"kind": "dev",
				"methods": {},
				"version": 1
			},
			"evm": {
				"assembly": "    /* \"45EnglishAuction.sol\":292:2987  contract EnglishAuction{... */\n  mstore(0x40, 0x80)\n    /* \"45EnglishAuction.sol\":920:1306  constructor(... */\n  callvalue\n  dup1\n  iszero\n  tag_1\n  jumpi\n  0x00\n  dup1\n  revert\ntag_1:\n  pop\n  mload(0x40)\n  sub(codesize, bytecodeSize)\n  dup1\n  bytecodeSize\n  dup4\n  codecopy\n  dup2\n  dup2\n  add\n  0x40\n  mstore\n  dup2\n  add\n  swap1\n  tag_2\n  swap2\n  swap1\n  tag_3\n  jump\t// in\ntag_2:\n    /* \"45EnglishAuction.sol\":1089:1104  block.timestamp */\n  timestamp\n    /* \"45EnglishAuction.sol\":1079:1086  startAt */\n  0x00\n    /* \"45EnglishAuction.sol\":1079:1104  startAt = block.timestamp */\n  dup2\n  swap1\n  sstore\n  pop\n    /* \"45EnglishAuction.sol\":1125:1134  _duration */\n  dup4\n    /* \"45EnglishAuction.sol\":1114:1122  duration */\n  0x01\n    /* \"45EnglishAuction.sol\":1114:1134  duration = _duration */\n  dup2\n  swap1\n  sstore\n  pop\n    /* \"45EnglishAuction.sol\":1153:1163  msg.sender */\n  caller\n    /* \"45EnglishAuction.sol\":1144:1150  saller */\n  0x03\n  0x00\n    /* \"45EnglishAuction.sol\":1144:1163  saller = msg.sender */\n  0x0100\n  exp\n  dup2\n  sload\n  dup2\n  0xffffffffffffffffffffffffffffffffffffffff\n  mul\n  not\n  and\n  swap1\n  dup4\n  0xffffffffffffffffffffffffffffffffffffffff\n  and\n  mul\n  or\n  swap1\n  sstore\n  pop\n    /* \"45EnglishAuction.sol\":1188:1199  _startPrice */\n  dup3\n    /* \"45EnglishAuction.sol\":1173:1185  highBidPrice */\n  0x05\n    /* \"45EnglishAuction.sol\":1173:1199  highBidPrice = _startPrice */\n  dup2\n  swap1\n  sstore\n  pop\n    /* \"45EnglishAuction.sol\":1227:1235  duration */\n  sload(0x01)\n    /* \"45EnglishAuction.sol\":1217:1224  startAt */\n  sload(0x00)\n    /* \"45EnglishAuction.sol\":1217:1235  startAt + duration */\n  tag_6\n  swap2\n  swap1\n  tag_7\n  jump\t// in\ntag_6:\n    /* \"45EnglishAuction.sol\":1209:1214  endAt */\n  0x02\n    /* \"45EnglishAuction.sol\":1209:1235  endAt = startAt + duration */\n  dup2\n  swap1\n  sstore\n  pop\n    /* \"45EnglishAuction.sol\":1259:1271  _nftContract */\n  dup2\n    /* \"45EnglishAuction.sol\":1245:1256  nftContract */\n  0x06\n  0x01\n    /* \"45EnglishAuction.sol\":1245:1271  nftContract = _nftContract */\n  0x0100\n  exp\n  dup2\n  sload\n  dup2\n  0xffffffffffffffffffffffffffffffffffffffff\n  mul\n  not\n  and\n  swap1\n  dup4\n  0xffffffffffffffffffffffffffffffffffffffff\n  and\n  mul\n  or\n  swap1\n  sstore\n  pop\n    /* \"45EnglishAuction.sol\":1291:1299  _tokenId */\n  dup1\n    /* \"45EnglishAuction.sol\":1281:1288  tokenId */\n  0x07\n    /* \"45EnglishAuction.sol\":1281:1299  tokenId = _tokenId */\n  dup2\n  swap1\n  sstore\n  pop\n    /* \"45EnglishAuction.sol\":920:1306  constructor(... */\n  pop\n  pop\n  pop\n  pop\n    /* \"45EnglishAuction.sol\":292:2987  contract EnglishAuction{... */\n  jump(tag_8)\n    /* \"#utility.yul\":7:150   */\ntag_10:\n    /* \"#utility.yul\":64:69   */\n  0x00\n    /* \"#utility.yul\":95:101   */\n  dup2\n    /* \"#utility.yul\":89:102   */\n  mload\n    /* \"#utility.yul\":80:102   */\n  swap1\n  pop\n    /* \"#utility.yul\":111:144   */\n  tag_12\n    /* \"#utility.yul\":138:143   */\n  dup2\n    /* \"#utility.yul\":111:144   */\n  tag_13\n  jump\t// in\ntag_12:\n    /* \"#utility.yul\":7:150   */\n  swap3\n  swap2\n  pop\n  pop\n  jump\t// out\n    /* \"#utility.yul\":156:299   */\ntag_14:\n    /* \"#utility.yul\":213:218   */\n  0x00\n    /* \"#utility.yul\":244:250   */\n  dup2\n    /* \"#utility.yul\":238:251   */\n  mload\n    /* \"#utility.yul\":229:251   */\n  swap1\n  pop\n    /* \"#utility.yul\":260:293   */\n  tag_16\n    /* \"#utility.yul\":287:292   */\n  dup2\n    /* \"#utility.yul\":260:293   */\n  tag_17\n  jump\t// in\ntag_16:\n    /* \"#utility.yul\":156:299   */\n  swap3\n  swap2\n  pop\n  pop\n  jump\t// out\n    /* \"#utility.yul\":305:1125   */\ntag_3:\n    /* \"#utility.yul\":402:408   */\n  0x00\n    /* \"#utility.yul\":410:416   */\n  dup1\n    /* \"#utility.yul\":418:424   */\n  0x00\n    /* \"#utility.yul\":426:432   */\n  dup1\n    /* \"#utility.yul\":475:478   */\n  0x80\n    /* \"#utility.yul\":463:472   */\n  dup6\n    /* \"#utility.yul\":454:461   */\n  dup8\n    /* \"#utility.yul\":450:473   */\n  sub\n    /* \"#utility.yul\":446:479   */\n  slt\n    /* \"#utility.yul\":443:563   */\n  iszero\n  tag_19\n  jumpi\n    /* \"#utility.yul\":482:561   */\n  tag_20\n  tag_21\n  jump\t// in\ntag_20:\n    /* \"#utility.yul\":443:563   */\ntag_19:\n    /* \"#utility.yul\":602:603   */\n  0x00\n    /* \"#utility.yul\":627:691   */\n  tag_22\n    /* \"#utility.yul\":683:690   */\n  dup8\n    /* \"#utility.yul\":674:680   */\n  dup3\n    /* \"#utility.yul\":663:672   */\n  dup9\n    /* \"#utility.yul\":659:681   */\n  add\n    /* \"#utility.yul\":627:691   */\n  tag_14\n  jump\t// in\ntag_22:\n    /* \"#utility.yul\":617:691   */\n  swap5\n  pop\n    /* \"#utility.yul\":573:701   */\n  pop\n    /* \"#utility.yul\":740:742   */\n  0x20\n    /* \"#utility.yul\":766:830   */\n  tag_23\n    /* \"#utility.yul\":822:829   */\n  dup8\n    /* \"#utility.yul\":813:819   */\n  dup3\n    /* \"#utility.yul\":802:811   */\n  dup9\n    /* \"#utility.yul\":798:820   */\n  add\n    /* \"#utility.yul\":766:830   */\n  tag_14\n  jump\t// in\ntag_23:\n    /* \"#utility.yul\":756:830   */\n  swap4\n  pop\n    /* \"#utility.yul\":711:840   */\n  pop\n    /* \"#utility.yul\":879:881   */\n  0x40\n    /* \"#utility.yul\":905:969   */\n  tag_24\n    /* \"#utility.yul\":961:968   */\n  dup8\n    /* \"#utility.yul\":952:958   */\n  dup3\n    /* \"#utility.yul\":941:950   */\n  dup9\n    /* \"#utility.yul\":937:959   */\n  add\n    /* \"#utility.yul\":905:969   */\n  tag_10\n  jump\t// in\ntag_24:\n    /* \"#utility.yul\":895:969   */\n  swap3\n  pop\n    /* \"#utility.yul\":850:979   */\n  pop\n    /* \"#utility.yul\":1018:1020   */\n  0x60\n    /* \"#utility.yul\":1044:1108   */\n  tag_25\n    /* \"#utility.yul\":1100:1107   */\n  dup8\n    /* \"#utility.yul\":1091:1097   */\n  dup3\n    /* \"#utility.yul\":1080:1089   */\n  dup9\n    /* \"#utility.yul\":1076:1098   */\n  add\n    /* \"#utility.yul\":1044:1108   */\n  tag_14\n  jump\t// in\ntag_25:\n    /* \"#utility.yul\":1034:1108   */\n  swap2\n  pop\n    /* \"#utility.yul\":989:1118   */\n  pop\n    /* \"#utility.yul\":305:1125   */\n  swap3\n  swap6\n  swap2\n  swap5\n  pop\n  swap3\n  pop\n  jump\t// out\n    /* \"#utility.yul\":1212:1517   */\ntag_7:\n    /* \"#utility.yul\":1252:1255   */\n  0x00\n    /* \"#utility.yul\":1271:1291   */\n  tag_29\n    /* \"#utility.yul\":1289:1290   */\n  dup3\n    /* \"#utility.yul\":1271:1291   */\n  tag_30\n  jump\t// in\ntag_29:\n    /* \"#utility.yul\":1266:1291   */\n  swap2\n  pop\n    /* \"#utility.yul\":1305:1325   */\n  tag_31\n    /* \"#utility.yul\":1323:1324   */\n  dup4\n    /* \"#utility.yul\":1305:1325   */\n  tag_30\n  jump\t// in\ntag_31:\n    /* \"#utility.yul\":1300:1325   */\n  swap3\n  pop\n    /* \"#utility.yul\":1459:1460   */\n  dup3\n    /* \"#utility.yul\":1391:1457   */\n  0xffffffffffffffffffffffffffffffffffffffffffffffffffffffffffffffff\n    /* \"#utility.yul\":1387:1461   */\n  sub\n    /* \"#utility.yul\":1384:1385   */\n  dup3\n    /* \"#utility.yul\":1381:1462   */\n  gt\n    /* \"#utility.yul\":1378:1485   */\n  iszero\n  tag_32\n  jumpi\n    /* \"#utility.yul\":1465:1483   */\n  tag_33\n  tag_34\n  jump\t// in\ntag_33:\n    /* \"#utility.yul\":1378:1485   */\ntag_32:\n    /* \"#utility.yul\":1509:1510   */\n  dup3\n    /* \"#utility.yul\":1506:1507   */\n  dup3\n    /* \"#utility.yul\":1502:1511   */\n  add\n    /* \"#utility.yul\":1495:1511   */\n  swap1\n  pop\n    /* \"#utility.yul\":1212:1517   */\n  swap3\n  swap2\n  pop\n  pop\n  jump\t// out\n    /* \"#utility.yul\":1523:1619   */\ntag_35:\n    /* \"#utility.yul\":1560:1567   */\n  0x00\n    /* \"#utility.yul\":1589:1613   */\n  tag_37\n    /* \"#utility.yul\":1607:1612   */\n  dup3\n    /* \"#utility.yul\":1589:1613   */\n  tag_38\n  jump\t// in\ntag_37:\n    /* \"#utility.yul\":1578:1613   */\n  swap1\n  pop\n    /* \"#utility.yul\":1523:1619   */\n  swap2\n  swap1\n  pop\n  jump\t// out\n    /* \"#utility.yul\":1625:1751   */\ntag_38:\n    /* \"#utility.yul\":1662:1669   */\n  0x00\n    /* \"#utility.yul\":1702:1744   */\n  0xffffffffffffffffffffffffffffffffffffffff\n    /* \"#utility.yul\":1695:1700   */\n  dup3\n    /* \"#utility.yul\":1691:1745   */\n  and\n    /* \"#utility.yul\":1680:1745   */\n  swap1\n  pop\n    /* \"#utility.yul\":1625:1751   */\n  swap2\n  swap1\n  pop\n  jump\t// out\n    /* \"#utility.yul\":1757:1834   */\ntag_30:\n    /* \"#utility.yul\":1794:1801   */\n  0x00\n    /* \"#utility.yul\":1823:1828   */\n  dup2\n    /* \"#utility.yul\":1812:1828   */\n  swap1\n  pop\n    /* \"#utility.yul\":1757:1834   */\n  swap2\n  swap1\n  pop\n  jump\t// out\n    /* \"#utility.yul\":1840:2020   */\ntag_34:\n    /* \"#utility.yul\":1888:1965   */\n  0x4e487b7100000000000000000000000000000000000000000000000000000000\n    /* \"#utility.yul\":1885:1886   */\n  0x00\n    /* \"#utility.yul\":1878:1966   */\n  mstore\n    /* \"#utility.yul\":1985:1989   */\n  0x11\n    /* \"#utility.yul\":1982:1983   */\n  0x04\n    /* \"#utility.yul\":1975:1990   */\n  mstore\n    /* \"#utility.yul\":2009:2013   */\n  0x24\n    /* \"#utility.yul\":2006:2007   */\n  0x00\n    /* \"#utility.yul\":1999:2014   */\n  revert\n    /* \"#utility.yul\":2149:2266   */\ntag_21:\n    /* \"#utility.yul\":2258:2259   */\n  0x00\n    /* \"#utility.yul\":2255:2256   */\n  dup1\n    /* \"#utility.yul\":2248:2260   */\n  revert\n    /* \"#utility.yul\":2272:2394   */\ntag_13:\n    /* \"#utility.yul\":2345:2369   */\n  tag_46\n    /* \"#utility.yul\":2363:2368   */\n  dup2\n    /* \"#utility.yul\":2345:2369   */\n  tag_35\n  jump\t// in\ntag_46:\n    /* \"#utility.yul\":2338:2343   */\n  dup2\n    /* \"#utility.yul\":2335:2370   */\n  eq\n    /* \"#utility.yul\":2325:2388   */\n  tag_47\n  jumpi\n    /* \"#utility.yul\":2384:2385   */\n  0x00\n    /* \"#utility.yul\":2381:2382   */\n  dup1\n    /* \"#utility.yul\":2374:2386   */\n  revert\n    /* \"#utility.yul\":2325:2388   */\ntag_47:\n    /* \"#utility.yul\":2272:2394   */\n  pop\n  jump\t// out\n    /* \"#utility.yul\":2400:2522   */\ntag_17:\n    /* \"#utility.yul\":2473:2497   */\n  tag_49\n    /* \"#utility.yul\":2491:2496   */\n  dup2\n    /* \"#utility.yul\":2473:2497   */\n  tag_30\n  jump\t// in\ntag_49:\n    /* \"#utility.yul\":2466:2471   */\n  dup2\n    /* \"#utility.yul\":2463:2498   */\n  eq\n    /* \"#utility.yul\":2453:2516   */\n  tag_50\n  jumpi\n    /* \"#utility.yul\":2512:2513   */\n  0x00\n    /* \"#utility.yul\":2509:2510   */\n  dup1\n    /* \"#utility.yul\":2502:2514   */\n  revert\n    /* \"#utility.yul\":2453:2516   */\ntag_50:\n    /* \"#utility.yul\":2400:2522   */\n  pop\n  jump\t// out\n    /* \"45EnglishAuction.sol\":292:2987  contract EnglishAuction{... */\ntag_8:\n  dataSize(sub_0)\n  dup1\n  dataOffset(sub_0)\n  0x00\n  codecopy\n  0x00\n  return\nstop\n\nsub_0: assembly {\n        /* \"45EnglishAuction.sol\":292:2987  contract EnglishAuction{... */\n      mstore(0x40, 0x80)\n      jumpi(tag_1, lt(calldatasize, 0x04))\n      shr(0xe0, calldataload(0x00))\n      dup1\n      0x590e1ae3\n      gt\n      tag_11\n      jumpi\n      dup1\n      0x590e1ae3\n      eq\n      tag_6\n      jumpi\n      dup1\n      0x62ea82db\n      eq\n      tag_7\n      jumpi\n      dup1\n      0x7fb45099\n      eq\n      tag_8\n      jumpi\n      dup1\n      0x8a56392e\n      eq\n      tag_9\n      jumpi\n      dup1\n      0xfe67a54b\n      eq\n      tag_10\n      jumpi\n      jump(tag_1)\n    tag_11:\n      dup1\n      0x1998aeef\n      eq\n      tag_2\n      jumpi\n      dup1\n      0x3bb658a0\n      eq\n      tag_3\n      jumpi\n      dup1\n      0x3ce123dc\n      eq\n      tag_4\n      jumpi\n      dup1\n      0x4dc28859\n      eq\n      tag_5\n      jumpi\n    tag_1:\n      0x00\n      dup1\n      revert\n        /* \"45EnglishAuction.sol\":1589:2156  function bid()external payable{... */\n    tag_2:\n      tag_12\n      tag_13\n      jump\t// in\n    tag_12:\n      stop\n        /* \"45EnglishAuction.sol\":486:515  bool public isauctionActivity */\n    tag_3:\n      callvalue\n      dup1\n      iszero\n      tag_14\n      jumpi\n      0x00\n      dup1\n      revert\n    tag_14:\n      pop\n      tag_15\n      tag_16\n      jump\t// in\n    tag_15:\n      mload(0x40)\n      tag_17\n      swap2\n      swap1\n      tag_18\n      jump\t// in\n    tag_17:\n      mload(0x40)\n      dup1\n      swap2\n      sub\n      swap1\n      return\n        /* \"45EnglishAuction.sol\":401:426  address public highBidder */\n    tag_4:\n      callvalue\n      dup1\n      iszero\n      tag_19\n      jumpi\n      0x00\n      dup1\n      revert\n    tag_19:\n      pop\n      tag_20\n      tag_21\n      jump\t// in\n    tag_20:\n      mload(0x40)\n      tag_22\n      swap2\n      swap1\n      tag_23\n      jump\t// in\n    tag_22:\n      mload(0x40)\n      dup1\n      swap2\n      sub\n      swap1\n      return\n        /* \"45EnglishAuction.sol\":432:456  uint public highBidPrice */\n    tag_5:\n      callvalue\n      dup1\n      iszero\n      tag_24\n      jumpi\n      0x00\n      dup1\n      revert\n    tag_24:\n      pop\n      tag_25\n      tag_26\n      jump\t// in\n    tag_25:\n      mload(0x40)\n      tag_27\n      swap2\n      swap1\n      tag_28\n      jump\t// in\n    tag_27:\n      mload(0x40)\n      dup1\n      swap2\n      sub\n      swap1\n      return\n        /* \"45EnglishAuction.sol\":2162:2591  function refund()external{... */\n    tag_6:\n      callvalue\n      dup1\n      iszero\n      tag_29\n      jumpi\n      0x00\n      dup1\n      revert\n    tag_29:\n      pop\n      tag_30\n      tag_31\n      jump\t// in\n    tag_30:\n      stop\n        /* \"45EnglishAuction.sol\":623:659  mapping(address => uint) public bids */\n    tag_7:\n      callvalue\n      dup1\n      iszero\n      tag_32\n      jumpi\n      0x00\n      dup1\n      revert\n    tag_32:\n      pop\n      tag_33\n      0x04\n      dup1\n      calldatasize\n      sub\n      dup2\n      add\n      swap1\n      tag_34\n      swap2\n      swap1\n      tag_35\n      jump\t// in\n    tag_34:\n      tag_36\n      jump\t// in\n    tag_33:\n      mload(0x40)\n      tag_37\n      swap2\n      swap1\n      tag_28\n      jump\t// in\n    tag_37:\n      mload(0x40)\n      dup1\n      swap2\n      sub\n      swap1\n      return\n        /* \"45EnglishAuction.sol\":1336:1559  function auctionState() public view returns(bool){... */\n    tag_8:\n      callvalue\n      dup1\n      iszero\n      tag_38\n      jumpi\n      0x00\n      dup1\n      revert\n    tag_38:\n      pop\n      tag_39\n      tag_40\n      jump\t// in\n    tag_39:\n      mload(0x40)\n      tag_41\n      swap2\n      swap1\n      tag_18\n      jump\t// in\n    tag_41:\n      mload(0x40)\n      dup1\n      swap2\n      sub\n      swap1\n      return\n        /* \"45EnglishAuction.sol\":374:395  address public saller */\n    tag_9:\n      callvalue\n      dup1\n      iszero\n      tag_42\n      jumpi\n      0x00\n      dup1\n      revert\n    tag_42:\n      pop\n      tag_43\n      tag_44\n      jump\t// in\n    tag_43:\n      mload(0x40)\n      tag_45\n      swap2\n      swap1\n      tag_23\n      jump\t// in\n    tag_45:\n      mload(0x40)\n      dup1\n      swap2\n      sub\n      swap1\n      return\n        /* \"45EnglishAuction.sol\":2597:2985  function endAuction()public returns(address) {... */\n    tag_10:\n      callvalue\n      dup1\n      iszero\n      tag_46\n      jumpi\n      0x00\n      dup1\n      revert\n    tag_46:\n      pop\n      tag_47\n      tag_48\n      jump\t// in\n    tag_47:\n      mload(0x40)\n      tag_49\n      swap2\n      swap1\n      tag_23\n      jump\t// in\n    tag_49:\n      mload(0x40)\n      dup1\n      swap2\n      sub\n      swap1\n      return\n        /* \"45EnglishAuction.sol\":1589:2156  function bid()external payable{... */\n    tag_13:\n        /* \"45EnglishAuction.sol\":1629:1645  uint previousBid */\n      0x00\n        /* \"45EnglishAuction.sol\":1648:1660  highBidPrice */\n      sload(0x05)\n        /* \"45EnglishAuction.sol\":1629:1660  uint previousBid = highBidPrice */\n      swap1\n      pop\n        /* \"45EnglishAuction.sol\":1817:1818  0 */\n      0x00\n        /* \"45EnglishAuction.sol\":1795:1819  highBidder != address(0) */\n      0xffffffffffffffffffffffffffffffffffffffff\n      and\n        /* \"45EnglishAuction.sol\":1795:1805  highBidder */\n      0x04\n      0x00\n      swap1\n      sload\n      swap1\n      0x0100\n      exp\n      swap1\n      div\n      0xffffffffffffffffffffffffffffffffffffffff\n      and\n        /* \"45EnglishAuction.sol\":1795:1819  highBidder != address(0) */\n      0xffffffffffffffffffffffffffffffffffffffff\n      and\n      eq\n        /* \"45EnglishAuction.sol\":1792:1976  if(highBidder != address(0)){... */\n      tag_51\n      jumpi\n        /* \"45EnglishAuction.sol\":1953:1965  highBidPrice */\n      sload(0x05)\n        /* \"45EnglishAuction.sol\":1933:1937  bids */\n      0x08\n        /* \"45EnglishAuction.sol\":1933:1949  bids[msg.sender] */\n      0x00\n        /* \"45EnglishAuction.sol\":1938:1948  msg.sender */\n      caller\n        /* \"45EnglishAuction.sol\":1933:1949  bids[msg.sender] */\n      0xffffffffffffffffffffffffffffffffffffffff\n      and\n      0xffffffffffffffffffffffffffffffffffffffff\n      and\n      dup2\n      mstore\n      0x20\n      add\n      swap1\n      dup2\n      mstore\n      0x20\n      add\n      0x00\n      keccak256\n      0x00\n        /* \"45EnglishAuction.sol\":1933:1965  bids[msg.sender] += highBidPrice */\n      dup3\n      dup3\n      sload\n      tag_52\n      swap2\n      swap1\n      tag_53\n      jump\t// in\n    tag_52:\n      swap3\n      pop\n      pop\n      dup2\n      swap1\n      sstore\n      pop\n        /* \"45EnglishAuction.sol\":1792:1976  if(highBidder != address(0)){... */\n    tag_51:\n        /* \"45EnglishAuction.sol\":1998:2008  msg.sender */\n      caller\n        /* \"45EnglishAuction.sol\":1985:1995  highBidder */\n      0x04\n      0x00\n        /* \"45EnglishAuction.sol\":1985:2008  highBidder = msg.sender */\n      0x0100\n      exp\n      dup2\n      sload\n      dup2\n      0xffffffffffffffffffffffffffffffffffffffff\n      mul\n      not\n      and\n      swap1\n      dup4\n      0xffffffffffffffffffffffffffffffffffffffff\n      and\n      mul\n      or\n      swap1\n      sstore\n      pop\n        /* \"45EnglishAuction.sol\":2033:2042  msg.value */\n      callvalue\n        /* \"45EnglishAuction.sol\":2018:2030  highBidPrice */\n      0x05\n        /* \"45EnglishAuction.sol\":2018:2042  highBidPrice = msg.value */\n      dup2\n      swap1\n      sstore\n      pop\n        /* \"45EnglishAuction.sol\":2071:2083  highBidPrice */\n      sload(0x05)\n        /* \"45EnglishAuction.sol\":2052:2056  bids */\n      0x08\n        /* \"45EnglishAuction.sol\":2052:2068  bids[highBidder] */\n      0x00\n        /* \"45EnglishAuction.sol\":2057:2067  highBidder */\n      0x04\n      0x00\n      swap1\n      sload\n      swap1\n      0x0100\n      exp\n      swap1\n      div\n      0xffffffffffffffffffffffffffffffffffffffff\n      and\n        /* \"45EnglishAuction.sol\":2052:2068  bids[highBidder] */\n      0xffffffffffffffffffffffffffffffffffffffff\n      and\n      0xffffffffffffffffffffffffffffffffffffffff\n      and\n      dup2\n      mstore\n      0x20\n      add\n      swap1\n      dup2\n      mstore\n      0x20\n      add\n      0x00\n      keccak256\n        /* \"45EnglishAuction.sol\":2052:2083  bids[highBidder] = highBidPrice */\n      dup2\n      swap1\n      sstore\n      pop\n        /* \"45EnglishAuction.sol\":2119:2131  highBidPrice */\n      sload(0x05)\n        /* \"45EnglishAuction.sol\":2107:2117  msg.sender */\n      caller\n        /* \"45EnglishAuction.sol\":2097:2145  BidderLog(msg.sender, highBidPrice, previousBid) */\n      0xffffffffffffffffffffffffffffffffffffffff\n      and\n      0xd96777d680695051150356a34b99576ecc28ce60af45d4723acc42981e9c6670\n        /* \"45EnglishAuction.sol\":2133:2144  previousBid */\n      dup4\n        /* \"45EnglishAuction.sol\":2097:2145  BidderLog(msg.sender, highBidPrice, previousBid) */\n      mload(0x40)\n      tag_54\n      swap2\n      swap1\n      tag_28\n      jump\t// in\n    tag_54:\n      mload(0x40)\n      dup1\n      swap2\n      sub\n      swap1\n      log3\n        /* \"45EnglishAuction.sol\":1619:2156  {... */\n      pop\n        /* \"45EnglishAuction.sol\":1589:2156  function bid()external payable{... */\n      jump\t// out\n        /* \"45EnglishAuction.sol\":486:515  bool public isauctionActivity */\n    tag_16:\n      0x06\n      0x00\n      swap1\n      sload\n      swap1\n      0x0100\n      exp\n      swap1\n      div\n      0xff\n      and\n      dup2\n      jump\t// out\n        /* \"45EnglishAuction.sol\":401:426  address public highBidder */\n    tag_21:\n      0x04\n      0x00\n      swap1\n      sload\n      swap1\n      0x0100\n      exp\n      swap1\n      div\n      0xffffffffffffffffffffffffffffffffffffffff\n      and\n      dup2\n      jump\t// out\n        /* \"45EnglishAuction.sol\":432:456  uint public highBidPrice */\n    tag_26:\n      sload(0x05)\n      dup2\n      jump\t// out\n        /* \"45EnglishAuction.sol\":2162:2591  function refund()external{... */\n    tag_31:\n        /* \"45EnglishAuction.sol\":2221:2231  msg.sender */\n      caller\n        /* \"45EnglishAuction.sol\":2205:2231  endAuction() != msg.sender */\n      0xffffffffffffffffffffffffffffffffffffffff\n      and\n        /* \"45EnglishAuction.sol\":2205:2217  endAuction() */\n      tag_56\n        /* \"45EnglishAuction.sol\":2205:2215  endAuction */\n      tag_48\n        /* \"45EnglishAuction.sol\":2205:2217  endAuction() */\n      jump\t// in\n    tag_56:\n        /* \"45EnglishAuction.sol\":2205:2231  endAuction() != msg.sender */\n      0xffffffffffffffffffffffffffffffffffffffff\n      and\n      eq\n      iszero\n        /* \"45EnglishAuction.sol\":2197:2255  require(endAuction() != msg.sender,\"newOwner cant refund\") */\n      tag_57\n      jumpi\n      mload(0x40)\n      0x08c379a000000000000000000000000000000000000000000000000000000000\n      dup2\n      mstore\n      0x04\n      add\n      tag_58\n      swap1\n      tag_59\n      jump\t// in\n    tag_58:\n      mload(0x40)\n      dup1\n      swap2\n      sub\n      swap1\n      revert\n    tag_57:\n        /* \"45EnglishAuction.sol\":2287:2288  0 */\n      0x00\n        /* \"45EnglishAuction.sol\":2268:2272  bids */\n      0x08\n        /* \"45EnglishAuction.sol\":2268:2284  bids[msg.sender] */\n      0x00\n        /* \"45EnglishAuction.sol\":2273:2283  msg.sender */\n      caller\n        /* \"45EnglishAuction.sol\":2268:2284  bids[msg.sender] */\n      0xffffffffffffffffffffffffffffffffffffffff\n      and\n      0xffffffffffffffffffffffffffffffffffffffff\n      and\n      dup2\n      mstore\n      0x20\n      add\n      swap1\n      dup2\n      mstore\n      0x20\n      add\n      0x00\n      keccak256\n      sload\n        /* \"45EnglishAuction.sol\":2268:2288  bids[msg.sender] !=0 */\n      eq\n        /* \"45EnglishAuction.sol\":2265:2585  if(bids[msg.sender] !=0){... */\n      tag_60\n      jumpi\n        /* \"45EnglishAuction.sol\":2303:2322  uint refundBidPrice */\n      0x00\n        /* \"45EnglishAuction.sol\":2325:2329  bids */\n      0x08\n        /* \"45EnglishAuction.sol\":2325:2341  bids[msg.sender] */\n      0x00\n        /* \"45EnglishAuction.sol\":2330:2340  msg.sender */\n      caller\n        /* \"45EnglishAuction.sol\":2325:2341  bids[msg.sender] */\n      0xffffffffffffffffffffffffffffffffffffffff\n      and\n      0xffffffffffffffffffffffffffffffffffffffff\n      and\n      dup2\n      mstore\n      0x20\n      add\n      swap1\n      dup2\n      mstore\n      0x20\n      add\n      0x00\n      keccak256\n      sload\n        /* \"45EnglishAuction.sol\":2303:2341  uint refundBidPrice = bids[msg.sender] */\n      swap1\n      pop\n        /* \"45EnglishAuction.sol\":2363:2373  msg.sender */\n      caller\n        /* \"45EnglishAuction.sol\":2355:2383  payable(msg.sender).transfer */\n      0xffffffffffffffffffffffffffffffffffffffff\n      and\n        /* \"45EnglishAuction.sol\":2355:2399  payable(msg.sender).transfer(refundBidPrice) */\n      0x08fc\n        /* \"45EnglishAuction.sol\":2384:2398  refundBidPrice */\n      dup3\n        /* \"45EnglishAuction.sol\":2355:2399  payable(msg.sender).transfer(refundBidPrice) */\n      swap1\n      dup2\n      iszero\n      mul\n      swap1\n      mload(0x40)\n      0x00\n      mload(0x40)\n      dup1\n      dup4\n      sub\n      dup2\n      dup6\n      dup9\n      dup9\n      call\n      swap4\n      pop\n      pop\n      pop\n      pop\n      iszero\n      dup1\n      iszero\n      tag_62\n      jumpi\n      returndatasize\n      0x00\n      dup1\n      returndatacopy\n      revert(0x00, returndatasize)\n    tag_62:\n      pop\n        /* \"45EnglishAuction.sol\":2432:2433  0 */\n      0x00\n        /* \"45EnglishAuction.sol\":2413:2417  bids */\n      0x08\n        /* \"45EnglishAuction.sol\":2413:2429  bids[msg.sender] */\n      0x00\n        /* \"45EnglishAuction.sol\":2418:2428  msg.sender */\n      caller\n        /* \"45EnglishAuction.sol\":2413:2429  bids[msg.sender] */\n      0xffffffffffffffffffffffffffffffffffffffff\n      and\n      0xffffffffffffffffffffffffffffffffffffffff\n      and\n      dup2\n      mstore\n      0x20\n      add\n      swap1\n      dup2\n      mstore\n      0x20\n      add\n      0x00\n      keccak256\n        /* \"45EnglishAuction.sol\":2413:2433  bids[msg.sender] = 0 */\n      dup2\n      swap1\n      sstore\n      pop\n        /* \"45EnglishAuction.sol\":2474:2488  refundBidPrice */\n      dup1\n        /* \"45EnglishAuction.sol\":2462:2472  highBidder */\n      0x04\n      0x00\n      swap1\n      sload\n      swap1\n      0x0100\n      exp\n      swap1\n      div\n      0xffffffffffffffffffffffffffffffffffffffff\n      and\n        /* \"45EnglishAuction.sol\":2452:2507  RefundLog(highBidder, refundBidPrice, bids[highBidder]) */\n      0xffffffffffffffffffffffffffffffffffffffff\n      and\n      0x469e482799f80ee566fae4ac817a80fbb677ba2c58bc7af2ad8d50543e42addb\n        /* \"45EnglishAuction.sol\":2490:2494  bids */\n      0x08\n        /* \"45EnglishAuction.sol\":2490:2506  bids[highBidder] */\n      0x00\n        /* \"45EnglishAuction.sol\":2495:2505  highBidder */\n      0x04\n      0x00\n      swap1\n      sload\n      swap1\n      0x0100\n      exp\n      swap1\n      div\n      0xffffffffffffffffffffffffffffffffffffffff\n      and\n        /* \"45EnglishAuction.sol\":2490:2506  bids[highBidder] */\n      0xffffffffffffffffffffffffffffffffffffffff\n      and\n      0xffffffffffffffffffffffffffffffffffffffff\n      and\n      dup2\n      mstore\n      0x20\n      add\n      swap1\n      dup2\n      mstore\n      0x20\n      add\n      0x00\n      keccak256\n      sload\n        /* \"45EnglishAuction.sol\":2452:2507  RefundLog(highBidder, refundBidPrice, bids[highBidder]) */\n      mload(0x40)\n      tag_63\n      swap2\n      swap1\n      tag_28\n      jump\t// in\n    tag_63:\n      mload(0x40)\n      dup1\n      swap2\n      sub\n      swap1\n      log3\n        /* \"45EnglishAuction.sol\":2289:2518  {... */\n      pop\n        /* \"45EnglishAuction.sol\":2265:2585  if(bids[msg.sender] !=0){... */\n      jump(tag_64)\n    tag_60:\n        /* \"45EnglishAuction.sol\":2536:2574  revert(\"You did not bid anything yet\") */\n      mload(0x40)\n      0x08c379a000000000000000000000000000000000000000000000000000000000\n      dup2\n      mstore\n      0x04\n      add\n      tag_65\n      swap1\n      tag_66\n      jump\t// in\n    tag_65:\n      mload(0x40)\n      dup1\n      swap2\n      sub\n      swap1\n      revert\n        /* \"45EnglishAuction.sol\":2265:2585  if(bids[msg.sender] !=0){... */\n    tag_64:\n        /* \"45EnglishAuction.sol\":2162:2591  function refund()external{... */\n      jump\t// out\n        /* \"45EnglishAuction.sol\":623:659  mapping(address => uint) public bids */\n    tag_36:\n      mstore(0x20, 0x08)\n      dup1\n      0x00\n      mstore\n      keccak256(0x00, 0x40)\n      0x00\n      swap2\n      pop\n      swap1\n      pop\n      sload\n      dup2\n      jump\t// out\n        /* \"45EnglishAuction.sol\":1336:1559  function auctionState() public view returns(bool){... */\n    tag_40:\n        /* \"45EnglishAuction.sol\":1380:1384  bool */\n      0x00\n        /* \"45EnglishAuction.sol\":1395:1417  bool isAuctionActivity */\n      dup1\n        /* \"45EnglishAuction.sol\":1449:1454  endAt */\n      sload(0x02)\n        /* \"45EnglishAuction.sol\":1430:1445  block.timestamp */\n      timestamp\n        /* \"45EnglishAuction.sol\":1430:1454  block.timestamp >= endAt */\n      lt\n        /* \"45EnglishAuction.sol\":1427:1512  if(block.timestamp >= endAt){... */\n      tag_68\n      jumpi\n        /* \"45EnglishAuction.sol\":1496:1501  false */\n      0x00\n        /* \"45EnglishAuction.sol\":1476:1501  isAuctionActivity = false */\n      swap1\n      pop\n      dup1\n        /* \"45EnglishAuction.sol\":1469:1501  return isAuctionActivity = false */\n      swap2\n      pop\n      pop\n      jump(tag_67)\n        /* \"45EnglishAuction.sol\":1427:1512  if(block.timestamp >= endAt){... */\n    tag_68:\n        /* \"45EnglishAuction.sol\":1548:1552  true */\n      0x01\n        /* \"45EnglishAuction.sol\":1528:1552  isAuctionActivity = true */\n      swap1\n      pop\n      dup1\n        /* \"45EnglishAuction.sol\":1521:1552  return isAuctionActivity = true */\n      swap2\n      pop\n      pop\n        /* \"45EnglishAuction.sol\":1336:1559  function auctionState() public view returns(bool){... */\n    tag_67:\n      swap1\n      jump\t// out\n        /* \"45EnglishAuction.sol\":374:395  address public saller */\n    tag_44:\n      0x03\n      0x00\n      swap1\n      sload\n      swap1\n      0x0100\n      exp\n      swap1\n      div\n      0xffffffffffffffffffffffffffffffffffffffff\n      and\n      dup2\n      jump\t// out\n        /* \"45EnglishAuction.sol\":2597:2985  function endAuction()public returns(address) {... */\n    tag_48:\n        /* \"45EnglishAuction.sol\":2633:2640  address */\n      0x00\n        /* \"45EnglishAuction.sol\":2652:2668  address newOwner */\n      dup1\n        /* \"45EnglishAuction.sol\":2687:2701  auctionState() */\n      tag_70\n        /* \"45EnglishAuction.sol\":2687:2699  auctionState */\n      tag_40\n        /* \"45EnglishAuction.sol\":2687:2701  auctionState() */\n      jump\t// in\n    tag_70:\n        /* \"45EnglishAuction.sol\":2686:2701  !auctionState() */\n      iszero\n        /* \"45EnglishAuction.sol\":2678:2730  require(!auctionState(),\"auction is still biddinng\") */\n      tag_71\n      jumpi\n      mload(0x40)\n      0x08c379a000000000000000000000000000000000000000000000000000000000\n      dup2\n      mstore\n      0x04\n      add\n      tag_72\n      swap1\n      tag_73\n      jump\t// in\n    tag_72:\n      mload(0x40)\n      dup1\n      swap2\n      sub\n      swap1\n      revert\n    tag_71:\n        /* \"45EnglishAuction.sol\":2740:2755  uint finalPrice */\n      0x00\n        /* \"45EnglishAuction.sol\":2758:2762  bids */\n      0x08\n        /* \"45EnglishAuction.sol\":2758:2774  bids[highBidder] */\n      0x00\n        /* \"45EnglishAuction.sol\":2763:2773  highBidder */\n      0x04\n      0x00\n      swap1\n      sload\n      swap1\n      0x0100\n      exp\n      swap1\n      div\n      0xffffffffffffffffffffffffffffffffffffffff\n      and\n        /* \"45EnglishAuction.sol\":2758:2774  bids[highBidder] */\n      0xffffffffffffffffffffffffffffffffffffffff\n      and\n      0xffffffffffffffffffffffffffffffffffffffff\n      and\n      dup2\n      mstore\n      0x20\n      add\n      swap1\n      dup2\n      mstore\n      0x20\n      add\n      0x00\n      keccak256\n      sload\n        /* \"45EnglishAuction.sol\":2740:2774  uint finalPrice = bids[highBidder] */\n      swap1\n      pop\n        /* \"45EnglishAuction.sol\":2792:2798  saller */\n      0x03\n      0x00\n      swap1\n      sload\n      swap1\n      0x0100\n      exp\n      swap1\n      div\n      0xffffffffffffffffffffffffffffffffffffffff\n      and\n        /* \"45EnglishAuction.sol\":2784:2808  payable(saller).transfer */\n      0xffffffffffffffffffffffffffffffffffffffff\n      and\n        /* \"45EnglishAuction.sol\":2784:2820  payable(saller).transfer(finalPrice) */\n      0x08fc\n        /* \"45EnglishAuction.sol\":2809:2819  finalPrice */\n      dup3\n        /* \"45EnglishAuction.sol\":2784:2820  payable(saller).transfer(finalPrice) */\n      swap1\n      dup2\n      iszero\n      mul\n      swap1\n      mload(0x40)\n      0x00\n      mload(0x40)\n      dup1\n      dup4\n      sub\n      dup2\n      dup6\n      dup9\n      dup9\n      call\n      swap4\n      pop\n      pop\n      pop\n      pop\n      iszero\n      dup1\n      iszero\n      tag_75\n      jumpi\n      returndatasize\n      0x00\n      dup1\n      returndatacopy\n      revert(0x00, returndatasize)\n    tag_75:\n      pop\n        /* \"45EnglishAuction.sol\":2838:2849  nftContract */\n      0x06\n      0x01\n      swap1\n      sload\n      swap1\n      0x0100\n      exp\n      swap1\n      div\n      0xffffffffffffffffffffffffffffffffffffffff\n      and\n        /* \"45EnglishAuction.sol\":2830:2867  IERC721(nftContract).safeTransferFrom */\n      0xffffffffffffffffffffffffffffffffffffffff\n      and\n      0x42842e0e\n        /* \"45EnglishAuction.sol\":2868:2874  saller */\n      0x03\n      0x00\n      swap1\n      sload\n      swap1\n      0x0100\n      exp\n      swap1\n      div\n      0xffffffffffffffffffffffffffffffffffffffff\n      and\n        /* \"45EnglishAuction.sol\":2875:2885  msg.sender */\n      caller\n        /* \"45EnglishAuction.sol\":2886:2893  tokenId */\n      sload(0x07)\n        /* \"45EnglishAuction.sol\":2830:2894  IERC721(nftContract).safeTransferFrom(saller,msg.sender,tokenId) */\n      mload(0x40)\n      dup5\n      0xffffffff\n      and\n      0xe0\n      shl\n      dup2\n      mstore\n      0x04\n      add\n      tag_76\n      swap4\n      swap3\n      swap2\n      swap1\n      tag_77\n      jump\t// in\n    tag_76:\n      0x00\n      mload(0x40)\n      dup1\n      dup4\n      sub\n      dup2\n      0x00\n      dup8\n      dup1\n      extcodesize\n      iszero\n      dup1\n      iszero\n      tag_78\n      jumpi\n      0x00\n      dup1\n      revert\n    tag_78:\n      pop\n      gas\n      call\n      iszero\n      dup1\n      iszero\n      tag_80\n      jumpi\n      returndatasize\n      0x00\n      dup1\n      returndatacopy\n      revert(0x00, returndatasize)\n    tag_80:\n      pop\n      pop\n      pop\n      pop\n        /* \"45EnglishAuction.sol\":2909:2939  BuyLog(msg.sender, finalPrice) */\n      0xb288086d2d3b7b2278ff658be9b2841520f5b45d6efc39fc3fac149a9170ef59\n        /* \"45EnglishAuction.sol\":2916:2926  msg.sender */\n      caller\n        /* \"45EnglishAuction.sol\":2928:2938  finalPrice */\n      dup3\n        /* \"45EnglishAuction.sol\":2909:2939  BuyLog(msg.sender, finalPrice) */\n      mload(0x40)\n      tag_81\n      swap3\n      swap2\n      swap1\n      tag_82\n      jump\t// in\n    tag_81:\n      mload(0x40)\n      dup1\n      swap2\n      sub\n      swap1\n      log1\n        /* \"45EnglishAuction.sol\":2968:2978  msg.sender */\n      caller\n        /* \"45EnglishAuction.sol\":2957:2978  newOwner = msg.sender */\n      swap2\n      pop\n      dup2\n        /* \"45EnglishAuction.sol\":2949:2978  return  newOwner = msg.sender */\n      swap3\n      pop\n      pop\n      pop\n        /* \"45EnglishAuction.sol\":2597:2985  function endAuction()public returns(address) {... */\n      swap1\n      jump\t// out\n        /* \"#utility.yul\":7:146   */\n    tag_84:\n        /* \"#utility.yul\":53:58   */\n      0x00\n        /* \"#utility.yul\":91:97   */\n      dup2\n        /* \"#utility.yul\":78:98   */\n      calldataload\n        /* \"#utility.yul\":69:98   */\n      swap1\n      pop\n        /* \"#utility.yul\":107:140   */\n      tag_86\n        /* \"#utility.yul\":134:139   */\n      dup2\n        /* \"#utility.yul\":107:140   */\n      tag_87\n      jump\t// in\n    tag_86:\n        /* \"#utility.yul\":7:146   */\n      swap3\n      swap2\n      pop\n      pop\n      jump\t// out\n        /* \"#utility.yul\":152:481   */\n    tag_35:\n        /* \"#utility.yul\":211:217   */\n      0x00\n        /* \"#utility.yul\":260:262   */\n      0x20\n        /* \"#utility.yul\":248:257   */\n      dup3\n        /* \"#utility.yul\":239:246   */\n      dup5\n        /* \"#utility.yul\":235:258   */\n      sub\n        /* \"#utility.yul\":231:263   */\n      slt\n        /* \"#utility.yul\":228:347   */\n      iszero\n      tag_89\n      jumpi\n        /* \"#utility.yul\":266:345   */\n      tag_90\n      tag_91\n      jump\t// in\n    tag_90:\n        /* \"#utility.yul\":228:347   */\n    tag_89:\n        /* \"#utility.yul\":386:387   */\n      0x00\n        /* \"#utility.yul\":411:464   */\n      tag_92\n        /* \"#utility.yul\":456:463   */\n      dup5\n        /* \"#utility.yul\":447:453   */\n      dup3\n        /* \"#utility.yul\":436:445   */\n      dup6\n        /* \"#utility.yul\":432:454   */\n      add\n        /* \"#utility.yul\":411:464   */\n      tag_84\n      jump\t// in\n    tag_92:\n        /* \"#utility.yul\":401:464   */\n      swap2\n      pop\n        /* \"#utility.yul\":357:474   */\n      pop\n        /* \"#utility.yul\":152:481   */\n      swap3\n      swap2\n      pop\n      pop\n      jump\t// out\n        /* \"#utility.yul\":487:605   */\n    tag_93:\n        /* \"#utility.yul\":574:598   */\n      tag_95\n        /* \"#utility.yul\":592:597   */\n      dup2\n        /* \"#utility.yul\":574:598   */\n      tag_96\n      jump\t// in\n    tag_95:\n        /* \"#utility.yul\":569:572   */\n      dup3\n        /* \"#utility.yul\":562:599   */\n      mstore\n        /* \"#utility.yul\":487:605   */\n      pop\n      pop\n      jump\t// out\n        /* \"#utility.yul\":611:720   */\n    tag_97:\n        /* \"#utility.yul\":692:713   */\n      tag_99\n        /* \"#utility.yul\":707:712   */\n      dup2\n        /* \"#utility.yul\":692:713   */\n      tag_100\n      jump\t// in\n    tag_99:\n        /* \"#utility.yul\":687:690   */\n      dup3\n        /* \"#utility.yul\":680:714   */\n      mstore\n        /* \"#utility.yul\":611:720   */\n      pop\n      pop\n      jump\t// out\n        /* \"#utility.yul\":726:1092   */\n    tag_101:\n        /* \"#utility.yul\":868:871   */\n      0x00\n        /* \"#utility.yul\":889:956   */\n      tag_103\n        /* \"#utility.yul\":953:955   */\n      0x1c\n        /* \"#utility.yul\":948:951   */\n      dup4\n        /* \"#utility.yul\":889:956   */\n      tag_104\n      jump\t// in\n    tag_103:\n        /* \"#utility.yul\":882:956   */\n      swap2\n      pop\n        /* \"#utility.yul\":965:1058   */\n      tag_105\n        /* \"#utility.yul\":1054:1057   */\n      dup3\n        /* \"#utility.yul\":965:1058   */\n      tag_106\n      jump\t// in\n    tag_105:\n        /* \"#utility.yul\":1083:1085   */\n      0x20\n        /* \"#utility.yul\":1078:1081   */\n      dup3\n        /* \"#utility.yul\":1074:1086   */\n      add\n        /* \"#utility.yul\":1067:1086   */\n      swap1\n      pop\n        /* \"#utility.yul\":726:1092   */\n      swap2\n      swap1\n      pop\n      jump\t// out\n        /* \"#utility.yul\":1098:1464   */\n    tag_107:\n        /* \"#utility.yul\":1240:1243   */\n      0x00\n        /* \"#utility.yul\":1261:1328   */\n      tag_109\n        /* \"#utility.yul\":1325:1327   */\n      0x19\n        /* \"#utility.yul\":1320:1323   */\n      dup4\n        /* \"#utility.yul\":1261:1328   */\n      tag_104\n      jump\t// in\n    tag_109:\n        /* \"#utility.yul\":1254:1328   */\n      swap2\n      pop\n        /* \"#utility.yul\":1337:1430   */\n      tag_110\n        /* \"#utility.yul\":1426:1429   */\n      dup3\n        /* \"#utility.yul\":1337:1430   */\n      tag_111\n      jump\t// in\n    tag_110:\n        /* \"#utility.yul\":1455:1457   */\n      0x20\n        /* \"#utility.yul\":1450:1453   */\n      dup3\n        /* \"#utility.yul\":1446:1458   */\n      add\n        /* \"#utility.yul\":1439:1458   */\n      swap1\n      pop\n        /* \"#utility.yul\":1098:1464   */\n      swap2\n      swap1\n      pop\n      jump\t// out\n        /* \"#utility.yul\":1470:1836   */\n    tag_112:\n        /* \"#utility.yul\":1612:1615   */\n      0x00\n        /* \"#utility.yul\":1633:1700   */\n      tag_114\n        /* \"#utility.yul\":1697:1699   */\n      0x14\n        /* \"#utility.yul\":1692:1695   */\n      dup4\n        /* \"#utility.yul\":1633:1700   */\n      tag_104\n      jump\t// in\n    tag_114:\n        /* \"#utility.yul\":1626:1700   */\n      swap2\n      pop\n        /* \"#utility.yul\":1709:1802   */\n      tag_115\n        /* \"#utility.yul\":1798:1801   */\n      dup3\n        /* \"#utility.yul\":1709:1802   */\n      tag_116\n      jump\t// in\n    tag_115:\n        /* \"#utility.yul\":1827:1829   */\n      0x20\n        /* \"#utility.yul\":1822:1825   */\n      dup3\n        /* \"#utility.yul\":1818:1830   */\n      add\n        /* \"#utility.yul\":1811:1830   */\n      swap1\n      pop\n        /* \"#utility.yul\":1470:1836   */\n      swap2\n      swap1\n      pop\n      jump\t// out\n        /* \"#utility.yul\":1842:1960   */\n    tag_117:\n        /* \"#utility.yul\":1929:1953   */\n      tag_119\n        /* \"#utility.yul\":1947:1952   */\n      dup2\n        /* \"#utility.yul\":1929:1953   */\n      tag_120\n      jump\t// in\n    tag_119:\n        /* \"#utility.yul\":1924:1927   */\n      dup3\n        /* \"#utility.yul\":1917:1954   */\n      mstore\n        /* \"#utility.yul\":1842:1960   */\n      pop\n      pop\n      jump\t// out\n        /* \"#utility.yul\":1966:2188   */\n    tag_23:\n        /* \"#utility.yul\":2059:2063   */\n      0x00\n        /* \"#utility.yul\":2097:2099   */\n      0x20\n        /* \"#utility.yul\":2086:2095   */\n      dup3\n        /* \"#utility.yul\":2082:2100   */\n      add\n        /* \"#utility.yul\":2074:2100   */\n      swap1\n      pop\n        /* \"#utility.yul\":2110:2181   */\n      tag_122\n        /* \"#utility.yul\":2178:2179   */\n      0x00\n        /* \"#utility.yul\":2167:2176   */\n      dup4\n        /* \"#utility.yul\":2163:2180   */\n      add\n        /* \"#utility.yul\":2154:2160   */\n      dup5\n        /* \"#utility.yul\":2110:2181   */\n      tag_93\n      jump\t// in\n    tag_122:\n        /* \"#utility.yul\":1966:2188   */\n      swap3\n      swap2\n      pop\n      pop\n      jump\t// out\n        /* \"#utility.yul\":2194:2636   */\n    tag_77:\n        /* \"#utility.yul\":2343:2347   */\n      0x00\n        /* \"#utility.yul\":2381:2383   */\n      0x60\n        /* \"#utility.yul\":2370:2379   */\n      dup3\n        /* \"#utility.yul\":2366:2384   */\n      add\n        /* \"#utility.yul\":2358:2384   */\n      swap1\n      pop\n        /* \"#utility.yul\":2394:2465   */\n      tag_124\n        /* \"#utility.yul\":2462:2463   */\n      0x00\n        /* \"#utility.yul\":2451:2460   */\n      dup4\n        /* \"#utility.yul\":2447:2464   */\n      add\n        /* \"#utility.yul\":2438:2444   */\n      dup7\n        /* \"#utility.yul\":2394:2465   */\n      tag_93\n      jump\t// in\n    tag_124:\n        /* \"#utility.yul\":2475:2547   */\n      tag_125\n        /* \"#utility.yul\":2543:2545   */\n      0x20\n        /* \"#utility.yul\":2532:2541   */\n      dup4\n        /* \"#utility.yul\":2528:2546   */\n      add\n        /* \"#utility.yul\":2519:2525   */\n      dup6\n        /* \"#utility.yul\":2475:2547   */\n      tag_93\n      jump\t// in\n    tag_125:\n        /* \"#utility.yul\":2557:2629   */\n      tag_126\n        /* \"#utility.yul\":2625:2627   */\n      0x40\n        /* \"#utility.yul\":2614:2623   */\n      dup4\n        /* \"#utility.yul\":2610:2628   */\n      add\n        /* \"#utility.yul\":2601:2607   */\n      dup5\n        /* \"#utility.yul\":2557:2629   */\n      tag_117\n      jump\t// in\n    tag_126:\n        /* \"#utility.yul\":2194:2636   */\n      swap5\n      swap4\n      pop\n      pop\n      pop\n      pop\n      jump\t// out\n        /* \"#utility.yul\":2642:2974   */\n    tag_82:\n        /* \"#utility.yul\":2763:2767   */\n      0x00\n        /* \"#utility.yul\":2801:2803   */\n      0x40\n        /* \"#utility.yul\":2790:2799   */\n      dup3\n        /* \"#utility.yul\":2786:2804   */\n      add\n        /* \"#utility.yul\":2778:2804   */\n      swap1\n      pop\n        /* \"#utility.yul\":2814:2885   */\n      tag_128\n        /* \"#utility.yul\":2882:2883   */\n      0x00\n        /* \"#utility.yul\":2871:2880   */\n      dup4\n        /* \"#utility.yul\":2867:2884   */\n      add\n        /* \"#utility.yul\":2858:2864   */\n      dup6\n        /* \"#utility.yul\":2814:2885   */\n      tag_93\n      jump\t// in\n    tag_128:\n        /* \"#utility.yul\":2895:2967   */\n      tag_129\n        /* \"#utility.yul\":2963:2965   */\n      0x20\n        /* \"#utility.yul\":2952:2961   */\n      dup4\n        /* \"#utility.yul\":2948:2966   */\n      add\n        /* \"#utility.yul\":2939:2945   */\n      dup5\n        /* \"#utility.yul\":2895:2967   */\n      tag_117\n      jump\t// in\n    tag_129:\n        /* \"#utility.yul\":2642:2974   */\n      swap4\n      swap3\n      pop\n      pop\n      pop\n      jump\t// out\n        /* \"#utility.yul\":2980:3190   */\n    tag_18:\n        /* \"#utility.yul\":3067:3071   */\n      0x00\n        /* \"#utility.yul\":3105:3107   */\n      0x20\n        /* \"#utility.yul\":3094:3103   */\n      dup3\n        /* \"#utility.yul\":3090:3108   */\n      add\n        /* \"#utility.yul\":3082:3108   */\n      swap1\n      pop\n        /* \"#utility.yul\":3118:3183   */\n      tag_131\n        /* \"#utility.yul\":3180:3181   */\n      0x00\n        /* \"#utility.yul\":3169:3178   */\n      dup4\n        /* \"#utility.yul\":3165:3182   */\n      add\n        /* \"#utility.yul\":3156:3162   */\n      dup5\n        /* \"#utility.yul\":3118:3183   */\n      tag_97\n      jump\t// in\n    tag_131:\n        /* \"#utility.yul\":2980:3190   */\n      swap3\n      swap2\n      pop\n      pop\n      jump\t// out\n        /* \"#utility.yul\":3196:3615   */\n    tag_66:\n        /* \"#utility.yul\":3362:3366   */\n      0x00\n        /* \"#utility.yul\":3400:3402   */\n      0x20\n        /* \"#utility.yul\":3389:3398   */\n      dup3\n        /* \"#utility.yul\":3385:3403   */\n      add\n        /* \"#utility.yul\":3377:3403   */\n      swap1\n      pop\n        /* \"#utility.yul\":3449:3458   */\n      dup2\n        /* \"#utility.yul\":3443:3447   */\n      dup2\n        /* \"#utility.yul\":3439:3459   */\n      sub\n        /* \"#utility.yul\":3435:3436   */\n      0x00\n        /* \"#utility.yul\":3424:3433   */\n      dup4\n        /* \"#utility.yul\":3420:3437   */\n      add\n        /* \"#utility.yul\":3413:3460   */\n      mstore\n        /* \"#utility.yul\":3477:3608   */\n      tag_133\n        /* \"#utility.yul\":3603:3607   */\n      dup2\n        /* \"#utility.yul\":3477:3608   */\n      tag_101\n      jump\t// in\n    tag_133:\n        /* \"#utility.yul\":3469:3608   */\n      swap1\n      pop\n        /* \"#utility.yul\":3196:3615   */\n      swap2\n      swap1\n      pop\n      jump\t// out\n        /* \"#utility.yul\":3621:4040   */\n    tag_73:\n        /* \"#utility.yul\":3787:3791   */\n      0x00\n        /* \"#utility.yul\":3825:3827   */\n      0x20\n        /* \"#utility.yul\":3814:3823   */\n      dup3\n        /* \"#utility.yul\":3810:3828   */\n      add\n        /* \"#utility.yul\":3802:3828   */\n      swap1\n      pop\n        /* \"#utility.yul\":3874:3883   */\n      dup2\n        /* \"#utility.yul\":3868:3872   */\n      dup2\n        /* \"#utility.yul\":3864:3884   */\n      sub\n        /* \"#utility.yul\":3860:3861   */\n      0x00\n        /* \"#utility.yul\":3849:3858   */\n      dup4\n        /* \"#utility.yul\":3845:3862   */\n      add\n        /* \"#utility.yul\":3838:3885   */\n      mstore\n        /* \"#utility.yul\":3902:4033   */\n      tag_135\n        /* \"#utility.yul\":4028:4032   */\n      dup2\n        /* \"#utility.yul\":3902:4033   */\n      tag_107\n      jump\t// in\n    tag_135:\n        /* \"#utility.yul\":3894:4033   */\n      swap1\n      pop\n        /* \"#utility.yul\":3621:4040   */\n      swap2\n      swap1\n      pop\n      jump\t// out\n        /* \"#utility.yul\":4046:4465   */\n    tag_59:\n        /* \"#utility.yul\":4212:4216   */\n      0x00\n        /* \"#utility.yul\":4250:4252   */\n      0x20\n        /* \"#utility.yul\":4239:4248   */\n      dup3\n        /* \"#utility.yul\":4235:4253   */\n      add\n        /* \"#utility.yul\":4227:4253   */\n      swap1\n      pop\n        /* \"#utility.yul\":4299:4308   */\n      dup2\n        /* \"#utility.yul\":4293:4297   */\n      dup2\n        /* \"#utility.yul\":4289:4309   */\n      sub\n        /* \"#utility.yul\":4285:4286   */\n      0x00\n        /* \"#utility.yul\":4274:4283   */\n      dup4\n        /* \"#utility.yul\":4270:4287   */\n      add\n        /* \"#utility.yul\":4263:4310   */\n      mstore\n        /* \"#utility.yul\":4327:4458   */\n      tag_137\n        /* \"#utility.yul\":4453:4457   */\n      dup2\n        /* \"#utility.yul\":4327:4458   */\n      tag_112\n      jump\t// in\n    tag_137:\n        /* \"#utility.yul\":4319:4458   */\n      swap1\n      pop\n        /* \"#utility.yul\":4046:4465   */\n      swap2\n      swap1\n      pop\n      jump\t// out\n        /* \"#utility.yul\":4471:4693   */\n    tag_28:\n        /* \"#utility.yul\":4564:4568   */\n      0x00\n        /* \"#utility.yul\":4602:4604   */\n      0x20\n        /* \"#utility.yul\":4591:4600   */\n      dup3\n        /* \"#utility.yul\":4587:4605   */\n      add\n        /* \"#utility.yul\":4579:4605   */\n      swap1\n      pop\n        /* \"#utility.yul\":4615:4686   */\n      tag_139\n        /* \"#utility.yul\":4683:4684   */\n      0x00\n        /* \"#utility.yul\":4672:4681   */\n      dup4\n        /* \"#utility.yul\":4668:4685   */\n      add\n        /* \"#utility.yul\":4659:4665   */\n      dup5\n        /* \"#utility.yul\":4615:4686   */\n      tag_117\n      jump\t// in\n    tag_139:\n        /* \"#utility.yul\":4471:4693   */\n      swap3\n      swap2\n      pop\n      pop\n      jump\t// out\n        /* \"#utility.yul\":4780:4949   */\n    tag_104:\n        /* \"#utility.yul\":4864:4875   */\n      0x00\n        /* \"#utility.yul\":4898:4904   */\n      dup3\n        /* \"#utility.yul\":4893:4896   */\n      dup3\n        /* \"#utility.yul\":4886:4905   */\n      mstore\n        /* \"#utility.yul\":4938:4942   */\n      0x20\n        /* \"#utility.yul\":4933:4936   */\n      dup3\n        /* \"#utility.yul\":4929:4943   */\n      add\n        /* \"#utility.yul\":4914:4943   */\n      swap1\n      pop\n        /* \"#utility.yul\":4780:4949   */\n      swap3\n      swap2\n      pop\n      pop\n      jump\t// out\n        /* \"#utility.yul\":4955:5260   */\n    tag_53:\n        /* \"#utility.yul\":4995:4998   */\n      0x00\n        /* \"#utility.yul\":5014:5034   */\n      tag_144\n        /* \"#utility.yul\":5032:5033   */\n      dup3\n        /* \"#utility.yul\":5014:5034   */\n      tag_120\n      jump\t// in\n    tag_144:\n        /* \"#utility.yul\":5009:5034   */\n      swap2\n      pop\n        /* \"#utility.yul\":5048:5068   */\n      tag_145\n        /* \"#utility.yul\":5066:5067   */\n      dup4\n        /* \"#utility.yul\":5048:5068   */\n      tag_120\n      jump\t// in\n    tag_145:\n        /* \"#utility.yul\":5043:5068   */\n      swap3\n      pop\n        /* \"#utility.yul\":5202:5203   */\n      dup3\n        /* \"#utility.yul\":5134:5200   */\n      0xffffffffffffffffffffffffffffffffffffffffffffffffffffffffffffffff\n        /* \"#utility.yul\":5130:5204   */\n      sub\n        /* \"#utility.yul\":5127:5128   */\n      dup3\n        /* \"#utility.yul\":5124:5205   */\n      gt\n        /* \"#utility.yul\":5121:5228   */\n      iszero\n      tag_146\n      jumpi\n        /* \"#utility.yul\":5208:5226   */\n      tag_147\n      tag_148\n      jump\t// in\n    tag_147:\n        /* \"#utility.yul\":5121:5228   */\n    tag_146:\n        /* \"#utility.yul\":5252:5253   */\n      dup3\n        /* \"#utility.yul\":5249:5250   */\n      dup3\n        /* \"#utility.yul\":5245:5254   */\n      add\n        /* \"#utility.yul\":5238:5254   */\n      swap1\n      pop\n        /* \"#utility.yul\":4955:5260   */\n      swap3\n      swap2\n      pop\n      pop\n      jump\t// out\n        /* \"#utility.yul\":5266:5362   */\n    tag_96:\n        /* \"#utility.yul\":5303:5310   */\n      0x00\n        /* \"#utility.yul\":5332:5356   */\n      tag_150\n        /* \"#utility.yul\":5350:5355   */\n      dup3\n        /* \"#utility.yul\":5332:5356   */\n      tag_151\n      jump\t// in\n    tag_150:\n        /* \"#utility.yul\":5321:5356   */\n      swap1\n      pop\n        /* \"#utility.yul\":5266:5362   */\n      swap2\n      swap1\n      pop\n      jump\t// out\n        /* \"#utility.yul\":5368:5458   */\n    tag_100:\n        /* \"#utility.yul\":5402:5409   */\n      0x00\n        /* \"#utility.yul\":5445:5450   */\n      dup2\n        /* \"#utility.yul\":5438:5451   */\n      iszero\n        /* \"#utility.yul\":5431:5452   */\n      iszero\n        /* \"#utility.yul\":5420:5452   */\n      swap1\n      pop\n        /* \"#utility.yul\":5368:5458   */\n      swap2\n      swap1\n      pop\n      jump\t// out\n        /* \"#utility.yul\":5464:5590   */\n    tag_151:\n        /* \"#utility.yul\":5501:5508   */\n      0x00\n        /* \"#utility.yul\":5541:5583   */\n      0xffffffffffffffffffffffffffffffffffffffff\n        /* \"#utility.yul\":5534:5539   */\n      dup3\n        /* \"#utility.yul\":5530:5584   */\n      and\n        /* \"#utility.yul\":5519:5584   */\n      swap1\n      pop\n        /* \"#utility.yul\":5464:5590   */\n      swap2\n      swap1\n      pop\n      jump\t// out\n        /* \"#utility.yul\":5596:5673   */\n    tag_120:\n        /* \"#utility.yul\":5633:5640   */\n      0x00\n        /* \"#utility.yul\":5662:5667   */\n      dup2\n        /* \"#utility.yul\":5651:5667   */\n      swap1\n      pop\n        /* \"#utility.yul\":5596:5673   */\n      swap2\n      swap1\n      pop\n      jump\t// out\n        /* \"#utility.yul\":5679:5859   */\n    tag_148:\n        /* \"#utility.yul\":5727:5804   */\n      0x4e487b7100000000000000000000000000000000000000000000000000000000\n        /* \"#utility.yul\":5724:5725   */\n      0x00\n        /* \"#utility.yul\":5717:5805   */\n      mstore\n        /* \"#utility.yul\":5824:5828   */\n      0x11\n        /* \"#utility.yul\":5821:5822   */\n      0x04\n        /* \"#utility.yul\":5814:5829   */\n      mstore\n        /* \"#utility.yul\":5848:5852   */\n      0x24\n        /* \"#utility.yul\":5845:5846   */\n      0x00\n        /* \"#utility.yul\":5838:5853   */\n      revert\n        /* \"#utility.yul\":5988:6105   */\n    tag_91:\n        /* \"#utility.yul\":6097:6098   */\n      0x00\n        /* \"#utility.yul\":6094:6095   */\n      dup1\n        /* \"#utility.yul\":6087:6099   */\n      revert\n        /* \"#utility.yul\":6111:6289   */\n    tag_106:\n        /* \"#utility.yul\":6251:6281   */\n      0x596f7520646964206e6f742062696420616e797468696e672079657400000000\n        /* \"#utility.yul\":6247:6248   */\n      0x00\n        /* \"#utility.yul\":6239:6245   */\n      dup3\n        /* \"#utility.yul\":6235:6249   */\n      add\n        /* \"#utility.yul\":6228:6282   */\n      mstore\n        /* \"#utility.yul\":6111:6289   */\n      pop\n      jump\t// out\n        /* \"#utility.yul\":6295:6470   */\n    tag_111:\n        /* \"#utility.yul\":6435:6462   */\n      0x61756374696f6e206973207374696c6c2062696464696e6e6700000000000000\n        /* \"#utility.yul\":6431:6432   */\n      0x00\n        /* \"#utility.yul\":6423:6429   */\n      dup3\n        /* \"#utility.yul\":6419:6433   */\n      add\n        /* \"#utility.yul\":6412:6463   */\n      mstore\n        /* \"#utility.yul\":6295:6470   */\n      pop\n      jump\t// out\n        /* \"#utility.yul\":6476:6646   */\n    tag_116:\n        /* \"#utility.yul\":6616:6638   */\n      0x6e65774f776e65722063616e7420726566756e64000000000000000000000000\n        /* \"#utility.yul\":6612:6613   */\n      0x00\n        /* \"#utility.yul\":6604:6610   */\n      dup3\n        /* \"#utility.yul\":6600:6614   */\n      add\n        /* \"#utility.yul\":6593:6639   */\n      mstore\n        /* \"#utility.yul\":6476:6646   */\n      pop\n      jump\t// out\n        /* \"#utility.yul\":6652:6774   */\n    tag_87:\n        /* \"#utility.yul\":6725:6749   */\n      tag_163\n        /* \"#utility.yul\":6743:6748   */\n      dup2\n        /* \"#utility.yul\":6725:6749   */\n      tag_96\n      jump\t// in\n    tag_163:\n        /* \"#utility.yul\":6718:6723   */\n      dup2\n        /* \"#utility.yul\":6715:6750   */\n      eq\n        /* \"#utility.yul\":6705:6768   */\n      tag_164\n      jumpi\n        /* \"#utility.yul\":6764:6765   */\n      0x00\n        /* \"#utility.yul\":6761:6762   */\n      dup1\n        /* \"#utility.yul\":6754:6766   */\n      revert\n        /* \"#utility.yul\":6705:6768   */\n    tag_164:\n        /* \"#utility.yul\":6652:6774   */\n      pop\n      jump\t// out\n\n    auxdata: 0xa264697066735822122030ffa98afa2ead361e945f95e2a3d9226a477549b2af5e90370d5037d2c920db64736f6c63430008070033\n}\n",
				"bytecode": {
					"linkReferences": {},
					"object": "60806040523480156200001157600080fd5b5060405162000f3a38038062000f3a833981810160405281019062000037919062000125565b426000819055508360018190555033600360006101000a81548173ffffffffffffffffffffffffffffffffffffffff021916908373ffffffffffffffffffffffffffffffffffffffff160217905550826005819055506001546000546200009f919062000197565b60028190555081600660016101000a81548173ffffffffffffffffffffffffffffffffffffffff021916908373ffffffffffffffffffffffffffffffffffffffff16021790555080600781905550505050506200029a565b600081519050620001088162000266565b92915050565b6000815190506200011f8162000280565b92915050565b6000806000806080858703121562000142576200014162000261565b5b600062000152878288016200010e565b945050602062000165878288016200010e565b93505060406200017887828801620000f7565b92505060606200018b878288016200010e565b91505092959194509250565b6000620001a48262000228565b9150620001b18362000228565b9250827fffffffffffffffffffffffffffffffffffffffffffffffffffffffffffffffff03821115620001e957620001e862000232565b5b828201905092915050565b6000620002018262000208565b9050919050565b600073ffffffffffffffffffffffffffffffffffffffff82169050919050565b6000819050919050565b7f4e487b7100000000000000000000000000000000000000000000000000000000600052601160045260246000fd5b600080fd5b6200027181620001f4565b81146200027d57600080fd5b50565b6200028b8162000228565b81146200029757600080fd5b50565b610c9080620002aa6000396000f3fe6080604052600436106100865760003560e01c8063590e1ae311610059578063590e1ae31461011657806362ea82db1461012d5780637fb450991461016a5780638a56392e14610195578063fe67a54b146101c057610086565b80631998aeef1461008b5780633bb658a0146100955780633ce123dc146100c05780634dc28859146100eb575b600080fd5b6100936101eb565b005b3480156100a157600080fd5b506100aa6103a5565b6040516100b79190610a4f565b60405180910390f35b3480156100cc57600080fd5b506100d56103b8565b6040516100e291906109d4565b60405180910390f35b3480156100f757600080fd5b506101006103de565b60405161010d9190610aca565b60405180910390f35b34801561012257600080fd5b5061012b6103e4565b005b34801561013957600080fd5b50610154600480360381019061014f9190610911565b610686565b6040516101619190610aca565b60405180910390f35b34801561017657600080fd5b5061017f61069e565b60405161018c9190610a4f565b60405180910390f35b3480156101a157600080fd5b506101aa6106c3565b6040516101b791906109d4565b60405180910390f35b3480156101cc57600080fd5b506101d56106e9565b6040516101e291906109d4565b60405180910390f35b60006005549050600073ffffffffffffffffffffffffffffffffffffffff16600460009054906101000a900473ffffffffffffffffffffffffffffffffffffffff1673ffffffffffffffffffffffffffffffffffffffff16146102a157600554600860003373ffffffffffffffffffffffffffffffffffffffff1673ffffffffffffffffffffffffffffffffffffffff16815260200190815260200160002060008282546102999190610af6565b925050819055505b33600460006101000a81548173ffffffffffffffffffffffffffffffffffffffff021916908373ffffffffffffffffffffffffffffffffffffffff1602179055503460058190555060055460086000600460009054906101000a900473ffffffffffffffffffffffffffffffffffffffff1673ffffffffffffffffffffffffffffffffffffffff1673ffffffffffffffffffffffffffffffffffffffff168152602001908152602001600020819055506005543373ffffffffffffffffffffffffffffffffffffffff167fd96777d680695051150356a34b99576ecc28ce60af45d4723acc42981e9c66708360405161039a9190610aca565b60405180910390a350565b600660009054906101000a900460ff1681565b600460009054906101000a900473ffffffffffffffffffffffffffffffffffffffff1681565b60055481565b3373ffffffffffffffffffffffffffffffffffffffff166104036106e9565b73ffffffffffffffffffffffffffffffffffffffff16141561045a576040517f08c379a000000000000000000000000000000000000000000000000000000000815260040161045190610aaa565b60405180910390fd5b6000600860003373ffffffffffffffffffffffffffffffffffffffff1673ffffffffffffffffffffffffffffffffffffffff1681526020019081526020016000205414610649576000600860003373ffffffffffffffffffffffffffffffffffffffff1673ffffffffffffffffffffffffffffffffffffffff1681526020019081526020016000205490503373ffffffffffffffffffffffffffffffffffffffff166108fc829081150290604051600060405180830381858888f1935050505015801561052b573d6000803e3d6000fd5b506000600860003373ffffffffffffffffffffffffffffffffffffffff1673ffffffffffffffffffffffffffffffffffffffff1681526020019081526020016000208190555080600460009054906101000a900473ffffffffffffffffffffffffffffffffffffffff1673ffffffffffffffffffffffffffffffffffffffff167f469e482799f80ee566fae4ac817a80fbb677ba2c58bc7af2ad8d50543e42addb60086000600460009054906101000a900473ffffffffffffffffffffffffffffffffffffffff1673ffffffffffffffffffffffffffffffffffffffff1673ffffffffffffffffffffffffffffffffffffffff1681526020019081526020016000205460405161063b9190610aca565b60405180910390a350610684565b6040517f08c379a000000000000000000000000000000000000000000000000000000000815260040161067b90610a6a565b60405180910390fd5b565b60086020528060005260406000206000915090505481565b60008060025442106106b75760009050809150506106c0565b60019050809150505b90565b600360009054906101000a900473ffffffffffffffffffffffffffffffffffffffff1681565b6000806106f461069e565b15610734576040517f08c379a000000000000000000000000000000000000000000000000000000000815260040161072b90610a8a565b60405180910390fd5b600060086000600460009054906101000a900473ffffffffffffffffffffffffffffffffffffffff1673ffffffffffffffffffffffffffffffffffffffff1673ffffffffffffffffffffffffffffffffffffffff168152602001908152602001600020549050600360009054906101000a900473ffffffffffffffffffffffffffffffffffffffff1673ffffffffffffffffffffffffffffffffffffffff166108fc829081150290604051600060405180830381858888f19350505050158015610802573d6000803e3d6000fd5b50600660019054906101000a900473ffffffffffffffffffffffffffffffffffffffff1673ffffffffffffffffffffffffffffffffffffffff166342842e0e600360009054906101000a900473ffffffffffffffffffffffffffffffffffffffff16336007546040518463ffffffff1660e01b8152600401610886939291906109ef565b600060405180830381600087803b1580156108a057600080fd5b505af11580156108b4573d6000803e3d6000fd5b505050507fb288086d2d3b7b2278ff658be9b2841520f5b45d6efc39fc3fac149a9170ef5933826040516108e9929190610a26565b60405180910390a1339150819250505090565b60008135905061090b81610c43565b92915050565b60006020828403121561092757610926610bc3565b5b6000610935848285016108fc565b91505092915050565b61094781610b4c565b82525050565b61095681610b5e565b82525050565b6000610969601c83610ae5565b915061097482610bc8565b602082019050919050565b600061098c601983610ae5565b915061099782610bf1565b602082019050919050565b60006109af601483610ae5565b91506109ba82610c1a565b602082019050919050565b6109ce81610b8a565b82525050565b60006020820190506109e9600083018461093e565b92915050565b6000606082019050610a04600083018661093e565b610a11602083018561093e565b610a1e60408301846109c5565b949350505050565b6000604082019050610a3b600083018561093e565b610a4860208301846109c5565b9392505050565b6000602082019050610a64600083018461094d565b92915050565b60006020820190508181036000830152610a838161095c565b9050919050565b60006020820190508181036000830152610aa38161097f565b9050919050565b60006020820190508181036000830152610ac3816109a2565b9050919050565b6000602082019050610adf60008301846109c5565b92915050565b600082825260208201905092915050565b6000610b0182610b8a565b9150610b0c83610b8a565b9250827fffffffffffffffffffffffffffffffffffffffffffffffffffffffffffffffff03821115610b4157610b40610b94565b5b828201905092915050565b6000610b5782610b6a565b9050919050565b60008115159050919050565b600073ffffffffffffffffffffffffffffffffffffffff82169050919050565b6000819050919050565b7f4e487b7100000000000000000000000000000000000000000000000000000000600052601160045260246000fd5b600080fd5b7f596f7520646964206e6f742062696420616e797468696e672079657400000000600082015250565b7f61756374696f6e206973207374696c6c2062696464696e6e6700000000000000600082015250565b7f6e65774f776e65722063616e7420726566756e64000000000000000000000000600082015250565b610c4c81610b4c565b8114610c5757600080fd5b5056fea264697066735822122030ffa98afa2ead361e945f95e2a3d9226a477549b2af5e90370d5037d2c920db64736f6c63430008070033",
					"opcodes": "PUSH1 0x80 PUSH1 0x40 MSTORE CALLVALUE DUP1 ISZERO PUSH3 0x11 JUMPI PUSH1 0x0 DUP1 REVERT JUMPDEST POP PUSH1 0x40 MLOAD PUSH3 0xF3A CODESIZE SUB DUP1 PUSH3 0xF3A DUP4 CODECOPY DUP2 DUP2 ADD PUSH1 0x40 MSTORE DUP2 ADD SWAP1 PUSH3 0x37 SWAP2 SWAP1 PUSH3 0x125 JUMP JUMPDEST TIMESTAMP PUSH1 0x0 DUP2 SWAP1 SSTORE POP DUP4 PUSH1 0x1 DUP2 SWAP1 SSTORE POP CALLER PUSH1 0x3 PUSH1 0x0 PUSH2 0x100 EXP DUP2 SLOAD DUP2 PUSH20 0xFFFFFFFFFFFFFFFFFFFFFFFFFFFFFFFFFFFFFFFF MUL NOT AND SWAP1 DUP4 PUSH20 0xFFFFFFFFFFFFFFFFFFFFFFFFFFFFFFFFFFFFFFFF AND MUL OR SWAP1 SSTORE POP DUP3 PUSH1 0x5 DUP2 SWAP1 SSTORE POP PUSH1 0x1 SLOAD PUSH1 0x0 SLOAD PUSH3 0x9F SWAP2 SWAP1 PUSH3 0x197 JUMP JUMPDEST PUSH1 0x2 DUP2 SWAP1 SSTORE POP DUP2 PUSH1 0x6 PUSH1 0x1 PUSH2 0x100 EXP DUP2 SLOAD DUP2 PUSH20 0xFFFFFFFFFFFFFFFFFFFFFFFFFFFFFFFFFFFFFFFF MUL NOT AND SWAP1 DUP4 PUSH20 0xFFFFFFFFFFFFFFFFFFFFFFFFFFFFFFFFFFFFFFFF AND MUL OR SWAP1 SSTORE POP DUP1 PUSH1 0x7 DUP2 SWAP1 SSTORE POP POP POP POP POP PUSH3 0x29A JUMP JUMPDEST PUSH1 0x0 DUP2 MLOAD SWAP1 POP PUSH3 0x108 DUP2 PUSH3 0x266 JUMP JUMPDEST SWAP3 SWAP2 POP POP JUMP JUMPDEST PUSH1 0x0 DUP2 MLOAD SWAP1 POP PUSH3 0x11F DUP2 PUSH3 0x280 JUMP JUMPDEST SWAP3 SWAP2 POP POP JUMP JUMPDEST PUSH1 0x0 DUP1 PUSH1 0x0 DUP1 PUSH1 0x80 DUP6 DUP8 SUB SLT ISZERO PUSH3 0x142 JUMPI PUSH3 0x141 PUSH3 0x261 JUMP JUMPDEST JUMPDEST PUSH1 0x0 PUSH3 0x152 DUP8 DUP3 DUP9 ADD PUSH3 0x10E JUMP JUMPDEST SWAP5 POP POP PUSH1 0x20 PUSH3 0x165 DUP8 DUP3 DUP9 ADD PUSH3 0x10E JUMP JUMPDEST SWAP4 POP POP PUSH1 0x40 PUSH3 0x178 DUP8 DUP3 DUP9 ADD PUSH3 0xF7 JUMP JUMPDEST SWAP3 POP POP PUSH1 0x60 PUSH3 0x18B DUP8 DUP3 DUP9 ADD PUSH3 0x10E JUMP JUMPDEST SWAP2 POP POP SWAP3 SWAP6 SWAP2 SWAP5 POP SWAP3 POP JUMP JUMPDEST PUSH1 0x0 PUSH3 0x1A4 DUP3 PUSH3 0x228 JUMP JUMPDEST SWAP2 POP PUSH3 0x1B1 DUP4 PUSH3 0x228 JUMP JUMPDEST SWAP3 POP DUP3 PUSH32 0xFFFFFFFFFFFFFFFFFFFFFFFFFFFFFFFFFFFFFFFFFFFFFFFFFFFFFFFFFFFFFFFF SUB DUP3 GT ISZERO PUSH3 0x1E9 JUMPI PUSH3 0x1E8 PUSH3 0x232 JUMP JUMPDEST JUMPDEST DUP3 DUP3 ADD SWAP1 POP SWAP3 SWAP2 POP POP JUMP JUMPDEST PUSH1 0x0 PUSH3 0x201 DUP3 PUSH3 0x208 JUMP JUMPDEST SWAP1 POP SWAP2 SWAP1 POP JUMP JUMPDEST PUSH1 0x0 PUSH20 0xFFFFFFFFFFFFFFFFFFFFFFFFFFFFFFFFFFFFFFFF DUP3 AND SWAP1 POP SWAP2 SWAP1 POP JUMP JUMPDEST PUSH1 0x0 DUP2 SWAP1 POP SWAP2 SWAP1 POP JUMP JUMPDEST PUSH32 0x4E487B7100000000000000000000000000000000000000000000000000000000 PUSH1 0x0 MSTORE PUSH1 0x11 PUSH1 0x4 MSTORE PUSH1 0x24 PUSH1 0x0 REVERT JUMPDEST PUSH1 0x0 DUP1 REVERT JUMPDEST PUSH3 0x271 DUP2 PUSH3 0x1F4 JUMP JUMPDEST DUP2 EQ PUSH3 0x27D JUMPI PUSH1 0x0 DUP1 REVERT JUMPDEST POP JUMP JUMPDEST PUSH3 0x28B DUP2 PUSH3 0x228 JUMP JUMPDEST DUP2 EQ PUSH3 0x297 JUMPI PUSH1 0x0 DUP1 REVERT JUMPDEST POP JUMP JUMPDEST PUSH2 0xC90 DUP1 PUSH3 0x2AA PUSH1 0x0 CODECOPY PUSH1 0x0 RETURN INVALID PUSH1 0x80 PUSH1 0x40 MSTORE PUSH1 0x4 CALLDATASIZE LT PUSH2 0x86 JUMPI PUSH1 0x0 CALLDATALOAD PUSH1 0xE0 SHR DUP1 PUSH4 0x590E1AE3 GT PUSH2 0x59 JUMPI DUP1 PUSH4 0x590E1AE3 EQ PUSH2 0x116 JUMPI DUP1 PUSH4 0x62EA82DB EQ PUSH2 0x12D JUMPI DUP1 PUSH4 0x7FB45099 EQ PUSH2 0x16A JUMPI DUP1 PUSH4 0x8A56392E EQ PUSH2 0x195 JUMPI DUP1 PUSH4 0xFE67A54B EQ PUSH2 0x1C0 JUMPI PUSH2 0x86 JUMP JUMPDEST DUP1 PUSH4 0x1998AEEF EQ PUSH2 0x8B JUMPI DUP1 PUSH4 0x3BB658A0 EQ PUSH2 0x95 JUMPI DUP1 PUSH4 0x3CE123DC EQ PUSH2 0xC0 JUMPI DUP1 PUSH4 0x4DC28859 EQ PUSH2 0xEB JUMPI JUMPDEST PUSH1 0x0 DUP1 REVERT JUMPDEST PUSH2 0x93 PUSH2 0x1EB JUMP JUMPDEST STOP JUMPDEST CALLVALUE DUP1 ISZERO PUSH2 0xA1 JUMPI PUSH1 0x0 DUP1 REVERT JUMPDEST POP PUSH2 0xAA PUSH2 0x3A5 JUMP JUMPDEST PUSH1 0x40 MLOAD PUSH2 0xB7 SWAP2 SWAP1 PUSH2 0xA4F JUMP JUMPDEST PUSH1 0x40 MLOAD DUP1 SWAP2 SUB SWAP1 RETURN JUMPDEST CALLVALUE DUP1 ISZERO PUSH2 0xCC JUMPI PUSH1 0x0 DUP1 REVERT JUMPDEST POP PUSH2 0xD5 PUSH2 0x3B8 JUMP JUMPDEST PUSH1 0x40 MLOAD PUSH2 0xE2 SWAP2 SWAP1 PUSH2 0x9D4 JUMP JUMPDEST PUSH1 0x40 MLOAD DUP1 SWAP2 SUB SWAP1 RETURN JUMPDEST CALLVALUE DUP1 ISZERO PUSH2 0xF7 JUMPI PUSH1 0x0 DUP1 REVERT JUMPDEST POP PUSH2 0x100 PUSH2 0x3DE JUMP JUMPDEST PUSH1 0x40 MLOAD PUSH2 0x10D SWAP2 SWAP1 PUSH2 0xACA JUMP JUMPDEST PUSH1 0x40 MLOAD DUP1 SWAP2 SUB SWAP1 RETURN JUMPDEST CALLVALUE DUP1 ISZERO PUSH2 0x122 JUMPI PUSH1 0x0 DUP1 REVERT JUMPDEST POP PUSH2 0x12B PUSH2 0x3E4 JUMP JUMPDEST STOP JUMPDEST CALLVALUE DUP1 ISZERO PUSH2 0x139 JUMPI PUSH1 0x0 DUP1 REVERT JUMPDEST POP PUSH2 0x154 PUSH1 0x4 DUP1 CALLDATASIZE SUB DUP2 ADD SWAP1 PUSH2 0x14F SWAP2 SWAP1 PUSH2 0x911 JUMP JUMPDEST PUSH2 0x686 JUMP JUMPDEST PUSH1 0x40 MLOAD PUSH2 0x161 SWAP2 SWAP1 PUSH2 0xACA JUMP JUMPDEST PUSH1 0x40 MLOAD DUP1 SWAP2 SUB SWAP1 RETURN JUMPDEST CALLVALUE DUP1 ISZERO PUSH2 0x176 JUMPI PUSH1 0x0 DUP1 REVERT JUMPDEST POP PUSH2 0x17F PUSH2 0x69E JUMP JUMPDEST PUSH1 0x40 MLOAD PUSH2 0x18C SWAP2 SWAP1 PUSH2 0xA4F JUMP JUMPDEST PUSH1 0x40 MLOAD DUP1 SWAP2 SUB SWAP1 RETURN JUMPDEST CALLVALUE DUP1 ISZERO PUSH2 0x1A1 JUMPI PUSH1 0x0 DUP1 REVERT JUMPDEST POP PUSH2 0x1AA PUSH2 0x6C3 JUMP JUMPDEST PUSH1 0x40 MLOAD PUSH2 0x1B7 SWAP2 SWAP1 PUSH2 0x9D4 JUMP JUMPDEST PUSH1 0x40 MLOAD DUP1 SWAP2 SUB SWAP1 RETURN JUMPDEST CALLVALUE DUP1 ISZERO PUSH2 0x1CC JUMPI PUSH1 0x0 DUP1 REVERT JUMPDEST POP PUSH2 0x1D5 PUSH2 0x6E9 JUMP JUMPDEST PUSH1 0x40 MLOAD PUSH2 0x1E2 SWAP2 SWAP1 PUSH2 0x9D4 JUMP JUMPDEST PUSH1 0x40 MLOAD DUP1 SWAP2 SUB SWAP1 RETURN JUMPDEST PUSH1 0x0 PUSH1 0x5 SLOAD SWAP1 POP PUSH1 0x0 PUSH20 0xFFFFFFFFFFFFFFFFFFFFFFFFFFFFFFFFFFFFFFFF AND PUSH1 0x4 PUSH1 0x0 SWAP1 SLOAD SWAP1 PUSH2 0x100 EXP SWAP1 DIV PUSH20 0xFFFFFFFFFFFFFFFFFFFFFFFFFFFFFFFFFFFFFFFF AND PUSH20 0xFFFFFFFFFFFFFFFFFFFFFFFFFFFFFFFFFFFFFFFF AND EQ PUSH2 0x2A1 JUMPI PUSH1 0x5 SLOAD PUSH1 0x8 PUSH1 0x0 CALLER PUSH20 0xFFFFFFFFFFFFFFFFFFFFFFFFFFFFFFFFFFFFFFFF AND PUSH20 0xFFFFFFFFFFFFFFFFFFFFFFFFFFFFFFFFFFFFFFFF AND DUP2 MSTORE PUSH1 0x20 ADD SWAP1 DUP2 MSTORE PUSH1 0x20 ADD PUSH1 0x0 KECCAK256 PUSH1 0x0 DUP3 DUP3 SLOAD PUSH2 0x299 SWAP2 SWAP1 PUSH2 0xAF6 JUMP JUMPDEST SWAP3 POP POP DUP2 SWAP1 SSTORE POP JUMPDEST CALLER PUSH1 0x4 PUSH1 0x0 PUSH2 0x100 EXP DUP2 SLOAD DUP2 PUSH20 0xFFFFFFFFFFFFFFFFFFFFFFFFFFFFFFFFFFFFFFFF MUL NOT AND SWAP1 DUP4 PUSH20 0xFFFFFFFFFFFFFFFFFFFFFFFFFFFFFFFFFFFFFFFF AND MUL OR SWAP1 SSTORE POP CALLVALUE PUSH1 0x5 DUP2 SWAP1 SSTORE POP PUSH1 0x5 SLOAD PUSH1 0x8 PUSH1 0x0 PUSH1 0x4 PUSH1 0x0 SWAP1 SLOAD SWAP1 PUSH2 0x100 EXP SWAP1 DIV PUSH20 0xFFFFFFFFFFFFFFFFFFFFFFFFFFFFFFFFFFFFFFFF AND PUSH20 0xFFFFFFFFFFFFFFFFFFFFFFFFFFFFFFFFFFFFFFFF AND PUSH20 0xFFFFFFFFFFFFFFFFFFFFFFFFFFFFFFFFFFFFFFFF AND DUP2 MSTORE PUSH1 0x20 ADD SWAP1 DUP2 MSTORE PUSH1 0x20 ADD PUSH1 0x0 KECCAK256 DUP2 SWAP1 SSTORE POP PUSH1 0x5 SLOAD CALLER PUSH20 0xFFFFFFFFFFFFFFFFFFFFFFFFFFFFFFFFFFFFFFFF AND PUSH32 0xD96777D680695051150356A34B99576ECC28CE60AF45D4723ACC42981E9C6670 DUP4 PUSH1 0x40 MLOAD PUSH2 0x39A SWAP2 SWAP1 PUSH2 0xACA JUMP JUMPDEST PUSH1 0x40 MLOAD DUP1 SWAP2 SUB SWAP1 LOG3 POP JUMP JUMPDEST PUSH1 0x6 PUSH1 0x0 SWAP1 SLOAD SWAP1 PUSH2 0x100 EXP SWAP1 DIV PUSH1 0xFF AND DUP2 JUMP JUMPDEST PUSH1 0x4 PUSH1 0x0 SWAP1 SLOAD SWAP1 PUSH2 0x100 EXP SWAP1 DIV PUSH20 0xFFFFFFFFFFFFFFFFFFFFFFFFFFFFFFFFFFFFFFFF AND DUP2 JUMP JUMPDEST PUSH1 0x5 SLOAD DUP2 JUMP JUMPDEST CALLER PUSH20 0xFFFFFFFFFFFFFFFFFFFFFFFFFFFFFFFFFFFFFFFF AND PUSH2 0x403 PUSH2 0x6E9 JUMP JUMPDEST PUSH20 0xFFFFFFFFFFFFFFFFFFFFFFFFFFFFFFFFFFFFFFFF AND EQ ISZERO PUSH2 0x45A JUMPI PUSH1 0x40 MLOAD PUSH32 0x8C379A000000000000000000000000000000000000000000000000000000000 DUP2 MSTORE PUSH1 0x4 ADD PUSH2 0x451 SWAP1 PUSH2 0xAAA JUMP JUMPDEST PUSH1 0x40 MLOAD DUP1 SWAP2 SUB SWAP1 REVERT JUMPDEST PUSH1 0x0 PUSH1 0x8 PUSH1 0x0 CALLER PUSH20 0xFFFFFFFFFFFFFFFFFFFFFFFFFFFFFFFFFFFFFFFF AND PUSH20 0xFFFFFFFFFFFFFFFFFFFFFFFFFFFFFFFFFFFFFFFF AND DUP2 MSTORE PUSH1 0x20 ADD SWAP1 DUP2 MSTORE PUSH1 0x20 ADD PUSH1 0x0 KECCAK256 SLOAD EQ PUSH2 0x649 JUMPI PUSH1 0x0 PUSH1 0x8 PUSH1 0x0 CALLER PUSH20 0xFFFFFFFFFFFFFFFFFFFFFFFFFFFFFFFFFFFFFFFF AND PUSH20 0xFFFFFFFFFFFFFFFFFFFFFFFFFFFFFFFFFFFFFFFF AND DUP2 MSTORE PUSH1 0x20 ADD SWAP1 DUP2 MSTORE PUSH1 0x20 ADD PUSH1 0x0 KECCAK256 SLOAD SWAP1 POP CALLER PUSH20 0xFFFFFFFFFFFFFFFFFFFFFFFFFFFFFFFFFFFFFFFF AND PUSH2 0x8FC DUP3 SWAP1 DUP2 ISZERO MUL SWAP1 PUSH1 0x40 MLOAD PUSH1 0x0 PUSH1 0x40 MLOAD DUP1 DUP4 SUB DUP2 DUP6 DUP9 DUP9 CALL SWAP4 POP POP POP POP ISZERO DUP1 ISZERO PUSH2 0x52B JUMPI RETURNDATASIZE PUSH1 0x0 DUP1 RETURNDATACOPY RETURNDATASIZE PUSH1 0x0 REVERT JUMPDEST POP PUSH1 0x0 PUSH1 0x8 PUSH1 0x0 CALLER PUSH20 0xFFFFFFFFFFFFFFFFFFFFFFFFFFFFFFFFFFFFFFFF AND PUSH20 0xFFFFFFFFFFFFFFFFFFFFFFFFFFFFFFFFFFFFFFFF AND DUP2 MSTORE PUSH1 0x20 ADD SWAP1 DUP2 MSTORE PUSH1 0x20 ADD PUSH1 0x0 KECCAK256 DUP2 SWAP1 SSTORE POP DUP1 PUSH1 0x4 PUSH1 0x0 SWAP1 SLOAD SWAP1 PUSH2 0x100 EXP SWAP1 DIV PUSH20 0xFFFFFFFFFFFFFFFFFFFFFFFFFFFFFFFFFFFFFFFF AND PUSH20 0xFFFFFFFFFFFFFFFFFFFFFFFFFFFFFFFFFFFFFFFF AND PUSH32 0x469E482799F80EE566FAE4AC817A80FBB677BA2C58BC7AF2AD8D50543E42ADDB PUSH1 0x8 PUSH1 0x0 PUSH1 0x4 PUSH1 0x0 SWAP1 SLOAD SWAP1 PUSH2 0x100 EXP SWAP1 DIV PUSH20 0xFFFFFFFFFFFFFFFFFFFFFFFFFFFFFFFFFFFFFFFF AND PUSH20 0xFFFFFFFFFFFFFFFFFFFFFFFFFFFFFFFFFFFFFFFF AND PUSH20 0xFFFFFFFFFFFFFFFFFFFFFFFFFFFFFFFFFFFFFFFF AND DUP2 MSTORE PUSH1 0x20 ADD SWAP1 DUP2 MSTORE PUSH1 0x20 ADD PUSH1 0x0 KECCAK256 SLOAD PUSH1 0x40 MLOAD PUSH2 0x63B SWAP2 SWAP1 PUSH2 0xACA JUMP JUMPDEST PUSH1 0x40 MLOAD DUP1 SWAP2 SUB SWAP1 LOG3 POP PUSH2 0x684 JUMP JUMPDEST PUSH1 0x40 MLOAD PUSH32 0x8C379A000000000000000000000000000000000000000000000000000000000 DUP2 MSTORE PUSH1 0x4 ADD PUSH2 0x67B SWAP1 PUSH2 0xA6A JUMP JUMPDEST PUSH1 0x40 MLOAD DUP1 SWAP2 SUB SWAP1 REVERT JUMPDEST JUMP JUMPDEST PUSH1 0x8 PUSH1 0x20 MSTORE DUP1 PUSH1 0x0 MSTORE PUSH1 0x40 PUSH1 0x0 KECCAK256 PUSH1 0x0 SWAP2 POP SWAP1 POP SLOAD DUP2 JUMP JUMPDEST PUSH1 0x0 DUP1 PUSH1 0x2 SLOAD TIMESTAMP LT PUSH2 0x6B7 JUMPI PUSH1 0x0 SWAP1 POP DUP1 SWAP2 POP POP PUSH2 0x6C0 JUMP JUMPDEST PUSH1 0x1 SWAP1 POP DUP1 SWAP2 POP POP JUMPDEST SWAP1 JUMP JUMPDEST PUSH1 0x3 PUSH1 0x0 SWAP1 SLOAD SWAP1 PUSH2 0x100 EXP SWAP1 DIV PUSH20 0xFFFFFFFFFFFFFFFFFFFFFFFFFFFFFFFFFFFFFFFF AND DUP2 JUMP JUMPDEST PUSH1 0x0 DUP1 PUSH2 0x6F4 PUSH2 0x69E JUMP JUMPDEST ISZERO PUSH2 0x734 JUMPI PUSH1 0x40 MLOAD PUSH32 0x8C379A000000000000000000000000000000000000000000000000000000000 DUP2 MSTORE PUSH1 0x4 ADD PUSH2 0x72B SWAP1 PUSH2 0xA8A JUMP JUMPDEST PUSH1 0x40 MLOAD DUP1 SWAP2 SUB SWAP1 REVERT JUMPDEST PUSH1 0x0 PUSH1 0x8 PUSH1 0x0 PUSH1 0x4 PUSH1 0x0 SWAP1 SLOAD SWAP1 PUSH2 0x100 EXP SWAP1 DIV PUSH20 0xFFFFFFFFFFFFFFFFFFFFFFFFFFFFFFFFFFFFFFFF AND PUSH20 0xFFFFFFFFFFFFFFFFFFFFFFFFFFFFFFFFFFFFFFFF AND PUSH20 0xFFFFFFFFFFFFFFFFFFFFFFFFFFFFFFFFFFFFFFFF AND DUP2 MSTORE PUSH1 0x20 ADD SWAP1 DUP2 MSTORE PUSH1 0x20 ADD PUSH1 0x0 KECCAK256 SLOAD SWAP1 POP PUSH1 0x3 PUSH1 0x0 SWAP1 SLOAD SWAP1 PUSH2 0x100 EXP SWAP1 DIV PUSH20 0xFFFFFFFFFFFFFFFFFFFFFFFFFFFFFFFFFFFFFFFF AND PUSH20 0xFFFFFFFFFFFFFFFFFFFFFFFFFFFFFFFFFFFFFFFF AND PUSH2 0x8FC DUP3 SWAP1 DUP2 ISZERO MUL SWAP1 PUSH1 0x40 MLOAD PUSH1 0x0 PUSH1 0x40 MLOAD DUP1 DUP4 SUB DUP2 DUP6 DUP9 DUP9 CALL SWAP4 POP POP POP POP ISZERO DUP1 ISZERO PUSH2 0x802 JUMPI RETURNDATASIZE PUSH1 0x0 DUP1 RETURNDATACOPY RETURNDATASIZE PUSH1 0x0 REVERT JUMPDEST POP PUSH1 0x6 PUSH1 0x1 SWAP1 SLOAD SWAP1 PUSH2 0x100 EXP SWAP1 DIV PUSH20 0xFFFFFFFFFFFFFFFFFFFFFFFFFFFFFFFFFFFFFFFF AND PUSH20 0xFFFFFFFFFFFFFFFFFFFFFFFFFFFFFFFFFFFFFFFF AND PUSH4 0x42842E0E PUSH1 0x3 PUSH1 0x0 SWAP1 SLOAD SWAP1 PUSH2 0x100 EXP SWAP1 DIV PUSH20 0xFFFFFFFFFFFFFFFFFFFFFFFFFFFFFFFFFFFFFFFF AND CALLER PUSH1 0x7 SLOAD PUSH1 0x40 MLOAD DUP5 PUSH4 0xFFFFFFFF AND PUSH1 0xE0 SHL DUP2 MSTORE PUSH1 0x4 ADD PUSH2 0x886 SWAP4 SWAP3 SWAP2 SWAP1 PUSH2 0x9EF JUMP JUMPDEST PUSH1 0x0 PUSH1 0x40 MLOAD DUP1 DUP4 SUB DUP2 PUSH1 0x0 DUP8 DUP1 EXTCODESIZE ISZERO DUP1 ISZERO PUSH2 0x8A0 JUMPI PUSH1 0x0 DUP1 REVERT JUMPDEST POP GAS CALL ISZERO DUP1 ISZERO PUSH2 0x8B4 JUMPI RETURNDATASIZE PUSH1 0x0 DUP1 RETURNDATACOPY RETURNDATASIZE PUSH1 0x0 REVERT JUMPDEST POP POP POP POP PUSH32 0xB288086D2D3B7B2278FF658BE9B2841520F5B45D6EFC39FC3FAC149A9170EF59 CALLER DUP3 PUSH1 0x40 MLOAD PUSH2 0x8E9 SWAP3 SWAP2 SWAP1 PUSH2 0xA26 JUMP JUMPDEST PUSH1 0x40 MLOAD DUP1 SWAP2 SUB SWAP1 LOG1 CALLER SWAP2 POP DUP2 SWAP3 POP POP POP SWAP1 JUMP JUMPDEST PUSH1 0x0 DUP2 CALLDATALOAD SWAP1 POP PUSH2 0x90B DUP2 PUSH2 0xC43 JUMP JUMPDEST SWAP3 SWAP2 POP POP JUMP JUMPDEST PUSH1 0x0 PUSH1 0x20 DUP3 DUP5 SUB SLT ISZERO PUSH2 0x927 JUMPI PUSH2 0x926 PUSH2 0xBC3 JUMP JUMPDEST JUMPDEST PUSH1 0x0 PUSH2 0x935 DUP5 DUP3 DUP6 ADD PUSH2 0x8FC JUMP JUMPDEST SWAP2 POP POP SWAP3 SWAP2 POP POP JUMP JUMPDEST PUSH2 0x947 DUP2 PUSH2 0xB4C JUMP JUMPDEST DUP3 MSTORE POP POP JUMP JUMPDEST PUSH2 0x956 DUP2 PUSH2 0xB5E JUMP JUMPDEST DUP3 MSTORE POP POP JUMP JUMPDEST PUSH1 0x0 PUSH2 0x969 PUSH1 0x1C DUP4 PUSH2 0xAE5 JUMP JUMPDEST SWAP2 POP PUSH2 0x974 DUP3 PUSH2 0xBC8 JUMP JUMPDEST PUSH1 0x20 DUP3 ADD SWAP1 POP SWAP2 SWAP1 POP JUMP JUMPDEST PUSH1 0x0 PUSH2 0x98C PUSH1 0x19 DUP4 PUSH2 0xAE5 JUMP JUMPDEST SWAP2 POP PUSH2 0x997 DUP3 PUSH2 0xBF1 JUMP JUMPDEST PUSH1 0x20 DUP3 ADD SWAP1 POP SWAP2 SWAP1 POP JUMP JUMPDEST PUSH1 0x0 PUSH2 0x9AF PUSH1 0x14 DUP4 PUSH2 0xAE5 JUMP JUMPDEST SWAP2 POP PUSH2 0x9BA DUP3 PUSH2 0xC1A JUMP JUMPDEST PUSH1 0x20 DUP3 ADD SWAP1 POP SWAP2 SWAP1 POP JUMP JUMPDEST PUSH2 0x9CE DUP2 PUSH2 0xB8A JUMP JUMPDEST DUP3 MSTORE POP POP JUMP JUMPDEST PUSH1 0x0 PUSH1 0x20 DUP3 ADD SWAP1 POP PUSH2 0x9E9 PUSH1 0x0 DUP4 ADD DUP5 PUSH2 0x93E JUMP JUMPDEST SWAP3 SWAP2 POP POP JUMP JUMPDEST PUSH1 0x0 PUSH1 0x60 DUP3 ADD SWAP1 POP PUSH2 0xA04 PUSH1 0x0 DUP4 ADD DUP7 PUSH2 0x93E JUMP JUMPDEST PUSH2 0xA11 PUSH1 0x20 DUP4 ADD DUP6 PUSH2 0x93E JUMP JUMPDEST PUSH2 0xA1E PUSH1 0x40 DUP4 ADD DUP5 PUSH2 0x9C5 JUMP JUMPDEST SWAP5 SWAP4 POP POP POP POP JUMP JUMPDEST PUSH1 0x0 PUSH1 0x40 DUP3 ADD SWAP1 POP PUSH2 0xA3B PUSH1 0x0 DUP4 ADD DUP6 PUSH2 0x93E JUMP JUMPDEST PUSH2 0xA48 PUSH1 0x20 DUP4 ADD DUP5 PUSH2 0x9C5 JUMP JUMPDEST SWAP4 SWAP3 POP POP POP JUMP JUMPDEST PUSH1 0x0 PUSH1 0x20 DUP3 ADD SWAP1 POP PUSH2 0xA64 PUSH1 0x0 DUP4 ADD DUP5 PUSH2 0x94D JUMP JUMPDEST SWAP3 SWAP2 POP POP JUMP JUMPDEST PUSH1 0x0 PUSH1 0x20 DUP3 ADD SWAP1 POP DUP2 DUP2 SUB PUSH1 0x0 DUP4 ADD MSTORE PUSH2 0xA83 DUP2 PUSH2 0x95C JUMP JUMPDEST SWAP1 POP SWAP2 SWAP1 POP JUMP JUMPDEST PUSH1 0x0 PUSH1 0x20 DUP3 ADD SWAP1 POP DUP2 DUP2 SUB PUSH1 0x0 DUP4 ADD MSTORE PUSH2 0xAA3 DUP2 PUSH2 0x97F JUMP JUMPDEST SWAP1 POP SWAP2 SWAP1 POP JUMP JUMPDEST PUSH1 0x0 PUSH1 0x20 DUP3 ADD SWAP1 POP DUP2 DUP2 SUB PUSH1 0x0 DUP4 ADD MSTORE PUSH2 0xAC3 DUP2 PUSH2 0x9A2 JUMP JUMPDEST SWAP1 POP SWAP2 SWAP1 POP JUMP JUMPDEST PUSH1 0x0 PUSH1 0x20 DUP3 ADD SWAP1 POP PUSH2 0xADF PUSH1 0x0 DUP4 ADD DUP5 PUSH2 0x9C5 JUMP JUMPDEST SWAP3 SWAP2 POP POP JUMP JUMPDEST PUSH1 0x0 DUP3 DUP3 MSTORE PUSH1 0x20 DUP3 ADD SWAP1 POP SWAP3 SWAP2 POP POP JUMP JUMPDEST PUSH1 0x0 PUSH2 0xB01 DUP3 PUSH2 0xB8A JUMP JUMPDEST SWAP2 POP PUSH2 0xB0C DUP4 PUSH2 0xB8A JUMP JUMPDEST SWAP3 POP DUP3 PUSH32 0xFFFFFFFFFFFFFFFFFFFFFFFFFFFFFFFFFFFFFFFFFFFFFFFFFFFFFFFFFFFFFFFF SUB DUP3 GT ISZERO PUSH2 0xB41 JUMPI PUSH2 0xB40 PUSH2 0xB94 JUMP JUMPDEST JUMPDEST DUP3 DUP3 ADD SWAP1 POP SWAP3 SWAP2 POP POP JUMP JUMPDEST PUSH1 0x0 PUSH2 0xB57 DUP3 PUSH2 0xB6A JUMP JUMPDEST SWAP1 POP SWAP2 SWAP1 POP JUMP JUMPDEST PUSH1 0x0 DUP2 ISZERO ISZERO SWAP1 POP SWAP2 SWAP1 POP JUMP JUMPDEST PUSH1 0x0 PUSH20 0xFFFFFFFFFFFFFFFFFFFFFFFFFFFFFFFFFFFFFFFF DUP3 AND SWAP1 POP SWAP2 SWAP1 POP JUMP JUMPDEST PUSH1 0x0 DUP2 SWAP1 POP SWAP2 SWAP1 POP JUMP JUMPDEST PUSH32 0x4E487B7100000000000000000000000000000000000000000000000000000000 PUSH1 0x0 MSTORE PUSH1 0x11 PUSH1 0x4 MSTORE PUSH1 0x24 PUSH1 0x0 REVERT JUMPDEST PUSH1 0x0 DUP1 REVERT JUMPDEST PUSH32 0x596F7520646964206E6F742062696420616E797468696E672079657400000000 PUSH1 0x0 DUP3 ADD MSTORE POP JUMP JUMPDEST PUSH32 0x61756374696F6E206973207374696C6C2062696464696E6E6700000000000000 PUSH1 0x0 DUP3 ADD MSTORE POP JUMP JUMPDEST PUSH32 0x6E65774F776E65722063616E7420726566756E64000000000000000000000000 PUSH1 0x0 DUP3 ADD MSTORE POP JUMP JUMPDEST PUSH2 0xC4C DUP2 PUSH2 0xB4C JUMP JUMPDEST DUP2 EQ PUSH2 0xC57 JUMPI PUSH1 0x0 DUP1 REVERT JUMPDEST POP JUMP INVALID LOG2 PUSH5 0x6970667358 0x22 SLT KECCAK256 ADDRESS SELFDESTRUCT 0xA9 DUP11 STATICCALL 0x2E 0xAD CALLDATASIZE 0x1E SWAP5 0x5F SWAP6 0xE2 LOG3 0xD9 0x22 PUSH11 0x477549B2AF5E90370D5037 0xD2 0xC9 KECCAK256 0xDB PUSH5 0x736F6C6343 STOP ADDMOD SMOD STOP CALLER "
				},
				"gasEstimates": {
					"creation": {
						"codeDepositCost": "643200",
						"executionCost": "infinite",
						"totalCost": "infinite"
					},
					"external": {
						"auctionState()": "2533",
						"bid()": "infinite",
						"bids(address)": "2836",
						"endAuction()": "infinite",
						"highBidPrice()": "2496",
						"highBidder()": "2559",
						"isauctionActivity()": "2494",
						"refund()": "infinite",
						"saller()": "2580"
					}
				},
				"methodIdentifiers": {
					"auctionState()": "7fb45099",
					"bid()": "1998aeef",
					"bids(address)": "62ea82db",
					"endAuction()": "fe67a54b",
					"highBidPrice()": "4dc28859",
					"highBidder()": "3ce123dc",
					"isauctionActivity()": "3bb658a0",
					"refund()": "590e1ae3",
					"saller()": "8a56392e"
				}
			},
			"storageLayout": {
				"storage": [
					{
						"astId": 22,
						"contract": "45EnglishAuction.sol:EnglishAuction",
						"label": "startAt",
						"offset": 0,
						"slot": "0",
						"type": "t_uint256"
					},
					{
						"astId": 24,
						"contract": "45EnglishAuction.sol:EnglishAuction",
						"label": "duration",
						"offset": 0,
						"slot": "1",
						"type": "t_uint256"
					},
					{
						"astId": 26,
						"contract": "45EnglishAuction.sol:EnglishAuction",
						"label": "endAt",
						"offset": 0,
						"slot": "2",
						"type": "t_uint256"
					},
					{
						"astId": 28,
						"contract": "45EnglishAuction.sol:EnglishAuction",
						"label": "saller",
						"offset": 0,
						"slot": "3",
						"type": "t_address"
					},
					{
						"astId": 30,
						"contract": "45EnglishAuction.sol:EnglishAuction",
						"label": "highBidder",
						"offset": 0,
						"slot": "4",
						"type": "t_address"
					},
					{
						"astId": 32,
						"contract": "45EnglishAuction.sol:EnglishAuction",
						"label": "highBidPrice",
						"offset": 0,
						"slot": "5",
						"type": "t_uint256"
					},
					{
						"astId": 34,
						"contract": "45EnglishAuction.sol:EnglishAuction",
						"label": "isauctionActivity",
						"offset": 0,
						"slot": "6",
						"type": "t_bool"
					},
					{
						"astId": 36,
						"contract": "45EnglishAuction.sol:EnglishAuction",
						"label": "nftContract",
						"offset": 1,
						"slot": "6",
						"type": "t_address"
					},
					{
						"astId": 38,
						"contract": "45EnglishAuction.sol:EnglishAuction",
						"label": "tokenId",
						"offset": 0,
						"slot": "7",
						"type": "t_uint256"
					},
					{
						"astId": 42,
						"contract": "45EnglishAuction.sol:EnglishAuction",
						"label": "bids",
						"offset": 0,
						"slot": "8",
						"type": "t_mapping(t_address,t_uint256)"
					}
				],
				"types": {
					"t_address": {
						"encoding": "inplace",
						"label": "address",
						"numberOfBytes": "20"
					},
					"t_bool": {
						"encoding": "inplace",
						"label": "bool",
						"numberOfBytes": "1"
					},
					"t_mapping(t_address,t_uint256)": {
						"encoding": "mapping",
						"key": "t_address",
						"label": "mapping(address => uint256)",
						"numberOfBytes": "32",
						"value": "t_uint256"
					},
					"t_uint256": {
						"encoding": "inplace",
						"label": "uint256",
						"numberOfBytes": "32"
					}
				}
			},
			"userdoc": {
				"kind": "user",
				"methods": {},
				"version": 1
			}
		}
	}
}