{
	"45DutuchAuction.sol": {
		"DutchAuction": {
			"abi": [
				{
					"inputs": [
						{
							"internalType": "uint256",
							"name": "_startPrice",
							"type": "uint256"
						},
						{
							"internalType": "uint256",
							"name": "_finalPrice",
							"type": "uint256"
						},
						{
							"internalType": "string",
							"name": "_name",
							"type": "string"
						},
						{
							"internalType": "string",
							"name": "_symbol",
							"type": "string"
						}
					],
					"stateMutability": "nonpayable",
					"type": "constructor"
				},
				{
					"inputs": [
						{
							"internalType": "address",
							"name": "receiver",
							"type": "address"
						}
					],
					"name": "ERC721InvalidReceiver",
					"type": "error"
				},
				{
					"anonymous": false,
					"inputs": [
						{
							"indexed": true,
							"internalType": "address",
							"name": "owner",
							"type": "address"
						},
						{
							"indexed": true,
							"internalType": "address",
							"name": "approved",
							"type": "address"
						},
						{
							"indexed": true,
							"internalType": "uint256",
							"name": "tokenId",
							"type": "uint256"
						}
					],
					"name": "Approval",
					"type": "event"
				},
				{
					"anonymous": false,
					"inputs": [
						{
							"indexed": true,
							"internalType": "address",
							"name": "owner",
							"type": "address"
						},
						{
							"indexed": true,
							"internalType": "address",
							"name": "operator",
							"type": "address"
						},
						{
							"indexed": false,
							"internalType": "bool",
							"name": "approved",
							"type": "bool"
						}
					],
					"name": "ApprovalForAll",
					"type": "event"
				},
				{
					"anonymous": false,
					"inputs": [
						{
							"indexed": true,
							"internalType": "address",
							"name": "from",
							"type": "address"
						},
						{
							"indexed": true,
							"internalType": "address",
							"name": "to",
							"type": "address"
						},
						{
							"indexed": true,
							"internalType": "uint256",
							"name": "tokenId",
							"type": "uint256"
						}
					],
					"name": "Transfer",
					"type": "event"
				},
				{
					"inputs": [
						{
							"internalType": "address",
							"name": "to",
							"type": "address"
						},
						{
							"internalType": "uint256",
							"name": "tokenId",
							"type": "uint256"
						}
					],
					"name": "approve",
					"outputs": [],
					"stateMutability": "nonpayable",
					"type": "function"
				},
				{
					"inputs": [
						{
							"internalType": "address",
							"name": "owner",
							"type": "address"
						}
					],
					"name": "balanceOf",
					"outputs": [
						{
							"internalType": "uint256",
							"name": "",
							"type": "uint256"
						}
					],
					"stateMutability": "view",
					"type": "function"
				},
				{
					"inputs": [
						{
							"internalType": "address",
							"name": "_from",
							"type": "address"
						},
						{
							"internalType": "address",
							"name": "_to",
							"type": "address"
						},
						{
							"internalType": "uint256",
							"name": "_tokenId",
							"type": "uint256"
						}
					],
					"name": "buy",
					"outputs": [
						{
							"internalType": "bool",
							"name": "",
							"type": "bool"
						}
					],
					"stateMutability": "payable",
					"type": "function"
				},
				{
					"inputs": [],
					"name": "duration",
					"outputs": [
						{
							"internalType": "uint256",
							"name": "",
							"type": "uint256"
						}
					],
					"stateMutability": "view",
					"type": "function"
				},
				{
					"inputs": [],
					"name": "endTime",
					"outputs": [
						{
							"internalType": "uint256",
							"name": "",
							"type": "uint256"
						}
					],
					"stateMutability": "view",
					"type": "function"
				},
				{
					"inputs": [],
					"name": "finalPrice",
					"outputs": [
						{
							"internalType": "uint256",
							"name": "",
							"type": "uint256"
						}
					],
					"stateMutability": "view",
					"type": "function"
				},
				{
					"inputs": [
						{
							"internalType": "uint256",
							"name": "tokenId",
							"type": "uint256"
						}
					],
					"name": "getApproved",
					"outputs": [
						{
							"internalType": "address",
							"name": "",
							"type": "address"
						}
					],
					"stateMutability": "view",
					"type": "function"
				},
				{
					"inputs": [],
					"name": "getCurrentPrice",
					"outputs": [
						{
							"internalType": "uint256",
							"name": "",
							"type": "uint256"
						}
					],
					"stateMutability": "view",
					"type": "function"
				},
				{
					"inputs": [
						{
							"internalType": "address",
							"name": "owner",
							"type": "address"
						},
						{
							"internalType": "address",
							"name": "operator",
							"type": "address"
						}
					],
					"name": "isApprovedForAll",
					"outputs": [
						{
							"internalType": "bool",
							"name": "",
							"type": "bool"
						}
					],
					"stateMutability": "view",
					"type": "function"
				},
				{
					"inputs": [],
					"name": "name",
					"outputs": [
						{
							"internalType": "string",
							"name": "",
							"type": "string"
						}
					],
					"stateMutability": "view",
					"type": "function"
				},
				{
					"inputs": [
						{
							"internalType": "uint256",
							"name": "tokenId",
							"type": "uint256"
						}
					],
					"name": "ownerOf",
					"outputs": [
						{
							"internalType": "address",
							"name": "owner",
							"type": "address"
						}
					],
					"stateMutability": "view",
					"type": "function"
				},
				{
					"inputs": [
						{
							"internalType": "address",
							"name": "from",
							"type": "address"
						},
						{
							"internalType": "address",
							"name": "to",
							"type": "address"
						},
						{
							"internalType": "uint256",
							"name": "tokenId",
							"type": "uint256"
						}
					],
					"name": "safeTransferFrom",
					"outputs": [],
					"stateMutability": "nonpayable",
					"type": "function"
				},
				{
					"inputs": [
						{
							"internalType": "address",
							"name": "from",
							"type": "address"
						},
						{
							"internalType": "address",
							"name": "to",
							"type": "address"
						},
						{
							"internalType": "uint256",
							"name": "tokenId",
							"type": "uint256"
						},
						{
							"internalType": "bytes",
							"name": "_data",
							"type": "bytes"
						}
					],
					"name": "safeTransferFrom",
					"outputs": [],
					"stateMutability": "nonpayable",
					"type": "function"
				},
				{
					"inputs": [
						{
							"internalType": "address",
							"name": "operator",
							"type": "address"
						},
						{
							"internalType": "bool",
							"name": "approved",
							"type": "bool"
						}
					],
					"name": "setApprovalForAll",
					"outputs": [],
					"stateMutability": "nonpayable",
					"type": "function"
				},
				{
					"inputs": [],
					"name": "startPrice",
					"outputs": [
						{
							"internalType": "uint256",
							"name": "",
							"type": "uint256"
						}
					],
					"stateMutability": "view",
					"type": "function"
				},
				{
					"inputs": [],
					"name": "startTime",
					"outputs": [
						{
							"internalType": "uint256",
							"name": "",
							"type": "uint256"
						}
					],
					"stateMutability": "view",
					"type": "function"
				},
				{
					"inputs": [
						{
							"internalType": "bytes4",
							"name": "interfaceId",
							"type": "bytes4"
						}
					],
					"name": "supportsInterface",
					"outputs": [
						{
							"internalType": "bool",
							"name": "",
							"type": "bool"
						}
					],
					"stateMutability": "pure",
					"type": "function"
				},
				{
					"inputs": [],
					"name": "symbol",
					"outputs": [
						{
							"internalType": "string",
							"name": "",
							"type": "string"
						}
					],
					"stateMutability": "view",
					"type": "function"
				},
				{
					"inputs": [
						{
							"internalType": "uint256",
							"name": "tokenId",
							"type": "uint256"
						}
					],
					"name": "tokenURI",
					"outputs": [
						{
							"internalType": "string",
							"name": "",
							"type": "string"
						}
					],
					"stateMutability": "view",
					"type": "function"
				},
				{
					"inputs": [
						{
							"internalType": "address",
							"name": "from",
							"type": "address"
						},
						{
							"internalType": "address",
							"name": "to",
							"type": "address"
						},
						{
							"internalType": "uint256",
							"name": "tokenId",
							"type": "uint256"
						}
					],
					"name": "transferFrom",
					"outputs": [],
					"stateMutability": "nonpayable",
					"type": "function"
				}
			],
			"devdoc": {
				"kind": "dev",
				"methods": {
					"supportsInterface(bytes4)": {
						"details": "如果合约实现了查询的`interfaceId`，则返回true 规则详见：https://eips.ethereum.org/EIPS/eip-165#how-interfaces-are-identified[EIP section]"
					}
				},
				"version": 1
			},
			"evm": {
				"assembly": "    /* \"45DutuchAuction.sol\":324:1624  contract DutchAuction is ERC721{ ... */\n  mstore(0x40, 0xe0)\n    /* \"45DutuchAuction.sol\":655:963  constructor(... */\n  callvalue\n  dup1\n  iszero\n  tag_1\n  jumpi\n  0x00\n  dup1\n  revert\ntag_1:\n  pop\n  mload(0x40)\n  sub(codesize, bytecodeSize)\n  dup1\n  bytecodeSize\n  dup4\n  codecopy\n  dup2\n  dup2\n  add\n  0x40\n  mstore\n  dup2\n  add\n  swap1\n  tag_2\n  swap2\n  swap1\n  tag_3\n  jump\t// in\ntag_2:\n    /* \"45DutuchAuction.sol\":797:802  _name */\n  dup2\n    /* \"45DutuchAuction.sol\":803:810  _symbol */\n  dup2\n    /* \"ERC721.sol\":1077:1082  name_ */\n  dup2\n    /* \"ERC721.sol\":1070:1074  name */\n  0x00\n    /* \"ERC721.sol\":1070:1082  name = name_ */\n  swap1\n  dup1\n  mload\n  swap1\n  0x20\n  add\n  swap1\n  tag_7\n  swap3\n  swap2\n  swap1\n  tag_8\n  jump\t// in\ntag_7:\n  pop\n    /* \"ERC721.sol\":1101:1108  symbol_ */\n  dup1\n    /* \"ERC721.sol\":1092:1098  symbol */\n  0x01\n    /* \"ERC721.sol\":1092:1108  symbol = symbol_ */\n  swap1\n  dup1\n  mload\n  swap1\n  0x20\n  add\n  swap1\n  tag_9\n  swap3\n  swap2\n  swap1\n  tag_8\n  jump\t// in\ntag_9:\n  pop\n    /* \"ERC721.sol\":1004:1115  constructor(string memory name_, string memory symbol_) {... */\n  pop\n  pop\n    /* \"45DutuchAuction.sol\":834:845  _startPrice */\n  dup4\n    /* \"45DutuchAuction.sol\":821:845  startPrice = _startPrice */\n  0x80\n  dup2\n  dup2\n  mstore\n  pop\n  pop\n    /* \"45DutuchAuction.sol\":868:879  _finalPrice */\n  dup3\n    /* \"45DutuchAuction.sol\":855:879  finalPrice = _finalPrice */\n  0xa0\n  dup2\n  dup2\n  mstore\n  pop\n  pop\n    /* \"45DutuchAuction.sol\":901:916  block.timestamp */\n  timestamp\n    /* \"45DutuchAuction.sol\":889:898  startTime */\n  0x06\n    /* \"45DutuchAuction.sol\":889:916  startTime = block.timestamp */\n  dup2\n  swap1\n  sstore\n  pop\n    /* \"45DutuchAuction.sol\":637:647  10 minutes */\n  0x0258\n    /* \"45DutuchAuction.sol\":936:945  startTime */\n  sload(0x06)\n    /* \"45DutuchAuction.sol\":936:956  startTime + duration */\n  tag_11\n  swap2\n  swap1\n  tag_12\n  jump\t// in\ntag_11:\n    /* \"45DutuchAuction.sol\":926:956  endTime = startTime + duration */\n  0xc0\n  dup2\n  dup2\n  mstore\n  pop\n  pop\n    /* \"45DutuchAuction.sol\":655:963  constructor(... */\n  pop\n  pop\n  pop\n  pop\n    /* \"45DutuchAuction.sol\":324:1624  contract DutchAuction is ERC721{ ... */\n  jump(tag_13)\ntag_8:\n  dup3\n  dup1\n  sload\n  tag_14\n  swap1\n  tag_15\n  jump\t// in\ntag_14:\n  swap1\n  0x00\n  mstore\n  keccak256(0x00, 0x20)\n  swap1\n  0x1f\n  add\n  0x20\n  swap1\n  div\n  dup2\n  add\n  swap3\n  dup3\n  tag_17\n  jumpi\n  0x00\n  dup6\n  sstore\n  jump(tag_16)\ntag_17:\n  dup3\n  0x1f\n  lt\n  tag_18\n  jumpi\n  dup1\n  mload\n  not(0xff)\n  and\n  dup4\n  dup1\n  add\n  or\n  dup6\n  sstore\n  jump(tag_16)\ntag_18:\n  dup3\n  dup1\n  add\n  0x01\n  add\n  dup6\n  sstore\n  dup3\n  iszero\n  tag_16\n  jumpi\n  swap2\n  dup3\n  add\ntag_19:\n  dup3\n  dup2\n  gt\n  iszero\n  tag_20\n  jumpi\n  dup3\n  mload\n  dup3\n  sstore\n  swap2\n  0x20\n  add\n  swap2\n  swap1\n  0x01\n  add\n  swap1\n  jump(tag_19)\ntag_20:\ntag_16:\n  pop\n  swap1\n  pop\n  tag_21\n  swap2\n  swap1\n  tag_22\n  jump\t// in\ntag_21:\n  pop\n  swap1\n  jump\t// out\ntag_22:\ntag_23:\n  dup1\n  dup3\n  gt\n  iszero\n  tag_24\n  jumpi\n  0x00\n  dup2\n  0x00\n  swap1\n  sstore\n  pop\n  0x01\n  add\n  jump(tag_23)\ntag_24:\n  pop\n  swap1\n  jump\t// out\n    /* \"#utility.yul\":7:428   */\ntag_26:\n    /* \"#utility.yul\":96:101   */\n  0x00\n    /* \"#utility.yul\":121:187   */\n  tag_28\n    /* \"#utility.yul\":137:186   */\n  tag_29\n    /* \"#utility.yul\":179:185   */\n  dup5\n    /* \"#utility.yul\":137:186   */\n  tag_30\n  jump\t// in\ntag_29:\n    /* \"#utility.yul\":121:187   */\n  tag_31\n  jump\t// in\ntag_28:\n    /* \"#utility.yul\":112:187   */\n  swap1\n  pop\n    /* \"#utility.yul\":210:216   */\n  dup3\n    /* \"#utility.yul\":203:208   */\n  dup2\n    /* \"#utility.yul\":196:217   */\n  mstore\n    /* \"#utility.yul\":248:252   */\n  0x20\n    /* \"#utility.yul\":241:246   */\n  dup2\n    /* \"#utility.yul\":237:253   */\n  add\n    /* \"#utility.yul\":286:289   */\n  dup5\n    /* \"#utility.yul\":277:283   */\n  dup5\n    /* \"#utility.yul\":272:275   */\n  dup5\n    /* \"#utility.yul\":268:284   */\n  add\n    /* \"#utility.yul\":265:290   */\n  gt\n    /* \"#utility.yul\":262:374   */\n  iszero\n  tag_32\n  jumpi\n    /* \"#utility.yul\":293:372   */\n  tag_33\n  tag_34\n  jump\t// in\ntag_33:\n    /* \"#utility.yul\":262:374   */\ntag_32:\n    /* \"#utility.yul\":383:422   */\n  tag_35\n    /* \"#utility.yul\":415:421   */\n  dup5\n    /* \"#utility.yul\":410:413   */\n  dup3\n    /* \"#utility.yul\":405:408   */\n  dup6\n    /* \"#utility.yul\":383:422   */\n  tag_36\n  jump\t// in\ntag_35:\n    /* \"#utility.yul\":102:428   */\n  pop\n    /* \"#utility.yul\":7:428   */\n  swap4\n  swap3\n  pop\n  pop\n  pop\n  jump\t// out\n    /* \"#utility.yul\":448:803   */\ntag_37:\n    /* \"#utility.yul\":515:520   */\n  0x00\n    /* \"#utility.yul\":564:567   */\n  dup3\n    /* \"#utility.yul\":557:561   */\n  0x1f\n    /* \"#utility.yul\":549:555   */\n  dup4\n    /* \"#utility.yul\":545:562   */\n  add\n    /* \"#utility.yul\":541:568   */\n  slt\n    /* \"#utility.yul\":531:653   */\n  tag_39\n  jumpi\n    /* \"#utility.yul\":572:651   */\n  tag_40\n  tag_41\n  jump\t// in\ntag_40:\n    /* \"#utility.yul\":531:653   */\ntag_39:\n    /* \"#utility.yul\":682:688   */\n  dup2\n    /* \"#utility.yul\":676:689   */\n  mload\n    /* \"#utility.yul\":707:797   */\n  tag_42\n    /* \"#utility.yul\":793:796   */\n  dup5\n    /* \"#utility.yul\":785:791   */\n  dup3\n    /* \"#utility.yul\":778:782   */\n  0x20\n    /* \"#utility.yul\":770:776   */\n  dup7\n    /* \"#utility.yul\":766:783   */\n  add\n    /* \"#utility.yul\":707:797   */\n  tag_26\n  jump\t// in\ntag_42:\n    /* \"#utility.yul\":698:797   */\n  swap2\n  pop\n    /* \"#utility.yul\":521:803   */\n  pop\n    /* \"#utility.yul\":448:803   */\n  swap3\n  swap2\n  pop\n  pop\n  jump\t// out\n    /* \"#utility.yul\":809:952   */\ntag_43:\n    /* \"#utility.yul\":866:871   */\n  0x00\n    /* \"#utility.yul\":897:903   */\n  dup2\n    /* \"#utility.yul\":891:904   */\n  mload\n    /* \"#utility.yul\":882:904   */\n  swap1\n  pop\n    /* \"#utility.yul\":913:946   */\n  tag_45\n    /* \"#utility.yul\":940:945   */\n  dup2\n    /* \"#utility.yul\":913:946   */\n  tag_46\n  jump\t// in\ntag_45:\n    /* \"#utility.yul\":809:952   */\n  swap3\n  swap2\n  pop\n  pop\n  jump\t// out\n    /* \"#utility.yul\":958:2124   */\ntag_3:\n    /* \"#utility.yul\":1075:1081   */\n  0x00\n    /* \"#utility.yul\":1083:1089   */\n  dup1\n    /* \"#utility.yul\":1091:1097   */\n  0x00\n    /* \"#utility.yul\":1099:1105   */\n  dup1\n    /* \"#utility.yul\":1148:1151   */\n  0x80\n    /* \"#utility.yul\":1136:1145   */\n  dup6\n    /* \"#utility.yul\":1127:1134   */\n  dup8\n    /* \"#utility.yul\":1123:1146   */\n  sub\n    /* \"#utility.yul\":1119:1152   */\n  slt\n    /* \"#utility.yul\":1116:1236   */\n  iszero\n  tag_48\n  jumpi\n    /* \"#utility.yul\":1155:1234   */\n  tag_49\n  tag_50\n  jump\t// in\ntag_49:\n    /* \"#utility.yul\":1116:1236   */\ntag_48:\n    /* \"#utility.yul\":1275:1276   */\n  0x00\n    /* \"#utility.yul\":1300:1364   */\n  tag_51\n    /* \"#utility.yul\":1356:1363   */\n  dup8\n    /* \"#utility.yul\":1347:1353   */\n  dup3\n    /* \"#utility.yul\":1336:1345   */\n  dup9\n    /* \"#utility.yul\":1332:1354   */\n  add\n    /* \"#utility.yul\":1300:1364   */\n  tag_43\n  jump\t// in\ntag_51:\n    /* \"#utility.yul\":1290:1364   */\n  swap5\n  pop\n    /* \"#utility.yul\":1246:1374   */\n  pop\n    /* \"#utility.yul\":1413:1415   */\n  0x20\n    /* \"#utility.yul\":1439:1503   */\n  tag_52\n    /* \"#utility.yul\":1495:1502   */\n  dup8\n    /* \"#utility.yul\":1486:1492   */\n  dup3\n    /* \"#utility.yul\":1475:1484   */\n  dup9\n    /* \"#utility.yul\":1471:1493   */\n  add\n    /* \"#utility.yul\":1439:1503   */\n  tag_43\n  jump\t// in\ntag_52:\n    /* \"#utility.yul\":1429:1503   */\n  swap4\n  pop\n    /* \"#utility.yul\":1384:1513   */\n  pop\n    /* \"#utility.yul\":1573:1575   */\n  0x40\n    /* \"#utility.yul\":1562:1571   */\n  dup6\n    /* \"#utility.yul\":1558:1576   */\n  add\n    /* \"#utility.yul\":1552:1577   */\n  mload\n    /* \"#utility.yul\":1604:1622   */\n  0xffffffffffffffff\n    /* \"#utility.yul\":1596:1602   */\n  dup2\n    /* \"#utility.yul\":1593:1623   */\n  gt\n    /* \"#utility.yul\":1590:1707   */\n  iszero\n  tag_53\n  jumpi\n    /* \"#utility.yul\":1626:1705   */\n  tag_54\n  tag_55\n  jump\t// in\ntag_54:\n    /* \"#utility.yul\":1590:1707   */\ntag_53:\n    /* \"#utility.yul\":1731:1805   */\n  tag_56\n    /* \"#utility.yul\":1797:1804   */\n  dup8\n    /* \"#utility.yul\":1788:1794   */\n  dup3\n    /* \"#utility.yul\":1777:1786   */\n  dup9\n    /* \"#utility.yul\":1773:1795   */\n  add\n    /* \"#utility.yul\":1731:1805   */\n  tag_37\n  jump\t// in\ntag_56:\n    /* \"#utility.yul\":1721:1805   */\n  swap3\n  pop\n    /* \"#utility.yul\":1523:1815   */\n  pop\n    /* \"#utility.yul\":1875:1877   */\n  0x60\n    /* \"#utility.yul\":1864:1873   */\n  dup6\n    /* \"#utility.yul\":1860:1878   */\n  add\n    /* \"#utility.yul\":1854:1879   */\n  mload\n    /* \"#utility.yul\":1906:1924   */\n  0xffffffffffffffff\n    /* \"#utility.yul\":1898:1904   */\n  dup2\n    /* \"#utility.yul\":1895:1925   */\n  gt\n    /* \"#utility.yul\":1892:2009   */\n  iszero\n  tag_57\n  jumpi\n    /* \"#utility.yul\":1928:2007   */\n  tag_58\n  tag_55\n  jump\t// in\ntag_58:\n    /* \"#utility.yul\":1892:2009   */\ntag_57:\n    /* \"#utility.yul\":2033:2107   */\n  tag_59\n    /* \"#utility.yul\":2099:2106   */\n  dup8\n    /* \"#utility.yul\":2090:2096   */\n  dup3\n    /* \"#utility.yul\":2079:2088   */\n  dup9\n    /* \"#utility.yul\":2075:2097   */\n  add\n    /* \"#utility.yul\":2033:2107   */\n  tag_37\n  jump\t// in\ntag_59:\n    /* \"#utility.yul\":2023:2107   */\n  swap2\n  pop\n    /* \"#utility.yul\":1825:2117   */\n  pop\n    /* \"#utility.yul\":958:2124   */\n  swap3\n  swap6\n  swap2\n  swap5\n  pop\n  swap3\n  pop\n  jump\t// out\n    /* \"#utility.yul\":2130:2259   */\ntag_31:\n    /* \"#utility.yul\":2164:2170   */\n  0x00\n    /* \"#utility.yul\":2191:2211   */\n  tag_61\n  tag_62\n  jump\t// in\ntag_61:\n    /* \"#utility.yul\":2181:2211   */\n  swap1\n  pop\n    /* \"#utility.yul\":2220:2253   */\n  tag_63\n    /* \"#utility.yul\":2248:2252   */\n  dup3\n    /* \"#utility.yul\":2240:2246   */\n  dup3\n    /* \"#utility.yul\":2220:2253   */\n  tag_64\n  jump\t// in\ntag_63:\n    /* \"#utility.yul\":2130:2259   */\n  swap2\n  swap1\n  pop\n  jump\t// out\n    /* \"#utility.yul\":2265:2340   */\ntag_62:\n    /* \"#utility.yul\":2298:2304   */\n  0x00\n    /* \"#utility.yul\":2331:2333   */\n  0x40\n    /* \"#utility.yul\":2325:2334   */\n  mload\n    /* \"#utility.yul\":2315:2334   */\n  swap1\n  pop\n    /* \"#utility.yul\":2265:2340   */\n  swap1\n  jump\t// out\n    /* \"#utility.yul\":2346:2654   */\ntag_30:\n    /* \"#utility.yul\":2408:2412   */\n  0x00\n    /* \"#utility.yul\":2498:2516   */\n  0xffffffffffffffff\n    /* \"#utility.yul\":2490:2496   */\n  dup3\n    /* \"#utility.yul\":2487:2517   */\n  gt\n    /* \"#utility.yul\":2484:2540   */\n  iszero\n  tag_67\n  jumpi\n    /* \"#utility.yul\":2520:2538   */\n  tag_68\n  tag_69\n  jump\t// in\ntag_68:\n    /* \"#utility.yul\":2484:2540   */\ntag_67:\n    /* \"#utility.yul\":2558:2587   */\n  tag_70\n    /* \"#utility.yul\":2580:2586   */\n  dup3\n    /* \"#utility.yul\":2558:2587   */\n  tag_71\n  jump\t// in\ntag_70:\n    /* \"#utility.yul\":2550:2587   */\n  swap1\n  pop\n    /* \"#utility.yul\":2642:2646   */\n  0x20\n    /* \"#utility.yul\":2636:2640   */\n  dup2\n    /* \"#utility.yul\":2632:2647   */\n  add\n    /* \"#utility.yul\":2624:2647   */\n  swap1\n  pop\n    /* \"#utility.yul\":2346:2654   */\n  swap2\n  swap1\n  pop\n  jump\t// out\n    /* \"#utility.yul\":2660:2965   */\ntag_12:\n    /* \"#utility.yul\":2700:2703   */\n  0x00\n    /* \"#utility.yul\":2719:2739   */\n  tag_73\n    /* \"#utility.yul\":2737:2738   */\n  dup3\n    /* \"#utility.yul\":2719:2739   */\n  tag_74\n  jump\t// in\ntag_73:\n    /* \"#utility.yul\":2714:2739   */\n  swap2\n  pop\n    /* \"#utility.yul\":2753:2773   */\n  tag_75\n    /* \"#utility.yul\":2771:2772   */\n  dup4\n    /* \"#utility.yul\":2753:2773   */\n  tag_74\n  jump\t// in\ntag_75:\n    /* \"#utility.yul\":2748:2773   */\n  swap3\n  pop\n    /* \"#utility.yul\":2907:2908   */\n  dup3\n    /* \"#utility.yul\":2839:2905   */\n  0xffffffffffffffffffffffffffffffffffffffffffffffffffffffffffffffff\n    /* \"#utility.yul\":2835:2909   */\n  sub\n    /* \"#utility.yul\":2832:2833   */\n  dup3\n    /* \"#utility.yul\":2829:2910   */\n  gt\n    /* \"#utility.yul\":2826:2933   */\n  iszero\n  tag_76\n  jumpi\n    /* \"#utility.yul\":2913:2931   */\n  tag_77\n  tag_78\n  jump\t// in\ntag_77:\n    /* \"#utility.yul\":2826:2933   */\ntag_76:\n    /* \"#utility.yul\":2957:2958   */\n  dup3\n    /* \"#utility.yul\":2954:2955   */\n  dup3\n    /* \"#utility.yul\":2950:2959   */\n  add\n    /* \"#utility.yul\":2943:2959   */\n  swap1\n  pop\n    /* \"#utility.yul\":2660:2965   */\n  swap3\n  swap2\n  pop\n  pop\n  jump\t// out\n    /* \"#utility.yul\":2971:3048   */\ntag_74:\n    /* \"#utility.yul\":3008:3015   */\n  0x00\n    /* \"#utility.yul\":3037:3042   */\n  dup2\n    /* \"#utility.yul\":3026:3042   */\n  swap1\n  pop\n    /* \"#utility.yul\":2971:3048   */\n  swap2\n  swap1\n  pop\n  jump\t// out\n    /* \"#utility.yul\":3054:3361   */\ntag_36:\n    /* \"#utility.yul\":3122:3123   */\n  0x00\n    /* \"#utility.yul\":3132:3245   */\ntag_81:\n    /* \"#utility.yul\":3146:3152   */\n  dup4\n    /* \"#utility.yul\":3143:3144   */\n  dup2\n    /* \"#utility.yul\":3140:3153   */\n  lt\n    /* \"#utility.yul\":3132:3245   */\n  iszero\n  tag_83\n  jumpi\n    /* \"#utility.yul\":3231:3232   */\n  dup1\n    /* \"#utility.yul\":3226:3229   */\n  dup3\n    /* \"#utility.yul\":3222:3233   */\n  add\n    /* \"#utility.yul\":3216:3234   */\n  mload\n    /* \"#utility.yul\":3212:3213   */\n  dup2\n    /* \"#utility.yul\":3207:3210   */\n  dup5\n    /* \"#utility.yul\":3203:3214   */\n  add\n    /* \"#utility.yul\":3196:3235   */\n  mstore\n    /* \"#utility.yul\":3168:3170   */\n  0x20\n    /* \"#utility.yul\":3165:3166   */\n  dup2\n    /* \"#utility.yul\":3161:3171   */\n  add\n    /* \"#utility.yul\":3156:3171   */\n  swap1\n  pop\n    /* \"#utility.yul\":3132:3245   */\n  jump(tag_81)\ntag_83:\n    /* \"#utility.yul\":3263:3269   */\n  dup4\n    /* \"#utility.yul\":3260:3261   */\n  dup2\n    /* \"#utility.yul\":3257:3270   */\n  gt\n    /* \"#utility.yul\":3254:3355   */\n  iszero\n  tag_84\n  jumpi\n    /* \"#utility.yul\":3343:3344   */\n  0x00\n    /* \"#utility.yul\":3334:3340   */\n  dup5\n    /* \"#utility.yul\":3329:3332   */\n  dup5\n    /* \"#utility.yul\":3325:3341   */\n  add\n    /* \"#utility.yul\":3318:3345   */\n  mstore\n    /* \"#utility.yul\":3254:3355   */\ntag_84:\n    /* \"#utility.yul\":3103:3361   */\n  pop\n    /* \"#utility.yul\":3054:3361   */\n  pop\n  pop\n  pop\n  jump\t// out\n    /* \"#utility.yul\":3367:3687   */\ntag_15:\n    /* \"#utility.yul\":3411:3417   */\n  0x00\n    /* \"#utility.yul\":3448:3449   */\n  0x02\n    /* \"#utility.yul\":3442:3446   */\n  dup3\n    /* \"#utility.yul\":3438:3450   */\n  div\n    /* \"#utility.yul\":3428:3450   */\n  swap1\n  pop\n    /* \"#utility.yul\":3495:3496   */\n  0x01\n    /* \"#utility.yul\":3489:3493   */\n  dup3\n    /* \"#utility.yul\":3485:3497   */\n  and\n    /* \"#utility.yul\":3516:3534   */\n  dup1\n    /* \"#utility.yul\":3506:3587   */\n  tag_86\n  jumpi\n    /* \"#utility.yul\":3572:3576   */\n  0x7f\n    /* \"#utility.yul\":3564:3570   */\n  dup3\n    /* \"#utility.yul\":3560:3577   */\n  and\n    /* \"#utility.yul\":3550:3577   */\n  swap2\n  pop\n    /* \"#utility.yul\":3506:3587   */\ntag_86:\n    /* \"#utility.yul\":3634:3636   */\n  0x20\n    /* \"#utility.yul\":3626:3632   */\n  dup3\n    /* \"#utility.yul\":3623:3637   */\n  lt\n    /* \"#utility.yul\":3603:3621   */\n  dup2\n    /* \"#utility.yul\":3600:3638   */\n  eq\n    /* \"#utility.yul\":3597:3681   */\n  iszero\n  tag_87\n  jumpi\n    /* \"#utility.yul\":3653:3671   */\n  tag_88\n  tag_89\n  jump\t// in\ntag_88:\n    /* \"#utility.yul\":3597:3681   */\ntag_87:\n    /* \"#utility.yul\":3418:3687   */\n  pop\n    /* \"#utility.yul\":3367:3687   */\n  swap2\n  swap1\n  pop\n  jump\t// out\n    /* \"#utility.yul\":3693:3974   */\ntag_64:\n    /* \"#utility.yul\":3776:3803   */\n  tag_91\n    /* \"#utility.yul\":3798:3802   */\n  dup3\n    /* \"#utility.yul\":3776:3803   */\n  tag_71\n  jump\t// in\ntag_91:\n    /* \"#utility.yul\":3768:3774   */\n  dup2\n    /* \"#utility.yul\":3764:3804   */\n  add\n    /* \"#utility.yul\":3906:3912   */\n  dup2\n    /* \"#utility.yul\":3894:3904   */\n  dup2\n    /* \"#utility.yul\":3891:3913   */\n  lt\n    /* \"#utility.yul\":3870:3888   */\n  0xffffffffffffffff\n    /* \"#utility.yul\":3858:3868   */\n  dup3\n    /* \"#utility.yul\":3855:3889   */\n  gt\n    /* \"#utility.yul\":3852:3914   */\n  or\n    /* \"#utility.yul\":3849:3937   */\n  iszero\n  tag_92\n  jumpi\n    /* \"#utility.yul\":3917:3935   */\n  tag_93\n  tag_69\n  jump\t// in\ntag_93:\n    /* \"#utility.yul\":3849:3937   */\ntag_92:\n    /* \"#utility.yul\":3957:3967   */\n  dup1\n    /* \"#utility.yul\":3953:3955   */\n  0x40\n    /* \"#utility.yul\":3946:3968   */\n  mstore\n    /* \"#utility.yul\":3736:3974   */\n  pop\n    /* \"#utility.yul\":3693:3974   */\n  pop\n  pop\n  jump\t// out\n    /* \"#utility.yul\":3980:4160   */\ntag_78:\n    /* \"#utility.yul\":4028:4105   */\n  0x4e487b7100000000000000000000000000000000000000000000000000000000\n    /* \"#utility.yul\":4025:4026   */\n  0x00\n    /* \"#utility.yul\":4018:4106   */\n  mstore\n    /* \"#utility.yul\":4125:4129   */\n  0x11\n    /* \"#utility.yul\":4122:4123   */\n  0x04\n    /* \"#utility.yul\":4115:4130   */\n  mstore\n    /* \"#utility.yul\":4149:4153   */\n  0x24\n    /* \"#utility.yul\":4146:4147   */\n  0x00\n    /* \"#utility.yul\":4139:4154   */\n  revert\n    /* \"#utility.yul\":4166:4346   */\ntag_89:\n    /* \"#utility.yul\":4214:4291   */\n  0x4e487b7100000000000000000000000000000000000000000000000000000000\n    /* \"#utility.yul\":4211:4212   */\n  0x00\n    /* \"#utility.yul\":4204:4292   */\n  mstore\n    /* \"#utility.yul\":4311:4315   */\n  0x22\n    /* \"#utility.yul\":4308:4309   */\n  0x04\n    /* \"#utility.yul\":4301:4316   */\n  mstore\n    /* \"#utility.yul\":4335:4339   */\n  0x24\n    /* \"#utility.yul\":4332:4333   */\n  0x00\n    /* \"#utility.yul\":4325:4340   */\n  revert\n    /* \"#utility.yul\":4352:4532   */\ntag_69:\n    /* \"#utility.yul\":4400:4477   */\n  0x4e487b7100000000000000000000000000000000000000000000000000000000\n    /* \"#utility.yul\":4397:4398   */\n  0x00\n    /* \"#utility.yul\":4390:4478   */\n  mstore\n    /* \"#utility.yul\":4497:4501   */\n  0x41\n    /* \"#utility.yul\":4494:4495   */\n  0x04\n    /* \"#utility.yul\":4487:4502   */\n  mstore\n    /* \"#utility.yul\":4521:4525   */\n  0x24\n    /* \"#utility.yul\":4518:4519   */\n  0x00\n    /* \"#utility.yul\":4511:4526   */\n  revert\n    /* \"#utility.yul\":4538:4655   */\ntag_41:\n    /* \"#utility.yul\":4647:4648   */\n  0x00\n    /* \"#utility.yul\":4644:4645   */\n  dup1\n    /* \"#utility.yul\":4637:4649   */\n  revert\n    /* \"#utility.yul\":4661:4778   */\ntag_34:\n    /* \"#utility.yul\":4770:4771   */\n  0x00\n    /* \"#utility.yul\":4767:4768   */\n  dup1\n    /* \"#utility.yul\":4760:4772   */\n  revert\n    /* \"#utility.yul\":4784:4901   */\ntag_55:\n    /* \"#utility.yul\":4893:4894   */\n  0x00\n    /* \"#utility.yul\":4890:4891   */\n  dup1\n    /* \"#utility.yul\":4883:4895   */\n  revert\n    /* \"#utility.yul\":4907:5024   */\ntag_50:\n    /* \"#utility.yul\":5016:5017   */\n  0x00\n    /* \"#utility.yul\":5013:5014   */\n  dup1\n    /* \"#utility.yul\":5006:5018   */\n  revert\n    /* \"#utility.yul\":5030:5132   */\ntag_71:\n    /* \"#utility.yul\":5071:5077   */\n  0x00\n    /* \"#utility.yul\":5122:5124   */\n  0x1f\n    /* \"#utility.yul\":5118:5125   */\n  not\n    /* \"#utility.yul\":5113:5115   */\n  0x1f\n    /* \"#utility.yul\":5106:5111   */\n  dup4\n    /* \"#utility.yul\":5102:5116   */\n  add\n    /* \"#utility.yul\":5098:5126   */\n  and\n    /* \"#utility.yul\":5088:5126   */\n  swap1\n  pop\n    /* \"#utility.yul\":5030:5132   */\n  swap2\n  swap1\n  pop\n  jump\t// out\n    /* \"#utility.yul\":5138:5260   */\ntag_46:\n    /* \"#utility.yul\":5211:5235   */\n  tag_103\n    /* \"#utility.yul\":5229:5234   */\n  dup2\n    /* \"#utility.yul\":5211:5235   */\n  tag_74\n  jump\t// in\ntag_103:\n    /* \"#utility.yul\":5204:5209   */\n  dup2\n    /* \"#utility.yul\":5201:5236   */\n  eq\n    /* \"#utility.yul\":5191:5254   */\n  tag_104\n  jumpi\n    /* \"#utility.yul\":5250:5251   */\n  0x00\n    /* \"#utility.yul\":5247:5248   */\n  dup1\n    /* \"#utility.yul\":5240:5252   */\n  revert\n    /* \"#utility.yul\":5191:5254   */\ntag_104:\n    /* \"#utility.yul\":5138:5260   */\n  pop\n  jump\t// out\n    /* \"45DutuchAuction.sol\":324:1624  contract DutchAuction is ERC721{ ... */\ntag_13:\n  mload(0x80)\n  mload(0xa0)\n  mload(0xc0)\n  codecopy(0x00, dataOffset(sub_0), dataSize(sub_0))\n  0x00\n  assignImmutable(\"0x7f8b6b088b6d74c2852fc86c796dca07b44eed6fb3daf5e6b59f7c364db14528\")\n  0x00\n  assignImmutable(\"0xe4b1702d9298fee62dfeccc57d322a463ad55ca201256d01f62b45b2e1c21c10\")\n  0x00\n  assignImmutable(\"0xe455bf8ea6e7463a1046a0b52804526e119b4bf5136279614e0b1e8e296a4e2d\")\n  return(0x00, dataSize(sub_0))\nstop\n\nsub_0: assembly {\n        /* \"45DutuchAuction.sol\":324:1624  contract DutchAuction is ERC721{ ... */\n      mstore(0x40, 0x80)\n      jumpi(tag_1, lt(calldatasize, 0x04))\n      shr(0xe0, calldataload(0x00))\n      dup1\n      0x70a08231\n      gt\n      tag_22\n      jumpi\n      dup1\n      0xb88d4fde\n      gt\n      tag_23\n      jumpi\n      dup1\n      0xb88d4fde\n      eq\n      tag_17\n      jumpi\n      dup1\n      0xc87b56dd\n      eq\n      tag_18\n      jumpi\n      dup1\n      0xe985e9c5\n      eq\n      tag_19\n      jumpi\n      dup1\n      0xeb91d37e\n      eq\n      tag_20\n      jumpi\n      dup1\n      0xf1a9af89\n      eq\n      tag_21\n      jumpi\n      jump(tag_1)\n    tag_23:\n      dup1\n      0x70a08231\n      eq\n      tag_12\n      jumpi\n      dup1\n      0x78e97925\n      eq\n      tag_13\n      jumpi\n      dup1\n      0x95d89b41\n      eq\n      tag_14\n      jumpi\n      dup1\n      0xa22cb465\n      eq\n      tag_15\n      jumpi\n      dup1\n      0xa6b513ee\n      eq\n      tag_16\n      jumpi\n      jump(tag_1)\n    tag_22:\n      dup1\n      0x153e66e6\n      gt\n      tag_24\n      jumpi\n      dup1\n      0x153e66e6\n      eq\n      tag_7\n      jumpi\n      dup1\n      0x23b872dd\n      eq\n      tag_8\n      jumpi\n      dup1\n      0x3197cbb6\n      eq\n      tag_9\n      jumpi\n      dup1\n      0x42842e0e\n      eq\n      tag_10\n      jumpi\n      dup1\n      0x6352211e\n      eq\n      tag_11\n      jumpi\n      jump(tag_1)\n    tag_24:\n      dup1\n      0x01ffc9a7\n      eq\n      tag_2\n      jumpi\n      dup1\n      0x06fdde03\n      eq\n      tag_3\n      jumpi\n      dup1\n      0x081812fc\n      eq\n      tag_4\n      jumpi\n      dup1\n      0x095ea7b3\n      eq\n      tag_5\n      jumpi\n      dup1\n      0x0fb5a6b4\n      eq\n      tag_6\n      jumpi\n    tag_1:\n      0x00\n      dup1\n      revert\n        /* \"ERC721.sol\":1165:1482  function supportsInterface(bytes4 interfaceId)... */\n    tag_2:\n      callvalue\n      dup1\n      iszero\n      tag_25\n      jumpi\n      0x00\n      dup1\n      revert\n    tag_25:\n      pop\n      tag_26\n      0x04\n      dup1\n      calldatasize\n      sub\n      dup2\n      add\n      swap1\n      tag_27\n      swap2\n      swap1\n      tag_28\n      jump\t// in\n    tag_27:\n      tag_29\n      jump\t// in\n    tag_26:\n      mload(0x40)\n      tag_30\n      swap2\n      swap1\n      tag_31\n      jump\t// in\n    tag_30:\n      mload(0x40)\n      dup1\n      swap2\n      sub\n      swap1\n      return\n        /* \"ERC721.sol\":325:352  string public override name */\n    tag_3:\n      callvalue\n      dup1\n      iszero\n      tag_32\n      jumpi\n      0x00\n      dup1\n      revert\n    tag_32:\n      pop\n      tag_33\n      tag_34\n      jump\t// in\n    tag_33:\n      mload(0x40)\n      tag_35\n      swap2\n      swap1\n      tag_36\n      jump\t// in\n    tag_35:\n      mload(0x40)\n      dup1\n      swap2\n      sub\n      swap1\n      return\n        /* \"ERC721.sol\":2790:2986  function getApproved(uint tokenId) external view override returns (address) {... */\n    tag_4:\n      callvalue\n      dup1\n      iszero\n      tag_37\n      jumpi\n      0x00\n      dup1\n      revert\n    tag_37:\n      pop\n      tag_38\n      0x04\n      dup1\n      calldatasize\n      sub\n      dup2\n      add\n      swap1\n      tag_39\n      swap2\n      swap1\n      tag_40\n      jump\t// in\n    tag_39:\n      tag_41\n      jump\t// in\n    tag_38:\n      mload(0x40)\n      tag_42\n      swap2\n      swap1\n      tag_43\n      jump\t// in\n    tag_42:\n      mload(0x40)\n      dup1\n      swap2\n      sub\n      swap1\n      return\n        /* \"ERC721.sol\":3460:3755  function approve(address to, uint tokenId) external override {... */\n    tag_5:\n      callvalue\n      dup1\n      iszero\n      tag_44\n      jumpi\n      0x00\n      dup1\n      revert\n    tag_44:\n      pop\n      tag_45\n      0x04\n      dup1\n      calldatasize\n      sub\n      dup2\n      add\n      swap1\n      tag_46\n      swap2\n      swap1\n      tag_47\n      jump\t// in\n    tag_46:\n      tag_48\n      jump\t// in\n    tag_45:\n      stop\n        /* \"45DutuchAuction.sol\":602:647  uint256 public constant duration = 10 minutes */\n    tag_6:\n      callvalue\n      dup1\n      iszero\n      tag_49\n      jumpi\n      0x00\n      dup1\n      revert\n    tag_49:\n      pop\n      tag_50\n      tag_51\n      jump\t// in\n    tag_50:\n      mload(0x40)\n      tag_52\n      swap2\n      swap1\n      tag_53\n      jump\t// in\n    tag_52:\n      mload(0x40)\n      dup1\n      swap2\n      sub\n      swap1\n      return\n        /* \"45DutuchAuction.sol\":1226:1621  function buy(address _from,address _to,uint _tokenId) external payable returns(bool){... */\n    tag_7:\n      tag_54\n      0x04\n      dup1\n      calldatasize\n      sub\n      dup2\n      add\n      swap1\n      tag_55\n      swap2\n      swap1\n      tag_56\n      jump\t// in\n    tag_55:\n      tag_57\n      jump\t// in\n    tag_54:\n      mload(0x40)\n      tag_58\n      swap2\n      swap1\n      tag_31\n      jump\t// in\n    tag_58:\n      mload(0x40)\n      dup1\n      swap2\n      sub\n      swap1\n      return\n        /* \"ERC721.sol\":4873:5202  function transferFrom(... */\n    tag_8:\n      callvalue\n      dup1\n      iszero\n      tag_59\n      jumpi\n      0x00\n      dup1\n      revert\n    tag_59:\n      pop\n      tag_60\n      0x04\n      dup1\n      calldatasize\n      sub\n      dup2\n      add\n      swap1\n      tag_61\n      swap2\n      swap1\n      tag_56\n      jump\t// in\n    tag_61:\n      tag_62\n      jump\t// in\n    tag_60:\n      stop\n        /* \"45DutuchAuction.sol\":564:596  uint256 public immutable endTime */\n    tag_9:\n      callvalue\n      dup1\n      iszero\n      tag_63\n      jumpi\n      0x00\n      dup1\n      revert\n    tag_63:\n      pop\n      tag_64\n      tag_65\n      jump\t// in\n    tag_64:\n      mload(0x40)\n      tag_66\n      swap2\n      swap1\n      tag_53\n      jump\t// in\n    tag_66:\n      mload(0x40)\n      dup1\n      swap2\n      sub\n      swap1\n      return\n        /* \"ERC721.sol\":6436:6606  function safeTransferFrom(... */\n    tag_10:\n      callvalue\n      dup1\n      iszero\n      tag_67\n      jumpi\n      0x00\n      dup1\n      revert\n    tag_67:\n      pop\n      tag_68\n      0x04\n      dup1\n      calldatasize\n      sub\n      dup2\n      add\n      swap1\n      tag_69\n      swap2\n      swap1\n      tag_56\n      jump\t// in\n    tag_69:\n      tag_70\n      jump\t// in\n    tag_68:\n      stop\n        /* \"ERC721.sol\":1832:2010  function ownerOf(uint tokenId) public view override returns (address owner) {... */\n    tag_11:\n      callvalue\n      dup1\n      iszero\n      tag_71\n      jumpi\n      0x00\n      dup1\n      revert\n    tag_71:\n      pop\n      tag_72\n      0x04\n      dup1\n      calldatasize\n      sub\n      dup2\n      add\n      swap1\n      tag_73\n      swap2\n      swap1\n      tag_40\n      jump\t// in\n    tag_73:\n      tag_74\n      jump\t// in\n    tag_72:\n      mload(0x40)\n      tag_75\n      swap2\n      swap1\n      tag_43\n      jump\t// in\n    tag_75:\n      mload(0x40)\n      dup1\n      swap2\n      sub\n      swap1\n      return\n        /* \"ERC721.sol\":1575:1749  function balanceOf(address owner) external view override returns (uint) {... */\n    tag_12:\n      callvalue\n      dup1\n      iszero\n      tag_76\n      jumpi\n      0x00\n      dup1\n      revert\n    tag_76:\n      pop\n      tag_77\n      0x04\n      dup1\n      calldatasize\n      sub\n      dup2\n      add\n      swap1\n      tag_78\n      swap2\n      swap1\n      tag_79\n      jump\t// in\n    tag_78:\n      tag_80\n      jump\t// in\n    tag_77:\n      mload(0x40)\n      tag_81\n      swap2\n      swap1\n      tag_53\n      jump\t// in\n    tag_81:\n      mload(0x40)\n      dup1\n      swap2\n      sub\n      swap1\n      return\n        /* \"45DutuchAuction.sol\":534:558  uint256 public startTime */\n    tag_13:\n      callvalue\n      dup1\n      iszero\n      tag_82\n      jumpi\n      0x00\n      dup1\n      revert\n    tag_82:\n      pop\n      tag_83\n      tag_84\n      jump\t// in\n    tag_83:\n      mload(0x40)\n      tag_85\n      swap2\n      swap1\n      tag_53\n      jump\t// in\n    tag_85:\n      mload(0x40)\n      dup1\n      swap2\n      sub\n      swap1\n      return\n        /* \"ERC721.sol\":377:406  string public override symbol */\n    tag_14:\n      callvalue\n      dup1\n      iszero\n      tag_86\n      jumpi\n      0x00\n      dup1\n      revert\n    tag_86:\n      pop\n      tag_87\n      tag_88\n      jump\t// in\n    tag_87:\n      mload(0x40)\n      tag_89\n      swap2\n      swap1\n      tag_36\n      jump\t// in\n    tag_89:\n      mload(0x40)\n      dup1\n      swap2\n      sub\n      swap1\n      return\n        /* \"ERC721.sol\":2481:2688  function setApprovalForAll(address operator, bool approved) external override {... */\n    tag_15:\n      callvalue\n      dup1\n      iszero\n      tag_90\n      jumpi\n      0x00\n      dup1\n      revert\n    tag_90:\n      pop\n      tag_91\n      0x04\n      dup1\n      calldatasize\n      sub\n      dup2\n      add\n      swap1\n      tag_92\n      swap2\n      swap1\n      tag_93\n      jump\t// in\n    tag_92:\n      tag_94\n      jump\t// in\n    tag_91:\n      stop\n        /* \"45DutuchAuction.sol\":493:528  uint256 public immutable finalPrice */\n    tag_16:\n      callvalue\n      dup1\n      iszero\n      tag_95\n      jumpi\n      0x00\n      dup1\n      revert\n    tag_95:\n      pop\n      tag_96\n      tag_97\n      jump\t// in\n    tag_96:\n      mload(0x40)\n      tag_98\n      swap2\n      swap1\n      tag_53\n      jump\t// in\n    tag_98:\n      mload(0x40)\n      dup1\n      swap2\n      sub\n      swap1\n      return\n        /* \"ERC721.sol\":6024:6394  function safeTransferFrom(... */\n    tag_17:\n      callvalue\n      dup1\n      iszero\n      tag_99\n      jumpi\n      0x00\n      dup1\n      revert\n    tag_99:\n      pop\n      tag_100\n      0x04\n      dup1\n      calldatasize\n      sub\n      dup2\n      add\n      swap1\n      tag_101\n      swap2\n      swap1\n      tag_102\n      jump\t// in\n    tag_101:\n      tag_103\n      jump\t// in\n    tag_100:\n      stop\n        /* \"ERC721.sol\":8843:9154  function tokenURI(uint256 tokenId) public view virtual override returns (string memory) {... */\n    tag_18:\n      callvalue\n      dup1\n      iszero\n      tag_104\n      jumpi\n      0x00\n      dup1\n      revert\n    tag_104:\n      pop\n      tag_105\n      0x04\n      dup1\n      calldatasize\n      sub\n      dup2\n      add\n      swap1\n      tag_106\n      swap2\n      swap1\n      tag_40\n      jump\t// in\n    tag_106:\n      tag_107\n      jump\t// in\n    tag_105:\n      mload(0x40)\n      tag_108\n      swap2\n      swap1\n      tag_36\n      jump\t// in\n    tag_108:\n      mload(0x40)\n      dup1\n      swap2\n      sub\n      swap1\n      return\n        /* \"ERC721.sol\":2159:2351  function isApprovedForAll(address owner, address operator)... */\n    tag_19:\n      callvalue\n      dup1\n      iszero\n      tag_109\n      jumpi\n      0x00\n      dup1\n      revert\n    tag_109:\n      pop\n      tag_110\n      0x04\n      dup1\n      calldatasize\n      sub\n      dup2\n      add\n      swap1\n      tag_111\n      swap2\n      swap1\n      tag_112\n      jump\t// in\n    tag_111:\n      tag_113\n      jump\t// in\n    tag_110:\n      mload(0x40)\n      tag_114\n      swap2\n      swap1\n      tag_31\n      jump\t// in\n    tag_114:\n      mload(0x40)\n      dup1\n      swap2\n      sub\n      swap1\n      return\n        /* \"45DutuchAuction.sol\":969:1162  function getCurrentPrice() public view returns(uint256){... */\n    tag_20:\n      callvalue\n      dup1\n      iszero\n      tag_115\n      jumpi\n      0x00\n      dup1\n      revert\n    tag_115:\n      pop\n      tag_116\n      tag_117\n      jump\t// in\n    tag_116:\n      mload(0x40)\n      tag_118\n      swap2\n      swap1\n      tag_53\n      jump\t// in\n    tag_118:\n      mload(0x40)\n      dup1\n      swap2\n      sub\n      swap1\n      return\n        /* \"45DutuchAuction.sol\":452:487  uint256 public immutable startPrice */\n    tag_21:\n      callvalue\n      dup1\n      iszero\n      tag_119\n      jumpi\n      0x00\n      dup1\n      revert\n    tag_119:\n      pop\n      tag_120\n      tag_121\n      jump\t// in\n    tag_120:\n      mload(0x40)\n      tag_122\n      swap2\n      swap1\n      tag_53\n      jump\t// in\n    tag_122:\n      mload(0x40)\n      dup1\n      swap2\n      sub\n      swap1\n      return\n        /* \"ERC721.sol\":1165:1482  function supportsInterface(bytes4 interfaceId)... */\n    tag_29:\n        /* \"ERC721.sol\":1276:1280  bool */\n      0x00\n        /* \"ERC721.sol\":1330:1355  type(IERC721).interfaceId */\n      0x80ac58cd00000000000000000000000000000000000000000000000000000000\n        /* \"ERC721.sol\":1315:1355  interfaceId == type(IERC721).interfaceId */\n      not(0xffffffffffffffffffffffffffffffffffffffffffffffffffffffff)\n      and\n        /* \"ERC721.sol\":1315:1326  interfaceId */\n      dup3\n        /* \"ERC721.sol\":1315:1355  interfaceId == type(IERC721).interfaceId */\n      not(0xffffffffffffffffffffffffffffffffffffffffffffffffffffffff)\n      and\n      eq\n        /* \"ERC721.sol\":1315:1411  interfaceId == type(IERC721).interfaceId ||... */\n      dup1\n      tag_124\n      jumpi\n      pop\n        /* \"ERC721.sol\":1386:1411  type(IERC165).interfaceId */\n      0x01ffc9a700000000000000000000000000000000000000000000000000000000\n        /* \"ERC721.sol\":1371:1411  interfaceId == type(IERC165).interfaceId */\n      not(0xffffffffffffffffffffffffffffffffffffffffffffffffffffffff)\n      and\n        /* \"ERC721.sol\":1371:1382  interfaceId */\n      dup3\n        /* \"ERC721.sol\":1371:1411  interfaceId == type(IERC165).interfaceId */\n      not(0xffffffffffffffffffffffffffffffffffffffffffffffffffffffff)\n      and\n      eq\n        /* \"ERC721.sol\":1315:1411  interfaceId == type(IERC721).interfaceId ||... */\n    tag_124:\n        /* \"ERC721.sol\":1315:1475  interfaceId == type(IERC721).interfaceId ||... */\n      dup1\n      tag_125\n      jumpi\n      pop\n        /* \"ERC721.sol\":1442:1475  type(IERC721Metadata).interfaceId */\n      0x5b5e139f00000000000000000000000000000000000000000000000000000000\n        /* \"ERC721.sol\":1427:1475  interfaceId == type(IERC721Metadata).interfaceId */\n      not(0xffffffffffffffffffffffffffffffffffffffffffffffffffffffff)\n      and\n        /* \"ERC721.sol\":1427:1438  interfaceId */\n      dup3\n        /* \"ERC721.sol\":1427:1475  interfaceId == type(IERC721Metadata).interfaceId */\n      not(0xffffffffffffffffffffffffffffffffffffffffffffffffffffffff)\n      and\n      eq\n        /* \"ERC721.sol\":1315:1475  interfaceId == type(IERC721).interfaceId ||... */\n    tag_125:\n        /* \"ERC721.sol\":1296:1475  return... */\n      swap1\n      pop\n        /* \"ERC721.sol\":1165:1482  function supportsInterface(bytes4 interfaceId)... */\n      swap2\n      swap1\n      pop\n      jump\t// out\n        /* \"ERC721.sol\":325:352  string public override name */\n    tag_34:\n      0x00\n      dup1\n      sload\n      tag_126\n      swap1\n      tag_127\n      jump\t// in\n    tag_126:\n      dup1\n      0x1f\n      add\n      0x20\n      dup1\n      swap2\n      div\n      mul\n      0x20\n      add\n      mload(0x40)\n      swap1\n      dup2\n      add\n      0x40\n      mstore\n      dup1\n      swap3\n      swap2\n      swap1\n      dup2\n      dup2\n      mstore\n      0x20\n      add\n      dup3\n      dup1\n      sload\n      tag_128\n      swap1\n      tag_127\n      jump\t// in\n    tag_128:\n      dup1\n      iszero\n      tag_129\n      jumpi\n      dup1\n      0x1f\n      lt\n      tag_130\n      jumpi\n      0x0100\n      dup1\n      dup4\n      sload\n      div\n      mul\n      dup4\n      mstore\n      swap2\n      0x20\n      add\n      swap2\n      jump(tag_129)\n    tag_130:\n      dup3\n      add\n      swap2\n      swap1\n      0x00\n      mstore\n      keccak256(0x00, 0x20)\n      swap1\n    tag_131:\n      dup2\n      sload\n      dup2\n      mstore\n      swap1\n      0x01\n      add\n      swap1\n      0x20\n      add\n      dup1\n      dup4\n      gt\n      tag_131\n      jumpi\n      dup3\n      swap1\n      sub\n      0x1f\n      and\n      dup3\n      add\n      swap2\n    tag_129:\n      pop\n      pop\n      pop\n      pop\n      pop\n      dup2\n      jump\t// out\n        /* \"ERC721.sol\":2790:2986  function getApproved(uint tokenId) external view override returns (address) {... */\n    tag_41:\n        /* \"ERC721.sol\":2857:2864  address */\n      0x00\n        /* \"ERC721.sol\":2912:2913  0 */\n      dup1\n        /* \"ERC721.sol\":2884:2914  _owners[tokenId] != address(0) */\n      0xffffffffffffffffffffffffffffffffffffffff\n      and\n        /* \"ERC721.sol\":2884:2891  _owners */\n      0x02\n        /* \"ERC721.sol\":2884:2900  _owners[tokenId] */\n      0x00\n        /* \"ERC721.sol\":2892:2899  tokenId */\n      dup5\n        /* \"ERC721.sol\":2884:2900  _owners[tokenId] */\n      dup2\n      mstore\n      0x20\n      add\n      swap1\n      dup2\n      mstore\n      0x20\n      add\n      0x00\n      keccak256\n      0x00\n      swap1\n      sload\n      swap1\n      0x0100\n      exp\n      swap1\n      div\n      0xffffffffffffffffffffffffffffffffffffffff\n      and\n        /* \"ERC721.sol\":2884:2914  _owners[tokenId] != address(0) */\n      0xffffffffffffffffffffffffffffffffffffffff\n      and\n      eq\n      iszero\n        /* \"ERC721.sol\":2876:2938  require(_owners[tokenId] != address(0), \"token doesn't exist\") */\n      tag_133\n      jumpi\n      mload(0x40)\n      0x08c379a000000000000000000000000000000000000000000000000000000000\n      dup2\n      mstore\n      0x04\n      add\n      tag_134\n      swap1\n      tag_135\n      jump\t// in\n    tag_134:\n      mload(0x40)\n      dup1\n      swap2\n      sub\n      swap1\n      revert\n    tag_133:\n        /* \"ERC721.sol\":2955:2970  _tokenApprovals */\n      0x04\n        /* \"ERC721.sol\":2955:2979  _tokenApprovals[tokenId] */\n      0x00\n        /* \"ERC721.sol\":2971:2978  tokenId */\n      dup4\n        /* \"ERC721.sol\":2955:2979  _tokenApprovals[tokenId] */\n      dup2\n      mstore\n      0x20\n      add\n      swap1\n      dup2\n      mstore\n      0x20\n      add\n      0x00\n      keccak256\n      0x00\n      swap1\n      sload\n      swap1\n      0x0100\n      exp\n      swap1\n      div\n      0xffffffffffffffffffffffffffffffffffffffff\n      and\n        /* \"ERC721.sol\":2948:2979  return _tokenApprovals[tokenId] */\n      swap1\n      pop\n        /* \"ERC721.sol\":2790:2986  function getApproved(uint tokenId) external view override returns (address) {... */\n      swap2\n      swap1\n      pop\n      jump\t// out\n        /* \"ERC721.sol\":3460:3755  function approve(address to, uint tokenId) external override {... */\n    tag_48:\n        /* \"ERC721.sol\":3531:3544  address owner */\n      0x00\n        /* \"ERC721.sol\":3547:3554  _owners */\n      0x02\n        /* \"ERC721.sol\":3547:3563  _owners[tokenId] */\n      0x00\n        /* \"ERC721.sol\":3555:3562  tokenId */\n      dup4\n        /* \"ERC721.sol\":3547:3563  _owners[tokenId] */\n      dup2\n      mstore\n      0x20\n      add\n      swap1\n      dup2\n      mstore\n      0x20\n      add\n      0x00\n      keccak256\n      0x00\n      swap1\n      sload\n      swap1\n      0x0100\n      exp\n      swap1\n      div\n      0xffffffffffffffffffffffffffffffffffffffff\n      and\n        /* \"ERC721.sol\":3531:3563  address owner = _owners[tokenId] */\n      swap1\n      pop\n        /* \"ERC721.sol\":3608:3613  owner */\n      dup1\n        /* \"ERC721.sol\":3594:3613  msg.sender == owner */\n      0xffffffffffffffffffffffffffffffffffffffff\n      and\n        /* \"ERC721.sol\":3594:3604  msg.sender */\n      caller\n        /* \"ERC721.sol\":3594:3613  msg.sender == owner */\n      0xffffffffffffffffffffffffffffffffffffffff\n      and\n      eq\n        /* \"ERC721.sol\":3594:3654  msg.sender == owner || _operatorApprovals[owner][msg.sender] */\n      dup1\n      tag_137\n      jumpi\n      pop\n        /* \"ERC721.sol\":3617:3635  _operatorApprovals */\n      0x05\n        /* \"ERC721.sol\":3617:3642  _operatorApprovals[owner] */\n      0x00\n        /* \"ERC721.sol\":3636:3641  owner */\n      dup3\n        /* \"ERC721.sol\":3617:3642  _operatorApprovals[owner] */\n      0xffffffffffffffffffffffffffffffffffffffff\n      and\n      0xffffffffffffffffffffffffffffffffffffffff\n      and\n      dup2\n      mstore\n      0x20\n      add\n      swap1\n      dup2\n      mstore\n      0x20\n      add\n      0x00\n      keccak256\n        /* \"ERC721.sol\":3617:3654  _operatorApprovals[owner][msg.sender] */\n      0x00\n        /* \"ERC721.sol\":3643:3653  msg.sender */\n      caller\n        /* \"ERC721.sol\":3617:3654  _operatorApprovals[owner][msg.sender] */\n      0xffffffffffffffffffffffffffffffffffffffff\n      and\n      0xffffffffffffffffffffffffffffffffffffffff\n      and\n      dup2\n      mstore\n      0x20\n      add\n      swap1\n      dup2\n      mstore\n      0x20\n      add\n      0x00\n      keccak256\n      0x00\n      swap1\n      sload\n      swap1\n      0x0100\n      exp\n      swap1\n      div\n      0xff\n      and\n        /* \"ERC721.sol\":3594:3654  msg.sender == owner || _operatorApprovals[owner][msg.sender] */\n    tag_137:\n        /* \"ERC721.sol\":3573:3710  require(... */\n      tag_138\n      jumpi\n      mload(0x40)\n      0x08c379a000000000000000000000000000000000000000000000000000000000\n      dup2\n      mstore\n      0x04\n      add\n      tag_139\n      swap1\n      tag_140\n      jump\t// in\n    tag_139:\n      mload(0x40)\n      dup1\n      swap2\n      sub\n      swap1\n      revert\n    tag_138:\n        /* \"ERC721.sol\":3720:3748  _approve(owner, to, tokenId) */\n      tag_141\n        /* \"ERC721.sol\":3729:3734  owner */\n      dup2\n        /* \"ERC721.sol\":3736:3738  to */\n      dup5\n        /* \"ERC721.sol\":3740:3747  tokenId */\n      dup5\n        /* \"ERC721.sol\":3720:3728  _approve */\n      tag_142\n        /* \"ERC721.sol\":3720:3748  _approve(owner, to, tokenId) */\n      jump\t// in\n    tag_141:\n        /* \"ERC721.sol\":3521:3755  {... */\n      pop\n        /* \"ERC721.sol\":3460:3755  function approve(address to, uint tokenId) external override {... */\n      pop\n      pop\n      jump\t// out\n        /* \"45DutuchAuction.sol\":602:647  uint256 public constant duration = 10 minutes */\n    tag_51:\n        /* \"45DutuchAuction.sol\":637:647  10 minutes */\n      0x0258\n        /* \"45DutuchAuction.sol\":602:647  uint256 public constant duration = 10 minutes */\n      dup2\n      jump\t// out\n        /* \"45DutuchAuction.sol\":1226:1621  function buy(address _from,address _to,uint _tokenId) external payable returns(bool){... */\n    tag_57:\n        /* \"45DutuchAuction.sol\":1305:1309  bool */\n      0x00\n        /* \"45DutuchAuction.sol\":1346:1353  endTime */\n      immutable(\"0x7f8b6b088b6d74c2852fc86c796dca07b44eed6fb3daf5e6b59f7c364db14528\")\n        /* \"45DutuchAuction.sol\":1328:1343  block.timestamp */\n      timestamp\n        /* \"45DutuchAuction.sol\":1328:1353  block.timestamp<= endTime */\n      gt\n      iszero\n        /* \"45DutuchAuction.sol\":1320:1371  require(block.timestamp<= endTime,\"time is expire\") */\n      tag_144\n      jumpi\n      mload(0x40)\n      0x08c379a000000000000000000000000000000000000000000000000000000000\n      dup2\n      mstore\n      0x04\n      add\n      tag_145\n      swap1\n      tag_146\n      jump\t// in\n    tag_145:\n      mload(0x40)\n      dup1\n      swap2\n      sub\n      swap1\n      revert\n    tag_144:\n        /* \"45DutuchAuction.sol\":1486:1503  getCurrentPrice() */\n      tag_147\n        /* \"45DutuchAuction.sol\":1486:1501  getCurrentPrice */\n      tag_117\n        /* \"45DutuchAuction.sol\":1486:1503  getCurrentPrice() */\n      jump\t// in\n    tag_147:\n        /* \"45DutuchAuction.sol\":1473:1482  msg.value */\n      callvalue\n        /* \"45DutuchAuction.sol\":1473:1503  msg.value >= getCurrentPrice() */\n      lt\n      iszero\n        /* \"45DutuchAuction.sol\":1465:1544  require(msg.value >= getCurrentPrice(),\"your price is lower than currentPrice\") */\n      tag_148\n      jumpi\n      mload(0x40)\n      0x08c379a000000000000000000000000000000000000000000000000000000000\n      dup2\n      mstore\n      0x04\n      add\n      tag_149\n      swap1\n      tag_150\n      jump\t// in\n    tag_149:\n      mload(0x40)\n      dup1\n      swap2\n      sub\n      swap1\n      revert\n    tag_148:\n        /* \"45DutuchAuction.sol\":1555:1559  this */\n      address\n        /* \"45DutuchAuction.sol\":1555:1572  this.transferFrom */\n      0xffffffffffffffffffffffffffffffffffffffff\n      and\n      0x23b872dd\n        /* \"45DutuchAuction.sol\":1573:1578  _from */\n      dup6\n        /* \"45DutuchAuction.sol\":1579:1582  _to */\n      dup6\n        /* \"45DutuchAuction.sol\":1583:1591  _tokenId */\n      dup6\n        /* \"45DutuchAuction.sol\":1555:1592  this.transferFrom(_from,_to,_tokenId) */\n      mload(0x40)\n      dup5\n      0xffffffff\n      and\n      0xe0\n      shl\n      dup2\n      mstore\n      0x04\n      add\n      tag_151\n      swap4\n      swap3\n      swap2\n      swap1\n      tag_152\n      jump\t// in\n    tag_151:\n      0x00\n      mload(0x40)\n      dup1\n      dup4\n      sub\n      dup2\n      0x00\n      dup8\n      dup1\n      extcodesize\n      iszero\n      dup1\n      iszero\n      tag_153\n      jumpi\n      0x00\n      dup1\n      revert\n    tag_153:\n      pop\n      gas\n      call\n      iszero\n      dup1\n      iszero\n      tag_155\n      jumpi\n      returndatasize\n      0x00\n      dup1\n      returndatacopy\n      revert(0x00, returndatasize)\n    tag_155:\n      pop\n      pop\n      pop\n      pop\n        /* \"45DutuchAuction.sol\":1610:1614  true */\n      0x01\n        /* \"45DutuchAuction.sol\":1603:1614  return true */\n      swap1\n      pop\n        /* \"45DutuchAuction.sol\":1226:1621  function buy(address _from,address _to,uint _tokenId) external payable returns(bool){... */\n      swap4\n      swap3\n      pop\n      pop\n      pop\n      jump\t// out\n        /* \"ERC721.sol\":4873:5202  function transferFrom(... */\n    tag_62:\n        /* \"ERC721.sol\":4993:5006  address owner */\n      0x00\n        /* \"ERC721.sol\":5009:5025  ownerOf(tokenId) */\n      tag_157\n        /* \"ERC721.sol\":5017:5024  tokenId */\n      dup3\n        /* \"ERC721.sol\":5009:5016  ownerOf */\n      tag_74\n        /* \"ERC721.sol\":5009:5025  ownerOf(tokenId) */\n      jump\t// in\n    tag_157:\n        /* \"ERC721.sol\":4993:5025  address owner = ownerOf(tokenId) */\n      swap1\n      pop\n        /* \"ERC721.sol\":5056:5102  _isApprovedOrOwner(owner, msg.sender, tokenId) */\n      tag_158\n        /* \"ERC721.sol\":5075:5080  owner */\n      dup2\n        /* \"ERC721.sol\":5082:5092  msg.sender */\n      caller\n        /* \"ERC721.sol\":5094:5101  tokenId */\n      dup5\n        /* \"ERC721.sol\":5056:5074  _isApprovedOrOwner */\n      tag_159\n        /* \"ERC721.sol\":5056:5102  _isApprovedOrOwner(owner, msg.sender, tokenId) */\n      jump\t// in\n    tag_158:\n        /* \"ERC721.sol\":5035:5150  require(... */\n      tag_160\n      jumpi\n      mload(0x40)\n      0x08c379a000000000000000000000000000000000000000000000000000000000\n      dup2\n      mstore\n      0x04\n      add\n      tag_161\n      swap1\n      tag_162\n      jump\t// in\n    tag_161:\n      mload(0x40)\n      dup1\n      swap2\n      sub\n      swap1\n      revert\n    tag_160:\n        /* \"ERC721.sol\":5160:5195  _transfer(owner, from, to, tokenId) */\n      tag_163\n        /* \"ERC721.sol\":5170:5175  owner */\n      dup2\n        /* \"ERC721.sol\":5177:5181  from */\n      dup6\n        /* \"ERC721.sol\":5183:5185  to */\n      dup6\n        /* \"ERC721.sol\":5187:5194  tokenId */\n      dup6\n        /* \"ERC721.sol\":5160:5169  _transfer */\n      tag_164\n        /* \"ERC721.sol\":5160:5195  _transfer(owner, from, to, tokenId) */\n      jump\t// in\n    tag_163:\n        /* \"ERC721.sol\":4983:5202  {... */\n      pop\n        /* \"ERC721.sol\":4873:5202  function transferFrom(... */\n      pop\n      pop\n      pop\n      jump\t// out\n        /* \"45DutuchAuction.sol\":564:596  uint256 public immutable endTime */\n    tag_65:\n      immutable(\"0x7f8b6b088b6d74c2852fc86c796dca07b44eed6fb3daf5e6b59f7c364db14528\")\n      dup2\n      jump\t// out\n        /* \"ERC721.sol\":6436:6606  function safeTransferFrom(... */\n    tag_70:\n        /* \"ERC721.sol\":6560:6599  safeTransferFrom(from, to, tokenId, \"\") */\n      tag_166\n        /* \"ERC721.sol\":6577:6581  from */\n      dup4\n        /* \"ERC721.sol\":6583:6585  to */\n      dup4\n        /* \"ERC721.sol\":6587:6594  tokenId */\n      dup4\n        /* \"ERC721.sol\":6560:6599  safeTransferFrom(from, to, tokenId, \"\") */\n      mload(0x40)\n      dup1\n      0x20\n      add\n      0x40\n      mstore\n      dup1\n      0x00\n      dup2\n      mstore\n      pop\n        /* \"ERC721.sol\":6560:6576  safeTransferFrom */\n      tag_103\n        /* \"ERC721.sol\":6560:6599  safeTransferFrom(from, to, tokenId, \"\") */\n      jump\t// in\n    tag_166:\n        /* \"ERC721.sol\":6436:6606  function safeTransferFrom(... */\n      pop\n      pop\n      pop\n      jump\t// out\n        /* \"ERC721.sol\":1832:2010  function ownerOf(uint tokenId) public view override returns (address owner) {... */\n    tag_74:\n        /* \"ERC721.sol\":1893:1906  address owner */\n      0x00\n        /* \"ERC721.sol\":1926:1933  _owners */\n      0x02\n        /* \"ERC721.sol\":1926:1942  _owners[tokenId] */\n      0x00\n        /* \"ERC721.sol\":1934:1941  tokenId */\n      dup4\n        /* \"ERC721.sol\":1926:1942  _owners[tokenId] */\n      dup2\n      mstore\n      0x20\n      add\n      swap1\n      dup2\n      mstore\n      0x20\n      add\n      0x00\n      keccak256\n      0x00\n      swap1\n      sload\n      swap1\n      0x0100\n      exp\n      swap1\n      div\n      0xffffffffffffffffffffffffffffffffffffffff\n      and\n        /* \"ERC721.sol\":1918:1942  owner = _owners[tokenId] */\n      swap1\n      pop\n        /* \"ERC721.sol\":1977:1978  0 */\n      0x00\n        /* \"ERC721.sol\":1960:1979  owner != address(0) */\n      0xffffffffffffffffffffffffffffffffffffffff\n      and\n        /* \"ERC721.sol\":1960:1965  owner */\n      dup2\n        /* \"ERC721.sol\":1960:1979  owner != address(0) */\n      0xffffffffffffffffffffffffffffffffffffffff\n      and\n      eq\n      iszero\n        /* \"ERC721.sol\":1952:2003  require(owner != address(0), \"token doesn't exist\") */\n      tag_168\n      jumpi\n      mload(0x40)\n      0x08c379a000000000000000000000000000000000000000000000000000000000\n      dup2\n      mstore\n      0x04\n      add\n      tag_169\n      swap1\n      tag_135\n      jump\t// in\n    tag_169:\n      mload(0x40)\n      dup1\n      swap2\n      sub\n      swap1\n      revert\n    tag_168:\n        /* \"ERC721.sol\":1832:2010  function ownerOf(uint tokenId) public view override returns (address owner) {... */\n      swap2\n      swap1\n      pop\n      jump\t// out\n        /* \"ERC721.sol\":1575:1749  function balanceOf(address owner) external view override returns (uint) {... */\n    tag_80:\n        /* \"ERC721.sol\":1641:1645  uint */\n      0x00\n        /* \"ERC721.sol\":1682:1683  0 */\n      dup1\n        /* \"ERC721.sol\":1665:1684  owner != address(0) */\n      0xffffffffffffffffffffffffffffffffffffffff\n      and\n        /* \"ERC721.sol\":1665:1670  owner */\n      dup3\n        /* \"ERC721.sol\":1665:1684  owner != address(0) */\n      0xffffffffffffffffffffffffffffffffffffffff\n      and\n      eq\n      iszero\n        /* \"ERC721.sol\":1657:1709  require(owner != address(0), \"owner = zero address\") */\n      tag_171\n      jumpi\n      mload(0x40)\n      0x08c379a000000000000000000000000000000000000000000000000000000000\n      dup2\n      mstore\n      0x04\n      add\n      tag_172\n      swap1\n      tag_173\n      jump\t// in\n    tag_172:\n      mload(0x40)\n      dup1\n      swap2\n      sub\n      swap1\n      revert\n    tag_171:\n        /* \"ERC721.sol\":1726:1735  _balances */\n      0x03\n        /* \"ERC721.sol\":1726:1742  _balances[owner] */\n      0x00\n        /* \"ERC721.sol\":1736:1741  owner */\n      dup4\n        /* \"ERC721.sol\":1726:1742  _balances[owner] */\n      0xffffffffffffffffffffffffffffffffffffffff\n      and\n      0xffffffffffffffffffffffffffffffffffffffff\n      and\n      dup2\n      mstore\n      0x20\n      add\n      swap1\n      dup2\n      mstore\n      0x20\n      add\n      0x00\n      keccak256\n      sload\n        /* \"ERC721.sol\":1719:1742  return _balances[owner] */\n      swap1\n      pop\n        /* \"ERC721.sol\":1575:1749  function balanceOf(address owner) external view override returns (uint) {... */\n      swap2\n      swap1\n      pop\n      jump\t// out\n        /* \"45DutuchAuction.sol\":534:558  uint256 public startTime */\n    tag_84:\n      sload(0x06)\n      dup2\n      jump\t// out\n        /* \"ERC721.sol\":377:406  string public override symbol */\n    tag_88:\n      0x01\n      dup1\n      sload\n      tag_174\n      swap1\n      tag_127\n      jump\t// in\n    tag_174:\n      dup1\n      0x1f\n      add\n      0x20\n      dup1\n      swap2\n      div\n      mul\n      0x20\n      add\n      mload(0x40)\n      swap1\n      dup2\n      add\n      0x40\n      mstore\n      dup1\n      swap3\n      swap2\n      swap1\n      dup2\n      dup2\n      mstore\n      0x20\n      add\n      dup3\n      dup1\n      sload\n      tag_175\n      swap1\n      tag_127\n      jump\t// in\n    tag_175:\n      dup1\n      iszero\n      tag_176\n      jumpi\n      dup1\n      0x1f\n      lt\n      tag_177\n      jumpi\n      0x0100\n      dup1\n      dup4\n      sload\n      div\n      mul\n      dup4\n      mstore\n      swap2\n      0x20\n      add\n      swap2\n      jump(tag_176)\n    tag_177:\n      dup3\n      add\n      swap2\n      swap1\n      0x00\n      mstore\n      keccak256(0x00, 0x20)\n      swap1\n    tag_178:\n      dup2\n      sload\n      dup2\n      mstore\n      swap1\n      0x01\n      add\n      swap1\n      0x20\n      add\n      dup1\n      dup4\n      gt\n      tag_178\n      jumpi\n      dup3\n      swap1\n      sub\n      0x1f\n      and\n      dup3\n      add\n      swap2\n    tag_176:\n      pop\n      pop\n      pop\n      pop\n      pop\n      dup2\n      jump\t// out\n        /* \"ERC721.sol\":2481:2688  function setApprovalForAll(address operator, bool approved) external override {... */\n    tag_94:\n        /* \"ERC721.sol\":2612:2620  approved */\n      dup1\n        /* \"ERC721.sol\":2569:2587  _operatorApprovals */\n      0x05\n        /* \"ERC721.sol\":2569:2599  _operatorApprovals[msg.sender] */\n      0x00\n        /* \"ERC721.sol\":2588:2598  msg.sender */\n      caller\n        /* \"ERC721.sol\":2569:2599  _operatorApprovals[msg.sender] */\n      0xffffffffffffffffffffffffffffffffffffffff\n      and\n      0xffffffffffffffffffffffffffffffffffffffff\n      and\n      dup2\n      mstore\n      0x20\n      add\n      swap1\n      dup2\n      mstore\n      0x20\n      add\n      0x00\n      keccak256\n        /* \"ERC721.sol\":2569:2609  _operatorApprovals[msg.sender][operator] */\n      0x00\n        /* \"ERC721.sol\":2600:2608  operator */\n      dup5\n        /* \"ERC721.sol\":2569:2609  _operatorApprovals[msg.sender][operator] */\n      0xffffffffffffffffffffffffffffffffffffffff\n      and\n      0xffffffffffffffffffffffffffffffffffffffff\n      and\n      dup2\n      mstore\n      0x20\n      add\n      swap1\n      dup2\n      mstore\n      0x20\n      add\n      0x00\n      keccak256\n      0x00\n        /* \"ERC721.sol\":2569:2620  _operatorApprovals[msg.sender][operator] = approved */\n      0x0100\n      exp\n      dup2\n      sload\n      dup2\n      0xff\n      mul\n      not\n      and\n      swap1\n      dup4\n      iszero\n      iszero\n      mul\n      or\n      swap1\n      sstore\n      pop\n        /* \"ERC721.sol\":2662:2670  operator */\n      dup2\n        /* \"ERC721.sol\":2635:2681  ApprovalForAll(msg.sender, operator, approved) */\n      0xffffffffffffffffffffffffffffffffffffffff\n      and\n        /* \"ERC721.sol\":2650:2660  msg.sender */\n      caller\n        /* \"ERC721.sol\":2635:2681  ApprovalForAll(msg.sender, operator, approved) */\n      0xffffffffffffffffffffffffffffffffffffffff\n      and\n      0x17307eab39ab6107e8899845ad3d59bd9653f200f220920489ca2b5937696c31\n        /* \"ERC721.sol\":2672:2680  approved */\n      dup4\n        /* \"ERC721.sol\":2635:2681  ApprovalForAll(msg.sender, operator, approved) */\n      mload(0x40)\n      tag_180\n      swap2\n      swap1\n      tag_31\n      jump\t// in\n    tag_180:\n      mload(0x40)\n      dup1\n      swap2\n      sub\n      swap1\n      log3\n        /* \"ERC721.sol\":2481:2688  function setApprovalForAll(address operator, bool approved) external override {... */\n      pop\n      pop\n      jump\t// out\n        /* \"45DutuchAuction.sol\":493:528  uint256 public immutable finalPrice */\n    tag_97:\n      immutable(\"0xe4b1702d9298fee62dfeccc57d322a463ad55ca201256d01f62b45b2e1c21c10\")\n      dup2\n      jump\t// out\n        /* \"ERC721.sol\":6024:6394  function safeTransferFrom(... */\n    tag_103:\n        /* \"ERC721.sol\":6174:6187  address owner */\n      0x00\n        /* \"ERC721.sol\":6190:6206  ownerOf(tokenId) */\n      tag_182\n        /* \"ERC721.sol\":6198:6205  tokenId */\n      dup4\n        /* \"ERC721.sol\":6190:6197  ownerOf */\n      tag_74\n        /* \"ERC721.sol\":6190:6206  ownerOf(tokenId) */\n      jump\t// in\n    tag_182:\n        /* \"ERC721.sol\":6174:6206  address owner = ownerOf(tokenId) */\n      swap1\n      pop\n        /* \"ERC721.sol\":6237:6283  _isApprovedOrOwner(owner, msg.sender, tokenId) */\n      tag_183\n        /* \"ERC721.sol\":6256:6261  owner */\n      dup2\n        /* \"ERC721.sol\":6263:6273  msg.sender */\n      caller\n        /* \"ERC721.sol\":6275:6282  tokenId */\n      dup6\n        /* \"ERC721.sol\":6237:6255  _isApprovedOrOwner */\n      tag_159\n        /* \"ERC721.sol\":6237:6283  _isApprovedOrOwner(owner, msg.sender, tokenId) */\n      jump\t// in\n    tag_183:\n        /* \"ERC721.sol\":6216:6331  require(... */\n      tag_184\n      jumpi\n      mload(0x40)\n      0x08c379a000000000000000000000000000000000000000000000000000000000\n      dup2\n      mstore\n      0x04\n      add\n      tag_185\n      swap1\n      tag_162\n      jump\t// in\n    tag_185:\n      mload(0x40)\n      dup1\n      swap2\n      sub\n      swap1\n      revert\n    tag_184:\n        /* \"ERC721.sol\":6341:6387  _safeTransfer(owner, from, to, tokenId, _data) */\n      tag_186\n        /* \"ERC721.sol\":6355:6360  owner */\n      dup2\n        /* \"ERC721.sol\":6362:6366  from */\n      dup7\n        /* \"ERC721.sol\":6368:6370  to */\n      dup7\n        /* \"ERC721.sol\":6372:6379  tokenId */\n      dup7\n        /* \"ERC721.sol\":6381:6386  _data */\n      dup7\n        /* \"ERC721.sol\":6341:6354  _safeTransfer */\n      tag_187\n        /* \"ERC721.sol\":6341:6387  _safeTransfer(owner, from, to, tokenId, _data) */\n      jump\t// in\n    tag_186:\n        /* \"ERC721.sol\":6164:6394  {... */\n      pop\n        /* \"ERC721.sol\":6024:6394  function safeTransferFrom(... */\n      pop\n      pop\n      pop\n      pop\n      jump\t// out\n        /* \"ERC721.sol\":8843:9154  function tokenURI(uint256 tokenId) public view virtual override returns (string memory) {... */\n    tag_107:\n        /* \"ERC721.sol\":8916:8929  string memory */\n      0x60\n        /* \"ERC721.sol\":8977:8978  0 */\n      0x00\n        /* \"ERC721.sol\":8949:8979  _owners[tokenId] != address(0) */\n      0xffffffffffffffffffffffffffffffffffffffff\n      and\n        /* \"ERC721.sol\":8949:8956  _owners */\n      0x02\n        /* \"ERC721.sol\":8949:8965  _owners[tokenId] */\n      0x00\n        /* \"ERC721.sol\":8957:8964  tokenId */\n      dup5\n        /* \"ERC721.sol\":8949:8965  _owners[tokenId] */\n      dup2\n      mstore\n      0x20\n      add\n      swap1\n      dup2\n      mstore\n      0x20\n      add\n      0x00\n      keccak256\n      0x00\n      swap1\n      sload\n      swap1\n      0x0100\n      exp\n      swap1\n      div\n      0xffffffffffffffffffffffffffffffffffffffff\n      and\n        /* \"ERC721.sol\":8949:8979  _owners[tokenId] != address(0) */\n      0xffffffffffffffffffffffffffffffffffffffff\n      and\n      eq\n      iszero\n        /* \"ERC721.sol\":8941:8999  require(_owners[tokenId] != address(0), \"Token Not Exist\") */\n      tag_189\n      jumpi\n      mload(0x40)\n      0x08c379a000000000000000000000000000000000000000000000000000000000\n      dup2\n      mstore\n      0x04\n      add\n      tag_190\n      swap1\n      tag_191\n      jump\t// in\n    tag_190:\n      mload(0x40)\n      dup1\n      swap2\n      sub\n      swap1\n      revert\n    tag_189:\n        /* \"ERC721.sol\":9010:9031  string memory baseURI */\n      0x00\n        /* \"ERC721.sol\":9034:9044  _baseURI() */\n      tag_192\n        /* \"ERC721.sol\":9034:9042  _baseURI */\n      tag_193\n        /* \"ERC721.sol\":9034:9044  _baseURI() */\n      jump\t// in\n    tag_192:\n        /* \"ERC721.sol\":9010:9044  string memory baseURI = _baseURI() */\n      swap1\n      pop\n        /* \"ERC721.sol\":9085:9086  0 */\n      0x00\n        /* \"ERC721.sol\":9067:9074  baseURI */\n      dup2\n        /* \"ERC721.sol\":9061:9082  bytes(baseURI).length */\n      mload\n        /* \"ERC721.sol\":9061:9086  bytes(baseURI).length > 0 */\n      gt\n        /* \"ERC721.sol\":9061:9147  bytes(baseURI).length > 0 ? string(abi.encodePacked(baseURI, tokenId.toString())) : \"\" */\n      tag_194\n      jumpi\n      mload(0x40)\n      dup1\n      0x20\n      add\n      0x40\n      mstore\n      dup1\n      0x00\n      dup2\n      mstore\n      pop\n      jump(tag_195)\n    tag_194:\n        /* \"ERC721.sol\":9113:9120  baseURI */\n      dup1\n        /* \"ERC721.sol\":9122:9140  tokenId.toString() */\n      tag_196\n        /* \"ERC721.sol\":9122:9129  tokenId */\n      dup5\n        /* \"ERC721.sol\":9122:9138  tokenId.toString */\n      tag_197\n        /* \"ERC721.sol\":9122:9140  tokenId.toString() */\n      jump\t// in\n    tag_196:\n        /* \"ERC721.sol\":9096:9141  abi.encodePacked(baseURI, tokenId.toString()) */\n      add(0x20, mload(0x40))\n      tag_198\n      swap3\n      swap2\n      swap1\n      tag_199\n      jump\t// in\n    tag_198:\n      mload(0x40)\n      0x20\n      dup2\n      dup4\n      sub\n      sub\n      dup2\n      mstore\n      swap1\n      0x40\n      mstore\n        /* \"ERC721.sol\":9061:9147  bytes(baseURI).length > 0 ? string(abi.encodePacked(baseURI, tokenId.toString())) : \"\" */\n    tag_195:\n        /* \"ERC721.sol\":9054:9147  return bytes(baseURI).length > 0 ? string(abi.encodePacked(baseURI, tokenId.toString())) : \"\" */\n      swap2\n      pop\n      pop\n        /* \"ERC721.sol\":8843:9154  function tokenURI(uint256 tokenId) public view virtual override returns (string memory) {... */\n      swap2\n      swap1\n      pop\n      jump\t// out\n        /* \"ERC721.sol\":2159:2351  function isApprovedForAll(address owner, address operator)... */\n    tag_113:\n        /* \"ERC721.sol\":2282:2286  bool */\n      0x00\n        /* \"ERC721.sol\":2309:2327  _operatorApprovals */\n      0x05\n        /* \"ERC721.sol\":2309:2334  _operatorApprovals[owner] */\n      0x00\n        /* \"ERC721.sol\":2328:2333  owner */\n      dup5\n        /* \"ERC721.sol\":2309:2334  _operatorApprovals[owner] */\n      0xffffffffffffffffffffffffffffffffffffffff\n      and\n      0xffffffffffffffffffffffffffffffffffffffff\n      and\n      dup2\n      mstore\n      0x20\n      add\n      swap1\n      dup2\n      mstore\n      0x20\n      add\n      0x00\n      keccak256\n        /* \"ERC721.sol\":2309:2344  _operatorApprovals[owner][operator] */\n      0x00\n        /* \"ERC721.sol\":2335:2343  operator */\n      dup4\n        /* \"ERC721.sol\":2309:2344  _operatorApprovals[owner][operator] */\n      0xffffffffffffffffffffffffffffffffffffffff\n      and\n      0xffffffffffffffffffffffffffffffffffffffff\n      and\n      dup2\n      mstore\n      0x20\n      add\n      swap1\n      dup2\n      mstore\n      0x20\n      add\n      0x00\n      keccak256\n      0x00\n      swap1\n      sload\n      swap1\n      0x0100\n      exp\n      swap1\n      div\n      0xff\n      and\n        /* \"ERC721.sol\":2302:2344  return _operatorApprovals[owner][operator] */\n      swap1\n      pop\n        /* \"ERC721.sol\":2159:2351  function isApprovedForAll(address owner, address operator)... */\n      swap3\n      swap2\n      pop\n      pop\n      jump\t// out\n        /* \"45DutuchAuction.sol\":969:1162  function getCurrentPrice() public view returns(uint256){... */\n    tag_117:\n        /* \"45DutuchAuction.sol\":1016:1023  uint256 */\n      0x00\n        /* \"45DutuchAuction.sol\":1034:1050  uint256 discount */\n      dup1\n        /* \"45DutuchAuction.sol\":637:647  10 minutes */\n      0x0258\n        /* \"45DutuchAuction.sol\":1067:1077  finalPrice */\n      immutable(\"0xe4b1702d9298fee62dfeccc57d322a463ad55ca201256d01f62b45b2e1c21c10\")\n        /* \"45DutuchAuction.sol\":1054:1064  startPrice */\n      immutable(\"0xe455bf8ea6e7463a1046a0b52804526e119b4bf5136279614e0b1e8e296a4e2d\")\n        /* \"45DutuchAuction.sol\":1054:1077  startPrice - finalPrice */\n      tag_202\n      swap2\n      swap1\n      tag_203\n      jump\t// in\n    tag_202:\n        /* \"45DutuchAuction.sol\":1053:1087  (startPrice - finalPrice)/duration */\n      tag_204\n      swap2\n      swap1\n      tag_205\n      jump\t// in\n    tag_204:\n        /* \"45DutuchAuction.sol\":1034:1087  uint256 discount = (startPrice - finalPrice)/duration */\n      swap1\n      pop\n        /* \"45DutuchAuction.sol\":1147:1155  discount */\n      dup1\n        /* \"45DutuchAuction.sol\":1136:1145  startTime */\n      sload(0x06)\n        /* \"45DutuchAuction.sol\":1118:1133  block.timestamp */\n      timestamp\n        /* \"45DutuchAuction.sol\":1118:1145  block.timestamp - startTime */\n      tag_206\n      swap2\n      swap1\n      tag_203\n      jump\t// in\n    tag_206:\n        /* \"45DutuchAuction.sol\":1117:1155  (block.timestamp - startTime)*discount */\n      tag_207\n      swap2\n      swap1\n      tag_208\n      jump\t// in\n    tag_207:\n        /* \"45DutuchAuction.sol\":1104:1114  startPrice */\n      immutable(\"0xe455bf8ea6e7463a1046a0b52804526e119b4bf5136279614e0b1e8e296a4e2d\")\n        /* \"45DutuchAuction.sol\":1104:1155  startPrice - (block.timestamp - startTime)*discount */\n      tag_209\n      swap2\n      swap1\n      tag_203\n      jump\t// in\n    tag_209:\n        /* \"45DutuchAuction.sol\":1097:1155  return startPrice - (block.timestamp - startTime)*discount */\n      swap2\n      pop\n      pop\n        /* \"45DutuchAuction.sol\":969:1162  function getCurrentPrice() public view returns(uint256){... */\n      swap1\n      jump\t// out\n        /* \"45DutuchAuction.sol\":452:487  uint256 public immutable startPrice */\n    tag_121:\n      immutable(\"0xe455bf8ea6e7463a1046a0b52804526e119b4bf5136279614e0b1e8e296a4e2d\")\n      dup2\n      jump\t// out\n        /* \"ERC721.sol\":3115:3301  function _approve(... */\n    tag_142:\n        /* \"ERC721.sol\":3249:3251  to */\n      dup2\n        /* \"ERC721.sol\":3222:3237  _tokenApprovals */\n      0x04\n        /* \"ERC721.sol\":3222:3246  _tokenApprovals[tokenId] */\n      0x00\n        /* \"ERC721.sol\":3238:3245  tokenId */\n      dup4\n        /* \"ERC721.sol\":3222:3246  _tokenApprovals[tokenId] */\n      dup2\n      mstore\n      0x20\n      add\n      swap1\n      dup2\n      mstore\n      0x20\n      add\n      0x00\n      keccak256\n      0x00\n        /* \"ERC721.sol\":3222:3251  _tokenApprovals[tokenId] = to */\n      0x0100\n      exp\n      dup2\n      sload\n      dup2\n      0xffffffffffffffffffffffffffffffffffffffff\n      mul\n      not\n      and\n      swap1\n      dup4\n      0xffffffffffffffffffffffffffffffffffffffff\n      and\n      mul\n      or\n      swap1\n      sstore\n      pop\n        /* \"ERC721.sol\":3286:3293  tokenId */\n      dup1\n        /* \"ERC721.sol\":3282:3284  to */\n      dup3\n        /* \"ERC721.sol\":3266:3294  Approval(owner, to, tokenId) */\n      0xffffffffffffffffffffffffffffffffffffffff\n      and\n        /* \"ERC721.sol\":3275:3280  owner */\n      dup5\n        /* \"ERC721.sol\":3266:3294  Approval(owner, to, tokenId) */\n      0xffffffffffffffffffffffffffffffffffffffff\n      and\n      0x8c5be1e5ebec7d5bd14f71427d1e84f3dd0314c0f7b2291e5b200ac8c7c3b925\n      mload(0x40)\n      mload(0x40)\n      dup1\n      swap2\n      sub\n      swap1\n      log4\n        /* \"ERC721.sol\":3115:3301  function _approve(... */\n      pop\n      pop\n      pop\n      jump\t// out\n        /* \"ERC721.sol\":3852:4127  function _isApprovedOrOwner(... */\n    tag_159:\n        /* \"ERC721.sol\":3978:3982  bool */\n      0x00\n        /* \"ERC721.sol\":4013:4018  owner */\n      dup4\n        /* \"ERC721.sol\":4002:4018  spender == owner */\n      0xffffffffffffffffffffffffffffffffffffffff\n      and\n        /* \"ERC721.sol\":4002:4009  spender */\n      dup4\n        /* \"ERC721.sol\":4002:4018  spender == owner */\n      0xffffffffffffffffffffffffffffffffffffffff\n      and\n      eq\n        /* \"ERC721.sol\":4002:4069  spender == owner ||... */\n      dup1\n      tag_212\n      jumpi\n      pop\n        /* \"ERC721.sol\":4062:4069  spender */\n      dup3\n        /* \"ERC721.sol\":4034:4069  _tokenApprovals[tokenId] == spender */\n      0xffffffffffffffffffffffffffffffffffffffff\n      and\n        /* \"ERC721.sol\":4034:4049  _tokenApprovals */\n      0x04\n        /* \"ERC721.sol\":4034:4058  _tokenApprovals[tokenId] */\n      0x00\n        /* \"ERC721.sol\":4050:4057  tokenId */\n      dup5\n        /* \"ERC721.sol\":4034:4058  _tokenApprovals[tokenId] */\n      dup2\n      mstore\n      0x20\n      add\n      swap1\n      dup2\n      mstore\n      0x20\n      add\n      0x00\n      keccak256\n      0x00\n      swap1\n      sload\n      swap1\n      0x0100\n      exp\n      swap1\n      div\n      0xffffffffffffffffffffffffffffffffffffffff\n      and\n        /* \"ERC721.sol\":4034:4069  _tokenApprovals[tokenId] == spender */\n      0xffffffffffffffffffffffffffffffffffffffff\n      and\n      eq\n        /* \"ERC721.sol\":4002:4069  spender == owner ||... */\n    tag_212:\n        /* \"ERC721.sol\":4002:4119  spender == owner ||... */\n      dup1\n      tag_213\n      jumpi\n      pop\n        /* \"ERC721.sol\":4085:4103  _operatorApprovals */\n      0x05\n        /* \"ERC721.sol\":4085:4110  _operatorApprovals[owner] */\n      0x00\n        /* \"ERC721.sol\":4104:4109  owner */\n      dup6\n        /* \"ERC721.sol\":4085:4110  _operatorApprovals[owner] */\n      0xffffffffffffffffffffffffffffffffffffffff\n      and\n      0xffffffffffffffffffffffffffffffffffffffff\n      and\n      dup2\n      mstore\n      0x20\n      add\n      swap1\n      dup2\n      mstore\n      0x20\n      add\n      0x00\n      keccak256\n        /* \"ERC721.sol\":4085:4119  _operatorApprovals[owner][spender] */\n      0x00\n        /* \"ERC721.sol\":4111:4118  spender */\n      dup5\n        /* \"ERC721.sol\":4085:4119  _operatorApprovals[owner][spender] */\n      0xffffffffffffffffffffffffffffffffffffffff\n      and\n      0xffffffffffffffffffffffffffffffffffffffff\n      and\n      dup2\n      mstore\n      0x20\n      add\n      swap1\n      dup2\n      mstore\n      0x20\n      add\n      0x00\n      keccak256\n      0x00\n      swap1\n      sload\n      swap1\n      0x0100\n      exp\n      swap1\n      div\n      0xff\n      and\n        /* \"ERC721.sol\":4002:4119  spender == owner ||... */\n    tag_213:\n        /* \"ERC721.sol\":3994:4120  return (spender == owner ||... */\n      swap1\n      pop\n        /* \"ERC721.sol\":3852:4127  function _isApprovedOrOwner(... */\n      swap4\n      swap3\n      pop\n      pop\n      pop\n      jump\t// out\n        /* \"ERC721.sol\":4348:4767  function _transfer(... */\n    tag_164:\n        /* \"ERC721.sol\":4494:4499  owner */\n      dup4\n        /* \"ERC721.sol\":4486:4499  from == owner */\n      0xffffffffffffffffffffffffffffffffffffffff\n      and\n        /* \"ERC721.sol\":4486:4490  from */\n      dup4\n        /* \"ERC721.sol\":4486:4499  from == owner */\n      0xffffffffffffffffffffffffffffffffffffffff\n      and\n      eq\n        /* \"ERC721.sol\":4478:4513  require(from == owner, \"not owner\") */\n      tag_215\n      jumpi\n      mload(0x40)\n      0x08c379a000000000000000000000000000000000000000000000000000000000\n      dup2\n      mstore\n      0x04\n      add\n      tag_216\n      swap1\n      tag_217\n      jump\t// in\n    tag_216:\n      mload(0x40)\n      dup1\n      swap2\n      sub\n      swap1\n      revert\n    tag_215:\n        /* \"ERC721.sol\":4545:4546  0 */\n      0x00\n        /* \"ERC721.sol\":4531:4547  to != address(0) */\n      0xffffffffffffffffffffffffffffffffffffffff\n      and\n        /* \"ERC721.sol\":4531:4533  to */\n      dup3\n        /* \"ERC721.sol\":4531:4547  to != address(0) */\n      0xffffffffffffffffffffffffffffffffffffffff\n      and\n      eq\n      iszero\n        /* \"ERC721.sol\":4523:4580  require(to != address(0), \"transfer to the zero address\") */\n      tag_218\n      jumpi\n      mload(0x40)\n      0x08c379a000000000000000000000000000000000000000000000000000000000\n      dup2\n      mstore\n      0x04\n      add\n      tag_219\n      swap1\n      tag_220\n      jump\t// in\n    tag_219:\n      mload(0x40)\n      dup1\n      swap2\n      sub\n      swap1\n      revert\n    tag_218:\n        /* \"ERC721.sol\":4591:4627  _approve(owner, address(0), tokenId) */\n      tag_221\n        /* \"ERC721.sol\":4600:4605  owner */\n      dup5\n        /* \"ERC721.sol\":4615:4616  0 */\n      0x00\n        /* \"ERC721.sol\":4619:4626  tokenId */\n      dup4\n        /* \"ERC721.sol\":4591:4599  _approve */\n      tag_142\n        /* \"ERC721.sol\":4591:4627  _approve(owner, address(0), tokenId) */\n      jump\t// in\n    tag_221:\n        /* \"ERC721.sol\":4657:4658  1 */\n      0x01\n        /* \"ERC721.sol\":4638:4647  _balances */\n      0x03\n        /* \"ERC721.sol\":4638:4653  _balances[from] */\n      0x00\n        /* \"ERC721.sol\":4648:4652  from */\n      dup6\n        /* \"ERC721.sol\":4638:4653  _balances[from] */\n      0xffffffffffffffffffffffffffffffffffffffff\n      and\n      0xffffffffffffffffffffffffffffffffffffffff\n      and\n      dup2\n      mstore\n      0x20\n      add\n      swap1\n      dup2\n      mstore\n      0x20\n      add\n      0x00\n      keccak256\n      0x00\n        /* \"ERC721.sol\":4638:4658  _balances[from] -= 1 */\n      dup3\n      dup3\n      sload\n      tag_222\n      swap2\n      swap1\n      tag_203\n      jump\t// in\n    tag_222:\n      swap3\n      pop\n      pop\n      dup2\n      swap1\n      sstore\n      pop\n        /* \"ERC721.sol\":4685:4686  1 */\n      0x01\n        /* \"ERC721.sol\":4668:4677  _balances */\n      0x03\n        /* \"ERC721.sol\":4668:4681  _balances[to] */\n      0x00\n        /* \"ERC721.sol\":4678:4680  to */\n      dup5\n        /* \"ERC721.sol\":4668:4681  _balances[to] */\n      0xffffffffffffffffffffffffffffffffffffffff\n      and\n      0xffffffffffffffffffffffffffffffffffffffff\n      and\n      dup2\n      mstore\n      0x20\n      add\n      swap1\n      dup2\n      mstore\n      0x20\n      add\n      0x00\n      keccak256\n      0x00\n        /* \"ERC721.sol\":4668:4686  _balances[to] += 1 */\n      dup3\n      dup3\n      sload\n      tag_223\n      swap2\n      swap1\n      tag_224\n      jump\t// in\n    tag_223:\n      swap3\n      pop\n      pop\n      dup2\n      swap1\n      sstore\n      pop\n        /* \"ERC721.sol\":4715:4717  to */\n      dup2\n        /* \"ERC721.sol\":4696:4703  _owners */\n      0x02\n        /* \"ERC721.sol\":4696:4712  _owners[tokenId] */\n      0x00\n        /* \"ERC721.sol\":4704:4711  tokenId */\n      dup4\n        /* \"ERC721.sol\":4696:4712  _owners[tokenId] */\n      dup2\n      mstore\n      0x20\n      add\n      swap1\n      dup2\n      mstore\n      0x20\n      add\n      0x00\n      keccak256\n      0x00\n        /* \"ERC721.sol\":4696:4717  _owners[tokenId] = to */\n      0x0100\n      exp\n      dup2\n      sload\n      dup2\n      0xffffffffffffffffffffffffffffffffffffffff\n      mul\n      not\n      and\n      swap1\n      dup4\n      0xffffffffffffffffffffffffffffffffffffffff\n      and\n      mul\n      or\n      swap1\n      sstore\n      pop\n        /* \"ERC721.sol\":4752:4759  tokenId */\n      dup1\n        /* \"ERC721.sol\":4748:4750  to */\n      dup3\n        /* \"ERC721.sol\":4733:4760  Transfer(from, to, tokenId) */\n      0xffffffffffffffffffffffffffffffffffffffff\n      and\n        /* \"ERC721.sol\":4742:4746  from */\n      dup5\n        /* \"ERC721.sol\":4733:4760  Transfer(from, to, tokenId) */\n      0xffffffffffffffffffffffffffffffffffffffff\n      and\n      0xddf252ad1be2c89b69c2b068fc378daa952ba7f163c4a11628f55a4df523b3ef\n      mload(0x40)\n      mload(0x40)\n      dup1\n      swap2\n      sub\n      swap1\n      log4\n        /* \"ERC721.sol\":4348:4767  function _transfer(... */\n      pop\n      pop\n      pop\n      pop\n      jump\t// out\n        /* \"ERC721.sol\":5651:5913  function _safeTransfer(... */\n    tag_187:\n        /* \"ERC721.sol\":5813:5848  _transfer(owner, from, to, tokenId) */\n      tag_226\n        /* \"ERC721.sol\":5823:5828  owner */\n      dup6\n        /* \"ERC721.sol\":5830:5834  from */\n      dup6\n        /* \"ERC721.sol\":5836:5838  to */\n      dup6\n        /* \"ERC721.sol\":5840:5847  tokenId */\n      dup6\n        /* \"ERC721.sol\":5813:5822  _transfer */\n      tag_164\n        /* \"ERC721.sol\":5813:5848  _transfer(owner, from, to, tokenId) */\n      jump\t// in\n    tag_226:\n        /* \"ERC721.sol\":5858:5906  _checkOnERC721Received(from, to, tokenId, _data) */\n      tag_227\n        /* \"ERC721.sol\":5881:5885  from */\n      dup5\n        /* \"ERC721.sol\":5887:5889  to */\n      dup5\n        /* \"ERC721.sol\":5891:5898  tokenId */\n      dup5\n        /* \"ERC721.sol\":5900:5905  _data */\n      dup5\n        /* \"ERC721.sol\":5858:5880  _checkOnERC721Received */\n      tag_228\n        /* \"ERC721.sol\":5858:5906  _checkOnERC721Received(from, to, tokenId, _data) */\n      jump\t// in\n    tag_227:\n        /* \"ERC721.sol\":5651:5913  function _safeTransfer(... */\n      pop\n      pop\n      pop\n      pop\n      pop\n      jump\t// out\n        /* \"ERC721.sol\":9366:9458  function _baseURI() internal view virtual returns (string memory) {... */\n    tag_193:\n        /* \"ERC721.sol\":9417:9430  string memory */\n      0x60\n        /* \"ERC721.sol\":9442:9451  return \"\" */\n      mload(0x40)\n      dup1\n      0x20\n      add\n      0x40\n      mstore\n      dup1\n      0x00\n      dup2\n      mstore\n      pop\n      swap1\n      pop\n        /* \"ERC721.sol\":9366:9458  function _baseURI() internal view virtual returns (string memory) {... */\n      swap1\n      jump\t// out\n        /* \"String.sol\":391:1094  function toString(uint256 value) internal pure returns (string memory) {... */\n    tag_197:\n        /* \"String.sol\":447:460  string memory */\n      0x60\n        /* \"String.sol\":673:674  0 */\n      0x00\n        /* \"String.sol\":664:669  value */\n      dup3\n        /* \"String.sol\":664:674  value == 0 */\n      eq\n        /* \"String.sol\":660:711  if (value == 0) {... */\n      iszero\n      tag_231\n      jumpi\n        /* \"String.sol\":690:700  return \"0\" */\n      mload(0x40)\n      dup1\n      0x40\n      add\n      0x40\n      mstore\n      dup1\n      0x01\n      dup2\n      mstore\n      0x20\n      add\n      0x3000000000000000000000000000000000000000000000000000000000000000\n      dup2\n      mstore\n      pop\n      swap1\n      pop\n      jump(tag_230)\n        /* \"String.sol\":660:711  if (value == 0) {... */\n    tag_231:\n        /* \"String.sol\":720:732  uint256 temp */\n      0x00\n        /* \"String.sol\":735:740  value */\n      dup3\n        /* \"String.sol\":720:740  uint256 temp = value */\n      swap1\n      pop\n        /* \"String.sol\":750:764  uint256 digits */\n      0x00\n        /* \"String.sol\":774:849  while (temp != 0) {... */\n    tag_232:\n        /* \"String.sol\":789:790  0 */\n      0x00\n        /* \"String.sol\":781:785  temp */\n      dup3\n        /* \"String.sol\":781:790  temp != 0 */\n      eq\n        /* \"String.sol\":774:849  while (temp != 0) {... */\n      tag_233\n      jumpi\n        /* \"String.sol\":806:814  digits++ */\n      dup1\n      dup1\n      tag_234\n      swap1\n      tag_235\n      jump\t// in\n    tag_234:\n      swap2\n      pop\n      pop\n        /* \"String.sol\":836:838  10 */\n      0x0a\n        /* \"String.sol\":828:838  temp /= 10 */\n      dup3\n      tag_236\n      swap2\n      swap1\n      tag_205\n      jump\t// in\n    tag_236:\n      swap2\n      pop\n        /* \"String.sol\":774:849  while (temp != 0) {... */\n      jump(tag_232)\n    tag_233:\n        /* \"String.sol\":858:877  bytes memory buffer */\n      0x00\n        /* \"String.sol\":890:896  digits */\n      dup2\n        /* \"String.sol\":880:897  new bytes(digits) */\n      0xffffffffffffffff\n      dup2\n      gt\n      iszero\n      tag_237\n      jumpi\n      tag_238\n      tag_239\n      jump\t// in\n    tag_238:\n    tag_237:\n      mload(0x40)\n      swap1\n      dup1\n      dup3\n      mstore\n      dup1\n      0x1f\n      add\n      not(0x1f)\n      and\n      0x20\n      add\n      dup3\n      add\n      0x40\n      mstore\n      dup1\n      iszero\n      tag_240\n      jumpi\n      dup2\n      0x20\n      add\n      0x01\n      dup3\n      mul\n      dup1\n      calldatasize\n      dup4\n      calldatacopy\n      dup1\n      dup3\n      add\n      swap2\n      pop\n      pop\n      swap1\n      pop\n    tag_240:\n      pop\n        /* \"String.sol\":858:897  bytes memory buffer = new bytes(digits) */\n      swap1\n      pop\n        /* \"String.sol\":907:1057  while (value != 0) {... */\n    tag_241:\n        /* \"String.sol\":923:924  0 */\n      0x00\n        /* \"String.sol\":914:919  value */\n      dup6\n        /* \"String.sol\":914:924  value != 0 */\n      eq\n        /* \"String.sol\":907:1057  while (value != 0) {... */\n      tag_242\n      jumpi\n        /* \"String.sol\":950:951  1 */\n      0x01\n        /* \"String.sol\":940:951  digits -= 1 */\n      dup3\n      tag_243\n      swap2\n      swap1\n      tag_203\n      jump\t// in\n    tag_243:\n      swap2\n      pop\n        /* \"String.sol\":1016:1018  10 */\n      0x0a\n        /* \"String.sol\":1008:1013  value */\n      dup6\n        /* \"String.sol\":1008:1018  value % 10 */\n      tag_244\n      swap2\n      swap1\n      tag_245\n      jump\t// in\n    tag_244:\n        /* \"String.sol\":995:997  48 */\n      0x30\n        /* \"String.sol\":995:1019  48 + uint256(value % 10) */\n      tag_246\n      swap2\n      swap1\n      tag_224\n      jump\t// in\n    tag_246:\n        /* \"String.sol\":982:1021  bytes1(uint8(48 + uint256(value % 10))) */\n      0xf8\n      shl\n        /* \"String.sol\":965:971  buffer */\n      dup2\n        /* \"String.sol\":972:978  digits */\n      dup4\n        /* \"String.sol\":965:979  buffer[digits] */\n      dup2\n      mload\n      dup2\n      lt\n      tag_247\n      jumpi\n      tag_248\n      tag_249\n      jump\t// in\n    tag_248:\n    tag_247:\n      0x20\n      add\n      add\n        /* \"String.sol\":965:1021  buffer[digits] = bytes1(uint8(48 + uint256(value % 10))) */\n      swap1\n      not(0xffffffffffffffffffffffffffffffffffffffffffffffffffffffffffffff)\n      and\n      swap1\n      dup2\n      0x00\n      byte\n      swap1\n      mstore8\n      pop\n        /* \"String.sol\":1044:1046  10 */\n      0x0a\n        /* \"String.sol\":1035:1046  value /= 10 */\n      dup6\n      tag_250\n      swap2\n      swap1\n      tag_205\n      jump\t// in\n    tag_250:\n      swap5\n      pop\n        /* \"String.sol\":907:1057  while (value != 0) {... */\n      jump(tag_241)\n    tag_242:\n        /* \"String.sol\":1080:1086  buffer */\n      dup1\n        /* \"String.sol\":1066:1087  return string(buffer) */\n      swap4\n      pop\n      pop\n      pop\n      pop\n        /* \"String.sol\":391:1094  function toString(uint256 value) internal pure returns (string memory) {... */\n    tag_230:\n      swap2\n      swap1\n      pop\n      jump\t// out\n        /* \"ERC721.sol\":7975:8755  function _checkOnERC721Received(address from, address to, uint256 tokenId, bytes memory data) private {... */\n    tag_228:\n        /* \"ERC721.sol\":8108:8109  0 */\n      0x00\n        /* \"ERC721.sol\":8091:8093  to */\n      dup4\n        /* \"ERC721.sol\":8091:8105  to.code.length */\n      0xffffffffffffffffffffffffffffffffffffffff\n      and\n      extcodesize\n        /* \"ERC721.sol\":8091:8109  to.code.length > 0 */\n      gt\n        /* \"ERC721.sol\":8087:8749  if (to.code.length > 0) {... */\n      iszero\n      tag_252\n      jumpi\n        /* \"ERC721.sol\":8145:8147  to */\n      dup3\n        /* \"ERC721.sol\":8129:8165  IERC721Receiver(to).onERC721Received */\n      0xffffffffffffffffffffffffffffffffffffffff\n      and\n      0x150b7a02\n        /* \"ERC721.sol\":8166:8176  msg.sender */\n      caller\n        /* \"ERC721.sol\":8178:8182  from */\n      dup7\n        /* \"ERC721.sol\":8184:8191  tokenId */\n      dup6\n        /* \"ERC721.sol\":8193:8197  data */\n      dup6\n        /* \"ERC721.sol\":8129:8198  IERC721Receiver(to).onERC721Received(msg.sender, from, tokenId, data) */\n      mload(0x40)\n      dup6\n      0xffffffff\n      and\n      0xe0\n      shl\n      dup2\n      mstore\n      0x04\n      add\n      tag_253\n      swap5\n      swap4\n      swap3\n      swap2\n      swap1\n      tag_254\n      jump\t// in\n    tag_253:\n      0x20\n      mload(0x40)\n      dup1\n      dup4\n      sub\n      dup2\n      0x00\n      dup8\n      dup1\n      extcodesize\n      iszero\n      dup1\n      iszero\n      tag_255\n      jumpi\n      0x00\n      dup1\n      revert\n    tag_255:\n      pop\n      gas\n      call\n      swap3\n      pop\n      pop\n      pop\n      dup1\n      iszero\n      tag_256\n      jumpi\n      pop\n      mload(0x40)\n      returndatasize\n      not(0x1f)\n      0x1f\n      dup3\n      add\n      and\n      dup3\n      add\n      dup1\n      0x40\n      mstore\n      pop\n      dup2\n      add\n      swap1\n      tag_257\n      swap2\n      swap1\n      tag_258\n      jump\t// in\n    tag_257:\n      0x01\n    tag_256:\n        /* \"ERC721.sol\":8125:8739  try IERC721Receiver(to).onERC721Received(msg.sender, from, tokenId, data) returns (bytes4 retval) {... */\n      tag_259\n      jumpi\n      returndatasize\n      dup1\n      0x00\n      dup2\n      eq\n      tag_264\n      jumpi\n      mload(0x40)\n      swap2\n      pop\n      and(add(returndatasize, 0x3f), not(0x1f))\n      dup3\n      add\n      0x40\n      mstore\n      returndatasize\n      dup3\n      mstore\n      returndatasize\n      0x00\n      0x20\n      dup5\n      add\n      returndatacopy\n      jump(tag_263)\n    tag_264:\n      0x60\n      swap2\n      pop\n    tag_263:\n      pop\n        /* \"ERC721.sol\":8453:8454  0 */\n      0x00\n        /* \"ERC721.sol\":8436:8442  reason */\n      dup2\n        /* \"ERC721.sol\":8436:8449  reason.length */\n      mload\n        /* \"ERC721.sol\":8436:8454  reason.length == 0 */\n      eq\n        /* \"ERC721.sol\":8432:8725  if (reason.length == 0) {... */\n      iszero\n      tag_265\n      jumpi\n        /* \"ERC721.sol\":8507:8509  to */\n      dup4\n        /* \"ERC721.sol\":8485:8510  ERC721InvalidReceiver(to) */\n      mload(0x40)\n      0x64a0ae9200000000000000000000000000000000000000000000000000000000\n      dup2\n      mstore\n      0x04\n      add\n      tag_266\n      swap2\n      swap1\n      tag_43\n      jump\t// in\n    tag_266:\n      mload(0x40)\n      dup1\n      swap2\n      sub\n      swap1\n      revert\n        /* \"ERC721.sol\":8432:8725  if (reason.length == 0) {... */\n    tag_265:\n        /* \"ERC721.sol\":8677:8683  reason */\n      dup1\n        /* \"ERC721.sol\":8671:8684  mload(reason) */\n      mload\n        /* \"ERC721.sol\":8662:8668  reason */\n      dup2\n        /* \"ERC721.sol\":8658:8660  32 */\n      0x20\n        /* \"ERC721.sol\":8654:8669  add(32, reason) */\n      add\n        /* \"ERC721.sol\":8647:8685  revert(add(32, reason), mload(reason)) */\n      revert\n        /* \"ERC721.sol\":8125:8739  try IERC721Receiver(to).onERC721Received(msg.sender, from, tokenId, data) returns (bytes4 retval) {... */\n    tag_259:\n        /* \"ERC721.sol\":8255:8296  IERC721Receiver.onERC721Received.selector */\n      shl(0xe0, 0x150b7a02)\n        /* \"ERC721.sol\":8245:8296  retval != IERC721Receiver.onERC721Received.selector */\n      not(0xffffffffffffffffffffffffffffffffffffffffffffffffffffffff)\n      and\n        /* \"ERC721.sol\":8245:8251  retval */\n      dup2\n        /* \"ERC721.sol\":8245:8296  retval != IERC721Receiver.onERC721Received.selector */\n      not(0xffffffffffffffffffffffffffffffffffffffffffffffffffffffff)\n      and\n      eq\n        /* \"ERC721.sol\":8241:8371  if (retval != IERC721Receiver.onERC721Received.selector) {... */\n      tag_269\n      jumpi\n        /* \"ERC721.sol\":8349:8351  to */\n      dup4\n        /* \"ERC721.sol\":8327:8352  ERC721InvalidReceiver(to) */\n      mload(0x40)\n      0x64a0ae9200000000000000000000000000000000000000000000000000000000\n      dup2\n      mstore\n      0x04\n      add\n      tag_270\n      swap2\n      swap1\n      tag_43\n      jump\t// in\n    tag_270:\n      mload(0x40)\n      dup1\n      swap2\n      sub\n      swap1\n      revert\n        /* \"ERC721.sol\":8241:8371  if (retval != IERC721Receiver.onERC721Received.selector) {... */\n    tag_269:\n        /* \"ERC721.sol\":8199:8385  returns (bytes4 retval) {... */\n      pop\n        /* \"ERC721.sol\":8087:8749  if (to.code.length > 0) {... */\n    tag_252:\n        /* \"ERC721.sol\":7975:8755  function _checkOnERC721Received(address from, address to, uint256 tokenId, bytes memory data) private {... */\n      pop\n      pop\n      pop\n      pop\n      jump\t// out\n        /* \"#utility.yul\":7:417   */\n    tag_272:\n        /* \"#utility.yul\":84:89   */\n      0x00\n        /* \"#utility.yul\":109:174   */\n      tag_274\n        /* \"#utility.yul\":125:173   */\n      tag_275\n        /* \"#utility.yul\":166:172   */\n      dup5\n        /* \"#utility.yul\":125:173   */\n      tag_276\n      jump\t// in\n    tag_275:\n        /* \"#utility.yul\":109:174   */\n      tag_277\n      jump\t// in\n    tag_274:\n        /* \"#utility.yul\":100:174   */\n      swap1\n      pop\n        /* \"#utility.yul\":197:203   */\n      dup3\n        /* \"#utility.yul\":190:195   */\n      dup2\n        /* \"#utility.yul\":183:204   */\n      mstore\n        /* \"#utility.yul\":235:239   */\n      0x20\n        /* \"#utility.yul\":228:233   */\n      dup2\n        /* \"#utility.yul\":224:240   */\n      add\n        /* \"#utility.yul\":273:276   */\n      dup5\n        /* \"#utility.yul\":264:270   */\n      dup5\n        /* \"#utility.yul\":259:262   */\n      dup5\n        /* \"#utility.yul\":255:271   */\n      add\n        /* \"#utility.yul\":252:277   */\n      gt\n        /* \"#utility.yul\":249:361   */\n      iszero\n      tag_278\n      jumpi\n        /* \"#utility.yul\":280:359   */\n      tag_279\n      tag_280\n      jump\t// in\n    tag_279:\n        /* \"#utility.yul\":249:361   */\n    tag_278:\n        /* \"#utility.yul\":370:411   */\n      tag_281\n        /* \"#utility.yul\":404:410   */\n      dup5\n        /* \"#utility.yul\":399:402   */\n      dup3\n        /* \"#utility.yul\":394:397   */\n      dup6\n        /* \"#utility.yul\":370:411   */\n      tag_282\n      jump\t// in\n    tag_281:\n        /* \"#utility.yul\":90:417   */\n      pop\n        /* \"#utility.yul\":7:417   */\n      swap4\n      swap3\n      pop\n      pop\n      pop\n      jump\t// out\n        /* \"#utility.yul\":423:562   */\n    tag_283:\n        /* \"#utility.yul\":469:474   */\n      0x00\n        /* \"#utility.yul\":507:513   */\n      dup2\n        /* \"#utility.yul\":494:514   */\n      calldataload\n        /* \"#utility.yul\":485:514   */\n      swap1\n      pop\n        /* \"#utility.yul\":523:556   */\n      tag_285\n        /* \"#utility.yul\":550:555   */\n      dup2\n        /* \"#utility.yul\":523:556   */\n      tag_286\n      jump\t// in\n    tag_285:\n        /* \"#utility.yul\":423:562   */\n      swap3\n      swap2\n      pop\n      pop\n      jump\t// out\n        /* \"#utility.yul\":568:701   */\n    tag_287:\n        /* \"#utility.yul\":611:616   */\n      0x00\n        /* \"#utility.yul\":649:655   */\n      dup2\n        /* \"#utility.yul\":636:656   */\n      calldataload\n        /* \"#utility.yul\":627:656   */\n      swap1\n      pop\n        /* \"#utility.yul\":665:695   */\n      tag_289\n        /* \"#utility.yul\":689:694   */\n      dup2\n        /* \"#utility.yul\":665:695   */\n      tag_290\n      jump\t// in\n    tag_289:\n        /* \"#utility.yul\":568:701   */\n      swap3\n      swap2\n      pop\n      pop\n      jump\t// out\n        /* \"#utility.yul\":707:844   */\n    tag_291:\n        /* \"#utility.yul\":752:757   */\n      0x00\n        /* \"#utility.yul\":790:796   */\n      dup2\n        /* \"#utility.yul\":777:797   */\n      calldataload\n        /* \"#utility.yul\":768:797   */\n      swap1\n      pop\n        /* \"#utility.yul\":806:838   */\n      tag_293\n        /* \"#utility.yul\":832:837   */\n      dup2\n        /* \"#utility.yul\":806:838   */\n      tag_294\n      jump\t// in\n    tag_293:\n        /* \"#utility.yul\":707:844   */\n      swap3\n      swap2\n      pop\n      pop\n      jump\t// out\n        /* \"#utility.yul\":850:991   */\n    tag_295:\n        /* \"#utility.yul\":906:911   */\n      0x00\n        /* \"#utility.yul\":937:943   */\n      dup2\n        /* \"#utility.yul\":931:944   */\n      mload\n        /* \"#utility.yul\":922:944   */\n      swap1\n      pop\n        /* \"#utility.yul\":953:985   */\n      tag_297\n        /* \"#utility.yul\":979:984   */\n      dup2\n        /* \"#utility.yul\":953:985   */\n      tag_294\n      jump\t// in\n    tag_297:\n        /* \"#utility.yul\":850:991   */\n      swap3\n      swap2\n      pop\n      pop\n      jump\t// out\n        /* \"#utility.yul\":1010:1348   */\n    tag_298:\n        /* \"#utility.yul\":1065:1070   */\n      0x00\n        /* \"#utility.yul\":1114:1117   */\n      dup3\n        /* \"#utility.yul\":1107:1111   */\n      0x1f\n        /* \"#utility.yul\":1099:1105   */\n      dup4\n        /* \"#utility.yul\":1095:1112   */\n      add\n        /* \"#utility.yul\":1091:1118   */\n      slt\n        /* \"#utility.yul\":1081:1203   */\n      tag_300\n      jumpi\n        /* \"#utility.yul\":1122:1201   */\n      tag_301\n      tag_302\n      jump\t// in\n    tag_301:\n        /* \"#utility.yul\":1081:1203   */\n    tag_300:\n        /* \"#utility.yul\":1239:1245   */\n      dup2\n        /* \"#utility.yul\":1226:1246   */\n      calldataload\n        /* \"#utility.yul\":1264:1342   */\n      tag_303\n        /* \"#utility.yul\":1338:1341   */\n      dup5\n        /* \"#utility.yul\":1330:1336   */\n      dup3\n        /* \"#utility.yul\":1323:1327   */\n      0x20\n        /* \"#utility.yul\":1315:1321   */\n      dup7\n        /* \"#utility.yul\":1311:1328   */\n      add\n        /* \"#utility.yul\":1264:1342   */\n      tag_272\n      jump\t// in\n    tag_303:\n        /* \"#utility.yul\":1255:1342   */\n      swap2\n      pop\n        /* \"#utility.yul\":1071:1348   */\n      pop\n        /* \"#utility.yul\":1010:1348   */\n      swap3\n      swap2\n      pop\n      pop\n      jump\t// out\n        /* \"#utility.yul\":1354:1493   */\n    tag_304:\n        /* \"#utility.yul\":1400:1405   */\n      0x00\n        /* \"#utility.yul\":1438:1444   */\n      dup2\n        /* \"#utility.yul\":1425:1445   */\n      calldataload\n        /* \"#utility.yul\":1416:1445   */\n      swap1\n      pop\n        /* \"#utility.yul\":1454:1487   */\n      tag_306\n        /* \"#utility.yul\":1481:1486   */\n      dup2\n        /* \"#utility.yul\":1454:1487   */\n      tag_307\n      jump\t// in\n    tag_306:\n        /* \"#utility.yul\":1354:1493   */\n      swap3\n      swap2\n      pop\n      pop\n      jump\t// out\n        /* \"#utility.yul\":1499:1828   */\n    tag_79:\n        /* \"#utility.yul\":1558:1564   */\n      0x00\n        /* \"#utility.yul\":1607:1609   */\n      0x20\n        /* \"#utility.yul\":1595:1604   */\n      dup3\n        /* \"#utility.yul\":1586:1593   */\n      dup5\n        /* \"#utility.yul\":1582:1605   */\n      sub\n        /* \"#utility.yul\":1578:1610   */\n      slt\n        /* \"#utility.yul\":1575:1694   */\n      iszero\n      tag_309\n      jumpi\n        /* \"#utility.yul\":1613:1692   */\n      tag_310\n      tag_311\n      jump\t// in\n    tag_310:\n        /* \"#utility.yul\":1575:1694   */\n    tag_309:\n        /* \"#utility.yul\":1733:1734   */\n      0x00\n        /* \"#utility.yul\":1758:1811   */\n      tag_312\n        /* \"#utility.yul\":1803:1810   */\n      dup5\n        /* \"#utility.yul\":1794:1800   */\n      dup3\n        /* \"#utility.yul\":1783:1792   */\n      dup6\n        /* \"#utility.yul\":1779:1801   */\n      add\n        /* \"#utility.yul\":1758:1811   */\n      tag_283\n      jump\t// in\n    tag_312:\n        /* \"#utility.yul\":1748:1811   */\n      swap2\n      pop\n        /* \"#utility.yul\":1704:1821   */\n      pop\n        /* \"#utility.yul\":1499:1828   */\n      swap3\n      swap2\n      pop\n      pop\n      jump\t// out\n        /* \"#utility.yul\":1834:2308   */\n    tag_112:\n        /* \"#utility.yul\":1902:1908   */\n      0x00\n        /* \"#utility.yul\":1910:1916   */\n      dup1\n        /* \"#utility.yul\":1959:1961   */\n      0x40\n        /* \"#utility.yul\":1947:1956   */\n      dup4\n        /* \"#utility.yul\":1938:1945   */\n      dup6\n        /* \"#utility.yul\":1934:1957   */\n      sub\n        /* \"#utility.yul\":1930:1962   */\n      slt\n        /* \"#utility.yul\":1927:2046   */\n      iszero\n      tag_314\n      jumpi\n        /* \"#utility.yul\":1965:2044   */\n      tag_315\n      tag_311\n      jump\t// in\n    tag_315:\n        /* \"#utility.yul\":1927:2046   */\n    tag_314:\n        /* \"#utility.yul\":2085:2086   */\n      0x00\n        /* \"#utility.yul\":2110:2163   */\n      tag_316\n        /* \"#utility.yul\":2155:2162   */\n      dup6\n        /* \"#utility.yul\":2146:2152   */\n      dup3\n        /* \"#utility.yul\":2135:2144   */\n      dup7\n        /* \"#utility.yul\":2131:2153   */\n      add\n        /* \"#utility.yul\":2110:2163   */\n      tag_283\n      jump\t// in\n    tag_316:\n        /* \"#utility.yul\":2100:2163   */\n      swap3\n      pop\n        /* \"#utility.yul\":2056:2173   */\n      pop\n        /* \"#utility.yul\":2212:2214   */\n      0x20\n        /* \"#utility.yul\":2238:2291   */\n      tag_317\n        /* \"#utility.yul\":2283:2290   */\n      dup6\n        /* \"#utility.yul\":2274:2280   */\n      dup3\n        /* \"#utility.yul\":2263:2272   */\n      dup7\n        /* \"#utility.yul\":2259:2281   */\n      add\n        /* \"#utility.yul\":2238:2291   */\n      tag_283\n      jump\t// in\n    tag_317:\n        /* \"#utility.yul\":2228:2291   */\n      swap2\n      pop\n        /* \"#utility.yul\":2183:2301   */\n      pop\n        /* \"#utility.yul\":1834:2308   */\n      swap3\n      pop\n      swap3\n      swap1\n      pop\n      jump\t// out\n        /* \"#utility.yul\":2314:2933   */\n    tag_56:\n        /* \"#utility.yul\":2391:2397   */\n      0x00\n        /* \"#utility.yul\":2399:2405   */\n      dup1\n        /* \"#utility.yul\":2407:2413   */\n      0x00\n        /* \"#utility.yul\":2456:2458   */\n      0x60\n        /* \"#utility.yul\":2444:2453   */\n      dup5\n        /* \"#utility.yul\":2435:2442   */\n      dup7\n        /* \"#utility.yul\":2431:2454   */\n      sub\n        /* \"#utility.yul\":2427:2459   */\n      slt\n        /* \"#utility.yul\":2424:2543   */\n      iszero\n      tag_319\n      jumpi\n        /* \"#utility.yul\":2462:2541   */\n      tag_320\n      tag_311\n      jump\t// in\n    tag_320:\n        /* \"#utility.yul\":2424:2543   */\n    tag_319:\n        /* \"#utility.yul\":2582:2583   */\n      0x00\n        /* \"#utility.yul\":2607:2660   */\n      tag_321\n        /* \"#utility.yul\":2652:2659   */\n      dup7\n        /* \"#utility.yul\":2643:2649   */\n      dup3\n        /* \"#utility.yul\":2632:2641   */\n      dup8\n        /* \"#utility.yul\":2628:2650   */\n      add\n        /* \"#utility.yul\":2607:2660   */\n      tag_283\n      jump\t// in\n    tag_321:\n        /* \"#utility.yul\":2597:2660   */\n      swap4\n      pop\n        /* \"#utility.yul\":2553:2670   */\n      pop\n        /* \"#utility.yul\":2709:2711   */\n      0x20\n        /* \"#utility.yul\":2735:2788   */\n      tag_322\n        /* \"#utility.yul\":2780:2787   */\n      dup7\n        /* \"#utility.yul\":2771:2777   */\n      dup3\n        /* \"#utility.yul\":2760:2769   */\n      dup8\n        /* \"#utility.yul\":2756:2778   */\n      add\n        /* \"#utility.yul\":2735:2788   */\n      tag_283\n      jump\t// in\n    tag_322:\n        /* \"#utility.yul\":2725:2788   */\n      swap3\n      pop\n        /* \"#utility.yul\":2680:2798   */\n      pop\n        /* \"#utility.yul\":2837:2839   */\n      0x40\n        /* \"#utility.yul\":2863:2916   */\n      tag_323\n        /* \"#utility.yul\":2908:2915   */\n      dup7\n        /* \"#utility.yul\":2899:2905   */\n      dup3\n        /* \"#utility.yul\":2888:2897   */\n      dup8\n        /* \"#utility.yul\":2884:2906   */\n      add\n        /* \"#utility.yul\":2863:2916   */\n      tag_304\n      jump\t// in\n    tag_323:\n        /* \"#utility.yul\":2853:2916   */\n      swap2\n      pop\n        /* \"#utility.yul\":2808:2926   */\n      pop\n        /* \"#utility.yul\":2314:2933   */\n      swap3\n      pop\n      swap3\n      pop\n      swap3\n      jump\t// out\n        /* \"#utility.yul\":2939:3882   */\n    tag_102:\n        /* \"#utility.yul\":3034:3040   */\n      0x00\n        /* \"#utility.yul\":3042:3048   */\n      dup1\n        /* \"#utility.yul\":3050:3056   */\n      0x00\n        /* \"#utility.yul\":3058:3064   */\n      dup1\n        /* \"#utility.yul\":3107:3110   */\n      0x80\n        /* \"#utility.yul\":3095:3104   */\n      dup6\n        /* \"#utility.yul\":3086:3093   */\n      dup8\n        /* \"#utility.yul\":3082:3105   */\n      sub\n        /* \"#utility.yul\":3078:3111   */\n      slt\n        /* \"#utility.yul\":3075:3195   */\n      iszero\n      tag_325\n      jumpi\n        /* \"#utility.yul\":3114:3193   */\n      tag_326\n      tag_311\n      jump\t// in\n    tag_326:\n        /* \"#utility.yul\":3075:3195   */\n    tag_325:\n        /* \"#utility.yul\":3234:3235   */\n      0x00\n        /* \"#utility.yul\":3259:3312   */\n      tag_327\n        /* \"#utility.yul\":3304:3311   */\n      dup8\n        /* \"#utility.yul\":3295:3301   */\n      dup3\n        /* \"#utility.yul\":3284:3293   */\n      dup9\n        /* \"#utility.yul\":3280:3302   */\n      add\n        /* \"#utility.yul\":3259:3312   */\n      tag_283\n      jump\t// in\n    tag_327:\n        /* \"#utility.yul\":3249:3312   */\n      swap5\n      pop\n        /* \"#utility.yul\":3205:3322   */\n      pop\n        /* \"#utility.yul\":3361:3363   */\n      0x20\n        /* \"#utility.yul\":3387:3440   */\n      tag_328\n        /* \"#utility.yul\":3432:3439   */\n      dup8\n        /* \"#utility.yul\":3423:3429   */\n      dup3\n        /* \"#utility.yul\":3412:3421   */\n      dup9\n        /* \"#utility.yul\":3408:3430   */\n      add\n        /* \"#utility.yul\":3387:3440   */\n      tag_283\n      jump\t// in\n    tag_328:\n        /* \"#utility.yul\":3377:3440   */\n      swap4\n      pop\n        /* \"#utility.yul\":3332:3450   */\n      pop\n        /* \"#utility.yul\":3489:3491   */\n      0x40\n        /* \"#utility.yul\":3515:3568   */\n      tag_329\n        /* \"#utility.yul\":3560:3567   */\n      dup8\n        /* \"#utility.yul\":3551:3557   */\n      dup3\n        /* \"#utility.yul\":3540:3549   */\n      dup9\n        /* \"#utility.yul\":3536:3558   */\n      add\n        /* \"#utility.yul\":3515:3568   */\n      tag_304\n      jump\t// in\n    tag_329:\n        /* \"#utility.yul\":3505:3568   */\n      swap3\n      pop\n        /* \"#utility.yul\":3460:3578   */\n      pop\n        /* \"#utility.yul\":3645:3647   */\n      0x60\n        /* \"#utility.yul\":3634:3643   */\n      dup6\n        /* \"#utility.yul\":3630:3648   */\n      add\n        /* \"#utility.yul\":3617:3649   */\n      calldataload\n        /* \"#utility.yul\":3676:3694   */\n      0xffffffffffffffff\n        /* \"#utility.yul\":3668:3674   */\n      dup2\n        /* \"#utility.yul\":3665:3695   */\n      gt\n        /* \"#utility.yul\":3662:3779   */\n      iszero\n      tag_330\n      jumpi\n        /* \"#utility.yul\":3698:3777   */\n      tag_331\n      tag_332\n      jump\t// in\n    tag_331:\n        /* \"#utility.yul\":3662:3779   */\n    tag_330:\n        /* \"#utility.yul\":3803:3865   */\n      tag_333\n        /* \"#utility.yul\":3857:3864   */\n      dup8\n        /* \"#utility.yul\":3848:3854   */\n      dup3\n        /* \"#utility.yul\":3837:3846   */\n      dup9\n        /* \"#utility.yul\":3833:3855   */\n      add\n        /* \"#utility.yul\":3803:3865   */\n      tag_298\n      jump\t// in\n    tag_333:\n        /* \"#utility.yul\":3793:3865   */\n      swap2\n      pop\n        /* \"#utility.yul\":3588:3875   */\n      pop\n        /* \"#utility.yul\":2939:3882   */\n      swap3\n      swap6\n      swap2\n      swap5\n      pop\n      swap3\n      pop\n      jump\t// out\n        /* \"#utility.yul\":3888:4356   */\n    tag_93:\n        /* \"#utility.yul\":3953:3959   */\n      0x00\n        /* \"#utility.yul\":3961:3967   */\n      dup1\n        /* \"#utility.yul\":4010:4012   */\n      0x40\n        /* \"#utility.yul\":3998:4007   */\n      dup4\n        /* \"#utility.yul\":3989:3996   */\n      dup6\n        /* \"#utility.yul\":3985:4008   */\n      sub\n        /* \"#utility.yul\":3981:4013   */\n      slt\n        /* \"#utility.yul\":3978:4097   */\n      iszero\n      tag_335\n      jumpi\n        /* \"#utility.yul\":4016:4095   */\n      tag_336\n      tag_311\n      jump\t// in\n    tag_336:\n        /* \"#utility.yul\":3978:4097   */\n    tag_335:\n        /* \"#utility.yul\":4136:4137   */\n      0x00\n        /* \"#utility.yul\":4161:4214   */\n      tag_337\n        /* \"#utility.yul\":4206:4213   */\n      dup6\n        /* \"#utility.yul\":4197:4203   */\n      dup3\n        /* \"#utility.yul\":4186:4195   */\n      dup7\n        /* \"#utility.yul\":4182:4204   */\n      add\n        /* \"#utility.yul\":4161:4214   */\n      tag_283\n      jump\t// in\n    tag_337:\n        /* \"#utility.yul\":4151:4214   */\n      swap3\n      pop\n        /* \"#utility.yul\":4107:4224   */\n      pop\n        /* \"#utility.yul\":4263:4265   */\n      0x20\n        /* \"#utility.yul\":4289:4339   */\n      tag_338\n        /* \"#utility.yul\":4331:4338   */\n      dup6\n        /* \"#utility.yul\":4322:4328   */\n      dup3\n        /* \"#utility.yul\":4311:4320   */\n      dup7\n        /* \"#utility.yul\":4307:4329   */\n      add\n        /* \"#utility.yul\":4289:4339   */\n      tag_287\n      jump\t// in\n    tag_338:\n        /* \"#utility.yul\":4279:4339   */\n      swap2\n      pop\n        /* \"#utility.yul\":4234:4349   */\n      pop\n        /* \"#utility.yul\":3888:4356   */\n      swap3\n      pop\n      swap3\n      swap1\n      pop\n      jump\t// out\n        /* \"#utility.yul\":4362:4836   */\n    tag_47:\n        /* \"#utility.yul\":4430:4436   */\n      0x00\n        /* \"#utility.yul\":4438:4444   */\n      dup1\n        /* \"#utility.yul\":4487:4489   */\n      0x40\n        /* \"#utility.yul\":4475:4484   */\n      dup4\n        /* \"#utility.yul\":4466:4473   */\n      dup6\n        /* \"#utility.yul\":4462:4485   */\n      sub\n        /* \"#utility.yul\":4458:4490   */\n      slt\n        /* \"#utility.yul\":4455:4574   */\n      iszero\n      tag_340\n      jumpi\n        /* \"#utility.yul\":4493:4572   */\n      tag_341\n      tag_311\n      jump\t// in\n    tag_341:\n        /* \"#utility.yul\":4455:4574   */\n    tag_340:\n        /* \"#utility.yul\":4613:4614   */\n      0x00\n        /* \"#utility.yul\":4638:4691   */\n      tag_342\n        /* \"#utility.yul\":4683:4690   */\n      dup6\n        /* \"#utility.yul\":4674:4680   */\n      dup3\n        /* \"#utility.yul\":4663:4672   */\n      dup7\n        /* \"#utility.yul\":4659:4681   */\n      add\n        /* \"#utility.yul\":4638:4691   */\n      tag_283\n      jump\t// in\n    tag_342:\n        /* \"#utility.yul\":4628:4691   */\n      swap3\n      pop\n        /* \"#utility.yul\":4584:4701   */\n      pop\n        /* \"#utility.yul\":4740:4742   */\n      0x20\n        /* \"#utility.yul\":4766:4819   */\n      tag_343\n        /* \"#utility.yul\":4811:4818   */\n      dup6\n        /* \"#utility.yul\":4802:4808   */\n      dup3\n        /* \"#utility.yul\":4791:4800   */\n      dup7\n        /* \"#utility.yul\":4787:4809   */\n      add\n        /* \"#utility.yul\":4766:4819   */\n      tag_304\n      jump\t// in\n    tag_343:\n        /* \"#utility.yul\":4756:4819   */\n      swap2\n      pop\n        /* \"#utility.yul\":4711:4829   */\n      pop\n        /* \"#utility.yul\":4362:4836   */\n      swap3\n      pop\n      swap3\n      swap1\n      pop\n      jump\t// out\n        /* \"#utility.yul\":4842:5169   */\n    tag_28:\n        /* \"#utility.yul\":4900:4906   */\n      0x00\n        /* \"#utility.yul\":4949:4951   */\n      0x20\n        /* \"#utility.yul\":4937:4946   */\n      dup3\n        /* \"#utility.yul\":4928:4935   */\n      dup5\n        /* \"#utility.yul\":4924:4947   */\n      sub\n        /* \"#utility.yul\":4920:4952   */\n      slt\n        /* \"#utility.yul\":4917:5036   */\n      iszero\n      tag_345\n      jumpi\n        /* \"#utility.yul\":4955:5034   */\n      tag_346\n      tag_311\n      jump\t// in\n    tag_346:\n        /* \"#utility.yul\":4917:5036   */\n    tag_345:\n        /* \"#utility.yul\":5075:5076   */\n      0x00\n        /* \"#utility.yul\":5100:5152   */\n      tag_347\n        /* \"#utility.yul\":5144:5151   */\n      dup5\n        /* \"#utility.yul\":5135:5141   */\n      dup3\n        /* \"#utility.yul\":5124:5133   */\n      dup6\n        /* \"#utility.yul\":5120:5142   */\n      add\n        /* \"#utility.yul\":5100:5152   */\n      tag_291\n      jump\t// in\n    tag_347:\n        /* \"#utility.yul\":5090:5152   */\n      swap2\n      pop\n        /* \"#utility.yul\":5046:5162   */\n      pop\n        /* \"#utility.yul\":4842:5169   */\n      swap3\n      swap2\n      pop\n      pop\n      jump\t// out\n        /* \"#utility.yul\":5175:5524   */\n    tag_258:\n        /* \"#utility.yul\":5244:5250   */\n      0x00\n        /* \"#utility.yul\":5293:5295   */\n      0x20\n        /* \"#utility.yul\":5281:5290   */\n      dup3\n        /* \"#utility.yul\":5272:5279   */\n      dup5\n        /* \"#utility.yul\":5268:5291   */\n      sub\n        /* \"#utility.yul\":5264:5296   */\n      slt\n        /* \"#utility.yul\":5261:5380   */\n      iszero\n      tag_349\n      jumpi\n        /* \"#utility.yul\":5299:5378   */\n      tag_350\n      tag_311\n      jump\t// in\n    tag_350:\n        /* \"#utility.yul\":5261:5380   */\n    tag_349:\n        /* \"#utility.yul\":5419:5420   */\n      0x00\n        /* \"#utility.yul\":5444:5507   */\n      tag_351\n        /* \"#utility.yul\":5499:5506   */\n      dup5\n        /* \"#utility.yul\":5490:5496   */\n      dup3\n        /* \"#utility.yul\":5479:5488   */\n      dup6\n        /* \"#utility.yul\":5475:5497   */\n      add\n        /* \"#utility.yul\":5444:5507   */\n      tag_295\n      jump\t// in\n    tag_351:\n        /* \"#utility.yul\":5434:5507   */\n      swap2\n      pop\n        /* \"#utility.yul\":5390:5517   */\n      pop\n        /* \"#utility.yul\":5175:5524   */\n      swap3\n      swap2\n      pop\n      pop\n      jump\t// out\n        /* \"#utility.yul\":5530:5859   */\n    tag_40:\n        /* \"#utility.yul\":5589:5595   */\n      0x00\n        /* \"#utility.yul\":5638:5640   */\n      0x20\n        /* \"#utility.yul\":5626:5635   */\n      dup3\n        /* \"#utility.yul\":5617:5624   */\n      dup5\n        /* \"#utility.yul\":5613:5636   */\n      sub\n        /* \"#utility.yul\":5609:5641   */\n      slt\n        /* \"#utility.yul\":5606:5725   */\n      iszero\n      tag_353\n      jumpi\n        /* \"#utility.yul\":5644:5723   */\n      tag_354\n      tag_311\n      jump\t// in\n    tag_354:\n        /* \"#utility.yul\":5606:5725   */\n    tag_353:\n        /* \"#utility.yul\":5764:5765   */\n      0x00\n        /* \"#utility.yul\":5789:5842   */\n      tag_355\n        /* \"#utility.yul\":5834:5841   */\n      dup5\n        /* \"#utility.yul\":5825:5831   */\n      dup3\n        /* \"#utility.yul\":5814:5823   */\n      dup6\n        /* \"#utility.yul\":5810:5832   */\n      add\n        /* \"#utility.yul\":5789:5842   */\n      tag_304\n      jump\t// in\n    tag_355:\n        /* \"#utility.yul\":5779:5842   */\n      swap2\n      pop\n        /* \"#utility.yul\":5735:5852   */\n      pop\n        /* \"#utility.yul\":5530:5859   */\n      swap3\n      swap2\n      pop\n      pop\n      jump\t// out\n        /* \"#utility.yul\":5865:5983   */\n    tag_356:\n        /* \"#utility.yul\":5952:5976   */\n      tag_358\n        /* \"#utility.yul\":5970:5975   */\n      dup2\n        /* \"#utility.yul\":5952:5976   */\n      tag_359\n      jump\t// in\n    tag_358:\n        /* \"#utility.yul\":5947:5950   */\n      dup3\n        /* \"#utility.yul\":5940:5977   */\n      mstore\n        /* \"#utility.yul\":5865:5983   */\n      pop\n      pop\n      jump\t// out\n        /* \"#utility.yul\":5989:6098   */\n    tag_360:\n        /* \"#utility.yul\":6070:6091   */\n      tag_362\n        /* \"#utility.yul\":6085:6090   */\n      dup2\n        /* \"#utility.yul\":6070:6091   */\n      tag_363\n      jump\t// in\n    tag_362:\n        /* \"#utility.yul\":6065:6068   */\n      dup3\n        /* \"#utility.yul\":6058:6092   */\n      mstore\n        /* \"#utility.yul\":5989:6098   */\n      pop\n      pop\n      jump\t// out\n        /* \"#utility.yul\":6104:6464   */\n    tag_364:\n        /* \"#utility.yul\":6190:6193   */\n      0x00\n        /* \"#utility.yul\":6218:6256   */\n      tag_366\n        /* \"#utility.yul\":6250:6255   */\n      dup3\n        /* \"#utility.yul\":6218:6256   */\n      tag_367\n      jump\t// in\n    tag_366:\n        /* \"#utility.yul\":6272:6342   */\n      tag_368\n        /* \"#utility.yul\":6335:6341   */\n      dup2\n        /* \"#utility.yul\":6330:6333   */\n      dup6\n        /* \"#utility.yul\":6272:6342   */\n      tag_369\n      jump\t// in\n    tag_368:\n        /* \"#utility.yul\":6265:6342   */\n      swap4\n      pop\n        /* \"#utility.yul\":6351:6403   */\n      tag_370\n        /* \"#utility.yul\":6396:6402   */\n      dup2\n        /* \"#utility.yul\":6391:6394   */\n      dup6\n        /* \"#utility.yul\":6384:6388   */\n      0x20\n        /* \"#utility.yul\":6377:6382   */\n      dup7\n        /* \"#utility.yul\":6373:6389   */\n      add\n        /* \"#utility.yul\":6351:6403   */\n      tag_371\n      jump\t// in\n    tag_370:\n        /* \"#utility.yul\":6428:6457   */\n      tag_372\n        /* \"#utility.yul\":6450:6456   */\n      dup2\n        /* \"#utility.yul\":6428:6457   */\n      tag_373\n      jump\t// in\n    tag_372:\n        /* \"#utility.yul\":6423:6426   */\n      dup5\n        /* \"#utility.yul\":6419:6458   */\n      add\n        /* \"#utility.yul\":6412:6458   */\n      swap2\n      pop\n        /* \"#utility.yul\":6194:6464   */\n      pop\n        /* \"#utility.yul\":6104:6464   */\n      swap3\n      swap2\n      pop\n      pop\n      jump\t// out\n        /* \"#utility.yul\":6470:6834   */\n    tag_374:\n        /* \"#utility.yul\":6558:6561   */\n      0x00\n        /* \"#utility.yul\":6586:6625   */\n      tag_376\n        /* \"#utility.yul\":6619:6624   */\n      dup3\n        /* \"#utility.yul\":6586:6625   */\n      tag_377\n      jump\t// in\n    tag_376:\n        /* \"#utility.yul\":6641:6712   */\n      tag_378\n        /* \"#utility.yul\":6705:6711   */\n      dup2\n        /* \"#utility.yul\":6700:6703   */\n      dup6\n        /* \"#utility.yul\":6641:6712   */\n      tag_379\n      jump\t// in\n    tag_378:\n        /* \"#utility.yul\":6634:6712   */\n      swap4\n      pop\n        /* \"#utility.yul\":6721:6773   */\n      tag_380\n        /* \"#utility.yul\":6766:6772   */\n      dup2\n        /* \"#utility.yul\":6761:6764   */\n      dup6\n        /* \"#utility.yul\":6754:6758   */\n      0x20\n        /* \"#utility.yul\":6747:6752   */\n      dup7\n        /* \"#utility.yul\":6743:6759   */\n      add\n        /* \"#utility.yul\":6721:6773   */\n      tag_371\n      jump\t// in\n    tag_380:\n        /* \"#utility.yul\":6798:6827   */\n      tag_381\n        /* \"#utility.yul\":6820:6826   */\n      dup2\n        /* \"#utility.yul\":6798:6827   */\n      tag_373\n      jump\t// in\n    tag_381:\n        /* \"#utility.yul\":6793:6796   */\n      dup5\n        /* \"#utility.yul\":6789:6828   */\n      add\n        /* \"#utility.yul\":6782:6828   */\n      swap2\n      pop\n        /* \"#utility.yul\":6562:6834   */\n      pop\n        /* \"#utility.yul\":6470:6834   */\n      swap3\n      swap2\n      pop\n      pop\n      jump\t// out\n        /* \"#utility.yul\":6840:7217   */\n    tag_382:\n        /* \"#utility.yul\":6946:6949   */\n      0x00\n        /* \"#utility.yul\":6974:7013   */\n      tag_384\n        /* \"#utility.yul\":7007:7012   */\n      dup3\n        /* \"#utility.yul\":6974:7013   */\n      tag_377\n      jump\t// in\n    tag_384:\n        /* \"#utility.yul\":7029:7118   */\n      tag_385\n        /* \"#utility.yul\":7111:7117   */\n      dup2\n        /* \"#utility.yul\":7106:7109   */\n      dup6\n        /* \"#utility.yul\":7029:7118   */\n      tag_386\n      jump\t// in\n    tag_385:\n        /* \"#utility.yul\":7022:7118   */\n      swap4\n      pop\n        /* \"#utility.yul\":7127:7179   */\n      tag_387\n        /* \"#utility.yul\":7172:7178   */\n      dup2\n        /* \"#utility.yul\":7167:7170   */\n      dup6\n        /* \"#utility.yul\":7160:7164   */\n      0x20\n        /* \"#utility.yul\":7153:7158   */\n      dup7\n        /* \"#utility.yul\":7149:7165   */\n      add\n        /* \"#utility.yul\":7127:7179   */\n      tag_371\n      jump\t// in\n    tag_387:\n        /* \"#utility.yul\":7204:7210   */\n      dup1\n        /* \"#utility.yul\":7199:7202   */\n      dup5\n        /* \"#utility.yul\":7195:7211   */\n      add\n        /* \"#utility.yul\":7188:7211   */\n      swap2\n      pop\n        /* \"#utility.yul\":6950:7217   */\n      pop\n        /* \"#utility.yul\":6840:7217   */\n      swap3\n      swap2\n      pop\n      pop\n      jump\t// out\n        /* \"#utility.yul\":7223:7589   */\n    tag_388:\n        /* \"#utility.yul\":7365:7368   */\n      0x00\n        /* \"#utility.yul\":7386:7453   */\n      tag_390\n        /* \"#utility.yul\":7450:7452   */\n      0x16\n        /* \"#utility.yul\":7445:7448   */\n      dup4\n        /* \"#utility.yul\":7386:7453   */\n      tag_379\n      jump\t// in\n    tag_390:\n        /* \"#utility.yul\":7379:7453   */\n      swap2\n      pop\n        /* \"#utility.yul\":7462:7555   */\n      tag_391\n        /* \"#utility.yul\":7551:7554   */\n      dup3\n        /* \"#utility.yul\":7462:7555   */\n      tag_392\n      jump\t// in\n    tag_391:\n        /* \"#utility.yul\":7580:7582   */\n      0x20\n        /* \"#utility.yul\":7575:7578   */\n      dup3\n        /* \"#utility.yul\":7571:7583   */\n      add\n        /* \"#utility.yul\":7564:7583   */\n      swap1\n      pop\n        /* \"#utility.yul\":7223:7589   */\n      swap2\n      swap1\n      pop\n      jump\t// out\n        /* \"#utility.yul\":7595:7961   */\n    tag_393:\n        /* \"#utility.yul\":7737:7740   */\n      0x00\n        /* \"#utility.yul\":7758:7825   */\n      tag_395\n        /* \"#utility.yul\":7822:7824   */\n      0x0e\n        /* \"#utility.yul\":7817:7820   */\n      dup4\n        /* \"#utility.yul\":7758:7825   */\n      tag_379\n      jump\t// in\n    tag_395:\n        /* \"#utility.yul\":7751:7825   */\n      swap2\n      pop\n        /* \"#utility.yul\":7834:7927   */\n      tag_396\n        /* \"#utility.yul\":7923:7926   */\n      dup3\n        /* \"#utility.yul\":7834:7927   */\n      tag_397\n      jump\t// in\n    tag_396:\n        /* \"#utility.yul\":7952:7954   */\n      0x20\n        /* \"#utility.yul\":7947:7950   */\n      dup3\n        /* \"#utility.yul\":7943:7955   */\n      add\n        /* \"#utility.yul\":7936:7955   */\n      swap1\n      pop\n        /* \"#utility.yul\":7595:7961   */\n      swap2\n      swap1\n      pop\n      jump\t// out\n        /* \"#utility.yul\":7967:8333   */\n    tag_398:\n        /* \"#utility.yul\":8109:8112   */\n      0x00\n        /* \"#utility.yul\":8130:8197   */\n      tag_400\n        /* \"#utility.yul\":8194:8196   */\n      0x1c\n        /* \"#utility.yul\":8189:8192   */\n      dup4\n        /* \"#utility.yul\":8130:8197   */\n      tag_379\n      jump\t// in\n    tag_400:\n        /* \"#utility.yul\":8123:8197   */\n      swap2\n      pop\n        /* \"#utility.yul\":8206:8299   */\n      tag_401\n        /* \"#utility.yul\":8295:8298   */\n      dup3\n        /* \"#utility.yul\":8206:8299   */\n      tag_402\n      jump\t// in\n    tag_401:\n        /* \"#utility.yul\":8324:8326   */\n      0x20\n        /* \"#utility.yul\":8319:8322   */\n      dup3\n        /* \"#utility.yul\":8315:8327   */\n      add\n        /* \"#utility.yul\":8308:8327   */\n      swap1\n      pop\n        /* \"#utility.yul\":7967:8333   */\n      swap2\n      swap1\n      pop\n      jump\t// out\n        /* \"#utility.yul\":8339:8705   */\n    tag_403:\n        /* \"#utility.yul\":8481:8484   */\n      0x00\n        /* \"#utility.yul\":8502:8569   */\n      tag_405\n        /* \"#utility.yul\":8566:8568   */\n      0x1e\n        /* \"#utility.yul\":8561:8564   */\n      dup4\n        /* \"#utility.yul\":8502:8569   */\n      tag_379\n      jump\t// in\n    tag_405:\n        /* \"#utility.yul\":8495:8569   */\n      swap2\n      pop\n        /* \"#utility.yul\":8578:8671   */\n      tag_406\n        /* \"#utility.yul\":8667:8670   */\n      dup3\n        /* \"#utility.yul\":8578:8671   */\n      tag_407\n      jump\t// in\n    tag_406:\n        /* \"#utility.yul\":8696:8698   */\n      0x20\n        /* \"#utility.yul\":8691:8694   */\n      dup3\n        /* \"#utility.yul\":8687:8699   */\n      add\n        /* \"#utility.yul\":8680:8699   */\n      swap1\n      pop\n        /* \"#utility.yul\":8339:8705   */\n      swap2\n      swap1\n      pop\n      jump\t// out\n        /* \"#utility.yul\":8711:9077   */\n    tag_408:\n        /* \"#utility.yul\":8853:8856   */\n      0x00\n        /* \"#utility.yul\":8874:8941   */\n      tag_410\n        /* \"#utility.yul\":8938:8940   */\n      0x13\n        /* \"#utility.yul\":8933:8936   */\n      dup4\n        /* \"#utility.yul\":8874:8941   */\n      tag_379\n      jump\t// in\n    tag_410:\n        /* \"#utility.yul\":8867:8941   */\n      swap2\n      pop\n        /* \"#utility.yul\":8950:9043   */\n      tag_411\n        /* \"#utility.yul\":9039:9042   */\n      dup3\n        /* \"#utility.yul\":8950:9043   */\n      tag_412\n      jump\t// in\n    tag_411:\n        /* \"#utility.yul\":9068:9070   */\n      0x20\n        /* \"#utility.yul\":9063:9066   */\n      dup3\n        /* \"#utility.yul\":9059:9071   */\n      add\n        /* \"#utility.yul\":9052:9071   */\n      swap1\n      pop\n        /* \"#utility.yul\":8711:9077   */\n      swap2\n      swap1\n      pop\n      jump\t// out\n        /* \"#utility.yul\":9083:9449   */\n    tag_413:\n        /* \"#utility.yul\":9225:9228   */\n      0x00\n        /* \"#utility.yul\":9246:9313   */\n      tag_415\n        /* \"#utility.yul\":9310:9312   */\n      0x14\n        /* \"#utility.yul\":9305:9308   */\n      dup4\n        /* \"#utility.yul\":9246:9313   */\n      tag_379\n      jump\t// in\n    tag_415:\n        /* \"#utility.yul\":9239:9313   */\n      swap2\n      pop\n        /* \"#utility.yul\":9322:9415   */\n      tag_416\n        /* \"#utility.yul\":9411:9414   */\n      dup3\n        /* \"#utility.yul\":9322:9415   */\n      tag_417\n      jump\t// in\n    tag_416:\n        /* \"#utility.yul\":9440:9442   */\n      0x20\n        /* \"#utility.yul\":9435:9438   */\n      dup3\n        /* \"#utility.yul\":9431:9443   */\n      add\n        /* \"#utility.yul\":9424:9443   */\n      swap1\n      pop\n        /* \"#utility.yul\":9083:9449   */\n      swap2\n      swap1\n      pop\n      jump\t// out\n        /* \"#utility.yul\":9455:9821   */\n    tag_418:\n        /* \"#utility.yul\":9597:9600   */\n      0x00\n        /* \"#utility.yul\":9618:9685   */\n      tag_420\n        /* \"#utility.yul\":9682:9684   */\n      0x0f\n        /* \"#utility.yul\":9677:9680   */\n      dup4\n        /* \"#utility.yul\":9618:9685   */\n      tag_379\n      jump\t// in\n    tag_420:\n        /* \"#utility.yul\":9611:9685   */\n      swap2\n      pop\n        /* \"#utility.yul\":9694:9787   */\n      tag_421\n        /* \"#utility.yul\":9783:9786   */\n      dup3\n        /* \"#utility.yul\":9694:9787   */\n      tag_422\n      jump\t// in\n    tag_421:\n        /* \"#utility.yul\":9812:9814   */\n      0x20\n        /* \"#utility.yul\":9807:9810   */\n      dup3\n        /* \"#utility.yul\":9803:9815   */\n      add\n        /* \"#utility.yul\":9796:9815   */\n      swap1\n      pop\n        /* \"#utility.yul\":9455:9821   */\n      swap2\n      swap1\n      pop\n      jump\t// out\n        /* \"#utility.yul\":9827:10193   */\n    tag_423:\n        /* \"#utility.yul\":9969:9972   */\n      0x00\n        /* \"#utility.yul\":9990:10057   */\n      tag_425\n        /* \"#utility.yul\":10054:10056   */\n      0x25\n        /* \"#utility.yul\":10049:10052   */\n      dup4\n        /* \"#utility.yul\":9990:10057   */\n      tag_379\n      jump\t// in\n    tag_425:\n        /* \"#utility.yul\":9983:10057   */\n      swap2\n      pop\n        /* \"#utility.yul\":10066:10159   */\n      tag_426\n        /* \"#utility.yul\":10155:10158   */\n      dup3\n        /* \"#utility.yul\":10066:10159   */\n      tag_427\n      jump\t// in\n    tag_426:\n        /* \"#utility.yul\":10184:10186   */\n      0x40\n        /* \"#utility.yul\":10179:10182   */\n      dup3\n        /* \"#utility.yul\":10175:10187   */\n      add\n        /* \"#utility.yul\":10168:10187   */\n      swap1\n      pop\n        /* \"#utility.yul\":9827:10193   */\n      swap2\n      swap1\n      pop\n      jump\t// out\n        /* \"#utility.yul\":10199:10564   */\n    tag_428:\n        /* \"#utility.yul\":10341:10344   */\n      0x00\n        /* \"#utility.yul\":10362:10428   */\n      tag_430\n        /* \"#utility.yul\":10426:10427   */\n      0x09\n        /* \"#utility.yul\":10421:10424   */\n      dup4\n        /* \"#utility.yul\":10362:10428   */\n      tag_379\n      jump\t// in\n    tag_430:\n        /* \"#utility.yul\":10355:10428   */\n      swap2\n      pop\n        /* \"#utility.yul\":10437:10530   */\n      tag_431\n        /* \"#utility.yul\":10526:10529   */\n      dup3\n        /* \"#utility.yul\":10437:10530   */\n      tag_432\n      jump\t// in\n    tag_431:\n        /* \"#utility.yul\":10555:10557   */\n      0x20\n        /* \"#utility.yul\":10550:10553   */\n      dup3\n        /* \"#utility.yul\":10546:10558   */\n      add\n        /* \"#utility.yul\":10539:10558   */\n      swap1\n      pop\n        /* \"#utility.yul\":10199:10564   */\n      swap2\n      swap1\n      pop\n      jump\t// out\n        /* \"#utility.yul\":10570:10688   */\n    tag_433:\n        /* \"#utility.yul\":10657:10681   */\n      tag_435\n        /* \"#utility.yul\":10675:10680   */\n      dup2\n        /* \"#utility.yul\":10657:10681   */\n      tag_436\n      jump\t// in\n    tag_435:\n        /* \"#utility.yul\":10652:10655   */\n      dup3\n        /* \"#utility.yul\":10645:10682   */\n      mstore\n        /* \"#utility.yul\":10570:10688   */\n      pop\n      pop\n      jump\t// out\n        /* \"#utility.yul\":10694:11129   */\n    tag_199:\n        /* \"#utility.yul\":10874:10877   */\n      0x00\n        /* \"#utility.yul\":10896:10991   */\n      tag_438\n        /* \"#utility.yul\":10987:10990   */\n      dup3\n        /* \"#utility.yul\":10978:10984   */\n      dup6\n        /* \"#utility.yul\":10896:10991   */\n      tag_382\n      jump\t// in\n    tag_438:\n        /* \"#utility.yul\":10889:10991   */\n      swap2\n      pop\n        /* \"#utility.yul\":11008:11103   */\n      tag_439\n        /* \"#utility.yul\":11099:11102   */\n      dup3\n        /* \"#utility.yul\":11090:11096   */\n      dup5\n        /* \"#utility.yul\":11008:11103   */\n      tag_382\n      jump\t// in\n    tag_439:\n        /* \"#utility.yul\":11001:11103   */\n      swap2\n      pop\n        /* \"#utility.yul\":11120:11123   */\n      dup2\n        /* \"#utility.yul\":11113:11123   */\n      swap1\n      pop\n        /* \"#utility.yul\":10694:11129   */\n      swap4\n      swap3\n      pop\n      pop\n      pop\n      jump\t// out\n        /* \"#utility.yul\":11135:11357   */\n    tag_43:\n        /* \"#utility.yul\":11228:11232   */\n      0x00\n        /* \"#utility.yul\":11266:11268   */\n      0x20\n        /* \"#utility.yul\":11255:11264   */\n      dup3\n        /* \"#utility.yul\":11251:11269   */\n      add\n        /* \"#utility.yul\":11243:11269   */\n      swap1\n      pop\n        /* \"#utility.yul\":11279:11350   */\n      tag_441\n        /* \"#utility.yul\":11347:11348   */\n      0x00\n        /* \"#utility.yul\":11336:11345   */\n      dup4\n        /* \"#utility.yul\":11332:11349   */\n      add\n        /* \"#utility.yul\":11323:11329   */\n      dup5\n        /* \"#utility.yul\":11279:11350   */\n      tag_356\n      jump\t// in\n    tag_441:\n        /* \"#utility.yul\":11135:11357   */\n      swap3\n      swap2\n      pop\n      pop\n      jump\t// out\n        /* \"#utility.yul\":11363:11805   */\n    tag_152:\n        /* \"#utility.yul\":11512:11516   */\n      0x00\n        /* \"#utility.yul\":11550:11552   */\n      0x60\n        /* \"#utility.yul\":11539:11548   */\n      dup3\n        /* \"#utility.yul\":11535:11553   */\n      add\n        /* \"#utility.yul\":11527:11553   */\n      swap1\n      pop\n        /* \"#utility.yul\":11563:11634   */\n      tag_443\n        /* \"#utility.yul\":11631:11632   */\n      0x00\n        /* \"#utility.yul\":11620:11629   */\n      dup4\n        /* \"#utility.yul\":11616:11633   */\n      add\n        /* \"#utility.yul\":11607:11613   */\n      dup7\n        /* \"#utility.yul\":11563:11634   */\n      tag_356\n      jump\t// in\n    tag_443:\n        /* \"#utility.yul\":11644:11716   */\n      tag_444\n        /* \"#utility.yul\":11712:11714   */\n      0x20\n        /* \"#utility.yul\":11701:11710   */\n      dup4\n        /* \"#utility.yul\":11697:11715   */\n      add\n        /* \"#utility.yul\":11688:11694   */\n      dup6\n        /* \"#utility.yul\":11644:11716   */\n      tag_356\n      jump\t// in\n    tag_444:\n        /* \"#utility.yul\":11726:11798   */\n      tag_445\n        /* \"#utility.yul\":11794:11796   */\n      0x40\n        /* \"#utility.yul\":11783:11792   */\n      dup4\n        /* \"#utility.yul\":11779:11797   */\n      add\n        /* \"#utility.yul\":11770:11776   */\n      dup5\n        /* \"#utility.yul\":11726:11798   */\n      tag_433\n      jump\t// in\n    tag_445:\n        /* \"#utility.yul\":11363:11805   */\n      swap5\n      swap4\n      pop\n      pop\n      pop\n      pop\n      jump\t// out\n        /* \"#utility.yul\":11811:12451   */\n    tag_254:\n        /* \"#utility.yul\":12006:12010   */\n      0x00\n        /* \"#utility.yul\":12044:12047   */\n      0x80\n        /* \"#utility.yul\":12033:12042   */\n      dup3\n        /* \"#utility.yul\":12029:12048   */\n      add\n        /* \"#utility.yul\":12021:12048   */\n      swap1\n      pop\n        /* \"#utility.yul\":12058:12129   */\n      tag_447\n        /* \"#utility.yul\":12126:12127   */\n      0x00\n        /* \"#utility.yul\":12115:12124   */\n      dup4\n        /* \"#utility.yul\":12111:12128   */\n      add\n        /* \"#utility.yul\":12102:12108   */\n      dup8\n        /* \"#utility.yul\":12058:12129   */\n      tag_356\n      jump\t// in\n    tag_447:\n        /* \"#utility.yul\":12139:12211   */\n      tag_448\n        /* \"#utility.yul\":12207:12209   */\n      0x20\n        /* \"#utility.yul\":12196:12205   */\n      dup4\n        /* \"#utility.yul\":12192:12210   */\n      add\n        /* \"#utility.yul\":12183:12189   */\n      dup7\n        /* \"#utility.yul\":12139:12211   */\n      tag_356\n      jump\t// in\n    tag_448:\n        /* \"#utility.yul\":12221:12293   */\n      tag_449\n        /* \"#utility.yul\":12289:12291   */\n      0x40\n        /* \"#utility.yul\":12278:12287   */\n      dup4\n        /* \"#utility.yul\":12274:12292   */\n      add\n        /* \"#utility.yul\":12265:12271   */\n      dup6\n        /* \"#utility.yul\":12221:12293   */\n      tag_433\n      jump\t// in\n    tag_449:\n        /* \"#utility.yul\":12340:12349   */\n      dup2\n        /* \"#utility.yul\":12334:12338   */\n      dup2\n        /* \"#utility.yul\":12330:12350   */\n      sub\n        /* \"#utility.yul\":12325:12327   */\n      0x60\n        /* \"#utility.yul\":12314:12323   */\n      dup4\n        /* \"#utility.yul\":12310:12328   */\n      add\n        /* \"#utility.yul\":12303:12351   */\n      mstore\n        /* \"#utility.yul\":12368:12444   */\n      tag_450\n        /* \"#utility.yul\":12439:12443   */\n      dup2\n        /* \"#utility.yul\":12430:12436   */\n      dup5\n        /* \"#utility.yul\":12368:12444   */\n      tag_364\n      jump\t// in\n    tag_450:\n        /* \"#utility.yul\":12360:12444   */\n      swap1\n      pop\n        /* \"#utility.yul\":11811:12451   */\n      swap6\n      swap5\n      pop\n      pop\n      pop\n      pop\n      pop\n      jump\t// out\n        /* \"#utility.yul\":12457:12667   */\n    tag_31:\n        /* \"#utility.yul\":12544:12548   */\n      0x00\n        /* \"#utility.yul\":12582:12584   */\n      0x20\n        /* \"#utility.yul\":12571:12580   */\n      dup3\n        /* \"#utility.yul\":12567:12585   */\n      add\n        /* \"#utility.yul\":12559:12585   */\n      swap1\n      pop\n        /* \"#utility.yul\":12595:12660   */\n      tag_452\n        /* \"#utility.yul\":12657:12658   */\n      0x00\n        /* \"#utility.yul\":12646:12655   */\n      dup4\n        /* \"#utility.yul\":12642:12659   */\n      add\n        /* \"#utility.yul\":12633:12639   */\n      dup5\n        /* \"#utility.yul\":12595:12660   */\n      tag_360\n      jump\t// in\n    tag_452:\n        /* \"#utility.yul\":12457:12667   */\n      swap3\n      swap2\n      pop\n      pop\n      jump\t// out\n        /* \"#utility.yul\":12673:12986   */\n    tag_36:\n        /* \"#utility.yul\":12786:12790   */\n      0x00\n        /* \"#utility.yul\":12824:12826   */\n      0x20\n        /* \"#utility.yul\":12813:12822   */\n      dup3\n        /* \"#utility.yul\":12809:12827   */\n      add\n        /* \"#utility.yul\":12801:12827   */\n      swap1\n      pop\n        /* \"#utility.yul\":12873:12882   */\n      dup2\n        /* \"#utility.yul\":12867:12871   */\n      dup2\n        /* \"#utility.yul\":12863:12883   */\n      sub\n        /* \"#utility.yul\":12859:12860   */\n      0x00\n        /* \"#utility.yul\":12848:12857   */\n      dup4\n        /* \"#utility.yul\":12844:12861   */\n      add\n        /* \"#utility.yul\":12837:12884   */\n      mstore\n        /* \"#utility.yul\":12901:12979   */\n      tag_454\n        /* \"#utility.yul\":12974:12978   */\n      dup2\n        /* \"#utility.yul\":12965:12971   */\n      dup5\n        /* \"#utility.yul\":12901:12979   */\n      tag_374\n      jump\t// in\n    tag_454:\n        /* \"#utility.yul\":12893:12979   */\n      swap1\n      pop\n        /* \"#utility.yul\":12673:12986   */\n      swap3\n      swap2\n      pop\n      pop\n      jump\t// out\n        /* \"#utility.yul\":12992:13411   */\n    tag_162:\n        /* \"#utility.yul\":13158:13162   */\n      0x00\n        /* \"#utility.yul\":13196:13198   */\n      0x20\n        /* \"#utility.yul\":13185:13194   */\n      dup3\n        /* \"#utility.yul\":13181:13199   */\n      add\n        /* \"#utility.yul\":13173:13199   */\n      swap1\n      pop\n        /* \"#utility.yul\":13245:13254   */\n      dup2\n        /* \"#utility.yul\":13239:13243   */\n      dup2\n        /* \"#utility.yul\":13235:13255   */\n      sub\n        /* \"#utility.yul\":13231:13232   */\n      0x00\n        /* \"#utility.yul\":13220:13229   */\n      dup4\n        /* \"#utility.yul\":13216:13233   */\n      add\n        /* \"#utility.yul\":13209:13256   */\n      mstore\n        /* \"#utility.yul\":13273:13404   */\n      tag_456\n        /* \"#utility.yul\":13399:13403   */\n      dup2\n        /* \"#utility.yul\":13273:13404   */\n      tag_388\n      jump\t// in\n    tag_456:\n        /* \"#utility.yul\":13265:13404   */\n      swap1\n      pop\n        /* \"#utility.yul\":12992:13411   */\n      swap2\n      swap1\n      pop\n      jump\t// out\n        /* \"#utility.yul\":13417:13836   */\n    tag_146:\n        /* \"#utility.yul\":13583:13587   */\n      0x00\n        /* \"#utility.yul\":13621:13623   */\n      0x20\n        /* \"#utility.yul\":13610:13619   */\n      dup3\n        /* \"#utility.yul\":13606:13624   */\n      add\n        /* \"#utility.yul\":13598:13624   */\n      swap1\n      pop\n        /* \"#utility.yul\":13670:13679   */\n      dup2\n        /* \"#utility.yul\":13664:13668   */\n      dup2\n        /* \"#utility.yul\":13660:13680   */\n      sub\n        /* \"#utility.yul\":13656:13657   */\n      0x00\n        /* \"#utility.yul\":13645:13654   */\n      dup4\n        /* \"#utility.yul\":13641:13658   */\n      add\n        /* \"#utility.yul\":13634:13681   */\n      mstore\n        /* \"#utility.yul\":13698:13829   */\n      tag_458\n        /* \"#utility.yul\":13824:13828   */\n      dup2\n        /* \"#utility.yul\":13698:13829   */\n      tag_393\n      jump\t// in\n    tag_458:\n        /* \"#utility.yul\":13690:13829   */\n      swap1\n      pop\n        /* \"#utility.yul\":13417:13836   */\n      swap2\n      swap1\n      pop\n      jump\t// out\n        /* \"#utility.yul\":13842:14261   */\n    tag_220:\n        /* \"#utility.yul\":14008:14012   */\n      0x00\n        /* \"#utility.yul\":14046:14048   */\n      0x20\n        /* \"#utility.yul\":14035:14044   */\n      dup3\n        /* \"#utility.yul\":14031:14049   */\n      add\n        /* \"#utility.yul\":14023:14049   */\n      swap1\n      pop\n        /* \"#utility.yul\":14095:14104   */\n      dup2\n        /* \"#utility.yul\":14089:14093   */\n      dup2\n        /* \"#utility.yul\":14085:14105   */\n      sub\n        /* \"#utility.yul\":14081:14082   */\n      0x00\n        /* \"#utility.yul\":14070:14079   */\n      dup4\n        /* \"#utility.yul\":14066:14083   */\n      add\n        /* \"#utility.yul\":14059:14106   */\n      mstore\n        /* \"#utility.yul\":14123:14254   */\n      tag_460\n        /* \"#utility.yul\":14249:14253   */\n      dup2\n        /* \"#utility.yul\":14123:14254   */\n      tag_398\n      jump\t// in\n    tag_460:\n        /* \"#utility.yul\":14115:14254   */\n      swap1\n      pop\n        /* \"#utility.yul\":13842:14261   */\n      swap2\n      swap1\n      pop\n      jump\t// out\n        /* \"#utility.yul\":14267:14686   */\n    tag_140:\n        /* \"#utility.yul\":14433:14437   */\n      0x00\n        /* \"#utility.yul\":14471:14473   */\n      0x20\n        /* \"#utility.yul\":14460:14469   */\n      dup3\n        /* \"#utility.yul\":14456:14474   */\n      add\n        /* \"#utility.yul\":14448:14474   */\n      swap1\n      pop\n        /* \"#utility.yul\":14520:14529   */\n      dup2\n        /* \"#utility.yul\":14514:14518   */\n      dup2\n        /* \"#utility.yul\":14510:14530   */\n      sub\n        /* \"#utility.yul\":14506:14507   */\n      0x00\n        /* \"#utility.yul\":14495:14504   */\n      dup4\n        /* \"#utility.yul\":14491:14508   */\n      add\n        /* \"#utility.yul\":14484:14531   */\n      mstore\n        /* \"#utility.yul\":14548:14679   */\n      tag_462\n        /* \"#utility.yul\":14674:14678   */\n      dup2\n        /* \"#utility.yul\":14548:14679   */\n      tag_403\n      jump\t// in\n    tag_462:\n        /* \"#utility.yul\":14540:14679   */\n      swap1\n      pop\n        /* \"#utility.yul\":14267:14686   */\n      swap2\n      swap1\n      pop\n      jump\t// out\n        /* \"#utility.yul\":14692:15111   */\n    tag_135:\n        /* \"#utility.yul\":14858:14862   */\n      0x00\n        /* \"#utility.yul\":14896:14898   */\n      0x20\n        /* \"#utility.yul\":14885:14894   */\n      dup3\n        /* \"#utility.yul\":14881:14899   */\n      add\n        /* \"#utility.yul\":14873:14899   */\n      swap1\n      pop\n        /* \"#utility.yul\":14945:14954   */\n      dup2\n        /* \"#utility.yul\":14939:14943   */\n      dup2\n        /* \"#utility.yul\":14935:14955   */\n      sub\n        /* \"#utility.yul\":14931:14932   */\n      0x00\n        /* \"#utility.yul\":14920:14929   */\n      dup4\n        /* \"#utility.yul\":14916:14933   */\n      add\n        /* \"#utility.yul\":14909:14956   */\n      mstore\n        /* \"#utility.yul\":14973:15104   */\n      tag_464\n        /* \"#utility.yul\":15099:15103   */\n      dup2\n        /* \"#utility.yul\":14973:15104   */\n      tag_408\n      jump\t// in\n    tag_464:\n        /* \"#utility.yul\":14965:15104   */\n      swap1\n      pop\n        /* \"#utility.yul\":14692:15111   */\n      swap2\n      swap1\n      pop\n      jump\t// out\n        /* \"#utility.yul\":15117:15536   */\n    tag_173:\n        /* \"#utility.yul\":15283:15287   */\n      0x00\n        /* \"#utility.yul\":15321:15323   */\n      0x20\n        /* \"#utility.yul\":15310:15319   */\n      dup3\n        /* \"#utility.yul\":15306:15324   */\n      add\n        /* \"#utility.yul\":15298:15324   */\n      swap1\n      pop\n        /* \"#utility.yul\":15370:15379   */\n      dup2\n        /* \"#utility.yul\":15364:15368   */\n      dup2\n        /* \"#utility.yul\":15360:15380   */\n      sub\n        /* \"#utility.yul\":15356:15357   */\n      0x00\n        /* \"#utility.yul\":15345:15354   */\n      dup4\n        /* \"#utility.yul\":15341:15358   */\n      add\n        /* \"#utility.yul\":15334:15381   */\n      mstore\n        /* \"#utility.yul\":15398:15529   */\n      tag_466\n        /* \"#utility.yul\":15524:15528   */\n      dup2\n        /* \"#utility.yul\":15398:15529   */\n      tag_413\n      jump\t// in\n    tag_466:\n        /* \"#utility.yul\":15390:15529   */\n      swap1\n      pop\n        /* \"#utility.yul\":15117:15536   */\n      swap2\n      swap1\n      pop\n      jump\t// out\n        /* \"#utility.yul\":15542:15961   */\n    tag_191:\n        /* \"#utility.yul\":15708:15712   */\n      0x00\n        /* \"#utility.yul\":15746:15748   */\n      0x20\n        /* \"#utility.yul\":15735:15744   */\n      dup3\n        /* \"#utility.yul\":15731:15749   */\n      add\n        /* \"#utility.yul\":15723:15749   */\n      swap1\n      pop\n        /* \"#utility.yul\":15795:15804   */\n      dup2\n        /* \"#utility.yul\":15789:15793   */\n      dup2\n        /* \"#utility.yul\":15785:15805   */\n      sub\n        /* \"#utility.yul\":15781:15782   */\n      0x00\n        /* \"#utility.yul\":15770:15779   */\n      dup4\n        /* \"#utility.yul\":15766:15783   */\n      add\n        /* \"#utility.yul\":15759:15806   */\n      mstore\n        /* \"#utility.yul\":15823:15954   */\n      tag_468\n        /* \"#utility.yul\":15949:15953   */\n      dup2\n        /* \"#utility.yul\":15823:15954   */\n      tag_418\n      jump\t// in\n    tag_468:\n        /* \"#utility.yul\":15815:15954   */\n      swap1\n      pop\n        /* \"#utility.yul\":15542:15961   */\n      swap2\n      swap1\n      pop\n      jump\t// out\n        /* \"#utility.yul\":15967:16386   */\n    tag_150:\n        /* \"#utility.yul\":16133:16137   */\n      0x00\n        /* \"#utility.yul\":16171:16173   */\n      0x20\n        /* \"#utility.yul\":16160:16169   */\n      dup3\n        /* \"#utility.yul\":16156:16174   */\n      add\n        /* \"#utility.yul\":16148:16174   */\n      swap1\n      pop\n        /* \"#utility.yul\":16220:16229   */\n      dup2\n        /* \"#utility.yul\":16214:16218   */\n      dup2\n        /* \"#utility.yul\":16210:16230   */\n      sub\n        /* \"#utility.yul\":16206:16207   */\n      0x00\n        /* \"#utility.yul\":16195:16204   */\n      dup4\n        /* \"#utility.yul\":16191:16208   */\n      add\n        /* \"#utility.yul\":16184:16231   */\n      mstore\n        /* \"#utility.yul\":16248:16379   */\n      tag_470\n        /* \"#utility.yul\":16374:16378   */\n      dup2\n        /* \"#utility.yul\":16248:16379   */\n      tag_423\n      jump\t// in\n    tag_470:\n        /* \"#utility.yul\":16240:16379   */\n      swap1\n      pop\n        /* \"#utility.yul\":15967:16386   */\n      swap2\n      swap1\n      pop\n      jump\t// out\n        /* \"#utility.yul\":16392:16811   */\n    tag_217:\n        /* \"#utility.yul\":16558:16562   */\n      0x00\n        /* \"#utility.yul\":16596:16598   */\n      0x20\n        /* \"#utility.yul\":16585:16594   */\n      dup3\n        /* \"#utility.yul\":16581:16599   */\n      add\n        /* \"#utility.yul\":16573:16599   */\n      swap1\n      pop\n        /* \"#utility.yul\":16645:16654   */\n      dup2\n        /* \"#utility.yul\":16639:16643   */\n      dup2\n        /* \"#utility.yul\":16635:16655   */\n      sub\n        /* \"#utility.yul\":16631:16632   */\n      0x00\n        /* \"#utility.yul\":16620:16629   */\n      dup4\n        /* \"#utility.yul\":16616:16633   */\n      add\n        /* \"#utility.yul\":16609:16656   */\n      mstore\n        /* \"#utility.yul\":16673:16804   */\n      tag_472\n        /* \"#utility.yul\":16799:16803   */\n      dup2\n        /* \"#utility.yul\":16673:16804   */\n      tag_428\n      jump\t// in\n    tag_472:\n        /* \"#utility.yul\":16665:16804   */\n      swap1\n      pop\n        /* \"#utility.yul\":16392:16811   */\n      swap2\n      swap1\n      pop\n      jump\t// out\n        /* \"#utility.yul\":16817:17039   */\n    tag_53:\n        /* \"#utility.yul\":16910:16914   */\n      0x00\n        /* \"#utility.yul\":16948:16950   */\n      0x20\n        /* \"#utility.yul\":16937:16946   */\n      dup3\n        /* \"#utility.yul\":16933:16951   */\n      add\n        /* \"#utility.yul\":16925:16951   */\n      swap1\n      pop\n        /* \"#utility.yul\":16961:17032   */\n      tag_474\n        /* \"#utility.yul\":17029:17030   */\n      0x00\n        /* \"#utility.yul\":17018:17027   */\n      dup4\n        /* \"#utility.yul\":17014:17031   */\n      add\n        /* \"#utility.yul\":17005:17011   */\n      dup5\n        /* \"#utility.yul\":16961:17032   */\n      tag_433\n      jump\t// in\n    tag_474:\n        /* \"#utility.yul\":16817:17039   */\n      swap3\n      swap2\n      pop\n      pop\n      jump\t// out\n        /* \"#utility.yul\":17045:17174   */\n    tag_277:\n        /* \"#utility.yul\":17079:17085   */\n      0x00\n        /* \"#utility.yul\":17106:17126   */\n      tag_476\n      tag_477\n      jump\t// in\n    tag_476:\n        /* \"#utility.yul\":17096:17126   */\n      swap1\n      pop\n        /* \"#utility.yul\":17135:17168   */\n      tag_478\n        /* \"#utility.yul\":17163:17167   */\n      dup3\n        /* \"#utility.yul\":17155:17161   */\n      dup3\n        /* \"#utility.yul\":17135:17168   */\n      tag_479\n      jump\t// in\n    tag_478:\n        /* \"#utility.yul\":17045:17174   */\n      swap2\n      swap1\n      pop\n      jump\t// out\n        /* \"#utility.yul\":17180:17255   */\n    tag_477:\n        /* \"#utility.yul\":17213:17219   */\n      0x00\n        /* \"#utility.yul\":17246:17248   */\n      0x40\n        /* \"#utility.yul\":17240:17249   */\n      mload\n        /* \"#utility.yul\":17230:17249   */\n      swap1\n      pop\n        /* \"#utility.yul\":17180:17255   */\n      swap1\n      jump\t// out\n        /* \"#utility.yul\":17261:17568   */\n    tag_276:\n        /* \"#utility.yul\":17322:17326   */\n      0x00\n        /* \"#utility.yul\":17412:17430   */\n      0xffffffffffffffff\n        /* \"#utility.yul\":17404:17410   */\n      dup3\n        /* \"#utility.yul\":17401:17431   */\n      gt\n        /* \"#utility.yul\":17398:17454   */\n      iszero\n      tag_482\n      jumpi\n        /* \"#utility.yul\":17434:17452   */\n      tag_483\n      tag_239\n      jump\t// in\n    tag_483:\n        /* \"#utility.yul\":17398:17454   */\n    tag_482:\n        /* \"#utility.yul\":17472:17501   */\n      tag_484\n        /* \"#utility.yul\":17494:17500   */\n      dup3\n        /* \"#utility.yul\":17472:17501   */\n      tag_373\n      jump\t// in\n    tag_484:\n        /* \"#utility.yul\":17464:17501   */\n      swap1\n      pop\n        /* \"#utility.yul\":17556:17560   */\n      0x20\n        /* \"#utility.yul\":17550:17554   */\n      dup2\n        /* \"#utility.yul\":17546:17561   */\n      add\n        /* \"#utility.yul\":17538:17561   */\n      swap1\n      pop\n        /* \"#utility.yul\":17261:17568   */\n      swap2\n      swap1\n      pop\n      jump\t// out\n        /* \"#utility.yul\":17574:17672   */\n    tag_367:\n        /* \"#utility.yul\":17625:17631   */\n      0x00\n        /* \"#utility.yul\":17659:17664   */\n      dup2\n        /* \"#utility.yul\":17653:17665   */\n      mload\n        /* \"#utility.yul\":17643:17665   */\n      swap1\n      pop\n        /* \"#utility.yul\":17574:17672   */\n      swap2\n      swap1\n      pop\n      jump\t// out\n        /* \"#utility.yul\":17678:17777   */\n    tag_377:\n        /* \"#utility.yul\":17730:17736   */\n      0x00\n        /* \"#utility.yul\":17764:17769   */\n      dup2\n        /* \"#utility.yul\":17758:17770   */\n      mload\n        /* \"#utility.yul\":17748:17770   */\n      swap1\n      pop\n        /* \"#utility.yul\":17678:17777   */\n      swap2\n      swap1\n      pop\n      jump\t// out\n        /* \"#utility.yul\":17783:17951   */\n    tag_369:\n        /* \"#utility.yul\":17866:17877   */\n      0x00\n        /* \"#utility.yul\":17900:17906   */\n      dup3\n        /* \"#utility.yul\":17895:17898   */\n      dup3\n        /* \"#utility.yul\":17888:17907   */\n      mstore\n        /* \"#utility.yul\":17940:17944   */\n      0x20\n        /* \"#utility.yul\":17935:17938   */\n      dup3\n        /* \"#utility.yul\":17931:17945   */\n      add\n        /* \"#utility.yul\":17916:17945   */\n      swap1\n      pop\n        /* \"#utility.yul\":17783:17951   */\n      swap3\n      swap2\n      pop\n      pop\n      jump\t// out\n        /* \"#utility.yul\":17957:18126   */\n    tag_379:\n        /* \"#utility.yul\":18041:18052   */\n      0x00\n        /* \"#utility.yul\":18075:18081   */\n      dup3\n        /* \"#utility.yul\":18070:18073   */\n      dup3\n        /* \"#utility.yul\":18063:18082   */\n      mstore\n        /* \"#utility.yul\":18115:18119   */\n      0x20\n        /* \"#utility.yul\":18110:18113   */\n      dup3\n        /* \"#utility.yul\":18106:18120   */\n      add\n        /* \"#utility.yul\":18091:18120   */\n      swap1\n      pop\n        /* \"#utility.yul\":17957:18126   */\n      swap3\n      swap2\n      pop\n      pop\n      jump\t// out\n        /* \"#utility.yul\":18132:18280   */\n    tag_386:\n        /* \"#utility.yul\":18234:18245   */\n      0x00\n        /* \"#utility.yul\":18271:18274   */\n      dup2\n        /* \"#utility.yul\":18256:18274   */\n      swap1\n      pop\n        /* \"#utility.yul\":18132:18280   */\n      swap3\n      swap2\n      pop\n      pop\n      jump\t// out\n        /* \"#utility.yul\":18286:18591   */\n    tag_224:\n        /* \"#utility.yul\":18326:18329   */\n      0x00\n        /* \"#utility.yul\":18345:18365   */\n      tag_491\n        /* \"#utility.yul\":18363:18364   */\n      dup3\n        /* \"#utility.yul\":18345:18365   */\n      tag_436\n      jump\t// in\n    tag_491:\n        /* \"#utility.yul\":18340:18365   */\n      swap2\n      pop\n        /* \"#utility.yul\":18379:18399   */\n      tag_492\n        /* \"#utility.yul\":18397:18398   */\n      dup4\n        /* \"#utility.yul\":18379:18399   */\n      tag_436\n      jump\t// in\n    tag_492:\n        /* \"#utility.yul\":18374:18399   */\n      swap3\n      pop\n        /* \"#utility.yul\":18533:18534   */\n      dup3\n        /* \"#utility.yul\":18465:18531   */\n      0xffffffffffffffffffffffffffffffffffffffffffffffffffffffffffffffff\n        /* \"#utility.yul\":18461:18535   */\n      sub\n        /* \"#utility.yul\":18458:18459   */\n      dup3\n        /* \"#utility.yul\":18455:18536   */\n      gt\n        /* \"#utility.yul\":18452:18559   */\n      iszero\n      tag_493\n      jumpi\n        /* \"#utility.yul\":18539:18557   */\n      tag_494\n      tag_495\n      jump\t// in\n    tag_494:\n        /* \"#utility.yul\":18452:18559   */\n    tag_493:\n        /* \"#utility.yul\":18583:18584   */\n      dup3\n        /* \"#utility.yul\":18580:18581   */\n      dup3\n        /* \"#utility.yul\":18576:18585   */\n      add\n        /* \"#utility.yul\":18569:18585   */\n      swap1\n      pop\n        /* \"#utility.yul\":18286:18591   */\n      swap3\n      swap2\n      pop\n      pop\n      jump\t// out\n        /* \"#utility.yul\":18597:18782   */\n    tag_205:\n        /* \"#utility.yul\":18637:18638   */\n      0x00\n        /* \"#utility.yul\":18654:18674   */\n      tag_497\n        /* \"#utility.yul\":18672:18673   */\n      dup3\n        /* \"#utility.yul\":18654:18674   */\n      tag_436\n      jump\t// in\n    tag_497:\n        /* \"#utility.yul\":18649:18674   */\n      swap2\n      pop\n        /* \"#utility.yul\":18688:18708   */\n      tag_498\n        /* \"#utility.yul\":18706:18707   */\n      dup4\n        /* \"#utility.yul\":18688:18708   */\n      tag_436\n      jump\t// in\n    tag_498:\n        /* \"#utility.yul\":18683:18708   */\n      swap3\n      pop\n        /* \"#utility.yul\":18727:18728   */\n      dup3\n        /* \"#utility.yul\":18717:18752   */\n      tag_499\n      jumpi\n        /* \"#utility.yul\":18732:18750   */\n      tag_500\n      tag_501\n      jump\t// in\n    tag_500:\n        /* \"#utility.yul\":18717:18752   */\n    tag_499:\n        /* \"#utility.yul\":18774:18775   */\n      dup3\n        /* \"#utility.yul\":18771:18772   */\n      dup3\n        /* \"#utility.yul\":18767:18776   */\n      div\n        /* \"#utility.yul\":18762:18776   */\n      swap1\n      pop\n        /* \"#utility.yul\":18597:18782   */\n      swap3\n      swap2\n      pop\n      pop\n      jump\t// out\n        /* \"#utility.yul\":18788:19136   */\n    tag_208:\n        /* \"#utility.yul\":18828:18835   */\n      0x00\n        /* \"#utility.yul\":18851:18871   */\n      tag_503\n        /* \"#utility.yul\":18869:18870   */\n      dup3\n        /* \"#utility.yul\":18851:18871   */\n      tag_436\n      jump\t// in\n    tag_503:\n        /* \"#utility.yul\":18846:18871   */\n      swap2\n      pop\n        /* \"#utility.yul\":18885:18905   */\n      tag_504\n        /* \"#utility.yul\":18903:18904   */\n      dup4\n        /* \"#utility.yul\":18885:18905   */\n      tag_436\n      jump\t// in\n    tag_504:\n        /* \"#utility.yul\":18880:18905   */\n      swap3\n      pop\n        /* \"#utility.yul\":19073:19074   */\n      dup2\n        /* \"#utility.yul\":19005:19071   */\n      0xffffffffffffffffffffffffffffffffffffffffffffffffffffffffffffffff\n        /* \"#utility.yul\":19001:19075   */\n      div\n        /* \"#utility.yul\":18998:18999   */\n      dup4\n        /* \"#utility.yul\":18995:19076   */\n      gt\n        /* \"#utility.yul\":18990:18991   */\n      dup3\n        /* \"#utility.yul\":18983:18992   */\n      iszero\n        /* \"#utility.yul\":18976:18993   */\n      iszero\n        /* \"#utility.yul\":18972:19077   */\n      and\n        /* \"#utility.yul\":18969:19100   */\n      iszero\n      tag_505\n      jumpi\n        /* \"#utility.yul\":19080:19098   */\n      tag_506\n      tag_495\n      jump\t// in\n    tag_506:\n        /* \"#utility.yul\":18969:19100   */\n    tag_505:\n        /* \"#utility.yul\":19128:19129   */\n      dup3\n        /* \"#utility.yul\":19125:19126   */\n      dup3\n        /* \"#utility.yul\":19121:19130   */\n      mul\n        /* \"#utility.yul\":19110:19130   */\n      swap1\n      pop\n        /* \"#utility.yul\":18788:19136   */\n      swap3\n      swap2\n      pop\n      pop\n      jump\t// out\n        /* \"#utility.yul\":19142:19333   */\n    tag_203:\n        /* \"#utility.yul\":19182:19186   */\n      0x00\n        /* \"#utility.yul\":19202:19222   */\n      tag_508\n        /* \"#utility.yul\":19220:19221   */\n      dup3\n        /* \"#utility.yul\":19202:19222   */\n      tag_436\n      jump\t// in\n    tag_508:\n        /* \"#utility.yul\":19197:19222   */\n      swap2\n      pop\n        /* \"#utility.yul\":19236:19256   */\n      tag_509\n        /* \"#utility.yul\":19254:19255   */\n      dup4\n        /* \"#utility.yul\":19236:19256   */\n      tag_436\n      jump\t// in\n    tag_509:\n        /* \"#utility.yul\":19231:19256   */\n      swap3\n      pop\n        /* \"#utility.yul\":19275:19276   */\n      dup3\n        /* \"#utility.yul\":19272:19273   */\n      dup3\n        /* \"#utility.yul\":19269:19277   */\n      lt\n        /* \"#utility.yul\":19266:19300   */\n      iszero\n      tag_510\n      jumpi\n        /* \"#utility.yul\":19280:19298   */\n      tag_511\n      tag_495\n      jump\t// in\n    tag_511:\n        /* \"#utility.yul\":19266:19300   */\n    tag_510:\n        /* \"#utility.yul\":19325:19326   */\n      dup3\n        /* \"#utility.yul\":19322:19323   */\n      dup3\n        /* \"#utility.yul\":19318:19327   */\n      sub\n        /* \"#utility.yul\":19310:19327   */\n      swap1\n      pop\n        /* \"#utility.yul\":19142:19333   */\n      swap3\n      swap2\n      pop\n      pop\n      jump\t// out\n        /* \"#utility.yul\":19339:19435   */\n    tag_359:\n        /* \"#utility.yul\":19376:19383   */\n      0x00\n        /* \"#utility.yul\":19405:19429   */\n      tag_513\n        /* \"#utility.yul\":19423:19428   */\n      dup3\n        /* \"#utility.yul\":19405:19429   */\n      tag_514\n      jump\t// in\n    tag_513:\n        /* \"#utility.yul\":19394:19429   */\n      swap1\n      pop\n        /* \"#utility.yul\":19339:19435   */\n      swap2\n      swap1\n      pop\n      jump\t// out\n        /* \"#utility.yul\":19441:19531   */\n    tag_363:\n        /* \"#utility.yul\":19475:19482   */\n      0x00\n        /* \"#utility.yul\":19518:19523   */\n      dup2\n        /* \"#utility.yul\":19511:19524   */\n      iszero\n        /* \"#utility.yul\":19504:19525   */\n      iszero\n        /* \"#utility.yul\":19493:19525   */\n      swap1\n      pop\n        /* \"#utility.yul\":19441:19531   */\n      swap2\n      swap1\n      pop\n      jump\t// out\n        /* \"#utility.yul\":19537:19686   */\n    tag_516:\n        /* \"#utility.yul\":19573:19580   */\n      0x00\n        /* \"#utility.yul\":19613:19679   */\n      0xffffffff00000000000000000000000000000000000000000000000000000000\n        /* \"#utility.yul\":19606:19611   */\n      dup3\n        /* \"#utility.yul\":19602:19680   */\n      and\n        /* \"#utility.yul\":19591:19680   */\n      swap1\n      pop\n        /* \"#utility.yul\":19537:19686   */\n      swap2\n      swap1\n      pop\n      jump\t// out\n        /* \"#utility.yul\":19692:19818   */\n    tag_514:\n        /* \"#utility.yul\":19729:19736   */\n      0x00\n        /* \"#utility.yul\":19769:19811   */\n      0xffffffffffffffffffffffffffffffffffffffff\n        /* \"#utility.yul\":19762:19767   */\n      dup3\n        /* \"#utility.yul\":19758:19812   */\n      and\n        /* \"#utility.yul\":19747:19812   */\n      swap1\n      pop\n        /* \"#utility.yul\":19692:19818   */\n      swap2\n      swap1\n      pop\n      jump\t// out\n        /* \"#utility.yul\":19824:19901   */\n    tag_436:\n        /* \"#utility.yul\":19861:19868   */\n      0x00\n        /* \"#utility.yul\":19890:19895   */\n      dup2\n        /* \"#utility.yul\":19879:19895   */\n      swap1\n      pop\n        /* \"#utility.yul\":19824:19901   */\n      swap2\n      swap1\n      pop\n      jump\t// out\n        /* \"#utility.yul\":19907:20061   */\n    tag_282:\n        /* \"#utility.yul\":19991:19997   */\n      dup3\n        /* \"#utility.yul\":19986:19989   */\n      dup2\n        /* \"#utility.yul\":19981:19984   */\n      dup4\n        /* \"#utility.yul\":19968:19998   */\n      calldatacopy\n        /* \"#utility.yul\":20053:20054   */\n      0x00\n        /* \"#utility.yul\":20044:20050   */\n      dup4\n        /* \"#utility.yul\":20039:20042   */\n      dup4\n        /* \"#utility.yul\":20035:20051   */\n      add\n        /* \"#utility.yul\":20028:20055   */\n      mstore\n        /* \"#utility.yul\":19907:20061   */\n      pop\n      pop\n      pop\n      jump\t// out\n        /* \"#utility.yul\":20067:20374   */\n    tag_371:\n        /* \"#utility.yul\":20135:20136   */\n      0x00\n        /* \"#utility.yul\":20145:20258   */\n    tag_522:\n        /* \"#utility.yul\":20159:20165   */\n      dup4\n        /* \"#utility.yul\":20156:20157   */\n      dup2\n        /* \"#utility.yul\":20153:20166   */\n      lt\n        /* \"#utility.yul\":20145:20258   */\n      iszero\n      tag_524\n      jumpi\n        /* \"#utility.yul\":20244:20245   */\n      dup1\n        /* \"#utility.yul\":20239:20242   */\n      dup3\n        /* \"#utility.yul\":20235:20246   */\n      add\n        /* \"#utility.yul\":20229:20247   */\n      mload\n        /* \"#utility.yul\":20225:20226   */\n      dup2\n        /* \"#utility.yul\":20220:20223   */\n      dup5\n        /* \"#utility.yul\":20216:20227   */\n      add\n        /* \"#utility.yul\":20209:20248   */\n      mstore\n        /* \"#utility.yul\":20181:20183   */\n      0x20\n        /* \"#utility.yul\":20178:20179   */\n      dup2\n        /* \"#utility.yul\":20174:20184   */\n      add\n        /* \"#utility.yul\":20169:20184   */\n      swap1\n      pop\n        /* \"#utility.yul\":20145:20258   */\n      jump(tag_522)\n    tag_524:\n        /* \"#utility.yul\":20276:20282   */\n      dup4\n        /* \"#utility.yul\":20273:20274   */\n      dup2\n        /* \"#utility.yul\":20270:20283   */\n      gt\n        /* \"#utility.yul\":20267:20368   */\n      iszero\n      tag_525\n      jumpi\n        /* \"#utility.yul\":20356:20357   */\n      0x00\n        /* \"#utility.yul\":20347:20353   */\n      dup5\n        /* \"#utility.yul\":20342:20345   */\n      dup5\n        /* \"#utility.yul\":20338:20354   */\n      add\n        /* \"#utility.yul\":20331:20358   */\n      mstore\n        /* \"#utility.yul\":20267:20368   */\n    tag_525:\n        /* \"#utility.yul\":20116:20374   */\n      pop\n        /* \"#utility.yul\":20067:20374   */\n      pop\n      pop\n      pop\n      jump\t// out\n        /* \"#utility.yul\":20380:20700   */\n    tag_127:\n        /* \"#utility.yul\":20424:20430   */\n      0x00\n        /* \"#utility.yul\":20461:20462   */\n      0x02\n        /* \"#utility.yul\":20455:20459   */\n      dup3\n        /* \"#utility.yul\":20451:20463   */\n      div\n        /* \"#utility.yul\":20441:20463   */\n      swap1\n      pop\n        /* \"#utility.yul\":20508:20509   */\n      0x01\n        /* \"#utility.yul\":20502:20506   */\n      dup3\n        /* \"#utility.yul\":20498:20510   */\n      and\n        /* \"#utility.yul\":20529:20547   */\n      dup1\n        /* \"#utility.yul\":20519:20600   */\n      tag_527\n      jumpi\n        /* \"#utility.yul\":20585:20589   */\n      0x7f\n        /* \"#utility.yul\":20577:20583   */\n      dup3\n        /* \"#utility.yul\":20573:20590   */\n      and\n        /* \"#utility.yul\":20563:20590   */\n      swap2\n      pop\n        /* \"#utility.yul\":20519:20600   */\n    tag_527:\n        /* \"#utility.yul\":20647:20649   */\n      0x20\n        /* \"#utility.yul\":20639:20645   */\n      dup3\n        /* \"#utility.yul\":20636:20650   */\n      lt\n        /* \"#utility.yul\":20616:20634   */\n      dup2\n        /* \"#utility.yul\":20613:20651   */\n      eq\n        /* \"#utility.yul\":20610:20694   */\n      iszero\n      tag_528\n      jumpi\n        /* \"#utility.yul\":20666:20684   */\n      tag_529\n      tag_530\n      jump\t// in\n    tag_529:\n        /* \"#utility.yul\":20610:20694   */\n    tag_528:\n        /* \"#utility.yul\":20431:20700   */\n      pop\n        /* \"#utility.yul\":20380:20700   */\n      swap2\n      swap1\n      pop\n      jump\t// out\n        /* \"#utility.yul\":20706:20987   */\n    tag_479:\n        /* \"#utility.yul\":20789:20816   */\n      tag_532\n        /* \"#utility.yul\":20811:20815   */\n      dup3\n        /* \"#utility.yul\":20789:20816   */\n      tag_373\n      jump\t// in\n    tag_532:\n        /* \"#utility.yul\":20781:20787   */\n      dup2\n        /* \"#utility.yul\":20777:20817   */\n      add\n        /* \"#utility.yul\":20919:20925   */\n      dup2\n        /* \"#utility.yul\":20907:20917   */\n      dup2\n        /* \"#utility.yul\":20904:20926   */\n      lt\n        /* \"#utility.yul\":20883:20901   */\n      0xffffffffffffffff\n        /* \"#utility.yul\":20871:20881   */\n      dup3\n        /* \"#utility.yul\":20868:20902   */\n      gt\n        /* \"#utility.yul\":20865:20927   */\n      or\n        /* \"#utility.yul\":20862:20950   */\n      iszero\n      tag_533\n      jumpi\n        /* \"#utility.yul\":20930:20948   */\n      tag_534\n      tag_239\n      jump\t// in\n    tag_534:\n        /* \"#utility.yul\":20862:20950   */\n    tag_533:\n        /* \"#utility.yul\":20970:20980   */\n      dup1\n        /* \"#utility.yul\":20966:20968   */\n      0x40\n        /* \"#utility.yul\":20959:20981   */\n      mstore\n        /* \"#utility.yul\":20749:20987   */\n      pop\n        /* \"#utility.yul\":20706:20987   */\n      pop\n      pop\n      jump\t// out\n        /* \"#utility.yul\":20993:21226   */\n    tag_235:\n        /* \"#utility.yul\":21032:21035   */\n      0x00\n        /* \"#utility.yul\":21055:21079   */\n      tag_536\n        /* \"#utility.yul\":21073:21078   */\n      dup3\n        /* \"#utility.yul\":21055:21079   */\n      tag_436\n      jump\t// in\n    tag_536:\n        /* \"#utility.yul\":21046:21079   */\n      swap2\n      pop\n        /* \"#utility.yul\":21101:21167   */\n      0xffffffffffffffffffffffffffffffffffffffffffffffffffffffffffffffff\n        /* \"#utility.yul\":21094:21099   */\n      dup3\n        /* \"#utility.yul\":21091:21168   */\n      eq\n        /* \"#utility.yul\":21088:21191   */\n      iszero\n      tag_537\n      jumpi\n        /* \"#utility.yul\":21171:21189   */\n      tag_538\n      tag_495\n      jump\t// in\n    tag_538:\n        /* \"#utility.yul\":21088:21191   */\n    tag_537:\n        /* \"#utility.yul\":21218:21219   */\n      0x01\n        /* \"#utility.yul\":21211:21216   */\n      dup3\n        /* \"#utility.yul\":21207:21220   */\n      add\n        /* \"#utility.yul\":21200:21220   */\n      swap1\n      pop\n        /* \"#utility.yul\":20993:21226   */\n      swap2\n      swap1\n      pop\n      jump\t// out\n        /* \"#utility.yul\":21232:21408   */\n    tag_245:\n        /* \"#utility.yul\":21264:21265   */\n      0x00\n        /* \"#utility.yul\":21281:21301   */\n      tag_540\n        /* \"#utility.yul\":21299:21300   */\n      dup3\n        /* \"#utility.yul\":21281:21301   */\n      tag_436\n      jump\t// in\n    tag_540:\n        /* \"#utility.yul\":21276:21301   */\n      swap2\n      pop\n        /* \"#utility.yul\":21315:21335   */\n      tag_541\n        /* \"#utility.yul\":21333:21334   */\n      dup4\n        /* \"#utility.yul\":21315:21335   */\n      tag_436\n      jump\t// in\n    tag_541:\n        /* \"#utility.yul\":21310:21335   */\n      swap3\n      pop\n        /* \"#utility.yul\":21354:21355   */\n      dup3\n        /* \"#utility.yul\":21344:21379   */\n      tag_542\n      jumpi\n        /* \"#utility.yul\":21359:21377   */\n      tag_543\n      tag_501\n      jump\t// in\n    tag_543:\n        /* \"#utility.yul\":21344:21379   */\n    tag_542:\n        /* \"#utility.yul\":21400:21401   */\n      dup3\n        /* \"#utility.yul\":21397:21398   */\n      dup3\n        /* \"#utility.yul\":21393:21402   */\n      mod\n        /* \"#utility.yul\":21388:21402   */\n      swap1\n      pop\n        /* \"#utility.yul\":21232:21408   */\n      swap3\n      swap2\n      pop\n      pop\n      jump\t// out\n        /* \"#utility.yul\":21414:21594   */\n    tag_495:\n        /* \"#utility.yul\":21462:21539   */\n      0x4e487b7100000000000000000000000000000000000000000000000000000000\n        /* \"#utility.yul\":21459:21460   */\n      0x00\n        /* \"#utility.yul\":21452:21540   */\n      mstore\n        /* \"#utility.yul\":21559:21563   */\n      0x11\n        /* \"#utility.yul\":21556:21557   */\n      0x04\n        /* \"#utility.yul\":21549:21564   */\n      mstore\n        /* \"#utility.yul\":21583:21587   */\n      0x24\n        /* \"#utility.yul\":21580:21581   */\n      0x00\n        /* \"#utility.yul\":21573:21588   */\n      revert\n        /* \"#utility.yul\":21600:21780   */\n    tag_501:\n        /* \"#utility.yul\":21648:21725   */\n      0x4e487b7100000000000000000000000000000000000000000000000000000000\n        /* \"#utility.yul\":21645:21646   */\n      0x00\n        /* \"#utility.yul\":21638:21726   */\n      mstore\n        /* \"#utility.yul\":21745:21749   */\n      0x12\n        /* \"#utility.yul\":21742:21743   */\n      0x04\n        /* \"#utility.yul\":21735:21750   */\n      mstore\n        /* \"#utility.yul\":21769:21773   */\n      0x24\n        /* \"#utility.yul\":21766:21767   */\n      0x00\n        /* \"#utility.yul\":21759:21774   */\n      revert\n        /* \"#utility.yul\":21786:21966   */\n    tag_530:\n        /* \"#utility.yul\":21834:21911   */\n      0x4e487b7100000000000000000000000000000000000000000000000000000000\n        /* \"#utility.yul\":21831:21832   */\n      0x00\n        /* \"#utility.yul\":21824:21912   */\n      mstore\n        /* \"#utility.yul\":21931:21935   */\n      0x22\n        /* \"#utility.yul\":21928:21929   */\n      0x04\n        /* \"#utility.yul\":21921:21936   */\n      mstore\n        /* \"#utility.yul\":21955:21959   */\n      0x24\n        /* \"#utility.yul\":21952:21953   */\n      0x00\n        /* \"#utility.yul\":21945:21960   */\n      revert\n        /* \"#utility.yul\":21972:22152   */\n    tag_249:\n        /* \"#utility.yul\":22020:22097   */\n      0x4e487b7100000000000000000000000000000000000000000000000000000000\n        /* \"#utility.yul\":22017:22018   */\n      0x00\n        /* \"#utility.yul\":22010:22098   */\n      mstore\n        /* \"#utility.yul\":22117:22121   */\n      0x32\n        /* \"#utility.yul\":22114:22115   */\n      0x04\n        /* \"#utility.yul\":22107:22122   */\n      mstore\n        /* \"#utility.yul\":22141:22145   */\n      0x24\n        /* \"#utility.yul\":22138:22139   */\n      0x00\n        /* \"#utility.yul\":22131:22146   */\n      revert\n        /* \"#utility.yul\":22158:22338   */\n    tag_239:\n        /* \"#utility.yul\":22206:22283   */\n      0x4e487b7100000000000000000000000000000000000000000000000000000000\n        /* \"#utility.yul\":22203:22204   */\n      0x00\n        /* \"#utility.yul\":22196:22284   */\n      mstore\n        /* \"#utility.yul\":22303:22307   */\n      0x41\n        /* \"#utility.yul\":22300:22301   */\n      0x04\n        /* \"#utility.yul\":22293:22308   */\n      mstore\n        /* \"#utility.yul\":22327:22331   */\n      0x24\n        /* \"#utility.yul\":22324:22325   */\n      0x00\n        /* \"#utility.yul\":22317:22332   */\n      revert\n        /* \"#utility.yul\":22344:22461   */\n    tag_302:\n        /* \"#utility.yul\":22453:22454   */\n      0x00\n        /* \"#utility.yul\":22450:22451   */\n      dup1\n        /* \"#utility.yul\":22443:22455   */\n      revert\n        /* \"#utility.yul\":22467:22584   */\n    tag_280:\n        /* \"#utility.yul\":22576:22577   */\n      0x00\n        /* \"#utility.yul\":22573:22574   */\n      dup1\n        /* \"#utility.yul\":22566:22578   */\n      revert\n        /* \"#utility.yul\":22590:22707   */\n    tag_332:\n        /* \"#utility.yul\":22699:22700   */\n      0x00\n        /* \"#utility.yul\":22696:22697   */\n      dup1\n        /* \"#utility.yul\":22689:22701   */\n      revert\n        /* \"#utility.yul\":22713:22830   */\n    tag_311:\n        /* \"#utility.yul\":22822:22823   */\n      0x00\n        /* \"#utility.yul\":22819:22820   */\n      dup1\n        /* \"#utility.yul\":22812:22824   */\n      revert\n        /* \"#utility.yul\":22836:22938   */\n    tag_373:\n        /* \"#utility.yul\":22877:22883   */\n      0x00\n        /* \"#utility.yul\":22928:22930   */\n      0x1f\n        /* \"#utility.yul\":22924:22931   */\n      not\n        /* \"#utility.yul\":22919:22921   */\n      0x1f\n        /* \"#utility.yul\":22912:22917   */\n      dup4\n        /* \"#utility.yul\":22908:22922   */\n      add\n        /* \"#utility.yul\":22904:22932   */\n      and\n        /* \"#utility.yul\":22894:22932   */\n      swap1\n      pop\n        /* \"#utility.yul\":22836:22938   */\n      swap2\n      swap1\n      pop\n      jump\t// out\n        /* \"#utility.yul\":22944:23116   */\n    tag_392:\n        /* \"#utility.yul\":23084:23108   */\n      0x6e6f74206f776e6572206e6f7220617070726f76656400000000000000000000\n        /* \"#utility.yul\":23080:23081   */\n      0x00\n        /* \"#utility.yul\":23072:23078   */\n      dup3\n        /* \"#utility.yul\":23068:23082   */\n      add\n        /* \"#utility.yul\":23061:23109   */\n      mstore\n        /* \"#utility.yul\":22944:23116   */\n      pop\n      jump\t// out\n        /* \"#utility.yul\":23122:23286   */\n    tag_397:\n        /* \"#utility.yul\":23262:23278   */\n      0x74696d6520697320657870697265000000000000000000000000000000000000\n        /* \"#utility.yul\":23258:23259   */\n      0x00\n        /* \"#utility.yul\":23250:23256   */\n      dup3\n        /* \"#utility.yul\":23246:23260   */\n      add\n        /* \"#utility.yul\":23239:23279   */\n      mstore\n        /* \"#utility.yul\":23122:23286   */\n      pop\n      jump\t// out\n        /* \"#utility.yul\":23292:23470   */\n    tag_402:\n        /* \"#utility.yul\":23432:23462   */\n      0x7472616e7366657220746f20746865207a65726f206164647265737300000000\n        /* \"#utility.yul\":23428:23429   */\n      0x00\n        /* \"#utility.yul\":23420:23426   */\n      dup3\n        /* \"#utility.yul\":23416:23430   */\n      add\n        /* \"#utility.yul\":23409:23463   */\n      mstore\n        /* \"#utility.yul\":23292:23470   */\n      pop\n      jump\t// out\n        /* \"#utility.yul\":23476:23656   */\n    tag_407:\n        /* \"#utility.yul\":23616:23648   */\n      0x6e6f74206f776e6572206e6f7220617070726f76656420666f7220616c6c0000\n        /* \"#utility.yul\":23612:23613   */\n      0x00\n        /* \"#utility.yul\":23604:23610   */\n      dup3\n        /* \"#utility.yul\":23600:23614   */\n      add\n        /* \"#utility.yul\":23593:23649   */\n      mstore\n        /* \"#utility.yul\":23476:23656   */\n      pop\n      jump\t// out\n        /* \"#utility.yul\":23662:23831   */\n    tag_412:\n        /* \"#utility.yul\":23802:23823   */\n      0x746f6b656e20646f65736e277420657869737400000000000000000000000000\n        /* \"#utility.yul\":23798:23799   */\n      0x00\n        /* \"#utility.yul\":23790:23796   */\n      dup3\n        /* \"#utility.yul\":23786:23800   */\n      add\n        /* \"#utility.yul\":23779:23824   */\n      mstore\n        /* \"#utility.yul\":23662:23831   */\n      pop\n      jump\t// out\n        /* \"#utility.yul\":23837:24007   */\n    tag_417:\n        /* \"#utility.yul\":23977:23999   */\n      0x6f776e6572203d207a65726f2061646472657373000000000000000000000000\n        /* \"#utility.yul\":23973:23974   */\n      0x00\n        /* \"#utility.yul\":23965:23971   */\n      dup3\n        /* \"#utility.yul\":23961:23975   */\n      add\n        /* \"#utility.yul\":23954:24000   */\n      mstore\n        /* \"#utility.yul\":23837:24007   */\n      pop\n      jump\t// out\n        /* \"#utility.yul\":24013:24178   */\n    tag_422:\n        /* \"#utility.yul\":24153:24170   */\n      0x546f6b656e204e6f742045786973740000000000000000000000000000000000\n        /* \"#utility.yul\":24149:24150   */\n      0x00\n        /* \"#utility.yul\":24141:24147   */\n      dup3\n        /* \"#utility.yul\":24137:24151   */\n      add\n        /* \"#utility.yul\":24130:24171   */\n      mstore\n        /* \"#utility.yul\":24013:24178   */\n      pop\n      jump\t// out\n        /* \"#utility.yul\":24184:24408   */\n    tag_427:\n        /* \"#utility.yul\":24324:24358   */\n      0x796f7572207072696365206973206c6f776572207468616e2063757272656e74\n        /* \"#utility.yul\":24320:24321   */\n      0x00\n        /* \"#utility.yul\":24312:24318   */\n      dup3\n        /* \"#utility.yul\":24308:24322   */\n      add\n        /* \"#utility.yul\":24301:24359   */\n      mstore\n        /* \"#utility.yul\":24393:24400   */\n      0x5072696365000000000000000000000000000000000000000000000000000000\n        /* \"#utility.yul\":24388:24390   */\n      0x20\n        /* \"#utility.yul\":24380:24386   */\n      dup3\n        /* \"#utility.yul\":24376:24391   */\n      add\n        /* \"#utility.yul\":24369:24401   */\n      mstore\n        /* \"#utility.yul\":24184:24408   */\n      pop\n      jump\t// out\n        /* \"#utility.yul\":24414:24573   */\n    tag_432:\n        /* \"#utility.yul\":24554:24565   */\n      0x6e6f74206f776e65720000000000000000000000000000000000000000000000\n        /* \"#utility.yul\":24550:24551   */\n      0x00\n        /* \"#utility.yul\":24542:24548   */\n      dup3\n        /* \"#utility.yul\":24538:24552   */\n      add\n        /* \"#utility.yul\":24531:24566   */\n      mstore\n        /* \"#utility.yul\":24414:24573   */\n      pop\n      jump\t// out\n        /* \"#utility.yul\":24579:24701   */\n    tag_286:\n        /* \"#utility.yul\":24652:24676   */\n      tag_564\n        /* \"#utility.yul\":24670:24675   */\n      dup2\n        /* \"#utility.yul\":24652:24676   */\n      tag_359\n      jump\t// in\n    tag_564:\n        /* \"#utility.yul\":24645:24650   */\n      dup2\n        /* \"#utility.yul\":24642:24677   */\n      eq\n        /* \"#utility.yul\":24632:24695   */\n      tag_565\n      jumpi\n        /* \"#utility.yul\":24691:24692   */\n      0x00\n        /* \"#utility.yul\":24688:24689   */\n      dup1\n        /* \"#utility.yul\":24681:24693   */\n      revert\n        /* \"#utility.yul\":24632:24695   */\n    tag_565:\n        /* \"#utility.yul\":24579:24701   */\n      pop\n      jump\t// out\n        /* \"#utility.yul\":24707:24823   */\n    tag_290:\n        /* \"#utility.yul\":24777:24798   */\n      tag_567\n        /* \"#utility.yul\":24792:24797   */\n      dup2\n        /* \"#utility.yul\":24777:24798   */\n      tag_363\n      jump\t// in\n    tag_567:\n        /* \"#utility.yul\":24770:24775   */\n      dup2\n        /* \"#utility.yul\":24767:24799   */\n      eq\n        /* \"#utility.yul\":24757:24817   */\n      tag_568\n      jumpi\n        /* \"#utility.yul\":24813:24814   */\n      0x00\n        /* \"#utility.yul\":24810:24811   */\n      dup1\n        /* \"#utility.yul\":24803:24815   */\n      revert\n        /* \"#utility.yul\":24757:24817   */\n    tag_568:\n        /* \"#utility.yul\":24707:24823   */\n      pop\n      jump\t// out\n        /* \"#utility.yul\":24829:24949   */\n    tag_294:\n        /* \"#utility.yul\":24901:24924   */\n      tag_570\n        /* \"#utility.yul\":24918:24923   */\n      dup2\n        /* \"#utility.yul\":24901:24924   */\n      tag_516\n      jump\t// in\n    tag_570:\n        /* \"#utility.yul\":24894:24899   */\n      dup2\n        /* \"#utility.yul\":24891:24925   */\n      eq\n        /* \"#utility.yul\":24881:24943   */\n      tag_571\n      jumpi\n        /* \"#utility.yul\":24939:24940   */\n      0x00\n        /* \"#utility.yul\":24936:24937   */\n      dup1\n        /* \"#utility.yul\":24929:24941   */\n      revert\n        /* \"#utility.yul\":24881:24943   */\n    tag_571:\n        /* \"#utility.yul\":24829:24949   */\n      pop\n      jump\t// out\n        /* \"#utility.yul\":24955:25077   */\n    tag_307:\n        /* \"#utility.yul\":25028:25052   */\n      tag_573\n        /* \"#utility.yul\":25046:25051   */\n      dup2\n        /* \"#utility.yul\":25028:25052   */\n      tag_436\n      jump\t// in\n    tag_573:\n        /* \"#utility.yul\":25021:25026   */\n      dup2\n        /* \"#utility.yul\":25018:25053   */\n      eq\n        /* \"#utility.yul\":25008:25071   */\n      tag_574\n      jumpi\n        /* \"#utility.yul\":25067:25068   */\n      0x00\n        /* \"#utility.yul\":25064:25065   */\n      dup1\n        /* \"#utility.yul\":25057:25069   */\n      revert\n        /* \"#utility.yul\":25008:25071   */\n    tag_574:\n        /* \"#utility.yul\":24955:25077   */\n      pop\n      jump\t// out\n\n    auxdata: 0xa26469706673582212206016ad0871761c6537aebae914988720a5e814d25b468bdb49a3c80d20c4299e64736f6c63430008070033\n}\n",
				"bytecode": {
					"linkReferences": {},
					"object": "60e06040523480156200001157600080fd5b5060405162002b1e38038062002b1e8339818101604052810190620000379190620001ec565b8181816000908051906020019062000051929190620000a7565b5080600190805190602001906200006a929190620000a7565b50505083608081815250508260a0818152505042600681905550610258600654620000969190620002fb565b60c0818152505050505050620004d0565b828054620000b59062000398565b90600052602060002090601f016020900481019282620000d9576000855562000125565b82601f10620000f457805160ff191683800117855562000125565b8280016001018555821562000125579182015b828111156200012457825182559160200191906001019062000107565b5b50905062000134919062000138565b5090565b5b808211156200015357600081600090555060010162000139565b5090565b60006200016e6200016884620002c5565b6200029c565b9050828152602081018484840111156200018d576200018c62000496565b5b6200019a84828562000362565b509392505050565b600082601f830112620001ba57620001b962000491565b5b8151620001cc84826020860162000157565b91505092915050565b600081519050620001e681620004b6565b92915050565b60008060008060808587031215620002095762000208620004a0565b5b60006200021987828801620001d5565b94505060206200022c87828801620001d5565b935050604085015167ffffffffffffffff81111562000250576200024f6200049b565b5b6200025e87828801620001a2565b925050606085015167ffffffffffffffff8111156200028257620002816200049b565b5b6200029087828801620001a2565b91505092959194509250565b6000620002a8620002bb565b9050620002b68282620003ce565b919050565b6000604051905090565b600067ffffffffffffffff821115620002e357620002e262000462565b5b620002ee82620004a5565b9050602081019050919050565b6000620003088262000358565b9150620003158362000358565b9250827fffffffffffffffffffffffffffffffffffffffffffffffffffffffffffffffff038211156200034d576200034c62000404565b5b828201905092915050565b6000819050919050565b60005b838110156200038257808201518184015260208101905062000365565b8381111562000392576000848401525b50505050565b60006002820490506001821680620003b157607f821691505b60208210811415620003c857620003c762000433565b5b50919050565b620003d982620004a5565b810181811067ffffffffffffffff82111715620003fb57620003fa62000462565b5b80604052505050565b7f4e487b7100000000000000000000000000000000000000000000000000000000600052601160045260246000fd5b7f4e487b7100000000000000000000000000000000000000000000000000000000600052602260045260246000fd5b7f4e487b7100000000000000000000000000000000000000000000000000000000600052604160045260246000fd5b600080fd5b600080fd5b600080fd5b600080fd5b6000601f19601f8301169050919050565b620004c18162000358565b8114620004cd57600080fd5b50565b60805160a05160c0516126026200051c600039600081816108df0152610a6f015260008181610da90152610fd4015260008181610ff501528181611045015261107601526126026000f3fe60806040526004361061011f5760003560e01c806370a08231116100a0578063b88d4fde11610064578063b88d4fde146103ee578063c87b56dd14610417578063e985e9c514610454578063eb91d37e14610491578063f1a9af89146104bc5761011f565b806370a082311461030757806378e979251461034457806395d89b411461036f578063a22cb4651461039a578063a6b513ee146103c35761011f565b8063153e66e6116100e7578063153e66e61461021d57806323b872dd1461024d5780633197cbb61461027657806342842e0e146102a15780636352211e146102ca5761011f565b806301ffc9a71461012457806306fdde0314610161578063081812fc1461018c578063095ea7b3146101c95780630fb5a6b4146101f2575b600080fd5b34801561013057600080fd5b5061014b60048036038101906101469190611abc565b6104e7565b6040516101589190611e10565b60405180910390f35b34801561016d57600080fd5b50610176610621565b6040516101839190611e2b565b60405180910390f35b34801561019857600080fd5b506101b360048036038101906101ae9190611b16565b6106af565b6040516101c09190611d72565b60405180910390f35b3480156101d557600080fd5b506101f060048036038101906101eb9190611a7c565b61078e565b005b3480156101fe57600080fd5b506102076108d5565b6040516102149190611f6d565b60405180910390f35b61023760048036038101906102329190611966565b6108db565b6040516102449190611e10565b60405180910390f35b34801561025957600080fd5b50610274600480360381019061026f9190611966565b610a04565b005b34801561028257600080fd5b5061028b610a6d565b6040516102989190611f6d565b60405180910390f35b3480156102ad57600080fd5b506102c860048036038101906102c39190611966565b610a91565b005b3480156102d657600080fd5b506102f160048036038101906102ec9190611b16565b610ab1565b6040516102fe9190611d72565b60405180910390f35b34801561031357600080fd5b5061032e600480360381019061032991906118f9565b610b5e565b60405161033b9190611f6d565b60405180910390f35b34801561035057600080fd5b50610359610c16565b6040516103669190611f6d565b60405180910390f35b34801561037b57600080fd5b50610384610c1c565b6040516103919190611e2b565b60405180910390f35b3480156103a657600080fd5b506103c160048036038101906103bc9190611a3c565b610caa565b005b3480156103cf57600080fd5b506103d8610da7565b6040516103e59190611f6d565b60405180910390f35b3480156103fa57600080fd5b50610415600480360381019061041091906119b9565b610dcb565b005b34801561042357600080fd5b5061043e60048036038101906104399190611b16565b610e36565b60405161044b9190611e2b565b60405180910390f35b34801561046057600080fd5b5061047b60048036038101906104769190611926565b610f38565b6040516104889190611e10565b60405180910390f35b34801561049d57600080fd5b506104a6610fcc565b6040516104b39190611f6d565b60405180910390f35b3480156104c857600080fd5b506104d1611074565b6040516104de9190611f6d565b60405180910390f35b60007f80ac58cd000000000000000000000000000000000000000000000000000000007bffffffffffffffffffffffffffffffffffffffffffffffffffffffff1916827bffffffffffffffffffffffffffffffffffffffffffffffffffffffff191614806105b257507f01ffc9a7000000000000000000000000000000000000000000000000000000007bffffffffffffffffffffffffffffffffffffffffffffffffffffffff1916827bffffffffffffffffffffffffffffffffffffffffffffffffffffffff1916145b8061061a57507f5b5e139f000000000000000000000000000000000000000000000000000000007bffffffffffffffffffffffffffffffffffffffffffffffffffffffff1916827bffffffffffffffffffffffffffffffffffffffffffffffffffffffff1916145b9050919050565b6000805461062e906121ec565b80601f016020809104026020016040519081016040528092919081815260200182805461065a906121ec565b80156106a75780601f1061067c576101008083540402835291602001916106a7565b820191906000526020600020905b81548152906001019060200180831161068a57829003601f168201915b505050505081565b60008073ffffffffffffffffffffffffffffffffffffffff166002600084815260200190815260200160002060009054906101000a900473ffffffffffffffffffffffffffffffffffffffff1673ffffffffffffffffffffffffffffffffffffffff161415610753576040517f08c379a000000000000000000000000000000000000000000000000000000000815260040161074a90611ecd565b60405180910390fd5b6004600083815260200190815260200160002060009054906101000a900473ffffffffffffffffffffffffffffffffffffffff169050919050565b60006002600083815260200190815260200160002060009054906101000a900473ffffffffffffffffffffffffffffffffffffffff1690508073ffffffffffffffffffffffffffffffffffffffff163373ffffffffffffffffffffffffffffffffffffffff1614806108865750600560008273ffffffffffffffffffffffffffffffffffffffff1673ffffffffffffffffffffffffffffffffffffffff16815260200190815260200160002060003373ffffffffffffffffffffffffffffffffffffffff1673ffffffffffffffffffffffffffffffffffffffff16815260200190815260200160002060009054906101000a900460ff165b6108c5576040517f08c379a00000000000000000000000000000000000000000000000000000000081526004016108bc90611ead565b60405180910390fd5b6108d0818484611098565b505050565b61025881565b60007f0000000000000000000000000000000000000000000000000000000000000000421115610940576040517f08c379a000000000000000000000000000000000000000000000000000000000815260040161093790611e6d565b60405180910390fd5b610948610fcc565b34101561098a576040517f08c379a000000000000000000000000000000000000000000000000000000000815260040161098190611f2d565b60405180910390fd5b3073ffffffffffffffffffffffffffffffffffffffff166323b872dd8585856040518463ffffffff1660e01b81526004016109c793929190611d8d565b600060405180830381600087803b1580156109e157600080fd5b505af11580156109f5573d6000803e3d6000fd5b50505050600190509392505050565b6000610a0f82610ab1565b9050610a1c81338461114a565b610a5b576040517f08c379a0000000000000000000000000000000000000000000000000000000008152600401610a5290611e4d565b60405180910390fd5b610a678185858561127e565b50505050565b7f000000000000000000000000000000000000000000000000000000000000000081565b610aac83838360405180602001604052806000815250610dcb565b505050565b60006002600083815260200190815260200160002060009054906101000a900473ffffffffffffffffffffffffffffffffffffffff169050600073ffffffffffffffffffffffffffffffffffffffff168173ffffffffffffffffffffffffffffffffffffffff161415610b59576040517f08c379a0000000000000000000000000000000000000000000000000000000008152600401610b5090611ecd565b60405180910390fd5b919050565b60008073ffffffffffffffffffffffffffffffffffffffff168273ffffffffffffffffffffffffffffffffffffffff161415610bcf576040517f08c379a0000000000000000000000000000000000000000000000000000000008152600401610bc690611eed565b60405180910390fd5b600360008373ffffffffffffffffffffffffffffffffffffffff1673ffffffffffffffffffffffffffffffffffffffff168152602001908152602001600020549050919050565b60065481565b60018054610c29906121ec565b80601f0160208091040260200160405190810160405280929190818152602001828054610c55906121ec565b8015610ca25780601f10610c7757610100808354040283529160200191610ca2565b820191906000526020600020905b815481529060010190602001808311610c8557829003601f168201915b505050505081565b80600560003373ffffffffffffffffffffffffffffffffffffffff1673ffffffffffffffffffffffffffffffffffffffff16815260200190815260200160002060008473ffffffffffffffffffffffffffffffffffffffff1673ffffffffffffffffffffffffffffffffffffffff16815260200190815260200160002060006101000a81548160ff0219169083151502179055508173ffffffffffffffffffffffffffffffffffffffff163373ffffffffffffffffffffffffffffffffffffffff167f17307eab39ab6107e8899845ad3d59bd9653f200f220920489ca2b5937696c3183604051610d9b9190611e10565b60405180910390a35050565b7f000000000000000000000000000000000000000000000000000000000000000081565b6000610dd683610ab1565b9050610de381338561114a565b610e22576040517f08c379a0000000000000000000000000000000000000000000000000000000008152600401610e1990611e4d565b60405180910390fd5b610e2f81868686866114c9565b5050505050565b6060600073ffffffffffffffffffffffffffffffffffffffff166002600084815260200190815260200160002060009054906101000a900473ffffffffffffffffffffffffffffffffffffffff1673ffffffffffffffffffffffffffffffffffffffff161415610edb576040517f08c379a0000000000000000000000000000000000000000000000000000000008152600401610ed290611f0d565b60405180910390fd5b6000610ee56114e8565b90506000815111610f055760405180602001604052806000815250610f30565b80610f0f846114ff565b604051602001610f20929190611d4e565b6040516020818303038152906040525b915050919050565b6000600560008473ffffffffffffffffffffffffffffffffffffffff1673ffffffffffffffffffffffffffffffffffffffff16815260200190815260200160002060008373ffffffffffffffffffffffffffffffffffffffff1673ffffffffffffffffffffffffffffffffffffffff16815260200190815260200160002060009054906101000a900460ff16905092915050565b6000806102587f00000000000000000000000000000000000000000000000000000000000000007f000000000000000000000000000000000000000000000000000000000000000061101e9190612102565b6110289190612077565b905080600654426110399190612102565b61104391906120a8565b7f000000000000000000000000000000000000000000000000000000000000000061106e9190612102565b91505090565b7f000000000000000000000000000000000000000000000000000000000000000081565b816004600083815260200190815260200160002060006101000a81548173ffffffffffffffffffffffffffffffffffffffff021916908373ffffffffffffffffffffffffffffffffffffffff160217905550808273ffffffffffffffffffffffffffffffffffffffff168473ffffffffffffffffffffffffffffffffffffffff167f8c5be1e5ebec7d5bd14f71427d1e84f3dd0314c0f7b2291e5b200ac8c7c3b92560405160405180910390a4505050565b60008373ffffffffffffffffffffffffffffffffffffffff168373ffffffffffffffffffffffffffffffffffffffff1614806111e457508273ffffffffffffffffffffffffffffffffffffffff166004600084815260200190815260200160002060009054906101000a900473ffffffffffffffffffffffffffffffffffffffff1673ffffffffffffffffffffffffffffffffffffffff16145b806112755750600560008573ffffffffffffffffffffffffffffffffffffffff1673ffffffffffffffffffffffffffffffffffffffff16815260200190815260200160002060008473ffffffffffffffffffffffffffffffffffffffff1673ffffffffffffffffffffffffffffffffffffffff16815260200190815260200160002060009054906101000a900460ff165b90509392505050565b8373ffffffffffffffffffffffffffffffffffffffff168373ffffffffffffffffffffffffffffffffffffffff16146112ec576040517f08c379a00000000000000000000000000000000000000000000000000000000081526004016112e390611f4d565b60405180910390fd5b600073ffffffffffffffffffffffffffffffffffffffff168273ffffffffffffffffffffffffffffffffffffffff16141561135c576040517f08c379a000000000000000000000000000000000000000000000000000000000815260040161135390611e8d565b60405180910390fd5b61136884600083611098565b6001600360008573ffffffffffffffffffffffffffffffffffffffff1673ffffffffffffffffffffffffffffffffffffffff16815260200190815260200160002060008282546113b89190612102565b925050819055506001600360008473ffffffffffffffffffffffffffffffffffffffff1673ffffffffffffffffffffffffffffffffffffffff168152602001908152602001600020600082825461140f9190612021565b92505081905550816002600083815260200190815260200160002060006101000a81548173ffffffffffffffffffffffffffffffffffffffff021916908373ffffffffffffffffffffffffffffffffffffffff160217905550808273ffffffffffffffffffffffffffffffffffffffff168473ffffffffffffffffffffffffffffffffffffffff167fddf252ad1be2c89b69c2b068fc378daa952ba7f163c4a11628f55a4df523b3ef60405160405180910390a450505050565b6114d58585858561127e565b6114e184848484611660565b5050505050565b606060405180602001604052806000815250905090565b60606000821415611547576040518060400160405280600181526020017f3000000000000000000000000000000000000000000000000000000000000000815250905061165b565b600082905060005b600082146115795780806115629061224f565b915050600a826115729190612077565b915061154f565b60008167ffffffffffffffff81111561159557611594612385565b5b6040519080825280601f01601f1916602001820160405280156115c75781602001600182028036833780820191505090505b5090505b60008514611654576001826115e09190612102565b9150600a856115ef9190612298565b60306115fb9190612021565b60f81b81838151811061161157611610612356565b5b60200101907effffffffffffffffffffffffffffffffffffffffffffffffffffffffffffff1916908160001a905350600a8561164d9190612077565b94506115cb565b8093505050505b919050565b60008373ffffffffffffffffffffffffffffffffffffffff163b111561181a578273ffffffffffffffffffffffffffffffffffffffff1663150b7a02338685856040518563ffffffff1660e01b81526004016116bf9493929190611dc4565b602060405180830381600087803b1580156116d957600080fd5b505af192505050801561170a57506040513d601f19601f820116820180604052508101906117079190611ae9565b60015b61178f573d806000811461173a576040519150601f19603f3d011682016040523d82523d6000602084013e61173f565b606091505b5060008151141561178757836040517f64a0ae9200000000000000000000000000000000000000000000000000000000815260040161177e9190611d72565b60405180910390fd5b805181602001fd5b63150b7a0260e01b7bffffffffffffffffffffffffffffffffffffffffffffffffffffffff1916817bffffffffffffffffffffffffffffffffffffffffffffffffffffffff19161461181857836040517f64a0ae9200000000000000000000000000000000000000000000000000000000815260040161180f9190611d72565b60405180910390fd5b505b50505050565b600061183361182e84611fad565b611f88565b90508281526020810184848401111561184f5761184e6123b9565b5b61185a8482856121aa565b509392505050565b60008135905061187181612570565b92915050565b60008135905061188681612587565b92915050565b60008135905061189b8161259e565b92915050565b6000815190506118b08161259e565b92915050565b600082601f8301126118cb576118ca6123b4565b5b81356118db848260208601611820565b91505092915050565b6000813590506118f3816125b5565b92915050565b60006020828403121561190f5761190e6123c3565b5b600061191d84828501611862565b91505092915050565b6000806040838503121561193d5761193c6123c3565b5b600061194b85828601611862565b925050602061195c85828601611862565b9150509250929050565b60008060006060848603121561197f5761197e6123c3565b5b600061198d86828701611862565b935050602061199e86828701611862565b92505060406119af868287016118e4565b9150509250925092565b600080600080608085870312156119d3576119d26123c3565b5b60006119e187828801611862565b94505060206119f287828801611862565b9350506040611a03878288016118e4565b925050606085013567ffffffffffffffff811115611a2457611a236123be565b5b611a30878288016118b6565b91505092959194509250565b60008060408385031215611a5357611a526123c3565b5b6000611a6185828601611862565b9250506020611a7285828601611877565b9150509250929050565b60008060408385031215611a9357611a926123c3565b5b6000611aa185828601611862565b9250506020611ab2858286016118e4565b9150509250929050565b600060208284031215611ad257611ad16123c3565b5b6000611ae08482850161188c565b91505092915050565b600060208284031215611aff57611afe6123c3565b5b6000611b0d848285016118a1565b91505092915050565b600060208284031215611b2c57611b2b6123c3565b5b6000611b3a848285016118e4565b91505092915050565b611b4c81612136565b82525050565b611b5b81612148565b82525050565b6000611b6c82611fde565b611b768185611ff4565b9350611b868185602086016121b9565b611b8f816123c8565b840191505092915050565b6000611ba582611fe9565b611baf8185612005565b9350611bbf8185602086016121b9565b611bc8816123c8565b840191505092915050565b6000611bde82611fe9565b611be88185612016565b9350611bf88185602086016121b9565b80840191505092915050565b6000611c11601683612005565b9150611c1c826123d9565b602082019050919050565b6000611c34600e83612005565b9150611c3f82612402565b602082019050919050565b6000611c57601c83612005565b9150611c628261242b565b602082019050919050565b6000611c7a601e83612005565b9150611c8582612454565b602082019050919050565b6000611c9d601383612005565b9150611ca88261247d565b602082019050919050565b6000611cc0601483612005565b9150611ccb826124a6565b602082019050919050565b6000611ce3600f83612005565b9150611cee826124cf565b602082019050919050565b6000611d06602583612005565b9150611d11826124f8565b604082019050919050565b6000611d29600983612005565b9150611d3482612547565b602082019050919050565b611d48816121a0565b82525050565b6000611d5a8285611bd3565b9150611d668284611bd3565b91508190509392505050565b6000602082019050611d876000830184611b43565b92915050565b6000606082019050611da26000830186611b43565b611daf6020830185611b43565b611dbc6040830184611d3f565b949350505050565b6000608082019050611dd96000830187611b43565b611de66020830186611b43565b611df36040830185611d3f565b8181036060830152611e058184611b61565b905095945050505050565b6000602082019050611e256000830184611b52565b92915050565b60006020820190508181036000830152611e458184611b9a565b905092915050565b60006020820190508181036000830152611e6681611c04565b9050919050565b60006020820190508181036000830152611e8681611c27565b9050919050565b60006020820190508181036000830152611ea681611c4a565b9050919050565b60006020820190508181036000830152611ec681611c6d565b9050919050565b60006020820190508181036000830152611ee681611c90565b9050919050565b60006020820190508181036000830152611f0681611cb3565b9050919050565b60006020820190508181036000830152611f2681611cd6565b9050919050565b60006020820190508181036000830152611f4681611cf9565b9050919050565b60006020820190508181036000830152611f6681611d1c565b9050919050565b6000602082019050611f826000830184611d3f565b92915050565b6000611f92611fa3565b9050611f9e828261221e565b919050565b6000604051905090565b600067ffffffffffffffff821115611fc857611fc7612385565b5b611fd1826123c8565b9050602081019050919050565b600081519050919050565b600081519050919050565b600082825260208201905092915050565b600082825260208201905092915050565b600081905092915050565b600061202c826121a0565b9150612037836121a0565b9250827fffffffffffffffffffffffffffffffffffffffffffffffffffffffffffffffff0382111561206c5761206b6122c9565b5b828201905092915050565b6000612082826121a0565b915061208d836121a0565b92508261209d5761209c6122f8565b5b828204905092915050565b60006120b3826121a0565b91506120be836121a0565b9250817fffffffffffffffffffffffffffffffffffffffffffffffffffffffffffffffff04831182151516156120f7576120f66122c9565b5b828202905092915050565b600061210d826121a0565b9150612118836121a0565b92508282101561212b5761212a6122c9565b5b828203905092915050565b600061214182612180565b9050919050565b60008115159050919050565b60007fffffffff0000000000000000000000000000000000000000000000000000000082169050919050565b600073ffffffffffffffffffffffffffffffffffffffff82169050919050565b6000819050919050565b82818337600083830152505050565b60005b838110156121d75780820151818401526020810190506121bc565b838111156121e6576000848401525b50505050565b6000600282049050600182168061220457607f821691505b6020821081141561221857612217612327565b5b50919050565b612227826123c8565b810181811067ffffffffffffffff8211171561224657612245612385565b5b80604052505050565b600061225a826121a0565b91507fffffffffffffffffffffffffffffffffffffffffffffffffffffffffffffffff82141561228d5761228c6122c9565b5b600182019050919050565b60006122a3826121a0565b91506122ae836121a0565b9250826122be576122bd6122f8565b5b828206905092915050565b7f4e487b7100000000000000000000000000000000000000000000000000000000600052601160045260246000fd5b7f4e487b7100000000000000000000000000000000000000000000000000000000600052601260045260246000fd5b7f4e487b7100000000000000000000000000000000000000000000000000000000600052602260045260246000fd5b7f4e487b7100000000000000000000000000000000000000000000000000000000600052603260045260246000fd5b7f4e487b7100000000000000000000000000000000000000000000000000000000600052604160045260246000fd5b600080fd5b600080fd5b600080fd5b600080fd5b6000601f19601f8301169050919050565b7f6e6f74206f776e6572206e6f7220617070726f76656400000000000000000000600082015250565b7f74696d6520697320657870697265000000000000000000000000000000000000600082015250565b7f7472616e7366657220746f20746865207a65726f206164647265737300000000600082015250565b7f6e6f74206f776e6572206e6f7220617070726f76656420666f7220616c6c0000600082015250565b7f746f6b656e20646f65736e277420657869737400000000000000000000000000600082015250565b7f6f776e6572203d207a65726f2061646472657373000000000000000000000000600082015250565b7f546f6b656e204e6f742045786973740000000000000000000000000000000000600082015250565b7f796f7572207072696365206973206c6f776572207468616e2063757272656e7460008201527f5072696365000000000000000000000000000000000000000000000000000000602082015250565b7f6e6f74206f776e65720000000000000000000000000000000000000000000000600082015250565b61257981612136565b811461258457600080fd5b50565b61259081612148565b811461259b57600080fd5b50565b6125a781612154565b81146125b257600080fd5b50565b6125be816121a0565b81146125c957600080fd5b5056fea26469706673582212206016ad0871761c6537aebae914988720a5e814d25b468bdb49a3c80d20c4299e64736f6c63430008070033",
					"opcodes": "PUSH1 0xE0 PUSH1 0x40 MSTORE CALLVALUE DUP1 ISZERO PUSH3 0x11 JUMPI PUSH1 0x0 DUP1 REVERT JUMPDEST POP PUSH1 0x40 MLOAD PUSH3 0x2B1E CODESIZE SUB DUP1 PUSH3 0x2B1E DUP4 CODECOPY DUP2 DUP2 ADD PUSH1 0x40 MSTORE DUP2 ADD SWAP1 PUSH3 0x37 SWAP2 SWAP1 PUSH3 0x1EC JUMP JUMPDEST DUP2 DUP2 DUP2 PUSH1 0x0 SWAP1 DUP1 MLOAD SWAP1 PUSH1 0x20 ADD SWAP1 PUSH3 0x51 SWAP3 SWAP2 SWAP1 PUSH3 0xA7 JUMP JUMPDEST POP DUP1 PUSH1 0x1 SWAP1 DUP1 MLOAD SWAP1 PUSH1 0x20 ADD SWAP1 PUSH3 0x6A SWAP3 SWAP2 SWAP1 PUSH3 0xA7 JUMP JUMPDEST POP POP POP DUP4 PUSH1 0x80 DUP2 DUP2 MSTORE POP POP DUP3 PUSH1 0xA0 DUP2 DUP2 MSTORE POP POP TIMESTAMP PUSH1 0x6 DUP2 SWAP1 SSTORE POP PUSH2 0x258 PUSH1 0x6 SLOAD PUSH3 0x96 SWAP2 SWAP1 PUSH3 0x2FB JUMP JUMPDEST PUSH1 0xC0 DUP2 DUP2 MSTORE POP POP POP POP POP POP PUSH3 0x4D0 JUMP JUMPDEST DUP3 DUP1 SLOAD PUSH3 0xB5 SWAP1 PUSH3 0x398 JUMP JUMPDEST SWAP1 PUSH1 0x0 MSTORE PUSH1 0x20 PUSH1 0x0 KECCAK256 SWAP1 PUSH1 0x1F ADD PUSH1 0x20 SWAP1 DIV DUP2 ADD SWAP3 DUP3 PUSH3 0xD9 JUMPI PUSH1 0x0 DUP6 SSTORE PUSH3 0x125 JUMP JUMPDEST DUP3 PUSH1 0x1F LT PUSH3 0xF4 JUMPI DUP1 MLOAD PUSH1 0xFF NOT AND DUP4 DUP1 ADD OR DUP6 SSTORE PUSH3 0x125 JUMP JUMPDEST DUP3 DUP1 ADD PUSH1 0x1 ADD DUP6 SSTORE DUP3 ISZERO PUSH3 0x125 JUMPI SWAP2 DUP3 ADD JUMPDEST DUP3 DUP2 GT ISZERO PUSH3 0x124 JUMPI DUP3 MLOAD DUP3 SSTORE SWAP2 PUSH1 0x20 ADD SWAP2 SWAP1 PUSH1 0x1 ADD SWAP1 PUSH3 0x107 JUMP JUMPDEST JUMPDEST POP SWAP1 POP PUSH3 0x134 SWAP2 SWAP1 PUSH3 0x138 JUMP JUMPDEST POP SWAP1 JUMP JUMPDEST JUMPDEST DUP1 DUP3 GT ISZERO PUSH3 0x153 JUMPI PUSH1 0x0 DUP2 PUSH1 0x0 SWAP1 SSTORE POP PUSH1 0x1 ADD PUSH3 0x139 JUMP JUMPDEST POP SWAP1 JUMP JUMPDEST PUSH1 0x0 PUSH3 0x16E PUSH3 0x168 DUP5 PUSH3 0x2C5 JUMP JUMPDEST PUSH3 0x29C JUMP JUMPDEST SWAP1 POP DUP3 DUP2 MSTORE PUSH1 0x20 DUP2 ADD DUP5 DUP5 DUP5 ADD GT ISZERO PUSH3 0x18D JUMPI PUSH3 0x18C PUSH3 0x496 JUMP JUMPDEST JUMPDEST PUSH3 0x19A DUP5 DUP3 DUP6 PUSH3 0x362 JUMP JUMPDEST POP SWAP4 SWAP3 POP POP POP JUMP JUMPDEST PUSH1 0x0 DUP3 PUSH1 0x1F DUP4 ADD SLT PUSH3 0x1BA JUMPI PUSH3 0x1B9 PUSH3 0x491 JUMP JUMPDEST JUMPDEST DUP2 MLOAD PUSH3 0x1CC DUP5 DUP3 PUSH1 0x20 DUP7 ADD PUSH3 0x157 JUMP JUMPDEST SWAP2 POP POP SWAP3 SWAP2 POP POP JUMP JUMPDEST PUSH1 0x0 DUP2 MLOAD SWAP1 POP PUSH3 0x1E6 DUP2 PUSH3 0x4B6 JUMP JUMPDEST SWAP3 SWAP2 POP POP JUMP JUMPDEST PUSH1 0x0 DUP1 PUSH1 0x0 DUP1 PUSH1 0x80 DUP6 DUP8 SUB SLT ISZERO PUSH3 0x209 JUMPI PUSH3 0x208 PUSH3 0x4A0 JUMP JUMPDEST JUMPDEST PUSH1 0x0 PUSH3 0x219 DUP8 DUP3 DUP9 ADD PUSH3 0x1D5 JUMP JUMPDEST SWAP5 POP POP PUSH1 0x20 PUSH3 0x22C DUP8 DUP3 DUP9 ADD PUSH3 0x1D5 JUMP JUMPDEST SWAP4 POP POP PUSH1 0x40 DUP6 ADD MLOAD PUSH8 0xFFFFFFFFFFFFFFFF DUP2 GT ISZERO PUSH3 0x250 JUMPI PUSH3 0x24F PUSH3 0x49B JUMP JUMPDEST JUMPDEST PUSH3 0x25E DUP8 DUP3 DUP9 ADD PUSH3 0x1A2 JUMP JUMPDEST SWAP3 POP POP PUSH1 0x60 DUP6 ADD MLOAD PUSH8 0xFFFFFFFFFFFFFFFF DUP2 GT ISZERO PUSH3 0x282 JUMPI PUSH3 0x281 PUSH3 0x49B JUMP JUMPDEST JUMPDEST PUSH3 0x290 DUP8 DUP3 DUP9 ADD PUSH3 0x1A2 JUMP JUMPDEST SWAP2 POP POP SWAP3 SWAP6 SWAP2 SWAP5 POP SWAP3 POP JUMP JUMPDEST PUSH1 0x0 PUSH3 0x2A8 PUSH3 0x2BB JUMP JUMPDEST SWAP1 POP PUSH3 0x2B6 DUP3 DUP3 PUSH3 0x3CE JUMP JUMPDEST SWAP2 SWAP1 POP JUMP JUMPDEST PUSH1 0x0 PUSH1 0x40 MLOAD SWAP1 POP SWAP1 JUMP JUMPDEST PUSH1 0x0 PUSH8 0xFFFFFFFFFFFFFFFF DUP3 GT ISZERO PUSH3 0x2E3 JUMPI PUSH3 0x2E2 PUSH3 0x462 JUMP JUMPDEST JUMPDEST PUSH3 0x2EE DUP3 PUSH3 0x4A5 JUMP JUMPDEST SWAP1 POP PUSH1 0x20 DUP2 ADD SWAP1 POP SWAP2 SWAP1 POP JUMP JUMPDEST PUSH1 0x0 PUSH3 0x308 DUP3 PUSH3 0x358 JUMP JUMPDEST SWAP2 POP PUSH3 0x315 DUP4 PUSH3 0x358 JUMP JUMPDEST SWAP3 POP DUP3 PUSH32 0xFFFFFFFFFFFFFFFFFFFFFFFFFFFFFFFFFFFFFFFFFFFFFFFFFFFFFFFFFFFFFFFF SUB DUP3 GT ISZERO PUSH3 0x34D JUMPI PUSH3 0x34C PUSH3 0x404 JUMP JUMPDEST JUMPDEST DUP3 DUP3 ADD SWAP1 POP SWAP3 SWAP2 POP POP JUMP JUMPDEST PUSH1 0x0 DUP2 SWAP1 POP SWAP2 SWAP1 POP JUMP JUMPDEST PUSH1 0x0 JUMPDEST DUP4 DUP2 LT ISZERO PUSH3 0x382 JUMPI DUP1 DUP3 ADD MLOAD DUP2 DUP5 ADD MSTORE PUSH1 0x20 DUP2 ADD SWAP1 POP PUSH3 0x365 JUMP JUMPDEST DUP4 DUP2 GT ISZERO PUSH3 0x392 JUMPI PUSH1 0x0 DUP5 DUP5 ADD MSTORE JUMPDEST POP POP POP POP JUMP JUMPDEST PUSH1 0x0 PUSH1 0x2 DUP3 DIV SWAP1 POP PUSH1 0x1 DUP3 AND DUP1 PUSH3 0x3B1 JUMPI PUSH1 0x7F DUP3 AND SWAP2 POP JUMPDEST PUSH1 0x20 DUP3 LT DUP2 EQ ISZERO PUSH3 0x3C8 JUMPI PUSH3 0x3C7 PUSH3 0x433 JUMP JUMPDEST JUMPDEST POP SWAP2 SWAP1 POP JUMP JUMPDEST PUSH3 0x3D9 DUP3 PUSH3 0x4A5 JUMP JUMPDEST DUP2 ADD DUP2 DUP2 LT PUSH8 0xFFFFFFFFFFFFFFFF DUP3 GT OR ISZERO PUSH3 0x3FB JUMPI PUSH3 0x3FA PUSH3 0x462 JUMP JUMPDEST JUMPDEST DUP1 PUSH1 0x40 MSTORE POP POP POP JUMP JUMPDEST PUSH32 0x4E487B7100000000000000000000000000000000000000000000000000000000 PUSH1 0x0 MSTORE PUSH1 0x11 PUSH1 0x4 MSTORE PUSH1 0x24 PUSH1 0x0 REVERT JUMPDEST PUSH32 0x4E487B7100000000000000000000000000000000000000000000000000000000 PUSH1 0x0 MSTORE PUSH1 0x22 PUSH1 0x4 MSTORE PUSH1 0x24 PUSH1 0x0 REVERT JUMPDEST PUSH32 0x4E487B7100000000000000000000000000000000000000000000000000000000 PUSH1 0x0 MSTORE PUSH1 0x41 PUSH1 0x4 MSTORE PUSH1 0x24 PUSH1 0x0 REVERT JUMPDEST PUSH1 0x0 DUP1 REVERT JUMPDEST PUSH1 0x0 DUP1 REVERT JUMPDEST PUSH1 0x0 DUP1 REVERT JUMPDEST PUSH1 0x0 DUP1 REVERT JUMPDEST PUSH1 0x0 PUSH1 0x1F NOT PUSH1 0x1F DUP4 ADD AND SWAP1 POP SWAP2 SWAP1 POP JUMP JUMPDEST PUSH3 0x4C1 DUP2 PUSH3 0x358 JUMP JUMPDEST DUP2 EQ PUSH3 0x4CD JUMPI PUSH1 0x0 DUP1 REVERT JUMPDEST POP JUMP JUMPDEST PUSH1 0x80 MLOAD PUSH1 0xA0 MLOAD PUSH1 0xC0 MLOAD PUSH2 0x2602 PUSH3 0x51C PUSH1 0x0 CODECOPY PUSH1 0x0 DUP2 DUP2 PUSH2 0x8DF ADD MSTORE PUSH2 0xA6F ADD MSTORE PUSH1 0x0 DUP2 DUP2 PUSH2 0xDA9 ADD MSTORE PUSH2 0xFD4 ADD MSTORE PUSH1 0x0 DUP2 DUP2 PUSH2 0xFF5 ADD MSTORE DUP2 DUP2 PUSH2 0x1045 ADD MSTORE PUSH2 0x1076 ADD MSTORE PUSH2 0x2602 PUSH1 0x0 RETURN INVALID PUSH1 0x80 PUSH1 0x40 MSTORE PUSH1 0x4 CALLDATASIZE LT PUSH2 0x11F JUMPI PUSH1 0x0 CALLDATALOAD PUSH1 0xE0 SHR DUP1 PUSH4 0x70A08231 GT PUSH2 0xA0 JUMPI DUP1 PUSH4 0xB88D4FDE GT PUSH2 0x64 JUMPI DUP1 PUSH4 0xB88D4FDE EQ PUSH2 0x3EE JUMPI DUP1 PUSH4 0xC87B56DD EQ PUSH2 0x417 JUMPI DUP1 PUSH4 0xE985E9C5 EQ PUSH2 0x454 JUMPI DUP1 PUSH4 0xEB91D37E EQ PUSH2 0x491 JUMPI DUP1 PUSH4 0xF1A9AF89 EQ PUSH2 0x4BC JUMPI PUSH2 0x11F JUMP JUMPDEST DUP1 PUSH4 0x70A08231 EQ PUSH2 0x307 JUMPI DUP1 PUSH4 0x78E97925 EQ PUSH2 0x344 JUMPI DUP1 PUSH4 0x95D89B41 EQ PUSH2 0x36F JUMPI DUP1 PUSH4 0xA22CB465 EQ PUSH2 0x39A JUMPI DUP1 PUSH4 0xA6B513EE EQ PUSH2 0x3C3 JUMPI PUSH2 0x11F JUMP JUMPDEST DUP1 PUSH4 0x153E66E6 GT PUSH2 0xE7 JUMPI DUP1 PUSH4 0x153E66E6 EQ PUSH2 0x21D JUMPI DUP1 PUSH4 0x23B872DD EQ PUSH2 0x24D JUMPI DUP1 PUSH4 0x3197CBB6 EQ PUSH2 0x276 JUMPI DUP1 PUSH4 0x42842E0E EQ PUSH2 0x2A1 JUMPI DUP1 PUSH4 0x6352211E EQ PUSH2 0x2CA JUMPI PUSH2 0x11F JUMP JUMPDEST DUP1 PUSH4 0x1FFC9A7 EQ PUSH2 0x124 JUMPI DUP1 PUSH4 0x6FDDE03 EQ PUSH2 0x161 JUMPI DUP1 PUSH4 0x81812FC EQ PUSH2 0x18C JUMPI DUP1 PUSH4 0x95EA7B3 EQ PUSH2 0x1C9 JUMPI DUP1 PUSH4 0xFB5A6B4 EQ PUSH2 0x1F2 JUMPI JUMPDEST PUSH1 0x0 DUP1 REVERT JUMPDEST CALLVALUE DUP1 ISZERO PUSH2 0x130 JUMPI PUSH1 0x0 DUP1 REVERT JUMPDEST POP PUSH2 0x14B PUSH1 0x4 DUP1 CALLDATASIZE SUB DUP2 ADD SWAP1 PUSH2 0x146 SWAP2 SWAP1 PUSH2 0x1ABC JUMP JUMPDEST PUSH2 0x4E7 JUMP JUMPDEST PUSH1 0x40 MLOAD PUSH2 0x158 SWAP2 SWAP1 PUSH2 0x1E10 JUMP JUMPDEST PUSH1 0x40 MLOAD DUP1 SWAP2 SUB SWAP1 RETURN JUMPDEST CALLVALUE DUP1 ISZERO PUSH2 0x16D JUMPI PUSH1 0x0 DUP1 REVERT JUMPDEST POP PUSH2 0x176 PUSH2 0x621 JUMP JUMPDEST PUSH1 0x40 MLOAD PUSH2 0x183 SWAP2 SWAP1 PUSH2 0x1E2B JUMP JUMPDEST PUSH1 0x40 MLOAD DUP1 SWAP2 SUB SWAP1 RETURN JUMPDEST CALLVALUE DUP1 ISZERO PUSH2 0x198 JUMPI PUSH1 0x0 DUP1 REVERT JUMPDEST POP PUSH2 0x1B3 PUSH1 0x4 DUP1 CALLDATASIZE SUB DUP2 ADD SWAP1 PUSH2 0x1AE SWAP2 SWAP1 PUSH2 0x1B16 JUMP JUMPDEST PUSH2 0x6AF JUMP JUMPDEST PUSH1 0x40 MLOAD PUSH2 0x1C0 SWAP2 SWAP1 PUSH2 0x1D72 JUMP JUMPDEST PUSH1 0x40 MLOAD DUP1 SWAP2 SUB SWAP1 RETURN JUMPDEST CALLVALUE DUP1 ISZERO PUSH2 0x1D5 JUMPI PUSH1 0x0 DUP1 REVERT JUMPDEST POP PUSH2 0x1F0 PUSH1 0x4 DUP1 CALLDATASIZE SUB DUP2 ADD SWAP1 PUSH2 0x1EB SWAP2 SWAP1 PUSH2 0x1A7C JUMP JUMPDEST PUSH2 0x78E JUMP JUMPDEST STOP JUMPDEST CALLVALUE DUP1 ISZERO PUSH2 0x1FE JUMPI PUSH1 0x0 DUP1 REVERT JUMPDEST POP PUSH2 0x207 PUSH2 0x8D5 JUMP JUMPDEST PUSH1 0x40 MLOAD PUSH2 0x214 SWAP2 SWAP1 PUSH2 0x1F6D JUMP JUMPDEST PUSH1 0x40 MLOAD DUP1 SWAP2 SUB SWAP1 RETURN JUMPDEST PUSH2 0x237 PUSH1 0x4 DUP1 CALLDATASIZE SUB DUP2 ADD SWAP1 PUSH2 0x232 SWAP2 SWAP1 PUSH2 0x1966 JUMP JUMPDEST PUSH2 0x8DB JUMP JUMPDEST PUSH1 0x40 MLOAD PUSH2 0x244 SWAP2 SWAP1 PUSH2 0x1E10 JUMP JUMPDEST PUSH1 0x40 MLOAD DUP1 SWAP2 SUB SWAP1 RETURN JUMPDEST CALLVALUE DUP1 ISZERO PUSH2 0x259 JUMPI PUSH1 0x0 DUP1 REVERT JUMPDEST POP PUSH2 0x274 PUSH1 0x4 DUP1 CALLDATASIZE SUB DUP2 ADD SWAP1 PUSH2 0x26F SWAP2 SWAP1 PUSH2 0x1966 JUMP JUMPDEST PUSH2 0xA04 JUMP JUMPDEST STOP JUMPDEST CALLVALUE DUP1 ISZERO PUSH2 0x282 JUMPI PUSH1 0x0 DUP1 REVERT JUMPDEST POP PUSH2 0x28B PUSH2 0xA6D JUMP JUMPDEST PUSH1 0x40 MLOAD PUSH2 0x298 SWAP2 SWAP1 PUSH2 0x1F6D JUMP JUMPDEST PUSH1 0x40 MLOAD DUP1 SWAP2 SUB SWAP1 RETURN JUMPDEST CALLVALUE DUP1 ISZERO PUSH2 0x2AD JUMPI PUSH1 0x0 DUP1 REVERT JUMPDEST POP PUSH2 0x2C8 PUSH1 0x4 DUP1 CALLDATASIZE SUB DUP2 ADD SWAP1 PUSH2 0x2C3 SWAP2 SWAP1 PUSH2 0x1966 JUMP JUMPDEST PUSH2 0xA91 JUMP JUMPDEST STOP JUMPDEST CALLVALUE DUP1 ISZERO PUSH2 0x2D6 JUMPI PUSH1 0x0 DUP1 REVERT JUMPDEST POP PUSH2 0x2F1 PUSH1 0x4 DUP1 CALLDATASIZE SUB DUP2 ADD SWAP1 PUSH2 0x2EC SWAP2 SWAP1 PUSH2 0x1B16 JUMP JUMPDEST PUSH2 0xAB1 JUMP JUMPDEST PUSH1 0x40 MLOAD PUSH2 0x2FE SWAP2 SWAP1 PUSH2 0x1D72 JUMP JUMPDEST PUSH1 0x40 MLOAD DUP1 SWAP2 SUB SWAP1 RETURN JUMPDEST CALLVALUE DUP1 ISZERO PUSH2 0x313 JUMPI PUSH1 0x0 DUP1 REVERT JUMPDEST POP PUSH2 0x32E PUSH1 0x4 DUP1 CALLDATASIZE SUB DUP2 ADD SWAP1 PUSH2 0x329 SWAP2 SWAP1 PUSH2 0x18F9 JUMP JUMPDEST PUSH2 0xB5E JUMP JUMPDEST PUSH1 0x40 MLOAD PUSH2 0x33B SWAP2 SWAP1 PUSH2 0x1F6D JUMP JUMPDEST PUSH1 0x40 MLOAD DUP1 SWAP2 SUB SWAP1 RETURN JUMPDEST CALLVALUE DUP1 ISZERO PUSH2 0x350 JUMPI PUSH1 0x0 DUP1 REVERT JUMPDEST POP PUSH2 0x359 PUSH2 0xC16 JUMP JUMPDEST PUSH1 0x40 MLOAD PUSH2 0x366 SWAP2 SWAP1 PUSH2 0x1F6D JUMP JUMPDEST PUSH1 0x40 MLOAD DUP1 SWAP2 SUB SWAP1 RETURN JUMPDEST CALLVALUE DUP1 ISZERO PUSH2 0x37B JUMPI PUSH1 0x0 DUP1 REVERT JUMPDEST POP PUSH2 0x384 PUSH2 0xC1C JUMP JUMPDEST PUSH1 0x40 MLOAD PUSH2 0x391 SWAP2 SWAP1 PUSH2 0x1E2B JUMP JUMPDEST PUSH1 0x40 MLOAD DUP1 SWAP2 SUB SWAP1 RETURN JUMPDEST CALLVALUE DUP1 ISZERO PUSH2 0x3A6 JUMPI PUSH1 0x0 DUP1 REVERT JUMPDEST POP PUSH2 0x3C1 PUSH1 0x4 DUP1 CALLDATASIZE SUB DUP2 ADD SWAP1 PUSH2 0x3BC SWAP2 SWAP1 PUSH2 0x1A3C JUMP JUMPDEST PUSH2 0xCAA JUMP JUMPDEST STOP JUMPDEST CALLVALUE DUP1 ISZERO PUSH2 0x3CF JUMPI PUSH1 0x0 DUP1 REVERT JUMPDEST POP PUSH2 0x3D8 PUSH2 0xDA7 JUMP JUMPDEST PUSH1 0x40 MLOAD PUSH2 0x3E5 SWAP2 SWAP1 PUSH2 0x1F6D JUMP JUMPDEST PUSH1 0x40 MLOAD DUP1 SWAP2 SUB SWAP1 RETURN JUMPDEST CALLVALUE DUP1 ISZERO PUSH2 0x3FA JUMPI PUSH1 0x0 DUP1 REVERT JUMPDEST POP PUSH2 0x415 PUSH1 0x4 DUP1 CALLDATASIZE SUB DUP2 ADD SWAP1 PUSH2 0x410 SWAP2 SWAP1 PUSH2 0x19B9 JUMP JUMPDEST PUSH2 0xDCB JUMP JUMPDEST STOP JUMPDEST CALLVALUE DUP1 ISZERO PUSH2 0x423 JUMPI PUSH1 0x0 DUP1 REVERT JUMPDEST POP PUSH2 0x43E PUSH1 0x4 DUP1 CALLDATASIZE SUB DUP2 ADD SWAP1 PUSH2 0x439 SWAP2 SWAP1 PUSH2 0x1B16 JUMP JUMPDEST PUSH2 0xE36 JUMP JUMPDEST PUSH1 0x40 MLOAD PUSH2 0x44B SWAP2 SWAP1 PUSH2 0x1E2B JUMP JUMPDEST PUSH1 0x40 MLOAD DUP1 SWAP2 SUB SWAP1 RETURN JUMPDEST CALLVALUE DUP1 ISZERO PUSH2 0x460 JUMPI PUSH1 0x0 DUP1 REVERT JUMPDEST POP PUSH2 0x47B PUSH1 0x4 DUP1 CALLDATASIZE SUB DUP2 ADD SWAP1 PUSH2 0x476 SWAP2 SWAP1 PUSH2 0x1926 JUMP JUMPDEST PUSH2 0xF38 JUMP JUMPDEST PUSH1 0x40 MLOAD PUSH2 0x488 SWAP2 SWAP1 PUSH2 0x1E10 JUMP JUMPDEST PUSH1 0x40 MLOAD DUP1 SWAP2 SUB SWAP1 RETURN JUMPDEST CALLVALUE DUP1 ISZERO PUSH2 0x49D JUMPI PUSH1 0x0 DUP1 REVERT JUMPDEST POP PUSH2 0x4A6 PUSH2 0xFCC JUMP JUMPDEST PUSH1 0x40 MLOAD PUSH2 0x4B3 SWAP2 SWAP1 PUSH2 0x1F6D JUMP JUMPDEST PUSH1 0x40 MLOAD DUP1 SWAP2 SUB SWAP1 RETURN JUMPDEST CALLVALUE DUP1 ISZERO PUSH2 0x4C8 JUMPI PUSH1 0x0 DUP1 REVERT JUMPDEST POP PUSH2 0x4D1 PUSH2 0x1074 JUMP JUMPDEST PUSH1 0x40 MLOAD PUSH2 0x4DE SWAP2 SWAP1 PUSH2 0x1F6D JUMP JUMPDEST PUSH1 0x40 MLOAD DUP1 SWAP2 SUB SWAP1 RETURN JUMPDEST PUSH1 0x0 PUSH32 0x80AC58CD00000000000000000000000000000000000000000000000000000000 PUSH28 0xFFFFFFFFFFFFFFFFFFFFFFFFFFFFFFFFFFFFFFFFFFFFFFFFFFFFFFFF NOT AND DUP3 PUSH28 0xFFFFFFFFFFFFFFFFFFFFFFFFFFFFFFFFFFFFFFFFFFFFFFFFFFFFFFFF NOT AND EQ DUP1 PUSH2 0x5B2 JUMPI POP PUSH32 0x1FFC9A700000000000000000000000000000000000000000000000000000000 PUSH28 0xFFFFFFFFFFFFFFFFFFFFFFFFFFFFFFFFFFFFFFFFFFFFFFFFFFFFFFFF NOT AND DUP3 PUSH28 0xFFFFFFFFFFFFFFFFFFFFFFFFFFFFFFFFFFFFFFFFFFFFFFFFFFFFFFFF NOT AND EQ JUMPDEST DUP1 PUSH2 0x61A JUMPI POP PUSH32 0x5B5E139F00000000000000000000000000000000000000000000000000000000 PUSH28 0xFFFFFFFFFFFFFFFFFFFFFFFFFFFFFFFFFFFFFFFFFFFFFFFFFFFFFFFF NOT AND DUP3 PUSH28 0xFFFFFFFFFFFFFFFFFFFFFFFFFFFFFFFFFFFFFFFFFFFFFFFFFFFFFFFF NOT AND EQ JUMPDEST SWAP1 POP SWAP2 SWAP1 POP JUMP JUMPDEST PUSH1 0x0 DUP1 SLOAD PUSH2 0x62E SWAP1 PUSH2 0x21EC JUMP JUMPDEST DUP1 PUSH1 0x1F ADD PUSH1 0x20 DUP1 SWAP2 DIV MUL PUSH1 0x20 ADD PUSH1 0x40 MLOAD SWAP1 DUP2 ADD PUSH1 0x40 MSTORE DUP1 SWAP3 SWAP2 SWAP1 DUP2 DUP2 MSTORE PUSH1 0x20 ADD DUP3 DUP1 SLOAD PUSH2 0x65A SWAP1 PUSH2 0x21EC JUMP JUMPDEST DUP1 ISZERO PUSH2 0x6A7 JUMPI DUP1 PUSH1 0x1F LT PUSH2 0x67C JUMPI PUSH2 0x100 DUP1 DUP4 SLOAD DIV MUL DUP4 MSTORE SWAP2 PUSH1 0x20 ADD SWAP2 PUSH2 0x6A7 JUMP JUMPDEST DUP3 ADD SWAP2 SWAP1 PUSH1 0x0 MSTORE PUSH1 0x20 PUSH1 0x0 KECCAK256 SWAP1 JUMPDEST DUP2 SLOAD DUP2 MSTORE SWAP1 PUSH1 0x1 ADD SWAP1 PUSH1 0x20 ADD DUP1 DUP4 GT PUSH2 0x68A JUMPI DUP3 SWAP1 SUB PUSH1 0x1F AND DUP3 ADD SWAP2 JUMPDEST POP POP POP POP POP DUP2 JUMP JUMPDEST PUSH1 0x0 DUP1 PUSH20 0xFFFFFFFFFFFFFFFFFFFFFFFFFFFFFFFFFFFFFFFF AND PUSH1 0x2 PUSH1 0x0 DUP5 DUP2 MSTORE PUSH1 0x20 ADD SWAP1 DUP2 MSTORE PUSH1 0x20 ADD PUSH1 0x0 KECCAK256 PUSH1 0x0 SWAP1 SLOAD SWAP1 PUSH2 0x100 EXP SWAP1 DIV PUSH20 0xFFFFFFFFFFFFFFFFFFFFFFFFFFFFFFFFFFFFFFFF AND PUSH20 0xFFFFFFFFFFFFFFFFFFFFFFFFFFFFFFFFFFFFFFFF AND EQ ISZERO PUSH2 0x753 JUMPI PUSH1 0x40 MLOAD PUSH32 0x8C379A000000000000000000000000000000000000000000000000000000000 DUP2 MSTORE PUSH1 0x4 ADD PUSH2 0x74A SWAP1 PUSH2 0x1ECD JUMP JUMPDEST PUSH1 0x40 MLOAD DUP1 SWAP2 SUB SWAP1 REVERT JUMPDEST PUSH1 0x4 PUSH1 0x0 DUP4 DUP2 MSTORE PUSH1 0x20 ADD SWAP1 DUP2 MSTORE PUSH1 0x20 ADD PUSH1 0x0 KECCAK256 PUSH1 0x0 SWAP1 SLOAD SWAP1 PUSH2 0x100 EXP SWAP1 DIV PUSH20 0xFFFFFFFFFFFFFFFFFFFFFFFFFFFFFFFFFFFFFFFF AND SWAP1 POP SWAP2 SWAP1 POP JUMP JUMPDEST PUSH1 0x0 PUSH1 0x2 PUSH1 0x0 DUP4 DUP2 MSTORE PUSH1 0x20 ADD SWAP1 DUP2 MSTORE PUSH1 0x20 ADD PUSH1 0x0 KECCAK256 PUSH1 0x0 SWAP1 SLOAD SWAP1 PUSH2 0x100 EXP SWAP1 DIV PUSH20 0xFFFFFFFFFFFFFFFFFFFFFFFFFFFFFFFFFFFFFFFF AND SWAP1 POP DUP1 PUSH20 0xFFFFFFFFFFFFFFFFFFFFFFFFFFFFFFFFFFFFFFFF AND CALLER PUSH20 0xFFFFFFFFFFFFFFFFFFFFFFFFFFFFFFFFFFFFFFFF AND EQ DUP1 PUSH2 0x886 JUMPI POP PUSH1 0x5 PUSH1 0x0 DUP3 PUSH20 0xFFFFFFFFFFFFFFFFFFFFFFFFFFFFFFFFFFFFFFFF AND PUSH20 0xFFFFFFFFFFFFFFFFFFFFFFFFFFFFFFFFFFFFFFFF AND DUP2 MSTORE PUSH1 0x20 ADD SWAP1 DUP2 MSTORE PUSH1 0x20 ADD PUSH1 0x0 KECCAK256 PUSH1 0x0 CALLER PUSH20 0xFFFFFFFFFFFFFFFFFFFFFFFFFFFFFFFFFFFFFFFF AND PUSH20 0xFFFFFFFFFFFFFFFFFFFFFFFFFFFFFFFFFFFFFFFF AND DUP2 MSTORE PUSH1 0x20 ADD SWAP1 DUP2 MSTORE PUSH1 0x20 ADD PUSH1 0x0 KECCAK256 PUSH1 0x0 SWAP1 SLOAD SWAP1 PUSH2 0x100 EXP SWAP1 DIV PUSH1 0xFF AND JUMPDEST PUSH2 0x8C5 JUMPI PUSH1 0x40 MLOAD PUSH32 0x8C379A000000000000000000000000000000000000000000000000000000000 DUP2 MSTORE PUSH1 0x4 ADD PUSH2 0x8BC SWAP1 PUSH2 0x1EAD JUMP JUMPDEST PUSH1 0x40 MLOAD DUP1 SWAP2 SUB SWAP1 REVERT JUMPDEST PUSH2 0x8D0 DUP2 DUP5 DUP5 PUSH2 0x1098 JUMP JUMPDEST POP POP POP JUMP JUMPDEST PUSH2 0x258 DUP2 JUMP JUMPDEST PUSH1 0x0 PUSH32 0x0 TIMESTAMP GT ISZERO PUSH2 0x940 JUMPI PUSH1 0x40 MLOAD PUSH32 0x8C379A000000000000000000000000000000000000000000000000000000000 DUP2 MSTORE PUSH1 0x4 ADD PUSH2 0x937 SWAP1 PUSH2 0x1E6D JUMP JUMPDEST PUSH1 0x40 MLOAD DUP1 SWAP2 SUB SWAP1 REVERT JUMPDEST PUSH2 0x948 PUSH2 0xFCC JUMP JUMPDEST CALLVALUE LT ISZERO PUSH2 0x98A JUMPI PUSH1 0x40 MLOAD PUSH32 0x8C379A000000000000000000000000000000000000000000000000000000000 DUP2 MSTORE PUSH1 0x4 ADD PUSH2 0x981 SWAP1 PUSH2 0x1F2D JUMP JUMPDEST PUSH1 0x40 MLOAD DUP1 SWAP2 SUB SWAP1 REVERT JUMPDEST ADDRESS PUSH20 0xFFFFFFFFFFFFFFFFFFFFFFFFFFFFFFFFFFFFFFFF AND PUSH4 0x23B872DD DUP6 DUP6 DUP6 PUSH1 0x40 MLOAD DUP5 PUSH4 0xFFFFFFFF AND PUSH1 0xE0 SHL DUP2 MSTORE PUSH1 0x4 ADD PUSH2 0x9C7 SWAP4 SWAP3 SWAP2 SWAP1 PUSH2 0x1D8D JUMP JUMPDEST PUSH1 0x0 PUSH1 0x40 MLOAD DUP1 DUP4 SUB DUP2 PUSH1 0x0 DUP8 DUP1 EXTCODESIZE ISZERO DUP1 ISZERO PUSH2 0x9E1 JUMPI PUSH1 0x0 DUP1 REVERT JUMPDEST POP GAS CALL ISZERO DUP1 ISZERO PUSH2 0x9F5 JUMPI RETURNDATASIZE PUSH1 0x0 DUP1 RETURNDATACOPY RETURNDATASIZE PUSH1 0x0 REVERT JUMPDEST POP POP POP POP PUSH1 0x1 SWAP1 POP SWAP4 SWAP3 POP POP POP JUMP JUMPDEST PUSH1 0x0 PUSH2 0xA0F DUP3 PUSH2 0xAB1 JUMP JUMPDEST SWAP1 POP PUSH2 0xA1C DUP2 CALLER DUP5 PUSH2 0x114A JUMP JUMPDEST PUSH2 0xA5B JUMPI PUSH1 0x40 MLOAD PUSH32 0x8C379A000000000000000000000000000000000000000000000000000000000 DUP2 MSTORE PUSH1 0x4 ADD PUSH2 0xA52 SWAP1 PUSH2 0x1E4D JUMP JUMPDEST PUSH1 0x40 MLOAD DUP1 SWAP2 SUB SWAP1 REVERT JUMPDEST PUSH2 0xA67 DUP2 DUP6 DUP6 DUP6 PUSH2 0x127E JUMP JUMPDEST POP POP POP POP JUMP JUMPDEST PUSH32 0x0 DUP2 JUMP JUMPDEST PUSH2 0xAAC DUP4 DUP4 DUP4 PUSH1 0x40 MLOAD DUP1 PUSH1 0x20 ADD PUSH1 0x40 MSTORE DUP1 PUSH1 0x0 DUP2 MSTORE POP PUSH2 0xDCB JUMP JUMPDEST POP POP POP JUMP JUMPDEST PUSH1 0x0 PUSH1 0x2 PUSH1 0x0 DUP4 DUP2 MSTORE PUSH1 0x20 ADD SWAP1 DUP2 MSTORE PUSH1 0x20 ADD PUSH1 0x0 KECCAK256 PUSH1 0x0 SWAP1 SLOAD SWAP1 PUSH2 0x100 EXP SWAP1 DIV PUSH20 0xFFFFFFFFFFFFFFFFFFFFFFFFFFFFFFFFFFFFFFFF AND SWAP1 POP PUSH1 0x0 PUSH20 0xFFFFFFFFFFFFFFFFFFFFFFFFFFFFFFFFFFFFFFFF AND DUP2 PUSH20 0xFFFFFFFFFFFFFFFFFFFFFFFFFFFFFFFFFFFFFFFF AND EQ ISZERO PUSH2 0xB59 JUMPI PUSH1 0x40 MLOAD PUSH32 0x8C379A000000000000000000000000000000000000000000000000000000000 DUP2 MSTORE PUSH1 0x4 ADD PUSH2 0xB50 SWAP1 PUSH2 0x1ECD JUMP JUMPDEST PUSH1 0x40 MLOAD DUP1 SWAP2 SUB SWAP1 REVERT JUMPDEST SWAP2 SWAP1 POP JUMP JUMPDEST PUSH1 0x0 DUP1 PUSH20 0xFFFFFFFFFFFFFFFFFFFFFFFFFFFFFFFFFFFFFFFF AND DUP3 PUSH20 0xFFFFFFFFFFFFFFFFFFFFFFFFFFFFFFFFFFFFFFFF AND EQ ISZERO PUSH2 0xBCF JUMPI PUSH1 0x40 MLOAD PUSH32 0x8C379A000000000000000000000000000000000000000000000000000000000 DUP2 MSTORE PUSH1 0x4 ADD PUSH2 0xBC6 SWAP1 PUSH2 0x1EED JUMP JUMPDEST PUSH1 0x40 MLOAD DUP1 SWAP2 SUB SWAP1 REVERT JUMPDEST PUSH1 0x3 PUSH1 0x0 DUP4 PUSH20 0xFFFFFFFFFFFFFFFFFFFFFFFFFFFFFFFFFFFFFFFF AND PUSH20 0xFFFFFFFFFFFFFFFFFFFFFFFFFFFFFFFFFFFFFFFF AND DUP2 MSTORE PUSH1 0x20 ADD SWAP1 DUP2 MSTORE PUSH1 0x20 ADD PUSH1 0x0 KECCAK256 SLOAD SWAP1 POP SWAP2 SWAP1 POP JUMP JUMPDEST PUSH1 0x6 SLOAD DUP2 JUMP JUMPDEST PUSH1 0x1 DUP1 SLOAD PUSH2 0xC29 SWAP1 PUSH2 0x21EC JUMP JUMPDEST DUP1 PUSH1 0x1F ADD PUSH1 0x20 DUP1 SWAP2 DIV MUL PUSH1 0x20 ADD PUSH1 0x40 MLOAD SWAP1 DUP2 ADD PUSH1 0x40 MSTORE DUP1 SWAP3 SWAP2 SWAP1 DUP2 DUP2 MSTORE PUSH1 0x20 ADD DUP3 DUP1 SLOAD PUSH2 0xC55 SWAP1 PUSH2 0x21EC JUMP JUMPDEST DUP1 ISZERO PUSH2 0xCA2 JUMPI DUP1 PUSH1 0x1F LT PUSH2 0xC77 JUMPI PUSH2 0x100 DUP1 DUP4 SLOAD DIV MUL DUP4 MSTORE SWAP2 PUSH1 0x20 ADD SWAP2 PUSH2 0xCA2 JUMP JUMPDEST DUP3 ADD SWAP2 SWAP1 PUSH1 0x0 MSTORE PUSH1 0x20 PUSH1 0x0 KECCAK256 SWAP1 JUMPDEST DUP2 SLOAD DUP2 MSTORE SWAP1 PUSH1 0x1 ADD SWAP1 PUSH1 0x20 ADD DUP1 DUP4 GT PUSH2 0xC85 JUMPI DUP3 SWAP1 SUB PUSH1 0x1F AND DUP3 ADD SWAP2 JUMPDEST POP POP POP POP POP DUP2 JUMP JUMPDEST DUP1 PUSH1 0x5 PUSH1 0x0 CALLER PUSH20 0xFFFFFFFFFFFFFFFFFFFFFFFFFFFFFFFFFFFFFFFF AND PUSH20 0xFFFFFFFFFFFFFFFFFFFFFFFFFFFFFFFFFFFFFFFF AND DUP2 MSTORE PUSH1 0x20 ADD SWAP1 DUP2 MSTORE PUSH1 0x20 ADD PUSH1 0x0 KECCAK256 PUSH1 0x0 DUP5 PUSH20 0xFFFFFFFFFFFFFFFFFFFFFFFFFFFFFFFFFFFFFFFF AND PUSH20 0xFFFFFFFFFFFFFFFFFFFFFFFFFFFFFFFFFFFFFFFF AND DUP2 MSTORE PUSH1 0x20 ADD SWAP1 DUP2 MSTORE PUSH1 0x20 ADD PUSH1 0x0 KECCAK256 PUSH1 0x0 PUSH2 0x100 EXP DUP2 SLOAD DUP2 PUSH1 0xFF MUL NOT AND SWAP1 DUP4 ISZERO ISZERO MUL OR SWAP1 SSTORE POP DUP2 PUSH20 0xFFFFFFFFFFFFFFFFFFFFFFFFFFFFFFFFFFFFFFFF AND CALLER PUSH20 0xFFFFFFFFFFFFFFFFFFFFFFFFFFFFFFFFFFFFFFFF AND PUSH32 0x17307EAB39AB6107E8899845AD3D59BD9653F200F220920489CA2B5937696C31 DUP4 PUSH1 0x40 MLOAD PUSH2 0xD9B SWAP2 SWAP1 PUSH2 0x1E10 JUMP JUMPDEST PUSH1 0x40 MLOAD DUP1 SWAP2 SUB SWAP1 LOG3 POP POP JUMP JUMPDEST PUSH32 0x0 DUP2 JUMP JUMPDEST PUSH1 0x0 PUSH2 0xDD6 DUP4 PUSH2 0xAB1 JUMP JUMPDEST SWAP1 POP PUSH2 0xDE3 DUP2 CALLER DUP6 PUSH2 0x114A JUMP JUMPDEST PUSH2 0xE22 JUMPI PUSH1 0x40 MLOAD PUSH32 0x8C379A000000000000000000000000000000000000000000000000000000000 DUP2 MSTORE PUSH1 0x4 ADD PUSH2 0xE19 SWAP1 PUSH2 0x1E4D JUMP JUMPDEST PUSH1 0x40 MLOAD DUP1 SWAP2 SUB SWAP1 REVERT JUMPDEST PUSH2 0xE2F DUP2 DUP7 DUP7 DUP7 DUP7 PUSH2 0x14C9 JUMP JUMPDEST POP POP POP POP POP JUMP JUMPDEST PUSH1 0x60 PUSH1 0x0 PUSH20 0xFFFFFFFFFFFFFFFFFFFFFFFFFFFFFFFFFFFFFFFF AND PUSH1 0x2 PUSH1 0x0 DUP5 DUP2 MSTORE PUSH1 0x20 ADD SWAP1 DUP2 MSTORE PUSH1 0x20 ADD PUSH1 0x0 KECCAK256 PUSH1 0x0 SWAP1 SLOAD SWAP1 PUSH2 0x100 EXP SWAP1 DIV PUSH20 0xFFFFFFFFFFFFFFFFFFFFFFFFFFFFFFFFFFFFFFFF AND PUSH20 0xFFFFFFFFFFFFFFFFFFFFFFFFFFFFFFFFFFFFFFFF AND EQ ISZERO PUSH2 0xEDB JUMPI PUSH1 0x40 MLOAD PUSH32 0x8C379A000000000000000000000000000000000000000000000000000000000 DUP2 MSTORE PUSH1 0x4 ADD PUSH2 0xED2 SWAP1 PUSH2 0x1F0D JUMP JUMPDEST PUSH1 0x40 MLOAD DUP1 SWAP2 SUB SWAP1 REVERT JUMPDEST PUSH1 0x0 PUSH2 0xEE5 PUSH2 0x14E8 JUMP JUMPDEST SWAP1 POP PUSH1 0x0 DUP2 MLOAD GT PUSH2 0xF05 JUMPI PUSH1 0x40 MLOAD DUP1 PUSH1 0x20 ADD PUSH1 0x40 MSTORE DUP1 PUSH1 0x0 DUP2 MSTORE POP PUSH2 0xF30 JUMP JUMPDEST DUP1 PUSH2 0xF0F DUP5 PUSH2 0x14FF JUMP JUMPDEST PUSH1 0x40 MLOAD PUSH1 0x20 ADD PUSH2 0xF20 SWAP3 SWAP2 SWAP1 PUSH2 0x1D4E JUMP JUMPDEST PUSH1 0x40 MLOAD PUSH1 0x20 DUP2 DUP4 SUB SUB DUP2 MSTORE SWAP1 PUSH1 0x40 MSTORE JUMPDEST SWAP2 POP POP SWAP2 SWAP1 POP JUMP JUMPDEST PUSH1 0x0 PUSH1 0x5 PUSH1 0x0 DUP5 PUSH20 0xFFFFFFFFFFFFFFFFFFFFFFFFFFFFFFFFFFFFFFFF AND PUSH20 0xFFFFFFFFFFFFFFFFFFFFFFFFFFFFFFFFFFFFFFFF AND DUP2 MSTORE PUSH1 0x20 ADD SWAP1 DUP2 MSTORE PUSH1 0x20 ADD PUSH1 0x0 KECCAK256 PUSH1 0x0 DUP4 PUSH20 0xFFFFFFFFFFFFFFFFFFFFFFFFFFFFFFFFFFFFFFFF AND PUSH20 0xFFFFFFFFFFFFFFFFFFFFFFFFFFFFFFFFFFFFFFFF AND DUP2 MSTORE PUSH1 0x20 ADD SWAP1 DUP2 MSTORE PUSH1 0x20 ADD PUSH1 0x0 KECCAK256 PUSH1 0x0 SWAP1 SLOAD SWAP1 PUSH2 0x100 EXP SWAP1 DIV PUSH1 0xFF AND SWAP1 POP SWAP3 SWAP2 POP POP JUMP JUMPDEST PUSH1 0x0 DUP1 PUSH2 0x258 PUSH32 0x0 PUSH32 0x0 PUSH2 0x101E SWAP2 SWAP1 PUSH2 0x2102 JUMP JUMPDEST PUSH2 0x1028 SWAP2 SWAP1 PUSH2 0x2077 JUMP JUMPDEST SWAP1 POP DUP1 PUSH1 0x6 SLOAD TIMESTAMP PUSH2 0x1039 SWAP2 SWAP1 PUSH2 0x2102 JUMP JUMPDEST PUSH2 0x1043 SWAP2 SWAP1 PUSH2 0x20A8 JUMP JUMPDEST PUSH32 0x0 PUSH2 0x106E SWAP2 SWAP1 PUSH2 0x2102 JUMP JUMPDEST SWAP2 POP POP SWAP1 JUMP JUMPDEST PUSH32 0x0 DUP2 JUMP JUMPDEST DUP2 PUSH1 0x4 PUSH1 0x0 DUP4 DUP2 MSTORE PUSH1 0x20 ADD SWAP1 DUP2 MSTORE PUSH1 0x20 ADD PUSH1 0x0 KECCAK256 PUSH1 0x0 PUSH2 0x100 EXP DUP2 SLOAD DUP2 PUSH20 0xFFFFFFFFFFFFFFFFFFFFFFFFFFFFFFFFFFFFFFFF MUL NOT AND SWAP1 DUP4 PUSH20 0xFFFFFFFFFFFFFFFFFFFFFFFFFFFFFFFFFFFFFFFF AND MUL OR SWAP1 SSTORE POP DUP1 DUP3 PUSH20 0xFFFFFFFFFFFFFFFFFFFFFFFFFFFFFFFFFFFFFFFF AND DUP5 PUSH20 0xFFFFFFFFFFFFFFFFFFFFFFFFFFFFFFFFFFFFFFFF AND PUSH32 0x8C5BE1E5EBEC7D5BD14F71427D1E84F3DD0314C0F7B2291E5B200AC8C7C3B925 PUSH1 0x40 MLOAD PUSH1 0x40 MLOAD DUP1 SWAP2 SUB SWAP1 LOG4 POP POP POP JUMP JUMPDEST PUSH1 0x0 DUP4 PUSH20 0xFFFFFFFFFFFFFFFFFFFFFFFFFFFFFFFFFFFFFFFF AND DUP4 PUSH20 0xFFFFFFFFFFFFFFFFFFFFFFFFFFFFFFFFFFFFFFFF AND EQ DUP1 PUSH2 0x11E4 JUMPI POP DUP3 PUSH20 0xFFFFFFFFFFFFFFFFFFFFFFFFFFFFFFFFFFFFFFFF AND PUSH1 0x4 PUSH1 0x0 DUP5 DUP2 MSTORE PUSH1 0x20 ADD SWAP1 DUP2 MSTORE PUSH1 0x20 ADD PUSH1 0x0 KECCAK256 PUSH1 0x0 SWAP1 SLOAD SWAP1 PUSH2 0x100 EXP SWAP1 DIV PUSH20 0xFFFFFFFFFFFFFFFFFFFFFFFFFFFFFFFFFFFFFFFF AND PUSH20 0xFFFFFFFFFFFFFFFFFFFFFFFFFFFFFFFFFFFFFFFF AND EQ JUMPDEST DUP1 PUSH2 0x1275 JUMPI POP PUSH1 0x5 PUSH1 0x0 DUP6 PUSH20 0xFFFFFFFFFFFFFFFFFFFFFFFFFFFFFFFFFFFFFFFF AND PUSH20 0xFFFFFFFFFFFFFFFFFFFFFFFFFFFFFFFFFFFFFFFF AND DUP2 MSTORE PUSH1 0x20 ADD SWAP1 DUP2 MSTORE PUSH1 0x20 ADD PUSH1 0x0 KECCAK256 PUSH1 0x0 DUP5 PUSH20 0xFFFFFFFFFFFFFFFFFFFFFFFFFFFFFFFFFFFFFFFF AND PUSH20 0xFFFFFFFFFFFFFFFFFFFFFFFFFFFFFFFFFFFFFFFF AND DUP2 MSTORE PUSH1 0x20 ADD SWAP1 DUP2 MSTORE PUSH1 0x20 ADD PUSH1 0x0 KECCAK256 PUSH1 0x0 SWAP1 SLOAD SWAP1 PUSH2 0x100 EXP SWAP1 DIV PUSH1 0xFF AND JUMPDEST SWAP1 POP SWAP4 SWAP3 POP POP POP JUMP JUMPDEST DUP4 PUSH20 0xFFFFFFFFFFFFFFFFFFFFFFFFFFFFFFFFFFFFFFFF AND DUP4 PUSH20 0xFFFFFFFFFFFFFFFFFFFFFFFFFFFFFFFFFFFFFFFF AND EQ PUSH2 0x12EC JUMPI PUSH1 0x40 MLOAD PUSH32 0x8C379A000000000000000000000000000000000000000000000000000000000 DUP2 MSTORE PUSH1 0x4 ADD PUSH2 0x12E3 SWAP1 PUSH2 0x1F4D JUMP JUMPDEST PUSH1 0x40 MLOAD DUP1 SWAP2 SUB SWAP1 REVERT JUMPDEST PUSH1 0x0 PUSH20 0xFFFFFFFFFFFFFFFFFFFFFFFFFFFFFFFFFFFFFFFF AND DUP3 PUSH20 0xFFFFFFFFFFFFFFFFFFFFFFFFFFFFFFFFFFFFFFFF AND EQ ISZERO PUSH2 0x135C JUMPI PUSH1 0x40 MLOAD PUSH32 0x8C379A000000000000000000000000000000000000000000000000000000000 DUP2 MSTORE PUSH1 0x4 ADD PUSH2 0x1353 SWAP1 PUSH2 0x1E8D JUMP JUMPDEST PUSH1 0x40 MLOAD DUP1 SWAP2 SUB SWAP1 REVERT JUMPDEST PUSH2 0x1368 DUP5 PUSH1 0x0 DUP4 PUSH2 0x1098 JUMP JUMPDEST PUSH1 0x1 PUSH1 0x3 PUSH1 0x0 DUP6 PUSH20 0xFFFFFFFFFFFFFFFFFFFFFFFFFFFFFFFFFFFFFFFF AND PUSH20 0xFFFFFFFFFFFFFFFFFFFFFFFFFFFFFFFFFFFFFFFF AND DUP2 MSTORE PUSH1 0x20 ADD SWAP1 DUP2 MSTORE PUSH1 0x20 ADD PUSH1 0x0 KECCAK256 PUSH1 0x0 DUP3 DUP3 SLOAD PUSH2 0x13B8 SWAP2 SWAP1 PUSH2 0x2102 JUMP JUMPDEST SWAP3 POP POP DUP2 SWAP1 SSTORE POP PUSH1 0x1 PUSH1 0x3 PUSH1 0x0 DUP5 PUSH20 0xFFFFFFFFFFFFFFFFFFFFFFFFFFFFFFFFFFFFFFFF AND PUSH20 0xFFFFFFFFFFFFFFFFFFFFFFFFFFFFFFFFFFFFFFFF AND DUP2 MSTORE PUSH1 0x20 ADD SWAP1 DUP2 MSTORE PUSH1 0x20 ADD PUSH1 0x0 KECCAK256 PUSH1 0x0 DUP3 DUP3 SLOAD PUSH2 0x140F SWAP2 SWAP1 PUSH2 0x2021 JUMP JUMPDEST SWAP3 POP POP DUP2 SWAP1 SSTORE POP DUP2 PUSH1 0x2 PUSH1 0x0 DUP4 DUP2 MSTORE PUSH1 0x20 ADD SWAP1 DUP2 MSTORE PUSH1 0x20 ADD PUSH1 0x0 KECCAK256 PUSH1 0x0 PUSH2 0x100 EXP DUP2 SLOAD DUP2 PUSH20 0xFFFFFFFFFFFFFFFFFFFFFFFFFFFFFFFFFFFFFFFF MUL NOT AND SWAP1 DUP4 PUSH20 0xFFFFFFFFFFFFFFFFFFFFFFFFFFFFFFFFFFFFFFFF AND MUL OR SWAP1 SSTORE POP DUP1 DUP3 PUSH20 0xFFFFFFFFFFFFFFFFFFFFFFFFFFFFFFFFFFFFFFFF AND DUP5 PUSH20 0xFFFFFFFFFFFFFFFFFFFFFFFFFFFFFFFFFFFFFFFF AND PUSH32 0xDDF252AD1BE2C89B69C2B068FC378DAA952BA7F163C4A11628F55A4DF523B3EF PUSH1 0x40 MLOAD PUSH1 0x40 MLOAD DUP1 SWAP2 SUB SWAP1 LOG4 POP POP POP POP JUMP JUMPDEST PUSH2 0x14D5 DUP6 DUP6 DUP6 DUP6 PUSH2 0x127E JUMP JUMPDEST PUSH2 0x14E1 DUP5 DUP5 DUP5 DUP5 PUSH2 0x1660 JUMP JUMPDEST POP POP POP POP POP JUMP JUMPDEST PUSH1 0x60 PUSH1 0x40 MLOAD DUP1 PUSH1 0x20 ADD PUSH1 0x40 MSTORE DUP1 PUSH1 0x0 DUP2 MSTORE POP SWAP1 POP SWAP1 JUMP JUMPDEST PUSH1 0x60 PUSH1 0x0 DUP3 EQ ISZERO PUSH2 0x1547 JUMPI PUSH1 0x40 MLOAD DUP1 PUSH1 0x40 ADD PUSH1 0x40 MSTORE DUP1 PUSH1 0x1 DUP2 MSTORE PUSH1 0x20 ADD PUSH32 0x3000000000000000000000000000000000000000000000000000000000000000 DUP2 MSTORE POP SWAP1 POP PUSH2 0x165B JUMP JUMPDEST PUSH1 0x0 DUP3 SWAP1 POP PUSH1 0x0 JUMPDEST PUSH1 0x0 DUP3 EQ PUSH2 0x1579 JUMPI DUP1 DUP1 PUSH2 0x1562 SWAP1 PUSH2 0x224F JUMP JUMPDEST SWAP2 POP POP PUSH1 0xA DUP3 PUSH2 0x1572 SWAP2 SWAP1 PUSH2 0x2077 JUMP JUMPDEST SWAP2 POP PUSH2 0x154F JUMP JUMPDEST PUSH1 0x0 DUP2 PUSH8 0xFFFFFFFFFFFFFFFF DUP2 GT ISZERO PUSH2 0x1595 JUMPI PUSH2 0x1594 PUSH2 0x2385 JUMP JUMPDEST JUMPDEST PUSH1 0x40 MLOAD SWAP1 DUP1 DUP3 MSTORE DUP1 PUSH1 0x1F ADD PUSH1 0x1F NOT AND PUSH1 0x20 ADD DUP3 ADD PUSH1 0x40 MSTORE DUP1 ISZERO PUSH2 0x15C7 JUMPI DUP2 PUSH1 0x20 ADD PUSH1 0x1 DUP3 MUL DUP1 CALLDATASIZE DUP4 CALLDATACOPY DUP1 DUP3 ADD SWAP2 POP POP SWAP1 POP JUMPDEST POP SWAP1 POP JUMPDEST PUSH1 0x0 DUP6 EQ PUSH2 0x1654 JUMPI PUSH1 0x1 DUP3 PUSH2 0x15E0 SWAP2 SWAP1 PUSH2 0x2102 JUMP JUMPDEST SWAP2 POP PUSH1 0xA DUP6 PUSH2 0x15EF SWAP2 SWAP1 PUSH2 0x2298 JUMP JUMPDEST PUSH1 0x30 PUSH2 0x15FB SWAP2 SWAP1 PUSH2 0x2021 JUMP JUMPDEST PUSH1 0xF8 SHL DUP2 DUP4 DUP2 MLOAD DUP2 LT PUSH2 0x1611 JUMPI PUSH2 0x1610 PUSH2 0x2356 JUMP JUMPDEST JUMPDEST PUSH1 0x20 ADD ADD SWAP1 PUSH31 0xFFFFFFFFFFFFFFFFFFFFFFFFFFFFFFFFFFFFFFFFFFFFFFFFFFFFFFFFFFFFFF NOT AND SWAP1 DUP2 PUSH1 0x0 BYTE SWAP1 MSTORE8 POP PUSH1 0xA DUP6 PUSH2 0x164D SWAP2 SWAP1 PUSH2 0x2077 JUMP JUMPDEST SWAP5 POP PUSH2 0x15CB JUMP JUMPDEST DUP1 SWAP4 POP POP POP POP JUMPDEST SWAP2 SWAP1 POP JUMP JUMPDEST PUSH1 0x0 DUP4 PUSH20 0xFFFFFFFFFFFFFFFFFFFFFFFFFFFFFFFFFFFFFFFF AND EXTCODESIZE GT ISZERO PUSH2 0x181A JUMPI DUP3 PUSH20 0xFFFFFFFFFFFFFFFFFFFFFFFFFFFFFFFFFFFFFFFF AND PUSH4 0x150B7A02 CALLER DUP7 DUP6 DUP6 PUSH1 0x40 MLOAD DUP6 PUSH4 0xFFFFFFFF AND PUSH1 0xE0 SHL DUP2 MSTORE PUSH1 0x4 ADD PUSH2 0x16BF SWAP5 SWAP4 SWAP3 SWAP2 SWAP1 PUSH2 0x1DC4 JUMP JUMPDEST PUSH1 0x20 PUSH1 0x40 MLOAD DUP1 DUP4 SUB DUP2 PUSH1 0x0 DUP8 DUP1 EXTCODESIZE ISZERO DUP1 ISZERO PUSH2 0x16D9 JUMPI PUSH1 0x0 DUP1 REVERT JUMPDEST POP GAS CALL SWAP3 POP POP POP DUP1 ISZERO PUSH2 0x170A JUMPI POP PUSH1 0x40 MLOAD RETURNDATASIZE PUSH1 0x1F NOT PUSH1 0x1F DUP3 ADD AND DUP3 ADD DUP1 PUSH1 0x40 MSTORE POP DUP2 ADD SWAP1 PUSH2 0x1707 SWAP2 SWAP1 PUSH2 0x1AE9 JUMP JUMPDEST PUSH1 0x1 JUMPDEST PUSH2 0x178F JUMPI RETURNDATASIZE DUP1 PUSH1 0x0 DUP2 EQ PUSH2 0x173A JUMPI PUSH1 0x40 MLOAD SWAP2 POP PUSH1 0x1F NOT PUSH1 0x3F RETURNDATASIZE ADD AND DUP3 ADD PUSH1 0x40 MSTORE RETURNDATASIZE DUP3 MSTORE RETURNDATASIZE PUSH1 0x0 PUSH1 0x20 DUP5 ADD RETURNDATACOPY PUSH2 0x173F JUMP JUMPDEST PUSH1 0x60 SWAP2 POP JUMPDEST POP PUSH1 0x0 DUP2 MLOAD EQ ISZERO PUSH2 0x1787 JUMPI DUP4 PUSH1 0x40 MLOAD PUSH32 0x64A0AE9200000000000000000000000000000000000000000000000000000000 DUP2 MSTORE PUSH1 0x4 ADD PUSH2 0x177E SWAP2 SWAP1 PUSH2 0x1D72 JUMP JUMPDEST PUSH1 0x40 MLOAD DUP1 SWAP2 SUB SWAP1 REVERT JUMPDEST DUP1 MLOAD DUP2 PUSH1 0x20 ADD REVERT JUMPDEST PUSH4 0x150B7A02 PUSH1 0xE0 SHL PUSH28 0xFFFFFFFFFFFFFFFFFFFFFFFFFFFFFFFFFFFFFFFFFFFFFFFFFFFFFFFF NOT AND DUP2 PUSH28 0xFFFFFFFFFFFFFFFFFFFFFFFFFFFFFFFFFFFFFFFFFFFFFFFFFFFFFFFF NOT AND EQ PUSH2 0x1818 JUMPI DUP4 PUSH1 0x40 MLOAD PUSH32 0x64A0AE9200000000000000000000000000000000000000000000000000000000 DUP2 MSTORE PUSH1 0x4 ADD PUSH2 0x180F SWAP2 SWAP1 PUSH2 0x1D72 JUMP JUMPDEST PUSH1 0x40 MLOAD DUP1 SWAP2 SUB SWAP1 REVERT JUMPDEST POP JUMPDEST POP POP POP POP JUMP JUMPDEST PUSH1 0x0 PUSH2 0x1833 PUSH2 0x182E DUP5 PUSH2 0x1FAD JUMP JUMPDEST PUSH2 0x1F88 JUMP JUMPDEST SWAP1 POP DUP3 DUP2 MSTORE PUSH1 0x20 DUP2 ADD DUP5 DUP5 DUP5 ADD GT ISZERO PUSH2 0x184F JUMPI PUSH2 0x184E PUSH2 0x23B9 JUMP JUMPDEST JUMPDEST PUSH2 0x185A DUP5 DUP3 DUP6 PUSH2 0x21AA JUMP JUMPDEST POP SWAP4 SWAP3 POP POP POP JUMP JUMPDEST PUSH1 0x0 DUP2 CALLDATALOAD SWAP1 POP PUSH2 0x1871 DUP2 PUSH2 0x2570 JUMP JUMPDEST SWAP3 SWAP2 POP POP JUMP JUMPDEST PUSH1 0x0 DUP2 CALLDATALOAD SWAP1 POP PUSH2 0x1886 DUP2 PUSH2 0x2587 JUMP JUMPDEST SWAP3 SWAP2 POP POP JUMP JUMPDEST PUSH1 0x0 DUP2 CALLDATALOAD SWAP1 POP PUSH2 0x189B DUP2 PUSH2 0x259E JUMP JUMPDEST SWAP3 SWAP2 POP POP JUMP JUMPDEST PUSH1 0x0 DUP2 MLOAD SWAP1 POP PUSH2 0x18B0 DUP2 PUSH2 0x259E JUMP JUMPDEST SWAP3 SWAP2 POP POP JUMP JUMPDEST PUSH1 0x0 DUP3 PUSH1 0x1F DUP4 ADD SLT PUSH2 0x18CB JUMPI PUSH2 0x18CA PUSH2 0x23B4 JUMP JUMPDEST JUMPDEST DUP2 CALLDATALOAD PUSH2 0x18DB DUP5 DUP3 PUSH1 0x20 DUP7 ADD PUSH2 0x1820 JUMP JUMPDEST SWAP2 POP POP SWAP3 SWAP2 POP POP JUMP JUMPDEST PUSH1 0x0 DUP2 CALLDATALOAD SWAP1 POP PUSH2 0x18F3 DUP2 PUSH2 0x25B5 JUMP JUMPDEST SWAP3 SWAP2 POP POP JUMP JUMPDEST PUSH1 0x0 PUSH1 0x20 DUP3 DUP5 SUB SLT ISZERO PUSH2 0x190F JUMPI PUSH2 0x190E PUSH2 0x23C3 JUMP JUMPDEST JUMPDEST PUSH1 0x0 PUSH2 0x191D DUP5 DUP3 DUP6 ADD PUSH2 0x1862 JUMP JUMPDEST SWAP2 POP POP SWAP3 SWAP2 POP POP JUMP JUMPDEST PUSH1 0x0 DUP1 PUSH1 0x40 DUP4 DUP6 SUB SLT ISZERO PUSH2 0x193D JUMPI PUSH2 0x193C PUSH2 0x23C3 JUMP JUMPDEST JUMPDEST PUSH1 0x0 PUSH2 0x194B DUP6 DUP3 DUP7 ADD PUSH2 0x1862 JUMP JUMPDEST SWAP3 POP POP PUSH1 0x20 PUSH2 0x195C DUP6 DUP3 DUP7 ADD PUSH2 0x1862 JUMP JUMPDEST SWAP2 POP POP SWAP3 POP SWAP3 SWAP1 POP JUMP JUMPDEST PUSH1 0x0 DUP1 PUSH1 0x0 PUSH1 0x60 DUP5 DUP7 SUB SLT ISZERO PUSH2 0x197F JUMPI PUSH2 0x197E PUSH2 0x23C3 JUMP JUMPDEST JUMPDEST PUSH1 0x0 PUSH2 0x198D DUP7 DUP3 DUP8 ADD PUSH2 0x1862 JUMP JUMPDEST SWAP4 POP POP PUSH1 0x20 PUSH2 0x199E DUP7 DUP3 DUP8 ADD PUSH2 0x1862 JUMP JUMPDEST SWAP3 POP POP PUSH1 0x40 PUSH2 0x19AF DUP7 DUP3 DUP8 ADD PUSH2 0x18E4 JUMP JUMPDEST SWAP2 POP POP SWAP3 POP SWAP3 POP SWAP3 JUMP JUMPDEST PUSH1 0x0 DUP1 PUSH1 0x0 DUP1 PUSH1 0x80 DUP6 DUP8 SUB SLT ISZERO PUSH2 0x19D3 JUMPI PUSH2 0x19D2 PUSH2 0x23C3 JUMP JUMPDEST JUMPDEST PUSH1 0x0 PUSH2 0x19E1 DUP8 DUP3 DUP9 ADD PUSH2 0x1862 JUMP JUMPDEST SWAP5 POP POP PUSH1 0x20 PUSH2 0x19F2 DUP8 DUP3 DUP9 ADD PUSH2 0x1862 JUMP JUMPDEST SWAP4 POP POP PUSH1 0x40 PUSH2 0x1A03 DUP8 DUP3 DUP9 ADD PUSH2 0x18E4 JUMP JUMPDEST SWAP3 POP POP PUSH1 0x60 DUP6 ADD CALLDATALOAD PUSH8 0xFFFFFFFFFFFFFFFF DUP2 GT ISZERO PUSH2 0x1A24 JUMPI PUSH2 0x1A23 PUSH2 0x23BE JUMP JUMPDEST JUMPDEST PUSH2 0x1A30 DUP8 DUP3 DUP9 ADD PUSH2 0x18B6 JUMP JUMPDEST SWAP2 POP POP SWAP3 SWAP6 SWAP2 SWAP5 POP SWAP3 POP JUMP JUMPDEST PUSH1 0x0 DUP1 PUSH1 0x40 DUP4 DUP6 SUB SLT ISZERO PUSH2 0x1A53 JUMPI PUSH2 0x1A52 PUSH2 0x23C3 JUMP JUMPDEST JUMPDEST PUSH1 0x0 PUSH2 0x1A61 DUP6 DUP3 DUP7 ADD PUSH2 0x1862 JUMP JUMPDEST SWAP3 POP POP PUSH1 0x20 PUSH2 0x1A72 DUP6 DUP3 DUP7 ADD PUSH2 0x1877 JUMP JUMPDEST SWAP2 POP POP SWAP3 POP SWAP3 SWAP1 POP JUMP JUMPDEST PUSH1 0x0 DUP1 PUSH1 0x40 DUP4 DUP6 SUB SLT ISZERO PUSH2 0x1A93 JUMPI PUSH2 0x1A92 PUSH2 0x23C3 JUMP JUMPDEST JUMPDEST PUSH1 0x0 PUSH2 0x1AA1 DUP6 DUP3 DUP7 ADD PUSH2 0x1862 JUMP JUMPDEST SWAP3 POP POP PUSH1 0x20 PUSH2 0x1AB2 DUP6 DUP3 DUP7 ADD PUSH2 0x18E4 JUMP JUMPDEST SWAP2 POP POP SWAP3 POP SWAP3 SWAP1 POP JUMP JUMPDEST PUSH1 0x0 PUSH1 0x20 DUP3 DUP5 SUB SLT ISZERO PUSH2 0x1AD2 JUMPI PUSH2 0x1AD1 PUSH2 0x23C3 JUMP JUMPDEST JUMPDEST PUSH1 0x0 PUSH2 0x1AE0 DUP5 DUP3 DUP6 ADD PUSH2 0x188C JUMP JUMPDEST SWAP2 POP POP SWAP3 SWAP2 POP POP JUMP JUMPDEST PUSH1 0x0 PUSH1 0x20 DUP3 DUP5 SUB SLT ISZERO PUSH2 0x1AFF JUMPI PUSH2 0x1AFE PUSH2 0x23C3 JUMP JUMPDEST JUMPDEST PUSH1 0x0 PUSH2 0x1B0D DUP5 DUP3 DUP6 ADD PUSH2 0x18A1 JUMP JUMPDEST SWAP2 POP POP SWAP3 SWAP2 POP POP JUMP JUMPDEST PUSH1 0x0 PUSH1 0x20 DUP3 DUP5 SUB SLT ISZERO PUSH2 0x1B2C JUMPI PUSH2 0x1B2B PUSH2 0x23C3 JUMP JUMPDEST JUMPDEST PUSH1 0x0 PUSH2 0x1B3A DUP5 DUP3 DUP6 ADD PUSH2 0x18E4 JUMP JUMPDEST SWAP2 POP POP SWAP3 SWAP2 POP POP JUMP JUMPDEST PUSH2 0x1B4C DUP2 PUSH2 0x2136 JUMP JUMPDEST DUP3 MSTORE POP POP JUMP JUMPDEST PUSH2 0x1B5B DUP2 PUSH2 0x2148 JUMP JUMPDEST DUP3 MSTORE POP POP JUMP JUMPDEST PUSH1 0x0 PUSH2 0x1B6C DUP3 PUSH2 0x1FDE JUMP JUMPDEST PUSH2 0x1B76 DUP2 DUP6 PUSH2 0x1FF4 JUMP JUMPDEST SWAP4 POP PUSH2 0x1B86 DUP2 DUP6 PUSH1 0x20 DUP7 ADD PUSH2 0x21B9 JUMP JUMPDEST PUSH2 0x1B8F DUP2 PUSH2 0x23C8 JUMP JUMPDEST DUP5 ADD SWAP2 POP POP SWAP3 SWAP2 POP POP JUMP JUMPDEST PUSH1 0x0 PUSH2 0x1BA5 DUP3 PUSH2 0x1FE9 JUMP JUMPDEST PUSH2 0x1BAF DUP2 DUP6 PUSH2 0x2005 JUMP JUMPDEST SWAP4 POP PUSH2 0x1BBF DUP2 DUP6 PUSH1 0x20 DUP7 ADD PUSH2 0x21B9 JUMP JUMPDEST PUSH2 0x1BC8 DUP2 PUSH2 0x23C8 JUMP JUMPDEST DUP5 ADD SWAP2 POP POP SWAP3 SWAP2 POP POP JUMP JUMPDEST PUSH1 0x0 PUSH2 0x1BDE DUP3 PUSH2 0x1FE9 JUMP JUMPDEST PUSH2 0x1BE8 DUP2 DUP6 PUSH2 0x2016 JUMP JUMPDEST SWAP4 POP PUSH2 0x1BF8 DUP2 DUP6 PUSH1 0x20 DUP7 ADD PUSH2 0x21B9 JUMP JUMPDEST DUP1 DUP5 ADD SWAP2 POP POP SWAP3 SWAP2 POP POP JUMP JUMPDEST PUSH1 0x0 PUSH2 0x1C11 PUSH1 0x16 DUP4 PUSH2 0x2005 JUMP JUMPDEST SWAP2 POP PUSH2 0x1C1C DUP3 PUSH2 0x23D9 JUMP JUMPDEST PUSH1 0x20 DUP3 ADD SWAP1 POP SWAP2 SWAP1 POP JUMP JUMPDEST PUSH1 0x0 PUSH2 0x1C34 PUSH1 0xE DUP4 PUSH2 0x2005 JUMP JUMPDEST SWAP2 POP PUSH2 0x1C3F DUP3 PUSH2 0x2402 JUMP JUMPDEST PUSH1 0x20 DUP3 ADD SWAP1 POP SWAP2 SWAP1 POP JUMP JUMPDEST PUSH1 0x0 PUSH2 0x1C57 PUSH1 0x1C DUP4 PUSH2 0x2005 JUMP JUMPDEST SWAP2 POP PUSH2 0x1C62 DUP3 PUSH2 0x242B JUMP JUMPDEST PUSH1 0x20 DUP3 ADD SWAP1 POP SWAP2 SWAP1 POP JUMP JUMPDEST PUSH1 0x0 PUSH2 0x1C7A PUSH1 0x1E DUP4 PUSH2 0x2005 JUMP JUMPDEST SWAP2 POP PUSH2 0x1C85 DUP3 PUSH2 0x2454 JUMP JUMPDEST PUSH1 0x20 DUP3 ADD SWAP1 POP SWAP2 SWAP1 POP JUMP JUMPDEST PUSH1 0x0 PUSH2 0x1C9D PUSH1 0x13 DUP4 PUSH2 0x2005 JUMP JUMPDEST SWAP2 POP PUSH2 0x1CA8 DUP3 PUSH2 0x247D JUMP JUMPDEST PUSH1 0x20 DUP3 ADD SWAP1 POP SWAP2 SWAP1 POP JUMP JUMPDEST PUSH1 0x0 PUSH2 0x1CC0 PUSH1 0x14 DUP4 PUSH2 0x2005 JUMP JUMPDEST SWAP2 POP PUSH2 0x1CCB DUP3 PUSH2 0x24A6 JUMP JUMPDEST PUSH1 0x20 DUP3 ADD SWAP1 POP SWAP2 SWAP1 POP JUMP JUMPDEST PUSH1 0x0 PUSH2 0x1CE3 PUSH1 0xF DUP4 PUSH2 0x2005 JUMP JUMPDEST SWAP2 POP PUSH2 0x1CEE DUP3 PUSH2 0x24CF JUMP JUMPDEST PUSH1 0x20 DUP3 ADD SWAP1 POP SWAP2 SWAP1 POP JUMP JUMPDEST PUSH1 0x0 PUSH2 0x1D06 PUSH1 0x25 DUP4 PUSH2 0x2005 JUMP JUMPDEST SWAP2 POP PUSH2 0x1D11 DUP3 PUSH2 0x24F8 JUMP JUMPDEST PUSH1 0x40 DUP3 ADD SWAP1 POP SWAP2 SWAP1 POP JUMP JUMPDEST PUSH1 0x0 PUSH2 0x1D29 PUSH1 0x9 DUP4 PUSH2 0x2005 JUMP JUMPDEST SWAP2 POP PUSH2 0x1D34 DUP3 PUSH2 0x2547 JUMP JUMPDEST PUSH1 0x20 DUP3 ADD SWAP1 POP SWAP2 SWAP1 POP JUMP JUMPDEST PUSH2 0x1D48 DUP2 PUSH2 0x21A0 JUMP JUMPDEST DUP3 MSTORE POP POP JUMP JUMPDEST PUSH1 0x0 PUSH2 0x1D5A DUP3 DUP6 PUSH2 0x1BD3 JUMP JUMPDEST SWAP2 POP PUSH2 0x1D66 DUP3 DUP5 PUSH2 0x1BD3 JUMP JUMPDEST SWAP2 POP DUP2 SWAP1 POP SWAP4 SWAP3 POP POP POP JUMP JUMPDEST PUSH1 0x0 PUSH1 0x20 DUP3 ADD SWAP1 POP PUSH2 0x1D87 PUSH1 0x0 DUP4 ADD DUP5 PUSH2 0x1B43 JUMP JUMPDEST SWAP3 SWAP2 POP POP JUMP JUMPDEST PUSH1 0x0 PUSH1 0x60 DUP3 ADD SWAP1 POP PUSH2 0x1DA2 PUSH1 0x0 DUP4 ADD DUP7 PUSH2 0x1B43 JUMP JUMPDEST PUSH2 0x1DAF PUSH1 0x20 DUP4 ADD DUP6 PUSH2 0x1B43 JUMP JUMPDEST PUSH2 0x1DBC PUSH1 0x40 DUP4 ADD DUP5 PUSH2 0x1D3F JUMP JUMPDEST SWAP5 SWAP4 POP POP POP POP JUMP JUMPDEST PUSH1 0x0 PUSH1 0x80 DUP3 ADD SWAP1 POP PUSH2 0x1DD9 PUSH1 0x0 DUP4 ADD DUP8 PUSH2 0x1B43 JUMP JUMPDEST PUSH2 0x1DE6 PUSH1 0x20 DUP4 ADD DUP7 PUSH2 0x1B43 JUMP JUMPDEST PUSH2 0x1DF3 PUSH1 0x40 DUP4 ADD DUP6 PUSH2 0x1D3F JUMP JUMPDEST DUP2 DUP2 SUB PUSH1 0x60 DUP4 ADD MSTORE PUSH2 0x1E05 DUP2 DUP5 PUSH2 0x1B61 JUMP JUMPDEST SWAP1 POP SWAP6 SWAP5 POP POP POP POP POP JUMP JUMPDEST PUSH1 0x0 PUSH1 0x20 DUP3 ADD SWAP1 POP PUSH2 0x1E25 PUSH1 0x0 DUP4 ADD DUP5 PUSH2 0x1B52 JUMP JUMPDEST SWAP3 SWAP2 POP POP JUMP JUMPDEST PUSH1 0x0 PUSH1 0x20 DUP3 ADD SWAP1 POP DUP2 DUP2 SUB PUSH1 0x0 DUP4 ADD MSTORE PUSH2 0x1E45 DUP2 DUP5 PUSH2 0x1B9A JUMP JUMPDEST SWAP1 POP SWAP3 SWAP2 POP POP JUMP JUMPDEST PUSH1 0x0 PUSH1 0x20 DUP3 ADD SWAP1 POP DUP2 DUP2 SUB PUSH1 0x0 DUP4 ADD MSTORE PUSH2 0x1E66 DUP2 PUSH2 0x1C04 JUMP JUMPDEST SWAP1 POP SWAP2 SWAP1 POP JUMP JUMPDEST PUSH1 0x0 PUSH1 0x20 DUP3 ADD SWAP1 POP DUP2 DUP2 SUB PUSH1 0x0 DUP4 ADD MSTORE PUSH2 0x1E86 DUP2 PUSH2 0x1C27 JUMP JUMPDEST SWAP1 POP SWAP2 SWAP1 POP JUMP JUMPDEST PUSH1 0x0 PUSH1 0x20 DUP3 ADD SWAP1 POP DUP2 DUP2 SUB PUSH1 0x0 DUP4 ADD MSTORE PUSH2 0x1EA6 DUP2 PUSH2 0x1C4A JUMP JUMPDEST SWAP1 POP SWAP2 SWAP1 POP JUMP JUMPDEST PUSH1 0x0 PUSH1 0x20 DUP3 ADD SWAP1 POP DUP2 DUP2 SUB PUSH1 0x0 DUP4 ADD MSTORE PUSH2 0x1EC6 DUP2 PUSH2 0x1C6D JUMP JUMPDEST SWAP1 POP SWAP2 SWAP1 POP JUMP JUMPDEST PUSH1 0x0 PUSH1 0x20 DUP3 ADD SWAP1 POP DUP2 DUP2 SUB PUSH1 0x0 DUP4 ADD MSTORE PUSH2 0x1EE6 DUP2 PUSH2 0x1C90 JUMP JUMPDEST SWAP1 POP SWAP2 SWAP1 POP JUMP JUMPDEST PUSH1 0x0 PUSH1 0x20 DUP3 ADD SWAP1 POP DUP2 DUP2 SUB PUSH1 0x0 DUP4 ADD MSTORE PUSH2 0x1F06 DUP2 PUSH2 0x1CB3 JUMP JUMPDEST SWAP1 POP SWAP2 SWAP1 POP JUMP JUMPDEST PUSH1 0x0 PUSH1 0x20 DUP3 ADD SWAP1 POP DUP2 DUP2 SUB PUSH1 0x0 DUP4 ADD MSTORE PUSH2 0x1F26 DUP2 PUSH2 0x1CD6 JUMP JUMPDEST SWAP1 POP SWAP2 SWAP1 POP JUMP JUMPDEST PUSH1 0x0 PUSH1 0x20 DUP3 ADD SWAP1 POP DUP2 DUP2 SUB PUSH1 0x0 DUP4 ADD MSTORE PUSH2 0x1F46 DUP2 PUSH2 0x1CF9 JUMP JUMPDEST SWAP1 POP SWAP2 SWAP1 POP JUMP JUMPDEST PUSH1 0x0 PUSH1 0x20 DUP3 ADD SWAP1 POP DUP2 DUP2 SUB PUSH1 0x0 DUP4 ADD MSTORE PUSH2 0x1F66 DUP2 PUSH2 0x1D1C JUMP JUMPDEST SWAP1 POP SWAP2 SWAP1 POP JUMP JUMPDEST PUSH1 0x0 PUSH1 0x20 DUP3 ADD SWAP1 POP PUSH2 0x1F82 PUSH1 0x0 DUP4 ADD DUP5 PUSH2 0x1D3F JUMP JUMPDEST SWAP3 SWAP2 POP POP JUMP JUMPDEST PUSH1 0x0 PUSH2 0x1F92 PUSH2 0x1FA3 JUMP JUMPDEST SWAP1 POP PUSH2 0x1F9E DUP3 DUP3 PUSH2 0x221E JUMP JUMPDEST SWAP2 SWAP1 POP JUMP JUMPDEST PUSH1 0x0 PUSH1 0x40 MLOAD SWAP1 POP SWAP1 JUMP JUMPDEST PUSH1 0x0 PUSH8 0xFFFFFFFFFFFFFFFF DUP3 GT ISZERO PUSH2 0x1FC8 JUMPI PUSH2 0x1FC7 PUSH2 0x2385 JUMP JUMPDEST JUMPDEST PUSH2 0x1FD1 DUP3 PUSH2 0x23C8 JUMP JUMPDEST SWAP1 POP PUSH1 0x20 DUP2 ADD SWAP1 POP SWAP2 SWAP1 POP JUMP JUMPDEST PUSH1 0x0 DUP2 MLOAD SWAP1 POP SWAP2 SWAP1 POP JUMP JUMPDEST PUSH1 0x0 DUP2 MLOAD SWAP1 POP SWAP2 SWAP1 POP JUMP JUMPDEST PUSH1 0x0 DUP3 DUP3 MSTORE PUSH1 0x20 DUP3 ADD SWAP1 POP SWAP3 SWAP2 POP POP JUMP JUMPDEST PUSH1 0x0 DUP3 DUP3 MSTORE PUSH1 0x20 DUP3 ADD SWAP1 POP SWAP3 SWAP2 POP POP JUMP JUMPDEST PUSH1 0x0 DUP2 SWAP1 POP SWAP3 SWAP2 POP POP JUMP JUMPDEST PUSH1 0x0 PUSH2 0x202C DUP3 PUSH2 0x21A0 JUMP JUMPDEST SWAP2 POP PUSH2 0x2037 DUP4 PUSH2 0x21A0 JUMP JUMPDEST SWAP3 POP DUP3 PUSH32 0xFFFFFFFFFFFFFFFFFFFFFFFFFFFFFFFFFFFFFFFFFFFFFFFFFFFFFFFFFFFFFFFF SUB DUP3 GT ISZERO PUSH2 0x206C JUMPI PUSH2 0x206B PUSH2 0x22C9 JUMP JUMPDEST JUMPDEST DUP3 DUP3 ADD SWAP1 POP SWAP3 SWAP2 POP POP JUMP JUMPDEST PUSH1 0x0 PUSH2 0x2082 DUP3 PUSH2 0x21A0 JUMP JUMPDEST SWAP2 POP PUSH2 0x208D DUP4 PUSH2 0x21A0 JUMP JUMPDEST SWAP3 POP DUP3 PUSH2 0x209D JUMPI PUSH2 0x209C PUSH2 0x22F8 JUMP JUMPDEST JUMPDEST DUP3 DUP3 DIV SWAP1 POP SWAP3 SWAP2 POP POP JUMP JUMPDEST PUSH1 0x0 PUSH2 0x20B3 DUP3 PUSH2 0x21A0 JUMP JUMPDEST SWAP2 POP PUSH2 0x20BE DUP4 PUSH2 0x21A0 JUMP JUMPDEST SWAP3 POP DUP2 PUSH32 0xFFFFFFFFFFFFFFFFFFFFFFFFFFFFFFFFFFFFFFFFFFFFFFFFFFFFFFFFFFFFFFFF DIV DUP4 GT DUP3 ISZERO ISZERO AND ISZERO PUSH2 0x20F7 JUMPI PUSH2 0x20F6 PUSH2 0x22C9 JUMP JUMPDEST JUMPDEST DUP3 DUP3 MUL SWAP1 POP SWAP3 SWAP2 POP POP JUMP JUMPDEST PUSH1 0x0 PUSH2 0x210D DUP3 PUSH2 0x21A0 JUMP JUMPDEST SWAP2 POP PUSH2 0x2118 DUP4 PUSH2 0x21A0 JUMP JUMPDEST SWAP3 POP DUP3 DUP3 LT ISZERO PUSH2 0x212B JUMPI PUSH2 0x212A PUSH2 0x22C9 JUMP JUMPDEST JUMPDEST DUP3 DUP3 SUB SWAP1 POP SWAP3 SWAP2 POP POP JUMP JUMPDEST PUSH1 0x0 PUSH2 0x2141 DUP3 PUSH2 0x2180 JUMP JUMPDEST SWAP1 POP SWAP2 SWAP1 POP JUMP JUMPDEST PUSH1 0x0 DUP2 ISZERO ISZERO SWAP1 POP SWAP2 SWAP1 POP JUMP JUMPDEST PUSH1 0x0 PUSH32 0xFFFFFFFF00000000000000000000000000000000000000000000000000000000 DUP3 AND SWAP1 POP SWAP2 SWAP1 POP JUMP JUMPDEST PUSH1 0x0 PUSH20 0xFFFFFFFFFFFFFFFFFFFFFFFFFFFFFFFFFFFFFFFF DUP3 AND SWAP1 POP SWAP2 SWAP1 POP JUMP JUMPDEST PUSH1 0x0 DUP2 SWAP1 POP SWAP2 SWAP1 POP JUMP JUMPDEST DUP3 DUP2 DUP4 CALLDATACOPY PUSH1 0x0 DUP4 DUP4 ADD MSTORE POP POP POP JUMP JUMPDEST PUSH1 0x0 JUMPDEST DUP4 DUP2 LT ISZERO PUSH2 0x21D7 JUMPI DUP1 DUP3 ADD MLOAD DUP2 DUP5 ADD MSTORE PUSH1 0x20 DUP2 ADD SWAP1 POP PUSH2 0x21BC JUMP JUMPDEST DUP4 DUP2 GT ISZERO PUSH2 0x21E6 JUMPI PUSH1 0x0 DUP5 DUP5 ADD MSTORE JUMPDEST POP POP POP POP JUMP JUMPDEST PUSH1 0x0 PUSH1 0x2 DUP3 DIV SWAP1 POP PUSH1 0x1 DUP3 AND DUP1 PUSH2 0x2204 JUMPI PUSH1 0x7F DUP3 AND SWAP2 POP JUMPDEST PUSH1 0x20 DUP3 LT DUP2 EQ ISZERO PUSH2 0x2218 JUMPI PUSH2 0x2217 PUSH2 0x2327 JUMP JUMPDEST JUMPDEST POP SWAP2 SWAP1 POP JUMP JUMPDEST PUSH2 0x2227 DUP3 PUSH2 0x23C8 JUMP JUMPDEST DUP2 ADD DUP2 DUP2 LT PUSH8 0xFFFFFFFFFFFFFFFF DUP3 GT OR ISZERO PUSH2 0x2246 JUMPI PUSH2 0x2245 PUSH2 0x2385 JUMP JUMPDEST JUMPDEST DUP1 PUSH1 0x40 MSTORE POP POP POP JUMP JUMPDEST PUSH1 0x0 PUSH2 0x225A DUP3 PUSH2 0x21A0 JUMP JUMPDEST SWAP2 POP PUSH32 0xFFFFFFFFFFFFFFFFFFFFFFFFFFFFFFFFFFFFFFFFFFFFFFFFFFFFFFFFFFFFFFFF DUP3 EQ ISZERO PUSH2 0x228D JUMPI PUSH2 0x228C PUSH2 0x22C9 JUMP JUMPDEST JUMPDEST PUSH1 0x1 DUP3 ADD SWAP1 POP SWAP2 SWAP1 POP JUMP JUMPDEST PUSH1 0x0 PUSH2 0x22A3 DUP3 PUSH2 0x21A0 JUMP JUMPDEST SWAP2 POP PUSH2 0x22AE DUP4 PUSH2 0x21A0 JUMP JUMPDEST SWAP3 POP DUP3 PUSH2 0x22BE JUMPI PUSH2 0x22BD PUSH2 0x22F8 JUMP JUMPDEST JUMPDEST DUP3 DUP3 MOD SWAP1 POP SWAP3 SWAP2 POP POP JUMP JUMPDEST PUSH32 0x4E487B7100000000000000000000000000000000000000000000000000000000 PUSH1 0x0 MSTORE PUSH1 0x11 PUSH1 0x4 MSTORE PUSH1 0x24 PUSH1 0x0 REVERT JUMPDEST PUSH32 0x4E487B7100000000000000000000000000000000000000000000000000000000 PUSH1 0x0 MSTORE PUSH1 0x12 PUSH1 0x4 MSTORE PUSH1 0x24 PUSH1 0x0 REVERT JUMPDEST PUSH32 0x4E487B7100000000000000000000000000000000000000000000000000000000 PUSH1 0x0 MSTORE PUSH1 0x22 PUSH1 0x4 MSTORE PUSH1 0x24 PUSH1 0x0 REVERT JUMPDEST PUSH32 0x4E487B7100000000000000000000000000000000000000000000000000000000 PUSH1 0x0 MSTORE PUSH1 0x32 PUSH1 0x4 MSTORE PUSH1 0x24 PUSH1 0x0 REVERT JUMPDEST PUSH32 0x4E487B7100000000000000000000000000000000000000000000000000000000 PUSH1 0x0 MSTORE PUSH1 0x41 PUSH1 0x4 MSTORE PUSH1 0x24 PUSH1 0x0 REVERT JUMPDEST PUSH1 0x0 DUP1 REVERT JUMPDEST PUSH1 0x0 DUP1 REVERT JUMPDEST PUSH1 0x0 DUP1 REVERT JUMPDEST PUSH1 0x0 DUP1 REVERT JUMPDEST PUSH1 0x0 PUSH1 0x1F NOT PUSH1 0x1F DUP4 ADD AND SWAP1 POP SWAP2 SWAP1 POP JUMP JUMPDEST PUSH32 0x6E6F74206F776E6572206E6F7220617070726F76656400000000000000000000 PUSH1 0x0 DUP3 ADD MSTORE POP JUMP JUMPDEST PUSH32 0x74696D6520697320657870697265000000000000000000000000000000000000 PUSH1 0x0 DUP3 ADD MSTORE POP JUMP JUMPDEST PUSH32 0x7472616E7366657220746F20746865207A65726F206164647265737300000000 PUSH1 0x0 DUP3 ADD MSTORE POP JUMP JUMPDEST PUSH32 0x6E6F74206F776E6572206E6F7220617070726F76656420666F7220616C6C0000 PUSH1 0x0 DUP3 ADD MSTORE POP JUMP JUMPDEST PUSH32 0x746F6B656E20646F65736E277420657869737400000000000000000000000000 PUSH1 0x0 DUP3 ADD MSTORE POP JUMP JUMPDEST PUSH32 0x6F776E6572203D207A65726F2061646472657373000000000000000000000000 PUSH1 0x0 DUP3 ADD MSTORE POP JUMP JUMPDEST PUSH32 0x546F6B656E204E6F742045786973740000000000000000000000000000000000 PUSH1 0x0 DUP3 ADD MSTORE POP JUMP JUMPDEST PUSH32 0x796F7572207072696365206973206C6F776572207468616E2063757272656E74 PUSH1 0x0 DUP3 ADD MSTORE PUSH32 0x5072696365000000000000000000000000000000000000000000000000000000 PUSH1 0x20 DUP3 ADD MSTORE POP JUMP JUMPDEST PUSH32 0x6E6F74206F776E65720000000000000000000000000000000000000000000000 PUSH1 0x0 DUP3 ADD MSTORE POP JUMP JUMPDEST PUSH2 0x2579 DUP2 PUSH2 0x2136 JUMP JUMPDEST DUP2 EQ PUSH2 0x2584 JUMPI PUSH1 0x0 DUP1 REVERT JUMPDEST POP JUMP JUMPDEST PUSH2 0x2590 DUP2 PUSH2 0x2148 JUMP JUMPDEST DUP2 EQ PUSH2 0x259B JUMPI PUSH1 0x0 DUP1 REVERT JUMPDEST POP JUMP JUMPDEST PUSH2 0x25A7 DUP2 PUSH2 0x2154 JUMP JUMPDEST DUP2 EQ PUSH2 0x25B2 JUMPI PUSH1 0x0 DUP1 REVERT JUMPDEST POP JUMP JUMPDEST PUSH2 0x25BE DUP2 PUSH2 0x21A0 JUMP JUMPDEST DUP2 EQ PUSH2 0x25C9 JUMPI PUSH1 0x0 DUP1 REVERT JUMPDEST POP JUMP INVALID LOG2 PUSH5 0x6970667358 0x22 SLT KECCAK256 PUSH1 0x16 0xAD ADDMOD PUSH18 0x761C6537AEBAE914988720A5E814D25B468B 0xDB 0x49 LOG3 0xC8 0xD KECCAK256 0xC4 0x29 SWAP15 PUSH5 0x736F6C6343 STOP ADDMOD SMOD STOP CALLER "
				},
				"gasEstimates": {
					"creation": {
						"codeDepositCost": "1946000",
						"executionCost": "infinite",
						"totalCost": "infinite"
					},
					"external": {
						"approve(address,uint256)": "31623",
						"balanceOf(address)": "2902",
						"buy(address,address,uint256)": "infinite",
						"duration()": "441",
						"endTime()": "infinite",
						"finalPrice()": "infinite",
						"getApproved(uint256)": "5185",
						"getCurrentPrice()": "infinite",
						"isApprovedForAll(address,address)": "infinite",
						"name()": "infinite",
						"ownerOf(uint256)": "3067",
						"safeTransferFrom(address,address,uint256)": "infinite",
						"safeTransferFrom(address,address,uint256,bytes)": "infinite",
						"setApprovalForAll(address,bool)": "infinite",
						"startPrice()": "infinite",
						"startTime()": "2474",
						"supportsInterface(bytes4)": "754",
						"symbol()": "infinite",
						"tokenURI(uint256)": "3330",
						"transferFrom(address,address,uint256)": "infinite"
					}
				},
				"methodIdentifiers": {
					"approve(address,uint256)": "095ea7b3",
					"balanceOf(address)": "70a08231",
					"buy(address,address,uint256)": "153e66e6",
					"duration()": "0fb5a6b4",
					"endTime()": "3197cbb6",
					"finalPrice()": "a6b513ee",
					"getApproved(uint256)": "081812fc",
					"getCurrentPrice()": "eb91d37e",
					"isApprovedForAll(address,address)": "e985e9c5",
					"name()": "06fdde03",
					"ownerOf(uint256)": "6352211e",
					"safeTransferFrom(address,address,uint256)": "42842e0e",
					"safeTransferFrom(address,address,uint256,bytes)": "b88d4fde",
					"setApprovalForAll(address,bool)": "a22cb465",
					"startPrice()": "f1a9af89",
					"startTime()": "78e97925",
					"supportsInterface(bytes4)": "01ffc9a7",
					"symbol()": "95d89b41",
					"tokenURI(uint256)": "c87b56dd",
					"transferFrom(address,address,uint256)": "23b872dd"
				}
			},
			"storageLayout": {
				"storage": [
					{
						"astId": 132,
						"contract": "45DutuchAuction.sol:DutchAuction",
						"label": "name",
						"offset": 0,
						"slot": "0",
						"type": "t_string_storage"
					},
					{
						"astId": 135,
						"contract": "45DutuchAuction.sol:DutchAuction",
						"label": "symbol",
						"offset": 0,
						"slot": "1",
						"type": "t_string_storage"
					},
					{
						"astId": 139,
						"contract": "45DutuchAuction.sol:DutchAuction",
						"label": "_owners",
						"offset": 0,
						"slot": "2",
						"type": "t_mapping(t_uint256,t_address)"
					},
					{
						"astId": 143,
						"contract": "45DutuchAuction.sol:DutchAuction",
						"label": "_balances",
						"offset": 0,
						"slot": "3",
						"type": "t_mapping(t_address,t_uint256)"
					},
					{
						"astId": 147,
						"contract": "45DutuchAuction.sol:DutchAuction",
						"label": "_tokenApprovals",
						"offset": 0,
						"slot": "4",
						"type": "t_mapping(t_uint256,t_address)"
					},
					{
						"astId": 153,
						"contract": "45DutuchAuction.sol:DutchAuction",
						"label": "_operatorApprovals",
						"offset": 0,
						"slot": "5",
						"type": "t_mapping(t_address,t_mapping(t_address,t_bool))"
					},
					{
						"astId": 10,
						"contract": "45DutuchAuction.sol:DutchAuction",
						"label": "startTime",
						"offset": 0,
						"slot": "6",
						"type": "t_uint256"
					}
				],
				"types": {
					"t_address": {
						"encoding": "inplace",
						"label": "address",
						"numberOfBytes": "20"
					},
					"t_bool": {
						"encoding": "inplace",
						"label": "bool",
						"numberOfBytes": "1"
					},
					"t_mapping(t_address,t_bool)": {
						"encoding": "mapping",
						"key": "t_address",
						"label": "mapping(address => bool)",
						"numberOfBytes": "32",
						"value": "t_bool"
					},
					"t_mapping(t_address,t_mapping(t_address,t_bool))": {
						"encoding": "mapping",
						"key": "t_address",
						"label": "mapping(address => mapping(address => bool))",
						"numberOfBytes": "32",
						"value": "t_mapping(t_address,t_bool)"
					},
					"t_mapping(t_address,t_uint256)": {
						"encoding": "mapping",
						"key": "t_address",
						"label": "mapping(address => uint256)",
						"numberOfBytes": "32",
						"value": "t_uint256"
					},
					"t_mapping(t_uint256,t_address)": {
						"encoding": "mapping",
						"key": "t_uint256",
						"label": "mapping(uint256 => address)",
						"numberOfBytes": "32",
						"value": "t_address"
					},
					"t_string_storage": {
						"encoding": "bytes",
						"label": "string",
						"numberOfBytes": "32"
					},
					"t_uint256": {
						"encoding": "inplace",
						"label": "uint256",
						"numberOfBytes": "32"
					}
				}
			},
			"userdoc": {
				"kind": "user",
				"methods": {
					"safeTransferFrom(address,address,uint256,bytes)": {
						"notice": "实现IERC721的safeTransferFrom，安全转账，调用了_safeTransfer函数。"
					},
					"tokenURI(uint256)": {
						"notice": "实现IERC721Metadata的tokenURI函数，查询metadata。"
					}
				},
				"version": 1
			}
		}
	}
}