{
	"46JichengERC721.sol": {
		"JichengERC721": {
			"abi": [
				{
					"inputs": [
						{
							"internalType": "string",
							"name": "_name",
							"type": "string"
						},
						{
							"internalType": "string",
							"name": "_symbol",
							"type": "string"
						}
					],
					"stateMutability": "nonpayable",
					"type": "constructor"
				},
				{
					"inputs": [
						{
							"internalType": "address",
							"name": "receiver",
							"type": "address"
						}
					],
					"name": "ERC721InvalidReceiver",
					"type": "error"
				},
				{
					"anonymous": false,
					"inputs": [
						{
							"indexed": true,
							"internalType": "address",
							"name": "owner",
							"type": "address"
						},
						{
							"indexed": true,
							"internalType": "address",
							"name": "approved",
							"type": "address"
						},
						{
							"indexed": true,
							"internalType": "uint256",
							"name": "tokenId",
							"type": "uint256"
						}
					],
					"name": "Approval",
					"type": "event"
				},
				{
					"anonymous": false,
					"inputs": [
						{
							"indexed": true,
							"internalType": "address",
							"name": "owner",
							"type": "address"
						},
						{
							"indexed": true,
							"internalType": "address",
							"name": "operator",
							"type": "address"
						},
						{
							"indexed": false,
							"internalType": "bool",
							"name": "approved",
							"type": "bool"
						}
					],
					"name": "ApprovalForAll",
					"type": "event"
				},
				{
					"anonymous": false,
					"inputs": [
						{
							"indexed": true,
							"internalType": "address",
							"name": "from",
							"type": "address"
						},
						{
							"indexed": true,
							"internalType": "address",
							"name": "to",
							"type": "address"
						},
						{
							"indexed": true,
							"internalType": "uint256",
							"name": "tokenId",
							"type": "uint256"
						}
					],
					"name": "Transfer",
					"type": "event"
				},
				{
					"inputs": [
						{
							"internalType": "address",
							"name": "to",
							"type": "address"
						},
						{
							"internalType": "uint256",
							"name": "tokenId",
							"type": "uint256"
						}
					],
					"name": "approve",
					"outputs": [],
					"stateMutability": "nonpayable",
					"type": "function"
				},
				{
					"inputs": [
						{
							"internalType": "address",
							"name": "owner",
							"type": "address"
						}
					],
					"name": "balanceOf",
					"outputs": [
						{
							"internalType": "uint256",
							"name": "",
							"type": "uint256"
						}
					],
					"stateMutability": "view",
					"type": "function"
				},
				{
					"inputs": [
						{
							"internalType": "uint256",
							"name": "tokenId",
							"type": "uint256"
						}
					],
					"name": "getApproved",
					"outputs": [
						{
							"internalType": "address",
							"name": "",
							"type": "address"
						}
					],
					"stateMutability": "view",
					"type": "function"
				},
				{
					"inputs": [
						{
							"internalType": "address",
							"name": "from",
							"type": "address"
						},
						{
							"internalType": "address",
							"name": "to",
							"type": "address"
						},
						{
							"internalType": "uint256",
							"name": "tokenId",
							"type": "uint256"
						}
					],
					"name": "interfaceFun",
					"outputs": [],
					"stateMutability": "nonpayable",
					"type": "function"
				},
				{
					"inputs": [
						{
							"internalType": "address",
							"name": "owner",
							"type": "address"
						},
						{
							"internalType": "address",
							"name": "operator",
							"type": "address"
						}
					],
					"name": "isApprovedForAll",
					"outputs": [
						{
							"internalType": "bool",
							"name": "",
							"type": "bool"
						}
					],
					"stateMutability": "view",
					"type": "function"
				},
				{
					"inputs": [],
					"name": "name",
					"outputs": [
						{
							"internalType": "string",
							"name": "",
							"type": "string"
						}
					],
					"stateMutability": "view",
					"type": "function"
				},
				{
					"inputs": [
						{
							"internalType": "uint256",
							"name": "tokenId",
							"type": "uint256"
						}
					],
					"name": "ownerOf",
					"outputs": [
						{
							"internalType": "address",
							"name": "owner",
							"type": "address"
						}
					],
					"stateMutability": "view",
					"type": "function"
				},
				{
					"inputs": [
						{
							"internalType": "address",
							"name": "from",
							"type": "address"
						},
						{
							"internalType": "address",
							"name": "to",
							"type": "address"
						},
						{
							"internalType": "uint256",
							"name": "tokenId",
							"type": "uint256"
						}
					],
					"name": "safeTransferFrom",
					"outputs": [],
					"stateMutability": "nonpayable",
					"type": "function"
				},
				{
					"inputs": [
						{
							"internalType": "address",
							"name": "from",
							"type": "address"
						},
						{
							"internalType": "address",
							"name": "to",
							"type": "address"
						},
						{
							"internalType": "uint256",
							"name": "tokenId",
							"type": "uint256"
						},
						{
							"internalType": "bytes",
							"name": "_data",
							"type": "bytes"
						}
					],
					"name": "safeTransferFrom",
					"outputs": [],
					"stateMutability": "nonpayable",
					"type": "function"
				},
				{
					"inputs": [
						{
							"internalType": "address",
							"name": "operator",
							"type": "address"
						},
						{
							"internalType": "bool",
							"name": "approved",
							"type": "bool"
						}
					],
					"name": "setApprovalForAll",
					"outputs": [],
					"stateMutability": "nonpayable",
					"type": "function"
				},
				{
					"inputs": [
						{
							"internalType": "bytes4",
							"name": "interfaceId",
							"type": "bytes4"
						}
					],
					"name": "supportsInterface",
					"outputs": [
						{
							"internalType": "bool",
							"name": "",
							"type": "bool"
						}
					],
					"stateMutability": "pure",
					"type": "function"
				},
				{
					"inputs": [],
					"name": "symbol",
					"outputs": [
						{
							"internalType": "string",
							"name": "",
							"type": "string"
						}
					],
					"stateMutability": "view",
					"type": "function"
				},
				{
					"inputs": [
						{
							"internalType": "uint256",
							"name": "tokenId",
							"type": "uint256"
						}
					],
					"name": "tokenURI",
					"outputs": [
						{
							"internalType": "string",
							"name": "",
							"type": "string"
						}
					],
					"stateMutability": "view",
					"type": "function"
				},
				{
					"inputs": [
						{
							"internalType": "address",
							"name": "from",
							"type": "address"
						},
						{
							"internalType": "address",
							"name": "to",
							"type": "address"
						},
						{
							"internalType": "uint256",
							"name": "tokenId",
							"type": "uint256"
						}
					],
					"name": "transferFrom",
					"outputs": [],
					"stateMutability": "nonpayable",
					"type": "function"
				}
			],
			"devdoc": {
				"kind": "dev",
				"methods": {
					"supportsInterface(bytes4)": {
						"details": "如果合约实现了查询的`interfaceId`，则返回true 规则详见：https://eips.ethereum.org/EIPS/eip-165#how-interfaces-are-identified[EIP section]"
					}
				},
				"version": 1
			},
			"evm": {
				"assembly": "    /* \"46JichengERC721.sol\":81:365  contract JichengERC721 is ERC721{... */\n  mstore(0x40, 0x80)\n    /* \"46JichengERC721.sol\":154:238  constructor(string memory _name,string memory _symbol) ERC721(_name,_symbol){... */\n  callvalue\n  dup1\n  iszero\n  tag_1\n  jumpi\n  0x00\n  dup1\n  revert\ntag_1:\n  pop\n  mload(0x40)\n  sub(codesize, bytecodeSize)\n  dup1\n  bytecodeSize\n  dup4\n  codecopy\n  dup2\n  dup2\n  add\n  0x40\n  mstore\n  dup2\n  add\n  swap1\n  tag_2\n  swap2\n  swap1\n  tag_3\n  jump\t// in\ntag_2:\n    /* \"46JichengERC721.sol\":216:221  _name */\n  dup2\n    /* \"46JichengERC721.sol\":222:229  _symbol */\n  dup2\n    /* \"ERC721.sol\":1077:1082  name_ */\n  dup2\n    /* \"ERC721.sol\":1070:1074  name */\n  0x00\n    /* \"ERC721.sol\":1070:1082  name = name_ */\n  swap1\n  dup1\n  mload\n  swap1\n  0x20\n  add\n  swap1\n  tag_7\n  swap3\n  swap2\n  swap1\n  tag_8\n  jump\t// in\ntag_7:\n  pop\n    /* \"ERC721.sol\":1101:1108  symbol_ */\n  dup1\n    /* \"ERC721.sol\":1092:1098  symbol */\n  0x01\n    /* \"ERC721.sol\":1092:1108  symbol = symbol_ */\n  swap1\n  dup1\n  mload\n  swap1\n  0x20\n  add\n  swap1\n  tag_9\n  swap3\n  swap2\n  swap1\n  tag_8\n  jump\t// in\ntag_9:\n  pop\n    /* \"ERC721.sol\":1004:1115  constructor(string memory name_, string memory symbol_) {... */\n  pop\n  pop\n    /* \"46JichengERC721.sol\":154:238  constructor(string memory _name,string memory _symbol) ERC721(_name,_symbol){... */\n  pop\n  pop\n    /* \"46JichengERC721.sol\":81:365  contract JichengERC721 is ERC721{... */\n  jump(tag_11)\ntag_8:\n  dup3\n  dup1\n  sload\n  tag_12\n  swap1\n  tag_13\n  jump\t// in\ntag_12:\n  swap1\n  0x00\n  mstore\n  keccak256(0x00, 0x20)\n  swap1\n  0x1f\n  add\n  0x20\n  swap1\n  div\n  dup2\n  add\n  swap3\n  dup3\n  tag_15\n  jumpi\n  0x00\n  dup6\n  sstore\n  jump(tag_14)\ntag_15:\n  dup3\n  0x1f\n  lt\n  tag_16\n  jumpi\n  dup1\n  mload\n  not(0xff)\n  and\n  dup4\n  dup1\n  add\n  or\n  dup6\n  sstore\n  jump(tag_14)\ntag_16:\n  dup3\n  dup1\n  add\n  0x01\n  add\n  dup6\n  sstore\n  dup3\n  iszero\n  tag_14\n  jumpi\n  swap2\n  dup3\n  add\ntag_17:\n  dup3\n  dup2\n  gt\n  iszero\n  tag_18\n  jumpi\n  dup3\n  mload\n  dup3\n  sstore\n  swap2\n  0x20\n  add\n  swap2\n  swap1\n  0x01\n  add\n  swap1\n  jump(tag_17)\ntag_18:\ntag_14:\n  pop\n  swap1\n  pop\n  tag_19\n  swap2\n  swap1\n  tag_20\n  jump\t// in\ntag_19:\n  pop\n  swap1\n  jump\t// out\ntag_20:\ntag_21:\n  dup1\n  dup3\n  gt\n  iszero\n  tag_22\n  jumpi\n  0x00\n  dup2\n  0x00\n  swap1\n  sstore\n  pop\n  0x01\n  add\n  jump(tag_21)\ntag_22:\n  pop\n  swap1\n  jump\t// out\n    /* \"#utility.yul\":7:428   */\ntag_24:\n    /* \"#utility.yul\":96:101   */\n  0x00\n    /* \"#utility.yul\":121:187   */\n  tag_26\n    /* \"#utility.yul\":137:186   */\n  tag_27\n    /* \"#utility.yul\":179:185   */\n  dup5\n    /* \"#utility.yul\":137:186   */\n  tag_28\n  jump\t// in\ntag_27:\n    /* \"#utility.yul\":121:187   */\n  tag_29\n  jump\t// in\ntag_26:\n    /* \"#utility.yul\":112:187   */\n  swap1\n  pop\n    /* \"#utility.yul\":210:216   */\n  dup3\n    /* \"#utility.yul\":203:208   */\n  dup2\n    /* \"#utility.yul\":196:217   */\n  mstore\n    /* \"#utility.yul\":248:252   */\n  0x20\n    /* \"#utility.yul\":241:246   */\n  dup2\n    /* \"#utility.yul\":237:253   */\n  add\n    /* \"#utility.yul\":286:289   */\n  dup5\n    /* \"#utility.yul\":277:283   */\n  dup5\n    /* \"#utility.yul\":272:275   */\n  dup5\n    /* \"#utility.yul\":268:284   */\n  add\n    /* \"#utility.yul\":265:290   */\n  gt\n    /* \"#utility.yul\":262:374   */\n  iszero\n  tag_30\n  jumpi\n    /* \"#utility.yul\":293:372   */\n  tag_31\n  tag_32\n  jump\t// in\ntag_31:\n    /* \"#utility.yul\":262:374   */\ntag_30:\n    /* \"#utility.yul\":383:422   */\n  tag_33\n    /* \"#utility.yul\":415:421   */\n  dup5\n    /* \"#utility.yul\":410:413   */\n  dup3\n    /* \"#utility.yul\":405:408   */\n  dup6\n    /* \"#utility.yul\":383:422   */\n  tag_34\n  jump\t// in\ntag_33:\n    /* \"#utility.yul\":102:428   */\n  pop\n    /* \"#utility.yul\":7:428   */\n  swap4\n  swap3\n  pop\n  pop\n  pop\n  jump\t// out\n    /* \"#utility.yul\":448:803   */\ntag_35:\n    /* \"#utility.yul\":515:520   */\n  0x00\n    /* \"#utility.yul\":564:567   */\n  dup3\n    /* \"#utility.yul\":557:561   */\n  0x1f\n    /* \"#utility.yul\":549:555   */\n  dup4\n    /* \"#utility.yul\":545:562   */\n  add\n    /* \"#utility.yul\":541:568   */\n  slt\n    /* \"#utility.yul\":531:653   */\n  tag_37\n  jumpi\n    /* \"#utility.yul\":572:651   */\n  tag_38\n  tag_39\n  jump\t// in\ntag_38:\n    /* \"#utility.yul\":531:653   */\ntag_37:\n    /* \"#utility.yul\":682:688   */\n  dup2\n    /* \"#utility.yul\":676:689   */\n  mload\n    /* \"#utility.yul\":707:797   */\n  tag_40\n    /* \"#utility.yul\":793:796   */\n  dup5\n    /* \"#utility.yul\":785:791   */\n  dup3\n    /* \"#utility.yul\":778:782   */\n  0x20\n    /* \"#utility.yul\":770:776   */\n  dup7\n    /* \"#utility.yul\":766:783   */\n  add\n    /* \"#utility.yul\":707:797   */\n  tag_24\n  jump\t// in\ntag_40:\n    /* \"#utility.yul\":698:797   */\n  swap2\n  pop\n    /* \"#utility.yul\":521:803   */\n  pop\n    /* \"#utility.yul\":448:803   */\n  swap3\n  swap2\n  pop\n  pop\n  jump\t// out\n    /* \"#utility.yul\":809:1662   */\ntag_3:\n    /* \"#utility.yul\":908:914   */\n  0x00\n    /* \"#utility.yul\":916:922   */\n  dup1\n    /* \"#utility.yul\":965:967   */\n  0x40\n    /* \"#utility.yul\":953:962   */\n  dup4\n    /* \"#utility.yul\":944:951   */\n  dup6\n    /* \"#utility.yul\":940:963   */\n  sub\n    /* \"#utility.yul\":936:968   */\n  slt\n    /* \"#utility.yul\":933:1052   */\n  iszero\n  tag_42\n  jumpi\n    /* \"#utility.yul\":971:1050   */\n  tag_43\n  tag_44\n  jump\t// in\ntag_43:\n    /* \"#utility.yul\":933:1052   */\ntag_42:\n    /* \"#utility.yul\":1112:1113   */\n  0x00\n    /* \"#utility.yul\":1101:1110   */\n  dup4\n    /* \"#utility.yul\":1097:1114   */\n  add\n    /* \"#utility.yul\":1091:1115   */\n  mload\n    /* \"#utility.yul\":1142:1160   */\n  0xffffffffffffffff\n    /* \"#utility.yul\":1134:1140   */\n  dup2\n    /* \"#utility.yul\":1131:1161   */\n  gt\n    /* \"#utility.yul\":1128:1245   */\n  iszero\n  tag_45\n  jumpi\n    /* \"#utility.yul\":1164:1243   */\n  tag_46\n  tag_47\n  jump\t// in\ntag_46:\n    /* \"#utility.yul\":1128:1245   */\ntag_45:\n    /* \"#utility.yul\":1269:1343   */\n  tag_48\n    /* \"#utility.yul\":1335:1342   */\n  dup6\n    /* \"#utility.yul\":1326:1332   */\n  dup3\n    /* \"#utility.yul\":1315:1324   */\n  dup7\n    /* \"#utility.yul\":1311:1333   */\n  add\n    /* \"#utility.yul\":1269:1343   */\n  tag_35\n  jump\t// in\ntag_48:\n    /* \"#utility.yul\":1259:1343   */\n  swap3\n  pop\n    /* \"#utility.yul\":1062:1353   */\n  pop\n    /* \"#utility.yul\":1413:1415   */\n  0x20\n    /* \"#utility.yul\":1402:1411   */\n  dup4\n    /* \"#utility.yul\":1398:1416   */\n  add\n    /* \"#utility.yul\":1392:1417   */\n  mload\n    /* \"#utility.yul\":1444:1462   */\n  0xffffffffffffffff\n    /* \"#utility.yul\":1436:1442   */\n  dup2\n    /* \"#utility.yul\":1433:1463   */\n  gt\n    /* \"#utility.yul\":1430:1547   */\n  iszero\n  tag_49\n  jumpi\n    /* \"#utility.yul\":1466:1545   */\n  tag_50\n  tag_47\n  jump\t// in\ntag_50:\n    /* \"#utility.yul\":1430:1547   */\ntag_49:\n    /* \"#utility.yul\":1571:1645   */\n  tag_51\n    /* \"#utility.yul\":1637:1644   */\n  dup6\n    /* \"#utility.yul\":1628:1634   */\n  dup3\n    /* \"#utility.yul\":1617:1626   */\n  dup7\n    /* \"#utility.yul\":1613:1635   */\n  add\n    /* \"#utility.yul\":1571:1645   */\n  tag_35\n  jump\t// in\ntag_51:\n    /* \"#utility.yul\":1561:1645   */\n  swap2\n  pop\n    /* \"#utility.yul\":1363:1655   */\n  pop\n    /* \"#utility.yul\":809:1662   */\n  swap3\n  pop\n  swap3\n  swap1\n  pop\n  jump\t// out\n    /* \"#utility.yul\":1668:1797   */\ntag_29:\n    /* \"#utility.yul\":1702:1708   */\n  0x00\n    /* \"#utility.yul\":1729:1749   */\n  tag_53\n  tag_54\n  jump\t// in\ntag_53:\n    /* \"#utility.yul\":1719:1749   */\n  swap1\n  pop\n    /* \"#utility.yul\":1758:1791   */\n  tag_55\n    /* \"#utility.yul\":1786:1790   */\n  dup3\n    /* \"#utility.yul\":1778:1784   */\n  dup3\n    /* \"#utility.yul\":1758:1791   */\n  tag_56\n  jump\t// in\ntag_55:\n    /* \"#utility.yul\":1668:1797   */\n  swap2\n  swap1\n  pop\n  jump\t// out\n    /* \"#utility.yul\":1803:1878   */\ntag_54:\n    /* \"#utility.yul\":1836:1842   */\n  0x00\n    /* \"#utility.yul\":1869:1871   */\n  0x40\n    /* \"#utility.yul\":1863:1872   */\n  mload\n    /* \"#utility.yul\":1853:1872   */\n  swap1\n  pop\n    /* \"#utility.yul\":1803:1878   */\n  swap1\n  jump\t// out\n    /* \"#utility.yul\":1884:2192   */\ntag_28:\n    /* \"#utility.yul\":1946:1950   */\n  0x00\n    /* \"#utility.yul\":2036:2054   */\n  0xffffffffffffffff\n    /* \"#utility.yul\":2028:2034   */\n  dup3\n    /* \"#utility.yul\":2025:2055   */\n  gt\n    /* \"#utility.yul\":2022:2078   */\n  iszero\n  tag_59\n  jumpi\n    /* \"#utility.yul\":2058:2076   */\n  tag_60\n  tag_61\n  jump\t// in\ntag_60:\n    /* \"#utility.yul\":2022:2078   */\ntag_59:\n    /* \"#utility.yul\":2096:2125   */\n  tag_62\n    /* \"#utility.yul\":2118:2124   */\n  dup3\n    /* \"#utility.yul\":2096:2125   */\n  tag_63\n  jump\t// in\ntag_62:\n    /* \"#utility.yul\":2088:2125   */\n  swap1\n  pop\n    /* \"#utility.yul\":2180:2184   */\n  0x20\n    /* \"#utility.yul\":2174:2178   */\n  dup2\n    /* \"#utility.yul\":2170:2185   */\n  add\n    /* \"#utility.yul\":2162:2185   */\n  swap1\n  pop\n    /* \"#utility.yul\":1884:2192   */\n  swap2\n  swap1\n  pop\n  jump\t// out\n    /* \"#utility.yul\":2198:2505   */\ntag_34:\n    /* \"#utility.yul\":2266:2267   */\n  0x00\n    /* \"#utility.yul\":2276:2389   */\ntag_65:\n    /* \"#utility.yul\":2290:2296   */\n  dup4\n    /* \"#utility.yul\":2287:2288   */\n  dup2\n    /* \"#utility.yul\":2284:2297   */\n  lt\n    /* \"#utility.yul\":2276:2389   */\n  iszero\n  tag_67\n  jumpi\n    /* \"#utility.yul\":2375:2376   */\n  dup1\n    /* \"#utility.yul\":2370:2373   */\n  dup3\n    /* \"#utility.yul\":2366:2377   */\n  add\n    /* \"#utility.yul\":2360:2378   */\n  mload\n    /* \"#utility.yul\":2356:2357   */\n  dup2\n    /* \"#utility.yul\":2351:2354   */\n  dup5\n    /* \"#utility.yul\":2347:2358   */\n  add\n    /* \"#utility.yul\":2340:2379   */\n  mstore\n    /* \"#utility.yul\":2312:2314   */\n  0x20\n    /* \"#utility.yul\":2309:2310   */\n  dup2\n    /* \"#utility.yul\":2305:2315   */\n  add\n    /* \"#utility.yul\":2300:2315   */\n  swap1\n  pop\n    /* \"#utility.yul\":2276:2389   */\n  jump(tag_65)\ntag_67:\n    /* \"#utility.yul\":2407:2413   */\n  dup4\n    /* \"#utility.yul\":2404:2405   */\n  dup2\n    /* \"#utility.yul\":2401:2414   */\n  gt\n    /* \"#utility.yul\":2398:2499   */\n  iszero\n  tag_68\n  jumpi\n    /* \"#utility.yul\":2487:2488   */\n  0x00\n    /* \"#utility.yul\":2478:2484   */\n  dup5\n    /* \"#utility.yul\":2473:2476   */\n  dup5\n    /* \"#utility.yul\":2469:2485   */\n  add\n    /* \"#utility.yul\":2462:2489   */\n  mstore\n    /* \"#utility.yul\":2398:2499   */\ntag_68:\n    /* \"#utility.yul\":2247:2505   */\n  pop\n    /* \"#utility.yul\":2198:2505   */\n  pop\n  pop\n  pop\n  jump\t// out\n    /* \"#utility.yul\":2511:2831   */\ntag_13:\n    /* \"#utility.yul\":2555:2561   */\n  0x00\n    /* \"#utility.yul\":2592:2593   */\n  0x02\n    /* \"#utility.yul\":2586:2590   */\n  dup3\n    /* \"#utility.yul\":2582:2594   */\n  div\n    /* \"#utility.yul\":2572:2594   */\n  swap1\n  pop\n    /* \"#utility.yul\":2639:2640   */\n  0x01\n    /* \"#utility.yul\":2633:2637   */\n  dup3\n    /* \"#utility.yul\":2629:2641   */\n  and\n    /* \"#utility.yul\":2660:2678   */\n  dup1\n    /* \"#utility.yul\":2650:2731   */\n  tag_70\n  jumpi\n    /* \"#utility.yul\":2716:2720   */\n  0x7f\n    /* \"#utility.yul\":2708:2714   */\n  dup3\n    /* \"#utility.yul\":2704:2721   */\n  and\n    /* \"#utility.yul\":2694:2721   */\n  swap2\n  pop\n    /* \"#utility.yul\":2650:2731   */\ntag_70:\n    /* \"#utility.yul\":2778:2780   */\n  0x20\n    /* \"#utility.yul\":2770:2776   */\n  dup3\n    /* \"#utility.yul\":2767:2781   */\n  lt\n    /* \"#utility.yul\":2747:2765   */\n  dup2\n    /* \"#utility.yul\":2744:2782   */\n  eq\n    /* \"#utility.yul\":2741:2825   */\n  iszero\n  tag_71\n  jumpi\n    /* \"#utility.yul\":2797:2815   */\n  tag_72\n  tag_73\n  jump\t// in\ntag_72:\n    /* \"#utility.yul\":2741:2825   */\ntag_71:\n    /* \"#utility.yul\":2562:2831   */\n  pop\n    /* \"#utility.yul\":2511:2831   */\n  swap2\n  swap1\n  pop\n  jump\t// out\n    /* \"#utility.yul\":2837:3118   */\ntag_56:\n    /* \"#utility.yul\":2920:2947   */\n  tag_75\n    /* \"#utility.yul\":2942:2946   */\n  dup3\n    /* \"#utility.yul\":2920:2947   */\n  tag_63\n  jump\t// in\ntag_75:\n    /* \"#utility.yul\":2912:2918   */\n  dup2\n    /* \"#utility.yul\":2908:2948   */\n  add\n    /* \"#utility.yul\":3050:3056   */\n  dup2\n    /* \"#utility.yul\":3038:3048   */\n  dup2\n    /* \"#utility.yul\":3035:3057   */\n  lt\n    /* \"#utility.yul\":3014:3032   */\n  0xffffffffffffffff\n    /* \"#utility.yul\":3002:3012   */\n  dup3\n    /* \"#utility.yul\":2999:3033   */\n  gt\n    /* \"#utility.yul\":2996:3058   */\n  or\n    /* \"#utility.yul\":2993:3081   */\n  iszero\n  tag_76\n  jumpi\n    /* \"#utility.yul\":3061:3079   */\n  tag_77\n  tag_61\n  jump\t// in\ntag_77:\n    /* \"#utility.yul\":2993:3081   */\ntag_76:\n    /* \"#utility.yul\":3101:3111   */\n  dup1\n    /* \"#utility.yul\":3097:3099   */\n  0x40\n    /* \"#utility.yul\":3090:3112   */\n  mstore\n    /* \"#utility.yul\":2880:3118   */\n  pop\n    /* \"#utility.yul\":2837:3118   */\n  pop\n  pop\n  jump\t// out\n    /* \"#utility.yul\":3124:3304   */\ntag_73:\n    /* \"#utility.yul\":3172:3249   */\n  0x4e487b7100000000000000000000000000000000000000000000000000000000\n    /* \"#utility.yul\":3169:3170   */\n  0x00\n    /* \"#utility.yul\":3162:3250   */\n  mstore\n    /* \"#utility.yul\":3269:3273   */\n  0x22\n    /* \"#utility.yul\":3266:3267   */\n  0x04\n    /* \"#utility.yul\":3259:3274   */\n  mstore\n    /* \"#utility.yul\":3293:3297   */\n  0x24\n    /* \"#utility.yul\":3290:3291   */\n  0x00\n    /* \"#utility.yul\":3283:3298   */\n  revert\n    /* \"#utility.yul\":3310:3490   */\ntag_61:\n    /* \"#utility.yul\":3358:3435   */\n  0x4e487b7100000000000000000000000000000000000000000000000000000000\n    /* \"#utility.yul\":3355:3356   */\n  0x00\n    /* \"#utility.yul\":3348:3436   */\n  mstore\n    /* \"#utility.yul\":3455:3459   */\n  0x41\n    /* \"#utility.yul\":3452:3453   */\n  0x04\n    /* \"#utility.yul\":3445:3460   */\n  mstore\n    /* \"#utility.yul\":3479:3483   */\n  0x24\n    /* \"#utility.yul\":3476:3477   */\n  0x00\n    /* \"#utility.yul\":3469:3484   */\n  revert\n    /* \"#utility.yul\":3496:3613   */\ntag_39:\n    /* \"#utility.yul\":3605:3606   */\n  0x00\n    /* \"#utility.yul\":3602:3603   */\n  dup1\n    /* \"#utility.yul\":3595:3607   */\n  revert\n    /* \"#utility.yul\":3619:3736   */\ntag_32:\n    /* \"#utility.yul\":3728:3729   */\n  0x00\n    /* \"#utility.yul\":3725:3726   */\n  dup1\n    /* \"#utility.yul\":3718:3730   */\n  revert\n    /* \"#utility.yul\":3742:3859   */\ntag_47:\n    /* \"#utility.yul\":3851:3852   */\n  0x00\n    /* \"#utility.yul\":3848:3849   */\n  dup1\n    /* \"#utility.yul\":3841:3853   */\n  revert\n    /* \"#utility.yul\":3865:3982   */\ntag_44:\n    /* \"#utility.yul\":3974:3975   */\n  0x00\n    /* \"#utility.yul\":3971:3972   */\n  dup1\n    /* \"#utility.yul\":3964:3976   */\n  revert\n    /* \"#utility.yul\":3988:4090   */\ntag_63:\n    /* \"#utility.yul\":4029:4035   */\n  0x00\n    /* \"#utility.yul\":4080:4082   */\n  0x1f\n    /* \"#utility.yul\":4076:4083   */\n  not\n    /* \"#utility.yul\":4071:4073   */\n  0x1f\n    /* \"#utility.yul\":4064:4069   */\n  dup4\n    /* \"#utility.yul\":4060:4074   */\n  add\n    /* \"#utility.yul\":4056:4084   */\n  and\n    /* \"#utility.yul\":4046:4084   */\n  swap1\n  pop\n    /* \"#utility.yul\":3988:4090   */\n  swap2\n  swap1\n  pop\n  jump\t// out\n    /* \"46JichengERC721.sol\":81:365  contract JichengERC721 is ERC721{... */\ntag_11:\n  dataSize(sub_0)\n  dup1\n  dataOffset(sub_0)\n  0x00\n  codecopy\n  0x00\n  return\nstop\n\nsub_0: assembly {\n        /* \"46JichengERC721.sol\":81:365  contract JichengERC721 is ERC721{... */\n      mstore(0x40, 0x80)\n      callvalue\n      dup1\n      iszero\n      tag_1\n      jumpi\n      0x00\n      dup1\n      revert\n    tag_1:\n      pop\n      jumpi(tag_2, lt(calldatasize, 0x04))\n      shr(0xe0, calldataload(0x00))\n      dup1\n      0x70a08231\n      gt\n      tag_17\n      jumpi\n      dup1\n      0xa22cb465\n      gt\n      tag_18\n      jumpi\n      dup1\n      0xa22cb465\n      eq\n      tag_13\n      jumpi\n      dup1\n      0xb88d4fde\n      eq\n      tag_14\n      jumpi\n      dup1\n      0xc87b56dd\n      eq\n      tag_15\n      jumpi\n      dup1\n      0xe985e9c5\n      eq\n      tag_16\n      jumpi\n      jump(tag_2)\n    tag_18:\n      dup1\n      0x70a08231\n      eq\n      tag_10\n      jumpi\n      dup1\n      0x95d89b41\n      eq\n      tag_11\n      jumpi\n      dup1\n      0x9fc2ee4b\n      eq\n      tag_12\n      jumpi\n      jump(tag_2)\n    tag_17:\n      dup1\n      0x095ea7b3\n      gt\n      tag_19\n      jumpi\n      dup1\n      0x095ea7b3\n      eq\n      tag_6\n      jumpi\n      dup1\n      0x23b872dd\n      eq\n      tag_7\n      jumpi\n      dup1\n      0x42842e0e\n      eq\n      tag_8\n      jumpi\n      dup1\n      0x6352211e\n      eq\n      tag_9\n      jumpi\n      jump(tag_2)\n    tag_19:\n      dup1\n      0x01ffc9a7\n      eq\n      tag_3\n      jumpi\n      dup1\n      0x06fdde03\n      eq\n      tag_4\n      jumpi\n      dup1\n      0x081812fc\n      eq\n      tag_5\n      jumpi\n    tag_2:\n      0x00\n      dup1\n      revert\n        /* \"ERC721.sol\":1165:1482  function supportsInterface(bytes4 interfaceId)... */\n    tag_3:\n      tag_20\n      0x04\n      dup1\n      calldatasize\n      sub\n      dup2\n      add\n      swap1\n      tag_21\n      swap2\n      swap1\n      tag_22\n      jump\t// in\n    tag_21:\n      tag_23\n      jump\t// in\n    tag_20:\n      mload(0x40)\n      tag_24\n      swap2\n      swap1\n      tag_25\n      jump\t// in\n    tag_24:\n      mload(0x40)\n      dup1\n      swap2\n      sub\n      swap1\n      return\n        /* \"ERC721.sol\":325:352  string public override name */\n    tag_4:\n      tag_26\n      tag_27\n      jump\t// in\n    tag_26:\n      mload(0x40)\n      tag_28\n      swap2\n      swap1\n      tag_29\n      jump\t// in\n    tag_28:\n      mload(0x40)\n      dup1\n      swap2\n      sub\n      swap1\n      return\n        /* \"ERC721.sol\":2790:2986  function getApproved(uint tokenId) external view override returns (address) {... */\n    tag_5:\n      tag_30\n      0x04\n      dup1\n      calldatasize\n      sub\n      dup2\n      add\n      swap1\n      tag_31\n      swap2\n      swap1\n      tag_32\n      jump\t// in\n    tag_31:\n      tag_33\n      jump\t// in\n    tag_30:\n      mload(0x40)\n      tag_34\n      swap2\n      swap1\n      tag_35\n      jump\t// in\n    tag_34:\n      mload(0x40)\n      dup1\n      swap2\n      sub\n      swap1\n      return\n        /* \"ERC721.sol\":3460:3755  function approve(address to, uint tokenId) external override {... */\n    tag_6:\n      tag_36\n      0x04\n      dup1\n      calldatasize\n      sub\n      dup2\n      add\n      swap1\n      tag_37\n      swap2\n      swap1\n      tag_38\n      jump\t// in\n    tag_37:\n      tag_39\n      jump\t// in\n    tag_36:\n      stop\n        /* \"ERC721.sol\":4873:5202  function transferFrom(... */\n    tag_7:\n      tag_40\n      0x04\n      dup1\n      calldatasize\n      sub\n      dup2\n      add\n      swap1\n      tag_41\n      swap2\n      swap1\n      tag_42\n      jump\t// in\n    tag_41:\n      tag_43\n      jump\t// in\n    tag_40:\n      stop\n        /* \"ERC721.sol\":6436:6606  function safeTransferFrom(... */\n    tag_8:\n      tag_44\n      0x04\n      dup1\n      calldatasize\n      sub\n      dup2\n      add\n      swap1\n      tag_45\n      swap2\n      swap1\n      tag_42\n      jump\t// in\n    tag_45:\n      tag_46\n      jump\t// in\n    tag_44:\n      stop\n        /* \"ERC721.sol\":1832:2010  function ownerOf(uint tokenId) public view override returns (address owner) {... */\n    tag_9:\n      tag_47\n      0x04\n      dup1\n      calldatasize\n      sub\n      dup2\n      add\n      swap1\n      tag_48\n      swap2\n      swap1\n      tag_32\n      jump\t// in\n    tag_48:\n      tag_49\n      jump\t// in\n    tag_47:\n      mload(0x40)\n      tag_50\n      swap2\n      swap1\n      tag_35\n      jump\t// in\n    tag_50:\n      mload(0x40)\n      dup1\n      swap2\n      sub\n      swap1\n      return\n        /* \"ERC721.sol\":1575:1749  function balanceOf(address owner) external view override returns (uint) {... */\n    tag_10:\n      tag_51\n      0x04\n      dup1\n      calldatasize\n      sub\n      dup2\n      add\n      swap1\n      tag_52\n      swap2\n      swap1\n      tag_53\n      jump\t// in\n    tag_52:\n      tag_54\n      jump\t// in\n    tag_51:\n      mload(0x40)\n      tag_55\n      swap2\n      swap1\n      tag_56\n      jump\t// in\n    tag_55:\n      mload(0x40)\n      dup1\n      swap2\n      sub\n      swap1\n      return\n        /* \"ERC721.sol\":377:406  string public override symbol */\n    tag_11:\n      tag_57\n      tag_58\n      jump\t// in\n    tag_57:\n      mload(0x40)\n      tag_59\n      swap2\n      swap1\n      tag_29\n      jump\t// in\n    tag_59:\n      mload(0x40)\n      dup1\n      swap2\n      sub\n      swap1\n      return\n        /* \"46JichengERC721.sol\":244:363  function interfaceFun(address from,address to,uint256 tokenId)public{... */\n    tag_12:\n      tag_60\n      0x04\n      dup1\n      calldatasize\n      sub\n      dup2\n      add\n      swap1\n      tag_61\n      swap2\n      swap1\n      tag_42\n      jump\t// in\n    tag_61:\n      tag_62\n      jump\t// in\n    tag_60:\n      stop\n        /* \"ERC721.sol\":2481:2688  function setApprovalForAll(address operator, bool approved) external override {... */\n    tag_13:\n      tag_63\n      0x04\n      dup1\n      calldatasize\n      sub\n      dup2\n      add\n      swap1\n      tag_64\n      swap2\n      swap1\n      tag_65\n      jump\t// in\n    tag_64:\n      tag_66\n      jump\t// in\n    tag_63:\n      stop\n        /* \"ERC721.sol\":6024:6394  function safeTransferFrom(... */\n    tag_14:\n      tag_67\n      0x04\n      dup1\n      calldatasize\n      sub\n      dup2\n      add\n      swap1\n      tag_68\n      swap2\n      swap1\n      tag_69\n      jump\t// in\n    tag_68:\n      tag_70\n      jump\t// in\n    tag_67:\n      stop\n        /* \"ERC721.sol\":8843:9154  function tokenURI(uint256 tokenId) public view virtual override returns (string memory) {... */\n    tag_15:\n      tag_71\n      0x04\n      dup1\n      calldatasize\n      sub\n      dup2\n      add\n      swap1\n      tag_72\n      swap2\n      swap1\n      tag_32\n      jump\t// in\n    tag_72:\n      tag_73\n      jump\t// in\n    tag_71:\n      mload(0x40)\n      tag_74\n      swap2\n      swap1\n      tag_29\n      jump\t// in\n    tag_74:\n      mload(0x40)\n      dup1\n      swap2\n      sub\n      swap1\n      return\n        /* \"ERC721.sol\":2159:2351  function isApprovedForAll(address owner, address operator)... */\n    tag_16:\n      tag_75\n      0x04\n      dup1\n      calldatasize\n      sub\n      dup2\n      add\n      swap1\n      tag_76\n      swap2\n      swap1\n      tag_77\n      jump\t// in\n    tag_76:\n      tag_78\n      jump\t// in\n    tag_75:\n      mload(0x40)\n      tag_79\n      swap2\n      swap1\n      tag_25\n      jump\t// in\n    tag_79:\n      mload(0x40)\n      dup1\n      swap2\n      sub\n      swap1\n      return\n        /* \"ERC721.sol\":1165:1482  function supportsInterface(bytes4 interfaceId)... */\n    tag_23:\n        /* \"ERC721.sol\":1276:1280  bool */\n      0x00\n        /* \"ERC721.sol\":1330:1355  type(IERC721).interfaceId */\n      0x80ac58cd00000000000000000000000000000000000000000000000000000000\n        /* \"ERC721.sol\":1315:1355  interfaceId == type(IERC721).interfaceId */\n      not(0xffffffffffffffffffffffffffffffffffffffffffffffffffffffff)\n      and\n        /* \"ERC721.sol\":1315:1326  interfaceId */\n      dup3\n        /* \"ERC721.sol\":1315:1355  interfaceId == type(IERC721).interfaceId */\n      not(0xffffffffffffffffffffffffffffffffffffffffffffffffffffffff)\n      and\n      eq\n        /* \"ERC721.sol\":1315:1411  interfaceId == type(IERC721).interfaceId ||... */\n      dup1\n      tag_81\n      jumpi\n      pop\n        /* \"ERC721.sol\":1386:1411  type(IERC165).interfaceId */\n      0x01ffc9a700000000000000000000000000000000000000000000000000000000\n        /* \"ERC721.sol\":1371:1411  interfaceId == type(IERC165).interfaceId */\n      not(0xffffffffffffffffffffffffffffffffffffffffffffffffffffffff)\n      and\n        /* \"ERC721.sol\":1371:1382  interfaceId */\n      dup3\n        /* \"ERC721.sol\":1371:1411  interfaceId == type(IERC165).interfaceId */\n      not(0xffffffffffffffffffffffffffffffffffffffffffffffffffffffff)\n      and\n      eq\n        /* \"ERC721.sol\":1315:1411  interfaceId == type(IERC721).interfaceId ||... */\n    tag_81:\n        /* \"ERC721.sol\":1315:1475  interfaceId == type(IERC721).interfaceId ||... */\n      dup1\n      tag_82\n      jumpi\n      pop\n        /* \"ERC721.sol\":1442:1475  type(IERC721Metadata).interfaceId */\n      0x5b5e139f00000000000000000000000000000000000000000000000000000000\n        /* \"ERC721.sol\":1427:1475  interfaceId == type(IERC721Metadata).interfaceId */\n      not(0xffffffffffffffffffffffffffffffffffffffffffffffffffffffff)\n      and\n        /* \"ERC721.sol\":1427:1438  interfaceId */\n      dup3\n        /* \"ERC721.sol\":1427:1475  interfaceId == type(IERC721Metadata).interfaceId */\n      not(0xffffffffffffffffffffffffffffffffffffffffffffffffffffffff)\n      and\n      eq\n        /* \"ERC721.sol\":1315:1475  interfaceId == type(IERC721).interfaceId ||... */\n    tag_82:\n        /* \"ERC721.sol\":1296:1475  return... */\n      swap1\n      pop\n        /* \"ERC721.sol\":1165:1482  function supportsInterface(bytes4 interfaceId)... */\n      swap2\n      swap1\n      pop\n      jump\t// out\n        /* \"ERC721.sol\":325:352  string public override name */\n    tag_27:\n      0x00\n      dup1\n      sload\n      tag_83\n      swap1\n      tag_84\n      jump\t// in\n    tag_83:\n      dup1\n      0x1f\n      add\n      0x20\n      dup1\n      swap2\n      div\n      mul\n      0x20\n      add\n      mload(0x40)\n      swap1\n      dup2\n      add\n      0x40\n      mstore\n      dup1\n      swap3\n      swap2\n      swap1\n      dup2\n      dup2\n      mstore\n      0x20\n      add\n      dup3\n      dup1\n      sload\n      tag_85\n      swap1\n      tag_84\n      jump\t// in\n    tag_85:\n      dup1\n      iszero\n      tag_86\n      jumpi\n      dup1\n      0x1f\n      lt\n      tag_87\n      jumpi\n      0x0100\n      dup1\n      dup4\n      sload\n      div\n      mul\n      dup4\n      mstore\n      swap2\n      0x20\n      add\n      swap2\n      jump(tag_86)\n    tag_87:\n      dup3\n      add\n      swap2\n      swap1\n      0x00\n      mstore\n      keccak256(0x00, 0x20)\n      swap1\n    tag_88:\n      dup2\n      sload\n      dup2\n      mstore\n      swap1\n      0x01\n      add\n      swap1\n      0x20\n      add\n      dup1\n      dup4\n      gt\n      tag_88\n      jumpi\n      dup3\n      swap1\n      sub\n      0x1f\n      and\n      dup3\n      add\n      swap2\n    tag_86:\n      pop\n      pop\n      pop\n      pop\n      pop\n      dup2\n      jump\t// out\n        /* \"ERC721.sol\":2790:2986  function getApproved(uint tokenId) external view override returns (address) {... */\n    tag_33:\n        /* \"ERC721.sol\":2857:2864  address */\n      0x00\n        /* \"ERC721.sol\":2912:2913  0 */\n      dup1\n        /* \"ERC721.sol\":2884:2914  _owners[tokenId] != address(0) */\n      0xffffffffffffffffffffffffffffffffffffffff\n      and\n        /* \"ERC721.sol\":2884:2891  _owners */\n      0x02\n        /* \"ERC721.sol\":2884:2900  _owners[tokenId] */\n      0x00\n        /* \"ERC721.sol\":2892:2899  tokenId */\n      dup5\n        /* \"ERC721.sol\":2884:2900  _owners[tokenId] */\n      dup2\n      mstore\n      0x20\n      add\n      swap1\n      dup2\n      mstore\n      0x20\n      add\n      0x00\n      keccak256\n      0x00\n      swap1\n      sload\n      swap1\n      0x0100\n      exp\n      swap1\n      div\n      0xffffffffffffffffffffffffffffffffffffffff\n      and\n        /* \"ERC721.sol\":2884:2914  _owners[tokenId] != address(0) */\n      0xffffffffffffffffffffffffffffffffffffffff\n      and\n      eq\n      iszero\n        /* \"ERC721.sol\":2876:2938  require(_owners[tokenId] != address(0), \"token doesn't exist\") */\n      tag_90\n      jumpi\n      mload(0x40)\n      0x08c379a000000000000000000000000000000000000000000000000000000000\n      dup2\n      mstore\n      0x04\n      add\n      tag_91\n      swap1\n      tag_92\n      jump\t// in\n    tag_91:\n      mload(0x40)\n      dup1\n      swap2\n      sub\n      swap1\n      revert\n    tag_90:\n        /* \"ERC721.sol\":2955:2970  _tokenApprovals */\n      0x04\n        /* \"ERC721.sol\":2955:2979  _tokenApprovals[tokenId] */\n      0x00\n        /* \"ERC721.sol\":2971:2978  tokenId */\n      dup4\n        /* \"ERC721.sol\":2955:2979  _tokenApprovals[tokenId] */\n      dup2\n      mstore\n      0x20\n      add\n      swap1\n      dup2\n      mstore\n      0x20\n      add\n      0x00\n      keccak256\n      0x00\n      swap1\n      sload\n      swap1\n      0x0100\n      exp\n      swap1\n      div\n      0xffffffffffffffffffffffffffffffffffffffff\n      and\n        /* \"ERC721.sol\":2948:2979  return _tokenApprovals[tokenId] */\n      swap1\n      pop\n        /* \"ERC721.sol\":2790:2986  function getApproved(uint tokenId) external view override returns (address) {... */\n      swap2\n      swap1\n      pop\n      jump\t// out\n        /* \"ERC721.sol\":3460:3755  function approve(address to, uint tokenId) external override {... */\n    tag_39:\n        /* \"ERC721.sol\":3531:3544  address owner */\n      0x00\n        /* \"ERC721.sol\":3547:3554  _owners */\n      0x02\n        /* \"ERC721.sol\":3547:3563  _owners[tokenId] */\n      0x00\n        /* \"ERC721.sol\":3555:3562  tokenId */\n      dup4\n        /* \"ERC721.sol\":3547:3563  _owners[tokenId] */\n      dup2\n      mstore\n      0x20\n      add\n      swap1\n      dup2\n      mstore\n      0x20\n      add\n      0x00\n      keccak256\n      0x00\n      swap1\n      sload\n      swap1\n      0x0100\n      exp\n      swap1\n      div\n      0xffffffffffffffffffffffffffffffffffffffff\n      and\n        /* \"ERC721.sol\":3531:3563  address owner = _owners[tokenId] */\n      swap1\n      pop\n        /* \"ERC721.sol\":3608:3613  owner */\n      dup1\n        /* \"ERC721.sol\":3594:3613  msg.sender == owner */\n      0xffffffffffffffffffffffffffffffffffffffff\n      and\n        /* \"ERC721.sol\":3594:3604  msg.sender */\n      caller\n        /* \"ERC721.sol\":3594:3613  msg.sender == owner */\n      0xffffffffffffffffffffffffffffffffffffffff\n      and\n      eq\n        /* \"ERC721.sol\":3594:3654  msg.sender == owner || _operatorApprovals[owner][msg.sender] */\n      dup1\n      tag_94\n      jumpi\n      pop\n        /* \"ERC721.sol\":3617:3635  _operatorApprovals */\n      0x05\n        /* \"ERC721.sol\":3617:3642  _operatorApprovals[owner] */\n      0x00\n        /* \"ERC721.sol\":3636:3641  owner */\n      dup3\n        /* \"ERC721.sol\":3617:3642  _operatorApprovals[owner] */\n      0xffffffffffffffffffffffffffffffffffffffff\n      and\n      0xffffffffffffffffffffffffffffffffffffffff\n      and\n      dup2\n      mstore\n      0x20\n      add\n      swap1\n      dup2\n      mstore\n      0x20\n      add\n      0x00\n      keccak256\n        /* \"ERC721.sol\":3617:3654  _operatorApprovals[owner][msg.sender] */\n      0x00\n        /* \"ERC721.sol\":3643:3653  msg.sender */\n      caller\n        /* \"ERC721.sol\":3617:3654  _operatorApprovals[owner][msg.sender] */\n      0xffffffffffffffffffffffffffffffffffffffff\n      and\n      0xffffffffffffffffffffffffffffffffffffffff\n      and\n      dup2\n      mstore\n      0x20\n      add\n      swap1\n      dup2\n      mstore\n      0x20\n      add\n      0x00\n      keccak256\n      0x00\n      swap1\n      sload\n      swap1\n      0x0100\n      exp\n      swap1\n      div\n      0xff\n      and\n        /* \"ERC721.sol\":3594:3654  msg.sender == owner || _operatorApprovals[owner][msg.sender] */\n    tag_94:\n        /* \"ERC721.sol\":3573:3710  require(... */\n      tag_95\n      jumpi\n      mload(0x40)\n      0x08c379a000000000000000000000000000000000000000000000000000000000\n      dup2\n      mstore\n      0x04\n      add\n      tag_96\n      swap1\n      tag_97\n      jump\t// in\n    tag_96:\n      mload(0x40)\n      dup1\n      swap2\n      sub\n      swap1\n      revert\n    tag_95:\n        /* \"ERC721.sol\":3720:3748  _approve(owner, to, tokenId) */\n      tag_98\n        /* \"ERC721.sol\":3729:3734  owner */\n      dup2\n        /* \"ERC721.sol\":3736:3738  to */\n      dup5\n        /* \"ERC721.sol\":3740:3747  tokenId */\n      dup5\n        /* \"ERC721.sol\":3720:3728  _approve */\n      tag_99\n        /* \"ERC721.sol\":3720:3748  _approve(owner, to, tokenId) */\n      jump\t// in\n    tag_98:\n        /* \"ERC721.sol\":3521:3755  {... */\n      pop\n        /* \"ERC721.sol\":3460:3755  function approve(address to, uint tokenId) external override {... */\n      pop\n      pop\n      jump\t// out\n        /* \"ERC721.sol\":4873:5202  function transferFrom(... */\n    tag_43:\n        /* \"ERC721.sol\":4993:5006  address owner */\n      0x00\n        /* \"ERC721.sol\":5009:5025  ownerOf(tokenId) */\n      tag_101\n        /* \"ERC721.sol\":5017:5024  tokenId */\n      dup3\n        /* \"ERC721.sol\":5009:5016  ownerOf */\n      tag_49\n        /* \"ERC721.sol\":5009:5025  ownerOf(tokenId) */\n      jump\t// in\n    tag_101:\n        /* \"ERC721.sol\":4993:5025  address owner = ownerOf(tokenId) */\n      swap1\n      pop\n        /* \"ERC721.sol\":5056:5102  _isApprovedOrOwner(owner, msg.sender, tokenId) */\n      tag_102\n        /* \"ERC721.sol\":5075:5080  owner */\n      dup2\n        /* \"ERC721.sol\":5082:5092  msg.sender */\n      caller\n        /* \"ERC721.sol\":5094:5101  tokenId */\n      dup5\n        /* \"ERC721.sol\":5056:5074  _isApprovedOrOwner */\n      tag_103\n        /* \"ERC721.sol\":5056:5102  _isApprovedOrOwner(owner, msg.sender, tokenId) */\n      jump\t// in\n    tag_102:\n        /* \"ERC721.sol\":5035:5150  require(... */\n      tag_104\n      jumpi\n      mload(0x40)\n      0x08c379a000000000000000000000000000000000000000000000000000000000\n      dup2\n      mstore\n      0x04\n      add\n      tag_105\n      swap1\n      tag_106\n      jump\t// in\n    tag_105:\n      mload(0x40)\n      dup1\n      swap2\n      sub\n      swap1\n      revert\n    tag_104:\n        /* \"ERC721.sol\":5160:5195  _transfer(owner, from, to, tokenId) */\n      tag_107\n        /* \"ERC721.sol\":5170:5175  owner */\n      dup2\n        /* \"ERC721.sol\":5177:5181  from */\n      dup6\n        /* \"ERC721.sol\":5183:5185  to */\n      dup6\n        /* \"ERC721.sol\":5187:5194  tokenId */\n      dup6\n        /* \"ERC721.sol\":5160:5169  _transfer */\n      tag_108\n        /* \"ERC721.sol\":5160:5195  _transfer(owner, from, to, tokenId) */\n      jump\t// in\n    tag_107:\n        /* \"ERC721.sol\":4983:5202  {... */\n      pop\n        /* \"ERC721.sol\":4873:5202  function transferFrom(... */\n      pop\n      pop\n      pop\n      jump\t// out\n        /* \"ERC721.sol\":6436:6606  function safeTransferFrom(... */\n    tag_46:\n        /* \"ERC721.sol\":6560:6599  safeTransferFrom(from, to, tokenId, \"\") */\n      tag_110\n        /* \"ERC721.sol\":6577:6581  from */\n      dup4\n        /* \"ERC721.sol\":6583:6585  to */\n      dup4\n        /* \"ERC721.sol\":6587:6594  tokenId */\n      dup4\n        /* \"ERC721.sol\":6560:6599  safeTransferFrom(from, to, tokenId, \"\") */\n      mload(0x40)\n      dup1\n      0x20\n      add\n      0x40\n      mstore\n      dup1\n      0x00\n      dup2\n      mstore\n      pop\n        /* \"ERC721.sol\":6560:6576  safeTransferFrom */\n      tag_70\n        /* \"ERC721.sol\":6560:6599  safeTransferFrom(from, to, tokenId, \"\") */\n      jump\t// in\n    tag_110:\n        /* \"ERC721.sol\":6436:6606  function safeTransferFrom(... */\n      pop\n      pop\n      pop\n      jump\t// out\n        /* \"ERC721.sol\":1832:2010  function ownerOf(uint tokenId) public view override returns (address owner) {... */\n    tag_49:\n        /* \"ERC721.sol\":1893:1906  address owner */\n      0x00\n        /* \"ERC721.sol\":1926:1933  _owners */\n      0x02\n        /* \"ERC721.sol\":1926:1942  _owners[tokenId] */\n      0x00\n        /* \"ERC721.sol\":1934:1941  tokenId */\n      dup4\n        /* \"ERC721.sol\":1926:1942  _owners[tokenId] */\n      dup2\n      mstore\n      0x20\n      add\n      swap1\n      dup2\n      mstore\n      0x20\n      add\n      0x00\n      keccak256\n      0x00\n      swap1\n      sload\n      swap1\n      0x0100\n      exp\n      swap1\n      div\n      0xffffffffffffffffffffffffffffffffffffffff\n      and\n        /* \"ERC721.sol\":1918:1942  owner = _owners[tokenId] */\n      swap1\n      pop\n        /* \"ERC721.sol\":1977:1978  0 */\n      0x00\n        /* \"ERC721.sol\":1960:1979  owner != address(0) */\n      0xffffffffffffffffffffffffffffffffffffffff\n      and\n        /* \"ERC721.sol\":1960:1965  owner */\n      dup2\n        /* \"ERC721.sol\":1960:1979  owner != address(0) */\n      0xffffffffffffffffffffffffffffffffffffffff\n      and\n      eq\n      iszero\n        /* \"ERC721.sol\":1952:2003  require(owner != address(0), \"token doesn't exist\") */\n      tag_112\n      jumpi\n      mload(0x40)\n      0x08c379a000000000000000000000000000000000000000000000000000000000\n      dup2\n      mstore\n      0x04\n      add\n      tag_113\n      swap1\n      tag_92\n      jump\t// in\n    tag_113:\n      mload(0x40)\n      dup1\n      swap2\n      sub\n      swap1\n      revert\n    tag_112:\n        /* \"ERC721.sol\":1832:2010  function ownerOf(uint tokenId) public view override returns (address owner) {... */\n      swap2\n      swap1\n      pop\n      jump\t// out\n        /* \"ERC721.sol\":1575:1749  function balanceOf(address owner) external view override returns (uint) {... */\n    tag_54:\n        /* \"ERC721.sol\":1641:1645  uint */\n      0x00\n        /* \"ERC721.sol\":1682:1683  0 */\n      dup1\n        /* \"ERC721.sol\":1665:1684  owner != address(0) */\n      0xffffffffffffffffffffffffffffffffffffffff\n      and\n        /* \"ERC721.sol\":1665:1670  owner */\n      dup3\n        /* \"ERC721.sol\":1665:1684  owner != address(0) */\n      0xffffffffffffffffffffffffffffffffffffffff\n      and\n      eq\n      iszero\n        /* \"ERC721.sol\":1657:1709  require(owner != address(0), \"owner = zero address\") */\n      tag_115\n      jumpi\n      mload(0x40)\n      0x08c379a000000000000000000000000000000000000000000000000000000000\n      dup2\n      mstore\n      0x04\n      add\n      tag_116\n      swap1\n      tag_117\n      jump\t// in\n    tag_116:\n      mload(0x40)\n      dup1\n      swap2\n      sub\n      swap1\n      revert\n    tag_115:\n        /* \"ERC721.sol\":1726:1735  _balances */\n      0x03\n        /* \"ERC721.sol\":1726:1742  _balances[owner] */\n      0x00\n        /* \"ERC721.sol\":1736:1741  owner */\n      dup4\n        /* \"ERC721.sol\":1726:1742  _balances[owner] */\n      0xffffffffffffffffffffffffffffffffffffffff\n      and\n      0xffffffffffffffffffffffffffffffffffffffff\n      and\n      dup2\n      mstore\n      0x20\n      add\n      swap1\n      dup2\n      mstore\n      0x20\n      add\n      0x00\n      keccak256\n      sload\n        /* \"ERC721.sol\":1719:1742  return _balances[owner] */\n      swap1\n      pop\n        /* \"ERC721.sol\":1575:1749  function balanceOf(address owner) external view override returns (uint) {... */\n      swap2\n      swap1\n      pop\n      jump\t// out\n        /* \"ERC721.sol\":377:406  string public override symbol */\n    tag_58:\n      0x01\n      dup1\n      sload\n      tag_118\n      swap1\n      tag_84\n      jump\t// in\n    tag_118:\n      dup1\n      0x1f\n      add\n      0x20\n      dup1\n      swap2\n      div\n      mul\n      0x20\n      add\n      mload(0x40)\n      swap1\n      dup2\n      add\n      0x40\n      mstore\n      dup1\n      swap3\n      swap2\n      swap1\n      dup2\n      dup2\n      mstore\n      0x20\n      add\n      dup3\n      dup1\n      sload\n      tag_119\n      swap1\n      tag_84\n      jump\t// in\n    tag_119:\n      dup1\n      iszero\n      tag_120\n      jumpi\n      dup1\n      0x1f\n      lt\n      tag_121\n      jumpi\n      0x0100\n      dup1\n      dup4\n      sload\n      div\n      mul\n      dup4\n      mstore\n      swap2\n      0x20\n      add\n      swap2\n      jump(tag_120)\n    tag_121:\n      dup3\n      add\n      swap2\n      swap1\n      0x00\n      mstore\n      keccak256(0x00, 0x20)\n      swap1\n    tag_122:\n      dup2\n      sload\n      dup2\n      mstore\n      swap1\n      0x01\n      add\n      swap1\n      0x20\n      add\n      dup1\n      dup4\n      gt\n      tag_122\n      jumpi\n      dup3\n      swap1\n      sub\n      0x1f\n      and\n      dup3\n      add\n      swap2\n    tag_120:\n      pop\n      pop\n      pop\n      pop\n      pop\n      dup2\n      jump\t// out\n        /* \"46JichengERC721.sol\":244:363  function interfaceFun(address from,address to,uint256 tokenId)public{... */\n    tag_62:\n        /* \"46JichengERC721.sol\":322:326  this */\n      address\n        /* \"46JichengERC721.sol\":322:339  this.transferFrom */\n      0xffffffffffffffffffffffffffffffffffffffff\n      and\n      0x23b872dd\n        /* \"46JichengERC721.sol\":340:344  from */\n      dup5\n        /* \"46JichengERC721.sol\":345:347  to */\n      dup5\n        /* \"46JichengERC721.sol\":348:355  tokenId */\n      dup5\n        /* \"46JichengERC721.sol\":322:356  this.transferFrom(from,to,tokenId) */\n      mload(0x40)\n      dup5\n      0xffffffff\n      and\n      0xe0\n      shl\n      dup2\n      mstore\n      0x04\n      add\n      tag_124\n      swap4\n      swap3\n      swap2\n      swap1\n      tag_125\n      jump\t// in\n    tag_124:\n      0x00\n      mload(0x40)\n      dup1\n      dup4\n      sub\n      dup2\n      0x00\n      dup8\n      dup1\n      extcodesize\n      iszero\n      dup1\n      iszero\n      tag_126\n      jumpi\n      0x00\n      dup1\n      revert\n    tag_126:\n      pop\n      gas\n      call\n      iszero\n      dup1\n      iszero\n      tag_128\n      jumpi\n      returndatasize\n      0x00\n      dup1\n      returndatacopy\n      revert(0x00, returndatasize)\n    tag_128:\n      pop\n      pop\n      pop\n      pop\n        /* \"46JichengERC721.sol\":244:363  function interfaceFun(address from,address to,uint256 tokenId)public{... */\n      pop\n      pop\n      pop\n      jump\t// out\n        /* \"ERC721.sol\":2481:2688  function setApprovalForAll(address operator, bool approved) external override {... */\n    tag_66:\n        /* \"ERC721.sol\":2612:2620  approved */\n      dup1\n        /* \"ERC721.sol\":2569:2587  _operatorApprovals */\n      0x05\n        /* \"ERC721.sol\":2569:2599  _operatorApprovals[msg.sender] */\n      0x00\n        /* \"ERC721.sol\":2588:2598  msg.sender */\n      caller\n        /* \"ERC721.sol\":2569:2599  _operatorApprovals[msg.sender] */\n      0xffffffffffffffffffffffffffffffffffffffff\n      and\n      0xffffffffffffffffffffffffffffffffffffffff\n      and\n      dup2\n      mstore\n      0x20\n      add\n      swap1\n      dup2\n      mstore\n      0x20\n      add\n      0x00\n      keccak256\n        /* \"ERC721.sol\":2569:2609  _operatorApprovals[msg.sender][operator] */\n      0x00\n        /* \"ERC721.sol\":2600:2608  operator */\n      dup5\n        /* \"ERC721.sol\":2569:2609  _operatorApprovals[msg.sender][operator] */\n      0xffffffffffffffffffffffffffffffffffffffff\n      and\n      0xffffffffffffffffffffffffffffffffffffffff\n      and\n      dup2\n      mstore\n      0x20\n      add\n      swap1\n      dup2\n      mstore\n      0x20\n      add\n      0x00\n      keccak256\n      0x00\n        /* \"ERC721.sol\":2569:2620  _operatorApprovals[msg.sender][operator] = approved */\n      0x0100\n      exp\n      dup2\n      sload\n      dup2\n      0xff\n      mul\n      not\n      and\n      swap1\n      dup4\n      iszero\n      iszero\n      mul\n      or\n      swap1\n      sstore\n      pop\n        /* \"ERC721.sol\":2662:2670  operator */\n      dup2\n        /* \"ERC721.sol\":2635:2681  ApprovalForAll(msg.sender, operator, approved) */\n      0xffffffffffffffffffffffffffffffffffffffff\n      and\n        /* \"ERC721.sol\":2650:2660  msg.sender */\n      caller\n        /* \"ERC721.sol\":2635:2681  ApprovalForAll(msg.sender, operator, approved) */\n      0xffffffffffffffffffffffffffffffffffffffff\n      and\n      0x17307eab39ab6107e8899845ad3d59bd9653f200f220920489ca2b5937696c31\n        /* \"ERC721.sol\":2672:2680  approved */\n      dup4\n        /* \"ERC721.sol\":2635:2681  ApprovalForAll(msg.sender, operator, approved) */\n      mload(0x40)\n      tag_130\n      swap2\n      swap1\n      tag_25\n      jump\t// in\n    tag_130:\n      mload(0x40)\n      dup1\n      swap2\n      sub\n      swap1\n      log3\n        /* \"ERC721.sol\":2481:2688  function setApprovalForAll(address operator, bool approved) external override {... */\n      pop\n      pop\n      jump\t// out\n        /* \"ERC721.sol\":6024:6394  function safeTransferFrom(... */\n    tag_70:\n        /* \"ERC721.sol\":6174:6187  address owner */\n      0x00\n        /* \"ERC721.sol\":6190:6206  ownerOf(tokenId) */\n      tag_132\n        /* \"ERC721.sol\":6198:6205  tokenId */\n      dup4\n        /* \"ERC721.sol\":6190:6197  ownerOf */\n      tag_49\n        /* \"ERC721.sol\":6190:6206  ownerOf(tokenId) */\n      jump\t// in\n    tag_132:\n        /* \"ERC721.sol\":6174:6206  address owner = ownerOf(tokenId) */\n      swap1\n      pop\n        /* \"ERC721.sol\":6237:6283  _isApprovedOrOwner(owner, msg.sender, tokenId) */\n      tag_133\n        /* \"ERC721.sol\":6256:6261  owner */\n      dup2\n        /* \"ERC721.sol\":6263:6273  msg.sender */\n      caller\n        /* \"ERC721.sol\":6275:6282  tokenId */\n      dup6\n        /* \"ERC721.sol\":6237:6255  _isApprovedOrOwner */\n      tag_103\n        /* \"ERC721.sol\":6237:6283  _isApprovedOrOwner(owner, msg.sender, tokenId) */\n      jump\t// in\n    tag_133:\n        /* \"ERC721.sol\":6216:6331  require(... */\n      tag_134\n      jumpi\n      mload(0x40)\n      0x08c379a000000000000000000000000000000000000000000000000000000000\n      dup2\n      mstore\n      0x04\n      add\n      tag_135\n      swap1\n      tag_106\n      jump\t// in\n    tag_135:\n      mload(0x40)\n      dup1\n      swap2\n      sub\n      swap1\n      revert\n    tag_134:\n        /* \"ERC721.sol\":6341:6387  _safeTransfer(owner, from, to, tokenId, _data) */\n      tag_136\n        /* \"ERC721.sol\":6355:6360  owner */\n      dup2\n        /* \"ERC721.sol\":6362:6366  from */\n      dup7\n        /* \"ERC721.sol\":6368:6370  to */\n      dup7\n        /* \"ERC721.sol\":6372:6379  tokenId */\n      dup7\n        /* \"ERC721.sol\":6381:6386  _data */\n      dup7\n        /* \"ERC721.sol\":6341:6354  _safeTransfer */\n      tag_137\n        /* \"ERC721.sol\":6341:6387  _safeTransfer(owner, from, to, tokenId, _data) */\n      jump\t// in\n    tag_136:\n        /* \"ERC721.sol\":6164:6394  {... */\n      pop\n        /* \"ERC721.sol\":6024:6394  function safeTransferFrom(... */\n      pop\n      pop\n      pop\n      pop\n      jump\t// out\n        /* \"ERC721.sol\":8843:9154  function tokenURI(uint256 tokenId) public view virtual override returns (string memory) {... */\n    tag_73:\n        /* \"ERC721.sol\":8916:8929  string memory */\n      0x60\n        /* \"ERC721.sol\":8977:8978  0 */\n      0x00\n        /* \"ERC721.sol\":8949:8979  _owners[tokenId] != address(0) */\n      0xffffffffffffffffffffffffffffffffffffffff\n      and\n        /* \"ERC721.sol\":8949:8956  _owners */\n      0x02\n        /* \"ERC721.sol\":8949:8965  _owners[tokenId] */\n      0x00\n        /* \"ERC721.sol\":8957:8964  tokenId */\n      dup5\n        /* \"ERC721.sol\":8949:8965  _owners[tokenId] */\n      dup2\n      mstore\n      0x20\n      add\n      swap1\n      dup2\n      mstore\n      0x20\n      add\n      0x00\n      keccak256\n      0x00\n      swap1\n      sload\n      swap1\n      0x0100\n      exp\n      swap1\n      div\n      0xffffffffffffffffffffffffffffffffffffffff\n      and\n        /* \"ERC721.sol\":8949:8979  _owners[tokenId] != address(0) */\n      0xffffffffffffffffffffffffffffffffffffffff\n      and\n      eq\n      iszero\n        /* \"ERC721.sol\":8941:8999  require(_owners[tokenId] != address(0), \"Token Not Exist\") */\n      tag_139\n      jumpi\n      mload(0x40)\n      0x08c379a000000000000000000000000000000000000000000000000000000000\n      dup2\n      mstore\n      0x04\n      add\n      tag_140\n      swap1\n      tag_141\n      jump\t// in\n    tag_140:\n      mload(0x40)\n      dup1\n      swap2\n      sub\n      swap1\n      revert\n    tag_139:\n        /* \"ERC721.sol\":9010:9031  string memory baseURI */\n      0x00\n        /* \"ERC721.sol\":9034:9044  _baseURI() */\n      tag_142\n        /* \"ERC721.sol\":9034:9042  _baseURI */\n      tag_143\n        /* \"ERC721.sol\":9034:9044  _baseURI() */\n      jump\t// in\n    tag_142:\n        /* \"ERC721.sol\":9010:9044  string memory baseURI = _baseURI() */\n      swap1\n      pop\n        /* \"ERC721.sol\":9085:9086  0 */\n      0x00\n        /* \"ERC721.sol\":9067:9074  baseURI */\n      dup2\n        /* \"ERC721.sol\":9061:9082  bytes(baseURI).length */\n      mload\n        /* \"ERC721.sol\":9061:9086  bytes(baseURI).length > 0 */\n      gt\n        /* \"ERC721.sol\":9061:9147  bytes(baseURI).length > 0 ? string(abi.encodePacked(baseURI, tokenId.toString())) : \"\" */\n      tag_144\n      jumpi\n      mload(0x40)\n      dup1\n      0x20\n      add\n      0x40\n      mstore\n      dup1\n      0x00\n      dup2\n      mstore\n      pop\n      jump(tag_145)\n    tag_144:\n        /* \"ERC721.sol\":9113:9120  baseURI */\n      dup1\n        /* \"ERC721.sol\":9122:9140  tokenId.toString() */\n      tag_146\n        /* \"ERC721.sol\":9122:9129  tokenId */\n      dup5\n        /* \"ERC721.sol\":9122:9138  tokenId.toString */\n      tag_147\n        /* \"ERC721.sol\":9122:9140  tokenId.toString() */\n      jump\t// in\n    tag_146:\n        /* \"ERC721.sol\":9096:9141  abi.encodePacked(baseURI, tokenId.toString()) */\n      add(0x20, mload(0x40))\n      tag_148\n      swap3\n      swap2\n      swap1\n      tag_149\n      jump\t// in\n    tag_148:\n      mload(0x40)\n      0x20\n      dup2\n      dup4\n      sub\n      sub\n      dup2\n      mstore\n      swap1\n      0x40\n      mstore\n        /* \"ERC721.sol\":9061:9147  bytes(baseURI).length > 0 ? string(abi.encodePacked(baseURI, tokenId.toString())) : \"\" */\n    tag_145:\n        /* \"ERC721.sol\":9054:9147  return bytes(baseURI).length > 0 ? string(abi.encodePacked(baseURI, tokenId.toString())) : \"\" */\n      swap2\n      pop\n      pop\n        /* \"ERC721.sol\":8843:9154  function tokenURI(uint256 tokenId) public view virtual override returns (string memory) {... */\n      swap2\n      swap1\n      pop\n      jump\t// out\n        /* \"ERC721.sol\":2159:2351  function isApprovedForAll(address owner, address operator)... */\n    tag_78:\n        /* \"ERC721.sol\":2282:2286  bool */\n      0x00\n        /* \"ERC721.sol\":2309:2327  _operatorApprovals */\n      0x05\n        /* \"ERC721.sol\":2309:2334  _operatorApprovals[owner] */\n      0x00\n        /* \"ERC721.sol\":2328:2333  owner */\n      dup5\n        /* \"ERC721.sol\":2309:2334  _operatorApprovals[owner] */\n      0xffffffffffffffffffffffffffffffffffffffff\n      and\n      0xffffffffffffffffffffffffffffffffffffffff\n      and\n      dup2\n      mstore\n      0x20\n      add\n      swap1\n      dup2\n      mstore\n      0x20\n      add\n      0x00\n      keccak256\n        /* \"ERC721.sol\":2309:2344  _operatorApprovals[owner][operator] */\n      0x00\n        /* \"ERC721.sol\":2335:2343  operator */\n      dup4\n        /* \"ERC721.sol\":2309:2344  _operatorApprovals[owner][operator] */\n      0xffffffffffffffffffffffffffffffffffffffff\n      and\n      0xffffffffffffffffffffffffffffffffffffffff\n      and\n      dup2\n      mstore\n      0x20\n      add\n      swap1\n      dup2\n      mstore\n      0x20\n      add\n      0x00\n      keccak256\n      0x00\n      swap1\n      sload\n      swap1\n      0x0100\n      exp\n      swap1\n      div\n      0xff\n      and\n        /* \"ERC721.sol\":2302:2344  return _operatorApprovals[owner][operator] */\n      swap1\n      pop\n        /* \"ERC721.sol\":2159:2351  function isApprovedForAll(address owner, address operator)... */\n      swap3\n      swap2\n      pop\n      pop\n      jump\t// out\n        /* \"ERC721.sol\":3115:3301  function _approve(... */\n    tag_99:\n        /* \"ERC721.sol\":3249:3251  to */\n      dup2\n        /* \"ERC721.sol\":3222:3237  _tokenApprovals */\n      0x04\n        /* \"ERC721.sol\":3222:3246  _tokenApprovals[tokenId] */\n      0x00\n        /* \"ERC721.sol\":3238:3245  tokenId */\n      dup4\n        /* \"ERC721.sol\":3222:3246  _tokenApprovals[tokenId] */\n      dup2\n      mstore\n      0x20\n      add\n      swap1\n      dup2\n      mstore\n      0x20\n      add\n      0x00\n      keccak256\n      0x00\n        /* \"ERC721.sol\":3222:3251  _tokenApprovals[tokenId] = to */\n      0x0100\n      exp\n      dup2\n      sload\n      dup2\n      0xffffffffffffffffffffffffffffffffffffffff\n      mul\n      not\n      and\n      swap1\n      dup4\n      0xffffffffffffffffffffffffffffffffffffffff\n      and\n      mul\n      or\n      swap1\n      sstore\n      pop\n        /* \"ERC721.sol\":3286:3293  tokenId */\n      dup1\n        /* \"ERC721.sol\":3282:3284  to */\n      dup3\n        /* \"ERC721.sol\":3266:3294  Approval(owner, to, tokenId) */\n      0xffffffffffffffffffffffffffffffffffffffff\n      and\n        /* \"ERC721.sol\":3275:3280  owner */\n      dup5\n        /* \"ERC721.sol\":3266:3294  Approval(owner, to, tokenId) */\n      0xffffffffffffffffffffffffffffffffffffffff\n      and\n      0x8c5be1e5ebec7d5bd14f71427d1e84f3dd0314c0f7b2291e5b200ac8c7c3b925\n      mload(0x40)\n      mload(0x40)\n      dup1\n      swap2\n      sub\n      swap1\n      log4\n        /* \"ERC721.sol\":3115:3301  function _approve(... */\n      pop\n      pop\n      pop\n      jump\t// out\n        /* \"ERC721.sol\":3852:4127  function _isApprovedOrOwner(... */\n    tag_103:\n        /* \"ERC721.sol\":3978:3982  bool */\n      0x00\n        /* \"ERC721.sol\":4013:4018  owner */\n      dup4\n        /* \"ERC721.sol\":4002:4018  spender == owner */\n      0xffffffffffffffffffffffffffffffffffffffff\n      and\n        /* \"ERC721.sol\":4002:4009  spender */\n      dup4\n        /* \"ERC721.sol\":4002:4018  spender == owner */\n      0xffffffffffffffffffffffffffffffffffffffff\n      and\n      eq\n        /* \"ERC721.sol\":4002:4069  spender == owner ||... */\n      dup1\n      tag_153\n      jumpi\n      pop\n        /* \"ERC721.sol\":4062:4069  spender */\n      dup3\n        /* \"ERC721.sol\":4034:4069  _tokenApprovals[tokenId] == spender */\n      0xffffffffffffffffffffffffffffffffffffffff\n      and\n        /* \"ERC721.sol\":4034:4049  _tokenApprovals */\n      0x04\n        /* \"ERC721.sol\":4034:4058  _tokenApprovals[tokenId] */\n      0x00\n        /* \"ERC721.sol\":4050:4057  tokenId */\n      dup5\n        /* \"ERC721.sol\":4034:4058  _tokenApprovals[tokenId] */\n      dup2\n      mstore\n      0x20\n      add\n      swap1\n      dup2\n      mstore\n      0x20\n      add\n      0x00\n      keccak256\n      0x00\n      swap1\n      sload\n      swap1\n      0x0100\n      exp\n      swap1\n      div\n      0xffffffffffffffffffffffffffffffffffffffff\n      and\n        /* \"ERC721.sol\":4034:4069  _tokenApprovals[tokenId] == spender */\n      0xffffffffffffffffffffffffffffffffffffffff\n      and\n      eq\n        /* \"ERC721.sol\":4002:4069  spender == owner ||... */\n    tag_153:\n        /* \"ERC721.sol\":4002:4119  spender == owner ||... */\n      dup1\n      tag_154\n      jumpi\n      pop\n        /* \"ERC721.sol\":4085:4103  _operatorApprovals */\n      0x05\n        /* \"ERC721.sol\":4085:4110  _operatorApprovals[owner] */\n      0x00\n        /* \"ERC721.sol\":4104:4109  owner */\n      dup6\n        /* \"ERC721.sol\":4085:4110  _operatorApprovals[owner] */\n      0xffffffffffffffffffffffffffffffffffffffff\n      and\n      0xffffffffffffffffffffffffffffffffffffffff\n      and\n      dup2\n      mstore\n      0x20\n      add\n      swap1\n      dup2\n      mstore\n      0x20\n      add\n      0x00\n      keccak256\n        /* \"ERC721.sol\":4085:4119  _operatorApprovals[owner][spender] */\n      0x00\n        /* \"ERC721.sol\":4111:4118  spender */\n      dup5\n        /* \"ERC721.sol\":4085:4119  _operatorApprovals[owner][spender] */\n      0xffffffffffffffffffffffffffffffffffffffff\n      and\n      0xffffffffffffffffffffffffffffffffffffffff\n      and\n      dup2\n      mstore\n      0x20\n      add\n      swap1\n      dup2\n      mstore\n      0x20\n      add\n      0x00\n      keccak256\n      0x00\n      swap1\n      sload\n      swap1\n      0x0100\n      exp\n      swap1\n      div\n      0xff\n      and\n        /* \"ERC721.sol\":4002:4119  spender == owner ||... */\n    tag_154:\n        /* \"ERC721.sol\":3994:4120  return (spender == owner ||... */\n      swap1\n      pop\n        /* \"ERC721.sol\":3852:4127  function _isApprovedOrOwner(... */\n      swap4\n      swap3\n      pop\n      pop\n      pop\n      jump\t// out\n        /* \"ERC721.sol\":4348:4767  function _transfer(... */\n    tag_108:\n        /* \"ERC721.sol\":4494:4499  owner */\n      dup4\n        /* \"ERC721.sol\":4486:4499  from == owner */\n      0xffffffffffffffffffffffffffffffffffffffff\n      and\n        /* \"ERC721.sol\":4486:4490  from */\n      dup4\n        /* \"ERC721.sol\":4486:4499  from == owner */\n      0xffffffffffffffffffffffffffffffffffffffff\n      and\n      eq\n        /* \"ERC721.sol\":4478:4513  require(from == owner, \"not owner\") */\n      tag_156\n      jumpi\n      mload(0x40)\n      0x08c379a000000000000000000000000000000000000000000000000000000000\n      dup2\n      mstore\n      0x04\n      add\n      tag_157\n      swap1\n      tag_158\n      jump\t// in\n    tag_157:\n      mload(0x40)\n      dup1\n      swap2\n      sub\n      swap1\n      revert\n    tag_156:\n        /* \"ERC721.sol\":4545:4546  0 */\n      0x00\n        /* \"ERC721.sol\":4531:4547  to != address(0) */\n      0xffffffffffffffffffffffffffffffffffffffff\n      and\n        /* \"ERC721.sol\":4531:4533  to */\n      dup3\n        /* \"ERC721.sol\":4531:4547  to != address(0) */\n      0xffffffffffffffffffffffffffffffffffffffff\n      and\n      eq\n      iszero\n        /* \"ERC721.sol\":4523:4580  require(to != address(0), \"transfer to the zero address\") */\n      tag_159\n      jumpi\n      mload(0x40)\n      0x08c379a000000000000000000000000000000000000000000000000000000000\n      dup2\n      mstore\n      0x04\n      add\n      tag_160\n      swap1\n      tag_161\n      jump\t// in\n    tag_160:\n      mload(0x40)\n      dup1\n      swap2\n      sub\n      swap1\n      revert\n    tag_159:\n        /* \"ERC721.sol\":4591:4627  _approve(owner, address(0), tokenId) */\n      tag_162\n        /* \"ERC721.sol\":4600:4605  owner */\n      dup5\n        /* \"ERC721.sol\":4615:4616  0 */\n      0x00\n        /* \"ERC721.sol\":4619:4626  tokenId */\n      dup4\n        /* \"ERC721.sol\":4591:4599  _approve */\n      tag_99\n        /* \"ERC721.sol\":4591:4627  _approve(owner, address(0), tokenId) */\n      jump\t// in\n    tag_162:\n        /* \"ERC721.sol\":4657:4658  1 */\n      0x01\n        /* \"ERC721.sol\":4638:4647  _balances */\n      0x03\n        /* \"ERC721.sol\":4638:4653  _balances[from] */\n      0x00\n        /* \"ERC721.sol\":4648:4652  from */\n      dup6\n        /* \"ERC721.sol\":4638:4653  _balances[from] */\n      0xffffffffffffffffffffffffffffffffffffffff\n      and\n      0xffffffffffffffffffffffffffffffffffffffff\n      and\n      dup2\n      mstore\n      0x20\n      add\n      swap1\n      dup2\n      mstore\n      0x20\n      add\n      0x00\n      keccak256\n      0x00\n        /* \"ERC721.sol\":4638:4658  _balances[from] -= 1 */\n      dup3\n      dup3\n      sload\n      tag_163\n      swap2\n      swap1\n      tag_164\n      jump\t// in\n    tag_163:\n      swap3\n      pop\n      pop\n      dup2\n      swap1\n      sstore\n      pop\n        /* \"ERC721.sol\":4685:4686  1 */\n      0x01\n        /* \"ERC721.sol\":4668:4677  _balances */\n      0x03\n        /* \"ERC721.sol\":4668:4681  _balances[to] */\n      0x00\n        /* \"ERC721.sol\":4678:4680  to */\n      dup5\n        /* \"ERC721.sol\":4668:4681  _balances[to] */\n      0xffffffffffffffffffffffffffffffffffffffff\n      and\n      0xffffffffffffffffffffffffffffffffffffffff\n      and\n      dup2\n      mstore\n      0x20\n      add\n      swap1\n      dup2\n      mstore\n      0x20\n      add\n      0x00\n      keccak256\n      0x00\n        /* \"ERC721.sol\":4668:4686  _balances[to] += 1 */\n      dup3\n      dup3\n      sload\n      tag_165\n      swap2\n      swap1\n      tag_166\n      jump\t// in\n    tag_165:\n      swap3\n      pop\n      pop\n      dup2\n      swap1\n      sstore\n      pop\n        /* \"ERC721.sol\":4715:4717  to */\n      dup2\n        /* \"ERC721.sol\":4696:4703  _owners */\n      0x02\n        /* \"ERC721.sol\":4696:4712  _owners[tokenId] */\n      0x00\n        /* \"ERC721.sol\":4704:4711  tokenId */\n      dup4\n        /* \"ERC721.sol\":4696:4712  _owners[tokenId] */\n      dup2\n      mstore\n      0x20\n      add\n      swap1\n      dup2\n      mstore\n      0x20\n      add\n      0x00\n      keccak256\n      0x00\n        /* \"ERC721.sol\":4696:4717  _owners[tokenId] = to */\n      0x0100\n      exp\n      dup2\n      sload\n      dup2\n      0xffffffffffffffffffffffffffffffffffffffff\n      mul\n      not\n      and\n      swap1\n      dup4\n      0xffffffffffffffffffffffffffffffffffffffff\n      and\n      mul\n      or\n      swap1\n      sstore\n      pop\n        /* \"ERC721.sol\":4752:4759  tokenId */\n      dup1\n        /* \"ERC721.sol\":4748:4750  to */\n      dup3\n        /* \"ERC721.sol\":4733:4760  Transfer(from, to, tokenId) */\n      0xffffffffffffffffffffffffffffffffffffffff\n      and\n        /* \"ERC721.sol\":4742:4746  from */\n      dup5\n        /* \"ERC721.sol\":4733:4760  Transfer(from, to, tokenId) */\n      0xffffffffffffffffffffffffffffffffffffffff\n      and\n      0xddf252ad1be2c89b69c2b068fc378daa952ba7f163c4a11628f55a4df523b3ef\n      mload(0x40)\n      mload(0x40)\n      dup1\n      swap2\n      sub\n      swap1\n      log4\n        /* \"ERC721.sol\":4348:4767  function _transfer(... */\n      pop\n      pop\n      pop\n      pop\n      jump\t// out\n        /* \"ERC721.sol\":5651:5913  function _safeTransfer(... */\n    tag_137:\n        /* \"ERC721.sol\":5813:5848  _transfer(owner, from, to, tokenId) */\n      tag_168\n        /* \"ERC721.sol\":5823:5828  owner */\n      dup6\n        /* \"ERC721.sol\":5830:5834  from */\n      dup6\n        /* \"ERC721.sol\":5836:5838  to */\n      dup6\n        /* \"ERC721.sol\":5840:5847  tokenId */\n      dup6\n        /* \"ERC721.sol\":5813:5822  _transfer */\n      tag_108\n        /* \"ERC721.sol\":5813:5848  _transfer(owner, from, to, tokenId) */\n      jump\t// in\n    tag_168:\n        /* \"ERC721.sol\":5858:5906  _checkOnERC721Received(from, to, tokenId, _data) */\n      tag_169\n        /* \"ERC721.sol\":5881:5885  from */\n      dup5\n        /* \"ERC721.sol\":5887:5889  to */\n      dup5\n        /* \"ERC721.sol\":5891:5898  tokenId */\n      dup5\n        /* \"ERC721.sol\":5900:5905  _data */\n      dup5\n        /* \"ERC721.sol\":5858:5880  _checkOnERC721Received */\n      tag_170\n        /* \"ERC721.sol\":5858:5906  _checkOnERC721Received(from, to, tokenId, _data) */\n      jump\t// in\n    tag_169:\n        /* \"ERC721.sol\":5651:5913  function _safeTransfer(... */\n      pop\n      pop\n      pop\n      pop\n      pop\n      jump\t// out\n        /* \"ERC721.sol\":9366:9458  function _baseURI() internal view virtual returns (string memory) {... */\n    tag_143:\n        /* \"ERC721.sol\":9417:9430  string memory */\n      0x60\n        /* \"ERC721.sol\":9442:9451  return \"\" */\n      mload(0x40)\n      dup1\n      0x20\n      add\n      0x40\n      mstore\n      dup1\n      0x00\n      dup2\n      mstore\n      pop\n      swap1\n      pop\n        /* \"ERC721.sol\":9366:9458  function _baseURI() internal view virtual returns (string memory) {... */\n      swap1\n      jump\t// out\n        /* \"String.sol\":391:1094  function toString(uint256 value) internal pure returns (string memory) {... */\n    tag_147:\n        /* \"String.sol\":447:460  string memory */\n      0x60\n        /* \"String.sol\":673:674  0 */\n      0x00\n        /* \"String.sol\":664:669  value */\n      dup3\n        /* \"String.sol\":664:674  value == 0 */\n      eq\n        /* \"String.sol\":660:711  if (value == 0) {... */\n      iszero\n      tag_173\n      jumpi\n        /* \"String.sol\":690:700  return \"0\" */\n      mload(0x40)\n      dup1\n      0x40\n      add\n      0x40\n      mstore\n      dup1\n      0x01\n      dup2\n      mstore\n      0x20\n      add\n      0x3000000000000000000000000000000000000000000000000000000000000000\n      dup2\n      mstore\n      pop\n      swap1\n      pop\n      jump(tag_172)\n        /* \"String.sol\":660:711  if (value == 0) {... */\n    tag_173:\n        /* \"String.sol\":720:732  uint256 temp */\n      0x00\n        /* \"String.sol\":735:740  value */\n      dup3\n        /* \"String.sol\":720:740  uint256 temp = value */\n      swap1\n      pop\n        /* \"String.sol\":750:764  uint256 digits */\n      0x00\n        /* \"String.sol\":774:849  while (temp != 0) {... */\n    tag_174:\n        /* \"String.sol\":789:790  0 */\n      0x00\n        /* \"String.sol\":781:785  temp */\n      dup3\n        /* \"String.sol\":781:790  temp != 0 */\n      eq\n        /* \"String.sol\":774:849  while (temp != 0) {... */\n      tag_175\n      jumpi\n        /* \"String.sol\":806:814  digits++ */\n      dup1\n      dup1\n      tag_176\n      swap1\n      tag_177\n      jump\t// in\n    tag_176:\n      swap2\n      pop\n      pop\n        /* \"String.sol\":836:838  10 */\n      0x0a\n        /* \"String.sol\":828:838  temp /= 10 */\n      dup3\n      tag_178\n      swap2\n      swap1\n      tag_179\n      jump\t// in\n    tag_178:\n      swap2\n      pop\n        /* \"String.sol\":774:849  while (temp != 0) {... */\n      jump(tag_174)\n    tag_175:\n        /* \"String.sol\":858:877  bytes memory buffer */\n      0x00\n        /* \"String.sol\":890:896  digits */\n      dup2\n        /* \"String.sol\":880:897  new bytes(digits) */\n      0xffffffffffffffff\n      dup2\n      gt\n      iszero\n      tag_180\n      jumpi\n      tag_181\n      tag_182\n      jump\t// in\n    tag_181:\n    tag_180:\n      mload(0x40)\n      swap1\n      dup1\n      dup3\n      mstore\n      dup1\n      0x1f\n      add\n      not(0x1f)\n      and\n      0x20\n      add\n      dup3\n      add\n      0x40\n      mstore\n      dup1\n      iszero\n      tag_183\n      jumpi\n      dup2\n      0x20\n      add\n      0x01\n      dup3\n      mul\n      dup1\n      calldatasize\n      dup4\n      calldatacopy\n      dup1\n      dup3\n      add\n      swap2\n      pop\n      pop\n      swap1\n      pop\n    tag_183:\n      pop\n        /* \"String.sol\":858:897  bytes memory buffer = new bytes(digits) */\n      swap1\n      pop\n        /* \"String.sol\":907:1057  while (value != 0) {... */\n    tag_184:\n        /* \"String.sol\":923:924  0 */\n      0x00\n        /* \"String.sol\":914:919  value */\n      dup6\n        /* \"String.sol\":914:924  value != 0 */\n      eq\n        /* \"String.sol\":907:1057  while (value != 0) {... */\n      tag_185\n      jumpi\n        /* \"String.sol\":950:951  1 */\n      0x01\n        /* \"String.sol\":940:951  digits -= 1 */\n      dup3\n      tag_186\n      swap2\n      swap1\n      tag_164\n      jump\t// in\n    tag_186:\n      swap2\n      pop\n        /* \"String.sol\":1016:1018  10 */\n      0x0a\n        /* \"String.sol\":1008:1013  value */\n      dup6\n        /* \"String.sol\":1008:1018  value % 10 */\n      tag_187\n      swap2\n      swap1\n      tag_188\n      jump\t// in\n    tag_187:\n        /* \"String.sol\":995:997  48 */\n      0x30\n        /* \"String.sol\":995:1019  48 + uint256(value % 10) */\n      tag_189\n      swap2\n      swap1\n      tag_166\n      jump\t// in\n    tag_189:\n        /* \"String.sol\":982:1021  bytes1(uint8(48 + uint256(value % 10))) */\n      0xf8\n      shl\n        /* \"String.sol\":965:971  buffer */\n      dup2\n        /* \"String.sol\":972:978  digits */\n      dup4\n        /* \"String.sol\":965:979  buffer[digits] */\n      dup2\n      mload\n      dup2\n      lt\n      tag_190\n      jumpi\n      tag_191\n      tag_192\n      jump\t// in\n    tag_191:\n    tag_190:\n      0x20\n      add\n      add\n        /* \"String.sol\":965:1021  buffer[digits] = bytes1(uint8(48 + uint256(value % 10))) */\n      swap1\n      not(0xffffffffffffffffffffffffffffffffffffffffffffffffffffffffffffff)\n      and\n      swap1\n      dup2\n      0x00\n      byte\n      swap1\n      mstore8\n      pop\n        /* \"String.sol\":1044:1046  10 */\n      0x0a\n        /* \"String.sol\":1035:1046  value /= 10 */\n      dup6\n      tag_193\n      swap2\n      swap1\n      tag_179\n      jump\t// in\n    tag_193:\n      swap5\n      pop\n        /* \"String.sol\":907:1057  while (value != 0) {... */\n      jump(tag_184)\n    tag_185:\n        /* \"String.sol\":1080:1086  buffer */\n      dup1\n        /* \"String.sol\":1066:1087  return string(buffer) */\n      swap4\n      pop\n      pop\n      pop\n      pop\n        /* \"String.sol\":391:1094  function toString(uint256 value) internal pure returns (string memory) {... */\n    tag_172:\n      swap2\n      swap1\n      pop\n      jump\t// out\n        /* \"ERC721.sol\":7975:8755  function _checkOnERC721Received(address from, address to, uint256 tokenId, bytes memory data) private {... */\n    tag_170:\n        /* \"ERC721.sol\":8108:8109  0 */\n      0x00\n        /* \"ERC721.sol\":8091:8093  to */\n      dup4\n        /* \"ERC721.sol\":8091:8105  to.code.length */\n      0xffffffffffffffffffffffffffffffffffffffff\n      and\n      extcodesize\n        /* \"ERC721.sol\":8091:8109  to.code.length > 0 */\n      gt\n        /* \"ERC721.sol\":8087:8749  if (to.code.length > 0) {... */\n      iszero\n      tag_195\n      jumpi\n        /* \"ERC721.sol\":8145:8147  to */\n      dup3\n        /* \"ERC721.sol\":8129:8165  IERC721Receiver(to).onERC721Received */\n      0xffffffffffffffffffffffffffffffffffffffff\n      and\n      0x150b7a02\n        /* \"ERC721.sol\":8166:8176  msg.sender */\n      caller\n        /* \"ERC721.sol\":8178:8182  from */\n      dup7\n        /* \"ERC721.sol\":8184:8191  tokenId */\n      dup6\n        /* \"ERC721.sol\":8193:8197  data */\n      dup6\n        /* \"ERC721.sol\":8129:8198  IERC721Receiver(to).onERC721Received(msg.sender, from, tokenId, data) */\n      mload(0x40)\n      dup6\n      0xffffffff\n      and\n      0xe0\n      shl\n      dup2\n      mstore\n      0x04\n      add\n      tag_196\n      swap5\n      swap4\n      swap3\n      swap2\n      swap1\n      tag_197\n      jump\t// in\n    tag_196:\n      0x20\n      mload(0x40)\n      dup1\n      dup4\n      sub\n      dup2\n      0x00\n      dup8\n      dup1\n      extcodesize\n      iszero\n      dup1\n      iszero\n      tag_198\n      jumpi\n      0x00\n      dup1\n      revert\n    tag_198:\n      pop\n      gas\n      call\n      swap3\n      pop\n      pop\n      pop\n      dup1\n      iszero\n      tag_199\n      jumpi\n      pop\n      mload(0x40)\n      returndatasize\n      not(0x1f)\n      0x1f\n      dup3\n      add\n      and\n      dup3\n      add\n      dup1\n      0x40\n      mstore\n      pop\n      dup2\n      add\n      swap1\n      tag_200\n      swap2\n      swap1\n      tag_201\n      jump\t// in\n    tag_200:\n      0x01\n    tag_199:\n        /* \"ERC721.sol\":8125:8739  try IERC721Receiver(to).onERC721Received(msg.sender, from, tokenId, data) returns (bytes4 retval) {... */\n      tag_202\n      jumpi\n      returndatasize\n      dup1\n      0x00\n      dup2\n      eq\n      tag_207\n      jumpi\n      mload(0x40)\n      swap2\n      pop\n      and(add(returndatasize, 0x3f), not(0x1f))\n      dup3\n      add\n      0x40\n      mstore\n      returndatasize\n      dup3\n      mstore\n      returndatasize\n      0x00\n      0x20\n      dup5\n      add\n      returndatacopy\n      jump(tag_206)\n    tag_207:\n      0x60\n      swap2\n      pop\n    tag_206:\n      pop\n        /* \"ERC721.sol\":8453:8454  0 */\n      0x00\n        /* \"ERC721.sol\":8436:8442  reason */\n      dup2\n        /* \"ERC721.sol\":8436:8449  reason.length */\n      mload\n        /* \"ERC721.sol\":8436:8454  reason.length == 0 */\n      eq\n        /* \"ERC721.sol\":8432:8725  if (reason.length == 0) {... */\n      iszero\n      tag_208\n      jumpi\n        /* \"ERC721.sol\":8507:8509  to */\n      dup4\n        /* \"ERC721.sol\":8485:8510  ERC721InvalidReceiver(to) */\n      mload(0x40)\n      0x64a0ae9200000000000000000000000000000000000000000000000000000000\n      dup2\n      mstore\n      0x04\n      add\n      tag_209\n      swap2\n      swap1\n      tag_35\n      jump\t// in\n    tag_209:\n      mload(0x40)\n      dup1\n      swap2\n      sub\n      swap1\n      revert\n        /* \"ERC721.sol\":8432:8725  if (reason.length == 0) {... */\n    tag_208:\n        /* \"ERC721.sol\":8677:8683  reason */\n      dup1\n        /* \"ERC721.sol\":8671:8684  mload(reason) */\n      mload\n        /* \"ERC721.sol\":8662:8668  reason */\n      dup2\n        /* \"ERC721.sol\":8658:8660  32 */\n      0x20\n        /* \"ERC721.sol\":8654:8669  add(32, reason) */\n      add\n        /* \"ERC721.sol\":8647:8685  revert(add(32, reason), mload(reason)) */\n      revert\n        /* \"ERC721.sol\":8125:8739  try IERC721Receiver(to).onERC721Received(msg.sender, from, tokenId, data) returns (bytes4 retval) {... */\n    tag_202:\n        /* \"ERC721.sol\":8255:8296  IERC721Receiver.onERC721Received.selector */\n      shl(0xe0, 0x150b7a02)\n        /* \"ERC721.sol\":8245:8296  retval != IERC721Receiver.onERC721Received.selector */\n      not(0xffffffffffffffffffffffffffffffffffffffffffffffffffffffff)\n      and\n        /* \"ERC721.sol\":8245:8251  retval */\n      dup2\n        /* \"ERC721.sol\":8245:8296  retval != IERC721Receiver.onERC721Received.selector */\n      not(0xffffffffffffffffffffffffffffffffffffffffffffffffffffffff)\n      and\n      eq\n        /* \"ERC721.sol\":8241:8371  if (retval != IERC721Receiver.onERC721Received.selector) {... */\n      tag_212\n      jumpi\n        /* \"ERC721.sol\":8349:8351  to */\n      dup4\n        /* \"ERC721.sol\":8327:8352  ERC721InvalidReceiver(to) */\n      mload(0x40)\n      0x64a0ae9200000000000000000000000000000000000000000000000000000000\n      dup2\n      mstore\n      0x04\n      add\n      tag_213\n      swap2\n      swap1\n      tag_35\n      jump\t// in\n    tag_213:\n      mload(0x40)\n      dup1\n      swap2\n      sub\n      swap1\n      revert\n        /* \"ERC721.sol\":8241:8371  if (retval != IERC721Receiver.onERC721Received.selector) {... */\n    tag_212:\n        /* \"ERC721.sol\":8199:8385  returns (bytes4 retval) {... */\n      pop\n        /* \"ERC721.sol\":8087:8749  if (to.code.length > 0) {... */\n    tag_195:\n        /* \"ERC721.sol\":7975:8755  function _checkOnERC721Received(address from, address to, uint256 tokenId, bytes memory data) private {... */\n      pop\n      pop\n      pop\n      pop\n      jump\t// out\n        /* \"#utility.yul\":7:417   */\n    tag_215:\n        /* \"#utility.yul\":84:89   */\n      0x00\n        /* \"#utility.yul\":109:174   */\n      tag_217\n        /* \"#utility.yul\":125:173   */\n      tag_218\n        /* \"#utility.yul\":166:172   */\n      dup5\n        /* \"#utility.yul\":125:173   */\n      tag_219\n      jump\t// in\n    tag_218:\n        /* \"#utility.yul\":109:174   */\n      tag_220\n      jump\t// in\n    tag_217:\n        /* \"#utility.yul\":100:174   */\n      swap1\n      pop\n        /* \"#utility.yul\":197:203   */\n      dup3\n        /* \"#utility.yul\":190:195   */\n      dup2\n        /* \"#utility.yul\":183:204   */\n      mstore\n        /* \"#utility.yul\":235:239   */\n      0x20\n        /* \"#utility.yul\":228:233   */\n      dup2\n        /* \"#utility.yul\":224:240   */\n      add\n        /* \"#utility.yul\":273:276   */\n      dup5\n        /* \"#utility.yul\":264:270   */\n      dup5\n        /* \"#utility.yul\":259:262   */\n      dup5\n        /* \"#utility.yul\":255:271   */\n      add\n        /* \"#utility.yul\":252:277   */\n      gt\n        /* \"#utility.yul\":249:361   */\n      iszero\n      tag_221\n      jumpi\n        /* \"#utility.yul\":280:359   */\n      tag_222\n      tag_223\n      jump\t// in\n    tag_222:\n        /* \"#utility.yul\":249:361   */\n    tag_221:\n        /* \"#utility.yul\":370:411   */\n      tag_224\n        /* \"#utility.yul\":404:410   */\n      dup5\n        /* \"#utility.yul\":399:402   */\n      dup3\n        /* \"#utility.yul\":394:397   */\n      dup6\n        /* \"#utility.yul\":370:411   */\n      tag_225\n      jump\t// in\n    tag_224:\n        /* \"#utility.yul\":90:417   */\n      pop\n        /* \"#utility.yul\":7:417   */\n      swap4\n      swap3\n      pop\n      pop\n      pop\n      jump\t// out\n        /* \"#utility.yul\":423:562   */\n    tag_226:\n        /* \"#utility.yul\":469:474   */\n      0x00\n        /* \"#utility.yul\":507:513   */\n      dup2\n        /* \"#utility.yul\":494:514   */\n      calldataload\n        /* \"#utility.yul\":485:514   */\n      swap1\n      pop\n        /* \"#utility.yul\":523:556   */\n      tag_228\n        /* \"#utility.yul\":550:555   */\n      dup2\n        /* \"#utility.yul\":523:556   */\n      tag_229\n      jump\t// in\n    tag_228:\n        /* \"#utility.yul\":423:562   */\n      swap3\n      swap2\n      pop\n      pop\n      jump\t// out\n        /* \"#utility.yul\":568:701   */\n    tag_230:\n        /* \"#utility.yul\":611:616   */\n      0x00\n        /* \"#utility.yul\":649:655   */\n      dup2\n        /* \"#utility.yul\":636:656   */\n      calldataload\n        /* \"#utility.yul\":627:656   */\n      swap1\n      pop\n        /* \"#utility.yul\":665:695   */\n      tag_232\n        /* \"#utility.yul\":689:694   */\n      dup2\n        /* \"#utility.yul\":665:695   */\n      tag_233\n      jump\t// in\n    tag_232:\n        /* \"#utility.yul\":568:701   */\n      swap3\n      swap2\n      pop\n      pop\n      jump\t// out\n        /* \"#utility.yul\":707:844   */\n    tag_234:\n        /* \"#utility.yul\":752:757   */\n      0x00\n        /* \"#utility.yul\":790:796   */\n      dup2\n        /* \"#utility.yul\":777:797   */\n      calldataload\n        /* \"#utility.yul\":768:797   */\n      swap1\n      pop\n        /* \"#utility.yul\":806:838   */\n      tag_236\n        /* \"#utility.yul\":832:837   */\n      dup2\n        /* \"#utility.yul\":806:838   */\n      tag_237\n      jump\t// in\n    tag_236:\n        /* \"#utility.yul\":707:844   */\n      swap3\n      swap2\n      pop\n      pop\n      jump\t// out\n        /* \"#utility.yul\":850:991   */\n    tag_238:\n        /* \"#utility.yul\":906:911   */\n      0x00\n        /* \"#utility.yul\":937:943   */\n      dup2\n        /* \"#utility.yul\":931:944   */\n      mload\n        /* \"#utility.yul\":922:944   */\n      swap1\n      pop\n        /* \"#utility.yul\":953:985   */\n      tag_240\n        /* \"#utility.yul\":979:984   */\n      dup2\n        /* \"#utility.yul\":953:985   */\n      tag_237\n      jump\t// in\n    tag_240:\n        /* \"#utility.yul\":850:991   */\n      swap3\n      swap2\n      pop\n      pop\n      jump\t// out\n        /* \"#utility.yul\":1010:1348   */\n    tag_241:\n        /* \"#utility.yul\":1065:1070   */\n      0x00\n        /* \"#utility.yul\":1114:1117   */\n      dup3\n        /* \"#utility.yul\":1107:1111   */\n      0x1f\n        /* \"#utility.yul\":1099:1105   */\n      dup4\n        /* \"#utility.yul\":1095:1112   */\n      add\n        /* \"#utility.yul\":1091:1118   */\n      slt\n        /* \"#utility.yul\":1081:1203   */\n      tag_243\n      jumpi\n        /* \"#utility.yul\":1122:1201   */\n      tag_244\n      tag_245\n      jump\t// in\n    tag_244:\n        /* \"#utility.yul\":1081:1203   */\n    tag_243:\n        /* \"#utility.yul\":1239:1245   */\n      dup2\n        /* \"#utility.yul\":1226:1246   */\n      calldataload\n        /* \"#utility.yul\":1264:1342   */\n      tag_246\n        /* \"#utility.yul\":1338:1341   */\n      dup5\n        /* \"#utility.yul\":1330:1336   */\n      dup3\n        /* \"#utility.yul\":1323:1327   */\n      0x20\n        /* \"#utility.yul\":1315:1321   */\n      dup7\n        /* \"#utility.yul\":1311:1328   */\n      add\n        /* \"#utility.yul\":1264:1342   */\n      tag_215\n      jump\t// in\n    tag_246:\n        /* \"#utility.yul\":1255:1342   */\n      swap2\n      pop\n        /* \"#utility.yul\":1071:1348   */\n      pop\n        /* \"#utility.yul\":1010:1348   */\n      swap3\n      swap2\n      pop\n      pop\n      jump\t// out\n        /* \"#utility.yul\":1354:1493   */\n    tag_247:\n        /* \"#utility.yul\":1400:1405   */\n      0x00\n        /* \"#utility.yul\":1438:1444   */\n      dup2\n        /* \"#utility.yul\":1425:1445   */\n      calldataload\n        /* \"#utility.yul\":1416:1445   */\n      swap1\n      pop\n        /* \"#utility.yul\":1454:1487   */\n      tag_249\n        /* \"#utility.yul\":1481:1486   */\n      dup2\n        /* \"#utility.yul\":1454:1487   */\n      tag_250\n      jump\t// in\n    tag_249:\n        /* \"#utility.yul\":1354:1493   */\n      swap3\n      swap2\n      pop\n      pop\n      jump\t// out\n        /* \"#utility.yul\":1499:1828   */\n    tag_53:\n        /* \"#utility.yul\":1558:1564   */\n      0x00\n        /* \"#utility.yul\":1607:1609   */\n      0x20\n        /* \"#utility.yul\":1595:1604   */\n      dup3\n        /* \"#utility.yul\":1586:1593   */\n      dup5\n        /* \"#utility.yul\":1582:1605   */\n      sub\n        /* \"#utility.yul\":1578:1610   */\n      slt\n        /* \"#utility.yul\":1575:1694   */\n      iszero\n      tag_252\n      jumpi\n        /* \"#utility.yul\":1613:1692   */\n      tag_253\n      tag_254\n      jump\t// in\n    tag_253:\n        /* \"#utility.yul\":1575:1694   */\n    tag_252:\n        /* \"#utility.yul\":1733:1734   */\n      0x00\n        /* \"#utility.yul\":1758:1811   */\n      tag_255\n        /* \"#utility.yul\":1803:1810   */\n      dup5\n        /* \"#utility.yul\":1794:1800   */\n      dup3\n        /* \"#utility.yul\":1783:1792   */\n      dup6\n        /* \"#utility.yul\":1779:1801   */\n      add\n        /* \"#utility.yul\":1758:1811   */\n      tag_226\n      jump\t// in\n    tag_255:\n        /* \"#utility.yul\":1748:1811   */\n      swap2\n      pop\n        /* \"#utility.yul\":1704:1821   */\n      pop\n        /* \"#utility.yul\":1499:1828   */\n      swap3\n      swap2\n      pop\n      pop\n      jump\t// out\n        /* \"#utility.yul\":1834:2308   */\n    tag_77:\n        /* \"#utility.yul\":1902:1908   */\n      0x00\n        /* \"#utility.yul\":1910:1916   */\n      dup1\n        /* \"#utility.yul\":1959:1961   */\n      0x40\n        /* \"#utility.yul\":1947:1956   */\n      dup4\n        /* \"#utility.yul\":1938:1945   */\n      dup6\n        /* \"#utility.yul\":1934:1957   */\n      sub\n        /* \"#utility.yul\":1930:1962   */\n      slt\n        /* \"#utility.yul\":1927:2046   */\n      iszero\n      tag_257\n      jumpi\n        /* \"#utility.yul\":1965:2044   */\n      tag_258\n      tag_254\n      jump\t// in\n    tag_258:\n        /* \"#utility.yul\":1927:2046   */\n    tag_257:\n        /* \"#utility.yul\":2085:2086   */\n      0x00\n        /* \"#utility.yul\":2110:2163   */\n      tag_259\n        /* \"#utility.yul\":2155:2162   */\n      dup6\n        /* \"#utility.yul\":2146:2152   */\n      dup3\n        /* \"#utility.yul\":2135:2144   */\n      dup7\n        /* \"#utility.yul\":2131:2153   */\n      add\n        /* \"#utility.yul\":2110:2163   */\n      tag_226\n      jump\t// in\n    tag_259:\n        /* \"#utility.yul\":2100:2163   */\n      swap3\n      pop\n        /* \"#utility.yul\":2056:2173   */\n      pop\n        /* \"#utility.yul\":2212:2214   */\n      0x20\n        /* \"#utility.yul\":2238:2291   */\n      tag_260\n        /* \"#utility.yul\":2283:2290   */\n      dup6\n        /* \"#utility.yul\":2274:2280   */\n      dup3\n        /* \"#utility.yul\":2263:2272   */\n      dup7\n        /* \"#utility.yul\":2259:2281   */\n      add\n        /* \"#utility.yul\":2238:2291   */\n      tag_226\n      jump\t// in\n    tag_260:\n        /* \"#utility.yul\":2228:2291   */\n      swap2\n      pop\n        /* \"#utility.yul\":2183:2301   */\n      pop\n        /* \"#utility.yul\":1834:2308   */\n      swap3\n      pop\n      swap3\n      swap1\n      pop\n      jump\t// out\n        /* \"#utility.yul\":2314:2933   */\n    tag_42:\n        /* \"#utility.yul\":2391:2397   */\n      0x00\n        /* \"#utility.yul\":2399:2405   */\n      dup1\n        /* \"#utility.yul\":2407:2413   */\n      0x00\n        /* \"#utility.yul\":2456:2458   */\n      0x60\n        /* \"#utility.yul\":2444:2453   */\n      dup5\n        /* \"#utility.yul\":2435:2442   */\n      dup7\n        /* \"#utility.yul\":2431:2454   */\n      sub\n        /* \"#utility.yul\":2427:2459   */\n      slt\n        /* \"#utility.yul\":2424:2543   */\n      iszero\n      tag_262\n      jumpi\n        /* \"#utility.yul\":2462:2541   */\n      tag_263\n      tag_254\n      jump\t// in\n    tag_263:\n        /* \"#utility.yul\":2424:2543   */\n    tag_262:\n        /* \"#utility.yul\":2582:2583   */\n      0x00\n        /* \"#utility.yul\":2607:2660   */\n      tag_264\n        /* \"#utility.yul\":2652:2659   */\n      dup7\n        /* \"#utility.yul\":2643:2649   */\n      dup3\n        /* \"#utility.yul\":2632:2641   */\n      dup8\n        /* \"#utility.yul\":2628:2650   */\n      add\n        /* \"#utility.yul\":2607:2660   */\n      tag_226\n      jump\t// in\n    tag_264:\n        /* \"#utility.yul\":2597:2660   */\n      swap4\n      pop\n        /* \"#utility.yul\":2553:2670   */\n      pop\n        /* \"#utility.yul\":2709:2711   */\n      0x20\n        /* \"#utility.yul\":2735:2788   */\n      tag_265\n        /* \"#utility.yul\":2780:2787   */\n      dup7\n        /* \"#utility.yul\":2771:2777   */\n      dup3\n        /* \"#utility.yul\":2760:2769   */\n      dup8\n        /* \"#utility.yul\":2756:2778   */\n      add\n        /* \"#utility.yul\":2735:2788   */\n      tag_226\n      jump\t// in\n    tag_265:\n        /* \"#utility.yul\":2725:2788   */\n      swap3\n      pop\n        /* \"#utility.yul\":2680:2798   */\n      pop\n        /* \"#utility.yul\":2837:2839   */\n      0x40\n        /* \"#utility.yul\":2863:2916   */\n      tag_266\n        /* \"#utility.yul\":2908:2915   */\n      dup7\n        /* \"#utility.yul\":2899:2905   */\n      dup3\n        /* \"#utility.yul\":2888:2897   */\n      dup8\n        /* \"#utility.yul\":2884:2906   */\n      add\n        /* \"#utility.yul\":2863:2916   */\n      tag_247\n      jump\t// in\n    tag_266:\n        /* \"#utility.yul\":2853:2916   */\n      swap2\n      pop\n        /* \"#utility.yul\":2808:2926   */\n      pop\n        /* \"#utility.yul\":2314:2933   */\n      swap3\n      pop\n      swap3\n      pop\n      swap3\n      jump\t// out\n        /* \"#utility.yul\":2939:3882   */\n    tag_69:\n        /* \"#utility.yul\":3034:3040   */\n      0x00\n        /* \"#utility.yul\":3042:3048   */\n      dup1\n        /* \"#utility.yul\":3050:3056   */\n      0x00\n        /* \"#utility.yul\":3058:3064   */\n      dup1\n        /* \"#utility.yul\":3107:3110   */\n      0x80\n        /* \"#utility.yul\":3095:3104   */\n      dup6\n        /* \"#utility.yul\":3086:3093   */\n      dup8\n        /* \"#utility.yul\":3082:3105   */\n      sub\n        /* \"#utility.yul\":3078:3111   */\n      slt\n        /* \"#utility.yul\":3075:3195   */\n      iszero\n      tag_268\n      jumpi\n        /* \"#utility.yul\":3114:3193   */\n      tag_269\n      tag_254\n      jump\t// in\n    tag_269:\n        /* \"#utility.yul\":3075:3195   */\n    tag_268:\n        /* \"#utility.yul\":3234:3235   */\n      0x00\n        /* \"#utility.yul\":3259:3312   */\n      tag_270\n        /* \"#utility.yul\":3304:3311   */\n      dup8\n        /* \"#utility.yul\":3295:3301   */\n      dup3\n        /* \"#utility.yul\":3284:3293   */\n      dup9\n        /* \"#utility.yul\":3280:3302   */\n      add\n        /* \"#utility.yul\":3259:3312   */\n      tag_226\n      jump\t// in\n    tag_270:\n        /* \"#utility.yul\":3249:3312   */\n      swap5\n      pop\n        /* \"#utility.yul\":3205:3322   */\n      pop\n        /* \"#utility.yul\":3361:3363   */\n      0x20\n        /* \"#utility.yul\":3387:3440   */\n      tag_271\n        /* \"#utility.yul\":3432:3439   */\n      dup8\n        /* \"#utility.yul\":3423:3429   */\n      dup3\n        /* \"#utility.yul\":3412:3421   */\n      dup9\n        /* \"#utility.yul\":3408:3430   */\n      add\n        /* \"#utility.yul\":3387:3440   */\n      tag_226\n      jump\t// in\n    tag_271:\n        /* \"#utility.yul\":3377:3440   */\n      swap4\n      pop\n        /* \"#utility.yul\":3332:3450   */\n      pop\n        /* \"#utility.yul\":3489:3491   */\n      0x40\n        /* \"#utility.yul\":3515:3568   */\n      tag_272\n        /* \"#utility.yul\":3560:3567   */\n      dup8\n        /* \"#utility.yul\":3551:3557   */\n      dup3\n        /* \"#utility.yul\":3540:3549   */\n      dup9\n        /* \"#utility.yul\":3536:3558   */\n      add\n        /* \"#utility.yul\":3515:3568   */\n      tag_247\n      jump\t// in\n    tag_272:\n        /* \"#utility.yul\":3505:3568   */\n      swap3\n      pop\n        /* \"#utility.yul\":3460:3578   */\n      pop\n        /* \"#utility.yul\":3645:3647   */\n      0x60\n        /* \"#utility.yul\":3634:3643   */\n      dup6\n        /* \"#utility.yul\":3630:3648   */\n      add\n        /* \"#utility.yul\":3617:3649   */\n      calldataload\n        /* \"#utility.yul\":3676:3694   */\n      0xffffffffffffffff\n        /* \"#utility.yul\":3668:3674   */\n      dup2\n        /* \"#utility.yul\":3665:3695   */\n      gt\n        /* \"#utility.yul\":3662:3779   */\n      iszero\n      tag_273\n      jumpi\n        /* \"#utility.yul\":3698:3777   */\n      tag_274\n      tag_275\n      jump\t// in\n    tag_274:\n        /* \"#utility.yul\":3662:3779   */\n    tag_273:\n        /* \"#utility.yul\":3803:3865   */\n      tag_276\n        /* \"#utility.yul\":3857:3864   */\n      dup8\n        /* \"#utility.yul\":3848:3854   */\n      dup3\n        /* \"#utility.yul\":3837:3846   */\n      dup9\n        /* \"#utility.yul\":3833:3855   */\n      add\n        /* \"#utility.yul\":3803:3865   */\n      tag_241\n      jump\t// in\n    tag_276:\n        /* \"#utility.yul\":3793:3865   */\n      swap2\n      pop\n        /* \"#utility.yul\":3588:3875   */\n      pop\n        /* \"#utility.yul\":2939:3882   */\n      swap3\n      swap6\n      swap2\n      swap5\n      pop\n      swap3\n      pop\n      jump\t// out\n        /* \"#utility.yul\":3888:4356   */\n    tag_65:\n        /* \"#utility.yul\":3953:3959   */\n      0x00\n        /* \"#utility.yul\":3961:3967   */\n      dup1\n        /* \"#utility.yul\":4010:4012   */\n      0x40\n        /* \"#utility.yul\":3998:4007   */\n      dup4\n        /* \"#utility.yul\":3989:3996   */\n      dup6\n        /* \"#utility.yul\":3985:4008   */\n      sub\n        /* \"#utility.yul\":3981:4013   */\n      slt\n        /* \"#utility.yul\":3978:4097   */\n      iszero\n      tag_278\n      jumpi\n        /* \"#utility.yul\":4016:4095   */\n      tag_279\n      tag_254\n      jump\t// in\n    tag_279:\n        /* \"#utility.yul\":3978:4097   */\n    tag_278:\n        /* \"#utility.yul\":4136:4137   */\n      0x00\n        /* \"#utility.yul\":4161:4214   */\n      tag_280\n        /* \"#utility.yul\":4206:4213   */\n      dup6\n        /* \"#utility.yul\":4197:4203   */\n      dup3\n        /* \"#utility.yul\":4186:4195   */\n      dup7\n        /* \"#utility.yul\":4182:4204   */\n      add\n        /* \"#utility.yul\":4161:4214   */\n      tag_226\n      jump\t// in\n    tag_280:\n        /* \"#utility.yul\":4151:4214   */\n      swap3\n      pop\n        /* \"#utility.yul\":4107:4224   */\n      pop\n        /* \"#utility.yul\":4263:4265   */\n      0x20\n        /* \"#utility.yul\":4289:4339   */\n      tag_281\n        /* \"#utility.yul\":4331:4338   */\n      dup6\n        /* \"#utility.yul\":4322:4328   */\n      dup3\n        /* \"#utility.yul\":4311:4320   */\n      dup7\n        /* \"#utility.yul\":4307:4329   */\n      add\n        /* \"#utility.yul\":4289:4339   */\n      tag_230\n      jump\t// in\n    tag_281:\n        /* \"#utility.yul\":4279:4339   */\n      swap2\n      pop\n        /* \"#utility.yul\":4234:4349   */\n      pop\n        /* \"#utility.yul\":3888:4356   */\n      swap3\n      pop\n      swap3\n      swap1\n      pop\n      jump\t// out\n        /* \"#utility.yul\":4362:4836   */\n    tag_38:\n        /* \"#utility.yul\":4430:4436   */\n      0x00\n        /* \"#utility.yul\":4438:4444   */\n      dup1\n        /* \"#utility.yul\":4487:4489   */\n      0x40\n        /* \"#utility.yul\":4475:4484   */\n      dup4\n        /* \"#utility.yul\":4466:4473   */\n      dup6\n        /* \"#utility.yul\":4462:4485   */\n      sub\n        /* \"#utility.yul\":4458:4490   */\n      slt\n        /* \"#utility.yul\":4455:4574   */\n      iszero\n      tag_283\n      jumpi\n        /* \"#utility.yul\":4493:4572   */\n      tag_284\n      tag_254\n      jump\t// in\n    tag_284:\n        /* \"#utility.yul\":4455:4574   */\n    tag_283:\n        /* \"#utility.yul\":4613:4614   */\n      0x00\n        /* \"#utility.yul\":4638:4691   */\n      tag_285\n        /* \"#utility.yul\":4683:4690   */\n      dup6\n        /* \"#utility.yul\":4674:4680   */\n      dup3\n        /* \"#utility.yul\":4663:4672   */\n      dup7\n        /* \"#utility.yul\":4659:4681   */\n      add\n        /* \"#utility.yul\":4638:4691   */\n      tag_226\n      jump\t// in\n    tag_285:\n        /* \"#utility.yul\":4628:4691   */\n      swap3\n      pop\n        /* \"#utility.yul\":4584:4701   */\n      pop\n        /* \"#utility.yul\":4740:4742   */\n      0x20\n        /* \"#utility.yul\":4766:4819   */\n      tag_286\n        /* \"#utility.yul\":4811:4818   */\n      dup6\n        /* \"#utility.yul\":4802:4808   */\n      dup3\n        /* \"#utility.yul\":4791:4800   */\n      dup7\n        /* \"#utility.yul\":4787:4809   */\n      add\n        /* \"#utility.yul\":4766:4819   */\n      tag_247\n      jump\t// in\n    tag_286:\n        /* \"#utility.yul\":4756:4819   */\n      swap2\n      pop\n        /* \"#utility.yul\":4711:4829   */\n      pop\n        /* \"#utility.yul\":4362:4836   */\n      swap3\n      pop\n      swap3\n      swap1\n      pop\n      jump\t// out\n        /* \"#utility.yul\":4842:5169   */\n    tag_22:\n        /* \"#utility.yul\":4900:4906   */\n      0x00\n        /* \"#utility.yul\":4949:4951   */\n      0x20\n        /* \"#utility.yul\":4937:4946   */\n      dup3\n        /* \"#utility.yul\":4928:4935   */\n      dup5\n        /* \"#utility.yul\":4924:4947   */\n      sub\n        /* \"#utility.yul\":4920:4952   */\n      slt\n        /* \"#utility.yul\":4917:5036   */\n      iszero\n      tag_288\n      jumpi\n        /* \"#utility.yul\":4955:5034   */\n      tag_289\n      tag_254\n      jump\t// in\n    tag_289:\n        /* \"#utility.yul\":4917:5036   */\n    tag_288:\n        /* \"#utility.yul\":5075:5076   */\n      0x00\n        /* \"#utility.yul\":5100:5152   */\n      tag_290\n        /* \"#utility.yul\":5144:5151   */\n      dup5\n        /* \"#utility.yul\":5135:5141   */\n      dup3\n        /* \"#utility.yul\":5124:5133   */\n      dup6\n        /* \"#utility.yul\":5120:5142   */\n      add\n        /* \"#utility.yul\":5100:5152   */\n      tag_234\n      jump\t// in\n    tag_290:\n        /* \"#utility.yul\":5090:5152   */\n      swap2\n      pop\n        /* \"#utility.yul\":5046:5162   */\n      pop\n        /* \"#utility.yul\":4842:5169   */\n      swap3\n      swap2\n      pop\n      pop\n      jump\t// out\n        /* \"#utility.yul\":5175:5524   */\n    tag_201:\n        /* \"#utility.yul\":5244:5250   */\n      0x00\n        /* \"#utility.yul\":5293:5295   */\n      0x20\n        /* \"#utility.yul\":5281:5290   */\n      dup3\n        /* \"#utility.yul\":5272:5279   */\n      dup5\n        /* \"#utility.yul\":5268:5291   */\n      sub\n        /* \"#utility.yul\":5264:5296   */\n      slt\n        /* \"#utility.yul\":5261:5380   */\n      iszero\n      tag_292\n      jumpi\n        /* \"#utility.yul\":5299:5378   */\n      tag_293\n      tag_254\n      jump\t// in\n    tag_293:\n        /* \"#utility.yul\":5261:5380   */\n    tag_292:\n        /* \"#utility.yul\":5419:5420   */\n      0x00\n        /* \"#utility.yul\":5444:5507   */\n      tag_294\n        /* \"#utility.yul\":5499:5506   */\n      dup5\n        /* \"#utility.yul\":5490:5496   */\n      dup3\n        /* \"#utility.yul\":5479:5488   */\n      dup6\n        /* \"#utility.yul\":5475:5497   */\n      add\n        /* \"#utility.yul\":5444:5507   */\n      tag_238\n      jump\t// in\n    tag_294:\n        /* \"#utility.yul\":5434:5507   */\n      swap2\n      pop\n        /* \"#utility.yul\":5390:5517   */\n      pop\n        /* \"#utility.yul\":5175:5524   */\n      swap3\n      swap2\n      pop\n      pop\n      jump\t// out\n        /* \"#utility.yul\":5530:5859   */\n    tag_32:\n        /* \"#utility.yul\":5589:5595   */\n      0x00\n        /* \"#utility.yul\":5638:5640   */\n      0x20\n        /* \"#utility.yul\":5626:5635   */\n      dup3\n        /* \"#utility.yul\":5617:5624   */\n      dup5\n        /* \"#utility.yul\":5613:5636   */\n      sub\n        /* \"#utility.yul\":5609:5641   */\n      slt\n        /* \"#utility.yul\":5606:5725   */\n      iszero\n      tag_296\n      jumpi\n        /* \"#utility.yul\":5644:5723   */\n      tag_297\n      tag_254\n      jump\t// in\n    tag_297:\n        /* \"#utility.yul\":5606:5725   */\n    tag_296:\n        /* \"#utility.yul\":5764:5765   */\n      0x00\n        /* \"#utility.yul\":5789:5842   */\n      tag_298\n        /* \"#utility.yul\":5834:5841   */\n      dup5\n        /* \"#utility.yul\":5825:5831   */\n      dup3\n        /* \"#utility.yul\":5814:5823   */\n      dup6\n        /* \"#utility.yul\":5810:5832   */\n      add\n        /* \"#utility.yul\":5789:5842   */\n      tag_247\n      jump\t// in\n    tag_298:\n        /* \"#utility.yul\":5779:5842   */\n      swap2\n      pop\n        /* \"#utility.yul\":5735:5852   */\n      pop\n        /* \"#utility.yul\":5530:5859   */\n      swap3\n      swap2\n      pop\n      pop\n      jump\t// out\n        /* \"#utility.yul\":5865:5983   */\n    tag_299:\n        /* \"#utility.yul\":5952:5976   */\n      tag_301\n        /* \"#utility.yul\":5970:5975   */\n      dup2\n        /* \"#utility.yul\":5952:5976   */\n      tag_302\n      jump\t// in\n    tag_301:\n        /* \"#utility.yul\":5947:5950   */\n      dup3\n        /* \"#utility.yul\":5940:5977   */\n      mstore\n        /* \"#utility.yul\":5865:5983   */\n      pop\n      pop\n      jump\t// out\n        /* \"#utility.yul\":5989:6098   */\n    tag_303:\n        /* \"#utility.yul\":6070:6091   */\n      tag_305\n        /* \"#utility.yul\":6085:6090   */\n      dup2\n        /* \"#utility.yul\":6070:6091   */\n      tag_306\n      jump\t// in\n    tag_305:\n        /* \"#utility.yul\":6065:6068   */\n      dup3\n        /* \"#utility.yul\":6058:6092   */\n      mstore\n        /* \"#utility.yul\":5989:6098   */\n      pop\n      pop\n      jump\t// out\n        /* \"#utility.yul\":6104:6464   */\n    tag_307:\n        /* \"#utility.yul\":6190:6193   */\n      0x00\n        /* \"#utility.yul\":6218:6256   */\n      tag_309\n        /* \"#utility.yul\":6250:6255   */\n      dup3\n        /* \"#utility.yul\":6218:6256   */\n      tag_310\n      jump\t// in\n    tag_309:\n        /* \"#utility.yul\":6272:6342   */\n      tag_311\n        /* \"#utility.yul\":6335:6341   */\n      dup2\n        /* \"#utility.yul\":6330:6333   */\n      dup6\n        /* \"#utility.yul\":6272:6342   */\n      tag_312\n      jump\t// in\n    tag_311:\n        /* \"#utility.yul\":6265:6342   */\n      swap4\n      pop\n        /* \"#utility.yul\":6351:6403   */\n      tag_313\n        /* \"#utility.yul\":6396:6402   */\n      dup2\n        /* \"#utility.yul\":6391:6394   */\n      dup6\n        /* \"#utility.yul\":6384:6388   */\n      0x20\n        /* \"#utility.yul\":6377:6382   */\n      dup7\n        /* \"#utility.yul\":6373:6389   */\n      add\n        /* \"#utility.yul\":6351:6403   */\n      tag_314\n      jump\t// in\n    tag_313:\n        /* \"#utility.yul\":6428:6457   */\n      tag_315\n        /* \"#utility.yul\":6450:6456   */\n      dup2\n        /* \"#utility.yul\":6428:6457   */\n      tag_316\n      jump\t// in\n    tag_315:\n        /* \"#utility.yul\":6423:6426   */\n      dup5\n        /* \"#utility.yul\":6419:6458   */\n      add\n        /* \"#utility.yul\":6412:6458   */\n      swap2\n      pop\n        /* \"#utility.yul\":6194:6464   */\n      pop\n        /* \"#utility.yul\":6104:6464   */\n      swap3\n      swap2\n      pop\n      pop\n      jump\t// out\n        /* \"#utility.yul\":6470:6834   */\n    tag_317:\n        /* \"#utility.yul\":6558:6561   */\n      0x00\n        /* \"#utility.yul\":6586:6625   */\n      tag_319\n        /* \"#utility.yul\":6619:6624   */\n      dup3\n        /* \"#utility.yul\":6586:6625   */\n      tag_320\n      jump\t// in\n    tag_319:\n        /* \"#utility.yul\":6641:6712   */\n      tag_321\n        /* \"#utility.yul\":6705:6711   */\n      dup2\n        /* \"#utility.yul\":6700:6703   */\n      dup6\n        /* \"#utility.yul\":6641:6712   */\n      tag_322\n      jump\t// in\n    tag_321:\n        /* \"#utility.yul\":6634:6712   */\n      swap4\n      pop\n        /* \"#utility.yul\":6721:6773   */\n      tag_323\n        /* \"#utility.yul\":6766:6772   */\n      dup2\n        /* \"#utility.yul\":6761:6764   */\n      dup6\n        /* \"#utility.yul\":6754:6758   */\n      0x20\n        /* \"#utility.yul\":6747:6752   */\n      dup7\n        /* \"#utility.yul\":6743:6759   */\n      add\n        /* \"#utility.yul\":6721:6773   */\n      tag_314\n      jump\t// in\n    tag_323:\n        /* \"#utility.yul\":6798:6827   */\n      tag_324\n        /* \"#utility.yul\":6820:6826   */\n      dup2\n        /* \"#utility.yul\":6798:6827   */\n      tag_316\n      jump\t// in\n    tag_324:\n        /* \"#utility.yul\":6793:6796   */\n      dup5\n        /* \"#utility.yul\":6789:6828   */\n      add\n        /* \"#utility.yul\":6782:6828   */\n      swap2\n      pop\n        /* \"#utility.yul\":6562:6834   */\n      pop\n        /* \"#utility.yul\":6470:6834   */\n      swap3\n      swap2\n      pop\n      pop\n      jump\t// out\n        /* \"#utility.yul\":6840:7217   */\n    tag_325:\n        /* \"#utility.yul\":6946:6949   */\n      0x00\n        /* \"#utility.yul\":6974:7013   */\n      tag_327\n        /* \"#utility.yul\":7007:7012   */\n      dup3\n        /* \"#utility.yul\":6974:7013   */\n      tag_320\n      jump\t// in\n    tag_327:\n        /* \"#utility.yul\":7029:7118   */\n      tag_328\n        /* \"#utility.yul\":7111:7117   */\n      dup2\n        /* \"#utility.yul\":7106:7109   */\n      dup6\n        /* \"#utility.yul\":7029:7118   */\n      tag_329\n      jump\t// in\n    tag_328:\n        /* \"#utility.yul\":7022:7118   */\n      swap4\n      pop\n        /* \"#utility.yul\":7127:7179   */\n      tag_330\n        /* \"#utility.yul\":7172:7178   */\n      dup2\n        /* \"#utility.yul\":7167:7170   */\n      dup6\n        /* \"#utility.yul\":7160:7164   */\n      0x20\n        /* \"#utility.yul\":7153:7158   */\n      dup7\n        /* \"#utility.yul\":7149:7165   */\n      add\n        /* \"#utility.yul\":7127:7179   */\n      tag_314\n      jump\t// in\n    tag_330:\n        /* \"#utility.yul\":7204:7210   */\n      dup1\n        /* \"#utility.yul\":7199:7202   */\n      dup5\n        /* \"#utility.yul\":7195:7211   */\n      add\n        /* \"#utility.yul\":7188:7211   */\n      swap2\n      pop\n        /* \"#utility.yul\":6950:7217   */\n      pop\n        /* \"#utility.yul\":6840:7217   */\n      swap3\n      swap2\n      pop\n      pop\n      jump\t// out\n        /* \"#utility.yul\":7223:7589   */\n    tag_331:\n        /* \"#utility.yul\":7365:7368   */\n      0x00\n        /* \"#utility.yul\":7386:7453   */\n      tag_333\n        /* \"#utility.yul\":7450:7452   */\n      0x16\n        /* \"#utility.yul\":7445:7448   */\n      dup4\n        /* \"#utility.yul\":7386:7453   */\n      tag_322\n      jump\t// in\n    tag_333:\n        /* \"#utility.yul\":7379:7453   */\n      swap2\n      pop\n        /* \"#utility.yul\":7462:7555   */\n      tag_334\n        /* \"#utility.yul\":7551:7554   */\n      dup3\n        /* \"#utility.yul\":7462:7555   */\n      tag_335\n      jump\t// in\n    tag_334:\n        /* \"#utility.yul\":7580:7582   */\n      0x20\n        /* \"#utility.yul\":7575:7578   */\n      dup3\n        /* \"#utility.yul\":7571:7583   */\n      add\n        /* \"#utility.yul\":7564:7583   */\n      swap1\n      pop\n        /* \"#utility.yul\":7223:7589   */\n      swap2\n      swap1\n      pop\n      jump\t// out\n        /* \"#utility.yul\":7595:7961   */\n    tag_336:\n        /* \"#utility.yul\":7737:7740   */\n      0x00\n        /* \"#utility.yul\":7758:7825   */\n      tag_338\n        /* \"#utility.yul\":7822:7824   */\n      0x1c\n        /* \"#utility.yul\":7817:7820   */\n      dup4\n        /* \"#utility.yul\":7758:7825   */\n      tag_322\n      jump\t// in\n    tag_338:\n        /* \"#utility.yul\":7751:7825   */\n      swap2\n      pop\n        /* \"#utility.yul\":7834:7927   */\n      tag_339\n        /* \"#utility.yul\":7923:7926   */\n      dup3\n        /* \"#utility.yul\":7834:7927   */\n      tag_340\n      jump\t// in\n    tag_339:\n        /* \"#utility.yul\":7952:7954   */\n      0x20\n        /* \"#utility.yul\":7947:7950   */\n      dup3\n        /* \"#utility.yul\":7943:7955   */\n      add\n        /* \"#utility.yul\":7936:7955   */\n      swap1\n      pop\n        /* \"#utility.yul\":7595:7961   */\n      swap2\n      swap1\n      pop\n      jump\t// out\n        /* \"#utility.yul\":7967:8333   */\n    tag_341:\n        /* \"#utility.yul\":8109:8112   */\n      0x00\n        /* \"#utility.yul\":8130:8197   */\n      tag_343\n        /* \"#utility.yul\":8194:8196   */\n      0x1e\n        /* \"#utility.yul\":8189:8192   */\n      dup4\n        /* \"#utility.yul\":8130:8197   */\n      tag_322\n      jump\t// in\n    tag_343:\n        /* \"#utility.yul\":8123:8197   */\n      swap2\n      pop\n        /* \"#utility.yul\":8206:8299   */\n      tag_344\n        /* \"#utility.yul\":8295:8298   */\n      dup3\n        /* \"#utility.yul\":8206:8299   */\n      tag_345\n      jump\t// in\n    tag_344:\n        /* \"#utility.yul\":8324:8326   */\n      0x20\n        /* \"#utility.yul\":8319:8322   */\n      dup3\n        /* \"#utility.yul\":8315:8327   */\n      add\n        /* \"#utility.yul\":8308:8327   */\n      swap1\n      pop\n        /* \"#utility.yul\":7967:8333   */\n      swap2\n      swap1\n      pop\n      jump\t// out\n        /* \"#utility.yul\":8339:8705   */\n    tag_346:\n        /* \"#utility.yul\":8481:8484   */\n      0x00\n        /* \"#utility.yul\":8502:8569   */\n      tag_348\n        /* \"#utility.yul\":8566:8568   */\n      0x13\n        /* \"#utility.yul\":8561:8564   */\n      dup4\n        /* \"#utility.yul\":8502:8569   */\n      tag_322\n      jump\t// in\n    tag_348:\n        /* \"#utility.yul\":8495:8569   */\n      swap2\n      pop\n        /* \"#utility.yul\":8578:8671   */\n      tag_349\n        /* \"#utility.yul\":8667:8670   */\n      dup3\n        /* \"#utility.yul\":8578:8671   */\n      tag_350\n      jump\t// in\n    tag_349:\n        /* \"#utility.yul\":8696:8698   */\n      0x20\n        /* \"#utility.yul\":8691:8694   */\n      dup3\n        /* \"#utility.yul\":8687:8699   */\n      add\n        /* \"#utility.yul\":8680:8699   */\n      swap1\n      pop\n        /* \"#utility.yul\":8339:8705   */\n      swap2\n      swap1\n      pop\n      jump\t// out\n        /* \"#utility.yul\":8711:9077   */\n    tag_351:\n        /* \"#utility.yul\":8853:8856   */\n      0x00\n        /* \"#utility.yul\":8874:8941   */\n      tag_353\n        /* \"#utility.yul\":8938:8940   */\n      0x14\n        /* \"#utility.yul\":8933:8936   */\n      dup4\n        /* \"#utility.yul\":8874:8941   */\n      tag_322\n      jump\t// in\n    tag_353:\n        /* \"#utility.yul\":8867:8941   */\n      swap2\n      pop\n        /* \"#utility.yul\":8950:9043   */\n      tag_354\n        /* \"#utility.yul\":9039:9042   */\n      dup3\n        /* \"#utility.yul\":8950:9043   */\n      tag_355\n      jump\t// in\n    tag_354:\n        /* \"#utility.yul\":9068:9070   */\n      0x20\n        /* \"#utility.yul\":9063:9066   */\n      dup3\n        /* \"#utility.yul\":9059:9071   */\n      add\n        /* \"#utility.yul\":9052:9071   */\n      swap1\n      pop\n        /* \"#utility.yul\":8711:9077   */\n      swap2\n      swap1\n      pop\n      jump\t// out\n        /* \"#utility.yul\":9083:9449   */\n    tag_356:\n        /* \"#utility.yul\":9225:9228   */\n      0x00\n        /* \"#utility.yul\":9246:9313   */\n      tag_358\n        /* \"#utility.yul\":9310:9312   */\n      0x0f\n        /* \"#utility.yul\":9305:9308   */\n      dup4\n        /* \"#utility.yul\":9246:9313   */\n      tag_322\n      jump\t// in\n    tag_358:\n        /* \"#utility.yul\":9239:9313   */\n      swap2\n      pop\n        /* \"#utility.yul\":9322:9415   */\n      tag_359\n        /* \"#utility.yul\":9411:9414   */\n      dup3\n        /* \"#utility.yul\":9322:9415   */\n      tag_360\n      jump\t// in\n    tag_359:\n        /* \"#utility.yul\":9440:9442   */\n      0x20\n        /* \"#utility.yul\":9435:9438   */\n      dup3\n        /* \"#utility.yul\":9431:9443   */\n      add\n        /* \"#utility.yul\":9424:9443   */\n      swap1\n      pop\n        /* \"#utility.yul\":9083:9449   */\n      swap2\n      swap1\n      pop\n      jump\t// out\n        /* \"#utility.yul\":9455:9820   */\n    tag_361:\n        /* \"#utility.yul\":9597:9600   */\n      0x00\n        /* \"#utility.yul\":9618:9684   */\n      tag_363\n        /* \"#utility.yul\":9682:9683   */\n      0x09\n        /* \"#utility.yul\":9677:9680   */\n      dup4\n        /* \"#utility.yul\":9618:9684   */\n      tag_322\n      jump\t// in\n    tag_363:\n        /* \"#utility.yul\":9611:9684   */\n      swap2\n      pop\n        /* \"#utility.yul\":9693:9786   */\n      tag_364\n        /* \"#utility.yul\":9782:9785   */\n      dup3\n        /* \"#utility.yul\":9693:9786   */\n      tag_365\n      jump\t// in\n    tag_364:\n        /* \"#utility.yul\":9811:9813   */\n      0x20\n        /* \"#utility.yul\":9806:9809   */\n      dup3\n        /* \"#utility.yul\":9802:9814   */\n      add\n        /* \"#utility.yul\":9795:9814   */\n      swap1\n      pop\n        /* \"#utility.yul\":9455:9820   */\n      swap2\n      swap1\n      pop\n      jump\t// out\n        /* \"#utility.yul\":9826:9944   */\n    tag_366:\n        /* \"#utility.yul\":9913:9937   */\n      tag_368\n        /* \"#utility.yul\":9931:9936   */\n      dup2\n        /* \"#utility.yul\":9913:9937   */\n      tag_369\n      jump\t// in\n    tag_368:\n        /* \"#utility.yul\":9908:9911   */\n      dup3\n        /* \"#utility.yul\":9901:9938   */\n      mstore\n        /* \"#utility.yul\":9826:9944   */\n      pop\n      pop\n      jump\t// out\n        /* \"#utility.yul\":9950:10385   */\n    tag_149:\n        /* \"#utility.yul\":10130:10133   */\n      0x00\n        /* \"#utility.yul\":10152:10247   */\n      tag_371\n        /* \"#utility.yul\":10243:10246   */\n      dup3\n        /* \"#utility.yul\":10234:10240   */\n      dup6\n        /* \"#utility.yul\":10152:10247   */\n      tag_325\n      jump\t// in\n    tag_371:\n        /* \"#utility.yul\":10145:10247   */\n      swap2\n      pop\n        /* \"#utility.yul\":10264:10359   */\n      tag_372\n        /* \"#utility.yul\":10355:10358   */\n      dup3\n        /* \"#utility.yul\":10346:10352   */\n      dup5\n        /* \"#utility.yul\":10264:10359   */\n      tag_325\n      jump\t// in\n    tag_372:\n        /* \"#utility.yul\":10257:10359   */\n      swap2\n      pop\n        /* \"#utility.yul\":10376:10379   */\n      dup2\n        /* \"#utility.yul\":10369:10379   */\n      swap1\n      pop\n        /* \"#utility.yul\":9950:10385   */\n      swap4\n      swap3\n      pop\n      pop\n      pop\n      jump\t// out\n        /* \"#utility.yul\":10391:10613   */\n    tag_35:\n        /* \"#utility.yul\":10484:10488   */\n      0x00\n        /* \"#utility.yul\":10522:10524   */\n      0x20\n        /* \"#utility.yul\":10511:10520   */\n      dup3\n        /* \"#utility.yul\":10507:10525   */\n      add\n        /* \"#utility.yul\":10499:10525   */\n      swap1\n      pop\n        /* \"#utility.yul\":10535:10606   */\n      tag_374\n        /* \"#utility.yul\":10603:10604   */\n      0x00\n        /* \"#utility.yul\":10592:10601   */\n      dup4\n        /* \"#utility.yul\":10588:10605   */\n      add\n        /* \"#utility.yul\":10579:10585   */\n      dup5\n        /* \"#utility.yul\":10535:10606   */\n      tag_299\n      jump\t// in\n    tag_374:\n        /* \"#utility.yul\":10391:10613   */\n      swap3\n      swap2\n      pop\n      pop\n      jump\t// out\n        /* \"#utility.yul\":10619:11061   */\n    tag_125:\n        /* \"#utility.yul\":10768:10772   */\n      0x00\n        /* \"#utility.yul\":10806:10808   */\n      0x60\n        /* \"#utility.yul\":10795:10804   */\n      dup3\n        /* \"#utility.yul\":10791:10809   */\n      add\n        /* \"#utility.yul\":10783:10809   */\n      swap1\n      pop\n        /* \"#utility.yul\":10819:10890   */\n      tag_376\n        /* \"#utility.yul\":10887:10888   */\n      0x00\n        /* \"#utility.yul\":10876:10885   */\n      dup4\n        /* \"#utility.yul\":10872:10889   */\n      add\n        /* \"#utility.yul\":10863:10869   */\n      dup7\n        /* \"#utility.yul\":10819:10890   */\n      tag_299\n      jump\t// in\n    tag_376:\n        /* \"#utility.yul\":10900:10972   */\n      tag_377\n        /* \"#utility.yul\":10968:10970   */\n      0x20\n        /* \"#utility.yul\":10957:10966   */\n      dup4\n        /* \"#utility.yul\":10953:10971   */\n      add\n        /* \"#utility.yul\":10944:10950   */\n      dup6\n        /* \"#utility.yul\":10900:10972   */\n      tag_299\n      jump\t// in\n    tag_377:\n        /* \"#utility.yul\":10982:11054   */\n      tag_378\n        /* \"#utility.yul\":11050:11052   */\n      0x40\n        /* \"#utility.yul\":11039:11048   */\n      dup4\n        /* \"#utility.yul\":11035:11053   */\n      add\n        /* \"#utility.yul\":11026:11032   */\n      dup5\n        /* \"#utility.yul\":10982:11054   */\n      tag_366\n      jump\t// in\n    tag_378:\n        /* \"#utility.yul\":10619:11061   */\n      swap5\n      swap4\n      pop\n      pop\n      pop\n      pop\n      jump\t// out\n        /* \"#utility.yul\":11067:11707   */\n    tag_197:\n        /* \"#utility.yul\":11262:11266   */\n      0x00\n        /* \"#utility.yul\":11300:11303   */\n      0x80\n        /* \"#utility.yul\":11289:11298   */\n      dup3\n        /* \"#utility.yul\":11285:11304   */\n      add\n        /* \"#utility.yul\":11277:11304   */\n      swap1\n      pop\n        /* \"#utility.yul\":11314:11385   */\n      tag_380\n        /* \"#utility.yul\":11382:11383   */\n      0x00\n        /* \"#utility.yul\":11371:11380   */\n      dup4\n        /* \"#utility.yul\":11367:11384   */\n      add\n        /* \"#utility.yul\":11358:11364   */\n      dup8\n        /* \"#utility.yul\":11314:11385   */\n      tag_299\n      jump\t// in\n    tag_380:\n        /* \"#utility.yul\":11395:11467   */\n      tag_381\n        /* \"#utility.yul\":11463:11465   */\n      0x20\n        /* \"#utility.yul\":11452:11461   */\n      dup4\n        /* \"#utility.yul\":11448:11466   */\n      add\n        /* \"#utility.yul\":11439:11445   */\n      dup7\n        /* \"#utility.yul\":11395:11467   */\n      tag_299\n      jump\t// in\n    tag_381:\n        /* \"#utility.yul\":11477:11549   */\n      tag_382\n        /* \"#utility.yul\":11545:11547   */\n      0x40\n        /* \"#utility.yul\":11534:11543   */\n      dup4\n        /* \"#utility.yul\":11530:11548   */\n      add\n        /* \"#utility.yul\":11521:11527   */\n      dup6\n        /* \"#utility.yul\":11477:11549   */\n      tag_366\n      jump\t// in\n    tag_382:\n        /* \"#utility.yul\":11596:11605   */\n      dup2\n        /* \"#utility.yul\":11590:11594   */\n      dup2\n        /* \"#utility.yul\":11586:11606   */\n      sub\n        /* \"#utility.yul\":11581:11583   */\n      0x60\n        /* \"#utility.yul\":11570:11579   */\n      dup4\n        /* \"#utility.yul\":11566:11584   */\n      add\n        /* \"#utility.yul\":11559:11607   */\n      mstore\n        /* \"#utility.yul\":11624:11700   */\n      tag_383\n        /* \"#utility.yul\":11695:11699   */\n      dup2\n        /* \"#utility.yul\":11686:11692   */\n      dup5\n        /* \"#utility.yul\":11624:11700   */\n      tag_307\n      jump\t// in\n    tag_383:\n        /* \"#utility.yul\":11616:11700   */\n      swap1\n      pop\n        /* \"#utility.yul\":11067:11707   */\n      swap6\n      swap5\n      pop\n      pop\n      pop\n      pop\n      pop\n      jump\t// out\n        /* \"#utility.yul\":11713:11923   */\n    tag_25:\n        /* \"#utility.yul\":11800:11804   */\n      0x00\n        /* \"#utility.yul\":11838:11840   */\n      0x20\n        /* \"#utility.yul\":11827:11836   */\n      dup3\n        /* \"#utility.yul\":11823:11841   */\n      add\n        /* \"#utility.yul\":11815:11841   */\n      swap1\n      pop\n        /* \"#utility.yul\":11851:11916   */\n      tag_385\n        /* \"#utility.yul\":11913:11914   */\n      0x00\n        /* \"#utility.yul\":11902:11911   */\n      dup4\n        /* \"#utility.yul\":11898:11915   */\n      add\n        /* \"#utility.yul\":11889:11895   */\n      dup5\n        /* \"#utility.yul\":11851:11916   */\n      tag_303\n      jump\t// in\n    tag_385:\n        /* \"#utility.yul\":11713:11923   */\n      swap3\n      swap2\n      pop\n      pop\n      jump\t// out\n        /* \"#utility.yul\":11929:12242   */\n    tag_29:\n        /* \"#utility.yul\":12042:12046   */\n      0x00\n        /* \"#utility.yul\":12080:12082   */\n      0x20\n        /* \"#utility.yul\":12069:12078   */\n      dup3\n        /* \"#utility.yul\":12065:12083   */\n      add\n        /* \"#utility.yul\":12057:12083   */\n      swap1\n      pop\n        /* \"#utility.yul\":12129:12138   */\n      dup2\n        /* \"#utility.yul\":12123:12127   */\n      dup2\n        /* \"#utility.yul\":12119:12139   */\n      sub\n        /* \"#utility.yul\":12115:12116   */\n      0x00\n        /* \"#utility.yul\":12104:12113   */\n      dup4\n        /* \"#utility.yul\":12100:12117   */\n      add\n        /* \"#utility.yul\":12093:12140   */\n      mstore\n        /* \"#utility.yul\":12157:12235   */\n      tag_387\n        /* \"#utility.yul\":12230:12234   */\n      dup2\n        /* \"#utility.yul\":12221:12227   */\n      dup5\n        /* \"#utility.yul\":12157:12235   */\n      tag_317\n      jump\t// in\n    tag_387:\n        /* \"#utility.yul\":12149:12235   */\n      swap1\n      pop\n        /* \"#utility.yul\":11929:12242   */\n      swap3\n      swap2\n      pop\n      pop\n      jump\t// out\n        /* \"#utility.yul\":12248:12667   */\n    tag_106:\n        /* \"#utility.yul\":12414:12418   */\n      0x00\n        /* \"#utility.yul\":12452:12454   */\n      0x20\n        /* \"#utility.yul\":12441:12450   */\n      dup3\n        /* \"#utility.yul\":12437:12455   */\n      add\n        /* \"#utility.yul\":12429:12455   */\n      swap1\n      pop\n        /* \"#utility.yul\":12501:12510   */\n      dup2\n        /* \"#utility.yul\":12495:12499   */\n      dup2\n        /* \"#utility.yul\":12491:12511   */\n      sub\n        /* \"#utility.yul\":12487:12488   */\n      0x00\n        /* \"#utility.yul\":12476:12485   */\n      dup4\n        /* \"#utility.yul\":12472:12489   */\n      add\n        /* \"#utility.yul\":12465:12512   */\n      mstore\n        /* \"#utility.yul\":12529:12660   */\n      tag_389\n        /* \"#utility.yul\":12655:12659   */\n      dup2\n        /* \"#utility.yul\":12529:12660   */\n      tag_331\n      jump\t// in\n    tag_389:\n        /* \"#utility.yul\":12521:12660   */\n      swap1\n      pop\n        /* \"#utility.yul\":12248:12667   */\n      swap2\n      swap1\n      pop\n      jump\t// out\n        /* \"#utility.yul\":12673:13092   */\n    tag_161:\n        /* \"#utility.yul\":12839:12843   */\n      0x00\n        /* \"#utility.yul\":12877:12879   */\n      0x20\n        /* \"#utility.yul\":12866:12875   */\n      dup3\n        /* \"#utility.yul\":12862:12880   */\n      add\n        /* \"#utility.yul\":12854:12880   */\n      swap1\n      pop\n        /* \"#utility.yul\":12926:12935   */\n      dup2\n        /* \"#utility.yul\":12920:12924   */\n      dup2\n        /* \"#utility.yul\":12916:12936   */\n      sub\n        /* \"#utility.yul\":12912:12913   */\n      0x00\n        /* \"#utility.yul\":12901:12910   */\n      dup4\n        /* \"#utility.yul\":12897:12914   */\n      add\n        /* \"#utility.yul\":12890:12937   */\n      mstore\n        /* \"#utility.yul\":12954:13085   */\n      tag_391\n        /* \"#utility.yul\":13080:13084   */\n      dup2\n        /* \"#utility.yul\":12954:13085   */\n      tag_336\n      jump\t// in\n    tag_391:\n        /* \"#utility.yul\":12946:13085   */\n      swap1\n      pop\n        /* \"#utility.yul\":12673:13092   */\n      swap2\n      swap1\n      pop\n      jump\t// out\n        /* \"#utility.yul\":13098:13517   */\n    tag_97:\n        /* \"#utility.yul\":13264:13268   */\n      0x00\n        /* \"#utility.yul\":13302:13304   */\n      0x20\n        /* \"#utility.yul\":13291:13300   */\n      dup3\n        /* \"#utility.yul\":13287:13305   */\n      add\n        /* \"#utility.yul\":13279:13305   */\n      swap1\n      pop\n        /* \"#utility.yul\":13351:13360   */\n      dup2\n        /* \"#utility.yul\":13345:13349   */\n      dup2\n        /* \"#utility.yul\":13341:13361   */\n      sub\n        /* \"#utility.yul\":13337:13338   */\n      0x00\n        /* \"#utility.yul\":13326:13335   */\n      dup4\n        /* \"#utility.yul\":13322:13339   */\n      add\n        /* \"#utility.yul\":13315:13362   */\n      mstore\n        /* \"#utility.yul\":13379:13510   */\n      tag_393\n        /* \"#utility.yul\":13505:13509   */\n      dup2\n        /* \"#utility.yul\":13379:13510   */\n      tag_341\n      jump\t// in\n    tag_393:\n        /* \"#utility.yul\":13371:13510   */\n      swap1\n      pop\n        /* \"#utility.yul\":13098:13517   */\n      swap2\n      swap1\n      pop\n      jump\t// out\n        /* \"#utility.yul\":13523:13942   */\n    tag_92:\n        /* \"#utility.yul\":13689:13693   */\n      0x00\n        /* \"#utility.yul\":13727:13729   */\n      0x20\n        /* \"#utility.yul\":13716:13725   */\n      dup3\n        /* \"#utility.yul\":13712:13730   */\n      add\n        /* \"#utility.yul\":13704:13730   */\n      swap1\n      pop\n        /* \"#utility.yul\":13776:13785   */\n      dup2\n        /* \"#utility.yul\":13770:13774   */\n      dup2\n        /* \"#utility.yul\":13766:13786   */\n      sub\n        /* \"#utility.yul\":13762:13763   */\n      0x00\n        /* \"#utility.yul\":13751:13760   */\n      dup4\n        /* \"#utility.yul\":13747:13764   */\n      add\n        /* \"#utility.yul\":13740:13787   */\n      mstore\n        /* \"#utility.yul\":13804:13935   */\n      tag_395\n        /* \"#utility.yul\":13930:13934   */\n      dup2\n        /* \"#utility.yul\":13804:13935   */\n      tag_346\n      jump\t// in\n    tag_395:\n        /* \"#utility.yul\":13796:13935   */\n      swap1\n      pop\n        /* \"#utility.yul\":13523:13942   */\n      swap2\n      swap1\n      pop\n      jump\t// out\n        /* \"#utility.yul\":13948:14367   */\n    tag_117:\n        /* \"#utility.yul\":14114:14118   */\n      0x00\n        /* \"#utility.yul\":14152:14154   */\n      0x20\n        /* \"#utility.yul\":14141:14150   */\n      dup3\n        /* \"#utility.yul\":14137:14155   */\n      add\n        /* \"#utility.yul\":14129:14155   */\n      swap1\n      pop\n        /* \"#utility.yul\":14201:14210   */\n      dup2\n        /* \"#utility.yul\":14195:14199   */\n      dup2\n        /* \"#utility.yul\":14191:14211   */\n      sub\n        /* \"#utility.yul\":14187:14188   */\n      0x00\n        /* \"#utility.yul\":14176:14185   */\n      dup4\n        /* \"#utility.yul\":14172:14189   */\n      add\n        /* \"#utility.yul\":14165:14212   */\n      mstore\n        /* \"#utility.yul\":14229:14360   */\n      tag_397\n        /* \"#utility.yul\":14355:14359   */\n      dup2\n        /* \"#utility.yul\":14229:14360   */\n      tag_351\n      jump\t// in\n    tag_397:\n        /* \"#utility.yul\":14221:14360   */\n      swap1\n      pop\n        /* \"#utility.yul\":13948:14367   */\n      swap2\n      swap1\n      pop\n      jump\t// out\n        /* \"#utility.yul\":14373:14792   */\n    tag_141:\n        /* \"#utility.yul\":14539:14543   */\n      0x00\n        /* \"#utility.yul\":14577:14579   */\n      0x20\n        /* \"#utility.yul\":14566:14575   */\n      dup3\n        /* \"#utility.yul\":14562:14580   */\n      add\n        /* \"#utility.yul\":14554:14580   */\n      swap1\n      pop\n        /* \"#utility.yul\":14626:14635   */\n      dup2\n        /* \"#utility.yul\":14620:14624   */\n      dup2\n        /* \"#utility.yul\":14616:14636   */\n      sub\n        /* \"#utility.yul\":14612:14613   */\n      0x00\n        /* \"#utility.yul\":14601:14610   */\n      dup4\n        /* \"#utility.yul\":14597:14614   */\n      add\n        /* \"#utility.yul\":14590:14637   */\n      mstore\n        /* \"#utility.yul\":14654:14785   */\n      tag_399\n        /* \"#utility.yul\":14780:14784   */\n      dup2\n        /* \"#utility.yul\":14654:14785   */\n      tag_356\n      jump\t// in\n    tag_399:\n        /* \"#utility.yul\":14646:14785   */\n      swap1\n      pop\n        /* \"#utility.yul\":14373:14792   */\n      swap2\n      swap1\n      pop\n      jump\t// out\n        /* \"#utility.yul\":14798:15217   */\n    tag_158:\n        /* \"#utility.yul\":14964:14968   */\n      0x00\n        /* \"#utility.yul\":15002:15004   */\n      0x20\n        /* \"#utility.yul\":14991:15000   */\n      dup3\n        /* \"#utility.yul\":14987:15005   */\n      add\n        /* \"#utility.yul\":14979:15005   */\n      swap1\n      pop\n        /* \"#utility.yul\":15051:15060   */\n      dup2\n        /* \"#utility.yul\":15045:15049   */\n      dup2\n        /* \"#utility.yul\":15041:15061   */\n      sub\n        /* \"#utility.yul\":15037:15038   */\n      0x00\n        /* \"#utility.yul\":15026:15035   */\n      dup4\n        /* \"#utility.yul\":15022:15039   */\n      add\n        /* \"#utility.yul\":15015:15062   */\n      mstore\n        /* \"#utility.yul\":15079:15210   */\n      tag_401\n        /* \"#utility.yul\":15205:15209   */\n      dup2\n        /* \"#utility.yul\":15079:15210   */\n      tag_361\n      jump\t// in\n    tag_401:\n        /* \"#utility.yul\":15071:15210   */\n      swap1\n      pop\n        /* \"#utility.yul\":14798:15217   */\n      swap2\n      swap1\n      pop\n      jump\t// out\n        /* \"#utility.yul\":15223:15445   */\n    tag_56:\n        /* \"#utility.yul\":15316:15320   */\n      0x00\n        /* \"#utility.yul\":15354:15356   */\n      0x20\n        /* \"#utility.yul\":15343:15352   */\n      dup3\n        /* \"#utility.yul\":15339:15357   */\n      add\n        /* \"#utility.yul\":15331:15357   */\n      swap1\n      pop\n        /* \"#utility.yul\":15367:15438   */\n      tag_403\n        /* \"#utility.yul\":15435:15436   */\n      0x00\n        /* \"#utility.yul\":15424:15433   */\n      dup4\n        /* \"#utility.yul\":15420:15437   */\n      add\n        /* \"#utility.yul\":15411:15417   */\n      dup5\n        /* \"#utility.yul\":15367:15438   */\n      tag_366\n      jump\t// in\n    tag_403:\n        /* \"#utility.yul\":15223:15445   */\n      swap3\n      swap2\n      pop\n      pop\n      jump\t// out\n        /* \"#utility.yul\":15451:15580   */\n    tag_220:\n        /* \"#utility.yul\":15485:15491   */\n      0x00\n        /* \"#utility.yul\":15512:15532   */\n      tag_405\n      tag_406\n      jump\t// in\n    tag_405:\n        /* \"#utility.yul\":15502:15532   */\n      swap1\n      pop\n        /* \"#utility.yul\":15541:15574   */\n      tag_407\n        /* \"#utility.yul\":15569:15573   */\n      dup3\n        /* \"#utility.yul\":15561:15567   */\n      dup3\n        /* \"#utility.yul\":15541:15574   */\n      tag_408\n      jump\t// in\n    tag_407:\n        /* \"#utility.yul\":15451:15580   */\n      swap2\n      swap1\n      pop\n      jump\t// out\n        /* \"#utility.yul\":15586:15661   */\n    tag_406:\n        /* \"#utility.yul\":15619:15625   */\n      0x00\n        /* \"#utility.yul\":15652:15654   */\n      0x40\n        /* \"#utility.yul\":15646:15655   */\n      mload\n        /* \"#utility.yul\":15636:15655   */\n      swap1\n      pop\n        /* \"#utility.yul\":15586:15661   */\n      swap1\n      jump\t// out\n        /* \"#utility.yul\":15667:15974   */\n    tag_219:\n        /* \"#utility.yul\":15728:15732   */\n      0x00\n        /* \"#utility.yul\":15818:15836   */\n      0xffffffffffffffff\n        /* \"#utility.yul\":15810:15816   */\n      dup3\n        /* \"#utility.yul\":15807:15837   */\n      gt\n        /* \"#utility.yul\":15804:15860   */\n      iszero\n      tag_411\n      jumpi\n        /* \"#utility.yul\":15840:15858   */\n      tag_412\n      tag_182\n      jump\t// in\n    tag_412:\n        /* \"#utility.yul\":15804:15860   */\n    tag_411:\n        /* \"#utility.yul\":15878:15907   */\n      tag_413\n        /* \"#utility.yul\":15900:15906   */\n      dup3\n        /* \"#utility.yul\":15878:15907   */\n      tag_316\n      jump\t// in\n    tag_413:\n        /* \"#utility.yul\":15870:15907   */\n      swap1\n      pop\n        /* \"#utility.yul\":15962:15966   */\n      0x20\n        /* \"#utility.yul\":15956:15960   */\n      dup2\n        /* \"#utility.yul\":15952:15967   */\n      add\n        /* \"#utility.yul\":15944:15967   */\n      swap1\n      pop\n        /* \"#utility.yul\":15667:15974   */\n      swap2\n      swap1\n      pop\n      jump\t// out\n        /* \"#utility.yul\":15980:16078   */\n    tag_310:\n        /* \"#utility.yul\":16031:16037   */\n      0x00\n        /* \"#utility.yul\":16065:16070   */\n      dup2\n        /* \"#utility.yul\":16059:16071   */\n      mload\n        /* \"#utility.yul\":16049:16071   */\n      swap1\n      pop\n        /* \"#utility.yul\":15980:16078   */\n      swap2\n      swap1\n      pop\n      jump\t// out\n        /* \"#utility.yul\":16084:16183   */\n    tag_320:\n        /* \"#utility.yul\":16136:16142   */\n      0x00\n        /* \"#utility.yul\":16170:16175   */\n      dup2\n        /* \"#utility.yul\":16164:16176   */\n      mload\n        /* \"#utility.yul\":16154:16176   */\n      swap1\n      pop\n        /* \"#utility.yul\":16084:16183   */\n      swap2\n      swap1\n      pop\n      jump\t// out\n        /* \"#utility.yul\":16189:16357   */\n    tag_312:\n        /* \"#utility.yul\":16272:16283   */\n      0x00\n        /* \"#utility.yul\":16306:16312   */\n      dup3\n        /* \"#utility.yul\":16301:16304   */\n      dup3\n        /* \"#utility.yul\":16294:16313   */\n      mstore\n        /* \"#utility.yul\":16346:16350   */\n      0x20\n        /* \"#utility.yul\":16341:16344   */\n      dup3\n        /* \"#utility.yul\":16337:16351   */\n      add\n        /* \"#utility.yul\":16322:16351   */\n      swap1\n      pop\n        /* \"#utility.yul\":16189:16357   */\n      swap3\n      swap2\n      pop\n      pop\n      jump\t// out\n        /* \"#utility.yul\":16363:16532   */\n    tag_322:\n        /* \"#utility.yul\":16447:16458   */\n      0x00\n        /* \"#utility.yul\":16481:16487   */\n      dup3\n        /* \"#utility.yul\":16476:16479   */\n      dup3\n        /* \"#utility.yul\":16469:16488   */\n      mstore\n        /* \"#utility.yul\":16521:16525   */\n      0x20\n        /* \"#utility.yul\":16516:16519   */\n      dup3\n        /* \"#utility.yul\":16512:16526   */\n      add\n        /* \"#utility.yul\":16497:16526   */\n      swap1\n      pop\n        /* \"#utility.yul\":16363:16532   */\n      swap3\n      swap2\n      pop\n      pop\n      jump\t// out\n        /* \"#utility.yul\":16538:16686   */\n    tag_329:\n        /* \"#utility.yul\":16640:16651   */\n      0x00\n        /* \"#utility.yul\":16677:16680   */\n      dup2\n        /* \"#utility.yul\":16662:16680   */\n      swap1\n      pop\n        /* \"#utility.yul\":16538:16686   */\n      swap3\n      swap2\n      pop\n      pop\n      jump\t// out\n        /* \"#utility.yul\":16692:16997   */\n    tag_166:\n        /* \"#utility.yul\":16732:16735   */\n      0x00\n        /* \"#utility.yul\":16751:16771   */\n      tag_420\n        /* \"#utility.yul\":16769:16770   */\n      dup3\n        /* \"#utility.yul\":16751:16771   */\n      tag_369\n      jump\t// in\n    tag_420:\n        /* \"#utility.yul\":16746:16771   */\n      swap2\n      pop\n        /* \"#utility.yul\":16785:16805   */\n      tag_421\n        /* \"#utility.yul\":16803:16804   */\n      dup4\n        /* \"#utility.yul\":16785:16805   */\n      tag_369\n      jump\t// in\n    tag_421:\n        /* \"#utility.yul\":16780:16805   */\n      swap3\n      pop\n        /* \"#utility.yul\":16939:16940   */\n      dup3\n        /* \"#utility.yul\":16871:16937   */\n      0xffffffffffffffffffffffffffffffffffffffffffffffffffffffffffffffff\n        /* \"#utility.yul\":16867:16941   */\n      sub\n        /* \"#utility.yul\":16864:16865   */\n      dup3\n        /* \"#utility.yul\":16861:16942   */\n      gt\n        /* \"#utility.yul\":16858:16965   */\n      iszero\n      tag_422\n      jumpi\n        /* \"#utility.yul\":16945:16963   */\n      tag_423\n      tag_424\n      jump\t// in\n    tag_423:\n        /* \"#utility.yul\":16858:16965   */\n    tag_422:\n        /* \"#utility.yul\":16989:16990   */\n      dup3\n        /* \"#utility.yul\":16986:16987   */\n      dup3\n        /* \"#utility.yul\":16982:16991   */\n      add\n        /* \"#utility.yul\":16975:16991   */\n      swap1\n      pop\n        /* \"#utility.yul\":16692:16997   */\n      swap3\n      swap2\n      pop\n      pop\n      jump\t// out\n        /* \"#utility.yul\":17003:17188   */\n    tag_179:\n        /* \"#utility.yul\":17043:17044   */\n      0x00\n        /* \"#utility.yul\":17060:17080   */\n      tag_426\n        /* \"#utility.yul\":17078:17079   */\n      dup3\n        /* \"#utility.yul\":17060:17080   */\n      tag_369\n      jump\t// in\n    tag_426:\n        /* \"#utility.yul\":17055:17080   */\n      swap2\n      pop\n        /* \"#utility.yul\":17094:17114   */\n      tag_427\n        /* \"#utility.yul\":17112:17113   */\n      dup4\n        /* \"#utility.yul\":17094:17114   */\n      tag_369\n      jump\t// in\n    tag_427:\n        /* \"#utility.yul\":17089:17114   */\n      swap3\n      pop\n        /* \"#utility.yul\":17133:17134   */\n      dup3\n        /* \"#utility.yul\":17123:17158   */\n      tag_428\n      jumpi\n        /* \"#utility.yul\":17138:17156   */\n      tag_429\n      tag_430\n      jump\t// in\n    tag_429:\n        /* \"#utility.yul\":17123:17158   */\n    tag_428:\n        /* \"#utility.yul\":17180:17181   */\n      dup3\n        /* \"#utility.yul\":17177:17178   */\n      dup3\n        /* \"#utility.yul\":17173:17182   */\n      div\n        /* \"#utility.yul\":17168:17182   */\n      swap1\n      pop\n        /* \"#utility.yul\":17003:17188   */\n      swap3\n      swap2\n      pop\n      pop\n      jump\t// out\n        /* \"#utility.yul\":17194:17385   */\n    tag_164:\n        /* \"#utility.yul\":17234:17238   */\n      0x00\n        /* \"#utility.yul\":17254:17274   */\n      tag_432\n        /* \"#utility.yul\":17272:17273   */\n      dup3\n        /* \"#utility.yul\":17254:17274   */\n      tag_369\n      jump\t// in\n    tag_432:\n        /* \"#utility.yul\":17249:17274   */\n      swap2\n      pop\n        /* \"#utility.yul\":17288:17308   */\n      tag_433\n        /* \"#utility.yul\":17306:17307   */\n      dup4\n        /* \"#utility.yul\":17288:17308   */\n      tag_369\n      jump\t// in\n    tag_433:\n        /* \"#utility.yul\":17283:17308   */\n      swap3\n      pop\n        /* \"#utility.yul\":17327:17328   */\n      dup3\n        /* \"#utility.yul\":17324:17325   */\n      dup3\n        /* \"#utility.yul\":17321:17329   */\n      lt\n        /* \"#utility.yul\":17318:17352   */\n      iszero\n      tag_434\n      jumpi\n        /* \"#utility.yul\":17332:17350   */\n      tag_435\n      tag_424\n      jump\t// in\n    tag_435:\n        /* \"#utility.yul\":17318:17352   */\n    tag_434:\n        /* \"#utility.yul\":17377:17378   */\n      dup3\n        /* \"#utility.yul\":17374:17375   */\n      dup3\n        /* \"#utility.yul\":17370:17379   */\n      sub\n        /* \"#utility.yul\":17362:17379   */\n      swap1\n      pop\n        /* \"#utility.yul\":17194:17385   */\n      swap3\n      swap2\n      pop\n      pop\n      jump\t// out\n        /* \"#utility.yul\":17391:17487   */\n    tag_302:\n        /* \"#utility.yul\":17428:17435   */\n      0x00\n        /* \"#utility.yul\":17457:17481   */\n      tag_437\n        /* \"#utility.yul\":17475:17480   */\n      dup3\n        /* \"#utility.yul\":17457:17481   */\n      tag_438\n      jump\t// in\n    tag_437:\n        /* \"#utility.yul\":17446:17481   */\n      swap1\n      pop\n        /* \"#utility.yul\":17391:17487   */\n      swap2\n      swap1\n      pop\n      jump\t// out\n        /* \"#utility.yul\":17493:17583   */\n    tag_306:\n        /* \"#utility.yul\":17527:17534   */\n      0x00\n        /* \"#utility.yul\":17570:17575   */\n      dup2\n        /* \"#utility.yul\":17563:17576   */\n      iszero\n        /* \"#utility.yul\":17556:17577   */\n      iszero\n        /* \"#utility.yul\":17545:17577   */\n      swap1\n      pop\n        /* \"#utility.yul\":17493:17583   */\n      swap2\n      swap1\n      pop\n      jump\t// out\n        /* \"#utility.yul\":17589:17738   */\n    tag_440:\n        /* \"#utility.yul\":17625:17632   */\n      0x00\n        /* \"#utility.yul\":17665:17731   */\n      0xffffffff00000000000000000000000000000000000000000000000000000000\n        /* \"#utility.yul\":17658:17663   */\n      dup3\n        /* \"#utility.yul\":17654:17732   */\n      and\n        /* \"#utility.yul\":17643:17732   */\n      swap1\n      pop\n        /* \"#utility.yul\":17589:17738   */\n      swap2\n      swap1\n      pop\n      jump\t// out\n        /* \"#utility.yul\":17744:17870   */\n    tag_438:\n        /* \"#utility.yul\":17781:17788   */\n      0x00\n        /* \"#utility.yul\":17821:17863   */\n      0xffffffffffffffffffffffffffffffffffffffff\n        /* \"#utility.yul\":17814:17819   */\n      dup3\n        /* \"#utility.yul\":17810:17864   */\n      and\n        /* \"#utility.yul\":17799:17864   */\n      swap1\n      pop\n        /* \"#utility.yul\":17744:17870   */\n      swap2\n      swap1\n      pop\n      jump\t// out\n        /* \"#utility.yul\":17876:17953   */\n    tag_369:\n        /* \"#utility.yul\":17913:17920   */\n      0x00\n        /* \"#utility.yul\":17942:17947   */\n      dup2\n        /* \"#utility.yul\":17931:17947   */\n      swap1\n      pop\n        /* \"#utility.yul\":17876:17953   */\n      swap2\n      swap1\n      pop\n      jump\t// out\n        /* \"#utility.yul\":17959:18113   */\n    tag_225:\n        /* \"#utility.yul\":18043:18049   */\n      dup3\n        /* \"#utility.yul\":18038:18041   */\n      dup2\n        /* \"#utility.yul\":18033:18036   */\n      dup4\n        /* \"#utility.yul\":18020:18050   */\n      calldatacopy\n        /* \"#utility.yul\":18105:18106   */\n      0x00\n        /* \"#utility.yul\":18096:18102   */\n      dup4\n        /* \"#utility.yul\":18091:18094   */\n      dup4\n        /* \"#utility.yul\":18087:18103   */\n      add\n        /* \"#utility.yul\":18080:18107   */\n      mstore\n        /* \"#utility.yul\":17959:18113   */\n      pop\n      pop\n      pop\n      jump\t// out\n        /* \"#utility.yul\":18119:18426   */\n    tag_314:\n        /* \"#utility.yul\":18187:18188   */\n      0x00\n        /* \"#utility.yul\":18197:18310   */\n    tag_446:\n        /* \"#utility.yul\":18211:18217   */\n      dup4\n        /* \"#utility.yul\":18208:18209   */\n      dup2\n        /* \"#utility.yul\":18205:18218   */\n      lt\n        /* \"#utility.yul\":18197:18310   */\n      iszero\n      tag_448\n      jumpi\n        /* \"#utility.yul\":18296:18297   */\n      dup1\n        /* \"#utility.yul\":18291:18294   */\n      dup3\n        /* \"#utility.yul\":18287:18298   */\n      add\n        /* \"#utility.yul\":18281:18299   */\n      mload\n        /* \"#utility.yul\":18277:18278   */\n      dup2\n        /* \"#utility.yul\":18272:18275   */\n      dup5\n        /* \"#utility.yul\":18268:18279   */\n      add\n        /* \"#utility.yul\":18261:18300   */\n      mstore\n        /* \"#utility.yul\":18233:18235   */\n      0x20\n        /* \"#utility.yul\":18230:18231   */\n      dup2\n        /* \"#utility.yul\":18226:18236   */\n      add\n        /* \"#utility.yul\":18221:18236   */\n      swap1\n      pop\n        /* \"#utility.yul\":18197:18310   */\n      jump(tag_446)\n    tag_448:\n        /* \"#utility.yul\":18328:18334   */\n      dup4\n        /* \"#utility.yul\":18325:18326   */\n      dup2\n        /* \"#utility.yul\":18322:18335   */\n      gt\n        /* \"#utility.yul\":18319:18420   */\n      iszero\n      tag_449\n      jumpi\n        /* \"#utility.yul\":18408:18409   */\n      0x00\n        /* \"#utility.yul\":18399:18405   */\n      dup5\n        /* \"#utility.yul\":18394:18397   */\n      dup5\n        /* \"#utility.yul\":18390:18406   */\n      add\n        /* \"#utility.yul\":18383:18410   */\n      mstore\n        /* \"#utility.yul\":18319:18420   */\n    tag_449:\n        /* \"#utility.yul\":18168:18426   */\n      pop\n        /* \"#utility.yul\":18119:18426   */\n      pop\n      pop\n      pop\n      jump\t// out\n        /* \"#utility.yul\":18432:18752   */\n    tag_84:\n        /* \"#utility.yul\":18476:18482   */\n      0x00\n        /* \"#utility.yul\":18513:18514   */\n      0x02\n        /* \"#utility.yul\":18507:18511   */\n      dup3\n        /* \"#utility.yul\":18503:18515   */\n      div\n        /* \"#utility.yul\":18493:18515   */\n      swap1\n      pop\n        /* \"#utility.yul\":18560:18561   */\n      0x01\n        /* \"#utility.yul\":18554:18558   */\n      dup3\n        /* \"#utility.yul\":18550:18562   */\n      and\n        /* \"#utility.yul\":18581:18599   */\n      dup1\n        /* \"#utility.yul\":18571:18652   */\n      tag_451\n      jumpi\n        /* \"#utility.yul\":18637:18641   */\n      0x7f\n        /* \"#utility.yul\":18629:18635   */\n      dup3\n        /* \"#utility.yul\":18625:18642   */\n      and\n        /* \"#utility.yul\":18615:18642   */\n      swap2\n      pop\n        /* \"#utility.yul\":18571:18652   */\n    tag_451:\n        /* \"#utility.yul\":18699:18701   */\n      0x20\n        /* \"#utility.yul\":18691:18697   */\n      dup3\n        /* \"#utility.yul\":18688:18702   */\n      lt\n        /* \"#utility.yul\":18668:18686   */\n      dup2\n        /* \"#utility.yul\":18665:18703   */\n      eq\n        /* \"#utility.yul\":18662:18746   */\n      iszero\n      tag_452\n      jumpi\n        /* \"#utility.yul\":18718:18736   */\n      tag_453\n      tag_454\n      jump\t// in\n    tag_453:\n        /* \"#utility.yul\":18662:18746   */\n    tag_452:\n        /* \"#utility.yul\":18483:18752   */\n      pop\n        /* \"#utility.yul\":18432:18752   */\n      swap2\n      swap1\n      pop\n      jump\t// out\n        /* \"#utility.yul\":18758:19039   */\n    tag_408:\n        /* \"#utility.yul\":18841:18868   */\n      tag_456\n        /* \"#utility.yul\":18863:18867   */\n      dup3\n        /* \"#utility.yul\":18841:18868   */\n      tag_316\n      jump\t// in\n    tag_456:\n        /* \"#utility.yul\":18833:18839   */\n      dup2\n        /* \"#utility.yul\":18829:18869   */\n      add\n        /* \"#utility.yul\":18971:18977   */\n      dup2\n        /* \"#utility.yul\":18959:18969   */\n      dup2\n        /* \"#utility.yul\":18956:18978   */\n      lt\n        /* \"#utility.yul\":18935:18953   */\n      0xffffffffffffffff\n        /* \"#utility.yul\":18923:18933   */\n      dup3\n        /* \"#utility.yul\":18920:18954   */\n      gt\n        /* \"#utility.yul\":18917:18979   */\n      or\n        /* \"#utility.yul\":18914:19002   */\n      iszero\n      tag_457\n      jumpi\n        /* \"#utility.yul\":18982:19000   */\n      tag_458\n      tag_182\n      jump\t// in\n    tag_458:\n        /* \"#utility.yul\":18914:19002   */\n    tag_457:\n        /* \"#utility.yul\":19022:19032   */\n      dup1\n        /* \"#utility.yul\":19018:19020   */\n      0x40\n        /* \"#utility.yul\":19011:19033   */\n      mstore\n        /* \"#utility.yul\":18801:19039   */\n      pop\n        /* \"#utility.yul\":18758:19039   */\n      pop\n      pop\n      jump\t// out\n        /* \"#utility.yul\":19045:19278   */\n    tag_177:\n        /* \"#utility.yul\":19084:19087   */\n      0x00\n        /* \"#utility.yul\":19107:19131   */\n      tag_460\n        /* \"#utility.yul\":19125:19130   */\n      dup3\n        /* \"#utility.yul\":19107:19131   */\n      tag_369\n      jump\t// in\n    tag_460:\n        /* \"#utility.yul\":19098:19131   */\n      swap2\n      pop\n        /* \"#utility.yul\":19153:19219   */\n      0xffffffffffffffffffffffffffffffffffffffffffffffffffffffffffffffff\n        /* \"#utility.yul\":19146:19151   */\n      dup3\n        /* \"#utility.yul\":19143:19220   */\n      eq\n        /* \"#utility.yul\":19140:19243   */\n      iszero\n      tag_461\n      jumpi\n        /* \"#utility.yul\":19223:19241   */\n      tag_462\n      tag_424\n      jump\t// in\n    tag_462:\n        /* \"#utility.yul\":19140:19243   */\n    tag_461:\n        /* \"#utility.yul\":19270:19271   */\n      0x01\n        /* \"#utility.yul\":19263:19268   */\n      dup3\n        /* \"#utility.yul\":19259:19272   */\n      add\n        /* \"#utility.yul\":19252:19272   */\n      swap1\n      pop\n        /* \"#utility.yul\":19045:19278   */\n      swap2\n      swap1\n      pop\n      jump\t// out\n        /* \"#utility.yul\":19284:19460   */\n    tag_188:\n        /* \"#utility.yul\":19316:19317   */\n      0x00\n        /* \"#utility.yul\":19333:19353   */\n      tag_464\n        /* \"#utility.yul\":19351:19352   */\n      dup3\n        /* \"#utility.yul\":19333:19353   */\n      tag_369\n      jump\t// in\n    tag_464:\n        /* \"#utility.yul\":19328:19353   */\n      swap2\n      pop\n        /* \"#utility.yul\":19367:19387   */\n      tag_465\n        /* \"#utility.yul\":19385:19386   */\n      dup4\n        /* \"#utility.yul\":19367:19387   */\n      tag_369\n      jump\t// in\n    tag_465:\n        /* \"#utility.yul\":19362:19387   */\n      swap3\n      pop\n        /* \"#utility.yul\":19406:19407   */\n      dup3\n        /* \"#utility.yul\":19396:19431   */\n      tag_466\n      jumpi\n        /* \"#utility.yul\":19411:19429   */\n      tag_467\n      tag_430\n      jump\t// in\n    tag_467:\n        /* \"#utility.yul\":19396:19431   */\n    tag_466:\n        /* \"#utility.yul\":19452:19453   */\n      dup3\n        /* \"#utility.yul\":19449:19450   */\n      dup3\n        /* \"#utility.yul\":19445:19454   */\n      mod\n        /* \"#utility.yul\":19440:19454   */\n      swap1\n      pop\n        /* \"#utility.yul\":19284:19460   */\n      swap3\n      swap2\n      pop\n      pop\n      jump\t// out\n        /* \"#utility.yul\":19466:19646   */\n    tag_424:\n        /* \"#utility.yul\":19514:19591   */\n      0x4e487b7100000000000000000000000000000000000000000000000000000000\n        /* \"#utility.yul\":19511:19512   */\n      0x00\n        /* \"#utility.yul\":19504:19592   */\n      mstore\n        /* \"#utility.yul\":19611:19615   */\n      0x11\n        /* \"#utility.yul\":19608:19609   */\n      0x04\n        /* \"#utility.yul\":19601:19616   */\n      mstore\n        /* \"#utility.yul\":19635:19639   */\n      0x24\n        /* \"#utility.yul\":19632:19633   */\n      0x00\n        /* \"#utility.yul\":19625:19640   */\n      revert\n        /* \"#utility.yul\":19652:19832   */\n    tag_430:\n        /* \"#utility.yul\":19700:19777   */\n      0x4e487b7100000000000000000000000000000000000000000000000000000000\n        /* \"#utility.yul\":19697:19698   */\n      0x00\n        /* \"#utility.yul\":19690:19778   */\n      mstore\n        /* \"#utility.yul\":19797:19801   */\n      0x12\n        /* \"#utility.yul\":19794:19795   */\n      0x04\n        /* \"#utility.yul\":19787:19802   */\n      mstore\n        /* \"#utility.yul\":19821:19825   */\n      0x24\n        /* \"#utility.yul\":19818:19819   */\n      0x00\n        /* \"#utility.yul\":19811:19826   */\n      revert\n        /* \"#utility.yul\":19838:20018   */\n    tag_454:\n        /* \"#utility.yul\":19886:19963   */\n      0x4e487b7100000000000000000000000000000000000000000000000000000000\n        /* \"#utility.yul\":19883:19884   */\n      0x00\n        /* \"#utility.yul\":19876:19964   */\n      mstore\n        /* \"#utility.yul\":19983:19987   */\n      0x22\n        /* \"#utility.yul\":19980:19981   */\n      0x04\n        /* \"#utility.yul\":19973:19988   */\n      mstore\n        /* \"#utility.yul\":20007:20011   */\n      0x24\n        /* \"#utility.yul\":20004:20005   */\n      0x00\n        /* \"#utility.yul\":19997:20012   */\n      revert\n        /* \"#utility.yul\":20024:20204   */\n    tag_192:\n        /* \"#utility.yul\":20072:20149   */\n      0x4e487b7100000000000000000000000000000000000000000000000000000000\n        /* \"#utility.yul\":20069:20070   */\n      0x00\n        /* \"#utility.yul\":20062:20150   */\n      mstore\n        /* \"#utility.yul\":20169:20173   */\n      0x32\n        /* \"#utility.yul\":20166:20167   */\n      0x04\n        /* \"#utility.yul\":20159:20174   */\n      mstore\n        /* \"#utility.yul\":20193:20197   */\n      0x24\n        /* \"#utility.yul\":20190:20191   */\n      0x00\n        /* \"#utility.yul\":20183:20198   */\n      revert\n        /* \"#utility.yul\":20210:20390   */\n    tag_182:\n        /* \"#utility.yul\":20258:20335   */\n      0x4e487b7100000000000000000000000000000000000000000000000000000000\n        /* \"#utility.yul\":20255:20256   */\n      0x00\n        /* \"#utility.yul\":20248:20336   */\n      mstore\n        /* \"#utility.yul\":20355:20359   */\n      0x41\n        /* \"#utility.yul\":20352:20353   */\n      0x04\n        /* \"#utility.yul\":20345:20360   */\n      mstore\n        /* \"#utility.yul\":20379:20383   */\n      0x24\n        /* \"#utility.yul\":20376:20377   */\n      0x00\n        /* \"#utility.yul\":20369:20384   */\n      revert\n        /* \"#utility.yul\":20396:20513   */\n    tag_245:\n        /* \"#utility.yul\":20505:20506   */\n      0x00\n        /* \"#utility.yul\":20502:20503   */\n      dup1\n        /* \"#utility.yul\":20495:20507   */\n      revert\n        /* \"#utility.yul\":20519:20636   */\n    tag_223:\n        /* \"#utility.yul\":20628:20629   */\n      0x00\n        /* \"#utility.yul\":20625:20626   */\n      dup1\n        /* \"#utility.yul\":20618:20630   */\n      revert\n        /* \"#utility.yul\":20642:20759   */\n    tag_275:\n        /* \"#utility.yul\":20751:20752   */\n      0x00\n        /* \"#utility.yul\":20748:20749   */\n      dup1\n        /* \"#utility.yul\":20741:20753   */\n      revert\n        /* \"#utility.yul\":20765:20882   */\n    tag_254:\n        /* \"#utility.yul\":20874:20875   */\n      0x00\n        /* \"#utility.yul\":20871:20872   */\n      dup1\n        /* \"#utility.yul\":20864:20876   */\n      revert\n        /* \"#utility.yul\":20888:20990   */\n    tag_316:\n        /* \"#utility.yul\":20929:20935   */\n      0x00\n        /* \"#utility.yul\":20980:20982   */\n      0x1f\n        /* \"#utility.yul\":20976:20983   */\n      not\n        /* \"#utility.yul\":20971:20973   */\n      0x1f\n        /* \"#utility.yul\":20964:20969   */\n      dup4\n        /* \"#utility.yul\":20960:20974   */\n      add\n        /* \"#utility.yul\":20956:20984   */\n      and\n        /* \"#utility.yul\":20946:20984   */\n      swap1\n      pop\n        /* \"#utility.yul\":20888:20990   */\n      swap2\n      swap1\n      pop\n      jump\t// out\n        /* \"#utility.yul\":20996:21168   */\n    tag_335:\n        /* \"#utility.yul\":21136:21160   */\n      0x6e6f74206f776e6572206e6f7220617070726f76656400000000000000000000\n        /* \"#utility.yul\":21132:21133   */\n      0x00\n        /* \"#utility.yul\":21124:21130   */\n      dup3\n        /* \"#utility.yul\":21120:21134   */\n      add\n        /* \"#utility.yul\":21113:21161   */\n      mstore\n        /* \"#utility.yul\":20996:21168   */\n      pop\n      jump\t// out\n        /* \"#utility.yul\":21174:21352   */\n    tag_340:\n        /* \"#utility.yul\":21314:21344   */\n      0x7472616e7366657220746f20746865207a65726f206164647265737300000000\n        /* \"#utility.yul\":21310:21311   */\n      0x00\n        /* \"#utility.yul\":21302:21308   */\n      dup3\n        /* \"#utility.yul\":21298:21312   */\n      add\n        /* \"#utility.yul\":21291:21345   */\n      mstore\n        /* \"#utility.yul\":21174:21352   */\n      pop\n      jump\t// out\n        /* \"#utility.yul\":21358:21538   */\n    tag_345:\n        /* \"#utility.yul\":21498:21530   */\n      0x6e6f74206f776e6572206e6f7220617070726f76656420666f7220616c6c0000\n        /* \"#utility.yul\":21494:21495   */\n      0x00\n        /* \"#utility.yul\":21486:21492   */\n      dup3\n        /* \"#utility.yul\":21482:21496   */\n      add\n        /* \"#utility.yul\":21475:21531   */\n      mstore\n        /* \"#utility.yul\":21358:21538   */\n      pop\n      jump\t// out\n        /* \"#utility.yul\":21544:21713   */\n    tag_350:\n        /* \"#utility.yul\":21684:21705   */\n      0x746f6b656e20646f65736e277420657869737400000000000000000000000000\n        /* \"#utility.yul\":21680:21681   */\n      0x00\n        /* \"#utility.yul\":21672:21678   */\n      dup3\n        /* \"#utility.yul\":21668:21682   */\n      add\n        /* \"#utility.yul\":21661:21706   */\n      mstore\n        /* \"#utility.yul\":21544:21713   */\n      pop\n      jump\t// out\n        /* \"#utility.yul\":21719:21889   */\n    tag_355:\n        /* \"#utility.yul\":21859:21881   */\n      0x6f776e6572203d207a65726f2061646472657373000000000000000000000000\n        /* \"#utility.yul\":21855:21856   */\n      0x00\n        /* \"#utility.yul\":21847:21853   */\n      dup3\n        /* \"#utility.yul\":21843:21857   */\n      add\n        /* \"#utility.yul\":21836:21882   */\n      mstore\n        /* \"#utility.yul\":21719:21889   */\n      pop\n      jump\t// out\n        /* \"#utility.yul\":21895:22060   */\n    tag_360:\n        /* \"#utility.yul\":22035:22052   */\n      0x546f6b656e204e6f742045786973740000000000000000000000000000000000\n        /* \"#utility.yul\":22031:22032   */\n      0x00\n        /* \"#utility.yul\":22023:22029   */\n      dup3\n        /* \"#utility.yul\":22019:22033   */\n      add\n        /* \"#utility.yul\":22012:22053   */\n      mstore\n        /* \"#utility.yul\":21895:22060   */\n      pop\n      jump\t// out\n        /* \"#utility.yul\":22066:22225   */\n    tag_365:\n        /* \"#utility.yul\":22206:22217   */\n      0x6e6f74206f776e65720000000000000000000000000000000000000000000000\n        /* \"#utility.yul\":22202:22203   */\n      0x00\n        /* \"#utility.yul\":22194:22200   */\n      dup3\n        /* \"#utility.yul\":22190:22204   */\n      add\n        /* \"#utility.yul\":22183:22218   */\n      mstore\n        /* \"#utility.yul\":22066:22225   */\n      pop\n      jump\t// out\n        /* \"#utility.yul\":22231:22353   */\n    tag_229:\n        /* \"#utility.yul\":22304:22328   */\n      tag_486\n        /* \"#utility.yul\":22322:22327   */\n      dup2\n        /* \"#utility.yul\":22304:22328   */\n      tag_302\n      jump\t// in\n    tag_486:\n        /* \"#utility.yul\":22297:22302   */\n      dup2\n        /* \"#utility.yul\":22294:22329   */\n      eq\n        /* \"#utility.yul\":22284:22347   */\n      tag_487\n      jumpi\n        /* \"#utility.yul\":22343:22344   */\n      0x00\n        /* \"#utility.yul\":22340:22341   */\n      dup1\n        /* \"#utility.yul\":22333:22345   */\n      revert\n        /* \"#utility.yul\":22284:22347   */\n    tag_487:\n        /* \"#utility.yul\":22231:22353   */\n      pop\n      jump\t// out\n        /* \"#utility.yul\":22359:22475   */\n    tag_233:\n        /* \"#utility.yul\":22429:22450   */\n      tag_489\n        /* \"#utility.yul\":22444:22449   */\n      dup2\n        /* \"#utility.yul\":22429:22450   */\n      tag_306\n      jump\t// in\n    tag_489:\n        /* \"#utility.yul\":22422:22427   */\n      dup2\n        /* \"#utility.yul\":22419:22451   */\n      eq\n        /* \"#utility.yul\":22409:22469   */\n      tag_490\n      jumpi\n        /* \"#utility.yul\":22465:22466   */\n      0x00\n        /* \"#utility.yul\":22462:22463   */\n      dup1\n        /* \"#utility.yul\":22455:22467   */\n      revert\n        /* \"#utility.yul\":22409:22469   */\n    tag_490:\n        /* \"#utility.yul\":22359:22475   */\n      pop\n      jump\t// out\n        /* \"#utility.yul\":22481:22601   */\n    tag_237:\n        /* \"#utility.yul\":22553:22576   */\n      tag_492\n        /* \"#utility.yul\":22570:22575   */\n      dup2\n        /* \"#utility.yul\":22553:22576   */\n      tag_440\n      jump\t// in\n    tag_492:\n        /* \"#utility.yul\":22546:22551   */\n      dup2\n        /* \"#utility.yul\":22543:22577   */\n      eq\n        /* \"#utility.yul\":22533:22595   */\n      tag_493\n      jumpi\n        /* \"#utility.yul\":22591:22592   */\n      0x00\n        /* \"#utility.yul\":22588:22589   */\n      dup1\n        /* \"#utility.yul\":22581:22593   */\n      revert\n        /* \"#utility.yul\":22533:22595   */\n    tag_493:\n        /* \"#utility.yul\":22481:22601   */\n      pop\n      jump\t// out\n        /* \"#utility.yul\":22607:22729   */\n    tag_250:\n        /* \"#utility.yul\":22680:22704   */\n      tag_495\n        /* \"#utility.yul\":22698:22703   */\n      dup2\n        /* \"#utility.yul\":22680:22704   */\n      tag_369\n      jump\t// in\n    tag_495:\n        /* \"#utility.yul\":22673:22678   */\n      dup2\n        /* \"#utility.yul\":22670:22705   */\n      eq\n        /* \"#utility.yul\":22660:22723   */\n      tag_496\n      jumpi\n        /* \"#utility.yul\":22719:22720   */\n      0x00\n        /* \"#utility.yul\":22716:22717   */\n      dup1\n        /* \"#utility.yul\":22709:22721   */\n      revert\n        /* \"#utility.yul\":22660:22723   */\n    tag_496:\n        /* \"#utility.yul\":22607:22729   */\n      pop\n      jump\t// out\n\n    auxdata: 0xa26469706673582212204f08897e7f5dce6e81842f41ea9acf9a849f8cbc61cd48e8adf37123a0274c0d64736f6c63430008070033\n}\n",
				"bytecode": {
					"linkReferences": {},
					"object": "60806040523480156200001157600080fd5b506040516200249d3803806200249d8339818101604052810190620000379190620001a3565b818181600090805190602001906200005192919062000075565b5080600190805190602001906200006a92919062000075565b5050505050620003ac565b8280546200008390620002bd565b90600052602060002090601f016020900481019282620000a75760008555620000f3565b82601f10620000c257805160ff1916838001178555620000f3565b82800160010185558215620000f3579182015b82811115620000f2578251825591602001919060010190620000d5565b5b50905062000102919062000106565b5090565b5b808211156200012157600081600090555060010162000107565b5090565b60006200013c620001368462000251565b62000228565b9050828152602081018484840111156200015b576200015a6200038c565b5b6200016884828562000287565b509392505050565b600082601f83011262000188576200018762000387565b5b81516200019a84826020860162000125565b91505092915050565b60008060408385031215620001bd57620001bc62000396565b5b600083015167ffffffffffffffff811115620001de57620001dd62000391565b5b620001ec8582860162000170565b925050602083015167ffffffffffffffff81111562000210576200020f62000391565b5b6200021e8582860162000170565b9150509250929050565b60006200023462000247565b9050620002428282620002f3565b919050565b6000604051905090565b600067ffffffffffffffff8211156200026f576200026e62000358565b5b6200027a826200039b565b9050602081019050919050565b60005b83811015620002a75780820151818401526020810190506200028a565b83811115620002b7576000848401525b50505050565b60006002820490506001821680620002d657607f821691505b60208210811415620002ed57620002ec62000329565b5b50919050565b620002fe826200039b565b810181811067ffffffffffffffff8211171562000320576200031f62000358565b5b80604052505050565b7f4e487b7100000000000000000000000000000000000000000000000000000000600052602260045260246000fd5b7f4e487b7100000000000000000000000000000000000000000000000000000000600052604160045260246000fd5b600080fd5b600080fd5b600080fd5b600080fd5b6000601f19601f8301169050919050565b6120e180620003bc6000396000f3fe608060405234801561001057600080fd5b50600436106100ea5760003560e01c806370a082311161008c578063a22cb46511610066578063a22cb4651461025b578063b88d4fde14610277578063c87b56dd14610293578063e985e9c5146102c3576100ea565b806370a08231146101f157806395d89b41146102215780639fc2ee4b1461023f576100ea565b8063095ea7b3116100c8578063095ea7b31461016d57806323b872dd1461018957806342842e0e146101a55780636352211e146101c1576100ea565b806301ffc9a7146100ef57806306fdde031461011f578063081812fc1461013d575b600080fd5b610109600480360381019061010491906116f3565b6102f3565b6040516101169190611a01565b60405180910390f35b61012761042d565b6040516101349190611a1c565b60405180910390f35b6101576004803603810190610152919061174d565b6104bb565b6040516101649190611963565b60405180910390f35b610187600480360381019061018291906116b3565b61059a565b005b6101a3600480360381019061019e919061159d565b6106e1565b005b6101bf60048036038101906101ba919061159d565b61074a565b005b6101db60048036038101906101d6919061174d565b61076a565b6040516101e89190611963565b60405180910390f35b61020b60048036038101906102069190611530565b610817565b6040516102189190611b1e565b60405180910390f35b6102296108cf565b6040516102369190611a1c565b60405180910390f35b6102596004803603810190610254919061159d565b61095d565b005b61027560048036038101906102709190611673565b6109d1565b005b610291600480360381019061028c91906115f0565b610ace565b005b6102ad60048036038101906102a8919061174d565b610b39565b6040516102ba9190611a1c565b60405180910390f35b6102dd60048036038101906102d8919061155d565b610c3b565b6040516102ea9190611a01565b60405180910390f35b60007f80ac58cd000000000000000000000000000000000000000000000000000000007bffffffffffffffffffffffffffffffffffffffffffffffffffffffff1916827bffffffffffffffffffffffffffffffffffffffffffffffffffffffff191614806103be57507f01ffc9a7000000000000000000000000000000000000000000000000000000007bffffffffffffffffffffffffffffffffffffffffffffffffffffffff1916827bffffffffffffffffffffffffffffffffffffffffffffffffffffffff1916145b8061042657507f5b5e139f000000000000000000000000000000000000000000000000000000007bffffffffffffffffffffffffffffffffffffffffffffffffffffffff1916827bffffffffffffffffffffffffffffffffffffffffffffffffffffffff1916145b9050919050565b6000805461043a90611d43565b80601f016020809104026020016040519081016040528092919081815260200182805461046690611d43565b80156104b35780601f10610488576101008083540402835291602001916104b3565b820191906000526020600020905b81548152906001019060200180831161049657829003601f168201915b505050505081565b60008073ffffffffffffffffffffffffffffffffffffffff166002600084815260200190815260200160002060009054906101000a900473ffffffffffffffffffffffffffffffffffffffff1673ffffffffffffffffffffffffffffffffffffffff16141561055f576040517f08c379a000000000000000000000000000000000000000000000000000000000815260040161055690611a9e565b60405180910390fd5b6004600083815260200190815260200160002060009054906101000a900473ffffffffffffffffffffffffffffffffffffffff169050919050565b60006002600083815260200190815260200160002060009054906101000a900473ffffffffffffffffffffffffffffffffffffffff1690508073ffffffffffffffffffffffffffffffffffffffff163373ffffffffffffffffffffffffffffffffffffffff1614806106925750600560008273ffffffffffffffffffffffffffffffffffffffff1673ffffffffffffffffffffffffffffffffffffffff16815260200190815260200160002060003373ffffffffffffffffffffffffffffffffffffffff1673ffffffffffffffffffffffffffffffffffffffff16815260200190815260200160002060009054906101000a900460ff165b6106d1576040517f08c379a00000000000000000000000000000000000000000000000000000000081526004016106c890611a7e565b60405180910390fd5b6106dc818484610ccf565b505050565b60006106ec8261076a565b90506106f9813384610d81565b610738576040517f08c379a000000000000000000000000000000000000000000000000000000000815260040161072f90611a3e565b60405180910390fd5b61074481858585610eb5565b50505050565b61076583838360405180602001604052806000815250610ace565b505050565b60006002600083815260200190815260200160002060009054906101000a900473ffffffffffffffffffffffffffffffffffffffff169050600073ffffffffffffffffffffffffffffffffffffffff168173ffffffffffffffffffffffffffffffffffffffff161415610812576040517f08c379a000000000000000000000000000000000000000000000000000000000815260040161080990611a9e565b60405180910390fd5b919050565b60008073ffffffffffffffffffffffffffffffffffffffff168273ffffffffffffffffffffffffffffffffffffffff161415610888576040517f08c379a000000000000000000000000000000000000000000000000000000000815260040161087f90611abe565b60405180910390fd5b600360008373ffffffffffffffffffffffffffffffffffffffff1673ffffffffffffffffffffffffffffffffffffffff168152602001908152602001600020549050919050565b600180546108dc90611d43565b80601f016020809104026020016040519081016040528092919081815260200182805461090890611d43565b80156109555780601f1061092a57610100808354040283529160200191610955565b820191906000526020600020905b81548152906001019060200180831161093857829003601f168201915b505050505081565b3073ffffffffffffffffffffffffffffffffffffffff166323b872dd8484846040518463ffffffff1660e01b815260040161099a9392919061197e565b600060405180830381600087803b1580156109b457600080fd5b505af11580156109c8573d6000803e3d6000fd5b50505050505050565b80600560003373ffffffffffffffffffffffffffffffffffffffff1673ffffffffffffffffffffffffffffffffffffffff16815260200190815260200160002060008473ffffffffffffffffffffffffffffffffffffffff1673ffffffffffffffffffffffffffffffffffffffff16815260200190815260200160002060006101000a81548160ff0219169083151502179055508173ffffffffffffffffffffffffffffffffffffffff163373ffffffffffffffffffffffffffffffffffffffff167f17307eab39ab6107e8899845ad3d59bd9653f200f220920489ca2b5937696c3183604051610ac29190611a01565b60405180910390a35050565b6000610ad98361076a565b9050610ae6813385610d81565b610b25576040517f08c379a0000000000000000000000000000000000000000000000000000000008152600401610b1c90611a3e565b60405180910390fd5b610b328186868686611100565b5050505050565b6060600073ffffffffffffffffffffffffffffffffffffffff166002600084815260200190815260200160002060009054906101000a900473ffffffffffffffffffffffffffffffffffffffff1673ffffffffffffffffffffffffffffffffffffffff161415610bde576040517f08c379a0000000000000000000000000000000000000000000000000000000008152600401610bd590611ade565b60405180910390fd5b6000610be861111f565b90506000815111610c085760405180602001604052806000815250610c33565b80610c1284611136565b604051602001610c2392919061193f565b6040516020818303038152906040525b915050919050565b6000600560008473ffffffffffffffffffffffffffffffffffffffff1673ffffffffffffffffffffffffffffffffffffffff16815260200190815260200160002060008373ffffffffffffffffffffffffffffffffffffffff1673ffffffffffffffffffffffffffffffffffffffff16815260200190815260200160002060009054906101000a900460ff16905092915050565b816004600083815260200190815260200160002060006101000a81548173ffffffffffffffffffffffffffffffffffffffff021916908373ffffffffffffffffffffffffffffffffffffffff160217905550808273ffffffffffffffffffffffffffffffffffffffff168473ffffffffffffffffffffffffffffffffffffffff167f8c5be1e5ebec7d5bd14f71427d1e84f3dd0314c0f7b2291e5b200ac8c7c3b92560405160405180910390a4505050565b60008373ffffffffffffffffffffffffffffffffffffffff168373ffffffffffffffffffffffffffffffffffffffff161480610e1b57508273ffffffffffffffffffffffffffffffffffffffff166004600084815260200190815260200160002060009054906101000a900473ffffffffffffffffffffffffffffffffffffffff1673ffffffffffffffffffffffffffffffffffffffff16145b80610eac5750600560008573ffffffffffffffffffffffffffffffffffffffff1673ffffffffffffffffffffffffffffffffffffffff16815260200190815260200160002060008473ffffffffffffffffffffffffffffffffffffffff1673ffffffffffffffffffffffffffffffffffffffff16815260200190815260200160002060009054906101000a900460ff165b90509392505050565b8373ffffffffffffffffffffffffffffffffffffffff168373ffffffffffffffffffffffffffffffffffffffff1614610f23576040517f08c379a0000000000000000000000000000000000000000000000000000000008152600401610f1a90611afe565b60405180910390fd5b600073ffffffffffffffffffffffffffffffffffffffff168273ffffffffffffffffffffffffffffffffffffffff161415610f93576040517f08c379a0000000000000000000000000000000000000000000000000000000008152600401610f8a90611a5e565b60405180910390fd5b610f9f84600083610ccf565b6001600360008573ffffffffffffffffffffffffffffffffffffffff1673ffffffffffffffffffffffffffffffffffffffff1681526020019081526020016000206000828254610fef9190611c59565b925050819055506001600360008473ffffffffffffffffffffffffffffffffffffffff1673ffffffffffffffffffffffffffffffffffffffff16815260200190815260200160002060008282546110469190611bd2565b92505081905550816002600083815260200190815260200160002060006101000a81548173ffffffffffffffffffffffffffffffffffffffff021916908373ffffffffffffffffffffffffffffffffffffffff160217905550808273ffffffffffffffffffffffffffffffffffffffff168473ffffffffffffffffffffffffffffffffffffffff167fddf252ad1be2c89b69c2b068fc378daa952ba7f163c4a11628f55a4df523b3ef60405160405180910390a450505050565b61110c85858585610eb5565b61111884848484611297565b5050505050565b606060405180602001604052806000815250905090565b6060600082141561117e576040518060400160405280600181526020017f30000000000000000000000000000000000000000000000000000000000000008152509050611292565b600082905060005b600082146111b057808061119990611da6565b915050600a826111a99190611c28565b9150611186565b60008167ffffffffffffffff8111156111cc576111cb611edc565b5b6040519080825280601f01601f1916602001820160405280156111fe5781602001600182028036833780820191505090505b5090505b6000851461128b576001826112179190611c59565b9150600a856112269190611def565b60306112329190611bd2565b60f81b81838151811061124857611247611ead565b5b60200101907effffffffffffffffffffffffffffffffffffffffffffffffffffffffffffff1916908160001a905350600a856112849190611c28565b9450611202565b8093505050505b919050565b60008373ffffffffffffffffffffffffffffffffffffffff163b1115611451578273ffffffffffffffffffffffffffffffffffffffff1663150b7a02338685856040518563ffffffff1660e01b81526004016112f694939291906119b5565b602060405180830381600087803b15801561131057600080fd5b505af192505050801561134157506040513d601f19601f8201168201806040525081019061133e9190611720565b60015b6113c6573d8060008114611371576040519150601f19603f3d011682016040523d82523d6000602084013e611376565b606091505b506000815114156113be57836040517f64a0ae920000000000000000000000000000000000000000000000000000000081526004016113b59190611963565b60405180910390fd5b805181602001fd5b63150b7a0260e01b7bffffffffffffffffffffffffffffffffffffffffffffffffffffffff1916817bffffffffffffffffffffffffffffffffffffffffffffffffffffffff19161461144f57836040517f64a0ae920000000000000000000000000000000000000000000000000000000081526004016114469190611963565b60405180910390fd5b505b50505050565b600061146a61146584611b5e565b611b39565b90508281526020810184848401111561148657611485611f10565b5b611491848285611d01565b509392505050565b6000813590506114a88161204f565b92915050565b6000813590506114bd81612066565b92915050565b6000813590506114d28161207d565b92915050565b6000815190506114e78161207d565b92915050565b600082601f83011261150257611501611f0b565b5b8135611512848260208601611457565b91505092915050565b60008135905061152a81612094565b92915050565b60006020828403121561154657611545611f1a565b5b600061155484828501611499565b91505092915050565b6000806040838503121561157457611573611f1a565b5b600061158285828601611499565b925050602061159385828601611499565b9150509250929050565b6000806000606084860312156115b6576115b5611f1a565b5b60006115c486828701611499565b93505060206115d586828701611499565b92505060406115e68682870161151b565b9150509250925092565b6000806000806080858703121561160a57611609611f1a565b5b600061161887828801611499565b945050602061162987828801611499565b935050604061163a8782880161151b565b925050606085013567ffffffffffffffff81111561165b5761165a611f15565b5b611667878288016114ed565b91505092959194509250565b6000806040838503121561168a57611689611f1a565b5b600061169885828601611499565b92505060206116a9858286016114ae565b9150509250929050565b600080604083850312156116ca576116c9611f1a565b5b60006116d885828601611499565b92505060206116e98582860161151b565b9150509250929050565b60006020828403121561170957611708611f1a565b5b6000611717848285016114c3565b91505092915050565b60006020828403121561173657611735611f1a565b5b6000611744848285016114d8565b91505092915050565b60006020828403121561176357611762611f1a565b5b60006117718482850161151b565b91505092915050565b61178381611c8d565b82525050565b61179281611c9f565b82525050565b60006117a382611b8f565b6117ad8185611ba5565b93506117bd818560208601611d10565b6117c681611f1f565b840191505092915050565b60006117dc82611b9a565b6117e68185611bb6565b93506117f6818560208601611d10565b6117ff81611f1f565b840191505092915050565b600061181582611b9a565b61181f8185611bc7565b935061182f818560208601611d10565b80840191505092915050565b6000611848601683611bb6565b915061185382611f30565b602082019050919050565b600061186b601c83611bb6565b915061187682611f59565b602082019050919050565b600061188e601e83611bb6565b915061189982611f82565b602082019050919050565b60006118b1601383611bb6565b91506118bc82611fab565b602082019050919050565b60006118d4601483611bb6565b91506118df82611fd4565b602082019050919050565b60006118f7600f83611bb6565b915061190282611ffd565b602082019050919050565b600061191a600983611bb6565b915061192582612026565b602082019050919050565b61193981611cf7565b82525050565b600061194b828561180a565b9150611957828461180a565b91508190509392505050565b6000602082019050611978600083018461177a565b92915050565b6000606082019050611993600083018661177a565b6119a0602083018561177a565b6119ad6040830184611930565b949350505050565b60006080820190506119ca600083018761177a565b6119d7602083018661177a565b6119e46040830185611930565b81810360608301526119f68184611798565b905095945050505050565b6000602082019050611a166000830184611789565b92915050565b60006020820190508181036000830152611a3681846117d1565b905092915050565b60006020820190508181036000830152611a578161183b565b9050919050565b60006020820190508181036000830152611a778161185e565b9050919050565b60006020820190508181036000830152611a9781611881565b9050919050565b60006020820190508181036000830152611ab7816118a4565b9050919050565b60006020820190508181036000830152611ad7816118c7565b9050919050565b60006020820190508181036000830152611af7816118ea565b9050919050565b60006020820190508181036000830152611b178161190d565b9050919050565b6000602082019050611b336000830184611930565b92915050565b6000611b43611b54565b9050611b4f8282611d75565b919050565b6000604051905090565b600067ffffffffffffffff821115611b7957611b78611edc565b5b611b8282611f1f565b9050602081019050919050565b600081519050919050565b600081519050919050565b600082825260208201905092915050565b600082825260208201905092915050565b600081905092915050565b6000611bdd82611cf7565b9150611be883611cf7565b9250827fffffffffffffffffffffffffffffffffffffffffffffffffffffffffffffffff03821115611c1d57611c1c611e20565b5b828201905092915050565b6000611c3382611cf7565b9150611c3e83611cf7565b925082611c4e57611c4d611e4f565b5b828204905092915050565b6000611c6482611cf7565b9150611c6f83611cf7565b925082821015611c8257611c81611e20565b5b828203905092915050565b6000611c9882611cd7565b9050919050565b60008115159050919050565b60007fffffffff0000000000000000000000000000000000000000000000000000000082169050919050565b600073ffffffffffffffffffffffffffffffffffffffff82169050919050565b6000819050919050565b82818337600083830152505050565b60005b83811015611d2e578082015181840152602081019050611d13565b83811115611d3d576000848401525b50505050565b60006002820490506001821680611d5b57607f821691505b60208210811415611d6f57611d6e611e7e565b5b50919050565b611d7e82611f1f565b810181811067ffffffffffffffff82111715611d9d57611d9c611edc565b5b80604052505050565b6000611db182611cf7565b91507fffffffffffffffffffffffffffffffffffffffffffffffffffffffffffffffff821415611de457611de3611e20565b5b600182019050919050565b6000611dfa82611cf7565b9150611e0583611cf7565b925082611e1557611e14611e4f565b5b828206905092915050565b7f4e487b7100000000000000000000000000000000000000000000000000000000600052601160045260246000fd5b7f4e487b7100000000000000000000000000000000000000000000000000000000600052601260045260246000fd5b7f4e487b7100000000000000000000000000000000000000000000000000000000600052602260045260246000fd5b7f4e487b7100000000000000000000000000000000000000000000000000000000600052603260045260246000fd5b7f4e487b7100000000000000000000000000000000000000000000000000000000600052604160045260246000fd5b600080fd5b600080fd5b600080fd5b600080fd5b6000601f19601f8301169050919050565b7f6e6f74206f776e6572206e6f7220617070726f76656400000000000000000000600082015250565b7f7472616e7366657220746f20746865207a65726f206164647265737300000000600082015250565b7f6e6f74206f776e6572206e6f7220617070726f76656420666f7220616c6c0000600082015250565b7f746f6b656e20646f65736e277420657869737400000000000000000000000000600082015250565b7f6f776e6572203d207a65726f2061646472657373000000000000000000000000600082015250565b7f546f6b656e204e6f742045786973740000000000000000000000000000000000600082015250565b7f6e6f74206f776e65720000000000000000000000000000000000000000000000600082015250565b61205881611c8d565b811461206357600080fd5b50565b61206f81611c9f565b811461207a57600080fd5b50565b61208681611cab565b811461209157600080fd5b50565b61209d81611cf7565b81146120a857600080fd5b5056fea26469706673582212204f08897e7f5dce6e81842f41ea9acf9a849f8cbc61cd48e8adf37123a0274c0d64736f6c63430008070033",
					"opcodes": "PUSH1 0x80 PUSH1 0x40 MSTORE CALLVALUE DUP1 ISZERO PUSH3 0x11 JUMPI PUSH1 0x0 DUP1 REVERT JUMPDEST POP PUSH1 0x40 MLOAD PUSH3 0x249D CODESIZE SUB DUP1 PUSH3 0x249D DUP4 CODECOPY DUP2 DUP2 ADD PUSH1 0x40 MSTORE DUP2 ADD SWAP1 PUSH3 0x37 SWAP2 SWAP1 PUSH3 0x1A3 JUMP JUMPDEST DUP2 DUP2 DUP2 PUSH1 0x0 SWAP1 DUP1 MLOAD SWAP1 PUSH1 0x20 ADD SWAP1 PUSH3 0x51 SWAP3 SWAP2 SWAP1 PUSH3 0x75 JUMP JUMPDEST POP DUP1 PUSH1 0x1 SWAP1 DUP1 MLOAD SWAP1 PUSH1 0x20 ADD SWAP1 PUSH3 0x6A SWAP3 SWAP2 SWAP1 PUSH3 0x75 JUMP JUMPDEST POP POP POP POP POP PUSH3 0x3AC JUMP JUMPDEST DUP3 DUP1 SLOAD PUSH3 0x83 SWAP1 PUSH3 0x2BD JUMP JUMPDEST SWAP1 PUSH1 0x0 MSTORE PUSH1 0x20 PUSH1 0x0 KECCAK256 SWAP1 PUSH1 0x1F ADD PUSH1 0x20 SWAP1 DIV DUP2 ADD SWAP3 DUP3 PUSH3 0xA7 JUMPI PUSH1 0x0 DUP6 SSTORE PUSH3 0xF3 JUMP JUMPDEST DUP3 PUSH1 0x1F LT PUSH3 0xC2 JUMPI DUP1 MLOAD PUSH1 0xFF NOT AND DUP4 DUP1 ADD OR DUP6 SSTORE PUSH3 0xF3 JUMP JUMPDEST DUP3 DUP1 ADD PUSH1 0x1 ADD DUP6 SSTORE DUP3 ISZERO PUSH3 0xF3 JUMPI SWAP2 DUP3 ADD JUMPDEST DUP3 DUP2 GT ISZERO PUSH3 0xF2 JUMPI DUP3 MLOAD DUP3 SSTORE SWAP2 PUSH1 0x20 ADD SWAP2 SWAP1 PUSH1 0x1 ADD SWAP1 PUSH3 0xD5 JUMP JUMPDEST JUMPDEST POP SWAP1 POP PUSH3 0x102 SWAP2 SWAP1 PUSH3 0x106 JUMP JUMPDEST POP SWAP1 JUMP JUMPDEST JUMPDEST DUP1 DUP3 GT ISZERO PUSH3 0x121 JUMPI PUSH1 0x0 DUP2 PUSH1 0x0 SWAP1 SSTORE POP PUSH1 0x1 ADD PUSH3 0x107 JUMP JUMPDEST POP SWAP1 JUMP JUMPDEST PUSH1 0x0 PUSH3 0x13C PUSH3 0x136 DUP5 PUSH3 0x251 JUMP JUMPDEST PUSH3 0x228 JUMP JUMPDEST SWAP1 POP DUP3 DUP2 MSTORE PUSH1 0x20 DUP2 ADD DUP5 DUP5 DUP5 ADD GT ISZERO PUSH3 0x15B JUMPI PUSH3 0x15A PUSH3 0x38C JUMP JUMPDEST JUMPDEST PUSH3 0x168 DUP5 DUP3 DUP6 PUSH3 0x287 JUMP JUMPDEST POP SWAP4 SWAP3 POP POP POP JUMP JUMPDEST PUSH1 0x0 DUP3 PUSH1 0x1F DUP4 ADD SLT PUSH3 0x188 JUMPI PUSH3 0x187 PUSH3 0x387 JUMP JUMPDEST JUMPDEST DUP2 MLOAD PUSH3 0x19A DUP5 DUP3 PUSH1 0x20 DUP7 ADD PUSH3 0x125 JUMP JUMPDEST SWAP2 POP POP SWAP3 SWAP2 POP POP JUMP JUMPDEST PUSH1 0x0 DUP1 PUSH1 0x40 DUP4 DUP6 SUB SLT ISZERO PUSH3 0x1BD JUMPI PUSH3 0x1BC PUSH3 0x396 JUMP JUMPDEST JUMPDEST PUSH1 0x0 DUP4 ADD MLOAD PUSH8 0xFFFFFFFFFFFFFFFF DUP2 GT ISZERO PUSH3 0x1DE JUMPI PUSH3 0x1DD PUSH3 0x391 JUMP JUMPDEST JUMPDEST PUSH3 0x1EC DUP6 DUP3 DUP7 ADD PUSH3 0x170 JUMP JUMPDEST SWAP3 POP POP PUSH1 0x20 DUP4 ADD MLOAD PUSH8 0xFFFFFFFFFFFFFFFF DUP2 GT ISZERO PUSH3 0x210 JUMPI PUSH3 0x20F PUSH3 0x391 JUMP JUMPDEST JUMPDEST PUSH3 0x21E DUP6 DUP3 DUP7 ADD PUSH3 0x170 JUMP JUMPDEST SWAP2 POP POP SWAP3 POP SWAP3 SWAP1 POP JUMP JUMPDEST PUSH1 0x0 PUSH3 0x234 PUSH3 0x247 JUMP JUMPDEST SWAP1 POP PUSH3 0x242 DUP3 DUP3 PUSH3 0x2F3 JUMP JUMPDEST SWAP2 SWAP1 POP JUMP JUMPDEST PUSH1 0x0 PUSH1 0x40 MLOAD SWAP1 POP SWAP1 JUMP JUMPDEST PUSH1 0x0 PUSH8 0xFFFFFFFFFFFFFFFF DUP3 GT ISZERO PUSH3 0x26F JUMPI PUSH3 0x26E PUSH3 0x358 JUMP JUMPDEST JUMPDEST PUSH3 0x27A DUP3 PUSH3 0x39B JUMP JUMPDEST SWAP1 POP PUSH1 0x20 DUP2 ADD SWAP1 POP SWAP2 SWAP1 POP JUMP JUMPDEST PUSH1 0x0 JUMPDEST DUP4 DUP2 LT ISZERO PUSH3 0x2A7 JUMPI DUP1 DUP3 ADD MLOAD DUP2 DUP5 ADD MSTORE PUSH1 0x20 DUP2 ADD SWAP1 POP PUSH3 0x28A JUMP JUMPDEST DUP4 DUP2 GT ISZERO PUSH3 0x2B7 JUMPI PUSH1 0x0 DUP5 DUP5 ADD MSTORE JUMPDEST POP POP POP POP JUMP JUMPDEST PUSH1 0x0 PUSH1 0x2 DUP3 DIV SWAP1 POP PUSH1 0x1 DUP3 AND DUP1 PUSH3 0x2D6 JUMPI PUSH1 0x7F DUP3 AND SWAP2 POP JUMPDEST PUSH1 0x20 DUP3 LT DUP2 EQ ISZERO PUSH3 0x2ED JUMPI PUSH3 0x2EC PUSH3 0x329 JUMP JUMPDEST JUMPDEST POP SWAP2 SWAP1 POP JUMP JUMPDEST PUSH3 0x2FE DUP3 PUSH3 0x39B JUMP JUMPDEST DUP2 ADD DUP2 DUP2 LT PUSH8 0xFFFFFFFFFFFFFFFF DUP3 GT OR ISZERO PUSH3 0x320 JUMPI PUSH3 0x31F PUSH3 0x358 JUMP JUMPDEST JUMPDEST DUP1 PUSH1 0x40 MSTORE POP POP POP JUMP JUMPDEST PUSH32 0x4E487B7100000000000000000000000000000000000000000000000000000000 PUSH1 0x0 MSTORE PUSH1 0x22 PUSH1 0x4 MSTORE PUSH1 0x24 PUSH1 0x0 REVERT JUMPDEST PUSH32 0x4E487B7100000000000000000000000000000000000000000000000000000000 PUSH1 0x0 MSTORE PUSH1 0x41 PUSH1 0x4 MSTORE PUSH1 0x24 PUSH1 0x0 REVERT JUMPDEST PUSH1 0x0 DUP1 REVERT JUMPDEST PUSH1 0x0 DUP1 REVERT JUMPDEST PUSH1 0x0 DUP1 REVERT JUMPDEST PUSH1 0x0 DUP1 REVERT JUMPDEST PUSH1 0x0 PUSH1 0x1F NOT PUSH1 0x1F DUP4 ADD AND SWAP1 POP SWAP2 SWAP1 POP JUMP JUMPDEST PUSH2 0x20E1 DUP1 PUSH3 0x3BC PUSH1 0x0 CODECOPY PUSH1 0x0 RETURN INVALID PUSH1 0x80 PUSH1 0x40 MSTORE CALLVALUE DUP1 ISZERO PUSH2 0x10 JUMPI PUSH1 0x0 DUP1 REVERT JUMPDEST POP PUSH1 0x4 CALLDATASIZE LT PUSH2 0xEA JUMPI PUSH1 0x0 CALLDATALOAD PUSH1 0xE0 SHR DUP1 PUSH4 0x70A08231 GT PUSH2 0x8C JUMPI DUP1 PUSH4 0xA22CB465 GT PUSH2 0x66 JUMPI DUP1 PUSH4 0xA22CB465 EQ PUSH2 0x25B JUMPI DUP1 PUSH4 0xB88D4FDE EQ PUSH2 0x277 JUMPI DUP1 PUSH4 0xC87B56DD EQ PUSH2 0x293 JUMPI DUP1 PUSH4 0xE985E9C5 EQ PUSH2 0x2C3 JUMPI PUSH2 0xEA JUMP JUMPDEST DUP1 PUSH4 0x70A08231 EQ PUSH2 0x1F1 JUMPI DUP1 PUSH4 0x95D89B41 EQ PUSH2 0x221 JUMPI DUP1 PUSH4 0x9FC2EE4B EQ PUSH2 0x23F JUMPI PUSH2 0xEA JUMP JUMPDEST DUP1 PUSH4 0x95EA7B3 GT PUSH2 0xC8 JUMPI DUP1 PUSH4 0x95EA7B3 EQ PUSH2 0x16D JUMPI DUP1 PUSH4 0x23B872DD EQ PUSH2 0x189 JUMPI DUP1 PUSH4 0x42842E0E EQ PUSH2 0x1A5 JUMPI DUP1 PUSH4 0x6352211E EQ PUSH2 0x1C1 JUMPI PUSH2 0xEA JUMP JUMPDEST DUP1 PUSH4 0x1FFC9A7 EQ PUSH2 0xEF JUMPI DUP1 PUSH4 0x6FDDE03 EQ PUSH2 0x11F JUMPI DUP1 PUSH4 0x81812FC EQ PUSH2 0x13D JUMPI JUMPDEST PUSH1 0x0 DUP1 REVERT JUMPDEST PUSH2 0x109 PUSH1 0x4 DUP1 CALLDATASIZE SUB DUP2 ADD SWAP1 PUSH2 0x104 SWAP2 SWAP1 PUSH2 0x16F3 JUMP JUMPDEST PUSH2 0x2F3 JUMP JUMPDEST PUSH1 0x40 MLOAD PUSH2 0x116 SWAP2 SWAP1 PUSH2 0x1A01 JUMP JUMPDEST PUSH1 0x40 MLOAD DUP1 SWAP2 SUB SWAP1 RETURN JUMPDEST PUSH2 0x127 PUSH2 0x42D JUMP JUMPDEST PUSH1 0x40 MLOAD PUSH2 0x134 SWAP2 SWAP1 PUSH2 0x1A1C JUMP JUMPDEST PUSH1 0x40 MLOAD DUP1 SWAP2 SUB SWAP1 RETURN JUMPDEST PUSH2 0x157 PUSH1 0x4 DUP1 CALLDATASIZE SUB DUP2 ADD SWAP1 PUSH2 0x152 SWAP2 SWAP1 PUSH2 0x174D JUMP JUMPDEST PUSH2 0x4BB JUMP JUMPDEST PUSH1 0x40 MLOAD PUSH2 0x164 SWAP2 SWAP1 PUSH2 0x1963 JUMP JUMPDEST PUSH1 0x40 MLOAD DUP1 SWAP2 SUB SWAP1 RETURN JUMPDEST PUSH2 0x187 PUSH1 0x4 DUP1 CALLDATASIZE SUB DUP2 ADD SWAP1 PUSH2 0x182 SWAP2 SWAP1 PUSH2 0x16B3 JUMP JUMPDEST PUSH2 0x59A JUMP JUMPDEST STOP JUMPDEST PUSH2 0x1A3 PUSH1 0x4 DUP1 CALLDATASIZE SUB DUP2 ADD SWAP1 PUSH2 0x19E SWAP2 SWAP1 PUSH2 0x159D JUMP JUMPDEST PUSH2 0x6E1 JUMP JUMPDEST STOP JUMPDEST PUSH2 0x1BF PUSH1 0x4 DUP1 CALLDATASIZE SUB DUP2 ADD SWAP1 PUSH2 0x1BA SWAP2 SWAP1 PUSH2 0x159D JUMP JUMPDEST PUSH2 0x74A JUMP JUMPDEST STOP JUMPDEST PUSH2 0x1DB PUSH1 0x4 DUP1 CALLDATASIZE SUB DUP2 ADD SWAP1 PUSH2 0x1D6 SWAP2 SWAP1 PUSH2 0x174D JUMP JUMPDEST PUSH2 0x76A JUMP JUMPDEST PUSH1 0x40 MLOAD PUSH2 0x1E8 SWAP2 SWAP1 PUSH2 0x1963 JUMP JUMPDEST PUSH1 0x40 MLOAD DUP1 SWAP2 SUB SWAP1 RETURN JUMPDEST PUSH2 0x20B PUSH1 0x4 DUP1 CALLDATASIZE SUB DUP2 ADD SWAP1 PUSH2 0x206 SWAP2 SWAP1 PUSH2 0x1530 JUMP JUMPDEST PUSH2 0x817 JUMP JUMPDEST PUSH1 0x40 MLOAD PUSH2 0x218 SWAP2 SWAP1 PUSH2 0x1B1E JUMP JUMPDEST PUSH1 0x40 MLOAD DUP1 SWAP2 SUB SWAP1 RETURN JUMPDEST PUSH2 0x229 PUSH2 0x8CF JUMP JUMPDEST PUSH1 0x40 MLOAD PUSH2 0x236 SWAP2 SWAP1 PUSH2 0x1A1C JUMP JUMPDEST PUSH1 0x40 MLOAD DUP1 SWAP2 SUB SWAP1 RETURN JUMPDEST PUSH2 0x259 PUSH1 0x4 DUP1 CALLDATASIZE SUB DUP2 ADD SWAP1 PUSH2 0x254 SWAP2 SWAP1 PUSH2 0x159D JUMP JUMPDEST PUSH2 0x95D JUMP JUMPDEST STOP JUMPDEST PUSH2 0x275 PUSH1 0x4 DUP1 CALLDATASIZE SUB DUP2 ADD SWAP1 PUSH2 0x270 SWAP2 SWAP1 PUSH2 0x1673 JUMP JUMPDEST PUSH2 0x9D1 JUMP JUMPDEST STOP JUMPDEST PUSH2 0x291 PUSH1 0x4 DUP1 CALLDATASIZE SUB DUP2 ADD SWAP1 PUSH2 0x28C SWAP2 SWAP1 PUSH2 0x15F0 JUMP JUMPDEST PUSH2 0xACE JUMP JUMPDEST STOP JUMPDEST PUSH2 0x2AD PUSH1 0x4 DUP1 CALLDATASIZE SUB DUP2 ADD SWAP1 PUSH2 0x2A8 SWAP2 SWAP1 PUSH2 0x174D JUMP JUMPDEST PUSH2 0xB39 JUMP JUMPDEST PUSH1 0x40 MLOAD PUSH2 0x2BA SWAP2 SWAP1 PUSH2 0x1A1C JUMP JUMPDEST PUSH1 0x40 MLOAD DUP1 SWAP2 SUB SWAP1 RETURN JUMPDEST PUSH2 0x2DD PUSH1 0x4 DUP1 CALLDATASIZE SUB DUP2 ADD SWAP1 PUSH2 0x2D8 SWAP2 SWAP1 PUSH2 0x155D JUMP JUMPDEST PUSH2 0xC3B JUMP JUMPDEST PUSH1 0x40 MLOAD PUSH2 0x2EA SWAP2 SWAP1 PUSH2 0x1A01 JUMP JUMPDEST PUSH1 0x40 MLOAD DUP1 SWAP2 SUB SWAP1 RETURN JUMPDEST PUSH1 0x0 PUSH32 0x80AC58CD00000000000000000000000000000000000000000000000000000000 PUSH28 0xFFFFFFFFFFFFFFFFFFFFFFFFFFFFFFFFFFFFFFFFFFFFFFFFFFFFFFFF NOT AND DUP3 PUSH28 0xFFFFFFFFFFFFFFFFFFFFFFFFFFFFFFFFFFFFFFFFFFFFFFFFFFFFFFFF NOT AND EQ DUP1 PUSH2 0x3BE JUMPI POP PUSH32 0x1FFC9A700000000000000000000000000000000000000000000000000000000 PUSH28 0xFFFFFFFFFFFFFFFFFFFFFFFFFFFFFFFFFFFFFFFFFFFFFFFFFFFFFFFF NOT AND DUP3 PUSH28 0xFFFFFFFFFFFFFFFFFFFFFFFFFFFFFFFFFFFFFFFFFFFFFFFFFFFFFFFF NOT AND EQ JUMPDEST DUP1 PUSH2 0x426 JUMPI POP PUSH32 0x5B5E139F00000000000000000000000000000000000000000000000000000000 PUSH28 0xFFFFFFFFFFFFFFFFFFFFFFFFFFFFFFFFFFFFFFFFFFFFFFFFFFFFFFFF NOT AND DUP3 PUSH28 0xFFFFFFFFFFFFFFFFFFFFFFFFFFFFFFFFFFFFFFFFFFFFFFFFFFFFFFFF NOT AND EQ JUMPDEST SWAP1 POP SWAP2 SWAP1 POP JUMP JUMPDEST PUSH1 0x0 DUP1 SLOAD PUSH2 0x43A SWAP1 PUSH2 0x1D43 JUMP JUMPDEST DUP1 PUSH1 0x1F ADD PUSH1 0x20 DUP1 SWAP2 DIV MUL PUSH1 0x20 ADD PUSH1 0x40 MLOAD SWAP1 DUP2 ADD PUSH1 0x40 MSTORE DUP1 SWAP3 SWAP2 SWAP1 DUP2 DUP2 MSTORE PUSH1 0x20 ADD DUP3 DUP1 SLOAD PUSH2 0x466 SWAP1 PUSH2 0x1D43 JUMP JUMPDEST DUP1 ISZERO PUSH2 0x4B3 JUMPI DUP1 PUSH1 0x1F LT PUSH2 0x488 JUMPI PUSH2 0x100 DUP1 DUP4 SLOAD DIV MUL DUP4 MSTORE SWAP2 PUSH1 0x20 ADD SWAP2 PUSH2 0x4B3 JUMP JUMPDEST DUP3 ADD SWAP2 SWAP1 PUSH1 0x0 MSTORE PUSH1 0x20 PUSH1 0x0 KECCAK256 SWAP1 JUMPDEST DUP2 SLOAD DUP2 MSTORE SWAP1 PUSH1 0x1 ADD SWAP1 PUSH1 0x20 ADD DUP1 DUP4 GT PUSH2 0x496 JUMPI DUP3 SWAP1 SUB PUSH1 0x1F AND DUP3 ADD SWAP2 JUMPDEST POP POP POP POP POP DUP2 JUMP JUMPDEST PUSH1 0x0 DUP1 PUSH20 0xFFFFFFFFFFFFFFFFFFFFFFFFFFFFFFFFFFFFFFFF AND PUSH1 0x2 PUSH1 0x0 DUP5 DUP2 MSTORE PUSH1 0x20 ADD SWAP1 DUP2 MSTORE PUSH1 0x20 ADD PUSH1 0x0 KECCAK256 PUSH1 0x0 SWAP1 SLOAD SWAP1 PUSH2 0x100 EXP SWAP1 DIV PUSH20 0xFFFFFFFFFFFFFFFFFFFFFFFFFFFFFFFFFFFFFFFF AND PUSH20 0xFFFFFFFFFFFFFFFFFFFFFFFFFFFFFFFFFFFFFFFF AND EQ ISZERO PUSH2 0x55F JUMPI PUSH1 0x40 MLOAD PUSH32 0x8C379A000000000000000000000000000000000000000000000000000000000 DUP2 MSTORE PUSH1 0x4 ADD PUSH2 0x556 SWAP1 PUSH2 0x1A9E JUMP JUMPDEST PUSH1 0x40 MLOAD DUP1 SWAP2 SUB SWAP1 REVERT JUMPDEST PUSH1 0x4 PUSH1 0x0 DUP4 DUP2 MSTORE PUSH1 0x20 ADD SWAP1 DUP2 MSTORE PUSH1 0x20 ADD PUSH1 0x0 KECCAK256 PUSH1 0x0 SWAP1 SLOAD SWAP1 PUSH2 0x100 EXP SWAP1 DIV PUSH20 0xFFFFFFFFFFFFFFFFFFFFFFFFFFFFFFFFFFFFFFFF AND SWAP1 POP SWAP2 SWAP1 POP JUMP JUMPDEST PUSH1 0x0 PUSH1 0x2 PUSH1 0x0 DUP4 DUP2 MSTORE PUSH1 0x20 ADD SWAP1 DUP2 MSTORE PUSH1 0x20 ADD PUSH1 0x0 KECCAK256 PUSH1 0x0 SWAP1 SLOAD SWAP1 PUSH2 0x100 EXP SWAP1 DIV PUSH20 0xFFFFFFFFFFFFFFFFFFFFFFFFFFFFFFFFFFFFFFFF AND SWAP1 POP DUP1 PUSH20 0xFFFFFFFFFFFFFFFFFFFFFFFFFFFFFFFFFFFFFFFF AND CALLER PUSH20 0xFFFFFFFFFFFFFFFFFFFFFFFFFFFFFFFFFFFFFFFF AND EQ DUP1 PUSH2 0x692 JUMPI POP PUSH1 0x5 PUSH1 0x0 DUP3 PUSH20 0xFFFFFFFFFFFFFFFFFFFFFFFFFFFFFFFFFFFFFFFF AND PUSH20 0xFFFFFFFFFFFFFFFFFFFFFFFFFFFFFFFFFFFFFFFF AND DUP2 MSTORE PUSH1 0x20 ADD SWAP1 DUP2 MSTORE PUSH1 0x20 ADD PUSH1 0x0 KECCAK256 PUSH1 0x0 CALLER PUSH20 0xFFFFFFFFFFFFFFFFFFFFFFFFFFFFFFFFFFFFFFFF AND PUSH20 0xFFFFFFFFFFFFFFFFFFFFFFFFFFFFFFFFFFFFFFFF AND DUP2 MSTORE PUSH1 0x20 ADD SWAP1 DUP2 MSTORE PUSH1 0x20 ADD PUSH1 0x0 KECCAK256 PUSH1 0x0 SWAP1 SLOAD SWAP1 PUSH2 0x100 EXP SWAP1 DIV PUSH1 0xFF AND JUMPDEST PUSH2 0x6D1 JUMPI PUSH1 0x40 MLOAD PUSH32 0x8C379A000000000000000000000000000000000000000000000000000000000 DUP2 MSTORE PUSH1 0x4 ADD PUSH2 0x6C8 SWAP1 PUSH2 0x1A7E JUMP JUMPDEST PUSH1 0x40 MLOAD DUP1 SWAP2 SUB SWAP1 REVERT JUMPDEST PUSH2 0x6DC DUP2 DUP5 DUP5 PUSH2 0xCCF JUMP JUMPDEST POP POP POP JUMP JUMPDEST PUSH1 0x0 PUSH2 0x6EC DUP3 PUSH2 0x76A JUMP JUMPDEST SWAP1 POP PUSH2 0x6F9 DUP2 CALLER DUP5 PUSH2 0xD81 JUMP JUMPDEST PUSH2 0x738 JUMPI PUSH1 0x40 MLOAD PUSH32 0x8C379A000000000000000000000000000000000000000000000000000000000 DUP2 MSTORE PUSH1 0x4 ADD PUSH2 0x72F SWAP1 PUSH2 0x1A3E JUMP JUMPDEST PUSH1 0x40 MLOAD DUP1 SWAP2 SUB SWAP1 REVERT JUMPDEST PUSH2 0x744 DUP2 DUP6 DUP6 DUP6 PUSH2 0xEB5 JUMP JUMPDEST POP POP POP POP JUMP JUMPDEST PUSH2 0x765 DUP4 DUP4 DUP4 PUSH1 0x40 MLOAD DUP1 PUSH1 0x20 ADD PUSH1 0x40 MSTORE DUP1 PUSH1 0x0 DUP2 MSTORE POP PUSH2 0xACE JUMP JUMPDEST POP POP POP JUMP JUMPDEST PUSH1 0x0 PUSH1 0x2 PUSH1 0x0 DUP4 DUP2 MSTORE PUSH1 0x20 ADD SWAP1 DUP2 MSTORE PUSH1 0x20 ADD PUSH1 0x0 KECCAK256 PUSH1 0x0 SWAP1 SLOAD SWAP1 PUSH2 0x100 EXP SWAP1 DIV PUSH20 0xFFFFFFFFFFFFFFFFFFFFFFFFFFFFFFFFFFFFFFFF AND SWAP1 POP PUSH1 0x0 PUSH20 0xFFFFFFFFFFFFFFFFFFFFFFFFFFFFFFFFFFFFFFFF AND DUP2 PUSH20 0xFFFFFFFFFFFFFFFFFFFFFFFFFFFFFFFFFFFFFFFF AND EQ ISZERO PUSH2 0x812 JUMPI PUSH1 0x40 MLOAD PUSH32 0x8C379A000000000000000000000000000000000000000000000000000000000 DUP2 MSTORE PUSH1 0x4 ADD PUSH2 0x809 SWAP1 PUSH2 0x1A9E JUMP JUMPDEST PUSH1 0x40 MLOAD DUP1 SWAP2 SUB SWAP1 REVERT JUMPDEST SWAP2 SWAP1 POP JUMP JUMPDEST PUSH1 0x0 DUP1 PUSH20 0xFFFFFFFFFFFFFFFFFFFFFFFFFFFFFFFFFFFFFFFF AND DUP3 PUSH20 0xFFFFFFFFFFFFFFFFFFFFFFFFFFFFFFFFFFFFFFFF AND EQ ISZERO PUSH2 0x888 JUMPI PUSH1 0x40 MLOAD PUSH32 0x8C379A000000000000000000000000000000000000000000000000000000000 DUP2 MSTORE PUSH1 0x4 ADD PUSH2 0x87F SWAP1 PUSH2 0x1ABE JUMP JUMPDEST PUSH1 0x40 MLOAD DUP1 SWAP2 SUB SWAP1 REVERT JUMPDEST PUSH1 0x3 PUSH1 0x0 DUP4 PUSH20 0xFFFFFFFFFFFFFFFFFFFFFFFFFFFFFFFFFFFFFFFF AND PUSH20 0xFFFFFFFFFFFFFFFFFFFFFFFFFFFFFFFFFFFFFFFF AND DUP2 MSTORE PUSH1 0x20 ADD SWAP1 DUP2 MSTORE PUSH1 0x20 ADD PUSH1 0x0 KECCAK256 SLOAD SWAP1 POP SWAP2 SWAP1 POP JUMP JUMPDEST PUSH1 0x1 DUP1 SLOAD PUSH2 0x8DC SWAP1 PUSH2 0x1D43 JUMP JUMPDEST DUP1 PUSH1 0x1F ADD PUSH1 0x20 DUP1 SWAP2 DIV MUL PUSH1 0x20 ADD PUSH1 0x40 MLOAD SWAP1 DUP2 ADD PUSH1 0x40 MSTORE DUP1 SWAP3 SWAP2 SWAP1 DUP2 DUP2 MSTORE PUSH1 0x20 ADD DUP3 DUP1 SLOAD PUSH2 0x908 SWAP1 PUSH2 0x1D43 JUMP JUMPDEST DUP1 ISZERO PUSH2 0x955 JUMPI DUP1 PUSH1 0x1F LT PUSH2 0x92A JUMPI PUSH2 0x100 DUP1 DUP4 SLOAD DIV MUL DUP4 MSTORE SWAP2 PUSH1 0x20 ADD SWAP2 PUSH2 0x955 JUMP JUMPDEST DUP3 ADD SWAP2 SWAP1 PUSH1 0x0 MSTORE PUSH1 0x20 PUSH1 0x0 KECCAK256 SWAP1 JUMPDEST DUP2 SLOAD DUP2 MSTORE SWAP1 PUSH1 0x1 ADD SWAP1 PUSH1 0x20 ADD DUP1 DUP4 GT PUSH2 0x938 JUMPI DUP3 SWAP1 SUB PUSH1 0x1F AND DUP3 ADD SWAP2 JUMPDEST POP POP POP POP POP DUP2 JUMP JUMPDEST ADDRESS PUSH20 0xFFFFFFFFFFFFFFFFFFFFFFFFFFFFFFFFFFFFFFFF AND PUSH4 0x23B872DD DUP5 DUP5 DUP5 PUSH1 0x40 MLOAD DUP5 PUSH4 0xFFFFFFFF AND PUSH1 0xE0 SHL DUP2 MSTORE PUSH1 0x4 ADD PUSH2 0x99A SWAP4 SWAP3 SWAP2 SWAP1 PUSH2 0x197E JUMP JUMPDEST PUSH1 0x0 PUSH1 0x40 MLOAD DUP1 DUP4 SUB DUP2 PUSH1 0x0 DUP8 DUP1 EXTCODESIZE ISZERO DUP1 ISZERO PUSH2 0x9B4 JUMPI PUSH1 0x0 DUP1 REVERT JUMPDEST POP GAS CALL ISZERO DUP1 ISZERO PUSH2 0x9C8 JUMPI RETURNDATASIZE PUSH1 0x0 DUP1 RETURNDATACOPY RETURNDATASIZE PUSH1 0x0 REVERT JUMPDEST POP POP POP POP POP POP POP JUMP JUMPDEST DUP1 PUSH1 0x5 PUSH1 0x0 CALLER PUSH20 0xFFFFFFFFFFFFFFFFFFFFFFFFFFFFFFFFFFFFFFFF AND PUSH20 0xFFFFFFFFFFFFFFFFFFFFFFFFFFFFFFFFFFFFFFFF AND DUP2 MSTORE PUSH1 0x20 ADD SWAP1 DUP2 MSTORE PUSH1 0x20 ADD PUSH1 0x0 KECCAK256 PUSH1 0x0 DUP5 PUSH20 0xFFFFFFFFFFFFFFFFFFFFFFFFFFFFFFFFFFFFFFFF AND PUSH20 0xFFFFFFFFFFFFFFFFFFFFFFFFFFFFFFFFFFFFFFFF AND DUP2 MSTORE PUSH1 0x20 ADD SWAP1 DUP2 MSTORE PUSH1 0x20 ADD PUSH1 0x0 KECCAK256 PUSH1 0x0 PUSH2 0x100 EXP DUP2 SLOAD DUP2 PUSH1 0xFF MUL NOT AND SWAP1 DUP4 ISZERO ISZERO MUL OR SWAP1 SSTORE POP DUP2 PUSH20 0xFFFFFFFFFFFFFFFFFFFFFFFFFFFFFFFFFFFFFFFF AND CALLER PUSH20 0xFFFFFFFFFFFFFFFFFFFFFFFFFFFFFFFFFFFFFFFF AND PUSH32 0x17307EAB39AB6107E8899845AD3D59BD9653F200F220920489CA2B5937696C31 DUP4 PUSH1 0x40 MLOAD PUSH2 0xAC2 SWAP2 SWAP1 PUSH2 0x1A01 JUMP JUMPDEST PUSH1 0x40 MLOAD DUP1 SWAP2 SUB SWAP1 LOG3 POP POP JUMP JUMPDEST PUSH1 0x0 PUSH2 0xAD9 DUP4 PUSH2 0x76A JUMP JUMPDEST SWAP1 POP PUSH2 0xAE6 DUP2 CALLER DUP6 PUSH2 0xD81 JUMP JUMPDEST PUSH2 0xB25 JUMPI PUSH1 0x40 MLOAD PUSH32 0x8C379A000000000000000000000000000000000000000000000000000000000 DUP2 MSTORE PUSH1 0x4 ADD PUSH2 0xB1C SWAP1 PUSH2 0x1A3E JUMP JUMPDEST PUSH1 0x40 MLOAD DUP1 SWAP2 SUB SWAP1 REVERT JUMPDEST PUSH2 0xB32 DUP2 DUP7 DUP7 DUP7 DUP7 PUSH2 0x1100 JUMP JUMPDEST POP POP POP POP POP JUMP JUMPDEST PUSH1 0x60 PUSH1 0x0 PUSH20 0xFFFFFFFFFFFFFFFFFFFFFFFFFFFFFFFFFFFFFFFF AND PUSH1 0x2 PUSH1 0x0 DUP5 DUP2 MSTORE PUSH1 0x20 ADD SWAP1 DUP2 MSTORE PUSH1 0x20 ADD PUSH1 0x0 KECCAK256 PUSH1 0x0 SWAP1 SLOAD SWAP1 PUSH2 0x100 EXP SWAP1 DIV PUSH20 0xFFFFFFFFFFFFFFFFFFFFFFFFFFFFFFFFFFFFFFFF AND PUSH20 0xFFFFFFFFFFFFFFFFFFFFFFFFFFFFFFFFFFFFFFFF AND EQ ISZERO PUSH2 0xBDE JUMPI PUSH1 0x40 MLOAD PUSH32 0x8C379A000000000000000000000000000000000000000000000000000000000 DUP2 MSTORE PUSH1 0x4 ADD PUSH2 0xBD5 SWAP1 PUSH2 0x1ADE JUMP JUMPDEST PUSH1 0x40 MLOAD DUP1 SWAP2 SUB SWAP1 REVERT JUMPDEST PUSH1 0x0 PUSH2 0xBE8 PUSH2 0x111F JUMP JUMPDEST SWAP1 POP PUSH1 0x0 DUP2 MLOAD GT PUSH2 0xC08 JUMPI PUSH1 0x40 MLOAD DUP1 PUSH1 0x20 ADD PUSH1 0x40 MSTORE DUP1 PUSH1 0x0 DUP2 MSTORE POP PUSH2 0xC33 JUMP JUMPDEST DUP1 PUSH2 0xC12 DUP5 PUSH2 0x1136 JUMP JUMPDEST PUSH1 0x40 MLOAD PUSH1 0x20 ADD PUSH2 0xC23 SWAP3 SWAP2 SWAP1 PUSH2 0x193F JUMP JUMPDEST PUSH1 0x40 MLOAD PUSH1 0x20 DUP2 DUP4 SUB SUB DUP2 MSTORE SWAP1 PUSH1 0x40 MSTORE JUMPDEST SWAP2 POP POP SWAP2 SWAP1 POP JUMP JUMPDEST PUSH1 0x0 PUSH1 0x5 PUSH1 0x0 DUP5 PUSH20 0xFFFFFFFFFFFFFFFFFFFFFFFFFFFFFFFFFFFFFFFF AND PUSH20 0xFFFFFFFFFFFFFFFFFFFFFFFFFFFFFFFFFFFFFFFF AND DUP2 MSTORE PUSH1 0x20 ADD SWAP1 DUP2 MSTORE PUSH1 0x20 ADD PUSH1 0x0 KECCAK256 PUSH1 0x0 DUP4 PUSH20 0xFFFFFFFFFFFFFFFFFFFFFFFFFFFFFFFFFFFFFFFF AND PUSH20 0xFFFFFFFFFFFFFFFFFFFFFFFFFFFFFFFFFFFFFFFF AND DUP2 MSTORE PUSH1 0x20 ADD SWAP1 DUP2 MSTORE PUSH1 0x20 ADD PUSH1 0x0 KECCAK256 PUSH1 0x0 SWAP1 SLOAD SWAP1 PUSH2 0x100 EXP SWAP1 DIV PUSH1 0xFF AND SWAP1 POP SWAP3 SWAP2 POP POP JUMP JUMPDEST DUP2 PUSH1 0x4 PUSH1 0x0 DUP4 DUP2 MSTORE PUSH1 0x20 ADD SWAP1 DUP2 MSTORE PUSH1 0x20 ADD PUSH1 0x0 KECCAK256 PUSH1 0x0 PUSH2 0x100 EXP DUP2 SLOAD DUP2 PUSH20 0xFFFFFFFFFFFFFFFFFFFFFFFFFFFFFFFFFFFFFFFF MUL NOT AND SWAP1 DUP4 PUSH20 0xFFFFFFFFFFFFFFFFFFFFFFFFFFFFFFFFFFFFFFFF AND MUL OR SWAP1 SSTORE POP DUP1 DUP3 PUSH20 0xFFFFFFFFFFFFFFFFFFFFFFFFFFFFFFFFFFFFFFFF AND DUP5 PUSH20 0xFFFFFFFFFFFFFFFFFFFFFFFFFFFFFFFFFFFFFFFF AND PUSH32 0x8C5BE1E5EBEC7D5BD14F71427D1E84F3DD0314C0F7B2291E5B200AC8C7C3B925 PUSH1 0x40 MLOAD PUSH1 0x40 MLOAD DUP1 SWAP2 SUB SWAP1 LOG4 POP POP POP JUMP JUMPDEST PUSH1 0x0 DUP4 PUSH20 0xFFFFFFFFFFFFFFFFFFFFFFFFFFFFFFFFFFFFFFFF AND DUP4 PUSH20 0xFFFFFFFFFFFFFFFFFFFFFFFFFFFFFFFFFFFFFFFF AND EQ DUP1 PUSH2 0xE1B JUMPI POP DUP3 PUSH20 0xFFFFFFFFFFFFFFFFFFFFFFFFFFFFFFFFFFFFFFFF AND PUSH1 0x4 PUSH1 0x0 DUP5 DUP2 MSTORE PUSH1 0x20 ADD SWAP1 DUP2 MSTORE PUSH1 0x20 ADD PUSH1 0x0 KECCAK256 PUSH1 0x0 SWAP1 SLOAD SWAP1 PUSH2 0x100 EXP SWAP1 DIV PUSH20 0xFFFFFFFFFFFFFFFFFFFFFFFFFFFFFFFFFFFFFFFF AND PUSH20 0xFFFFFFFFFFFFFFFFFFFFFFFFFFFFFFFFFFFFFFFF AND EQ JUMPDEST DUP1 PUSH2 0xEAC JUMPI POP PUSH1 0x5 PUSH1 0x0 DUP6 PUSH20 0xFFFFFFFFFFFFFFFFFFFFFFFFFFFFFFFFFFFFFFFF AND PUSH20 0xFFFFFFFFFFFFFFFFFFFFFFFFFFFFFFFFFFFFFFFF AND DUP2 MSTORE PUSH1 0x20 ADD SWAP1 DUP2 MSTORE PUSH1 0x20 ADD PUSH1 0x0 KECCAK256 PUSH1 0x0 DUP5 PUSH20 0xFFFFFFFFFFFFFFFFFFFFFFFFFFFFFFFFFFFFFFFF AND PUSH20 0xFFFFFFFFFFFFFFFFFFFFFFFFFFFFFFFFFFFFFFFF AND DUP2 MSTORE PUSH1 0x20 ADD SWAP1 DUP2 MSTORE PUSH1 0x20 ADD PUSH1 0x0 KECCAK256 PUSH1 0x0 SWAP1 SLOAD SWAP1 PUSH2 0x100 EXP SWAP1 DIV PUSH1 0xFF AND JUMPDEST SWAP1 POP SWAP4 SWAP3 POP POP POP JUMP JUMPDEST DUP4 PUSH20 0xFFFFFFFFFFFFFFFFFFFFFFFFFFFFFFFFFFFFFFFF AND DUP4 PUSH20 0xFFFFFFFFFFFFFFFFFFFFFFFFFFFFFFFFFFFFFFFF AND EQ PUSH2 0xF23 JUMPI PUSH1 0x40 MLOAD PUSH32 0x8C379A000000000000000000000000000000000000000000000000000000000 DUP2 MSTORE PUSH1 0x4 ADD PUSH2 0xF1A SWAP1 PUSH2 0x1AFE JUMP JUMPDEST PUSH1 0x40 MLOAD DUP1 SWAP2 SUB SWAP1 REVERT JUMPDEST PUSH1 0x0 PUSH20 0xFFFFFFFFFFFFFFFFFFFFFFFFFFFFFFFFFFFFFFFF AND DUP3 PUSH20 0xFFFFFFFFFFFFFFFFFFFFFFFFFFFFFFFFFFFFFFFF AND EQ ISZERO PUSH2 0xF93 JUMPI PUSH1 0x40 MLOAD PUSH32 0x8C379A000000000000000000000000000000000000000000000000000000000 DUP2 MSTORE PUSH1 0x4 ADD PUSH2 0xF8A SWAP1 PUSH2 0x1A5E JUMP JUMPDEST PUSH1 0x40 MLOAD DUP1 SWAP2 SUB SWAP1 REVERT JUMPDEST PUSH2 0xF9F DUP5 PUSH1 0x0 DUP4 PUSH2 0xCCF JUMP JUMPDEST PUSH1 0x1 PUSH1 0x3 PUSH1 0x0 DUP6 PUSH20 0xFFFFFFFFFFFFFFFFFFFFFFFFFFFFFFFFFFFFFFFF AND PUSH20 0xFFFFFFFFFFFFFFFFFFFFFFFFFFFFFFFFFFFFFFFF AND DUP2 MSTORE PUSH1 0x20 ADD SWAP1 DUP2 MSTORE PUSH1 0x20 ADD PUSH1 0x0 KECCAK256 PUSH1 0x0 DUP3 DUP3 SLOAD PUSH2 0xFEF SWAP2 SWAP1 PUSH2 0x1C59 JUMP JUMPDEST SWAP3 POP POP DUP2 SWAP1 SSTORE POP PUSH1 0x1 PUSH1 0x3 PUSH1 0x0 DUP5 PUSH20 0xFFFFFFFFFFFFFFFFFFFFFFFFFFFFFFFFFFFFFFFF AND PUSH20 0xFFFFFFFFFFFFFFFFFFFFFFFFFFFFFFFFFFFFFFFF AND DUP2 MSTORE PUSH1 0x20 ADD SWAP1 DUP2 MSTORE PUSH1 0x20 ADD PUSH1 0x0 KECCAK256 PUSH1 0x0 DUP3 DUP3 SLOAD PUSH2 0x1046 SWAP2 SWAP1 PUSH2 0x1BD2 JUMP JUMPDEST SWAP3 POP POP DUP2 SWAP1 SSTORE POP DUP2 PUSH1 0x2 PUSH1 0x0 DUP4 DUP2 MSTORE PUSH1 0x20 ADD SWAP1 DUP2 MSTORE PUSH1 0x20 ADD PUSH1 0x0 KECCAK256 PUSH1 0x0 PUSH2 0x100 EXP DUP2 SLOAD DUP2 PUSH20 0xFFFFFFFFFFFFFFFFFFFFFFFFFFFFFFFFFFFFFFFF MUL NOT AND SWAP1 DUP4 PUSH20 0xFFFFFFFFFFFFFFFFFFFFFFFFFFFFFFFFFFFFFFFF AND MUL OR SWAP1 SSTORE POP DUP1 DUP3 PUSH20 0xFFFFFFFFFFFFFFFFFFFFFFFFFFFFFFFFFFFFFFFF AND DUP5 PUSH20 0xFFFFFFFFFFFFFFFFFFFFFFFFFFFFFFFFFFFFFFFF AND PUSH32 0xDDF252AD1BE2C89B69C2B068FC378DAA952BA7F163C4A11628F55A4DF523B3EF PUSH1 0x40 MLOAD PUSH1 0x40 MLOAD DUP1 SWAP2 SUB SWAP1 LOG4 POP POP POP POP JUMP JUMPDEST PUSH2 0x110C DUP6 DUP6 DUP6 DUP6 PUSH2 0xEB5 JUMP JUMPDEST PUSH2 0x1118 DUP5 DUP5 DUP5 DUP5 PUSH2 0x1297 JUMP JUMPDEST POP POP POP POP POP JUMP JUMPDEST PUSH1 0x60 PUSH1 0x40 MLOAD DUP1 PUSH1 0x20 ADD PUSH1 0x40 MSTORE DUP1 PUSH1 0x0 DUP2 MSTORE POP SWAP1 POP SWAP1 JUMP JUMPDEST PUSH1 0x60 PUSH1 0x0 DUP3 EQ ISZERO PUSH2 0x117E JUMPI PUSH1 0x40 MLOAD DUP1 PUSH1 0x40 ADD PUSH1 0x40 MSTORE DUP1 PUSH1 0x1 DUP2 MSTORE PUSH1 0x20 ADD PUSH32 0x3000000000000000000000000000000000000000000000000000000000000000 DUP2 MSTORE POP SWAP1 POP PUSH2 0x1292 JUMP JUMPDEST PUSH1 0x0 DUP3 SWAP1 POP PUSH1 0x0 JUMPDEST PUSH1 0x0 DUP3 EQ PUSH2 0x11B0 JUMPI DUP1 DUP1 PUSH2 0x1199 SWAP1 PUSH2 0x1DA6 JUMP JUMPDEST SWAP2 POP POP PUSH1 0xA DUP3 PUSH2 0x11A9 SWAP2 SWAP1 PUSH2 0x1C28 JUMP JUMPDEST SWAP2 POP PUSH2 0x1186 JUMP JUMPDEST PUSH1 0x0 DUP2 PUSH8 0xFFFFFFFFFFFFFFFF DUP2 GT ISZERO PUSH2 0x11CC JUMPI PUSH2 0x11CB PUSH2 0x1EDC JUMP JUMPDEST JUMPDEST PUSH1 0x40 MLOAD SWAP1 DUP1 DUP3 MSTORE DUP1 PUSH1 0x1F ADD PUSH1 0x1F NOT AND PUSH1 0x20 ADD DUP3 ADD PUSH1 0x40 MSTORE DUP1 ISZERO PUSH2 0x11FE JUMPI DUP2 PUSH1 0x20 ADD PUSH1 0x1 DUP3 MUL DUP1 CALLDATASIZE DUP4 CALLDATACOPY DUP1 DUP3 ADD SWAP2 POP POP SWAP1 POP JUMPDEST POP SWAP1 POP JUMPDEST PUSH1 0x0 DUP6 EQ PUSH2 0x128B JUMPI PUSH1 0x1 DUP3 PUSH2 0x1217 SWAP2 SWAP1 PUSH2 0x1C59 JUMP JUMPDEST SWAP2 POP PUSH1 0xA DUP6 PUSH2 0x1226 SWAP2 SWAP1 PUSH2 0x1DEF JUMP JUMPDEST PUSH1 0x30 PUSH2 0x1232 SWAP2 SWAP1 PUSH2 0x1BD2 JUMP JUMPDEST PUSH1 0xF8 SHL DUP2 DUP4 DUP2 MLOAD DUP2 LT PUSH2 0x1248 JUMPI PUSH2 0x1247 PUSH2 0x1EAD JUMP JUMPDEST JUMPDEST PUSH1 0x20 ADD ADD SWAP1 PUSH31 0xFFFFFFFFFFFFFFFFFFFFFFFFFFFFFFFFFFFFFFFFFFFFFFFFFFFFFFFFFFFFFF NOT AND SWAP1 DUP2 PUSH1 0x0 BYTE SWAP1 MSTORE8 POP PUSH1 0xA DUP6 PUSH2 0x1284 SWAP2 SWAP1 PUSH2 0x1C28 JUMP JUMPDEST SWAP5 POP PUSH2 0x1202 JUMP JUMPDEST DUP1 SWAP4 POP POP POP POP JUMPDEST SWAP2 SWAP1 POP JUMP JUMPDEST PUSH1 0x0 DUP4 PUSH20 0xFFFFFFFFFFFFFFFFFFFFFFFFFFFFFFFFFFFFFFFF AND EXTCODESIZE GT ISZERO PUSH2 0x1451 JUMPI DUP3 PUSH20 0xFFFFFFFFFFFFFFFFFFFFFFFFFFFFFFFFFFFFFFFF AND PUSH4 0x150B7A02 CALLER DUP7 DUP6 DUP6 PUSH1 0x40 MLOAD DUP6 PUSH4 0xFFFFFFFF AND PUSH1 0xE0 SHL DUP2 MSTORE PUSH1 0x4 ADD PUSH2 0x12F6 SWAP5 SWAP4 SWAP3 SWAP2 SWAP1 PUSH2 0x19B5 JUMP JUMPDEST PUSH1 0x20 PUSH1 0x40 MLOAD DUP1 DUP4 SUB DUP2 PUSH1 0x0 DUP8 DUP1 EXTCODESIZE ISZERO DUP1 ISZERO PUSH2 0x1310 JUMPI PUSH1 0x0 DUP1 REVERT JUMPDEST POP GAS CALL SWAP3 POP POP POP DUP1 ISZERO PUSH2 0x1341 JUMPI POP PUSH1 0x40 MLOAD RETURNDATASIZE PUSH1 0x1F NOT PUSH1 0x1F DUP3 ADD AND DUP3 ADD DUP1 PUSH1 0x40 MSTORE POP DUP2 ADD SWAP1 PUSH2 0x133E SWAP2 SWAP1 PUSH2 0x1720 JUMP JUMPDEST PUSH1 0x1 JUMPDEST PUSH2 0x13C6 JUMPI RETURNDATASIZE DUP1 PUSH1 0x0 DUP2 EQ PUSH2 0x1371 JUMPI PUSH1 0x40 MLOAD SWAP2 POP PUSH1 0x1F NOT PUSH1 0x3F RETURNDATASIZE ADD AND DUP3 ADD PUSH1 0x40 MSTORE RETURNDATASIZE DUP3 MSTORE RETURNDATASIZE PUSH1 0x0 PUSH1 0x20 DUP5 ADD RETURNDATACOPY PUSH2 0x1376 JUMP JUMPDEST PUSH1 0x60 SWAP2 POP JUMPDEST POP PUSH1 0x0 DUP2 MLOAD EQ ISZERO PUSH2 0x13BE JUMPI DUP4 PUSH1 0x40 MLOAD PUSH32 0x64A0AE9200000000000000000000000000000000000000000000000000000000 DUP2 MSTORE PUSH1 0x4 ADD PUSH2 0x13B5 SWAP2 SWAP1 PUSH2 0x1963 JUMP JUMPDEST PUSH1 0x40 MLOAD DUP1 SWAP2 SUB SWAP1 REVERT JUMPDEST DUP1 MLOAD DUP2 PUSH1 0x20 ADD REVERT JUMPDEST PUSH4 0x150B7A02 PUSH1 0xE0 SHL PUSH28 0xFFFFFFFFFFFFFFFFFFFFFFFFFFFFFFFFFFFFFFFFFFFFFFFFFFFFFFFF NOT AND DUP2 PUSH28 0xFFFFFFFFFFFFFFFFFFFFFFFFFFFFFFFFFFFFFFFFFFFFFFFFFFFFFFFF NOT AND EQ PUSH2 0x144F JUMPI DUP4 PUSH1 0x40 MLOAD PUSH32 0x64A0AE9200000000000000000000000000000000000000000000000000000000 DUP2 MSTORE PUSH1 0x4 ADD PUSH2 0x1446 SWAP2 SWAP1 PUSH2 0x1963 JUMP JUMPDEST PUSH1 0x40 MLOAD DUP1 SWAP2 SUB SWAP1 REVERT JUMPDEST POP JUMPDEST POP POP POP POP JUMP JUMPDEST PUSH1 0x0 PUSH2 0x146A PUSH2 0x1465 DUP5 PUSH2 0x1B5E JUMP JUMPDEST PUSH2 0x1B39 JUMP JUMPDEST SWAP1 POP DUP3 DUP2 MSTORE PUSH1 0x20 DUP2 ADD DUP5 DUP5 DUP5 ADD GT ISZERO PUSH2 0x1486 JUMPI PUSH2 0x1485 PUSH2 0x1F10 JUMP JUMPDEST JUMPDEST PUSH2 0x1491 DUP5 DUP3 DUP6 PUSH2 0x1D01 JUMP JUMPDEST POP SWAP4 SWAP3 POP POP POP JUMP JUMPDEST PUSH1 0x0 DUP2 CALLDATALOAD SWAP1 POP PUSH2 0x14A8 DUP2 PUSH2 0x204F JUMP JUMPDEST SWAP3 SWAP2 POP POP JUMP JUMPDEST PUSH1 0x0 DUP2 CALLDATALOAD SWAP1 POP PUSH2 0x14BD DUP2 PUSH2 0x2066 JUMP JUMPDEST SWAP3 SWAP2 POP POP JUMP JUMPDEST PUSH1 0x0 DUP2 CALLDATALOAD SWAP1 POP PUSH2 0x14D2 DUP2 PUSH2 0x207D JUMP JUMPDEST SWAP3 SWAP2 POP POP JUMP JUMPDEST PUSH1 0x0 DUP2 MLOAD SWAP1 POP PUSH2 0x14E7 DUP2 PUSH2 0x207D JUMP JUMPDEST SWAP3 SWAP2 POP POP JUMP JUMPDEST PUSH1 0x0 DUP3 PUSH1 0x1F DUP4 ADD SLT PUSH2 0x1502 JUMPI PUSH2 0x1501 PUSH2 0x1F0B JUMP JUMPDEST JUMPDEST DUP2 CALLDATALOAD PUSH2 0x1512 DUP5 DUP3 PUSH1 0x20 DUP7 ADD PUSH2 0x1457 JUMP JUMPDEST SWAP2 POP POP SWAP3 SWAP2 POP POP JUMP JUMPDEST PUSH1 0x0 DUP2 CALLDATALOAD SWAP1 POP PUSH2 0x152A DUP2 PUSH2 0x2094 JUMP JUMPDEST SWAP3 SWAP2 POP POP JUMP JUMPDEST PUSH1 0x0 PUSH1 0x20 DUP3 DUP5 SUB SLT ISZERO PUSH2 0x1546 JUMPI PUSH2 0x1545 PUSH2 0x1F1A JUMP JUMPDEST JUMPDEST PUSH1 0x0 PUSH2 0x1554 DUP5 DUP3 DUP6 ADD PUSH2 0x1499 JUMP JUMPDEST SWAP2 POP POP SWAP3 SWAP2 POP POP JUMP JUMPDEST PUSH1 0x0 DUP1 PUSH1 0x40 DUP4 DUP6 SUB SLT ISZERO PUSH2 0x1574 JUMPI PUSH2 0x1573 PUSH2 0x1F1A JUMP JUMPDEST JUMPDEST PUSH1 0x0 PUSH2 0x1582 DUP6 DUP3 DUP7 ADD PUSH2 0x1499 JUMP JUMPDEST SWAP3 POP POP PUSH1 0x20 PUSH2 0x1593 DUP6 DUP3 DUP7 ADD PUSH2 0x1499 JUMP JUMPDEST SWAP2 POP POP SWAP3 POP SWAP3 SWAP1 POP JUMP JUMPDEST PUSH1 0x0 DUP1 PUSH1 0x0 PUSH1 0x60 DUP5 DUP7 SUB SLT ISZERO PUSH2 0x15B6 JUMPI PUSH2 0x15B5 PUSH2 0x1F1A JUMP JUMPDEST JUMPDEST PUSH1 0x0 PUSH2 0x15C4 DUP7 DUP3 DUP8 ADD PUSH2 0x1499 JUMP JUMPDEST SWAP4 POP POP PUSH1 0x20 PUSH2 0x15D5 DUP7 DUP3 DUP8 ADD PUSH2 0x1499 JUMP JUMPDEST SWAP3 POP POP PUSH1 0x40 PUSH2 0x15E6 DUP7 DUP3 DUP8 ADD PUSH2 0x151B JUMP JUMPDEST SWAP2 POP POP SWAP3 POP SWAP3 POP SWAP3 JUMP JUMPDEST PUSH1 0x0 DUP1 PUSH1 0x0 DUP1 PUSH1 0x80 DUP6 DUP8 SUB SLT ISZERO PUSH2 0x160A JUMPI PUSH2 0x1609 PUSH2 0x1F1A JUMP JUMPDEST JUMPDEST PUSH1 0x0 PUSH2 0x1618 DUP8 DUP3 DUP9 ADD PUSH2 0x1499 JUMP JUMPDEST SWAP5 POP POP PUSH1 0x20 PUSH2 0x1629 DUP8 DUP3 DUP9 ADD PUSH2 0x1499 JUMP JUMPDEST SWAP4 POP POP PUSH1 0x40 PUSH2 0x163A DUP8 DUP3 DUP9 ADD PUSH2 0x151B JUMP JUMPDEST SWAP3 POP POP PUSH1 0x60 DUP6 ADD CALLDATALOAD PUSH8 0xFFFFFFFFFFFFFFFF DUP2 GT ISZERO PUSH2 0x165B JUMPI PUSH2 0x165A PUSH2 0x1F15 JUMP JUMPDEST JUMPDEST PUSH2 0x1667 DUP8 DUP3 DUP9 ADD PUSH2 0x14ED JUMP JUMPDEST SWAP2 POP POP SWAP3 SWAP6 SWAP2 SWAP5 POP SWAP3 POP JUMP JUMPDEST PUSH1 0x0 DUP1 PUSH1 0x40 DUP4 DUP6 SUB SLT ISZERO PUSH2 0x168A JUMPI PUSH2 0x1689 PUSH2 0x1F1A JUMP JUMPDEST JUMPDEST PUSH1 0x0 PUSH2 0x1698 DUP6 DUP3 DUP7 ADD PUSH2 0x1499 JUMP JUMPDEST SWAP3 POP POP PUSH1 0x20 PUSH2 0x16A9 DUP6 DUP3 DUP7 ADD PUSH2 0x14AE JUMP JUMPDEST SWAP2 POP POP SWAP3 POP SWAP3 SWAP1 POP JUMP JUMPDEST PUSH1 0x0 DUP1 PUSH1 0x40 DUP4 DUP6 SUB SLT ISZERO PUSH2 0x16CA JUMPI PUSH2 0x16C9 PUSH2 0x1F1A JUMP JUMPDEST JUMPDEST PUSH1 0x0 PUSH2 0x16D8 DUP6 DUP3 DUP7 ADD PUSH2 0x1499 JUMP JUMPDEST SWAP3 POP POP PUSH1 0x20 PUSH2 0x16E9 DUP6 DUP3 DUP7 ADD PUSH2 0x151B JUMP JUMPDEST SWAP2 POP POP SWAP3 POP SWAP3 SWAP1 POP JUMP JUMPDEST PUSH1 0x0 PUSH1 0x20 DUP3 DUP5 SUB SLT ISZERO PUSH2 0x1709 JUMPI PUSH2 0x1708 PUSH2 0x1F1A JUMP JUMPDEST JUMPDEST PUSH1 0x0 PUSH2 0x1717 DUP5 DUP3 DUP6 ADD PUSH2 0x14C3 JUMP JUMPDEST SWAP2 POP POP SWAP3 SWAP2 POP POP JUMP JUMPDEST PUSH1 0x0 PUSH1 0x20 DUP3 DUP5 SUB SLT ISZERO PUSH2 0x1736 JUMPI PUSH2 0x1735 PUSH2 0x1F1A JUMP JUMPDEST JUMPDEST PUSH1 0x0 PUSH2 0x1744 DUP5 DUP3 DUP6 ADD PUSH2 0x14D8 JUMP JUMPDEST SWAP2 POP POP SWAP3 SWAP2 POP POP JUMP JUMPDEST PUSH1 0x0 PUSH1 0x20 DUP3 DUP5 SUB SLT ISZERO PUSH2 0x1763 JUMPI PUSH2 0x1762 PUSH2 0x1F1A JUMP JUMPDEST JUMPDEST PUSH1 0x0 PUSH2 0x1771 DUP5 DUP3 DUP6 ADD PUSH2 0x151B JUMP JUMPDEST SWAP2 POP POP SWAP3 SWAP2 POP POP JUMP JUMPDEST PUSH2 0x1783 DUP2 PUSH2 0x1C8D JUMP JUMPDEST DUP3 MSTORE POP POP JUMP JUMPDEST PUSH2 0x1792 DUP2 PUSH2 0x1C9F JUMP JUMPDEST DUP3 MSTORE POP POP JUMP JUMPDEST PUSH1 0x0 PUSH2 0x17A3 DUP3 PUSH2 0x1B8F JUMP JUMPDEST PUSH2 0x17AD DUP2 DUP6 PUSH2 0x1BA5 JUMP JUMPDEST SWAP4 POP PUSH2 0x17BD DUP2 DUP6 PUSH1 0x20 DUP7 ADD PUSH2 0x1D10 JUMP JUMPDEST PUSH2 0x17C6 DUP2 PUSH2 0x1F1F JUMP JUMPDEST DUP5 ADD SWAP2 POP POP SWAP3 SWAP2 POP POP JUMP JUMPDEST PUSH1 0x0 PUSH2 0x17DC DUP3 PUSH2 0x1B9A JUMP JUMPDEST PUSH2 0x17E6 DUP2 DUP6 PUSH2 0x1BB6 JUMP JUMPDEST SWAP4 POP PUSH2 0x17F6 DUP2 DUP6 PUSH1 0x20 DUP7 ADD PUSH2 0x1D10 JUMP JUMPDEST PUSH2 0x17FF DUP2 PUSH2 0x1F1F JUMP JUMPDEST DUP5 ADD SWAP2 POP POP SWAP3 SWAP2 POP POP JUMP JUMPDEST PUSH1 0x0 PUSH2 0x1815 DUP3 PUSH2 0x1B9A JUMP JUMPDEST PUSH2 0x181F DUP2 DUP6 PUSH2 0x1BC7 JUMP JUMPDEST SWAP4 POP PUSH2 0x182F DUP2 DUP6 PUSH1 0x20 DUP7 ADD PUSH2 0x1D10 JUMP JUMPDEST DUP1 DUP5 ADD SWAP2 POP POP SWAP3 SWAP2 POP POP JUMP JUMPDEST PUSH1 0x0 PUSH2 0x1848 PUSH1 0x16 DUP4 PUSH2 0x1BB6 JUMP JUMPDEST SWAP2 POP PUSH2 0x1853 DUP3 PUSH2 0x1F30 JUMP JUMPDEST PUSH1 0x20 DUP3 ADD SWAP1 POP SWAP2 SWAP1 POP JUMP JUMPDEST PUSH1 0x0 PUSH2 0x186B PUSH1 0x1C DUP4 PUSH2 0x1BB6 JUMP JUMPDEST SWAP2 POP PUSH2 0x1876 DUP3 PUSH2 0x1F59 JUMP JUMPDEST PUSH1 0x20 DUP3 ADD SWAP1 POP SWAP2 SWAP1 POP JUMP JUMPDEST PUSH1 0x0 PUSH2 0x188E PUSH1 0x1E DUP4 PUSH2 0x1BB6 JUMP JUMPDEST SWAP2 POP PUSH2 0x1899 DUP3 PUSH2 0x1F82 JUMP JUMPDEST PUSH1 0x20 DUP3 ADD SWAP1 POP SWAP2 SWAP1 POP JUMP JUMPDEST PUSH1 0x0 PUSH2 0x18B1 PUSH1 0x13 DUP4 PUSH2 0x1BB6 JUMP JUMPDEST SWAP2 POP PUSH2 0x18BC DUP3 PUSH2 0x1FAB JUMP JUMPDEST PUSH1 0x20 DUP3 ADD SWAP1 POP SWAP2 SWAP1 POP JUMP JUMPDEST PUSH1 0x0 PUSH2 0x18D4 PUSH1 0x14 DUP4 PUSH2 0x1BB6 JUMP JUMPDEST SWAP2 POP PUSH2 0x18DF DUP3 PUSH2 0x1FD4 JUMP JUMPDEST PUSH1 0x20 DUP3 ADD SWAP1 POP SWAP2 SWAP1 POP JUMP JUMPDEST PUSH1 0x0 PUSH2 0x18F7 PUSH1 0xF DUP4 PUSH2 0x1BB6 JUMP JUMPDEST SWAP2 POP PUSH2 0x1902 DUP3 PUSH2 0x1FFD JUMP JUMPDEST PUSH1 0x20 DUP3 ADD SWAP1 POP SWAP2 SWAP1 POP JUMP JUMPDEST PUSH1 0x0 PUSH2 0x191A PUSH1 0x9 DUP4 PUSH2 0x1BB6 JUMP JUMPDEST SWAP2 POP PUSH2 0x1925 DUP3 PUSH2 0x2026 JUMP JUMPDEST PUSH1 0x20 DUP3 ADD SWAP1 POP SWAP2 SWAP1 POP JUMP JUMPDEST PUSH2 0x1939 DUP2 PUSH2 0x1CF7 JUMP JUMPDEST DUP3 MSTORE POP POP JUMP JUMPDEST PUSH1 0x0 PUSH2 0x194B DUP3 DUP6 PUSH2 0x180A JUMP JUMPDEST SWAP2 POP PUSH2 0x1957 DUP3 DUP5 PUSH2 0x180A JUMP JUMPDEST SWAP2 POP DUP2 SWAP1 POP SWAP4 SWAP3 POP POP POP JUMP JUMPDEST PUSH1 0x0 PUSH1 0x20 DUP3 ADD SWAP1 POP PUSH2 0x1978 PUSH1 0x0 DUP4 ADD DUP5 PUSH2 0x177A JUMP JUMPDEST SWAP3 SWAP2 POP POP JUMP JUMPDEST PUSH1 0x0 PUSH1 0x60 DUP3 ADD SWAP1 POP PUSH2 0x1993 PUSH1 0x0 DUP4 ADD DUP7 PUSH2 0x177A JUMP JUMPDEST PUSH2 0x19A0 PUSH1 0x20 DUP4 ADD DUP6 PUSH2 0x177A JUMP JUMPDEST PUSH2 0x19AD PUSH1 0x40 DUP4 ADD DUP5 PUSH2 0x1930 JUMP JUMPDEST SWAP5 SWAP4 POP POP POP POP JUMP JUMPDEST PUSH1 0x0 PUSH1 0x80 DUP3 ADD SWAP1 POP PUSH2 0x19CA PUSH1 0x0 DUP4 ADD DUP8 PUSH2 0x177A JUMP JUMPDEST PUSH2 0x19D7 PUSH1 0x20 DUP4 ADD DUP7 PUSH2 0x177A JUMP JUMPDEST PUSH2 0x19E4 PUSH1 0x40 DUP4 ADD DUP6 PUSH2 0x1930 JUMP JUMPDEST DUP2 DUP2 SUB PUSH1 0x60 DUP4 ADD MSTORE PUSH2 0x19F6 DUP2 DUP5 PUSH2 0x1798 JUMP JUMPDEST SWAP1 POP SWAP6 SWAP5 POP POP POP POP POP JUMP JUMPDEST PUSH1 0x0 PUSH1 0x20 DUP3 ADD SWAP1 POP PUSH2 0x1A16 PUSH1 0x0 DUP4 ADD DUP5 PUSH2 0x1789 JUMP JUMPDEST SWAP3 SWAP2 POP POP JUMP JUMPDEST PUSH1 0x0 PUSH1 0x20 DUP3 ADD SWAP1 POP DUP2 DUP2 SUB PUSH1 0x0 DUP4 ADD MSTORE PUSH2 0x1A36 DUP2 DUP5 PUSH2 0x17D1 JUMP JUMPDEST SWAP1 POP SWAP3 SWAP2 POP POP JUMP JUMPDEST PUSH1 0x0 PUSH1 0x20 DUP3 ADD SWAP1 POP DUP2 DUP2 SUB PUSH1 0x0 DUP4 ADD MSTORE PUSH2 0x1A57 DUP2 PUSH2 0x183B JUMP JUMPDEST SWAP1 POP SWAP2 SWAP1 POP JUMP JUMPDEST PUSH1 0x0 PUSH1 0x20 DUP3 ADD SWAP1 POP DUP2 DUP2 SUB PUSH1 0x0 DUP4 ADD MSTORE PUSH2 0x1A77 DUP2 PUSH2 0x185E JUMP JUMPDEST SWAP1 POP SWAP2 SWAP1 POP JUMP JUMPDEST PUSH1 0x0 PUSH1 0x20 DUP3 ADD SWAP1 POP DUP2 DUP2 SUB PUSH1 0x0 DUP4 ADD MSTORE PUSH2 0x1A97 DUP2 PUSH2 0x1881 JUMP JUMPDEST SWAP1 POP SWAP2 SWAP1 POP JUMP JUMPDEST PUSH1 0x0 PUSH1 0x20 DUP3 ADD SWAP1 POP DUP2 DUP2 SUB PUSH1 0x0 DUP4 ADD MSTORE PUSH2 0x1AB7 DUP2 PUSH2 0x18A4 JUMP JUMPDEST SWAP1 POP SWAP2 SWAP1 POP JUMP JUMPDEST PUSH1 0x0 PUSH1 0x20 DUP3 ADD SWAP1 POP DUP2 DUP2 SUB PUSH1 0x0 DUP4 ADD MSTORE PUSH2 0x1AD7 DUP2 PUSH2 0x18C7 JUMP JUMPDEST SWAP1 POP SWAP2 SWAP1 POP JUMP JUMPDEST PUSH1 0x0 PUSH1 0x20 DUP3 ADD SWAP1 POP DUP2 DUP2 SUB PUSH1 0x0 DUP4 ADD MSTORE PUSH2 0x1AF7 DUP2 PUSH2 0x18EA JUMP JUMPDEST SWAP1 POP SWAP2 SWAP1 POP JUMP JUMPDEST PUSH1 0x0 PUSH1 0x20 DUP3 ADD SWAP1 POP DUP2 DUP2 SUB PUSH1 0x0 DUP4 ADD MSTORE PUSH2 0x1B17 DUP2 PUSH2 0x190D JUMP JUMPDEST SWAP1 POP SWAP2 SWAP1 POP JUMP JUMPDEST PUSH1 0x0 PUSH1 0x20 DUP3 ADD SWAP1 POP PUSH2 0x1B33 PUSH1 0x0 DUP4 ADD DUP5 PUSH2 0x1930 JUMP JUMPDEST SWAP3 SWAP2 POP POP JUMP JUMPDEST PUSH1 0x0 PUSH2 0x1B43 PUSH2 0x1B54 JUMP JUMPDEST SWAP1 POP PUSH2 0x1B4F DUP3 DUP3 PUSH2 0x1D75 JUMP JUMPDEST SWAP2 SWAP1 POP JUMP JUMPDEST PUSH1 0x0 PUSH1 0x40 MLOAD SWAP1 POP SWAP1 JUMP JUMPDEST PUSH1 0x0 PUSH8 0xFFFFFFFFFFFFFFFF DUP3 GT ISZERO PUSH2 0x1B79 JUMPI PUSH2 0x1B78 PUSH2 0x1EDC JUMP JUMPDEST JUMPDEST PUSH2 0x1B82 DUP3 PUSH2 0x1F1F JUMP JUMPDEST SWAP1 POP PUSH1 0x20 DUP2 ADD SWAP1 POP SWAP2 SWAP1 POP JUMP JUMPDEST PUSH1 0x0 DUP2 MLOAD SWAP1 POP SWAP2 SWAP1 POP JUMP JUMPDEST PUSH1 0x0 DUP2 MLOAD SWAP1 POP SWAP2 SWAP1 POP JUMP JUMPDEST PUSH1 0x0 DUP3 DUP3 MSTORE PUSH1 0x20 DUP3 ADD SWAP1 POP SWAP3 SWAP2 POP POP JUMP JUMPDEST PUSH1 0x0 DUP3 DUP3 MSTORE PUSH1 0x20 DUP3 ADD SWAP1 POP SWAP3 SWAP2 POP POP JUMP JUMPDEST PUSH1 0x0 DUP2 SWAP1 POP SWAP3 SWAP2 POP POP JUMP JUMPDEST PUSH1 0x0 PUSH2 0x1BDD DUP3 PUSH2 0x1CF7 JUMP JUMPDEST SWAP2 POP PUSH2 0x1BE8 DUP4 PUSH2 0x1CF7 JUMP JUMPDEST SWAP3 POP DUP3 PUSH32 0xFFFFFFFFFFFFFFFFFFFFFFFFFFFFFFFFFFFFFFFFFFFFFFFFFFFFFFFFFFFFFFFF SUB DUP3 GT ISZERO PUSH2 0x1C1D JUMPI PUSH2 0x1C1C PUSH2 0x1E20 JUMP JUMPDEST JUMPDEST DUP3 DUP3 ADD SWAP1 POP SWAP3 SWAP2 POP POP JUMP JUMPDEST PUSH1 0x0 PUSH2 0x1C33 DUP3 PUSH2 0x1CF7 JUMP JUMPDEST SWAP2 POP PUSH2 0x1C3E DUP4 PUSH2 0x1CF7 JUMP JUMPDEST SWAP3 POP DUP3 PUSH2 0x1C4E JUMPI PUSH2 0x1C4D PUSH2 0x1E4F JUMP JUMPDEST JUMPDEST DUP3 DUP3 DIV SWAP1 POP SWAP3 SWAP2 POP POP JUMP JUMPDEST PUSH1 0x0 PUSH2 0x1C64 DUP3 PUSH2 0x1CF7 JUMP JUMPDEST SWAP2 POP PUSH2 0x1C6F DUP4 PUSH2 0x1CF7 JUMP JUMPDEST SWAP3 POP DUP3 DUP3 LT ISZERO PUSH2 0x1C82 JUMPI PUSH2 0x1C81 PUSH2 0x1E20 JUMP JUMPDEST JUMPDEST DUP3 DUP3 SUB SWAP1 POP SWAP3 SWAP2 POP POP JUMP JUMPDEST PUSH1 0x0 PUSH2 0x1C98 DUP3 PUSH2 0x1CD7 JUMP JUMPDEST SWAP1 POP SWAP2 SWAP1 POP JUMP JUMPDEST PUSH1 0x0 DUP2 ISZERO ISZERO SWAP1 POP SWAP2 SWAP1 POP JUMP JUMPDEST PUSH1 0x0 PUSH32 0xFFFFFFFF00000000000000000000000000000000000000000000000000000000 DUP3 AND SWAP1 POP SWAP2 SWAP1 POP JUMP JUMPDEST PUSH1 0x0 PUSH20 0xFFFFFFFFFFFFFFFFFFFFFFFFFFFFFFFFFFFFFFFF DUP3 AND SWAP1 POP SWAP2 SWAP1 POP JUMP JUMPDEST PUSH1 0x0 DUP2 SWAP1 POP SWAP2 SWAP1 POP JUMP JUMPDEST DUP3 DUP2 DUP4 CALLDATACOPY PUSH1 0x0 DUP4 DUP4 ADD MSTORE POP POP POP JUMP JUMPDEST PUSH1 0x0 JUMPDEST DUP4 DUP2 LT ISZERO PUSH2 0x1D2E JUMPI DUP1 DUP3 ADD MLOAD DUP2 DUP5 ADD MSTORE PUSH1 0x20 DUP2 ADD SWAP1 POP PUSH2 0x1D13 JUMP JUMPDEST DUP4 DUP2 GT ISZERO PUSH2 0x1D3D JUMPI PUSH1 0x0 DUP5 DUP5 ADD MSTORE JUMPDEST POP POP POP POP JUMP JUMPDEST PUSH1 0x0 PUSH1 0x2 DUP3 DIV SWAP1 POP PUSH1 0x1 DUP3 AND DUP1 PUSH2 0x1D5B JUMPI PUSH1 0x7F DUP3 AND SWAP2 POP JUMPDEST PUSH1 0x20 DUP3 LT DUP2 EQ ISZERO PUSH2 0x1D6F JUMPI PUSH2 0x1D6E PUSH2 0x1E7E JUMP JUMPDEST JUMPDEST POP SWAP2 SWAP1 POP JUMP JUMPDEST PUSH2 0x1D7E DUP3 PUSH2 0x1F1F JUMP JUMPDEST DUP2 ADD DUP2 DUP2 LT PUSH8 0xFFFFFFFFFFFFFFFF DUP3 GT OR ISZERO PUSH2 0x1D9D JUMPI PUSH2 0x1D9C PUSH2 0x1EDC JUMP JUMPDEST JUMPDEST DUP1 PUSH1 0x40 MSTORE POP POP POP JUMP JUMPDEST PUSH1 0x0 PUSH2 0x1DB1 DUP3 PUSH2 0x1CF7 JUMP JUMPDEST SWAP2 POP PUSH32 0xFFFFFFFFFFFFFFFFFFFFFFFFFFFFFFFFFFFFFFFFFFFFFFFFFFFFFFFFFFFFFFFF DUP3 EQ ISZERO PUSH2 0x1DE4 JUMPI PUSH2 0x1DE3 PUSH2 0x1E20 JUMP JUMPDEST JUMPDEST PUSH1 0x1 DUP3 ADD SWAP1 POP SWAP2 SWAP1 POP JUMP JUMPDEST PUSH1 0x0 PUSH2 0x1DFA DUP3 PUSH2 0x1CF7 JUMP JUMPDEST SWAP2 POP PUSH2 0x1E05 DUP4 PUSH2 0x1CF7 JUMP JUMPDEST SWAP3 POP DUP3 PUSH2 0x1E15 JUMPI PUSH2 0x1E14 PUSH2 0x1E4F JUMP JUMPDEST JUMPDEST DUP3 DUP3 MOD SWAP1 POP SWAP3 SWAP2 POP POP JUMP JUMPDEST PUSH32 0x4E487B7100000000000000000000000000000000000000000000000000000000 PUSH1 0x0 MSTORE PUSH1 0x11 PUSH1 0x4 MSTORE PUSH1 0x24 PUSH1 0x0 REVERT JUMPDEST PUSH32 0x4E487B7100000000000000000000000000000000000000000000000000000000 PUSH1 0x0 MSTORE PUSH1 0x12 PUSH1 0x4 MSTORE PUSH1 0x24 PUSH1 0x0 REVERT JUMPDEST PUSH32 0x4E487B7100000000000000000000000000000000000000000000000000000000 PUSH1 0x0 MSTORE PUSH1 0x22 PUSH1 0x4 MSTORE PUSH1 0x24 PUSH1 0x0 REVERT JUMPDEST PUSH32 0x4E487B7100000000000000000000000000000000000000000000000000000000 PUSH1 0x0 MSTORE PUSH1 0x32 PUSH1 0x4 MSTORE PUSH1 0x24 PUSH1 0x0 REVERT JUMPDEST PUSH32 0x4E487B7100000000000000000000000000000000000000000000000000000000 PUSH1 0x0 MSTORE PUSH1 0x41 PUSH1 0x4 MSTORE PUSH1 0x24 PUSH1 0x0 REVERT JUMPDEST PUSH1 0x0 DUP1 REVERT JUMPDEST PUSH1 0x0 DUP1 REVERT JUMPDEST PUSH1 0x0 DUP1 REVERT JUMPDEST PUSH1 0x0 DUP1 REVERT JUMPDEST PUSH1 0x0 PUSH1 0x1F NOT PUSH1 0x1F DUP4 ADD AND SWAP1 POP SWAP2 SWAP1 POP JUMP JUMPDEST PUSH32 0x6E6F74206F776E6572206E6F7220617070726F76656400000000000000000000 PUSH1 0x0 DUP3 ADD MSTORE POP JUMP JUMPDEST PUSH32 0x7472616E7366657220746F20746865207A65726F206164647265737300000000 PUSH1 0x0 DUP3 ADD MSTORE POP JUMP JUMPDEST PUSH32 0x6E6F74206F776E6572206E6F7220617070726F76656420666F7220616C6C0000 PUSH1 0x0 DUP3 ADD MSTORE POP JUMP JUMPDEST PUSH32 0x746F6B656E20646F65736E277420657869737400000000000000000000000000 PUSH1 0x0 DUP3 ADD MSTORE POP JUMP JUMPDEST PUSH32 0x6F776E6572203D207A65726F2061646472657373000000000000000000000000 PUSH1 0x0 DUP3 ADD MSTORE POP JUMP JUMPDEST PUSH32 0x546F6B656E204E6F742045786973740000000000000000000000000000000000 PUSH1 0x0 DUP3 ADD MSTORE POP JUMP JUMPDEST PUSH32 0x6E6F74206F776E65720000000000000000000000000000000000000000000000 PUSH1 0x0 DUP3 ADD MSTORE POP JUMP JUMPDEST PUSH2 0x2058 DUP2 PUSH2 0x1C8D JUMP JUMPDEST DUP2 EQ PUSH2 0x2063 JUMPI PUSH1 0x0 DUP1 REVERT JUMPDEST POP JUMP JUMPDEST PUSH2 0x206F DUP2 PUSH2 0x1C9F JUMP JUMPDEST DUP2 EQ PUSH2 0x207A JUMPI PUSH1 0x0 DUP1 REVERT JUMPDEST POP JUMP JUMPDEST PUSH2 0x2086 DUP2 PUSH2 0x1CAB JUMP JUMPDEST DUP2 EQ PUSH2 0x2091 JUMPI PUSH1 0x0 DUP1 REVERT JUMPDEST POP JUMP JUMPDEST PUSH2 0x209D DUP2 PUSH2 0x1CF7 JUMP JUMPDEST DUP2 EQ PUSH2 0x20A8 JUMPI PUSH1 0x0 DUP1 REVERT JUMPDEST POP JUMP INVALID LOG2 PUSH5 0x6970667358 0x22 SLT KECCAK256 0x4F ADDMOD DUP10 PUSH31 0x7F5DCE6E81842F41EA9ACF9A849F8CBC61CD48E8ADF37123A0274C0D64736F PUSH13 0x63430008070033000000000000 "
				},
				"gasEstimates": {
					"creation": {
						"codeDepositCost": "1683400",
						"executionCost": "infinite",
						"totalCost": "infinite"
					},
					"external": {
						"approve(address,uint256)": "31556",
						"balanceOf(address)": "2902",
						"getApproved(uint256)": "5185",
						"interfaceFun(address,address,uint256)": "infinite",
						"isApprovedForAll(address,address)": "infinite",
						"name()": "infinite",
						"ownerOf(uint256)": "3045",
						"safeTransferFrom(address,address,uint256)": "infinite",
						"safeTransferFrom(address,address,uint256,bytes)": "infinite",
						"setApprovalForAll(address,bool)": "infinite",
						"supportsInterface(bytes4)": "754",
						"symbol()": "infinite",
						"tokenURI(uint256)": "3352",
						"transferFrom(address,address,uint256)": "infinite"
					}
				},
				"methodIdentifiers": {
					"approve(address,uint256)": "095ea7b3",
					"balanceOf(address)": "70a08231",
					"getApproved(uint256)": "081812fc",
					"interfaceFun(address,address,uint256)": "9fc2ee4b",
					"isApprovedForAll(address,address)": "e985e9c5",
					"name()": "06fdde03",
					"ownerOf(uint256)": "6352211e",
					"safeTransferFrom(address,address,uint256)": "42842e0e",
					"safeTransferFrom(address,address,uint256,bytes)": "b88d4fde",
					"setApprovalForAll(address,bool)": "a22cb465",
					"supportsInterface(bytes4)": "01ffc9a7",
					"symbol()": "95d89b41",
					"tokenURI(uint256)": "c87b56dd",
					"transferFrom(address,address,uint256)": "23b872dd"
				}
			},
			"storageLayout": {
				"storage": [
					{
						"astId": 52,
						"contract": "46JichengERC721.sol:JichengERC721",
						"label": "name",
						"offset": 0,
						"slot": "0",
						"type": "t_string_storage"
					},
					{
						"astId": 55,
						"contract": "46JichengERC721.sol:JichengERC721",
						"label": "symbol",
						"offset": 0,
						"slot": "1",
						"type": "t_string_storage"
					},
					{
						"astId": 59,
						"contract": "46JichengERC721.sol:JichengERC721",
						"label": "_owners",
						"offset": 0,
						"slot": "2",
						"type": "t_mapping(t_uint256,t_address)"
					},
					{
						"astId": 63,
						"contract": "46JichengERC721.sol:JichengERC721",
						"label": "_balances",
						"offset": 0,
						"slot": "3",
						"type": "t_mapping(t_address,t_uint256)"
					},
					{
						"astId": 67,
						"contract": "46JichengERC721.sol:JichengERC721",
						"label": "_tokenApprovals",
						"offset": 0,
						"slot": "4",
						"type": "t_mapping(t_uint256,t_address)"
					},
					{
						"astId": 73,
						"contract": "46JichengERC721.sol:JichengERC721",
						"label": "_operatorApprovals",
						"offset": 0,
						"slot": "5",
						"type": "t_mapping(t_address,t_mapping(t_address,t_bool))"
					}
				],
				"types": {
					"t_address": {
						"encoding": "inplace",
						"label": "address",
						"numberOfBytes": "20"
					},
					"t_bool": {
						"encoding": "inplace",
						"label": "bool",
						"numberOfBytes": "1"
					},
					"t_mapping(t_address,t_bool)": {
						"encoding": "mapping",
						"key": "t_address",
						"label": "mapping(address => bool)",
						"numberOfBytes": "32",
						"value": "t_bool"
					},
					"t_mapping(t_address,t_mapping(t_address,t_bool))": {
						"encoding": "mapping",
						"key": "t_address",
						"label": "mapping(address => mapping(address => bool))",
						"numberOfBytes": "32",
						"value": "t_mapping(t_address,t_bool)"
					},
					"t_mapping(t_address,t_uint256)": {
						"encoding": "mapping",
						"key": "t_address",
						"label": "mapping(address => uint256)",
						"numberOfBytes": "32",
						"value": "t_uint256"
					},
					"t_mapping(t_uint256,t_address)": {
						"encoding": "mapping",
						"key": "t_uint256",
						"label": "mapping(uint256 => address)",
						"numberOfBytes": "32",
						"value": "t_address"
					},
					"t_string_storage": {
						"encoding": "bytes",
						"label": "string",
						"numberOfBytes": "32"
					},
					"t_uint256": {
						"encoding": "inplace",
						"label": "uint256",
						"numberOfBytes": "32"
					}
				}
			},
			"userdoc": {
				"kind": "user",
				"methods": {
					"safeTransferFrom(address,address,uint256,bytes)": {
						"notice": "实现IERC721的safeTransferFrom，安全转账，调用了_safeTransfer函数。"
					},
					"tokenURI(uint256)": {
						"notice": "实现IERC721Metadata的tokenURI函数，查询metadata。"
					}
				},
				"version": 1
			}
		}
	}
}