{
	"03.Calculator.sol": {
		"Calculator": {
			"abi": [
				{
					"inputs": [
						{
							"internalType": "uint256",
							"name": "x",
							"type": "uint256"
						},
						{
							"internalType": "uint256",
							"name": "y",
							"type": "uint256"
						}
					],
					"name": "divide",
					"outputs": [
						{
							"internalType": "uint256",
							"name": "",
							"type": "uint256"
						}
					],
					"stateMutability": "pure",
					"type": "function"
				},
				{
					"inputs": [
						{
							"internalType": "uint256",
							"name": "x",
							"type": "uint256"
						},
						{
							"internalType": "uint256",
							"name": "y",
							"type": "uint256"
						}
					],
					"name": "multiply",
					"outputs": [
						{
							"internalType": "uint256",
							"name": "",
							"type": "uint256"
						}
					],
					"stateMutability": "pure",
					"type": "function"
				}
			],
			"devdoc": {
				"kind": "dev",
				"methods": {},
				"version": 1
			},
			"evm": {
				"assembly": "    /* \"03.Calculator.sol\":56:336  contract Calculator{... */\n  mstore(0x40, 0x80)\n  callvalue\n  dup1\n  iszero\n  tag_1\n  jumpi\n  0x00\n  dup1\n  revert\ntag_1:\n  pop\n  dataSize(sub_0)\n  dup1\n  dataOffset(sub_0)\n  0x00\n  codecopy\n  0x00\n  return\nstop\n\nsub_0: assembly {\n        /* \"03.Calculator.sol\":56:336  contract Calculator{... */\n      mstore(0x40, 0x80)\n      callvalue\n      dup1\n      iszero\n      tag_1\n      jumpi\n      0x00\n      dup1\n      revert\n    tag_1:\n      pop\n      jumpi(tag_2, lt(calldatasize, 0x04))\n      shr(0xe0, calldataload(0x00))\n      dup1\n      0x165c4a16\n      eq\n      tag_3\n      jumpi\n      dup1\n      0xf88e9fbf\n      eq\n      tag_4\n      jumpi\n    tag_2:\n      0x00\n      dup1\n      revert\n        /* \"03.Calculator.sol\":81:169  function multiply (uint x,uint y) external pure returns(uint){... */\n    tag_3:\n      tag_5\n      0x04\n      dup1\n      calldatasize\n      sub\n      dup2\n      add\n      swap1\n      tag_6\n      swap2\n      swap1\n      tag_7\n      jump\t// in\n    tag_6:\n      tag_8\n      jump\t// in\n    tag_5:\n      mload(0x40)\n      tag_9\n      swap2\n      swap1\n      tag_10\n      jump\t// in\n    tag_9:\n      mload(0x40)\n      dup1\n      swap2\n      sub\n      swap1\n      return\n        /* \"03.Calculator.sol\":180:333  function divide (uint x,uint y) external pure returns(uint){... */\n    tag_4:\n      tag_11\n      0x04\n      dup1\n      calldatasize\n      sub\n      dup2\n      add\n      swap1\n      tag_12\n      swap2\n      swap1\n      tag_7\n      jump\t// in\n    tag_12:\n      tag_13\n      jump\t// in\n    tag_11:\n      mload(0x40)\n      tag_14\n      swap2\n      swap1\n      tag_10\n      jump\t// in\n    tag_14:\n      mload(0x40)\n      dup1\n      swap2\n      sub\n      swap1\n      return\n        /* \"03.Calculator.sol\":81:169  function multiply (uint x,uint y) external pure returns(uint){... */\n    tag_8:\n        /* \"03.Calculator.sol\":137:141  uint */\n      0x00\n        /* \"03.Calculator.sol\":161:162  y */\n      dup2\n        /* \"03.Calculator.sol\":159:160  x */\n      dup4\n        /* \"03.Calculator.sol\":159:162  x*y */\n      tag_16\n      swap2\n      swap1\n      tag_17\n      jump\t// in\n    tag_16:\n        /* \"03.Calculator.sol\":152:162  return x*y */\n      swap1\n      pop\n        /* \"03.Calculator.sol\":81:169  function multiply (uint x,uint y) external pure returns(uint){... */\n      swap3\n      swap2\n      pop\n      pop\n      jump\t// out\n        /* \"03.Calculator.sol\":180:333  function divide (uint x,uint y) external pure returns(uint){... */\n    tag_13:\n        /* \"03.Calculator.sol\":234:238  uint */\n      0x00\n        /* \"03.Calculator.sol\":260:261  0 */\n      dup1\n        /* \"03.Calculator.sol\":257:258  y */\n      dup3\n        /* \"03.Calculator.sol\":257:261  y!=0 */\n      eq\n      iszero\n        /* \"03.Calculator.sol\":249:262  require(y!=0) */\n      tag_19\n      jumpi\n      0x00\n      dup1\n      revert\n    tag_19:\n        /* \"03.Calculator.sol\":272:286  uint precision */\n      0x00\n        /* \"03.Calculator.sol\":289:294  10**2 */\n      0x64\n        /* \"03.Calculator.sol\":272:294  uint precision = 10**2 */\n      swap1\n      pop\n        /* \"03.Calculator.sol\":325:326  y */\n      dup3\n        /* \"03.Calculator.sol\":314:323  precision */\n      dup2\n        /* \"03.Calculator.sol\":312:313  x */\n      dup6\n        /* \"03.Calculator.sol\":312:323  x*precision */\n      tag_20\n      swap2\n      swap1\n      tag_17\n      jump\t// in\n    tag_20:\n        /* \"03.Calculator.sol\":311:326  (x*precision)/y */\n      tag_21\n      swap2\n      swap1\n      tag_22\n      jump\t// in\n    tag_21:\n        /* \"03.Calculator.sol\":304:326  return (x*precision)/y */\n      swap2\n      pop\n      pop\n        /* \"03.Calculator.sol\":180:333  function divide (uint x,uint y) external pure returns(uint){... */\n      swap3\n      swap2\n      pop\n      pop\n      jump\t// out\n        /* \"#utility.yul\":7:146   */\n    tag_24:\n        /* \"#utility.yul\":53:58   */\n      0x00\n        /* \"#utility.yul\":91:97   */\n      dup2\n        /* \"#utility.yul\":78:98   */\n      calldataload\n        /* \"#utility.yul\":69:98   */\n      swap1\n      pop\n        /* \"#utility.yul\":107:140   */\n      tag_26\n        /* \"#utility.yul\":134:139   */\n      dup2\n        /* \"#utility.yul\":107:140   */\n      tag_27\n      jump\t// in\n    tag_26:\n        /* \"#utility.yul\":7:146   */\n      swap3\n      swap2\n      pop\n      pop\n      jump\t// out\n        /* \"#utility.yul\":152:626   */\n    tag_7:\n        /* \"#utility.yul\":220:226   */\n      0x00\n        /* \"#utility.yul\":228:234   */\n      dup1\n        /* \"#utility.yul\":277:279   */\n      0x40\n        /* \"#utility.yul\":265:274   */\n      dup4\n        /* \"#utility.yul\":256:263   */\n      dup6\n        /* \"#utility.yul\":252:275   */\n      sub\n        /* \"#utility.yul\":248:280   */\n      slt\n        /* \"#utility.yul\":245:364   */\n      iszero\n      tag_29\n      jumpi\n        /* \"#utility.yul\":283:362   */\n      tag_30\n      tag_31\n      jump\t// in\n    tag_30:\n        /* \"#utility.yul\":245:364   */\n    tag_29:\n        /* \"#utility.yul\":403:404   */\n      0x00\n        /* \"#utility.yul\":428:481   */\n      tag_32\n        /* \"#utility.yul\":473:480   */\n      dup6\n        /* \"#utility.yul\":464:470   */\n      dup3\n        /* \"#utility.yul\":453:462   */\n      dup7\n        /* \"#utility.yul\":449:471   */\n      add\n        /* \"#utility.yul\":428:481   */\n      tag_24\n      jump\t// in\n    tag_32:\n        /* \"#utility.yul\":418:481   */\n      swap3\n      pop\n        /* \"#utility.yul\":374:491   */\n      pop\n        /* \"#utility.yul\":530:532   */\n      0x20\n        /* \"#utility.yul\":556:609   */\n      tag_33\n        /* \"#utility.yul\":601:608   */\n      dup6\n        /* \"#utility.yul\":592:598   */\n      dup3\n        /* \"#utility.yul\":581:590   */\n      dup7\n        /* \"#utility.yul\":577:599   */\n      add\n        /* \"#utility.yul\":556:609   */\n      tag_24\n      jump\t// in\n    tag_33:\n        /* \"#utility.yul\":546:609   */\n      swap2\n      pop\n        /* \"#utility.yul\":501:619   */\n      pop\n        /* \"#utility.yul\":152:626   */\n      swap3\n      pop\n      swap3\n      swap1\n      pop\n      jump\t// out\n        /* \"#utility.yul\":632:750   */\n    tag_34:\n        /* \"#utility.yul\":719:743   */\n      tag_36\n        /* \"#utility.yul\":737:742   */\n      dup2\n        /* \"#utility.yul\":719:743   */\n      tag_37\n      jump\t// in\n    tag_36:\n        /* \"#utility.yul\":714:717   */\n      dup3\n        /* \"#utility.yul\":707:744   */\n      mstore\n        /* \"#utility.yul\":632:750   */\n      pop\n      pop\n      jump\t// out\n        /* \"#utility.yul\":756:978   */\n    tag_10:\n        /* \"#utility.yul\":849:853   */\n      0x00\n        /* \"#utility.yul\":887:889   */\n      0x20\n        /* \"#utility.yul\":876:885   */\n      dup3\n        /* \"#utility.yul\":872:890   */\n      add\n        /* \"#utility.yul\":864:890   */\n      swap1\n      pop\n        /* \"#utility.yul\":900:971   */\n      tag_39\n        /* \"#utility.yul\":968:969   */\n      0x00\n        /* \"#utility.yul\":957:966   */\n      dup4\n        /* \"#utility.yul\":953:970   */\n      add\n        /* \"#utility.yul\":944:950   */\n      dup5\n        /* \"#utility.yul\":900:971   */\n      tag_34\n      jump\t// in\n    tag_39:\n        /* \"#utility.yul\":756:978   */\n      swap3\n      swap2\n      pop\n      pop\n      jump\t// out\n        /* \"#utility.yul\":1065:1250   */\n    tag_22:\n        /* \"#utility.yul\":1105:1106   */\n      0x00\n        /* \"#utility.yul\":1122:1142   */\n      tag_43\n        /* \"#utility.yul\":1140:1141   */\n      dup3\n        /* \"#utility.yul\":1122:1142   */\n      tag_37\n      jump\t// in\n    tag_43:\n        /* \"#utility.yul\":1117:1142   */\n      swap2\n      pop\n        /* \"#utility.yul\":1156:1176   */\n      tag_44\n        /* \"#utility.yul\":1174:1175   */\n      dup4\n        /* \"#utility.yul\":1156:1176   */\n      tag_37\n      jump\t// in\n    tag_44:\n        /* \"#utility.yul\":1151:1176   */\n      swap3\n      pop\n        /* \"#utility.yul\":1195:1196   */\n      dup3\n        /* \"#utility.yul\":1185:1220   */\n      tag_45\n      jumpi\n        /* \"#utility.yul\":1200:1218   */\n      tag_46\n      tag_47\n      jump\t// in\n    tag_46:\n        /* \"#utility.yul\":1185:1220   */\n    tag_45:\n        /* \"#utility.yul\":1242:1243   */\n      dup3\n        /* \"#utility.yul\":1239:1240   */\n      dup3\n        /* \"#utility.yul\":1235:1244   */\n      div\n        /* \"#utility.yul\":1230:1244   */\n      swap1\n      pop\n        /* \"#utility.yul\":1065:1250   */\n      swap3\n      swap2\n      pop\n      pop\n      jump\t// out\n        /* \"#utility.yul\":1256:1604   */\n    tag_17:\n        /* \"#utility.yul\":1296:1303   */\n      0x00\n        /* \"#utility.yul\":1319:1339   */\n      tag_49\n        /* \"#utility.yul\":1337:1338   */\n      dup3\n        /* \"#utility.yul\":1319:1339   */\n      tag_37\n      jump\t// in\n    tag_49:\n        /* \"#utility.yul\":1314:1339   */\n      swap2\n      pop\n        /* \"#utility.yul\":1353:1373   */\n      tag_50\n        /* \"#utility.yul\":1371:1372   */\n      dup4\n        /* \"#utility.yul\":1353:1373   */\n      tag_37\n      jump\t// in\n    tag_50:\n        /* \"#utility.yul\":1348:1373   */\n      swap3\n      pop\n        /* \"#utility.yul\":1541:1542   */\n      dup2\n        /* \"#utility.yul\":1473:1539   */\n      0xffffffffffffffffffffffffffffffffffffffffffffffffffffffffffffffff\n        /* \"#utility.yul\":1469:1543   */\n      div\n        /* \"#utility.yul\":1466:1467   */\n      dup4\n        /* \"#utility.yul\":1463:1544   */\n      gt\n        /* \"#utility.yul\":1458:1459   */\n      dup3\n        /* \"#utility.yul\":1451:1460   */\n      iszero\n        /* \"#utility.yul\":1444:1461   */\n      iszero\n        /* \"#utility.yul\":1440:1545   */\n      and\n        /* \"#utility.yul\":1437:1568   */\n      iszero\n      tag_51\n      jumpi\n        /* \"#utility.yul\":1548:1566   */\n      tag_52\n      tag_53\n      jump\t// in\n    tag_52:\n        /* \"#utility.yul\":1437:1568   */\n    tag_51:\n        /* \"#utility.yul\":1596:1597   */\n      dup3\n        /* \"#utility.yul\":1593:1594   */\n      dup3\n        /* \"#utility.yul\":1589:1598   */\n      mul\n        /* \"#utility.yul\":1578:1598   */\n      swap1\n      pop\n        /* \"#utility.yul\":1256:1604   */\n      swap3\n      swap2\n      pop\n      pop\n      jump\t// out\n        /* \"#utility.yul\":1610:1687   */\n    tag_37:\n        /* \"#utility.yul\":1647:1654   */\n      0x00\n        /* \"#utility.yul\":1676:1681   */\n      dup2\n        /* \"#utility.yul\":1665:1681   */\n      swap1\n      pop\n        /* \"#utility.yul\":1610:1687   */\n      swap2\n      swap1\n      pop\n      jump\t// out\n        /* \"#utility.yul\":1693:1873   */\n    tag_53:\n        /* \"#utility.yul\":1741:1818   */\n      0x4e487b7100000000000000000000000000000000000000000000000000000000\n        /* \"#utility.yul\":1738:1739   */\n      0x00\n        /* \"#utility.yul\":1731:1819   */\n      mstore\n        /* \"#utility.yul\":1838:1842   */\n      0x11\n        /* \"#utility.yul\":1835:1836   */\n      0x04\n        /* \"#utility.yul\":1828:1843   */\n      mstore\n        /* \"#utility.yul\":1862:1866   */\n      0x24\n        /* \"#utility.yul\":1859:1860   */\n      0x00\n        /* \"#utility.yul\":1852:1867   */\n      revert\n        /* \"#utility.yul\":1879:2059   */\n    tag_47:\n        /* \"#utility.yul\":1927:2004   */\n      0x4e487b7100000000000000000000000000000000000000000000000000000000\n        /* \"#utility.yul\":1924:1925   */\n      0x00\n        /* \"#utility.yul\":1917:2005   */\n      mstore\n        /* \"#utility.yul\":2024:2028   */\n      0x12\n        /* \"#utility.yul\":2021:2022   */\n      0x04\n        /* \"#utility.yul\":2014:2029   */\n      mstore\n        /* \"#utility.yul\":2048:2052   */\n      0x24\n        /* \"#utility.yul\":2045:2046   */\n      0x00\n        /* \"#utility.yul\":2038:2053   */\n      revert\n        /* \"#utility.yul\":2188:2305   */\n    tag_31:\n        /* \"#utility.yul\":2297:2298   */\n      0x00\n        /* \"#utility.yul\":2294:2295   */\n      dup1\n        /* \"#utility.yul\":2287:2299   */\n      revert\n        /* \"#utility.yul\":2311:2433   */\n    tag_27:\n        /* \"#utility.yul\":2384:2408   */\n      tag_61\n        /* \"#utility.yul\":2402:2407   */\n      dup2\n        /* \"#utility.yul\":2384:2408   */\n      tag_37\n      jump\t// in\n    tag_61:\n        /* \"#utility.yul\":2377:2382   */\n      dup2\n        /* \"#utility.yul\":2374:2409   */\n      eq\n        /* \"#utility.yul\":2364:2427   */\n      tag_62\n      jumpi\n        /* \"#utility.yul\":2423:2424   */\n      0x00\n        /* \"#utility.yul\":2420:2421   */\n      dup1\n        /* \"#utility.yul\":2413:2425   */\n      revert\n        /* \"#utility.yul\":2364:2427   */\n    tag_62:\n        /* \"#utility.yul\":2311:2433   */\n      pop\n      jump\t// out\n\n    auxdata: 0xa264697066735822122008246077113c0787b5892199d00492c5525b21efd3a4028689dd93f60b93ac9f64736f6c63430008070033\n}\n",
				"bytecode": {
					"linkReferences": {},
					"object": "608060405234801561001057600080fd5b506102aa806100206000396000f3fe608060405234801561001057600080fd5b50600436106100365760003560e01c8063165c4a161461003b578063f88e9fbf1461006b575b600080fd5b610055600480360381019061005091906100fb565b61009b565b604051610062919061014a565b60405180910390f35b610085600480360381019061008091906100fb565b6100b1565b604051610092919061014a565b60405180910390f35b600081836100a99190610196565b905092915050565b6000808214156100c057600080fd5b6000606490508281856100d39190610196565b6100dd9190610165565b91505092915050565b6000813590506100f58161025d565b92915050565b6000806040838503121561011257610111610258565b5b6000610120858286016100e6565b9250506020610131858286016100e6565b9150509250929050565b610144816101f0565b82525050565b600060208201905061015f600083018461013b565b92915050565b6000610170826101f0565b915061017b836101f0565b92508261018b5761018a610229565b5b828204905092915050565b60006101a1826101f0565b91506101ac836101f0565b9250817fffffffffffffffffffffffffffffffffffffffffffffffffffffffffffffffff04831182151516156101e5576101e46101fa565b5b828202905092915050565b6000819050919050565b7f4e487b7100000000000000000000000000000000000000000000000000000000600052601160045260246000fd5b7f4e487b7100000000000000000000000000000000000000000000000000000000600052601260045260246000fd5b600080fd5b610266816101f0565b811461027157600080fd5b5056fea264697066735822122008246077113c0787b5892199d00492c5525b21efd3a4028689dd93f60b93ac9f64736f6c63430008070033",
					"opcodes": "PUSH1 0x80 PUSH1 0x40 MSTORE CALLVALUE DUP1 ISZERO PUSH2 0x10 JUMPI PUSH1 0x0 DUP1 REVERT JUMPDEST POP PUSH2 0x2AA DUP1 PUSH2 0x20 PUSH1 0x0 CODECOPY PUSH1 0x0 RETURN INVALID PUSH1 0x80 PUSH1 0x40 MSTORE CALLVALUE DUP1 ISZERO PUSH2 0x10 JUMPI PUSH1 0x0 DUP1 REVERT JUMPDEST POP PUSH1 0x4 CALLDATASIZE LT PUSH2 0x36 JUMPI PUSH1 0x0 CALLDATALOAD PUSH1 0xE0 SHR DUP1 PUSH4 0x165C4A16 EQ PUSH2 0x3B JUMPI DUP1 PUSH4 0xF88E9FBF EQ PUSH2 0x6B JUMPI JUMPDEST PUSH1 0x0 DUP1 REVERT JUMPDEST PUSH2 0x55 PUSH1 0x4 DUP1 CALLDATASIZE SUB DUP2 ADD SWAP1 PUSH2 0x50 SWAP2 SWAP1 PUSH2 0xFB JUMP JUMPDEST PUSH2 0x9B JUMP JUMPDEST PUSH1 0x40 MLOAD PUSH2 0x62 SWAP2 SWAP1 PUSH2 0x14A JUMP JUMPDEST PUSH1 0x40 MLOAD DUP1 SWAP2 SUB SWAP1 RETURN JUMPDEST PUSH2 0x85 PUSH1 0x4 DUP1 CALLDATASIZE SUB DUP2 ADD SWAP1 PUSH2 0x80 SWAP2 SWAP1 PUSH2 0xFB JUMP JUMPDEST PUSH2 0xB1 JUMP JUMPDEST PUSH1 0x40 MLOAD PUSH2 0x92 SWAP2 SWAP1 PUSH2 0x14A JUMP JUMPDEST PUSH1 0x40 MLOAD DUP1 SWAP2 SUB SWAP1 RETURN JUMPDEST PUSH1 0x0 DUP2 DUP4 PUSH2 0xA9 SWAP2 SWAP1 PUSH2 0x196 JUMP JUMPDEST SWAP1 POP SWAP3 SWAP2 POP POP JUMP JUMPDEST PUSH1 0x0 DUP1 DUP3 EQ ISZERO PUSH2 0xC0 JUMPI PUSH1 0x0 DUP1 REVERT JUMPDEST PUSH1 0x0 PUSH1 0x64 SWAP1 POP DUP3 DUP2 DUP6 PUSH2 0xD3 SWAP2 SWAP1 PUSH2 0x196 JUMP JUMPDEST PUSH2 0xDD SWAP2 SWAP1 PUSH2 0x165 JUMP JUMPDEST SWAP2 POP POP SWAP3 SWAP2 POP POP JUMP JUMPDEST PUSH1 0x0 DUP2 CALLDATALOAD SWAP1 POP PUSH2 0xF5 DUP2 PUSH2 0x25D JUMP JUMPDEST SWAP3 SWAP2 POP POP JUMP JUMPDEST PUSH1 0x0 DUP1 PUSH1 0x40 DUP4 DUP6 SUB SLT ISZERO PUSH2 0x112 JUMPI PUSH2 0x111 PUSH2 0x258 JUMP JUMPDEST JUMPDEST PUSH1 0x0 PUSH2 0x120 DUP6 DUP3 DUP7 ADD PUSH2 0xE6 JUMP JUMPDEST SWAP3 POP POP PUSH1 0x20 PUSH2 0x131 DUP6 DUP3 DUP7 ADD PUSH2 0xE6 JUMP JUMPDEST SWAP2 POP POP SWAP3 POP SWAP3 SWAP1 POP JUMP JUMPDEST PUSH2 0x144 DUP2 PUSH2 0x1F0 JUMP JUMPDEST DUP3 MSTORE POP POP JUMP JUMPDEST PUSH1 0x0 PUSH1 0x20 DUP3 ADD SWAP1 POP PUSH2 0x15F PUSH1 0x0 DUP4 ADD DUP5 PUSH2 0x13B JUMP JUMPDEST SWAP3 SWAP2 POP POP JUMP JUMPDEST PUSH1 0x0 PUSH2 0x170 DUP3 PUSH2 0x1F0 JUMP JUMPDEST SWAP2 POP PUSH2 0x17B DUP4 PUSH2 0x1F0 JUMP JUMPDEST SWAP3 POP DUP3 PUSH2 0x18B JUMPI PUSH2 0x18A PUSH2 0x229 JUMP JUMPDEST JUMPDEST DUP3 DUP3 DIV SWAP1 POP SWAP3 SWAP2 POP POP JUMP JUMPDEST PUSH1 0x0 PUSH2 0x1A1 DUP3 PUSH2 0x1F0 JUMP JUMPDEST SWAP2 POP PUSH2 0x1AC DUP4 PUSH2 0x1F0 JUMP JUMPDEST SWAP3 POP DUP2 PUSH32 0xFFFFFFFFFFFFFFFFFFFFFFFFFFFFFFFFFFFFFFFFFFFFFFFFFFFFFFFFFFFFFFFF DIV DUP4 GT DUP3 ISZERO ISZERO AND ISZERO PUSH2 0x1E5 JUMPI PUSH2 0x1E4 PUSH2 0x1FA JUMP JUMPDEST JUMPDEST DUP3 DUP3 MUL SWAP1 POP SWAP3 SWAP2 POP POP JUMP JUMPDEST PUSH1 0x0 DUP2 SWAP1 POP SWAP2 SWAP1 POP JUMP JUMPDEST PUSH32 0x4E487B7100000000000000000000000000000000000000000000000000000000 PUSH1 0x0 MSTORE PUSH1 0x11 PUSH1 0x4 MSTORE PUSH1 0x24 PUSH1 0x0 REVERT JUMPDEST PUSH32 0x4E487B7100000000000000000000000000000000000000000000000000000000 PUSH1 0x0 MSTORE PUSH1 0x12 PUSH1 0x4 MSTORE PUSH1 0x24 PUSH1 0x0 REVERT JUMPDEST PUSH1 0x0 DUP1 REVERT JUMPDEST PUSH2 0x266 DUP2 PUSH2 0x1F0 JUMP JUMPDEST DUP2 EQ PUSH2 0x271 JUMPI PUSH1 0x0 DUP1 REVERT JUMPDEST POP JUMP INVALID LOG2 PUSH5 0x6970667358 0x22 SLT KECCAK256 ADDMOD 0x24 PUSH1 0x77 GT EXTCODECOPY SMOD DUP8 0xB5 DUP10 0x21 SWAP10 0xD0 DIV SWAP3 0xC5 MSTORE JUMPDEST 0x21 0xEF 0xD3 LOG4 MUL DUP7 DUP10 0xDD SWAP4 0xF6 SIGNEXTEND SWAP4 0xAC SWAP16 PUSH5 0x736F6C6343 STOP ADDMOD SMOD STOP CALLER "
				},
				"gasEstimates": {
					"creation": {
						"codeDepositCost": "136400",
						"executionCost": "183",
						"totalCost": "136583"
					},
					"external": {
						"divide(uint256,uint256)": "infinite",
						"multiply(uint256,uint256)": "infinite"
					}
				},
				"methodIdentifiers": {
					"divide(uint256,uint256)": "f88e9fbf",
					"multiply(uint256,uint256)": "165c4a16"
				}
			},
			"storageLayout": {
				"storage": [],
				"types": null
			},
			"userdoc": {
				"kind": "user",
				"methods": {},
				"version": 1
			}
		}
	}
}