{
	"34EtherWallet.sol": {
		"EtherWallet": {
			"abi": [
				{
					"inputs": [],
					"stateMutability": "nonpayable",
					"type": "constructor"
				},
				{
					"inputs": [],
					"name": "owner",
					"outputs": [
						{
							"internalType": "address payable",
							"name": "",
							"type": "address"
						}
					],
					"stateMutability": "view",
					"type": "function"
				},
				{
					"inputs": [],
					"name": "queryAccount",
					"outputs": [
						{
							"internalType": "uint256",
							"name": "",
							"type": "uint256"
						}
					],
					"stateMutability": "view",
					"type": "function"
				},
				{
					"inputs": [
						{
							"internalType": "uint256",
							"name": "_amount",
							"type": "uint256"
						}
					],
					"name": "withdraw",
					"outputs": [],
					"stateMutability": "nonpayable",
					"type": "function"
				},
				{
					"stateMutability": "payable",
					"type": "receive"
				}
			],
			"devdoc": {
				"kind": "dev",
				"methods": {},
				"version": 1
			},
			"evm": {
				"assembly": "    /* \"34EtherWallet.sol\":298:840  contract EtherWallet{... */\n  mstore(0x40, 0x80)\n    /* \"34EtherWallet.sol\":450:508  constructor() {... */\n  callvalue\n  dup1\n  iszero\n  tag_1\n  jumpi\n  0x00\n  dup1\n  revert\ntag_1:\n  pop\n    /* \"34EtherWallet.sol\":490:500  msg.sender */\n  caller\n    /* \"34EtherWallet.sol\":474:479  owner */\n  0x00\n  dup1\n    /* \"34EtherWallet.sol\":474:501  owner = payable(msg.sender) */\n  0x0100\n  exp\n  dup2\n  sload\n  dup2\n  0xffffffffffffffffffffffffffffffffffffffff\n  mul\n  not\n  and\n  swap1\n  dup4\n  0xffffffffffffffffffffffffffffffffffffffff\n  and\n  mul\n  or\n  swap1\n  sstore\n  pop\n    /* \"34EtherWallet.sol\":298:840  contract EtherWallet{... */\n  dataSize(sub_0)\n  dup1\n  dataOffset(sub_0)\n  0x00\n  codecopy\n  0x00\n  return\nstop\n\nsub_0: assembly {\n        /* \"34EtherWallet.sol\":298:840  contract EtherWallet{... */\n      mstore(0x40, 0x80)\n      jumpi(tag_1, lt(calldatasize, 0x04))\n      shr(0xe0, calldataload(0x00))\n      dup1\n      0x2e1a7d4d\n      eq\n      tag_3\n      jumpi\n      dup1\n      0x8da5cb5b\n      eq\n      tag_4\n      jumpi\n      dup1\n      0xb701254a\n      eq\n      tag_5\n      jumpi\n      jump(tag_2)\n    tag_1:\n      jumpi(tag_2, calldatasize)\n      stop\n    tag_2:\n      0x00\n      dup1\n      revert\n        /* \"34EtherWallet.sol\":550:737  function withdraw(uint _amount)external {... */\n    tag_3:\n      callvalue\n      dup1\n      iszero\n      tag_8\n      jumpi\n      0x00\n      dup1\n      revert\n    tag_8:\n      pop\n      tag_9\n      0x04\n      dup1\n      calldatasize\n      sub\n      dup2\n      add\n      swap1\n      tag_10\n      swap2\n      swap1\n      tag_11\n      jump\t// in\n    tag_10:\n      tag_12\n      jump\t// in\n    tag_9:\n      stop\n        /* \"34EtherWallet.sol\":355:383  address payable public owner */\n    tag_4:\n      callvalue\n      dup1\n      iszero\n      tag_13\n      jumpi\n      0x00\n      dup1\n      revert\n    tag_13:\n      pop\n      tag_14\n      tag_15\n      jump\t// in\n    tag_14:\n      mload(0x40)\n      tag_16\n      swap2\n      swap1\n      tag_17\n      jump\t// in\n    tag_16:\n      mload(0x40)\n      dup1\n      swap2\n      sub\n      swap1\n      return\n        /* \"34EtherWallet.sol\":743:838  function queryAccount()external view returns(uint){... */\n    tag_5:\n      callvalue\n      dup1\n      iszero\n      tag_18\n      jumpi\n      0x00\n      dup1\n      revert\n    tag_18:\n      pop\n      tag_19\n      tag_20\n      jump\t// in\n    tag_19:\n      mload(0x40)\n      tag_21\n      swap2\n      swap1\n      tag_22\n      jump\t// in\n    tag_21:\n      mload(0x40)\n      dup1\n      swap2\n      sub\n      swap1\n      return\n        /* \"34EtherWallet.sol\":550:737  function withdraw(uint _amount)external {... */\n    tag_12:\n        /* \"34EtherWallet.sol\":669:674  owner */\n      0x00\n      dup1\n      sload\n      swap1\n      0x0100\n      exp\n      swap1\n      div\n      0xffffffffffffffffffffffffffffffffffffffff\n      and\n        /* \"34EtherWallet.sol\":657:674  msg.sender==owner */\n      0xffffffffffffffffffffffffffffffffffffffff\n      and\n        /* \"34EtherWallet.sol\":657:667  msg.sender */\n      caller\n        /* \"34EtherWallet.sol\":657:674  msg.sender==owner */\n      0xffffffffffffffffffffffffffffffffffffffff\n      and\n      eq\n        /* \"34EtherWallet.sol\":649:697  require(msg.sender==owner,\"caller is not owner\") */\n      tag_24\n      jumpi\n      mload(0x40)\n      0x08c379a000000000000000000000000000000000000000000000000000000000\n      dup2\n      mstore\n      0x04\n      add\n      tag_25\n      swap1\n      tag_26\n      jump\t// in\n    tag_25:\n      mload(0x40)\n      dup1\n      swap2\n      sub\n      swap1\n      revert\n    tag_24:\n        /* \"34EtherWallet.sol\":707:712  owner */\n      0x00\n      dup1\n      sload\n      swap1\n      0x0100\n      exp\n      swap1\n      div\n      0xffffffffffffffffffffffffffffffffffffffff\n      and\n        /* \"34EtherWallet.sol\":707:721  owner.transfer */\n      0xffffffffffffffffffffffffffffffffffffffff\n      and\n        /* \"34EtherWallet.sol\":707:730  owner.transfer(_amount) */\n      0x08fc\n        /* \"34EtherWallet.sol\":722:729  _amount */\n      dup3\n        /* \"34EtherWallet.sol\":707:730  owner.transfer(_amount) */\n      swap1\n      dup2\n      iszero\n      mul\n      swap1\n      mload(0x40)\n      0x00\n      mload(0x40)\n      dup1\n      dup4\n      sub\n      dup2\n      dup6\n      dup9\n      dup9\n      call\n      swap4\n      pop\n      pop\n      pop\n      pop\n      iszero\n      dup1\n      iszero\n      tag_28\n      jumpi\n      returndatasize\n      0x00\n      dup1\n      returndatacopy\n      revert(0x00, returndatasize)\n    tag_28:\n      pop\n        /* \"34EtherWallet.sol\":550:737  function withdraw(uint _amount)external {... */\n      pop\n      jump\t// out\n        /* \"34EtherWallet.sol\":355:383  address payable public owner */\n    tag_15:\n      0x00\n      dup1\n      sload\n      swap1\n      0x0100\n      exp\n      swap1\n      div\n      0xffffffffffffffffffffffffffffffffffffffff\n      and\n      dup2\n      jump\t// out\n        /* \"34EtherWallet.sol\":743:838  function queryAccount()external view returns(uint){... */\n    tag_20:\n        /* \"34EtherWallet.sol\":788:792  uint */\n      0x00\n        /* \"34EtherWallet.sol\":810:831  address(this).balance */\n      selfbalance\n        /* \"34EtherWallet.sol\":803:831  return address(this).balance */\n      swap1\n      pop\n        /* \"34EtherWallet.sol\":743:838  function queryAccount()external view returns(uint){... */\n      swap1\n      jump\t// out\n        /* \"#utility.yul\":7:146   */\n    tag_31:\n        /* \"#utility.yul\":53:58   */\n      0x00\n        /* \"#utility.yul\":91:97   */\n      dup2\n        /* \"#utility.yul\":78:98   */\n      calldataload\n        /* \"#utility.yul\":69:98   */\n      swap1\n      pop\n        /* \"#utility.yul\":107:140   */\n      tag_33\n        /* \"#utility.yul\":134:139   */\n      dup2\n        /* \"#utility.yul\":107:140   */\n      tag_34\n      jump\t// in\n    tag_33:\n        /* \"#utility.yul\":7:146   */\n      swap3\n      swap2\n      pop\n      pop\n      jump\t// out\n        /* \"#utility.yul\":152:481   */\n    tag_11:\n        /* \"#utility.yul\":211:217   */\n      0x00\n        /* \"#utility.yul\":260:262   */\n      0x20\n        /* \"#utility.yul\":248:257   */\n      dup3\n        /* \"#utility.yul\":239:246   */\n      dup5\n        /* \"#utility.yul\":235:258   */\n      sub\n        /* \"#utility.yul\":231:263   */\n      slt\n        /* \"#utility.yul\":228:347   */\n      iszero\n      tag_36\n      jumpi\n        /* \"#utility.yul\":266:345   */\n      tag_37\n      tag_38\n      jump\t// in\n    tag_37:\n        /* \"#utility.yul\":228:347   */\n    tag_36:\n        /* \"#utility.yul\":386:387   */\n      0x00\n        /* \"#utility.yul\":411:464   */\n      tag_39\n        /* \"#utility.yul\":456:463   */\n      dup5\n        /* \"#utility.yul\":447:453   */\n      dup3\n        /* \"#utility.yul\":436:445   */\n      dup6\n        /* \"#utility.yul\":432:454   */\n      add\n        /* \"#utility.yul\":411:464   */\n      tag_31\n      jump\t// in\n    tag_39:\n        /* \"#utility.yul\":401:464   */\n      swap2\n      pop\n        /* \"#utility.yul\":357:474   */\n      pop\n        /* \"#utility.yul\":152:481   */\n      swap3\n      swap2\n      pop\n      pop\n      jump\t// out\n        /* \"#utility.yul\":487:629   */\n    tag_40:\n        /* \"#utility.yul\":590:622   */\n      tag_42\n        /* \"#utility.yul\":616:621   */\n      dup2\n        /* \"#utility.yul\":590:622   */\n      tag_43\n      jump\t// in\n    tag_42:\n        /* \"#utility.yul\":585:588   */\n      dup3\n        /* \"#utility.yul\":578:623   */\n      mstore\n        /* \"#utility.yul\":487:629   */\n      pop\n      pop\n      jump\t// out\n        /* \"#utility.yul\":635:1001   */\n    tag_44:\n        /* \"#utility.yul\":777:780   */\n      0x00\n        /* \"#utility.yul\":798:865   */\n      tag_46\n        /* \"#utility.yul\":862:864   */\n      0x13\n        /* \"#utility.yul\":857:860   */\n      dup4\n        /* \"#utility.yul\":798:865   */\n      tag_47\n      jump\t// in\n    tag_46:\n        /* \"#utility.yul\":791:865   */\n      swap2\n      pop\n        /* \"#utility.yul\":874:967   */\n      tag_48\n        /* \"#utility.yul\":963:966   */\n      dup3\n        /* \"#utility.yul\":874:967   */\n      tag_49\n      jump\t// in\n    tag_48:\n        /* \"#utility.yul\":992:994   */\n      0x20\n        /* \"#utility.yul\":987:990   */\n      dup3\n        /* \"#utility.yul\":983:995   */\n      add\n        /* \"#utility.yul\":976:995   */\n      swap1\n      pop\n        /* \"#utility.yul\":635:1001   */\n      swap2\n      swap1\n      pop\n      jump\t// out\n        /* \"#utility.yul\":1007:1125   */\n    tag_50:\n        /* \"#utility.yul\":1094:1118   */\n      tag_52\n        /* \"#utility.yul\":1112:1117   */\n      dup2\n        /* \"#utility.yul\":1094:1118   */\n      tag_53\n      jump\t// in\n    tag_52:\n        /* \"#utility.yul\":1089:1092   */\n      dup3\n        /* \"#utility.yul\":1082:1119   */\n      mstore\n        /* \"#utility.yul\":1007:1125   */\n      pop\n      pop\n      jump\t// out\n        /* \"#utility.yul\":1131:1385   */\n    tag_17:\n        /* \"#utility.yul\":1240:1244   */\n      0x00\n        /* \"#utility.yul\":1278:1280   */\n      0x20\n        /* \"#utility.yul\":1267:1276   */\n      dup3\n        /* \"#utility.yul\":1263:1281   */\n      add\n        /* \"#utility.yul\":1255:1281   */\n      swap1\n      pop\n        /* \"#utility.yul\":1291:1378   */\n      tag_55\n        /* \"#utility.yul\":1375:1376   */\n      0x00\n        /* \"#utility.yul\":1364:1373   */\n      dup4\n        /* \"#utility.yul\":1360:1377   */\n      add\n        /* \"#utility.yul\":1351:1357   */\n      dup5\n        /* \"#utility.yul\":1291:1378   */\n      tag_40\n      jump\t// in\n    tag_55:\n        /* \"#utility.yul\":1131:1385   */\n      swap3\n      swap2\n      pop\n      pop\n      jump\t// out\n        /* \"#utility.yul\":1391:1810   */\n    tag_26:\n        /* \"#utility.yul\":1557:1561   */\n      0x00\n        /* \"#utility.yul\":1595:1597   */\n      0x20\n        /* \"#utility.yul\":1584:1593   */\n      dup3\n        /* \"#utility.yul\":1580:1598   */\n      add\n        /* \"#utility.yul\":1572:1598   */\n      swap1\n      pop\n        /* \"#utility.yul\":1644:1653   */\n      dup2\n        /* \"#utility.yul\":1638:1642   */\n      dup2\n        /* \"#utility.yul\":1634:1654   */\n      sub\n        /* \"#utility.yul\":1630:1631   */\n      0x00\n        /* \"#utility.yul\":1619:1628   */\n      dup4\n        /* \"#utility.yul\":1615:1632   */\n      add\n        /* \"#utility.yul\":1608:1655   */\n      mstore\n        /* \"#utility.yul\":1672:1803   */\n      tag_57\n        /* \"#utility.yul\":1798:1802   */\n      dup2\n        /* \"#utility.yul\":1672:1803   */\n      tag_44\n      jump\t// in\n    tag_57:\n        /* \"#utility.yul\":1664:1803   */\n      swap1\n      pop\n        /* \"#utility.yul\":1391:1810   */\n      swap2\n      swap1\n      pop\n      jump\t// out\n        /* \"#utility.yul\":1816:2038   */\n    tag_22:\n        /* \"#utility.yul\":1909:1913   */\n      0x00\n        /* \"#utility.yul\":1947:1949   */\n      0x20\n        /* \"#utility.yul\":1936:1945   */\n      dup3\n        /* \"#utility.yul\":1932:1950   */\n      add\n        /* \"#utility.yul\":1924:1950   */\n      swap1\n      pop\n        /* \"#utility.yul\":1960:2031   */\n      tag_59\n        /* \"#utility.yul\":2028:2029   */\n      0x00\n        /* \"#utility.yul\":2017:2026   */\n      dup4\n        /* \"#utility.yul\":2013:2030   */\n      add\n        /* \"#utility.yul\":2004:2010   */\n      dup5\n        /* \"#utility.yul\":1960:2031   */\n      tag_50\n      jump\t// in\n    tag_59:\n        /* \"#utility.yul\":1816:2038   */\n      swap3\n      swap2\n      pop\n      pop\n      jump\t// out\n        /* \"#utility.yul\":2125:2294   */\n    tag_47:\n        /* \"#utility.yul\":2209:2220   */\n      0x00\n        /* \"#utility.yul\":2243:2249   */\n      dup3\n        /* \"#utility.yul\":2238:2241   */\n      dup3\n        /* \"#utility.yul\":2231:2250   */\n      mstore\n        /* \"#utility.yul\":2283:2287   */\n      0x20\n        /* \"#utility.yul\":2278:2281   */\n      dup3\n        /* \"#utility.yul\":2274:2288   */\n      add\n        /* \"#utility.yul\":2259:2288   */\n      swap1\n      pop\n        /* \"#utility.yul\":2125:2294   */\n      swap3\n      swap2\n      pop\n      pop\n      jump\t// out\n        /* \"#utility.yul\":2300:2404   */\n    tag_43:\n        /* \"#utility.yul\":2345:2352   */\n      0x00\n        /* \"#utility.yul\":2374:2398   */\n      tag_64\n        /* \"#utility.yul\":2392:2397   */\n      dup3\n        /* \"#utility.yul\":2374:2398   */\n      tag_65\n      jump\t// in\n    tag_64:\n        /* \"#utility.yul\":2363:2398   */\n      swap1\n      pop\n        /* \"#utility.yul\":2300:2404   */\n      swap2\n      swap1\n      pop\n      jump\t// out\n        /* \"#utility.yul\":2410:2536   */\n    tag_65:\n        /* \"#utility.yul\":2447:2454   */\n      0x00\n        /* \"#utility.yul\":2487:2529   */\n      0xffffffffffffffffffffffffffffffffffffffff\n        /* \"#utility.yul\":2480:2485   */\n      dup3\n        /* \"#utility.yul\":2476:2530   */\n      and\n        /* \"#utility.yul\":2465:2530   */\n      swap1\n      pop\n        /* \"#utility.yul\":2410:2536   */\n      swap2\n      swap1\n      pop\n      jump\t// out\n        /* \"#utility.yul\":2542:2619   */\n    tag_53:\n        /* \"#utility.yul\":2579:2586   */\n      0x00\n        /* \"#utility.yul\":2608:2613   */\n      dup2\n        /* \"#utility.yul\":2597:2613   */\n      swap1\n      pop\n        /* \"#utility.yul\":2542:2619   */\n      swap2\n      swap1\n      pop\n      jump\t// out\n        /* \"#utility.yul\":2748:2865   */\n    tag_38:\n        /* \"#utility.yul\":2857:2858   */\n      0x00\n        /* \"#utility.yul\":2854:2855   */\n      dup1\n        /* \"#utility.yul\":2847:2859   */\n      revert\n        /* \"#utility.yul\":2871:3040   */\n    tag_49:\n        /* \"#utility.yul\":3011:3032   */\n      0x63616c6c6572206973206e6f74206f776e657200000000000000000000000000\n        /* \"#utility.yul\":3007:3008   */\n      0x00\n        /* \"#utility.yul\":2999:3005   */\n      dup3\n        /* \"#utility.yul\":2995:3009   */\n      add\n        /* \"#utility.yul\":2988:3033   */\n      mstore\n        /* \"#utility.yul\":2871:3040   */\n      pop\n      jump\t// out\n        /* \"#utility.yul\":3046:3168   */\n    tag_34:\n        /* \"#utility.yul\":3119:3143   */\n      tag_73\n        /* \"#utility.yul\":3137:3142   */\n      dup2\n        /* \"#utility.yul\":3119:3143   */\n      tag_53\n      jump\t// in\n    tag_73:\n        /* \"#utility.yul\":3112:3117   */\n      dup2\n        /* \"#utility.yul\":3109:3144   */\n      eq\n        /* \"#utility.yul\":3099:3162   */\n      tag_74\n      jumpi\n        /* \"#utility.yul\":3158:3159   */\n      0x00\n        /* \"#utility.yul\":3155:3156   */\n      dup1\n        /* \"#utility.yul\":3148:3160   */\n      revert\n        /* \"#utility.yul\":3099:3162   */\n    tag_74:\n        /* \"#utility.yul\":3046:3168   */\n      pop\n      jump\t// out\n\n    auxdata: 0xa2646970667358221220ea6c8468d312a511dcc0327853c3d227591e51a1e13dd33b1291427f4e1a5ca064736f6c63430008070033\n}\n",
				"bytecode": {
					"linkReferences": {},
					"object": "608060405234801561001057600080fd5b50336000806101000a81548173ffffffffffffffffffffffffffffffffffffffff021916908373ffffffffffffffffffffffffffffffffffffffff160217905550610388806100606000396000f3fe6080604052600436106100385760003560e01c80632e1a7d4d146100445780638da5cb5b1461006d578063b701254a146100985761003f565b3661003f57005b600080fd5b34801561005057600080fd5b5061006b600480360381019061006691906101fc565b6100c3565b005b34801561007957600080fd5b506100826101bb565b60405161008f919061026a565b60405180910390f35b3480156100a457600080fd5b506100ad6101df565b6040516100ba91906102a5565b60405180910390f35b60008054906101000a900473ffffffffffffffffffffffffffffffffffffffff1673ffffffffffffffffffffffffffffffffffffffff163373ffffffffffffffffffffffffffffffffffffffff1614610151576040517f08c379a000000000000000000000000000000000000000000000000000000000815260040161014890610285565b60405180910390fd5b60008054906101000a900473ffffffffffffffffffffffffffffffffffffffff1673ffffffffffffffffffffffffffffffffffffffff166108fc829081150290604051600060405180830381858888f193505050501580156101b7573d6000803e3d6000fd5b5050565b60008054906101000a900473ffffffffffffffffffffffffffffffffffffffff1681565b600047905090565b6000813590506101f68161033b565b92915050565b6000602082840312156102125761021161030d565b5b6000610220848285016101e7565b91505092915050565b610232816102d1565b82525050565b60006102456013836102c0565b915061025082610312565b602082019050919050565b61026481610303565b82525050565b600060208201905061027f6000830184610229565b92915050565b6000602082019050818103600083015261029e81610238565b9050919050565b60006020820190506102ba600083018461025b565b92915050565b600082825260208201905092915050565b60006102dc826102e3565b9050919050565b600073ffffffffffffffffffffffffffffffffffffffff82169050919050565b6000819050919050565b600080fd5b7f63616c6c6572206973206e6f74206f776e657200000000000000000000000000600082015250565b61034481610303565b811461034f57600080fd5b5056fea2646970667358221220ea6c8468d312a511dcc0327853c3d227591e51a1e13dd33b1291427f4e1a5ca064736f6c63430008070033",
					"opcodes": "PUSH1 0x80 PUSH1 0x40 MSTORE CALLVALUE DUP1 ISZERO PUSH2 0x10 JUMPI PUSH1 0x0 DUP1 REVERT JUMPDEST POP CALLER PUSH1 0x0 DUP1 PUSH2 0x100 EXP DUP2 SLOAD DUP2 PUSH20 0xFFFFFFFFFFFFFFFFFFFFFFFFFFFFFFFFFFFFFFFF MUL NOT AND SWAP1 DUP4 PUSH20 0xFFFFFFFFFFFFFFFFFFFFFFFFFFFFFFFFFFFFFFFF AND MUL OR SWAP1 SSTORE POP PUSH2 0x388 DUP1 PUSH2 0x60 PUSH1 0x0 CODECOPY PUSH1 0x0 RETURN INVALID PUSH1 0x80 PUSH1 0x40 MSTORE PUSH1 0x4 CALLDATASIZE LT PUSH2 0x38 JUMPI PUSH1 0x0 CALLDATALOAD PUSH1 0xE0 SHR DUP1 PUSH4 0x2E1A7D4D EQ PUSH2 0x44 JUMPI DUP1 PUSH4 0x8DA5CB5B EQ PUSH2 0x6D JUMPI DUP1 PUSH4 0xB701254A EQ PUSH2 0x98 JUMPI PUSH2 0x3F JUMP JUMPDEST CALLDATASIZE PUSH2 0x3F JUMPI STOP JUMPDEST PUSH1 0x0 DUP1 REVERT JUMPDEST CALLVALUE DUP1 ISZERO PUSH2 0x50 JUMPI PUSH1 0x0 DUP1 REVERT JUMPDEST POP PUSH2 0x6B PUSH1 0x4 DUP1 CALLDATASIZE SUB DUP2 ADD SWAP1 PUSH2 0x66 SWAP2 SWAP1 PUSH2 0x1FC JUMP JUMPDEST PUSH2 0xC3 JUMP JUMPDEST STOP JUMPDEST CALLVALUE DUP1 ISZERO PUSH2 0x79 JUMPI PUSH1 0x0 DUP1 REVERT JUMPDEST POP PUSH2 0x82 PUSH2 0x1BB JUMP JUMPDEST PUSH1 0x40 MLOAD PUSH2 0x8F SWAP2 SWAP1 PUSH2 0x26A JUMP JUMPDEST PUSH1 0x40 MLOAD DUP1 SWAP2 SUB SWAP1 RETURN JUMPDEST CALLVALUE DUP1 ISZERO PUSH2 0xA4 JUMPI PUSH1 0x0 DUP1 REVERT JUMPDEST POP PUSH2 0xAD PUSH2 0x1DF JUMP JUMPDEST PUSH1 0x40 MLOAD PUSH2 0xBA SWAP2 SWAP1 PUSH2 0x2A5 JUMP JUMPDEST PUSH1 0x40 MLOAD DUP1 SWAP2 SUB SWAP1 RETURN JUMPDEST PUSH1 0x0 DUP1 SLOAD SWAP1 PUSH2 0x100 EXP SWAP1 DIV PUSH20 0xFFFFFFFFFFFFFFFFFFFFFFFFFFFFFFFFFFFFFFFF AND PUSH20 0xFFFFFFFFFFFFFFFFFFFFFFFFFFFFFFFFFFFFFFFF AND CALLER PUSH20 0xFFFFFFFFFFFFFFFFFFFFFFFFFFFFFFFFFFFFFFFF AND EQ PUSH2 0x151 JUMPI PUSH1 0x40 MLOAD PUSH32 0x8C379A000000000000000000000000000000000000000000000000000000000 DUP2 MSTORE PUSH1 0x4 ADD PUSH2 0x148 SWAP1 PUSH2 0x285 JUMP JUMPDEST PUSH1 0x40 MLOAD DUP1 SWAP2 SUB SWAP1 REVERT JUMPDEST PUSH1 0x0 DUP1 SLOAD SWAP1 PUSH2 0x100 EXP SWAP1 DIV PUSH20 0xFFFFFFFFFFFFFFFFFFFFFFFFFFFFFFFFFFFFFFFF AND PUSH20 0xFFFFFFFFFFFFFFFFFFFFFFFFFFFFFFFFFFFFFFFF AND PUSH2 0x8FC DUP3 SWAP1 DUP2 ISZERO MUL SWAP1 PUSH1 0x40 MLOAD PUSH1 0x0 PUSH1 0x40 MLOAD DUP1 DUP4 SUB DUP2 DUP6 DUP9 DUP9 CALL SWAP4 POP POP POP POP ISZERO DUP1 ISZERO PUSH2 0x1B7 JUMPI RETURNDATASIZE PUSH1 0x0 DUP1 RETURNDATACOPY RETURNDATASIZE PUSH1 0x0 REVERT JUMPDEST POP POP JUMP JUMPDEST PUSH1 0x0 DUP1 SLOAD SWAP1 PUSH2 0x100 EXP SWAP1 DIV PUSH20 0xFFFFFFFFFFFFFFFFFFFFFFFFFFFFFFFFFFFFFFFF AND DUP2 JUMP JUMPDEST PUSH1 0x0 SELFBALANCE SWAP1 POP SWAP1 JUMP JUMPDEST PUSH1 0x0 DUP2 CALLDATALOAD SWAP1 POP PUSH2 0x1F6 DUP2 PUSH2 0x33B JUMP JUMPDEST SWAP3 SWAP2 POP POP JUMP JUMPDEST PUSH1 0x0 PUSH1 0x20 DUP3 DUP5 SUB SLT ISZERO PUSH2 0x212 JUMPI PUSH2 0x211 PUSH2 0x30D JUMP JUMPDEST JUMPDEST PUSH1 0x0 PUSH2 0x220 DUP5 DUP3 DUP6 ADD PUSH2 0x1E7 JUMP JUMPDEST SWAP2 POP POP SWAP3 SWAP2 POP POP JUMP JUMPDEST PUSH2 0x232 DUP2 PUSH2 0x2D1 JUMP JUMPDEST DUP3 MSTORE POP POP JUMP JUMPDEST PUSH1 0x0 PUSH2 0x245 PUSH1 0x13 DUP4 PUSH2 0x2C0 JUMP JUMPDEST SWAP2 POP PUSH2 0x250 DUP3 PUSH2 0x312 JUMP JUMPDEST PUSH1 0x20 DUP3 ADD SWAP1 POP SWAP2 SWAP1 POP JUMP JUMPDEST PUSH2 0x264 DUP2 PUSH2 0x303 JUMP JUMPDEST DUP3 MSTORE POP POP JUMP JUMPDEST PUSH1 0x0 PUSH1 0x20 DUP3 ADD SWAP1 POP PUSH2 0x27F PUSH1 0x0 DUP4 ADD DUP5 PUSH2 0x229 JUMP JUMPDEST SWAP3 SWAP2 POP POP JUMP JUMPDEST PUSH1 0x0 PUSH1 0x20 DUP3 ADD SWAP1 POP DUP2 DUP2 SUB PUSH1 0x0 DUP4 ADD MSTORE PUSH2 0x29E DUP2 PUSH2 0x238 JUMP JUMPDEST SWAP1 POP SWAP2 SWAP1 POP JUMP JUMPDEST PUSH1 0x0 PUSH1 0x20 DUP3 ADD SWAP1 POP PUSH2 0x2BA PUSH1 0x0 DUP4 ADD DUP5 PUSH2 0x25B JUMP JUMPDEST SWAP3 SWAP2 POP POP JUMP JUMPDEST PUSH1 0x0 DUP3 DUP3 MSTORE PUSH1 0x20 DUP3 ADD SWAP1 POP SWAP3 SWAP2 POP POP JUMP JUMPDEST PUSH1 0x0 PUSH2 0x2DC DUP3 PUSH2 0x2E3 JUMP JUMPDEST SWAP1 POP SWAP2 SWAP1 POP JUMP JUMPDEST PUSH1 0x0 PUSH20 0xFFFFFFFFFFFFFFFFFFFFFFFFFFFFFFFFFFFFFFFF DUP3 AND SWAP1 POP SWAP2 SWAP1 POP JUMP JUMPDEST PUSH1 0x0 DUP2 SWAP1 POP SWAP2 SWAP1 POP JUMP JUMPDEST PUSH1 0x0 DUP1 REVERT JUMPDEST PUSH32 0x63616C6C6572206973206E6F74206F776E657200000000000000000000000000 PUSH1 0x0 DUP3 ADD MSTORE POP JUMP JUMPDEST PUSH2 0x344 DUP2 PUSH2 0x303 JUMP JUMPDEST DUP2 EQ PUSH2 0x34F JUMPI PUSH1 0x0 DUP1 REVERT JUMPDEST POP JUMP INVALID LOG2 PUSH5 0x6970667358 0x22 SLT KECCAK256 0xEA PUSH13 0x8468D312A511DCC0327853C3D2 0x27 MSIZE 0x1E MLOAD LOG1 0xE1 RETURNDATASIZE 0xD3 EXTCODESIZE SLT SWAP2 TIMESTAMP PUSH32 0x4E1A5CA064736F6C634300080700330000000000000000000000000000000000 "
				},
				"gasEstimates": {
					"creation": {
						"codeDepositCost": "180800",
						"executionCost": "24492",
						"totalCost": "205292"
					},
					"external": {
						"owner()": "2511",
						"queryAccount()": "361",
						"withdraw(uint256)": "infinite"
					}
				},
				"methodIdentifiers": {
					"owner()": "8da5cb5b",
					"queryAccount()": "b701254a",
					"withdraw(uint256)": "2e1a7d4d"
				}
			},
			"storageLayout": {
				"storage": [
					{
						"astId": 3,
						"contract": "34EtherWallet.sol:EtherWallet",
						"label": "owner",
						"offset": 0,
						"slot": "0",
						"type": "t_address_payable"
					}
				],
				"types": {
					"t_address_payable": {
						"encoding": "inplace",
						"label": "address payable",
						"numberOfBytes": "20"
					}
				}
			},
			"userdoc": {
				"kind": "user",
				"methods": {},
				"version": 1
			}
		}
	}
}