{
	"11ForAndWhile.sol": {
		"ForAndWhile": {
			"abi": [
				{
					"inputs": [],
					"name": "forLoops",
					"outputs": [],
					"stateMutability": "pure",
					"type": "function"
				},
				{
					"inputs": [],
					"name": "forWhile",
					"outputs": [],
					"stateMutability": "pure",
					"type": "function"
				},
				{
					"inputs": [
						{
							"internalType": "uint256",
							"name": "_x",
							"type": "uint256"
						}
					],
					"name": "sumFor",
					"outputs": [
						{
							"internalType": "uint256",
							"name": "",
							"type": "uint256"
						}
					],
					"stateMutability": "pure",
					"type": "function"
				},
				{
					"inputs": [
						{
							"internalType": "uint256",
							"name": "_y",
							"type": "uint256"
						}
					],
					"name": "sumWhile",
					"outputs": [
						{
							"internalType": "uint256",
							"name": "",
							"type": "uint256"
						}
					],
					"stateMutability": "pure",
					"type": "function"
				}
			],
			"devdoc": {
				"kind": "dev",
				"methods": {},
				"version": 1
			},
			"evm": {
				"assembly": "    /* \"11ForAndWhile.sol\":56:795  contract ForAndWhile{... */\n  mstore(0x40, 0x80)\n  callvalue\n  dup1\n  iszero\n  tag_1\n  jumpi\n  0x00\n  dup1\n  revert\ntag_1:\n  pop\n  dataSize(sub_0)\n  dup1\n  dataOffset(sub_0)\n  0x00\n  codecopy\n  0x00\n  return\nstop\n\nsub_0: assembly {\n        /* \"11ForAndWhile.sol\":56:795  contract ForAndWhile{... */\n      mstore(0x40, 0x80)\n      callvalue\n      dup1\n      iszero\n      tag_1\n      jumpi\n      0x00\n      dup1\n      revert\n    tag_1:\n      pop\n      jumpi(tag_2, lt(calldatasize, 0x04))\n      shr(0xe0, calldataload(0x00))\n      dup1\n      0x044f9a49\n      eq\n      tag_3\n      jumpi\n      dup1\n      0x5ccda9d0\n      eq\n      tag_4\n      jumpi\n      dup1\n      0xa09da550\n      eq\n      tag_5\n      jumpi\n      dup1\n      0xe4e05ee0\n      eq\n      tag_6\n      jumpi\n    tag_2:\n      0x00\n      dup1\n      revert\n        /* \"11ForAndWhile.sol\":82:286  function forLoops() external pure {... */\n    tag_3:\n      tag_7\n      tag_8\n      jump\t// in\n    tag_7:\n      stop\n        /* \"11ForAndWhile.sol\":595:793  function sumWhile(uint _y)external pure returns(uint){... */\n    tag_4:\n      tag_9\n      0x04\n      dup1\n      calldatasize\n      sub\n      dup2\n      add\n      swap1\n      tag_10\n      swap2\n      swap1\n      tag_11\n      jump\t// in\n    tag_10:\n      tag_12\n      jump\t// in\n    tag_9:\n      mload(0x40)\n      tag_13\n      swap2\n      swap1\n      tag_14\n      jump\t// in\n    tag_13:\n      mload(0x40)\n      dup1\n      swap2\n      sub\n      swap1\n      return\n        /* \"11ForAndWhile.sol\":292:400  function forWhile() external pure {... */\n    tag_5:\n      tag_15\n      tag_16\n      jump\t// in\n    tag_15:\n      stop\n        /* \"11ForAndWhile.sol\":406:589  function sumFor(uint _x) external pure returns(uint){... */\n    tag_6:\n      tag_17\n      0x04\n      dup1\n      calldatasize\n      sub\n      dup2\n      add\n      swap1\n      tag_18\n      swap2\n      swap1\n      tag_11\n      jump\t// in\n    tag_18:\n      tag_19\n      jump\t// in\n    tag_17:\n      mload(0x40)\n      tag_20\n      swap2\n      swap1\n      tag_14\n      jump\t// in\n    tag_20:\n      mload(0x40)\n      dup1\n      swap2\n      sub\n      swap1\n      return\n        /* \"11ForAndWhile.sol\":82:286  function forLoops() external pure {... */\n    tag_8:\n        /* \"11ForAndWhile.sol\":130:136  uint i */\n      0x00\n        /* \"11ForAndWhile.sol\":126:280  for(uint i=0;i<10;i++){... */\n    tag_22:\n        /* \"11ForAndWhile.sol\":141:143  10 */\n      0x0a\n        /* \"11ForAndWhile.sol\":139:140  i */\n      dup2\n        /* \"11ForAndWhile.sol\":139:143  i<10 */\n      lt\n        /* \"11ForAndWhile.sol\":126:280  for(uint i=0;i<10;i++){... */\n      iszero\n      tag_23\n      jumpi\n        /* \"11ForAndWhile.sol\":168:169  3 */\n      0x03\n        /* \"11ForAndWhile.sol\":165:166  i */\n      dup2\n        /* \"11ForAndWhile.sol\":165:169  i==3 */\n      eq\n        /* \"11ForAndWhile.sol\":162:211  if(i==3){... */\n      iszero\n      tag_25\n      jumpi\n        /* \"11ForAndWhile.sol\":188:196  continue */\n      jump(tag_24)\n        /* \"11ForAndWhile.sol\":162:211  if(i==3){... */\n    tag_25:\n        /* \"11ForAndWhile.sol\":230:231  5 */\n      0x05\n        /* \"11ForAndWhile.sol\":227:228  i */\n      dup2\n        /* \"11ForAndWhile.sol\":227:231  i==5 */\n      eq\n        /* \"11ForAndWhile.sol\":224:270  if(i==5){... */\n      iszero\n      tag_26\n      jumpi\n        /* \"11ForAndWhile.sol\":250:255  break */\n      jump(tag_23)\n        /* \"11ForAndWhile.sol\":224:270  if(i==5){... */\n    tag_26:\n        /* \"11ForAndWhile.sol\":126:280  for(uint i=0;i<10;i++){... */\n    tag_24:\n        /* \"11ForAndWhile.sol\":144:147  i++ */\n      dup1\n      dup1\n      tag_27\n      swap1\n      tag_28\n      jump\t// in\n    tag_27:\n      swap2\n      pop\n      pop\n        /* \"11ForAndWhile.sol\":126:280  for(uint i=0;i<10;i++){... */\n      jump(tag_22)\n    tag_23:\n      pop\n        /* \"11ForAndWhile.sol\":82:286  function forLoops() external pure {... */\n      jump\t// out\n        /* \"11ForAndWhile.sol\":595:793  function sumWhile(uint _y)external pure returns(uint){... */\n    tag_12:\n        /* \"11ForAndWhile.sol\":643:647  uint */\n      0x00\n        /* \"11ForAndWhile.sol\":658:667  uint sum1 */\n      dup1\n        /* \"11ForAndWhile.sol\":677:683  uint j */\n      0x00\n        /* \"11ForAndWhile.sol\":684:685  1 */\n      0x01\n        /* \"11ForAndWhile.sol\":677:685  uint j=1 */\n      swap1\n      pop\n        /* \"11ForAndWhile.sol\":695:766  while(j<=_y){... */\n    tag_30:\n        /* \"11ForAndWhile.sol\":704:706  _y */\n      dup4\n        /* \"11ForAndWhile.sol\":701:702  j */\n      dup2\n        /* \"11ForAndWhile.sol\":701:706  j<=_y */\n      gt\n        /* \"11ForAndWhile.sol\":695:766  while(j<=_y){... */\n      tag_31\n      jumpi\n        /* \"11ForAndWhile.sol\":735:736  j */\n      dup1\n        /* \"11ForAndWhile.sol\":728:732  sum1 */\n      dup3\n        /* \"11ForAndWhile.sol\":728:736  sum1 + j */\n      tag_32\n      swap2\n      swap1\n      tag_33\n      jump\t// in\n    tag_32:\n        /* \"11ForAndWhile.sol\":721:736  sum1 = sum1 + j */\n      swap2\n      pop\n        /* \"11ForAndWhile.sol\":750:753  j++ */\n      dup1\n      dup1\n      tag_34\n      swap1\n      tag_28\n      jump\t// in\n    tag_34:\n      swap2\n      pop\n      pop\n        /* \"11ForAndWhile.sol\":695:766  while(j<=_y){... */\n      jump(tag_30)\n    tag_31:\n        /* \"11ForAndWhile.sol\":782:786  sum1 */\n      dup2\n        /* \"11ForAndWhile.sol\":775:786  return sum1 */\n      swap3\n      pop\n      pop\n      pop\n        /* \"11ForAndWhile.sol\":595:793  function sumWhile(uint _y)external pure returns(uint){... */\n      swap2\n      swap1\n      pop\n      jump\t// out\n        /* \"11ForAndWhile.sol\":292:400  function forWhile() external pure {... */\n    tag_16:\n        /* \"11ForAndWhile.sol\":336:342  uint j */\n      0x00\n        /* \"11ForAndWhile.sol\":355:394  while(j<10){... */\n    tag_36:\n        /* \"11ForAndWhile.sol\":363:365  10 */\n      0x0a\n        /* \"11ForAndWhile.sol\":361:362  j */\n      dup2\n        /* \"11ForAndWhile.sol\":361:365  j<10 */\n      lt\n        /* \"11ForAndWhile.sol\":355:394  while(j<10){... */\n      iszero\n      tag_37\n      jumpi\n        /* \"11ForAndWhile.sol\":380:383  j++ */\n      dup1\n      dup1\n      tag_38\n      swap1\n      tag_28\n      jump\t// in\n    tag_38:\n      swap2\n      pop\n      pop\n        /* \"11ForAndWhile.sol\":355:394  while(j<10){... */\n      jump(tag_36)\n    tag_37:\n        /* \"11ForAndWhile.sol\":326:400  {... */\n      pop\n        /* \"11ForAndWhile.sol\":292:400  function forWhile() external pure {... */\n      jump\t// out\n        /* \"11ForAndWhile.sol\":406:589  function sumFor(uint _x) external pure returns(uint){... */\n    tag_19:\n        /* \"11ForAndWhile.sol\":453:457  uint */\n      0x00\n        /* \"11ForAndWhile.sol\":468:476  uint sum */\n      dup1\n        /* \"11ForAndWhile.sol\":506:512  uint i */\n      0x00\n        /* \"11ForAndWhile.sol\":513:514  1 */\n      0x01\n        /* \"11ForAndWhile.sol\":506:514  uint i=1 */\n      swap1\n      pop\n        /* \"11ForAndWhile.sol\":502:563  for(uint i=1;i<=_x;i++){... */\n    tag_40:\n        /* \"11ForAndWhile.sol\":518:520  _x */\n      dup4\n        /* \"11ForAndWhile.sol\":515:516  i */\n      dup2\n        /* \"11ForAndWhile.sol\":515:520  i<=_x */\n      gt\n        /* \"11ForAndWhile.sol\":502:563  for(uint i=1;i<=_x;i++){... */\n      tag_41\n      jumpi\n        /* \"11ForAndWhile.sol\":551:552  i */\n      dup1\n        /* \"11ForAndWhile.sol\":545:548  sum */\n      dup3\n        /* \"11ForAndWhile.sol\":545:552  sum + i */\n      tag_43\n      swap2\n      swap1\n      tag_33\n      jump\t// in\n    tag_43:\n        /* \"11ForAndWhile.sol\":539:552  sum = sum + i */\n      swap2\n      pop\n        /* \"11ForAndWhile.sol\":521:524  i++ */\n      dup1\n      dup1\n      tag_44\n      swap1\n      tag_28\n      jump\t// in\n    tag_44:\n      swap2\n      pop\n      pop\n        /* \"11ForAndWhile.sol\":502:563  for(uint i=1;i<=_x;i++){... */\n      jump(tag_40)\n    tag_41:\n      pop\n        /* \"11ForAndWhile.sol\":579:582  sum */\n      dup1\n        /* \"11ForAndWhile.sol\":572:582  return sum */\n      swap2\n      pop\n      pop\n        /* \"11ForAndWhile.sol\":406:589  function sumFor(uint _x) external pure returns(uint){... */\n      swap2\n      swap1\n      pop\n      jump\t// out\n        /* \"#utility.yul\":7:146   */\n    tag_46:\n        /* \"#utility.yul\":53:58   */\n      0x00\n        /* \"#utility.yul\":91:97   */\n      dup2\n        /* \"#utility.yul\":78:98   */\n      calldataload\n        /* \"#utility.yul\":69:98   */\n      swap1\n      pop\n        /* \"#utility.yul\":107:140   */\n      tag_48\n        /* \"#utility.yul\":134:139   */\n      dup2\n        /* \"#utility.yul\":107:140   */\n      tag_49\n      jump\t// in\n    tag_48:\n        /* \"#utility.yul\":7:146   */\n      swap3\n      swap2\n      pop\n      pop\n      jump\t// out\n        /* \"#utility.yul\":152:481   */\n    tag_11:\n        /* \"#utility.yul\":211:217   */\n      0x00\n        /* \"#utility.yul\":260:262   */\n      0x20\n        /* \"#utility.yul\":248:257   */\n      dup3\n        /* \"#utility.yul\":239:246   */\n      dup5\n        /* \"#utility.yul\":235:258   */\n      sub\n        /* \"#utility.yul\":231:263   */\n      slt\n        /* \"#utility.yul\":228:347   */\n      iszero\n      tag_51\n      jumpi\n        /* \"#utility.yul\":266:345   */\n      tag_52\n      tag_53\n      jump\t// in\n    tag_52:\n        /* \"#utility.yul\":228:347   */\n    tag_51:\n        /* \"#utility.yul\":386:387   */\n      0x00\n        /* \"#utility.yul\":411:464   */\n      tag_54\n        /* \"#utility.yul\":456:463   */\n      dup5\n        /* \"#utility.yul\":447:453   */\n      dup3\n        /* \"#utility.yul\":436:445   */\n      dup6\n        /* \"#utility.yul\":432:454   */\n      add\n        /* \"#utility.yul\":411:464   */\n      tag_46\n      jump\t// in\n    tag_54:\n        /* \"#utility.yul\":401:464   */\n      swap2\n      pop\n        /* \"#utility.yul\":357:474   */\n      pop\n        /* \"#utility.yul\":152:481   */\n      swap3\n      swap2\n      pop\n      pop\n      jump\t// out\n        /* \"#utility.yul\":487:605   */\n    tag_55:\n        /* \"#utility.yul\":574:598   */\n      tag_57\n        /* \"#utility.yul\":592:597   */\n      dup2\n        /* \"#utility.yul\":574:598   */\n      tag_58\n      jump\t// in\n    tag_57:\n        /* \"#utility.yul\":569:572   */\n      dup3\n        /* \"#utility.yul\":562:599   */\n      mstore\n        /* \"#utility.yul\":487:605   */\n      pop\n      pop\n      jump\t// out\n        /* \"#utility.yul\":611:833   */\n    tag_14:\n        /* \"#utility.yul\":704:708   */\n      0x00\n        /* \"#utility.yul\":742:744   */\n      0x20\n        /* \"#utility.yul\":731:740   */\n      dup3\n        /* \"#utility.yul\":727:745   */\n      add\n        /* \"#utility.yul\":719:745   */\n      swap1\n      pop\n        /* \"#utility.yul\":755:826   */\n      tag_60\n        /* \"#utility.yul\":823:824   */\n      0x00\n        /* \"#utility.yul\":812:821   */\n      dup4\n        /* \"#utility.yul\":808:825   */\n      add\n        /* \"#utility.yul\":799:805   */\n      dup5\n        /* \"#utility.yul\":755:826   */\n      tag_55\n      jump\t// in\n    tag_60:\n        /* \"#utility.yul\":611:833   */\n      swap3\n      swap2\n      pop\n      pop\n      jump\t// out\n        /* \"#utility.yul\":920:1225   */\n    tag_33:\n        /* \"#utility.yul\":960:963   */\n      0x00\n        /* \"#utility.yul\":979:999   */\n      tag_64\n        /* \"#utility.yul\":997:998   */\n      dup3\n        /* \"#utility.yul\":979:999   */\n      tag_58\n      jump\t// in\n    tag_64:\n        /* \"#utility.yul\":974:999   */\n      swap2\n      pop\n        /* \"#utility.yul\":1013:1033   */\n      tag_65\n        /* \"#utility.yul\":1031:1032   */\n      dup4\n        /* \"#utility.yul\":1013:1033   */\n      tag_58\n      jump\t// in\n    tag_65:\n        /* \"#utility.yul\":1008:1033   */\n      swap3\n      pop\n        /* \"#utility.yul\":1167:1168   */\n      dup3\n        /* \"#utility.yul\":1099:1165   */\n      0xffffffffffffffffffffffffffffffffffffffffffffffffffffffffffffffff\n        /* \"#utility.yul\":1095:1169   */\n      sub\n        /* \"#utility.yul\":1092:1093   */\n      dup3\n        /* \"#utility.yul\":1089:1170   */\n      gt\n        /* \"#utility.yul\":1086:1193   */\n      iszero\n      tag_66\n      jumpi\n        /* \"#utility.yul\":1173:1191   */\n      tag_67\n      tag_68\n      jump\t// in\n    tag_67:\n        /* \"#utility.yul\":1086:1193   */\n    tag_66:\n        /* \"#utility.yul\":1217:1218   */\n      dup3\n        /* \"#utility.yul\":1214:1215   */\n      dup3\n        /* \"#utility.yul\":1210:1219   */\n      add\n        /* \"#utility.yul\":1203:1219   */\n      swap1\n      pop\n        /* \"#utility.yul\":920:1225   */\n      swap3\n      swap2\n      pop\n      pop\n      jump\t// out\n        /* \"#utility.yul\":1231:1308   */\n    tag_58:\n        /* \"#utility.yul\":1268:1275   */\n      0x00\n        /* \"#utility.yul\":1297:1302   */\n      dup2\n        /* \"#utility.yul\":1286:1302   */\n      swap1\n      pop\n        /* \"#utility.yul\":1231:1308   */\n      swap2\n      swap1\n      pop\n      jump\t// out\n        /* \"#utility.yul\":1314:1547   */\n    tag_28:\n        /* \"#utility.yul\":1353:1356   */\n      0x00\n        /* \"#utility.yul\":1376:1400   */\n      tag_71\n        /* \"#utility.yul\":1394:1399   */\n      dup3\n        /* \"#utility.yul\":1376:1400   */\n      tag_58\n      jump\t// in\n    tag_71:\n        /* \"#utility.yul\":1367:1400   */\n      swap2\n      pop\n        /* \"#utility.yul\":1422:1488   */\n      0xffffffffffffffffffffffffffffffffffffffffffffffffffffffffffffffff\n        /* \"#utility.yul\":1415:1420   */\n      dup3\n        /* \"#utility.yul\":1412:1489   */\n      eq\n        /* \"#utility.yul\":1409:1512   */\n      iszero\n      tag_72\n      jumpi\n        /* \"#utility.yul\":1492:1510   */\n      tag_73\n      tag_68\n      jump\t// in\n    tag_73:\n        /* \"#utility.yul\":1409:1512   */\n    tag_72:\n        /* \"#utility.yul\":1539:1540   */\n      0x01\n        /* \"#utility.yul\":1532:1537   */\n      dup3\n        /* \"#utility.yul\":1528:1541   */\n      add\n        /* \"#utility.yul\":1521:1541   */\n      swap1\n      pop\n        /* \"#utility.yul\":1314:1547   */\n      swap2\n      swap1\n      pop\n      jump\t// out\n        /* \"#utility.yul\":1553:1733   */\n    tag_68:\n        /* \"#utility.yul\":1601:1678   */\n      0x4e487b7100000000000000000000000000000000000000000000000000000000\n        /* \"#utility.yul\":1598:1599   */\n      0x00\n        /* \"#utility.yul\":1591:1679   */\n      mstore\n        /* \"#utility.yul\":1698:1702   */\n      0x11\n        /* \"#utility.yul\":1695:1696   */\n      0x04\n        /* \"#utility.yul\":1688:1703   */\n      mstore\n        /* \"#utility.yul\":1722:1726   */\n      0x24\n        /* \"#utility.yul\":1719:1720   */\n      0x00\n        /* \"#utility.yul\":1712:1727   */\n      revert\n        /* \"#utility.yul\":1862:1979   */\n    tag_53:\n        /* \"#utility.yul\":1971:1972   */\n      0x00\n        /* \"#utility.yul\":1968:1969   */\n      dup1\n        /* \"#utility.yul\":1961:1973   */\n      revert\n        /* \"#utility.yul\":1985:2107   */\n    tag_49:\n        /* \"#utility.yul\":2058:2082   */\n      tag_79\n        /* \"#utility.yul\":2076:2081   */\n      dup2\n        /* \"#utility.yul\":2058:2082   */\n      tag_58\n      jump\t// in\n    tag_79:\n        /* \"#utility.yul\":2051:2056   */\n      dup2\n        /* \"#utility.yul\":2048:2083   */\n      eq\n        /* \"#utility.yul\":2038:2101   */\n      tag_80\n      jumpi\n        /* \"#utility.yul\":2097:2098   */\n      0x00\n        /* \"#utility.yul\":2094:2095   */\n      dup1\n        /* \"#utility.yul\":2087:2099   */\n      revert\n        /* \"#utility.yul\":2038:2101   */\n    tag_80:\n        /* \"#utility.yul\":1985:2107   */\n      pop\n      jump\t// out\n\n    auxdata: 0xa26469706673582212200fb120104648a09c6348b09ec45eabb48564868e8e719b4cfc9f445f5c88253b64736f6c63430008070033\n}\n",
				"bytecode": {
					"linkReferences": {},
					"object": "608060405234801561001057600080fd5b50610334806100206000396000f3fe608060405234801561001057600080fd5b506004361061004c5760003560e01c8063044f9a49146100515780635ccda9d01461005b578063a09da5501461008b578063e4e05ee014610095575b600080fd5b6100596100c5565b005b610075600480360381019061007091906101b3565b610104565b60405161008291906101ef565b60405180910390f35b610093610140565b005b6100af60048036038101906100aa91906101b3565b610162565b6040516100bc91906101ef565b60405180910390f35b60005b600a8110156101015760038114156100df576100ee565b60058114156100ed57610101565b5b80806100f99061026a565b9150506100c8565b50565b6000806000600190505b838111610136578082610121919061020a565b9150808061012e9061026a565b91505061010e565b8192505050919050565b60005b600a81101561015f5780806101579061026a565b915050610143565b50565b6000806000600190505b83811161019457808261017f919061020a565b9150808061018c9061026a565b91505061016c565b5080915050919050565b6000813590506101ad816102e7565b92915050565b6000602082840312156101c9576101c86102e2565b5b60006101d78482850161019e565b91505092915050565b6101e981610260565b82525050565b600060208201905061020460008301846101e0565b92915050565b600061021582610260565b915061022083610260565b9250827fffffffffffffffffffffffffffffffffffffffffffffffffffffffffffffffff03821115610255576102546102b3565b5b828201905092915050565b6000819050919050565b600061027582610260565b91507fffffffffffffffffffffffffffffffffffffffffffffffffffffffffffffffff8214156102a8576102a76102b3565b5b600182019050919050565b7f4e487b7100000000000000000000000000000000000000000000000000000000600052601160045260246000fd5b600080fd5b6102f081610260565b81146102fb57600080fd5b5056fea26469706673582212200fb120104648a09c6348b09ec45eabb48564868e8e719b4cfc9f445f5c88253b64736f6c63430008070033",
					"opcodes": "PUSH1 0x80 PUSH1 0x40 MSTORE CALLVALUE DUP1 ISZERO PUSH2 0x10 JUMPI PUSH1 0x0 DUP1 REVERT JUMPDEST POP PUSH2 0x334 DUP1 PUSH2 0x20 PUSH1 0x0 CODECOPY PUSH1 0x0 RETURN INVALID PUSH1 0x80 PUSH1 0x40 MSTORE CALLVALUE DUP1 ISZERO PUSH2 0x10 JUMPI PUSH1 0x0 DUP1 REVERT JUMPDEST POP PUSH1 0x4 CALLDATASIZE LT PUSH2 0x4C JUMPI PUSH1 0x0 CALLDATALOAD PUSH1 0xE0 SHR DUP1 PUSH4 0x44F9A49 EQ PUSH2 0x51 JUMPI DUP1 PUSH4 0x5CCDA9D0 EQ PUSH2 0x5B JUMPI DUP1 PUSH4 0xA09DA550 EQ PUSH2 0x8B JUMPI DUP1 PUSH4 0xE4E05EE0 EQ PUSH2 0x95 JUMPI JUMPDEST PUSH1 0x0 DUP1 REVERT JUMPDEST PUSH2 0x59 PUSH2 0xC5 JUMP JUMPDEST STOP JUMPDEST PUSH2 0x75 PUSH1 0x4 DUP1 CALLDATASIZE SUB DUP2 ADD SWAP1 PUSH2 0x70 SWAP2 SWAP1 PUSH2 0x1B3 JUMP JUMPDEST PUSH2 0x104 JUMP JUMPDEST PUSH1 0x40 MLOAD PUSH2 0x82 SWAP2 SWAP1 PUSH2 0x1EF JUMP JUMPDEST PUSH1 0x40 MLOAD DUP1 SWAP2 SUB SWAP1 RETURN JUMPDEST PUSH2 0x93 PUSH2 0x140 JUMP JUMPDEST STOP JUMPDEST PUSH2 0xAF PUSH1 0x4 DUP1 CALLDATASIZE SUB DUP2 ADD SWAP1 PUSH2 0xAA SWAP2 SWAP1 PUSH2 0x1B3 JUMP JUMPDEST PUSH2 0x162 JUMP JUMPDEST PUSH1 0x40 MLOAD PUSH2 0xBC SWAP2 SWAP1 PUSH2 0x1EF JUMP JUMPDEST PUSH1 0x40 MLOAD DUP1 SWAP2 SUB SWAP1 RETURN JUMPDEST PUSH1 0x0 JUMPDEST PUSH1 0xA DUP2 LT ISZERO PUSH2 0x101 JUMPI PUSH1 0x3 DUP2 EQ ISZERO PUSH2 0xDF JUMPI PUSH2 0xEE JUMP JUMPDEST PUSH1 0x5 DUP2 EQ ISZERO PUSH2 0xED JUMPI PUSH2 0x101 JUMP JUMPDEST JUMPDEST DUP1 DUP1 PUSH2 0xF9 SWAP1 PUSH2 0x26A JUMP JUMPDEST SWAP2 POP POP PUSH2 0xC8 JUMP JUMPDEST POP JUMP JUMPDEST PUSH1 0x0 DUP1 PUSH1 0x0 PUSH1 0x1 SWAP1 POP JUMPDEST DUP4 DUP2 GT PUSH2 0x136 JUMPI DUP1 DUP3 PUSH2 0x121 SWAP2 SWAP1 PUSH2 0x20A JUMP JUMPDEST SWAP2 POP DUP1 DUP1 PUSH2 0x12E SWAP1 PUSH2 0x26A JUMP JUMPDEST SWAP2 POP POP PUSH2 0x10E JUMP JUMPDEST DUP2 SWAP3 POP POP POP SWAP2 SWAP1 POP JUMP JUMPDEST PUSH1 0x0 JUMPDEST PUSH1 0xA DUP2 LT ISZERO PUSH2 0x15F JUMPI DUP1 DUP1 PUSH2 0x157 SWAP1 PUSH2 0x26A JUMP JUMPDEST SWAP2 POP POP PUSH2 0x143 JUMP JUMPDEST POP JUMP JUMPDEST PUSH1 0x0 DUP1 PUSH1 0x0 PUSH1 0x1 SWAP1 POP JUMPDEST DUP4 DUP2 GT PUSH2 0x194 JUMPI DUP1 DUP3 PUSH2 0x17F SWAP2 SWAP1 PUSH2 0x20A JUMP JUMPDEST SWAP2 POP DUP1 DUP1 PUSH2 0x18C SWAP1 PUSH2 0x26A JUMP JUMPDEST SWAP2 POP POP PUSH2 0x16C JUMP JUMPDEST POP DUP1 SWAP2 POP POP SWAP2 SWAP1 POP JUMP JUMPDEST PUSH1 0x0 DUP2 CALLDATALOAD SWAP1 POP PUSH2 0x1AD DUP2 PUSH2 0x2E7 JUMP JUMPDEST SWAP3 SWAP2 POP POP JUMP JUMPDEST PUSH1 0x0 PUSH1 0x20 DUP3 DUP5 SUB SLT ISZERO PUSH2 0x1C9 JUMPI PUSH2 0x1C8 PUSH2 0x2E2 JUMP JUMPDEST JUMPDEST PUSH1 0x0 PUSH2 0x1D7 DUP5 DUP3 DUP6 ADD PUSH2 0x19E JUMP JUMPDEST SWAP2 POP POP SWAP3 SWAP2 POP POP JUMP JUMPDEST PUSH2 0x1E9 DUP2 PUSH2 0x260 JUMP JUMPDEST DUP3 MSTORE POP POP JUMP JUMPDEST PUSH1 0x0 PUSH1 0x20 DUP3 ADD SWAP1 POP PUSH2 0x204 PUSH1 0x0 DUP4 ADD DUP5 PUSH2 0x1E0 JUMP JUMPDEST SWAP3 SWAP2 POP POP JUMP JUMPDEST PUSH1 0x0 PUSH2 0x215 DUP3 PUSH2 0x260 JUMP JUMPDEST SWAP2 POP PUSH2 0x220 DUP4 PUSH2 0x260 JUMP JUMPDEST SWAP3 POP DUP3 PUSH32 0xFFFFFFFFFFFFFFFFFFFFFFFFFFFFFFFFFFFFFFFFFFFFFFFFFFFFFFFFFFFFFFFF SUB DUP3 GT ISZERO PUSH2 0x255 JUMPI PUSH2 0x254 PUSH2 0x2B3 JUMP JUMPDEST JUMPDEST DUP3 DUP3 ADD SWAP1 POP SWAP3 SWAP2 POP POP JUMP JUMPDEST PUSH1 0x0 DUP2 SWAP1 POP SWAP2 SWAP1 POP JUMP JUMPDEST PUSH1 0x0 PUSH2 0x275 DUP3 PUSH2 0x260 JUMP JUMPDEST SWAP2 POP PUSH32 0xFFFFFFFFFFFFFFFFFFFFFFFFFFFFFFFFFFFFFFFFFFFFFFFFFFFFFFFFFFFFFFFF DUP3 EQ ISZERO PUSH2 0x2A8 JUMPI PUSH2 0x2A7 PUSH2 0x2B3 JUMP JUMPDEST JUMPDEST PUSH1 0x1 DUP3 ADD SWAP1 POP SWAP2 SWAP1 POP JUMP JUMPDEST PUSH32 0x4E487B7100000000000000000000000000000000000000000000000000000000 PUSH1 0x0 MSTORE PUSH1 0x11 PUSH1 0x4 MSTORE PUSH1 0x24 PUSH1 0x0 REVERT JUMPDEST PUSH1 0x0 DUP1 REVERT JUMPDEST PUSH2 0x2F0 DUP2 PUSH2 0x260 JUMP JUMPDEST DUP2 EQ PUSH2 0x2FB JUMPI PUSH1 0x0 DUP1 REVERT JUMPDEST POP JUMP INVALID LOG2 PUSH5 0x6970667358 0x22 SLT KECCAK256 0xF 0xB1 KECCAK256 LT CHAINID BASEFEE LOG0 SWAP13 PUSH4 0x48B09EC4 0x5E 0xAB 0xB4 DUP6 PUSH5 0x868E8E719B 0x4C 0xFC SWAP16 DIFFICULTY 0x5F 0x5C DUP9 0x25 EXTCODESIZE PUSH5 0x736F6C6343 STOP ADDMOD SMOD STOP CALLER "
				},
				"gasEstimates": {
					"creation": {
						"codeDepositCost": "164000",
						"executionCost": "208",
						"totalCost": "164208"
					},
					"external": {
						"forLoops()": "infinite",
						"forWhile()": "infinite",
						"sumFor(uint256)": "infinite",
						"sumWhile(uint256)": "infinite"
					}
				},
				"methodIdentifiers": {
					"forLoops()": "044f9a49",
					"forWhile()": "a09da550",
					"sumFor(uint256)": "e4e05ee0",
					"sumWhile(uint256)": "5ccda9d0"
				}
			},
			"storageLayout": {
				"storage": [],
				"types": null
			},
			"userdoc": {
				"kind": "user",
				"methods": {},
				"version": 1
			}
		}
	}
}