{
	"24TodoList.sol": {
		"TodoList": {
			"abi": [
				{
					"inputs": [
						{
							"internalType": "string",
							"name": "_text",
							"type": "string"
						},
						{
							"internalType": "string",
							"name": "key",
							"type": "string"
						}
					],
					"name": "createTodo",
					"outputs": [],
					"stateMutability": "nonpayable",
					"type": "function"
				},
				{
					"inputs": [
						{
							"internalType": "uint256",
							"name": "index",
							"type": "uint256"
						}
					],
					"name": "getTodoList",
					"outputs": [
						{
							"internalType": "string",
							"name": "",
							"type": "string"
						},
						{
							"internalType": "bool",
							"name": "",
							"type": "bool"
						}
					],
					"stateMutability": "view",
					"type": "function"
				},
				{
					"inputs": [
						{
							"internalType": "string",
							"name": "",
							"type": "string"
						}
					],
					"name": "keyIsExited",
					"outputs": [
						{
							"internalType": "bool",
							"name": "",
							"type": "bool"
						}
					],
					"stateMutability": "view",
					"type": "function"
				},
				{
					"inputs": [
						{
							"internalType": "string",
							"name": "",
							"type": "string"
						}
					],
					"name": "keyWords",
					"outputs": [
						{
							"internalType": "string",
							"name": "text",
							"type": "string"
						},
						{
							"internalType": "bool",
							"name": "completed",
							"type": "bool"
						}
					],
					"stateMutability": "view",
					"type": "function"
				},
				{
					"inputs": [
						{
							"internalType": "uint256",
							"name": "",
							"type": "uint256"
						}
					],
					"name": "todoList",
					"outputs": [
						{
							"internalType": "string",
							"name": "text",
							"type": "string"
						},
						{
							"internalType": "bool",
							"name": "completed",
							"type": "bool"
						}
					],
					"stateMutability": "view",
					"type": "function"
				},
				{
					"inputs": [
						{
							"internalType": "uint256",
							"name": "_index",
							"type": "uint256"
						}
					],
					"name": "toggleCompleted",
					"outputs": [],
					"stateMutability": "nonpayable",
					"type": "function"
				},
				{
					"inputs": [
						{
							"internalType": "uint256",
							"name": "index",
							"type": "uint256"
						},
						{
							"internalType": "string",
							"name": "changeText",
							"type": "string"
						},
						{
							"internalType": "string",
							"name": "_key",
							"type": "string"
						}
					],
					"name": "updateText",
					"outputs": [],
					"stateMutability": "nonpayable",
					"type": "function"
				}
			],
			"devdoc": {
				"kind": "dev",
				"methods": {},
				"version": 1
			},
			"evm": {
				"assembly": "    /* \"24TodoList.sol\":481:2236  contract TodoList{... */\n  mstore(0x40, 0x80)\n  callvalue\n  dup1\n  iszero\n  tag_1\n  jumpi\n  0x00\n  dup1\n  revert\ntag_1:\n  pop\n  dataSize(sub_0)\n  dup1\n  dataOffset(sub_0)\n  0x00\n  codecopy\n  0x00\n  return\nstop\n\nsub_0: assembly {\n        /* \"24TodoList.sol\":481:2236  contract TodoList{... */\n      mstore(0x40, 0x80)\n      callvalue\n      dup1\n      iszero\n      tag_1\n      jumpi\n      0x00\n      dup1\n      revert\n    tag_1:\n      pop\n      jumpi(tag_2, lt(calldatasize, 0x04))\n      shr(0xe0, calldataload(0x00))\n      dup1\n      0x45c21fdf\n      gt\n      tag_10\n      jumpi\n      dup1\n      0x45c21fdf\n      eq\n      tag_6\n      jumpi\n      dup1\n      0x58c2d469\n      eq\n      tag_7\n      jumpi\n      dup1\n      0x5e545827\n      eq\n      tag_8\n      jumpi\n      dup1\n      0x60859e13\n      eq\n      tag_9\n      jumpi\n      jump(tag_2)\n    tag_10:\n      dup1\n      0x213f4e6c\n      eq\n      tag_3\n      jumpi\n      dup1\n      0x3380b99f\n      eq\n      tag_4\n      jumpi\n      dup1\n      0x455f5024\n      eq\n      tag_5\n      jumpi\n    tag_2:\n      0x00\n      dup1\n      revert\n        /* \"24TodoList.sol\":710:749  mapping(string => ToDo) public keyWords */\n    tag_3:\n      tag_11\n      0x04\n      dup1\n      calldatasize\n      sub\n      dup2\n      add\n      swap1\n      tag_12\n      swap2\n      swap1\n      tag_13\n      jump\t// in\n    tag_12:\n      tag_14\n      jump\t// in\n    tag_11:\n      mload(0x40)\n      tag_15\n      swap3\n      swap2\n      swap1\n      tag_16\n      jump\t// in\n    tag_15:\n      mload(0x40)\n      dup1\n      swap2\n      sub\n      swap1\n      return\n        /* \"24TodoList.sol\":862:1334  function createTodo(string calldata _text,string calldata key)external {... */\n    tag_4:\n      tag_17\n      0x04\n      dup1\n      calldatasize\n      sub\n      dup2\n      add\n      swap1\n      tag_18\n      swap2\n      swap1\n      tag_19\n      jump\t// in\n    tag_18:\n      tag_20\n      jump\t// in\n    tag_17:\n      stop\n        /* \"24TodoList.sol\":2115:2234  function toggleCompleted(uint _index)external {... */\n    tag_5:\n      tag_21\n      0x04\n      dup1\n      calldatasize\n      sub\n      dup2\n      add\n      swap1\n      tag_22\n      swap2\n      swap1\n      tag_23\n      jump\t// in\n    tag_22:\n      tag_24\n      jump\t// in\n    tag_21:\n      stop\n        /* \"24TodoList.sol\":813:855  mapping(string => bool) public keyIsExited */\n    tag_6:\n      tag_25\n      0x04\n      dup1\n      calldatasize\n      sub\n      dup2\n      add\n      swap1\n      tag_26\n      swap2\n      swap1\n      tag_13\n      jump\t// in\n    tag_26:\n      tag_27\n      jump\t// in\n    tag_25:\n      mload(0x40)\n      tag_28\n      swap2\n      swap1\n      tag_29\n      jump\t// in\n    tag_28:\n      mload(0x40)\n      dup1\n      swap2\n      sub\n      swap1\n      return\n        /* \"24TodoList.sol\":603:625  ToDo[] public todoList */\n    tag_7:\n      tag_30\n      0x04\n      dup1\n      calldatasize\n      sub\n      dup2\n      add\n      swap1\n      tag_31\n      swap2\n      swap1\n      tag_23\n      jump\t// in\n    tag_31:\n      tag_32\n      jump\t// in\n    tag_30:\n      mload(0x40)\n      tag_33\n      swap3\n      swap2\n      swap1\n      tag_16\n      jump\t// in\n    tag_33:\n      mload(0x40)\n      dup1\n      swap2\n      sub\n      swap1\n      return\n        /* \"24TodoList.sol\":1340:1937  function updateText(uint index,string calldata changeText,string calldata _key)public {... */\n    tag_8:\n      tag_34\n      0x04\n      dup1\n      calldatasize\n      sub\n      dup2\n      add\n      swap1\n      tag_35\n      swap2\n      swap1\n      tag_36\n      jump\t// in\n    tag_35:\n      tag_37\n      jump\t// in\n    tag_34:\n      stop\n        /* \"24TodoList.sol\":1943:2109  function getTodoList(uint index)external view returns(string memory,bool){... */\n    tag_9:\n      tag_38\n      0x04\n      dup1\n      calldatasize\n      sub\n      dup2\n      add\n      swap1\n      tag_39\n      swap2\n      swap1\n      tag_23\n      jump\t// in\n    tag_39:\n      tag_40\n      jump\t// in\n    tag_38:\n      mload(0x40)\n      tag_41\n      swap3\n      swap2\n      swap1\n      tag_16\n      jump\t// in\n    tag_41:\n      mload(0x40)\n      dup1\n      swap2\n      sub\n      swap1\n      return\n        /* \"24TodoList.sol\":710:749  mapping(string => ToDo) public keyWords */\n    tag_14:\n      0x01\n      dup2\n      dup1\n      mload\n      0x20\n      dup2\n      add\n      dup3\n      add\n      dup1\n      mload\n      dup5\n      dup3\n      mstore\n      0x20\n      dup4\n      add\n      0x20\n      dup6\n      add\n      keccak256\n      dup2\n      dup4\n      mstore\n      dup1\n      swap6\n      pop\n      pop\n      pop\n      pop\n      pop\n      pop\n      0x00\n      swap2\n      pop\n      swap1\n      pop\n      dup1\n      0x00\n      add\n      dup1\n      sload\n      tag_42\n      swap1\n      tag_43\n      jump\t// in\n    tag_42:\n      dup1\n      0x1f\n      add\n      0x20\n      dup1\n      swap2\n      div\n      mul\n      0x20\n      add\n      mload(0x40)\n      swap1\n      dup2\n      add\n      0x40\n      mstore\n      dup1\n      swap3\n      swap2\n      swap1\n      dup2\n      dup2\n      mstore\n      0x20\n      add\n      dup3\n      dup1\n      sload\n      tag_44\n      swap1\n      tag_43\n      jump\t// in\n    tag_44:\n      dup1\n      iszero\n      tag_45\n      jumpi\n      dup1\n      0x1f\n      lt\n      tag_46\n      jumpi\n      0x0100\n      dup1\n      dup4\n      sload\n      div\n      mul\n      dup4\n      mstore\n      swap2\n      0x20\n      add\n      swap2\n      jump(tag_45)\n    tag_46:\n      dup3\n      add\n      swap2\n      swap1\n      0x00\n      mstore\n      keccak256(0x00, 0x20)\n      swap1\n    tag_47:\n      dup2\n      sload\n      dup2\n      mstore\n      swap1\n      0x01\n      add\n      swap1\n      0x20\n      add\n      dup1\n      dup4\n      gt\n      tag_47\n      jumpi\n      dup3\n      swap1\n      sub\n      0x1f\n      and\n      dup3\n      add\n      swap2\n    tag_45:\n      pop\n      pop\n      pop\n      pop\n      pop\n      swap1\n      dup1\n      0x01\n      add\n      0x00\n      swap1\n      sload\n      swap1\n      0x0100\n      exp\n      swap1\n      div\n      0xff\n      and\n      swap1\n      pop\n      dup3\n      jump\t// out\n        /* \"24TodoList.sol\":862:1334  function createTodo(string calldata _text,string calldata key)external {... */\n    tag_20:\n        /* \"24TodoList.sol\":943:962  ToDo memory tmptodo */\n      0x00\n        /* \"24TodoList.sol\":965:1034  ToDo({... */\n      mload(0x40)\n      dup1\n      0x40\n      add\n      0x40\n      mstore\n      dup1\n        /* \"24TodoList.sol\":989:994  _text */\n      dup7\n      dup7\n        /* \"24TodoList.sol\":965:1034  ToDo({... */\n      dup1\n      dup1\n      0x1f\n      add\n      0x20\n      dup1\n      swap2\n      div\n      mul\n      0x20\n      add\n      mload(0x40)\n      swap1\n      dup2\n      add\n      0x40\n      mstore\n      dup1\n      swap4\n      swap3\n      swap2\n      swap1\n      dup2\n      dup2\n      mstore\n      0x20\n      add\n      dup4\n      dup4\n      dup1\n      dup3\n      dup5\n      calldatacopy\n      0x00\n      dup2\n      dup5\n      add\n      mstore\n      not(0x1f)\n      0x1f\n      dup3\n      add\n      and\n      swap1\n      pop\n      dup1\n      dup4\n      add\n      swap3\n      pop\n      pop\n      pop\n      pop\n      pop\n      pop\n      pop\n      dup2\n      mstore\n      0x20\n      add\n        /* \"24TodoList.sol\":1018:1023  false */\n      0x00\n        /* \"24TodoList.sol\":965:1034  ToDo({... */\n      iszero\n      iszero\n      dup2\n      mstore\n      pop\n        /* \"24TodoList.sol\":943:1034  ToDo memory tmptodo = ToDo({... */\n      swap1\n      pop\n        /* \"24TodoList.sol\":1100:1108  todoList */\n      0x00\n        /* \"24TodoList.sol\":1114:1121  tmptodo */\n      dup2\n        /* \"24TodoList.sol\":1100:1122  todoList.push(tmptodo) */\n      swap1\n      dup1\n      0x01\n      dup2\n      sload\n      add\n      dup1\n      dup3\n      sstore\n      dup1\n      swap2\n      pop\n      pop\n      0x01\n      swap1\n      sub\n      swap1\n      0x00\n      mstore\n      keccak256(0x00, 0x20)\n      swap1\n      0x02\n      mul\n      add\n      0x00\n      swap1\n      swap2\n      swap1\n      swap2\n      swap1\n      swap2\n      pop\n      0x00\n      dup3\n      add\n      mload\n      dup2\n      0x00\n      add\n      swap1\n      dup1\n      mload\n      swap1\n      0x20\n      add\n      swap1\n      tag_50\n      swap3\n      swap2\n      swap1\n      tag_51\n      jump\t// in\n    tag_50:\n      pop\n      0x20\n      dup3\n      add\n      mload\n      dup2\n      0x01\n      add\n      exp(0x0100, 0x00)\n      dup2\n      sload\n      dup2\n      0xff\n      mul\n      not\n      and\n      swap1\n      dup4\n      iszero\n      iszero\n      mul\n      or\n      swap1\n      sstore\n      pop\n      pop\n      pop\n        /* \"24TodoList.sol\":1224:1235  keyIsExited */\n      0x02\n        /* \"24TodoList.sol\":1236:1239  key */\n      dup4\n      dup4\n        /* \"24TodoList.sol\":1224:1240  keyIsExited[key] */\n      mload(0x40)\n      tag_52\n      swap3\n      swap2\n      swap1\n      tag_53\n      jump\t// in\n    tag_52:\n      swap1\n      dup2\n      mstore\n      0x20\n      add\n      mload(0x40)\n      dup1\n      swap2\n      sub\n      swap1\n      keccak256\n      0x00\n      swap1\n      sload\n      swap1\n      0x0100\n      exp\n      swap1\n      div\n      0xff\n      and\n        /* \"24TodoList.sol\":1223:1240  !keyIsExited[key] */\n      iszero\n        /* \"24TodoList.sol\":1215:1241  require(!keyIsExited[key]) */\n      tag_54\n      jumpi\n      0x00\n      dup1\n      revert\n    tag_54:\n        /* \"24TodoList.sol\":1267:1275  todoList */\n      0x00\n        /* \"24TodoList.sol\":1292:1293  1 */\n      0x01\n        /* \"24TodoList.sol\":1276:1284  todoList */\n      0x00\n        /* \"24TodoList.sol\":1276:1291  todoList.length */\n      dup1\n      sload\n      swap1\n      pop\n        /* \"24TodoList.sol\":1276:1293  todoList.length-1 */\n      tag_55\n      swap2\n      swap1\n      tag_56\n      jump\t// in\n    tag_55:\n        /* \"24TodoList.sol\":1267:1294  todoList[todoList.length-1] */\n      dup2\n      sload\n      dup2\n      lt\n      tag_57\n      jumpi\n      tag_58\n      tag_59\n      jump\t// in\n    tag_58:\n    tag_57:\n      swap1\n      0x00\n      mstore\n      keccak256(0x00, 0x20)\n      swap1\n      0x02\n      mul\n      add\n        /* \"24TodoList.sol\":1251:1259  keyWords */\n      0x01\n        /* \"24TodoList.sol\":1260:1263  key */\n      dup5\n      dup5\n        /* \"24TodoList.sol\":1251:1264  keyWords[key] */\n      mload(0x40)\n      tag_61\n      swap3\n      swap2\n      swap1\n      tag_53\n      jump\t// in\n    tag_61:\n      swap1\n      dup2\n      mstore\n      0x20\n      add\n      mload(0x40)\n      dup1\n      swap2\n      sub\n      swap1\n      keccak256\n        /* \"24TodoList.sol\":1251:1294  keyWords[key] = todoList[todoList.length-1] */\n      0x00\n      dup3\n      add\n      dup2\n      0x00\n      add\n      swap1\n      dup1\n      sload\n      tag_62\n      swap1\n      tag_43\n      jump\t// in\n    tag_62:\n      tag_63\n      swap3\n      swap2\n      swap1\n      tag_64\n      jump\t// in\n    tag_63:\n      pop\n      0x01\n      dup3\n      add\n      0x00\n      swap1\n      sload\n      swap1\n      0x0100\n      exp\n      swap1\n      div\n      0xff\n      and\n      dup2\n      0x01\n      add\n      exp(0x0100, 0x00)\n      dup2\n      sload\n      dup2\n      0xff\n      mul\n      not\n      and\n      swap1\n      dup4\n      iszero\n      iszero\n      mul\n      or\n      swap1\n      sstore\n      pop\n      swap1\n      pop\n      pop\n        /* \"24TodoList.sol\":1323:1327  true */\n      0x01\n        /* \"24TodoList.sol\":1304:1315  keyIsExited */\n      0x02\n        /* \"24TodoList.sol\":1316:1319  key */\n      dup5\n      dup5\n        /* \"24TodoList.sol\":1304:1320  keyIsExited[key] */\n      mload(0x40)\n      tag_65\n      swap3\n      swap2\n      swap1\n      tag_53\n      jump\t// in\n    tag_65:\n      swap1\n      dup2\n      mstore\n      0x20\n      add\n      mload(0x40)\n      dup1\n      swap2\n      sub\n      swap1\n      keccak256\n      0x00\n        /* \"24TodoList.sol\":1304:1327  keyIsExited[key] = true */\n      0x0100\n      exp\n      dup2\n      sload\n      dup2\n      0xff\n      mul\n      not\n      and\n      swap1\n      dup4\n      iszero\n      iszero\n      mul\n      or\n      swap1\n      sstore\n      pop\n        /* \"24TodoList.sol\":933:1334  {... */\n      pop\n        /* \"24TodoList.sol\":862:1334  function createTodo(string calldata _text,string calldata key)external {... */\n      pop\n      pop\n      pop\n      pop\n      jump\t// out\n        /* \"24TodoList.sol\":2115:2234  function toggleCompleted(uint _index)external {... */\n    tag_24:\n        /* \"24TodoList.sol\":2201:2209  todoList */\n      0x00\n        /* \"24TodoList.sol\":2210:2216  _index */\n      dup2\n        /* \"24TodoList.sol\":2201:2217  todoList[_index] */\n      dup2\n      sload\n      dup2\n      lt\n      tag_67\n      jumpi\n      tag_68\n      tag_59\n      jump\t// in\n    tag_68:\n    tag_67:\n      swap1\n      0x00\n      mstore\n      keccak256(0x00, 0x20)\n      swap1\n      0x02\n      mul\n      add\n        /* \"24TodoList.sol\":2201:2227  todoList[_index].completed */\n      0x01\n      add\n      0x00\n      swap1\n      sload\n      swap1\n      0x0100\n      exp\n      swap1\n      div\n      0xff\n      and\n        /* \"24TodoList.sol\":2200:2227  !todoList[_index].completed */\n      iszero\n        /* \"24TodoList.sol\":2171:2179  todoList */\n      0x00\n        /* \"24TodoList.sol\":2180:2186  _index */\n      dup3\n        /* \"24TodoList.sol\":2171:2187  todoList[_index] */\n      dup2\n      sload\n      dup2\n      lt\n      tag_70\n      jumpi\n      tag_71\n      tag_59\n      jump\t// in\n    tag_71:\n    tag_70:\n      swap1\n      0x00\n      mstore\n      keccak256(0x00, 0x20)\n      swap1\n      0x02\n      mul\n      add\n        /* \"24TodoList.sol\":2171:2197  todoList[_index].completed */\n      0x01\n      add\n      0x00\n        /* \"24TodoList.sol\":2171:2227  todoList[_index].completed = !todoList[_index].completed */\n      0x0100\n      exp\n      dup2\n      sload\n      dup2\n      0xff\n      mul\n      not\n      and\n      swap1\n      dup4\n      iszero\n      iszero\n      mul\n      or\n      swap1\n      sstore\n      pop\n        /* \"24TodoList.sol\":2115:2234  function toggleCompleted(uint _index)external {... */\n      pop\n      jump\t// out\n        /* \"24TodoList.sol\":813:855  mapping(string => bool) public keyIsExited */\n    tag_27:\n      0x02\n      dup2\n      dup1\n      mload\n      0x20\n      dup2\n      add\n      dup3\n      add\n      dup1\n      mload\n      dup5\n      dup3\n      mstore\n      0x20\n      dup4\n      add\n      0x20\n      dup6\n      add\n      keccak256\n      dup2\n      dup4\n      mstore\n      dup1\n      swap6\n      pop\n      pop\n      pop\n      pop\n      pop\n      pop\n      0x00\n      swap2\n      pop\n      sload\n      swap1\n      0x0100\n      exp\n      swap1\n      div\n      0xff\n      and\n      dup2\n      jump\t// out\n        /* \"24TodoList.sol\":603:625  ToDo[] public todoList */\n    tag_32:\n      0x00\n      dup2\n      dup2\n      sload\n      dup2\n      lt\n      tag_73\n      jumpi\n      0x00\n      dup1\n      revert\n    tag_73:\n      swap1\n      0x00\n      mstore\n      keccak256(0x00, 0x20)\n      swap1\n      0x02\n      mul\n      add\n      0x00\n      swap2\n      pop\n      swap1\n      pop\n      dup1\n      0x00\n      add\n      dup1\n      sload\n      tag_75\n      swap1\n      tag_43\n      jump\t// in\n    tag_75:\n      dup1\n      0x1f\n      add\n      0x20\n      dup1\n      swap2\n      div\n      mul\n      0x20\n      add\n      mload(0x40)\n      swap1\n      dup2\n      add\n      0x40\n      mstore\n      dup1\n      swap3\n      swap2\n      swap1\n      dup2\n      dup2\n      mstore\n      0x20\n      add\n      dup3\n      dup1\n      sload\n      tag_76\n      swap1\n      tag_43\n      jump\t// in\n    tag_76:\n      dup1\n      iszero\n      tag_77\n      jumpi\n      dup1\n      0x1f\n      lt\n      tag_78\n      jumpi\n      0x0100\n      dup1\n      dup4\n      sload\n      div\n      mul\n      dup4\n      mstore\n      swap2\n      0x20\n      add\n      swap2\n      jump(tag_77)\n    tag_78:\n      dup3\n      add\n      swap2\n      swap1\n      0x00\n      mstore\n      keccak256(0x00, 0x20)\n      swap1\n    tag_79:\n      dup2\n      sload\n      dup2\n      mstore\n      swap1\n      0x01\n      add\n      swap1\n      0x20\n      add\n      dup1\n      dup4\n      gt\n      tag_79\n      jumpi\n      dup3\n      swap1\n      sub\n      0x1f\n      and\n      dup3\n      add\n      swap2\n    tag_77:\n      pop\n      pop\n      pop\n      pop\n      pop\n      swap1\n      dup1\n      0x01\n      add\n      0x00\n      swap1\n      sload\n      swap1\n      0x0100\n      exp\n      swap1\n      div\n      0xff\n      and\n      swap1\n      pop\n      dup3\n      jump\t// out\n        /* \"24TodoList.sol\":1340:1937  function updateText(uint index,string calldata changeText,string calldata _key)public {... */\n    tag_37:\n        /* \"24TodoList.sol\":1566:1576  changeText */\n      dup4\n      dup4\n        /* \"24TodoList.sol\":1543:1551  todoList */\n      0x00\n        /* \"24TodoList.sol\":1552:1557  index */\n      dup8\n        /* \"24TodoList.sol\":1543:1558  todoList[index] */\n      dup2\n      sload\n      dup2\n      lt\n      tag_81\n      jumpi\n      tag_82\n      tag_59\n      jump\t// in\n    tag_82:\n    tag_81:\n      swap1\n      0x00\n      mstore\n      keccak256(0x00, 0x20)\n      swap1\n      0x02\n      mul\n      add\n        /* \"24TodoList.sol\":1543:1563  todoList[index].text */\n      0x00\n      add\n        /* \"24TodoList.sol\":1543:1576  todoList[index].text = changeText */\n      swap2\n      swap1\n      tag_84\n      swap3\n      swap2\n      swap1\n      tag_85\n      jump\t// in\n    tag_84:\n      pop\n        /* \"24TodoList.sol\":1614:1618  true */\n      0x01\n        /* \"24TodoList.sol\":1586:1594  todoList */\n      0x00\n        /* \"24TodoList.sol\":1595:1600  index */\n      dup7\n        /* \"24TodoList.sol\":1586:1601  todoList[index] */\n      dup2\n      sload\n      dup2\n      lt\n      tag_86\n      jumpi\n      tag_87\n      tag_59\n      jump\t// in\n    tag_87:\n    tag_86:\n      swap1\n      0x00\n      mstore\n      keccak256(0x00, 0x20)\n      swap1\n      0x02\n      mul\n      add\n        /* \"24TodoList.sol\":1586:1611  todoList[index].completed */\n      0x01\n      add\n      0x00\n        /* \"24TodoList.sol\":1586:1618  todoList[index].completed = true */\n      0x0100\n      exp\n      dup2\n      sload\n      dup2\n      0xff\n      mul\n      not\n      and\n      swap1\n      dup4\n      iszero\n      iszero\n      mul\n      or\n      swap1\n      sstore\n      pop\n        /* \"24TodoList.sol\":1919:1929  changeText */\n      dup4\n      dup4\n        /* \"24TodoList.sol\":1897:1905  keyWords */\n      0x01\n        /* \"24TodoList.sol\":1906:1910  _key */\n      dup5\n      dup5\n        /* \"24TodoList.sol\":1897:1911  keyWords[_key] */\n      mload(0x40)\n      tag_89\n      swap3\n      swap2\n      swap1\n      tag_53\n      jump\t// in\n    tag_89:\n      swap1\n      dup2\n      mstore\n      0x20\n      add\n      mload(0x40)\n      dup1\n      swap2\n      sub\n      swap1\n      keccak256\n        /* \"24TodoList.sol\":1897:1916  keyWords[_key].text */\n      0x00\n      add\n        /* \"24TodoList.sol\":1897:1929  keyWords[_key].text = changeText */\n      swap2\n      swap1\n      tag_90\n      swap3\n      swap2\n      swap1\n      tag_85\n      jump\t// in\n    tag_90:\n      pop\n        /* \"24TodoList.sol\":1340:1937  function updateText(uint index,string calldata changeText,string calldata _key)public {... */\n      pop\n      pop\n      pop\n      pop\n      pop\n      jump\t// out\n        /* \"24TodoList.sol\":1943:2109  function getTodoList(uint index)external view returns(string memory,bool){... */\n    tag_40:\n        /* \"24TodoList.sol\":1997:2010  string memory */\n      0x60\n        /* \"24TodoList.sol\":2011:2015  bool */\n      0x00\n        /* \"24TodoList.sol\":2026:2042  ToDo memory todo */\n      dup1\n        /* \"24TodoList.sol\":2045:2053  todoList */\n      0x00\n        /* \"24TodoList.sol\":2054:2059  index */\n      dup5\n        /* \"24TodoList.sol\":2045:2060  todoList[index] */\n      dup2\n      sload\n      dup2\n      lt\n      tag_92\n      jumpi\n      tag_93\n      tag_59\n      jump\t// in\n    tag_93:\n    tag_92:\n      swap1\n      0x00\n      mstore\n      keccak256(0x00, 0x20)\n      swap1\n      0x02\n      mul\n      add\n        /* \"24TodoList.sol\":2026:2060  ToDo memory todo = todoList[index] */\n      mload(0x40)\n      dup1\n      0x40\n      add\n      0x40\n      mstore\n      swap1\n      dup2\n      0x00\n      dup3\n      add\n      dup1\n      sload\n      tag_95\n      swap1\n      tag_43\n      jump\t// in\n    tag_95:\n      dup1\n      0x1f\n      add\n      0x20\n      dup1\n      swap2\n      div\n      mul\n      0x20\n      add\n      mload(0x40)\n      swap1\n      dup2\n      add\n      0x40\n      mstore\n      dup1\n      swap3\n      swap2\n      swap1\n      dup2\n      dup2\n      mstore\n      0x20\n      add\n      dup3\n      dup1\n      sload\n      tag_96\n      swap1\n      tag_43\n      jump\t// in\n    tag_96:\n      dup1\n      iszero\n      tag_97\n      jumpi\n      dup1\n      0x1f\n      lt\n      tag_98\n      jumpi\n      0x0100\n      dup1\n      dup4\n      sload\n      div\n      mul\n      dup4\n      mstore\n      swap2\n      0x20\n      add\n      swap2\n      jump(tag_97)\n    tag_98:\n      dup3\n      add\n      swap2\n      swap1\n      0x00\n      mstore\n      keccak256(0x00, 0x20)\n      swap1\n    tag_99:\n      dup2\n      sload\n      dup2\n      mstore\n      swap1\n      0x01\n      add\n      swap1\n      0x20\n      add\n      dup1\n      dup4\n      gt\n      tag_99\n      jumpi\n      dup3\n      swap1\n      sub\n      0x1f\n      and\n      dup3\n      add\n      swap2\n    tag_97:\n      pop\n      pop\n      pop\n      pop\n      pop\n      dup2\n      mstore\n      0x20\n      add\n      0x01\n      dup3\n      add\n      0x00\n      swap1\n      sload\n      swap1\n      0x0100\n      exp\n      swap1\n      div\n      0xff\n      and\n      iszero\n      iszero\n      iszero\n      iszero\n      dup2\n      mstore\n      pop\n      pop\n      swap1\n      pop\n        /* \"24TodoList.sol\":2077:2081  todo */\n      dup1\n        /* \"24TodoList.sol\":2077:2086  todo.text */\n      0x00\n      add\n      mload\n        /* \"24TodoList.sol\":2087:2091  todo */\n      dup2\n        /* \"24TodoList.sol\":2087:2101  todo.completed */\n      0x20\n      add\n      mload\n        /* \"24TodoList.sol\":2070:2102  return(todo.text,todo.completed) */\n      swap3\n      pop\n      swap3\n      pop\n      pop\n        /* \"24TodoList.sol\":1943:2109  function getTodoList(uint index)external view returns(string memory,bool){... */\n      swap2\n      pop\n      swap2\n      jump\t// out\n    tag_51:\n      dup3\n      dup1\n      sload\n      tag_100\n      swap1\n      tag_43\n      jump\t// in\n    tag_100:\n      swap1\n      0x00\n      mstore\n      keccak256(0x00, 0x20)\n      swap1\n      0x1f\n      add\n      0x20\n      swap1\n      div\n      dup2\n      add\n      swap3\n      dup3\n      tag_102\n      jumpi\n      0x00\n      dup6\n      sstore\n      jump(tag_101)\n    tag_102:\n      dup3\n      0x1f\n      lt\n      tag_103\n      jumpi\n      dup1\n      mload\n      not(0xff)\n      and\n      dup4\n      dup1\n      add\n      or\n      dup6\n      sstore\n      jump(tag_101)\n    tag_103:\n      dup3\n      dup1\n      add\n      0x01\n      add\n      dup6\n      sstore\n      dup3\n      iszero\n      tag_101\n      jumpi\n      swap2\n      dup3\n      add\n    tag_104:\n      dup3\n      dup2\n      gt\n      iszero\n      tag_105\n      jumpi\n      dup3\n      mload\n      dup3\n      sstore\n      swap2\n      0x20\n      add\n      swap2\n      swap1\n      0x01\n      add\n      swap1\n      jump(tag_104)\n    tag_105:\n    tag_101:\n      pop\n      swap1\n      pop\n      tag_106\n      swap2\n      swap1\n      tag_107\n      jump\t// in\n    tag_106:\n      pop\n      swap1\n      jump\t// out\n    tag_64:\n      dup3\n      dup1\n      sload\n      tag_108\n      swap1\n      tag_43\n      jump\t// in\n    tag_108:\n      swap1\n      0x00\n      mstore\n      keccak256(0x00, 0x20)\n      swap1\n      0x1f\n      add\n      0x20\n      swap1\n      div\n      dup2\n      add\n      swap3\n      dup3\n      tag_110\n      jumpi\n      0x00\n      dup6\n      sstore\n      jump(tag_109)\n    tag_110:\n      dup3\n      0x1f\n      lt\n      tag_111\n      jumpi\n      dup1\n      sload\n      dup6\n      sstore\n      jump(tag_109)\n    tag_111:\n      dup3\n      dup1\n      add\n      0x01\n      add\n      dup6\n      sstore\n      dup3\n      iszero\n      tag_109\n      jumpi\n      0x00\n      mstore\n      keccak256(0x00, 0x20)\n      swap2\n      0x1f\n      add\n      0x20\n      swap1\n      div\n      dup3\n      add\n    tag_112:\n      dup3\n      dup2\n      gt\n      iszero\n      tag_113\n      jumpi\n      dup3\n      sload\n      dup3\n      sstore\n      swap2\n      0x01\n      add\n      swap2\n      swap1\n      0x01\n      add\n      swap1\n      jump(tag_112)\n    tag_113:\n    tag_109:\n      pop\n      swap1\n      pop\n      tag_114\n      swap2\n      swap1\n      tag_107\n      jump\t// in\n    tag_114:\n      pop\n      swap1\n      jump\t// out\n    tag_85:\n      dup3\n      dup1\n      sload\n      tag_115\n      swap1\n      tag_43\n      jump\t// in\n    tag_115:\n      swap1\n      0x00\n      mstore\n      keccak256(0x00, 0x20)\n      swap1\n      0x1f\n      add\n      0x20\n      swap1\n      div\n      dup2\n      add\n      swap3\n      dup3\n      tag_117\n      jumpi\n      0x00\n      dup6\n      sstore\n      jump(tag_116)\n    tag_117:\n      dup3\n      0x1f\n      lt\n      tag_118\n      jumpi\n      dup1\n      calldataload\n      not(0xff)\n      and\n      dup4\n      dup1\n      add\n      or\n      dup6\n      sstore\n      jump(tag_116)\n    tag_118:\n      dup3\n      dup1\n      add\n      0x01\n      add\n      dup6\n      sstore\n      dup3\n      iszero\n      tag_116\n      jumpi\n      swap2\n      dup3\n      add\n    tag_119:\n      dup3\n      dup2\n      gt\n      iszero\n      tag_120\n      jumpi\n      dup3\n      calldataload\n      dup3\n      sstore\n      swap2\n      0x20\n      add\n      swap2\n      swap1\n      0x01\n      add\n      swap1\n      jump(tag_119)\n    tag_120:\n    tag_116:\n      pop\n      swap1\n      pop\n      tag_121\n      swap2\n      swap1\n      tag_107\n      jump\t// in\n    tag_121:\n      pop\n      swap1\n      jump\t// out\n    tag_107:\n    tag_122:\n      dup1\n      dup3\n      gt\n      iszero\n      tag_123\n      jumpi\n      0x00\n      dup2\n      0x00\n      swap1\n      sstore\n      pop\n      0x01\n      add\n      jump(tag_122)\n    tag_123:\n      pop\n      swap1\n      jump\t// out\n        /* \"#utility.yul\":7:419   */\n    tag_125:\n        /* \"#utility.yul\":85:90   */\n      0x00\n        /* \"#utility.yul\":110:176   */\n      tag_127\n        /* \"#utility.yul\":126:175   */\n      tag_128\n        /* \"#utility.yul\":168:174   */\n      dup5\n        /* \"#utility.yul\":126:175   */\n      tag_129\n      jump\t// in\n    tag_128:\n        /* \"#utility.yul\":110:176   */\n      tag_130\n      jump\t// in\n    tag_127:\n        /* \"#utility.yul\":101:176   */\n      swap1\n      pop\n        /* \"#utility.yul\":199:205   */\n      dup3\n        /* \"#utility.yul\":192:197   */\n      dup2\n        /* \"#utility.yul\":185:206   */\n      mstore\n        /* \"#utility.yul\":237:241   */\n      0x20\n        /* \"#utility.yul\":230:235   */\n      dup2\n        /* \"#utility.yul\":226:242   */\n      add\n        /* \"#utility.yul\":275:278   */\n      dup5\n        /* \"#utility.yul\":266:272   */\n      dup5\n        /* \"#utility.yul\":261:264   */\n      dup5\n        /* \"#utility.yul\":257:273   */\n      add\n        /* \"#utility.yul\":254:279   */\n      gt\n        /* \"#utility.yul\":251:363   */\n      iszero\n      tag_131\n      jumpi\n        /* \"#utility.yul\":282:361   */\n      tag_132\n      tag_133\n      jump\t// in\n    tag_132:\n        /* \"#utility.yul\":251:363   */\n    tag_131:\n        /* \"#utility.yul\":372:413   */\n      tag_134\n        /* \"#utility.yul\":406:412   */\n      dup5\n        /* \"#utility.yul\":401:404   */\n      dup3\n        /* \"#utility.yul\":396:399   */\n      dup6\n        /* \"#utility.yul\":372:413   */\n      tag_135\n      jump\t// in\n    tag_134:\n        /* \"#utility.yul\":91:419   */\n      pop\n        /* \"#utility.yul\":7:419   */\n      swap4\n      swap3\n      pop\n      pop\n      pop\n      jump\t// out\n        /* \"#utility.yul\":439:992   */\n    tag_136:\n        /* \"#utility.yul\":497:505   */\n      0x00\n        /* \"#utility.yul\":507:513   */\n      dup1\n        /* \"#utility.yul\":557:560   */\n      dup4\n        /* \"#utility.yul\":550:554   */\n      0x1f\n        /* \"#utility.yul\":542:548   */\n      dup5\n        /* \"#utility.yul\":538:555   */\n      add\n        /* \"#utility.yul\":534:561   */\n      slt\n        /* \"#utility.yul\":524:646   */\n      tag_138\n      jumpi\n        /* \"#utility.yul\":565:644   */\n      tag_139\n      tag_140\n      jump\t// in\n    tag_139:\n        /* \"#utility.yul\":524:646   */\n    tag_138:\n        /* \"#utility.yul\":678:684   */\n      dup3\n        /* \"#utility.yul\":665:685   */\n      calldataload\n        /* \"#utility.yul\":655:685   */\n      swap1\n      pop\n        /* \"#utility.yul\":708:726   */\n      0xffffffffffffffff\n        /* \"#utility.yul\":700:706   */\n      dup2\n        /* \"#utility.yul\":697:727   */\n      gt\n        /* \"#utility.yul\":694:811   */\n      iszero\n      tag_141\n      jumpi\n        /* \"#utility.yul\":730:809   */\n      tag_142\n      tag_143\n      jump\t// in\n    tag_142:\n        /* \"#utility.yul\":694:811   */\n    tag_141:\n        /* \"#utility.yul\":844:848   */\n      0x20\n        /* \"#utility.yul\":836:842   */\n      dup4\n        /* \"#utility.yul\":832:849   */\n      add\n        /* \"#utility.yul\":820:849   */\n      swap2\n      pop\n        /* \"#utility.yul\":898:901   */\n      dup4\n        /* \"#utility.yul\":890:894   */\n      0x01\n        /* \"#utility.yul\":882:888   */\n      dup3\n        /* \"#utility.yul\":878:895   */\n      mul\n        /* \"#utility.yul\":868:876   */\n      dup4\n        /* \"#utility.yul\":864:896   */\n      add\n        /* \"#utility.yul\":861:902   */\n      gt\n        /* \"#utility.yul\":858:986   */\n      iszero\n      tag_144\n      jumpi\n        /* \"#utility.yul\":905:984   */\n      tag_145\n      tag_146\n      jump\t// in\n    tag_145:\n        /* \"#utility.yul\":858:986   */\n    tag_144:\n        /* \"#utility.yul\":439:992   */\n      swap3\n      pop\n      swap3\n      swap1\n      pop\n      jump\t// out\n        /* \"#utility.yul\":1012:1352   */\n    tag_147:\n        /* \"#utility.yul\":1068:1073   */\n      0x00\n        /* \"#utility.yul\":1117:1120   */\n      dup3\n        /* \"#utility.yul\":1110:1114   */\n      0x1f\n        /* \"#utility.yul\":1102:1108   */\n      dup4\n        /* \"#utility.yul\":1098:1115   */\n      add\n        /* \"#utility.yul\":1094:1121   */\n      slt\n        /* \"#utility.yul\":1084:1206   */\n      tag_149\n      jumpi\n        /* \"#utility.yul\":1125:1204   */\n      tag_150\n      tag_140\n      jump\t// in\n    tag_150:\n        /* \"#utility.yul\":1084:1206   */\n    tag_149:\n        /* \"#utility.yul\":1242:1248   */\n      dup2\n        /* \"#utility.yul\":1229:1249   */\n      calldataload\n        /* \"#utility.yul\":1267:1346   */\n      tag_151\n        /* \"#utility.yul\":1342:1345   */\n      dup5\n        /* \"#utility.yul\":1334:1340   */\n      dup3\n        /* \"#utility.yul\":1327:1331   */\n      0x20\n        /* \"#utility.yul\":1319:1325   */\n      dup7\n        /* \"#utility.yul\":1315:1332   */\n      add\n        /* \"#utility.yul\":1267:1346   */\n      tag_125\n      jump\t// in\n    tag_151:\n        /* \"#utility.yul\":1258:1346   */\n      swap2\n      pop\n        /* \"#utility.yul\":1074:1352   */\n      pop\n        /* \"#utility.yul\":1012:1352   */\n      swap3\n      swap2\n      pop\n      pop\n      jump\t// out\n        /* \"#utility.yul\":1358:1497   */\n    tag_152:\n        /* \"#utility.yul\":1404:1409   */\n      0x00\n        /* \"#utility.yul\":1442:1448   */\n      dup2\n        /* \"#utility.yul\":1429:1449   */\n      calldataload\n        /* \"#utility.yul\":1420:1449   */\n      swap1\n      pop\n        /* \"#utility.yul\":1458:1491   */\n      tag_154\n        /* \"#utility.yul\":1485:1490   */\n      dup2\n        /* \"#utility.yul\":1458:1491   */\n      tag_155\n      jump\t// in\n    tag_154:\n        /* \"#utility.yul\":1358:1497   */\n      swap3\n      swap2\n      pop\n      pop\n      jump\t// out\n        /* \"#utility.yul\":1503:2377   */\n    tag_19:\n        /* \"#utility.yul\":1595:1601   */\n      0x00\n        /* \"#utility.yul\":1603:1609   */\n      dup1\n        /* \"#utility.yul\":1611:1617   */\n      0x00\n        /* \"#utility.yul\":1619:1625   */\n      dup1\n        /* \"#utility.yul\":1668:1670   */\n      0x40\n        /* \"#utility.yul\":1656:1665   */\n      dup6\n        /* \"#utility.yul\":1647:1654   */\n      dup8\n        /* \"#utility.yul\":1643:1666   */\n      sub\n        /* \"#utility.yul\":1639:1671   */\n      slt\n        /* \"#utility.yul\":1636:1755   */\n      iszero\n      tag_157\n      jumpi\n        /* \"#utility.yul\":1674:1753   */\n      tag_158\n      tag_159\n      jump\t// in\n    tag_158:\n        /* \"#utility.yul\":1636:1755   */\n    tag_157:\n        /* \"#utility.yul\":1822:1823   */\n      0x00\n        /* \"#utility.yul\":1811:1820   */\n      dup6\n        /* \"#utility.yul\":1807:1824   */\n      add\n        /* \"#utility.yul\":1794:1825   */\n      calldataload\n        /* \"#utility.yul\":1852:1870   */\n      0xffffffffffffffff\n        /* \"#utility.yul\":1844:1850   */\n      dup2\n        /* \"#utility.yul\":1841:1871   */\n      gt\n        /* \"#utility.yul\":1838:1955   */\n      iszero\n      tag_160\n      jumpi\n        /* \"#utility.yul\":1874:1953   */\n      tag_161\n      tag_162\n      jump\t// in\n    tag_161:\n        /* \"#utility.yul\":1838:1955   */\n    tag_160:\n        /* \"#utility.yul\":1987:2052   */\n      tag_163\n        /* \"#utility.yul\":2044:2051   */\n      dup8\n        /* \"#utility.yul\":2035:2041   */\n      dup3\n        /* \"#utility.yul\":2024:2033   */\n      dup9\n        /* \"#utility.yul\":2020:2042   */\n      add\n        /* \"#utility.yul\":1987:2052   */\n      tag_136\n      jump\t// in\n    tag_163:\n        /* \"#utility.yul\":1969:2052   */\n      swap5\n      pop\n      swap5\n      pop\n        /* \"#utility.yul\":1765:2062   */\n      pop\n        /* \"#utility.yul\":2129:2131   */\n      0x20\n        /* \"#utility.yul\":2118:2127   */\n      dup6\n        /* \"#utility.yul\":2114:2132   */\n      add\n        /* \"#utility.yul\":2101:2133   */\n      calldataload\n        /* \"#utility.yul\":2160:2178   */\n      0xffffffffffffffff\n        /* \"#utility.yul\":2152:2158   */\n      dup2\n        /* \"#utility.yul\":2149:2179   */\n      gt\n        /* \"#utility.yul\":2146:2263   */\n      iszero\n      tag_164\n      jumpi\n        /* \"#utility.yul\":2182:2261   */\n      tag_165\n      tag_162\n      jump\t// in\n    tag_165:\n        /* \"#utility.yul\":2146:2263   */\n    tag_164:\n        /* \"#utility.yul\":2295:2360   */\n      tag_166\n        /* \"#utility.yul\":2352:2359   */\n      dup8\n        /* \"#utility.yul\":2343:2349   */\n      dup3\n        /* \"#utility.yul\":2332:2341   */\n      dup9\n        /* \"#utility.yul\":2328:2350   */\n      add\n        /* \"#utility.yul\":2295:2360   */\n      tag_136\n      jump\t// in\n    tag_166:\n        /* \"#utility.yul\":2277:2360   */\n      swap3\n      pop\n      swap3\n      pop\n        /* \"#utility.yul\":2072:2370   */\n      pop\n        /* \"#utility.yul\":1503:2377   */\n      swap3\n      swap6\n      swap2\n      swap5\n      pop\n      swap3\n      pop\n      jump\t// out\n        /* \"#utility.yul\":2383:2892   */\n    tag_13:\n        /* \"#utility.yul\":2452:2458   */\n      0x00\n        /* \"#utility.yul\":2501:2503   */\n      0x20\n        /* \"#utility.yul\":2489:2498   */\n      dup3\n        /* \"#utility.yul\":2480:2487   */\n      dup5\n        /* \"#utility.yul\":2476:2499   */\n      sub\n        /* \"#utility.yul\":2472:2504   */\n      slt\n        /* \"#utility.yul\":2469:2588   */\n      iszero\n      tag_168\n      jumpi\n        /* \"#utility.yul\":2507:2586   */\n      tag_169\n      tag_159\n      jump\t// in\n    tag_169:\n        /* \"#utility.yul\":2469:2588   */\n    tag_168:\n        /* \"#utility.yul\":2655:2656   */\n      0x00\n        /* \"#utility.yul\":2644:2653   */\n      dup3\n        /* \"#utility.yul\":2640:2657   */\n      add\n        /* \"#utility.yul\":2627:2658   */\n      calldataload\n        /* \"#utility.yul\":2685:2703   */\n      0xffffffffffffffff\n        /* \"#utility.yul\":2677:2683   */\n      dup2\n        /* \"#utility.yul\":2674:2704   */\n      gt\n        /* \"#utility.yul\":2671:2788   */\n      iszero\n      tag_170\n      jumpi\n        /* \"#utility.yul\":2707:2786   */\n      tag_171\n      tag_162\n      jump\t// in\n    tag_171:\n        /* \"#utility.yul\":2671:2788   */\n    tag_170:\n        /* \"#utility.yul\":2812:2875   */\n      tag_172\n        /* \"#utility.yul\":2867:2874   */\n      dup5\n        /* \"#utility.yul\":2858:2864   */\n      dup3\n        /* \"#utility.yul\":2847:2856   */\n      dup6\n        /* \"#utility.yul\":2843:2865   */\n      add\n        /* \"#utility.yul\":2812:2875   */\n      tag_147\n      jump\t// in\n    tag_172:\n        /* \"#utility.yul\":2802:2875   */\n      swap2\n      pop\n        /* \"#utility.yul\":2598:2885   */\n      pop\n        /* \"#utility.yul\":2383:2892   */\n      swap3\n      swap2\n      pop\n      pop\n      jump\t// out\n        /* \"#utility.yul\":2898:3227   */\n    tag_23:\n        /* \"#utility.yul\":2957:2963   */\n      0x00\n        /* \"#utility.yul\":3006:3008   */\n      0x20\n        /* \"#utility.yul\":2994:3003   */\n      dup3\n        /* \"#utility.yul\":2985:2992   */\n      dup5\n        /* \"#utility.yul\":2981:3004   */\n      sub\n        /* \"#utility.yul\":2977:3009   */\n      slt\n        /* \"#utility.yul\":2974:3093   */\n      iszero\n      tag_174\n      jumpi\n        /* \"#utility.yul\":3012:3091   */\n      tag_175\n      tag_159\n      jump\t// in\n    tag_175:\n        /* \"#utility.yul\":2974:3093   */\n    tag_174:\n        /* \"#utility.yul\":3132:3133   */\n      0x00\n        /* \"#utility.yul\":3157:3210   */\n      tag_176\n        /* \"#utility.yul\":3202:3209   */\n      dup5\n        /* \"#utility.yul\":3193:3199   */\n      dup3\n        /* \"#utility.yul\":3182:3191   */\n      dup6\n        /* \"#utility.yul\":3178:3200   */\n      add\n        /* \"#utility.yul\":3157:3210   */\n      tag_152\n      jump\t// in\n    tag_176:\n        /* \"#utility.yul\":3147:3210   */\n      swap2\n      pop\n        /* \"#utility.yul\":3103:3220   */\n      pop\n        /* \"#utility.yul\":2898:3227   */\n      swap3\n      swap2\n      pop\n      pop\n      jump\t// out\n        /* \"#utility.yul\":3233:4252   */\n    tag_36:\n        /* \"#utility.yul\":3334:3340   */\n      0x00\n        /* \"#utility.yul\":3342:3348   */\n      dup1\n        /* \"#utility.yul\":3350:3356   */\n      0x00\n        /* \"#utility.yul\":3358:3364   */\n      dup1\n        /* \"#utility.yul\":3366:3372   */\n      0x00\n        /* \"#utility.yul\":3415:3417   */\n      0x60\n        /* \"#utility.yul\":3403:3412   */\n      dup7\n        /* \"#utility.yul\":3394:3401   */\n      dup9\n        /* \"#utility.yul\":3390:3413   */\n      sub\n        /* \"#utility.yul\":3386:3418   */\n      slt\n        /* \"#utility.yul\":3383:3502   */\n      iszero\n      tag_178\n      jumpi\n        /* \"#utility.yul\":3421:3500   */\n      tag_179\n      tag_159\n      jump\t// in\n    tag_179:\n        /* \"#utility.yul\":3383:3502   */\n    tag_178:\n        /* \"#utility.yul\":3541:3542   */\n      0x00\n        /* \"#utility.yul\":3566:3619   */\n      tag_180\n        /* \"#utility.yul\":3611:3618   */\n      dup9\n        /* \"#utility.yul\":3602:3608   */\n      dup3\n        /* \"#utility.yul\":3591:3600   */\n      dup10\n        /* \"#utility.yul\":3587:3609   */\n      add\n        /* \"#utility.yul\":3566:3619   */\n      tag_152\n      jump\t// in\n    tag_180:\n        /* \"#utility.yul\":3556:3619   */\n      swap6\n      pop\n        /* \"#utility.yul\":3512:3629   */\n      pop\n        /* \"#utility.yul\":3696:3698   */\n      0x20\n        /* \"#utility.yul\":3685:3694   */\n      dup7\n        /* \"#utility.yul\":3681:3699   */\n      add\n        /* \"#utility.yul\":3668:3700   */\n      calldataload\n        /* \"#utility.yul\":3727:3745   */\n      0xffffffffffffffff\n        /* \"#utility.yul\":3719:3725   */\n      dup2\n        /* \"#utility.yul\":3716:3746   */\n      gt\n        /* \"#utility.yul\":3713:3830   */\n      iszero\n      tag_181\n      jumpi\n        /* \"#utility.yul\":3749:3828   */\n      tag_182\n      tag_162\n      jump\t// in\n    tag_182:\n        /* \"#utility.yul\":3713:3830   */\n    tag_181:\n        /* \"#utility.yul\":3862:3927   */\n      tag_183\n        /* \"#utility.yul\":3919:3926   */\n      dup9\n        /* \"#utility.yul\":3910:3916   */\n      dup3\n        /* \"#utility.yul\":3899:3908   */\n      dup10\n        /* \"#utility.yul\":3895:3917   */\n      add\n        /* \"#utility.yul\":3862:3927   */\n      tag_136\n      jump\t// in\n    tag_183:\n        /* \"#utility.yul\":3844:3927   */\n      swap5\n      pop\n      swap5\n      pop\n        /* \"#utility.yul\":3639:3937   */\n      pop\n        /* \"#utility.yul\":4004:4006   */\n      0x40\n        /* \"#utility.yul\":3993:4002   */\n      dup7\n        /* \"#utility.yul\":3989:4007   */\n      add\n        /* \"#utility.yul\":3976:4008   */\n      calldataload\n        /* \"#utility.yul\":4035:4053   */\n      0xffffffffffffffff\n        /* \"#utility.yul\":4027:4033   */\n      dup2\n        /* \"#utility.yul\":4024:4054   */\n      gt\n        /* \"#utility.yul\":4021:4138   */\n      iszero\n      tag_184\n      jumpi\n        /* \"#utility.yul\":4057:4136   */\n      tag_185\n      tag_162\n      jump\t// in\n    tag_185:\n        /* \"#utility.yul\":4021:4138   */\n    tag_184:\n        /* \"#utility.yul\":4170:4235   */\n      tag_186\n        /* \"#utility.yul\":4227:4234   */\n      dup9\n        /* \"#utility.yul\":4218:4224   */\n      dup3\n        /* \"#utility.yul\":4207:4216   */\n      dup10\n        /* \"#utility.yul\":4203:4225   */\n      add\n        /* \"#utility.yul\":4170:4235   */\n      tag_136\n      jump\t// in\n    tag_186:\n        /* \"#utility.yul\":4152:4235   */\n      swap3\n      pop\n      swap3\n      pop\n        /* \"#utility.yul\":3947:4245   */\n      pop\n        /* \"#utility.yul\":3233:4252   */\n      swap3\n      swap6\n      pop\n      swap3\n      swap6\n      swap1\n      swap4\n      pop\n      jump\t// out\n        /* \"#utility.yul\":4258:4367   */\n    tag_187:\n        /* \"#utility.yul\":4339:4360   */\n      tag_189\n        /* \"#utility.yul\":4354:4359   */\n      dup2\n        /* \"#utility.yul\":4339:4360   */\n      tag_190\n      jump\t// in\n    tag_189:\n        /* \"#utility.yul\":4334:4337   */\n      dup3\n        /* \"#utility.yul\":4327:4361   */\n      mstore\n        /* \"#utility.yul\":4258:4367   */\n      pop\n      pop\n      jump\t// out\n        /* \"#utility.yul\":4397:4714   */\n    tag_191:\n        /* \"#utility.yul\":4513:4516   */\n      0x00\n        /* \"#utility.yul\":4534:4623   */\n      tag_193\n        /* \"#utility.yul\":4616:4622   */\n      dup4\n        /* \"#utility.yul\":4611:4614   */\n      dup6\n        /* \"#utility.yul\":4534:4623   */\n      tag_194\n      jump\t// in\n    tag_193:\n        /* \"#utility.yul\":4527:4623   */\n      swap4\n      pop\n        /* \"#utility.yul\":4633:4676   */\n      tag_195\n        /* \"#utility.yul\":4669:4675   */\n      dup4\n        /* \"#utility.yul\":4664:4667   */\n      dup6\n        /* \"#utility.yul\":4657:4662   */\n      dup5\n        /* \"#utility.yul\":4633:4676   */\n      tag_135\n      jump\t// in\n    tag_195:\n        /* \"#utility.yul\":4701:4707   */\n      dup3\n        /* \"#utility.yul\":4696:4699   */\n      dup5\n        /* \"#utility.yul\":4692:4708   */\n      add\n        /* \"#utility.yul\":4685:4708   */\n      swap1\n      pop\n        /* \"#utility.yul\":4397:4714   */\n      swap4\n      swap3\n      pop\n      pop\n      pop\n      jump\t// out\n        /* \"#utility.yul\":4720:5084   */\n    tag_196:\n        /* \"#utility.yul\":4808:4811   */\n      0x00\n        /* \"#utility.yul\":4836:4875   */\n      tag_198\n        /* \"#utility.yul\":4869:4874   */\n      dup3\n        /* \"#utility.yul\":4836:4875   */\n      tag_199\n      jump\t// in\n    tag_198:\n        /* \"#utility.yul\":4891:4962   */\n      tag_200\n        /* \"#utility.yul\":4955:4961   */\n      dup2\n        /* \"#utility.yul\":4950:4953   */\n      dup6\n        /* \"#utility.yul\":4891:4962   */\n      tag_201\n      jump\t// in\n    tag_200:\n        /* \"#utility.yul\":4884:4962   */\n      swap4\n      pop\n        /* \"#utility.yul\":4971:5023   */\n      tag_202\n        /* \"#utility.yul\":5016:5022   */\n      dup2\n        /* \"#utility.yul\":5011:5014   */\n      dup6\n        /* \"#utility.yul\":5004:5008   */\n      0x20\n        /* \"#utility.yul\":4997:5002   */\n      dup7\n        /* \"#utility.yul\":4993:5009   */\n      add\n        /* \"#utility.yul\":4971:5023   */\n      tag_203\n      jump\t// in\n    tag_202:\n        /* \"#utility.yul\":5048:5077   */\n      tag_204\n        /* \"#utility.yul\":5070:5076   */\n      dup2\n        /* \"#utility.yul\":5048:5077   */\n      tag_205\n      jump\t// in\n    tag_204:\n        /* \"#utility.yul\":5043:5046   */\n      dup5\n        /* \"#utility.yul\":5039:5078   */\n      add\n        /* \"#utility.yul\":5032:5078   */\n      swap2\n      pop\n        /* \"#utility.yul\":4812:5084   */\n      pop\n        /* \"#utility.yul\":4720:5084   */\n      swap3\n      swap2\n      pop\n      pop\n      jump\t// out\n        /* \"#utility.yul\":5090:5385   */\n    tag_53:\n        /* \"#utility.yul\":5232:5235   */\n      0x00\n        /* \"#utility.yul\":5254:5359   */\n      tag_207\n        /* \"#utility.yul\":5355:5358   */\n      dup3\n        /* \"#utility.yul\":5346:5352   */\n      dup5\n        /* \"#utility.yul\":5338:5344   */\n      dup7\n        /* \"#utility.yul\":5254:5359   */\n      tag_191\n      jump\t// in\n    tag_207:\n        /* \"#utility.yul\":5247:5359   */\n      swap2\n      pop\n        /* \"#utility.yul\":5376:5379   */\n      dup2\n        /* \"#utility.yul\":5369:5379   */\n      swap1\n      pop\n        /* \"#utility.yul\":5090:5385   */\n      swap4\n      swap3\n      pop\n      pop\n      pop\n      jump\t// out\n        /* \"#utility.yul\":5391:5601   */\n    tag_29:\n        /* \"#utility.yul\":5478:5482   */\n      0x00\n        /* \"#utility.yul\":5516:5518   */\n      0x20\n        /* \"#utility.yul\":5505:5514   */\n      dup3\n        /* \"#utility.yul\":5501:5519   */\n      add\n        /* \"#utility.yul\":5493:5519   */\n      swap1\n      pop\n        /* \"#utility.yul\":5529:5594   */\n      tag_209\n        /* \"#utility.yul\":5591:5592   */\n      0x00\n        /* \"#utility.yul\":5580:5589   */\n      dup4\n        /* \"#utility.yul\":5576:5593   */\n      add\n        /* \"#utility.yul\":5567:5573   */\n      dup5\n        /* \"#utility.yul\":5529:5594   */\n      tag_187\n      jump\t// in\n    tag_209:\n        /* \"#utility.yul\":5391:5601   */\n      swap3\n      swap2\n      pop\n      pop\n      jump\t// out\n        /* \"#utility.yul\":5607:6018   */\n    tag_16:\n        /* \"#utility.yul\":5742:5746   */\n      0x00\n        /* \"#utility.yul\":5780:5782   */\n      0x40\n        /* \"#utility.yul\":5769:5778   */\n      dup3\n        /* \"#utility.yul\":5765:5783   */\n      add\n        /* \"#utility.yul\":5757:5783   */\n      swap1\n      pop\n        /* \"#utility.yul\":5829:5838   */\n      dup2\n        /* \"#utility.yul\":5823:5827   */\n      dup2\n        /* \"#utility.yul\":5819:5839   */\n      sub\n        /* \"#utility.yul\":5815:5816   */\n      0x00\n        /* \"#utility.yul\":5804:5813   */\n      dup4\n        /* \"#utility.yul\":5800:5817   */\n      add\n        /* \"#utility.yul\":5793:5840   */\n      mstore\n        /* \"#utility.yul\":5857:5935   */\n      tag_211\n        /* \"#utility.yul\":5930:5934   */\n      dup2\n        /* \"#utility.yul\":5921:5927   */\n      dup6\n        /* \"#utility.yul\":5857:5935   */\n      tag_196\n      jump\t// in\n    tag_211:\n        /* \"#utility.yul\":5849:5935   */\n      swap1\n      pop\n        /* \"#utility.yul\":5945:6011   */\n      tag_212\n        /* \"#utility.yul\":6007:6009   */\n      0x20\n        /* \"#utility.yul\":5996:6005   */\n      dup4\n        /* \"#utility.yul\":5992:6010   */\n      add\n        /* \"#utility.yul\":5983:5989   */\n      dup5\n        /* \"#utility.yul\":5945:6011   */\n      tag_187\n      jump\t// in\n    tag_212:\n        /* \"#utility.yul\":5607:6018   */\n      swap4\n      swap3\n      pop\n      pop\n      pop\n      jump\t// out\n        /* \"#utility.yul\":6024:6153   */\n    tag_130:\n        /* \"#utility.yul\":6058:6064   */\n      0x00\n        /* \"#utility.yul\":6085:6105   */\n      tag_214\n      tag_215\n      jump\t// in\n    tag_214:\n        /* \"#utility.yul\":6075:6105   */\n      swap1\n      pop\n        /* \"#utility.yul\":6114:6147   */\n      tag_216\n        /* \"#utility.yul\":6142:6146   */\n      dup3\n        /* \"#utility.yul\":6134:6140   */\n      dup3\n        /* \"#utility.yul\":6114:6147   */\n      tag_217\n      jump\t// in\n    tag_216:\n        /* \"#utility.yul\":6024:6153   */\n      swap2\n      swap1\n      pop\n      jump\t// out\n        /* \"#utility.yul\":6159:6234   */\n    tag_215:\n        /* \"#utility.yul\":6192:6198   */\n      0x00\n        /* \"#utility.yul\":6225:6227   */\n      0x40\n        /* \"#utility.yul\":6219:6228   */\n      mload\n        /* \"#utility.yul\":6209:6228   */\n      swap1\n      pop\n        /* \"#utility.yul\":6159:6234   */\n      swap1\n      jump\t// out\n        /* \"#utility.yul\":6240:6548   */\n    tag_129:\n        /* \"#utility.yul\":6302:6306   */\n      0x00\n        /* \"#utility.yul\":6392:6410   */\n      0xffffffffffffffff\n        /* \"#utility.yul\":6384:6390   */\n      dup3\n        /* \"#utility.yul\":6381:6411   */\n      gt\n        /* \"#utility.yul\":6378:6434   */\n      iszero\n      tag_220\n      jumpi\n        /* \"#utility.yul\":6414:6432   */\n      tag_221\n      tag_222\n      jump\t// in\n    tag_221:\n        /* \"#utility.yul\":6378:6434   */\n    tag_220:\n        /* \"#utility.yul\":6452:6481   */\n      tag_223\n        /* \"#utility.yul\":6474:6480   */\n      dup3\n        /* \"#utility.yul\":6452:6481   */\n      tag_205\n      jump\t// in\n    tag_223:\n        /* \"#utility.yul\":6444:6481   */\n      swap1\n      pop\n        /* \"#utility.yul\":6536:6540   */\n      0x20\n        /* \"#utility.yul\":6530:6534   */\n      dup2\n        /* \"#utility.yul\":6526:6541   */\n      add\n        /* \"#utility.yul\":6518:6541   */\n      swap1\n      pop\n        /* \"#utility.yul\":6240:6548   */\n      swap2\n      swap1\n      pop\n      jump\t// out\n        /* \"#utility.yul\":6554:6653   */\n    tag_199:\n        /* \"#utility.yul\":6606:6612   */\n      0x00\n        /* \"#utility.yul\":6640:6645   */\n      dup2\n        /* \"#utility.yul\":6634:6646   */\n      mload\n        /* \"#utility.yul\":6624:6646   */\n      swap1\n      pop\n        /* \"#utility.yul\":6554:6653   */\n      swap2\n      swap1\n      pop\n      jump\t// out\n        /* \"#utility.yul\":6659:6828   */\n    tag_201:\n        /* \"#utility.yul\":6743:6754   */\n      0x00\n        /* \"#utility.yul\":6777:6783   */\n      dup3\n        /* \"#utility.yul\":6772:6775   */\n      dup3\n        /* \"#utility.yul\":6765:6784   */\n      mstore\n        /* \"#utility.yul\":6817:6821   */\n      0x20\n        /* \"#utility.yul\":6812:6815   */\n      dup3\n        /* \"#utility.yul\":6808:6822   */\n      add\n        /* \"#utility.yul\":6793:6822   */\n      swap1\n      pop\n        /* \"#utility.yul\":6659:6828   */\n      swap3\n      swap2\n      pop\n      pop\n      jump\t// out\n        /* \"#utility.yul\":6834:6982   */\n    tag_194:\n        /* \"#utility.yul\":6936:6947   */\n      0x00\n        /* \"#utility.yul\":6973:6976   */\n      dup2\n        /* \"#utility.yul\":6958:6976   */\n      swap1\n      pop\n        /* \"#utility.yul\":6834:6982   */\n      swap3\n      swap2\n      pop\n      pop\n      jump\t// out\n        /* \"#utility.yul\":6988:7179   */\n    tag_56:\n        /* \"#utility.yul\":7028:7032   */\n      0x00\n        /* \"#utility.yul\":7048:7068   */\n      tag_228\n        /* \"#utility.yul\":7066:7067   */\n      dup3\n        /* \"#utility.yul\":7048:7068   */\n      tag_229\n      jump\t// in\n    tag_228:\n        /* \"#utility.yul\":7043:7068   */\n      swap2\n      pop\n        /* \"#utility.yul\":7082:7102   */\n      tag_230\n        /* \"#utility.yul\":7100:7101   */\n      dup4\n        /* \"#utility.yul\":7082:7102   */\n      tag_229\n      jump\t// in\n    tag_230:\n        /* \"#utility.yul\":7077:7102   */\n      swap3\n      pop\n        /* \"#utility.yul\":7121:7122   */\n      dup3\n        /* \"#utility.yul\":7118:7119   */\n      dup3\n        /* \"#utility.yul\":7115:7123   */\n      lt\n        /* \"#utility.yul\":7112:7146   */\n      iszero\n      tag_231\n      jumpi\n        /* \"#utility.yul\":7126:7144   */\n      tag_232\n      tag_233\n      jump\t// in\n    tag_232:\n        /* \"#utility.yul\":7112:7146   */\n    tag_231:\n        /* \"#utility.yul\":7171:7172   */\n      dup3\n        /* \"#utility.yul\":7168:7169   */\n      dup3\n        /* \"#utility.yul\":7164:7173   */\n      sub\n        /* \"#utility.yul\":7156:7173   */\n      swap1\n      pop\n        /* \"#utility.yul\":6988:7179   */\n      swap3\n      swap2\n      pop\n      pop\n      jump\t// out\n        /* \"#utility.yul\":7185:7275   */\n    tag_190:\n        /* \"#utility.yul\":7219:7226   */\n      0x00\n        /* \"#utility.yul\":7262:7267   */\n      dup2\n        /* \"#utility.yul\":7255:7268   */\n      iszero\n        /* \"#utility.yul\":7248:7269   */\n      iszero\n        /* \"#utility.yul\":7237:7269   */\n      swap1\n      pop\n        /* \"#utility.yul\":7185:7275   */\n      swap2\n      swap1\n      pop\n      jump\t// out\n        /* \"#utility.yul\":7281:7358   */\n    tag_229:\n        /* \"#utility.yul\":7318:7325   */\n      0x00\n        /* \"#utility.yul\":7347:7352   */\n      dup2\n        /* \"#utility.yul\":7336:7352   */\n      swap1\n      pop\n        /* \"#utility.yul\":7281:7358   */\n      swap2\n      swap1\n      pop\n      jump\t// out\n        /* \"#utility.yul\":7364:7518   */\n    tag_135:\n        /* \"#utility.yul\":7448:7454   */\n      dup3\n        /* \"#utility.yul\":7443:7446   */\n      dup2\n        /* \"#utility.yul\":7438:7441   */\n      dup4\n        /* \"#utility.yul\":7425:7455   */\n      calldatacopy\n        /* \"#utility.yul\":7510:7511   */\n      0x00\n        /* \"#utility.yul\":7501:7507   */\n      dup4\n        /* \"#utility.yul\":7496:7499   */\n      dup4\n        /* \"#utility.yul\":7492:7508   */\n      add\n        /* \"#utility.yul\":7485:7512   */\n      mstore\n        /* \"#utility.yul\":7364:7518   */\n      pop\n      pop\n      pop\n      jump\t// out\n        /* \"#utility.yul\":7524:7831   */\n    tag_203:\n        /* \"#utility.yul\":7592:7593   */\n      0x00\n        /* \"#utility.yul\":7602:7715   */\n    tag_238:\n        /* \"#utility.yul\":7616:7622   */\n      dup4\n        /* \"#utility.yul\":7613:7614   */\n      dup2\n        /* \"#utility.yul\":7610:7623   */\n      lt\n        /* \"#utility.yul\":7602:7715   */\n      iszero\n      tag_240\n      jumpi\n        /* \"#utility.yul\":7701:7702   */\n      dup1\n        /* \"#utility.yul\":7696:7699   */\n      dup3\n        /* \"#utility.yul\":7692:7703   */\n      add\n        /* \"#utility.yul\":7686:7704   */\n      mload\n        /* \"#utility.yul\":7682:7683   */\n      dup2\n        /* \"#utility.yul\":7677:7680   */\n      dup5\n        /* \"#utility.yul\":7673:7684   */\n      add\n        /* \"#utility.yul\":7666:7705   */\n      mstore\n        /* \"#utility.yul\":7638:7640   */\n      0x20\n        /* \"#utility.yul\":7635:7636   */\n      dup2\n        /* \"#utility.yul\":7631:7641   */\n      add\n        /* \"#utility.yul\":7626:7641   */\n      swap1\n      pop\n        /* \"#utility.yul\":7602:7715   */\n      jump(tag_238)\n    tag_240:\n        /* \"#utility.yul\":7733:7739   */\n      dup4\n        /* \"#utility.yul\":7730:7731   */\n      dup2\n        /* \"#utility.yul\":7727:7740   */\n      gt\n        /* \"#utility.yul\":7724:7825   */\n      iszero\n      tag_241\n      jumpi\n        /* \"#utility.yul\":7813:7814   */\n      0x00\n        /* \"#utility.yul\":7804:7810   */\n      dup5\n        /* \"#utility.yul\":7799:7802   */\n      dup5\n        /* \"#utility.yul\":7795:7811   */\n      add\n        /* \"#utility.yul\":7788:7815   */\n      mstore\n        /* \"#utility.yul\":7724:7825   */\n    tag_241:\n        /* \"#utility.yul\":7573:7831   */\n      pop\n        /* \"#utility.yul\":7524:7831   */\n      pop\n      pop\n      pop\n      jump\t// out\n        /* \"#utility.yul\":7837:8157   */\n    tag_43:\n        /* \"#utility.yul\":7881:7887   */\n      0x00\n        /* \"#utility.yul\":7918:7919   */\n      0x02\n        /* \"#utility.yul\":7912:7916   */\n      dup3\n        /* \"#utility.yul\":7908:7920   */\n      div\n        /* \"#utility.yul\":7898:7920   */\n      swap1\n      pop\n        /* \"#utility.yul\":7965:7966   */\n      0x01\n        /* \"#utility.yul\":7959:7963   */\n      dup3\n        /* \"#utility.yul\":7955:7967   */\n      and\n        /* \"#utility.yul\":7986:8004   */\n      dup1\n        /* \"#utility.yul\":7976:8057   */\n      tag_243\n      jumpi\n        /* \"#utility.yul\":8042:8046   */\n      0x7f\n        /* \"#utility.yul\":8034:8040   */\n      dup3\n        /* \"#utility.yul\":8030:8047   */\n      and\n        /* \"#utility.yul\":8020:8047   */\n      swap2\n      pop\n        /* \"#utility.yul\":7976:8057   */\n    tag_243:\n        /* \"#utility.yul\":8104:8106   */\n      0x20\n        /* \"#utility.yul\":8096:8102   */\n      dup3\n        /* \"#utility.yul\":8093:8107   */\n      lt\n        /* \"#utility.yul\":8073:8091   */\n      dup2\n        /* \"#utility.yul\":8070:8108   */\n      eq\n        /* \"#utility.yul\":8067:8151   */\n      iszero\n      tag_244\n      jumpi\n        /* \"#utility.yul\":8123:8141   */\n      tag_245\n      tag_246\n      jump\t// in\n    tag_245:\n        /* \"#utility.yul\":8067:8151   */\n    tag_244:\n        /* \"#utility.yul\":7888:8157   */\n      pop\n        /* \"#utility.yul\":7837:8157   */\n      swap2\n      swap1\n      pop\n      jump\t// out\n        /* \"#utility.yul\":8163:8444   */\n    tag_217:\n        /* \"#utility.yul\":8246:8273   */\n      tag_248\n        /* \"#utility.yul\":8268:8272   */\n      dup3\n        /* \"#utility.yul\":8246:8273   */\n      tag_205\n      jump\t// in\n    tag_248:\n        /* \"#utility.yul\":8238:8244   */\n      dup2\n        /* \"#utility.yul\":8234:8274   */\n      add\n        /* \"#utility.yul\":8376:8382   */\n      dup2\n        /* \"#utility.yul\":8364:8374   */\n      dup2\n        /* \"#utility.yul\":8361:8383   */\n      lt\n        /* \"#utility.yul\":8340:8358   */\n      0xffffffffffffffff\n        /* \"#utility.yul\":8328:8338   */\n      dup3\n        /* \"#utility.yul\":8325:8359   */\n      gt\n        /* \"#utility.yul\":8322:8384   */\n      or\n        /* \"#utility.yul\":8319:8407   */\n      iszero\n      tag_249\n      jumpi\n        /* \"#utility.yul\":8387:8405   */\n      tag_250\n      tag_222\n      jump\t// in\n    tag_250:\n        /* \"#utility.yul\":8319:8407   */\n    tag_249:\n        /* \"#utility.yul\":8427:8437   */\n      dup1\n        /* \"#utility.yul\":8423:8425   */\n      0x40\n        /* \"#utility.yul\":8416:8438   */\n      mstore\n        /* \"#utility.yul\":8206:8444   */\n      pop\n        /* \"#utility.yul\":8163:8444   */\n      pop\n      pop\n      jump\t// out\n        /* \"#utility.yul\":8450:8630   */\n    tag_233:\n        /* \"#utility.yul\":8498:8575   */\n      0x4e487b7100000000000000000000000000000000000000000000000000000000\n        /* \"#utility.yul\":8495:8496   */\n      0x00\n        /* \"#utility.yul\":8488:8576   */\n      mstore\n        /* \"#utility.yul\":8595:8599   */\n      0x11\n        /* \"#utility.yul\":8592:8593   */\n      0x04\n        /* \"#utility.yul\":8585:8600   */\n      mstore\n        /* \"#utility.yul\":8619:8623   */\n      0x24\n        /* \"#utility.yul\":8616:8617   */\n      0x00\n        /* \"#utility.yul\":8609:8624   */\n      revert\n        /* \"#utility.yul\":8636:8816   */\n    tag_246:\n        /* \"#utility.yul\":8684:8761   */\n      0x4e487b7100000000000000000000000000000000000000000000000000000000\n        /* \"#utility.yul\":8681:8682   */\n      0x00\n        /* \"#utility.yul\":8674:8762   */\n      mstore\n        /* \"#utility.yul\":8781:8785   */\n      0x22\n        /* \"#utility.yul\":8778:8779   */\n      0x04\n        /* \"#utility.yul\":8771:8786   */\n      mstore\n        /* \"#utility.yul\":8805:8809   */\n      0x24\n        /* \"#utility.yul\":8802:8803   */\n      0x00\n        /* \"#utility.yul\":8795:8810   */\n      revert\n        /* \"#utility.yul\":8822:9002   */\n    tag_59:\n        /* \"#utility.yul\":8870:8947   */\n      0x4e487b7100000000000000000000000000000000000000000000000000000000\n        /* \"#utility.yul\":8867:8868   */\n      0x00\n        /* \"#utility.yul\":8860:8948   */\n      mstore\n        /* \"#utility.yul\":8967:8971   */\n      0x32\n        /* \"#utility.yul\":8964:8965   */\n      0x04\n        /* \"#utility.yul\":8957:8972   */\n      mstore\n        /* \"#utility.yul\":8991:8995   */\n      0x24\n        /* \"#utility.yul\":8988:8989   */\n      0x00\n        /* \"#utility.yul\":8981:8996   */\n      revert\n        /* \"#utility.yul\":9008:9188   */\n    tag_222:\n        /* \"#utility.yul\":9056:9133   */\n      0x4e487b7100000000000000000000000000000000000000000000000000000000\n        /* \"#utility.yul\":9053:9054   */\n      0x00\n        /* \"#utility.yul\":9046:9134   */\n      mstore\n        /* \"#utility.yul\":9153:9157   */\n      0x41\n        /* \"#utility.yul\":9150:9151   */\n      0x04\n        /* \"#utility.yul\":9143:9158   */\n      mstore\n        /* \"#utility.yul\":9177:9181   */\n      0x24\n        /* \"#utility.yul\":9174:9175   */\n      0x00\n        /* \"#utility.yul\":9167:9182   */\n      revert\n        /* \"#utility.yul\":9194:9311   */\n    tag_143:\n        /* \"#utility.yul\":9303:9304   */\n      0x00\n        /* \"#utility.yul\":9300:9301   */\n      dup1\n        /* \"#utility.yul\":9293:9305   */\n      revert\n        /* \"#utility.yul\":9317:9434   */\n    tag_140:\n        /* \"#utility.yul\":9426:9427   */\n      0x00\n        /* \"#utility.yul\":9423:9424   */\n      dup1\n        /* \"#utility.yul\":9416:9428   */\n      revert\n        /* \"#utility.yul\":9440:9557   */\n    tag_146:\n        /* \"#utility.yul\":9549:9550   */\n      0x00\n        /* \"#utility.yul\":9546:9547   */\n      dup1\n        /* \"#utility.yul\":9539:9551   */\n      revert\n        /* \"#utility.yul\":9563:9680   */\n    tag_133:\n        /* \"#utility.yul\":9672:9673   */\n      0x00\n        /* \"#utility.yul\":9669:9670   */\n      dup1\n        /* \"#utility.yul\":9662:9674   */\n      revert\n        /* \"#utility.yul\":9686:9803   */\n    tag_162:\n        /* \"#utility.yul\":9795:9796   */\n      0x00\n        /* \"#utility.yul\":9792:9793   */\n      dup1\n        /* \"#utility.yul\":9785:9797   */\n      revert\n        /* \"#utility.yul\":9809:9926   */\n    tag_159:\n        /* \"#utility.yul\":9918:9919   */\n      0x00\n        /* \"#utility.yul\":9915:9916   */\n      dup1\n        /* \"#utility.yul\":9908:9920   */\n      revert\n        /* \"#utility.yul\":9932:10034   */\n    tag_205:\n        /* \"#utility.yul\":9973:9979   */\n      0x00\n        /* \"#utility.yul\":10024:10026   */\n      0x1f\n        /* \"#utility.yul\":10020:10027   */\n      not\n        /* \"#utility.yul\":10015:10017   */\n      0x1f\n        /* \"#utility.yul\":10008:10013   */\n      dup4\n        /* \"#utility.yul\":10004:10018   */\n      add\n        /* \"#utility.yul\":10000:10028   */\n      and\n        /* \"#utility.yul\":9990:10028   */\n      swap1\n      pop\n        /* \"#utility.yul\":9932:10034   */\n      swap2\n      swap1\n      pop\n      jump\t// out\n        /* \"#utility.yul\":10040:10162   */\n    tag_155:\n        /* \"#utility.yul\":10113:10137   */\n      tag_263\n        /* \"#utility.yul\":10131:10136   */\n      dup2\n        /* \"#utility.yul\":10113:10137   */\n      tag_229\n      jump\t// in\n    tag_263:\n        /* \"#utility.yul\":10106:10111   */\n      dup2\n        /* \"#utility.yul\":10103:10138   */\n      eq\n        /* \"#utility.yul\":10093:10156   */\n      tag_264\n      jumpi\n        /* \"#utility.yul\":10152:10153   */\n      0x00\n        /* \"#utility.yul\":10149:10150   */\n      dup1\n        /* \"#utility.yul\":10142:10154   */\n      revert\n        /* \"#utility.yul\":10093:10156   */\n    tag_264:\n        /* \"#utility.yul\":10040:10162   */\n      pop\n      jump\t// out\n\n    auxdata: 0xa2646970667358221220f3a218054cacc0be058acdc3a82ef73a776490175f6d1899c39eb8b4804b8d2c64736f6c63430008070033\n}\n",
				"bytecode": {
					"linkReferences": {},
					"object": "608060405234801561001057600080fd5b50610ef4806100206000396000f3fe608060405234801561001057600080fd5b506004361061007d5760003560e01c806345c21fdf1161005b57806345c21fdf146100eb57806358c2d4691461011b5780635e5458271461014c57806360859e13146101685761007d565b8063213f4e6c146100825780633380b99f146100b3578063455f5024146100cf575b600080fd5b61009c60048036038101906100979190610a74565b610199565b6040516100aa929190610c20565b60405180910390f35b6100cd60048036038101906100c891906109f3565b610268565b005b6100e960048036038101906100e49190610abd565b61044e565b005b61010560048036038101906101009190610a74565b6104c1565b6040516101129190610c05565b60405180910390f35b61013560048036038101906101309190610abd565b6104f7565b604051610143929190610c20565b60405180910390f35b61016660048036038101906101619190610aea565b6105c0565b005b610182600480360381019061017d9190610abd565b61066d565b604051610190929190610c20565b60405180910390f35b6001818051602081018201805184825260208301602085012081835280955050505050506000915090508060000180546101d290610d59565b80601f01602080910402602001604051908101604052809291908181526020018280546101fe90610d59565b801561024b5780601f106102205761010080835404028352916020019161024b565b820191906000526020600020905b81548152906001019060200180831161022e57829003601f168201915b5050505050908060010160009054906101000a900460ff16905082565b6000604051806040016040528086868080601f016020809104026020016040519081016040528093929190818152602001838380828437600081840152601f19601f82011690508083019250505050505050815260200160001515815250905060008190806001815401808255809150506001900390600052602060002090600202016000909190919091506000820151816000019080519060200190610310929190610762565b5060208201518160010160006101000a81548160ff021916908315150217905550505060028383604051610345929190610bec565b908152602001604051809103902060009054906101000a900460ff161561036b57600080fd5b6000600160008054905061037f9190610ccd565b815481106103905761038f610e1a565b5b9060005260206000209060020201600184846040516103b0929190610bec565b908152602001604051809103902060008201816000019080546103d290610d59565b6103dd9291906107e8565b506001820160009054906101000a900460ff168160010160006101000a81548160ff021916908315150217905550905050600160028484604051610422929190610bec565b908152602001604051809103902060006101000a81548160ff0219169083151502179055505050505050565b6000818154811061046257610461610e1a565b5b906000526020600020906002020160010160009054906101000a900460ff16156000828154811061049657610495610e1a565b5b906000526020600020906002020160010160006101000a81548160ff02191690831515021790555050565b6002818051602081018201805184825260208301602085012081835280955050505050506000915054906101000a900460ff1681565b6000818154811061050757600080fd5b906000526020600020906002020160009150905080600001805461052a90610d59565b80601f016020809104026020016040519081016040528092919081815260200182805461055690610d59565b80156105a35780601f10610578576101008083540402835291602001916105a3565b820191906000526020600020905b81548152906001019060200180831161058657829003601f168201915b5050505050908060010160009054906101000a900460ff16905082565b8383600087815481106105d6576105d5610e1a565b5b906000526020600020906002020160000191906105f4929190610875565b5060016000868154811061060b5761060a610e1a565b5b906000526020600020906002020160010160006101000a81548160ff021916908315150217905550838360018484604051610647929190610bec565b90815260200160405180910390206000019190610665929190610875565b505050505050565b60606000806000848154811061068657610685610e1a565b5b90600052602060002090600202016040518060400160405290816000820180546106af90610d59565b80601f01602080910402602001604051908101604052809291908181526020018280546106db90610d59565b80156107285780601f106106fd57610100808354040283529160200191610728565b820191906000526020600020905b81548152906001019060200180831161070b57829003601f168201915b505050505081526020016001820160009054906101000a900460ff1615151515815250509050806000015181602001519250925050915091565b82805461076e90610d59565b90600052602060002090601f01602090048101928261079057600085556107d7565b82601f106107a957805160ff19168380011785556107d7565b828001600101855582156107d7579182015b828111156107d65782518255916020019190600101906107bb565b5b5090506107e491906108fb565b5090565b8280546107f490610d59565b90600052602060002090601f0160209004810192826108165760008555610864565b82601f106108275780548555610864565b8280016001018555821561086457600052602060002091601f016020900482015b82811115610863578254825591600101919060010190610848565b5b50905061087191906108fb565b5090565b82805461088190610d59565b90600052602060002090601f0160209004810192826108a357600085556108ea565b82601f106108bc57803560ff19168380011785556108ea565b828001600101855582156108ea579182015b828111156108e95782358255916020019190600101906108ce565b5b5090506108f791906108fb565b5090565b5b808211156109145760008160009055506001016108fc565b5090565b600061092b61092684610c75565b610c50565b90508281526020810184848401111561094757610946610e87565b5b610952848285610d17565b509392505050565b60008083601f8401126109705761096f610e7d565b5b8235905067ffffffffffffffff81111561098d5761098c610e78565b5b6020830191508360018202830111156109a9576109a8610e82565b5b9250929050565b600082601f8301126109c5576109c4610e7d565b5b81356109d5848260208601610918565b91505092915050565b6000813590506109ed81610ea7565b92915050565b60008060008060408587031215610a0d57610a0c610e91565b5b600085013567ffffffffffffffff811115610a2b57610a2a610e8c565b5b610a378782880161095a565b9450945050602085013567ffffffffffffffff811115610a5a57610a59610e8c565b5b610a668782880161095a565b925092505092959194509250565b600060208284031215610a8a57610a89610e91565b5b600082013567ffffffffffffffff811115610aa857610aa7610e8c565b5b610ab4848285016109b0565b91505092915050565b600060208284031215610ad357610ad2610e91565b5b6000610ae1848285016109de565b91505092915050565b600080600080600060608688031215610b0657610b05610e91565b5b6000610b14888289016109de565b955050602086013567ffffffffffffffff811115610b3557610b34610e8c565b5b610b418882890161095a565b9450945050604086013567ffffffffffffffff811115610b6457610b63610e8c565b5b610b708882890161095a565b92509250509295509295909350565b610b8881610d01565b82525050565b6000610b9a8385610cc2565b9350610ba7838584610d17565b82840190509392505050565b6000610bbe82610ca6565b610bc88185610cb1565b9350610bd8818560208601610d26565b610be181610e96565b840191505092915050565b6000610bf9828486610b8e565b91508190509392505050565b6000602082019050610c1a6000830184610b7f565b92915050565b60006040820190508181036000830152610c3a8185610bb3565b9050610c496020830184610b7f565b9392505050565b6000610c5a610c6b565b9050610c668282610d8b565b919050565b6000604051905090565b600067ffffffffffffffff821115610c9057610c8f610e49565b5b610c9982610e96565b9050602081019050919050565b600081519050919050565b600082825260208201905092915050565b600081905092915050565b6000610cd882610d0d565b9150610ce383610d0d565b925082821015610cf657610cf5610dbc565b5b828203905092915050565b60008115159050919050565b6000819050919050565b82818337600083830152505050565b60005b83811015610d44578082015181840152602081019050610d29565b83811115610d53576000848401525b50505050565b60006002820490506001821680610d7157607f821691505b60208210811415610d8557610d84610deb565b5b50919050565b610d9482610e96565b810181811067ffffffffffffffff82111715610db357610db2610e49565b5b80604052505050565b7f4e487b7100000000000000000000000000000000000000000000000000000000600052601160045260246000fd5b7f4e487b7100000000000000000000000000000000000000000000000000000000600052602260045260246000fd5b7f4e487b7100000000000000000000000000000000000000000000000000000000600052603260045260246000fd5b7f4e487b7100000000000000000000000000000000000000000000000000000000600052604160045260246000fd5b600080fd5b600080fd5b600080fd5b600080fd5b600080fd5b600080fd5b6000601f19601f8301169050919050565b610eb081610d0d565b8114610ebb57600080fd5b5056fea2646970667358221220f3a218054cacc0be058acdc3a82ef73a776490175f6d1899c39eb8b4804b8d2c64736f6c63430008070033",
					"opcodes": "PUSH1 0x80 PUSH1 0x40 MSTORE CALLVALUE DUP1 ISZERO PUSH2 0x10 JUMPI PUSH1 0x0 DUP1 REVERT JUMPDEST POP PUSH2 0xEF4 DUP1 PUSH2 0x20 PUSH1 0x0 CODECOPY PUSH1 0x0 RETURN INVALID PUSH1 0x80 PUSH1 0x40 MSTORE CALLVALUE DUP1 ISZERO PUSH2 0x10 JUMPI PUSH1 0x0 DUP1 REVERT JUMPDEST POP PUSH1 0x4 CALLDATASIZE LT PUSH2 0x7D JUMPI PUSH1 0x0 CALLDATALOAD PUSH1 0xE0 SHR DUP1 PUSH4 0x45C21FDF GT PUSH2 0x5B JUMPI DUP1 PUSH4 0x45C21FDF EQ PUSH2 0xEB JUMPI DUP1 PUSH4 0x58C2D469 EQ PUSH2 0x11B JUMPI DUP1 PUSH4 0x5E545827 EQ PUSH2 0x14C JUMPI DUP1 PUSH4 0x60859E13 EQ PUSH2 0x168 JUMPI PUSH2 0x7D JUMP JUMPDEST DUP1 PUSH4 0x213F4E6C EQ PUSH2 0x82 JUMPI DUP1 PUSH4 0x3380B99F EQ PUSH2 0xB3 JUMPI DUP1 PUSH4 0x455F5024 EQ PUSH2 0xCF JUMPI JUMPDEST PUSH1 0x0 DUP1 REVERT JUMPDEST PUSH2 0x9C PUSH1 0x4 DUP1 CALLDATASIZE SUB DUP2 ADD SWAP1 PUSH2 0x97 SWAP2 SWAP1 PUSH2 0xA74 JUMP JUMPDEST PUSH2 0x199 JUMP JUMPDEST PUSH1 0x40 MLOAD PUSH2 0xAA SWAP3 SWAP2 SWAP1 PUSH2 0xC20 JUMP JUMPDEST PUSH1 0x40 MLOAD DUP1 SWAP2 SUB SWAP1 RETURN JUMPDEST PUSH2 0xCD PUSH1 0x4 DUP1 CALLDATASIZE SUB DUP2 ADD SWAP1 PUSH2 0xC8 SWAP2 SWAP1 PUSH2 0x9F3 JUMP JUMPDEST PUSH2 0x268 JUMP JUMPDEST STOP JUMPDEST PUSH2 0xE9 PUSH1 0x4 DUP1 CALLDATASIZE SUB DUP2 ADD SWAP1 PUSH2 0xE4 SWAP2 SWAP1 PUSH2 0xABD JUMP JUMPDEST PUSH2 0x44E JUMP JUMPDEST STOP JUMPDEST PUSH2 0x105 PUSH1 0x4 DUP1 CALLDATASIZE SUB DUP2 ADD SWAP1 PUSH2 0x100 SWAP2 SWAP1 PUSH2 0xA74 JUMP JUMPDEST PUSH2 0x4C1 JUMP JUMPDEST PUSH1 0x40 MLOAD PUSH2 0x112 SWAP2 SWAP1 PUSH2 0xC05 JUMP JUMPDEST PUSH1 0x40 MLOAD DUP1 SWAP2 SUB SWAP1 RETURN JUMPDEST PUSH2 0x135 PUSH1 0x4 DUP1 CALLDATASIZE SUB DUP2 ADD SWAP1 PUSH2 0x130 SWAP2 SWAP1 PUSH2 0xABD JUMP JUMPDEST PUSH2 0x4F7 JUMP JUMPDEST PUSH1 0x40 MLOAD PUSH2 0x143 SWAP3 SWAP2 SWAP1 PUSH2 0xC20 JUMP JUMPDEST PUSH1 0x40 MLOAD DUP1 SWAP2 SUB SWAP1 RETURN JUMPDEST PUSH2 0x166 PUSH1 0x4 DUP1 CALLDATASIZE SUB DUP2 ADD SWAP1 PUSH2 0x161 SWAP2 SWAP1 PUSH2 0xAEA JUMP JUMPDEST PUSH2 0x5C0 JUMP JUMPDEST STOP JUMPDEST PUSH2 0x182 PUSH1 0x4 DUP1 CALLDATASIZE SUB DUP2 ADD SWAP1 PUSH2 0x17D SWAP2 SWAP1 PUSH2 0xABD JUMP JUMPDEST PUSH2 0x66D JUMP JUMPDEST PUSH1 0x40 MLOAD PUSH2 0x190 SWAP3 SWAP2 SWAP1 PUSH2 0xC20 JUMP JUMPDEST PUSH1 0x40 MLOAD DUP1 SWAP2 SUB SWAP1 RETURN JUMPDEST PUSH1 0x1 DUP2 DUP1 MLOAD PUSH1 0x20 DUP2 ADD DUP3 ADD DUP1 MLOAD DUP5 DUP3 MSTORE PUSH1 0x20 DUP4 ADD PUSH1 0x20 DUP6 ADD KECCAK256 DUP2 DUP4 MSTORE DUP1 SWAP6 POP POP POP POP POP POP PUSH1 0x0 SWAP2 POP SWAP1 POP DUP1 PUSH1 0x0 ADD DUP1 SLOAD PUSH2 0x1D2 SWAP1 PUSH2 0xD59 JUMP JUMPDEST DUP1 PUSH1 0x1F ADD PUSH1 0x20 DUP1 SWAP2 DIV MUL PUSH1 0x20 ADD PUSH1 0x40 MLOAD SWAP1 DUP2 ADD PUSH1 0x40 MSTORE DUP1 SWAP3 SWAP2 SWAP1 DUP2 DUP2 MSTORE PUSH1 0x20 ADD DUP3 DUP1 SLOAD PUSH2 0x1FE SWAP1 PUSH2 0xD59 JUMP JUMPDEST DUP1 ISZERO PUSH2 0x24B JUMPI DUP1 PUSH1 0x1F LT PUSH2 0x220 JUMPI PUSH2 0x100 DUP1 DUP4 SLOAD DIV MUL DUP4 MSTORE SWAP2 PUSH1 0x20 ADD SWAP2 PUSH2 0x24B JUMP JUMPDEST DUP3 ADD SWAP2 SWAP1 PUSH1 0x0 MSTORE PUSH1 0x20 PUSH1 0x0 KECCAK256 SWAP1 JUMPDEST DUP2 SLOAD DUP2 MSTORE SWAP1 PUSH1 0x1 ADD SWAP1 PUSH1 0x20 ADD DUP1 DUP4 GT PUSH2 0x22E JUMPI DUP3 SWAP1 SUB PUSH1 0x1F AND DUP3 ADD SWAP2 JUMPDEST POP POP POP POP POP SWAP1 DUP1 PUSH1 0x1 ADD PUSH1 0x0 SWAP1 SLOAD SWAP1 PUSH2 0x100 EXP SWAP1 DIV PUSH1 0xFF AND SWAP1 POP DUP3 JUMP JUMPDEST PUSH1 0x0 PUSH1 0x40 MLOAD DUP1 PUSH1 0x40 ADD PUSH1 0x40 MSTORE DUP1 DUP7 DUP7 DUP1 DUP1 PUSH1 0x1F ADD PUSH1 0x20 DUP1 SWAP2 DIV MUL PUSH1 0x20 ADD PUSH1 0x40 MLOAD SWAP1 DUP2 ADD PUSH1 0x40 MSTORE DUP1 SWAP4 SWAP3 SWAP2 SWAP1 DUP2 DUP2 MSTORE PUSH1 0x20 ADD DUP4 DUP4 DUP1 DUP3 DUP5 CALLDATACOPY PUSH1 0x0 DUP2 DUP5 ADD MSTORE PUSH1 0x1F NOT PUSH1 0x1F DUP3 ADD AND SWAP1 POP DUP1 DUP4 ADD SWAP3 POP POP POP POP POP POP POP DUP2 MSTORE PUSH1 0x20 ADD PUSH1 0x0 ISZERO ISZERO DUP2 MSTORE POP SWAP1 POP PUSH1 0x0 DUP2 SWAP1 DUP1 PUSH1 0x1 DUP2 SLOAD ADD DUP1 DUP3 SSTORE DUP1 SWAP2 POP POP PUSH1 0x1 SWAP1 SUB SWAP1 PUSH1 0x0 MSTORE PUSH1 0x20 PUSH1 0x0 KECCAK256 SWAP1 PUSH1 0x2 MUL ADD PUSH1 0x0 SWAP1 SWAP2 SWAP1 SWAP2 SWAP1 SWAP2 POP PUSH1 0x0 DUP3 ADD MLOAD DUP2 PUSH1 0x0 ADD SWAP1 DUP1 MLOAD SWAP1 PUSH1 0x20 ADD SWAP1 PUSH2 0x310 SWAP3 SWAP2 SWAP1 PUSH2 0x762 JUMP JUMPDEST POP PUSH1 0x20 DUP3 ADD MLOAD DUP2 PUSH1 0x1 ADD PUSH1 0x0 PUSH2 0x100 EXP DUP2 SLOAD DUP2 PUSH1 0xFF MUL NOT AND SWAP1 DUP4 ISZERO ISZERO MUL OR SWAP1 SSTORE POP POP POP PUSH1 0x2 DUP4 DUP4 PUSH1 0x40 MLOAD PUSH2 0x345 SWAP3 SWAP2 SWAP1 PUSH2 0xBEC JUMP JUMPDEST SWAP1 DUP2 MSTORE PUSH1 0x20 ADD PUSH1 0x40 MLOAD DUP1 SWAP2 SUB SWAP1 KECCAK256 PUSH1 0x0 SWAP1 SLOAD SWAP1 PUSH2 0x100 EXP SWAP1 DIV PUSH1 0xFF AND ISZERO PUSH2 0x36B JUMPI PUSH1 0x0 DUP1 REVERT JUMPDEST PUSH1 0x0 PUSH1 0x1 PUSH1 0x0 DUP1 SLOAD SWAP1 POP PUSH2 0x37F SWAP2 SWAP1 PUSH2 0xCCD JUMP JUMPDEST DUP2 SLOAD DUP2 LT PUSH2 0x390 JUMPI PUSH2 0x38F PUSH2 0xE1A JUMP JUMPDEST JUMPDEST SWAP1 PUSH1 0x0 MSTORE PUSH1 0x20 PUSH1 0x0 KECCAK256 SWAP1 PUSH1 0x2 MUL ADD PUSH1 0x1 DUP5 DUP5 PUSH1 0x40 MLOAD PUSH2 0x3B0 SWAP3 SWAP2 SWAP1 PUSH2 0xBEC JUMP JUMPDEST SWAP1 DUP2 MSTORE PUSH1 0x20 ADD PUSH1 0x40 MLOAD DUP1 SWAP2 SUB SWAP1 KECCAK256 PUSH1 0x0 DUP3 ADD DUP2 PUSH1 0x0 ADD SWAP1 DUP1 SLOAD PUSH2 0x3D2 SWAP1 PUSH2 0xD59 JUMP JUMPDEST PUSH2 0x3DD SWAP3 SWAP2 SWAP1 PUSH2 0x7E8 JUMP JUMPDEST POP PUSH1 0x1 DUP3 ADD PUSH1 0x0 SWAP1 SLOAD SWAP1 PUSH2 0x100 EXP SWAP1 DIV PUSH1 0xFF AND DUP2 PUSH1 0x1 ADD PUSH1 0x0 PUSH2 0x100 EXP DUP2 SLOAD DUP2 PUSH1 0xFF MUL NOT AND SWAP1 DUP4 ISZERO ISZERO MUL OR SWAP1 SSTORE POP SWAP1 POP POP PUSH1 0x1 PUSH1 0x2 DUP5 DUP5 PUSH1 0x40 MLOAD PUSH2 0x422 SWAP3 SWAP2 SWAP1 PUSH2 0xBEC JUMP JUMPDEST SWAP1 DUP2 MSTORE PUSH1 0x20 ADD PUSH1 0x40 MLOAD DUP1 SWAP2 SUB SWAP1 KECCAK256 PUSH1 0x0 PUSH2 0x100 EXP DUP2 SLOAD DUP2 PUSH1 0xFF MUL NOT AND SWAP1 DUP4 ISZERO ISZERO MUL OR SWAP1 SSTORE POP POP POP POP POP POP JUMP JUMPDEST PUSH1 0x0 DUP2 DUP2 SLOAD DUP2 LT PUSH2 0x462 JUMPI PUSH2 0x461 PUSH2 0xE1A JUMP JUMPDEST JUMPDEST SWAP1 PUSH1 0x0 MSTORE PUSH1 0x20 PUSH1 0x0 KECCAK256 SWAP1 PUSH1 0x2 MUL ADD PUSH1 0x1 ADD PUSH1 0x0 SWAP1 SLOAD SWAP1 PUSH2 0x100 EXP SWAP1 DIV PUSH1 0xFF AND ISZERO PUSH1 0x0 DUP3 DUP2 SLOAD DUP2 LT PUSH2 0x496 JUMPI PUSH2 0x495 PUSH2 0xE1A JUMP JUMPDEST JUMPDEST SWAP1 PUSH1 0x0 MSTORE PUSH1 0x20 PUSH1 0x0 KECCAK256 SWAP1 PUSH1 0x2 MUL ADD PUSH1 0x1 ADD PUSH1 0x0 PUSH2 0x100 EXP DUP2 SLOAD DUP2 PUSH1 0xFF MUL NOT AND SWAP1 DUP4 ISZERO ISZERO MUL OR SWAP1 SSTORE POP POP JUMP JUMPDEST PUSH1 0x2 DUP2 DUP1 MLOAD PUSH1 0x20 DUP2 ADD DUP3 ADD DUP1 MLOAD DUP5 DUP3 MSTORE PUSH1 0x20 DUP4 ADD PUSH1 0x20 DUP6 ADD KECCAK256 DUP2 DUP4 MSTORE DUP1 SWAP6 POP POP POP POP POP POP PUSH1 0x0 SWAP2 POP SLOAD SWAP1 PUSH2 0x100 EXP SWAP1 DIV PUSH1 0xFF AND DUP2 JUMP JUMPDEST PUSH1 0x0 DUP2 DUP2 SLOAD DUP2 LT PUSH2 0x507 JUMPI PUSH1 0x0 DUP1 REVERT JUMPDEST SWAP1 PUSH1 0x0 MSTORE PUSH1 0x20 PUSH1 0x0 KECCAK256 SWAP1 PUSH1 0x2 MUL ADD PUSH1 0x0 SWAP2 POP SWAP1 POP DUP1 PUSH1 0x0 ADD DUP1 SLOAD PUSH2 0x52A SWAP1 PUSH2 0xD59 JUMP JUMPDEST DUP1 PUSH1 0x1F ADD PUSH1 0x20 DUP1 SWAP2 DIV MUL PUSH1 0x20 ADD PUSH1 0x40 MLOAD SWAP1 DUP2 ADD PUSH1 0x40 MSTORE DUP1 SWAP3 SWAP2 SWAP1 DUP2 DUP2 MSTORE PUSH1 0x20 ADD DUP3 DUP1 SLOAD PUSH2 0x556 SWAP1 PUSH2 0xD59 JUMP JUMPDEST DUP1 ISZERO PUSH2 0x5A3 JUMPI DUP1 PUSH1 0x1F LT PUSH2 0x578 JUMPI PUSH2 0x100 DUP1 DUP4 SLOAD DIV MUL DUP4 MSTORE SWAP2 PUSH1 0x20 ADD SWAP2 PUSH2 0x5A3 JUMP JUMPDEST DUP3 ADD SWAP2 SWAP1 PUSH1 0x0 MSTORE PUSH1 0x20 PUSH1 0x0 KECCAK256 SWAP1 JUMPDEST DUP2 SLOAD DUP2 MSTORE SWAP1 PUSH1 0x1 ADD SWAP1 PUSH1 0x20 ADD DUP1 DUP4 GT PUSH2 0x586 JUMPI DUP3 SWAP1 SUB PUSH1 0x1F AND DUP3 ADD SWAP2 JUMPDEST POP POP POP POP POP SWAP1 DUP1 PUSH1 0x1 ADD PUSH1 0x0 SWAP1 SLOAD SWAP1 PUSH2 0x100 EXP SWAP1 DIV PUSH1 0xFF AND SWAP1 POP DUP3 JUMP JUMPDEST DUP4 DUP4 PUSH1 0x0 DUP8 DUP2 SLOAD DUP2 LT PUSH2 0x5D6 JUMPI PUSH2 0x5D5 PUSH2 0xE1A JUMP JUMPDEST JUMPDEST SWAP1 PUSH1 0x0 MSTORE PUSH1 0x20 PUSH1 0x0 KECCAK256 SWAP1 PUSH1 0x2 MUL ADD PUSH1 0x0 ADD SWAP2 SWAP1 PUSH2 0x5F4 SWAP3 SWAP2 SWAP1 PUSH2 0x875 JUMP JUMPDEST POP PUSH1 0x1 PUSH1 0x0 DUP7 DUP2 SLOAD DUP2 LT PUSH2 0x60B JUMPI PUSH2 0x60A PUSH2 0xE1A JUMP JUMPDEST JUMPDEST SWAP1 PUSH1 0x0 MSTORE PUSH1 0x20 PUSH1 0x0 KECCAK256 SWAP1 PUSH1 0x2 MUL ADD PUSH1 0x1 ADD PUSH1 0x0 PUSH2 0x100 EXP DUP2 SLOAD DUP2 PUSH1 0xFF MUL NOT AND SWAP1 DUP4 ISZERO ISZERO MUL OR SWAP1 SSTORE POP DUP4 DUP4 PUSH1 0x1 DUP5 DUP5 PUSH1 0x40 MLOAD PUSH2 0x647 SWAP3 SWAP2 SWAP1 PUSH2 0xBEC JUMP JUMPDEST SWAP1 DUP2 MSTORE PUSH1 0x20 ADD PUSH1 0x40 MLOAD DUP1 SWAP2 SUB SWAP1 KECCAK256 PUSH1 0x0 ADD SWAP2 SWAP1 PUSH2 0x665 SWAP3 SWAP2 SWAP1 PUSH2 0x875 JUMP JUMPDEST POP POP POP POP POP POP JUMP JUMPDEST PUSH1 0x60 PUSH1 0x0 DUP1 PUSH1 0x0 DUP5 DUP2 SLOAD DUP2 LT PUSH2 0x686 JUMPI PUSH2 0x685 PUSH2 0xE1A JUMP JUMPDEST JUMPDEST SWAP1 PUSH1 0x0 MSTORE PUSH1 0x20 PUSH1 0x0 KECCAK256 SWAP1 PUSH1 0x2 MUL ADD PUSH1 0x40 MLOAD DUP1 PUSH1 0x40 ADD PUSH1 0x40 MSTORE SWAP1 DUP2 PUSH1 0x0 DUP3 ADD DUP1 SLOAD PUSH2 0x6AF SWAP1 PUSH2 0xD59 JUMP JUMPDEST DUP1 PUSH1 0x1F ADD PUSH1 0x20 DUP1 SWAP2 DIV MUL PUSH1 0x20 ADD PUSH1 0x40 MLOAD SWAP1 DUP2 ADD PUSH1 0x40 MSTORE DUP1 SWAP3 SWAP2 SWAP1 DUP2 DUP2 MSTORE PUSH1 0x20 ADD DUP3 DUP1 SLOAD PUSH2 0x6DB SWAP1 PUSH2 0xD59 JUMP JUMPDEST DUP1 ISZERO PUSH2 0x728 JUMPI DUP1 PUSH1 0x1F LT PUSH2 0x6FD JUMPI PUSH2 0x100 DUP1 DUP4 SLOAD DIV MUL DUP4 MSTORE SWAP2 PUSH1 0x20 ADD SWAP2 PUSH2 0x728 JUMP JUMPDEST DUP3 ADD SWAP2 SWAP1 PUSH1 0x0 MSTORE PUSH1 0x20 PUSH1 0x0 KECCAK256 SWAP1 JUMPDEST DUP2 SLOAD DUP2 MSTORE SWAP1 PUSH1 0x1 ADD SWAP1 PUSH1 0x20 ADD DUP1 DUP4 GT PUSH2 0x70B JUMPI DUP3 SWAP1 SUB PUSH1 0x1F AND DUP3 ADD SWAP2 JUMPDEST POP POP POP POP POP DUP2 MSTORE PUSH1 0x20 ADD PUSH1 0x1 DUP3 ADD PUSH1 0x0 SWAP1 SLOAD SWAP1 PUSH2 0x100 EXP SWAP1 DIV PUSH1 0xFF AND ISZERO ISZERO ISZERO ISZERO DUP2 MSTORE POP POP SWAP1 POP DUP1 PUSH1 0x0 ADD MLOAD DUP2 PUSH1 0x20 ADD MLOAD SWAP3 POP SWAP3 POP POP SWAP2 POP SWAP2 JUMP JUMPDEST DUP3 DUP1 SLOAD PUSH2 0x76E SWAP1 PUSH2 0xD59 JUMP JUMPDEST SWAP1 PUSH1 0x0 MSTORE PUSH1 0x20 PUSH1 0x0 KECCAK256 SWAP1 PUSH1 0x1F ADD PUSH1 0x20 SWAP1 DIV DUP2 ADD SWAP3 DUP3 PUSH2 0x790 JUMPI PUSH1 0x0 DUP6 SSTORE PUSH2 0x7D7 JUMP JUMPDEST DUP3 PUSH1 0x1F LT PUSH2 0x7A9 JUMPI DUP1 MLOAD PUSH1 0xFF NOT AND DUP4 DUP1 ADD OR DUP6 SSTORE PUSH2 0x7D7 JUMP JUMPDEST DUP3 DUP1 ADD PUSH1 0x1 ADD DUP6 SSTORE DUP3 ISZERO PUSH2 0x7D7 JUMPI SWAP2 DUP3 ADD JUMPDEST DUP3 DUP2 GT ISZERO PUSH2 0x7D6 JUMPI DUP3 MLOAD DUP3 SSTORE SWAP2 PUSH1 0x20 ADD SWAP2 SWAP1 PUSH1 0x1 ADD SWAP1 PUSH2 0x7BB JUMP JUMPDEST JUMPDEST POP SWAP1 POP PUSH2 0x7E4 SWAP2 SWAP1 PUSH2 0x8FB JUMP JUMPDEST POP SWAP1 JUMP JUMPDEST DUP3 DUP1 SLOAD PUSH2 0x7F4 SWAP1 PUSH2 0xD59 JUMP JUMPDEST SWAP1 PUSH1 0x0 MSTORE PUSH1 0x20 PUSH1 0x0 KECCAK256 SWAP1 PUSH1 0x1F ADD PUSH1 0x20 SWAP1 DIV DUP2 ADD SWAP3 DUP3 PUSH2 0x816 JUMPI PUSH1 0x0 DUP6 SSTORE PUSH2 0x864 JUMP JUMPDEST DUP3 PUSH1 0x1F LT PUSH2 0x827 JUMPI DUP1 SLOAD DUP6 SSTORE PUSH2 0x864 JUMP JUMPDEST DUP3 DUP1 ADD PUSH1 0x1 ADD DUP6 SSTORE DUP3 ISZERO PUSH2 0x864 JUMPI PUSH1 0x0 MSTORE PUSH1 0x20 PUSH1 0x0 KECCAK256 SWAP2 PUSH1 0x1F ADD PUSH1 0x20 SWAP1 DIV DUP3 ADD JUMPDEST DUP3 DUP2 GT ISZERO PUSH2 0x863 JUMPI DUP3 SLOAD DUP3 SSTORE SWAP2 PUSH1 0x1 ADD SWAP2 SWAP1 PUSH1 0x1 ADD SWAP1 PUSH2 0x848 JUMP JUMPDEST JUMPDEST POP SWAP1 POP PUSH2 0x871 SWAP2 SWAP1 PUSH2 0x8FB JUMP JUMPDEST POP SWAP1 JUMP JUMPDEST DUP3 DUP1 SLOAD PUSH2 0x881 SWAP1 PUSH2 0xD59 JUMP JUMPDEST SWAP1 PUSH1 0x0 MSTORE PUSH1 0x20 PUSH1 0x0 KECCAK256 SWAP1 PUSH1 0x1F ADD PUSH1 0x20 SWAP1 DIV DUP2 ADD SWAP3 DUP3 PUSH2 0x8A3 JUMPI PUSH1 0x0 DUP6 SSTORE PUSH2 0x8EA JUMP JUMPDEST DUP3 PUSH1 0x1F LT PUSH2 0x8BC JUMPI DUP1 CALLDATALOAD PUSH1 0xFF NOT AND DUP4 DUP1 ADD OR DUP6 SSTORE PUSH2 0x8EA JUMP JUMPDEST DUP3 DUP1 ADD PUSH1 0x1 ADD DUP6 SSTORE DUP3 ISZERO PUSH2 0x8EA JUMPI SWAP2 DUP3 ADD JUMPDEST DUP3 DUP2 GT ISZERO PUSH2 0x8E9 JUMPI DUP3 CALLDATALOAD DUP3 SSTORE SWAP2 PUSH1 0x20 ADD SWAP2 SWAP1 PUSH1 0x1 ADD SWAP1 PUSH2 0x8CE JUMP JUMPDEST JUMPDEST POP SWAP1 POP PUSH2 0x8F7 SWAP2 SWAP1 PUSH2 0x8FB JUMP JUMPDEST POP SWAP1 JUMP JUMPDEST JUMPDEST DUP1 DUP3 GT ISZERO PUSH2 0x914 JUMPI PUSH1 0x0 DUP2 PUSH1 0x0 SWAP1 SSTORE POP PUSH1 0x1 ADD PUSH2 0x8FC JUMP JUMPDEST POP SWAP1 JUMP JUMPDEST PUSH1 0x0 PUSH2 0x92B PUSH2 0x926 DUP5 PUSH2 0xC75 JUMP JUMPDEST PUSH2 0xC50 JUMP JUMPDEST SWAP1 POP DUP3 DUP2 MSTORE PUSH1 0x20 DUP2 ADD DUP5 DUP5 DUP5 ADD GT ISZERO PUSH2 0x947 JUMPI PUSH2 0x946 PUSH2 0xE87 JUMP JUMPDEST JUMPDEST PUSH2 0x952 DUP5 DUP3 DUP6 PUSH2 0xD17 JUMP JUMPDEST POP SWAP4 SWAP3 POP POP POP JUMP JUMPDEST PUSH1 0x0 DUP1 DUP4 PUSH1 0x1F DUP5 ADD SLT PUSH2 0x970 JUMPI PUSH2 0x96F PUSH2 0xE7D JUMP JUMPDEST JUMPDEST DUP3 CALLDATALOAD SWAP1 POP PUSH8 0xFFFFFFFFFFFFFFFF DUP2 GT ISZERO PUSH2 0x98D JUMPI PUSH2 0x98C PUSH2 0xE78 JUMP JUMPDEST JUMPDEST PUSH1 0x20 DUP4 ADD SWAP2 POP DUP4 PUSH1 0x1 DUP3 MUL DUP4 ADD GT ISZERO PUSH2 0x9A9 JUMPI PUSH2 0x9A8 PUSH2 0xE82 JUMP JUMPDEST JUMPDEST SWAP3 POP SWAP3 SWAP1 POP JUMP JUMPDEST PUSH1 0x0 DUP3 PUSH1 0x1F DUP4 ADD SLT PUSH2 0x9C5 JUMPI PUSH2 0x9C4 PUSH2 0xE7D JUMP JUMPDEST JUMPDEST DUP2 CALLDATALOAD PUSH2 0x9D5 DUP5 DUP3 PUSH1 0x20 DUP7 ADD PUSH2 0x918 JUMP JUMPDEST SWAP2 POP POP SWAP3 SWAP2 POP POP JUMP JUMPDEST PUSH1 0x0 DUP2 CALLDATALOAD SWAP1 POP PUSH2 0x9ED DUP2 PUSH2 0xEA7 JUMP JUMPDEST SWAP3 SWAP2 POP POP JUMP JUMPDEST PUSH1 0x0 DUP1 PUSH1 0x0 DUP1 PUSH1 0x40 DUP6 DUP8 SUB SLT ISZERO PUSH2 0xA0D JUMPI PUSH2 0xA0C PUSH2 0xE91 JUMP JUMPDEST JUMPDEST PUSH1 0x0 DUP6 ADD CALLDATALOAD PUSH8 0xFFFFFFFFFFFFFFFF DUP2 GT ISZERO PUSH2 0xA2B JUMPI PUSH2 0xA2A PUSH2 0xE8C JUMP JUMPDEST JUMPDEST PUSH2 0xA37 DUP8 DUP3 DUP9 ADD PUSH2 0x95A JUMP JUMPDEST SWAP5 POP SWAP5 POP POP PUSH1 0x20 DUP6 ADD CALLDATALOAD PUSH8 0xFFFFFFFFFFFFFFFF DUP2 GT ISZERO PUSH2 0xA5A JUMPI PUSH2 0xA59 PUSH2 0xE8C JUMP JUMPDEST JUMPDEST PUSH2 0xA66 DUP8 DUP3 DUP9 ADD PUSH2 0x95A JUMP JUMPDEST SWAP3 POP SWAP3 POP POP SWAP3 SWAP6 SWAP2 SWAP5 POP SWAP3 POP JUMP JUMPDEST PUSH1 0x0 PUSH1 0x20 DUP3 DUP5 SUB SLT ISZERO PUSH2 0xA8A JUMPI PUSH2 0xA89 PUSH2 0xE91 JUMP JUMPDEST JUMPDEST PUSH1 0x0 DUP3 ADD CALLDATALOAD PUSH8 0xFFFFFFFFFFFFFFFF DUP2 GT ISZERO PUSH2 0xAA8 JUMPI PUSH2 0xAA7 PUSH2 0xE8C JUMP JUMPDEST JUMPDEST PUSH2 0xAB4 DUP5 DUP3 DUP6 ADD PUSH2 0x9B0 JUMP JUMPDEST SWAP2 POP POP SWAP3 SWAP2 POP POP JUMP JUMPDEST PUSH1 0x0 PUSH1 0x20 DUP3 DUP5 SUB SLT ISZERO PUSH2 0xAD3 JUMPI PUSH2 0xAD2 PUSH2 0xE91 JUMP JUMPDEST JUMPDEST PUSH1 0x0 PUSH2 0xAE1 DUP5 DUP3 DUP6 ADD PUSH2 0x9DE JUMP JUMPDEST SWAP2 POP POP SWAP3 SWAP2 POP POP JUMP JUMPDEST PUSH1 0x0 DUP1 PUSH1 0x0 DUP1 PUSH1 0x0 PUSH1 0x60 DUP7 DUP9 SUB SLT ISZERO PUSH2 0xB06 JUMPI PUSH2 0xB05 PUSH2 0xE91 JUMP JUMPDEST JUMPDEST PUSH1 0x0 PUSH2 0xB14 DUP9 DUP3 DUP10 ADD PUSH2 0x9DE JUMP JUMPDEST SWAP6 POP POP PUSH1 0x20 DUP7 ADD CALLDATALOAD PUSH8 0xFFFFFFFFFFFFFFFF DUP2 GT ISZERO PUSH2 0xB35 JUMPI PUSH2 0xB34 PUSH2 0xE8C JUMP JUMPDEST JUMPDEST PUSH2 0xB41 DUP9 DUP3 DUP10 ADD PUSH2 0x95A JUMP JUMPDEST SWAP5 POP SWAP5 POP POP PUSH1 0x40 DUP7 ADD CALLDATALOAD PUSH8 0xFFFFFFFFFFFFFFFF DUP2 GT ISZERO PUSH2 0xB64 JUMPI PUSH2 0xB63 PUSH2 0xE8C JUMP JUMPDEST JUMPDEST PUSH2 0xB70 DUP9 DUP3 DUP10 ADD PUSH2 0x95A JUMP JUMPDEST SWAP3 POP SWAP3 POP POP SWAP3 SWAP6 POP SWAP3 SWAP6 SWAP1 SWAP4 POP JUMP JUMPDEST PUSH2 0xB88 DUP2 PUSH2 0xD01 JUMP JUMPDEST DUP3 MSTORE POP POP JUMP JUMPDEST PUSH1 0x0 PUSH2 0xB9A DUP4 DUP6 PUSH2 0xCC2 JUMP JUMPDEST SWAP4 POP PUSH2 0xBA7 DUP4 DUP6 DUP5 PUSH2 0xD17 JUMP JUMPDEST DUP3 DUP5 ADD SWAP1 POP SWAP4 SWAP3 POP POP POP JUMP JUMPDEST PUSH1 0x0 PUSH2 0xBBE DUP3 PUSH2 0xCA6 JUMP JUMPDEST PUSH2 0xBC8 DUP2 DUP6 PUSH2 0xCB1 JUMP JUMPDEST SWAP4 POP PUSH2 0xBD8 DUP2 DUP6 PUSH1 0x20 DUP7 ADD PUSH2 0xD26 JUMP JUMPDEST PUSH2 0xBE1 DUP2 PUSH2 0xE96 JUMP JUMPDEST DUP5 ADD SWAP2 POP POP SWAP3 SWAP2 POP POP JUMP JUMPDEST PUSH1 0x0 PUSH2 0xBF9 DUP3 DUP5 DUP7 PUSH2 0xB8E JUMP JUMPDEST SWAP2 POP DUP2 SWAP1 POP SWAP4 SWAP3 POP POP POP JUMP JUMPDEST PUSH1 0x0 PUSH1 0x20 DUP3 ADD SWAP1 POP PUSH2 0xC1A PUSH1 0x0 DUP4 ADD DUP5 PUSH2 0xB7F JUMP JUMPDEST SWAP3 SWAP2 POP POP JUMP JUMPDEST PUSH1 0x0 PUSH1 0x40 DUP3 ADD SWAP1 POP DUP2 DUP2 SUB PUSH1 0x0 DUP4 ADD MSTORE PUSH2 0xC3A DUP2 DUP6 PUSH2 0xBB3 JUMP JUMPDEST SWAP1 POP PUSH2 0xC49 PUSH1 0x20 DUP4 ADD DUP5 PUSH2 0xB7F JUMP JUMPDEST SWAP4 SWAP3 POP POP POP JUMP JUMPDEST PUSH1 0x0 PUSH2 0xC5A PUSH2 0xC6B JUMP JUMPDEST SWAP1 POP PUSH2 0xC66 DUP3 DUP3 PUSH2 0xD8B JUMP JUMPDEST SWAP2 SWAP1 POP JUMP JUMPDEST PUSH1 0x0 PUSH1 0x40 MLOAD SWAP1 POP SWAP1 JUMP JUMPDEST PUSH1 0x0 PUSH8 0xFFFFFFFFFFFFFFFF DUP3 GT ISZERO PUSH2 0xC90 JUMPI PUSH2 0xC8F PUSH2 0xE49 JUMP JUMPDEST JUMPDEST PUSH2 0xC99 DUP3 PUSH2 0xE96 JUMP JUMPDEST SWAP1 POP PUSH1 0x20 DUP2 ADD SWAP1 POP SWAP2 SWAP1 POP JUMP JUMPDEST PUSH1 0x0 DUP2 MLOAD SWAP1 POP SWAP2 SWAP1 POP JUMP JUMPDEST PUSH1 0x0 DUP3 DUP3 MSTORE PUSH1 0x20 DUP3 ADD SWAP1 POP SWAP3 SWAP2 POP POP JUMP JUMPDEST PUSH1 0x0 DUP2 SWAP1 POP SWAP3 SWAP2 POP POP JUMP JUMPDEST PUSH1 0x0 PUSH2 0xCD8 DUP3 PUSH2 0xD0D JUMP JUMPDEST SWAP2 POP PUSH2 0xCE3 DUP4 PUSH2 0xD0D JUMP JUMPDEST SWAP3 POP DUP3 DUP3 LT ISZERO PUSH2 0xCF6 JUMPI PUSH2 0xCF5 PUSH2 0xDBC JUMP JUMPDEST JUMPDEST DUP3 DUP3 SUB SWAP1 POP SWAP3 SWAP2 POP POP JUMP JUMPDEST PUSH1 0x0 DUP2 ISZERO ISZERO SWAP1 POP SWAP2 SWAP1 POP JUMP JUMPDEST PUSH1 0x0 DUP2 SWAP1 POP SWAP2 SWAP1 POP JUMP JUMPDEST DUP3 DUP2 DUP4 CALLDATACOPY PUSH1 0x0 DUP4 DUP4 ADD MSTORE POP POP POP JUMP JUMPDEST PUSH1 0x0 JUMPDEST DUP4 DUP2 LT ISZERO PUSH2 0xD44 JUMPI DUP1 DUP3 ADD MLOAD DUP2 DUP5 ADD MSTORE PUSH1 0x20 DUP2 ADD SWAP1 POP PUSH2 0xD29 JUMP JUMPDEST DUP4 DUP2 GT ISZERO PUSH2 0xD53 JUMPI PUSH1 0x0 DUP5 DUP5 ADD MSTORE JUMPDEST POP POP POP POP JUMP JUMPDEST PUSH1 0x0 PUSH1 0x2 DUP3 DIV SWAP1 POP PUSH1 0x1 DUP3 AND DUP1 PUSH2 0xD71 JUMPI PUSH1 0x7F DUP3 AND SWAP2 POP JUMPDEST PUSH1 0x20 DUP3 LT DUP2 EQ ISZERO PUSH2 0xD85 JUMPI PUSH2 0xD84 PUSH2 0xDEB JUMP JUMPDEST JUMPDEST POP SWAP2 SWAP1 POP JUMP JUMPDEST PUSH2 0xD94 DUP3 PUSH2 0xE96 JUMP JUMPDEST DUP2 ADD DUP2 DUP2 LT PUSH8 0xFFFFFFFFFFFFFFFF DUP3 GT OR ISZERO PUSH2 0xDB3 JUMPI PUSH2 0xDB2 PUSH2 0xE49 JUMP JUMPDEST JUMPDEST DUP1 PUSH1 0x40 MSTORE POP POP POP JUMP JUMPDEST PUSH32 0x4E487B7100000000000000000000000000000000000000000000000000000000 PUSH1 0x0 MSTORE PUSH1 0x11 PUSH1 0x4 MSTORE PUSH1 0x24 PUSH1 0x0 REVERT JUMPDEST PUSH32 0x4E487B7100000000000000000000000000000000000000000000000000000000 PUSH1 0x0 MSTORE PUSH1 0x22 PUSH1 0x4 MSTORE PUSH1 0x24 PUSH1 0x0 REVERT JUMPDEST PUSH32 0x4E487B7100000000000000000000000000000000000000000000000000000000 PUSH1 0x0 MSTORE PUSH1 0x32 PUSH1 0x4 MSTORE PUSH1 0x24 PUSH1 0x0 REVERT JUMPDEST PUSH32 0x4E487B7100000000000000000000000000000000000000000000000000000000 PUSH1 0x0 MSTORE PUSH1 0x41 PUSH1 0x4 MSTORE PUSH1 0x24 PUSH1 0x0 REVERT JUMPDEST PUSH1 0x0 DUP1 REVERT JUMPDEST PUSH1 0x0 DUP1 REVERT JUMPDEST PUSH1 0x0 DUP1 REVERT JUMPDEST PUSH1 0x0 DUP1 REVERT JUMPDEST PUSH1 0x0 DUP1 REVERT JUMPDEST PUSH1 0x0 DUP1 REVERT JUMPDEST PUSH1 0x0 PUSH1 0x1F NOT PUSH1 0x1F DUP4 ADD AND SWAP1 POP SWAP2 SWAP1 POP JUMP JUMPDEST PUSH2 0xEB0 DUP2 PUSH2 0xD0D JUMP JUMPDEST DUP2 EQ PUSH2 0xEBB JUMPI PUSH1 0x0 DUP1 REVERT JUMPDEST POP JUMP INVALID LOG2 PUSH5 0x6970667358 0x22 SLT KECCAK256 RETURN LOG2 XOR SDIV 0x4C 0xAC 0xC0 0xBE SDIV DUP11 0xCD 0xC3 0xA8 0x2E 0xF7 GASPRICE PUSH24 0x6490175F6D1899C39EB8B4804B8D2C64736F6C6343000807 STOP CALLER "
				},
				"gasEstimates": {
					"creation": {
						"codeDepositCost": "765600",
						"executionCost": "799",
						"totalCost": "766399"
					},
					"external": {
						"createTodo(string,string)": "infinite",
						"getTodoList(uint256)": "infinite",
						"keyIsExited(string)": "infinite",
						"keyWords(string)": "infinite",
						"todoList(uint256)": "infinite",
						"toggleCompleted(uint256)": "31251",
						"updateText(uint256,string,string)": "infinite"
					}
				},
				"methodIdentifiers": {
					"createTodo(string,string)": "3380b99f",
					"getTodoList(uint256)": "60859e13",
					"keyIsExited(string)": "45c21fdf",
					"keyWords(string)": "213f4e6c",
					"todoList(uint256)": "58c2d469",
					"toggleCompleted(uint256)": "455f5024",
					"updateText(uint256,string,string)": "5e545827"
				}
			},
			"storageLayout": {
				"storage": [
					{
						"astId": 10,
						"contract": "24TodoList.sol:TodoList",
						"label": "todoList",
						"offset": 0,
						"slot": "0",
						"type": "t_array(t_struct(ToDo)6_storage)dyn_storage"
					},
					{
						"astId": 15,
						"contract": "24TodoList.sol:TodoList",
						"label": "keyWords",
						"offset": 0,
						"slot": "1",
						"type": "t_mapping(t_string_memory_ptr,t_struct(ToDo)6_storage)"
					},
					{
						"astId": 19,
						"contract": "24TodoList.sol:TodoList",
						"label": "keyIsExited",
						"offset": 0,
						"slot": "2",
						"type": "t_mapping(t_string_memory_ptr,t_bool)"
					}
				],
				"types": {
					"t_array(t_struct(ToDo)6_storage)dyn_storage": {
						"base": "t_struct(ToDo)6_storage",
						"encoding": "dynamic_array",
						"label": "struct TodoList.ToDo[]",
						"numberOfBytes": "32"
					},
					"t_bool": {
						"encoding": "inplace",
						"label": "bool",
						"numberOfBytes": "1"
					},
					"t_mapping(t_string_memory_ptr,t_bool)": {
						"encoding": "mapping",
						"key": "t_string_memory_ptr",
						"label": "mapping(string => bool)",
						"numberOfBytes": "32",
						"value": "t_bool"
					},
					"t_mapping(t_string_memory_ptr,t_struct(ToDo)6_storage)": {
						"encoding": "mapping",
						"key": "t_string_memory_ptr",
						"label": "mapping(string => struct TodoList.ToDo)",
						"numberOfBytes": "32",
						"value": "t_struct(ToDo)6_storage"
					},
					"t_string_memory_ptr": {
						"encoding": "bytes",
						"label": "string",
						"numberOfBytes": "32"
					},
					"t_string_storage": {
						"encoding": "bytes",
						"label": "string",
						"numberOfBytes": "32"
					},
					"t_struct(ToDo)6_storage": {
						"encoding": "inplace",
						"label": "struct TodoList.ToDo",
						"members": [
							{
								"astId": 3,
								"contract": "24TodoList.sol:TodoList",
								"label": "text",
								"offset": 0,
								"slot": "0",
								"type": "t_string_storage"
							},
							{
								"astId": 5,
								"contract": "24TodoList.sol:TodoList",
								"label": "completed",
								"offset": 0,
								"slot": "1",
								"type": "t_bool"
							}
						],
						"numberOfBytes": "64"
					}
				}
			},
			"userdoc": {
				"kind": "user",
				"methods": {},
				"version": 1
			}
		}
	}
}