{
	"46JichengERC721.sol": {
		"JichengERC721": {
			"abi": [
				{
					"inputs": [
						{
							"internalType": "string",
							"name": "_name",
							"type": "string"
						},
						{
							"internalType": "string",
							"name": "_symbol",
							"type": "string"
						}
					],
					"stateMutability": "nonpayable",
					"type": "constructor"
				},
				{
					"inputs": [
						{
							"internalType": "address",
							"name": "receiver",
							"type": "address"
						}
					],
					"name": "ERC721InvalidReceiver",
					"type": "error"
				},
				{
					"anonymous": false,
					"inputs": [
						{
							"indexed": true,
							"internalType": "address",
							"name": "owner",
							"type": "address"
						},
						{
							"indexed": true,
							"internalType": "address",
							"name": "approved",
							"type": "address"
						},
						{
							"indexed": true,
							"internalType": "uint256",
							"name": "tokenId",
							"type": "uint256"
						}
					],
					"name": "Approval",
					"type": "event"
				},
				{
					"anonymous": false,
					"inputs": [
						{
							"indexed": true,
							"internalType": "address",
							"name": "owner",
							"type": "address"
						},
						{
							"indexed": true,
							"internalType": "address",
							"name": "operator",
							"type": "address"
						},
						{
							"indexed": false,
							"internalType": "bool",
							"name": "approved",
							"type": "bool"
						}
					],
					"name": "ApprovalForAll",
					"type": "event"
				},
				{
					"anonymous": false,
					"inputs": [
						{
							"indexed": true,
							"internalType": "address",
							"name": "from",
							"type": "address"
						},
						{
							"indexed": true,
							"internalType": "address",
							"name": "to",
							"type": "address"
						},
						{
							"indexed": true,
							"internalType": "uint256",
							"name": "tokenId",
							"type": "uint256"
						}
					],
					"name": "Transfer",
					"type": "event"
				},
				{
					"inputs": [
						{
							"internalType": "address",
							"name": "to",
							"type": "address"
						},
						{
							"internalType": "uint256",
							"name": "tokenId",
							"type": "uint256"
						}
					],
					"name": "approve",
					"outputs": [],
					"stateMutability": "nonpayable",
					"type": "function"
				},
				{
					"inputs": [
						{
							"internalType": "address",
							"name": "owner",
							"type": "address"
						}
					],
					"name": "balanceOf",
					"outputs": [
						{
							"internalType": "uint256",
							"name": "",
							"type": "uint256"
						}
					],
					"stateMutability": "view",
					"type": "function"
				},
				{
					"inputs": [
						{
							"internalType": "uint256",
							"name": "tokenId",
							"type": "uint256"
						}
					],
					"name": "getApproved",
					"outputs": [
						{
							"internalType": "address",
							"name": "",
							"type": "address"
						}
					],
					"stateMutability": "view",
					"type": "function"
				},
				{
					"inputs": [
						{
							"internalType": "address",
							"name": "from",
							"type": "address"
						},
						{
							"internalType": "address",
							"name": "to",
							"type": "address"
						},
						{
							"internalType": "uint256",
							"name": "tokenId",
							"type": "uint256"
						}
					],
					"name": "interfaceFun",
					"outputs": [],
					"stateMutability": "nonpayable",
					"type": "function"
				},
				{
					"inputs": [
						{
							"internalType": "address",
							"name": "owner",
							"type": "address"
						},
						{
							"internalType": "address",
							"name": "operator",
							"type": "address"
						}
					],
					"name": "isApprovedForAll",
					"outputs": [
						{
							"internalType": "bool",
							"name": "",
							"type": "bool"
						}
					],
					"stateMutability": "view",
					"type": "function"
				},
				{
					"inputs": [],
					"name": "name",
					"outputs": [
						{
							"internalType": "string",
							"name": "",
							"type": "string"
						}
					],
					"stateMutability": "view",
					"type": "function"
				},
				{
					"inputs": [
						{
							"internalType": "uint256",
							"name": "tokenId",
							"type": "uint256"
						}
					],
					"name": "ownerOf",
					"outputs": [
						{
							"internalType": "address",
							"name": "owner",
							"type": "address"
						}
					],
					"stateMutability": "view",
					"type": "function"
				},
				{
					"inputs": [
						{
							"internalType": "address",
							"name": "from",
							"type": "address"
						},
						{
							"internalType": "address",
							"name": "to",
							"type": "address"
						},
						{
							"internalType": "uint256",
							"name": "tokenId",
							"type": "uint256"
						}
					],
					"name": "safeTransferFrom",
					"outputs": [],
					"stateMutability": "nonpayable",
					"type": "function"
				},
				{
					"inputs": [
						{
							"internalType": "address",
							"name": "from",
							"type": "address"
						},
						{
							"internalType": "address",
							"name": "to",
							"type": "address"
						},
						{
							"internalType": "uint256",
							"name": "tokenId",
							"type": "uint256"
						},
						{
							"internalType": "bytes",
							"name": "_data",
							"type": "bytes"
						}
					],
					"name": "safeTransferFrom",
					"outputs": [],
					"stateMutability": "nonpayable",
					"type": "function"
				},
				{
					"inputs": [
						{
							"internalType": "address",
							"name": "operator",
							"type": "address"
						},
						{
							"internalType": "bool",
							"name": "approved",
							"type": "bool"
						}
					],
					"name": "setApprovalForAll",
					"outputs": [],
					"stateMutability": "nonpayable",
					"type": "function"
				},
				{
					"inputs": [
						{
							"internalType": "bytes4",
							"name": "interfaceId",
							"type": "bytes4"
						}
					],
					"name": "supportsInterface",
					"outputs": [
						{
							"internalType": "bool",
							"name": "",
							"type": "bool"
						}
					],
					"stateMutability": "pure",
					"type": "function"
				},
				{
					"inputs": [],
					"name": "symbol",
					"outputs": [
						{
							"internalType": "string",
							"name": "",
							"type": "string"
						}
					],
					"stateMutability": "view",
					"type": "function"
				},
				{
					"inputs": [
						{
							"internalType": "uint256",
							"name": "tokenId",
							"type": "uint256"
						}
					],
					"name": "tokenURI",
					"outputs": [
						{
							"internalType": "string",
							"name": "",
							"type": "string"
						}
					],
					"stateMutability": "view",
					"type": "function"
				},
				{
					"inputs": [
						{
							"internalType": "address",
							"name": "from",
							"type": "address"
						},
						{
							"internalType": "address",
							"name": "to",
							"type": "address"
						},
						{
							"internalType": "uint256",
							"name": "tokenId",
							"type": "uint256"
						}
					],
					"name": "transferFrom",
					"outputs": [],
					"stateMutability": "nonpayable",
					"type": "function"
				}
			],
			"devdoc": {
				"kind": "dev",
				"methods": {
					"supportsInterface(bytes4)": {
						"details": "如果合约实现了查询的`interfaceId`，则返回true 规则详见：https://eips.ethereum.org/EIPS/eip-165#how-interfaces-are-identified[EIP section]"
					}
				},
				"version": 1
			},
			"evm": {
				"assembly": "    /* \"46JichengERC721.sol\":81:365  contract JichengERC721 is ERC721{... */\n  mstore(0x40, 0x80)\n    /* \"46JichengERC721.sol\":154:238  constructor(string memory _name,string memory _symbol) ERC721(_name,_symbol){... */\n  callvalue\n  dup1\n  iszero\n  tag_1\n  jumpi\n  0x00\n  dup1\n  revert\ntag_1:\n  pop\n  mload(0x40)\n  sub(codesize, bytecodeSize)\n  dup1\n  bytecodeSize\n  dup4\n  codecopy\n  dup2\n  add\n  0x40\n  dup2\n  swap1\n  mstore\n  tag_2\n  swap2\n  tag_3\n  jump\t// in\ntag_2:\n    /* \"ERC721.sol\":1070:1082  name = name_ */\n  dup2\n  mload\n    /* \"46JichengERC721.sol\":216:221  _name */\n  dup3\n  swap1\n    /* \"46JichengERC721.sol\":222:229  _symbol */\n  dup3\n  swap1\n    /* \"ERC721.sol\":1070:1082  name = name_ */\n  tag_7\n  swap1\n    /* \"ERC721.sol\":1070:1074  name */\n  0x00\n  swap1\n    /* \"ERC721.sol\":1070:1082  name = name_ */\n  0x20\n  dup6\n  add\n  swap1\n  tag_8\n  jump\t// in\ntag_7:\n  pop\n    /* \"ERC721.sol\":1092:1108  symbol = symbol_ */\n  dup1\n  mload\n  tag_9\n  swap1\n    /* \"ERC721.sol\":1092:1098  symbol */\n  0x01\n  swap1\n    /* \"ERC721.sol\":1092:1108  symbol = symbol_ */\n  0x20\n  dup5\n  add\n  swap1\n  tag_8\n  jump\t// in\ntag_9:\n  pop\n    /* \"ERC721.sol\":1004:1115  constructor(string memory name_, string memory symbol_) {... */\n  pop\n  pop\n    /* \"46JichengERC721.sol\":154:238  constructor(string memory _name,string memory _symbol) ERC721(_name,_symbol){... */\n  pop\n  pop\n    /* \"46JichengERC721.sol\":81:365  contract JichengERC721 is ERC721{... */\n  jump(tag_23)\ntag_8:\n  dup3\n  dup1\n  sload\n  tag_12\n  swap1\n  tag_13\n  jump\t// in\ntag_12:\n  swap1\n  0x00\n  mstore\n  keccak256(0x00, 0x20)\n  swap1\n  0x1f\n  add\n  0x20\n  swap1\n  div\n  dup2\n  add\n  swap3\n  dup3\n  tag_15\n  jumpi\n  0x00\n  dup6\n  sstore\n  jump(tag_18)\ntag_15:\n  dup3\n  0x1f\n  lt\n  tag_16\n  jumpi\n  dup1\n  mload\n  not(0xff)\n  and\n  dup4\n  dup1\n  add\n  or\n  dup6\n  sstore\n  jump(tag_18)\ntag_16:\n  dup3\n  dup1\n  add\n  0x01\n  add\n  dup6\n  sstore\n  dup3\n  iszero\n  tag_18\n  jumpi\n  swap2\n  dup3\n  add\ntag_17:\n  dup3\n  dup2\n  gt\n  iszero\n  tag_18\n  jumpi\n  dup3\n  mload\n  dup3\n  sstore\n  swap2\n  0x20\n  add\n  swap2\n  swap1\n  0x01\n  add\n  swap1\n  jump(tag_17)\ntag_18:\n  pop\n  tag_19\n  swap3\n  swap2\n  pop\n  tag_20\n  jump\t// in\ntag_19:\n  pop\n  swap1\n  jump\t// out\ntag_20:\ntag_21:\n  dup1\n  dup3\n  gt\n  iszero\n  tag_19\n  jumpi\n  0x00\n  dup2\n  sstore\n  0x01\n  add\n  jump(tag_21)\n    /* \"#utility.yul\":14:899   */\ntag_24:\n    /* \"#utility.yul\":68:73   */\n  0x00\n    /* \"#utility.yul\":121:124   */\n  dup3\n    /* \"#utility.yul\":114:118   */\n  0x1f\n    /* \"#utility.yul\":106:112   */\n  dup4\n    /* \"#utility.yul\":102:119   */\n  add\n    /* \"#utility.yul\":98:125   */\n  slt\n    /* \"#utility.yul\":88:143   */\n  tag_26\n  jumpi\n    /* \"#utility.yul\":139:140   */\n  0x00\n    /* \"#utility.yul\":136:137   */\n  dup1\n    /* \"#utility.yul\":129:141   */\n  revert\n    /* \"#utility.yul\":88:143   */\ntag_26:\n    /* \"#utility.yul\":162:175   */\n  dup2\n  mload\n  sub(shl(0x40, 0x01), 0x01)\n    /* \"#utility.yul\":224:234   */\n  dup1\n  dup3\n  gt\n    /* \"#utility.yul\":221:257   */\n  iszero\n  tag_28\n  jumpi\n    /* \"#utility.yul\":237:255   */\n  tag_28\n  tag_29\n  jump\t// in\ntag_28:\n    /* \"#utility.yul\":312:314   */\n  0x40\n    /* \"#utility.yul\":306:315   */\n  mload\n    /* \"#utility.yul\":280:282   */\n  0x1f\n    /* \"#utility.yul\":366:379   */\n  dup4\n  add\n  not(0x1f)\n    /* \"#utility.yul\":362:384   */\n  swap1\n  dup2\n  and\n    /* \"#utility.yul\":386:388   */\n  0x3f\n    /* \"#utility.yul\":358:389   */\n  add\n    /* \"#utility.yul\":354:394   */\n  and\n    /* \"#utility.yul\":342:395   */\n  dup2\n  add\n  swap1\n    /* \"#utility.yul\":410:428   */\n  dup3\n  dup3\n  gt\n    /* \"#utility.yul\":430:452   */\n  dup2\n  dup4\n  lt\n    /* \"#utility.yul\":407:453   */\n  or\n    /* \"#utility.yul\":404:476   */\n  iszero\n  tag_31\n  jumpi\n    /* \"#utility.yul\":456:474   */\n  tag_31\n  tag_29\n  jump\t// in\ntag_31:\n    /* \"#utility.yul\":496:506   */\n  dup2\n    /* \"#utility.yul\":492:494   */\n  0x40\n    /* \"#utility.yul\":485:507   */\n  mstore\n    /* \"#utility.yul\":531:533   */\n  dup4\n    /* \"#utility.yul\":523:529   */\n  dup2\n    /* \"#utility.yul\":516:534   */\n  mstore\n    /* \"#utility.yul\":553:557   */\n  0x20\n    /* \"#utility.yul\":543:557   */\n  swap3\n  pop\n    /* \"#utility.yul\":598:601   */\n  dup7\n    /* \"#utility.yul\":593:595   */\n  dup4\n    /* \"#utility.yul\":588:590   */\n  dup6\n    /* \"#utility.yul\":580:586   */\n  dup9\n    /* \"#utility.yul\":576:591   */\n  add\n    /* \"#utility.yul\":572:596   */\n  add\n    /* \"#utility.yul\":569:602   */\n  gt\n    /* \"#utility.yul\":566:619   */\n  iszero\n  tag_32\n  jumpi\n    /* \"#utility.yul\":615:616   */\n  0x00\n    /* \"#utility.yul\":612:613   */\n  dup1\n    /* \"#utility.yul\":605:617   */\n  revert\n    /* \"#utility.yul\":566:619   */\ntag_32:\n    /* \"#utility.yul\":637:638   */\n  0x00\n    /* \"#utility.yul\":628:638   */\n  swap2\n  pop\n    /* \"#utility.yul\":647:780   */\ntag_33:\n    /* \"#utility.yul\":661:663   */\n  dup4\n    /* \"#utility.yul\":658:659   */\n  dup3\n    /* \"#utility.yul\":655:664   */\n  lt\n    /* \"#utility.yul\":647:780   */\n  iszero\n  tag_35\n  jumpi\n    /* \"#utility.yul\":749:763   */\n  dup6\n  dup3\n  add\n    /* \"#utility.yul\":745:768   */\n  dup4\n  add\n    /* \"#utility.yul\":739:769   */\n  mload\n    /* \"#utility.yul\":718:732   */\n  dup2\n  dup4\n  add\n    /* \"#utility.yul\":714:737   */\n  dup5\n  add\n    /* \"#utility.yul\":707:770   */\n  mstore\n    /* \"#utility.yul\":672:682   */\n  swap1\n  dup3\n  add\n  swap1\n    /* \"#utility.yul\":647:780   */\n  jump(tag_33)\ntag_35:\n    /* \"#utility.yul\":798:800   */\n  dup4\n    /* \"#utility.yul\":795:796   */\n  dup3\n    /* \"#utility.yul\":792:801   */\n  gt\n    /* \"#utility.yul\":789:869   */\n  iszero\n  tag_36\n  jumpi\n    /* \"#utility.yul\":857:858   */\n  0x00\n    /* \"#utility.yul\":852:854   */\n  dup4\n    /* \"#utility.yul\":847:849   */\n  dup6\n    /* \"#utility.yul\":839:845   */\n  dup4\n    /* \"#utility.yul\":835:850   */\n  add\n    /* \"#utility.yul\":831:855   */\n  add\n    /* \"#utility.yul\":824:859   */\n  mstore\n    /* \"#utility.yul\":789:869   */\ntag_36:\n    /* \"#utility.yul\":887:893   */\n  swap7\n    /* \"#utility.yul\":14:899   */\n  swap6\n  pop\n  pop\n  pop\n  pop\n  pop\n  pop\n  jump\t// out\n    /* \"#utility.yul\":904:1466   */\ntag_3:\n    /* \"#utility.yul\":1003:1009   */\n  0x00\n    /* \"#utility.yul\":1011:1017   */\n  dup1\n    /* \"#utility.yul\":1064:1066   */\n  0x40\n    /* \"#utility.yul\":1052:1061   */\n  dup4\n    /* \"#utility.yul\":1043:1050   */\n  dup6\n    /* \"#utility.yul\":1039:1062   */\n  sub\n    /* \"#utility.yul\":1035:1067   */\n  slt\n    /* \"#utility.yul\":1032:1084   */\n  iszero\n  tag_38\n  jumpi\n    /* \"#utility.yul\":1080:1081   */\n  0x00\n    /* \"#utility.yul\":1077:1078   */\n  dup1\n    /* \"#utility.yul\":1070:1082   */\n  revert\n    /* \"#utility.yul\":1032:1084   */\ntag_38:\n    /* \"#utility.yul\":1107:1123   */\n  dup3\n  mload\n  sub(shl(0x40, 0x01), 0x01)\n    /* \"#utility.yul\":1172:1186   */\n  dup1\n  dup3\n  gt\n    /* \"#utility.yul\":1169:1203   */\n  iszero\n  tag_39\n  jumpi\n    /* \"#utility.yul\":1199:1200   */\n  0x00\n    /* \"#utility.yul\":1196:1197   */\n  dup1\n    /* \"#utility.yul\":1189:1201   */\n  revert\n    /* \"#utility.yul\":1169:1203   */\ntag_39:\n    /* \"#utility.yul\":1222:1283   */\n  tag_40\n    /* \"#utility.yul\":1275:1282   */\n  dup7\n    /* \"#utility.yul\":1266:1272   */\n  dup4\n    /* \"#utility.yul\":1255:1264   */\n  dup8\n    /* \"#utility.yul\":1251:1273   */\n  add\n    /* \"#utility.yul\":1222:1283   */\n  tag_24\n  jump\t// in\ntag_40:\n    /* \"#utility.yul\":1212:1283   */\n  swap4\n  pop\n    /* \"#utility.yul\":1329:1331   */\n  0x20\n    /* \"#utility.yul\":1318:1327   */\n  dup6\n    /* \"#utility.yul\":1314:1332   */\n  add\n    /* \"#utility.yul\":1308:1333   */\n  mload\n    /* \"#utility.yul\":1292:1333   */\n  swap2\n  pop\n    /* \"#utility.yul\":1358:1360   */\n  dup1\n    /* \"#utility.yul\":1348:1356   */\n  dup3\n    /* \"#utility.yul\":1345:1361   */\n  gt\n    /* \"#utility.yul\":1342:1378   */\n  iszero\n  tag_41\n  jumpi\n    /* \"#utility.yul\":1374:1375   */\n  0x00\n    /* \"#utility.yul\":1371:1372   */\n  dup1\n    /* \"#utility.yul\":1364:1376   */\n  revert\n    /* \"#utility.yul\":1342:1378   */\ntag_41:\n  pop\n    /* \"#utility.yul\":1397:1460   */\n  tag_42\n    /* \"#utility.yul\":1452:1459   */\n  dup6\n    /* \"#utility.yul\":1441:1449   */\n  dup3\n    /* \"#utility.yul\":1430:1439   */\n  dup7\n    /* \"#utility.yul\":1426:1450   */\n  add\n    /* \"#utility.yul\":1397:1460   */\n  tag_24\n  jump\t// in\ntag_42:\n    /* \"#utility.yul\":1387:1460   */\n  swap2\n  pop\n  pop\n    /* \"#utility.yul\":904:1466   */\n  swap3\n  pop\n  swap3\n  swap1\n  pop\n  jump\t// out\n    /* \"#utility.yul\":1471:1851   */\ntag_13:\n    /* \"#utility.yul\":1550:1551   */\n  0x01\n    /* \"#utility.yul\":1546:1558   */\n  dup2\n  dup2\n  shr\n  swap1\n    /* \"#utility.yul\":1593:1605   */\n  dup3\n  and\n  dup1\n    /* \"#utility.yul\":1614:1675   */\n  tag_44\n  jumpi\n    /* \"#utility.yul\":1668:1672   */\n  0x7f\n    /* \"#utility.yul\":1660:1666   */\n  dup3\n    /* \"#utility.yul\":1656:1673   */\n  and\n    /* \"#utility.yul\":1646:1673   */\n  swap2\n  pop\n    /* \"#utility.yul\":1614:1675   */\ntag_44:\n    /* \"#utility.yul\":1721:1723   */\n  0x20\n    /* \"#utility.yul\":1713:1719   */\n  dup3\n    /* \"#utility.yul\":1710:1724   */\n  lt\n    /* \"#utility.yul\":1690:1708   */\n  dup2\n    /* \"#utility.yul\":1687:1725   */\n  eq\n    /* \"#utility.yul\":1684:1845   */\n  iszero\n  tag_45\n  jumpi\n    /* \"#utility.yul\":1767:1777   */\n  0x4e487b71\n    /* \"#utility.yul\":1762:1765   */\n  0xe0\n    /* \"#utility.yul\":1758:1778   */\n  shl\n    /* \"#utility.yul\":1755:1756   */\n  0x00\n    /* \"#utility.yul\":1748:1779   */\n  mstore\n    /* \"#utility.yul\":1802:1806   */\n  0x22\n    /* \"#utility.yul\":1799:1800   */\n  0x04\n    /* \"#utility.yul\":1792:1807   */\n  mstore\n    /* \"#utility.yul\":1830:1834   */\n  0x24\n    /* \"#utility.yul\":1827:1828   */\n  0x00\n    /* \"#utility.yul\":1820:1835   */\n  revert\n    /* \"#utility.yul\":1684:1845   */\ntag_45:\n  pop\n    /* \"#utility.yul\":1471:1851   */\n  swap2\n  swap1\n  pop\n  jump\t// out\n    /* \"#utility.yul\":1856:1983   */\ntag_29:\n    /* \"#utility.yul\":1917:1927   */\n  0x4e487b71\n    /* \"#utility.yul\":1912:1915   */\n  0xe0\n    /* \"#utility.yul\":1908:1928   */\n  shl\n    /* \"#utility.yul\":1905:1906   */\n  0x00\n    /* \"#utility.yul\":1898:1929   */\n  mstore\n    /* \"#utility.yul\":1948:1952   */\n  0x41\n    /* \"#utility.yul\":1945:1946   */\n  0x04\n    /* \"#utility.yul\":1938:1953   */\n  mstore\n    /* \"#utility.yul\":1972:1976   */\n  0x24\n    /* \"#utility.yul\":1969:1970   */\n  0x00\n    /* \"#utility.yul\":1962:1977   */\n  revert\n    /* \"#utility.yul\":1856:1983   */\ntag_23:\n    /* \"46JichengERC721.sol\":81:365  contract JichengERC721 is ERC721{... */\n  dataSize(sub_0)\n  dup1\n  dataOffset(sub_0)\n  0x00\n  codecopy\n  0x00\n  return\nstop\n\nsub_0: assembly {\n        /* \"46JichengERC721.sol\":81:365  contract JichengERC721 is ERC721{... */\n      mstore(0x40, 0x80)\n      callvalue\n      dup1\n      iszero\n      tag_1\n      jumpi\n      0x00\n      dup1\n      revert\n    tag_1:\n      pop\n      jumpi(tag_2, lt(calldatasize, 0x04))\n      shr(0xe0, calldataload(0x00))\n      dup1\n      0x70a08231\n      gt\n      tag_17\n      jumpi\n      dup1\n      0xa22cb465\n      gt\n      tag_18\n      jumpi\n      dup1\n      0xa22cb465\n      eq\n      tag_13\n      jumpi\n      dup1\n      0xb88d4fde\n      eq\n      tag_14\n      jumpi\n      dup1\n      0xc87b56dd\n      eq\n      tag_15\n      jumpi\n      dup1\n      0xe985e9c5\n      eq\n      tag_16\n      jumpi\n      0x00\n      dup1\n      revert\n    tag_18:\n      dup1\n      0x70a08231\n      eq\n      tag_10\n      jumpi\n      dup1\n      0x95d89b41\n      eq\n      tag_11\n      jumpi\n      dup1\n      0x9fc2ee4b\n      eq\n      tag_12\n      jumpi\n      0x00\n      dup1\n      revert\n    tag_17:\n      dup1\n      0x095ea7b3\n      gt\n      tag_19\n      jumpi\n      dup1\n      0x095ea7b3\n      eq\n      tag_6\n      jumpi\n      dup1\n      0x23b872dd\n      eq\n      tag_7\n      jumpi\n      dup1\n      0x42842e0e\n      eq\n      tag_8\n      jumpi\n      dup1\n      0x6352211e\n      eq\n      tag_9\n      jumpi\n      0x00\n      dup1\n      revert\n    tag_19:\n      dup1\n      0x01ffc9a7\n      eq\n      tag_3\n      jumpi\n      dup1\n      0x06fdde03\n      eq\n      tag_4\n      jumpi\n      dup1\n      0x081812fc\n      eq\n      tag_5\n      jumpi\n    tag_2:\n      0x00\n      dup1\n      revert\n        /* \"ERC721.sol\":1165:1482  function supportsInterface(bytes4 interfaceId)... */\n    tag_3:\n      tag_20\n      tag_21\n      calldatasize\n      0x04\n      tag_22\n      jump\t// in\n    tag_21:\n      tag_23\n      jump\t// in\n    tag_20:\n      mload(0x40)\n        /* \"#utility.yul\":5617:5631   */\n      swap1\n      iszero\n        /* \"#utility.yul\":5610:5632   */\n      iszero\n        /* \"#utility.yul\":5592:5633   */\n      dup2\n      mstore\n        /* \"#utility.yul\":5580:5582   */\n      0x20\n        /* \"#utility.yul\":5565:5583   */\n      add\n        /* \"ERC721.sol\":1165:1482  function supportsInterface(bytes4 interfaceId)... */\n    tag_24:\n      mload(0x40)\n      dup1\n      swap2\n      sub\n      swap1\n      return\n        /* \"ERC721.sol\":325:352  string public override name */\n    tag_4:\n      tag_26\n      tag_27\n      jump\t// in\n    tag_26:\n      mload(0x40)\n      tag_24\n      swap2\n      swap1\n      tag_29\n      jump\t// in\n        /* \"ERC721.sol\":2790:2986  function getApproved(uint tokenId) external view override returns (address) {... */\n    tag_5:\n      tag_30\n      tag_31\n      calldatasize\n      0x04\n      tag_32\n      jump\t// in\n    tag_31:\n      tag_33\n      jump\t// in\n    tag_30:\n      mload(0x40)\n        /* \"#utility.yul\":4478:4520   */\n      0xffffffffffffffffffffffffffffffffffffffff\n        /* \"#utility.yul\":4466:4521   */\n      swap1\n      swap2\n      and\n        /* \"#utility.yul\":4448:4522   */\n      dup2\n      mstore\n        /* \"#utility.yul\":4436:4438   */\n      0x20\n        /* \"#utility.yul\":4421:4439   */\n      add\n        /* \"ERC721.sol\":2790:2986  function getApproved(uint tokenId) external view override returns (address) {... */\n      tag_24\n        /* \"#utility.yul\":4302:4528   */\n      jump\n        /* \"ERC721.sol\":3460:3755  function approve(address to, uint tokenId) external override {... */\n    tag_6:\n      tag_36\n      tag_37\n      calldatasize\n      0x04\n      tag_38\n      jump\t// in\n    tag_37:\n      tag_39\n      jump\t// in\n    tag_36:\n      stop\n        /* \"ERC721.sol\":4873:5202  function transferFrom(... */\n    tag_7:\n      tag_36\n      tag_41\n      calldatasize\n      0x04\n      tag_42\n      jump\t// in\n    tag_41:\n      tag_43\n      jump\t// in\n        /* \"ERC721.sol\":6436:6606  function safeTransferFrom(... */\n    tag_8:\n      tag_36\n      tag_45\n      calldatasize\n      0x04\n      tag_42\n      jump\t// in\n    tag_45:\n      tag_46\n      jump\t// in\n        /* \"ERC721.sol\":1832:2010  function ownerOf(uint tokenId) public view override returns (address owner) {... */\n    tag_9:\n      tag_30\n      tag_48\n      calldatasize\n      0x04\n      tag_32\n      jump\t// in\n    tag_48:\n      tag_49\n      jump\t// in\n        /* \"ERC721.sol\":1575:1749  function balanceOf(address owner) external view override returns (uint) {... */\n    tag_10:\n      tag_51\n      tag_52\n      calldatasize\n      0x04\n      tag_53\n      jump\t// in\n    tag_52:\n      tag_54\n      jump\t// in\n    tag_51:\n      mload(0x40)\n        /* \"#utility.yul\":8459:8484   */\n      swap1\n      dup2\n      mstore\n        /* \"#utility.yul\":8447:8449   */\n      0x20\n        /* \"#utility.yul\":8432:8450   */\n      add\n        /* \"ERC721.sol\":1575:1749  function balanceOf(address owner) external view override returns (uint) {... */\n      tag_24\n        /* \"#utility.yul\":8313:8490   */\n      jump\n        /* \"ERC721.sol\":377:406  string public override symbol */\n    tag_11:\n      tag_26\n      tag_58\n      jump\t// in\n        /* \"46JichengERC721.sol\":244:363  function interfaceFun(address from,address to,uint256 tokenId)public{... */\n    tag_12:\n      tag_36\n      tag_61\n      calldatasize\n      0x04\n      tag_42\n      jump\t// in\n    tag_61:\n      tag_62\n      jump\t// in\n        /* \"ERC721.sol\":2481:2688  function setApprovalForAll(address operator, bool approved) external override {... */\n    tag_13:\n      tag_36\n      tag_64\n      calldatasize\n      0x04\n      tag_65\n      jump\t// in\n    tag_64:\n      tag_66\n      jump\t// in\n        /* \"ERC721.sol\":6024:6394  function safeTransferFrom(... */\n    tag_14:\n      tag_36\n      tag_68\n      calldatasize\n      0x04\n      tag_69\n      jump\t// in\n    tag_68:\n      tag_70\n      jump\t// in\n        /* \"ERC721.sol\":8843:9154  function tokenURI(uint256 tokenId) public view virtual override returns (string memory) {... */\n    tag_15:\n      tag_26\n      tag_72\n      calldatasize\n      0x04\n      tag_32\n      jump\t// in\n    tag_72:\n      tag_73\n      jump\t// in\n        /* \"ERC721.sol\":2159:2351  function isApprovedForAll(address owner, address operator)... */\n    tag_16:\n      tag_20\n      tag_76\n      calldatasize\n      0x04\n      tag_77\n      jump\t// in\n    tag_76:\n        /* \"ERC721.sol\":2309:2334  _operatorApprovals[owner] */\n      0xffffffffffffffffffffffffffffffffffffffff\n      swap2\n      dup3\n      and\n        /* \"ERC721.sol\":2282:2286  bool */\n      0x00\n        /* \"ERC721.sol\":2309:2334  _operatorApprovals[owner] */\n      swap1\n      dup2\n      mstore\n        /* \"ERC721.sol\":2309:2327  _operatorApprovals */\n      0x05\n        /* \"ERC721.sol\":2309:2334  _operatorApprovals[owner] */\n      0x20\n      swap1\n      dup2\n      mstore\n      0x40\n      dup1\n      dup4\n      keccak256\n        /* \"ERC721.sol\":2309:2344  _operatorApprovals[owner][operator] */\n      swap4\n      swap1\n      swap5\n      and\n      dup3\n      mstore\n      swap2\n      swap1\n      swap2\n      mstore\n      keccak256\n      sload\n      0xff\n      and\n      swap1\n        /* \"ERC721.sol\":2159:2351  function isApprovedForAll(address owner, address operator)... */\n      jump\n        /* \"ERC721.sol\":1165:1482  function supportsInterface(bytes4 interfaceId)... */\n    tag_23:\n        /* \"ERC721.sol\":1276:1280  bool */\n      0x00\n        /* \"ERC721.sol\":1315:1355  interfaceId == type(IERC721).interfaceId */\n      0xffffffff00000000000000000000000000000000000000000000000000000000\n      dup3\n      and\n        /* \"ERC721.sol\":1330:1355  type(IERC721).interfaceId */\n      0x80ac58cd00000000000000000000000000000000000000000000000000000000\n        /* \"ERC721.sol\":1315:1355  interfaceId == type(IERC721).interfaceId */\n      eq\n      dup1\n        /* \"ERC721.sol\":1315:1411  interfaceId == type(IERC721).interfaceId ||... */\n      tag_81\n      jumpi\n      pop\n        /* \"ERC721.sol\":1371:1411  interfaceId == type(IERC165).interfaceId */\n      0xffffffff00000000000000000000000000000000000000000000000000000000\n      dup3\n      and\n        /* \"ERC721.sol\":1386:1411  type(IERC165).interfaceId */\n      0x01ffc9a700000000000000000000000000000000000000000000000000000000\n        /* \"ERC721.sol\":1371:1411  interfaceId == type(IERC165).interfaceId */\n      eq\n        /* \"ERC721.sol\":1315:1411  interfaceId == type(IERC721).interfaceId ||... */\n    tag_81:\n        /* \"ERC721.sol\":1315:1475  interfaceId == type(IERC721).interfaceId ||... */\n      dup1\n      tag_82\n      jumpi\n      pop\n        /* \"ERC721.sol\":1427:1475  interfaceId == type(IERC721Metadata).interfaceId */\n      0xffffffff00000000000000000000000000000000000000000000000000000000\n      dup3\n      and\n        /* \"ERC721.sol\":1442:1475  type(IERC721Metadata).interfaceId */\n      0x5b5e139f00000000000000000000000000000000000000000000000000000000\n        /* \"ERC721.sol\":1427:1475  interfaceId == type(IERC721Metadata).interfaceId */\n      eq\n        /* \"ERC721.sol\":1315:1475  interfaceId == type(IERC721).interfaceId ||... */\n    tag_82:\n        /* \"ERC721.sol\":1296:1475  return... */\n      swap3\n        /* \"ERC721.sol\":1165:1482  function supportsInterface(bytes4 interfaceId)... */\n      swap2\n      pop\n      pop\n      jump\t// out\n        /* \"ERC721.sol\":325:352  string public override name */\n    tag_27:\n      0x00\n      dup1\n      sload\n      tag_83\n      swap1\n      tag_84\n      jump\t// in\n    tag_83:\n      dup1\n      0x1f\n      add\n      0x20\n      dup1\n      swap2\n      div\n      mul\n      0x20\n      add\n      mload(0x40)\n      swap1\n      dup2\n      add\n      0x40\n      mstore\n      dup1\n      swap3\n      swap2\n      swap1\n      dup2\n      dup2\n      mstore\n      0x20\n      add\n      dup3\n      dup1\n      sload\n      tag_85\n      swap1\n      tag_84\n      jump\t// in\n    tag_85:\n      dup1\n      iszero\n      tag_86\n      jumpi\n      dup1\n      0x1f\n      lt\n      tag_87\n      jumpi\n      0x0100\n      dup1\n      dup4\n      sload\n      div\n      mul\n      dup4\n      mstore\n      swap2\n      0x20\n      add\n      swap2\n      jump(tag_86)\n    tag_87:\n      dup3\n      add\n      swap2\n      swap1\n      0x00\n      mstore\n      keccak256(0x00, 0x20)\n      swap1\n    tag_88:\n      dup2\n      sload\n      dup2\n      mstore\n      swap1\n      0x01\n      add\n      swap1\n      0x20\n      add\n      dup1\n      dup4\n      gt\n      tag_88\n      jumpi\n      dup3\n      swap1\n      sub\n      0x1f\n      and\n      dup3\n      add\n      swap2\n    tag_86:\n      pop\n      pop\n      pop\n      pop\n      pop\n      dup2\n      jump\t// out\n        /* \"ERC721.sol\":2790:2986  function getApproved(uint tokenId) external view override returns (address) {... */\n    tag_33:\n        /* \"ERC721.sol\":2857:2864  address */\n      0x00\n        /* \"ERC721.sol\":2884:2900  _owners[tokenId] */\n      dup2\n      dup2\n      mstore\n        /* \"ERC721.sol\":2884:2891  _owners */\n      0x02\n        /* \"ERC721.sol\":2884:2900  _owners[tokenId] */\n      0x20\n      mstore\n      0x40\n      dup2\n      keccak256\n      sload\n        /* \"ERC721.sol\":2884:2914  _owners[tokenId] != address(0) */\n      0xffffffffffffffffffffffffffffffffffffffff\n        /* \"ERC721.sol\":2884:2900  _owners[tokenId] */\n      and\n        /* \"ERC721.sol\":2876:2938  require(_owners[tokenId] != address(0), \"token doesn't exist\") */\n      tag_90\n      jumpi\n      mload(0x40)\n      0x08c379a000000000000000000000000000000000000000000000000000000000\n      dup2\n      mstore\n        /* \"#utility.yul\":7137:7139   */\n      0x20\n        /* \"ERC721.sol\":2876:2938  require(_owners[tokenId] != address(0), \"token doesn't exist\") */\n      0x04\n      dup3\n      add\n        /* \"#utility.yul\":7119:7140   */\n      mstore\n        /* \"#utility.yul\":7176:7178   */\n      0x13\n        /* \"#utility.yul\":7156:7174   */\n      0x24\n      dup3\n      add\n        /* \"#utility.yul\":7149:7179   */\n      mstore\n        /* \"#utility.yul\":7215:7236   */\n      0x746f6b656e20646f65736e277420657869737400000000000000000000000000\n        /* \"#utility.yul\":7195:7213   */\n      0x44\n      dup3\n      add\n        /* \"#utility.yul\":7188:7237   */\n      mstore\n        /* \"#utility.yul\":7254:7272   */\n      0x64\n      add\n        /* \"ERC721.sol\":2876:2938  require(_owners[tokenId] != address(0), \"token doesn't exist\") */\n    tag_91:\n      mload(0x40)\n      dup1\n      swap2\n      sub\n      swap1\n      revert\n    tag_90:\n      pop\n        /* \"ERC721.sol\":2955:2979  _tokenApprovals[tokenId] */\n      0x00\n      swap1\n      dup2\n      mstore\n        /* \"ERC721.sol\":2955:2970  _tokenApprovals */\n      0x04\n        /* \"ERC721.sol\":2955:2979  _tokenApprovals[tokenId] */\n      0x20\n      mstore\n      0x40\n      swap1\n      keccak256\n      sload\n      0xffffffffffffffffffffffffffffffffffffffff\n      and\n      swap1\n        /* \"ERC721.sol\":2790:2986  function getApproved(uint tokenId) external view override returns (address) {... */\n      jump\t// out\n        /* \"ERC721.sol\":3460:3755  function approve(address to, uint tokenId) external override {... */\n    tag_39:\n        /* \"ERC721.sol\":3531:3544  address owner */\n      0x00\n        /* \"ERC721.sol\":3547:3563  _owners[tokenId] */\n      dup2\n      dup2\n      mstore\n        /* \"ERC721.sol\":3547:3554  _owners */\n      0x02\n        /* \"ERC721.sol\":3547:3563  _owners[tokenId] */\n      0x20\n      mstore\n      0x40\n      swap1\n      keccak256\n      sload\n      0xffffffffffffffffffffffffffffffffffffffff\n      and\n        /* \"ERC721.sol\":3594:3604  msg.sender */\n      caller\n        /* \"ERC721.sol\":3594:3613  msg.sender == owner */\n      dup2\n      eq\n      dup1\n        /* \"ERC721.sol\":3594:3654  msg.sender == owner || _operatorApprovals[owner][msg.sender] */\n      tag_94\n      jumpi\n      pop\n        /* \"ERC721.sol\":3617:3642  _operatorApprovals[owner] */\n      0xffffffffffffffffffffffffffffffffffffffff\n      dup2\n      and\n      0x00\n      swap1\n      dup2\n      mstore\n        /* \"ERC721.sol\":3617:3635  _operatorApprovals */\n      0x05\n        /* \"ERC721.sol\":3617:3642  _operatorApprovals[owner] */\n      0x20\n      swap1\n      dup2\n      mstore\n      0x40\n      dup1\n      dup4\n      keccak256\n        /* \"ERC721.sol\":3643:3653  msg.sender */\n      caller\n        /* \"ERC721.sol\":3617:3654  _operatorApprovals[owner][msg.sender] */\n      dup5\n      mstore\n      swap1\n      swap2\n      mstore\n      swap1\n      keccak256\n      sload\n      0xff\n      and\n        /* \"ERC721.sol\":3594:3654  msg.sender == owner || _operatorApprovals[owner][msg.sender] */\n    tag_94:\n        /* \"ERC721.sol\":3573:3710  require(... */\n      tag_95\n      jumpi\n      mload(0x40)\n      0x08c379a000000000000000000000000000000000000000000000000000000000\n      dup2\n      mstore\n        /* \"#utility.yul\":6778:6780   */\n      0x20\n        /* \"ERC721.sol\":3573:3710  require(... */\n      0x04\n      dup3\n      add\n        /* \"#utility.yul\":6760:6781   */\n      mstore\n        /* \"#utility.yul\":6817:6819   */\n      0x1e\n        /* \"#utility.yul\":6797:6815   */\n      0x24\n      dup3\n      add\n        /* \"#utility.yul\":6790:6820   */\n      mstore\n        /* \"#utility.yul\":6856:6888   */\n      0x6e6f74206f776e6572206e6f7220617070726f76656420666f7220616c6c0000\n        /* \"#utility.yul\":6836:6854   */\n      0x44\n      dup3\n      add\n        /* \"#utility.yul\":6829:6889   */\n      mstore\n        /* \"#utility.yul\":6906:6924   */\n      0x64\n      add\n        /* \"ERC721.sol\":3573:3710  require(... */\n      tag_91\n        /* \"#utility.yul\":6576:6930   */\n      jump\n        /* \"ERC721.sol\":3573:3710  require(... */\n    tag_95:\n        /* \"ERC721.sol\":3720:3748  _approve(owner, to, tokenId) */\n      tag_98\n        /* \"ERC721.sol\":3729:3734  owner */\n      dup2\n        /* \"ERC721.sol\":3736:3738  to */\n      dup5\n        /* \"ERC721.sol\":3740:3747  tokenId */\n      dup5\n        /* \"ERC721.sol\":3720:3728  _approve */\n      tag_99\n        /* \"ERC721.sol\":3720:3748  _approve(owner, to, tokenId) */\n      jump\t// in\n    tag_98:\n        /* \"ERC721.sol\":3521:3755  {... */\n      pop\n        /* \"ERC721.sol\":3460:3755  function approve(address to, uint tokenId) external override {... */\n      pop\n      pop\n      jump\t// out\n        /* \"ERC721.sol\":4873:5202  function transferFrom(... */\n    tag_43:\n        /* \"ERC721.sol\":4993:5006  address owner */\n      0x00\n        /* \"ERC721.sol\":5009:5025  ownerOf(tokenId) */\n      tag_101\n        /* \"ERC721.sol\":5017:5024  tokenId */\n      dup3\n        /* \"ERC721.sol\":5009:5016  ownerOf */\n      tag_49\n        /* \"ERC721.sol\":5009:5025  ownerOf(tokenId) */\n      jump\t// in\n    tag_101:\n        /* \"ERC721.sol\":4993:5025  address owner = ownerOf(tokenId) */\n      swap1\n      pop\n        /* \"ERC721.sol\":5056:5102  _isApprovedOrOwner(owner, msg.sender, tokenId) */\n      tag_102\n        /* \"ERC721.sol\":5075:5080  owner */\n      dup2\n        /* \"ERC721.sol\":5082:5092  msg.sender */\n      caller\n        /* \"ERC721.sol\":5094:5101  tokenId */\n      dup5\n        /* \"ERC721.sol\":5056:5074  _isApprovedOrOwner */\n      tag_103\n        /* \"ERC721.sol\":5056:5102  _isApprovedOrOwner(owner, msg.sender, tokenId) */\n      jump\t// in\n    tag_102:\n        /* \"ERC721.sol\":5035:5150  require(... */\n      tag_104\n      jumpi\n      mload(0x40)\n      0x08c379a000000000000000000000000000000000000000000000000000000000\n      dup2\n      mstore\n        /* \"#utility.yul\":6070:6072   */\n      0x20\n        /* \"ERC721.sol\":5035:5150  require(... */\n      0x04\n      dup3\n      add\n        /* \"#utility.yul\":6052:6073   */\n      mstore\n        /* \"#utility.yul\":6109:6111   */\n      0x16\n        /* \"#utility.yul\":6089:6107   */\n      0x24\n      dup3\n      add\n        /* \"#utility.yul\":6082:6112   */\n      mstore\n        /* \"#utility.yul\":6148:6172   */\n      0x6e6f74206f776e6572206e6f7220617070726f76656400000000000000000000\n        /* \"#utility.yul\":6128:6146   */\n      0x44\n      dup3\n      add\n        /* \"#utility.yul\":6121:6173   */\n      mstore\n        /* \"#utility.yul\":6190:6208   */\n      0x64\n      add\n        /* \"ERC721.sol\":5035:5150  require(... */\n      tag_91\n        /* \"#utility.yul\":5868:6214   */\n      jump\n        /* \"ERC721.sol\":5035:5150  require(... */\n    tag_104:\n        /* \"ERC721.sol\":5160:5195  _transfer(owner, from, to, tokenId) */\n      tag_107\n        /* \"ERC721.sol\":5170:5175  owner */\n      dup2\n        /* \"ERC721.sol\":5177:5181  from */\n      dup6\n        /* \"ERC721.sol\":5183:5185  to */\n      dup6\n        /* \"ERC721.sol\":5187:5194  tokenId */\n      dup6\n        /* \"ERC721.sol\":5160:5169  _transfer */\n      tag_108\n        /* \"ERC721.sol\":5160:5195  _transfer(owner, from, to, tokenId) */\n      jump\t// in\n    tag_107:\n        /* \"ERC721.sol\":4983:5202  {... */\n      pop\n        /* \"ERC721.sol\":4873:5202  function transferFrom(... */\n      pop\n      pop\n      pop\n      jump\t// out\n        /* \"ERC721.sol\":6436:6606  function safeTransferFrom(... */\n    tag_46:\n        /* \"ERC721.sol\":6560:6599  safeTransferFrom(from, to, tokenId, \"\") */\n      tag_98\n        /* \"ERC721.sol\":6577:6581  from */\n      dup4\n        /* \"ERC721.sol\":6583:6585  to */\n      dup4\n        /* \"ERC721.sol\":6587:6594  tokenId */\n      dup4\n        /* \"ERC721.sol\":6560:6599  safeTransferFrom(from, to, tokenId, \"\") */\n      mload(0x40)\n      dup1\n      0x20\n      add\n      0x40\n      mstore\n      dup1\n      0x00\n      dup2\n      mstore\n      pop\n        /* \"ERC721.sol\":6560:6576  safeTransferFrom */\n      tag_70\n        /* \"ERC721.sol\":6560:6599  safeTransferFrom(from, to, tokenId, \"\") */\n      jump\t// in\n        /* \"ERC721.sol\":1832:2010  function ownerOf(uint tokenId) public view override returns (address owner) {... */\n    tag_49:\n        /* \"ERC721.sol\":1893:1906  address owner */\n      0x00\n        /* \"ERC721.sol\":1926:1942  _owners[tokenId] */\n      dup2\n      dup2\n      mstore\n        /* \"ERC721.sol\":1926:1933  _owners */\n      0x02\n        /* \"ERC721.sol\":1926:1942  _owners[tokenId] */\n      0x20\n      mstore\n      0x40\n      swap1\n      keccak256\n      sload\n      0xffffffffffffffffffffffffffffffffffffffff\n      and\n        /* \"ERC721.sol\":1960:1979  owner != address(0) */\n      dup1\n        /* \"ERC721.sol\":1952:2003  require(owner != address(0), \"token doesn't exist\") */\n      tag_112\n      jumpi\n      mload(0x40)\n      0x08c379a000000000000000000000000000000000000000000000000000000000\n      dup2\n      mstore\n        /* \"#utility.yul\":7137:7139   */\n      0x20\n        /* \"ERC721.sol\":1952:2003  require(owner != address(0), \"token doesn't exist\") */\n      0x04\n      dup3\n      add\n        /* \"#utility.yul\":7119:7140   */\n      mstore\n        /* \"#utility.yul\":7176:7178   */\n      0x13\n        /* \"#utility.yul\":7156:7174   */\n      0x24\n      dup3\n      add\n        /* \"#utility.yul\":7149:7179   */\n      mstore\n        /* \"#utility.yul\":7215:7236   */\n      0x746f6b656e20646f65736e277420657869737400000000000000000000000000\n        /* \"#utility.yul\":7195:7213   */\n      0x44\n      dup3\n      add\n        /* \"#utility.yul\":7188:7237   */\n      mstore\n        /* \"#utility.yul\":7254:7272   */\n      0x64\n      add\n        /* \"ERC721.sol\":1952:2003  require(owner != address(0), \"token doesn't exist\") */\n      tag_91\n        /* \"#utility.yul\":6935:7278   */\n      jump\n        /* \"ERC721.sol\":1952:2003  require(owner != address(0), \"token doesn't exist\") */\n    tag_112:\n        /* \"ERC721.sol\":1832:2010  function ownerOf(uint tokenId) public view override returns (address owner) {... */\n      swap2\n      swap1\n      pop\n      jump\t// out\n        /* \"ERC721.sol\":1575:1749  function balanceOf(address owner) external view override returns (uint) {... */\n    tag_54:\n        /* \"ERC721.sol\":1641:1645  uint */\n      0x00\n        /* \"ERC721.sol\":1665:1684  owner != address(0) */\n      0xffffffffffffffffffffffffffffffffffffffff\n      dup3\n      and\n        /* \"ERC721.sol\":1657:1709  require(owner != address(0), \"owner = zero address\") */\n      tag_115\n      jumpi\n      mload(0x40)\n      0x08c379a000000000000000000000000000000000000000000000000000000000\n      dup2\n      mstore\n        /* \"#utility.yul\":7485:7487   */\n      0x20\n        /* \"ERC721.sol\":1657:1709  require(owner != address(0), \"owner = zero address\") */\n      0x04\n      dup3\n      add\n        /* \"#utility.yul\":7467:7488   */\n      mstore\n        /* \"#utility.yul\":7524:7526   */\n      0x14\n        /* \"#utility.yul\":7504:7522   */\n      0x24\n      dup3\n      add\n        /* \"#utility.yul\":7497:7527   */\n      mstore\n        /* \"#utility.yul\":7563:7585   */\n      0x6f776e6572203d207a65726f2061646472657373000000000000000000000000\n        /* \"#utility.yul\":7543:7561   */\n      0x44\n      dup3\n      add\n        /* \"#utility.yul\":7536:7586   */\n      mstore\n        /* \"#utility.yul\":7603:7621   */\n      0x64\n      add\n        /* \"ERC721.sol\":1657:1709  require(owner != address(0), \"owner = zero address\") */\n      tag_91\n        /* \"#utility.yul\":7283:7627   */\n      jump\n        /* \"ERC721.sol\":1657:1709  require(owner != address(0), \"owner = zero address\") */\n    tag_115:\n      pop\n        /* \"ERC721.sol\":1726:1742  _balances[owner] */\n      0xffffffffffffffffffffffffffffffffffffffff\n      and\n      0x00\n      swap1\n      dup2\n      mstore\n        /* \"ERC721.sol\":1726:1735  _balances */\n      0x03\n        /* \"ERC721.sol\":1726:1742  _balances[owner] */\n      0x20\n      mstore\n      0x40\n      swap1\n      keccak256\n      sload\n      swap1\n        /* \"ERC721.sol\":1575:1749  function balanceOf(address owner) external view override returns (uint) {... */\n      jump\t// out\n        /* \"ERC721.sol\":377:406  string public override symbol */\n    tag_58:\n      0x01\n      dup1\n      sload\n      tag_83\n      swap1\n      tag_84\n      jump\t// in\n        /* \"46JichengERC721.sol\":244:363  function interfaceFun(address from,address to,uint256 tokenId)public{... */\n    tag_62:\n        /* \"46JichengERC721.sol\":322:356  this.transferFrom(from,to,tokenId) */\n      mload(0x40)\n      0x23b872dd00000000000000000000000000000000000000000000000000000000\n      dup2\n      mstore\n        /* \"#utility.yul\":4745:4787   */\n      0xffffffffffffffffffffffffffffffffffffffff\n        /* \"#utility.yul\":4814:4829   */\n      dup1\n      dup6\n      and\n        /* \"46JichengERC721.sol\":322:356  this.transferFrom(from,to,tokenId) */\n      0x04\n      dup4\n      add\n        /* \"#utility.yul\":4796:4830   */\n      mstore\n        /* \"#utility.yul\":4866:4881   */\n      dup4\n      and\n        /* \"#utility.yul\":4846:4864   */\n      0x24\n      dup3\n      add\n        /* \"#utility.yul\":4839:4882   */\n      mstore\n        /* \"#utility.yul\":4898:4916   */\n      0x44\n      dup2\n      add\n        /* \"#utility.yul\":4891:4925   */\n      dup3\n      swap1\n      mstore\n        /* \"46JichengERC721.sol\":322:326  this */\n      address\n      swap1\n        /* \"46JichengERC721.sol\":322:339  this.transferFrom */\n      0x23b872dd\n      swap1\n        /* \"#utility.yul\":4708:4726   */\n      0x64\n      add\n        /* \"46JichengERC721.sol\":322:356  this.transferFrom(from,to,tokenId) */\n      0x00\n      mload(0x40)\n      dup1\n      dup4\n      sub\n      dup2\n      0x00\n      dup8\n      dup1\n      extcodesize\n      iszero\n      dup1\n      iszero\n      tag_126\n      jumpi\n      0x00\n      dup1\n      revert\n    tag_126:\n      pop\n      gas\n      call\n      iszero\n      dup1\n      iszero\n      tag_128\n      jumpi\n      returndatasize\n      0x00\n      dup1\n      returndatacopy\n      revert(0x00, returndatasize)\n    tag_128:\n      pop\n      pop\n      pop\n      pop\n        /* \"46JichengERC721.sol\":244:363  function interfaceFun(address from,address to,uint256 tokenId)public{... */\n      pop\n      pop\n      pop\n      jump\t// out\n        /* \"ERC721.sol\":2481:2688  function setApprovalForAll(address operator, bool approved) external override {... */\n    tag_66:\n        /* \"ERC721.sol\":2588:2598  msg.sender */\n      caller\n        /* \"ERC721.sol\":2569:2599  _operatorApprovals[msg.sender] */\n      0x00\n      dup2\n      dup2\n      mstore\n        /* \"ERC721.sol\":2569:2587  _operatorApprovals */\n      0x05\n        /* \"ERC721.sol\":2569:2599  _operatorApprovals[msg.sender] */\n      0x20\n      swap1\n      dup2\n      mstore\n      0x40\n      dup1\n      dup4\n      keccak256\n      0xffffffffffffffffffffffffffffffffffffffff\n        /* \"ERC721.sol\":2569:2609  _operatorApprovals[msg.sender][operator] */\n      dup8\n      and\n      dup1\n      dup6\n      mstore\n      swap1\n      dup4\n      mstore\n      swap3\n      dup2\n      swap1\n      keccak256\n        /* \"ERC721.sol\":2569:2620  _operatorApprovals[msg.sender][operator] = approved */\n      dup1\n      sload\n      0xffffffffffffffffffffffffffffffffffffffffffffffffffffffffffffff00\n      and\n      dup7\n      iszero\n      iszero\n      swap1\n      dup2\n      or\n      swap1\n      swap2\n      sstore\n        /* \"ERC721.sol\":2635:2681  ApprovalForAll(msg.sender, operator, approved) */\n      swap1\n      mload\n        /* \"#utility.yul\":5592:5633   */\n      swap1\n      dup2\n      mstore\n        /* \"ERC721.sol\":2569:2609  _operatorApprovals[msg.sender][operator] */\n      swap2\n      swap3\n        /* \"ERC721.sol\":2588:2598  msg.sender */\n      swap2\n        /* \"ERC721.sol\":2635:2681  ApprovalForAll(msg.sender, operator, approved) */\n      0x17307eab39ab6107e8899845ad3d59bd9653f200f220920489ca2b5937696c31\n      swap2\n        /* \"#utility.yul\":5565:5583   */\n      add\n        /* \"ERC721.sol\":2635:2681  ApprovalForAll(msg.sender, operator, approved) */\n      mload(0x40)\n      dup1\n      swap2\n      sub\n      swap1\n      log3\n        /* \"ERC721.sol\":2481:2688  function setApprovalForAll(address operator, bool approved) external override {... */\n      pop\n      pop\n      jump\t// out\n        /* \"ERC721.sol\":6024:6394  function safeTransferFrom(... */\n    tag_70:\n        /* \"ERC721.sol\":6174:6187  address owner */\n      0x00\n        /* \"ERC721.sol\":6190:6206  ownerOf(tokenId) */\n      tag_132\n        /* \"ERC721.sol\":6198:6205  tokenId */\n      dup4\n        /* \"ERC721.sol\":6190:6197  ownerOf */\n      tag_49\n        /* \"ERC721.sol\":6190:6206  ownerOf(tokenId) */\n      jump\t// in\n    tag_132:\n        /* \"ERC721.sol\":6174:6206  address owner = ownerOf(tokenId) */\n      swap1\n      pop\n        /* \"ERC721.sol\":6237:6283  _isApprovedOrOwner(owner, msg.sender, tokenId) */\n      tag_133\n        /* \"ERC721.sol\":6256:6261  owner */\n      dup2\n        /* \"ERC721.sol\":6263:6273  msg.sender */\n      caller\n        /* \"ERC721.sol\":6275:6282  tokenId */\n      dup6\n        /* \"ERC721.sol\":6237:6255  _isApprovedOrOwner */\n      tag_103\n        /* \"ERC721.sol\":6237:6283  _isApprovedOrOwner(owner, msg.sender, tokenId) */\n      jump\t// in\n    tag_133:\n        /* \"ERC721.sol\":6216:6331  require(... */\n      tag_134\n      jumpi\n      mload(0x40)\n      0x08c379a000000000000000000000000000000000000000000000000000000000\n      dup2\n      mstore\n        /* \"#utility.yul\":6070:6072   */\n      0x20\n        /* \"ERC721.sol\":6216:6331  require(... */\n      0x04\n      dup3\n      add\n        /* \"#utility.yul\":6052:6073   */\n      mstore\n        /* \"#utility.yul\":6109:6111   */\n      0x16\n        /* \"#utility.yul\":6089:6107   */\n      0x24\n      dup3\n      add\n        /* \"#utility.yul\":6082:6112   */\n      mstore\n        /* \"#utility.yul\":6148:6172   */\n      0x6e6f74206f776e6572206e6f7220617070726f76656400000000000000000000\n        /* \"#utility.yul\":6128:6146   */\n      0x44\n      dup3\n      add\n        /* \"#utility.yul\":6121:6173   */\n      mstore\n        /* \"#utility.yul\":6190:6208   */\n      0x64\n      add\n        /* \"ERC721.sol\":6216:6331  require(... */\n      tag_91\n        /* \"#utility.yul\":5868:6214   */\n      jump\n        /* \"ERC721.sol\":6216:6331  require(... */\n    tag_134:\n        /* \"ERC721.sol\":6341:6387  _safeTransfer(owner, from, to, tokenId, _data) */\n      tag_136\n        /* \"ERC721.sol\":6355:6360  owner */\n      dup2\n        /* \"ERC721.sol\":6362:6366  from */\n      dup7\n        /* \"ERC721.sol\":6368:6370  to */\n      dup7\n        /* \"ERC721.sol\":6372:6379  tokenId */\n      dup7\n        /* \"ERC721.sol\":6381:6386  _data */\n      dup7\n        /* \"ERC721.sol\":6341:6354  _safeTransfer */\n      tag_137\n        /* \"ERC721.sol\":6341:6387  _safeTransfer(owner, from, to, tokenId, _data) */\n      jump\t// in\n    tag_136:\n        /* \"ERC721.sol\":6164:6394  {... */\n      pop\n        /* \"ERC721.sol\":6024:6394  function safeTransferFrom(... */\n      pop\n      pop\n      pop\n      pop\n      jump\t// out\n        /* \"ERC721.sol\":8843:9154  function tokenURI(uint256 tokenId) public view virtual override returns (string memory) {... */\n    tag_73:\n        /* \"ERC721.sol\":8977:8978  0 */\n      0x00\n        /* \"ERC721.sol\":8949:8965  _owners[tokenId] */\n      dup2\n      dup2\n      mstore\n        /* \"ERC721.sol\":8949:8956  _owners */\n      0x02\n        /* \"ERC721.sol\":8949:8965  _owners[tokenId] */\n      0x20\n      mstore\n      0x40\n      swap1\n      keccak256\n      sload\n        /* \"ERC721.sol\":8916:8929  string memory */\n      0x60\n      swap1\n        /* \"ERC721.sol\":8949:8979  _owners[tokenId] != address(0) */\n      0xffffffffffffffffffffffffffffffffffffffff\n        /* \"ERC721.sol\":8949:8965  _owners[tokenId] */\n      and\n        /* \"ERC721.sol\":8941:8999  require(_owners[tokenId] != address(0), \"Token Not Exist\") */\n      tag_139\n      jumpi\n      mload(0x40)\n      0x08c379a000000000000000000000000000000000000000000000000000000000\n      dup2\n      mstore\n        /* \"#utility.yul\":7834:7836   */\n      0x20\n        /* \"ERC721.sol\":8941:8999  require(_owners[tokenId] != address(0), \"Token Not Exist\") */\n      0x04\n      dup3\n      add\n        /* \"#utility.yul\":7816:7837   */\n      mstore\n        /* \"#utility.yul\":7873:7875   */\n      0x0f\n        /* \"#utility.yul\":7853:7871   */\n      0x24\n      dup3\n      add\n        /* \"#utility.yul\":7846:7876   */\n      mstore\n        /* \"#utility.yul\":7912:7929   */\n      0x546f6b656e204e6f742045786973740000000000000000000000000000000000\n        /* \"#utility.yul\":7892:7910   */\n      0x44\n      dup3\n      add\n        /* \"#utility.yul\":7885:7930   */\n      mstore\n        /* \"#utility.yul\":7947:7965   */\n      0x64\n      add\n        /* \"ERC721.sol\":8941:8999  require(_owners[tokenId] != address(0), \"Token Not Exist\") */\n      tag_91\n        /* \"#utility.yul\":7632:7971   */\n      jump\n        /* \"ERC721.sol\":8941:8999  require(_owners[tokenId] != address(0), \"Token Not Exist\") */\n    tag_139:\n        /* \"ERC721.sol\":9010:9031  string memory baseURI */\n      0x00\n        /* \"ERC721.sol\":9034:9044  _baseURI() */\n      tag_142\n        /* \"ERC721.sol\":9442:9451  return \"\" */\n      0x40\n      dup1\n      mload\n      0x20\n      dup2\n      add\n      swap1\n      swap2\n      mstore\n      0x00\n      dup2\n      mstore\n      swap1\n        /* \"ERC721.sol\":9366:9458  function _baseURI() internal view virtual returns (string memory) {... */\n      jump\n        /* \"ERC721.sol\":9034:9044  _baseURI() */\n    tag_142:\n        /* \"ERC721.sol\":9010:9044  string memory baseURI = _baseURI() */\n      swap1\n      pop\n        /* \"ERC721.sol\":9085:9086  0 */\n      0x00\n        /* \"ERC721.sol\":9067:9074  baseURI */\n      dup2\n        /* \"ERC721.sol\":9061:9082  bytes(baseURI).length */\n      mload\n        /* \"ERC721.sol\":9061:9086  bytes(baseURI).length > 0 */\n      gt\n        /* \"ERC721.sol\":9061:9147  bytes(baseURI).length > 0 ? string(abi.encodePacked(baseURI, tokenId.toString())) : \"\" */\n      tag_144\n      jumpi\n      mload(0x40)\n      dup1\n      0x20\n      add\n      0x40\n      mstore\n      dup1\n      0x00\n      dup2\n      mstore\n      pop\n      jump(tag_145)\n    tag_144:\n        /* \"ERC721.sol\":9113:9120  baseURI */\n      dup1\n        /* \"ERC721.sol\":9122:9140  tokenId.toString() */\n      tag_146\n        /* \"ERC721.sol\":9122:9129  tokenId */\n      dup5\n        /* \"ERC721.sol\":9122:9138  tokenId.toString */\n      tag_147\n        /* \"ERC721.sol\":9122:9140  tokenId.toString() */\n      jump\t// in\n    tag_146:\n        /* \"ERC721.sol\":9096:9141  abi.encodePacked(baseURI, tokenId.toString()) */\n      add(0x20, mload(0x40))\n      tag_148\n      swap3\n      swap2\n      swap1\n      tag_149\n      jump\t// in\n    tag_148:\n      mload(0x40)\n      0x20\n      dup2\n      dup4\n      sub\n      sub\n      dup2\n      mstore\n      swap1\n      0x40\n      mstore\n        /* \"ERC721.sol\":9061:9147  bytes(baseURI).length > 0 ? string(abi.encodePacked(baseURI, tokenId.toString())) : \"\" */\n    tag_145:\n        /* \"ERC721.sol\":9054:9147  return bytes(baseURI).length > 0 ? string(abi.encodePacked(baseURI, tokenId.toString())) : \"\" */\n      swap4\n        /* \"ERC721.sol\":8843:9154  function tokenURI(uint256 tokenId) public view virtual override returns (string memory) {... */\n      swap3\n      pop\n      pop\n      pop\n      jump\t// out\n        /* \"ERC721.sol\":3115:3301  function _approve(... */\n    tag_99:\n        /* \"ERC721.sol\":3222:3246  _tokenApprovals[tokenId] */\n      0x00\n      dup2\n      dup2\n      mstore\n        /* \"ERC721.sol\":3222:3237  _tokenApprovals */\n      0x04\n        /* \"ERC721.sol\":3222:3246  _tokenApprovals[tokenId] */\n      0x20\n      mstore\n      0x40\n      dup1\n      dup3\n      keccak256\n        /* \"ERC721.sol\":3222:3251  _tokenApprovals[tokenId] = to */\n      dup1\n      sload\n      0xffffffffffffffffffffffff0000000000000000000000000000000000000000\n      and\n      0xffffffffffffffffffffffffffffffffffffffff\n      dup7\n      dup2\n      and\n      swap2\n      dup3\n      or\n      swap1\n      swap3\n      sstore\n        /* \"ERC721.sol\":3266:3294  Approval(owner, to, tokenId) */\n      swap2\n      mload\n        /* \"ERC721.sol\":3222:3246  _tokenApprovals[tokenId] */\n      dup5\n      swap4\n        /* \"ERC721.sol\":3266:3294  Approval(owner, to, tokenId) */\n      swap2\n      dup8\n      and\n      swap2\n      0x8c5be1e5ebec7d5bd14f71427d1e84f3dd0314c0f7b2291e5b200ac8c7c3b925\n      swap2\n      log4\n        /* \"ERC721.sol\":3115:3301  function _approve(... */\n      pop\n      pop\n      pop\n      jump\t// out\n        /* \"ERC721.sol\":3852:4127  function _isApprovedOrOwner(... */\n    tag_103:\n        /* \"ERC721.sol\":3978:3982  bool */\n      0x00\n        /* \"ERC721.sol\":4013:4018  owner */\n      dup4\n        /* \"ERC721.sol\":4002:4018  spender == owner */\n      0xffffffffffffffffffffffffffffffffffffffff\n      and\n        /* \"ERC721.sol\":4002:4009  spender */\n      dup4\n        /* \"ERC721.sol\":4002:4018  spender == owner */\n      0xffffffffffffffffffffffffffffffffffffffff\n      and\n      eq\n        /* \"ERC721.sol\":4002:4069  spender == owner ||... */\n      dup1\n      tag_153\n      jumpi\n      pop\n        /* \"ERC721.sol\":4034:4058  _tokenApprovals[tokenId] */\n      0x00\n      dup3\n      dup2\n      mstore\n        /* \"ERC721.sol\":4034:4049  _tokenApprovals */\n      0x04\n        /* \"ERC721.sol\":4034:4058  _tokenApprovals[tokenId] */\n      0x20\n      mstore\n      0x40\n      swap1\n      keccak256\n      sload\n        /* \"ERC721.sol\":4034:4069  _tokenApprovals[tokenId] == spender */\n      0xffffffffffffffffffffffffffffffffffffffff\n      dup5\n      dup2\n      and\n        /* \"ERC721.sol\":4034:4058  _tokenApprovals[tokenId] */\n      swap2\n      and\n        /* \"ERC721.sol\":4034:4069  _tokenApprovals[tokenId] == spender */\n      eq\n        /* \"ERC721.sol\":4002:4069  spender == owner ||... */\n    tag_153:\n        /* \"ERC721.sol\":4002:4119  spender == owner ||... */\n      dup1\n      tag_154\n      jumpi\n      pop\n        /* \"ERC721.sol\":4085:4110  _operatorApprovals[owner] */\n      0xffffffffffffffffffffffffffffffffffffffff\n      dup1\n      dup6\n      and\n      0x00\n      swap1\n      dup2\n      mstore\n        /* \"ERC721.sol\":4085:4103  _operatorApprovals */\n      0x05\n        /* \"ERC721.sol\":4085:4110  _operatorApprovals[owner] */\n      0x20\n      swap1\n      dup2\n      mstore\n      0x40\n      dup1\n      dup4\n      keccak256\n        /* \"ERC721.sol\":4085:4119  _operatorApprovals[owner][spender] */\n      swap4\n      dup8\n      and\n      dup4\n      mstore\n      swap3\n      swap1\n      mstore\n      keccak256\n      sload\n      0xff\n      and\n        /* \"ERC721.sol\":4002:4119  spender == owner ||... */\n    tag_154:\n        /* \"ERC721.sol\":3994:4120  return (spender == owner ||... */\n      swap5\n        /* \"ERC721.sol\":3852:4127  function _isApprovedOrOwner(... */\n      swap4\n      pop\n      pop\n      pop\n      pop\n      jump\t// out\n        /* \"ERC721.sol\":4348:4767  function _transfer(... */\n    tag_108:\n        /* \"ERC721.sol\":4494:4499  owner */\n      dup4\n        /* \"ERC721.sol\":4486:4499  from == owner */\n      0xffffffffffffffffffffffffffffffffffffffff\n      and\n        /* \"ERC721.sol\":4486:4490  from */\n      dup4\n        /* \"ERC721.sol\":4486:4499  from == owner */\n      0xffffffffffffffffffffffffffffffffffffffff\n      and\n      eq\n        /* \"ERC721.sol\":4478:4513  require(from == owner, \"not owner\") */\n      tag_156\n      jumpi\n      mload(0x40)\n      0x08c379a000000000000000000000000000000000000000000000000000000000\n      dup2\n      mstore\n        /* \"#utility.yul\":8178:8180   */\n      0x20\n        /* \"ERC721.sol\":4478:4513  require(from == owner, \"not owner\") */\n      0x04\n      dup3\n      add\n        /* \"#utility.yul\":8160:8181   */\n      mstore\n        /* \"#utility.yul\":8217:8218   */\n      0x09\n        /* \"#utility.yul\":8197:8215   */\n      0x24\n      dup3\n      add\n        /* \"#utility.yul\":8190:8219   */\n      mstore\n        /* \"#utility.yul\":8255:8266   */\n      0x6e6f74206f776e65720000000000000000000000000000000000000000000000\n        /* \"#utility.yul\":8235:8253   */\n      0x44\n      dup3\n      add\n        /* \"#utility.yul\":8228:8267   */\n      mstore\n        /* \"#utility.yul\":8284:8302   */\n      0x64\n      add\n        /* \"ERC721.sol\":4478:4513  require(from == owner, \"not owner\") */\n      tag_91\n        /* \"#utility.yul\":7976:8308   */\n      jump\n        /* \"ERC721.sol\":4478:4513  require(from == owner, \"not owner\") */\n    tag_156:\n        /* \"ERC721.sol\":4531:4547  to != address(0) */\n      0xffffffffffffffffffffffffffffffffffffffff\n      dup3\n      and\n        /* \"ERC721.sol\":4523:4580  require(to != address(0), \"transfer to the zero address\") */\n      tag_159\n      jumpi\n      mload(0x40)\n      0x08c379a000000000000000000000000000000000000000000000000000000000\n      dup2\n      mstore\n        /* \"#utility.yul\":6421:6423   */\n      0x20\n        /* \"ERC721.sol\":4523:4580  require(to != address(0), \"transfer to the zero address\") */\n      0x04\n      dup3\n      add\n        /* \"#utility.yul\":6403:6424   */\n      mstore\n        /* \"#utility.yul\":6460:6462   */\n      0x1c\n        /* \"#utility.yul\":6440:6458   */\n      0x24\n      dup3\n      add\n        /* \"#utility.yul\":6433:6463   */\n      mstore\n        /* \"#utility.yul\":6499:6529   */\n      0x7472616e7366657220746f20746865207a65726f206164647265737300000000\n        /* \"#utility.yul\":6479:6497   */\n      0x44\n      dup3\n      add\n        /* \"#utility.yul\":6472:6530   */\n      mstore\n        /* \"#utility.yul\":6547:6565   */\n      0x64\n      add\n        /* \"ERC721.sol\":4523:4580  require(to != address(0), \"transfer to the zero address\") */\n      tag_91\n        /* \"#utility.yul\":6219:6571   */\n      jump\n        /* \"ERC721.sol\":4523:4580  require(to != address(0), \"transfer to the zero address\") */\n    tag_159:\n        /* \"ERC721.sol\":4591:4627  _approve(owner, address(0), tokenId) */\n      tag_162\n        /* \"ERC721.sol\":4600:4605  owner */\n      dup5\n        /* \"ERC721.sol\":4615:4616  0 */\n      0x00\n        /* \"ERC721.sol\":4619:4626  tokenId */\n      dup4\n        /* \"ERC721.sol\":4591:4599  _approve */\n      tag_99\n        /* \"ERC721.sol\":4591:4627  _approve(owner, address(0), tokenId) */\n      jump\t// in\n    tag_162:\n        /* \"ERC721.sol\":4638:4653  _balances[from] */\n      0xffffffffffffffffffffffffffffffffffffffff\n      dup4\n      and\n      0x00\n      swap1\n      dup2\n      mstore\n        /* \"ERC721.sol\":4638:4647  _balances */\n      0x03\n        /* \"ERC721.sol\":4638:4653  _balances[from] */\n      0x20\n      mstore\n      0x40\n      dup2\n      keccak256\n        /* \"ERC721.sol\":4638:4658  _balances[from] -= 1 */\n      dup1\n      sload\n        /* \"ERC721.sol\":4657:4658  1 */\n      0x01\n      swap3\n        /* \"ERC721.sol\":4638:4653  _balances[from] */\n      swap1\n        /* \"ERC721.sol\":4638:4658  _balances[from] -= 1 */\n      tag_163\n      swap1\n        /* \"ERC721.sol\":4657:4658  1 */\n      dup5\n      swap1\n        /* \"ERC721.sol\":4638:4658  _balances[from] -= 1 */\n      tag_164\n      jump\t// in\n    tag_163:\n      swap1\n      swap2\n      sstore\n      pop\n      pop\n        /* \"ERC721.sol\":4668:4681  _balances[to] */\n      0xffffffffffffffffffffffffffffffffffffffff\n      dup3\n      and\n      0x00\n      swap1\n      dup2\n      mstore\n        /* \"ERC721.sol\":4668:4677  _balances */\n      0x03\n        /* \"ERC721.sol\":4668:4681  _balances[to] */\n      0x20\n      mstore\n      0x40\n      dup2\n      keccak256\n        /* \"ERC721.sol\":4668:4686  _balances[to] += 1 */\n      dup1\n      sload\n        /* \"ERC721.sol\":4685:4686  1 */\n      0x01\n      swap3\n        /* \"ERC721.sol\":4668:4681  _balances[to] */\n      swap1\n        /* \"ERC721.sol\":4668:4686  _balances[to] += 1 */\n      tag_165\n      swap1\n        /* \"ERC721.sol\":4685:4686  1 */\n      dup5\n      swap1\n        /* \"ERC721.sol\":4668:4686  _balances[to] += 1 */\n      tag_166\n      jump\t// in\n    tag_165:\n      swap1\n      swap2\n      sstore\n      pop\n      pop\n        /* \"ERC721.sol\":4696:4712  _owners[tokenId] */\n      0x00\n      dup2\n      dup2\n      mstore\n        /* \"ERC721.sol\":4696:4703  _owners */\n      0x02\n        /* \"ERC721.sol\":4696:4712  _owners[tokenId] */\n      0x20\n      mstore\n      0x40\n      dup1\n      dup3\n      keccak256\n        /* \"ERC721.sol\":4696:4717  _owners[tokenId] = to */\n      dup1\n      sload\n      0xffffffffffffffffffffffff0000000000000000000000000000000000000000\n      and\n      0xffffffffffffffffffffffffffffffffffffffff\n      dup7\n      dup2\n      and\n      swap2\n      dup3\n      or\n      swap1\n      swap3\n      sstore\n        /* \"ERC721.sol\":4733:4760  Transfer(from, to, tokenId) */\n      swap2\n      mload\n        /* \"ERC721.sol\":4696:4712  _owners[tokenId] */\n      dup5\n      swap4\n        /* \"ERC721.sol\":4733:4760  Transfer(from, to, tokenId) */\n      swap2\n      dup8\n      and\n      swap2\n      0xddf252ad1be2c89b69c2b068fc378daa952ba7f163c4a11628f55a4df523b3ef\n      swap2\n      log4\n        /* \"ERC721.sol\":4348:4767  function _transfer(... */\n      pop\n      pop\n      pop\n      pop\n      jump\t// out\n        /* \"ERC721.sol\":5651:5913  function _safeTransfer(... */\n    tag_137:\n        /* \"ERC721.sol\":5813:5848  _transfer(owner, from, to, tokenId) */\n      tag_168\n        /* \"ERC721.sol\":5823:5828  owner */\n      dup6\n        /* \"ERC721.sol\":5830:5834  from */\n      dup6\n        /* \"ERC721.sol\":5836:5838  to */\n      dup6\n        /* \"ERC721.sol\":5840:5847  tokenId */\n      dup6\n        /* \"ERC721.sol\":5813:5822  _transfer */\n      tag_108\n        /* \"ERC721.sol\":5813:5848  _transfer(owner, from, to, tokenId) */\n      jump\t// in\n    tag_168:\n        /* \"ERC721.sol\":5858:5906  _checkOnERC721Received(from, to, tokenId, _data) */\n      tag_136\n        /* \"ERC721.sol\":5881:5885  from */\n      dup5\n        /* \"ERC721.sol\":5887:5889  to */\n      dup5\n        /* \"ERC721.sol\":5891:5898  tokenId */\n      dup5\n        /* \"ERC721.sol\":5900:5905  _data */\n      dup5\n        /* \"ERC721.sol\":5858:5880  _checkOnERC721Received */\n      tag_170\n        /* \"ERC721.sol\":5858:5906  _checkOnERC721Received(from, to, tokenId, _data) */\n      jump\t// in\n        /* \"String.sol\":391:1094  function toString(uint256 value) internal pure returns (string memory) {... */\n    tag_147:\n        /* \"String.sol\":447:460  string memory */\n      0x60\n        /* \"String.sol\":664:674  value == 0 */\n      dup2\n        /* \"String.sol\":660:711  if (value == 0) {... */\n      tag_173\n      jumpi\n      pop\n      pop\n        /* \"String.sol\":690:700  return \"0\" */\n      0x40\n      dup1\n      mload\n      dup1\n      dup3\n      add\n      swap1\n      swap2\n      mstore\n      0x01\n      dup2\n      mstore\n      0x3000000000000000000000000000000000000000000000000000000000000000\n      0x20\n      dup3\n      add\n      mstore\n      swap1\n        /* \"String.sol\":391:1094  function toString(uint256 value) internal pure returns (string memory) {... */\n      jump\t// out\n        /* \"String.sol\":660:711  if (value == 0) {... */\n    tag_173:\n        /* \"String.sol\":735:740  value */\n      dup2\n        /* \"String.sol\":720:732  uint256 temp */\n      0x00\n        /* \"String.sol\":774:849  while (temp != 0) {... */\n    tag_174:\n        /* \"String.sol\":781:790  temp != 0 */\n      dup2\n      iszero\n        /* \"String.sol\":774:849  while (temp != 0) {... */\n      tag_175\n      jumpi\n        /* \"String.sol\":806:814  digits++ */\n      dup1\n      tag_176\n      dup2\n      tag_177\n      jump\t// in\n    tag_176:\n      swap2\n      pop\n        /* \"String.sol\":828:838  temp /= 10 */\n      tag_178\n      swap1\n      pop\n        /* \"String.sol\":836:838  10 */\n      0x0a\n        /* \"String.sol\":828:838  temp /= 10 */\n      dup4\n      tag_179\n      jump\t// in\n    tag_178:\n      swap2\n      pop\n        /* \"String.sol\":774:849  while (temp != 0) {... */\n      jump(tag_174)\n    tag_175:\n        /* \"String.sol\":858:877  bytes memory buffer */\n      0x00\n        /* \"String.sol\":890:896  digits */\n      dup2\n        /* \"String.sol\":880:897  new bytes(digits) */\n      0xffffffffffffffff\n      dup2\n      gt\n      iszero\n      tag_181\n      jumpi\n      tag_181\n      tag_182\n      jump\t// in\n    tag_181:\n      mload(0x40)\n      swap1\n      dup1\n      dup3\n      mstore\n      dup1\n      0x1f\n      add\n      not(0x1f)\n      and\n      0x20\n      add\n      dup3\n      add\n      0x40\n      mstore\n      dup1\n      iszero\n      tag_183\n      jumpi\n      0x20\n      dup3\n      add\n      dup2\n      dup1\n      calldatasize\n      dup4\n      calldatacopy\n      add\n      swap1\n      pop\n    tag_183:\n      pop\n        /* \"String.sol\":858:897  bytes memory buffer = new bytes(digits) */\n      swap1\n      pop\n        /* \"String.sol\":907:1057  while (value != 0) {... */\n    tag_184:\n        /* \"String.sol\":914:924  value != 0 */\n      dup5\n      iszero\n        /* \"String.sol\":907:1057  while (value != 0) {... */\n      tag_154\n      jumpi\n        /* \"String.sol\":940:951  digits -= 1 */\n      tag_186\n        /* \"String.sol\":950:951  1 */\n      0x01\n        /* \"String.sol\":940:951  digits -= 1 */\n      dup4\n      tag_164\n      jump\t// in\n    tag_186:\n      swap2\n      pop\n        /* \"String.sol\":1008:1018  value % 10 */\n      tag_187\n        /* \"String.sol\":1016:1018  10 */\n      0x0a\n        /* \"String.sol\":1008:1013  value */\n      dup7\n        /* \"String.sol\":1008:1018  value % 10 */\n      tag_188\n      jump\t// in\n    tag_187:\n        /* \"String.sol\":995:1019  48 + uint256(value % 10) */\n      tag_189\n      swap1\n        /* \"String.sol\":995:997  48 */\n      0x30\n        /* \"String.sol\":995:1019  48 + uint256(value % 10) */\n      tag_166\n      jump\t// in\n    tag_189:\n        /* \"String.sol\":982:1021  bytes1(uint8(48 + uint256(value % 10))) */\n      0xf8\n      shl\n        /* \"String.sol\":965:971  buffer */\n      dup2\n        /* \"String.sol\":972:978  digits */\n      dup4\n        /* \"String.sol\":965:979  buffer[digits] */\n      dup2\n      mload\n      dup2\n      lt\n      tag_191\n      jumpi\n      tag_191\n      tag_192\n      jump\t// in\n    tag_191:\n      0x20\n      add\n      add\n        /* \"String.sol\":965:1021  buffer[digits] = bytes1(uint8(48 + uint256(value % 10))) */\n      swap1\n      not(0xffffffffffffffffffffffffffffffffffffffffffffffffffffffffffffff)\n      and\n      swap1\n      dup2\n      0x00\n      byte\n      swap1\n      mstore8\n      pop\n        /* \"String.sol\":1035:1046  value /= 10 */\n      tag_193\n        /* \"String.sol\":1044:1046  10 */\n      0x0a\n        /* \"String.sol\":1035:1046  value /= 10 */\n      dup7\n      tag_179\n      jump\t// in\n    tag_193:\n      swap5\n      pop\n        /* \"String.sol\":907:1057  while (value != 0) {... */\n      jump(tag_184)\n        /* \"ERC721.sol\":7975:8755  function _checkOnERC721Received(address from, address to, uint256 tokenId, bytes memory data) private {... */\n    tag_170:\n        /* \"ERC721.sol\":8091:8105  to.code.length */\n      0xffffffffffffffffffffffffffffffffffffffff\n      dup4\n      and\n      extcodesize\n        /* \"ERC721.sol\":8091:8109  to.code.length > 0 */\n      iszero\n        /* \"ERC721.sol\":8087:8749  if (to.code.length > 0) {... */\n      tag_107\n      jumpi\n        /* \"ERC721.sol\":8129:8198  IERC721Receiver(to).onERC721Received(msg.sender, from, tokenId, data) */\n      mload(0x40)\n      0x150b7a0200000000000000000000000000000000000000000000000000000000\n      dup2\n      mstore\n        /* \"ERC721.sol\":8129:8165  IERC721Receiver(to).onERC721Received */\n      0xffffffffffffffffffffffffffffffffffffffff\n      dup5\n      and\n      swap1\n      0x150b7a02\n      swap1\n        /* \"ERC721.sol\":8129:8198  IERC721Receiver(to).onERC721Received(msg.sender, from, tokenId, data) */\n      tag_196\n      swap1\n        /* \"ERC721.sol\":8166:8176  msg.sender */\n      caller\n      swap1\n        /* \"ERC721.sol\":8178:8182  from */\n      dup9\n      swap1\n        /* \"ERC721.sol\":8184:8191  tokenId */\n      dup8\n      swap1\n        /* \"ERC721.sol\":8193:8197  data */\n      dup8\n      swap1\n        /* \"ERC721.sol\":8129:8198  IERC721Receiver(to).onERC721Received(msg.sender, from, tokenId, data) */\n      0x04\n      add\n      tag_197\n      jump\t// in\n    tag_196:\n      0x20\n      mload(0x40)\n      dup1\n      dup4\n      sub\n      dup2\n      0x00\n      dup8\n      dup1\n      extcodesize\n      iszero\n      dup1\n      iszero\n      tag_198\n      jumpi\n      0x00\n      dup1\n      revert\n    tag_198:\n      pop\n      gas\n      call\n      swap3\n      pop\n      pop\n      pop\n      dup1\n      iszero\n      tag_199\n      jumpi\n      pop\n      0x40\n      dup1\n      mload\n      0x1f\n      returndatasize\n      swap1\n      dup2\n      add\n      0xffffffffffffffffffffffffffffffffffffffffffffffffffffffffffffffe0\n      and\n      dup3\n      add\n      swap1\n      swap3\n      mstore\n      tag_200\n      swap2\n      dup2\n      add\n      swap1\n      tag_201\n      jump\t// in\n    tag_200:\n      0x01\n    tag_199:\n        /* \"ERC721.sol\":8125:8739  try IERC721Receiver(to).onERC721Received(msg.sender, from, tokenId, data) returns (bytes4 retval) {... */\n      tag_202\n      jumpi\n      returndatasize\n      dup1\n      dup1\n      iszero\n      tag_207\n      jumpi\n      mload(0x40)\n      swap2\n      pop\n      and(add(returndatasize, 0x3f), not(0x1f))\n      dup3\n      add\n      0x40\n      mstore\n      returndatasize\n      dup3\n      mstore\n      returndatasize\n      0x00\n      0x20\n      dup5\n      add\n      returndatacopy\n      jump(tag_206)\n    tag_207:\n      0x60\n      swap2\n      pop\n    tag_206:\n      pop\n        /* \"ERC721.sol\":8436:8449  reason.length */\n      dup1\n      mload\n        /* \"ERC721.sol\":8432:8725  if (reason.length == 0) {... */\n      tag_208\n      jumpi\n        /* \"ERC721.sol\":8485:8510  ERC721InvalidReceiver(to) */\n      mload(0x40)\n      0x64a0ae9200000000000000000000000000000000000000000000000000000000\n      dup2\n      mstore\n        /* \"#utility.yul\":4478:4520   */\n      0xffffffffffffffffffffffffffffffffffffffff\n        /* \"#utility.yul\":4466:4521   */\n      dup6\n      and\n        /* \"ERC721.sol\":8485:8510  ERC721InvalidReceiver(to) */\n      0x04\n      dup3\n      add\n        /* \"#utility.yul\":4448:4522   */\n      mstore\n        /* \"#utility.yul\":4421:4439   */\n      0x24\n      add\n        /* \"ERC721.sol\":8485:8510  ERC721InvalidReceiver(to) */\n      tag_91\n        /* \"#utility.yul\":4302:4528   */\n      jump\n        /* \"ERC721.sol\":8432:8725  if (reason.length == 0) {... */\n    tag_208:\n        /* \"ERC721.sol\":8677:8683  reason */\n      dup1\n        /* \"ERC721.sol\":8671:8684  mload(reason) */\n      mload\n        /* \"ERC721.sol\":8662:8668  reason */\n      dup2\n        /* \"ERC721.sol\":8658:8660  32 */\n      0x20\n        /* \"ERC721.sol\":8654:8669  add(32, reason) */\n      add\n        /* \"ERC721.sol\":8647:8685  revert(add(32, reason), mload(reason)) */\n      revert\n        /* \"ERC721.sol\":8125:8739  try IERC721Receiver(to).onERC721Received(msg.sender, from, tokenId, data) returns (bytes4 retval) {... */\n    tag_202:\n        /* \"ERC721.sol\":8245:8296  retval != IERC721Receiver.onERC721Received.selector */\n      0xffffffff00000000000000000000000000000000000000000000000000000000\n      dup2\n      and\n        /* \"ERC721.sol\":8255:8296  IERC721Receiver.onERC721Received.selector */\n      0x150b7a0200000000000000000000000000000000000000000000000000000000\n        /* \"ERC721.sol\":8245:8296  retval != IERC721Receiver.onERC721Received.selector */\n      eq\n        /* \"ERC721.sol\":8241:8371  if (retval != IERC721Receiver.onERC721Received.selector) {... */\n      tag_136\n      jumpi\n        /* \"ERC721.sol\":8327:8352  ERC721InvalidReceiver(to) */\n      mload(0x40)\n      0x64a0ae9200000000000000000000000000000000000000000000000000000000\n      dup2\n      mstore\n        /* \"#utility.yul\":4478:4520   */\n      0xffffffffffffffffffffffffffffffffffffffff\n        /* \"#utility.yul\":4466:4521   */\n      dup6\n      and\n        /* \"ERC721.sol\":8327:8352  ERC721InvalidReceiver(to) */\n      0x04\n      dup3\n      add\n        /* \"#utility.yul\":4448:4522   */\n      mstore\n        /* \"#utility.yul\":4421:4439   */\n      0x24\n      add\n        /* \"ERC721.sol\":8327:8352  ERC721InvalidReceiver(to) */\n      tag_91\n        /* \"#utility.yul\":4302:4528   */\n      jump\n        /* \"#utility.yul\":14:210   */\n    tag_215:\n        /* \"#utility.yul\":82:102   */\n      dup1\n      calldataload\n        /* \"#utility.yul\":142:184   */\n      0xffffffffffffffffffffffffffffffffffffffff\n        /* \"#utility.yul\":131:185   */\n      dup2\n      and\n        /* \"#utility.yul\":121:186   */\n      dup2\n      eq\n        /* \"#utility.yul\":111:204   */\n      tag_112\n      jumpi\n        /* \"#utility.yul\":200:201   */\n      0x00\n        /* \"#utility.yul\":197:198   */\n      dup1\n        /* \"#utility.yul\":190:202   */\n      revert\n        /* \"#utility.yul\":215:401   */\n    tag_53:\n        /* \"#utility.yul\":274:280   */\n      0x00\n        /* \"#utility.yul\":327:329   */\n      0x20\n        /* \"#utility.yul\":315:324   */\n      dup3\n        /* \"#utility.yul\":306:313   */\n      dup5\n        /* \"#utility.yul\":302:325   */\n      sub\n        /* \"#utility.yul\":298:330   */\n      slt\n        /* \"#utility.yul\":295:347   */\n      iszero\n      tag_219\n      jumpi\n        /* \"#utility.yul\":343:344   */\n      0x00\n        /* \"#utility.yul\":340:341   */\n      dup1\n        /* \"#utility.yul\":333:345   */\n      revert\n        /* \"#utility.yul\":295:347   */\n    tag_219:\n        /* \"#utility.yul\":366:395   */\n      tag_145\n        /* \"#utility.yul\":385:394   */\n      dup3\n        /* \"#utility.yul\":366:395   */\n      tag_215\n      jump\t// in\n        /* \"#utility.yul\":406:666   */\n    tag_77:\n        /* \"#utility.yul\":474:480   */\n      0x00\n        /* \"#utility.yul\":482:488   */\n      dup1\n        /* \"#utility.yul\":535:537   */\n      0x40\n        /* \"#utility.yul\":523:532   */\n      dup4\n        /* \"#utility.yul\":514:521   */\n      dup6\n        /* \"#utility.yul\":510:533   */\n      sub\n        /* \"#utility.yul\":506:538   */\n      slt\n        /* \"#utility.yul\":503:555   */\n      iszero\n      tag_222\n      jumpi\n        /* \"#utility.yul\":551:552   */\n      0x00\n        /* \"#utility.yul\":548:549   */\n      dup1\n        /* \"#utility.yul\":541:553   */\n      revert\n        /* \"#utility.yul\":503:555   */\n    tag_222:\n        /* \"#utility.yul\":574:603   */\n      tag_223\n        /* \"#utility.yul\":593:602   */\n      dup4\n        /* \"#utility.yul\":574:603   */\n      tag_215\n      jump\t// in\n    tag_223:\n        /* \"#utility.yul\":564:603   */\n      swap2\n      pop\n        /* \"#utility.yul\":622:660   */\n      tag_224\n        /* \"#utility.yul\":656:658   */\n      0x20\n        /* \"#utility.yul\":645:654   */\n      dup5\n        /* \"#utility.yul\":641:659   */\n      add\n        /* \"#utility.yul\":622:660   */\n      tag_215\n      jump\t// in\n    tag_224:\n        /* \"#utility.yul\":612:660   */\n      swap1\n      pop\n        /* \"#utility.yul\":406:666   */\n      swap3\n      pop\n      swap3\n      swap1\n      pop\n      jump\t// out\n        /* \"#utility.yul\":671:999   */\n    tag_42:\n        /* \"#utility.yul\":748:754   */\n      0x00\n        /* \"#utility.yul\":756:762   */\n      dup1\n        /* \"#utility.yul\":764:770   */\n      0x00\n        /* \"#utility.yul\":817:819   */\n      0x60\n        /* \"#utility.yul\":805:814   */\n      dup5\n        /* \"#utility.yul\":796:803   */\n      dup7\n        /* \"#utility.yul\":792:815   */\n      sub\n        /* \"#utility.yul\":788:820   */\n      slt\n        /* \"#utility.yul\":785:837   */\n      iszero\n      tag_226\n      jumpi\n        /* \"#utility.yul\":833:834   */\n      0x00\n        /* \"#utility.yul\":830:831   */\n      dup1\n        /* \"#utility.yul\":823:835   */\n      revert\n        /* \"#utility.yul\":785:837   */\n    tag_226:\n        /* \"#utility.yul\":856:885   */\n      tag_227\n        /* \"#utility.yul\":875:884   */\n      dup5\n        /* \"#utility.yul\":856:885   */\n      tag_215\n      jump\t// in\n    tag_227:\n        /* \"#utility.yul\":846:885   */\n      swap3\n      pop\n        /* \"#utility.yul\":904:942   */\n      tag_228\n        /* \"#utility.yul\":938:940   */\n      0x20\n        /* \"#utility.yul\":927:936   */\n      dup6\n        /* \"#utility.yul\":923:941   */\n      add\n        /* \"#utility.yul\":904:942   */\n      tag_215\n      jump\t// in\n    tag_228:\n        /* \"#utility.yul\":894:942   */\n      swap2\n      pop\n        /* \"#utility.yul\":989:991   */\n      0x40\n        /* \"#utility.yul\":978:987   */\n      dup5\n        /* \"#utility.yul\":974:992   */\n      add\n        /* \"#utility.yul\":961:993   */\n      calldataload\n        /* \"#utility.yul\":951:993   */\n      swap1\n      pop\n        /* \"#utility.yul\":671:999   */\n      swap3\n      pop\n      swap3\n      pop\n      swap3\n      jump\t// out\n        /* \"#utility.yul\":1004:2201   */\n    tag_69:\n        /* \"#utility.yul\":1099:1105   */\n      0x00\n        /* \"#utility.yul\":1107:1113   */\n      dup1\n        /* \"#utility.yul\":1115:1121   */\n      0x00\n        /* \"#utility.yul\":1123:1129   */\n      dup1\n        /* \"#utility.yul\":1176:1179   */\n      0x80\n        /* \"#utility.yul\":1164:1173   */\n      dup6\n        /* \"#utility.yul\":1155:1162   */\n      dup8\n        /* \"#utility.yul\":1151:1174   */\n      sub\n        /* \"#utility.yul\":1147:1180   */\n      slt\n        /* \"#utility.yul\":1144:1197   */\n      iszero\n      tag_230\n      jumpi\n        /* \"#utility.yul\":1193:1194   */\n      0x00\n        /* \"#utility.yul\":1190:1191   */\n      dup1\n        /* \"#utility.yul\":1183:1195   */\n      revert\n        /* \"#utility.yul\":1144:1197   */\n    tag_230:\n        /* \"#utility.yul\":1216:1245   */\n      tag_231\n        /* \"#utility.yul\":1235:1244   */\n      dup6\n        /* \"#utility.yul\":1216:1245   */\n      tag_215\n      jump\t// in\n    tag_231:\n        /* \"#utility.yul\":1206:1245   */\n      swap4\n      pop\n        /* \"#utility.yul\":1264:1302   */\n      tag_232\n        /* \"#utility.yul\":1298:1300   */\n      0x20\n        /* \"#utility.yul\":1287:1296   */\n      dup7\n        /* \"#utility.yul\":1283:1301   */\n      add\n        /* \"#utility.yul\":1264:1302   */\n      tag_215\n      jump\t// in\n    tag_232:\n        /* \"#utility.yul\":1254:1302   */\n      swap3\n      pop\n        /* \"#utility.yul\":1349:1351   */\n      0x40\n        /* \"#utility.yul\":1338:1347   */\n      dup6\n        /* \"#utility.yul\":1334:1352   */\n      add\n        /* \"#utility.yul\":1321:1353   */\n      calldataload\n        /* \"#utility.yul\":1311:1353   */\n      swap2\n      pop\n        /* \"#utility.yul\":1404:1406   */\n      0x60\n        /* \"#utility.yul\":1393:1402   */\n      dup6\n        /* \"#utility.yul\":1389:1407   */\n      add\n        /* \"#utility.yul\":1376:1408   */\n      calldataload\n        /* \"#utility.yul\":1427:1445   */\n      0xffffffffffffffff\n        /* \"#utility.yul\":1468:1470   */\n      dup1\n        /* \"#utility.yul\":1460:1466   */\n      dup3\n        /* \"#utility.yul\":1457:1471   */\n      gt\n        /* \"#utility.yul\":1454:1488   */\n      iszero\n      tag_233\n      jumpi\n        /* \"#utility.yul\":1484:1485   */\n      0x00\n        /* \"#utility.yul\":1481:1482   */\n      dup1\n        /* \"#utility.yul\":1474:1486   */\n      revert\n        /* \"#utility.yul\":1454:1488   */\n    tag_233:\n        /* \"#utility.yul\":1522:1528   */\n      dup2\n        /* \"#utility.yul\":1511:1520   */\n      dup8\n        /* \"#utility.yul\":1507:1529   */\n      add\n        /* \"#utility.yul\":1497:1529   */\n      swap2\n      pop\n        /* \"#utility.yul\":1567:1574   */\n      dup8\n        /* \"#utility.yul\":1560:1564   */\n      0x1f\n        /* \"#utility.yul\":1556:1558   */\n      dup4\n        /* \"#utility.yul\":1552:1565   */\n      add\n        /* \"#utility.yul\":1548:1575   */\n      slt\n        /* \"#utility.yul\":1538:1593   */\n      tag_234\n      jumpi\n        /* \"#utility.yul\":1589:1590   */\n      0x00\n        /* \"#utility.yul\":1586:1587   */\n      dup1\n        /* \"#utility.yul\":1579:1591   */\n      revert\n        /* \"#utility.yul\":1538:1593   */\n    tag_234:\n        /* \"#utility.yul\":1625:1627   */\n      dup2\n        /* \"#utility.yul\":1612:1628   */\n      calldataload\n        /* \"#utility.yul\":1647:1649   */\n      dup2\n        /* \"#utility.yul\":1643:1645   */\n      dup2\n        /* \"#utility.yul\":1640:1650   */\n      gt\n        /* \"#utility.yul\":1637:1673   */\n      iszero\n      tag_236\n      jumpi\n        /* \"#utility.yul\":1653:1671   */\n      tag_236\n      tag_182\n      jump\t// in\n    tag_236:\n        /* \"#utility.yul\":1787:1789   */\n      0x40\n        /* \"#utility.yul\":1781:1790   */\n      mload\n        /* \"#utility.yul\":1849:1853   */\n      0x1f\n        /* \"#utility.yul\":1841:1854   */\n      dup3\n      add\n        /* \"#utility.yul\":1692:1758   */\n      0xffffffffffffffffffffffffffffffffffffffffffffffffffffffffffffffe0\n        /* \"#utility.yul\":1837:1859   */\n      swap1\n      dup2\n      and\n        /* \"#utility.yul\":1861:1863   */\n      0x3f\n        /* \"#utility.yul\":1833:1864   */\n      add\n        /* \"#utility.yul\":1829:1869   */\n      and\n        /* \"#utility.yul\":1817:1870   */\n      dup2\n      add\n      swap1\n        /* \"#utility.yul\":1885:1903   */\n      dup4\n      dup3\n      gt\n        /* \"#utility.yul\":1905:1927   */\n      dup2\n      dup4\n      lt\n        /* \"#utility.yul\":1882:1928   */\n      or\n        /* \"#utility.yul\":1879:1951   */\n      iszero\n      tag_238\n      jumpi\n        /* \"#utility.yul\":1931:1949   */\n      tag_238\n      tag_182\n      jump\t// in\n    tag_238:\n        /* \"#utility.yul\":1971:1981   */\n      dup2\n        /* \"#utility.yul\":1967:1969   */\n      0x40\n        /* \"#utility.yul\":1960:1982   */\n      mstore\n        /* \"#utility.yul\":2006:2008   */\n      dup3\n        /* \"#utility.yul\":1998:2004   */\n      dup2\n        /* \"#utility.yul\":1991:2009   */\n      mstore\n        /* \"#utility.yul\":2046:2053   */\n      dup11\n        /* \"#utility.yul\":2041:2043   */\n      0x20\n        /* \"#utility.yul\":2036:2038   */\n      dup5\n        /* \"#utility.yul\":2032:2034   */\n      dup8\n        /* \"#utility.yul\":2028:2039   */\n      add\n        /* \"#utility.yul\":2024:2044   */\n      add\n        /* \"#utility.yul\":2021:2054   */\n      gt\n        /* \"#utility.yul\":2018:2071   */\n      iszero\n      tag_239\n      jumpi\n        /* \"#utility.yul\":2067:2068   */\n      0x00\n        /* \"#utility.yul\":2064:2065   */\n      dup1\n        /* \"#utility.yul\":2057:2069   */\n      revert\n        /* \"#utility.yul\":2018:2071   */\n    tag_239:\n        /* \"#utility.yul\":2123:2125   */\n      dup3\n        /* \"#utility.yul\":2118:2120   */\n      0x20\n        /* \"#utility.yul\":2114:2116   */\n      dup7\n        /* \"#utility.yul\":2110:2121   */\n      add\n        /* \"#utility.yul\":2105:2107   */\n      0x20\n        /* \"#utility.yul\":2097:2103   */\n      dup4\n        /* \"#utility.yul\":2093:2108   */\n      add\n        /* \"#utility.yul\":2080:2126   */\n      calldatacopy\n        /* \"#utility.yul\":2168:2169   */\n      0x00\n        /* \"#utility.yul\":2163:2165   */\n      0x20\n        /* \"#utility.yul\":2158:2160   */\n      dup5\n        /* \"#utility.yul\":2150:2156   */\n      dup4\n        /* \"#utility.yul\":2146:2161   */\n      add\n        /* \"#utility.yul\":2142:2166   */\n      add\n        /* \"#utility.yul\":2135:2170   */\n      mstore\n        /* \"#utility.yul\":2189:2195   */\n      dup1\n        /* \"#utility.yul\":2179:2195   */\n      swap6\n      pop\n      pop\n      pop\n      pop\n      pop\n      pop\n        /* \"#utility.yul\":1004:2201   */\n      swap3\n      swap6\n      swap2\n      swap5\n      pop\n      swap3\n      pop\n      jump\t// out\n        /* \"#utility.yul\":2206:2553   */\n    tag_65:\n        /* \"#utility.yul\":2271:2277   */\n      0x00\n        /* \"#utility.yul\":2279:2285   */\n      dup1\n        /* \"#utility.yul\":2332:2334   */\n      0x40\n        /* \"#utility.yul\":2320:2329   */\n      dup4\n        /* \"#utility.yul\":2311:2318   */\n      dup6\n        /* \"#utility.yul\":2307:2330   */\n      sub\n        /* \"#utility.yul\":2303:2335   */\n      slt\n        /* \"#utility.yul\":2300:2352   */\n      iszero\n      tag_241\n      jumpi\n        /* \"#utility.yul\":2348:2349   */\n      0x00\n        /* \"#utility.yul\":2345:2346   */\n      dup1\n        /* \"#utility.yul\":2338:2350   */\n      revert\n        /* \"#utility.yul\":2300:2352   */\n    tag_241:\n        /* \"#utility.yul\":2371:2400   */\n      tag_242\n        /* \"#utility.yul\":2390:2399   */\n      dup4\n        /* \"#utility.yul\":2371:2400   */\n      tag_215\n      jump\t// in\n    tag_242:\n        /* \"#utility.yul\":2361:2400   */\n      swap2\n      pop\n        /* \"#utility.yul\":2450:2452   */\n      0x20\n        /* \"#utility.yul\":2439:2448   */\n      dup4\n        /* \"#utility.yul\":2435:2453   */\n      add\n        /* \"#utility.yul\":2422:2454   */\n      calldataload\n        /* \"#utility.yul\":2497:2502   */\n      dup1\n        /* \"#utility.yul\":2490:2503   */\n      iszero\n        /* \"#utility.yul\":2483:2504   */\n      iszero\n        /* \"#utility.yul\":2476:2481   */\n      dup2\n        /* \"#utility.yul\":2473:2505   */\n      eq\n        /* \"#utility.yul\":2463:2523   */\n      tag_243\n      jumpi\n        /* \"#utility.yul\":2519:2520   */\n      0x00\n        /* \"#utility.yul\":2516:2517   */\n      dup1\n        /* \"#utility.yul\":2509:2521   */\n      revert\n        /* \"#utility.yul\":2463:2523   */\n    tag_243:\n        /* \"#utility.yul\":2542:2547   */\n      dup1\n        /* \"#utility.yul\":2532:2547   */\n      swap2\n      pop\n      pop\n        /* \"#utility.yul\":2206:2553   */\n      swap3\n      pop\n      swap3\n      swap1\n      pop\n      jump\t// out\n        /* \"#utility.yul\":2558:2812   */\n    tag_38:\n        /* \"#utility.yul\":2626:2632   */\n      0x00\n        /* \"#utility.yul\":2634:2640   */\n      dup1\n        /* \"#utility.yul\":2687:2689   */\n      0x40\n        /* \"#utility.yul\":2675:2684   */\n      dup4\n        /* \"#utility.yul\":2666:2673   */\n      dup6\n        /* \"#utility.yul\":2662:2685   */\n      sub\n        /* \"#utility.yul\":2658:2690   */\n      slt\n        /* \"#utility.yul\":2655:2707   */\n      iszero\n      tag_245\n      jumpi\n        /* \"#utility.yul\":2703:2704   */\n      0x00\n        /* \"#utility.yul\":2700:2701   */\n      dup1\n        /* \"#utility.yul\":2693:2705   */\n      revert\n        /* \"#utility.yul\":2655:2707   */\n    tag_245:\n        /* \"#utility.yul\":2726:2755   */\n      tag_246\n        /* \"#utility.yul\":2745:2754   */\n      dup4\n        /* \"#utility.yul\":2726:2755   */\n      tag_215\n      jump\t// in\n    tag_246:\n        /* \"#utility.yul\":2716:2755   */\n      swap5\n        /* \"#utility.yul\":2802:2804   */\n      0x20\n        /* \"#utility.yul\":2787:2805   */\n      swap4\n      swap1\n      swap4\n      add\n        /* \"#utility.yul\":2774:2806   */\n      calldataload\n      swap4\n      pop\n      pop\n      pop\n        /* \"#utility.yul\":2558:2812   */\n      jump\t// out\n        /* \"#utility.yul\":2817:3062   */\n    tag_22:\n        /* \"#utility.yul\":2875:2881   */\n      0x00\n        /* \"#utility.yul\":2928:2930   */\n      0x20\n        /* \"#utility.yul\":2916:2925   */\n      dup3\n        /* \"#utility.yul\":2907:2914   */\n      dup5\n        /* \"#utility.yul\":2903:2926   */\n      sub\n        /* \"#utility.yul\":2899:2931   */\n      slt\n        /* \"#utility.yul\":2896:2948   */\n      iszero\n      tag_248\n      jumpi\n        /* \"#utility.yul\":2944:2945   */\n      0x00\n        /* \"#utility.yul\":2941:2942   */\n      dup1\n        /* \"#utility.yul\":2934:2946   */\n      revert\n        /* \"#utility.yul\":2896:2948   */\n    tag_248:\n        /* \"#utility.yul\":2983:2992   */\n      dup2\n        /* \"#utility.yul\":2970:2993   */\n      calldataload\n        /* \"#utility.yul\":3002:3032   */\n      tag_145\n        /* \"#utility.yul\":3026:3031   */\n      dup2\n        /* \"#utility.yul\":3002:3032   */\n      tag_250\n      jump\t// in\n        /* \"#utility.yul\":3067:3316   */\n    tag_201:\n        /* \"#utility.yul\":3136:3142   */\n      0x00\n        /* \"#utility.yul\":3189:3191   */\n      0x20\n        /* \"#utility.yul\":3177:3186   */\n      dup3\n        /* \"#utility.yul\":3168:3175   */\n      dup5\n        /* \"#utility.yul\":3164:3187   */\n      sub\n        /* \"#utility.yul\":3160:3192   */\n      slt\n        /* \"#utility.yul\":3157:3209   */\n      iszero\n      tag_252\n      jumpi\n        /* \"#utility.yul\":3205:3206   */\n      0x00\n        /* \"#utility.yul\":3202:3203   */\n      dup1\n        /* \"#utility.yul\":3195:3207   */\n      revert\n        /* \"#utility.yul\":3157:3209   */\n    tag_252:\n        /* \"#utility.yul\":3237:3246   */\n      dup2\n        /* \"#utility.yul\":3231:3247   */\n      mload\n        /* \"#utility.yul\":3256:3286   */\n      tag_145\n        /* \"#utility.yul\":3280:3285   */\n      dup2\n        /* \"#utility.yul\":3256:3286   */\n      tag_250\n      jump\t// in\n        /* \"#utility.yul\":3321:3501   */\n    tag_32:\n        /* \"#utility.yul\":3380:3386   */\n      0x00\n        /* \"#utility.yul\":3433:3435   */\n      0x20\n        /* \"#utility.yul\":3421:3430   */\n      dup3\n        /* \"#utility.yul\":3412:3419   */\n      dup5\n        /* \"#utility.yul\":3408:3431   */\n      sub\n        /* \"#utility.yul\":3404:3436   */\n      slt\n        /* \"#utility.yul\":3401:3453   */\n      iszero\n      tag_255\n      jumpi\n        /* \"#utility.yul\":3449:3450   */\n      0x00\n        /* \"#utility.yul\":3446:3447   */\n      dup1\n        /* \"#utility.yul\":3439:3451   */\n      revert\n        /* \"#utility.yul\":3401:3453   */\n    tag_255:\n      pop\n        /* \"#utility.yul\":3472:3495   */\n      calldataload\n      swap2\n        /* \"#utility.yul\":3321:3501   */\n      swap1\n      pop\n      jump\t// out\n        /* \"#utility.yul\":3506:3822   */\n    tag_256:\n        /* \"#utility.yul\":3547:3550   */\n      0x00\n        /* \"#utility.yul\":3585:3590   */\n      dup2\n        /* \"#utility.yul\":3579:3591   */\n      mload\n        /* \"#utility.yul\":3612:3618   */\n      dup1\n        /* \"#utility.yul\":3607:3610   */\n      dup5\n        /* \"#utility.yul\":3600:3619   */\n      mstore\n        /* \"#utility.yul\":3628:3691   */\n      tag_258\n        /* \"#utility.yul\":3684:3690   */\n      dup2\n        /* \"#utility.yul\":3677:3681   */\n      0x20\n        /* \"#utility.yul\":3672:3675   */\n      dup7\n        /* \"#utility.yul\":3668:3682   */\n      add\n        /* \"#utility.yul\":3661:3665   */\n      0x20\n        /* \"#utility.yul\":3654:3659   */\n      dup7\n        /* \"#utility.yul\":3650:3666   */\n      add\n        /* \"#utility.yul\":3628:3691   */\n      tag_259\n      jump\t// in\n    tag_258:\n        /* \"#utility.yul\":3736:3738   */\n      0x1f\n        /* \"#utility.yul\":3724:3739   */\n      add\n        /* \"#utility.yul\":3741:3807   */\n      0xffffffffffffffffffffffffffffffffffffffffffffffffffffffffffffffe0\n        /* \"#utility.yul\":3720:3808   */\n      and\n        /* \"#utility.yul\":3711:3809   */\n      swap3\n      swap1\n      swap3\n      add\n        /* \"#utility.yul\":3811:3815   */\n      0x20\n        /* \"#utility.yul\":3707:3816   */\n      add\n      swap3\n        /* \"#utility.yul\":3506:3822   */\n      swap2\n      pop\n      pop\n      jump\t// out\n        /* \"#utility.yul\":3827:4297   */\n    tag_149:\n        /* \"#utility.yul\":4006:4009   */\n      0x00\n        /* \"#utility.yul\":4044:4050   */\n      dup4\n        /* \"#utility.yul\":4038:4051   */\n      mload\n        /* \"#utility.yul\":4060:4113   */\n      tag_261\n        /* \"#utility.yul\":4106:4112   */\n      dup2\n        /* \"#utility.yul\":4101:4104   */\n      dup5\n        /* \"#utility.yul\":4094:4098   */\n      0x20\n        /* \"#utility.yul\":4086:4092   */\n      dup9\n        /* \"#utility.yul\":4082:4099   */\n      add\n        /* \"#utility.yul\":4060:4113   */\n      tag_259\n      jump\t// in\n    tag_261:\n        /* \"#utility.yul\":4176:4189   */\n      dup4\n      mload\n        /* \"#utility.yul\":4135:4151   */\n      swap1\n      dup4\n      add\n      swap1\n        /* \"#utility.yul\":4198:4255   */\n      tag_262\n        /* \"#utility.yul\":4176:4189   */\n      dup2\n        /* \"#utility.yul\":4135:4151   */\n      dup4\n        /* \"#utility.yul\":4232:4236   */\n      0x20\n        /* \"#utility.yul\":4220:4237   */\n      dup9\n      add\n        /* \"#utility.yul\":4198:4255   */\n      tag_259\n      jump\t// in\n    tag_262:\n        /* \"#utility.yul\":4271:4291   */\n      add\n      swap5\n        /* \"#utility.yul\":3827:4297   */\n      swap4\n      pop\n      pop\n      pop\n      pop\n      jump\t// out\n        /* \"#utility.yul\":4936:5447   */\n    tag_197:\n        /* \"#utility.yul\":5130:5134   */\n      0x00\n        /* \"#utility.yul\":5159:5201   */\n      0xffffffffffffffffffffffffffffffffffffffff\n        /* \"#utility.yul\":5240:5242   */\n      dup1\n        /* \"#utility.yul\":5232:5238   */\n      dup8\n        /* \"#utility.yul\":5228:5243   */\n      and\n        /* \"#utility.yul\":5217:5226   */\n      dup4\n        /* \"#utility.yul\":5210:5244   */\n      mstore\n        /* \"#utility.yul\":5292:5294   */\n      dup1\n        /* \"#utility.yul\":5284:5290   */\n      dup7\n        /* \"#utility.yul\":5280:5295   */\n      and\n        /* \"#utility.yul\":5275:5277   */\n      0x20\n        /* \"#utility.yul\":5264:5273   */\n      dup5\n        /* \"#utility.yul\":5260:5278   */\n      add\n        /* \"#utility.yul\":5253:5296   */\n      mstore\n      pop\n        /* \"#utility.yul\":5332:5338   */\n      dup4\n        /* \"#utility.yul\":5327:5329   */\n      0x40\n        /* \"#utility.yul\":5316:5325   */\n      dup4\n        /* \"#utility.yul\":5312:5330   */\n      add\n        /* \"#utility.yul\":5305:5339   */\n      mstore\n        /* \"#utility.yul\":5375:5378   */\n      0x80\n        /* \"#utility.yul\":5370:5372   */\n      0x60\n        /* \"#utility.yul\":5359:5368   */\n      dup4\n        /* \"#utility.yul\":5355:5373   */\n      add\n        /* \"#utility.yul\":5348:5379   */\n      mstore\n        /* \"#utility.yul\":5396:5441   */\n      tag_266\n        /* \"#utility.yul\":5436:5439   */\n      0x80\n        /* \"#utility.yul\":5425:5434   */\n      dup4\n        /* \"#utility.yul\":5421:5440   */\n      add\n        /* \"#utility.yul\":5413:5419   */\n      dup5\n        /* \"#utility.yul\":5396:5441   */\n      tag_256\n      jump\t// in\n    tag_266:\n        /* \"#utility.yul\":5388:5441   */\n      swap7\n        /* \"#utility.yul\":4936:5447   */\n      swap6\n      pop\n      pop\n      pop\n      pop\n      pop\n      pop\n      jump\t// out\n        /* \"#utility.yul\":5644:5863   */\n    tag_29:\n        /* \"#utility.yul\":5793:5795   */\n      0x20\n        /* \"#utility.yul\":5782:5791   */\n      dup2\n        /* \"#utility.yul\":5775:5796   */\n      mstore\n        /* \"#utility.yul\":5756:5760   */\n      0x00\n        /* \"#utility.yul\":5813:5857   */\n      tag_145\n        /* \"#utility.yul\":5853:5855   */\n      0x20\n        /* \"#utility.yul\":5842:5851   */\n      dup4\n        /* \"#utility.yul\":5838:5856   */\n      add\n        /* \"#utility.yul\":5830:5836   */\n      dup5\n        /* \"#utility.yul\":5813:5857   */\n      tag_256\n      jump\t// in\n        /* \"#utility.yul\":8495:8623   */\n    tag_166:\n        /* \"#utility.yul\":8535:8538   */\n      0x00\n        /* \"#utility.yul\":8566:8567   */\n      dup3\n        /* \"#utility.yul\":8562:8568   */\n      not\n        /* \"#utility.yul\":8559:8560   */\n      dup3\n        /* \"#utility.yul\":8556:8569   */\n      gt\n        /* \"#utility.yul\":8553:8592   */\n      iszero\n      tag_280\n      jumpi\n        /* \"#utility.yul\":8572:8590   */\n      tag_280\n      tag_281\n      jump\t// in\n    tag_280:\n      pop\n        /* \"#utility.yul\":8608:8617   */\n      add\n      swap1\n        /* \"#utility.yul\":8495:8623   */\n      jump\t// out\n        /* \"#utility.yul\":8628:8748   */\n    tag_179:\n        /* \"#utility.yul\":8668:8669   */\n      0x00\n        /* \"#utility.yul\":8694:8695   */\n      dup3\n        /* \"#utility.yul\":8684:8719   */\n      tag_284\n      jumpi\n        /* \"#utility.yul\":8699:8717   */\n      tag_284\n      tag_285\n      jump\t// in\n    tag_284:\n      pop\n        /* \"#utility.yul\":8733:8742   */\n      div\n      swap1\n        /* \"#utility.yul\":8628:8748   */\n      jump\t// out\n        /* \"#utility.yul\":8753:8878   */\n    tag_164:\n        /* \"#utility.yul\":8793:8797   */\n      0x00\n        /* \"#utility.yul\":8821:8822   */\n      dup3\n        /* \"#utility.yul\":8818:8819   */\n      dup3\n        /* \"#utility.yul\":8815:8823   */\n      lt\n        /* \"#utility.yul\":8812:8846   */\n      iszero\n      tag_288\n      jumpi\n        /* \"#utility.yul\":8826:8844   */\n      tag_288\n      tag_281\n      jump\t// in\n    tag_288:\n      pop\n        /* \"#utility.yul\":8863:8872   */\n      sub\n      swap1\n        /* \"#utility.yul\":8753:8878   */\n      jump\t// out\n        /* \"#utility.yul\":8883:9141   */\n    tag_259:\n        /* \"#utility.yul\":8955:8956   */\n      0x00\n        /* \"#utility.yul\":8965:9078   */\n    tag_290:\n        /* \"#utility.yul\":8979:8985   */\n      dup4\n        /* \"#utility.yul\":8976:8977   */\n      dup2\n        /* \"#utility.yul\":8973:8986   */\n      lt\n        /* \"#utility.yul\":8965:9078   */\n      iszero\n      tag_292\n      jumpi\n        /* \"#utility.yul\":9055:9066   */\n      dup2\n      dup2\n      add\n        /* \"#utility.yul\":9049:9067   */\n      mload\n        /* \"#utility.yul\":9036:9047   */\n      dup4\n      dup3\n      add\n        /* \"#utility.yul\":9029:9068   */\n      mstore\n        /* \"#utility.yul\":9001:9003   */\n      0x20\n        /* \"#utility.yul\":8994:9004   */\n      add\n        /* \"#utility.yul\":8965:9078   */\n      jump(tag_290)\n    tag_292:\n        /* \"#utility.yul\":9096:9102   */\n      dup4\n        /* \"#utility.yul\":9093:9094   */\n      dup2\n        /* \"#utility.yul\":9090:9103   */\n      gt\n        /* \"#utility.yul\":9087:9135   */\n      iszero\n      tag_107\n      jumpi\n      pop\n      pop\n        /* \"#utility.yul\":9131:9132   */\n      0x00\n        /* \"#utility.yul\":9113:9129   */\n      swap2\n      add\n        /* \"#utility.yul\":9106:9133   */\n      mstore\n        /* \"#utility.yul\":8883:9141   */\n      jump\t// out\n        /* \"#utility.yul\":9146:9583   */\n    tag_84:\n        /* \"#utility.yul\":9225:9226   */\n      0x01\n        /* \"#utility.yul\":9221:9233   */\n      dup2\n      dup2\n      shr\n      swap1\n        /* \"#utility.yul\":9268:9280   */\n      dup3\n      and\n      dup1\n        /* \"#utility.yul\":9289:9350   */\n      tag_295\n      jumpi\n        /* \"#utility.yul\":9343:9347   */\n      0x7f\n        /* \"#utility.yul\":9335:9341   */\n      dup3\n        /* \"#utility.yul\":9331:9348   */\n      and\n        /* \"#utility.yul\":9321:9348   */\n      swap2\n      pop\n        /* \"#utility.yul\":9289:9350   */\n    tag_295:\n        /* \"#utility.yul\":9396:9398   */\n      0x20\n        /* \"#utility.yul\":9388:9394   */\n      dup3\n        /* \"#utility.yul\":9385:9399   */\n      lt\n        /* \"#utility.yul\":9365:9383   */\n      dup2\n        /* \"#utility.yul\":9362:9400   */\n      eq\n        /* \"#utility.yul\":9359:9577   */\n      iszero\n      tag_296\n      jumpi\n        /* \"#utility.yul\":9433:9510   */\n      0x4e487b7100000000000000000000000000000000000000000000000000000000\n        /* \"#utility.yul\":9430:9431   */\n      0x00\n        /* \"#utility.yul\":9423:9511   */\n      mstore\n        /* \"#utility.yul\":9534:9538   */\n      0x22\n        /* \"#utility.yul\":9531:9532   */\n      0x04\n        /* \"#utility.yul\":9524:9539   */\n      mstore\n        /* \"#utility.yul\":9562:9566   */\n      0x24\n        /* \"#utility.yul\":9559:9560   */\n      0x00\n        /* \"#utility.yul\":9552:9567   */\n      revert\n        /* \"#utility.yul\":9359:9577   */\n    tag_296:\n      pop\n        /* \"#utility.yul\":9146:9583   */\n      swap2\n      swap1\n      pop\n      jump\t// out\n        /* \"#utility.yul\":9588:9783   */\n    tag_177:\n        /* \"#utility.yul\":9627:9630   */\n      0x00\n        /* \"#utility.yul\":9658:9724   */\n      0xffffffffffffffffffffffffffffffffffffffffffffffffffffffffffffffff\n        /* \"#utility.yul\":9651:9656   */\n      dup3\n        /* \"#utility.yul\":9648:9725   */\n      eq\n        /* \"#utility.yul\":9645:9748   */\n      iszero\n      tag_299\n      jumpi\n        /* \"#utility.yul\":9728:9746   */\n      tag_299\n      tag_281\n      jump\t// in\n    tag_299:\n      pop\n        /* \"#utility.yul\":9775:9776   */\n      0x01\n        /* \"#utility.yul\":9764:9777   */\n      add\n      swap1\n        /* \"#utility.yul\":9588:9783   */\n      jump\t// out\n        /* \"#utility.yul\":9788:9900   */\n    tag_188:\n        /* \"#utility.yul\":9820:9821   */\n      0x00\n        /* \"#utility.yul\":9846:9847   */\n      dup3\n        /* \"#utility.yul\":9836:9871   */\n      tag_302\n      jumpi\n        /* \"#utility.yul\":9851:9869   */\n      tag_302\n      tag_285\n      jump\t// in\n    tag_302:\n      pop\n        /* \"#utility.yul\":9885:9894   */\n      mod\n      swap1\n        /* \"#utility.yul\":9788:9900   */\n      jump\t// out\n        /* \"#utility.yul\":9905:10089   */\n    tag_281:\n        /* \"#utility.yul\":9957:10034   */\n      0x4e487b7100000000000000000000000000000000000000000000000000000000\n        /* \"#utility.yul\":9954:9955   */\n      0x00\n        /* \"#utility.yul\":9947:10035   */\n      mstore\n        /* \"#utility.yul\":10054:10058   */\n      0x11\n        /* \"#utility.yul\":10051:10052   */\n      0x04\n        /* \"#utility.yul\":10044:10059   */\n      mstore\n        /* \"#utility.yul\":10078:10082   */\n      0x24\n        /* \"#utility.yul\":10075:10076   */\n      0x00\n        /* \"#utility.yul\":10068:10083   */\n      revert\n        /* \"#utility.yul\":10094:10278   */\n    tag_285:\n        /* \"#utility.yul\":10146:10223   */\n      0x4e487b7100000000000000000000000000000000000000000000000000000000\n        /* \"#utility.yul\":10143:10144   */\n      0x00\n        /* \"#utility.yul\":10136:10224   */\n      mstore\n        /* \"#utility.yul\":10243:10247   */\n      0x12\n        /* \"#utility.yul\":10240:10241   */\n      0x04\n        /* \"#utility.yul\":10233:10248   */\n      mstore\n        /* \"#utility.yul\":10267:10271   */\n      0x24\n        /* \"#utility.yul\":10264:10265   */\n      0x00\n        /* \"#utility.yul\":10257:10272   */\n      revert\n        /* \"#utility.yul\":10283:10467   */\n    tag_192:\n        /* \"#utility.yul\":10335:10412   */\n      0x4e487b7100000000000000000000000000000000000000000000000000000000\n        /* \"#utility.yul\":10332:10333   */\n      0x00\n        /* \"#utility.yul\":10325:10413   */\n      mstore\n        /* \"#utility.yul\":10432:10436   */\n      0x32\n        /* \"#utility.yul\":10429:10430   */\n      0x04\n        /* \"#utility.yul\":10422:10437   */\n      mstore\n        /* \"#utility.yul\":10456:10460   */\n      0x24\n        /* \"#utility.yul\":10453:10454   */\n      0x00\n        /* \"#utility.yul\":10446:10461   */\n      revert\n        /* \"#utility.yul\":10472:10656   */\n    tag_182:\n        /* \"#utility.yul\":10524:10601   */\n      0x4e487b7100000000000000000000000000000000000000000000000000000000\n        /* \"#utility.yul\":10521:10522   */\n      0x00\n        /* \"#utility.yul\":10514:10602   */\n      mstore\n        /* \"#utility.yul\":10621:10625   */\n      0x41\n        /* \"#utility.yul\":10618:10619   */\n      0x04\n        /* \"#utility.yul\":10611:10626   */\n      mstore\n        /* \"#utility.yul\":10645:10649   */\n      0x24\n        /* \"#utility.yul\":10642:10643   */\n      0x00\n        /* \"#utility.yul\":10635:10650   */\n      revert\n        /* \"#utility.yul\":10661:10838   */\n    tag_250:\n        /* \"#utility.yul\":10746:10812   */\n      0xffffffff00000000000000000000000000000000000000000000000000000000\n        /* \"#utility.yul\":10739:10744   */\n      dup2\n        /* \"#utility.yul\":10735:10813   */\n      and\n        /* \"#utility.yul\":10728:10733   */\n      dup2\n        /* \"#utility.yul\":10725:10814   */\n      eq\n        /* \"#utility.yul\":10715:10832   */\n      tag_308\n      jumpi\n        /* \"#utility.yul\":10828:10829   */\n      0x00\n        /* \"#utility.yul\":10825:10826   */\n      dup1\n        /* \"#utility.yul\":10818:10830   */\n      revert\n        /* \"#utility.yul\":10715:10832   */\n    tag_308:\n        /* \"#utility.yul\":10661:10838   */\n      pop\n      jump\t// out\n\n    auxdata: 0xa2646970667358221220e64bd817769007f9a84bb32ac1736de661f9b0b477d3cdde1a73b6f793f2df4864736f6c63430008070033\n}\n",
				"bytecode": {
					"linkReferences": {},
					"object": "60806040523480156200001157600080fd5b506040516200189e3803806200189e8339810160408190526200003491620001cb565b8151829082906200004d9060009060208501906200006e565b508051620000639060019060208401906200006e565b505050505062000288565b8280546200007c9062000235565b90600052602060002090601f016020900481019282620000a05760008555620000eb565b82601f10620000bb57805160ff1916838001178555620000eb565b82800160010185558215620000eb579182015b82811115620000eb578251825591602001919060010190620000ce565b50620000f9929150620000fd565b5090565b5b80821115620000f95760008155600101620000fe565b600082601f8301126200012657600080fd5b81516001600160401b038082111562000143576200014362000272565b604051601f8301601f19908116603f011681019082821181831017156200016e576200016e62000272565b816040528381526020925086838588010111156200018b57600080fd5b600091505b83821015620001af578582018301518183018401529082019062000190565b83821115620001c15760008385830101525b9695505050505050565b60008060408385031215620001df57600080fd5b82516001600160401b0380821115620001f757600080fd5b620002058683870162000114565b935060208501519150808211156200021c57600080fd5b506200022b8582860162000114565b9150509250929050565b600181811c908216806200024a57607f821691505b602082108114156200026c57634e487b7160e01b600052602260045260246000fd5b50919050565b634e487b7160e01b600052604160045260246000fd5b61160680620002986000396000f3fe608060405234801561001057600080fd5b50600436106100ea5760003560e01c806370a082311161008c578063a22cb46511610066578063a22cb465146101ee578063b88d4fde14610201578063c87b56dd14610214578063e985e9c51461022757600080fd5b806370a08231146101b257806395d89b41146101d35780639fc2ee4b146101db57600080fd5b8063095ea7b3116100c8578063095ea7b31461016457806323b872dd1461017957806342842e0e1461018c5780636352211e1461019f57600080fd5b806301ffc9a7146100ef57806306fdde0314610117578063081812fc1461012c575b600080fd5b6101026100fd3660046112ab565b610270565b60405190151581526020015b60405180910390f35b61011f610355565b60405161010e91906113c0565b61013f61013a3660046112e5565b6103e3565b60405173ffffffffffffffffffffffffffffffffffffffff909116815260200161010e565b610177610172366004611281565b61049c565b005b61017761018736600461110f565b610575565b61017761019a36600461110f565b610605565b61013f6101ad3660046112e5565b610620565b6101c56101c03660046110c1565b6106b1565b60405190815260200161010e565b61011f610759565b6101776101e936600461110f565b610766565b6101776101fc366004611245565b6107f9565b61017761020f36600461114b565b610890565b61011f6102223660046112e5565b610922565b6101026102353660046110dc565b73ffffffffffffffffffffffffffffffffffffffff918216600090815260056020908152604080832093909416825291909152205460ff1690565b60007fffffffff0000000000000000000000000000000000000000000000000000000082167f80ac58cd00000000000000000000000000000000000000000000000000000000148061030357507fffffffff0000000000000000000000000000000000000000000000000000000082167f01ffc9a700000000000000000000000000000000000000000000000000000000145b8061034f57507fffffffff0000000000000000000000000000000000000000000000000000000082167f5b5e139f00000000000000000000000000000000000000000000000000000000145b92915050565b6000805461036290611442565b80601f016020809104026020016040519081016040528092919081815260200182805461038e90611442565b80156103db5780601f106103b0576101008083540402835291602001916103db565b820191906000526020600020905b8154815290600101906020018083116103be57829003601f168201915b505050505081565b60008181526002602052604081205473ffffffffffffffffffffffffffffffffffffffff16610473576040517f08c379a000000000000000000000000000000000000000000000000000000000815260206004820152601360248201527f746f6b656e20646f65736e27742065786973740000000000000000000000000060448201526064015b60405180910390fd5b5060009081526004602052604090205473ffffffffffffffffffffffffffffffffffffffff1690565b60008181526002602052604090205473ffffffffffffffffffffffffffffffffffffffff16338114806104ff575073ffffffffffffffffffffffffffffffffffffffff8116600090815260056020908152604080832033845290915290205460ff165b610565576040517f08c379a000000000000000000000000000000000000000000000000000000000815260206004820152601e60248201527f6e6f74206f776e6572206e6f7220617070726f76656420666f7220616c6c0000604482015260640161046a565b610570818484610a19565b505050565b600061058082610620565b905061058d813384610a9a565b6105f3576040517f08c379a000000000000000000000000000000000000000000000000000000000815260206004820152601660248201527f6e6f74206f776e6572206e6f7220617070726f76656400000000000000000000604482015260640161046a565b6105ff81858585610b41565b50505050565b61057083838360405180602001604052806000815250610890565b60008181526002602052604090205473ffffffffffffffffffffffffffffffffffffffff16806106ac576040517f08c379a000000000000000000000000000000000000000000000000000000000815260206004820152601360248201527f746f6b656e20646f65736e277420657869737400000000000000000000000000604482015260640161046a565b919050565b600073ffffffffffffffffffffffffffffffffffffffff8216610730576040517f08c379a000000000000000000000000000000000000000000000000000000000815260206004820152601460248201527f6f776e6572203d207a65726f2061646472657373000000000000000000000000604482015260640161046a565b5073ffffffffffffffffffffffffffffffffffffffff1660009081526003602052604090205490565b6001805461036290611442565b6040517f23b872dd00000000000000000000000000000000000000000000000000000000815273ffffffffffffffffffffffffffffffffffffffff8085166004830152831660248201526044810182905230906323b872dd90606401600060405180830381600087803b1580156107dc57600080fd5b505af11580156107f0573d6000803e3d6000fd5b50505050505050565b33600081815260056020908152604080832073ffffffffffffffffffffffffffffffffffffffff87168085529083529281902080547fffffffffffffffffffffffffffffffffffffffffffffffffffffffffffffff001686151590811790915590519081529192917f17307eab39ab6107e8899845ad3d59bd9653f200f220920489ca2b5937696c31910160405180910390a35050565b600061089b83610620565b90506108a8813385610a9a565b61090e576040517f08c379a000000000000000000000000000000000000000000000000000000000815260206004820152601660248201527f6e6f74206f776e6572206e6f7220617070726f76656400000000000000000000604482015260640161046a565b61091b8186868686610d57565b5050505050565b60008181526002602052604090205460609073ffffffffffffffffffffffffffffffffffffffff166109b0576040517f08c379a000000000000000000000000000000000000000000000000000000000815260206004820152600f60248201527f546f6b656e204e6f742045786973740000000000000000000000000000000000604482015260640161046a565b60006109c760408051602081019091526000815290565b905060008151116109e75760405180602001604052806000815250610a12565b806109f184610d6f565b604051602001610a02929190611348565b6040516020818303038152906040525b9392505050565b60008181526004602052604080822080547fffffffffffffffffffffffff00000000000000000000000000000000000000001673ffffffffffffffffffffffffffffffffffffffff86811691821790925591518493918716917f8c5be1e5ebec7d5bd14f71427d1e84f3dd0314c0f7b2291e5b200ac8c7c3b92591a4505050565b60008373ffffffffffffffffffffffffffffffffffffffff168373ffffffffffffffffffffffffffffffffffffffff161480610afc575060008281526004602052604090205473ffffffffffffffffffffffffffffffffffffffff8481169116145b80610b39575073ffffffffffffffffffffffffffffffffffffffff80851660009081526005602090815260408083209387168352929052205460ff165b949350505050565b8373ffffffffffffffffffffffffffffffffffffffff168373ffffffffffffffffffffffffffffffffffffffff1614610bd6576040517f08c379a000000000000000000000000000000000000000000000000000000000815260206004820152600960248201527f6e6f74206f776e65720000000000000000000000000000000000000000000000604482015260640161046a565b73ffffffffffffffffffffffffffffffffffffffff8216610c53576040517f08c379a000000000000000000000000000000000000000000000000000000000815260206004820152601c60248201527f7472616e7366657220746f20746865207a65726f206164647265737300000000604482015260640161046a565b610c5f84600083610a19565b73ffffffffffffffffffffffffffffffffffffffff83166000908152600360205260408120805460019290610c959084906113ff565b909155505073ffffffffffffffffffffffffffffffffffffffff82166000908152600360205260408120805460019290610cd09084906113d3565b909155505060008181526002602052604080822080547fffffffffffffffffffffffff00000000000000000000000000000000000000001673ffffffffffffffffffffffffffffffffffffffff86811691821790925591518493918716917fddf252ad1be2c89b69c2b068fc378daa952ba7f163c4a11628f55a4df523b3ef91a450505050565b610d6385858585610b41565b61091b84848484610ea1565b606081610daf57505060408051808201909152600181527f3000000000000000000000000000000000000000000000000000000000000000602082015290565b8160005b8115610dd95780610dc381611496565b9150610dd29050600a836113eb565b9150610db3565b60008167ffffffffffffffff811115610df457610df4611570565b6040519080825280601f01601f191660200182016040528015610e1e576020820181803683370190505b5090505b8415610b3957610e336001836113ff565b9150610e40600a866114cf565b610e4b9060306113d3565b60f81b818381518110610e6057610e60611541565b60200101907effffffffffffffffffffffffffffffffffffffffffffffffffffffffffffff1916908160001a905350610e9a600a866113eb565b9450610e22565b73ffffffffffffffffffffffffffffffffffffffff83163b156105ff576040517f150b7a0200000000000000000000000000000000000000000000000000000000815273ffffffffffffffffffffffffffffffffffffffff84169063150b7a0290610f16903390889087908790600401611377565b602060405180830381600087803b158015610f3057600080fd5b505af1925050508015610f7e575060408051601f3d9081017fffffffffffffffffffffffffffffffffffffffffffffffffffffffffffffffe0168201909252610f7b918101906112c8565b60015b61100a573d808015610fac576040519150601f19603f3d011682016040523d82523d6000602084013e610fb1565b606091505b508051611002576040517f64a0ae9200000000000000000000000000000000000000000000000000000000815273ffffffffffffffffffffffffffffffffffffffff8516600482015260240161046a565b805181602001fd5b7fffffffff0000000000000000000000000000000000000000000000000000000081167f150b7a02000000000000000000000000000000000000000000000000000000001461091b576040517f64a0ae9200000000000000000000000000000000000000000000000000000000815273ffffffffffffffffffffffffffffffffffffffff8516600482015260240161046a565b803573ffffffffffffffffffffffffffffffffffffffff811681146106ac57600080fd5b6000602082840312156110d357600080fd5b610a128261109d565b600080604083850312156110ef57600080fd5b6110f88361109d565b91506111066020840161109d565b90509250929050565b60008060006060848603121561112457600080fd5b61112d8461109d565b925061113b6020850161109d565b9150604084013590509250925092565b6000806000806080858703121561116157600080fd5b61116a8561109d565b93506111786020860161109d565b925060408501359150606085013567ffffffffffffffff8082111561119c57600080fd5b818701915087601f8301126111b057600080fd5b8135818111156111c2576111c2611570565b604051601f82017fffffffffffffffffffffffffffffffffffffffffffffffffffffffffffffffe0908116603f0116810190838211818310171561120857611208611570565b816040528281528a602084870101111561122157600080fd5b82602086016020830137600060208483010152809550505050505092959194509250565b6000806040838503121561125857600080fd5b6112618361109d565b91506020830135801515811461127657600080fd5b809150509250929050565b6000806040838503121561129457600080fd5b61129d8361109d565b946020939093013593505050565b6000602082840312156112bd57600080fd5b8135610a128161159f565b6000602082840312156112da57600080fd5b8151610a128161159f565b6000602082840312156112f757600080fd5b5035919050565b60008151808452611316816020860160208601611416565b601f017fffffffffffffffffffffffffffffffffffffffffffffffffffffffffffffffe0169290920160200192915050565b6000835161135a818460208801611416565b83519083019061136e818360208801611416565b01949350505050565b600073ffffffffffffffffffffffffffffffffffffffff8087168352808616602084015250836040830152608060608301526113b660808301846112fe565b9695505050505050565b602081526000610a1260208301846112fe565b600082198211156113e6576113e66114e3565b500190565b6000826113fa576113fa611512565b500490565b600082821015611411576114116114e3565b500390565b60005b83811015611431578181015183820152602001611419565b838111156105ff5750506000910152565b600181811c9082168061145657607f821691505b60208210811415611490577f4e487b7100000000000000000000000000000000000000000000000000000000600052602260045260246000fd5b50919050565b60007fffffffffffffffffffffffffffffffffffffffffffffffffffffffffffffffff8214156114c8576114c86114e3565b5060010190565b6000826114de576114de611512565b500690565b7f4e487b7100000000000000000000000000000000000000000000000000000000600052601160045260246000fd5b7f4e487b7100000000000000000000000000000000000000000000000000000000600052601260045260246000fd5b7f4e487b7100000000000000000000000000000000000000000000000000000000600052603260045260246000fd5b7f4e487b7100000000000000000000000000000000000000000000000000000000600052604160045260246000fd5b7fffffffff00000000000000000000000000000000000000000000000000000000811681146115cd57600080fd5b5056fea2646970667358221220e64bd817769007f9a84bb32ac1736de661f9b0b477d3cdde1a73b6f793f2df4864736f6c63430008070033",
					"opcodes": "PUSH1 0x80 PUSH1 0x40 MSTORE CALLVALUE DUP1 ISZERO PUSH3 0x11 JUMPI PUSH1 0x0 DUP1 REVERT JUMPDEST POP PUSH1 0x40 MLOAD PUSH3 0x189E CODESIZE SUB DUP1 PUSH3 0x189E DUP4 CODECOPY DUP2 ADD PUSH1 0x40 DUP2 SWAP1 MSTORE PUSH3 0x34 SWAP2 PUSH3 0x1CB JUMP JUMPDEST DUP2 MLOAD DUP3 SWAP1 DUP3 SWAP1 PUSH3 0x4D SWAP1 PUSH1 0x0 SWAP1 PUSH1 0x20 DUP6 ADD SWAP1 PUSH3 0x6E JUMP JUMPDEST POP DUP1 MLOAD PUSH3 0x63 SWAP1 PUSH1 0x1 SWAP1 PUSH1 0x20 DUP5 ADD SWAP1 PUSH3 0x6E JUMP JUMPDEST POP POP POP POP POP PUSH3 0x288 JUMP JUMPDEST DUP3 DUP1 SLOAD PUSH3 0x7C SWAP1 PUSH3 0x235 JUMP JUMPDEST SWAP1 PUSH1 0x0 MSTORE PUSH1 0x20 PUSH1 0x0 KECCAK256 SWAP1 PUSH1 0x1F ADD PUSH1 0x20 SWAP1 DIV DUP2 ADD SWAP3 DUP3 PUSH3 0xA0 JUMPI PUSH1 0x0 DUP6 SSTORE PUSH3 0xEB JUMP JUMPDEST DUP3 PUSH1 0x1F LT PUSH3 0xBB JUMPI DUP1 MLOAD PUSH1 0xFF NOT AND DUP4 DUP1 ADD OR DUP6 SSTORE PUSH3 0xEB JUMP JUMPDEST DUP3 DUP1 ADD PUSH1 0x1 ADD DUP6 SSTORE DUP3 ISZERO PUSH3 0xEB JUMPI SWAP2 DUP3 ADD JUMPDEST DUP3 DUP2 GT ISZERO PUSH3 0xEB JUMPI DUP3 MLOAD DUP3 SSTORE SWAP2 PUSH1 0x20 ADD SWAP2 SWAP1 PUSH1 0x1 ADD SWAP1 PUSH3 0xCE JUMP JUMPDEST POP PUSH3 0xF9 SWAP3 SWAP2 POP PUSH3 0xFD JUMP JUMPDEST POP SWAP1 JUMP JUMPDEST JUMPDEST DUP1 DUP3 GT ISZERO PUSH3 0xF9 JUMPI PUSH1 0x0 DUP2 SSTORE PUSH1 0x1 ADD PUSH3 0xFE JUMP JUMPDEST PUSH1 0x0 DUP3 PUSH1 0x1F DUP4 ADD SLT PUSH3 0x126 JUMPI PUSH1 0x0 DUP1 REVERT JUMPDEST DUP2 MLOAD PUSH1 0x1 PUSH1 0x1 PUSH1 0x40 SHL SUB DUP1 DUP3 GT ISZERO PUSH3 0x143 JUMPI PUSH3 0x143 PUSH3 0x272 JUMP JUMPDEST PUSH1 0x40 MLOAD PUSH1 0x1F DUP4 ADD PUSH1 0x1F NOT SWAP1 DUP2 AND PUSH1 0x3F ADD AND DUP2 ADD SWAP1 DUP3 DUP3 GT DUP2 DUP4 LT OR ISZERO PUSH3 0x16E JUMPI PUSH3 0x16E PUSH3 0x272 JUMP JUMPDEST DUP2 PUSH1 0x40 MSTORE DUP4 DUP2 MSTORE PUSH1 0x20 SWAP3 POP DUP7 DUP4 DUP6 DUP9 ADD ADD GT ISZERO PUSH3 0x18B JUMPI PUSH1 0x0 DUP1 REVERT JUMPDEST PUSH1 0x0 SWAP2 POP JUMPDEST DUP4 DUP3 LT ISZERO PUSH3 0x1AF JUMPI DUP6 DUP3 ADD DUP4 ADD MLOAD DUP2 DUP4 ADD DUP5 ADD MSTORE SWAP1 DUP3 ADD SWAP1 PUSH3 0x190 JUMP JUMPDEST DUP4 DUP3 GT ISZERO PUSH3 0x1C1 JUMPI PUSH1 0x0 DUP4 DUP6 DUP4 ADD ADD MSTORE JUMPDEST SWAP7 SWAP6 POP POP POP POP POP POP JUMP JUMPDEST PUSH1 0x0 DUP1 PUSH1 0x40 DUP4 DUP6 SUB SLT ISZERO PUSH3 0x1DF JUMPI PUSH1 0x0 DUP1 REVERT JUMPDEST DUP3 MLOAD PUSH1 0x1 PUSH1 0x1 PUSH1 0x40 SHL SUB DUP1 DUP3 GT ISZERO PUSH3 0x1F7 JUMPI PUSH1 0x0 DUP1 REVERT JUMPDEST PUSH3 0x205 DUP7 DUP4 DUP8 ADD PUSH3 0x114 JUMP JUMPDEST SWAP4 POP PUSH1 0x20 DUP6 ADD MLOAD SWAP2 POP DUP1 DUP3 GT ISZERO PUSH3 0x21C JUMPI PUSH1 0x0 DUP1 REVERT JUMPDEST POP PUSH3 0x22B DUP6 DUP3 DUP7 ADD PUSH3 0x114 JUMP JUMPDEST SWAP2 POP POP SWAP3 POP SWAP3 SWAP1 POP JUMP JUMPDEST PUSH1 0x1 DUP2 DUP2 SHR SWAP1 DUP3 AND DUP1 PUSH3 0x24A JUMPI PUSH1 0x7F DUP3 AND SWAP2 POP JUMPDEST PUSH1 0x20 DUP3 LT DUP2 EQ ISZERO PUSH3 0x26C JUMPI PUSH4 0x4E487B71 PUSH1 0xE0 SHL PUSH1 0x0 MSTORE PUSH1 0x22 PUSH1 0x4 MSTORE PUSH1 0x24 PUSH1 0x0 REVERT JUMPDEST POP SWAP2 SWAP1 POP JUMP JUMPDEST PUSH4 0x4E487B71 PUSH1 0xE0 SHL PUSH1 0x0 MSTORE PUSH1 0x41 PUSH1 0x4 MSTORE PUSH1 0x24 PUSH1 0x0 REVERT JUMPDEST PUSH2 0x1606 DUP1 PUSH3 0x298 PUSH1 0x0 CODECOPY PUSH1 0x0 RETURN INVALID PUSH1 0x80 PUSH1 0x40 MSTORE CALLVALUE DUP1 ISZERO PUSH2 0x10 JUMPI PUSH1 0x0 DUP1 REVERT JUMPDEST POP PUSH1 0x4 CALLDATASIZE LT PUSH2 0xEA JUMPI PUSH1 0x0 CALLDATALOAD PUSH1 0xE0 SHR DUP1 PUSH4 0x70A08231 GT PUSH2 0x8C JUMPI DUP1 PUSH4 0xA22CB465 GT PUSH2 0x66 JUMPI DUP1 PUSH4 0xA22CB465 EQ PUSH2 0x1EE JUMPI DUP1 PUSH4 0xB88D4FDE EQ PUSH2 0x201 JUMPI DUP1 PUSH4 0xC87B56DD EQ PUSH2 0x214 JUMPI DUP1 PUSH4 0xE985E9C5 EQ PUSH2 0x227 JUMPI PUSH1 0x0 DUP1 REVERT JUMPDEST DUP1 PUSH4 0x70A08231 EQ PUSH2 0x1B2 JUMPI DUP1 PUSH4 0x95D89B41 EQ PUSH2 0x1D3 JUMPI DUP1 PUSH4 0x9FC2EE4B EQ PUSH2 0x1DB JUMPI PUSH1 0x0 DUP1 REVERT JUMPDEST DUP1 PUSH4 0x95EA7B3 GT PUSH2 0xC8 JUMPI DUP1 PUSH4 0x95EA7B3 EQ PUSH2 0x164 JUMPI DUP1 PUSH4 0x23B872DD EQ PUSH2 0x179 JUMPI DUP1 PUSH4 0x42842E0E EQ PUSH2 0x18C JUMPI DUP1 PUSH4 0x6352211E EQ PUSH2 0x19F JUMPI PUSH1 0x0 DUP1 REVERT JUMPDEST DUP1 PUSH4 0x1FFC9A7 EQ PUSH2 0xEF JUMPI DUP1 PUSH4 0x6FDDE03 EQ PUSH2 0x117 JUMPI DUP1 PUSH4 0x81812FC EQ PUSH2 0x12C JUMPI JUMPDEST PUSH1 0x0 DUP1 REVERT JUMPDEST PUSH2 0x102 PUSH2 0xFD CALLDATASIZE PUSH1 0x4 PUSH2 0x12AB JUMP JUMPDEST PUSH2 0x270 JUMP JUMPDEST PUSH1 0x40 MLOAD SWAP1 ISZERO ISZERO DUP2 MSTORE PUSH1 0x20 ADD JUMPDEST PUSH1 0x40 MLOAD DUP1 SWAP2 SUB SWAP1 RETURN JUMPDEST PUSH2 0x11F PUSH2 0x355 JUMP JUMPDEST PUSH1 0x40 MLOAD PUSH2 0x10E SWAP2 SWAP1 PUSH2 0x13C0 JUMP JUMPDEST PUSH2 0x13F PUSH2 0x13A CALLDATASIZE PUSH1 0x4 PUSH2 0x12E5 JUMP JUMPDEST PUSH2 0x3E3 JUMP JUMPDEST PUSH1 0x40 MLOAD PUSH20 0xFFFFFFFFFFFFFFFFFFFFFFFFFFFFFFFFFFFFFFFF SWAP1 SWAP2 AND DUP2 MSTORE PUSH1 0x20 ADD PUSH2 0x10E JUMP JUMPDEST PUSH2 0x177 PUSH2 0x172 CALLDATASIZE PUSH1 0x4 PUSH2 0x1281 JUMP JUMPDEST PUSH2 0x49C JUMP JUMPDEST STOP JUMPDEST PUSH2 0x177 PUSH2 0x187 CALLDATASIZE PUSH1 0x4 PUSH2 0x110F JUMP JUMPDEST PUSH2 0x575 JUMP JUMPDEST PUSH2 0x177 PUSH2 0x19A CALLDATASIZE PUSH1 0x4 PUSH2 0x110F JUMP JUMPDEST PUSH2 0x605 JUMP JUMPDEST PUSH2 0x13F PUSH2 0x1AD CALLDATASIZE PUSH1 0x4 PUSH2 0x12E5 JUMP JUMPDEST PUSH2 0x620 JUMP JUMPDEST PUSH2 0x1C5 PUSH2 0x1C0 CALLDATASIZE PUSH1 0x4 PUSH2 0x10C1 JUMP JUMPDEST PUSH2 0x6B1 JUMP JUMPDEST PUSH1 0x40 MLOAD SWAP1 DUP2 MSTORE PUSH1 0x20 ADD PUSH2 0x10E JUMP JUMPDEST PUSH2 0x11F PUSH2 0x759 JUMP JUMPDEST PUSH2 0x177 PUSH2 0x1E9 CALLDATASIZE PUSH1 0x4 PUSH2 0x110F JUMP JUMPDEST PUSH2 0x766 JUMP JUMPDEST PUSH2 0x177 PUSH2 0x1FC CALLDATASIZE PUSH1 0x4 PUSH2 0x1245 JUMP JUMPDEST PUSH2 0x7F9 JUMP JUMPDEST PUSH2 0x177 PUSH2 0x20F CALLDATASIZE PUSH1 0x4 PUSH2 0x114B JUMP JUMPDEST PUSH2 0x890 JUMP JUMPDEST PUSH2 0x11F PUSH2 0x222 CALLDATASIZE PUSH1 0x4 PUSH2 0x12E5 JUMP JUMPDEST PUSH2 0x922 JUMP JUMPDEST PUSH2 0x102 PUSH2 0x235 CALLDATASIZE PUSH1 0x4 PUSH2 0x10DC JUMP JUMPDEST PUSH20 0xFFFFFFFFFFFFFFFFFFFFFFFFFFFFFFFFFFFFFFFF SWAP2 DUP3 AND PUSH1 0x0 SWAP1 DUP2 MSTORE PUSH1 0x5 PUSH1 0x20 SWAP1 DUP2 MSTORE PUSH1 0x40 DUP1 DUP4 KECCAK256 SWAP4 SWAP1 SWAP5 AND DUP3 MSTORE SWAP2 SWAP1 SWAP2 MSTORE KECCAK256 SLOAD PUSH1 0xFF AND SWAP1 JUMP JUMPDEST PUSH1 0x0 PUSH32 0xFFFFFFFF00000000000000000000000000000000000000000000000000000000 DUP3 AND PUSH32 0x80AC58CD00000000000000000000000000000000000000000000000000000000 EQ DUP1 PUSH2 0x303 JUMPI POP PUSH32 0xFFFFFFFF00000000000000000000000000000000000000000000000000000000 DUP3 AND PUSH32 0x1FFC9A700000000000000000000000000000000000000000000000000000000 EQ JUMPDEST DUP1 PUSH2 0x34F JUMPI POP PUSH32 0xFFFFFFFF00000000000000000000000000000000000000000000000000000000 DUP3 AND PUSH32 0x5B5E139F00000000000000000000000000000000000000000000000000000000 EQ JUMPDEST SWAP3 SWAP2 POP POP JUMP JUMPDEST PUSH1 0x0 DUP1 SLOAD PUSH2 0x362 SWAP1 PUSH2 0x1442 JUMP JUMPDEST DUP1 PUSH1 0x1F ADD PUSH1 0x20 DUP1 SWAP2 DIV MUL PUSH1 0x20 ADD PUSH1 0x40 MLOAD SWAP1 DUP2 ADD PUSH1 0x40 MSTORE DUP1 SWAP3 SWAP2 SWAP1 DUP2 DUP2 MSTORE PUSH1 0x20 ADD DUP3 DUP1 SLOAD PUSH2 0x38E SWAP1 PUSH2 0x1442 JUMP JUMPDEST DUP1 ISZERO PUSH2 0x3DB JUMPI DUP1 PUSH1 0x1F LT PUSH2 0x3B0 JUMPI PUSH2 0x100 DUP1 DUP4 SLOAD DIV MUL DUP4 MSTORE SWAP2 PUSH1 0x20 ADD SWAP2 PUSH2 0x3DB JUMP JUMPDEST DUP3 ADD SWAP2 SWAP1 PUSH1 0x0 MSTORE PUSH1 0x20 PUSH1 0x0 KECCAK256 SWAP1 JUMPDEST DUP2 SLOAD DUP2 MSTORE SWAP1 PUSH1 0x1 ADD SWAP1 PUSH1 0x20 ADD DUP1 DUP4 GT PUSH2 0x3BE JUMPI DUP3 SWAP1 SUB PUSH1 0x1F AND DUP3 ADD SWAP2 JUMPDEST POP POP POP POP POP DUP2 JUMP JUMPDEST PUSH1 0x0 DUP2 DUP2 MSTORE PUSH1 0x2 PUSH1 0x20 MSTORE PUSH1 0x40 DUP2 KECCAK256 SLOAD PUSH20 0xFFFFFFFFFFFFFFFFFFFFFFFFFFFFFFFFFFFFFFFF AND PUSH2 0x473 JUMPI PUSH1 0x40 MLOAD PUSH32 0x8C379A000000000000000000000000000000000000000000000000000000000 DUP2 MSTORE PUSH1 0x20 PUSH1 0x4 DUP3 ADD MSTORE PUSH1 0x13 PUSH1 0x24 DUP3 ADD MSTORE PUSH32 0x746F6B656E20646F65736E277420657869737400000000000000000000000000 PUSH1 0x44 DUP3 ADD MSTORE PUSH1 0x64 ADD JUMPDEST PUSH1 0x40 MLOAD DUP1 SWAP2 SUB SWAP1 REVERT JUMPDEST POP PUSH1 0x0 SWAP1 DUP2 MSTORE PUSH1 0x4 PUSH1 0x20 MSTORE PUSH1 0x40 SWAP1 KECCAK256 SLOAD PUSH20 0xFFFFFFFFFFFFFFFFFFFFFFFFFFFFFFFFFFFFFFFF AND SWAP1 JUMP JUMPDEST PUSH1 0x0 DUP2 DUP2 MSTORE PUSH1 0x2 PUSH1 0x20 MSTORE PUSH1 0x40 SWAP1 KECCAK256 SLOAD PUSH20 0xFFFFFFFFFFFFFFFFFFFFFFFFFFFFFFFFFFFFFFFF AND CALLER DUP2 EQ DUP1 PUSH2 0x4FF JUMPI POP PUSH20 0xFFFFFFFFFFFFFFFFFFFFFFFFFFFFFFFFFFFFFFFF DUP2 AND PUSH1 0x0 SWAP1 DUP2 MSTORE PUSH1 0x5 PUSH1 0x20 SWAP1 DUP2 MSTORE PUSH1 0x40 DUP1 DUP4 KECCAK256 CALLER DUP5 MSTORE SWAP1 SWAP2 MSTORE SWAP1 KECCAK256 SLOAD PUSH1 0xFF AND JUMPDEST PUSH2 0x565 JUMPI PUSH1 0x40 MLOAD PUSH32 0x8C379A000000000000000000000000000000000000000000000000000000000 DUP2 MSTORE PUSH1 0x20 PUSH1 0x4 DUP3 ADD MSTORE PUSH1 0x1E PUSH1 0x24 DUP3 ADD MSTORE PUSH32 0x6E6F74206F776E6572206E6F7220617070726F76656420666F7220616C6C0000 PUSH1 0x44 DUP3 ADD MSTORE PUSH1 0x64 ADD PUSH2 0x46A JUMP JUMPDEST PUSH2 0x570 DUP2 DUP5 DUP5 PUSH2 0xA19 JUMP JUMPDEST POP POP POP JUMP JUMPDEST PUSH1 0x0 PUSH2 0x580 DUP3 PUSH2 0x620 JUMP JUMPDEST SWAP1 POP PUSH2 0x58D DUP2 CALLER DUP5 PUSH2 0xA9A JUMP JUMPDEST PUSH2 0x5F3 JUMPI PUSH1 0x40 MLOAD PUSH32 0x8C379A000000000000000000000000000000000000000000000000000000000 DUP2 MSTORE PUSH1 0x20 PUSH1 0x4 DUP3 ADD MSTORE PUSH1 0x16 PUSH1 0x24 DUP3 ADD MSTORE PUSH32 0x6E6F74206F776E6572206E6F7220617070726F76656400000000000000000000 PUSH1 0x44 DUP3 ADD MSTORE PUSH1 0x64 ADD PUSH2 0x46A JUMP JUMPDEST PUSH2 0x5FF DUP2 DUP6 DUP6 DUP6 PUSH2 0xB41 JUMP JUMPDEST POP POP POP POP JUMP JUMPDEST PUSH2 0x570 DUP4 DUP4 DUP4 PUSH1 0x40 MLOAD DUP1 PUSH1 0x20 ADD PUSH1 0x40 MSTORE DUP1 PUSH1 0x0 DUP2 MSTORE POP PUSH2 0x890 JUMP JUMPDEST PUSH1 0x0 DUP2 DUP2 MSTORE PUSH1 0x2 PUSH1 0x20 MSTORE PUSH1 0x40 SWAP1 KECCAK256 SLOAD PUSH20 0xFFFFFFFFFFFFFFFFFFFFFFFFFFFFFFFFFFFFFFFF AND DUP1 PUSH2 0x6AC JUMPI PUSH1 0x40 MLOAD PUSH32 0x8C379A000000000000000000000000000000000000000000000000000000000 DUP2 MSTORE PUSH1 0x20 PUSH1 0x4 DUP3 ADD MSTORE PUSH1 0x13 PUSH1 0x24 DUP3 ADD MSTORE PUSH32 0x746F6B656E20646F65736E277420657869737400000000000000000000000000 PUSH1 0x44 DUP3 ADD MSTORE PUSH1 0x64 ADD PUSH2 0x46A JUMP JUMPDEST SWAP2 SWAP1 POP JUMP JUMPDEST PUSH1 0x0 PUSH20 0xFFFFFFFFFFFFFFFFFFFFFFFFFFFFFFFFFFFFFFFF DUP3 AND PUSH2 0x730 JUMPI PUSH1 0x40 MLOAD PUSH32 0x8C379A000000000000000000000000000000000000000000000000000000000 DUP2 MSTORE PUSH1 0x20 PUSH1 0x4 DUP3 ADD MSTORE PUSH1 0x14 PUSH1 0x24 DUP3 ADD MSTORE PUSH32 0x6F776E6572203D207A65726F2061646472657373000000000000000000000000 PUSH1 0x44 DUP3 ADD MSTORE PUSH1 0x64 ADD PUSH2 0x46A JUMP JUMPDEST POP PUSH20 0xFFFFFFFFFFFFFFFFFFFFFFFFFFFFFFFFFFFFFFFF AND PUSH1 0x0 SWAP1 DUP2 MSTORE PUSH1 0x3 PUSH1 0x20 MSTORE PUSH1 0x40 SWAP1 KECCAK256 SLOAD SWAP1 JUMP JUMPDEST PUSH1 0x1 DUP1 SLOAD PUSH2 0x362 SWAP1 PUSH2 0x1442 JUMP JUMPDEST PUSH1 0x40 MLOAD PUSH32 0x23B872DD00000000000000000000000000000000000000000000000000000000 DUP2 MSTORE PUSH20 0xFFFFFFFFFFFFFFFFFFFFFFFFFFFFFFFFFFFFFFFF DUP1 DUP6 AND PUSH1 0x4 DUP4 ADD MSTORE DUP4 AND PUSH1 0x24 DUP3 ADD MSTORE PUSH1 0x44 DUP2 ADD DUP3 SWAP1 MSTORE ADDRESS SWAP1 PUSH4 0x23B872DD SWAP1 PUSH1 0x64 ADD PUSH1 0x0 PUSH1 0x40 MLOAD DUP1 DUP4 SUB DUP2 PUSH1 0x0 DUP8 DUP1 EXTCODESIZE ISZERO DUP1 ISZERO PUSH2 0x7DC JUMPI PUSH1 0x0 DUP1 REVERT JUMPDEST POP GAS CALL ISZERO DUP1 ISZERO PUSH2 0x7F0 JUMPI RETURNDATASIZE PUSH1 0x0 DUP1 RETURNDATACOPY RETURNDATASIZE PUSH1 0x0 REVERT JUMPDEST POP POP POP POP POP POP POP JUMP JUMPDEST CALLER PUSH1 0x0 DUP2 DUP2 MSTORE PUSH1 0x5 PUSH1 0x20 SWAP1 DUP2 MSTORE PUSH1 0x40 DUP1 DUP4 KECCAK256 PUSH20 0xFFFFFFFFFFFFFFFFFFFFFFFFFFFFFFFFFFFFFFFF DUP8 AND DUP1 DUP6 MSTORE SWAP1 DUP4 MSTORE SWAP3 DUP2 SWAP1 KECCAK256 DUP1 SLOAD PUSH32 0xFFFFFFFFFFFFFFFFFFFFFFFFFFFFFFFFFFFFFFFFFFFFFFFFFFFFFFFFFFFFFF00 AND DUP7 ISZERO ISZERO SWAP1 DUP2 OR SWAP1 SWAP2 SSTORE SWAP1 MLOAD SWAP1 DUP2 MSTORE SWAP2 SWAP3 SWAP2 PUSH32 0x17307EAB39AB6107E8899845AD3D59BD9653F200F220920489CA2B5937696C31 SWAP2 ADD PUSH1 0x40 MLOAD DUP1 SWAP2 SUB SWAP1 LOG3 POP POP JUMP JUMPDEST PUSH1 0x0 PUSH2 0x89B DUP4 PUSH2 0x620 JUMP JUMPDEST SWAP1 POP PUSH2 0x8A8 DUP2 CALLER DUP6 PUSH2 0xA9A JUMP JUMPDEST PUSH2 0x90E JUMPI PUSH1 0x40 MLOAD PUSH32 0x8C379A000000000000000000000000000000000000000000000000000000000 DUP2 MSTORE PUSH1 0x20 PUSH1 0x4 DUP3 ADD MSTORE PUSH1 0x16 PUSH1 0x24 DUP3 ADD MSTORE PUSH32 0x6E6F74206F776E6572206E6F7220617070726F76656400000000000000000000 PUSH1 0x44 DUP3 ADD MSTORE PUSH1 0x64 ADD PUSH2 0x46A JUMP JUMPDEST PUSH2 0x91B DUP2 DUP7 DUP7 DUP7 DUP7 PUSH2 0xD57 JUMP JUMPDEST POP POP POP POP POP JUMP JUMPDEST PUSH1 0x0 DUP2 DUP2 MSTORE PUSH1 0x2 PUSH1 0x20 MSTORE PUSH1 0x40 SWAP1 KECCAK256 SLOAD PUSH1 0x60 SWAP1 PUSH20 0xFFFFFFFFFFFFFFFFFFFFFFFFFFFFFFFFFFFFFFFF AND PUSH2 0x9B0 JUMPI PUSH1 0x40 MLOAD PUSH32 0x8C379A000000000000000000000000000000000000000000000000000000000 DUP2 MSTORE PUSH1 0x20 PUSH1 0x4 DUP3 ADD MSTORE PUSH1 0xF PUSH1 0x24 DUP3 ADD MSTORE PUSH32 0x546F6B656E204E6F742045786973740000000000000000000000000000000000 PUSH1 0x44 DUP3 ADD MSTORE PUSH1 0x64 ADD PUSH2 0x46A JUMP JUMPDEST PUSH1 0x0 PUSH2 0x9C7 PUSH1 0x40 DUP1 MLOAD PUSH1 0x20 DUP2 ADD SWAP1 SWAP2 MSTORE PUSH1 0x0 DUP2 MSTORE SWAP1 JUMP JUMPDEST SWAP1 POP PUSH1 0x0 DUP2 MLOAD GT PUSH2 0x9E7 JUMPI PUSH1 0x40 MLOAD DUP1 PUSH1 0x20 ADD PUSH1 0x40 MSTORE DUP1 PUSH1 0x0 DUP2 MSTORE POP PUSH2 0xA12 JUMP JUMPDEST DUP1 PUSH2 0x9F1 DUP5 PUSH2 0xD6F JUMP JUMPDEST PUSH1 0x40 MLOAD PUSH1 0x20 ADD PUSH2 0xA02 SWAP3 SWAP2 SWAP1 PUSH2 0x1348 JUMP JUMPDEST PUSH1 0x40 MLOAD PUSH1 0x20 DUP2 DUP4 SUB SUB DUP2 MSTORE SWAP1 PUSH1 0x40 MSTORE JUMPDEST SWAP4 SWAP3 POP POP POP JUMP JUMPDEST PUSH1 0x0 DUP2 DUP2 MSTORE PUSH1 0x4 PUSH1 0x20 MSTORE PUSH1 0x40 DUP1 DUP3 KECCAK256 DUP1 SLOAD PUSH32 0xFFFFFFFFFFFFFFFFFFFFFFFF0000000000000000000000000000000000000000 AND PUSH20 0xFFFFFFFFFFFFFFFFFFFFFFFFFFFFFFFFFFFFFFFF DUP7 DUP2 AND SWAP2 DUP3 OR SWAP1 SWAP3 SSTORE SWAP2 MLOAD DUP5 SWAP4 SWAP2 DUP8 AND SWAP2 PUSH32 0x8C5BE1E5EBEC7D5BD14F71427D1E84F3DD0314C0F7B2291E5B200AC8C7C3B925 SWAP2 LOG4 POP POP POP JUMP JUMPDEST PUSH1 0x0 DUP4 PUSH20 0xFFFFFFFFFFFFFFFFFFFFFFFFFFFFFFFFFFFFFFFF AND DUP4 PUSH20 0xFFFFFFFFFFFFFFFFFFFFFFFFFFFFFFFFFFFFFFFF AND EQ DUP1 PUSH2 0xAFC JUMPI POP PUSH1 0x0 DUP3 DUP2 MSTORE PUSH1 0x4 PUSH1 0x20 MSTORE PUSH1 0x40 SWAP1 KECCAK256 SLOAD PUSH20 0xFFFFFFFFFFFFFFFFFFFFFFFFFFFFFFFFFFFFFFFF DUP5 DUP2 AND SWAP2 AND EQ JUMPDEST DUP1 PUSH2 0xB39 JUMPI POP PUSH20 0xFFFFFFFFFFFFFFFFFFFFFFFFFFFFFFFFFFFFFFFF DUP1 DUP6 AND PUSH1 0x0 SWAP1 DUP2 MSTORE PUSH1 0x5 PUSH1 0x20 SWAP1 DUP2 MSTORE PUSH1 0x40 DUP1 DUP4 KECCAK256 SWAP4 DUP8 AND DUP4 MSTORE SWAP3 SWAP1 MSTORE KECCAK256 SLOAD PUSH1 0xFF AND JUMPDEST SWAP5 SWAP4 POP POP POP POP JUMP JUMPDEST DUP4 PUSH20 0xFFFFFFFFFFFFFFFFFFFFFFFFFFFFFFFFFFFFFFFF AND DUP4 PUSH20 0xFFFFFFFFFFFFFFFFFFFFFFFFFFFFFFFFFFFFFFFF AND EQ PUSH2 0xBD6 JUMPI PUSH1 0x40 MLOAD PUSH32 0x8C379A000000000000000000000000000000000000000000000000000000000 DUP2 MSTORE PUSH1 0x20 PUSH1 0x4 DUP3 ADD MSTORE PUSH1 0x9 PUSH1 0x24 DUP3 ADD MSTORE PUSH32 0x6E6F74206F776E65720000000000000000000000000000000000000000000000 PUSH1 0x44 DUP3 ADD MSTORE PUSH1 0x64 ADD PUSH2 0x46A JUMP JUMPDEST PUSH20 0xFFFFFFFFFFFFFFFFFFFFFFFFFFFFFFFFFFFFFFFF DUP3 AND PUSH2 0xC53 JUMPI PUSH1 0x40 MLOAD PUSH32 0x8C379A000000000000000000000000000000000000000000000000000000000 DUP2 MSTORE PUSH1 0x20 PUSH1 0x4 DUP3 ADD MSTORE PUSH1 0x1C PUSH1 0x24 DUP3 ADD MSTORE PUSH32 0x7472616E7366657220746F20746865207A65726F206164647265737300000000 PUSH1 0x44 DUP3 ADD MSTORE PUSH1 0x64 ADD PUSH2 0x46A JUMP JUMPDEST PUSH2 0xC5F DUP5 PUSH1 0x0 DUP4 PUSH2 0xA19 JUMP JUMPDEST PUSH20 0xFFFFFFFFFFFFFFFFFFFFFFFFFFFFFFFFFFFFFFFF DUP4 AND PUSH1 0x0 SWAP1 DUP2 MSTORE PUSH1 0x3 PUSH1 0x20 MSTORE PUSH1 0x40 DUP2 KECCAK256 DUP1 SLOAD PUSH1 0x1 SWAP3 SWAP1 PUSH2 0xC95 SWAP1 DUP5 SWAP1 PUSH2 0x13FF JUMP JUMPDEST SWAP1 SWAP2 SSTORE POP POP PUSH20 0xFFFFFFFFFFFFFFFFFFFFFFFFFFFFFFFFFFFFFFFF DUP3 AND PUSH1 0x0 SWAP1 DUP2 MSTORE PUSH1 0x3 PUSH1 0x20 MSTORE PUSH1 0x40 DUP2 KECCAK256 DUP1 SLOAD PUSH1 0x1 SWAP3 SWAP1 PUSH2 0xCD0 SWAP1 DUP5 SWAP1 PUSH2 0x13D3 JUMP JUMPDEST SWAP1 SWAP2 SSTORE POP POP PUSH1 0x0 DUP2 DUP2 MSTORE PUSH1 0x2 PUSH1 0x20 MSTORE PUSH1 0x40 DUP1 DUP3 KECCAK256 DUP1 SLOAD PUSH32 0xFFFFFFFFFFFFFFFFFFFFFFFF0000000000000000000000000000000000000000 AND PUSH20 0xFFFFFFFFFFFFFFFFFFFFFFFFFFFFFFFFFFFFFFFF DUP7 DUP2 AND SWAP2 DUP3 OR SWAP1 SWAP3 SSTORE SWAP2 MLOAD DUP5 SWAP4 SWAP2 DUP8 AND SWAP2 PUSH32 0xDDF252AD1BE2C89B69C2B068FC378DAA952BA7F163C4A11628F55A4DF523B3EF SWAP2 LOG4 POP POP POP POP JUMP JUMPDEST PUSH2 0xD63 DUP6 DUP6 DUP6 DUP6 PUSH2 0xB41 JUMP JUMPDEST PUSH2 0x91B DUP5 DUP5 DUP5 DUP5 PUSH2 0xEA1 JUMP JUMPDEST PUSH1 0x60 DUP2 PUSH2 0xDAF JUMPI POP POP PUSH1 0x40 DUP1 MLOAD DUP1 DUP3 ADD SWAP1 SWAP2 MSTORE PUSH1 0x1 DUP2 MSTORE PUSH32 0x3000000000000000000000000000000000000000000000000000000000000000 PUSH1 0x20 DUP3 ADD MSTORE SWAP1 JUMP JUMPDEST DUP2 PUSH1 0x0 JUMPDEST DUP2 ISZERO PUSH2 0xDD9 JUMPI DUP1 PUSH2 0xDC3 DUP2 PUSH2 0x1496 JUMP JUMPDEST SWAP2 POP PUSH2 0xDD2 SWAP1 POP PUSH1 0xA DUP4 PUSH2 0x13EB JUMP JUMPDEST SWAP2 POP PUSH2 0xDB3 JUMP JUMPDEST PUSH1 0x0 DUP2 PUSH8 0xFFFFFFFFFFFFFFFF DUP2 GT ISZERO PUSH2 0xDF4 JUMPI PUSH2 0xDF4 PUSH2 0x1570 JUMP JUMPDEST PUSH1 0x40 MLOAD SWAP1 DUP1 DUP3 MSTORE DUP1 PUSH1 0x1F ADD PUSH1 0x1F NOT AND PUSH1 0x20 ADD DUP3 ADD PUSH1 0x40 MSTORE DUP1 ISZERO PUSH2 0xE1E JUMPI PUSH1 0x20 DUP3 ADD DUP2 DUP1 CALLDATASIZE DUP4 CALLDATACOPY ADD SWAP1 POP JUMPDEST POP SWAP1 POP JUMPDEST DUP5 ISZERO PUSH2 0xB39 JUMPI PUSH2 0xE33 PUSH1 0x1 DUP4 PUSH2 0x13FF JUMP JUMPDEST SWAP2 POP PUSH2 0xE40 PUSH1 0xA DUP7 PUSH2 0x14CF JUMP JUMPDEST PUSH2 0xE4B SWAP1 PUSH1 0x30 PUSH2 0x13D3 JUMP JUMPDEST PUSH1 0xF8 SHL DUP2 DUP4 DUP2 MLOAD DUP2 LT PUSH2 0xE60 JUMPI PUSH2 0xE60 PUSH2 0x1541 JUMP JUMPDEST PUSH1 0x20 ADD ADD SWAP1 PUSH31 0xFFFFFFFFFFFFFFFFFFFFFFFFFFFFFFFFFFFFFFFFFFFFFFFFFFFFFFFFFFFFFF NOT AND SWAP1 DUP2 PUSH1 0x0 BYTE SWAP1 MSTORE8 POP PUSH2 0xE9A PUSH1 0xA DUP7 PUSH2 0x13EB JUMP JUMPDEST SWAP5 POP PUSH2 0xE22 JUMP JUMPDEST PUSH20 0xFFFFFFFFFFFFFFFFFFFFFFFFFFFFFFFFFFFFFFFF DUP4 AND EXTCODESIZE ISZERO PUSH2 0x5FF JUMPI PUSH1 0x40 MLOAD PUSH32 0x150B7A0200000000000000000000000000000000000000000000000000000000 DUP2 MSTORE PUSH20 0xFFFFFFFFFFFFFFFFFFFFFFFFFFFFFFFFFFFFFFFF DUP5 AND SWAP1 PUSH4 0x150B7A02 SWAP1 PUSH2 0xF16 SWAP1 CALLER SWAP1 DUP9 SWAP1 DUP8 SWAP1 DUP8 SWAP1 PUSH1 0x4 ADD PUSH2 0x1377 JUMP JUMPDEST PUSH1 0x20 PUSH1 0x40 MLOAD DUP1 DUP4 SUB DUP2 PUSH1 0x0 DUP8 DUP1 EXTCODESIZE ISZERO DUP1 ISZERO PUSH2 0xF30 JUMPI PUSH1 0x0 DUP1 REVERT JUMPDEST POP GAS CALL SWAP3 POP POP POP DUP1 ISZERO PUSH2 0xF7E JUMPI POP PUSH1 0x40 DUP1 MLOAD PUSH1 0x1F RETURNDATASIZE SWAP1 DUP2 ADD PUSH32 0xFFFFFFFFFFFFFFFFFFFFFFFFFFFFFFFFFFFFFFFFFFFFFFFFFFFFFFFFFFFFFFE0 AND DUP3 ADD SWAP1 SWAP3 MSTORE PUSH2 0xF7B SWAP2 DUP2 ADD SWAP1 PUSH2 0x12C8 JUMP JUMPDEST PUSH1 0x1 JUMPDEST PUSH2 0x100A JUMPI RETURNDATASIZE DUP1 DUP1 ISZERO PUSH2 0xFAC JUMPI PUSH1 0x40 MLOAD SWAP2 POP PUSH1 0x1F NOT PUSH1 0x3F RETURNDATASIZE ADD AND DUP3 ADD PUSH1 0x40 MSTORE RETURNDATASIZE DUP3 MSTORE RETURNDATASIZE PUSH1 0x0 PUSH1 0x20 DUP5 ADD RETURNDATACOPY PUSH2 0xFB1 JUMP JUMPDEST PUSH1 0x60 SWAP2 POP JUMPDEST POP DUP1 MLOAD PUSH2 0x1002 JUMPI PUSH1 0x40 MLOAD PUSH32 0x64A0AE9200000000000000000000000000000000000000000000000000000000 DUP2 MSTORE PUSH20 0xFFFFFFFFFFFFFFFFFFFFFFFFFFFFFFFFFFFFFFFF DUP6 AND PUSH1 0x4 DUP3 ADD MSTORE PUSH1 0x24 ADD PUSH2 0x46A JUMP JUMPDEST DUP1 MLOAD DUP2 PUSH1 0x20 ADD REVERT JUMPDEST PUSH32 0xFFFFFFFF00000000000000000000000000000000000000000000000000000000 DUP2 AND PUSH32 0x150B7A0200000000000000000000000000000000000000000000000000000000 EQ PUSH2 0x91B JUMPI PUSH1 0x40 MLOAD PUSH32 0x64A0AE9200000000000000000000000000000000000000000000000000000000 DUP2 MSTORE PUSH20 0xFFFFFFFFFFFFFFFFFFFFFFFFFFFFFFFFFFFFFFFF DUP6 AND PUSH1 0x4 DUP3 ADD MSTORE PUSH1 0x24 ADD PUSH2 0x46A JUMP JUMPDEST DUP1 CALLDATALOAD PUSH20 0xFFFFFFFFFFFFFFFFFFFFFFFFFFFFFFFFFFFFFFFF DUP2 AND DUP2 EQ PUSH2 0x6AC JUMPI PUSH1 0x0 DUP1 REVERT JUMPDEST PUSH1 0x0 PUSH1 0x20 DUP3 DUP5 SUB SLT ISZERO PUSH2 0x10D3 JUMPI PUSH1 0x0 DUP1 REVERT JUMPDEST PUSH2 0xA12 DUP3 PUSH2 0x109D JUMP JUMPDEST PUSH1 0x0 DUP1 PUSH1 0x40 DUP4 DUP6 SUB SLT ISZERO PUSH2 0x10EF JUMPI PUSH1 0x0 DUP1 REVERT JUMPDEST PUSH2 0x10F8 DUP4 PUSH2 0x109D JUMP JUMPDEST SWAP2 POP PUSH2 0x1106 PUSH1 0x20 DUP5 ADD PUSH2 0x109D JUMP JUMPDEST SWAP1 POP SWAP3 POP SWAP3 SWAP1 POP JUMP JUMPDEST PUSH1 0x0 DUP1 PUSH1 0x0 PUSH1 0x60 DUP5 DUP7 SUB SLT ISZERO PUSH2 0x1124 JUMPI PUSH1 0x0 DUP1 REVERT JUMPDEST PUSH2 0x112D DUP5 PUSH2 0x109D JUMP JUMPDEST SWAP3 POP PUSH2 0x113B PUSH1 0x20 DUP6 ADD PUSH2 0x109D JUMP JUMPDEST SWAP2 POP PUSH1 0x40 DUP5 ADD CALLDATALOAD SWAP1 POP SWAP3 POP SWAP3 POP SWAP3 JUMP JUMPDEST PUSH1 0x0 DUP1 PUSH1 0x0 DUP1 PUSH1 0x80 DUP6 DUP8 SUB SLT ISZERO PUSH2 0x1161 JUMPI PUSH1 0x0 DUP1 REVERT JUMPDEST PUSH2 0x116A DUP6 PUSH2 0x109D JUMP JUMPDEST SWAP4 POP PUSH2 0x1178 PUSH1 0x20 DUP7 ADD PUSH2 0x109D JUMP JUMPDEST SWAP3 POP PUSH1 0x40 DUP6 ADD CALLDATALOAD SWAP2 POP PUSH1 0x60 DUP6 ADD CALLDATALOAD PUSH8 0xFFFFFFFFFFFFFFFF DUP1 DUP3 GT ISZERO PUSH2 0x119C JUMPI PUSH1 0x0 DUP1 REVERT JUMPDEST DUP2 DUP8 ADD SWAP2 POP DUP8 PUSH1 0x1F DUP4 ADD SLT PUSH2 0x11B0 JUMPI PUSH1 0x0 DUP1 REVERT JUMPDEST DUP2 CALLDATALOAD DUP2 DUP2 GT ISZERO PUSH2 0x11C2 JUMPI PUSH2 0x11C2 PUSH2 0x1570 JUMP JUMPDEST PUSH1 0x40 MLOAD PUSH1 0x1F DUP3 ADD PUSH32 0xFFFFFFFFFFFFFFFFFFFFFFFFFFFFFFFFFFFFFFFFFFFFFFFFFFFFFFFFFFFFFFE0 SWAP1 DUP2 AND PUSH1 0x3F ADD AND DUP2 ADD SWAP1 DUP4 DUP3 GT DUP2 DUP4 LT OR ISZERO PUSH2 0x1208 JUMPI PUSH2 0x1208 PUSH2 0x1570 JUMP JUMPDEST DUP2 PUSH1 0x40 MSTORE DUP3 DUP2 MSTORE DUP11 PUSH1 0x20 DUP5 DUP8 ADD ADD GT ISZERO PUSH2 0x1221 JUMPI PUSH1 0x0 DUP1 REVERT JUMPDEST DUP3 PUSH1 0x20 DUP7 ADD PUSH1 0x20 DUP4 ADD CALLDATACOPY PUSH1 0x0 PUSH1 0x20 DUP5 DUP4 ADD ADD MSTORE DUP1 SWAP6 POP POP POP POP POP POP SWAP3 SWAP6 SWAP2 SWAP5 POP SWAP3 POP JUMP JUMPDEST PUSH1 0x0 DUP1 PUSH1 0x40 DUP4 DUP6 SUB SLT ISZERO PUSH2 0x1258 JUMPI PUSH1 0x0 DUP1 REVERT JUMPDEST PUSH2 0x1261 DUP4 PUSH2 0x109D JUMP JUMPDEST SWAP2 POP PUSH1 0x20 DUP4 ADD CALLDATALOAD DUP1 ISZERO ISZERO DUP2 EQ PUSH2 0x1276 JUMPI PUSH1 0x0 DUP1 REVERT JUMPDEST DUP1 SWAP2 POP POP SWAP3 POP SWAP3 SWAP1 POP JUMP JUMPDEST PUSH1 0x0 DUP1 PUSH1 0x40 DUP4 DUP6 SUB SLT ISZERO PUSH2 0x1294 JUMPI PUSH1 0x0 DUP1 REVERT JUMPDEST PUSH2 0x129D DUP4 PUSH2 0x109D JUMP JUMPDEST SWAP5 PUSH1 0x20 SWAP4 SWAP1 SWAP4 ADD CALLDATALOAD SWAP4 POP POP POP JUMP JUMPDEST PUSH1 0x0 PUSH1 0x20 DUP3 DUP5 SUB SLT ISZERO PUSH2 0x12BD JUMPI PUSH1 0x0 DUP1 REVERT JUMPDEST DUP2 CALLDATALOAD PUSH2 0xA12 DUP2 PUSH2 0x159F JUMP JUMPDEST PUSH1 0x0 PUSH1 0x20 DUP3 DUP5 SUB SLT ISZERO PUSH2 0x12DA JUMPI PUSH1 0x0 DUP1 REVERT JUMPDEST DUP2 MLOAD PUSH2 0xA12 DUP2 PUSH2 0x159F JUMP JUMPDEST PUSH1 0x0 PUSH1 0x20 DUP3 DUP5 SUB SLT ISZERO PUSH2 0x12F7 JUMPI PUSH1 0x0 DUP1 REVERT JUMPDEST POP CALLDATALOAD SWAP2 SWAP1 POP JUMP JUMPDEST PUSH1 0x0 DUP2 MLOAD DUP1 DUP5 MSTORE PUSH2 0x1316 DUP2 PUSH1 0x20 DUP7 ADD PUSH1 0x20 DUP7 ADD PUSH2 0x1416 JUMP JUMPDEST PUSH1 0x1F ADD PUSH32 0xFFFFFFFFFFFFFFFFFFFFFFFFFFFFFFFFFFFFFFFFFFFFFFFFFFFFFFFFFFFFFFE0 AND SWAP3 SWAP1 SWAP3 ADD PUSH1 0x20 ADD SWAP3 SWAP2 POP POP JUMP JUMPDEST PUSH1 0x0 DUP4 MLOAD PUSH2 0x135A DUP2 DUP5 PUSH1 0x20 DUP9 ADD PUSH2 0x1416 JUMP JUMPDEST DUP4 MLOAD SWAP1 DUP4 ADD SWAP1 PUSH2 0x136E DUP2 DUP4 PUSH1 0x20 DUP9 ADD PUSH2 0x1416 JUMP JUMPDEST ADD SWAP5 SWAP4 POP POP POP POP JUMP JUMPDEST PUSH1 0x0 PUSH20 0xFFFFFFFFFFFFFFFFFFFFFFFFFFFFFFFFFFFFFFFF DUP1 DUP8 AND DUP4 MSTORE DUP1 DUP7 AND PUSH1 0x20 DUP5 ADD MSTORE POP DUP4 PUSH1 0x40 DUP4 ADD MSTORE PUSH1 0x80 PUSH1 0x60 DUP4 ADD MSTORE PUSH2 0x13B6 PUSH1 0x80 DUP4 ADD DUP5 PUSH2 0x12FE JUMP JUMPDEST SWAP7 SWAP6 POP POP POP POP POP POP JUMP JUMPDEST PUSH1 0x20 DUP2 MSTORE PUSH1 0x0 PUSH2 0xA12 PUSH1 0x20 DUP4 ADD DUP5 PUSH2 0x12FE JUMP JUMPDEST PUSH1 0x0 DUP3 NOT DUP3 GT ISZERO PUSH2 0x13E6 JUMPI PUSH2 0x13E6 PUSH2 0x14E3 JUMP JUMPDEST POP ADD SWAP1 JUMP JUMPDEST PUSH1 0x0 DUP3 PUSH2 0x13FA JUMPI PUSH2 0x13FA PUSH2 0x1512 JUMP JUMPDEST POP DIV SWAP1 JUMP JUMPDEST PUSH1 0x0 DUP3 DUP3 LT ISZERO PUSH2 0x1411 JUMPI PUSH2 0x1411 PUSH2 0x14E3 JUMP JUMPDEST POP SUB SWAP1 JUMP JUMPDEST PUSH1 0x0 JUMPDEST DUP4 DUP2 LT ISZERO PUSH2 0x1431 JUMPI DUP2 DUP2 ADD MLOAD DUP4 DUP3 ADD MSTORE PUSH1 0x20 ADD PUSH2 0x1419 JUMP JUMPDEST DUP4 DUP2 GT ISZERO PUSH2 0x5FF JUMPI POP POP PUSH1 0x0 SWAP2 ADD MSTORE JUMP JUMPDEST PUSH1 0x1 DUP2 DUP2 SHR SWAP1 DUP3 AND DUP1 PUSH2 0x1456 JUMPI PUSH1 0x7F DUP3 AND SWAP2 POP JUMPDEST PUSH1 0x20 DUP3 LT DUP2 EQ ISZERO PUSH2 0x1490 JUMPI PUSH32 0x4E487B7100000000000000000000000000000000000000000000000000000000 PUSH1 0x0 MSTORE PUSH1 0x22 PUSH1 0x4 MSTORE PUSH1 0x24 PUSH1 0x0 REVERT JUMPDEST POP SWAP2 SWAP1 POP JUMP JUMPDEST PUSH1 0x0 PUSH32 0xFFFFFFFFFFFFFFFFFFFFFFFFFFFFFFFFFFFFFFFFFFFFFFFFFFFFFFFFFFFFFFFF DUP3 EQ ISZERO PUSH2 0x14C8 JUMPI PUSH2 0x14C8 PUSH2 0x14E3 JUMP JUMPDEST POP PUSH1 0x1 ADD SWAP1 JUMP JUMPDEST PUSH1 0x0 DUP3 PUSH2 0x14DE JUMPI PUSH2 0x14DE PUSH2 0x1512 JUMP JUMPDEST POP MOD SWAP1 JUMP JUMPDEST PUSH32 0x4E487B7100000000000000000000000000000000000000000000000000000000 PUSH1 0x0 MSTORE PUSH1 0x11 PUSH1 0x4 MSTORE PUSH1 0x24 PUSH1 0x0 REVERT JUMPDEST PUSH32 0x4E487B7100000000000000000000000000000000000000000000000000000000 PUSH1 0x0 MSTORE PUSH1 0x12 PUSH1 0x4 MSTORE PUSH1 0x24 PUSH1 0x0 REVERT JUMPDEST PUSH32 0x4E487B7100000000000000000000000000000000000000000000000000000000 PUSH1 0x0 MSTORE PUSH1 0x32 PUSH1 0x4 MSTORE PUSH1 0x24 PUSH1 0x0 REVERT JUMPDEST PUSH32 0x4E487B7100000000000000000000000000000000000000000000000000000000 PUSH1 0x0 MSTORE PUSH1 0x41 PUSH1 0x4 MSTORE PUSH1 0x24 PUSH1 0x0 REVERT JUMPDEST PUSH32 0xFFFFFFFF00000000000000000000000000000000000000000000000000000000 DUP2 AND DUP2 EQ PUSH2 0x15CD JUMPI PUSH1 0x0 DUP1 REVERT JUMPDEST POP JUMP INVALID LOG2 PUSH5 0x6970667358 0x22 SLT KECCAK256 0xE6 0x4B 0xD8 OR PUSH23 0x9007F9A84BB32AC1736DE661F9B0B477D3CDDE1A73B6F7 SWAP4 CALLCODE 0xDF BASEFEE PUSH5 0x736F6C6343 STOP ADDMOD SMOD STOP CALLER "
				},
				"gasEstimates": {
					"creation": {
						"codeDepositCost": "1127600",
						"executionCost": "infinite",
						"totalCost": "infinite"
					},
					"external": {
						"approve(address,uint256)": "25063",
						"balanceOf(address)": "1276",
						"getApproved(uint256)": "2124",
						"interfaceFun(address,address,uint256)": "infinite",
						"isApprovedForAll(address,address)": "infinite",
						"name()": "infinite",
						"ownerOf(uint256)": "1303",
						"safeTransferFrom(address,address,uint256)": "infinite",
						"safeTransferFrom(address,address,uint256,bytes)": "infinite",
						"setApprovalForAll(address,bool)": "23180",
						"supportsInterface(bytes4)": "456",
						"symbol()": "infinite",
						"tokenURI(uint256)": "infinite",
						"transferFrom(address,address,uint256)": "infinite"
					}
				},
				"methodIdentifiers": {
					"approve(address,uint256)": "095ea7b3",
					"balanceOf(address)": "70a08231",
					"getApproved(uint256)": "081812fc",
					"interfaceFun(address,address,uint256)": "9fc2ee4b",
					"isApprovedForAll(address,address)": "e985e9c5",
					"name()": "06fdde03",
					"ownerOf(uint256)": "6352211e",
					"safeTransferFrom(address,address,uint256)": "42842e0e",
					"safeTransferFrom(address,address,uint256,bytes)": "b88d4fde",
					"setApprovalForAll(address,bool)": "a22cb465",
					"supportsInterface(bytes4)": "01ffc9a7",
					"symbol()": "95d89b41",
					"tokenURI(uint256)": "c87b56dd",
					"transferFrom(address,address,uint256)": "23b872dd"
				}
			},
			"storageLayout": {
				"storage": [
					{
						"astId": 52,
						"contract": "46JichengERC721.sol:JichengERC721",
						"label": "name",
						"offset": 0,
						"slot": "0",
						"type": "t_string_storage"
					},
					{
						"astId": 55,
						"contract": "46JichengERC721.sol:JichengERC721",
						"label": "symbol",
						"offset": 0,
						"slot": "1",
						"type": "t_string_storage"
					},
					{
						"astId": 59,
						"contract": "46JichengERC721.sol:JichengERC721",
						"label": "_owners",
						"offset": 0,
						"slot": "2",
						"type": "t_mapping(t_uint256,t_address)"
					},
					{
						"astId": 63,
						"contract": "46JichengERC721.sol:JichengERC721",
						"label": "_balances",
						"offset": 0,
						"slot": "3",
						"type": "t_mapping(t_address,t_uint256)"
					},
					{
						"astId": 67,
						"contract": "46JichengERC721.sol:JichengERC721",
						"label": "_tokenApprovals",
						"offset": 0,
						"slot": "4",
						"type": "t_mapping(t_uint256,t_address)"
					},
					{
						"astId": 73,
						"contract": "46JichengERC721.sol:JichengERC721",
						"label": "_operatorApprovals",
						"offset": 0,
						"slot": "5",
						"type": "t_mapping(t_address,t_mapping(t_address,t_bool))"
					}
				],
				"types": {
					"t_address": {
						"encoding": "inplace",
						"label": "address",
						"numberOfBytes": "20"
					},
					"t_bool": {
						"encoding": "inplace",
						"label": "bool",
						"numberOfBytes": "1"
					},
					"t_mapping(t_address,t_bool)": {
						"encoding": "mapping",
						"key": "t_address",
						"label": "mapping(address => bool)",
						"numberOfBytes": "32",
						"value": "t_bool"
					},
					"t_mapping(t_address,t_mapping(t_address,t_bool))": {
						"encoding": "mapping",
						"key": "t_address",
						"label": "mapping(address => mapping(address => bool))",
						"numberOfBytes": "32",
						"value": "t_mapping(t_address,t_bool)"
					},
					"t_mapping(t_address,t_uint256)": {
						"encoding": "mapping",
						"key": "t_address",
						"label": "mapping(address => uint256)",
						"numberOfBytes": "32",
						"value": "t_uint256"
					},
					"t_mapping(t_uint256,t_address)": {
						"encoding": "mapping",
						"key": "t_uint256",
						"label": "mapping(uint256 => address)",
						"numberOfBytes": "32",
						"value": "t_address"
					},
					"t_string_storage": {
						"encoding": "bytes",
						"label": "string",
						"numberOfBytes": "32"
					},
					"t_uint256": {
						"encoding": "inplace",
						"label": "uint256",
						"numberOfBytes": "32"
					}
				}
			},
			"userdoc": {
				"kind": "user",
				"methods": {
					"safeTransferFrom(address,address,uint256,bytes)": {
						"notice": "实现IERC721的safeTransferFrom，安全转账，调用了_safeTransfer函数。"
					},
					"tokenURI(uint256)": {
						"notice": "实现IERC721Metadata的tokenURI函数，查询metadata。"
					}
				},
				"version": 1
			}
		}
	}
}