{
	"30Visibility.sol": {
		"C": {
			"abi": [
				{
					"inputs": [],
					"name": "example",
					"outputs": [],
					"stateMutability": "view",
					"type": "function"
				},
				{
					"inputs": [],
					"name": "example2",
					"outputs": [],
					"stateMutability": "view",
					"type": "function"
				},
				{
					"inputs": [],
					"name": "externalFun",
					"outputs": [
						{
							"internalType": "uint256",
							"name": "",
							"type": "uint256"
						}
					],
					"stateMutability": "pure",
					"type": "function"
				},
				{
					"inputs": [],
					"name": "publicFun",
					"outputs": [
						{
							"internalType": "uint256",
							"name": "",
							"type": "uint256"
						}
					],
					"stateMutability": "pure",
					"type": "function"
				},
				{
					"inputs": [],
					"name": "z",
					"outputs": [
						{
							"internalType": "uint256",
							"name": "",
							"type": "uint256"
						}
					],
					"stateMutability": "view",
					"type": "function"
				}
			],
			"devdoc": {
				"kind": "dev",
				"methods": {},
				"version": 1
			},
			"evm": {
				"assembly": "    /* \"30Visibility.sol\":967:1196  contract C is Visibility{... */\n  mstore(0x40, 0x80)\n  callvalue\n  dup1\n  iszero\n  tag_1\n  jumpi\n  0x00\n  dup1\n  revert\ntag_1:\n  pop\n  dataSize(sub_0)\n  dup1\n  dataOffset(sub_0)\n  0x00\n  codecopy\n  0x00\n  return\nstop\n\nsub_0: assembly {\n        /* \"30Visibility.sol\":967:1196  contract C is Visibility{... */\n      mstore(0x40, 0x80)\n      callvalue\n      dup1\n      iszero\n      tag_1\n      jumpi\n      0x00\n      dup1\n      revert\n    tag_1:\n      pop\n      jumpi(tag_2, lt(calldatasize, 0x04))\n      shr(0xe0, calldataload(0x00))\n      dup1\n      0x4c816d9f\n      eq\n      tag_3\n      jumpi\n      dup1\n      0x54353f2f\n      eq\n      tag_4\n      jumpi\n      dup1\n      0xa54998a7\n      eq\n      tag_5\n      jumpi\n      dup1\n      0xb7372fab\n      eq\n      tag_6\n      jumpi\n      dup1\n      0xc5d7802e\n      eq\n      tag_7\n      jumpi\n    tag_2:\n      0x00\n      dup1\n      revert\n        /* \"30Visibility.sol\":550:627  function externalFun() external pure returns(uint){... */\n    tag_3:\n      tag_8\n      tag_9\n      jump\t// in\n    tag_8:\n      mload(0x40)\n      tag_10\n      swap2\n      swap1\n      tag_11\n      jump\t// in\n    tag_10:\n      mload(0x40)\n      dup1\n      swap2\n      sub\n      swap1\n      return\n        /* \"30Visibility.sol\":633:753  function example() external view{... */\n    tag_4:\n      tag_12\n      tag_13\n      jump\t// in\n    tag_12:\n      stop\n        /* \"30Visibility.sol\":1038:1193  function example2() external view{... */\n    tag_5:\n      tag_14\n      tag_15\n      jump\t// in\n    tag_14:\n      stop\n        /* \"30Visibility.sol\":463:544  function publicFun() virtual public pure returns(uint){... */\n    tag_6:\n      tag_16\n      tag_17\n      jump\t// in\n    tag_16:\n      mload(0x40)\n      tag_18\n      swap2\n      swap1\n      tag_11\n      jump\t// in\n    tag_18:\n      mload(0x40)\n      dup1\n      swap2\n      sub\n      swap1\n      return\n        /* \"30Visibility.sol\":271:284  uint public z */\n    tag_7:\n      tag_19\n      tag_20\n      jump\t// in\n    tag_19:\n      mload(0x40)\n      tag_21\n      swap2\n      swap1\n      tag_11\n      jump\t// in\n    tag_21:\n      mload(0x40)\n      dup1\n      swap2\n      sub\n      swap1\n      return\n        /* \"30Visibility.sol\":550:627  function externalFun() external pure returns(uint){... */\n    tag_9:\n        /* \"30Visibility.sol\":595:599  uint */\n      0x00\n        /* \"30Visibility.sol\":617:620  789 */\n      0x0315\n        /* \"30Visibility.sol\":610:620  return 789 */\n      swap1\n      pop\n        /* \"30Visibility.sol\":550:627  function externalFun() external pure returns(uint){... */\n      swap1\n      jump\t// out\n        /* \"30Visibility.sol\":633:753  function example() external view{... */\n    tag_13:\n        /* \"30Visibility.sol\":679:680  z */\n      sload(0x02)\n        /* \"30Visibility.sol\":677:678  y */\n      sload(0x01)\n        /* \"30Visibility.sol\":675:676  x */\n      sload(0x00)\n        /* \"30Visibility.sol\":675:678  x+y */\n      tag_24\n      swap2\n      swap1\n      tag_25\n      jump\t// in\n    tag_24:\n        /* \"30Visibility.sol\":675:680  x+y+z */\n      tag_26\n      swap2\n      swap1\n      tag_25\n      jump\t// in\n    tag_26:\n      pop\n        /* \"30Visibility.sol\":690:702  privateFun() */\n      tag_27\n        /* \"30Visibility.sol\":690:700  privateFun */\n      tag_28\n        /* \"30Visibility.sol\":690:702  privateFun() */\n      jump\t// in\n    tag_27:\n      pop\n        /* \"30Visibility.sol\":712:725  internalFun() */\n      tag_29\n        /* \"30Visibility.sol\":712:723  internalFun */\n      tag_30\n        /* \"30Visibility.sol\":712:725  internalFun() */\n      jump\t// in\n    tag_29:\n      pop\n        /* \"30Visibility.sol\":735:746  publicFun() */\n      tag_31\n        /* \"30Visibility.sol\":735:744  publicFun */\n      tag_17\n        /* \"30Visibility.sol\":735:746  publicFun() */\n      jump\t// in\n    tag_31:\n      pop\n        /* \"30Visibility.sol\":633:753  function example() external view{... */\n      jump\t// out\n        /* \"30Visibility.sol\":1038:1193  function example2() external view{... */\n    tag_15:\n        /* \"30Visibility.sol\":1084:1085  z */\n      sload(0x02)\n        /* \"30Visibility.sol\":1081:1082  y */\n      sload(0x01)\n        /* \"30Visibility.sol\":1081:1085  y +z */\n      tag_33\n      swap2\n      swap1\n      tag_25\n      jump\t// in\n    tag_33:\n      pop\n        /* \"30Visibility.sol\":1152:1163  publicFun() */\n      tag_34\n        /* \"30Visibility.sol\":1152:1161  publicFun */\n      tag_17\n        /* \"30Visibility.sol\":1152:1163  publicFun() */\n      jump\t// in\n    tag_34:\n      pop\n        /* \"30Visibility.sol\":1173:1186  internalFun() */\n      tag_35\n        /* \"30Visibility.sol\":1173:1184  internalFun */\n      tag_30\n        /* \"30Visibility.sol\":1173:1186  internalFun() */\n      jump\t// in\n    tag_35:\n      pop\n        /* \"30Visibility.sol\":1038:1193  function example2() external view{... */\n      jump\t// out\n        /* \"30Visibility.sol\":463:544  function publicFun() virtual public pure returns(uint){... */\n    tag_17:\n        /* \"30Visibility.sol\":512:516  uint */\n      0x00\n        /* \"30Visibility.sol\":534:537  567 */\n      0x0237\n        /* \"30Visibility.sol\":527:537  return 567 */\n      swap1\n      pop\n        /* \"30Visibility.sol\":463:544  function publicFun() virtual public pure returns(uint){... */\n      swap1\n      jump\t// out\n        /* \"30Visibility.sol\":271:284  uint public z */\n    tag_20:\n      sload(0x02)\n      dup2\n      jump\t// out\n        /* \"30Visibility.sol\":291:366  function privateFun() private pure returns(uint){... */\n    tag_28:\n        /* \"30Visibility.sol\":334:338  uint */\n      0x00\n        /* \"30Visibility.sol\":356:359  123 */\n      0x7b\n        /* \"30Visibility.sol\":349:359  return 123 */\n      swap1\n      pop\n        /* \"30Visibility.sol\":291:366  function privateFun() private pure returns(uint){... */\n      swap1\n      jump\t// out\n        /* \"30Visibility.sol\":372:457  function internalFun() virtual internal pure returns(uint){... */\n    tag_30:\n        /* \"30Visibility.sol\":425:429  uint */\n      0x00\n        /* \"30Visibility.sol\":447:450  345 */\n      0x0159\n        /* \"30Visibility.sol\":440:450  return 345 */\n      swap1\n      pop\n        /* \"30Visibility.sol\":372:457  function internalFun() virtual internal pure returns(uint){... */\n      swap1\n      jump\t// out\n        /* \"#utility.yul\":7:125   */\n    tag_40:\n        /* \"#utility.yul\":94:118   */\n      tag_42\n        /* \"#utility.yul\":112:117   */\n      dup2\n        /* \"#utility.yul\":94:118   */\n      tag_43\n      jump\t// in\n    tag_42:\n        /* \"#utility.yul\":89:92   */\n      dup3\n        /* \"#utility.yul\":82:119   */\n      mstore\n        /* \"#utility.yul\":7:125   */\n      pop\n      pop\n      jump\t// out\n        /* \"#utility.yul\":131:353   */\n    tag_11:\n        /* \"#utility.yul\":224:228   */\n      0x00\n        /* \"#utility.yul\":262:264   */\n      0x20\n        /* \"#utility.yul\":251:260   */\n      dup3\n        /* \"#utility.yul\":247:265   */\n      add\n        /* \"#utility.yul\":239:265   */\n      swap1\n      pop\n        /* \"#utility.yul\":275:346   */\n      tag_45\n        /* \"#utility.yul\":343:344   */\n      0x00\n        /* \"#utility.yul\":332:341   */\n      dup4\n        /* \"#utility.yul\":328:345   */\n      add\n        /* \"#utility.yul\":319:325   */\n      dup5\n        /* \"#utility.yul\":275:346   */\n      tag_40\n      jump\t// in\n    tag_45:\n        /* \"#utility.yul\":131:353   */\n      swap3\n      swap2\n      pop\n      pop\n      jump\t// out\n        /* \"#utility.yul\":359:664   */\n    tag_25:\n        /* \"#utility.yul\":399:402   */\n      0x00\n        /* \"#utility.yul\":418:438   */\n      tag_47\n        /* \"#utility.yul\":436:437   */\n      dup3\n        /* \"#utility.yul\":418:438   */\n      tag_43\n      jump\t// in\n    tag_47:\n        /* \"#utility.yul\":413:438   */\n      swap2\n      pop\n        /* \"#utility.yul\":452:472   */\n      tag_48\n        /* \"#utility.yul\":470:471   */\n      dup4\n        /* \"#utility.yul\":452:472   */\n      tag_43\n      jump\t// in\n    tag_48:\n        /* \"#utility.yul\":447:472   */\n      swap3\n      pop\n        /* \"#utility.yul\":606:607   */\n      dup3\n        /* \"#utility.yul\":538:604   */\n      0xffffffffffffffffffffffffffffffffffffffffffffffffffffffffffffffff\n        /* \"#utility.yul\":534:608   */\n      sub\n        /* \"#utility.yul\":531:532   */\n      dup3\n        /* \"#utility.yul\":528:609   */\n      gt\n        /* \"#utility.yul\":525:632   */\n      iszero\n      tag_49\n      jumpi\n        /* \"#utility.yul\":612:630   */\n      tag_50\n      tag_51\n      jump\t// in\n    tag_50:\n        /* \"#utility.yul\":525:632   */\n    tag_49:\n        /* \"#utility.yul\":656:657   */\n      dup3\n        /* \"#utility.yul\":653:654   */\n      dup3\n        /* \"#utility.yul\":649:658   */\n      add\n        /* \"#utility.yul\":642:658   */\n      swap1\n      pop\n        /* \"#utility.yul\":359:664   */\n      swap3\n      swap2\n      pop\n      pop\n      jump\t// out\n        /* \"#utility.yul\":670:747   */\n    tag_43:\n        /* \"#utility.yul\":707:714   */\n      0x00\n        /* \"#utility.yul\":736:741   */\n      dup2\n        /* \"#utility.yul\":725:741   */\n      swap1\n      pop\n        /* \"#utility.yul\":670:747   */\n      swap2\n      swap1\n      pop\n      jump\t// out\n        /* \"#utility.yul\":753:933   */\n    tag_51:\n        /* \"#utility.yul\":801:878   */\n      0x4e487b7100000000000000000000000000000000000000000000000000000000\n        /* \"#utility.yul\":798:799   */\n      0x00\n        /* \"#utility.yul\":791:879   */\n      mstore\n        /* \"#utility.yul\":898:902   */\n      0x11\n        /* \"#utility.yul\":895:896   */\n      0x04\n        /* \"#utility.yul\":888:903   */\n      mstore\n        /* \"#utility.yul\":922:926   */\n      0x24\n        /* \"#utility.yul\":919:920   */\n      0x00\n        /* \"#utility.yul\":912:927   */\n      revert\n\n    auxdata: 0xa26469706673582212209e14dd139279dc1c472b4d9d3aee6519606c9fdd09f3bd2031bbcfc8bb09c90364736f6c63430008070033\n}\n",
				"bytecode": {
					"linkReferences": {},
					"object": "608060405234801561001057600080fd5b50610246806100206000396000f3fe608060405234801561001057600080fd5b50600436106100575760003560e01c80634c816d9f1461005c57806354353f2f1461007a578063a54998a714610084578063b7372fab1461008e578063c5d7802e146100ac575b600080fd5b6100646100ca565b6040516100719190610166565b60405180910390f35b6100826100d4565b005b61008c61010f565b005b610096610134565b6040516100a39190610166565b60405180910390f35b6100b461013e565b6040516100c19190610166565b60405180910390f35b6000610315905090565b6002546001546000546100e79190610181565b6100f19190610181565b506100fa610144565b5061010361014d565b5061010c610134565b50565b60025460015461011f9190610181565b50610128610134565b5061013161014d565b50565b6000610237905090565b60025481565b6000607b905090565b6000610159905090565b610160816101d7565b82525050565b600060208201905061017b6000830184610157565b92915050565b600061018c826101d7565b9150610197836101d7565b9250827fffffffffffffffffffffffffffffffffffffffffffffffffffffffffffffffff038211156101cc576101cb6101e1565b5b828201905092915050565b6000819050919050565b7f4e487b7100000000000000000000000000000000000000000000000000000000600052601160045260246000fdfea26469706673582212209e14dd139279dc1c472b4d9d3aee6519606c9fdd09f3bd2031bbcfc8bb09c90364736f6c63430008070033",
					"opcodes": "PUSH1 0x80 PUSH1 0x40 MSTORE CALLVALUE DUP1 ISZERO PUSH2 0x10 JUMPI PUSH1 0x0 DUP1 REVERT JUMPDEST POP PUSH2 0x246 DUP1 PUSH2 0x20 PUSH1 0x0 CODECOPY PUSH1 0x0 RETURN INVALID PUSH1 0x80 PUSH1 0x40 MSTORE CALLVALUE DUP1 ISZERO PUSH2 0x10 JUMPI PUSH1 0x0 DUP1 REVERT JUMPDEST POP PUSH1 0x4 CALLDATASIZE LT PUSH2 0x57 JUMPI PUSH1 0x0 CALLDATALOAD PUSH1 0xE0 SHR DUP1 PUSH4 0x4C816D9F EQ PUSH2 0x5C JUMPI DUP1 PUSH4 0x54353F2F EQ PUSH2 0x7A JUMPI DUP1 PUSH4 0xA54998A7 EQ PUSH2 0x84 JUMPI DUP1 PUSH4 0xB7372FAB EQ PUSH2 0x8E JUMPI DUP1 PUSH4 0xC5D7802E EQ PUSH2 0xAC JUMPI JUMPDEST PUSH1 0x0 DUP1 REVERT JUMPDEST PUSH2 0x64 PUSH2 0xCA JUMP JUMPDEST PUSH1 0x40 MLOAD PUSH2 0x71 SWAP2 SWAP1 PUSH2 0x166 JUMP JUMPDEST PUSH1 0x40 MLOAD DUP1 SWAP2 SUB SWAP1 RETURN JUMPDEST PUSH2 0x82 PUSH2 0xD4 JUMP JUMPDEST STOP JUMPDEST PUSH2 0x8C PUSH2 0x10F JUMP JUMPDEST STOP JUMPDEST PUSH2 0x96 PUSH2 0x134 JUMP JUMPDEST PUSH1 0x40 MLOAD PUSH2 0xA3 SWAP2 SWAP1 PUSH2 0x166 JUMP JUMPDEST PUSH1 0x40 MLOAD DUP1 SWAP2 SUB SWAP1 RETURN JUMPDEST PUSH2 0xB4 PUSH2 0x13E JUMP JUMPDEST PUSH1 0x40 MLOAD PUSH2 0xC1 SWAP2 SWAP1 PUSH2 0x166 JUMP JUMPDEST PUSH1 0x40 MLOAD DUP1 SWAP2 SUB SWAP1 RETURN JUMPDEST PUSH1 0x0 PUSH2 0x315 SWAP1 POP SWAP1 JUMP JUMPDEST PUSH1 0x2 SLOAD PUSH1 0x1 SLOAD PUSH1 0x0 SLOAD PUSH2 0xE7 SWAP2 SWAP1 PUSH2 0x181 JUMP JUMPDEST PUSH2 0xF1 SWAP2 SWAP1 PUSH2 0x181 JUMP JUMPDEST POP PUSH2 0xFA PUSH2 0x144 JUMP JUMPDEST POP PUSH2 0x103 PUSH2 0x14D JUMP JUMPDEST POP PUSH2 0x10C PUSH2 0x134 JUMP JUMPDEST POP JUMP JUMPDEST PUSH1 0x2 SLOAD PUSH1 0x1 SLOAD PUSH2 0x11F SWAP2 SWAP1 PUSH2 0x181 JUMP JUMPDEST POP PUSH2 0x128 PUSH2 0x134 JUMP JUMPDEST POP PUSH2 0x131 PUSH2 0x14D JUMP JUMPDEST POP JUMP JUMPDEST PUSH1 0x0 PUSH2 0x237 SWAP1 POP SWAP1 JUMP JUMPDEST PUSH1 0x2 SLOAD DUP2 JUMP JUMPDEST PUSH1 0x0 PUSH1 0x7B SWAP1 POP SWAP1 JUMP JUMPDEST PUSH1 0x0 PUSH2 0x159 SWAP1 POP SWAP1 JUMP JUMPDEST PUSH2 0x160 DUP2 PUSH2 0x1D7 JUMP JUMPDEST DUP3 MSTORE POP POP JUMP JUMPDEST PUSH1 0x0 PUSH1 0x20 DUP3 ADD SWAP1 POP PUSH2 0x17B PUSH1 0x0 DUP4 ADD DUP5 PUSH2 0x157 JUMP JUMPDEST SWAP3 SWAP2 POP POP JUMP JUMPDEST PUSH1 0x0 PUSH2 0x18C DUP3 PUSH2 0x1D7 JUMP JUMPDEST SWAP2 POP PUSH2 0x197 DUP4 PUSH2 0x1D7 JUMP JUMPDEST SWAP3 POP DUP3 PUSH32 0xFFFFFFFFFFFFFFFFFFFFFFFFFFFFFFFFFFFFFFFFFFFFFFFFFFFFFFFFFFFFFFFF SUB DUP3 GT ISZERO PUSH2 0x1CC JUMPI PUSH2 0x1CB PUSH2 0x1E1 JUMP JUMPDEST JUMPDEST DUP3 DUP3 ADD SWAP1 POP SWAP3 SWAP2 POP POP JUMP JUMPDEST PUSH1 0x0 DUP2 SWAP1 POP SWAP2 SWAP1 POP JUMP JUMPDEST PUSH32 0x4E487B7100000000000000000000000000000000000000000000000000000000 PUSH1 0x0 MSTORE PUSH1 0x11 PUSH1 0x4 MSTORE PUSH1 0x24 PUSH1 0x0 REVERT INVALID LOG2 PUSH5 0x6970667358 0x22 SLT KECCAK256 SWAP15 EQ 0xDD SGT SWAP3 PUSH26 0xDC1C472B4D9D3AEE6519606C9FDD09F3BD2031BBCFC8BB09C903 PUSH5 0x736F6C6343 STOP ADDMOD SMOD STOP CALLER "
				},
				"gasEstimates": {
					"creation": {
						"codeDepositCost": "116400",
						"executionCost": "165",
						"totalCost": "116565"
					},
					"external": {
						"example()": "infinite",
						"example2()": "infinite",
						"externalFun()": "315",
						"publicFun()": "381",
						"z()": "2495"
					}
				},
				"methodIdentifiers": {
					"example()": "54353f2f",
					"example2()": "a54998a7",
					"externalFun()": "4c816d9f",
					"publicFun()": "b7372fab",
					"z()": "c5d7802e"
				}
			},
			"storageLayout": {
				"storage": [
					{
						"astId": 3,
						"contract": "30Visibility.sol:C",
						"label": "x",
						"offset": 0,
						"slot": "0",
						"type": "t_uint256"
					},
					{
						"astId": 5,
						"contract": "30Visibility.sol:C",
						"label": "y",
						"offset": 0,
						"slot": "1",
						"type": "t_uint256"
					},
					{
						"astId": 7,
						"contract": "30Visibility.sol:C",
						"label": "z",
						"offset": 0,
						"slot": "2",
						"type": "t_uint256"
					}
				],
				"types": {
					"t_uint256": {
						"encoding": "inplace",
						"label": "uint256",
						"numberOfBytes": "32"
					}
				}
			},
			"userdoc": {
				"kind": "user",
				"methods": {},
				"version": 1
			}
		}
	}
}