{
	"30Visibility.sol": {
		"Visibility": {
			"abi": [
				{
					"inputs": [],
					"name": "example",
					"outputs": [],
					"stateMutability": "view",
					"type": "function"
				},
				{
					"inputs": [],
					"name": "externalFun",
					"outputs": [
						{
							"internalType": "uint256",
							"name": "",
							"type": "uint256"
						}
					],
					"stateMutability": "pure",
					"type": "function"
				},
				{
					"inputs": [],
					"name": "publicFun",
					"outputs": [
						{
							"internalType": "uint256",
							"name": "",
							"type": "uint256"
						}
					],
					"stateMutability": "pure",
					"type": "function"
				},
				{
					"inputs": [],
					"name": "z",
					"outputs": [
						{
							"internalType": "uint256",
							"name": "",
							"type": "uint256"
						}
					],
					"stateMutability": "view",
					"type": "function"
				}
			],
			"devdoc": {
				"kind": "dev",
				"methods": {},
				"version": 1
			},
			"evm": {
				"assembly": "    /* \"30Visibility.sol\":205:755  contract Visibility{... */\n  mstore(0x40, 0x80)\n  callvalue\n  dup1\n  iszero\n  tag_1\n  jumpi\n  0x00\n  dup1\n  revert\ntag_1:\n  pop\n  dataSize(sub_0)\n  dup1\n  dataOffset(sub_0)\n  0x00\n  codecopy\n  0x00\n  return\nstop\n\nsub_0: assembly {\n        /* \"30Visibility.sol\":205:755  contract Visibility{... */\n      mstore(0x40, 0x80)\n      callvalue\n      dup1\n      iszero\n      tag_1\n      jumpi\n      0x00\n      dup1\n      revert\n    tag_1:\n      pop\n      jumpi(tag_2, lt(calldatasize, 0x04))\n      shr(0xe0, calldataload(0x00))\n      dup1\n      0x4c816d9f\n      eq\n      tag_3\n      jumpi\n      dup1\n      0x54353f2f\n      eq\n      tag_4\n      jumpi\n      dup1\n      0xb7372fab\n      eq\n      tag_5\n      jumpi\n      dup1\n      0xc5d7802e\n      eq\n      tag_6\n      jumpi\n    tag_2:\n      0x00\n      dup1\n      revert\n        /* \"30Visibility.sol\":550:627  function externalFun() external pure returns(uint){... */\n    tag_3:\n      tag_7\n      tag_8\n      jump\t// in\n    tag_7:\n      mload(0x40)\n      tag_9\n      swap2\n      swap1\n      tag_10\n      jump\t// in\n    tag_9:\n      mload(0x40)\n      dup1\n      swap2\n      sub\n      swap1\n      return\n        /* \"30Visibility.sol\":633:753  function example() external view{... */\n    tag_4:\n      tag_11\n      tag_12\n      jump\t// in\n    tag_11:\n      stop\n        /* \"30Visibility.sol\":463:544  function publicFun() virtual public pure returns(uint){... */\n    tag_5:\n      tag_13\n      tag_14\n      jump\t// in\n    tag_13:\n      mload(0x40)\n      tag_15\n      swap2\n      swap1\n      tag_10\n      jump\t// in\n    tag_15:\n      mload(0x40)\n      dup1\n      swap2\n      sub\n      swap1\n      return\n        /* \"30Visibility.sol\":271:284  uint public z */\n    tag_6:\n      tag_16\n      tag_17\n      jump\t// in\n    tag_16:\n      mload(0x40)\n      tag_18\n      swap2\n      swap1\n      tag_10\n      jump\t// in\n    tag_18:\n      mload(0x40)\n      dup1\n      swap2\n      sub\n      swap1\n      return\n        /* \"30Visibility.sol\":550:627  function externalFun() external pure returns(uint){... */\n    tag_8:\n        /* \"30Visibility.sol\":595:599  uint */\n      0x00\n        /* \"30Visibility.sol\":617:620  789 */\n      0x0315\n        /* \"30Visibility.sol\":610:620  return 789 */\n      swap1\n      pop\n        /* \"30Visibility.sol\":550:627  function externalFun() external pure returns(uint){... */\n      swap1\n      jump\t// out\n        /* \"30Visibility.sol\":633:753  function example() external view{... */\n    tag_12:\n        /* \"30Visibility.sol\":679:680  z */\n      sload(0x02)\n        /* \"30Visibility.sol\":677:678  y */\n      sload(0x01)\n        /* \"30Visibility.sol\":675:676  x */\n      sload(0x00)\n        /* \"30Visibility.sol\":675:678  x+y */\n      tag_21\n      swap2\n      swap1\n      tag_22\n      jump\t// in\n    tag_21:\n        /* \"30Visibility.sol\":675:680  x+y+z */\n      tag_23\n      swap2\n      swap1\n      tag_22\n      jump\t// in\n    tag_23:\n      pop\n        /* \"30Visibility.sol\":690:702  privateFun() */\n      tag_24\n        /* \"30Visibility.sol\":690:700  privateFun */\n      tag_25\n        /* \"30Visibility.sol\":690:702  privateFun() */\n      jump\t// in\n    tag_24:\n      pop\n        /* \"30Visibility.sol\":712:725  internalFun() */\n      tag_26\n        /* \"30Visibility.sol\":712:723  internalFun */\n      tag_27\n        /* \"30Visibility.sol\":712:725  internalFun() */\n      jump\t// in\n    tag_26:\n      pop\n        /* \"30Visibility.sol\":735:746  publicFun() */\n      tag_28\n        /* \"30Visibility.sol\":735:744  publicFun */\n      tag_14\n        /* \"30Visibility.sol\":735:746  publicFun() */\n      jump\t// in\n    tag_28:\n      pop\n        /* \"30Visibility.sol\":633:753  function example() external view{... */\n      jump\t// out\n        /* \"30Visibility.sol\":463:544  function publicFun() virtual public pure returns(uint){... */\n    tag_14:\n        /* \"30Visibility.sol\":512:516  uint */\n      0x00\n        /* \"30Visibility.sol\":534:537  567 */\n      0x0237\n        /* \"30Visibility.sol\":527:537  return 567 */\n      swap1\n      pop\n        /* \"30Visibility.sol\":463:544  function publicFun() virtual public pure returns(uint){... */\n      swap1\n      jump\t// out\n        /* \"30Visibility.sol\":271:284  uint public z */\n    tag_17:\n      sload(0x02)\n      dup2\n      jump\t// out\n        /* \"30Visibility.sol\":291:366  function privateFun() private pure returns(uint){... */\n    tag_25:\n        /* \"30Visibility.sol\":334:338  uint */\n      0x00\n        /* \"30Visibility.sol\":356:359  123 */\n      0x7b\n        /* \"30Visibility.sol\":349:359  return 123 */\n      swap1\n      pop\n        /* \"30Visibility.sol\":291:366  function privateFun() private pure returns(uint){... */\n      swap1\n      jump\t// out\n        /* \"30Visibility.sol\":372:457  function internalFun() virtual internal pure returns(uint){... */\n    tag_27:\n        /* \"30Visibility.sol\":425:429  uint */\n      0x00\n        /* \"30Visibility.sol\":447:450  345 */\n      0x0159\n        /* \"30Visibility.sol\":440:450  return 345 */\n      swap1\n      pop\n        /* \"30Visibility.sol\":372:457  function internalFun() virtual internal pure returns(uint){... */\n      swap1\n      jump\t// out\n        /* \"#utility.yul\":7:125   */\n    tag_33:\n        /* \"#utility.yul\":94:118   */\n      tag_35\n        /* \"#utility.yul\":112:117   */\n      dup2\n        /* \"#utility.yul\":94:118   */\n      tag_36\n      jump\t// in\n    tag_35:\n        /* \"#utility.yul\":89:92   */\n      dup3\n        /* \"#utility.yul\":82:119   */\n      mstore\n        /* \"#utility.yul\":7:125   */\n      pop\n      pop\n      jump\t// out\n        /* \"#utility.yul\":131:353   */\n    tag_10:\n        /* \"#utility.yul\":224:228   */\n      0x00\n        /* \"#utility.yul\":262:264   */\n      0x20\n        /* \"#utility.yul\":251:260   */\n      dup3\n        /* \"#utility.yul\":247:265   */\n      add\n        /* \"#utility.yul\":239:265   */\n      swap1\n      pop\n        /* \"#utility.yul\":275:346   */\n      tag_38\n        /* \"#utility.yul\":343:344   */\n      0x00\n        /* \"#utility.yul\":332:341   */\n      dup4\n        /* \"#utility.yul\":328:345   */\n      add\n        /* \"#utility.yul\":319:325   */\n      dup5\n        /* \"#utility.yul\":275:346   */\n      tag_33\n      jump\t// in\n    tag_38:\n        /* \"#utility.yul\":131:353   */\n      swap3\n      swap2\n      pop\n      pop\n      jump\t// out\n        /* \"#utility.yul\":359:664   */\n    tag_22:\n        /* \"#utility.yul\":399:402   */\n      0x00\n        /* \"#utility.yul\":418:438   */\n      tag_40\n        /* \"#utility.yul\":436:437   */\n      dup3\n        /* \"#utility.yul\":418:438   */\n      tag_36\n      jump\t// in\n    tag_40:\n        /* \"#utility.yul\":413:438   */\n      swap2\n      pop\n        /* \"#utility.yul\":452:472   */\n      tag_41\n        /* \"#utility.yul\":470:471   */\n      dup4\n        /* \"#utility.yul\":452:472   */\n      tag_36\n      jump\t// in\n    tag_41:\n        /* \"#utility.yul\":447:472   */\n      swap3\n      pop\n        /* \"#utility.yul\":606:607   */\n      dup3\n        /* \"#utility.yul\":538:604   */\n      0xffffffffffffffffffffffffffffffffffffffffffffffffffffffffffffffff\n        /* \"#utility.yul\":534:608   */\n      sub\n        /* \"#utility.yul\":531:532   */\n      dup3\n        /* \"#utility.yul\":528:609   */\n      gt\n        /* \"#utility.yul\":525:632   */\n      iszero\n      tag_42\n      jumpi\n        /* \"#utility.yul\":612:630   */\n      tag_43\n      tag_44\n      jump\t// in\n    tag_43:\n        /* \"#utility.yul\":525:632   */\n    tag_42:\n        /* \"#utility.yul\":656:657   */\n      dup3\n        /* \"#utility.yul\":653:654   */\n      dup3\n        /* \"#utility.yul\":649:658   */\n      add\n        /* \"#utility.yul\":642:658   */\n      swap1\n      pop\n        /* \"#utility.yul\":359:664   */\n      swap3\n      swap2\n      pop\n      pop\n      jump\t// out\n        /* \"#utility.yul\":670:747   */\n    tag_36:\n        /* \"#utility.yul\":707:714   */\n      0x00\n        /* \"#utility.yul\":736:741   */\n      dup2\n        /* \"#utility.yul\":725:741   */\n      swap1\n      pop\n        /* \"#utility.yul\":670:747   */\n      swap2\n      swap1\n      pop\n      jump\t// out\n        /* \"#utility.yul\":753:933   */\n    tag_44:\n        /* \"#utility.yul\":801:878   */\n      0x4e487b7100000000000000000000000000000000000000000000000000000000\n        /* \"#utility.yul\":798:799   */\n      0x00\n        /* \"#utility.yul\":791:879   */\n      mstore\n        /* \"#utility.yul\":898:902   */\n      0x11\n        /* \"#utility.yul\":895:896   */\n      0x04\n        /* \"#utility.yul\":888:903   */\n      mstore\n        /* \"#utility.yul\":922:926   */\n      0x24\n        /* \"#utility.yul\":919:920   */\n      0x00\n        /* \"#utility.yul\":912:927   */\n      revert\n\n    auxdata: 0xa2646970667358221220983f361a5110a469814696b7dee44ddae07507ea93dea732643883fcb4209e1a64736f6c63430008070033\n}\n",
				"bytecode": {
					"linkReferences": {},
					"object": "608060405234801561001057600080fd5b5061020c806100206000396000f3fe608060405234801561001057600080fd5b506004361061004c5760003560e01c80634c816d9f1461005157806354353f2f1461006f578063b7372fab14610079578063c5d7802e14610097575b600080fd5b6100596100b5565b604051610066919061012c565b60405180910390f35b6100776100bf565b005b6100816100fa565b60405161008e919061012c565b60405180910390f35b61009f610104565b6040516100ac919061012c565b60405180910390f35b6000610315905090565b6002546001546000546100d29190610147565b6100dc9190610147565b506100e561010a565b506100ee610113565b506100f76100fa565b50565b6000610237905090565b60025481565b6000607b905090565b6000610159905090565b6101268161019d565b82525050565b6000602082019050610141600083018461011d565b92915050565b60006101528261019d565b915061015d8361019d565b9250827fffffffffffffffffffffffffffffffffffffffffffffffffffffffffffffffff03821115610192576101916101a7565b5b828201905092915050565b6000819050919050565b7f4e487b7100000000000000000000000000000000000000000000000000000000600052601160045260246000fdfea2646970667358221220983f361a5110a469814696b7dee44ddae07507ea93dea732643883fcb4209e1a64736f6c63430008070033",
					"opcodes": "PUSH1 0x80 PUSH1 0x40 MSTORE CALLVALUE DUP1 ISZERO PUSH2 0x10 JUMPI PUSH1 0x0 DUP1 REVERT JUMPDEST POP PUSH2 0x20C DUP1 PUSH2 0x20 PUSH1 0x0 CODECOPY PUSH1 0x0 RETURN INVALID PUSH1 0x80 PUSH1 0x40 MSTORE CALLVALUE DUP1 ISZERO PUSH2 0x10 JUMPI PUSH1 0x0 DUP1 REVERT JUMPDEST POP PUSH1 0x4 CALLDATASIZE LT PUSH2 0x4C JUMPI PUSH1 0x0 CALLDATALOAD PUSH1 0xE0 SHR DUP1 PUSH4 0x4C816D9F EQ PUSH2 0x51 JUMPI DUP1 PUSH4 0x54353F2F EQ PUSH2 0x6F JUMPI DUP1 PUSH4 0xB7372FAB EQ PUSH2 0x79 JUMPI DUP1 PUSH4 0xC5D7802E EQ PUSH2 0x97 JUMPI JUMPDEST PUSH1 0x0 DUP1 REVERT JUMPDEST PUSH2 0x59 PUSH2 0xB5 JUMP JUMPDEST PUSH1 0x40 MLOAD PUSH2 0x66 SWAP2 SWAP1 PUSH2 0x12C JUMP JUMPDEST PUSH1 0x40 MLOAD DUP1 SWAP2 SUB SWAP1 RETURN JUMPDEST PUSH2 0x77 PUSH2 0xBF JUMP JUMPDEST STOP JUMPDEST PUSH2 0x81 PUSH2 0xFA JUMP JUMPDEST PUSH1 0x40 MLOAD PUSH2 0x8E SWAP2 SWAP1 PUSH2 0x12C JUMP JUMPDEST PUSH1 0x40 MLOAD DUP1 SWAP2 SUB SWAP1 RETURN JUMPDEST PUSH2 0x9F PUSH2 0x104 JUMP JUMPDEST PUSH1 0x40 MLOAD PUSH2 0xAC SWAP2 SWAP1 PUSH2 0x12C JUMP JUMPDEST PUSH1 0x40 MLOAD DUP1 SWAP2 SUB SWAP1 RETURN JUMPDEST PUSH1 0x0 PUSH2 0x315 SWAP1 POP SWAP1 JUMP JUMPDEST PUSH1 0x2 SLOAD PUSH1 0x1 SLOAD PUSH1 0x0 SLOAD PUSH2 0xD2 SWAP2 SWAP1 PUSH2 0x147 JUMP JUMPDEST PUSH2 0xDC SWAP2 SWAP1 PUSH2 0x147 JUMP JUMPDEST POP PUSH2 0xE5 PUSH2 0x10A JUMP JUMPDEST POP PUSH2 0xEE PUSH2 0x113 JUMP JUMPDEST POP PUSH2 0xF7 PUSH2 0xFA JUMP JUMPDEST POP JUMP JUMPDEST PUSH1 0x0 PUSH2 0x237 SWAP1 POP SWAP1 JUMP JUMPDEST PUSH1 0x2 SLOAD DUP2 JUMP JUMPDEST PUSH1 0x0 PUSH1 0x7B SWAP1 POP SWAP1 JUMP JUMPDEST PUSH1 0x0 PUSH2 0x159 SWAP1 POP SWAP1 JUMP JUMPDEST PUSH2 0x126 DUP2 PUSH2 0x19D JUMP JUMPDEST DUP3 MSTORE POP POP JUMP JUMPDEST PUSH1 0x0 PUSH1 0x20 DUP3 ADD SWAP1 POP PUSH2 0x141 PUSH1 0x0 DUP4 ADD DUP5 PUSH2 0x11D JUMP JUMPDEST SWAP3 SWAP2 POP POP JUMP JUMPDEST PUSH1 0x0 PUSH2 0x152 DUP3 PUSH2 0x19D JUMP JUMPDEST SWAP2 POP PUSH2 0x15D DUP4 PUSH2 0x19D JUMP JUMPDEST SWAP3 POP DUP3 PUSH32 0xFFFFFFFFFFFFFFFFFFFFFFFFFFFFFFFFFFFFFFFFFFFFFFFFFFFFFFFFFFFFFFFF SUB DUP3 GT ISZERO PUSH2 0x192 JUMPI PUSH2 0x191 PUSH2 0x1A7 JUMP JUMPDEST JUMPDEST DUP3 DUP3 ADD SWAP1 POP SWAP3 SWAP2 POP POP JUMP JUMPDEST PUSH1 0x0 DUP2 SWAP1 POP SWAP2 SWAP1 POP JUMP JUMPDEST PUSH32 0x4E487B7100000000000000000000000000000000000000000000000000000000 PUSH1 0x0 MSTORE PUSH1 0x11 PUSH1 0x4 MSTORE PUSH1 0x24 PUSH1 0x0 REVERT INVALID LOG2 PUSH5 0x6970667358 0x22 SLT KECCAK256 SWAP9 EXTCODEHASH CALLDATASIZE BYTE MLOAD LT LOG4 PUSH10 0x814696B7DEE44DDAE075 SMOD 0xEA SWAP4 0xDE 0xA7 ORIGIN PUSH5 0x3883FCB420 SWAP15 BYTE PUSH5 0x736F6C6343 STOP ADDMOD SMOD STOP CALLER "
				},
				"gasEstimates": {
					"creation": {
						"codeDepositCost": "104800",
						"executionCost": "153",
						"totalCost": "104953"
					},
					"external": {
						"example()": "infinite",
						"externalFun()": "315",
						"publicFun()": "359",
						"z()": "2473"
					},
					"internal": {
						"internalFun()": "23",
						"privateFun()": "23"
					}
				},
				"methodIdentifiers": {
					"example()": "54353f2f",
					"externalFun()": "4c816d9f",
					"publicFun()": "b7372fab",
					"z()": "c5d7802e"
				}
			},
			"storageLayout": {
				"storage": [
					{
						"astId": 3,
						"contract": "30Visibility.sol:Visibility",
						"label": "x",
						"offset": 0,
						"slot": "0",
						"type": "t_uint256"
					},
					{
						"astId": 5,
						"contract": "30Visibility.sol:Visibility",
						"label": "y",
						"offset": 0,
						"slot": "1",
						"type": "t_uint256"
					},
					{
						"astId": 7,
						"contract": "30Visibility.sol:Visibility",
						"label": "z",
						"offset": 0,
						"slot": "2",
						"type": "t_uint256"
					}
				],
				"types": {
					"t_uint256": {
						"encoding": "inplace",
						"label": "uint256",
						"numberOfBytes": "32"
					}
				}
			},
			"userdoc": {
				"kind": "user",
				"methods": {},
				"version": 1
			}
		}
	}
}