{
	"33SendEth.sol": {
		"SendEth": {
			"abi": [
				{
					"inputs": [],
					"stateMutability": "payable",
					"type": "constructor"
				},
				{
					"anonymous": false,
					"inputs": [
						{
							"indexed": false,
							"internalType": "string",
							"name": "Fun",
							"type": "string"
						},
						{
							"indexed": false,
							"internalType": "uint256",
							"name": "gas",
							"type": "uint256"
						}
					],
					"name": "Log",
					"type": "event"
				},
				{
					"inputs": [
						{
							"internalType": "address payable",
							"name": "_to",
							"type": "address"
						}
					],
					"name": "callFun",
					"outputs": [],
					"stateMutability": "payable",
					"type": "function"
				},
				{
					"inputs": [],
					"name": "queryAccount",
					"outputs": [
						{
							"internalType": "uint256",
							"name": "",
							"type": "uint256"
						}
					],
					"stateMutability": "payable",
					"type": "function"
				},
				{
					"inputs": [
						{
							"internalType": "address payable",
							"name": "_to",
							"type": "address"
						}
					],
					"name": "sendFun",
					"outputs": [],
					"stateMutability": "payable",
					"type": "function"
				},
				{
					"inputs": [
						{
							"internalType": "address payable",
							"name": "_to",
							"type": "address"
						}
					],
					"name": "transferFun",
					"outputs": [],
					"stateMutability": "payable",
					"type": "function"
				},
				{
					"stateMutability": "payable",
					"type": "receive"
				}
			],
			"devdoc": {
				"kind": "dev",
				"methods": {},
				"version": 1
			},
			"evm": {
				"assembly": "    /* \"33SendEth.sol\":341:1295  contract SendEth{... */\n  mstore(0x40, 0x80)\n  dataSize(sub_0)\n  dup1\n  dataOffset(sub_0)\n  0x00\n  codecopy\n  0x00\n  return\nstop\n\nsub_0: assembly {\n        /* \"33SendEth.sol\":341:1295  contract SendEth{... */\n      mstore(0x40, 0x80)\n      jumpi(tag_1, lt(calldatasize, 0x04))\n      shr(0xe0, calldataload(0x00))\n      dup1\n      0x19a5f57e\n      eq\n      tag_3\n      jumpi\n      dup1\n      0x2a8ce70b\n      eq\n      tag_4\n      jumpi\n      dup1\n      0xb701254a\n      eq\n      tag_5\n      jumpi\n      dup1\n      0xf47f66af\n      eq\n      tag_6\n      jumpi\n      jump(tag_2)\n    tag_1:\n      jumpi(tag_2, calldatasize)\n      stop\n    tag_2:\n      0x00\n      dup1\n      revert\n        /* \"33SendEth.sol\":992:1293  function callFun(address payable _to) external payable{... */\n    tag_3:\n      tag_9\n      0x04\n      dup1\n      calldatasize\n      sub\n      dup2\n      add\n      swap1\n      tag_10\n      swap2\n      swap1\n      tag_11\n      jump\t// in\n    tag_10:\n      tag_12\n      jump\t// in\n    tag_9:\n      stop\n        /* \"33SendEth.sol\":807:986  function sendFun(address payable _to) external payable {... */\n    tag_4:\n      tag_13\n      0x04\n      dup1\n      calldatasize\n      sub\n      dup2\n      add\n      swap1\n      tag_14\n      swap2\n      swap1\n      tag_11\n      jump\t// in\n    tag_14:\n      tag_15\n      jump\t// in\n    tag_13:\n      stop\n        /* \"33SendEth.sol\":515:614  function queryAccount() external payable returns(uint){... */\n    tag_5:\n      tag_16\n      tag_17\n      jump\t// in\n    tag_16:\n      mload(0x40)\n      tag_18\n      swap2\n      swap1\n      tag_19\n      jump\t// in\n    tag_18:\n      mload(0x40)\n      dup1\n      swap2\n      sub\n      swap1\n      return\n        /* \"33SendEth.sol\":620:753  function transferFun(address payable _to)external payable{... */\n    tag_6:\n      tag_20\n      0x04\n      dup1\n      calldatasize\n      sub\n      dup2\n      add\n      swap1\n      tag_21\n      swap2\n      swap1\n      tag_11\n      jump\t// in\n    tag_21:\n      tag_22\n      jump\t// in\n    tag_20:\n      stop\n        /* \"33SendEth.sol\":992:1293  function callFun(address payable _to) external payable{... */\n    tag_12:\n        /* \"33SendEth.sol\":1164:1176  bool success */\n      0x00\n        /* \"33SendEth.sol\":1181:1184  _to */\n      dup2\n        /* \"33SendEth.sol\":1181:1189  _to.call */\n      0xffffffffffffffffffffffffffffffffffffffff\n      and\n        /* \"33SendEth.sol\":1196:1197  1 */\n      0x01\n        /* \"33SendEth.sol\":1181:1202  _to.call{value:1}(\"\") */\n      mload(0x40)\n      tag_24\n      swap1\n      tag_25\n      jump\t// in\n    tag_24:\n      0x00\n      mload(0x40)\n      dup1\n      dup4\n      sub\n      dup2\n      dup6\n      dup8\n      gas\n      call\n      swap3\n      pop\n      pop\n      pop\n      returndatasize\n      dup1\n      0x00\n      dup2\n      eq\n      tag_28\n      jumpi\n      mload(0x40)\n      swap2\n      pop\n      and(add(returndatasize, 0x3f), not(0x1f))\n      dup3\n      add\n      0x40\n      mstore\n      returndatasize\n      dup3\n      mstore\n      returndatasize\n      0x00\n      0x20\n      dup5\n      add\n      returndatacopy\n      jump(tag_27)\n    tag_28:\n      0x60\n      swap2\n      pop\n    tag_27:\n      pop\n        /* \"33SendEth.sol\":1163:1202  (bool success,) = _to.call{value:1}(\"\") */\n      pop\n      swap1\n      pop\n        /* \"33SendEth.sol\":1220:1227  success */\n      dup1\n        /* \"33SendEth.sol\":1212:1242  require(success,\"call failed\") */\n      tag_29\n      jumpi\n      mload(0x40)\n      0x08c379a000000000000000000000000000000000000000000000000000000000\n      dup2\n      mstore\n      0x04\n      add\n      tag_30\n      swap1\n      tag_31\n      jump\t// in\n    tag_30:\n      mload(0x40)\n      dup1\n      swap2\n      sub\n      swap1\n      revert\n    tag_29:\n        /* \"33SendEth.sol\":1257:1286  Log(\"transferFun\", gasleft()) */\n      0xdd970dd9b5bfe707922155b058a407655cb18288b807e2216442bca8ad83d6b5\n        /* \"33SendEth.sol\":1276:1285  gasleft() */\n      gas\n        /* \"33SendEth.sol\":1257:1286  Log(\"transferFun\", gasleft()) */\n      mload(0x40)\n      tag_32\n      swap2\n      swap1\n      tag_33\n      jump\t// in\n    tag_32:\n      mload(0x40)\n      dup1\n      swap2\n      sub\n      swap1\n      log1\n        /* \"33SendEth.sol\":1046:1293  {... */\n      pop\n        /* \"33SendEth.sol\":992:1293  function callFun(address payable _to) external payable{... */\n      pop\n      jump\t// out\n        /* \"33SendEth.sol\":807:986  function sendFun(address payable _to) external payable {... */\n    tag_15:\n        /* \"33SendEth.sol\":872:884  bool success */\n      0x00\n        /* \"33SendEth.sol\":887:890  _to */\n      dup2\n        /* \"33SendEth.sol\":887:895  _to.send */\n      0xffffffffffffffffffffffffffffffffffffffff\n      and\n        /* \"33SendEth.sol\":887:898  _to.send(1) */\n      0x08fc\n        /* \"33SendEth.sol\":896:897  1 */\n      0x01\n        /* \"33SendEth.sol\":887:898  _to.send(1) */\n      swap1\n      dup2\n      iszero\n      mul\n      swap1\n      mload(0x40)\n      0x00\n      mload(0x40)\n      dup1\n      dup4\n      sub\n      dup2\n      dup6\n      dup9\n      dup9\n      call\n      swap4\n      pop\n      pop\n      pop\n      pop\n        /* \"33SendEth.sol\":872:898  bool success = _to.send(1) */\n      swap1\n      pop\n        /* \"33SendEth.sol\":916:923  success */\n      dup1\n        /* \"33SendEth.sol\":908:939  require(success,\"fail to send\") */\n      tag_36\n      jumpi\n      mload(0x40)\n      0x08c379a000000000000000000000000000000000000000000000000000000000\n      dup2\n      mstore\n      0x04\n      add\n      tag_37\n      swap1\n      tag_38\n      jump\t// in\n    tag_37:\n      mload(0x40)\n      dup1\n      swap2\n      sub\n      swap1\n      revert\n    tag_36:\n        /* \"33SendEth.sol\":954:979  Log(\"sendFun\", gasleft()) */\n      0xdd970dd9b5bfe707922155b058a407655cb18288b807e2216442bca8ad83d6b5\n        /* \"33SendEth.sol\":969:978  gasleft() */\n      gas\n        /* \"33SendEth.sol\":954:979  Log(\"sendFun\", gasleft()) */\n      mload(0x40)\n      tag_39\n      swap2\n      swap1\n      tag_40\n      jump\t// in\n    tag_39:\n      mload(0x40)\n      dup1\n      swap2\n      sub\n      swap1\n      log1\n        /* \"33SendEth.sol\":862:986  {... */\n      pop\n        /* \"33SendEth.sol\":807:986  function sendFun(address payable _to) external payable {... */\n      pop\n      jump\t// out\n        /* \"33SendEth.sol\":515:614  function queryAccount() external payable returns(uint){... */\n    tag_17:\n        /* \"33SendEth.sol\":564:568  uint */\n      0x00\n        /* \"33SendEth.sol\":586:607  address(this).balance */\n      selfbalance\n        /* \"33SendEth.sol\":579:607  return address(this).balance */\n      swap1\n      pop\n        /* \"33SendEth.sol\":515:614  function queryAccount() external payable returns(uint){... */\n      swap1\n      jump\t// out\n        /* \"33SendEth.sol\":620:753  function transferFun(address payable _to)external payable{... */\n    tag_22:\n        /* \"33SendEth.sol\":687:690  _to */\n      dup1\n        /* \"33SendEth.sol\":687:699  _to.transfer */\n      0xffffffffffffffffffffffffffffffffffffffff\n      and\n        /* \"33SendEth.sol\":687:702  _to.transfer(1) */\n      0x08fc\n        /* \"33SendEth.sol\":700:701  1 */\n      0x01\n        /* \"33SendEth.sol\":687:702  _to.transfer(1) */\n      swap1\n      dup2\n      iszero\n      mul\n      swap1\n      mload(0x40)\n      0x00\n      mload(0x40)\n      dup1\n      dup4\n      sub\n      dup2\n      dup6\n      dup9\n      dup9\n      call\n      swap4\n      pop\n      pop\n      pop\n      pop\n      iszero\n      dup1\n      iszero\n      tag_44\n      jumpi\n      returndatasize\n      0x00\n      dup1\n      returndatacopy\n      revert(0x00, returndatasize)\n    tag_44:\n      pop\n        /* \"33SendEth.sol\":717:746  Log(\"transferFun\", gasleft()) */\n      0xdd970dd9b5bfe707922155b058a407655cb18288b807e2216442bca8ad83d6b5\n        /* \"33SendEth.sol\":736:745  gasleft() */\n      gas\n        /* \"33SendEth.sol\":717:746  Log(\"transferFun\", gasleft()) */\n      mload(0x40)\n      tag_45\n      swap2\n      swap1\n      tag_33\n      jump\t// in\n    tag_45:\n      mload(0x40)\n      dup1\n      swap2\n      sub\n      swap1\n      log1\n        /* \"33SendEth.sol\":620:753  function transferFun(address payable _to)external payable{... */\n      pop\n      jump\t// out\n        /* \"#utility.yul\":7:162   */\n    tag_47:\n        /* \"#utility.yul\":61:66   */\n      0x00\n        /* \"#utility.yul\":99:105   */\n      dup2\n        /* \"#utility.yul\":86:106   */\n      calldataload\n        /* \"#utility.yul\":77:106   */\n      swap1\n      pop\n        /* \"#utility.yul\":115:156   */\n      tag_49\n        /* \"#utility.yul\":150:155   */\n      dup2\n        /* \"#utility.yul\":115:156   */\n      tag_50\n      jump\t// in\n    tag_49:\n        /* \"#utility.yul\":7:162   */\n      swap3\n      swap2\n      pop\n      pop\n      jump\t// out\n        /* \"#utility.yul\":168:513   */\n    tag_11:\n        /* \"#utility.yul\":235:241   */\n      0x00\n        /* \"#utility.yul\":284:286   */\n      0x20\n        /* \"#utility.yul\":272:281   */\n      dup3\n        /* \"#utility.yul\":263:270   */\n      dup5\n        /* \"#utility.yul\":259:282   */\n      sub\n        /* \"#utility.yul\":255:287   */\n      slt\n        /* \"#utility.yul\":252:371   */\n      iszero\n      tag_52\n      jumpi\n        /* \"#utility.yul\":290:369   */\n      tag_53\n      tag_54\n      jump\t// in\n    tag_53:\n        /* \"#utility.yul\":252:371   */\n    tag_52:\n        /* \"#utility.yul\":410:411   */\n      0x00\n        /* \"#utility.yul\":435:496   */\n      tag_55\n        /* \"#utility.yul\":488:495   */\n      dup5\n        /* \"#utility.yul\":479:485   */\n      dup3\n        /* \"#utility.yul\":468:477   */\n      dup6\n        /* \"#utility.yul\":464:486   */\n      add\n        /* \"#utility.yul\":435:496   */\n      tag_47\n      jump\t// in\n    tag_55:\n        /* \"#utility.yul\":425:496   */\n      swap2\n      pop\n        /* \"#utility.yul\":381:506   */\n      pop\n        /* \"#utility.yul\":168:513   */\n      swap3\n      swap2\n      pop\n      pop\n      jump\t// out\n        /* \"#utility.yul\":519:885   */\n    tag_56:\n        /* \"#utility.yul\":661:664   */\n      0x00\n        /* \"#utility.yul\":682:749   */\n      tag_58\n        /* \"#utility.yul\":746:748   */\n      0x0b\n        /* \"#utility.yul\":741:744   */\n      dup4\n        /* \"#utility.yul\":682:749   */\n      tag_59\n      jump\t// in\n    tag_58:\n        /* \"#utility.yul\":675:749   */\n      swap2\n      pop\n        /* \"#utility.yul\":758:851   */\n      tag_60\n        /* \"#utility.yul\":847:850   */\n      dup3\n        /* \"#utility.yul\":758:851   */\n      tag_61\n      jump\t// in\n    tag_60:\n        /* \"#utility.yul\":876:878   */\n      0x20\n        /* \"#utility.yul\":871:874   */\n      dup3\n        /* \"#utility.yul\":867:879   */\n      add\n        /* \"#utility.yul\":860:879   */\n      swap1\n      pop\n        /* \"#utility.yul\":519:885   */\n      swap2\n      swap1\n      pop\n      jump\t// out\n        /* \"#utility.yul\":891:1257   */\n    tag_62:\n        /* \"#utility.yul\":1033:1036   */\n      0x00\n        /* \"#utility.yul\":1054:1121   */\n      tag_64\n        /* \"#utility.yul\":1118:1120   */\n      0x0b\n        /* \"#utility.yul\":1113:1116   */\n      dup4\n        /* \"#utility.yul\":1054:1121   */\n      tag_59\n      jump\t// in\n    tag_64:\n        /* \"#utility.yul\":1047:1121   */\n      swap2\n      pop\n        /* \"#utility.yul\":1130:1223   */\n      tag_65\n        /* \"#utility.yul\":1219:1222   */\n      dup3\n        /* \"#utility.yul\":1130:1223   */\n      tag_66\n      jump\t// in\n    tag_65:\n        /* \"#utility.yul\":1248:1250   */\n      0x20\n        /* \"#utility.yul\":1243:1246   */\n      dup3\n        /* \"#utility.yul\":1239:1251   */\n      add\n        /* \"#utility.yul\":1232:1251   */\n      swap1\n      pop\n        /* \"#utility.yul\":891:1257   */\n      swap2\n      swap1\n      pop\n      jump\t// out\n        /* \"#utility.yul\":1263:1628   */\n    tag_67:\n        /* \"#utility.yul\":1405:1408   */\n      0x00\n        /* \"#utility.yul\":1426:1492   */\n      tag_69\n        /* \"#utility.yul\":1490:1491   */\n      0x07\n        /* \"#utility.yul\":1485:1488   */\n      dup4\n        /* \"#utility.yul\":1426:1492   */\n      tag_59\n      jump\t// in\n    tag_69:\n        /* \"#utility.yul\":1419:1492   */\n      swap2\n      pop\n        /* \"#utility.yul\":1501:1594   */\n      tag_70\n        /* \"#utility.yul\":1590:1593   */\n      dup3\n        /* \"#utility.yul\":1501:1594   */\n      tag_71\n      jump\t// in\n    tag_70:\n        /* \"#utility.yul\":1619:1621   */\n      0x20\n        /* \"#utility.yul\":1614:1617   */\n      dup3\n        /* \"#utility.yul\":1610:1622   */\n      add\n        /* \"#utility.yul\":1603:1622   */\n      swap1\n      pop\n        /* \"#utility.yul\":1263:1628   */\n      swap2\n      swap1\n      pop\n      jump\t// out\n        /* \"#utility.yul\":1634:2032   */\n    tag_72:\n        /* \"#utility.yul\":1793:1796   */\n      0x00\n        /* \"#utility.yul\":1814:1897   */\n      tag_74\n        /* \"#utility.yul\":1895:1896   */\n      0x00\n        /* \"#utility.yul\":1890:1893   */\n      dup4\n        /* \"#utility.yul\":1814:1897   */\n      tag_75\n      jump\t// in\n    tag_74:\n        /* \"#utility.yul\":1807:1897   */\n      swap2\n      pop\n        /* \"#utility.yul\":1906:1999   */\n      tag_76\n        /* \"#utility.yul\":1995:1998   */\n      dup3\n        /* \"#utility.yul\":1906:1999   */\n      tag_77\n      jump\t// in\n    tag_76:\n        /* \"#utility.yul\":2024:2025   */\n      0x00\n        /* \"#utility.yul\":2019:2022   */\n      dup3\n        /* \"#utility.yul\":2015:2026   */\n      add\n        /* \"#utility.yul\":2008:2026   */\n      swap1\n      pop\n        /* \"#utility.yul\":1634:2032   */\n      swap2\n      swap1\n      pop\n      jump\t// out\n        /* \"#utility.yul\":2038:2404   */\n    tag_78:\n        /* \"#utility.yul\":2180:2183   */\n      0x00\n        /* \"#utility.yul\":2201:2268   */\n      tag_80\n        /* \"#utility.yul\":2265:2267   */\n      0x0c\n        /* \"#utility.yul\":2260:2263   */\n      dup4\n        /* \"#utility.yul\":2201:2268   */\n      tag_59\n      jump\t// in\n    tag_80:\n        /* \"#utility.yul\":2194:2268   */\n      swap2\n      pop\n        /* \"#utility.yul\":2277:2370   */\n      tag_81\n        /* \"#utility.yul\":2366:2369   */\n      dup3\n        /* \"#utility.yul\":2277:2370   */\n      tag_82\n      jump\t// in\n    tag_81:\n        /* \"#utility.yul\":2395:2397   */\n      0x20\n        /* \"#utility.yul\":2390:2393   */\n      dup3\n        /* \"#utility.yul\":2386:2398   */\n      add\n        /* \"#utility.yul\":2379:2398   */\n      swap1\n      pop\n        /* \"#utility.yul\":2038:2404   */\n      swap2\n      swap1\n      pop\n      jump\t// out\n        /* \"#utility.yul\":2410:2528   */\n    tag_83:\n        /* \"#utility.yul\":2497:2521   */\n      tag_85\n        /* \"#utility.yul\":2515:2520   */\n      dup2\n        /* \"#utility.yul\":2497:2521   */\n      tag_86\n      jump\t// in\n    tag_85:\n        /* \"#utility.yul\":2492:2495   */\n      dup3\n        /* \"#utility.yul\":2485:2522   */\n      mstore\n        /* \"#utility.yul\":2410:2528   */\n      pop\n      pop\n      jump\t// out\n        /* \"#utility.yul\":2534:2913   */\n    tag_25:\n        /* \"#utility.yul\":2718:2721   */\n      0x00\n        /* \"#utility.yul\":2740:2887   */\n      tag_88\n        /* \"#utility.yul\":2883:2886   */\n      dup3\n        /* \"#utility.yul\":2740:2887   */\n      tag_72\n      jump\t// in\n    tag_88:\n        /* \"#utility.yul\":2733:2887   */\n      swap2\n      pop\n        /* \"#utility.yul\":2904:2907   */\n      dup2\n        /* \"#utility.yul\":2897:2907   */\n      swap1\n      pop\n        /* \"#utility.yul\":2534:2913   */\n      swap2\n      swap1\n      pop\n      jump\t// out\n        /* \"#utility.yul\":2919:3448   */\n    tag_33:\n        /* \"#utility.yul\":3113:3117   */\n      0x00\n        /* \"#utility.yul\":3151:3153   */\n      0x40\n        /* \"#utility.yul\":3140:3149   */\n      dup3\n        /* \"#utility.yul\":3136:3154   */\n      add\n        /* \"#utility.yul\":3128:3154   */\n      swap1\n      pop\n        /* \"#utility.yul\":3200:3209   */\n      dup2\n        /* \"#utility.yul\":3194:3198   */\n      dup2\n        /* \"#utility.yul\":3190:3210   */\n      sub\n        /* \"#utility.yul\":3186:3187   */\n      0x00\n        /* \"#utility.yul\":3175:3184   */\n      dup4\n        /* \"#utility.yul\":3171:3188   */\n      add\n        /* \"#utility.yul\":3164:3211   */\n      mstore\n        /* \"#utility.yul\":3228:3359   */\n      tag_90\n        /* \"#utility.yul\":3354:3358   */\n      dup2\n        /* \"#utility.yul\":3228:3359   */\n      tag_56\n      jump\t// in\n    tag_90:\n        /* \"#utility.yul\":3220:3359   */\n      swap1\n      pop\n        /* \"#utility.yul\":3369:3441   */\n      tag_91\n        /* \"#utility.yul\":3437:3439   */\n      0x20\n        /* \"#utility.yul\":3426:3435   */\n      dup4\n        /* \"#utility.yul\":3422:3440   */\n      add\n        /* \"#utility.yul\":3413:3419   */\n      dup5\n        /* \"#utility.yul\":3369:3441   */\n      tag_83\n      jump\t// in\n    tag_91:\n        /* \"#utility.yul\":2919:3448   */\n      swap3\n      swap2\n      pop\n      pop\n      jump\t// out\n        /* \"#utility.yul\":3454:3873   */\n    tag_31:\n        /* \"#utility.yul\":3620:3624   */\n      0x00\n        /* \"#utility.yul\":3658:3660   */\n      0x20\n        /* \"#utility.yul\":3647:3656   */\n      dup3\n        /* \"#utility.yul\":3643:3661   */\n      add\n        /* \"#utility.yul\":3635:3661   */\n      swap1\n      pop\n        /* \"#utility.yul\":3707:3716   */\n      dup2\n        /* \"#utility.yul\":3701:3705   */\n      dup2\n        /* \"#utility.yul\":3697:3717   */\n      sub\n        /* \"#utility.yul\":3693:3694   */\n      0x00\n        /* \"#utility.yul\":3682:3691   */\n      dup4\n        /* \"#utility.yul\":3678:3695   */\n      add\n        /* \"#utility.yul\":3671:3718   */\n      mstore\n        /* \"#utility.yul\":3735:3866   */\n      tag_93\n        /* \"#utility.yul\":3861:3865   */\n      dup2\n        /* \"#utility.yul\":3735:3866   */\n      tag_62\n      jump\t// in\n    tag_93:\n        /* \"#utility.yul\":3727:3866   */\n      swap1\n      pop\n        /* \"#utility.yul\":3454:3873   */\n      swap2\n      swap1\n      pop\n      jump\t// out\n        /* \"#utility.yul\":3879:4408   */\n    tag_40:\n        /* \"#utility.yul\":4073:4077   */\n      0x00\n        /* \"#utility.yul\":4111:4113   */\n      0x40\n        /* \"#utility.yul\":4100:4109   */\n      dup3\n        /* \"#utility.yul\":4096:4114   */\n      add\n        /* \"#utility.yul\":4088:4114   */\n      swap1\n      pop\n        /* \"#utility.yul\":4160:4169   */\n      dup2\n        /* \"#utility.yul\":4154:4158   */\n      dup2\n        /* \"#utility.yul\":4150:4170   */\n      sub\n        /* \"#utility.yul\":4146:4147   */\n      0x00\n        /* \"#utility.yul\":4135:4144   */\n      dup4\n        /* \"#utility.yul\":4131:4148   */\n      add\n        /* \"#utility.yul\":4124:4171   */\n      mstore\n        /* \"#utility.yul\":4188:4319   */\n      tag_95\n        /* \"#utility.yul\":4314:4318   */\n      dup2\n        /* \"#utility.yul\":4188:4319   */\n      tag_67\n      jump\t// in\n    tag_95:\n        /* \"#utility.yul\":4180:4319   */\n      swap1\n      pop\n        /* \"#utility.yul\":4329:4401   */\n      tag_96\n        /* \"#utility.yul\":4397:4399   */\n      0x20\n        /* \"#utility.yul\":4386:4395   */\n      dup4\n        /* \"#utility.yul\":4382:4400   */\n      add\n        /* \"#utility.yul\":4373:4379   */\n      dup5\n        /* \"#utility.yul\":4329:4401   */\n      tag_83\n      jump\t// in\n    tag_96:\n        /* \"#utility.yul\":3879:4408   */\n      swap3\n      swap2\n      pop\n      pop\n      jump\t// out\n        /* \"#utility.yul\":4414:4833   */\n    tag_38:\n        /* \"#utility.yul\":4580:4584   */\n      0x00\n        /* \"#utility.yul\":4618:4620   */\n      0x20\n        /* \"#utility.yul\":4607:4616   */\n      dup3\n        /* \"#utility.yul\":4603:4621   */\n      add\n        /* \"#utility.yul\":4595:4621   */\n      swap1\n      pop\n        /* \"#utility.yul\":4667:4676   */\n      dup2\n        /* \"#utility.yul\":4661:4665   */\n      dup2\n        /* \"#utility.yul\":4657:4677   */\n      sub\n        /* \"#utility.yul\":4653:4654   */\n      0x00\n        /* \"#utility.yul\":4642:4651   */\n      dup4\n        /* \"#utility.yul\":4638:4655   */\n      add\n        /* \"#utility.yul\":4631:4678   */\n      mstore\n        /* \"#utility.yul\":4695:4826   */\n      tag_98\n        /* \"#utility.yul\":4821:4825   */\n      dup2\n        /* \"#utility.yul\":4695:4826   */\n      tag_78\n      jump\t// in\n    tag_98:\n        /* \"#utility.yul\":4687:4826   */\n      swap1\n      pop\n        /* \"#utility.yul\":4414:4833   */\n      swap2\n      swap1\n      pop\n      jump\t// out\n        /* \"#utility.yul\":4839:5061   */\n    tag_19:\n        /* \"#utility.yul\":4932:4936   */\n      0x00\n        /* \"#utility.yul\":4970:4972   */\n      0x20\n        /* \"#utility.yul\":4959:4968   */\n      dup3\n        /* \"#utility.yul\":4955:4973   */\n      add\n        /* \"#utility.yul\":4947:4973   */\n      swap1\n      pop\n        /* \"#utility.yul\":4983:5054   */\n      tag_100\n        /* \"#utility.yul\":5051:5052   */\n      0x00\n        /* \"#utility.yul\":5040:5049   */\n      dup4\n        /* \"#utility.yul\":5036:5053   */\n      add\n        /* \"#utility.yul\":5027:5033   */\n      dup5\n        /* \"#utility.yul\":4983:5054   */\n      tag_83\n      jump\t// in\n    tag_100:\n        /* \"#utility.yul\":4839:5061   */\n      swap3\n      swap2\n      pop\n      pop\n      jump\t// out\n        /* \"#utility.yul\":5148:5295   */\n    tag_75:\n        /* \"#utility.yul\":5249:5260   */\n      0x00\n        /* \"#utility.yul\":5286:5289   */\n      dup2\n        /* \"#utility.yul\":5271:5289   */\n      swap1\n      pop\n        /* \"#utility.yul\":5148:5295   */\n      swap3\n      swap2\n      pop\n      pop\n      jump\t// out\n        /* \"#utility.yul\":5301:5470   */\n    tag_59:\n        /* \"#utility.yul\":5385:5396   */\n      0x00\n        /* \"#utility.yul\":5419:5425   */\n      dup3\n        /* \"#utility.yul\":5414:5417   */\n      dup3\n        /* \"#utility.yul\":5407:5426   */\n      mstore\n        /* \"#utility.yul\":5459:5463   */\n      0x20\n        /* \"#utility.yul\":5454:5457   */\n      dup3\n        /* \"#utility.yul\":5450:5464   */\n      add\n        /* \"#utility.yul\":5435:5464   */\n      swap1\n      pop\n        /* \"#utility.yul\":5301:5470   */\n      swap3\n      swap2\n      pop\n      pop\n      jump\t// out\n        /* \"#utility.yul\":5476:5580   */\n    tag_105:\n        /* \"#utility.yul\":5521:5528   */\n      0x00\n        /* \"#utility.yul\":5550:5574   */\n      tag_107\n        /* \"#utility.yul\":5568:5573   */\n      dup3\n        /* \"#utility.yul\":5550:5574   */\n      tag_108\n      jump\t// in\n    tag_107:\n        /* \"#utility.yul\":5539:5574   */\n      swap1\n      pop\n        /* \"#utility.yul\":5476:5580   */\n      swap2\n      swap1\n      pop\n      jump\t// out\n        /* \"#utility.yul\":5586:5712   */\n    tag_108:\n        /* \"#utility.yul\":5623:5630   */\n      0x00\n        /* \"#utility.yul\":5663:5705   */\n      0xffffffffffffffffffffffffffffffffffffffff\n        /* \"#utility.yul\":5656:5661   */\n      dup3\n        /* \"#utility.yul\":5652:5706   */\n      and\n        /* \"#utility.yul\":5641:5706   */\n      swap1\n      pop\n        /* \"#utility.yul\":5586:5712   */\n      swap2\n      swap1\n      pop\n      jump\t// out\n        /* \"#utility.yul\":5718:5795   */\n    tag_86:\n        /* \"#utility.yul\":5755:5762   */\n      0x00\n        /* \"#utility.yul\":5784:5789   */\n      dup2\n        /* \"#utility.yul\":5773:5789   */\n      swap1\n      pop\n        /* \"#utility.yul\":5718:5795   */\n      swap2\n      swap1\n      pop\n      jump\t// out\n        /* \"#utility.yul\":5924:6041   */\n    tag_54:\n        /* \"#utility.yul\":6033:6034   */\n      0x00\n        /* \"#utility.yul\":6030:6031   */\n      dup1\n        /* \"#utility.yul\":6023:6035   */\n      revert\n        /* \"#utility.yul\":6047:6208   */\n    tag_61:\n        /* \"#utility.yul\":6187:6200   */\n      0x7472616e7366657246756e000000000000000000000000000000000000000000\n        /* \"#utility.yul\":6183:6184   */\n      0x00\n        /* \"#utility.yul\":6175:6181   */\n      dup3\n        /* \"#utility.yul\":6171:6185   */\n      add\n        /* \"#utility.yul\":6164:6201   */\n      mstore\n        /* \"#utility.yul\":6047:6208   */\n      pop\n      jump\t// out\n        /* \"#utility.yul\":6214:6375   */\n    tag_66:\n        /* \"#utility.yul\":6354:6367   */\n      0x63616c6c206661696c6564000000000000000000000000000000000000000000\n        /* \"#utility.yul\":6350:6351   */\n      0x00\n        /* \"#utility.yul\":6342:6348   */\n      dup3\n        /* \"#utility.yul\":6338:6352   */\n      add\n        /* \"#utility.yul\":6331:6368   */\n      mstore\n        /* \"#utility.yul\":6214:6375   */\n      pop\n      jump\t// out\n        /* \"#utility.yul\":6381:6538   */\n    tag_71:\n        /* \"#utility.yul\":6521:6530   */\n      0x73656e6446756e00000000000000000000000000000000000000000000000000\n        /* \"#utility.yul\":6517:6518   */\n      0x00\n        /* \"#utility.yul\":6509:6515   */\n      dup3\n        /* \"#utility.yul\":6505:6519   */\n      add\n        /* \"#utility.yul\":6498:6531   */\n      mstore\n        /* \"#utility.yul\":6381:6538   */\n      pop\n      jump\t// out\n        /* \"#utility.yul\":6544:6658   */\n    tag_77:\n      pop\n      jump\t// out\n        /* \"#utility.yul\":6664:6826   */\n    tag_82:\n        /* \"#utility.yul\":6804:6818   */\n      0x6661696c20746f2073656e640000000000000000000000000000000000000000\n        /* \"#utility.yul\":6800:6801   */\n      0x00\n        /* \"#utility.yul\":6792:6798   */\n      dup3\n        /* \"#utility.yul\":6788:6802   */\n      add\n        /* \"#utility.yul\":6781:6819   */\n      mstore\n        /* \"#utility.yul\":6664:6826   */\n      pop\n      jump\t// out\n        /* \"#utility.yul\":6832:6970   */\n    tag_50:\n        /* \"#utility.yul\":6913:6945   */\n      tag_120\n        /* \"#utility.yul\":6939:6944   */\n      dup2\n        /* \"#utility.yul\":6913:6945   */\n      tag_105\n      jump\t// in\n    tag_120:\n        /* \"#utility.yul\":6906:6911   */\n      dup2\n        /* \"#utility.yul\":6903:6946   */\n      eq\n        /* \"#utility.yul\":6893:6964   */\n      tag_121\n      jumpi\n        /* \"#utility.yul\":6960:6961   */\n      0x00\n        /* \"#utility.yul\":6957:6958   */\n      dup1\n        /* \"#utility.yul\":6950:6962   */\n      revert\n        /* \"#utility.yul\":6893:6964   */\n    tag_121:\n        /* \"#utility.yul\":6832:6970   */\n      pop\n      jump\t// out\n\n    auxdata: 0xa264697066735822122038557388630b8daacd25e6e62b38618dcfc869b8d72cec159420da32322b457d64736f6c63430008070033\n}\n",
				"bytecode": {
					"linkReferences": {},
					"object": "6080604052610605806100136000396000f3fe6080604052600436106100435760003560e01c806319a5f57e1461004f5780632a8ce70b1461006b578063b701254a14610087578063f47f66af146100a55761004a565b3661004a57005b600080fd5b610069600480360381019061006491906102fd565b6100c1565b005b610085600480360381019061008091906102fd565b6101a9565b005b61008f61025e565b60405161009c9190610499565b60405180910390f35b6100bf60048036038101906100ba91906102fd565b610266565b005b60008173ffffffffffffffffffffffffffffffffffffffff1660016040516100e8906103e8565b60006040518083038185875af1925050503d8060008114610125576040519150601f19603f3d011682016040523d82523d6000602084013e61012a565b606091505b505090508061016e576040517f08c379a00000000000000000000000000000000000000000000000000000000081526004016101659061042b565b60405180910390fd5b7fdd970dd9b5bfe707922155b058a407655cb18288b807e2216442bca8ad83d6b55a60405161019d91906103fd565b60405180910390a15050565b60008173ffffffffffffffffffffffffffffffffffffffff166108fc60019081150290604051600060405180830381858888f19350505050905080610223576040517f08c379a000000000000000000000000000000000000000000000000000000000815260040161021a90610479565b60405180910390fd5b7fdd970dd9b5bfe707922155b058a407655cb18288b807e2216442bca8ad83d6b55a604051610252919061044b565b60405180910390a15050565b600047905090565b8073ffffffffffffffffffffffffffffffffffffffff166108fc60019081150290604051600060405180830381858888f193505050501580156102ad573d6000803e3d6000fd5b507fdd970dd9b5bfe707922155b058a407655cb18288b807e2216442bca8ad83d6b55a6040516102dd91906103fd565b60405180910390a150565b6000813590506102f7816105b8565b92915050565b6000602082840312156103135761031261050c565b5b6000610321848285016102e8565b91505092915050565b6000610337600b836104bf565b915061034282610511565b602082019050919050565b600061035a600b836104bf565b91506103658261053a565b602082019050919050565b600061037d6007836104bf565b915061038882610563565b602082019050919050565b60006103a06000836104b4565b91506103ab8261058c565b600082019050919050565b60006103c3600c836104bf565b91506103ce8261058f565b602082019050919050565b6103e281610502565b82525050565b60006103f382610393565b9150819050919050565b600060408201905081810360008301526104168161032a565b905061042560208301846103d9565b92915050565b600060208201905081810360008301526104448161034d565b9050919050565b6000604082019050818103600083015261046481610370565b905061047360208301846103d9565b92915050565b60006020820190508181036000830152610492816103b6565b9050919050565b60006020820190506104ae60008301846103d9565b92915050565b600081905092915050565b600082825260208201905092915050565b60006104db826104e2565b9050919050565b600073ffffffffffffffffffffffffffffffffffffffff82169050919050565b6000819050919050565b600080fd5b7f7472616e7366657246756e000000000000000000000000000000000000000000600082015250565b7f63616c6c206661696c6564000000000000000000000000000000000000000000600082015250565b7f73656e6446756e00000000000000000000000000000000000000000000000000600082015250565b50565b7f6661696c20746f2073656e640000000000000000000000000000000000000000600082015250565b6105c1816104d0565b81146105cc57600080fd5b5056fea264697066735822122038557388630b8daacd25e6e62b38618dcfc869b8d72cec159420da32322b457d64736f6c63430008070033",
					"opcodes": "PUSH1 0x80 PUSH1 0x40 MSTORE PUSH2 0x605 DUP1 PUSH2 0x13 PUSH1 0x0 CODECOPY PUSH1 0x0 RETURN INVALID PUSH1 0x80 PUSH1 0x40 MSTORE PUSH1 0x4 CALLDATASIZE LT PUSH2 0x43 JUMPI PUSH1 0x0 CALLDATALOAD PUSH1 0xE0 SHR DUP1 PUSH4 0x19A5F57E EQ PUSH2 0x4F JUMPI DUP1 PUSH4 0x2A8CE70B EQ PUSH2 0x6B JUMPI DUP1 PUSH4 0xB701254A EQ PUSH2 0x87 JUMPI DUP1 PUSH4 0xF47F66AF EQ PUSH2 0xA5 JUMPI PUSH2 0x4A JUMP JUMPDEST CALLDATASIZE PUSH2 0x4A JUMPI STOP JUMPDEST PUSH1 0x0 DUP1 REVERT JUMPDEST PUSH2 0x69 PUSH1 0x4 DUP1 CALLDATASIZE SUB DUP2 ADD SWAP1 PUSH2 0x64 SWAP2 SWAP1 PUSH2 0x2FD JUMP JUMPDEST PUSH2 0xC1 JUMP JUMPDEST STOP JUMPDEST PUSH2 0x85 PUSH1 0x4 DUP1 CALLDATASIZE SUB DUP2 ADD SWAP1 PUSH2 0x80 SWAP2 SWAP1 PUSH2 0x2FD JUMP JUMPDEST PUSH2 0x1A9 JUMP JUMPDEST STOP JUMPDEST PUSH2 0x8F PUSH2 0x25E JUMP JUMPDEST PUSH1 0x40 MLOAD PUSH2 0x9C SWAP2 SWAP1 PUSH2 0x499 JUMP JUMPDEST PUSH1 0x40 MLOAD DUP1 SWAP2 SUB SWAP1 RETURN JUMPDEST PUSH2 0xBF PUSH1 0x4 DUP1 CALLDATASIZE SUB DUP2 ADD SWAP1 PUSH2 0xBA SWAP2 SWAP1 PUSH2 0x2FD JUMP JUMPDEST PUSH2 0x266 JUMP JUMPDEST STOP JUMPDEST PUSH1 0x0 DUP2 PUSH20 0xFFFFFFFFFFFFFFFFFFFFFFFFFFFFFFFFFFFFFFFF AND PUSH1 0x1 PUSH1 0x40 MLOAD PUSH2 0xE8 SWAP1 PUSH2 0x3E8 JUMP JUMPDEST PUSH1 0x0 PUSH1 0x40 MLOAD DUP1 DUP4 SUB DUP2 DUP6 DUP8 GAS CALL SWAP3 POP POP POP RETURNDATASIZE DUP1 PUSH1 0x0 DUP2 EQ PUSH2 0x125 JUMPI PUSH1 0x40 MLOAD SWAP2 POP PUSH1 0x1F NOT PUSH1 0x3F RETURNDATASIZE ADD AND DUP3 ADD PUSH1 0x40 MSTORE RETURNDATASIZE DUP3 MSTORE RETURNDATASIZE PUSH1 0x0 PUSH1 0x20 DUP5 ADD RETURNDATACOPY PUSH2 0x12A JUMP JUMPDEST PUSH1 0x60 SWAP2 POP JUMPDEST POP POP SWAP1 POP DUP1 PUSH2 0x16E JUMPI PUSH1 0x40 MLOAD PUSH32 0x8C379A000000000000000000000000000000000000000000000000000000000 DUP2 MSTORE PUSH1 0x4 ADD PUSH2 0x165 SWAP1 PUSH2 0x42B JUMP JUMPDEST PUSH1 0x40 MLOAD DUP1 SWAP2 SUB SWAP1 REVERT JUMPDEST PUSH32 0xDD970DD9B5BFE707922155B058A407655CB18288B807E2216442BCA8AD83D6B5 GAS PUSH1 0x40 MLOAD PUSH2 0x19D SWAP2 SWAP1 PUSH2 0x3FD JUMP JUMPDEST PUSH1 0x40 MLOAD DUP1 SWAP2 SUB SWAP1 LOG1 POP POP JUMP JUMPDEST PUSH1 0x0 DUP2 PUSH20 0xFFFFFFFFFFFFFFFFFFFFFFFFFFFFFFFFFFFFFFFF AND PUSH2 0x8FC PUSH1 0x1 SWAP1 DUP2 ISZERO MUL SWAP1 PUSH1 0x40 MLOAD PUSH1 0x0 PUSH1 0x40 MLOAD DUP1 DUP4 SUB DUP2 DUP6 DUP9 DUP9 CALL SWAP4 POP POP POP POP SWAP1 POP DUP1 PUSH2 0x223 JUMPI PUSH1 0x40 MLOAD PUSH32 0x8C379A000000000000000000000000000000000000000000000000000000000 DUP2 MSTORE PUSH1 0x4 ADD PUSH2 0x21A SWAP1 PUSH2 0x479 JUMP JUMPDEST PUSH1 0x40 MLOAD DUP1 SWAP2 SUB SWAP1 REVERT JUMPDEST PUSH32 0xDD970DD9B5BFE707922155B058A407655CB18288B807E2216442BCA8AD83D6B5 GAS PUSH1 0x40 MLOAD PUSH2 0x252 SWAP2 SWAP1 PUSH2 0x44B JUMP JUMPDEST PUSH1 0x40 MLOAD DUP1 SWAP2 SUB SWAP1 LOG1 POP POP JUMP JUMPDEST PUSH1 0x0 SELFBALANCE SWAP1 POP SWAP1 JUMP JUMPDEST DUP1 PUSH20 0xFFFFFFFFFFFFFFFFFFFFFFFFFFFFFFFFFFFFFFFF AND PUSH2 0x8FC PUSH1 0x1 SWAP1 DUP2 ISZERO MUL SWAP1 PUSH1 0x40 MLOAD PUSH1 0x0 PUSH1 0x40 MLOAD DUP1 DUP4 SUB DUP2 DUP6 DUP9 DUP9 CALL SWAP4 POP POP POP POP ISZERO DUP1 ISZERO PUSH2 0x2AD JUMPI RETURNDATASIZE PUSH1 0x0 DUP1 RETURNDATACOPY RETURNDATASIZE PUSH1 0x0 REVERT JUMPDEST POP PUSH32 0xDD970DD9B5BFE707922155B058A407655CB18288B807E2216442BCA8AD83D6B5 GAS PUSH1 0x40 MLOAD PUSH2 0x2DD SWAP2 SWAP1 PUSH2 0x3FD JUMP JUMPDEST PUSH1 0x40 MLOAD DUP1 SWAP2 SUB SWAP1 LOG1 POP JUMP JUMPDEST PUSH1 0x0 DUP2 CALLDATALOAD SWAP1 POP PUSH2 0x2F7 DUP2 PUSH2 0x5B8 JUMP JUMPDEST SWAP3 SWAP2 POP POP JUMP JUMPDEST PUSH1 0x0 PUSH1 0x20 DUP3 DUP5 SUB SLT ISZERO PUSH2 0x313 JUMPI PUSH2 0x312 PUSH2 0x50C JUMP JUMPDEST JUMPDEST PUSH1 0x0 PUSH2 0x321 DUP5 DUP3 DUP6 ADD PUSH2 0x2E8 JUMP JUMPDEST SWAP2 POP POP SWAP3 SWAP2 POP POP JUMP JUMPDEST PUSH1 0x0 PUSH2 0x337 PUSH1 0xB DUP4 PUSH2 0x4BF JUMP JUMPDEST SWAP2 POP PUSH2 0x342 DUP3 PUSH2 0x511 JUMP JUMPDEST PUSH1 0x20 DUP3 ADD SWAP1 POP SWAP2 SWAP1 POP JUMP JUMPDEST PUSH1 0x0 PUSH2 0x35A PUSH1 0xB DUP4 PUSH2 0x4BF JUMP JUMPDEST SWAP2 POP PUSH2 0x365 DUP3 PUSH2 0x53A JUMP JUMPDEST PUSH1 0x20 DUP3 ADD SWAP1 POP SWAP2 SWAP1 POP JUMP JUMPDEST PUSH1 0x0 PUSH2 0x37D PUSH1 0x7 DUP4 PUSH2 0x4BF JUMP JUMPDEST SWAP2 POP PUSH2 0x388 DUP3 PUSH2 0x563 JUMP JUMPDEST PUSH1 0x20 DUP3 ADD SWAP1 POP SWAP2 SWAP1 POP JUMP JUMPDEST PUSH1 0x0 PUSH2 0x3A0 PUSH1 0x0 DUP4 PUSH2 0x4B4 JUMP JUMPDEST SWAP2 POP PUSH2 0x3AB DUP3 PUSH2 0x58C JUMP JUMPDEST PUSH1 0x0 DUP3 ADD SWAP1 POP SWAP2 SWAP1 POP JUMP JUMPDEST PUSH1 0x0 PUSH2 0x3C3 PUSH1 0xC DUP4 PUSH2 0x4BF JUMP JUMPDEST SWAP2 POP PUSH2 0x3CE DUP3 PUSH2 0x58F JUMP JUMPDEST PUSH1 0x20 DUP3 ADD SWAP1 POP SWAP2 SWAP1 POP JUMP JUMPDEST PUSH2 0x3E2 DUP2 PUSH2 0x502 JUMP JUMPDEST DUP3 MSTORE POP POP JUMP JUMPDEST PUSH1 0x0 PUSH2 0x3F3 DUP3 PUSH2 0x393 JUMP JUMPDEST SWAP2 POP DUP2 SWAP1 POP SWAP2 SWAP1 POP JUMP JUMPDEST PUSH1 0x0 PUSH1 0x40 DUP3 ADD SWAP1 POP DUP2 DUP2 SUB PUSH1 0x0 DUP4 ADD MSTORE PUSH2 0x416 DUP2 PUSH2 0x32A JUMP JUMPDEST SWAP1 POP PUSH2 0x425 PUSH1 0x20 DUP4 ADD DUP5 PUSH2 0x3D9 JUMP JUMPDEST SWAP3 SWAP2 POP POP JUMP JUMPDEST PUSH1 0x0 PUSH1 0x20 DUP3 ADD SWAP1 POP DUP2 DUP2 SUB PUSH1 0x0 DUP4 ADD MSTORE PUSH2 0x444 DUP2 PUSH2 0x34D JUMP JUMPDEST SWAP1 POP SWAP2 SWAP1 POP JUMP JUMPDEST PUSH1 0x0 PUSH1 0x40 DUP3 ADD SWAP1 POP DUP2 DUP2 SUB PUSH1 0x0 DUP4 ADD MSTORE PUSH2 0x464 DUP2 PUSH2 0x370 JUMP JUMPDEST SWAP1 POP PUSH2 0x473 PUSH1 0x20 DUP4 ADD DUP5 PUSH2 0x3D9 JUMP JUMPDEST SWAP3 SWAP2 POP POP JUMP JUMPDEST PUSH1 0x0 PUSH1 0x20 DUP3 ADD SWAP1 POP DUP2 DUP2 SUB PUSH1 0x0 DUP4 ADD MSTORE PUSH2 0x492 DUP2 PUSH2 0x3B6 JUMP JUMPDEST SWAP1 POP SWAP2 SWAP1 POP JUMP JUMPDEST PUSH1 0x0 PUSH1 0x20 DUP3 ADD SWAP1 POP PUSH2 0x4AE PUSH1 0x0 DUP4 ADD DUP5 PUSH2 0x3D9 JUMP JUMPDEST SWAP3 SWAP2 POP POP JUMP JUMPDEST PUSH1 0x0 DUP2 SWAP1 POP SWAP3 SWAP2 POP POP JUMP JUMPDEST PUSH1 0x0 DUP3 DUP3 MSTORE PUSH1 0x20 DUP3 ADD SWAP1 POP SWAP3 SWAP2 POP POP JUMP JUMPDEST PUSH1 0x0 PUSH2 0x4DB DUP3 PUSH2 0x4E2 JUMP JUMPDEST SWAP1 POP SWAP2 SWAP1 POP JUMP JUMPDEST PUSH1 0x0 PUSH20 0xFFFFFFFFFFFFFFFFFFFFFFFFFFFFFFFFFFFFFFFF DUP3 AND SWAP1 POP SWAP2 SWAP1 POP JUMP JUMPDEST PUSH1 0x0 DUP2 SWAP1 POP SWAP2 SWAP1 POP JUMP JUMPDEST PUSH1 0x0 DUP1 REVERT JUMPDEST PUSH32 0x7472616E7366657246756E000000000000000000000000000000000000000000 PUSH1 0x0 DUP3 ADD MSTORE POP JUMP JUMPDEST PUSH32 0x63616C6C206661696C6564000000000000000000000000000000000000000000 PUSH1 0x0 DUP3 ADD MSTORE POP JUMP JUMPDEST PUSH32 0x73656E6446756E00000000000000000000000000000000000000000000000000 PUSH1 0x0 DUP3 ADD MSTORE POP JUMP JUMPDEST POP JUMP JUMPDEST PUSH32 0x6661696C20746F2073656E640000000000000000000000000000000000000000 PUSH1 0x0 DUP3 ADD MSTORE POP JUMP JUMPDEST PUSH2 0x5C1 DUP2 PUSH2 0x4D0 JUMP JUMPDEST DUP2 EQ PUSH2 0x5CC JUMPI PUSH1 0x0 DUP1 REVERT JUMPDEST POP JUMP INVALID LOG2 PUSH5 0x6970667358 0x22 SLT KECCAK256 CODESIZE SSTORE PUSH20 0x88630B8DAACD25E6E62B38618DCFC869B8D72CEC ISZERO SWAP5 KECCAK256 0xDA ORIGIN ORIGIN 0x2B GASLIMIT PUSH30 0x64736F6C6343000807003300000000000000000000000000000000000000 "
				},
				"gasEstimates": {
					"creation": {
						"codeDepositCost": "308200",
						"executionCost": "325",
						"totalCost": "308525"
					},
					"external": {
						"callFun(address)": "infinite",
						"queryAccount()": "337",
						"sendFun(address)": "infinite",
						"transferFun(address)": "infinite"
					}
				},
				"methodIdentifiers": {
					"callFun(address)": "19a5f57e",
					"queryAccount()": "b701254a",
					"sendFun(address)": "2a8ce70b",
					"transferFun(address)": "f47f66af"
				}
			},
			"storageLayout": {
				"storage": [],
				"types": null
			},
			"userdoc": {
				"kind": "user",
				"methods": {},
				"version": 1
			}
		}
	}
}