{
	"47MultiDelegateCall.sol": {
		"TestMultiDelegateCall": {
			"abi": [
				{
					"inputs": [],
					"name": "DelegateCallFail",
					"type": "error"
				},
				{
					"anonymous": false,
					"inputs": [
						{
							"indexed": false,
							"internalType": "address",
							"name": "caller",
							"type": "address"
						},
						{
							"indexed": false,
							"internalType": "string",
							"name": "func",
							"type": "string"
						},
						{
							"indexed": false,
							"internalType": "uint256",
							"name": "i",
							"type": "uint256"
						}
					],
					"name": "Log",
					"type": "event"
				},
				{
					"inputs": [
						{
							"internalType": "uint256",
							"name": "x",
							"type": "uint256"
						},
						{
							"internalType": "uint256",
							"name": "y",
							"type": "uint256"
						}
					],
					"name": "func1",
					"outputs": [],
					"stateMutability": "nonpayable",
					"type": "function"
				},
				{
					"inputs": [],
					"name": "func2",
					"outputs": [
						{
							"internalType": "uint256",
							"name": "",
							"type": "uint256"
						}
					],
					"stateMutability": "nonpayable",
					"type": "function"
				},
				{
					"inputs": [
						{
							"internalType": "bytes[]",
							"name": "data",
							"type": "bytes[]"
						}
					],
					"name": "multiDelegateCall",
					"outputs": [
						{
							"internalType": "bytes[]",
							"name": "results",
							"type": "bytes[]"
						}
					],
					"stateMutability": "payable",
					"type": "function"
				}
			],
			"devdoc": {
				"kind": "dev",
				"methods": {},
				"version": 1
			},
			"evm": {
				"assembly": "    /* \"47MultiDelegateCall.sol\":775:1088  contract TestMultiDelegateCall is MultiDelegateCall{... */\n  mstore(0x40, 0x80)\n  callvalue\n  dup1\n  iszero\n  tag_1\n  jumpi\n  0x00\n  dup1\n  revert\ntag_1:\n  pop\n  dataSize(sub_0)\n  dup1\n  dataOffset(sub_0)\n  0x00\n  codecopy\n  0x00\n  return\nstop\n\nsub_0: assembly {\n        /* \"47MultiDelegateCall.sol\":775:1088  contract TestMultiDelegateCall is MultiDelegateCall{... */\n      mstore(0x40, 0x80)\n      jumpi(tag_1, lt(calldatasize, 0x04))\n      shr(0xe0, calldataload(0x00))\n      dup1\n      0x3cb80085\n      eq\n      tag_2\n      jumpi\n      dup1\n      0x415c2d96\n      eq\n      tag_3\n      jumpi\n      dup1\n      0xb1ade4db\n      eq\n      tag_4\n      jumpi\n    tag_1:\n      0x00\n      dup1\n      revert\n        /* \"47MultiDelegateCall.sol\":882:973  function func1(uint x,uint y)external {... */\n    tag_2:\n      callvalue\n      dup1\n      iszero\n      tag_5\n      jumpi\n      0x00\n      dup1\n      revert\n    tag_5:\n      pop\n      tag_6\n      tag_7\n      calldatasize\n      0x04\n      tag_8\n      jump\t// in\n    tag_7:\n      tag_9\n      jump\t// in\n    tag_6:\n      stop\n        /* \"47MultiDelegateCall.sol\":386:771  function multiDelegateCall(bytes[] calldata data) external payable returns (bytes[] memory results){... */\n    tag_3:\n      tag_10\n      tag_11\n      calldatasize\n      0x04\n      tag_12\n      jump\t// in\n    tag_11:\n      tag_13\n      jump\t// in\n    tag_10:\n      mload(0x40)\n      tag_14\n      swap2\n      swap1\n      tag_15\n      jump\t// in\n    tag_14:\n      mload(0x40)\n      dup1\n      swap2\n      sub\n      swap1\n      return\n        /* \"47MultiDelegateCall.sol\":979:1086  function func2()external returns(uint){... */\n    tag_4:\n      callvalue\n      dup1\n      iszero\n      tag_16\n      jumpi\n      0x00\n      dup1\n      revert\n    tag_16:\n      pop\n      tag_17\n      tag_18\n      jump\t// in\n    tag_17:\n      mload(0x40)\n        /* \"#utility.yul\":3769:3794   */\n      swap1\n      dup2\n      mstore\n        /* \"#utility.yul\":3757:3759   */\n      0x20\n        /* \"#utility.yul\":3742:3760   */\n      add\n        /* \"47MultiDelegateCall.sol\":979:1086  function func2()external returns(uint){... */\n      tag_14\n        /* \"#utility.yul\":3623:3800   */\n      jump\n        /* \"47MultiDelegateCall.sol\":882:973  function func1(uint x,uint y)external {... */\n    tag_9:\n        /* \"47MultiDelegateCall.sol\":935:966  Log(msg.sender, \"func1\", x + y) */\n      0xfd33e90d0eac940755277aa91045b95664988beeeafc4ed7d1281a6d83afbc00\n        /* \"47MultiDelegateCall.sol\":939:949  msg.sender */\n      caller\n        /* \"47MultiDelegateCall.sol\":960:965  x + y */\n      tag_22\n        /* \"47MultiDelegateCall.sol\":964:965  y */\n      dup4\n        /* \"47MultiDelegateCall.sol\":960:961  x */\n      dup6\n        /* \"47MultiDelegateCall.sol\":960:965  x + y */\n      tag_23\n      jump\t// in\n    tag_22:\n        /* \"47MultiDelegateCall.sol\":935:966  Log(msg.sender, \"func1\", x + y) */\n      0x40\n      dup1\n      mload\n        /* \"#utility.yul\":1444:1486   */\n      0xffffffffffffffffffffffffffffffffffffffff\n        /* \"#utility.yul\":1432:1487   */\n      swap1\n      swap4\n      and\n        /* \"#utility.yul\":1414:1488   */\n      dup4\n      mstore\n        /* \"#utility.yul\":1524:1526   */\n      0x60\n        /* \"#utility.yul\":1519:1521   */\n      0x20\n        /* \"#utility.yul\":1504:1522   */\n      dup5\n      add\n        /* \"#utility.yul\":1497:1527   */\n      dup2\n      swap1\n      mstore\n        /* \"#utility.yul\":1563:1564   */\n      0x05\n        /* \"#utility.yul\":1543:1561   */\n      swap1\n      dup5\n      add\n        /* \"#utility.yul\":1536:1565   */\n      mstore\n        /* \"#utility.yul\":1602:1609   */\n      0x66756e6331000000000000000000000000000000000000000000000000000000\n        /* \"#utility.yul\":1596:1599   */\n      0x80\n        /* \"#utility.yul\":1581:1600   */\n      dup5\n      add\n        /* \"#utility.yul\":1574:1610   */\n      mstore\n        /* \"#utility.yul\":1662:1680   */\n      dup3\n      add\n        /* \"#utility.yul\":1655:1689   */\n      mstore\n        /* \"#utility.yul\":1642:1645   */\n      0xa0\n        /* \"#utility.yul\":1627:1646   */\n      add\n        /* \"47MultiDelegateCall.sol\":935:966  Log(msg.sender, \"func1\", x + y) */\n      mload(0x40)\n      dup1\n      swap2\n      sub\n      swap1\n      log1\n        /* \"47MultiDelegateCall.sol\":882:973  function func1(uint x,uint y)external {... */\n      pop\n      pop\n      jump\t// out\n        /* \"47MultiDelegateCall.sol\":386:771  function multiDelegateCall(bytes[] calldata data) external payable returns (bytes[] memory results){... */\n    tag_13:\n        /* \"47MultiDelegateCall.sol\":462:484  bytes[] memory results */\n      0x60\n        /* \"47MultiDelegateCall.sol\":517:521  data */\n      dup2\n        /* \"47MultiDelegateCall.sol\":505:529  new bytes[](data.length) */\n      0xffffffffffffffff\n      dup2\n      gt\n      iszero\n      tag_28\n      jumpi\n      tag_28\n      tag_29\n      jump\t// in\n    tag_28:\n      mload(0x40)\n      swap1\n      dup1\n      dup3\n      mstore\n      dup1\n      0x20\n      mul\n      0x20\n      add\n      dup3\n      add\n      0x40\n      mstore\n      dup1\n      iszero\n      tag_30\n      jumpi\n      dup2\n      0x20\n      add\n    tag_31:\n      0x60\n      dup2\n      mstore\n      0x20\n      add\n      swap1\n      0x01\n      swap1\n      sub\n      swap1\n      dup2\n      tag_31\n      jumpi\n      swap1\n      pop\n    tag_30:\n      pop\n        /* \"47MultiDelegateCall.sol\":495:529  results = new bytes[](data.length) */\n      swap1\n      pop\n        /* \"47MultiDelegateCall.sol\":544:550  uint i */\n      0x00\n        /* \"47MultiDelegateCall.sol\":539:765  for (uint i;i<data.length;i++){... */\n    tag_32:\n        /* \"47MultiDelegateCall.sol\":551:564  i<data.length */\n      dup3\n      dup2\n      lt\n        /* \"47MultiDelegateCall.sol\":539:765  for (uint i;i<data.length;i++){... */\n      iszero\n      tag_33\n      jumpi\n        /* \"47MultiDelegateCall.sol\":584:591  bool ok */\n      0x00\n      dup1\n        /* \"47MultiDelegateCall.sol\":619:623  this */\n      address\n        /* \"47MultiDelegateCall.sol\":638:642  data */\n      dup7\n      dup7\n        /* \"47MultiDelegateCall.sol\":643:644  i */\n      dup6\n        /* \"47MultiDelegateCall.sol\":638:645  data[i] */\n      dup2\n      dup2\n      lt\n      tag_36\n      jumpi\n      tag_36\n      tag_37\n      jump\t// in\n    tag_36:\n      swap1\n      pop\n      0x20\n      mul\n      dup2\n      add\n      swap1\n      tag_38\n      swap2\n      swap1\n      tag_39\n      jump\t// in\n    tag_38:\n        /* \"47MultiDelegateCall.sol\":611:646  address(this).delegatecall(data[i]) */\n      mload(0x40)\n      tag_40\n      swap3\n      swap2\n      swap1\n      tag_41\n      jump\t// in\n    tag_40:\n      0x00\n      mload(0x40)\n      dup1\n      dup4\n      sub\n      dup2\n      dup6\n      gas\n      delegatecall\n      swap2\n      pop\n      pop\n      returndatasize\n      dup1\n      0x00\n      dup2\n      eq\n      tag_44\n      jumpi\n      mload(0x40)\n      swap2\n      pop\n      and(add(returndatasize, 0x3f), not(0x1f))\n      dup3\n      add\n      0x40\n      mstore\n      returndatasize\n      dup3\n      mstore\n      returndatasize\n      0x00\n      0x20\n      dup5\n      add\n      returndatacopy\n      jump(tag_43)\n    tag_44:\n      0x60\n      swap2\n      pop\n    tag_43:\n      pop\n        /* \"47MultiDelegateCall.sol\":583:646  (bool ok,bytes memory res)= address(this).delegatecall(data[i]) */\n      swap2\n      pop\n      swap2\n      pop\n        /* \"47MultiDelegateCall.sol\":664:666  ok */\n      dup2\n        /* \"47MultiDelegateCall.sol\":660:725  if(!ok){... */\n      tag_45\n      jumpi\n        /* \"47MultiDelegateCall.sol\":692:710  DelegateCallFail() */\n      mload(0x40)\n      0xe0b3c24600000000000000000000000000000000000000000000000000000000\n      dup2\n      mstore\n      0x04\n      add\n      mload(0x40)\n      dup1\n      swap2\n      sub\n      swap1\n      revert\n        /* \"47MultiDelegateCall.sol\":660:725  if(!ok){... */\n    tag_45:\n        /* \"47MultiDelegateCall.sol\":751:754  res */\n      dup1\n        /* \"47MultiDelegateCall.sol\":738:745  results */\n      dup5\n        /* \"47MultiDelegateCall.sol\":746:747  i */\n      dup5\n        /* \"47MultiDelegateCall.sol\":738:748  results[i] */\n      dup2\n      mload\n      dup2\n      lt\n      tag_47\n      jumpi\n      tag_47\n      tag_37\n      jump\t// in\n    tag_47:\n      0x20\n      mul\n      0x20\n      add\n      add\n        /* \"47MultiDelegateCall.sol\":738:754  results[i] = res */\n      dup2\n      swap1\n      mstore\n      pop\n        /* \"47MultiDelegateCall.sol\":569:765  {... */\n      pop\n      pop\n        /* \"47MultiDelegateCall.sol\":565:568  i++ */\n      dup1\n      dup1\n      tag_48\n      swap1\n      tag_49\n      jump\t// in\n    tag_48:\n      swap2\n      pop\n      pop\n        /* \"47MultiDelegateCall.sol\":539:765  for (uint i;i<data.length;i++){... */\n      jump(tag_32)\n    tag_33:\n      pop\n        /* \"47MultiDelegateCall.sol\":386:771  function multiDelegateCall(bytes[] calldata data) external payable returns (bytes[] memory results){... */\n      swap3\n      swap2\n      pop\n      pop\n      jump\t// out\n        /* \"47MultiDelegateCall.sol\":979:1086  function func2()external returns(uint){... */\n    tag_18:\n        /* \"47MultiDelegateCall.sol\":1032:1059  Log(msg.sender, \"func2\", 2) */\n      0x40\n      dup1\n      mload\n        /* \"47MultiDelegateCall.sol\":1036:1046  msg.sender */\n      caller\n        /* \"#utility.yul\":1948:2022   */\n      dup2\n      mstore\n        /* \"#utility.yul\":2058:2060   */\n      0x60\n        /* \"#utility.yul\":2053:2055   */\n      0x20\n        /* \"#utility.yul\":2038:2056   */\n      dup3\n      add\n        /* \"#utility.yul\":2031:2061   */\n      dup2\n      swap1\n      mstore\n        /* \"#utility.yul\":2097:2098   */\n      0x05\n        /* \"#utility.yul\":2077:2095   */\n      swap1\n      dup3\n      add\n        /* \"#utility.yul\":2070:2099   */\n      mstore\n        /* \"#utility.yul\":2136:2143   */\n      0x66756e6332000000000000000000000000000000000000000000000000000000\n        /* \"#utility.yul\":2130:2133   */\n      0x80\n        /* \"#utility.yul\":2115:2134   */\n      dup3\n      add\n        /* \"#utility.yul\":2108:2144   */\n      mstore\n        /* \"47MultiDelegateCall.sol\":1057:1058  2 */\n      0x02\n        /* \"#utility.yul\":2196:2214   */\n      dup2\n      dup4\n      add\n        /* \"#utility.yul\":2189:2223   */\n      mstore\n        /* \"47MultiDelegateCall.sol\":1032:1059  Log(msg.sender, \"func2\", 2) */\n      swap1\n      mload\n      0x00\n      swap2\n      0xfd33e90d0eac940755277aa91045b95664988beeeafc4ed7d1281a6d83afbc00\n      swap2\n      swap1\n      dup2\n      swap1\n      sub\n        /* \"#utility.yul\":2176:2179   */\n      0xa0\n        /* \"47MultiDelegateCall.sol\":1032:1059  Log(msg.sender, \"func2\", 2) */\n      add\n      swap1\n      log1\n      pop\n        /* \"47MultiDelegateCall.sol\":1076:1079  111 */\n      0x6f\n      swap1\n        /* \"47MultiDelegateCall.sol\":979:1086  function func2()external returns(uint){... */\n      jump\t// out\n        /* \"#utility.yul\":14:640   */\n    tag_12:\n        /* \"#utility.yul\":111:117   */\n      0x00\n        /* \"#utility.yul\":119:125   */\n      dup1\n        /* \"#utility.yul\":172:174   */\n      0x20\n        /* \"#utility.yul\":160:169   */\n      dup4\n        /* \"#utility.yul\":151:158   */\n      dup6\n        /* \"#utility.yul\":147:170   */\n      sub\n        /* \"#utility.yul\":143:175   */\n      slt\n        /* \"#utility.yul\":140:192   */\n      iszero\n      tag_55\n      jumpi\n        /* \"#utility.yul\":188:189   */\n      0x00\n        /* \"#utility.yul\":185:186   */\n      dup1\n        /* \"#utility.yul\":178:190   */\n      revert\n        /* \"#utility.yul\":140:192   */\n    tag_55:\n        /* \"#utility.yul\":228:237   */\n      dup3\n        /* \"#utility.yul\":215:238   */\n      calldataload\n        /* \"#utility.yul\":257:275   */\n      0xffffffffffffffff\n        /* \"#utility.yul\":298:300   */\n      dup1\n        /* \"#utility.yul\":290:296   */\n      dup3\n        /* \"#utility.yul\":287:301   */\n      gt\n        /* \"#utility.yul\":284:318   */\n      iszero\n      tag_56\n      jumpi\n        /* \"#utility.yul\":314:315   */\n      0x00\n        /* \"#utility.yul\":311:312   */\n      dup1\n        /* \"#utility.yul\":304:316   */\n      revert\n        /* \"#utility.yul\":284:318   */\n    tag_56:\n        /* \"#utility.yul\":352:358   */\n      dup2\n        /* \"#utility.yul\":341:350   */\n      dup6\n        /* \"#utility.yul\":337:359   */\n      add\n        /* \"#utility.yul\":327:359   */\n      swap2\n      pop\n        /* \"#utility.yul\":397:404   */\n      dup6\n        /* \"#utility.yul\":390:394   */\n      0x1f\n        /* \"#utility.yul\":386:388   */\n      dup4\n        /* \"#utility.yul\":382:395   */\n      add\n        /* \"#utility.yul\":378:405   */\n      slt\n        /* \"#utility.yul\":368:423   */\n      tag_57\n      jumpi\n        /* \"#utility.yul\":419:420   */\n      0x00\n        /* \"#utility.yul\":416:417   */\n      dup1\n        /* \"#utility.yul\":409:421   */\n      revert\n        /* \"#utility.yul\":368:423   */\n    tag_57:\n        /* \"#utility.yul\":459:461   */\n      dup2\n        /* \"#utility.yul\":446:462   */\n      calldataload\n        /* \"#utility.yul\":485:487   */\n      dup2\n        /* \"#utility.yul\":477:483   */\n      dup2\n        /* \"#utility.yul\":474:488   */\n      gt\n        /* \"#utility.yul\":471:505   */\n      iszero\n      tag_58\n      jumpi\n        /* \"#utility.yul\":501:502   */\n      0x00\n        /* \"#utility.yul\":498:499   */\n      dup1\n        /* \"#utility.yul\":491:503   */\n      revert\n        /* \"#utility.yul\":471:505   */\n    tag_58:\n        /* \"#utility.yul\":554:561   */\n      dup7\n        /* \"#utility.yul\":549:551   */\n      0x20\n        /* \"#utility.yul\":539:545   */\n      dup3\n        /* \"#utility.yul\":536:537   */\n      0x05\n        /* \"#utility.yul\":532:546   */\n      shl\n        /* \"#utility.yul\":528:530   */\n      dup6\n        /* \"#utility.yul\":524:547   */\n      add\n        /* \"#utility.yul\":520:552   */\n      add\n        /* \"#utility.yul\":517:562   */\n      gt\n        /* \"#utility.yul\":514:579   */\n      iszero\n      tag_59\n      jumpi\n        /* \"#utility.yul\":575:576   */\n      0x00\n        /* \"#utility.yul\":572:573   */\n      dup1\n        /* \"#utility.yul\":565:577   */\n      revert\n        /* \"#utility.yul\":514:579   */\n    tag_59:\n        /* \"#utility.yul\":606:608   */\n      0x20\n        /* \"#utility.yul\":598:609   */\n      swap3\n      swap1\n      swap3\n      add\n      swap7\n        /* \"#utility.yul\":628:634   */\n      swap2\n      swap6\n      pop\n        /* \"#utility.yul\":14:640   */\n      swap1\n      swap4\n      pop\n      pop\n      pop\n      pop\n      jump\t// out\n        /* \"#utility.yul\":645:893   */\n    tag_8:\n        /* \"#utility.yul\":713:719   */\n      0x00\n        /* \"#utility.yul\":721:727   */\n      dup1\n        /* \"#utility.yul\":774:776   */\n      0x40\n        /* \"#utility.yul\":762:771   */\n      dup4\n        /* \"#utility.yul\":753:760   */\n      dup6\n        /* \"#utility.yul\":749:772   */\n      sub\n        /* \"#utility.yul\":745:777   */\n      slt\n        /* \"#utility.yul\":742:794   */\n      iszero\n      tag_61\n      jumpi\n        /* \"#utility.yul\":790:791   */\n      0x00\n        /* \"#utility.yul\":787:788   */\n      dup1\n        /* \"#utility.yul\":780:792   */\n      revert\n        /* \"#utility.yul\":742:794   */\n    tag_61:\n      pop\n      pop\n        /* \"#utility.yul\":813:836   */\n      dup1\n      calldataload\n      swap3\n        /* \"#utility.yul\":883:885   */\n      0x20\n        /* \"#utility.yul\":868:886   */\n      swap1\n      swap2\n      add\n        /* \"#utility.yul\":855:887   */\n      calldataload\n      swap2\n      pop\n        /* \"#utility.yul\":645:893   */\n      jump\t// out\n        /* \"#utility.yul\":898:1169   */\n    tag_41:\n        /* \"#utility.yul\":1081:1087   */\n      dup2\n        /* \"#utility.yul\":1073:1079   */\n      dup4\n        /* \"#utility.yul\":1068:1071   */\n      dup3\n        /* \"#utility.yul\":1055:1088   */\n      calldatacopy\n        /* \"#utility.yul\":1037:1040   */\n      0x00\n        /* \"#utility.yul\":1107:1123   */\n      swap2\n      add\n        /* \"#utility.yul\":1132:1145   */\n      swap1\n      dup2\n      mstore\n        /* \"#utility.yul\":1107:1123   */\n      swap2\n        /* \"#utility.yul\":898:1169   */\n      swap1\n      pop\n      jump\t// out\n        /* \"#utility.yul\":2234:3618   */\n    tag_15:\n        /* \"#utility.yul\":2394:2398   */\n      0x00\n        /* \"#utility.yul\":2423:2425   */\n      0x20\n        /* \"#utility.yul\":2463:2465   */\n      dup1\n        /* \"#utility.yul\":2452:2461   */\n      dup4\n        /* \"#utility.yul\":2448:2466   */\n      add\n        /* \"#utility.yul\":2493:2495   */\n      dup2\n        /* \"#utility.yul\":2482:2491   */\n      dup5\n        /* \"#utility.yul\":2475:2496   */\n      mstore\n        /* \"#utility.yul\":2516:2522   */\n      dup1\n        /* \"#utility.yul\":2551:2557   */\n      dup6\n        /* \"#utility.yul\":2545:2558   */\n      mload\n        /* \"#utility.yul\":2582:2588   */\n      dup1\n        /* \"#utility.yul\":2574:2580   */\n      dup4\n        /* \"#utility.yul\":2567:2589   */\n      mstore\n        /* \"#utility.yul\":2620:2622   */\n      0x40\n        /* \"#utility.yul\":2609:2618   */\n      dup7\n        /* \"#utility.yul\":2605:2623   */\n      add\n        /* \"#utility.yul\":2598:2623   */\n      swap2\n      pop\n        /* \"#utility.yul\":2682:2684   */\n      0x40\n        /* \"#utility.yul\":2672:2678   */\n      dup2\n        /* \"#utility.yul\":2669:2670   */\n      0x05\n        /* \"#utility.yul\":2665:2679   */\n      shl\n        /* \"#utility.yul\":2654:2663   */\n      dup8\n        /* \"#utility.yul\":2650:2680   */\n      add\n        /* \"#utility.yul\":2646:2685   */\n      add\n        /* \"#utility.yul\":2632:2685   */\n      swap3\n      pop\n        /* \"#utility.yul\":2720:2722   */\n      dup4\n        /* \"#utility.yul\":2712:2718   */\n      dup8\n        /* \"#utility.yul\":2708:2723   */\n      add\n        /* \"#utility.yul\":2741:2742   */\n      0x00\n        /* \"#utility.yul\":2762:2763   */\n      dup1\n        /* \"#utility.yul\":2772:3589   */\n    tag_66:\n        /* \"#utility.yul\":2788:2794   */\n      dup4\n        /* \"#utility.yul\":2783:2786   */\n      dup2\n        /* \"#utility.yul\":2780:2795   */\n      lt\n        /* \"#utility.yul\":2772:3589   */\n      iszero\n      tag_68\n      jumpi\n        /* \"#utility.yul\":2881:2947   */\n      0xffffffffffffffffffffffffffffffffffffffffffffffffffffffffffffffc0\n        /* \"#utility.yul\":2869:2878   */\n      dup10\n        /* \"#utility.yul\":2861:2867   */\n      dup8\n        /* \"#utility.yul\":2857:2879   */\n      sub\n        /* \"#utility.yul\":2853:2948   */\n      add\n        /* \"#utility.yul\":2848:2851   */\n      dup6\n        /* \"#utility.yul\":2841:2949   */\n      mstore\n        /* \"#utility.yul\":2978:2984   */\n      dup3\n        /* \"#utility.yul\":2972:2985   */\n      mload\n        /* \"#utility.yul\":3020:3022   */\n      dup1\n        /* \"#utility.yul\":3014:3023   */\n      mload\n        /* \"#utility.yul\":3051:3059   */\n      dup1\n        /* \"#utility.yul\":3043:3049   */\n      dup9\n        /* \"#utility.yul\":3036:3060   */\n      mstore\n        /* \"#utility.yul\":3084:3085   */\n      dup4\n        /* \"#utility.yul\":3098:3255   */\n    tag_69:\n        /* \"#utility.yul\":3114:3122   */\n      dup2\n        /* \"#utility.yul\":3109:3112   */\n      dup2\n        /* \"#utility.yul\":3106:3123   */\n      lt\n        /* \"#utility.yul\":3098:3255   */\n      iszero\n      tag_71\n      jumpi\n        /* \"#utility.yul\":3222:3234   */\n      dup3\n      dup2\n      add\n        /* \"#utility.yul\":3218:3239   */\n      dup11\n      add\n        /* \"#utility.yul\":3212:3240   */\n      mload\n        /* \"#utility.yul\":3189:3205   */\n      dup10\n      dup3\n      add\n        /* \"#utility.yul\":3185:3210   */\n      dup12\n      add\n        /* \"#utility.yul\":3178:3241   */\n      mstore\n        /* \"#utility.yul\":3133:3145   */\n      dup10\n      add\n        /* \"#utility.yul\":3098:3255   */\n      jump(tag_69)\n    tag_71:\n        /* \"#utility.yul\":3279:3287   */\n      dup2\n        /* \"#utility.yul\":3274:3277   */\n      dup2\n        /* \"#utility.yul\":3271:3288   */\n      gt\n        /* \"#utility.yul\":3268:3374   */\n      iszero\n      tag_72\n      jumpi\n        /* \"#utility.yul\":3358:3359   */\n      dup5\n        /* \"#utility.yul\":3353:3355   */\n      dup11\n        /* \"#utility.yul\":3342:3350   */\n      dup4\n        /* \"#utility.yul\":3334:3340   */\n      dup12\n        /* \"#utility.yul\":3330:3351   */\n      add\n        /* \"#utility.yul\":3326:3356   */\n      add\n        /* \"#utility.yul\":3319:3360   */\n      mstore\n        /* \"#utility.yul\":3268:3374   */\n    tag_72:\n      pop\n        /* \"#utility.yul\":3431:3433   */\n      0x1f\n        /* \"#utility.yul\":3417:3434   */\n      add\n        /* \"#utility.yul\":3436:3502   */\n      0xffffffffffffffffffffffffffffffffffffffffffffffffffffffffffffffe0\n        /* \"#utility.yul\":3413:3503   */\n      and\n        /* \"#utility.yul\":3401:3504   */\n      swap7\n      swap1\n      swap7\n      add\n        /* \"#utility.yul\":3397:3509   */\n      dup8\n      add\n      swap6\n      pop\n        /* \"#utility.yul\":3567:3579   */\n      swap4\n      dup7\n      add\n      swap4\n        /* \"#utility.yul\":3532:3547   */\n      swap2\n      dup7\n      add\n      swap2\n        /* \"#utility.yul\":2814:2815   */\n      0x01\n        /* \"#utility.yul\":2805:2816   */\n      add\n        /* \"#utility.yul\":2772:3589   */\n      jump(tag_66)\n    tag_68:\n      pop\n        /* \"#utility.yul\":3606:3612   */\n      swap4\n      swap9\n        /* \"#utility.yul\":2234:3618   */\n      swap8\n      pop\n      pop\n      pop\n      pop\n      pop\n      pop\n      pop\n      pop\n      jump\t// out\n        /* \"#utility.yul\":3805:4385   */\n    tag_39:\n        /* \"#utility.yul\":3882:3886   */\n      0x00\n        /* \"#utility.yul\":3888:3894   */\n      dup1\n        /* \"#utility.yul\":3948:3959   */\n      dup4\n        /* \"#utility.yul\":3935:3960   */\n      calldataload\n        /* \"#utility.yul\":4038:4104   */\n      0xffffffffffffffffffffffffffffffffffffffffffffffffffffffffffffffe1\n        /* \"#utility.yul\":4027:4035   */\n      dup5\n        /* \"#utility.yul\":4011:4025   */\n      calldatasize\n        /* \"#utility.yul\":4007:4036   */\n      sub\n        /* \"#utility.yul\":4003:4105   */\n      add\n        /* \"#utility.yul\":3983:4001   */\n      dup2\n        /* \"#utility.yul\":3979:4106   */\n      slt\n        /* \"#utility.yul\":3969:4124   */\n      tag_75\n      jumpi\n        /* \"#utility.yul\":4120:4121   */\n      0x00\n        /* \"#utility.yul\":4117:4118   */\n      dup1\n        /* \"#utility.yul\":4110:4122   */\n      revert\n        /* \"#utility.yul\":3969:4124   */\n    tag_75:\n        /* \"#utility.yul\":4147:4180   */\n      dup4\n      add\n        /* \"#utility.yul\":4199:4219   */\n      dup1\n      calldataload\n      swap2\n      pop\n        /* \"#utility.yul\":4242:4260   */\n      0xffffffffffffffff\n        /* \"#utility.yul\":4231:4261   */\n      dup3\n      gt\n        /* \"#utility.yul\":4228:4278   */\n      iszero\n      tag_76\n      jumpi\n        /* \"#utility.yul\":4274:4275   */\n      0x00\n        /* \"#utility.yul\":4271:4272   */\n      dup1\n        /* \"#utility.yul\":4264:4276   */\n      revert\n        /* \"#utility.yul\":4228:4278   */\n    tag_76:\n        /* \"#utility.yul\":4307:4311   */\n      0x20\n        /* \"#utility.yul\":4295:4312   */\n      add\n      swap2\n      pop\n        /* \"#utility.yul\":4338:4352   */\n      calldatasize\n        /* \"#utility.yul\":4334:4361   */\n      dup2\n      swap1\n      sub\n        /* \"#utility.yul\":4324:4362   */\n      dup3\n      sgt\n        /* \"#utility.yul\":4321:4379   */\n      iszero\n      tag_77\n      jumpi\n        /* \"#utility.yul\":4375:4376   */\n      0x00\n        /* \"#utility.yul\":4372:4373   */\n      dup1\n        /* \"#utility.yul\":4365:4377   */\n      revert\n        /* \"#utility.yul\":4321:4379   */\n    tag_77:\n        /* \"#utility.yul\":3805:4385   */\n      swap3\n      pop\n      swap3\n      swap1\n      pop\n      jump\t// out\n        /* \"#utility.yul\":4390:4518   */\n    tag_23:\n        /* \"#utility.yul\":4430:4433   */\n      0x00\n        /* \"#utility.yul\":4461:4462   */\n      dup3\n        /* \"#utility.yul\":4457:4463   */\n      not\n        /* \"#utility.yul\":4454:4455   */\n      dup3\n        /* \"#utility.yul\":4451:4464   */\n      gt\n        /* \"#utility.yul\":4448:4487   */\n      iszero\n      tag_80\n      jumpi\n        /* \"#utility.yul\":4467:4485   */\n      tag_80\n      tag_81\n      jump\t// in\n    tag_80:\n      pop\n        /* \"#utility.yul\":4503:4512   */\n      add\n      swap1\n        /* \"#utility.yul\":4390:4518   */\n      jump\t// out\n        /* \"#utility.yul\":4523:4718   */\n    tag_49:\n        /* \"#utility.yul\":4562:4565   */\n      0x00\n        /* \"#utility.yul\":4593:4659   */\n      0xffffffffffffffffffffffffffffffffffffffffffffffffffffffffffffffff\n        /* \"#utility.yul\":4586:4591   */\n      dup3\n        /* \"#utility.yul\":4583:4660   */\n      eq\n        /* \"#utility.yul\":4580:4683   */\n      iszero\n      tag_84\n      jumpi\n        /* \"#utility.yul\":4663:4681   */\n      tag_84\n      tag_81\n      jump\t// in\n    tag_84:\n      pop\n        /* \"#utility.yul\":4710:4711   */\n      0x01\n        /* \"#utility.yul\":4699:4712   */\n      add\n      swap1\n        /* \"#utility.yul\":4523:4718   */\n      jump\t// out\n        /* \"#utility.yul\":4723:4907   */\n    tag_81:\n        /* \"#utility.yul\":4775:4852   */\n      0x4e487b7100000000000000000000000000000000000000000000000000000000\n        /* \"#utility.yul\":4772:4773   */\n      0x00\n        /* \"#utility.yul\":4765:4853   */\n      mstore\n        /* \"#utility.yul\":4872:4876   */\n      0x11\n        /* \"#utility.yul\":4869:4870   */\n      0x04\n        /* \"#utility.yul\":4862:4877   */\n      mstore\n        /* \"#utility.yul\":4896:4900   */\n      0x24\n        /* \"#utility.yul\":4893:4894   */\n      0x00\n        /* \"#utility.yul\":4886:4901   */\n      revert\n        /* \"#utility.yul\":4912:5096   */\n    tag_37:\n        /* \"#utility.yul\":4964:5041   */\n      0x4e487b7100000000000000000000000000000000000000000000000000000000\n        /* \"#utility.yul\":4961:4962   */\n      0x00\n        /* \"#utility.yul\":4954:5042   */\n      mstore\n        /* \"#utility.yul\":5061:5065   */\n      0x32\n        /* \"#utility.yul\":5058:5059   */\n      0x04\n        /* \"#utility.yul\":5051:5066   */\n      mstore\n        /* \"#utility.yul\":5085:5089   */\n      0x24\n        /* \"#utility.yul\":5082:5083   */\n      0x00\n        /* \"#utility.yul\":5075:5090   */\n      revert\n        /* \"#utility.yul\":5101:5285   */\n    tag_29:\n        /* \"#utility.yul\":5153:5230   */\n      0x4e487b7100000000000000000000000000000000000000000000000000000000\n        /* \"#utility.yul\":5150:5151   */\n      0x00\n        /* \"#utility.yul\":5143:5231   */\n      mstore\n        /* \"#utility.yul\":5250:5254   */\n      0x41\n        /* \"#utility.yul\":5247:5248   */\n      0x04\n        /* \"#utility.yul\":5240:5255   */\n      mstore\n        /* \"#utility.yul\":5274:5278   */\n      0x24\n        /* \"#utility.yul\":5271:5272   */\n      0x00\n        /* \"#utility.yul\":5264:5279   */\n      revert\n\n    auxdata: 0xa264697066735822122013f1ac244608a498af1262af04d020a90ebbf4005d8b29f8f15434c8bc4d87e664736f6c63430008070033\n}\n",
				"bytecode": {
					"linkReferences": {},
					"object": "608060405234801561001057600080fd5b506105f6806100206000396000f3fe6080604052600436106100345760003560e01c80633cb8008514610039578063415c2d961461005b578063b1ade4db14610084575b600080fd5b34801561004557600080fd5b5061005961005436600461036d565b6100a7565b005b61006e6100693660046102f8565b610138565b60405161007b919061039f565b60405180910390f35b34801561009057600080fd5b50610099610280565b60405190815260200161007b565b7ffd33e90d0eac940755277aa91045b95664988beeeafc4ed7d1281a6d83afbc00336100d383856104e2565b6040805173ffffffffffffffffffffffffffffffffffffffff90931683526060602084018190526005908401527f66756e6331000000000000000000000000000000000000000000000000000000608084015282015260a00160405180910390a15050565b60608167ffffffffffffffff81111561015357610153610591565b60405190808252806020026020018201604052801561018657816020015b60608152602001906001900390816101715790505b50905060005b8281101561027957600080308686858181106101aa576101aa610562565b90506020028101906101bc9190610476565b6040516101ca92919061038f565b600060405180830381855af49150503d8060008114610205576040519150601f19603f3d011682016040523d82523d6000602084013e61020a565b606091505b509150915081610246576040517fe0b3c24600000000000000000000000000000000000000000000000000000000815260040160405180910390fd5b8084848151811061025957610259610562565b602002602001018190525050508080610271906104fa565b91505061018c565b5092915050565b604080513381526060602082018190526005908201527f66756e6332000000000000000000000000000000000000000000000000000000608082015260028183015290516000917ffd33e90d0eac940755277aa91045b95664988beeeafc4ed7d1281a6d83afbc00919081900360a00190a150606f90565b6000806020838503121561030b57600080fd5b823567ffffffffffffffff8082111561032357600080fd5b818501915085601f83011261033757600080fd5b81358181111561034657600080fd5b8660208260051b850101111561035b57600080fd5b60209290920196919550909350505050565b6000806040838503121561038057600080fd5b50508035926020909101359150565b8183823760009101908152919050565b6000602080830181845280855180835260408601915060408160051b87010192508387016000805b83811015610468577fffffffffffffffffffffffffffffffffffffffffffffffffffffffffffffffc089870301855282518051808852835b8181101561041a578281018a01518982018b015289016103ff565b8181111561042a57848a838b0101525b50601f017fffffffffffffffffffffffffffffffffffffffffffffffffffffffffffffffe016969096018701955093860193918601916001016103c7565b509398975050505050505050565b60008083357fffffffffffffffffffffffffffffffffffffffffffffffffffffffffffffffe18436030181126104ab57600080fd5b83018035915067ffffffffffffffff8211156104c657600080fd5b6020019150368190038213156104db57600080fd5b9250929050565b600082198211156104f5576104f5610533565b500190565b60007fffffffffffffffffffffffffffffffffffffffffffffffffffffffffffffffff82141561052c5761052c610533565b5060010190565b7f4e487b7100000000000000000000000000000000000000000000000000000000600052601160045260246000fd5b7f4e487b7100000000000000000000000000000000000000000000000000000000600052603260045260246000fd5b7f4e487b7100000000000000000000000000000000000000000000000000000000600052604160045260246000fdfea264697066735822122013f1ac244608a498af1262af04d020a90ebbf4005d8b29f8f15434c8bc4d87e664736f6c63430008070033",
					"opcodes": "PUSH1 0x80 PUSH1 0x40 MSTORE CALLVALUE DUP1 ISZERO PUSH2 0x10 JUMPI PUSH1 0x0 DUP1 REVERT JUMPDEST POP PUSH2 0x5F6 DUP1 PUSH2 0x20 PUSH1 0x0 CODECOPY PUSH1 0x0 RETURN INVALID PUSH1 0x80 PUSH1 0x40 MSTORE PUSH1 0x4 CALLDATASIZE LT PUSH2 0x34 JUMPI PUSH1 0x0 CALLDATALOAD PUSH1 0xE0 SHR DUP1 PUSH4 0x3CB80085 EQ PUSH2 0x39 JUMPI DUP1 PUSH4 0x415C2D96 EQ PUSH2 0x5B JUMPI DUP1 PUSH4 0xB1ADE4DB EQ PUSH2 0x84 JUMPI JUMPDEST PUSH1 0x0 DUP1 REVERT JUMPDEST CALLVALUE DUP1 ISZERO PUSH2 0x45 JUMPI PUSH1 0x0 DUP1 REVERT JUMPDEST POP PUSH2 0x59 PUSH2 0x54 CALLDATASIZE PUSH1 0x4 PUSH2 0x36D JUMP JUMPDEST PUSH2 0xA7 JUMP JUMPDEST STOP JUMPDEST PUSH2 0x6E PUSH2 0x69 CALLDATASIZE PUSH1 0x4 PUSH2 0x2F8 JUMP JUMPDEST PUSH2 0x138 JUMP JUMPDEST PUSH1 0x40 MLOAD PUSH2 0x7B SWAP2 SWAP1 PUSH2 0x39F JUMP JUMPDEST PUSH1 0x40 MLOAD DUP1 SWAP2 SUB SWAP1 RETURN JUMPDEST CALLVALUE DUP1 ISZERO PUSH2 0x90 JUMPI PUSH1 0x0 DUP1 REVERT JUMPDEST POP PUSH2 0x99 PUSH2 0x280 JUMP JUMPDEST PUSH1 0x40 MLOAD SWAP1 DUP2 MSTORE PUSH1 0x20 ADD PUSH2 0x7B JUMP JUMPDEST PUSH32 0xFD33E90D0EAC940755277AA91045B95664988BEEEAFC4ED7D1281A6D83AFBC00 CALLER PUSH2 0xD3 DUP4 DUP6 PUSH2 0x4E2 JUMP JUMPDEST PUSH1 0x40 DUP1 MLOAD PUSH20 0xFFFFFFFFFFFFFFFFFFFFFFFFFFFFFFFFFFFFFFFF SWAP1 SWAP4 AND DUP4 MSTORE PUSH1 0x60 PUSH1 0x20 DUP5 ADD DUP2 SWAP1 MSTORE PUSH1 0x5 SWAP1 DUP5 ADD MSTORE PUSH32 0x66756E6331000000000000000000000000000000000000000000000000000000 PUSH1 0x80 DUP5 ADD MSTORE DUP3 ADD MSTORE PUSH1 0xA0 ADD PUSH1 0x40 MLOAD DUP1 SWAP2 SUB SWAP1 LOG1 POP POP JUMP JUMPDEST PUSH1 0x60 DUP2 PUSH8 0xFFFFFFFFFFFFFFFF DUP2 GT ISZERO PUSH2 0x153 JUMPI PUSH2 0x153 PUSH2 0x591 JUMP JUMPDEST PUSH1 0x40 MLOAD SWAP1 DUP1 DUP3 MSTORE DUP1 PUSH1 0x20 MUL PUSH1 0x20 ADD DUP3 ADD PUSH1 0x40 MSTORE DUP1 ISZERO PUSH2 0x186 JUMPI DUP2 PUSH1 0x20 ADD JUMPDEST PUSH1 0x60 DUP2 MSTORE PUSH1 0x20 ADD SWAP1 PUSH1 0x1 SWAP1 SUB SWAP1 DUP2 PUSH2 0x171 JUMPI SWAP1 POP JUMPDEST POP SWAP1 POP PUSH1 0x0 JUMPDEST DUP3 DUP2 LT ISZERO PUSH2 0x279 JUMPI PUSH1 0x0 DUP1 ADDRESS DUP7 DUP7 DUP6 DUP2 DUP2 LT PUSH2 0x1AA JUMPI PUSH2 0x1AA PUSH2 0x562 JUMP JUMPDEST SWAP1 POP PUSH1 0x20 MUL DUP2 ADD SWAP1 PUSH2 0x1BC SWAP2 SWAP1 PUSH2 0x476 JUMP JUMPDEST PUSH1 0x40 MLOAD PUSH2 0x1CA SWAP3 SWAP2 SWAP1 PUSH2 0x38F JUMP JUMPDEST PUSH1 0x0 PUSH1 0x40 MLOAD DUP1 DUP4 SUB DUP2 DUP6 GAS DELEGATECALL SWAP2 POP POP RETURNDATASIZE DUP1 PUSH1 0x0 DUP2 EQ PUSH2 0x205 JUMPI PUSH1 0x40 MLOAD SWAP2 POP PUSH1 0x1F NOT PUSH1 0x3F RETURNDATASIZE ADD AND DUP3 ADD PUSH1 0x40 MSTORE RETURNDATASIZE DUP3 MSTORE RETURNDATASIZE PUSH1 0x0 PUSH1 0x20 DUP5 ADD RETURNDATACOPY PUSH2 0x20A JUMP JUMPDEST PUSH1 0x60 SWAP2 POP JUMPDEST POP SWAP2 POP SWAP2 POP DUP2 PUSH2 0x246 JUMPI PUSH1 0x40 MLOAD PUSH32 0xE0B3C24600000000000000000000000000000000000000000000000000000000 DUP2 MSTORE PUSH1 0x4 ADD PUSH1 0x40 MLOAD DUP1 SWAP2 SUB SWAP1 REVERT JUMPDEST DUP1 DUP5 DUP5 DUP2 MLOAD DUP2 LT PUSH2 0x259 JUMPI PUSH2 0x259 PUSH2 0x562 JUMP JUMPDEST PUSH1 0x20 MUL PUSH1 0x20 ADD ADD DUP2 SWAP1 MSTORE POP POP POP DUP1 DUP1 PUSH2 0x271 SWAP1 PUSH2 0x4FA JUMP JUMPDEST SWAP2 POP POP PUSH2 0x18C JUMP JUMPDEST POP SWAP3 SWAP2 POP POP JUMP JUMPDEST PUSH1 0x40 DUP1 MLOAD CALLER DUP2 MSTORE PUSH1 0x60 PUSH1 0x20 DUP3 ADD DUP2 SWAP1 MSTORE PUSH1 0x5 SWAP1 DUP3 ADD MSTORE PUSH32 0x66756E6332000000000000000000000000000000000000000000000000000000 PUSH1 0x80 DUP3 ADD MSTORE PUSH1 0x2 DUP2 DUP4 ADD MSTORE SWAP1 MLOAD PUSH1 0x0 SWAP2 PUSH32 0xFD33E90D0EAC940755277AA91045B95664988BEEEAFC4ED7D1281A6D83AFBC00 SWAP2 SWAP1 DUP2 SWAP1 SUB PUSH1 0xA0 ADD SWAP1 LOG1 POP PUSH1 0x6F SWAP1 JUMP JUMPDEST PUSH1 0x0 DUP1 PUSH1 0x20 DUP4 DUP6 SUB SLT ISZERO PUSH2 0x30B JUMPI PUSH1 0x0 DUP1 REVERT JUMPDEST DUP3 CALLDATALOAD PUSH8 0xFFFFFFFFFFFFFFFF DUP1 DUP3 GT ISZERO PUSH2 0x323 JUMPI PUSH1 0x0 DUP1 REVERT JUMPDEST DUP2 DUP6 ADD SWAP2 POP DUP6 PUSH1 0x1F DUP4 ADD SLT PUSH2 0x337 JUMPI PUSH1 0x0 DUP1 REVERT JUMPDEST DUP2 CALLDATALOAD DUP2 DUP2 GT ISZERO PUSH2 0x346 JUMPI PUSH1 0x0 DUP1 REVERT JUMPDEST DUP7 PUSH1 0x20 DUP3 PUSH1 0x5 SHL DUP6 ADD ADD GT ISZERO PUSH2 0x35B JUMPI PUSH1 0x0 DUP1 REVERT JUMPDEST PUSH1 0x20 SWAP3 SWAP1 SWAP3 ADD SWAP7 SWAP2 SWAP6 POP SWAP1 SWAP4 POP POP POP POP JUMP JUMPDEST PUSH1 0x0 DUP1 PUSH1 0x40 DUP4 DUP6 SUB SLT ISZERO PUSH2 0x380 JUMPI PUSH1 0x0 DUP1 REVERT JUMPDEST POP POP DUP1 CALLDATALOAD SWAP3 PUSH1 0x20 SWAP1 SWAP2 ADD CALLDATALOAD SWAP2 POP JUMP JUMPDEST DUP2 DUP4 DUP3 CALLDATACOPY PUSH1 0x0 SWAP2 ADD SWAP1 DUP2 MSTORE SWAP2 SWAP1 POP JUMP JUMPDEST PUSH1 0x0 PUSH1 0x20 DUP1 DUP4 ADD DUP2 DUP5 MSTORE DUP1 DUP6 MLOAD DUP1 DUP4 MSTORE PUSH1 0x40 DUP7 ADD SWAP2 POP PUSH1 0x40 DUP2 PUSH1 0x5 SHL DUP8 ADD ADD SWAP3 POP DUP4 DUP8 ADD PUSH1 0x0 DUP1 JUMPDEST DUP4 DUP2 LT ISZERO PUSH2 0x468 JUMPI PUSH32 0xFFFFFFFFFFFFFFFFFFFFFFFFFFFFFFFFFFFFFFFFFFFFFFFFFFFFFFFFFFFFFFC0 DUP10 DUP8 SUB ADD DUP6 MSTORE DUP3 MLOAD DUP1 MLOAD DUP1 DUP9 MSTORE DUP4 JUMPDEST DUP2 DUP2 LT ISZERO PUSH2 0x41A JUMPI DUP3 DUP2 ADD DUP11 ADD MLOAD DUP10 DUP3 ADD DUP12 ADD MSTORE DUP10 ADD PUSH2 0x3FF JUMP JUMPDEST DUP2 DUP2 GT ISZERO PUSH2 0x42A JUMPI DUP5 DUP11 DUP4 DUP12 ADD ADD MSTORE JUMPDEST POP PUSH1 0x1F ADD PUSH32 0xFFFFFFFFFFFFFFFFFFFFFFFFFFFFFFFFFFFFFFFFFFFFFFFFFFFFFFFFFFFFFFE0 AND SWAP7 SWAP1 SWAP7 ADD DUP8 ADD SWAP6 POP SWAP4 DUP7 ADD SWAP4 SWAP2 DUP7 ADD SWAP2 PUSH1 0x1 ADD PUSH2 0x3C7 JUMP JUMPDEST POP SWAP4 SWAP9 SWAP8 POP POP POP POP POP POP POP POP JUMP JUMPDEST PUSH1 0x0 DUP1 DUP4 CALLDATALOAD PUSH32 0xFFFFFFFFFFFFFFFFFFFFFFFFFFFFFFFFFFFFFFFFFFFFFFFFFFFFFFFFFFFFFFE1 DUP5 CALLDATASIZE SUB ADD DUP2 SLT PUSH2 0x4AB JUMPI PUSH1 0x0 DUP1 REVERT JUMPDEST DUP4 ADD DUP1 CALLDATALOAD SWAP2 POP PUSH8 0xFFFFFFFFFFFFFFFF DUP3 GT ISZERO PUSH2 0x4C6 JUMPI PUSH1 0x0 DUP1 REVERT JUMPDEST PUSH1 0x20 ADD SWAP2 POP CALLDATASIZE DUP2 SWAP1 SUB DUP3 SGT ISZERO PUSH2 0x4DB JUMPI PUSH1 0x0 DUP1 REVERT JUMPDEST SWAP3 POP SWAP3 SWAP1 POP JUMP JUMPDEST PUSH1 0x0 DUP3 NOT DUP3 GT ISZERO PUSH2 0x4F5 JUMPI PUSH2 0x4F5 PUSH2 0x533 JUMP JUMPDEST POP ADD SWAP1 JUMP JUMPDEST PUSH1 0x0 PUSH32 0xFFFFFFFFFFFFFFFFFFFFFFFFFFFFFFFFFFFFFFFFFFFFFFFFFFFFFFFFFFFFFFFF DUP3 EQ ISZERO PUSH2 0x52C JUMPI PUSH2 0x52C PUSH2 0x533 JUMP JUMPDEST POP PUSH1 0x1 ADD SWAP1 JUMP JUMPDEST PUSH32 0x4E487B7100000000000000000000000000000000000000000000000000000000 PUSH1 0x0 MSTORE PUSH1 0x11 PUSH1 0x4 MSTORE PUSH1 0x24 PUSH1 0x0 REVERT JUMPDEST PUSH32 0x4E487B7100000000000000000000000000000000000000000000000000000000 PUSH1 0x0 MSTORE PUSH1 0x32 PUSH1 0x4 MSTORE PUSH1 0x24 PUSH1 0x0 REVERT JUMPDEST PUSH32 0x4E487B7100000000000000000000000000000000000000000000000000000000 PUSH1 0x0 MSTORE PUSH1 0x41 PUSH1 0x4 MSTORE PUSH1 0x24 PUSH1 0x0 REVERT INVALID LOG2 PUSH5 0x6970667358 0x22 SLT KECCAK256 SGT CALL 0xAC 0x24 CHAINID ADDMOD LOG4 SWAP9 0xAF SLT PUSH3 0xAF04D0 KECCAK256 0xA9 0xE 0xBB DELEGATECALL STOP 0x5D DUP12 0x29 0xF8 CALL SLOAD CALLVALUE 0xC8 0xBC 0x4D DUP8 0xE6 PUSH5 0x736F6C6343 STOP ADDMOD SMOD STOP CALLER "
				},
				"gasEstimates": {
					"creation": {
						"codeDepositCost": "305200",
						"executionCost": "343",
						"totalCost": "305543"
					},
					"external": {
						"func1(uint256,uint256)": "2460",
						"func2()": "2395",
						"multiDelegateCall(bytes[])": "infinite"
					}
				},
				"methodIdentifiers": {
					"func1(uint256,uint256)": "3cb80085",
					"func2()": "b1ade4db",
					"multiDelegateCall(bytes[])": "415c2d96"
				}
			},
			"storageLayout": {
				"storage": [],
				"types": null
			},
			"userdoc": {
				"kind": "user",
				"methods": {},
				"version": 1
			}
		}
	}
}