{
	"20StructsZuoYe.sol": {
		"StructsZuoYe": {
			"abi": [
				{
					"inputs": [
						{
							"internalType": "uint256",
							"name": "",
							"type": "uint256"
						}
					],
					"name": "cars",
					"outputs": [
						{
							"internalType": "string",
							"name": "make",
							"type": "string"
						},
						{
							"internalType": "uint256",
							"name": "year",
							"type": "uint256"
						},
						{
							"internalType": "address",
							"name": "owner",
							"type": "address"
						}
					],
					"stateMutability": "view",
					"type": "function"
				},
				{
					"inputs": [
						{
							"internalType": "string",
							"name": "",
							"type": "string"
						}
					],
					"name": "carsByOwner",
					"outputs": [
						{
							"internalType": "uint256",
							"name": "",
							"type": "uint256"
						}
					],
					"stateMutability": "view",
					"type": "function"
				},
				{
					"inputs": [
						{
							"internalType": "string",
							"name": "_make",
							"type": "string"
						}
					],
					"name": "deleteCars",
					"outputs": [],
					"stateMutability": "nonpayable",
					"type": "function"
				},
				{
					"inputs": [
						{
							"internalType": "string",
							"name": "_make",
							"type": "string"
						},
						{
							"internalType": "uint256",
							"name": "_year",
							"type": "uint256"
						},
						{
							"internalType": "address",
							"name": "_owner",
							"type": "address"
						}
					],
					"name": "myCheKu",
					"outputs": [],
					"stateMutability": "nonpayable",
					"type": "function"
				},
				{
					"inputs": [
						{
							"internalType": "string",
							"name": "_make",
							"type": "string"
						},
						{
							"internalType": "uint256",
							"name": "newYear",
							"type": "uint256"
						}
					],
					"name": "updateYear",
					"outputs": [
						{
							"components": [
								{
									"internalType": "string",
									"name": "make",
									"type": "string"
								},
								{
									"internalType": "uint256",
									"name": "year",
									"type": "uint256"
								},
								{
									"internalType": "address",
									"name": "owner",
									"type": "address"
								}
							],
							"internalType": "struct StructsZuoYe.Vehicle",
							"name": "",
							"type": "tuple"
						}
					],
					"stateMutability": "nonpayable",
					"type": "function"
				}
			],
			"devdoc": {
				"kind": "dev",
				"methods": {},
				"version": 1
			},
			"evm": {
				"assembly": "    /* \"20StructsZuoYe.sol\":423:1556  contract StructsZuoYe{... */\n  mstore(0x40, 0x80)\n  callvalue\n  dup1\n  iszero\n  tag_1\n  jumpi\n  0x00\n  dup1\n  revert\ntag_1:\n  pop\n  dataSize(sub_0)\n  dup1\n  dataOffset(sub_0)\n  0x00\n  codecopy\n  0x00\n  return\nstop\n\nsub_0: assembly {\n        /* \"20StructsZuoYe.sol\":423:1556  contract StructsZuoYe{... */\n      mstore(0x40, 0x80)\n      callvalue\n      dup1\n      iszero\n      tag_1\n      jumpi\n      0x00\n      dup1\n      revert\n    tag_1:\n      pop\n      jumpi(tag_2, lt(calldatasize, 0x04))\n      shr(0xe0, calldataload(0x00))\n      dup1\n      0x2d7a3e90\n      eq\n      tag_3\n      jumpi\n      dup1\n      0xa19d846e\n      eq\n      tag_4\n      jumpi\n      dup1\n      0xb921b9a8\n      eq\n      tag_5\n      jumpi\n      dup1\n      0xd461ba4a\n      eq\n      tag_6\n      jumpi\n      dup1\n      0xf7746e36\n      eq\n      tag_7\n      jumpi\n    tag_2:\n      0x00\n      dup1\n      revert\n        /* \"20StructsZuoYe.sol\":569:611  mapping(string => uint) public carsByOwner */\n    tag_3:\n      tag_8\n      0x04\n      dup1\n      calldatasize\n      sub\n      dup2\n      add\n      swap1\n      tag_9\n      swap2\n      swap1\n      tag_10\n      jump\t// in\n    tag_9:\n      tag_11\n      jump\t// in\n    tag_8:\n      mload(0x40)\n      tag_12\n      swap2\n      swap1\n      tag_13\n      jump\t// in\n    tag_12:\n      mload(0x40)\n      dup1\n      swap2\n      sub\n      swap1\n      return\n        /* \"20StructsZuoYe.sol\":1346:1554  function deleteCars(string memory _make)external{... */\n    tag_4:\n      tag_14\n      0x04\n      dup1\n      calldatasize\n      sub\n      dup2\n      add\n      swap1\n      tag_15\n      swap2\n      swap1\n      tag_10\n      jump\t// in\n    tag_15:\n      tag_16\n      jump\t// in\n    tag_14:\n      stop\n        /* \"20StructsZuoYe.sol\":618:964  function myCheKu(string memory _make,uint _year,address _owner) external{... */\n    tag_5:\n      tag_17\n      0x04\n      dup1\n      calldatasize\n      sub\n      dup2\n      add\n      swap1\n      tag_18\n      swap2\n      swap1\n      tag_19\n      jump\t// in\n    tag_18:\n      tag_20\n      jump\t// in\n    tag_17:\n      stop\n        /* \"20StructsZuoYe.sol\":970:1340  function updateYear(string memory _make,uint newYear)external returns(Vehicle memory){... */\n    tag_6:\n      tag_21\n      0x04\n      dup1\n      calldatasize\n      sub\n      dup2\n      add\n      swap1\n      tag_22\n      swap2\n      swap1\n      tag_23\n      jump\t// in\n    tag_22:\n      tag_24\n      jump\t// in\n    tag_21:\n      mload(0x40)\n      tag_25\n      swap2\n      swap1\n      tag_26\n      jump\t// in\n    tag_25:\n      mload(0x40)\n      dup1\n      swap2\n      sub\n      swap1\n      return\n        /* \"20StructsZuoYe.sol\":542:563  Vehicle[] public cars */\n    tag_7:\n      tag_27\n      0x04\n      dup1\n      calldatasize\n      sub\n      dup2\n      add\n      swap1\n      tag_28\n      swap2\n      swap1\n      tag_29\n      jump\t// in\n    tag_28:\n      tag_30\n      jump\t// in\n    tag_27:\n      mload(0x40)\n      tag_31\n      swap4\n      swap3\n      swap2\n      swap1\n      tag_32\n      jump\t// in\n    tag_31:\n      mload(0x40)\n      dup1\n      swap2\n      sub\n      swap1\n      return\n        /* \"20StructsZuoYe.sol\":569:611  mapping(string => uint) public carsByOwner */\n    tag_11:\n      0x01\n      dup2\n      dup1\n      mload\n      0x20\n      dup2\n      add\n      dup3\n      add\n      dup1\n      mload\n      dup5\n      dup3\n      mstore\n      0x20\n      dup4\n      add\n      0x20\n      dup6\n      add\n      keccak256\n      dup2\n      dup4\n      mstore\n      dup1\n      swap6\n      pop\n      pop\n      pop\n      pop\n      pop\n      pop\n      0x00\n      swap2\n      pop\n      swap1\n      pop\n      sload\n      dup2\n      jump\t// out\n        /* \"20StructsZuoYe.sol\":1346:1554  function deleteCars(string memory _make)external{... */\n    tag_16:\n        /* \"20StructsZuoYe.sol\":1404:1417  uint delIndex */\n      0x00\n        /* \"20StructsZuoYe.sol\":1420:1431  carsByOwner */\n      0x01\n        /* \"20StructsZuoYe.sol\":1432:1437  _make */\n      dup3\n        /* \"20StructsZuoYe.sol\":1420:1438  carsByOwner[_make] */\n      mload(0x40)\n      tag_34\n      swap2\n      swap1\n      tag_35\n      jump\t// in\n    tag_34:\n      swap1\n      dup2\n      mstore\n      0x20\n      add\n      mload(0x40)\n      dup1\n      swap2\n      sub\n      swap1\n      keccak256\n      sload\n        /* \"20StructsZuoYe.sol\":1404:1438  uint delIndex = carsByOwner[_make] */\n      swap1\n      pop\n        /* \"20StructsZuoYe.sol\":1448:1471  Vehicle storage delCars */\n      0x00\n        /* \"20StructsZuoYe.sol\":1474:1478  cars */\n      dup1\n        /* \"20StructsZuoYe.sol\":1479:1487  delIndex */\n      dup3\n        /* \"20StructsZuoYe.sol\":1474:1488  cars[delIndex] */\n      dup2\n      sload\n      dup2\n      lt\n      tag_36\n      jumpi\n      tag_37\n      tag_38\n      jump\t// in\n    tag_37:\n    tag_36:\n      swap1\n      0x00\n      mstore\n      keccak256(0x00, 0x20)\n      swap1\n      0x03\n      mul\n      add\n        /* \"20StructsZuoYe.sol\":1448:1488  Vehicle storage delCars = cars[delIndex] */\n      swap1\n      pop\n        /* \"20StructsZuoYe.sol\":1508:1512  cars */\n      0x00\n        /* \"20StructsZuoYe.sol\":1525:1526  1 */\n      0x01\n        /* \"20StructsZuoYe.sol\":1513:1517  cars */\n      0x00\n        /* \"20StructsZuoYe.sol\":1513:1524  cars.length */\n      dup1\n      sload\n      swap1\n      pop\n        /* \"20StructsZuoYe.sol\":1513:1526  cars.length-1 */\n      tag_40\n      swap2\n      swap1\n      tag_41\n      jump\t// in\n    tag_40:\n        /* \"20StructsZuoYe.sol\":1508:1527  cars[cars.length-1] */\n      dup2\n      sload\n      dup2\n      lt\n      tag_42\n      jumpi\n      tag_43\n      tag_38\n      jump\t// in\n    tag_43:\n    tag_42:\n      swap1\n      0x00\n      mstore\n      keccak256(0x00, 0x20)\n      swap1\n      0x03\n      mul\n      add\n        /* \"20StructsZuoYe.sol\":1498:1527  delCars = cars[cars.length-1] */\n      swap1\n      pop\n        /* \"20StructsZuoYe.sol\":1537:1541  cars */\n      0x00\n        /* \"20StructsZuoYe.sol\":1537:1547  cars.pop() */\n      dup1\n      sload\n      dup1\n      tag_45\n      jumpi\n      tag_46\n      tag_47\n      jump\t// in\n    tag_46:\n    tag_45:\n      0x01\n      swap1\n      sub\n      dup2\n      dup2\n      swap1\n      0x00\n      mstore\n      keccak256(0x00, 0x20)\n      swap1\n      0x03\n      mul\n      add\n      0x00\n      dup1\n      dup3\n      add\n      0x00\n      tag_49\n      swap2\n      swap1\n      tag_50\n      jump\t// in\n    tag_49:\n      0x01\n      dup3\n      add\n      0x00\n      swap1\n      sstore\n      0x02\n      dup3\n      add\n      exp(0x0100, 0x00)\n      dup2\n      sload\n      swap1\n      0xffffffffffffffffffffffffffffffffffffffff\n      mul\n      not\n      and\n      swap1\n      sstore\n      pop\n      pop\n      swap1\n      sstore\n        /* \"20StructsZuoYe.sol\":1394:1554  {... */\n      pop\n      pop\n        /* \"20StructsZuoYe.sol\":1346:1554  function deleteCars(string memory _make)external{... */\n      pop\n      jump\t// out\n        /* \"20StructsZuoYe.sol\":618:964  function myCheKu(string memory _make,uint _year,address _owner) external{... */\n    tag_20:\n        /* \"20StructsZuoYe.sol\":735:757  Vehicle memory addCars */\n      0x00\n        /* \"20StructsZuoYe.sol\":760:787  Vehicle(_make,_year,_owner) */\n      mload(0x40)\n      dup1\n      0x60\n      add\n      0x40\n      mstore\n      dup1\n        /* \"20StructsZuoYe.sol\":768:773  _make */\n      dup6\n        /* \"20StructsZuoYe.sol\":760:787  Vehicle(_make,_year,_owner) */\n      dup2\n      mstore\n      0x20\n      add\n        /* \"20StructsZuoYe.sol\":774:779  _year */\n      dup5\n        /* \"20StructsZuoYe.sol\":760:787  Vehicle(_make,_year,_owner) */\n      dup2\n      mstore\n      0x20\n      add\n        /* \"20StructsZuoYe.sol\":780:786  _owner */\n      dup4\n        /* \"20StructsZuoYe.sol\":760:787  Vehicle(_make,_year,_owner) */\n      0xffffffffffffffffffffffffffffffffffffffff\n      and\n      dup2\n      mstore\n      pop\n        /* \"20StructsZuoYe.sol\":735:787  Vehicle memory addCars = Vehicle(_make,_year,_owner) */\n      swap1\n      pop\n        /* \"20StructsZuoYe.sol\":797:801  cars */\n      0x00\n        /* \"20StructsZuoYe.sol\":807:814  addCars */\n      dup2\n        /* \"20StructsZuoYe.sol\":797:815  cars.push(addCars) */\n      swap1\n      dup1\n      0x01\n      dup2\n      sload\n      add\n      dup1\n      dup3\n      sstore\n      dup1\n      swap2\n      pop\n      pop\n      0x01\n      swap1\n      sub\n      swap1\n      0x00\n      mstore\n      keccak256(0x00, 0x20)\n      swap1\n      0x03\n      mul\n      add\n      0x00\n      swap1\n      swap2\n      swap1\n      swap2\n      swap1\n      swap2\n      pop\n      0x00\n      dup3\n      add\n      mload\n      dup2\n      0x00\n      add\n      swap1\n      dup1\n      mload\n      swap1\n      0x20\n      add\n      swap1\n      tag_53\n      swap3\n      swap2\n      swap1\n      tag_54\n      jump\t// in\n    tag_53:\n      pop\n      0x20\n      dup3\n      add\n      mload\n      dup2\n      0x01\n      add\n      sstore\n      0x40\n      dup3\n      add\n      mload\n      dup2\n      0x02\n      add\n      exp(0x0100, 0x00)\n      dup2\n      sload\n      dup2\n      0xffffffffffffffffffffffffffffffffffffffff\n      mul\n      not\n      and\n      swap1\n      dup4\n      0xffffffffffffffffffffffffffffffffffffffff\n      and\n      mul\n      or\n      swap1\n      sstore\n      pop\n      pop\n      pop\n        /* \"20StructsZuoYe.sol\":956:957  1 */\n      0x01\n        /* \"20StructsZuoYe.sol\":944:948  cars */\n      0x00\n        /* \"20StructsZuoYe.sol\":944:955  cars.length */\n      dup1\n      sload\n      swap1\n      pop\n        /* \"20StructsZuoYe.sol\":944:957  cars.length-1 */\n      tag_55\n      swap2\n      swap1\n      tag_41\n      jump\t// in\n    tag_55:\n        /* \"20StructsZuoYe.sol\":923:934  carsByOwner */\n      0x01\n        /* \"20StructsZuoYe.sol\":935:940  _make */\n      dup6\n        /* \"20StructsZuoYe.sol\":923:941  carsByOwner[_make] */\n      mload(0x40)\n      tag_56\n      swap2\n      swap1\n      tag_35\n      jump\t// in\n    tag_56:\n      swap1\n      dup2\n      mstore\n      0x20\n      add\n      mload(0x40)\n      dup1\n      swap2\n      sub\n      swap1\n      keccak256\n        /* \"20StructsZuoYe.sol\":923:957  carsByOwner[_make] = cars.length-1 */\n      dup2\n      swap1\n      sstore\n      pop\n        /* \"20StructsZuoYe.sol\":690:964  {... */\n      pop\n        /* \"20StructsZuoYe.sol\":618:964  function myCheKu(string memory _make,uint _year,address _owner) external{... */\n      pop\n      pop\n      pop\n      jump\t// out\n        /* \"20StructsZuoYe.sol\":970:1340  function updateYear(string memory _make,uint newYear)external returns(Vehicle memory){... */\n    tag_24:\n        /* \"20StructsZuoYe.sol\":1040:1054  Vehicle memory */\n      tag_57\n      tag_58\n      jump\t// in\n    tag_57:\n        /* \"20StructsZuoYe.sol\":1065:1071  uint i */\n      0x00\n        /* \"20StructsZuoYe.sol\":1074:1085  carsByOwner */\n      0x01\n        /* \"20StructsZuoYe.sol\":1086:1091  _make */\n      dup5\n        /* \"20StructsZuoYe.sol\":1074:1092  carsByOwner[_make] */\n      mload(0x40)\n      tag_60\n      swap2\n      swap1\n      tag_35\n      jump\t// in\n    tag_60:\n      swap1\n      dup2\n      mstore\n      0x20\n      add\n      mload(0x40)\n      dup1\n      swap2\n      sub\n      swap1\n      keccak256\n      sload\n        /* \"20StructsZuoYe.sol\":1065:1092  uint i = carsByOwner[_make] */\n      swap1\n      pop\n        /* \"20StructsZuoYe.sol\":1112:1116  cars */\n      0x00\n        /* \"20StructsZuoYe.sol\":1112:1123  cars.length */\n      dup1\n      sload\n      swap1\n      pop\n        /* \"20StructsZuoYe.sol\":1110:1111  i */\n      dup2\n        /* \"20StructsZuoYe.sol\":1110:1123  i<cars.length */\n      lt\n        /* \"20StructsZuoYe.sol\":1102:1124  require(i<cars.length) */\n      tag_61\n      jumpi\n      0x00\n      dup1\n      revert\n    tag_61:\n        /* \"20StructsZuoYe.sol\":1149:1156  newYear */\n      dup3\n        /* \"20StructsZuoYe.sol\":1134:1138  cars */\n      0x00\n        /* \"20StructsZuoYe.sol\":1139:1140  i */\n      dup3\n        /* \"20StructsZuoYe.sol\":1134:1141  cars[i] */\n      dup2\n      sload\n      dup2\n      lt\n      tag_62\n      jumpi\n      tag_63\n      tag_38\n      jump\t// in\n    tag_63:\n    tag_62:\n      swap1\n      0x00\n      mstore\n      keccak256(0x00, 0x20)\n      swap1\n      0x03\n      mul\n      add\n        /* \"20StructsZuoYe.sol\":1134:1146  cars[i].year */\n      0x01\n      add\n        /* \"20StructsZuoYe.sol\":1134:1156  cars[i].year = newYear */\n      dup2\n      swap1\n      sstore\n      pop\n        /* \"20StructsZuoYe.sol\":1173:1177  cars */\n      0x00\n        /* \"20StructsZuoYe.sol\":1178:1179  i */\n      dup2\n        /* \"20StructsZuoYe.sol\":1173:1180  cars[i] */\n      dup2\n      sload\n      dup2\n      lt\n      tag_65\n      jumpi\n      tag_66\n      tag_38\n      jump\t// in\n    tag_66:\n    tag_65:\n      swap1\n      0x00\n      mstore\n      keccak256(0x00, 0x20)\n      swap1\n      0x03\n      mul\n      add\n        /* \"20StructsZuoYe.sol\":1166:1180  return cars[i] */\n      mload(0x40)\n      dup1\n      0x60\n      add\n      0x40\n      mstore\n      swap1\n      dup2\n      0x00\n      dup3\n      add\n      dup1\n      sload\n      tag_68\n      swap1\n      tag_69\n      jump\t// in\n    tag_68:\n      dup1\n      0x1f\n      add\n      0x20\n      dup1\n      swap2\n      div\n      mul\n      0x20\n      add\n      mload(0x40)\n      swap1\n      dup2\n      add\n      0x40\n      mstore\n      dup1\n      swap3\n      swap2\n      swap1\n      dup2\n      dup2\n      mstore\n      0x20\n      add\n      dup3\n      dup1\n      sload\n      tag_70\n      swap1\n      tag_69\n      jump\t// in\n    tag_70:\n      dup1\n      iszero\n      tag_71\n      jumpi\n      dup1\n      0x1f\n      lt\n      tag_72\n      jumpi\n      0x0100\n      dup1\n      dup4\n      sload\n      div\n      mul\n      dup4\n      mstore\n      swap2\n      0x20\n      add\n      swap2\n      jump(tag_71)\n    tag_72:\n      dup3\n      add\n      swap2\n      swap1\n      0x00\n      mstore\n      keccak256(0x00, 0x20)\n      swap1\n    tag_73:\n      dup2\n      sload\n      dup2\n      mstore\n      swap1\n      0x01\n      add\n      swap1\n      0x20\n      add\n      dup1\n      dup4\n      gt\n      tag_73\n      jumpi\n      dup3\n      swap1\n      sub\n      0x1f\n      and\n      dup3\n      add\n      swap2\n    tag_71:\n      pop\n      pop\n      pop\n      pop\n      pop\n      dup2\n      mstore\n      0x20\n      add\n      0x01\n      dup3\n      add\n      sload\n      dup2\n      mstore\n      0x20\n      add\n      0x02\n      dup3\n      add\n      0x00\n      swap1\n      sload\n      swap1\n      0x0100\n      exp\n      swap1\n      div\n      0xffffffffffffffffffffffffffffffffffffffff\n      and\n      0xffffffffffffffffffffffffffffffffffffffff\n      and\n      0xffffffffffffffffffffffffffffffffffffffff\n      and\n      dup2\n      mstore\n      pop\n      pop\n      swap2\n      pop\n      pop\n        /* \"20StructsZuoYe.sol\":970:1340  function updateYear(string memory _make,uint newYear)external returns(Vehicle memory){... */\n      swap3\n      swap2\n      pop\n      pop\n      jump\t// out\n        /* \"20StructsZuoYe.sol\":542:563  Vehicle[] public cars */\n    tag_30:\n      0x00\n      dup2\n      dup2\n      sload\n      dup2\n      lt\n      tag_74\n      jumpi\n      0x00\n      dup1\n      revert\n    tag_74:\n      swap1\n      0x00\n      mstore\n      keccak256(0x00, 0x20)\n      swap1\n      0x03\n      mul\n      add\n      0x00\n      swap2\n      pop\n      swap1\n      pop\n      dup1\n      0x00\n      add\n      dup1\n      sload\n      tag_76\n      swap1\n      tag_69\n      jump\t// in\n    tag_76:\n      dup1\n      0x1f\n      add\n      0x20\n      dup1\n      swap2\n      div\n      mul\n      0x20\n      add\n      mload(0x40)\n      swap1\n      dup2\n      add\n      0x40\n      mstore\n      dup1\n      swap3\n      swap2\n      swap1\n      dup2\n      dup2\n      mstore\n      0x20\n      add\n      dup3\n      dup1\n      sload\n      tag_77\n      swap1\n      tag_69\n      jump\t// in\n    tag_77:\n      dup1\n      iszero\n      tag_78\n      jumpi\n      dup1\n      0x1f\n      lt\n      tag_79\n      jumpi\n      0x0100\n      dup1\n      dup4\n      sload\n      div\n      mul\n      dup4\n      mstore\n      swap2\n      0x20\n      add\n      swap2\n      jump(tag_78)\n    tag_79:\n      dup3\n      add\n      swap2\n      swap1\n      0x00\n      mstore\n      keccak256(0x00, 0x20)\n      swap1\n    tag_80:\n      dup2\n      sload\n      dup2\n      mstore\n      swap1\n      0x01\n      add\n      swap1\n      0x20\n      add\n      dup1\n      dup4\n      gt\n      tag_80\n      jumpi\n      dup3\n      swap1\n      sub\n      0x1f\n      and\n      dup3\n      add\n      swap2\n    tag_78:\n      pop\n      pop\n      pop\n      pop\n      pop\n      swap1\n      dup1\n      0x01\n      add\n      sload\n      swap1\n      dup1\n      0x02\n      add\n      0x00\n      swap1\n      sload\n      swap1\n      0x0100\n      exp\n      swap1\n      div\n      0xffffffffffffffffffffffffffffffffffffffff\n      and\n      swap1\n      pop\n      dup4\n      jump\t// out\n    tag_50:\n      pop\n      dup1\n      sload\n      tag_81\n      swap1\n      tag_69\n      jump\t// in\n    tag_81:\n      0x00\n      dup3\n      sstore\n      dup1\n      0x1f\n      lt\n      tag_83\n      jumpi\n      pop\n      jump(tag_82)\n    tag_83:\n      0x1f\n      add\n      0x20\n      swap1\n      div\n      swap1\n      0x00\n      mstore\n      keccak256(0x00, 0x20)\n      swap1\n      dup2\n      add\n      swap1\n      tag_84\n      swap2\n      swap1\n      tag_85\n      jump\t// in\n    tag_84:\n    tag_82:\n      pop\n      jump\t// out\n    tag_54:\n      dup3\n      dup1\n      sload\n      tag_86\n      swap1\n      tag_69\n      jump\t// in\n    tag_86:\n      swap1\n      0x00\n      mstore\n      keccak256(0x00, 0x20)\n      swap1\n      0x1f\n      add\n      0x20\n      swap1\n      div\n      dup2\n      add\n      swap3\n      dup3\n      tag_88\n      jumpi\n      0x00\n      dup6\n      sstore\n      jump(tag_87)\n    tag_88:\n      dup3\n      0x1f\n      lt\n      tag_89\n      jumpi\n      dup1\n      mload\n      not(0xff)\n      and\n      dup4\n      dup1\n      add\n      or\n      dup6\n      sstore\n      jump(tag_87)\n    tag_89:\n      dup3\n      dup1\n      add\n      0x01\n      add\n      dup6\n      sstore\n      dup3\n      iszero\n      tag_87\n      jumpi\n      swap2\n      dup3\n      add\n    tag_90:\n      dup3\n      dup2\n      gt\n      iszero\n      tag_91\n      jumpi\n      dup3\n      mload\n      dup3\n      sstore\n      swap2\n      0x20\n      add\n      swap2\n      swap1\n      0x01\n      add\n      swap1\n      jump(tag_90)\n    tag_91:\n    tag_87:\n      pop\n      swap1\n      pop\n      tag_92\n      swap2\n      swap1\n      tag_85\n      jump\t// in\n    tag_92:\n      pop\n      swap1\n      jump\t// out\n    tag_58:\n      mload(0x40)\n      dup1\n      0x60\n      add\n      0x40\n      mstore\n      dup1\n      0x60\n      dup2\n      mstore\n      0x20\n      add\n      0x00\n      dup2\n      mstore\n      0x20\n      add\n      and(0xffffffffffffffffffffffffffffffffffffffff, 0x00)\n      dup2\n      mstore\n      pop\n      swap1\n      jump\t// out\n    tag_85:\n    tag_93:\n      dup1\n      dup3\n      gt\n      iszero\n      tag_94\n      jumpi\n      0x00\n      dup2\n      0x00\n      swap1\n      sstore\n      pop\n      0x01\n      add\n      jump(tag_93)\n    tag_94:\n      pop\n      swap1\n      jump\t// out\n        /* \"#utility.yul\":7:419   */\n    tag_96:\n        /* \"#utility.yul\":85:90   */\n      0x00\n        /* \"#utility.yul\":110:176   */\n      tag_98\n        /* \"#utility.yul\":126:175   */\n      tag_99\n        /* \"#utility.yul\":168:174   */\n      dup5\n        /* \"#utility.yul\":126:175   */\n      tag_100\n      jump\t// in\n    tag_99:\n        /* \"#utility.yul\":110:176   */\n      tag_101\n      jump\t// in\n    tag_98:\n        /* \"#utility.yul\":101:176   */\n      swap1\n      pop\n        /* \"#utility.yul\":199:205   */\n      dup3\n        /* \"#utility.yul\":192:197   */\n      dup2\n        /* \"#utility.yul\":185:206   */\n      mstore\n        /* \"#utility.yul\":237:241   */\n      0x20\n        /* \"#utility.yul\":230:235   */\n      dup2\n        /* \"#utility.yul\":226:242   */\n      add\n        /* \"#utility.yul\":275:278   */\n      dup5\n        /* \"#utility.yul\":266:272   */\n      dup5\n        /* \"#utility.yul\":261:264   */\n      dup5\n        /* \"#utility.yul\":257:273   */\n      add\n        /* \"#utility.yul\":254:279   */\n      gt\n        /* \"#utility.yul\":251:363   */\n      iszero\n      tag_102\n      jumpi\n        /* \"#utility.yul\":282:361   */\n      tag_103\n      tag_104\n      jump\t// in\n    tag_103:\n        /* \"#utility.yul\":251:363   */\n    tag_102:\n        /* \"#utility.yul\":372:413   */\n      tag_105\n        /* \"#utility.yul\":406:412   */\n      dup5\n        /* \"#utility.yul\":401:404   */\n      dup3\n        /* \"#utility.yul\":396:399   */\n      dup6\n        /* \"#utility.yul\":372:413   */\n      tag_106\n      jump\t// in\n    tag_105:\n        /* \"#utility.yul\":91:419   */\n      pop\n        /* \"#utility.yul\":7:419   */\n      swap4\n      swap3\n      pop\n      pop\n      pop\n      jump\t// out\n        /* \"#utility.yul\":425:564   */\n    tag_107:\n        /* \"#utility.yul\":471:476   */\n      0x00\n        /* \"#utility.yul\":509:515   */\n      dup2\n        /* \"#utility.yul\":496:516   */\n      calldataload\n        /* \"#utility.yul\":487:516   */\n      swap1\n      pop\n        /* \"#utility.yul\":525:558   */\n      tag_109\n        /* \"#utility.yul\":552:557   */\n      dup2\n        /* \"#utility.yul\":525:558   */\n      tag_110\n      jump\t// in\n    tag_109:\n        /* \"#utility.yul\":425:564   */\n      swap3\n      swap2\n      pop\n      pop\n      jump\t// out\n        /* \"#utility.yul\":584:924   */\n    tag_111:\n        /* \"#utility.yul\":640:645   */\n      0x00\n        /* \"#utility.yul\":689:692   */\n      dup3\n        /* \"#utility.yul\":682:686   */\n      0x1f\n        /* \"#utility.yul\":674:680   */\n      dup4\n        /* \"#utility.yul\":670:687   */\n      add\n        /* \"#utility.yul\":666:693   */\n      slt\n        /* \"#utility.yul\":656:778   */\n      tag_113\n      jumpi\n        /* \"#utility.yul\":697:776   */\n      tag_114\n      tag_115\n      jump\t// in\n    tag_114:\n        /* \"#utility.yul\":656:778   */\n    tag_113:\n        /* \"#utility.yul\":814:820   */\n      dup2\n        /* \"#utility.yul\":801:821   */\n      calldataload\n        /* \"#utility.yul\":839:918   */\n      tag_116\n        /* \"#utility.yul\":914:917   */\n      dup5\n        /* \"#utility.yul\":906:912   */\n      dup3\n        /* \"#utility.yul\":899:903   */\n      0x20\n        /* \"#utility.yul\":891:897   */\n      dup7\n        /* \"#utility.yul\":887:904   */\n      add\n        /* \"#utility.yul\":839:918   */\n      tag_96\n      jump\t// in\n    tag_116:\n        /* \"#utility.yul\":830:918   */\n      swap2\n      pop\n        /* \"#utility.yul\":646:924   */\n      pop\n        /* \"#utility.yul\":584:924   */\n      swap3\n      swap2\n      pop\n      pop\n      jump\t// out\n        /* \"#utility.yul\":930:1069   */\n    tag_117:\n        /* \"#utility.yul\":976:981   */\n      0x00\n        /* \"#utility.yul\":1014:1020   */\n      dup2\n        /* \"#utility.yul\":1001:1021   */\n      calldataload\n        /* \"#utility.yul\":992:1021   */\n      swap1\n      pop\n        /* \"#utility.yul\":1030:1063   */\n      tag_119\n        /* \"#utility.yul\":1057:1062   */\n      dup2\n        /* \"#utility.yul\":1030:1063   */\n      tag_120\n      jump\t// in\n    tag_119:\n        /* \"#utility.yul\":930:1069   */\n      swap3\n      swap2\n      pop\n      pop\n      jump\t// out\n        /* \"#utility.yul\":1075:1584   */\n    tag_10:\n        /* \"#utility.yul\":1144:1150   */\n      0x00\n        /* \"#utility.yul\":1193:1195   */\n      0x20\n        /* \"#utility.yul\":1181:1190   */\n      dup3\n        /* \"#utility.yul\":1172:1179   */\n      dup5\n        /* \"#utility.yul\":1168:1191   */\n      sub\n        /* \"#utility.yul\":1164:1196   */\n      slt\n        /* \"#utility.yul\":1161:1280   */\n      iszero\n      tag_122\n      jumpi\n        /* \"#utility.yul\":1199:1278   */\n      tag_123\n      tag_124\n      jump\t// in\n    tag_123:\n        /* \"#utility.yul\":1161:1280   */\n    tag_122:\n        /* \"#utility.yul\":1347:1348   */\n      0x00\n        /* \"#utility.yul\":1336:1345   */\n      dup3\n        /* \"#utility.yul\":1332:1349   */\n      add\n        /* \"#utility.yul\":1319:1350   */\n      calldataload\n        /* \"#utility.yul\":1377:1395   */\n      0xffffffffffffffff\n        /* \"#utility.yul\":1369:1375   */\n      dup2\n        /* \"#utility.yul\":1366:1396   */\n      gt\n        /* \"#utility.yul\":1363:1480   */\n      iszero\n      tag_125\n      jumpi\n        /* \"#utility.yul\":1399:1478   */\n      tag_126\n      tag_127\n      jump\t// in\n    tag_126:\n        /* \"#utility.yul\":1363:1480   */\n    tag_125:\n        /* \"#utility.yul\":1504:1567   */\n      tag_128\n        /* \"#utility.yul\":1559:1566   */\n      dup5\n        /* \"#utility.yul\":1550:1556   */\n      dup3\n        /* \"#utility.yul\":1539:1548   */\n      dup6\n        /* \"#utility.yul\":1535:1557   */\n      add\n        /* \"#utility.yul\":1504:1567   */\n      tag_111\n      jump\t// in\n    tag_128:\n        /* \"#utility.yul\":1494:1567   */\n      swap2\n      pop\n        /* \"#utility.yul\":1290:1577   */\n      pop\n        /* \"#utility.yul\":1075:1584   */\n      swap3\n      swap2\n      pop\n      pop\n      jump\t// out\n        /* \"#utility.yul\":1590:2244   */\n    tag_23:\n        /* \"#utility.yul\":1668:1674   */\n      0x00\n        /* \"#utility.yul\":1676:1682   */\n      dup1\n        /* \"#utility.yul\":1725:1727   */\n      0x40\n        /* \"#utility.yul\":1713:1722   */\n      dup4\n        /* \"#utility.yul\":1704:1711   */\n      dup6\n        /* \"#utility.yul\":1700:1723   */\n      sub\n        /* \"#utility.yul\":1696:1728   */\n      slt\n        /* \"#utility.yul\":1693:1812   */\n      iszero\n      tag_130\n      jumpi\n        /* \"#utility.yul\":1731:1810   */\n      tag_131\n      tag_124\n      jump\t// in\n    tag_131:\n        /* \"#utility.yul\":1693:1812   */\n    tag_130:\n        /* \"#utility.yul\":1879:1880   */\n      0x00\n        /* \"#utility.yul\":1868:1877   */\n      dup4\n        /* \"#utility.yul\":1864:1881   */\n      add\n        /* \"#utility.yul\":1851:1882   */\n      calldataload\n        /* \"#utility.yul\":1909:1927   */\n      0xffffffffffffffff\n        /* \"#utility.yul\":1901:1907   */\n      dup2\n        /* \"#utility.yul\":1898:1928   */\n      gt\n        /* \"#utility.yul\":1895:2012   */\n      iszero\n      tag_132\n      jumpi\n        /* \"#utility.yul\":1931:2010   */\n      tag_133\n      tag_127\n      jump\t// in\n    tag_133:\n        /* \"#utility.yul\":1895:2012   */\n    tag_132:\n        /* \"#utility.yul\":2036:2099   */\n      tag_134\n        /* \"#utility.yul\":2091:2098   */\n      dup6\n        /* \"#utility.yul\":2082:2088   */\n      dup3\n        /* \"#utility.yul\":2071:2080   */\n      dup7\n        /* \"#utility.yul\":2067:2089   */\n      add\n        /* \"#utility.yul\":2036:2099   */\n      tag_111\n      jump\t// in\n    tag_134:\n        /* \"#utility.yul\":2026:2099   */\n      swap3\n      pop\n        /* \"#utility.yul\":1822:2109   */\n      pop\n        /* \"#utility.yul\":2148:2150   */\n      0x20\n        /* \"#utility.yul\":2174:2227   */\n      tag_135\n        /* \"#utility.yul\":2219:2226   */\n      dup6\n        /* \"#utility.yul\":2210:2216   */\n      dup3\n        /* \"#utility.yul\":2199:2208   */\n      dup7\n        /* \"#utility.yul\":2195:2217   */\n      add\n        /* \"#utility.yul\":2174:2227   */\n      tag_117\n      jump\t// in\n    tag_135:\n        /* \"#utility.yul\":2164:2227   */\n      swap2\n      pop\n        /* \"#utility.yul\":2119:2237   */\n      pop\n        /* \"#utility.yul\":1590:2244   */\n      swap3\n      pop\n      swap3\n      swap1\n      pop\n      jump\t// out\n        /* \"#utility.yul\":2250:3049   */\n    tag_19:\n        /* \"#utility.yul\":2337:2343   */\n      0x00\n        /* \"#utility.yul\":2345:2351   */\n      dup1\n        /* \"#utility.yul\":2353:2359   */\n      0x00\n        /* \"#utility.yul\":2402:2404   */\n      0x60\n        /* \"#utility.yul\":2390:2399   */\n      dup5\n        /* \"#utility.yul\":2381:2388   */\n      dup7\n        /* \"#utility.yul\":2377:2400   */\n      sub\n        /* \"#utility.yul\":2373:2405   */\n      slt\n        /* \"#utility.yul\":2370:2489   */\n      iszero\n      tag_137\n      jumpi\n        /* \"#utility.yul\":2408:2487   */\n      tag_138\n      tag_124\n      jump\t// in\n    tag_138:\n        /* \"#utility.yul\":2370:2489   */\n    tag_137:\n        /* \"#utility.yul\":2556:2557   */\n      0x00\n        /* \"#utility.yul\":2545:2554   */\n      dup5\n        /* \"#utility.yul\":2541:2558   */\n      add\n        /* \"#utility.yul\":2528:2559   */\n      calldataload\n        /* \"#utility.yul\":2586:2604   */\n      0xffffffffffffffff\n        /* \"#utility.yul\":2578:2584   */\n      dup2\n        /* \"#utility.yul\":2575:2605   */\n      gt\n        /* \"#utility.yul\":2572:2689   */\n      iszero\n      tag_139\n      jumpi\n        /* \"#utility.yul\":2608:2687   */\n      tag_140\n      tag_127\n      jump\t// in\n    tag_140:\n        /* \"#utility.yul\":2572:2689   */\n    tag_139:\n        /* \"#utility.yul\":2713:2776   */\n      tag_141\n        /* \"#utility.yul\":2768:2775   */\n      dup7\n        /* \"#utility.yul\":2759:2765   */\n      dup3\n        /* \"#utility.yul\":2748:2757   */\n      dup8\n        /* \"#utility.yul\":2744:2766   */\n      add\n        /* \"#utility.yul\":2713:2776   */\n      tag_111\n      jump\t// in\n    tag_141:\n        /* \"#utility.yul\":2703:2776   */\n      swap4\n      pop\n        /* \"#utility.yul\":2499:2786   */\n      pop\n        /* \"#utility.yul\":2825:2827   */\n      0x20\n        /* \"#utility.yul\":2851:2904   */\n      tag_142\n        /* \"#utility.yul\":2896:2903   */\n      dup7\n        /* \"#utility.yul\":2887:2893   */\n      dup3\n        /* \"#utility.yul\":2876:2885   */\n      dup8\n        /* \"#utility.yul\":2872:2894   */\n      add\n        /* \"#utility.yul\":2851:2904   */\n      tag_117\n      jump\t// in\n    tag_142:\n        /* \"#utility.yul\":2841:2904   */\n      swap3\n      pop\n        /* \"#utility.yul\":2796:2914   */\n      pop\n        /* \"#utility.yul\":2953:2955   */\n      0x40\n        /* \"#utility.yul\":2979:3032   */\n      tag_143\n        /* \"#utility.yul\":3024:3031   */\n      dup7\n        /* \"#utility.yul\":3015:3021   */\n      dup3\n        /* \"#utility.yul\":3004:3013   */\n      dup8\n        /* \"#utility.yul\":3000:3022   */\n      add\n        /* \"#utility.yul\":2979:3032   */\n      tag_107\n      jump\t// in\n    tag_143:\n        /* \"#utility.yul\":2969:3032   */\n      swap2\n      pop\n        /* \"#utility.yul\":2924:3042   */\n      pop\n        /* \"#utility.yul\":2250:3049   */\n      swap3\n      pop\n      swap3\n      pop\n      swap3\n      jump\t// out\n        /* \"#utility.yul\":3055:3384   */\n    tag_29:\n        /* \"#utility.yul\":3114:3120   */\n      0x00\n        /* \"#utility.yul\":3163:3165   */\n      0x20\n        /* \"#utility.yul\":3151:3160   */\n      dup3\n        /* \"#utility.yul\":3142:3149   */\n      dup5\n        /* \"#utility.yul\":3138:3161   */\n      sub\n        /* \"#utility.yul\":3134:3166   */\n      slt\n        /* \"#utility.yul\":3131:3250   */\n      iszero\n      tag_145\n      jumpi\n        /* \"#utility.yul\":3169:3248   */\n      tag_146\n      tag_124\n      jump\t// in\n    tag_146:\n        /* \"#utility.yul\":3131:3250   */\n    tag_145:\n        /* \"#utility.yul\":3289:3290   */\n      0x00\n        /* \"#utility.yul\":3314:3367   */\n      tag_147\n        /* \"#utility.yul\":3359:3366   */\n      dup5\n        /* \"#utility.yul\":3350:3356   */\n      dup3\n        /* \"#utility.yul\":3339:3348   */\n      dup6\n        /* \"#utility.yul\":3335:3357   */\n      add\n        /* \"#utility.yul\":3314:3367   */\n      tag_117\n      jump\t// in\n    tag_147:\n        /* \"#utility.yul\":3304:3367   */\n      swap2\n      pop\n        /* \"#utility.yul\":3260:3377   */\n      pop\n        /* \"#utility.yul\":3055:3384   */\n      swap3\n      swap2\n      pop\n      pop\n      jump\t// out\n        /* \"#utility.yul\":3390:3498   */\n    tag_148:\n        /* \"#utility.yul\":3467:3491   */\n      tag_150\n        /* \"#utility.yul\":3485:3490   */\n      dup2\n        /* \"#utility.yul\":3467:3491   */\n      tag_151\n      jump\t// in\n    tag_150:\n        /* \"#utility.yul\":3462:3465   */\n      dup3\n        /* \"#utility.yul\":3455:3492   */\n      mstore\n        /* \"#utility.yul\":3390:3498   */\n      pop\n      pop\n      jump\t// out\n        /* \"#utility.yul\":3504:3622   */\n    tag_152:\n        /* \"#utility.yul\":3591:3615   */\n      tag_154\n        /* \"#utility.yul\":3609:3614   */\n      dup2\n        /* \"#utility.yul\":3591:3615   */\n      tag_151\n      jump\t// in\n    tag_154:\n        /* \"#utility.yul\":3586:3589   */\n      dup3\n        /* \"#utility.yul\":3579:3616   */\n      mstore\n        /* \"#utility.yul\":3504:3622   */\n      pop\n      pop\n      jump\t// out\n        /* \"#utility.yul\":3628:3972   */\n    tag_155:\n        /* \"#utility.yul\":3706:3709   */\n      0x00\n        /* \"#utility.yul\":3734:3773   */\n      tag_157\n        /* \"#utility.yul\":3767:3772   */\n      dup3\n        /* \"#utility.yul\":3734:3773   */\n      tag_158\n      jump\t// in\n    tag_157:\n        /* \"#utility.yul\":3789:3850   */\n      tag_159\n        /* \"#utility.yul\":3843:3849   */\n      dup2\n        /* \"#utility.yul\":3838:3841   */\n      dup6\n        /* \"#utility.yul\":3789:3850   */\n      tag_160\n      jump\t// in\n    tag_159:\n        /* \"#utility.yul\":3782:3850   */\n      swap4\n      pop\n        /* \"#utility.yul\":3859:3911   */\n      tag_161\n        /* \"#utility.yul\":3904:3910   */\n      dup2\n        /* \"#utility.yul\":3899:3902   */\n      dup6\n        /* \"#utility.yul\":3892:3896   */\n      0x20\n        /* \"#utility.yul\":3885:3890   */\n      dup7\n        /* \"#utility.yul\":3881:3897   */\n      add\n        /* \"#utility.yul\":3859:3911   */\n      tag_162\n      jump\t// in\n    tag_161:\n        /* \"#utility.yul\":3936:3965   */\n      tag_163\n        /* \"#utility.yul\":3958:3964   */\n      dup2\n        /* \"#utility.yul\":3936:3965   */\n      tag_164\n      jump\t// in\n    tag_163:\n        /* \"#utility.yul\":3931:3934   */\n      dup5\n        /* \"#utility.yul\":3927:3966   */\n      add\n        /* \"#utility.yul\":3920:3966   */\n      swap2\n      pop\n        /* \"#utility.yul\":3710:3972   */\n      pop\n        /* \"#utility.yul\":3628:3972   */\n      swap3\n      swap2\n      pop\n      pop\n      jump\t// out\n        /* \"#utility.yul\":3978:4342   */\n    tag_165:\n        /* \"#utility.yul\":4066:4069   */\n      0x00\n        /* \"#utility.yul\":4094:4133   */\n      tag_167\n        /* \"#utility.yul\":4127:4132   */\n      dup3\n        /* \"#utility.yul\":4094:4133   */\n      tag_158\n      jump\t// in\n    tag_167:\n        /* \"#utility.yul\":4149:4220   */\n      tag_168\n        /* \"#utility.yul\":4213:4219   */\n      dup2\n        /* \"#utility.yul\":4208:4211   */\n      dup6\n        /* \"#utility.yul\":4149:4220   */\n      tag_169\n      jump\t// in\n    tag_168:\n        /* \"#utility.yul\":4142:4220   */\n      swap4\n      pop\n        /* \"#utility.yul\":4229:4281   */\n      tag_170\n        /* \"#utility.yul\":4274:4280   */\n      dup2\n        /* \"#utility.yul\":4269:4272   */\n      dup6\n        /* \"#utility.yul\":4262:4266   */\n      0x20\n        /* \"#utility.yul\":4255:4260   */\n      dup7\n        /* \"#utility.yul\":4251:4267   */\n      add\n        /* \"#utility.yul\":4229:4281   */\n      tag_162\n      jump\t// in\n    tag_170:\n        /* \"#utility.yul\":4306:4335   */\n      tag_171\n        /* \"#utility.yul\":4328:4334   */\n      dup2\n        /* \"#utility.yul\":4306:4335   */\n      tag_164\n      jump\t// in\n    tag_171:\n        /* \"#utility.yul\":4301:4304   */\n      dup5\n        /* \"#utility.yul\":4297:4336   */\n      add\n        /* \"#utility.yul\":4290:4336   */\n      swap2\n      pop\n        /* \"#utility.yul\":4070:4342   */\n      pop\n        /* \"#utility.yul\":3978:4342   */\n      swap3\n      swap2\n      pop\n      pop\n      jump\t// out\n        /* \"#utility.yul\":4348:4725   */\n    tag_172:\n        /* \"#utility.yul\":4454:4457   */\n      0x00\n        /* \"#utility.yul\":4482:4521   */\n      tag_174\n        /* \"#utility.yul\":4515:4520   */\n      dup3\n        /* \"#utility.yul\":4482:4521   */\n      tag_158\n      jump\t// in\n    tag_174:\n        /* \"#utility.yul\":4537:4626   */\n      tag_175\n        /* \"#utility.yul\":4619:4625   */\n      dup2\n        /* \"#utility.yul\":4614:4617   */\n      dup6\n        /* \"#utility.yul\":4537:4626   */\n      tag_176\n      jump\t// in\n    tag_175:\n        /* \"#utility.yul\":4530:4626   */\n      swap4\n      pop\n        /* \"#utility.yul\":4635:4687   */\n      tag_177\n        /* \"#utility.yul\":4680:4686   */\n      dup2\n        /* \"#utility.yul\":4675:4678   */\n      dup6\n        /* \"#utility.yul\":4668:4672   */\n      0x20\n        /* \"#utility.yul\":4661:4666   */\n      dup7\n        /* \"#utility.yul\":4657:4673   */\n      add\n        /* \"#utility.yul\":4635:4687   */\n      tag_162\n      jump\t// in\n    tag_177:\n        /* \"#utility.yul\":4712:4718   */\n      dup1\n        /* \"#utility.yul\":4707:4710   */\n      dup5\n        /* \"#utility.yul\":4703:4719   */\n      add\n        /* \"#utility.yul\":4696:4719   */\n      swap2\n      pop\n        /* \"#utility.yul\":4458:4725   */\n      pop\n        /* \"#utility.yul\":4348:4725   */\n      swap3\n      swap2\n      pop\n      pop\n      jump\t// out\n        /* \"#utility.yul\":4797:5572   */\n    tag_178:\n        /* \"#utility.yul\":4910:4913   */\n      0x00\n        /* \"#utility.yul\":4946:4950   */\n      0x60\n        /* \"#utility.yul\":4941:4944   */\n      dup4\n        /* \"#utility.yul\":4937:4951   */\n      add\n        /* \"#utility.yul\":5033:5037   */\n      0x00\n        /* \"#utility.yul\":5026:5031   */\n      dup4\n        /* \"#utility.yul\":5022:5038   */\n      add\n        /* \"#utility.yul\":5016:5039   */\n      mload\n        /* \"#utility.yul\":5086:5089   */\n      dup5\n        /* \"#utility.yul\":5080:5084   */\n      dup3\n        /* \"#utility.yul\":5076:5090   */\n      sub\n        /* \"#utility.yul\":5069:5073   */\n      0x00\n        /* \"#utility.yul\":5064:5067   */\n      dup7\n        /* \"#utility.yul\":5060:5074   */\n      add\n        /* \"#utility.yul\":5053:5091   */\n      mstore\n        /* \"#utility.yul\":5112:5185   */\n      tag_180\n        /* \"#utility.yul\":5180:5184   */\n      dup3\n        /* \"#utility.yul\":5166:5178   */\n      dup3\n        /* \"#utility.yul\":5112:5185   */\n      tag_155\n      jump\t// in\n    tag_180:\n        /* \"#utility.yul\":5104:5185   */\n      swap2\n      pop\n        /* \"#utility.yul\":4961:5196   */\n      pop\n        /* \"#utility.yul\":5278:5282   */\n      0x20\n        /* \"#utility.yul\":5271:5276   */\n      dup4\n        /* \"#utility.yul\":5267:5283   */\n      add\n        /* \"#utility.yul\":5261:5284   */\n      mload\n        /* \"#utility.yul\":5297:5360   */\n      tag_181\n        /* \"#utility.yul\":5354:5358   */\n      0x20\n        /* \"#utility.yul\":5349:5352   */\n      dup7\n        /* \"#utility.yul\":5345:5359   */\n      add\n        /* \"#utility.yul\":5331:5343   */\n      dup3\n        /* \"#utility.yul\":5297:5360   */\n      tag_182\n      jump\t// in\n    tag_181:\n        /* \"#utility.yul\":5206:5370   */\n      pop\n        /* \"#utility.yul\":5453:5457   */\n      0x40\n        /* \"#utility.yul\":5446:5451   */\n      dup4\n        /* \"#utility.yul\":5442:5458   */\n      add\n        /* \"#utility.yul\":5436:5459   */\n      mload\n        /* \"#utility.yul\":5472:5535   */\n      tag_183\n        /* \"#utility.yul\":5529:5533   */\n      0x40\n        /* \"#utility.yul\":5524:5527   */\n      dup7\n        /* \"#utility.yul\":5520:5534   */\n      add\n        /* \"#utility.yul\":5506:5518   */\n      dup3\n        /* \"#utility.yul\":5472:5535   */\n      tag_148\n      jump\t// in\n    tag_183:\n        /* \"#utility.yul\":5380:5545   */\n      pop\n        /* \"#utility.yul\":5562:5566   */\n      dup1\n        /* \"#utility.yul\":5555:5566   */\n      swap2\n      pop\n        /* \"#utility.yul\":4915:5572   */\n      pop\n        /* \"#utility.yul\":4797:5572   */\n      swap3\n      swap2\n      pop\n      pop\n      jump\t// out\n        /* \"#utility.yul\":5578:5686   */\n    tag_182:\n        /* \"#utility.yul\":5655:5679   */\n      tag_185\n        /* \"#utility.yul\":5673:5678   */\n      dup2\n        /* \"#utility.yul\":5655:5679   */\n      tag_186\n      jump\t// in\n    tag_185:\n        /* \"#utility.yul\":5650:5653   */\n      dup3\n        /* \"#utility.yul\":5643:5680   */\n      mstore\n        /* \"#utility.yul\":5578:5686   */\n      pop\n      pop\n      jump\t// out\n        /* \"#utility.yul\":5692:5810   */\n    tag_187:\n        /* \"#utility.yul\":5779:5803   */\n      tag_189\n        /* \"#utility.yul\":5797:5802   */\n      dup2\n        /* \"#utility.yul\":5779:5803   */\n      tag_186\n      jump\t// in\n    tag_189:\n        /* \"#utility.yul\":5774:5777   */\n      dup3\n        /* \"#utility.yul\":5767:5804   */\n      mstore\n        /* \"#utility.yul\":5692:5810   */\n      pop\n      pop\n      jump\t// out\n        /* \"#utility.yul\":5816:6091   */\n    tag_35:\n        /* \"#utility.yul\":5948:5951   */\n      0x00\n        /* \"#utility.yul\":5970:6065   */\n      tag_191\n        /* \"#utility.yul\":6061:6064   */\n      dup3\n        /* \"#utility.yul\":6052:6058   */\n      dup5\n        /* \"#utility.yul\":5970:6065   */\n      tag_172\n      jump\t// in\n    tag_191:\n        /* \"#utility.yul\":5963:6065   */\n      swap2\n      pop\n        /* \"#utility.yul\":6082:6085   */\n      dup2\n        /* \"#utility.yul\":6075:6085   */\n      swap1\n      pop\n        /* \"#utility.yul\":5816:6091   */\n      swap3\n      swap2\n      pop\n      pop\n      jump\t// out\n        /* \"#utility.yul\":6097:6630   */\n    tag_32:\n        /* \"#utility.yul\":6266:6270   */\n      0x00\n        /* \"#utility.yul\":6304:6306   */\n      0x60\n        /* \"#utility.yul\":6293:6302   */\n      dup3\n        /* \"#utility.yul\":6289:6307   */\n      add\n        /* \"#utility.yul\":6281:6307   */\n      swap1\n      pop\n        /* \"#utility.yul\":6353:6362   */\n      dup2\n        /* \"#utility.yul\":6347:6351   */\n      dup2\n        /* \"#utility.yul\":6343:6363   */\n      sub\n        /* \"#utility.yul\":6339:6340   */\n      0x00\n        /* \"#utility.yul\":6328:6337   */\n      dup4\n        /* \"#utility.yul\":6324:6341   */\n      add\n        /* \"#utility.yul\":6317:6364   */\n      mstore\n        /* \"#utility.yul\":6381:6459   */\n      tag_193\n        /* \"#utility.yul\":6454:6458   */\n      dup2\n        /* \"#utility.yul\":6445:6451   */\n      dup7\n        /* \"#utility.yul\":6381:6459   */\n      tag_165\n      jump\t// in\n    tag_193:\n        /* \"#utility.yul\":6373:6459   */\n      swap1\n      pop\n        /* \"#utility.yul\":6469:6541   */\n      tag_194\n        /* \"#utility.yul\":6537:6539   */\n      0x20\n        /* \"#utility.yul\":6526:6535   */\n      dup4\n        /* \"#utility.yul\":6522:6540   */\n      add\n        /* \"#utility.yul\":6513:6519   */\n      dup6\n        /* \"#utility.yul\":6469:6541   */\n      tag_187\n      jump\t// in\n    tag_194:\n        /* \"#utility.yul\":6551:6623   */\n      tag_195\n        /* \"#utility.yul\":6619:6621   */\n      0x40\n        /* \"#utility.yul\":6608:6617   */\n      dup4\n        /* \"#utility.yul\":6604:6622   */\n      add\n        /* \"#utility.yul\":6595:6601   */\n      dup5\n        /* \"#utility.yul\":6551:6623   */\n      tag_152\n      jump\t// in\n    tag_195:\n        /* \"#utility.yul\":6097:6630   */\n      swap5\n      swap4\n      pop\n      pop\n      pop\n      pop\n      jump\t// out\n        /* \"#utility.yul\":6636:6997   */\n    tag_26:\n        /* \"#utility.yul\":6773:6777   */\n      0x00\n        /* \"#utility.yul\":6811:6813   */\n      0x20\n        /* \"#utility.yul\":6800:6809   */\n      dup3\n        /* \"#utility.yul\":6796:6814   */\n      add\n        /* \"#utility.yul\":6788:6814   */\n      swap1\n      pop\n        /* \"#utility.yul\":6860:6869   */\n      dup2\n        /* \"#utility.yul\":6854:6858   */\n      dup2\n        /* \"#utility.yul\":6850:6870   */\n      sub\n        /* \"#utility.yul\":6846:6847   */\n      0x00\n        /* \"#utility.yul\":6835:6844   */\n      dup4\n        /* \"#utility.yul\":6831:6848   */\n      add\n        /* \"#utility.yul\":6824:6871   */\n      mstore\n        /* \"#utility.yul\":6888:6990   */\n      tag_197\n        /* \"#utility.yul\":6985:6989   */\n      dup2\n        /* \"#utility.yul\":6976:6982   */\n      dup5\n        /* \"#utility.yul\":6888:6990   */\n      tag_178\n      jump\t// in\n    tag_197:\n        /* \"#utility.yul\":6880:6990   */\n      swap1\n      pop\n        /* \"#utility.yul\":6636:6997   */\n      swap3\n      swap2\n      pop\n      pop\n      jump\t// out\n        /* \"#utility.yul\":7003:7225   */\n    tag_13:\n        /* \"#utility.yul\":7096:7100   */\n      0x00\n        /* \"#utility.yul\":7134:7136   */\n      0x20\n        /* \"#utility.yul\":7123:7132   */\n      dup3\n        /* \"#utility.yul\":7119:7137   */\n      add\n        /* \"#utility.yul\":7111:7137   */\n      swap1\n      pop\n        /* \"#utility.yul\":7147:7218   */\n      tag_199\n        /* \"#utility.yul\":7215:7216   */\n      0x00\n        /* \"#utility.yul\":7204:7213   */\n      dup4\n        /* \"#utility.yul\":7200:7217   */\n      add\n        /* \"#utility.yul\":7191:7197   */\n      dup5\n        /* \"#utility.yul\":7147:7218   */\n      tag_187\n      jump\t// in\n    tag_199:\n        /* \"#utility.yul\":7003:7225   */\n      swap3\n      swap2\n      pop\n      pop\n      jump\t// out\n        /* \"#utility.yul\":7231:7360   */\n    tag_101:\n        /* \"#utility.yul\":7265:7271   */\n      0x00\n        /* \"#utility.yul\":7292:7312   */\n      tag_201\n      tag_202\n      jump\t// in\n    tag_201:\n        /* \"#utility.yul\":7282:7312   */\n      swap1\n      pop\n        /* \"#utility.yul\":7321:7354   */\n      tag_203\n        /* \"#utility.yul\":7349:7353   */\n      dup3\n        /* \"#utility.yul\":7341:7347   */\n      dup3\n        /* \"#utility.yul\":7321:7354   */\n      tag_204\n      jump\t// in\n    tag_203:\n        /* \"#utility.yul\":7231:7360   */\n      swap2\n      swap1\n      pop\n      jump\t// out\n        /* \"#utility.yul\":7366:7441   */\n    tag_202:\n        /* \"#utility.yul\":7399:7405   */\n      0x00\n        /* \"#utility.yul\":7432:7434   */\n      0x40\n        /* \"#utility.yul\":7426:7435   */\n      mload\n        /* \"#utility.yul\":7416:7435   */\n      swap1\n      pop\n        /* \"#utility.yul\":7366:7441   */\n      swap1\n      jump\t// out\n        /* \"#utility.yul\":7447:7755   */\n    tag_100:\n        /* \"#utility.yul\":7509:7513   */\n      0x00\n        /* \"#utility.yul\":7599:7617   */\n      0xffffffffffffffff\n        /* \"#utility.yul\":7591:7597   */\n      dup3\n        /* \"#utility.yul\":7588:7618   */\n      gt\n        /* \"#utility.yul\":7585:7641   */\n      iszero\n      tag_207\n      jumpi\n        /* \"#utility.yul\":7621:7639   */\n      tag_208\n      tag_209\n      jump\t// in\n    tag_208:\n        /* \"#utility.yul\":7585:7641   */\n    tag_207:\n        /* \"#utility.yul\":7659:7688   */\n      tag_210\n        /* \"#utility.yul\":7681:7687   */\n      dup3\n        /* \"#utility.yul\":7659:7688   */\n      tag_164\n      jump\t// in\n    tag_210:\n        /* \"#utility.yul\":7651:7688   */\n      swap1\n      pop\n        /* \"#utility.yul\":7743:7747   */\n      0x20\n        /* \"#utility.yul\":7737:7741   */\n      dup2\n        /* \"#utility.yul\":7733:7748   */\n      add\n        /* \"#utility.yul\":7725:7748   */\n      swap1\n      pop\n        /* \"#utility.yul\":7447:7755   */\n      swap2\n      swap1\n      pop\n      jump\t// out\n        /* \"#utility.yul\":7761:7860   */\n    tag_158:\n        /* \"#utility.yul\":7813:7819   */\n      0x00\n        /* \"#utility.yul\":7847:7852   */\n      dup2\n        /* \"#utility.yul\":7841:7853   */\n      mload\n        /* \"#utility.yul\":7831:7853   */\n      swap1\n      pop\n        /* \"#utility.yul\":7761:7860   */\n      swap2\n      swap1\n      pop\n      jump\t// out\n        /* \"#utility.yul\":7866:8025   */\n    tag_160:\n        /* \"#utility.yul\":7940:7951   */\n      0x00\n        /* \"#utility.yul\":7974:7980   */\n      dup3\n        /* \"#utility.yul\":7969:7972   */\n      dup3\n        /* \"#utility.yul\":7962:7981   */\n      mstore\n        /* \"#utility.yul\":8014:8018   */\n      0x20\n        /* \"#utility.yul\":8009:8012   */\n      dup3\n        /* \"#utility.yul\":8005:8019   */\n      add\n        /* \"#utility.yul\":7990:8019   */\n      swap1\n      pop\n        /* \"#utility.yul\":7866:8025   */\n      swap3\n      swap2\n      pop\n      pop\n      jump\t// out\n        /* \"#utility.yul\":8031:8200   */\n    tag_169:\n        /* \"#utility.yul\":8115:8126   */\n      0x00\n        /* \"#utility.yul\":8149:8155   */\n      dup3\n        /* \"#utility.yul\":8144:8147   */\n      dup3\n        /* \"#utility.yul\":8137:8156   */\n      mstore\n        /* \"#utility.yul\":8189:8193   */\n      0x20\n        /* \"#utility.yul\":8184:8187   */\n      dup3\n        /* \"#utility.yul\":8180:8194   */\n      add\n        /* \"#utility.yul\":8165:8194   */\n      swap1\n      pop\n        /* \"#utility.yul\":8031:8200   */\n      swap3\n      swap2\n      pop\n      pop\n      jump\t// out\n        /* \"#utility.yul\":8206:8354   */\n    tag_176:\n        /* \"#utility.yul\":8308:8319   */\n      0x00\n        /* \"#utility.yul\":8345:8348   */\n      dup2\n        /* \"#utility.yul\":8330:8348   */\n      swap1\n      pop\n        /* \"#utility.yul\":8206:8354   */\n      swap3\n      swap2\n      pop\n      pop\n      jump\t// out\n        /* \"#utility.yul\":8360:8551   */\n    tag_41:\n        /* \"#utility.yul\":8400:8404   */\n      0x00\n        /* \"#utility.yul\":8420:8440   */\n      tag_216\n        /* \"#utility.yul\":8438:8439   */\n      dup3\n        /* \"#utility.yul\":8420:8440   */\n      tag_186\n      jump\t// in\n    tag_216:\n        /* \"#utility.yul\":8415:8440   */\n      swap2\n      pop\n        /* \"#utility.yul\":8454:8474   */\n      tag_217\n        /* \"#utility.yul\":8472:8473   */\n      dup4\n        /* \"#utility.yul\":8454:8474   */\n      tag_186\n      jump\t// in\n    tag_217:\n        /* \"#utility.yul\":8449:8474   */\n      swap3\n      pop\n        /* \"#utility.yul\":8493:8494   */\n      dup3\n        /* \"#utility.yul\":8490:8491   */\n      dup3\n        /* \"#utility.yul\":8487:8495   */\n      lt\n        /* \"#utility.yul\":8484:8518   */\n      iszero\n      tag_218\n      jumpi\n        /* \"#utility.yul\":8498:8516   */\n      tag_219\n      tag_220\n      jump\t// in\n    tag_219:\n        /* \"#utility.yul\":8484:8518   */\n    tag_218:\n        /* \"#utility.yul\":8543:8544   */\n      dup3\n        /* \"#utility.yul\":8540:8541   */\n      dup3\n        /* \"#utility.yul\":8536:8545   */\n      sub\n        /* \"#utility.yul\":8528:8545   */\n      swap1\n      pop\n        /* \"#utility.yul\":8360:8551   */\n      swap3\n      swap2\n      pop\n      pop\n      jump\t// out\n        /* \"#utility.yul\":8557:8653   */\n    tag_151:\n        /* \"#utility.yul\":8594:8601   */\n      0x00\n        /* \"#utility.yul\":8623:8647   */\n      tag_222\n        /* \"#utility.yul\":8641:8646   */\n      dup3\n        /* \"#utility.yul\":8623:8647   */\n      tag_223\n      jump\t// in\n    tag_222:\n        /* \"#utility.yul\":8612:8647   */\n      swap1\n      pop\n        /* \"#utility.yul\":8557:8653   */\n      swap2\n      swap1\n      pop\n      jump\t// out\n        /* \"#utility.yul\":8659:8785   */\n    tag_223:\n        /* \"#utility.yul\":8696:8703   */\n      0x00\n        /* \"#utility.yul\":8736:8778   */\n      0xffffffffffffffffffffffffffffffffffffffff\n        /* \"#utility.yul\":8729:8734   */\n      dup3\n        /* \"#utility.yul\":8725:8779   */\n      and\n        /* \"#utility.yul\":8714:8779   */\n      swap1\n      pop\n        /* \"#utility.yul\":8659:8785   */\n      swap2\n      swap1\n      pop\n      jump\t// out\n        /* \"#utility.yul\":8791:8868   */\n    tag_186:\n        /* \"#utility.yul\":8828:8835   */\n      0x00\n        /* \"#utility.yul\":8857:8862   */\n      dup2\n        /* \"#utility.yul\":8846:8862   */\n      swap1\n      pop\n        /* \"#utility.yul\":8791:8868   */\n      swap2\n      swap1\n      pop\n      jump\t// out\n        /* \"#utility.yul\":8874:9028   */\n    tag_106:\n        /* \"#utility.yul\":8958:8964   */\n      dup3\n        /* \"#utility.yul\":8953:8956   */\n      dup2\n        /* \"#utility.yul\":8948:8951   */\n      dup4\n        /* \"#utility.yul\":8935:8965   */\n      calldatacopy\n        /* \"#utility.yul\":9020:9021   */\n      0x00\n        /* \"#utility.yul\":9011:9017   */\n      dup4\n        /* \"#utility.yul\":9006:9009   */\n      dup4\n        /* \"#utility.yul\":9002:9018   */\n      add\n        /* \"#utility.yul\":8995:9022   */\n      mstore\n        /* \"#utility.yul\":8874:9028   */\n      pop\n      pop\n      pop\n      jump\t// out\n        /* \"#utility.yul\":9034:9341   */\n    tag_162:\n        /* \"#utility.yul\":9102:9103   */\n      0x00\n        /* \"#utility.yul\":9112:9225   */\n    tag_228:\n        /* \"#utility.yul\":9126:9132   */\n      dup4\n        /* \"#utility.yul\":9123:9124   */\n      dup2\n        /* \"#utility.yul\":9120:9133   */\n      lt\n        /* \"#utility.yul\":9112:9225   */\n      iszero\n      tag_230\n      jumpi\n        /* \"#utility.yul\":9211:9212   */\n      dup1\n        /* \"#utility.yul\":9206:9209   */\n      dup3\n        /* \"#utility.yul\":9202:9213   */\n      add\n        /* \"#utility.yul\":9196:9214   */\n      mload\n        /* \"#utility.yul\":9192:9193   */\n      dup2\n        /* \"#utility.yul\":9187:9190   */\n      dup5\n        /* \"#utility.yul\":9183:9194   */\n      add\n        /* \"#utility.yul\":9176:9215   */\n      mstore\n        /* \"#utility.yul\":9148:9150   */\n      0x20\n        /* \"#utility.yul\":9145:9146   */\n      dup2\n        /* \"#utility.yul\":9141:9151   */\n      add\n        /* \"#utility.yul\":9136:9151   */\n      swap1\n      pop\n        /* \"#utility.yul\":9112:9225   */\n      jump(tag_228)\n    tag_230:\n        /* \"#utility.yul\":9243:9249   */\n      dup4\n        /* \"#utility.yul\":9240:9241   */\n      dup2\n        /* \"#utility.yul\":9237:9250   */\n      gt\n        /* \"#utility.yul\":9234:9335   */\n      iszero\n      tag_231\n      jumpi\n        /* \"#utility.yul\":9323:9324   */\n      0x00\n        /* \"#utility.yul\":9314:9320   */\n      dup5\n        /* \"#utility.yul\":9309:9312   */\n      dup5\n        /* \"#utility.yul\":9305:9321   */\n      add\n        /* \"#utility.yul\":9298:9325   */\n      mstore\n        /* \"#utility.yul\":9234:9335   */\n    tag_231:\n        /* \"#utility.yul\":9083:9341   */\n      pop\n        /* \"#utility.yul\":9034:9341   */\n      pop\n      pop\n      pop\n      jump\t// out\n        /* \"#utility.yul\":9347:9667   */\n    tag_69:\n        /* \"#utility.yul\":9391:9397   */\n      0x00\n        /* \"#utility.yul\":9428:9429   */\n      0x02\n        /* \"#utility.yul\":9422:9426   */\n      dup3\n        /* \"#utility.yul\":9418:9430   */\n      div\n        /* \"#utility.yul\":9408:9430   */\n      swap1\n      pop\n        /* \"#utility.yul\":9475:9476   */\n      0x01\n        /* \"#utility.yul\":9469:9473   */\n      dup3\n        /* \"#utility.yul\":9465:9477   */\n      and\n        /* \"#utility.yul\":9496:9514   */\n      dup1\n        /* \"#utility.yul\":9486:9567   */\n      tag_233\n      jumpi\n        /* \"#utility.yul\":9552:9556   */\n      0x7f\n        /* \"#utility.yul\":9544:9550   */\n      dup3\n        /* \"#utility.yul\":9540:9557   */\n      and\n        /* \"#utility.yul\":9530:9557   */\n      swap2\n      pop\n        /* \"#utility.yul\":9486:9567   */\n    tag_233:\n        /* \"#utility.yul\":9614:9616   */\n      0x20\n        /* \"#utility.yul\":9606:9612   */\n      dup3\n        /* \"#utility.yul\":9603:9617   */\n      lt\n        /* \"#utility.yul\":9583:9601   */\n      dup2\n        /* \"#utility.yul\":9580:9618   */\n      eq\n        /* \"#utility.yul\":9577:9661   */\n      iszero\n      tag_234\n      jumpi\n        /* \"#utility.yul\":9633:9651   */\n      tag_235\n      tag_236\n      jump\t// in\n    tag_235:\n        /* \"#utility.yul\":9577:9661   */\n    tag_234:\n        /* \"#utility.yul\":9398:9667   */\n      pop\n        /* \"#utility.yul\":9347:9667   */\n      swap2\n      swap1\n      pop\n      jump\t// out\n        /* \"#utility.yul\":9673:9954   */\n    tag_204:\n        /* \"#utility.yul\":9756:9783   */\n      tag_238\n        /* \"#utility.yul\":9778:9782   */\n      dup3\n        /* \"#utility.yul\":9756:9783   */\n      tag_164\n      jump\t// in\n    tag_238:\n        /* \"#utility.yul\":9748:9754   */\n      dup2\n        /* \"#utility.yul\":9744:9784   */\n      add\n        /* \"#utility.yul\":9886:9892   */\n      dup2\n        /* \"#utility.yul\":9874:9884   */\n      dup2\n        /* \"#utility.yul\":9871:9893   */\n      lt\n        /* \"#utility.yul\":9850:9868   */\n      0xffffffffffffffff\n        /* \"#utility.yul\":9838:9848   */\n      dup3\n        /* \"#utility.yul\":9835:9869   */\n      gt\n        /* \"#utility.yul\":9832:9894   */\n      or\n        /* \"#utility.yul\":9829:9917   */\n      iszero\n      tag_239\n      jumpi\n        /* \"#utility.yul\":9897:9915   */\n      tag_240\n      tag_209\n      jump\t// in\n    tag_240:\n        /* \"#utility.yul\":9829:9917   */\n    tag_239:\n        /* \"#utility.yul\":9937:9947   */\n      dup1\n        /* \"#utility.yul\":9933:9935   */\n      0x40\n        /* \"#utility.yul\":9926:9948   */\n      mstore\n        /* \"#utility.yul\":9716:9954   */\n      pop\n        /* \"#utility.yul\":9673:9954   */\n      pop\n      pop\n      jump\t// out\n        /* \"#utility.yul\":9960:10140   */\n    tag_220:\n        /* \"#utility.yul\":10008:10085   */\n      0x4e487b7100000000000000000000000000000000000000000000000000000000\n        /* \"#utility.yul\":10005:10006   */\n      0x00\n        /* \"#utility.yul\":9998:10086   */\n      mstore\n        /* \"#utility.yul\":10105:10109   */\n      0x11\n        /* \"#utility.yul\":10102:10103   */\n      0x04\n        /* \"#utility.yul\":10095:10110   */\n      mstore\n        /* \"#utility.yul\":10129:10133   */\n      0x24\n        /* \"#utility.yul\":10126:10127   */\n      0x00\n        /* \"#utility.yul\":10119:10134   */\n      revert\n        /* \"#utility.yul\":10146:10326   */\n    tag_236:\n        /* \"#utility.yul\":10194:10271   */\n      0x4e487b7100000000000000000000000000000000000000000000000000000000\n        /* \"#utility.yul\":10191:10192   */\n      0x00\n        /* \"#utility.yul\":10184:10272   */\n      mstore\n        /* \"#utility.yul\":10291:10295   */\n      0x22\n        /* \"#utility.yul\":10288:10289   */\n      0x04\n        /* \"#utility.yul\":10281:10296   */\n      mstore\n        /* \"#utility.yul\":10315:10319   */\n      0x24\n        /* \"#utility.yul\":10312:10313   */\n      0x00\n        /* \"#utility.yul\":10305:10320   */\n      revert\n        /* \"#utility.yul\":10332:10512   */\n    tag_47:\n        /* \"#utility.yul\":10380:10457   */\n      0x4e487b7100000000000000000000000000000000000000000000000000000000\n        /* \"#utility.yul\":10377:10378   */\n      0x00\n        /* \"#utility.yul\":10370:10458   */\n      mstore\n        /* \"#utility.yul\":10477:10481   */\n      0x31\n        /* \"#utility.yul\":10474:10475   */\n      0x04\n        /* \"#utility.yul\":10467:10482   */\n      mstore\n        /* \"#utility.yul\":10501:10505   */\n      0x24\n        /* \"#utility.yul\":10498:10499   */\n      0x00\n        /* \"#utility.yul\":10491:10506   */\n      revert\n        /* \"#utility.yul\":10518:10698   */\n    tag_38:\n        /* \"#utility.yul\":10566:10643   */\n      0x4e487b7100000000000000000000000000000000000000000000000000000000\n        /* \"#utility.yul\":10563:10564   */\n      0x00\n        /* \"#utility.yul\":10556:10644   */\n      mstore\n        /* \"#utility.yul\":10663:10667   */\n      0x32\n        /* \"#utility.yul\":10660:10661   */\n      0x04\n        /* \"#utility.yul\":10653:10668   */\n      mstore\n        /* \"#utility.yul\":10687:10691   */\n      0x24\n        /* \"#utility.yul\":10684:10685   */\n      0x00\n        /* \"#utility.yul\":10677:10692   */\n      revert\n        /* \"#utility.yul\":10704:10884   */\n    tag_209:\n        /* \"#utility.yul\":10752:10829   */\n      0x4e487b7100000000000000000000000000000000000000000000000000000000\n        /* \"#utility.yul\":10749:10750   */\n      0x00\n        /* \"#utility.yul\":10742:10830   */\n      mstore\n        /* \"#utility.yul\":10849:10853   */\n      0x41\n        /* \"#utility.yul\":10846:10847   */\n      0x04\n        /* \"#utility.yul\":10839:10854   */\n      mstore\n        /* \"#utility.yul\":10873:10877   */\n      0x24\n        /* \"#utility.yul\":10870:10871   */\n      0x00\n        /* \"#utility.yul\":10863:10878   */\n      revert\n        /* \"#utility.yul\":10890:11007   */\n    tag_115:\n        /* \"#utility.yul\":10999:11000   */\n      0x00\n        /* \"#utility.yul\":10996:10997   */\n      dup1\n        /* \"#utility.yul\":10989:11001   */\n      revert\n        /* \"#utility.yul\":11013:11130   */\n    tag_104:\n        /* \"#utility.yul\":11122:11123   */\n      0x00\n        /* \"#utility.yul\":11119:11120   */\n      dup1\n        /* \"#utility.yul\":11112:11124   */\n      revert\n        /* \"#utility.yul\":11136:11253   */\n    tag_127:\n        /* \"#utility.yul\":11245:11246   */\n      0x00\n        /* \"#utility.yul\":11242:11243   */\n      dup1\n        /* \"#utility.yul\":11235:11247   */\n      revert\n        /* \"#utility.yul\":11259:11376   */\n    tag_124:\n        /* \"#utility.yul\":11368:11369   */\n      0x00\n        /* \"#utility.yul\":11365:11366   */\n      dup1\n        /* \"#utility.yul\":11358:11370   */\n      revert\n        /* \"#utility.yul\":11382:11484   */\n    tag_164:\n        /* \"#utility.yul\":11423:11429   */\n      0x00\n        /* \"#utility.yul\":11474:11476   */\n      0x1f\n        /* \"#utility.yul\":11470:11477   */\n      not\n        /* \"#utility.yul\":11465:11467   */\n      0x1f\n        /* \"#utility.yul\":11458:11463   */\n      dup4\n        /* \"#utility.yul\":11454:11468   */\n      add\n        /* \"#utility.yul\":11450:11478   */\n      and\n        /* \"#utility.yul\":11440:11478   */\n      swap1\n      pop\n        /* \"#utility.yul\":11382:11484   */\n      swap2\n      swap1\n      pop\n      jump\t// out\n        /* \"#utility.yul\":11490:11612   */\n    tag_110:\n        /* \"#utility.yul\":11563:11587   */\n      tag_252\n        /* \"#utility.yul\":11581:11586   */\n      dup2\n        /* \"#utility.yul\":11563:11587   */\n      tag_151\n      jump\t// in\n    tag_252:\n        /* \"#utility.yul\":11556:11561   */\n      dup2\n        /* \"#utility.yul\":11553:11588   */\n      eq\n        /* \"#utility.yul\":11543:11606   */\n      tag_253\n      jumpi\n        /* \"#utility.yul\":11602:11603   */\n      0x00\n        /* \"#utility.yul\":11599:11600   */\n      dup1\n        /* \"#utility.yul\":11592:11604   */\n      revert\n        /* \"#utility.yul\":11543:11606   */\n    tag_253:\n        /* \"#utility.yul\":11490:11612   */\n      pop\n      jump\t// out\n        /* \"#utility.yul\":11618:11740   */\n    tag_120:\n        /* \"#utility.yul\":11691:11715   */\n      tag_255\n        /* \"#utility.yul\":11709:11714   */\n      dup2\n        /* \"#utility.yul\":11691:11715   */\n      tag_186\n      jump\t// in\n    tag_255:\n        /* \"#utility.yul\":11684:11689   */\n      dup2\n        /* \"#utility.yul\":11681:11716   */\n      eq\n        /* \"#utility.yul\":11671:11734   */\n      tag_256\n      jumpi\n        /* \"#utility.yul\":11730:11731   */\n      0x00\n        /* \"#utility.yul\":11727:11728   */\n      dup1\n        /* \"#utility.yul\":11720:11732   */\n      revert\n        /* \"#utility.yul\":11671:11734   */\n    tag_256:\n        /* \"#utility.yul\":11618:11740   */\n      pop\n      jump\t// out\n\n    auxdata: 0xa264697066735822122078a87b4c7286222ac682c6066efb776df0f5427b7008b2f2bdf96d6b5ae172a964736f6c63430008070033\n}\n",
				"bytecode": {
					"linkReferences": {},
					"object": "608060405234801561001057600080fd5b50610d88806100206000396000f3fe608060405234801561001057600080fd5b50600436106100575760003560e01c80632d7a3e901461005c578063a19d846e1461008c578063b921b9a8146100a8578063d461ba4a146100c4578063f7746e36146100f4575b600080fd5b6100766004803603810190610071919061076f565b610126565b6040516100839190610a56565b60405180910390f35b6100a660048036038101906100a1919061076f565b610154565b005b6100c260048036038101906100bd9190610814565b610240565b005b6100de60048036038101906100d991906107b8565b61034b565b6040516100eb9190610a34565b60405180910390f35b61010e60048036038101906101099190610883565b6104d9565b60405161011d939291906109f6565b60405180910390f35b6001818051602081018201805184825260208301602085012081835280955050505050506000915090505481565b600060018260405161016691906109df565b9081526020016040518091039020549050600080828154811061018c5761018b610ca1565b5b90600052602060002090600302019050600060016000805490506101b09190610aff565b815481106101c1576101c0610ca1565b5b9060005260206000209060030201905060008054806101e3576101e2610c72565b5b60019003818190600052602060002090600302016000808201600061020891906105bb565b60018201600090556002820160006101000a81549073ffffffffffffffffffffffffffffffffffffffff021916905550509055505050565b600060405180606001604052808581526020018481526020018373ffffffffffffffffffffffffffffffffffffffff168152509050600081908060018154018082558091505060019003906000526020600020906003020160009091909190915060008201518160000190805190602001906102bd9291906105fb565b506020820151816001015560408201518160020160006101000a81548173ffffffffffffffffffffffffffffffffffffffff021916908373ffffffffffffffffffffffffffffffffffffffff160217905550505060016000805490506103239190610aff565b60018560405161033391906109df565b90815260200160405180910390208190555050505050565b610353610681565b600060018460405161036591906109df565b9081526020016040518091039020549050600080549050811061038757600080fd5b826000828154811061039c5761039b610ca1565b5b906000526020600020906003020160010181905550600081815481106103c5576103c4610ca1565b5b90600052602060002090600302016040518060600160405290816000820180546103ee90610bb1565b80601f016020809104026020016040519081016040528092919081815260200182805461041a90610bb1565b80156104675780601f1061043c57610100808354040283529160200191610467565b820191906000526020600020905b81548152906001019060200180831161044a57829003601f168201915b50505050508152602001600182015481526020016002820160009054906101000a900473ffffffffffffffffffffffffffffffffffffffff1673ffffffffffffffffffffffffffffffffffffffff1673ffffffffffffffffffffffffffffffffffffffff168152505091505092915050565b600081815481106104e957600080fd5b906000526020600020906003020160009150905080600001805461050c90610bb1565b80601f016020809104026020016040519081016040528092919081815260200182805461053890610bb1565b80156105855780601f1061055a57610100808354040283529160200191610585565b820191906000526020600020905b81548152906001019060200180831161056857829003601f168201915b5050505050908060010154908060020160009054906101000a900473ffffffffffffffffffffffffffffffffffffffff16905083565b5080546105c790610bb1565b6000825580601f106105d957506105f8565b601f0160209004906000526020600020908101906105f791906106b8565b5b50565b82805461060790610bb1565b90600052602060002090601f0160209004810192826106295760008555610670565b82601f1061064257805160ff1916838001178555610670565b82800160010185558215610670579182015b8281111561066f578251825591602001919060010190610654565b5b50905061067d91906106b8565b5090565b60405180606001604052806060815260200160008152602001600073ffffffffffffffffffffffffffffffffffffffff1681525090565b5b808211156106d15760008160009055506001016106b9565b5090565b60006106e86106e384610a96565b610a71565b90508281526020810184848401111561070457610703610d04565b5b61070f848285610b6f565b509392505050565b60008135905061072681610d24565b92915050565b600082601f83011261074157610740610cff565b5b81356107518482602086016106d5565b91505092915050565b60008135905061076981610d3b565b92915050565b60006020828403121561078557610784610d0e565b5b600082013567ffffffffffffffff8111156107a3576107a2610d09565b5b6107af8482850161072c565b91505092915050565b600080604083850312156107cf576107ce610d0e565b5b600083013567ffffffffffffffff8111156107ed576107ec610d09565b5b6107f98582860161072c565b925050602061080a8582860161075a565b9150509250929050565b60008060006060848603121561082d5761082c610d0e565b5b600084013567ffffffffffffffff81111561084b5761084a610d09565b5b6108578682870161072c565b93505060206108688682870161075a565b925050604061087986828701610717565b9150509250925092565b60006020828403121561089957610898610d0e565b5b60006108a78482850161075a565b91505092915050565b6108b981610b33565b82525050565b6108c881610b33565b82525050565b60006108d982610ac7565b6108e38185610ad2565b93506108f3818560208601610b7e565b6108fc81610d13565b840191505092915050565b600061091282610ac7565b61091c8185610ae3565b935061092c818560208601610b7e565b61093581610d13565b840191505092915050565b600061094b82610ac7565b6109558185610af4565b9350610965818560208601610b7e565b80840191505092915050565b6000606083016000830151848203600086015261098e82826108ce565b91505060208301516109a360208601826109c1565b5060408301516109b660408601826108b0565b508091505092915050565b6109ca81610b65565b82525050565b6109d981610b65565b82525050565b60006109eb8284610940565b915081905092915050565b60006060820190508181036000830152610a108186610907565b9050610a1f60208301856109d0565b610a2c60408301846108bf565b949350505050565b60006020820190508181036000830152610a4e8184610971565b905092915050565b6000602082019050610a6b60008301846109d0565b92915050565b6000610a7b610a8c565b9050610a878282610be3565b919050565b6000604051905090565b600067ffffffffffffffff821115610ab157610ab0610cd0565b5b610aba82610d13565b9050602081019050919050565b600081519050919050565b600082825260208201905092915050565b600082825260208201905092915050565b600081905092915050565b6000610b0a82610b65565b9150610b1583610b65565b925082821015610b2857610b27610c14565b5b828203905092915050565b6000610b3e82610b45565b9050919050565b600073ffffffffffffffffffffffffffffffffffffffff82169050919050565b6000819050919050565b82818337600083830152505050565b60005b83811015610b9c578082015181840152602081019050610b81565b83811115610bab576000848401525b50505050565b60006002820490506001821680610bc957607f821691505b60208210811415610bdd57610bdc610c43565b5b50919050565b610bec82610d13565b810181811067ffffffffffffffff82111715610c0b57610c0a610cd0565b5b80604052505050565b7f4e487b7100000000000000000000000000000000000000000000000000000000600052601160045260246000fd5b7f4e487b7100000000000000000000000000000000000000000000000000000000600052602260045260246000fd5b7f4e487b7100000000000000000000000000000000000000000000000000000000600052603160045260246000fd5b7f4e487b7100000000000000000000000000000000000000000000000000000000600052603260045260246000fd5b7f4e487b7100000000000000000000000000000000000000000000000000000000600052604160045260246000fd5b600080fd5b600080fd5b600080fd5b600080fd5b6000601f19601f8301169050919050565b610d2d81610b33565b8114610d3857600080fd5b50565b610d4481610b65565b8114610d4f57600080fd5b5056fea264697066735822122078a87b4c7286222ac682c6066efb776df0f5427b7008b2f2bdf96d6b5ae172a964736f6c63430008070033",
					"opcodes": "PUSH1 0x80 PUSH1 0x40 MSTORE CALLVALUE DUP1 ISZERO PUSH2 0x10 JUMPI PUSH1 0x0 DUP1 REVERT JUMPDEST POP PUSH2 0xD88 DUP1 PUSH2 0x20 PUSH1 0x0 CODECOPY PUSH1 0x0 RETURN INVALID PUSH1 0x80 PUSH1 0x40 MSTORE CALLVALUE DUP1 ISZERO PUSH2 0x10 JUMPI PUSH1 0x0 DUP1 REVERT JUMPDEST POP PUSH1 0x4 CALLDATASIZE LT PUSH2 0x57 JUMPI PUSH1 0x0 CALLDATALOAD PUSH1 0xE0 SHR DUP1 PUSH4 0x2D7A3E90 EQ PUSH2 0x5C JUMPI DUP1 PUSH4 0xA19D846E EQ PUSH2 0x8C JUMPI DUP1 PUSH4 0xB921B9A8 EQ PUSH2 0xA8 JUMPI DUP1 PUSH4 0xD461BA4A EQ PUSH2 0xC4 JUMPI DUP1 PUSH4 0xF7746E36 EQ PUSH2 0xF4 JUMPI JUMPDEST PUSH1 0x0 DUP1 REVERT JUMPDEST PUSH2 0x76 PUSH1 0x4 DUP1 CALLDATASIZE SUB DUP2 ADD SWAP1 PUSH2 0x71 SWAP2 SWAP1 PUSH2 0x76F JUMP JUMPDEST PUSH2 0x126 JUMP JUMPDEST PUSH1 0x40 MLOAD PUSH2 0x83 SWAP2 SWAP1 PUSH2 0xA56 JUMP JUMPDEST PUSH1 0x40 MLOAD DUP1 SWAP2 SUB SWAP1 RETURN JUMPDEST PUSH2 0xA6 PUSH1 0x4 DUP1 CALLDATASIZE SUB DUP2 ADD SWAP1 PUSH2 0xA1 SWAP2 SWAP1 PUSH2 0x76F JUMP JUMPDEST PUSH2 0x154 JUMP JUMPDEST STOP JUMPDEST PUSH2 0xC2 PUSH1 0x4 DUP1 CALLDATASIZE SUB DUP2 ADD SWAP1 PUSH2 0xBD SWAP2 SWAP1 PUSH2 0x814 JUMP JUMPDEST PUSH2 0x240 JUMP JUMPDEST STOP JUMPDEST PUSH2 0xDE PUSH1 0x4 DUP1 CALLDATASIZE SUB DUP2 ADD SWAP1 PUSH2 0xD9 SWAP2 SWAP1 PUSH2 0x7B8 JUMP JUMPDEST PUSH2 0x34B JUMP JUMPDEST PUSH1 0x40 MLOAD PUSH2 0xEB SWAP2 SWAP1 PUSH2 0xA34 JUMP JUMPDEST PUSH1 0x40 MLOAD DUP1 SWAP2 SUB SWAP1 RETURN JUMPDEST PUSH2 0x10E PUSH1 0x4 DUP1 CALLDATASIZE SUB DUP2 ADD SWAP1 PUSH2 0x109 SWAP2 SWAP1 PUSH2 0x883 JUMP JUMPDEST PUSH2 0x4D9 JUMP JUMPDEST PUSH1 0x40 MLOAD PUSH2 0x11D SWAP4 SWAP3 SWAP2 SWAP1 PUSH2 0x9F6 JUMP JUMPDEST PUSH1 0x40 MLOAD DUP1 SWAP2 SUB SWAP1 RETURN JUMPDEST PUSH1 0x1 DUP2 DUP1 MLOAD PUSH1 0x20 DUP2 ADD DUP3 ADD DUP1 MLOAD DUP5 DUP3 MSTORE PUSH1 0x20 DUP4 ADD PUSH1 0x20 DUP6 ADD KECCAK256 DUP2 DUP4 MSTORE DUP1 SWAP6 POP POP POP POP POP POP PUSH1 0x0 SWAP2 POP SWAP1 POP SLOAD DUP2 JUMP JUMPDEST PUSH1 0x0 PUSH1 0x1 DUP3 PUSH1 0x40 MLOAD PUSH2 0x166 SWAP2 SWAP1 PUSH2 0x9DF JUMP JUMPDEST SWAP1 DUP2 MSTORE PUSH1 0x20 ADD PUSH1 0x40 MLOAD DUP1 SWAP2 SUB SWAP1 KECCAK256 SLOAD SWAP1 POP PUSH1 0x0 DUP1 DUP3 DUP2 SLOAD DUP2 LT PUSH2 0x18C JUMPI PUSH2 0x18B PUSH2 0xCA1 JUMP JUMPDEST JUMPDEST SWAP1 PUSH1 0x0 MSTORE PUSH1 0x20 PUSH1 0x0 KECCAK256 SWAP1 PUSH1 0x3 MUL ADD SWAP1 POP PUSH1 0x0 PUSH1 0x1 PUSH1 0x0 DUP1 SLOAD SWAP1 POP PUSH2 0x1B0 SWAP2 SWAP1 PUSH2 0xAFF JUMP JUMPDEST DUP2 SLOAD DUP2 LT PUSH2 0x1C1 JUMPI PUSH2 0x1C0 PUSH2 0xCA1 JUMP JUMPDEST JUMPDEST SWAP1 PUSH1 0x0 MSTORE PUSH1 0x20 PUSH1 0x0 KECCAK256 SWAP1 PUSH1 0x3 MUL ADD SWAP1 POP PUSH1 0x0 DUP1 SLOAD DUP1 PUSH2 0x1E3 JUMPI PUSH2 0x1E2 PUSH2 0xC72 JUMP JUMPDEST JUMPDEST PUSH1 0x1 SWAP1 SUB DUP2 DUP2 SWAP1 PUSH1 0x0 MSTORE PUSH1 0x20 PUSH1 0x0 KECCAK256 SWAP1 PUSH1 0x3 MUL ADD PUSH1 0x0 DUP1 DUP3 ADD PUSH1 0x0 PUSH2 0x208 SWAP2 SWAP1 PUSH2 0x5BB JUMP JUMPDEST PUSH1 0x1 DUP3 ADD PUSH1 0x0 SWAP1 SSTORE PUSH1 0x2 DUP3 ADD PUSH1 0x0 PUSH2 0x100 EXP DUP2 SLOAD SWAP1 PUSH20 0xFFFFFFFFFFFFFFFFFFFFFFFFFFFFFFFFFFFFFFFF MUL NOT AND SWAP1 SSTORE POP POP SWAP1 SSTORE POP POP POP JUMP JUMPDEST PUSH1 0x0 PUSH1 0x40 MLOAD DUP1 PUSH1 0x60 ADD PUSH1 0x40 MSTORE DUP1 DUP6 DUP2 MSTORE PUSH1 0x20 ADD DUP5 DUP2 MSTORE PUSH1 0x20 ADD DUP4 PUSH20 0xFFFFFFFFFFFFFFFFFFFFFFFFFFFFFFFFFFFFFFFF AND DUP2 MSTORE POP SWAP1 POP PUSH1 0x0 DUP2 SWAP1 DUP1 PUSH1 0x1 DUP2 SLOAD ADD DUP1 DUP3 SSTORE DUP1 SWAP2 POP POP PUSH1 0x1 SWAP1 SUB SWAP1 PUSH1 0x0 MSTORE PUSH1 0x20 PUSH1 0x0 KECCAK256 SWAP1 PUSH1 0x3 MUL ADD PUSH1 0x0 SWAP1 SWAP2 SWAP1 SWAP2 SWAP1 SWAP2 POP PUSH1 0x0 DUP3 ADD MLOAD DUP2 PUSH1 0x0 ADD SWAP1 DUP1 MLOAD SWAP1 PUSH1 0x20 ADD SWAP1 PUSH2 0x2BD SWAP3 SWAP2 SWAP1 PUSH2 0x5FB JUMP JUMPDEST POP PUSH1 0x20 DUP3 ADD MLOAD DUP2 PUSH1 0x1 ADD SSTORE PUSH1 0x40 DUP3 ADD MLOAD DUP2 PUSH1 0x2 ADD PUSH1 0x0 PUSH2 0x100 EXP DUP2 SLOAD DUP2 PUSH20 0xFFFFFFFFFFFFFFFFFFFFFFFFFFFFFFFFFFFFFFFF MUL NOT AND SWAP1 DUP4 PUSH20 0xFFFFFFFFFFFFFFFFFFFFFFFFFFFFFFFFFFFFFFFF AND MUL OR SWAP1 SSTORE POP POP POP PUSH1 0x1 PUSH1 0x0 DUP1 SLOAD SWAP1 POP PUSH2 0x323 SWAP2 SWAP1 PUSH2 0xAFF JUMP JUMPDEST PUSH1 0x1 DUP6 PUSH1 0x40 MLOAD PUSH2 0x333 SWAP2 SWAP1 PUSH2 0x9DF JUMP JUMPDEST SWAP1 DUP2 MSTORE PUSH1 0x20 ADD PUSH1 0x40 MLOAD DUP1 SWAP2 SUB SWAP1 KECCAK256 DUP2 SWAP1 SSTORE POP POP POP POP POP JUMP JUMPDEST PUSH2 0x353 PUSH2 0x681 JUMP JUMPDEST PUSH1 0x0 PUSH1 0x1 DUP5 PUSH1 0x40 MLOAD PUSH2 0x365 SWAP2 SWAP1 PUSH2 0x9DF JUMP JUMPDEST SWAP1 DUP2 MSTORE PUSH1 0x20 ADD PUSH1 0x40 MLOAD DUP1 SWAP2 SUB SWAP1 KECCAK256 SLOAD SWAP1 POP PUSH1 0x0 DUP1 SLOAD SWAP1 POP DUP2 LT PUSH2 0x387 JUMPI PUSH1 0x0 DUP1 REVERT JUMPDEST DUP3 PUSH1 0x0 DUP3 DUP2 SLOAD DUP2 LT PUSH2 0x39C JUMPI PUSH2 0x39B PUSH2 0xCA1 JUMP JUMPDEST JUMPDEST SWAP1 PUSH1 0x0 MSTORE PUSH1 0x20 PUSH1 0x0 KECCAK256 SWAP1 PUSH1 0x3 MUL ADD PUSH1 0x1 ADD DUP2 SWAP1 SSTORE POP PUSH1 0x0 DUP2 DUP2 SLOAD DUP2 LT PUSH2 0x3C5 JUMPI PUSH2 0x3C4 PUSH2 0xCA1 JUMP JUMPDEST JUMPDEST SWAP1 PUSH1 0x0 MSTORE PUSH1 0x20 PUSH1 0x0 KECCAK256 SWAP1 PUSH1 0x3 MUL ADD PUSH1 0x40 MLOAD DUP1 PUSH1 0x60 ADD PUSH1 0x40 MSTORE SWAP1 DUP2 PUSH1 0x0 DUP3 ADD DUP1 SLOAD PUSH2 0x3EE SWAP1 PUSH2 0xBB1 JUMP JUMPDEST DUP1 PUSH1 0x1F ADD PUSH1 0x20 DUP1 SWAP2 DIV MUL PUSH1 0x20 ADD PUSH1 0x40 MLOAD SWAP1 DUP2 ADD PUSH1 0x40 MSTORE DUP1 SWAP3 SWAP2 SWAP1 DUP2 DUP2 MSTORE PUSH1 0x20 ADD DUP3 DUP1 SLOAD PUSH2 0x41A SWAP1 PUSH2 0xBB1 JUMP JUMPDEST DUP1 ISZERO PUSH2 0x467 JUMPI DUP1 PUSH1 0x1F LT PUSH2 0x43C JUMPI PUSH2 0x100 DUP1 DUP4 SLOAD DIV MUL DUP4 MSTORE SWAP2 PUSH1 0x20 ADD SWAP2 PUSH2 0x467 JUMP JUMPDEST DUP3 ADD SWAP2 SWAP1 PUSH1 0x0 MSTORE PUSH1 0x20 PUSH1 0x0 KECCAK256 SWAP1 JUMPDEST DUP2 SLOAD DUP2 MSTORE SWAP1 PUSH1 0x1 ADD SWAP1 PUSH1 0x20 ADD DUP1 DUP4 GT PUSH2 0x44A JUMPI DUP3 SWAP1 SUB PUSH1 0x1F AND DUP3 ADD SWAP2 JUMPDEST POP POP POP POP POP DUP2 MSTORE PUSH1 0x20 ADD PUSH1 0x1 DUP3 ADD SLOAD DUP2 MSTORE PUSH1 0x20 ADD PUSH1 0x2 DUP3 ADD PUSH1 0x0 SWAP1 SLOAD SWAP1 PUSH2 0x100 EXP SWAP1 DIV PUSH20 0xFFFFFFFFFFFFFFFFFFFFFFFFFFFFFFFFFFFFFFFF AND PUSH20 0xFFFFFFFFFFFFFFFFFFFFFFFFFFFFFFFFFFFFFFFF AND PUSH20 0xFFFFFFFFFFFFFFFFFFFFFFFFFFFFFFFFFFFFFFFF AND DUP2 MSTORE POP POP SWAP2 POP POP SWAP3 SWAP2 POP POP JUMP JUMPDEST PUSH1 0x0 DUP2 DUP2 SLOAD DUP2 LT PUSH2 0x4E9 JUMPI PUSH1 0x0 DUP1 REVERT JUMPDEST SWAP1 PUSH1 0x0 MSTORE PUSH1 0x20 PUSH1 0x0 KECCAK256 SWAP1 PUSH1 0x3 MUL ADD PUSH1 0x0 SWAP2 POP SWAP1 POP DUP1 PUSH1 0x0 ADD DUP1 SLOAD PUSH2 0x50C SWAP1 PUSH2 0xBB1 JUMP JUMPDEST DUP1 PUSH1 0x1F ADD PUSH1 0x20 DUP1 SWAP2 DIV MUL PUSH1 0x20 ADD PUSH1 0x40 MLOAD SWAP1 DUP2 ADD PUSH1 0x40 MSTORE DUP1 SWAP3 SWAP2 SWAP1 DUP2 DUP2 MSTORE PUSH1 0x20 ADD DUP3 DUP1 SLOAD PUSH2 0x538 SWAP1 PUSH2 0xBB1 JUMP JUMPDEST DUP1 ISZERO PUSH2 0x585 JUMPI DUP1 PUSH1 0x1F LT PUSH2 0x55A JUMPI PUSH2 0x100 DUP1 DUP4 SLOAD DIV MUL DUP4 MSTORE SWAP2 PUSH1 0x20 ADD SWAP2 PUSH2 0x585 JUMP JUMPDEST DUP3 ADD SWAP2 SWAP1 PUSH1 0x0 MSTORE PUSH1 0x20 PUSH1 0x0 KECCAK256 SWAP1 JUMPDEST DUP2 SLOAD DUP2 MSTORE SWAP1 PUSH1 0x1 ADD SWAP1 PUSH1 0x20 ADD DUP1 DUP4 GT PUSH2 0x568 JUMPI DUP3 SWAP1 SUB PUSH1 0x1F AND DUP3 ADD SWAP2 JUMPDEST POP POP POP POP POP SWAP1 DUP1 PUSH1 0x1 ADD SLOAD SWAP1 DUP1 PUSH1 0x2 ADD PUSH1 0x0 SWAP1 SLOAD SWAP1 PUSH2 0x100 EXP SWAP1 DIV PUSH20 0xFFFFFFFFFFFFFFFFFFFFFFFFFFFFFFFFFFFFFFFF AND SWAP1 POP DUP4 JUMP JUMPDEST POP DUP1 SLOAD PUSH2 0x5C7 SWAP1 PUSH2 0xBB1 JUMP JUMPDEST PUSH1 0x0 DUP3 SSTORE DUP1 PUSH1 0x1F LT PUSH2 0x5D9 JUMPI POP PUSH2 0x5F8 JUMP JUMPDEST PUSH1 0x1F ADD PUSH1 0x20 SWAP1 DIV SWAP1 PUSH1 0x0 MSTORE PUSH1 0x20 PUSH1 0x0 KECCAK256 SWAP1 DUP2 ADD SWAP1 PUSH2 0x5F7 SWAP2 SWAP1 PUSH2 0x6B8 JUMP JUMPDEST JUMPDEST POP JUMP JUMPDEST DUP3 DUP1 SLOAD PUSH2 0x607 SWAP1 PUSH2 0xBB1 JUMP JUMPDEST SWAP1 PUSH1 0x0 MSTORE PUSH1 0x20 PUSH1 0x0 KECCAK256 SWAP1 PUSH1 0x1F ADD PUSH1 0x20 SWAP1 DIV DUP2 ADD SWAP3 DUP3 PUSH2 0x629 JUMPI PUSH1 0x0 DUP6 SSTORE PUSH2 0x670 JUMP JUMPDEST DUP3 PUSH1 0x1F LT PUSH2 0x642 JUMPI DUP1 MLOAD PUSH1 0xFF NOT AND DUP4 DUP1 ADD OR DUP6 SSTORE PUSH2 0x670 JUMP JUMPDEST DUP3 DUP1 ADD PUSH1 0x1 ADD DUP6 SSTORE DUP3 ISZERO PUSH2 0x670 JUMPI SWAP2 DUP3 ADD JUMPDEST DUP3 DUP2 GT ISZERO PUSH2 0x66F JUMPI DUP3 MLOAD DUP3 SSTORE SWAP2 PUSH1 0x20 ADD SWAP2 SWAP1 PUSH1 0x1 ADD SWAP1 PUSH2 0x654 JUMP JUMPDEST JUMPDEST POP SWAP1 POP PUSH2 0x67D SWAP2 SWAP1 PUSH2 0x6B8 JUMP JUMPDEST POP SWAP1 JUMP JUMPDEST PUSH1 0x40 MLOAD DUP1 PUSH1 0x60 ADD PUSH1 0x40 MSTORE DUP1 PUSH1 0x60 DUP2 MSTORE PUSH1 0x20 ADD PUSH1 0x0 DUP2 MSTORE PUSH1 0x20 ADD PUSH1 0x0 PUSH20 0xFFFFFFFFFFFFFFFFFFFFFFFFFFFFFFFFFFFFFFFF AND DUP2 MSTORE POP SWAP1 JUMP JUMPDEST JUMPDEST DUP1 DUP3 GT ISZERO PUSH2 0x6D1 JUMPI PUSH1 0x0 DUP2 PUSH1 0x0 SWAP1 SSTORE POP PUSH1 0x1 ADD PUSH2 0x6B9 JUMP JUMPDEST POP SWAP1 JUMP JUMPDEST PUSH1 0x0 PUSH2 0x6E8 PUSH2 0x6E3 DUP5 PUSH2 0xA96 JUMP JUMPDEST PUSH2 0xA71 JUMP JUMPDEST SWAP1 POP DUP3 DUP2 MSTORE PUSH1 0x20 DUP2 ADD DUP5 DUP5 DUP5 ADD GT ISZERO PUSH2 0x704 JUMPI PUSH2 0x703 PUSH2 0xD04 JUMP JUMPDEST JUMPDEST PUSH2 0x70F DUP5 DUP3 DUP6 PUSH2 0xB6F JUMP JUMPDEST POP SWAP4 SWAP3 POP POP POP JUMP JUMPDEST PUSH1 0x0 DUP2 CALLDATALOAD SWAP1 POP PUSH2 0x726 DUP2 PUSH2 0xD24 JUMP JUMPDEST SWAP3 SWAP2 POP POP JUMP JUMPDEST PUSH1 0x0 DUP3 PUSH1 0x1F DUP4 ADD SLT PUSH2 0x741 JUMPI PUSH2 0x740 PUSH2 0xCFF JUMP JUMPDEST JUMPDEST DUP2 CALLDATALOAD PUSH2 0x751 DUP5 DUP3 PUSH1 0x20 DUP7 ADD PUSH2 0x6D5 JUMP JUMPDEST SWAP2 POP POP SWAP3 SWAP2 POP POP JUMP JUMPDEST PUSH1 0x0 DUP2 CALLDATALOAD SWAP1 POP PUSH2 0x769 DUP2 PUSH2 0xD3B JUMP JUMPDEST SWAP3 SWAP2 POP POP JUMP JUMPDEST PUSH1 0x0 PUSH1 0x20 DUP3 DUP5 SUB SLT ISZERO PUSH2 0x785 JUMPI PUSH2 0x784 PUSH2 0xD0E JUMP JUMPDEST JUMPDEST PUSH1 0x0 DUP3 ADD CALLDATALOAD PUSH8 0xFFFFFFFFFFFFFFFF DUP2 GT ISZERO PUSH2 0x7A3 JUMPI PUSH2 0x7A2 PUSH2 0xD09 JUMP JUMPDEST JUMPDEST PUSH2 0x7AF DUP5 DUP3 DUP6 ADD PUSH2 0x72C JUMP JUMPDEST SWAP2 POP POP SWAP3 SWAP2 POP POP JUMP JUMPDEST PUSH1 0x0 DUP1 PUSH1 0x40 DUP4 DUP6 SUB SLT ISZERO PUSH2 0x7CF JUMPI PUSH2 0x7CE PUSH2 0xD0E JUMP JUMPDEST JUMPDEST PUSH1 0x0 DUP4 ADD CALLDATALOAD PUSH8 0xFFFFFFFFFFFFFFFF DUP2 GT ISZERO PUSH2 0x7ED JUMPI PUSH2 0x7EC PUSH2 0xD09 JUMP JUMPDEST JUMPDEST PUSH2 0x7F9 DUP6 DUP3 DUP7 ADD PUSH2 0x72C JUMP JUMPDEST SWAP3 POP POP PUSH1 0x20 PUSH2 0x80A DUP6 DUP3 DUP7 ADD PUSH2 0x75A JUMP JUMPDEST SWAP2 POP POP SWAP3 POP SWAP3 SWAP1 POP JUMP JUMPDEST PUSH1 0x0 DUP1 PUSH1 0x0 PUSH1 0x60 DUP5 DUP7 SUB SLT ISZERO PUSH2 0x82D JUMPI PUSH2 0x82C PUSH2 0xD0E JUMP JUMPDEST JUMPDEST PUSH1 0x0 DUP5 ADD CALLDATALOAD PUSH8 0xFFFFFFFFFFFFFFFF DUP2 GT ISZERO PUSH2 0x84B JUMPI PUSH2 0x84A PUSH2 0xD09 JUMP JUMPDEST JUMPDEST PUSH2 0x857 DUP7 DUP3 DUP8 ADD PUSH2 0x72C JUMP JUMPDEST SWAP4 POP POP PUSH1 0x20 PUSH2 0x868 DUP7 DUP3 DUP8 ADD PUSH2 0x75A JUMP JUMPDEST SWAP3 POP POP PUSH1 0x40 PUSH2 0x879 DUP7 DUP3 DUP8 ADD PUSH2 0x717 JUMP JUMPDEST SWAP2 POP POP SWAP3 POP SWAP3 POP SWAP3 JUMP JUMPDEST PUSH1 0x0 PUSH1 0x20 DUP3 DUP5 SUB SLT ISZERO PUSH2 0x899 JUMPI PUSH2 0x898 PUSH2 0xD0E JUMP JUMPDEST JUMPDEST PUSH1 0x0 PUSH2 0x8A7 DUP5 DUP3 DUP6 ADD PUSH2 0x75A JUMP JUMPDEST SWAP2 POP POP SWAP3 SWAP2 POP POP JUMP JUMPDEST PUSH2 0x8B9 DUP2 PUSH2 0xB33 JUMP JUMPDEST DUP3 MSTORE POP POP JUMP JUMPDEST PUSH2 0x8C8 DUP2 PUSH2 0xB33 JUMP JUMPDEST DUP3 MSTORE POP POP JUMP JUMPDEST PUSH1 0x0 PUSH2 0x8D9 DUP3 PUSH2 0xAC7 JUMP JUMPDEST PUSH2 0x8E3 DUP2 DUP6 PUSH2 0xAD2 JUMP JUMPDEST SWAP4 POP PUSH2 0x8F3 DUP2 DUP6 PUSH1 0x20 DUP7 ADD PUSH2 0xB7E JUMP JUMPDEST PUSH2 0x8FC DUP2 PUSH2 0xD13 JUMP JUMPDEST DUP5 ADD SWAP2 POP POP SWAP3 SWAP2 POP POP JUMP JUMPDEST PUSH1 0x0 PUSH2 0x912 DUP3 PUSH2 0xAC7 JUMP JUMPDEST PUSH2 0x91C DUP2 DUP6 PUSH2 0xAE3 JUMP JUMPDEST SWAP4 POP PUSH2 0x92C DUP2 DUP6 PUSH1 0x20 DUP7 ADD PUSH2 0xB7E JUMP JUMPDEST PUSH2 0x935 DUP2 PUSH2 0xD13 JUMP JUMPDEST DUP5 ADD SWAP2 POP POP SWAP3 SWAP2 POP POP JUMP JUMPDEST PUSH1 0x0 PUSH2 0x94B DUP3 PUSH2 0xAC7 JUMP JUMPDEST PUSH2 0x955 DUP2 DUP6 PUSH2 0xAF4 JUMP JUMPDEST SWAP4 POP PUSH2 0x965 DUP2 DUP6 PUSH1 0x20 DUP7 ADD PUSH2 0xB7E JUMP JUMPDEST DUP1 DUP5 ADD SWAP2 POP POP SWAP3 SWAP2 POP POP JUMP JUMPDEST PUSH1 0x0 PUSH1 0x60 DUP4 ADD PUSH1 0x0 DUP4 ADD MLOAD DUP5 DUP3 SUB PUSH1 0x0 DUP7 ADD MSTORE PUSH2 0x98E DUP3 DUP3 PUSH2 0x8CE JUMP JUMPDEST SWAP2 POP POP PUSH1 0x20 DUP4 ADD MLOAD PUSH2 0x9A3 PUSH1 0x20 DUP7 ADD DUP3 PUSH2 0x9C1 JUMP JUMPDEST POP PUSH1 0x40 DUP4 ADD MLOAD PUSH2 0x9B6 PUSH1 0x40 DUP7 ADD DUP3 PUSH2 0x8B0 JUMP JUMPDEST POP DUP1 SWAP2 POP POP SWAP3 SWAP2 POP POP JUMP JUMPDEST PUSH2 0x9CA DUP2 PUSH2 0xB65 JUMP JUMPDEST DUP3 MSTORE POP POP JUMP JUMPDEST PUSH2 0x9D9 DUP2 PUSH2 0xB65 JUMP JUMPDEST DUP3 MSTORE POP POP JUMP JUMPDEST PUSH1 0x0 PUSH2 0x9EB DUP3 DUP5 PUSH2 0x940 JUMP JUMPDEST SWAP2 POP DUP2 SWAP1 POP SWAP3 SWAP2 POP POP JUMP JUMPDEST PUSH1 0x0 PUSH1 0x60 DUP3 ADD SWAP1 POP DUP2 DUP2 SUB PUSH1 0x0 DUP4 ADD MSTORE PUSH2 0xA10 DUP2 DUP7 PUSH2 0x907 JUMP JUMPDEST SWAP1 POP PUSH2 0xA1F PUSH1 0x20 DUP4 ADD DUP6 PUSH2 0x9D0 JUMP JUMPDEST PUSH2 0xA2C PUSH1 0x40 DUP4 ADD DUP5 PUSH2 0x8BF JUMP JUMPDEST SWAP5 SWAP4 POP POP POP POP JUMP JUMPDEST PUSH1 0x0 PUSH1 0x20 DUP3 ADD SWAP1 POP DUP2 DUP2 SUB PUSH1 0x0 DUP4 ADD MSTORE PUSH2 0xA4E DUP2 DUP5 PUSH2 0x971 JUMP JUMPDEST SWAP1 POP SWAP3 SWAP2 POP POP JUMP JUMPDEST PUSH1 0x0 PUSH1 0x20 DUP3 ADD SWAP1 POP PUSH2 0xA6B PUSH1 0x0 DUP4 ADD DUP5 PUSH2 0x9D0 JUMP JUMPDEST SWAP3 SWAP2 POP POP JUMP JUMPDEST PUSH1 0x0 PUSH2 0xA7B PUSH2 0xA8C JUMP JUMPDEST SWAP1 POP PUSH2 0xA87 DUP3 DUP3 PUSH2 0xBE3 JUMP JUMPDEST SWAP2 SWAP1 POP JUMP JUMPDEST PUSH1 0x0 PUSH1 0x40 MLOAD SWAP1 POP SWAP1 JUMP JUMPDEST PUSH1 0x0 PUSH8 0xFFFFFFFFFFFFFFFF DUP3 GT ISZERO PUSH2 0xAB1 JUMPI PUSH2 0xAB0 PUSH2 0xCD0 JUMP JUMPDEST JUMPDEST PUSH2 0xABA DUP3 PUSH2 0xD13 JUMP JUMPDEST SWAP1 POP PUSH1 0x20 DUP2 ADD SWAP1 POP SWAP2 SWAP1 POP JUMP JUMPDEST PUSH1 0x0 DUP2 MLOAD SWAP1 POP SWAP2 SWAP1 POP JUMP JUMPDEST PUSH1 0x0 DUP3 DUP3 MSTORE PUSH1 0x20 DUP3 ADD SWAP1 POP SWAP3 SWAP2 POP POP JUMP JUMPDEST PUSH1 0x0 DUP3 DUP3 MSTORE PUSH1 0x20 DUP3 ADD SWAP1 POP SWAP3 SWAP2 POP POP JUMP JUMPDEST PUSH1 0x0 DUP2 SWAP1 POP SWAP3 SWAP2 POP POP JUMP JUMPDEST PUSH1 0x0 PUSH2 0xB0A DUP3 PUSH2 0xB65 JUMP JUMPDEST SWAP2 POP PUSH2 0xB15 DUP4 PUSH2 0xB65 JUMP JUMPDEST SWAP3 POP DUP3 DUP3 LT ISZERO PUSH2 0xB28 JUMPI PUSH2 0xB27 PUSH2 0xC14 JUMP JUMPDEST JUMPDEST DUP3 DUP3 SUB SWAP1 POP SWAP3 SWAP2 POP POP JUMP JUMPDEST PUSH1 0x0 PUSH2 0xB3E DUP3 PUSH2 0xB45 JUMP JUMPDEST SWAP1 POP SWAP2 SWAP1 POP JUMP JUMPDEST PUSH1 0x0 PUSH20 0xFFFFFFFFFFFFFFFFFFFFFFFFFFFFFFFFFFFFFFFF DUP3 AND SWAP1 POP SWAP2 SWAP1 POP JUMP JUMPDEST PUSH1 0x0 DUP2 SWAP1 POP SWAP2 SWAP1 POP JUMP JUMPDEST DUP3 DUP2 DUP4 CALLDATACOPY PUSH1 0x0 DUP4 DUP4 ADD MSTORE POP POP POP JUMP JUMPDEST PUSH1 0x0 JUMPDEST DUP4 DUP2 LT ISZERO PUSH2 0xB9C JUMPI DUP1 DUP3 ADD MLOAD DUP2 DUP5 ADD MSTORE PUSH1 0x20 DUP2 ADD SWAP1 POP PUSH2 0xB81 JUMP JUMPDEST DUP4 DUP2 GT ISZERO PUSH2 0xBAB JUMPI PUSH1 0x0 DUP5 DUP5 ADD MSTORE JUMPDEST POP POP POP POP JUMP JUMPDEST PUSH1 0x0 PUSH1 0x2 DUP3 DIV SWAP1 POP PUSH1 0x1 DUP3 AND DUP1 PUSH2 0xBC9 JUMPI PUSH1 0x7F DUP3 AND SWAP2 POP JUMPDEST PUSH1 0x20 DUP3 LT DUP2 EQ ISZERO PUSH2 0xBDD JUMPI PUSH2 0xBDC PUSH2 0xC43 JUMP JUMPDEST JUMPDEST POP SWAP2 SWAP1 POP JUMP JUMPDEST PUSH2 0xBEC DUP3 PUSH2 0xD13 JUMP JUMPDEST DUP2 ADD DUP2 DUP2 LT PUSH8 0xFFFFFFFFFFFFFFFF DUP3 GT OR ISZERO PUSH2 0xC0B JUMPI PUSH2 0xC0A PUSH2 0xCD0 JUMP JUMPDEST JUMPDEST DUP1 PUSH1 0x40 MSTORE POP POP POP JUMP JUMPDEST PUSH32 0x4E487B7100000000000000000000000000000000000000000000000000000000 PUSH1 0x0 MSTORE PUSH1 0x11 PUSH1 0x4 MSTORE PUSH1 0x24 PUSH1 0x0 REVERT JUMPDEST PUSH32 0x4E487B7100000000000000000000000000000000000000000000000000000000 PUSH1 0x0 MSTORE PUSH1 0x22 PUSH1 0x4 MSTORE PUSH1 0x24 PUSH1 0x0 REVERT JUMPDEST PUSH32 0x4E487B7100000000000000000000000000000000000000000000000000000000 PUSH1 0x0 MSTORE PUSH1 0x31 PUSH1 0x4 MSTORE PUSH1 0x24 PUSH1 0x0 REVERT JUMPDEST PUSH32 0x4E487B7100000000000000000000000000000000000000000000000000000000 PUSH1 0x0 MSTORE PUSH1 0x32 PUSH1 0x4 MSTORE PUSH1 0x24 PUSH1 0x0 REVERT JUMPDEST PUSH32 0x4E487B7100000000000000000000000000000000000000000000000000000000 PUSH1 0x0 MSTORE PUSH1 0x41 PUSH1 0x4 MSTORE PUSH1 0x24 PUSH1 0x0 REVERT JUMPDEST PUSH1 0x0 DUP1 REVERT JUMPDEST PUSH1 0x0 DUP1 REVERT JUMPDEST PUSH1 0x0 DUP1 REVERT JUMPDEST PUSH1 0x0 DUP1 REVERT JUMPDEST PUSH1 0x0 PUSH1 0x1F NOT PUSH1 0x1F DUP4 ADD AND SWAP1 POP SWAP2 SWAP1 POP JUMP JUMPDEST PUSH2 0xD2D DUP2 PUSH2 0xB33 JUMP JUMPDEST DUP2 EQ PUSH2 0xD38 JUMPI PUSH1 0x0 DUP1 REVERT JUMPDEST POP JUMP JUMPDEST PUSH2 0xD44 DUP2 PUSH2 0xB65 JUMP JUMPDEST DUP2 EQ PUSH2 0xD4F JUMPI PUSH1 0x0 DUP1 REVERT JUMPDEST POP JUMP INVALID LOG2 PUSH5 0x6970667358 0x22 SLT KECCAK256 PUSH25 0xA87B4C7286222AC682C6066EFB776DF0F5427B7008B2F2BDF9 PUSH14 0x6B5AE172A964736F6C6343000807 STOP CALLER "
				},
				"gasEstimates": {
					"creation": {
						"codeDepositCost": "692800",
						"executionCost": "728",
						"totalCost": "693528"
					},
					"external": {
						"cars(uint256)": "infinite",
						"carsByOwner(string)": "infinite",
						"deleteCars(string)": "infinite",
						"myCheKu(string,uint256,address)": "infinite",
						"updateYear(string,uint256)": "infinite"
					}
				},
				"methodIdentifiers": {
					"cars(uint256)": "f7746e36",
					"carsByOwner(string)": "2d7a3e90",
					"deleteCars(string)": "a19d846e",
					"myCheKu(string,uint256,address)": "b921b9a8",
					"updateYear(string,uint256)": "d461ba4a"
				}
			},
			"storageLayout": {
				"storage": [
					{
						"astId": 12,
						"contract": "20StructsZuoYe.sol:StructsZuoYe",
						"label": "cars",
						"offset": 0,
						"slot": "0",
						"type": "t_array(t_struct(Vehicle)8_storage)dyn_storage"
					},
					{
						"astId": 16,
						"contract": "20StructsZuoYe.sol:StructsZuoYe",
						"label": "carsByOwner",
						"offset": 0,
						"slot": "1",
						"type": "t_mapping(t_string_memory_ptr,t_uint256)"
					}
				],
				"types": {
					"t_address": {
						"encoding": "inplace",
						"label": "address",
						"numberOfBytes": "20"
					},
					"t_array(t_struct(Vehicle)8_storage)dyn_storage": {
						"base": "t_struct(Vehicle)8_storage",
						"encoding": "dynamic_array",
						"label": "struct StructsZuoYe.Vehicle[]",
						"numberOfBytes": "32"
					},
					"t_mapping(t_string_memory_ptr,t_uint256)": {
						"encoding": "mapping",
						"key": "t_string_memory_ptr",
						"label": "mapping(string => uint256)",
						"numberOfBytes": "32",
						"value": "t_uint256"
					},
					"t_string_memory_ptr": {
						"encoding": "bytes",
						"label": "string",
						"numberOfBytes": "32"
					},
					"t_string_storage": {
						"encoding": "bytes",
						"label": "string",
						"numberOfBytes": "32"
					},
					"t_struct(Vehicle)8_storage": {
						"encoding": "inplace",
						"label": "struct StructsZuoYe.Vehicle",
						"members": [
							{
								"astId": 3,
								"contract": "20StructsZuoYe.sol:StructsZuoYe",
								"label": "make",
								"offset": 0,
								"slot": "0",
								"type": "t_string_storage"
							},
							{
								"astId": 5,
								"contract": "20StructsZuoYe.sol:StructsZuoYe",
								"label": "year",
								"offset": 0,
								"slot": "1",
								"type": "t_uint256"
							},
							{
								"astId": 7,
								"contract": "20StructsZuoYe.sol:StructsZuoYe",
								"label": "owner",
								"offset": 0,
								"slot": "2",
								"type": "t_address"
							}
						],
						"numberOfBytes": "96"
					},
					"t_uint256": {
						"encoding": "inplace",
						"label": "uint256",
						"numberOfBytes": "32"
					}
				}
			},
			"userdoc": {
				"kind": "user",
				"methods": {},
				"version": 1
			}
		}
	}
}