{
	"48Abi.sol": {
		"Abi": {
			"abi": [
				{
					"inputs": [
						{
							"internalType": "bytes",
							"name": "data",
							"type": "bytes"
						}
					],
					"name": "decode",
					"outputs": [
						{
							"internalType": "string",
							"name": "x",
							"type": "string"
						},
						{
							"internalType": "uint256",
							"name": "y",
							"type": "uint256"
						},
						{
							"internalType": "address",
							"name": "addr",
							"type": "address"
						},
						{
							"internalType": "uint256[]",
							"name": "arr",
							"type": "uint256[]"
						},
						{
							"components": [
								{
									"internalType": "string",
									"name": "name",
									"type": "string"
								},
								{
									"internalType": "uint256[2]",
									"name": "nums",
									"type": "uint256[2]"
								}
							],
							"internalType": "struct Abi.Mystruct",
							"name": "Mystructor",
							"type": "tuple"
						}
					],
					"stateMutability": "pure",
					"type": "function"
				},
				{
					"inputs": [
						{
							"internalType": "string",
							"name": "x",
							"type": "string"
						},
						{
							"internalType": "uint256",
							"name": "y",
							"type": "uint256"
						},
						{
							"internalType": "address",
							"name": "addr",
							"type": "address"
						},
						{
							"internalType": "uint256[]",
							"name": "arr",
							"type": "uint256[]"
						},
						{
							"components": [
								{
									"internalType": "string",
									"name": "name",
									"type": "string"
								},
								{
									"internalType": "uint256[2]",
									"name": "nums",
									"type": "uint256[2]"
								}
							],
							"internalType": "struct Abi.Mystruct",
							"name": "Mystructor",
							"type": "tuple"
						}
					],
					"name": "encode",
					"outputs": [
						{
							"internalType": "bytes",
							"name": "",
							"type": "bytes"
						}
					],
					"stateMutability": "pure",
					"type": "function"
				}
			],
			"devdoc": {
				"kind": "dev",
				"methods": {},
				"version": 1
			},
			"evm": {
				"assembly": "    /* \"48Abi.sol\":58:638  contract Abi{... */\n  mstore(0x40, 0x80)\n  callvalue\n  dup1\n  iszero\n  tag_1\n  jumpi\n  0x00\n  dup1\n  revert\ntag_1:\n  pop\n  dataSize(sub_0)\n  dup1\n  dataOffset(sub_0)\n  0x00\n  codecopy\n  0x00\n  return\nstop\n\nsub_0: assembly {\n        /* \"48Abi.sol\":58:638  contract Abi{... */\n      mstore(0x40, 0x80)\n      callvalue\n      dup1\n      iszero\n      tag_1\n      jumpi\n      0x00\n      dup1\n      revert\n    tag_1:\n      pop\n      jumpi(tag_2, lt(calldatasize, 0x04))\n      shr(0xe0, calldataload(0x00))\n      dup1\n      0x0cc6a8be\n      eq\n      tag_3\n      jumpi\n      dup1\n      0xe5c5e9a3\n      eq\n      tag_4\n      jumpi\n    tag_2:\n      0x00\n      dup1\n      revert\n        /* \"48Abi.sol\":146:393  function encode(... */\n    tag_3:\n      tag_5\n      tag_6\n      calldatasize\n      0x04\n      tag_7\n      jump\t// in\n    tag_6:\n      tag_8\n      jump\t// in\n    tag_5:\n      mload(0x40)\n      tag_9\n      swap2\n      swap1\n      tag_10\n      jump\t// in\n    tag_9:\n      mload(0x40)\n      dup1\n      swap2\n      sub\n      swap1\n      return\n        /* \"48Abi.sol\":399:636  function decode(bytes calldata data)external pure returns(string memory x,uint y,address addr,uint[] memory arr,Mystruct memory Mystructor){... */\n    tag_4:\n      tag_11\n      tag_12\n      calldatasize\n      0x04\n      tag_13\n      jump\t// in\n    tag_12:\n      tag_14\n      jump\t// in\n    tag_11:\n      mload(0x40)\n      tag_9\n      swap6\n      swap5\n      swap4\n      swap3\n      swap2\n      swap1\n      tag_16\n      jump\t// in\n        /* \"48Abi.sol\":146:393  function encode(... */\n    tag_8:\n        /* \"48Abi.sol\":321:333  bytes memory */\n      0x60\n        /* \"48Abi.sol\":362:363  x */\n      dup8\n      dup8\n        /* \"48Abi.sol\":364:365  y */\n      dup8\n        /* \"48Abi.sol\":366:370  addr */\n      dup8\n        /* \"48Abi.sol\":371:374  arr */\n      dup8\n      dup8\n        /* \"48Abi.sol\":375:385  Mystructor */\n      dup8\n        /* \"48Abi.sol\":351:386  abi.encode(x,y,addr,arr,Mystructor) */\n      add(0x20, mload(0x40))\n      tag_18\n      swap8\n      swap7\n      swap6\n      swap5\n      swap4\n      swap3\n      swap2\n      swap1\n      tag_19\n      jump\t// in\n    tag_18:\n      mload(0x40)\n      0x20\n      dup2\n      dup4\n      sub\n      sub\n      dup2\n      mstore\n      swap1\n      0x40\n      mstore\n        /* \"48Abi.sol\":344:386  return abi.encode(x,y,addr,arr,Mystructor) */\n      swap1\n      pop\n        /* \"48Abi.sol\":146:393  function encode(... */\n      swap8\n      swap7\n      pop\n      pop\n      pop\n      pop\n      pop\n      pop\n      pop\n      jump\t// out\n        /* \"48Abi.sol\":399:636  function decode(bytes calldata data)external pure returns(string memory x,uint y,address addr,uint[] memory arr,Mystruct memory Mystructor){... */\n    tag_14:\n        /* \"48Abi.sol\":457:472  string memory x */\n      0x60\n        /* \"48Abi.sol\":473:479  uint y */\n      0x00\n        /* \"48Abi.sol\":480:492  address addr */\n      dup1\n        /* \"48Abi.sol\":493:510  uint[] memory arr */\n      0x60\n        /* \"48Abi.sol\":511:537  Mystruct memory Mystructor */\n      tag_20\n      tag_21\n      jump\t// in\n    tag_20:\n        /* \"48Abi.sol\":574:629  abi.decode(data, (string,uint,address,uint[],Mystruct)) */\n      tag_23\n      dup7\n      dup9\n      add\n        /* \"48Abi.sol\":585:589  data */\n      dup9\n        /* \"48Abi.sol\":574:629  abi.decode(data, (string,uint,address,uint[],Mystruct)) */\n      tag_24\n      jump\t// in\n    tag_23:\n        /* \"48Abi.sol\":548:629  (x,y,addr,arr,Mystructor)=abi.decode(data, (string,uint,address,uint[],Mystruct)) */\n      swap4\n      swap12\n      swap3\n      swap11\n      pop\n      swap1\n      swap9\n      pop\n      swap7\n      pop\n      swap1\n      swap5\n      pop\n        /* \"48Abi.sol\":399:636  function decode(bytes calldata data)external pure returns(string memory x,uint y,address addr,uint[] memory arr,Mystruct memory Mystructor){... */\n      swap3\n      pop\n      pop\n      pop\n      jump\t// out\n    tag_21:\n      mload(0x40)\n      dup1\n      0x40\n      add\n      0x40\n      mstore\n      dup1\n      0x60\n      dup2\n      mstore\n      0x20\n      add\n      tag_25\n      tag_26\n      jump\t// in\n    tag_25:\n      swap1\n      mstore\n      swap1\n      jump\t// out\n    tag_26:\n      mload(0x40)\n      dup1\n      0x40\n      add\n      0x40\n      mstore\n      dup1\n      0x02\n      swap1\n      0x20\n      dup3\n      mul\n      dup1\n      calldatasize\n      dup4\n      calldatacopy\n      pop\n      swap2\n      swap3\n      swap2\n      pop\n      pop\n      jump\t// out\n        /* \"#utility.yul\":14:361   */\n    tag_28:\n        /* \"#utility.yul\":65:73   */\n      0x00\n        /* \"#utility.yul\":75:81   */\n      dup1\n        /* \"#utility.yul\":129:132   */\n      dup4\n        /* \"#utility.yul\":122:126   */\n      0x1f\n        /* \"#utility.yul\":114:120   */\n      dup5\n        /* \"#utility.yul\":110:127   */\n      add\n        /* \"#utility.yul\":106:133   */\n      slt\n        /* \"#utility.yul\":96:151   */\n      tag_30\n      jumpi\n        /* \"#utility.yul\":147:148   */\n      0x00\n        /* \"#utility.yul\":144:145   */\n      dup1\n        /* \"#utility.yul\":137:149   */\n      revert\n        /* \"#utility.yul\":96:151   */\n    tag_30:\n      pop\n        /* \"#utility.yul\":170:190   */\n      dup2\n      calldataload\n        /* \"#utility.yul\":213:231   */\n      0xffffffffffffffff\n        /* \"#utility.yul\":202:232   */\n      dup2\n      gt\n        /* \"#utility.yul\":199:249   */\n      iszero\n      tag_31\n      jumpi\n        /* \"#utility.yul\":245:246   */\n      0x00\n        /* \"#utility.yul\":242:243   */\n      dup1\n        /* \"#utility.yul\":235:247   */\n      revert\n        /* \"#utility.yul\":199:249   */\n    tag_31:\n        /* \"#utility.yul\":282:286   */\n      0x20\n        /* \"#utility.yul\":274:280   */\n      dup4\n        /* \"#utility.yul\":270:287   */\n      add\n        /* \"#utility.yul\":258:287   */\n      swap2\n      pop\n        /* \"#utility.yul\":334:337   */\n      dup4\n        /* \"#utility.yul\":327:331   */\n      0x20\n        /* \"#utility.yul\":318:324   */\n      dup3\n        /* \"#utility.yul\":310:316   */\n      dup6\n        /* \"#utility.yul\":306:325   */\n      add\n        /* \"#utility.yul\":302:332   */\n      add\n        /* \"#utility.yul\":299:338   */\n      gt\n        /* \"#utility.yul\":296:355   */\n      iszero\n      tag_32\n      jumpi\n        /* \"#utility.yul\":351:352   */\n      0x00\n        /* \"#utility.yul\":348:349   */\n      dup1\n        /* \"#utility.yul\":341:353   */\n      revert\n        /* \"#utility.yul\":296:355   */\n    tag_32:\n        /* \"#utility.yul\":14:361   */\n      swap3\n      pop\n      swap3\n      swap1\n      pop\n      jump\t// out\n        /* \"#utility.yul\":366:956   */\n    tag_33:\n        /* \"#utility.yul\":409:414   */\n      0x00\n        /* \"#utility.yul\":462:465   */\n      dup3\n        /* \"#utility.yul\":455:459   */\n      0x1f\n        /* \"#utility.yul\":447:453   */\n      dup4\n        /* \"#utility.yul\":443:460   */\n      add\n        /* \"#utility.yul\":439:466   */\n      slt\n        /* \"#utility.yul\":429:484   */\n      tag_35\n      jumpi\n        /* \"#utility.yul\":480:481   */\n      0x00\n        /* \"#utility.yul\":477:478   */\n      dup1\n        /* \"#utility.yul\":470:482   */\n      revert\n        /* \"#utility.yul\":429:484   */\n    tag_35:\n        /* \"#utility.yul\":516:522   */\n      dup2\n        /* \"#utility.yul\":503:523   */\n      calldataload\n        /* \"#utility.yul\":542:560   */\n      0xffffffffffffffff\n        /* \"#utility.yul\":538:540   */\n      dup2\n        /* \"#utility.yul\":535:561   */\n      gt\n        /* \"#utility.yul\":532:584   */\n      iszero\n      tag_37\n      jumpi\n        /* \"#utility.yul\":564:582   */\n      tag_37\n      tag_38\n      jump\t// in\n    tag_37:\n        /* \"#utility.yul\":608:722   */\n      tag_39\n        /* \"#utility.yul\":716:720   */\n      0x20\n        /* \"#utility.yul\":647:713   */\n      0xffffffffffffffffffffffffffffffffffffffffffffffffffffffffffffffe0\n        /* \"#utility.yul\":640:644   */\n      0x1f\n        /* \"#utility.yul\":636:638   */\n      dup5\n        /* \"#utility.yul\":632:645   */\n      add\n        /* \"#utility.yul\":628:714   */\n      and\n        /* \"#utility.yul\":624:721   */\n      add\n        /* \"#utility.yul\":608:722   */\n      tag_40\n      jump\t// in\n    tag_39:\n        /* \"#utility.yul\":747:749   */\n      dup2\n        /* \"#utility.yul\":738:745   */\n      dup2\n        /* \"#utility.yul\":731:750   */\n      mstore\n        /* \"#utility.yul\":793:796   */\n      dup5\n        /* \"#utility.yul\":786:790   */\n      0x20\n        /* \"#utility.yul\":781:783   */\n      dup4\n        /* \"#utility.yul\":773:779   */\n      dup7\n        /* \"#utility.yul\":769:784   */\n      add\n        /* \"#utility.yul\":765:791   */\n      add\n        /* \"#utility.yul\":762:797   */\n      gt\n        /* \"#utility.yul\":759:814   */\n      iszero\n      tag_41\n      jumpi\n        /* \"#utility.yul\":810:811   */\n      0x00\n        /* \"#utility.yul\":807:808   */\n      dup1\n        /* \"#utility.yul\":800:812   */\n      revert\n        /* \"#utility.yul\":759:814   */\n    tag_41:\n        /* \"#utility.yul\":875:877   */\n      dup2\n        /* \"#utility.yul\":868:872   */\n      0x20\n        /* \"#utility.yul\":860:866   */\n      dup6\n        /* \"#utility.yul\":856:873   */\n      add\n        /* \"#utility.yul\":849:853   */\n      0x20\n        /* \"#utility.yul\":840:847   */\n      dup4\n        /* \"#utility.yul\":836:854   */\n      add\n        /* \"#utility.yul\":823:878   */\n      calldatacopy\n        /* \"#utility.yul\":923:924   */\n      0x00\n        /* \"#utility.yul\":898:914   */\n      swap2\n      dup2\n      add\n        /* \"#utility.yul\":916:920   */\n      0x20\n        /* \"#utility.yul\":894:921   */\n      add\n        /* \"#utility.yul\":887:925   */\n      swap2\n      swap1\n      swap2\n      mstore\n        /* \"#utility.yul\":902:909   */\n      swap4\n        /* \"#utility.yul\":366:956   */\n      swap3\n      pop\n      pop\n      pop\n      jump\t// out\n        /* \"#utility.yul\":961:1117   */\n    tag_42:\n        /* \"#utility.yul\":1022:1027   */\n      0x00\n        /* \"#utility.yul\":1067:1069   */\n      0x60\n        /* \"#utility.yul\":1058:1064   */\n      dup3\n        /* \"#utility.yul\":1053:1056   */\n      dup5\n        /* \"#utility.yul\":1049:1065   */\n      sub\n        /* \"#utility.yul\":1045:1070   */\n      slt\n        /* \"#utility.yul\":1042:1087   */\n      iszero\n      tag_44\n      jumpi\n        /* \"#utility.yul\":1083:1084   */\n      0x00\n        /* \"#utility.yul\":1080:1081   */\n      dup1\n        /* \"#utility.yul\":1073:1085   */\n      revert\n        /* \"#utility.yul\":1042:1087   */\n    tag_44:\n      pop\n        /* \"#utility.yul\":1105:1111   */\n      swap2\n        /* \"#utility.yul\":961:1117   */\n      swap1\n      pop\n      jump\t// out\n        /* \"#utility.yul\":1122:1948   */\n    tag_45:\n        /* \"#utility.yul\":1177:1182   */\n      0x00\n        /* \"#utility.yul\":1225:1229   */\n      0x60\n        /* \"#utility.yul\":1213:1222   */\n      dup3\n        /* \"#utility.yul\":1208:1211   */\n      dup5\n        /* \"#utility.yul\":1204:1223   */\n      sub\n        /* \"#utility.yul\":1200:1230   */\n      slt\n        /* \"#utility.yul\":1197:1247   */\n      iszero\n      tag_47\n      jumpi\n        /* \"#utility.yul\":1243:1244   */\n      0x00\n        /* \"#utility.yul\":1240:1241   */\n      dup1\n        /* \"#utility.yul\":1233:1245   */\n      revert\n        /* \"#utility.yul\":1197:1247   */\n    tag_47:\n        /* \"#utility.yul\":1265:1287   */\n      tag_48\n      tag_49\n      jump\t// in\n    tag_48:\n        /* \"#utility.yul\":1256:1287   */\n      swap1\n      pop\n        /* \"#utility.yul\":1323:1332   */\n      dup2\n        /* \"#utility.yul\":1310:1333   */\n      calldataload\n        /* \"#utility.yul\":1356:1374   */\n      0xffffffffffffffff\n        /* \"#utility.yul\":1348:1354   */\n      dup2\n        /* \"#utility.yul\":1345:1375   */\n      gt\n        /* \"#utility.yul\":1342:1392   */\n      iszero\n      tag_50\n      jumpi\n        /* \"#utility.yul\":1388:1389   */\n      0x00\n        /* \"#utility.yul\":1385:1386   */\n      dup1\n        /* \"#utility.yul\":1378:1390   */\n      revert\n        /* \"#utility.yul\":1342:1392   */\n    tag_50:\n        /* \"#utility.yul\":1415:1461   */\n      tag_51\n        /* \"#utility.yul\":1457:1460   */\n      dup5\n        /* \"#utility.yul\":1448:1454   */\n      dup3\n        /* \"#utility.yul\":1437:1446   */\n      dup6\n        /* \"#utility.yul\":1433:1455   */\n      add\n        /* \"#utility.yul\":1415:1461   */\n      tag_33\n      jump\t// in\n    tag_51:\n        /* \"#utility.yul\":1408:1413   */\n      dup3\n        /* \"#utility.yul\":1401:1462   */\n      mstore\n      pop\n        /* \"#utility.yul\":1481:1483   */\n      0x20\n        /* \"#utility.yul\":1526:1529   */\n      dup4\n        /* \"#utility.yul\":1521:1523   */\n      0x3f\n        /* \"#utility.yul\":1510:1519   */\n      dup5\n        /* \"#utility.yul\":1506:1524   */\n      add\n        /* \"#utility.yul\":1502:1530   */\n      slt\n        /* \"#utility.yul\":1492:1548   */\n      tag_52\n      jumpi\n        /* \"#utility.yul\":1544:1545   */\n      0x00\n        /* \"#utility.yul\":1541:1542   */\n      dup1\n        /* \"#utility.yul\":1534:1546   */\n      revert\n        /* \"#utility.yul\":1492:1548   */\n    tag_52:\n        /* \"#utility.yul\":1568:1590   */\n      tag_53\n      tag_49\n      jump\t// in\n    tag_53:\n        /* \"#utility.yul\":1612:1615   */\n      dup1\n        /* \"#utility.yul\":1650:1652   */\n      dup3\n        /* \"#utility.yul\":1639:1648   */\n      dup6\n        /* \"#utility.yul\":1635:1653   */\n      add\n        /* \"#utility.yul\":1690:1693   */\n      dup7\n        /* \"#utility.yul\":1683:1687   */\n      0x60\n        /* \"#utility.yul\":1672:1681   */\n      dup8\n        /* \"#utility.yul\":1668:1688   */\n      add\n        /* \"#utility.yul\":1665:1694   */\n      gt\n        /* \"#utility.yul\":1662:1711   */\n      iszero\n      tag_55\n      jumpi\n        /* \"#utility.yul\":1707:1708   */\n      0x00\n        /* \"#utility.yul\":1704:1705   */\n      dup1\n        /* \"#utility.yul\":1697:1709   */\n      revert\n        /* \"#utility.yul\":1662:1711   */\n    tag_55:\n        /* \"#utility.yul\":1729:1730   */\n      0x00\n        /* \"#utility.yul\":1739:1904   */\n    tag_56:\n        /* \"#utility.yul\":1753:1757   */\n      0x02\n        /* \"#utility.yul\":1750:1751   */\n      dup2\n        /* \"#utility.yul\":1747:1758   */\n      lt\n        /* \"#utility.yul\":1739:1904   */\n      iszero\n      tag_58\n      jumpi\n        /* \"#utility.yul\":1812:1829   */\n      dup2\n      calldataload\n        /* \"#utility.yul\":1800:1830   */\n      dup5\n      mstore\n        /* \"#utility.yul\":1850:1862   */\n      swap3\n      dup5\n      add\n      swap3\n        /* \"#utility.yul\":1882:1894   */\n      swap1\n      dup5\n      add\n      swap1\n        /* \"#utility.yul\":1773:1774   */\n      0x01\n        /* \"#utility.yul\":1766:1775   */\n      add\n        /* \"#utility.yul\":1739:1904   */\n      jump(tag_56)\n    tag_58:\n        /* \"#utility.yul\":1743:1746   */\n      pop\n      pop\n        /* \"#utility.yul\":1936:1941   */\n      dup1\n        /* \"#utility.yul\":1931:1933   */\n      dup4\n        /* \"#utility.yul\":1924:1929   */\n      dup6\n        /* \"#utility.yul\":1920:1934   */\n      add\n        /* \"#utility.yul\":1913:1942   */\n      mstore\n      pop\n      pop\n      pop\n        /* \"#utility.yul\":1122:1948   */\n      swap3\n      swap2\n      pop\n      pop\n      jump\t// out\n        /* \"#utility.yul\":1953:2362   */\n    tag_13:\n        /* \"#utility.yul\":2023:2029   */\n      0x00\n        /* \"#utility.yul\":2031:2037   */\n      dup1\n        /* \"#utility.yul\":2084:2086   */\n      0x20\n        /* \"#utility.yul\":2072:2081   */\n      dup4\n        /* \"#utility.yul\":2063:2070   */\n      dup6\n        /* \"#utility.yul\":2059:2082   */\n      sub\n        /* \"#utility.yul\":2055:2087   */\n      slt\n        /* \"#utility.yul\":2052:2104   */\n      iszero\n      tag_60\n      jumpi\n        /* \"#utility.yul\":2100:2101   */\n      0x00\n        /* \"#utility.yul\":2097:2098   */\n      dup1\n        /* \"#utility.yul\":2090:2102   */\n      revert\n        /* \"#utility.yul\":2052:2104   */\n    tag_60:\n        /* \"#utility.yul\":2140:2149   */\n      dup3\n        /* \"#utility.yul\":2127:2150   */\n      calldataload\n        /* \"#utility.yul\":2173:2191   */\n      0xffffffffffffffff\n        /* \"#utility.yul\":2165:2171   */\n      dup2\n        /* \"#utility.yul\":2162:2192   */\n      gt\n        /* \"#utility.yul\":2159:2209   */\n      iszero\n      tag_61\n      jumpi\n        /* \"#utility.yul\":2205:2206   */\n      0x00\n        /* \"#utility.yul\":2202:2203   */\n      dup1\n        /* \"#utility.yul\":2195:2207   */\n      revert\n        /* \"#utility.yul\":2159:2209   */\n    tag_61:\n        /* \"#utility.yul\":2244:2302   */\n      tag_62\n        /* \"#utility.yul\":2294:2301   */\n      dup6\n        /* \"#utility.yul\":2285:2291   */\n      dup3\n        /* \"#utility.yul\":2274:2283   */\n      dup7\n        /* \"#utility.yul\":2270:2292   */\n      add\n        /* \"#utility.yul\":2244:2302   */\n      tag_28\n      jump\t// in\n    tag_62:\n        /* \"#utility.yul\":2321:2329   */\n      swap1\n      swap7\n        /* \"#utility.yul\":2218:2302   */\n      swap1\n      swap6\n      pop\n        /* \"#utility.yul\":1953:2362   */\n      swap4\n      pop\n      pop\n      pop\n      pop\n      jump\t// out\n        /* \"#utility.yul\":2367:3708   */\n    tag_7:\n        /* \"#utility.yul\":2526:2532   */\n      0x00\n        /* \"#utility.yul\":2534:2540   */\n      dup1\n        /* \"#utility.yul\":2542:2548   */\n      0x00\n        /* \"#utility.yul\":2550:2556   */\n      dup1\n        /* \"#utility.yul\":2558:2564   */\n      0x00\n        /* \"#utility.yul\":2566:2572   */\n      dup1\n        /* \"#utility.yul\":2574:2580   */\n      0x00\n        /* \"#utility.yul\":2627:2630   */\n      0xa0\n        /* \"#utility.yul\":2615:2624   */\n      dup9\n        /* \"#utility.yul\":2606:2613   */\n      dup11\n        /* \"#utility.yul\":2602:2625   */\n      sub\n        /* \"#utility.yul\":2598:2631   */\n      slt\n        /* \"#utility.yul\":2595:2648   */\n      iszero\n      tag_64\n      jumpi\n        /* \"#utility.yul\":2644:2645   */\n      0x00\n        /* \"#utility.yul\":2641:2642   */\n      dup1\n        /* \"#utility.yul\":2634:2646   */\n      revert\n        /* \"#utility.yul\":2595:2648   */\n    tag_64:\n        /* \"#utility.yul\":2684:2693   */\n      dup8\n        /* \"#utility.yul\":2671:2694   */\n      calldataload\n        /* \"#utility.yul\":2713:2731   */\n      0xffffffffffffffff\n        /* \"#utility.yul\":2754:2756   */\n      dup1\n        /* \"#utility.yul\":2746:2752   */\n      dup3\n        /* \"#utility.yul\":2743:2757   */\n      gt\n        /* \"#utility.yul\":2740:2774   */\n      iszero\n      tag_65\n      jumpi\n        /* \"#utility.yul\":2770:2771   */\n      0x00\n        /* \"#utility.yul\":2767:2768   */\n      dup1\n        /* \"#utility.yul\":2760:2772   */\n      revert\n        /* \"#utility.yul\":2740:2774   */\n    tag_65:\n        /* \"#utility.yul\":2809:2867   */\n      tag_66\n        /* \"#utility.yul\":2859:2866   */\n      dup12\n        /* \"#utility.yul\":2850:2856   */\n      dup4\n        /* \"#utility.yul\":2839:2848   */\n      dup13\n        /* \"#utility.yul\":2835:2857   */\n      add\n        /* \"#utility.yul\":2809:2867   */\n      tag_28\n      jump\t// in\n    tag_66:\n        /* \"#utility.yul\":2886:2894   */\n      swap1\n      swap10\n      pop\n        /* \"#utility.yul\":2783:2867   */\n      swap8\n      pop\n        /* \"#utility.yul\":2968:2970   */\n      0x20\n        /* \"#utility.yul\":2953:2971   */\n      dup11\n      add\n        /* \"#utility.yul\":2940:2972   */\n      calldataload\n      swap7\n      pop\n        /* \"#utility.yul\":3022:3024   */\n      0x40\n        /* \"#utility.yul\":3007:3025   */\n      dup11\n      add\n        /* \"#utility.yul\":2994:3026   */\n      calldataload\n      swap2\n      pop\n        /* \"#utility.yul\":3035:3066   */\n      tag_67\n        /* \"#utility.yul\":2994:3026   */\n      dup3\n        /* \"#utility.yul\":3035:3066   */\n      tag_68\n      jump\t// in\n    tag_67:\n        /* \"#utility.yul\":3085:3090   */\n      swap1\n      swap5\n      pop\n        /* \"#utility.yul\":3143:3145   */\n      0x60\n        /* \"#utility.yul\":3128:3146   */\n      dup10\n      add\n        /* \"#utility.yul\":3115:3147   */\n      calldataload\n      swap1\n        /* \"#utility.yul\":3159:3175   */\n      dup1\n      dup3\n      gt\n        /* \"#utility.yul\":3156:3192   */\n      iszero\n      tag_69\n      jumpi\n        /* \"#utility.yul\":3188:3189   */\n      0x00\n        /* \"#utility.yul\":3185:3186   */\n      dup1\n        /* \"#utility.yul\":3178:3190   */\n      revert\n        /* \"#utility.yul\":3156:3192   */\n    tag_69:\n        /* \"#utility.yul\":3226:3234   */\n      dup2\n        /* \"#utility.yul\":3215:3224   */\n      dup11\n        /* \"#utility.yul\":3211:3235   */\n      add\n        /* \"#utility.yul\":3201:3235   */\n      swap2\n      pop\n        /* \"#utility.yul\":3273:3280   */\n      dup11\n        /* \"#utility.yul\":3266:3270   */\n      0x1f\n        /* \"#utility.yul\":3262:3264   */\n      dup4\n        /* \"#utility.yul\":3258:3271   */\n      add\n        /* \"#utility.yul\":3254:3281   */\n      slt\n        /* \"#utility.yul\":3244:3299   */\n      tag_70\n      jumpi\n        /* \"#utility.yul\":3295:3296   */\n      0x00\n        /* \"#utility.yul\":3292:3293   */\n      dup1\n        /* \"#utility.yul\":3285:3297   */\n      revert\n        /* \"#utility.yul\":3244:3299   */\n    tag_70:\n        /* \"#utility.yul\":3335:3337   */\n      dup2\n        /* \"#utility.yul\":3322:3338   */\n      calldataload\n        /* \"#utility.yul\":3361:3363   */\n      dup2\n        /* \"#utility.yul\":3353:3359   */\n      dup2\n        /* \"#utility.yul\":3350:3364   */\n      gt\n        /* \"#utility.yul\":3347:3381   */\n      iszero\n      tag_71\n      jumpi\n        /* \"#utility.yul\":3377:3378   */\n      0x00\n        /* \"#utility.yul\":3374:3375   */\n      dup1\n        /* \"#utility.yul\":3367:3379   */\n      revert\n        /* \"#utility.yul\":3347:3381   */\n    tag_71:\n        /* \"#utility.yul\":3430:3437   */\n      dup12\n        /* \"#utility.yul\":3425:3427   */\n      0x20\n        /* \"#utility.yul\":3415:3421   */\n      dup3\n        /* \"#utility.yul\":3412:3413   */\n      0x05\n        /* \"#utility.yul\":3408:3422   */\n      shl\n        /* \"#utility.yul\":3404:3406   */\n      dup6\n        /* \"#utility.yul\":3400:3423   */\n      add\n        /* \"#utility.yul\":3396:3428   */\n      add\n        /* \"#utility.yul\":3393:3438   */\n      gt\n        /* \"#utility.yul\":3390:3455   */\n      iszero\n      tag_72\n      jumpi\n        /* \"#utility.yul\":3451:3452   */\n      0x00\n        /* \"#utility.yul\":3448:3449   */\n      dup1\n        /* \"#utility.yul\":3441:3453   */\n      revert\n        /* \"#utility.yul\":3390:3455   */\n    tag_72:\n        /* \"#utility.yul\":3482:3484   */\n      0x20\n        /* \"#utility.yul\":3478:3480   */\n      dup4\n        /* \"#utility.yul\":3474:3485   */\n      add\n        /* \"#utility.yul\":3464:3485   */\n      swap6\n      pop\n        /* \"#utility.yul\":3504:3510   */\n      dup1\n        /* \"#utility.yul\":3494:3510   */\n      swap5\n      pop\n      pop\n        /* \"#utility.yul\":3563:3566   */\n      0x80\n        /* \"#utility.yul\":3552:3561   */\n      dup11\n        /* \"#utility.yul\":3548:3567   */\n      add\n        /* \"#utility.yul\":3535:3568   */\n      calldataload\n        /* \"#utility.yul\":3519:3568   */\n      swap2\n      pop\n        /* \"#utility.yul\":3593:3595   */\n      dup1\n        /* \"#utility.yul\":3583:3591   */\n      dup3\n        /* \"#utility.yul\":3580:3596   */\n      gt\n        /* \"#utility.yul\":3577:3613   */\n      iszero\n      tag_73\n      jumpi\n        /* \"#utility.yul\":3609:3610   */\n      0x00\n        /* \"#utility.yul\":3606:3607   */\n      dup1\n        /* \"#utility.yul\":3599:3611   */\n      revert\n        /* \"#utility.yul\":3577:3613   */\n    tag_73:\n      pop\n        /* \"#utility.yul\":3632:3702   */\n      tag_74\n        /* \"#utility.yul\":3694:3701   */\n      dup11\n        /* \"#utility.yul\":3683:3691   */\n      dup3\n        /* \"#utility.yul\":3672:3681   */\n      dup12\n        /* \"#utility.yul\":3668:3692   */\n      add\n        /* \"#utility.yul\":3632:3702   */\n      tag_42\n      jump\t// in\n    tag_74:\n        /* \"#utility.yul\":3622:3702   */\n      swap2\n      pop\n      pop\n        /* \"#utility.yul\":2367:3708   */\n      swap3\n      swap6\n      swap9\n      swap2\n      swap5\n      swap8\n      pop\n      swap3\n      swap6\n      pop\n      jump\t// out\n        /* \"#utility.yul\":3713:5305   */\n    tag_24:\n        /* \"#utility.yul\":3874:3880   */\n      0x00\n        /* \"#utility.yul\":3882:3888   */\n      dup1\n        /* \"#utility.yul\":3890:3896   */\n      0x00\n        /* \"#utility.yul\":3898:3904   */\n      dup1\n        /* \"#utility.yul\":3906:3912   */\n      0x00\n        /* \"#utility.yul\":3959:3962   */\n      0xa0\n        /* \"#utility.yul\":3947:3956   */\n      dup7\n        /* \"#utility.yul\":3938:3945   */\n      dup9\n        /* \"#utility.yul\":3934:3957   */\n      sub\n        /* \"#utility.yul\":3930:3963   */\n      slt\n        /* \"#utility.yul\":3927:3980   */\n      iszero\n      tag_76\n      jumpi\n        /* \"#utility.yul\":3976:3977   */\n      0x00\n        /* \"#utility.yul\":3973:3974   */\n      dup1\n        /* \"#utility.yul\":3966:3978   */\n      revert\n        /* \"#utility.yul\":3927:3980   */\n    tag_76:\n        /* \"#utility.yul\":4016:4025   */\n      dup6\n        /* \"#utility.yul\":4003:4026   */\n      calldataload\n        /* \"#utility.yul\":4045:4063   */\n      0xffffffffffffffff\n        /* \"#utility.yul\":4086:4088   */\n      dup1\n        /* \"#utility.yul\":4078:4084   */\n      dup3\n        /* \"#utility.yul\":4075:4089   */\n      gt\n        /* \"#utility.yul\":4072:4106   */\n      iszero\n      tag_77\n      jumpi\n        /* \"#utility.yul\":4102:4103   */\n      0x00\n        /* \"#utility.yul\":4099:4100   */\n      dup1\n        /* \"#utility.yul\":4092:4104   */\n      revert\n        /* \"#utility.yul\":4072:4106   */\n    tag_77:\n        /* \"#utility.yul\":4125:4175   */\n      tag_78\n        /* \"#utility.yul\":4167:4174   */\n      dup10\n        /* \"#utility.yul\":4158:4164   */\n      dup4\n        /* \"#utility.yul\":4147:4156   */\n      dup11\n        /* \"#utility.yul\":4143:4165   */\n      add\n        /* \"#utility.yul\":4125:4175   */\n      tag_33\n      jump\t// in\n    tag_78:\n        /* \"#utility.yul\":4115:4175   */\n      swap7\n      pop\n        /* \"#utility.yul\":4194:4196   */\n      0x20\n        /* \"#utility.yul\":4184:4196   */\n      swap2\n      pop\n        /* \"#utility.yul\":4243:4245   */\n      dup2\n        /* \"#utility.yul\":4232:4241   */\n      dup9\n        /* \"#utility.yul\":4228:4246   */\n      add\n        /* \"#utility.yul\":4215:4247   */\n      calldataload\n        /* \"#utility.yul\":4205:4247   */\n      swap6\n      pop\n        /* \"#utility.yul\":4297:4299   */\n      0x40\n        /* \"#utility.yul\":4286:4295   */\n      dup9\n        /* \"#utility.yul\":4282:4300   */\n      add\n        /* \"#utility.yul\":4269:4301   */\n      calldataload\n        /* \"#utility.yul\":4310:4341   */\n      tag_79\n        /* \"#utility.yul\":4335:4340   */\n      dup2\n        /* \"#utility.yul\":4310:4341   */\n      tag_68\n      jump\t// in\n    tag_79:\n        /* \"#utility.yul\":4360:4365   */\n      swap5\n      pop\n        /* \"#utility.yul\":4418:4420   */\n      0x60\n        /* \"#utility.yul\":4403:4421   */\n      dup9\n      add\n        /* \"#utility.yul\":4390:4422   */\n      calldataload\n        /* \"#utility.yul\":4434:4450   */\n      dup2\n      dup2\n      gt\n        /* \"#utility.yul\":4431:4467   */\n      iszero\n      tag_80\n      jumpi\n        /* \"#utility.yul\":4463:4464   */\n      0x00\n        /* \"#utility.yul\":4460:4461   */\n      dup1\n        /* \"#utility.yul\":4453:4465   */\n      revert\n        /* \"#utility.yul\":4431:4467   */\n    tag_80:\n        /* \"#utility.yul\":4486:4510   */\n      dup9\n      add\n        /* \"#utility.yul\":4541:4545   */\n      0x1f\n        /* \"#utility.yul\":4533:4546   */\n      dup2\n      add\n        /* \"#utility.yul\":4529:4556   */\n      dup11\n      sgt\n        /* \"#utility.yul\":4519:4574   */\n      tag_81\n      jumpi\n        /* \"#utility.yul\":4570:4571   */\n      0x00\n        /* \"#utility.yul\":4567:4568   */\n      dup1\n        /* \"#utility.yul\":4560:4572   */\n      revert\n        /* \"#utility.yul\":4519:4574   */\n    tag_81:\n        /* \"#utility.yul\":4606:4608   */\n      dup1\n        /* \"#utility.yul\":4593:4609   */\n      calldataload\n        /* \"#utility.yul\":4628:4630   */\n      dup3\n        /* \"#utility.yul\":4624:4626   */\n      dup2\n        /* \"#utility.yul\":4621:4631   */\n      gt\n        /* \"#utility.yul\":4618:4654   */\n      iszero\n      tag_83\n      jumpi\n        /* \"#utility.yul\":4634:4652   */\n      tag_83\n      tag_38\n      jump\t// in\n    tag_83:\n        /* \"#utility.yul\":4680:4682   */\n      dup1\n        /* \"#utility.yul\":4677:4678   */\n      0x05\n        /* \"#utility.yul\":4673:4683   */\n      shl\n        /* \"#utility.yul\":4703:4731   */\n      tag_84\n        /* \"#utility.yul\":4727:4729   */\n      dup6\n        /* \"#utility.yul\":4723:4725   */\n      dup3\n        /* \"#utility.yul\":4719:4730   */\n      add\n        /* \"#utility.yul\":4703:4731   */\n      tag_40\n      jump\t// in\n    tag_84:\n        /* \"#utility.yul\":4765:4780   */\n      dup3\n      dup2\n      mstore\n        /* \"#utility.yul\":4796:4808   */\n      dup6\n      dup2\n      add\n      swap1\n        /* \"#utility.yul\":4828:4839   */\n      dup5\n      dup8\n      add\n        /* \"#utility.yul\":4858:4869   */\n      dup4\n      dup7\n      add\n        /* \"#utility.yul\":4854:4874   */\n      dup9\n      add\n        /* \"#utility.yul\":4851:4884   */\n      dup16\n      lt\n        /* \"#utility.yul\":4848:4901   */\n      iszero\n      tag_85\n      jumpi\n        /* \"#utility.yul\":4897:4898   */\n      0x00\n        /* \"#utility.yul\":4894:4895   */\n      dup1\n        /* \"#utility.yul\":4887:4899   */\n      revert\n        /* \"#utility.yul\":4848:4901   */\n    tag_85:\n        /* \"#utility.yul\":4919:4920   */\n      0x00\n        /* \"#utility.yul\":4910:4920   */\n      swap6\n      pop\n        /* \"#utility.yul\":4929:5092   */\n    tag_86:\n        /* \"#utility.yul\":4943:4945   */\n      dup5\n        /* \"#utility.yul\":4940:4941   */\n      dup7\n        /* \"#utility.yul\":4937:4946   */\n      lt\n        /* \"#utility.yul\":4929:5092   */\n      iszero\n      tag_88\n      jumpi\n        /* \"#utility.yul\":5000:5017   */\n      dup1\n      calldataload\n        /* \"#utility.yul\":4988:5018   */\n      dup4\n      mstore\n        /* \"#utility.yul\":4961:4962   */\n      0x01\n        /* \"#utility.yul\":4954:4963   */\n      swap6\n      swap1\n      swap6\n      add\n      swap5\n        /* \"#utility.yul\":5038:5050   */\n      swap2\n      dup8\n      add\n      swap2\n        /* \"#utility.yul\":5070:5082   */\n      dup8\n      add\n        /* \"#utility.yul\":4929:5092   */\n      jump(tag_86)\n    tag_88:\n      pop\n        /* \"#utility.yul\":5111:5116   */\n      swap8\n      pop\n      pop\n      pop\n      pop\n        /* \"#utility.yul\":5169:5172   */\n      0x80\n        /* \"#utility.yul\":5154:5173   */\n      dup10\n      add\n        /* \"#utility.yul\":5141:5174   */\n      calldataload\n      swap3\n      pop\n      pop\n        /* \"#utility.yul\":5186:5202   */\n      dup1\n      dup3\n      gt\n        /* \"#utility.yul\":5183:5219   */\n      iszero\n      tag_89\n      jumpi\n        /* \"#utility.yul\":5215:5216   */\n      0x00\n        /* \"#utility.yul\":5212:5213   */\n      dup1\n        /* \"#utility.yul\":5205:5217   */\n      revert\n        /* \"#utility.yul\":5183:5219   */\n    tag_89:\n      pop\n        /* \"#utility.yul\":5238:5299   */\n      tag_90\n        /* \"#utility.yul\":5291:5298   */\n      dup9\n        /* \"#utility.yul\":5280:5288   */\n      dup3\n        /* \"#utility.yul\":5269:5278   */\n      dup10\n        /* \"#utility.yul\":5265:5289   */\n      add\n        /* \"#utility.yul\":5238:5299   */\n      tag_45\n      jump\t// in\n    tag_90:\n        /* \"#utility.yul\":5228:5299   */\n      swap2\n      pop\n      pop\n        /* \"#utility.yul\":3713:5305   */\n      swap3\n      swap6\n      pop\n      swap3\n      swap6\n      swap1\n      swap4\n      pop\n      jump\t// out\n        /* \"#utility.yul\":5310:5840   */\n    tag_91:\n        /* \"#utility.yul\":5351:5354   */\n      0x00\n        /* \"#utility.yul\":5389:5394   */\n      dup2\n        /* \"#utility.yul\":5383:5395   */\n      mload\n        /* \"#utility.yul\":5416:5422   */\n      dup1\n        /* \"#utility.yul\":5411:5414   */\n      dup5\n        /* \"#utility.yul\":5404:5423   */\n      mstore\n        /* \"#utility.yul\":5441:5442   */\n      0x00\n        /* \"#utility.yul\":5451:5613   */\n    tag_93:\n        /* \"#utility.yul\":5465:5471   */\n      dup2\n        /* \"#utility.yul\":5462:5463   */\n      dup2\n        /* \"#utility.yul\":5459:5472   */\n      lt\n        /* \"#utility.yul\":5451:5613   */\n      iszero\n      tag_95\n      jumpi\n        /* \"#utility.yul\":5527:5531   */\n      0x20\n        /* \"#utility.yul\":5583:5596   */\n      dup2\n      dup6\n      add\n        /* \"#utility.yul\":5579:5601   */\n      dup2\n      add\n        /* \"#utility.yul\":5573:5602   */\n      mload\n        /* \"#utility.yul\":5555:5566   */\n      dup7\n      dup4\n      add\n        /* \"#utility.yul\":5551:5571   */\n      dup3\n      add\n        /* \"#utility.yul\":5544:5603   */\n      mstore\n        /* \"#utility.yul\":5480:5492   */\n      add\n        /* \"#utility.yul\":5451:5613   */\n      jump(tag_93)\n    tag_95:\n        /* \"#utility.yul\":5631:5637   */\n      dup2\n        /* \"#utility.yul\":5628:5629   */\n      dup2\n        /* \"#utility.yul\":5625:5638   */\n      gt\n        /* \"#utility.yul\":5622:5709   */\n      iszero\n      tag_96\n      jumpi\n        /* \"#utility.yul\":5697:5698   */\n      0x00\n        /* \"#utility.yul\":5690:5694   */\n      0x20\n        /* \"#utility.yul\":5681:5687   */\n      dup4\n        /* \"#utility.yul\":5676:5679   */\n      dup8\n        /* \"#utility.yul\":5672:5688   */\n      add\n        /* \"#utility.yul\":5668:5695   */\n      add\n        /* \"#utility.yul\":5661:5699   */\n      mstore\n        /* \"#utility.yul\":5622:5709   */\n    tag_96:\n      pop\n        /* \"#utility.yul\":5754:5756   */\n      0x1f\n        /* \"#utility.yul\":5742:5757   */\n      add\n        /* \"#utility.yul\":5759:5825   */\n      0xffffffffffffffffffffffffffffffffffffffffffffffffffffffffffffffe0\n        /* \"#utility.yul\":5738:5826   */\n      and\n        /* \"#utility.yul\":5729:5827   */\n      swap3\n      swap1\n      swap3\n      add\n        /* \"#utility.yul\":5829:5833   */\n      0x20\n        /* \"#utility.yul\":5725:5834   */\n      add\n      swap3\n        /* \"#utility.yul\":5310:5840   */\n      swap2\n      pop\n      pop\n      jump\t// out\n        /* \"#utility.yul\":5845:6171   */\n    tag_97:\n        /* \"#utility.yul\":5934:5940   */\n      dup2\n        /* \"#utility.yul\":5929:5932   */\n      dup4\n        /* \"#utility.yul\":5922:5941   */\n      mstore\n        /* \"#utility.yul\":5986:5992   */\n      dup2\n        /* \"#utility.yul\":5979:5984   */\n      dup2\n        /* \"#utility.yul\":5972:5976   */\n      0x20\n        /* \"#utility.yul\":5967:5970   */\n      dup6\n        /* \"#utility.yul\":5963:5977   */\n      add\n        /* \"#utility.yul\":5950:5993   */\n      calldatacopy\n      pop\n        /* \"#utility.yul\":6038:6039   */\n      0x00\n        /* \"#utility.yul\":6031:6035   */\n      0x20\n        /* \"#utility.yul\":6022:6028   */\n      dup3\n        /* \"#utility.yul\":6017:6020   */\n      dup5\n        /* \"#utility.yul\":6013:6029   */\n      add\n        /* \"#utility.yul\":6009:6036   */\n      add\n        /* \"#utility.yul\":6002:6040   */\n      mstore\n        /* \"#utility.yul\":5904:5907   */\n      0x00\n        /* \"#utility.yul\":6160:6164   */\n      0x20\n        /* \"#utility.yul\":6090:6156   */\n      0xffffffffffffffffffffffffffffffffffffffffffffffffffffffffffffffe0\n        /* \"#utility.yul\":6085:6087   */\n      0x1f\n        /* \"#utility.yul\":6077:6083   */\n      dup5\n        /* \"#utility.yul\":6073:6088   */\n      add\n        /* \"#utility.yul\":6069:6157   */\n      and\n        /* \"#utility.yul\":6064:6067   */\n      dup5\n        /* \"#utility.yul\":6060:6158   */\n      add\n        /* \"#utility.yul\":6056:6165   */\n      add\n        /* \"#utility.yul\":6049:6165   */\n      swap1\n      pop\n        /* \"#utility.yul\":5845:6171   */\n      swap3\n      swap2\n      pop\n      pop\n      jump\t// out\n        /* \"#utility.yul\":6176:6393   */\n    tag_10:\n        /* \"#utility.yul\":6323:6325   */\n      0x20\n        /* \"#utility.yul\":6312:6321   */\n      dup2\n        /* \"#utility.yul\":6305:6326   */\n      mstore\n        /* \"#utility.yul\":6286:6290   */\n      0x00\n        /* \"#utility.yul\":6343:6387   */\n      tag_100\n        /* \"#utility.yul\":6383:6385   */\n      0x20\n        /* \"#utility.yul\":6372:6381   */\n      dup4\n        /* \"#utility.yul\":6368:6386   */\n      add\n        /* \"#utility.yul\":6360:6366   */\n      dup5\n        /* \"#utility.yul\":6343:6387   */\n      tag_91\n      jump\t// in\n    tag_100:\n        /* \"#utility.yul\":6335:6387   */\n      swap4\n        /* \"#utility.yul\":6176:6393   */\n      swap3\n      pop\n      pop\n      pop\n      jump\t// out\n        /* \"#utility.yul\":6398:8191   */\n    tag_19:\n        /* \"#utility.yul\":6777:6780   */\n      0xa0\n        /* \"#utility.yul\":6766:6775   */\n      dup2\n        /* \"#utility.yul\":6759:6781   */\n      mstore\n        /* \"#utility.yul\":6740:6744   */\n      0x00\n        /* \"#utility.yul\":6804:6867   */\n      tag_102\n        /* \"#utility.yul\":6862:6865   */\n      0xa0\n        /* \"#utility.yul\":6851:6860   */\n      dup4\n        /* \"#utility.yul\":6847:6866   */\n      add\n        /* \"#utility.yul\":6839:6845   */\n      dup10\n        /* \"#utility.yul\":6831:6837   */\n      dup12\n        /* \"#utility.yul\":6804:6867   */\n      tag_97\n      jump\t// in\n    tag_102:\n        /* \"#utility.yul\":6886:6888   */\n      0x20\n        /* \"#utility.yul\":6924:6930   */\n      dup9\n        /* \"#utility.yul\":6919:6921   */\n      dup2\n        /* \"#utility.yul\":6908:6917   */\n      dup6\n        /* \"#utility.yul\":6904:6922   */\n      add\n        /* \"#utility.yul\":6897:6931   */\n      mstore\n        /* \"#utility.yul\":6979:7021   */\n      0xffffffffffffffffffffffffffffffffffffffff\n        /* \"#utility.yul\":6971:6977   */\n      dup9\n        /* \"#utility.yul\":6967:7022   */\n      and\n        /* \"#utility.yul\":6962:6964   */\n      0x40\n        /* \"#utility.yul\":6951:6960   */\n      dup6\n        /* \"#utility.yul\":6947:6965   */\n      add\n        /* \"#utility.yul\":6940:7023   */\n      mstore\n        /* \"#utility.yul\":7071:7080   */\n      dup4\n        /* \"#utility.yul\":7063:7069   */\n      dup3\n        /* \"#utility.yul\":7059:7081   */\n      sub\n        /* \"#utility.yul\":7054:7056   */\n      0x60\n        /* \"#utility.yul\":7043:7052   */\n      dup6\n        /* \"#utility.yul\":7039:7057   */\n      add\n        /* \"#utility.yul\":7032:7082   */\n      mstore\n        /* \"#utility.yul\":7106:7112   */\n      dup6\n        /* \"#utility.yul\":7098:7104   */\n      dup3\n        /* \"#utility.yul\":7091:7113   */\n      mstore\n        /* \"#utility.yul\":7136:7202   */\n      0x07ffffffffffffffffffffffffffffffffffffffffffffffffffffffffffffff\n        /* \"#utility.yul\":7128:7134   */\n      dup7\n        /* \"#utility.yul\":7125:7203   */\n      gt\n        /* \"#utility.yul\":7122:7220   */\n      iszero\n      tag_103\n      jumpi\n        /* \"#utility.yul\":7216:7217   */\n      0x00\n        /* \"#utility.yul\":7213:7214   */\n      dup1\n        /* \"#utility.yul\":7206:7218   */\n      revert\n        /* \"#utility.yul\":7122:7220   */\n    tag_103:\n        /* \"#utility.yul\":7250:7256   */\n      dup6\n        /* \"#utility.yul\":7247:7248   */\n      0x05\n        /* \"#utility.yul\":7243:7257   */\n      shl\n        /* \"#utility.yul\":7304:7310   */\n      dup1\n        /* \"#utility.yul\":7296:7302   */\n      dup9\n        /* \"#utility.yul\":7291:7293   */\n      dup4\n        /* \"#utility.yul\":7283:7289   */\n      dup6\n        /* \"#utility.yul\":7279:7294   */\n      add\n        /* \"#utility.yul\":7266:7311   */\n      calldatacopy\n        /* \"#utility.yul\":7342:7348   */\n      dup1\n        /* \"#utility.yul\":7334:7340   */\n      dup4\n        /* \"#utility.yul\":7330:7349   */\n      add\n        /* \"#utility.yul\":7320:7349   */\n      swap3\n      pop\n      pop\n        /* \"#utility.yul\":7376:7378   */\n      dup1\n        /* \"#utility.yul\":7372:7374   */\n      dup3\n        /* \"#utility.yul\":7368:7379   */\n      add\n        /* \"#utility.yul\":7398:7399   */\n      0x00\n        /* \"#utility.yul\":7419:7421   */\n      dup1\n        /* \"#utility.yul\":7415:7417   */\n      dup3\n        /* \"#utility.yul\":7408:7422   */\n      mstore\n        /* \"#utility.yul\":7483:7485   */\n      dup3\n        /* \"#utility.yul\":7471:7480   */\n      dup7\n        /* \"#utility.yul\":7467:7469   */\n      dup6\n        /* \"#utility.yul\":7463:7481   */\n      sub\n        /* \"#utility.yul\":7459:7486   */\n      add\n        /* \"#utility.yul\":7453:7456   */\n      0x80\n        /* \"#utility.yul\":7442:7451   */\n      dup8\n        /* \"#utility.yul\":7438:7457   */\n      add\n        /* \"#utility.yul\":7431:7487   */\n      mstore\n        /* \"#utility.yul\":7518:7521   */\n      0x80\n        /* \"#utility.yul\":7514:7516   */\n      dup5\n        /* \"#utility.yul\":7510:7522   */\n      add\n        /* \"#utility.yul\":7570:7576   */\n      dup8\n        /* \"#utility.yul\":7557:7577   */\n      calldataload\n        /* \"#utility.yul\":7653:7719   */\n      0xffffffffffffffffffffffffffffffffffffffffffffffffffffffffffffffe1\n        /* \"#utility.yul\":7644:7650   */\n      dup10\n        /* \"#utility.yul\":7628:7642   */\n      calldatasize\n        /* \"#utility.yul\":7624:7651   */\n      sub\n        /* \"#utility.yul\":7620:7720   */\n      add\n        /* \"#utility.yul\":7600:7618   */\n      dup2\n        /* \"#utility.yul\":7596:7721   */\n      slt\n        /* \"#utility.yul\":7586:7741   */\n      tag_104\n      jumpi\n        /* \"#utility.yul\":7736:7738   */\n      dup3\n        /* \"#utility.yul\":7732:7734   */\n      dup4\n        /* \"#utility.yul\":7725:7739   */\n      revert\n        /* \"#utility.yul\":7586:7741   */\n    tag_104:\n        /* \"#utility.yul\":7763:7794   */\n      dup9\n      add\n        /* \"#utility.yul\":7819:7838   */\n      dup1\n      calldataload\n        /* \"#utility.yul\":7863:7881   */\n      0xffffffffffffffff\n        /* \"#utility.yul\":7850:7882   */\n      dup2\n      gt\n        /* \"#utility.yul\":7847:7901   */\n      iszero\n      tag_105\n      jumpi\n        /* \"#utility.yul\":7896:7898   */\n      dup4\n        /* \"#utility.yul\":7892:7894   */\n      dup5\n        /* \"#utility.yul\":7885:7899   */\n      revert\n        /* \"#utility.yul\":7847:7901   */\n    tag_105:\n        /* \"#utility.yul\":7945:7953   */\n      dup1\n        /* \"#utility.yul\":7929:7943   */\n      calldatasize\n        /* \"#utility.yul\":7925:7954   */\n      sub\n        /* \"#utility.yul\":7917:7923   */\n      dup11\n        /* \"#utility.yul\":7913:7955   */\n      sgt\n        /* \"#utility.yul\":7910:7974   */\n      iszero\n      tag_106\n      jumpi\n        /* \"#utility.yul\":7969:7971   */\n      dup4\n        /* \"#utility.yul\":7965:7967   */\n      dup5\n        /* \"#utility.yul\":7958:7972   */\n      revert\n        /* \"#utility.yul\":7910:7974   */\n    tag_106:\n        /* \"#utility.yul\":7994:7996   */\n      0x60\n        /* \"#utility.yul\":7990:7992   */\n      dup6\n        /* \"#utility.yul\":7983:7997   */\n      mstore\n        /* \"#utility.yul\":8020:8080   */\n      tag_107\n        /* \"#utility.yul\":8073:8079   */\n      dup4\n        /* \"#utility.yul\":8063:8071   */\n      dup3\n        /* \"#utility.yul\":8058:8060   */\n      dup9\n        /* \"#utility.yul\":8051:8056   */\n      dup6\n        /* \"#utility.yul\":8047:8061   */\n      add\n        /* \"#utility.yul\":8020:8080   */\n      tag_97\n      jump\t// in\n    tag_107:\n        /* \"#utility.yul\":8006:8080   */\n      swap5\n      pop\n      pop\n      pop\n        /* \"#utility.yul\":8132:8134   */\n      0x40\n        /* \"#utility.yul\":8127:8129   */\n      dup5\n        /* \"#utility.yul\":8119:8125   */\n      dup10\n        /* \"#utility.yul\":8115:8130   */\n      add\n        /* \"#utility.yul\":8110:8112   */\n      0x40\n        /* \"#utility.yul\":8106:8108   */\n      dup8\n        /* \"#utility.yul\":8102:8113   */\n      add\n        /* \"#utility.yul\":8089:8135   */\n      calldatacopy\n        /* \"#utility.yul\":8144:8162   */\n      mstore\n        /* \"#utility.yul\":8179:8185   */\n      swap12\n        /* \"#utility.yul\":6398:8191   */\n      swap11\n      pop\n      pop\n      pop\n      pop\n      pop\n      pop\n      pop\n      pop\n      pop\n      pop\n      pop\n      jump\t// out\n        /* \"#utility.yul\":8196:9782   */\n    tag_16:\n        /* \"#utility.yul\":8553:8556   */\n      0xa0\n        /* \"#utility.yul\":8542:8551   */\n      dup2\n        /* \"#utility.yul\":8535:8557   */\n      mstore\n        /* \"#utility.yul\":8516:8520   */\n      0x00\n        /* \"#utility.yul\":8580:8625   */\n      tag_109\n        /* \"#utility.yul\":8620:8623   */\n      0xa0\n        /* \"#utility.yul\":8609:8618   */\n      dup4\n        /* \"#utility.yul\":8605:8624   */\n      add\n        /* \"#utility.yul\":8597:8603   */\n      dup9\n        /* \"#utility.yul\":8580:8625   */\n      tag_91\n      jump\t// in\n    tag_109:\n        /* \"#utility.yul\":8644:8646   */\n      0x20\n        /* \"#utility.yul\":8662:8680   */\n      dup4\n      dup2\n      add\n        /* \"#utility.yul\":8655:8689   */\n      dup9\n      swap1\n      mstore\n        /* \"#utility.yul\":8737:8779   */\n      0xffffffffffffffffffffffffffffffffffffffff\n        /* \"#utility.yul\":8725:8780   */\n      dup8\n      and\n        /* \"#utility.yul\":8720:8722   */\n      0x40\n        /* \"#utility.yul\":8705:8723   */\n      dup6\n      add\n        /* \"#utility.yul\":8698:8781   */\n      mstore\n        /* \"#utility.yul\":8817:8839   */\n      dup4\n      dup3\n      sub\n        /* \"#utility.yul\":8812:8814   */\n      0x60\n        /* \"#utility.yul\":8797:8815   */\n      dup6\n      add\n        /* \"#utility.yul\":8790:8840   */\n      mstore\n        /* \"#utility.yul\":8889:8902   */\n      dup6\n      mload\n        /* \"#utility.yul\":8911:8933   */\n      dup1\n      dup4\n      mstore\n        /* \"#utility.yul\":8987:9002   */\n      dup7\n      dup3\n      add\n      swap3\n        /* \"#utility.yul\":8949:8964   */\n      dup3\n      add\n      swap1\n      0x00\n        /* \"#utility.yul\":9030:9199   */\n    tag_110:\n        /* \"#utility.yul\":9044:9050   */\n      dup2\n        /* \"#utility.yul\":9041:9042   */\n      dup2\n        /* \"#utility.yul\":9038:9051   */\n      lt\n        /* \"#utility.yul\":9030:9199   */\n      iszero\n      tag_112\n      jumpi\n        /* \"#utility.yul\":9105:9118   */\n      dup5\n      mload\n        /* \"#utility.yul\":9093:9119   */\n      dup4\n      mstore\n        /* \"#utility.yul\":9174:9189   */\n      swap4\n      dup4\n      add\n      swap4\n        /* \"#utility.yul\":9139:9151   */\n      swap2\n      dup4\n      add\n      swap2\n        /* \"#utility.yul\":9066:9067   */\n      0x01\n        /* \"#utility.yul\":9059:9068   */\n      add\n        /* \"#utility.yul\":9030:9199   */\n      jump(tag_110)\n    tag_112:\n        /* \"#utility.yul\":9034:9037   */\n      pop\n      pop\n        /* \"#utility.yul\":9245:9254   */\n      dup5\n        /* \"#utility.yul\":9240:9243   */\n      dup2\n        /* \"#utility.yul\":9236:9255   */\n      sub\n        /* \"#utility.yul\":9230:9233   */\n      0x80\n        /* \"#utility.yul\":9219:9228   */\n      dup7\n        /* \"#utility.yul\":9215:9234   */\n      add\n        /* \"#utility.yul\":9208:9256   */\n      mstore\n        /* \"#utility.yul\":9291:9297   */\n      dup6\n        /* \"#utility.yul\":9285:9298   */\n      mload\n        /* \"#utility.yul\":9265:9298   */\n      swap3\n      pop\n        /* \"#utility.yul\":9319:9321   */\n      0x60\n        /* \"#utility.yul\":9314:9317   */\n      dup2\n        /* \"#utility.yul\":9307:9322   */\n      mstore\n        /* \"#utility.yul\":9345:9389   */\n      tag_113\n        /* \"#utility.yul\":9385:9387   */\n      0x60\n        /* \"#utility.yul\":9380:9383   */\n      dup3\n        /* \"#utility.yul\":9376:9388   */\n      add\n        /* \"#utility.yul\":9362:9374   */\n      dup5\n        /* \"#utility.yul\":9345:9389   */\n      tag_91\n      jump\t// in\n    tag_113:\n        /* \"#utility.yul\":9331:9389   */\n      swap3\n      pop\n        /* \"#utility.yul\":9438:9440   */\n      dup2\n        /* \"#utility.yul\":9430:9436   */\n      dup7\n        /* \"#utility.yul\":9426:9441   */\n      add\n        /* \"#utility.yul\":9420:9442   */\n      mload\n        /* \"#utility.yul\":9473:9475   */\n      dup3\n        /* \"#utility.yul\":9468:9471   */\n      dup3\n        /* \"#utility.yul\":9464:9476   */\n      add\n        /* \"#utility.yul\":9451:9476   */\n      swap2\n      pop\n        /* \"#utility.yul\":9558:9559   */\n      0x00\n        /* \"#utility.yul\":9568:9753   */\n    tag_114:\n        /* \"#utility.yul\":9584:9588   */\n      0x02\n        /* \"#utility.yul\":9579:9582   */\n      dup2\n        /* \"#utility.yul\":9576:9589   */\n      lt\n        /* \"#utility.yul\":9568:9753   */\n      iszero\n      tag_116\n      jumpi\n        /* \"#utility.yul\":9649:9664   */\n      dup2\n      mload\n        /* \"#utility.yul\":9635:9665   */\n      dup4\n      mstore\n        /* \"#utility.yul\":9687:9701   */\n      swap2\n      dup4\n      add\n      swap2\n        /* \"#utility.yul\":9726:9743   */\n      swap1\n      dup4\n      add\n      swap1\n        /* \"#utility.yul\":9608:9609   */\n      0x01\n        /* \"#utility.yul\":9599:9610   */\n      add\n        /* \"#utility.yul\":9568:9753   */\n      jump(tag_114)\n    tag_116:\n      pop\n        /* \"#utility.yul\":9770:9776   */\n      swap3\n      swap11\n        /* \"#utility.yul\":8196:9782   */\n      swap10\n      pop\n      pop\n      pop\n      pop\n      pop\n      pop\n      pop\n      pop\n      pop\n      pop\n      jump\t// out\n        /* \"#utility.yul\":9787:10044   */\n    tag_49:\n        /* \"#utility.yul\":9859:9863   */\n      0x40\n        /* \"#utility.yul\":9853:9864   */\n      dup1\n      mload\n      swap1\n        /* \"#utility.yul\":9891:9908   */\n      dup2\n      add\n        /* \"#utility.yul\":9938:9956   */\n      0xffffffffffffffff\n        /* \"#utility.yul\":9923:9957   */\n      dup2\n      gt\n        /* \"#utility.yul\":9959:9981   */\n      dup3\n      dup3\n      lt\n        /* \"#utility.yul\":9920:9982   */\n      or\n        /* \"#utility.yul\":9917:10005   */\n      iszero\n      tag_119\n      jumpi\n        /* \"#utility.yul\":9985:10003   */\n      tag_119\n      tag_38\n      jump\t// in\n    tag_119:\n        /* \"#utility.yul\":10021:10025   */\n      0x40\n        /* \"#utility.yul\":10014:10038   */\n      mstore\n        /* \"#utility.yul\":9787:10044   */\n      swap1\n      jump\t// out\n        /* \"#utility.yul\":10305:10639   */\n    tag_40:\n        /* \"#utility.yul\":10376:10378   */\n      0x40\n        /* \"#utility.yul\":10370:10379   */\n      mload\n        /* \"#utility.yul\":10432:10434   */\n      0x1f\n        /* \"#utility.yul\":10422:10435   */\n      dup3\n      add\n        /* \"#utility.yul\":10437:10503   */\n      0xffffffffffffffffffffffffffffffffffffffffffffffffffffffffffffffe0\n        /* \"#utility.yul\":10418:10504   */\n      and\n        /* \"#utility.yul\":10406:10505   */\n      dup2\n      add\n        /* \"#utility.yul\":10535:10553   */\n      0xffffffffffffffff\n        /* \"#utility.yul\":10520:10554   */\n      dup2\n      gt\n        /* \"#utility.yul\":10556:10578   */\n      dup3\n      dup3\n      lt\n        /* \"#utility.yul\":10517:10579   */\n      or\n        /* \"#utility.yul\":10514:10602   */\n      iszero\n      tag_125\n      jumpi\n        /* \"#utility.yul\":10582:10600   */\n      tag_125\n      tag_38\n      jump\t// in\n    tag_125:\n        /* \"#utility.yul\":10618:10620   */\n      0x40\n        /* \"#utility.yul\":10611:10633   */\n      mstore\n        /* \"#utility.yul\":10305:10639   */\n      swap2\n      swap1\n      pop\n      jump\t// out\n        /* \"#utility.yul\":10644:10828   */\n    tag_38:\n        /* \"#utility.yul\":10696:10773   */\n      0x4e487b7100000000000000000000000000000000000000000000000000000000\n        /* \"#utility.yul\":10693:10694   */\n      0x00\n        /* \"#utility.yul\":10686:10774   */\n      mstore\n        /* \"#utility.yul\":10793:10797   */\n      0x41\n        /* \"#utility.yul\":10790:10791   */\n      0x04\n        /* \"#utility.yul\":10783:10798   */\n      mstore\n        /* \"#utility.yul\":10817:10821   */\n      0x24\n        /* \"#utility.yul\":10814:10815   */\n      0x00\n        /* \"#utility.yul\":10807:10822   */\n      revert\n        /* \"#utility.yul\":10833:10987   */\n    tag_68:\n        /* \"#utility.yul\":10919:10961   */\n      0xffffffffffffffffffffffffffffffffffffffff\n        /* \"#utility.yul\":10912:10917   */\n      dup2\n        /* \"#utility.yul\":10908:10962   */\n      and\n        /* \"#utility.yul\":10901:10906   */\n      dup2\n        /* \"#utility.yul\":10898:10963   */\n      eq\n        /* \"#utility.yul\":10888:10981   */\n      tag_128\n      jumpi\n        /* \"#utility.yul\":10977:10978   */\n      0x00\n        /* \"#utility.yul\":10974:10975   */\n      dup1\n        /* \"#utility.yul\":10967:10979   */\n      revert\n        /* \"#utility.yul\":10888:10981   */\n    tag_128:\n        /* \"#utility.yul\":10833:10987   */\n      pop\n      jump\t// out\n\n    auxdata: 0xa264697066735822122017ce8d4dd89660e2806a3ff92e6d65b7497ac1fa2b0c4cfac89f3ebc112c759064736f6c63430008070033\n}\n",
				"bytecode": {
					"linkReferences": {},
					"object": "608060405234801561001057600080fd5b5061089f806100206000396000f3fe608060405234801561001057600080fd5b50600436106100365760003560e01c80630cc6a8be1461003b578063e5c5e9a314610064575b600080fd5b61004e6100493660046102fe565b610088565b60405161005b91906105a4565b60405180910390f35b6100776100723660046102bc565b6100c3565b60405161005b9594939291906106d9565b6060878787878787876040516020016100a797969594939291906105be565b6040516020818303038152906040529050979650505050505050565b606060008060606100d26100f1565b6100de868801886103e1565b939b929a50909850965090945092505050565b60405180604001604052806060815260200161010b610110565b905290565b60405180604001604052806002906020820280368337509192915050565b60008083601f84011261014057600080fd5b50813567ffffffffffffffff81111561015857600080fd5b60208301915083602082850101111561017057600080fd5b9250929050565b600082601f83011261018857600080fd5b813567ffffffffffffffff8111156101a2576101a2610815565b6101d360207fffffffffffffffffffffffffffffffffffffffffffffffffffffffffffffffe0601f840116016107c6565b8181528460208386010111156101e857600080fd5b816020850160208301376000918101602001919091529392505050565b60006060828403121561021757600080fd5b50919050565b60006060828403121561022f57600080fd5b61023761079d565b9050813567ffffffffffffffff81111561025057600080fd5b61025c84828501610177565b825250602083603f84011261027057600080fd5b61027861079d565b808285018660608701111561028c57600080fd5b60005b60028110156102ac5781358452928401929084019060010161028f565b5050808385015250505092915050565b600080602083850312156102cf57600080fd5b823567ffffffffffffffff8111156102e657600080fd5b6102f28582860161012e565b90969095509350505050565b600080600080600080600060a0888a03121561031957600080fd5b873567ffffffffffffffff8082111561033157600080fd5b61033d8b838c0161012e565b909950975060208a0135965060408a0135915061035982610844565b9094506060890135908082111561036f57600080fd5b818a0191508a601f83011261038357600080fd5b81358181111561039257600080fd5b8b60208260051b85010111156103a757600080fd5b6020830195508094505060808a01359150808211156103c557600080fd5b506103d28a828b01610205565b91505092959891949750929550565b600080600080600060a086880312156103f957600080fd5b853567ffffffffffffffff8082111561041157600080fd5b61041d89838a01610177565b965060209150818801359550604088013561043781610844565b945060608801358181111561044b57600080fd5b8801601f81018a1361045c57600080fd5b80358281111561046e5761046e610815565b8060051b61047d8582016107c6565b8281528581019084870183860188018f101561049857600080fd5b600095505b848610156104bb57803583526001959095019491870191870161049d565b5097505050506080890135925050808211156104d657600080fd5b506104e38882890161021d565b9150509295509295909350565b6000815180845260005b81811015610516576020818501810151868301820152016104fa565b81811115610528576000602083870101525b50601f017fffffffffffffffffffffffffffffffffffffffffffffffffffffffffffffffe0169290920160200192915050565b8183528181602085013750600060208284010152600060207fffffffffffffffffffffffffffffffffffffffffffffffffffffffffffffffe0601f840116840101905092915050565b6020815260006105b760208301846104f0565b9392505050565b60a0815260006105d260a08301898b61055b565b6020888185015273ffffffffffffffffffffffffffffffffffffffff8816604085015283820360608501528582527f07ffffffffffffffffffffffffffffffffffffffffffffffffffffffffffffff86111561062d57600080fd5b8560051b8088838501378083019250508082016000808252828685030160808701526080840187357fffffffffffffffffffffffffffffffffffffffffffffffffffffffffffffffe1893603018112610684578283fd5b8801803567ffffffffffffffff81111561069c578384fd5b8036038a13156106aa578384fd5b606085526106bb838288850161055b565b9450505060408489016040870137529b9a5050505050505050505050565b60a0815260006106ec60a08301886104f0565b602083810188905273ffffffffffffffffffffffffffffffffffffffff87166040850152838203606085015285518083528682019282019060005b8181101561074357845183529383019391830191600101610727565b50508481036080860152855192506060815261076260608201846104f0565b925081860151828201915060005b600281101561078d57815183529183019190830190600101610770565b50929a9950505050505050505050565b6040805190810167ffffffffffffffff811182821017156107c0576107c0610815565b60405290565b604051601f82017fffffffffffffffffffffffffffffffffffffffffffffffffffffffffffffffe016810167ffffffffffffffff8111828210171561080d5761080d610815565b604052919050565b7f4e487b7100000000000000000000000000000000000000000000000000000000600052604160045260246000fd5b73ffffffffffffffffffffffffffffffffffffffff8116811461086657600080fd5b5056fea264697066735822122017ce8d4dd89660e2806a3ff92e6d65b7497ac1fa2b0c4cfac89f3ebc112c759064736f6c63430008070033",
					"opcodes": "PUSH1 0x80 PUSH1 0x40 MSTORE CALLVALUE DUP1 ISZERO PUSH2 0x10 JUMPI PUSH1 0x0 DUP1 REVERT JUMPDEST POP PUSH2 0x89F DUP1 PUSH2 0x20 PUSH1 0x0 CODECOPY PUSH1 0x0 RETURN INVALID PUSH1 0x80 PUSH1 0x40 MSTORE CALLVALUE DUP1 ISZERO PUSH2 0x10 JUMPI PUSH1 0x0 DUP1 REVERT JUMPDEST POP PUSH1 0x4 CALLDATASIZE LT PUSH2 0x36 JUMPI PUSH1 0x0 CALLDATALOAD PUSH1 0xE0 SHR DUP1 PUSH4 0xCC6A8BE EQ PUSH2 0x3B JUMPI DUP1 PUSH4 0xE5C5E9A3 EQ PUSH2 0x64 JUMPI JUMPDEST PUSH1 0x0 DUP1 REVERT JUMPDEST PUSH2 0x4E PUSH2 0x49 CALLDATASIZE PUSH1 0x4 PUSH2 0x2FE JUMP JUMPDEST PUSH2 0x88 JUMP JUMPDEST PUSH1 0x40 MLOAD PUSH2 0x5B SWAP2 SWAP1 PUSH2 0x5A4 JUMP JUMPDEST PUSH1 0x40 MLOAD DUP1 SWAP2 SUB SWAP1 RETURN JUMPDEST PUSH2 0x77 PUSH2 0x72 CALLDATASIZE PUSH1 0x4 PUSH2 0x2BC JUMP JUMPDEST PUSH2 0xC3 JUMP JUMPDEST PUSH1 0x40 MLOAD PUSH2 0x5B SWAP6 SWAP5 SWAP4 SWAP3 SWAP2 SWAP1 PUSH2 0x6D9 JUMP JUMPDEST PUSH1 0x60 DUP8 DUP8 DUP8 DUP8 DUP8 DUP8 DUP8 PUSH1 0x40 MLOAD PUSH1 0x20 ADD PUSH2 0xA7 SWAP8 SWAP7 SWAP6 SWAP5 SWAP4 SWAP3 SWAP2 SWAP1 PUSH2 0x5BE JUMP JUMPDEST PUSH1 0x40 MLOAD PUSH1 0x20 DUP2 DUP4 SUB SUB DUP2 MSTORE SWAP1 PUSH1 0x40 MSTORE SWAP1 POP SWAP8 SWAP7 POP POP POP POP POP POP POP JUMP JUMPDEST PUSH1 0x60 PUSH1 0x0 DUP1 PUSH1 0x60 PUSH2 0xD2 PUSH2 0xF1 JUMP JUMPDEST PUSH2 0xDE DUP7 DUP9 ADD DUP9 PUSH2 0x3E1 JUMP JUMPDEST SWAP4 SWAP12 SWAP3 SWAP11 POP SWAP1 SWAP9 POP SWAP7 POP SWAP1 SWAP5 POP SWAP3 POP POP POP JUMP JUMPDEST PUSH1 0x40 MLOAD DUP1 PUSH1 0x40 ADD PUSH1 0x40 MSTORE DUP1 PUSH1 0x60 DUP2 MSTORE PUSH1 0x20 ADD PUSH2 0x10B PUSH2 0x110 JUMP JUMPDEST SWAP1 MSTORE SWAP1 JUMP JUMPDEST PUSH1 0x40 MLOAD DUP1 PUSH1 0x40 ADD PUSH1 0x40 MSTORE DUP1 PUSH1 0x2 SWAP1 PUSH1 0x20 DUP3 MUL DUP1 CALLDATASIZE DUP4 CALLDATACOPY POP SWAP2 SWAP3 SWAP2 POP POP JUMP JUMPDEST PUSH1 0x0 DUP1 DUP4 PUSH1 0x1F DUP5 ADD SLT PUSH2 0x140 JUMPI PUSH1 0x0 DUP1 REVERT JUMPDEST POP DUP2 CALLDATALOAD PUSH8 0xFFFFFFFFFFFFFFFF DUP2 GT ISZERO PUSH2 0x158 JUMPI PUSH1 0x0 DUP1 REVERT JUMPDEST PUSH1 0x20 DUP4 ADD SWAP2 POP DUP4 PUSH1 0x20 DUP3 DUP6 ADD ADD GT ISZERO PUSH2 0x170 JUMPI PUSH1 0x0 DUP1 REVERT JUMPDEST SWAP3 POP SWAP3 SWAP1 POP JUMP JUMPDEST PUSH1 0x0 DUP3 PUSH1 0x1F DUP4 ADD SLT PUSH2 0x188 JUMPI PUSH1 0x0 DUP1 REVERT JUMPDEST DUP2 CALLDATALOAD PUSH8 0xFFFFFFFFFFFFFFFF DUP2 GT ISZERO PUSH2 0x1A2 JUMPI PUSH2 0x1A2 PUSH2 0x815 JUMP JUMPDEST PUSH2 0x1D3 PUSH1 0x20 PUSH32 0xFFFFFFFFFFFFFFFFFFFFFFFFFFFFFFFFFFFFFFFFFFFFFFFFFFFFFFFFFFFFFFE0 PUSH1 0x1F DUP5 ADD AND ADD PUSH2 0x7C6 JUMP JUMPDEST DUP2 DUP2 MSTORE DUP5 PUSH1 0x20 DUP4 DUP7 ADD ADD GT ISZERO PUSH2 0x1E8 JUMPI PUSH1 0x0 DUP1 REVERT JUMPDEST DUP2 PUSH1 0x20 DUP6 ADD PUSH1 0x20 DUP4 ADD CALLDATACOPY PUSH1 0x0 SWAP2 DUP2 ADD PUSH1 0x20 ADD SWAP2 SWAP1 SWAP2 MSTORE SWAP4 SWAP3 POP POP POP JUMP JUMPDEST PUSH1 0x0 PUSH1 0x60 DUP3 DUP5 SUB SLT ISZERO PUSH2 0x217 JUMPI PUSH1 0x0 DUP1 REVERT JUMPDEST POP SWAP2 SWAP1 POP JUMP JUMPDEST PUSH1 0x0 PUSH1 0x60 DUP3 DUP5 SUB SLT ISZERO PUSH2 0x22F JUMPI PUSH1 0x0 DUP1 REVERT JUMPDEST PUSH2 0x237 PUSH2 0x79D JUMP JUMPDEST SWAP1 POP DUP2 CALLDATALOAD PUSH8 0xFFFFFFFFFFFFFFFF DUP2 GT ISZERO PUSH2 0x250 JUMPI PUSH1 0x0 DUP1 REVERT JUMPDEST PUSH2 0x25C DUP5 DUP3 DUP6 ADD PUSH2 0x177 JUMP JUMPDEST DUP3 MSTORE POP PUSH1 0x20 DUP4 PUSH1 0x3F DUP5 ADD SLT PUSH2 0x270 JUMPI PUSH1 0x0 DUP1 REVERT JUMPDEST PUSH2 0x278 PUSH2 0x79D JUMP JUMPDEST DUP1 DUP3 DUP6 ADD DUP7 PUSH1 0x60 DUP8 ADD GT ISZERO PUSH2 0x28C JUMPI PUSH1 0x0 DUP1 REVERT JUMPDEST PUSH1 0x0 JUMPDEST PUSH1 0x2 DUP2 LT ISZERO PUSH2 0x2AC JUMPI DUP2 CALLDATALOAD DUP5 MSTORE SWAP3 DUP5 ADD SWAP3 SWAP1 DUP5 ADD SWAP1 PUSH1 0x1 ADD PUSH2 0x28F JUMP JUMPDEST POP POP DUP1 DUP4 DUP6 ADD MSTORE POP POP POP SWAP3 SWAP2 POP POP JUMP JUMPDEST PUSH1 0x0 DUP1 PUSH1 0x20 DUP4 DUP6 SUB SLT ISZERO PUSH2 0x2CF JUMPI PUSH1 0x0 DUP1 REVERT JUMPDEST DUP3 CALLDATALOAD PUSH8 0xFFFFFFFFFFFFFFFF DUP2 GT ISZERO PUSH2 0x2E6 JUMPI PUSH1 0x0 DUP1 REVERT JUMPDEST PUSH2 0x2F2 DUP6 DUP3 DUP7 ADD PUSH2 0x12E JUMP JUMPDEST SWAP1 SWAP7 SWAP1 SWAP6 POP SWAP4 POP POP POP POP JUMP JUMPDEST PUSH1 0x0 DUP1 PUSH1 0x0 DUP1 PUSH1 0x0 DUP1 PUSH1 0x0 PUSH1 0xA0 DUP9 DUP11 SUB SLT ISZERO PUSH2 0x319 JUMPI PUSH1 0x0 DUP1 REVERT JUMPDEST DUP8 CALLDATALOAD PUSH8 0xFFFFFFFFFFFFFFFF DUP1 DUP3 GT ISZERO PUSH2 0x331 JUMPI PUSH1 0x0 DUP1 REVERT JUMPDEST PUSH2 0x33D DUP12 DUP4 DUP13 ADD PUSH2 0x12E JUMP JUMPDEST SWAP1 SWAP10 POP SWAP8 POP PUSH1 0x20 DUP11 ADD CALLDATALOAD SWAP7 POP PUSH1 0x40 DUP11 ADD CALLDATALOAD SWAP2 POP PUSH2 0x359 DUP3 PUSH2 0x844 JUMP JUMPDEST SWAP1 SWAP5 POP PUSH1 0x60 DUP10 ADD CALLDATALOAD SWAP1 DUP1 DUP3 GT ISZERO PUSH2 0x36F JUMPI PUSH1 0x0 DUP1 REVERT JUMPDEST DUP2 DUP11 ADD SWAP2 POP DUP11 PUSH1 0x1F DUP4 ADD SLT PUSH2 0x383 JUMPI PUSH1 0x0 DUP1 REVERT JUMPDEST DUP2 CALLDATALOAD DUP2 DUP2 GT ISZERO PUSH2 0x392 JUMPI PUSH1 0x0 DUP1 REVERT JUMPDEST DUP12 PUSH1 0x20 DUP3 PUSH1 0x5 SHL DUP6 ADD ADD GT ISZERO PUSH2 0x3A7 JUMPI PUSH1 0x0 DUP1 REVERT JUMPDEST PUSH1 0x20 DUP4 ADD SWAP6 POP DUP1 SWAP5 POP POP PUSH1 0x80 DUP11 ADD CALLDATALOAD SWAP2 POP DUP1 DUP3 GT ISZERO PUSH2 0x3C5 JUMPI PUSH1 0x0 DUP1 REVERT JUMPDEST POP PUSH2 0x3D2 DUP11 DUP3 DUP12 ADD PUSH2 0x205 JUMP JUMPDEST SWAP2 POP POP SWAP3 SWAP6 SWAP9 SWAP2 SWAP5 SWAP8 POP SWAP3 SWAP6 POP JUMP JUMPDEST PUSH1 0x0 DUP1 PUSH1 0x0 DUP1 PUSH1 0x0 PUSH1 0xA0 DUP7 DUP9 SUB SLT ISZERO PUSH2 0x3F9 JUMPI PUSH1 0x0 DUP1 REVERT JUMPDEST DUP6 CALLDATALOAD PUSH8 0xFFFFFFFFFFFFFFFF DUP1 DUP3 GT ISZERO PUSH2 0x411 JUMPI PUSH1 0x0 DUP1 REVERT JUMPDEST PUSH2 0x41D DUP10 DUP4 DUP11 ADD PUSH2 0x177 JUMP JUMPDEST SWAP7 POP PUSH1 0x20 SWAP2 POP DUP2 DUP9 ADD CALLDATALOAD SWAP6 POP PUSH1 0x40 DUP9 ADD CALLDATALOAD PUSH2 0x437 DUP2 PUSH2 0x844 JUMP JUMPDEST SWAP5 POP PUSH1 0x60 DUP9 ADD CALLDATALOAD DUP2 DUP2 GT ISZERO PUSH2 0x44B JUMPI PUSH1 0x0 DUP1 REVERT JUMPDEST DUP9 ADD PUSH1 0x1F DUP2 ADD DUP11 SGT PUSH2 0x45C JUMPI PUSH1 0x0 DUP1 REVERT JUMPDEST DUP1 CALLDATALOAD DUP3 DUP2 GT ISZERO PUSH2 0x46E JUMPI PUSH2 0x46E PUSH2 0x815 JUMP JUMPDEST DUP1 PUSH1 0x5 SHL PUSH2 0x47D DUP6 DUP3 ADD PUSH2 0x7C6 JUMP JUMPDEST DUP3 DUP2 MSTORE DUP6 DUP2 ADD SWAP1 DUP5 DUP8 ADD DUP4 DUP7 ADD DUP9 ADD DUP16 LT ISZERO PUSH2 0x498 JUMPI PUSH1 0x0 DUP1 REVERT JUMPDEST PUSH1 0x0 SWAP6 POP JUMPDEST DUP5 DUP7 LT ISZERO PUSH2 0x4BB JUMPI DUP1 CALLDATALOAD DUP4 MSTORE PUSH1 0x1 SWAP6 SWAP1 SWAP6 ADD SWAP5 SWAP2 DUP8 ADD SWAP2 DUP8 ADD PUSH2 0x49D JUMP JUMPDEST POP SWAP8 POP POP POP POP PUSH1 0x80 DUP10 ADD CALLDATALOAD SWAP3 POP POP DUP1 DUP3 GT ISZERO PUSH2 0x4D6 JUMPI PUSH1 0x0 DUP1 REVERT JUMPDEST POP PUSH2 0x4E3 DUP9 DUP3 DUP10 ADD PUSH2 0x21D JUMP JUMPDEST SWAP2 POP POP SWAP3 SWAP6 POP SWAP3 SWAP6 SWAP1 SWAP4 POP JUMP JUMPDEST PUSH1 0x0 DUP2 MLOAD DUP1 DUP5 MSTORE PUSH1 0x0 JUMPDEST DUP2 DUP2 LT ISZERO PUSH2 0x516 JUMPI PUSH1 0x20 DUP2 DUP6 ADD DUP2 ADD MLOAD DUP7 DUP4 ADD DUP3 ADD MSTORE ADD PUSH2 0x4FA JUMP JUMPDEST DUP2 DUP2 GT ISZERO PUSH2 0x528 JUMPI PUSH1 0x0 PUSH1 0x20 DUP4 DUP8 ADD ADD MSTORE JUMPDEST POP PUSH1 0x1F ADD PUSH32 0xFFFFFFFFFFFFFFFFFFFFFFFFFFFFFFFFFFFFFFFFFFFFFFFFFFFFFFFFFFFFFFE0 AND SWAP3 SWAP1 SWAP3 ADD PUSH1 0x20 ADD SWAP3 SWAP2 POP POP JUMP JUMPDEST DUP2 DUP4 MSTORE DUP2 DUP2 PUSH1 0x20 DUP6 ADD CALLDATACOPY POP PUSH1 0x0 PUSH1 0x20 DUP3 DUP5 ADD ADD MSTORE PUSH1 0x0 PUSH1 0x20 PUSH32 0xFFFFFFFFFFFFFFFFFFFFFFFFFFFFFFFFFFFFFFFFFFFFFFFFFFFFFFFFFFFFFFE0 PUSH1 0x1F DUP5 ADD AND DUP5 ADD ADD SWAP1 POP SWAP3 SWAP2 POP POP JUMP JUMPDEST PUSH1 0x20 DUP2 MSTORE PUSH1 0x0 PUSH2 0x5B7 PUSH1 0x20 DUP4 ADD DUP5 PUSH2 0x4F0 JUMP JUMPDEST SWAP4 SWAP3 POP POP POP JUMP JUMPDEST PUSH1 0xA0 DUP2 MSTORE PUSH1 0x0 PUSH2 0x5D2 PUSH1 0xA0 DUP4 ADD DUP10 DUP12 PUSH2 0x55B JUMP JUMPDEST PUSH1 0x20 DUP9 DUP2 DUP6 ADD MSTORE PUSH20 0xFFFFFFFFFFFFFFFFFFFFFFFFFFFFFFFFFFFFFFFF DUP9 AND PUSH1 0x40 DUP6 ADD MSTORE DUP4 DUP3 SUB PUSH1 0x60 DUP6 ADD MSTORE DUP6 DUP3 MSTORE PUSH32 0x7FFFFFFFFFFFFFFFFFFFFFFFFFFFFFFFFFFFFFFFFFFFFFFFFFFFFFFFFFFFFFF DUP7 GT ISZERO PUSH2 0x62D JUMPI PUSH1 0x0 DUP1 REVERT JUMPDEST DUP6 PUSH1 0x5 SHL DUP1 DUP9 DUP4 DUP6 ADD CALLDATACOPY DUP1 DUP4 ADD SWAP3 POP POP DUP1 DUP3 ADD PUSH1 0x0 DUP1 DUP3 MSTORE DUP3 DUP7 DUP6 SUB ADD PUSH1 0x80 DUP8 ADD MSTORE PUSH1 0x80 DUP5 ADD DUP8 CALLDATALOAD PUSH32 0xFFFFFFFFFFFFFFFFFFFFFFFFFFFFFFFFFFFFFFFFFFFFFFFFFFFFFFFFFFFFFFE1 DUP10 CALLDATASIZE SUB ADD DUP2 SLT PUSH2 0x684 JUMPI DUP3 DUP4 REVERT JUMPDEST DUP9 ADD DUP1 CALLDATALOAD PUSH8 0xFFFFFFFFFFFFFFFF DUP2 GT ISZERO PUSH2 0x69C JUMPI DUP4 DUP5 REVERT JUMPDEST DUP1 CALLDATASIZE SUB DUP11 SGT ISZERO PUSH2 0x6AA JUMPI DUP4 DUP5 REVERT JUMPDEST PUSH1 0x60 DUP6 MSTORE PUSH2 0x6BB DUP4 DUP3 DUP9 DUP6 ADD PUSH2 0x55B JUMP JUMPDEST SWAP5 POP POP POP PUSH1 0x40 DUP5 DUP10 ADD PUSH1 0x40 DUP8 ADD CALLDATACOPY MSTORE SWAP12 SWAP11 POP POP POP POP POP POP POP POP POP POP POP JUMP JUMPDEST PUSH1 0xA0 DUP2 MSTORE PUSH1 0x0 PUSH2 0x6EC PUSH1 0xA0 DUP4 ADD DUP9 PUSH2 0x4F0 JUMP JUMPDEST PUSH1 0x20 DUP4 DUP2 ADD DUP9 SWAP1 MSTORE PUSH20 0xFFFFFFFFFFFFFFFFFFFFFFFFFFFFFFFFFFFFFFFF DUP8 AND PUSH1 0x40 DUP6 ADD MSTORE DUP4 DUP3 SUB PUSH1 0x60 DUP6 ADD MSTORE DUP6 MLOAD DUP1 DUP4 MSTORE DUP7 DUP3 ADD SWAP3 DUP3 ADD SWAP1 PUSH1 0x0 JUMPDEST DUP2 DUP2 LT ISZERO PUSH2 0x743 JUMPI DUP5 MLOAD DUP4 MSTORE SWAP4 DUP4 ADD SWAP4 SWAP2 DUP4 ADD SWAP2 PUSH1 0x1 ADD PUSH2 0x727 JUMP JUMPDEST POP POP DUP5 DUP2 SUB PUSH1 0x80 DUP7 ADD MSTORE DUP6 MLOAD SWAP3 POP PUSH1 0x60 DUP2 MSTORE PUSH2 0x762 PUSH1 0x60 DUP3 ADD DUP5 PUSH2 0x4F0 JUMP JUMPDEST SWAP3 POP DUP2 DUP7 ADD MLOAD DUP3 DUP3 ADD SWAP2 POP PUSH1 0x0 JUMPDEST PUSH1 0x2 DUP2 LT ISZERO PUSH2 0x78D JUMPI DUP2 MLOAD DUP4 MSTORE SWAP2 DUP4 ADD SWAP2 SWAP1 DUP4 ADD SWAP1 PUSH1 0x1 ADD PUSH2 0x770 JUMP JUMPDEST POP SWAP3 SWAP11 SWAP10 POP POP POP POP POP POP POP POP POP POP JUMP JUMPDEST PUSH1 0x40 DUP1 MLOAD SWAP1 DUP2 ADD PUSH8 0xFFFFFFFFFFFFFFFF DUP2 GT DUP3 DUP3 LT OR ISZERO PUSH2 0x7C0 JUMPI PUSH2 0x7C0 PUSH2 0x815 JUMP JUMPDEST PUSH1 0x40 MSTORE SWAP1 JUMP JUMPDEST PUSH1 0x40 MLOAD PUSH1 0x1F DUP3 ADD PUSH32 0xFFFFFFFFFFFFFFFFFFFFFFFFFFFFFFFFFFFFFFFFFFFFFFFFFFFFFFFFFFFFFFE0 AND DUP2 ADD PUSH8 0xFFFFFFFFFFFFFFFF DUP2 GT DUP3 DUP3 LT OR ISZERO PUSH2 0x80D JUMPI PUSH2 0x80D PUSH2 0x815 JUMP JUMPDEST PUSH1 0x40 MSTORE SWAP2 SWAP1 POP JUMP JUMPDEST PUSH32 0x4E487B7100000000000000000000000000000000000000000000000000000000 PUSH1 0x0 MSTORE PUSH1 0x41 PUSH1 0x4 MSTORE PUSH1 0x24 PUSH1 0x0 REVERT JUMPDEST PUSH20 0xFFFFFFFFFFFFFFFFFFFFFFFFFFFFFFFFFFFFFFFF DUP2 AND DUP2 EQ PUSH2 0x866 JUMPI PUSH1 0x0 DUP1 REVERT JUMPDEST POP JUMP INVALID LOG2 PUSH5 0x6970667358 0x22 SLT KECCAK256 OR 0xCE DUP14 0x4D 0xD8 SWAP7 PUSH1 0xE2 DUP1 PUSH11 0x3FF92E6D65B7497AC1FA2B 0xC 0x4C STATICCALL 0xC8 SWAP16 RETURNDATACOPY 0xBC GT 0x2C PUSH22 0x9064736F6C6343000807003300000000000000000000 "
				},
				"gasEstimates": {
					"creation": {
						"codeDepositCost": "441400",
						"executionCost": "474",
						"totalCost": "441874"
					},
					"external": {
						"decode(bytes)": "infinite",
						"encode(string,uint256,address,uint256[],(string,uint256[2]))": "infinite"
					}
				},
				"methodIdentifiers": {
					"decode(bytes)": "e5c5e9a3",
					"encode(string,uint256,address,uint256[],(string,uint256[2]))": "0cc6a8be"
				}
			},
			"storageLayout": {
				"storage": [],
				"types": null
			},
			"userdoc": {
				"kind": "user",
				"methods": {},
				"version": 1
			}
		}
	}
}