{
	"22Storage.sol": {
		"Storage": {
			"abi": [
				{
					"inputs": [],
					"stateMutability": "nonpayable",
					"type": "constructor"
				},
				{
					"inputs": [],
					"name": "getStruct",
					"outputs": [
						{
							"internalType": "uint8[5]",
							"name": "",
							"type": "uint8[5]"
						}
					],
					"stateMutability": "view",
					"type": "function"
				},
				{
					"inputs": [],
					"name": "stru_b",
					"outputs": [
						{
							"internalType": "string",
							"name": "str",
							"type": "string"
						}
					],
					"stateMutability": "view",
					"type": "function"
				},
				{
					"inputs": [
						{
							"internalType": "string",
							"name": "newStr",
							"type": "string"
						}
					],
					"name": "updateStruct",
					"outputs": [],
					"stateMutability": "nonpayable",
					"type": "function"
				}
			],
			"devdoc": {
				"kind": "dev",
				"methods": {},
				"version": 1
			},
			"evm": {
				"assembly": "    /* \"22Storage.sol\":710:1329  contract Storage{... */\n  mstore(0x40, 0x80)\n    /* \"22Storage.sol\":905:1134  constructor(){... */\n  callvalue\n  dup1\n  iszero\n  tag_1\n  jumpi\n  0x00\n  dup1\n  revert\ntag_1:\n  pop\n    /* \"22Storage.sol\":1054:1076  uint8[5] memory arry_1 */\n  0x00\n    /* \"22Storage.sol\":1054:1091  uint8[5] memory arry_1 = [6,7,8,9,10] */\n  mload(0x40)\n  dup1\n  0xa0\n  add\n  0x40\n  mstore\n  dup1\n    /* \"22Storage.sol\":1080:1081  6 */\n  0x06\n    /* \"22Storage.sol\":1054:1091  uint8[5] memory arry_1 = [6,7,8,9,10] */\n  0xff\n  and\n  dup2\n  mstore\n  0x20\n  add\n    /* \"22Storage.sol\":1082:1083  7 */\n  0x07\n    /* \"22Storage.sol\":1054:1091  uint8[5] memory arry_1 = [6,7,8,9,10] */\n  0xff\n  and\n  dup2\n  mstore\n  0x20\n  add\n    /* \"22Storage.sol\":1084:1085  8 */\n  0x08\n    /* \"22Storage.sol\":1054:1091  uint8[5] memory arry_1 = [6,7,8,9,10] */\n  0xff\n  and\n  dup2\n  mstore\n  0x20\n  add\n    /* \"22Storage.sol\":1086:1087  9 */\n  0x09\n    /* \"22Storage.sol\":1054:1091  uint8[5] memory arry_1 = [6,7,8,9,10] */\n  0xff\n  and\n  dup2\n  mstore\n  0x20\n  add\n    /* \"22Storage.sol\":1088:1090  10 */\n  0x0a\n    /* \"22Storage.sol\":1054:1091  uint8[5] memory arry_1 = [6,7,8,9,10] */\n  0xff\n  and\n  dup2\n  mstore\n  pop\n  swap1\n  pop\n    /* \"22Storage.sol\":1109:1127  Stru(\"abc\",arry_1) */\n  mload(0x40)\n  dup1\n  0x40\n  add\n  0x40\n  mstore\n  dup1\n  mload(0x40)\n  dup1\n  0x40\n  add\n  0x40\n  mstore\n  dup1\n  0x03\n  dup2\n  mstore\n  0x20\n  add\n  0x6162630000000000000000000000000000000000000000000000000000000000\n  dup2\n  mstore\n  pop\n  dup2\n  mstore\n  0x20\n  add\n    /* \"22Storage.sol\":1120:1126  arry_1 */\n  dup3\n    /* \"22Storage.sol\":1109:1127  Stru(\"abc\",arry_1) */\n  dup2\n  mstore\n  pop\n    /* \"22Storage.sol\":1101:1107  stru_b */\n  0x00\n    /* \"22Storage.sol\":1101:1127  stru_b =Stru(\"abc\",arry_1) */\n  dup1\n  dup3\n  add\n  mload\n  dup2\n  0x00\n  add\n  swap1\n  dup1\n  mload\n  swap1\n  0x20\n  add\n  swap1\n  tag_4\n  swap3\n  swap2\n  swap1\n  tag_5\n  jump\t// in\ntag_4:\n  pop\n  0x20\n  dup3\n  add\n  mload\n  dup2\n  0x01\n  add\n  swap1\n  0x05\n  tag_6\n  swap3\n  swap2\n  swap1\n  tag_7\n  jump\t// in\ntag_6:\n  pop\n  swap1\n  pop\n  pop\n    /* \"22Storage.sol\":918:1134  {... */\n  pop\n    /* \"22Storage.sol\":710:1329  contract Storage{... */\n  jump(tag_8)\ntag_5:\n  dup3\n  dup1\n  sload\n  tag_9\n  swap1\n  tag_10\n  jump\t// in\ntag_9:\n  swap1\n  0x00\n  mstore\n  keccak256(0x00, 0x20)\n  swap1\n  0x1f\n  add\n  0x20\n  swap1\n  div\n  dup2\n  add\n  swap3\n  dup3\n  tag_12\n  jumpi\n  0x00\n  dup6\n  sstore\n  jump(tag_11)\ntag_12:\n  dup3\n  0x1f\n  lt\n  tag_13\n  jumpi\n  dup1\n  mload\n  not(0xff)\n  and\n  dup4\n  dup1\n  add\n  or\n  dup6\n  sstore\n  jump(tag_11)\ntag_13:\n  dup3\n  dup1\n  add\n  0x01\n  add\n  dup6\n  sstore\n  dup3\n  iszero\n  tag_11\n  jumpi\n  swap2\n  dup3\n  add\ntag_14:\n  dup3\n  dup2\n  gt\n  iszero\n  tag_15\n  jumpi\n  dup3\n  mload\n  dup3\n  sstore\n  swap2\n  0x20\n  add\n  swap2\n  swap1\n  0x01\n  add\n  swap1\n  jump(tag_14)\ntag_15:\ntag_11:\n  pop\n  swap1\n  pop\n  tag_16\n  swap2\n  swap1\n  tag_17\n  jump\t// in\ntag_16:\n  pop\n  swap1\n  jump\t// out\ntag_7:\n  dup3\n  add(0x1f, 0x05)\n  0x20\n  swap1\n  div\n  dup2\n  add\n  swap3\n  dup3\n  iszero\n  tag_18\n  jumpi\n  swap2\n  0x20\n  mul\n  dup3\n  add\n  0x00\ntag_19:\n  dup4\n  dup3\n  gt\n  iszero\n  tag_20\n  jumpi\n  dup4\n  mload\n  dup4\n  dup3\n  0x0100\n  exp\n  dup2\n  sload\n  dup2\n  0xff\n  mul\n  not\n  and\n  swap1\n  dup4\n  0xff\n  and\n  mul\n  or\n  swap1\n  sstore\n  pop\n  swap3\n  0x20\n  add\n  swap3\n  0x01\n  add\n  0x20\n  dup2\n  0x00\n  add\n  div\n  swap3\n  dup4\n  add\n  swap3\n  0x01\n  sub\n  mul\n  jump(tag_19)\ntag_20:\n  dup1\n  iszero\n  tag_21\n  jumpi\n  dup3\n  dup2\n  0x0100\n  exp\n  dup2\n  sload\n  swap1\n  0xff\n  mul\n  not\n  and\n  swap1\n  sstore\n  0x01\n  add\n  0x20\n  dup2\n  0x00\n  add\n  div\n  swap3\n  dup4\n  add\n  swap3\n  0x01\n  sub\n  mul\n  jump(tag_20)\ntag_21:\n  pop\ntag_18:\n  pop\n  swap1\n  pop\n  tag_22\n  swap2\n  swap1\n  tag_17\n  jump\t// in\ntag_22:\n  pop\n  swap1\n  jump\t// out\ntag_17:\ntag_23:\n  dup1\n  dup3\n  gt\n  iszero\n  tag_24\n  jumpi\n  0x00\n  dup2\n  0x00\n  swap1\n  sstore\n  pop\n  0x01\n  add\n  jump(tag_23)\ntag_24:\n  pop\n  swap1\n  jump\t// out\n    /* \"#utility.yul\":7:327   */\ntag_10:\n    /* \"#utility.yul\":51:57   */\n  0x00\n    /* \"#utility.yul\":88:89   */\n  0x02\n    /* \"#utility.yul\":82:86   */\n  dup3\n    /* \"#utility.yul\":78:90   */\n  div\n    /* \"#utility.yul\":68:90   */\n  swap1\n  pop\n    /* \"#utility.yul\":135:136   */\n  0x01\n    /* \"#utility.yul\":129:133   */\n  dup3\n    /* \"#utility.yul\":125:137   */\n  and\n    /* \"#utility.yul\":156:174   */\n  dup1\n    /* \"#utility.yul\":146:227   */\n  tag_27\n  jumpi\n    /* \"#utility.yul\":212:216   */\n  0x7f\n    /* \"#utility.yul\":204:210   */\n  dup3\n    /* \"#utility.yul\":200:217   */\n  and\n    /* \"#utility.yul\":190:217   */\n  swap2\n  pop\n    /* \"#utility.yul\":146:227   */\ntag_27:\n    /* \"#utility.yul\":274:276   */\n  0x20\n    /* \"#utility.yul\":266:272   */\n  dup3\n    /* \"#utility.yul\":263:277   */\n  lt\n    /* \"#utility.yul\":243:261   */\n  dup2\n    /* \"#utility.yul\":240:278   */\n  eq\n    /* \"#utility.yul\":237:321   */\n  iszero\n  tag_28\n  jumpi\n    /* \"#utility.yul\":293:311   */\n  tag_29\n  tag_30\n  jump\t// in\ntag_29:\n    /* \"#utility.yul\":237:321   */\ntag_28:\n    /* \"#utility.yul\":58:327   */\n  pop\n    /* \"#utility.yul\":7:327   */\n  swap2\n  swap1\n  pop\n  jump\t// out\n    /* \"#utility.yul\":333:513   */\ntag_30:\n    /* \"#utility.yul\":381:458   */\n  0x4e487b7100000000000000000000000000000000000000000000000000000000\n    /* \"#utility.yul\":378:379   */\n  0x00\n    /* \"#utility.yul\":371:459   */\n  mstore\n    /* \"#utility.yul\":478:482   */\n  0x22\n    /* \"#utility.yul\":475:476   */\n  0x04\n    /* \"#utility.yul\":468:483   */\n  mstore\n    /* \"#utility.yul\":502:506   */\n  0x24\n    /* \"#utility.yul\":499:500   */\n  0x00\n    /* \"#utility.yul\":492:507   */\n  revert\n    /* \"22Storage.sol\":710:1329  contract Storage{... */\ntag_8:\n  dataSize(sub_0)\n  dup1\n  dataOffset(sub_0)\n  0x00\n  codecopy\n  0x00\n  return\nstop\n\nsub_0: assembly {\n        /* \"22Storage.sol\":710:1329  contract Storage{... */\n      mstore(0x40, 0x80)\n      callvalue\n      dup1\n      iszero\n      tag_1\n      jumpi\n      0x00\n      dup1\n      revert\n    tag_1:\n      pop\n      jumpi(tag_2, lt(calldatasize, 0x04))\n      shr(0xe0, calldataload(0x00))\n      dup1\n      0x09b1b3f2\n      eq\n      tag_3\n      jumpi\n      dup1\n      0x912245b0\n      eq\n      tag_4\n      jumpi\n      dup1\n      0xef4093fe\n      eq\n      tag_5\n      jumpi\n    tag_2:\n      0x00\n      dup1\n      revert\n        /* \"22Storage.sol\":1233:1327  function getStruct()external view returns(uint8[5] memory){... */\n    tag_3:\n      tag_6\n      tag_7\n      jump\t// in\n    tag_6:\n      mload(0x40)\n      tag_8\n      swap2\n      swap1\n      tag_9\n      jump\t// in\n    tag_8:\n      mload(0x40)\n      dup1\n      swap2\n      sub\n      swap1\n      return\n        /* \"22Storage.sol\":881:899  Stru public stru_b */\n    tag_4:\n      tag_10\n      tag_11\n      jump\t// in\n    tag_10:\n      mload(0x40)\n      tag_12\n      swap2\n      swap1\n      tag_13\n      jump\t// in\n    tag_12:\n      mload(0x40)\n      dup1\n      swap2\n      sub\n      swap1\n      return\n        /* \"22Storage.sol\":1140:1227  function updateStruct(string memory newStr)external{... */\n    tag_5:\n      tag_14\n      0x04\n      dup1\n      calldatasize\n      sub\n      dup2\n      add\n      swap1\n      tag_15\n      swap2\n      swap1\n      tag_16\n      jump\t// in\n    tag_15:\n      tag_17\n      jump\t// in\n    tag_14:\n      stop\n        /* \"22Storage.sol\":1233:1327  function getStruct()external view returns(uint8[5] memory){... */\n    tag_7:\n        /* \"22Storage.sol\":1275:1290  uint8[5] memory */\n      tag_18\n      tag_19\n      jump\t// in\n    tag_18:\n        /* \"22Storage.sol\":1308:1314  stru_b */\n      0x00\n        /* \"22Storage.sol\":1308:1319  stru_b.arry */\n      0x01\n      add\n        /* \"22Storage.sol\":1301:1319  return stru_b.arry */\n      0x05\n      dup1\n      0x20\n      mul\n      mload(0x40)\n      swap1\n      dup2\n      add\n      0x40\n      mstore\n      dup1\n      swap3\n      swap2\n      swap1\n      dup3\n      0x05\n      dup1\n      iszero\n      tag_21\n      jumpi\n      0x20\n      mul\n      dup3\n      add\n      swap2\n      0x00\n      swap1\n    tag_22:\n      dup3\n      dup3\n      swap1\n      sload\n      swap1\n      0x0100\n      exp\n      swap1\n      div\n      0xff\n      and\n      0xff\n      and\n      dup2\n      mstore\n      0x20\n      add\n      swap1\n      0x01\n      add\n      swap1\n      0x20\n      dup3\n      0x00\n      add\n      div\n      swap3\n      dup4\n      add\n      swap3\n      0x01\n      sub\n      dup3\n      mul\n      swap2\n      pop\n      dup1\n      dup5\n      gt\n      tag_22\n      jumpi\n      swap1\n      pop\n    tag_21:\n      pop\n      pop\n      pop\n      pop\n      pop\n      swap1\n      pop\n        /* \"22Storage.sol\":1233:1327  function getStruct()external view returns(uint8[5] memory){... */\n      swap1\n      jump\t// out\n        /* \"22Storage.sol\":881:899  Stru public stru_b */\n    tag_11:\n      0x00\n      dup1\n      0x00\n      add\n      dup1\n      sload\n      tag_23\n      swap1\n      tag_24\n      jump\t// in\n    tag_23:\n      dup1\n      0x1f\n      add\n      0x20\n      dup1\n      swap2\n      div\n      mul\n      0x20\n      add\n      mload(0x40)\n      swap1\n      dup2\n      add\n      0x40\n      mstore\n      dup1\n      swap3\n      swap2\n      swap1\n      dup2\n      dup2\n      mstore\n      0x20\n      add\n      dup3\n      dup1\n      sload\n      tag_25\n      swap1\n      tag_24\n      jump\t// in\n    tag_25:\n      dup1\n      iszero\n      tag_26\n      jumpi\n      dup1\n      0x1f\n      lt\n      tag_27\n      jumpi\n      0x0100\n      dup1\n      dup4\n      sload\n      div\n      mul\n      dup4\n      mstore\n      swap2\n      0x20\n      add\n      swap2\n      jump(tag_26)\n    tag_27:\n      dup3\n      add\n      swap2\n      swap1\n      0x00\n      mstore\n      keccak256(0x00, 0x20)\n      swap1\n    tag_28:\n      dup2\n      sload\n      dup2\n      mstore\n      swap1\n      0x01\n      add\n      swap1\n      0x20\n      add\n      dup1\n      dup4\n      gt\n      tag_28\n      jumpi\n      dup3\n      swap1\n      sub\n      0x1f\n      and\n      dup3\n      add\n      swap2\n    tag_26:\n      pop\n      pop\n      pop\n      pop\n      pop\n      swap1\n      pop\n      dup2\n      jump\t// out\n        /* \"22Storage.sol\":1140:1227  function updateStruct(string memory newStr)external{... */\n    tag_17:\n        /* \"22Storage.sol\":1214:1220  newStr */\n      dup1\n        /* \"22Storage.sol\":1201:1207  stru_b */\n      0x00\n        /* \"22Storage.sol\":1201:1211  stru_b.str */\n      dup1\n      add\n        /* \"22Storage.sol\":1201:1220  stru_b.str = newStr */\n      swap1\n      dup1\n      mload\n      swap1\n      0x20\n      add\n      swap1\n      tag_30\n      swap3\n      swap2\n      swap1\n      tag_31\n      jump\t// in\n    tag_30:\n      pop\n        /* \"22Storage.sol\":1140:1227  function updateStruct(string memory newStr)external{... */\n      pop\n      jump\t// out\n    tag_19:\n      mload(0x40)\n      dup1\n      0xa0\n      add\n      0x40\n      mstore\n      dup1\n      0x05\n      swap1\n      0x20\n      dup3\n      mul\n      dup1\n      calldatasize\n      dup4\n      calldatacopy\n      dup1\n      dup3\n      add\n      swap2\n      pop\n      pop\n      swap1\n      pop\n      pop\n      swap1\n      jump\t// out\n    tag_31:\n      dup3\n      dup1\n      sload\n      tag_32\n      swap1\n      tag_24\n      jump\t// in\n    tag_32:\n      swap1\n      0x00\n      mstore\n      keccak256(0x00, 0x20)\n      swap1\n      0x1f\n      add\n      0x20\n      swap1\n      div\n      dup2\n      add\n      swap3\n      dup3\n      tag_34\n      jumpi\n      0x00\n      dup6\n      sstore\n      jump(tag_33)\n    tag_34:\n      dup3\n      0x1f\n      lt\n      tag_35\n      jumpi\n      dup1\n      mload\n      not(0xff)\n      and\n      dup4\n      dup1\n      add\n      or\n      dup6\n      sstore\n      jump(tag_33)\n    tag_35:\n      dup3\n      dup1\n      add\n      0x01\n      add\n      dup6\n      sstore\n      dup3\n      iszero\n      tag_33\n      jumpi\n      swap2\n      dup3\n      add\n    tag_36:\n      dup3\n      dup2\n      gt\n      iszero\n      tag_37\n      jumpi\n      dup3\n      mload\n      dup3\n      sstore\n      swap2\n      0x20\n      add\n      swap2\n      swap1\n      0x01\n      add\n      swap1\n      jump(tag_36)\n    tag_37:\n    tag_33:\n      pop\n      swap1\n      pop\n      tag_38\n      swap2\n      swap1\n      tag_39\n      jump\t// in\n    tag_38:\n      pop\n      swap1\n      jump\t// out\n    tag_39:\n    tag_40:\n      dup1\n      dup3\n      gt\n      iszero\n      tag_41\n      jumpi\n      0x00\n      dup2\n      0x00\n      swap1\n      sstore\n      pop\n      0x01\n      add\n      jump(tag_40)\n    tag_41:\n      pop\n      swap1\n      jump\t// out\n        /* \"#utility.yul\":7:419   */\n    tag_43:\n        /* \"#utility.yul\":85:90   */\n      0x00\n        /* \"#utility.yul\":110:176   */\n      tag_45\n        /* \"#utility.yul\":126:175   */\n      tag_46\n        /* \"#utility.yul\":168:174   */\n      dup5\n        /* \"#utility.yul\":126:175   */\n      tag_47\n      jump\t// in\n    tag_46:\n        /* \"#utility.yul\":110:176   */\n      tag_48\n      jump\t// in\n    tag_45:\n        /* \"#utility.yul\":101:176   */\n      swap1\n      pop\n        /* \"#utility.yul\":199:205   */\n      dup3\n        /* \"#utility.yul\":192:197   */\n      dup2\n        /* \"#utility.yul\":185:206   */\n      mstore\n        /* \"#utility.yul\":237:241   */\n      0x20\n        /* \"#utility.yul\":230:235   */\n      dup2\n        /* \"#utility.yul\":226:242   */\n      add\n        /* \"#utility.yul\":275:278   */\n      dup5\n        /* \"#utility.yul\":266:272   */\n      dup5\n        /* \"#utility.yul\":261:264   */\n      dup5\n        /* \"#utility.yul\":257:273   */\n      add\n        /* \"#utility.yul\":254:279   */\n      gt\n        /* \"#utility.yul\":251:363   */\n      iszero\n      tag_49\n      jumpi\n        /* \"#utility.yul\":282:361   */\n      tag_50\n      tag_51\n      jump\t// in\n    tag_50:\n        /* \"#utility.yul\":251:363   */\n    tag_49:\n        /* \"#utility.yul\":372:413   */\n      tag_52\n        /* \"#utility.yul\":406:412   */\n      dup5\n        /* \"#utility.yul\":401:404   */\n      dup3\n        /* \"#utility.yul\":396:399   */\n      dup6\n        /* \"#utility.yul\":372:413   */\n      tag_53\n      jump\t// in\n    tag_52:\n        /* \"#utility.yul\":91:419   */\n      pop\n        /* \"#utility.yul\":7:419   */\n      swap4\n      swap3\n      pop\n      pop\n      pop\n      jump\t// out\n        /* \"#utility.yul\":439:779   */\n    tag_54:\n        /* \"#utility.yul\":495:500   */\n      0x00\n        /* \"#utility.yul\":544:547   */\n      dup3\n        /* \"#utility.yul\":537:541   */\n      0x1f\n        /* \"#utility.yul\":529:535   */\n      dup4\n        /* \"#utility.yul\":525:542   */\n      add\n        /* \"#utility.yul\":521:548   */\n      slt\n        /* \"#utility.yul\":511:633   */\n      tag_56\n      jumpi\n        /* \"#utility.yul\":552:631   */\n      tag_57\n      tag_58\n      jump\t// in\n    tag_57:\n        /* \"#utility.yul\":511:633   */\n    tag_56:\n        /* \"#utility.yul\":669:675   */\n      dup2\n        /* \"#utility.yul\":656:676   */\n      calldataload\n        /* \"#utility.yul\":694:773   */\n      tag_59\n        /* \"#utility.yul\":769:772   */\n      dup5\n        /* \"#utility.yul\":761:767   */\n      dup3\n        /* \"#utility.yul\":754:758   */\n      0x20\n        /* \"#utility.yul\":746:752   */\n      dup7\n        /* \"#utility.yul\":742:759   */\n      add\n        /* \"#utility.yul\":694:773   */\n      tag_43\n      jump\t// in\n    tag_59:\n        /* \"#utility.yul\":685:773   */\n      swap2\n      pop\n        /* \"#utility.yul\":501:779   */\n      pop\n        /* \"#utility.yul\":439:779   */\n      swap3\n      swap2\n      pop\n      pop\n      jump\t// out\n        /* \"#utility.yul\":785:1294   */\n    tag_16:\n        /* \"#utility.yul\":854:860   */\n      0x00\n        /* \"#utility.yul\":903:905   */\n      0x20\n        /* \"#utility.yul\":891:900   */\n      dup3\n        /* \"#utility.yul\":882:889   */\n      dup5\n        /* \"#utility.yul\":878:901   */\n      sub\n        /* \"#utility.yul\":874:906   */\n      slt\n        /* \"#utility.yul\":871:990   */\n      iszero\n      tag_61\n      jumpi\n        /* \"#utility.yul\":909:988   */\n      tag_62\n      tag_63\n      jump\t// in\n    tag_62:\n        /* \"#utility.yul\":871:990   */\n    tag_61:\n        /* \"#utility.yul\":1057:1058   */\n      0x00\n        /* \"#utility.yul\":1046:1055   */\n      dup3\n        /* \"#utility.yul\":1042:1059   */\n      add\n        /* \"#utility.yul\":1029:1060   */\n      calldataload\n        /* \"#utility.yul\":1087:1105   */\n      0xffffffffffffffff\n        /* \"#utility.yul\":1079:1085   */\n      dup2\n        /* \"#utility.yul\":1076:1106   */\n      gt\n        /* \"#utility.yul\":1073:1190   */\n      iszero\n      tag_64\n      jumpi\n        /* \"#utility.yul\":1109:1188   */\n      tag_65\n      tag_66\n      jump\t// in\n    tag_65:\n        /* \"#utility.yul\":1073:1190   */\n    tag_64:\n        /* \"#utility.yul\":1214:1277   */\n      tag_67\n        /* \"#utility.yul\":1269:1276   */\n      dup5\n        /* \"#utility.yul\":1260:1266   */\n      dup3\n        /* \"#utility.yul\":1249:1258   */\n      dup6\n        /* \"#utility.yul\":1245:1267   */\n      add\n        /* \"#utility.yul\":1214:1277   */\n      tag_54\n      jump\t// in\n    tag_67:\n        /* \"#utility.yul\":1204:1277   */\n      swap2\n      pop\n        /* \"#utility.yul\":1000:1287   */\n      pop\n        /* \"#utility.yul\":785:1294   */\n      swap3\n      swap2\n      pop\n      pop\n      jump\t// out\n        /* \"#utility.yul\":1300:1471   */\n    tag_68:\n        /* \"#utility.yul\":1365:1375   */\n      0x00\n        /* \"#utility.yul\":1386:1428   */\n      tag_70\n        /* \"#utility.yul\":1424:1427   */\n      dup4\n        /* \"#utility.yul\":1416:1422   */\n      dup4\n        /* \"#utility.yul\":1386:1428   */\n      tag_71\n      jump\t// in\n    tag_70:\n        /* \"#utility.yul\":1460:1464   */\n      0x20\n        /* \"#utility.yul\":1455:1458   */\n      dup4\n        /* \"#utility.yul\":1451:1465   */\n      add\n        /* \"#utility.yul\":1437:1465   */\n      swap1\n      pop\n        /* \"#utility.yul\":1300:1471   */\n      swap3\n      swap2\n      pop\n      pop\n      jump\t// out\n        /* \"#utility.yul\":1505:2183   */\n    tag_72:\n        /* \"#utility.yul\":1637:1687   */\n      tag_74\n        /* \"#utility.yul\":1681:1686   */\n      dup2\n        /* \"#utility.yul\":1637:1687   */\n      tag_75\n      jump\t// in\n    tag_74:\n        /* \"#utility.yul\":1703:1785   */\n      tag_76\n        /* \"#utility.yul\":1778:1784   */\n      dup2\n        /* \"#utility.yul\":1773:1776   */\n      dup5\n        /* \"#utility.yul\":1703:1785   */\n      tag_77\n      jump\t// in\n    tag_76:\n        /* \"#utility.yul\":1696:1785   */\n      swap3\n      pop\n        /* \"#utility.yul\":1809:1861   */\n      tag_78\n        /* \"#utility.yul\":1855:1860   */\n      dup3\n        /* \"#utility.yul\":1809:1861   */\n      tag_79\n      jump\t// in\n    tag_78:\n        /* \"#utility.yul\":1884:1891   */\n      dup1\n        /* \"#utility.yul\":1915:1916   */\n      0x00\n        /* \"#utility.yul\":1900:2176   */\n    tag_80:\n        /* \"#utility.yul\":1925:1931   */\n      dup4\n        /* \"#utility.yul\":1922:1923   */\n      dup2\n        /* \"#utility.yul\":1919:1932   */\n      lt\n        /* \"#utility.yul\":1900:2176   */\n      iszero\n      tag_82\n      jumpi\n        /* \"#utility.yul\":2001:2007   */\n      dup2\n        /* \"#utility.yul\":1995:2008   */\n      mload\n        /* \"#utility.yul\":2028:2087   */\n      tag_83\n        /* \"#utility.yul\":2083:2086   */\n      dup8\n        /* \"#utility.yul\":2068:2081   */\n      dup3\n        /* \"#utility.yul\":2028:2087   */\n      tag_68\n      jump\t// in\n    tag_83:\n        /* \"#utility.yul\":2021:2087   */\n      swap7\n      pop\n        /* \"#utility.yul\":2110:2166   */\n      tag_84\n        /* \"#utility.yul\":2159:2165   */\n      dup4\n        /* \"#utility.yul\":2110:2166   */\n      tag_85\n      jump\t// in\n    tag_84:\n        /* \"#utility.yul\":2100:2166   */\n      swap3\n      pop\n        /* \"#utility.yul\":1960:2176   */\n      pop\n        /* \"#utility.yul\":1947:1948   */\n      0x01\n        /* \"#utility.yul\":1944:1945   */\n      dup2\n        /* \"#utility.yul\":1940:1949   */\n      add\n        /* \"#utility.yul\":1935:1949   */\n      swap1\n      pop\n        /* \"#utility.yul\":1900:2176   */\n      jump(tag_80)\n    tag_82:\n        /* \"#utility.yul\":1904:1918   */\n      pop\n        /* \"#utility.yul\":1613:2183   */\n      pop\n      pop\n      pop\n        /* \"#utility.yul\":1505:2183   */\n      pop\n      pop\n      jump\t// out\n        /* \"#utility.yul\":2189:2553   */\n    tag_86:\n        /* \"#utility.yul\":2277:2280   */\n      0x00\n        /* \"#utility.yul\":2305:2344   */\n      tag_88\n        /* \"#utility.yul\":2338:2343   */\n      dup3\n        /* \"#utility.yul\":2305:2344   */\n      tag_89\n      jump\t// in\n    tag_88:\n        /* \"#utility.yul\":2360:2431   */\n      tag_90\n        /* \"#utility.yul\":2424:2430   */\n      dup2\n        /* \"#utility.yul\":2419:2422   */\n      dup6\n        /* \"#utility.yul\":2360:2431   */\n      tag_91\n      jump\t// in\n    tag_90:\n        /* \"#utility.yul\":2353:2431   */\n      swap4\n      pop\n        /* \"#utility.yul\":2440:2492   */\n      tag_92\n        /* \"#utility.yul\":2485:2491   */\n      dup2\n        /* \"#utility.yul\":2480:2483   */\n      dup6\n        /* \"#utility.yul\":2473:2477   */\n      0x20\n        /* \"#utility.yul\":2466:2471   */\n      dup7\n        /* \"#utility.yul\":2462:2478   */\n      add\n        /* \"#utility.yul\":2440:2492   */\n      tag_93\n      jump\t// in\n    tag_92:\n        /* \"#utility.yul\":2517:2546   */\n      tag_94\n        /* \"#utility.yul\":2539:2545   */\n      dup2\n        /* \"#utility.yul\":2517:2546   */\n      tag_95\n      jump\t// in\n    tag_94:\n        /* \"#utility.yul\":2512:2515   */\n      dup5\n        /* \"#utility.yul\":2508:2547   */\n      add\n        /* \"#utility.yul\":2501:2547   */\n      swap2\n      pop\n        /* \"#utility.yul\":2281:2553   */\n      pop\n        /* \"#utility.yul\":2189:2553   */\n      swap3\n      swap2\n      pop\n      pop\n      jump\t// out\n        /* \"#utility.yul\":2559:2661   */\n    tag_71:\n        /* \"#utility.yul\":2632:2654   */\n      tag_97\n        /* \"#utility.yul\":2648:2653   */\n      dup2\n        /* \"#utility.yul\":2632:2654   */\n      tag_98\n      jump\t// in\n    tag_97:\n        /* \"#utility.yul\":2627:2630   */\n      dup3\n        /* \"#utility.yul\":2620:2655   */\n      mstore\n        /* \"#utility.yul\":2559:2661   */\n      pop\n      pop\n      jump\t// out\n        /* \"#utility.yul\":2667:2974   */\n    tag_9:\n        /* \"#utility.yul\":2802:2806   */\n      0x00\n        /* \"#utility.yul\":2840:2843   */\n      0xa0\n        /* \"#utility.yul\":2829:2838   */\n      dup3\n        /* \"#utility.yul\":2825:2844   */\n      add\n        /* \"#utility.yul\":2817:2844   */\n      swap1\n      pop\n        /* \"#utility.yul\":2854:2967   */\n      tag_100\n        /* \"#utility.yul\":2964:2965   */\n      0x00\n        /* \"#utility.yul\":2953:2962   */\n      dup4\n        /* \"#utility.yul\":2949:2966   */\n      add\n        /* \"#utility.yul\":2940:2946   */\n      dup5\n        /* \"#utility.yul\":2854:2967   */\n      tag_72\n      jump\t// in\n    tag_100:\n        /* \"#utility.yul\":2667:2974   */\n      swap3\n      swap2\n      pop\n      pop\n      jump\t// out\n        /* \"#utility.yul\":2980:3293   */\n    tag_13:\n        /* \"#utility.yul\":3093:3097   */\n      0x00\n        /* \"#utility.yul\":3131:3133   */\n      0x20\n        /* \"#utility.yul\":3120:3129   */\n      dup3\n        /* \"#utility.yul\":3116:3134   */\n      add\n        /* \"#utility.yul\":3108:3134   */\n      swap1\n      pop\n        /* \"#utility.yul\":3180:3189   */\n      dup2\n        /* \"#utility.yul\":3174:3178   */\n      dup2\n        /* \"#utility.yul\":3170:3190   */\n      sub\n        /* \"#utility.yul\":3166:3167   */\n      0x00\n        /* \"#utility.yul\":3155:3164   */\n      dup4\n        /* \"#utility.yul\":3151:3168   */\n      add\n        /* \"#utility.yul\":3144:3191   */\n      mstore\n        /* \"#utility.yul\":3208:3286   */\n      tag_102\n        /* \"#utility.yul\":3281:3285   */\n      dup2\n        /* \"#utility.yul\":3272:3278   */\n      dup5\n        /* \"#utility.yul\":3208:3286   */\n      tag_86\n      jump\t// in\n    tag_102:\n        /* \"#utility.yul\":3200:3286   */\n      swap1\n      pop\n        /* \"#utility.yul\":2980:3293   */\n      swap3\n      swap2\n      pop\n      pop\n      jump\t// out\n        /* \"#utility.yul\":3299:3428   */\n    tag_48:\n        /* \"#utility.yul\":3333:3339   */\n      0x00\n        /* \"#utility.yul\":3360:3380   */\n      tag_104\n      tag_105\n      jump\t// in\n    tag_104:\n        /* \"#utility.yul\":3350:3380   */\n      swap1\n      pop\n        /* \"#utility.yul\":3389:3422   */\n      tag_106\n        /* \"#utility.yul\":3417:3421   */\n      dup3\n        /* \"#utility.yul\":3409:3415   */\n      dup3\n        /* \"#utility.yul\":3389:3422   */\n      tag_107\n      jump\t// in\n    tag_106:\n        /* \"#utility.yul\":3299:3428   */\n      swap2\n      swap1\n      pop\n      jump\t// out\n        /* \"#utility.yul\":3434:3509   */\n    tag_105:\n        /* \"#utility.yul\":3467:3473   */\n      0x00\n        /* \"#utility.yul\":3500:3502   */\n      0x40\n        /* \"#utility.yul\":3494:3503   */\n      mload\n        /* \"#utility.yul\":3484:3503   */\n      swap1\n      pop\n        /* \"#utility.yul\":3434:3509   */\n      swap1\n      jump\t// out\n        /* \"#utility.yul\":3515:3823   */\n    tag_47:\n        /* \"#utility.yul\":3577:3581   */\n      0x00\n        /* \"#utility.yul\":3667:3685   */\n      0xffffffffffffffff\n        /* \"#utility.yul\":3659:3665   */\n      dup3\n        /* \"#utility.yul\":3656:3686   */\n      gt\n        /* \"#utility.yul\":3653:3709   */\n      iszero\n      tag_110\n      jumpi\n        /* \"#utility.yul\":3689:3707   */\n      tag_111\n      tag_112\n      jump\t// in\n    tag_111:\n        /* \"#utility.yul\":3653:3709   */\n    tag_110:\n        /* \"#utility.yul\":3727:3756   */\n      tag_113\n        /* \"#utility.yul\":3749:3755   */\n      dup3\n        /* \"#utility.yul\":3727:3756   */\n      tag_95\n      jump\t// in\n    tag_113:\n        /* \"#utility.yul\":3719:3756   */\n      swap1\n      pop\n        /* \"#utility.yul\":3811:3815   */\n      0x20\n        /* \"#utility.yul\":3805:3809   */\n      dup2\n        /* \"#utility.yul\":3801:3816   */\n      add\n        /* \"#utility.yul\":3793:3816   */\n      swap1\n      pop\n        /* \"#utility.yul\":3515:3823   */\n      swap2\n      swap1\n      pop\n      jump\t// out\n        /* \"#utility.yul\":3829:3925   */\n    tag_79:\n        /* \"#utility.yul\":3892:3896   */\n      0x00\n        /* \"#utility.yul\":3915:3918   */\n      dup2\n        /* \"#utility.yul\":3907:3918   */\n      swap1\n      pop\n        /* \"#utility.yul\":3829:3925   */\n      swap2\n      swap1\n      pop\n      jump\t// out\n        /* \"#utility.yul\":3931:4033   */\n    tag_75:\n        /* \"#utility.yul\":3994:4000   */\n      0x00\n        /* \"#utility.yul\":4022:4026   */\n      0x05\n        /* \"#utility.yul\":4012:4026   */\n      swap1\n      pop\n        /* \"#utility.yul\":3931:4033   */\n      swap2\n      swap1\n      pop\n      jump\t// out\n        /* \"#utility.yul\":4039:4138   */\n    tag_89:\n        /* \"#utility.yul\":4091:4097   */\n      0x00\n        /* \"#utility.yul\":4125:4130   */\n      dup2\n        /* \"#utility.yul\":4119:4131   */\n      mload\n        /* \"#utility.yul\":4109:4131   */\n      swap1\n      pop\n        /* \"#utility.yul\":4039:4138   */\n      swap2\n      swap1\n      pop\n      jump\t// out\n        /* \"#utility.yul\":4144:4253   */\n    tag_85:\n        /* \"#utility.yul\":4210:4214   */\n      0x00\n        /* \"#utility.yul\":4242:4246   */\n      0x20\n        /* \"#utility.yul\":4237:4240   */\n      dup3\n        /* \"#utility.yul\":4233:4247   */\n      add\n        /* \"#utility.yul\":4225:4247   */\n      swap1\n      pop\n        /* \"#utility.yul\":4144:4253   */\n      swap2\n      swap1\n      pop\n      jump\t// out\n        /* \"#utility.yul\":4259:4400   */\n    tag_77:\n        /* \"#utility.yul\":4354:4365   */\n      0x00\n        /* \"#utility.yul\":4391:4394   */\n      dup2\n        /* \"#utility.yul\":4376:4394   */\n      swap1\n      pop\n        /* \"#utility.yul\":4259:4400   */\n      swap3\n      swap2\n      pop\n      pop\n      jump\t// out\n        /* \"#utility.yul\":4406:4575   */\n    tag_91:\n        /* \"#utility.yul\":4490:4501   */\n      0x00\n        /* \"#utility.yul\":4524:4530   */\n      dup3\n        /* \"#utility.yul\":4519:4522   */\n      dup3\n        /* \"#utility.yul\":4512:4531   */\n      mstore\n        /* \"#utility.yul\":4564:4568   */\n      0x20\n        /* \"#utility.yul\":4559:4562   */\n      dup3\n        /* \"#utility.yul\":4555:4569   */\n      add\n        /* \"#utility.yul\":4540:4569   */\n      swap1\n      pop\n        /* \"#utility.yul\":4406:4575   */\n      swap3\n      swap2\n      pop\n      pop\n      jump\t// out\n        /* \"#utility.yul\":4581:4667   */\n    tag_98:\n        /* \"#utility.yul\":4616:4623   */\n      0x00\n        /* \"#utility.yul\":4656:4660   */\n      0xff\n        /* \"#utility.yul\":4649:4654   */\n      dup3\n        /* \"#utility.yul\":4645:4661   */\n      and\n        /* \"#utility.yul\":4634:4661   */\n      swap1\n      pop\n        /* \"#utility.yul\":4581:4667   */\n      swap2\n      swap1\n      pop\n      jump\t// out\n        /* \"#utility.yul\":4673:4827   */\n    tag_53:\n        /* \"#utility.yul\":4757:4763   */\n      dup3\n        /* \"#utility.yul\":4752:4755   */\n      dup2\n        /* \"#utility.yul\":4747:4750   */\n      dup4\n        /* \"#utility.yul\":4734:4764   */\n      calldatacopy\n        /* \"#utility.yul\":4819:4820   */\n      0x00\n        /* \"#utility.yul\":4810:4816   */\n      dup4\n        /* \"#utility.yul\":4805:4808   */\n      dup4\n        /* \"#utility.yul\":4801:4817   */\n      add\n        /* \"#utility.yul\":4794:4821   */\n      mstore\n        /* \"#utility.yul\":4673:4827   */\n      pop\n      pop\n      pop\n      jump\t// out\n        /* \"#utility.yul\":4833:5140   */\n    tag_93:\n        /* \"#utility.yul\":4901:4902   */\n      0x00\n        /* \"#utility.yul\":4911:5024   */\n    tag_123:\n        /* \"#utility.yul\":4925:4931   */\n      dup4\n        /* \"#utility.yul\":4922:4923   */\n      dup2\n        /* \"#utility.yul\":4919:4932   */\n      lt\n        /* \"#utility.yul\":4911:5024   */\n      iszero\n      tag_125\n      jumpi\n        /* \"#utility.yul\":5010:5011   */\n      dup1\n        /* \"#utility.yul\":5005:5008   */\n      dup3\n        /* \"#utility.yul\":5001:5012   */\n      add\n        /* \"#utility.yul\":4995:5013   */\n      mload\n        /* \"#utility.yul\":4991:4992   */\n      dup2\n        /* \"#utility.yul\":4986:4989   */\n      dup5\n        /* \"#utility.yul\":4982:4993   */\n      add\n        /* \"#utility.yul\":4975:5014   */\n      mstore\n        /* \"#utility.yul\":4947:4949   */\n      0x20\n        /* \"#utility.yul\":4944:4945   */\n      dup2\n        /* \"#utility.yul\":4940:4950   */\n      add\n        /* \"#utility.yul\":4935:4950   */\n      swap1\n      pop\n        /* \"#utility.yul\":4911:5024   */\n      jump(tag_123)\n    tag_125:\n        /* \"#utility.yul\":5042:5048   */\n      dup4\n        /* \"#utility.yul\":5039:5040   */\n      dup2\n        /* \"#utility.yul\":5036:5049   */\n      gt\n        /* \"#utility.yul\":5033:5134   */\n      iszero\n      tag_126\n      jumpi\n        /* \"#utility.yul\":5122:5123   */\n      0x00\n        /* \"#utility.yul\":5113:5119   */\n      dup5\n        /* \"#utility.yul\":5108:5111   */\n      dup5\n        /* \"#utility.yul\":5104:5120   */\n      add\n        /* \"#utility.yul\":5097:5124   */\n      mstore\n        /* \"#utility.yul\":5033:5134   */\n    tag_126:\n        /* \"#utility.yul\":4882:5140   */\n      pop\n        /* \"#utility.yul\":4833:5140   */\n      pop\n      pop\n      pop\n      jump\t// out\n        /* \"#utility.yul\":5146:5466   */\n    tag_24:\n        /* \"#utility.yul\":5190:5196   */\n      0x00\n        /* \"#utility.yul\":5227:5228   */\n      0x02\n        /* \"#utility.yul\":5221:5225   */\n      dup3\n        /* \"#utility.yul\":5217:5229   */\n      div\n        /* \"#utility.yul\":5207:5229   */\n      swap1\n      pop\n        /* \"#utility.yul\":5274:5275   */\n      0x01\n        /* \"#utility.yul\":5268:5272   */\n      dup3\n        /* \"#utility.yul\":5264:5276   */\n      and\n        /* \"#utility.yul\":5295:5313   */\n      dup1\n        /* \"#utility.yul\":5285:5366   */\n      tag_128\n      jumpi\n        /* \"#utility.yul\":5351:5355   */\n      0x7f\n        /* \"#utility.yul\":5343:5349   */\n      dup3\n        /* \"#utility.yul\":5339:5356   */\n      and\n        /* \"#utility.yul\":5329:5356   */\n      swap2\n      pop\n        /* \"#utility.yul\":5285:5366   */\n    tag_128:\n        /* \"#utility.yul\":5413:5415   */\n      0x20\n        /* \"#utility.yul\":5405:5411   */\n      dup3\n        /* \"#utility.yul\":5402:5416   */\n      lt\n        /* \"#utility.yul\":5382:5400   */\n      dup2\n        /* \"#utility.yul\":5379:5417   */\n      eq\n        /* \"#utility.yul\":5376:5460   */\n      iszero\n      tag_129\n      jumpi\n        /* \"#utility.yul\":5432:5450   */\n      tag_130\n      tag_131\n      jump\t// in\n    tag_130:\n        /* \"#utility.yul\":5376:5460   */\n    tag_129:\n        /* \"#utility.yul\":5197:5466   */\n      pop\n        /* \"#utility.yul\":5146:5466   */\n      swap2\n      swap1\n      pop\n      jump\t// out\n        /* \"#utility.yul\":5472:5753   */\n    tag_107:\n        /* \"#utility.yul\":5555:5582   */\n      tag_133\n        /* \"#utility.yul\":5577:5581   */\n      dup3\n        /* \"#utility.yul\":5555:5582   */\n      tag_95\n      jump\t// in\n    tag_133:\n        /* \"#utility.yul\":5547:5553   */\n      dup2\n        /* \"#utility.yul\":5543:5583   */\n      add\n        /* \"#utility.yul\":5685:5691   */\n      dup2\n        /* \"#utility.yul\":5673:5683   */\n      dup2\n        /* \"#utility.yul\":5670:5692   */\n      lt\n        /* \"#utility.yul\":5649:5667   */\n      0xffffffffffffffff\n        /* \"#utility.yul\":5637:5647   */\n      dup3\n        /* \"#utility.yul\":5634:5668   */\n      gt\n        /* \"#utility.yul\":5631:5693   */\n      or\n        /* \"#utility.yul\":5628:5716   */\n      iszero\n      tag_134\n      jumpi\n        /* \"#utility.yul\":5696:5714   */\n      tag_135\n      tag_112\n      jump\t// in\n    tag_135:\n        /* \"#utility.yul\":5628:5716   */\n    tag_134:\n        /* \"#utility.yul\":5736:5746   */\n      dup1\n        /* \"#utility.yul\":5732:5734   */\n      0x40\n        /* \"#utility.yul\":5725:5747   */\n      mstore\n        /* \"#utility.yul\":5515:5753   */\n      pop\n        /* \"#utility.yul\":5472:5753   */\n      pop\n      pop\n      jump\t// out\n        /* \"#utility.yul\":5759:5939   */\n    tag_131:\n        /* \"#utility.yul\":5807:5884   */\n      0x4e487b7100000000000000000000000000000000000000000000000000000000\n        /* \"#utility.yul\":5804:5805   */\n      0x00\n        /* \"#utility.yul\":5797:5885   */\n      mstore\n        /* \"#utility.yul\":5904:5908   */\n      0x22\n        /* \"#utility.yul\":5901:5902   */\n      0x04\n        /* \"#utility.yul\":5894:5909   */\n      mstore\n        /* \"#utility.yul\":5928:5932   */\n      0x24\n        /* \"#utility.yul\":5925:5926   */\n      0x00\n        /* \"#utility.yul\":5918:5933   */\n      revert\n        /* \"#utility.yul\":5945:6125   */\n    tag_112:\n        /* \"#utility.yul\":5993:6070   */\n      0x4e487b7100000000000000000000000000000000000000000000000000000000\n        /* \"#utility.yul\":5990:5991   */\n      0x00\n        /* \"#utility.yul\":5983:6071   */\n      mstore\n        /* \"#utility.yul\":6090:6094   */\n      0x41\n        /* \"#utility.yul\":6087:6088   */\n      0x04\n        /* \"#utility.yul\":6080:6095   */\n      mstore\n        /* \"#utility.yul\":6114:6118   */\n      0x24\n        /* \"#utility.yul\":6111:6112   */\n      0x00\n        /* \"#utility.yul\":6104:6119   */\n      revert\n        /* \"#utility.yul\":6131:6248   */\n    tag_58:\n        /* \"#utility.yul\":6240:6241   */\n      0x00\n        /* \"#utility.yul\":6237:6238   */\n      dup1\n        /* \"#utility.yul\":6230:6242   */\n      revert\n        /* \"#utility.yul\":6254:6371   */\n    tag_51:\n        /* \"#utility.yul\":6363:6364   */\n      0x00\n        /* \"#utility.yul\":6360:6361   */\n      dup1\n        /* \"#utility.yul\":6353:6365   */\n      revert\n        /* \"#utility.yul\":6377:6494   */\n    tag_66:\n        /* \"#utility.yul\":6486:6487   */\n      0x00\n        /* \"#utility.yul\":6483:6484   */\n      dup1\n        /* \"#utility.yul\":6476:6488   */\n      revert\n        /* \"#utility.yul\":6500:6617   */\n    tag_63:\n        /* \"#utility.yul\":6609:6610   */\n      0x00\n        /* \"#utility.yul\":6606:6607   */\n      dup1\n        /* \"#utility.yul\":6599:6611   */\n      revert\n        /* \"#utility.yul\":6623:6725   */\n    tag_95:\n        /* \"#utility.yul\":6664:6670   */\n      0x00\n        /* \"#utility.yul\":6715:6717   */\n      0x1f\n        /* \"#utility.yul\":6711:6718   */\n      not\n        /* \"#utility.yul\":6706:6708   */\n      0x1f\n        /* \"#utility.yul\":6699:6704   */\n      dup4\n        /* \"#utility.yul\":6695:6709   */\n      add\n        /* \"#utility.yul\":6691:6719   */\n      and\n        /* \"#utility.yul\":6681:6719   */\n      swap1\n      pop\n        /* \"#utility.yul\":6623:6725   */\n      swap2\n      swap1\n      pop\n      jump\t// out\n\n    auxdata: 0xa2646970667358221220fce55380f3189d68d174f417b00b654d28137104f00923324214fea43dfb455e64736f6c63430008070033\n}\n",
				"bytecode": {
					"linkReferences": {},
					"object": "608060405234801561001057600080fd5b5060006040518060a00160405280600660ff168152602001600760ff168152602001600860ff168152602001600960ff168152602001600a60ff16815250905060405180604001604052806040518060400160405280600381526020017f61626300000000000000000000000000000000000000000000000000000000008152508152602001828152506000808201518160000190805190602001906100b79291906100d9565b506020820151816001019060056100cf92919061015f565b5090505050610277565b8280546100e590610216565b90600052602060002090601f016020900481019282610107576000855561014e565b82601f1061012057805160ff191683800117855561014e565b8280016001018555821561014e579182015b8281111561014d578251825591602001919060010190610132565b5b50905061015b91906101f9565b5090565b826005601f016020900481019282156101e85791602002820160005b838211156101b957835183826101000a81548160ff021916908360ff160217905550926020019260010160208160000104928301926001030261017b565b80156101e65782816101000a81549060ff02191690556001016020816000010492830192600103026101b9565b505b5090506101f591906101f9565b5090565b5b808211156102125760008160009055506001016101fa565b5090565b6000600282049050600182168061022e57607f821691505b6020821081141561024257610241610248565b5b50919050565b7f4e487b7100000000000000000000000000000000000000000000000000000000600052602260045260246000fd5b61063e806102866000396000f3fe608060405234801561001057600080fd5b50600436106100415760003560e01c806309b1b3f214610046578063912245b014610064578063ef4093fe14610082575b600080fd5b61004e61009e565b60405161005b91906103f7565b60405180910390f35b61006c610112565b6040516100799190610412565b60405180910390f35b61009c600480360381019061009791906102f7565b6101a6565b005b6100a66101c2565b6000600101600580602002604051908101604052809291908260058015610108576020028201916000905b82829054906101000a900460ff1660ff16815260200190600101906020826000010492830192600103820291508084116100d15790505b5050505050905090565b600080600001805461012390610522565b80601f016020809104026020016040519081016040528092919081815260200182805461014f90610522565b801561019c5780601f106101715761010080835404028352916020019161019c565b820191906000526020600020905b81548152906001019060200180831161017f57829003601f168201915b5050505050905081565b806000800190805190602001906101be9291906101e4565b5050565b6040518060a00160405280600590602082028036833780820191505090505090565b8280546101f090610522565b90600052602060002090601f0160209004810192826102125760008555610259565b82601f1061022b57805160ff1916838001178555610259565b82800160010185558215610259579182015b8281111561025857825182559160200191906001019061023d565b5b509050610266919061026a565b5090565b5b8082111561028357600081600090555060010161026b565b5090565b600061029a61029584610459565b610434565b9050828152602081018484840111156102b6576102b56105e8565b5b6102c18482856104e0565b509392505050565b600082601f8301126102de576102dd6105e3565b5b81356102ee848260208601610287565b91505092915050565b60006020828403121561030d5761030c6105f2565b5b600082013567ffffffffffffffff81111561032b5761032a6105ed565b5b610337848285016102c9565b91505092915050565b600061034c83836103e8565b60208301905092915050565b61036181610494565b61036b81846104b7565b92506103768261048a565b8060005b838110156103a757815161038e8782610340565b9650610399836104aa565b92505060018101905061037a565b505050505050565b60006103ba8261049f565b6103c481856104c2565b93506103d48185602086016104ef565b6103dd816105f7565b840191505092915050565b6103f1816104d3565b82525050565b600060a08201905061040c6000830184610358565b92915050565b6000602082019050818103600083015261042c81846103af565b905092915050565b600061043e61044f565b905061044a8282610554565b919050565b6000604051905090565b600067ffffffffffffffff821115610474576104736105b4565b5b61047d826105f7565b9050602081019050919050565b6000819050919050565b600060059050919050565b600081519050919050565b6000602082019050919050565b600081905092915050565b600082825260208201905092915050565b600060ff82169050919050565b82818337600083830152505050565b60005b8381101561050d5780820151818401526020810190506104f2565b8381111561051c576000848401525b50505050565b6000600282049050600182168061053a57607f821691505b6020821081141561054e5761054d610585565b5b50919050565b61055d826105f7565b810181811067ffffffffffffffff8211171561057c5761057b6105b4565b5b80604052505050565b7f4e487b7100000000000000000000000000000000000000000000000000000000600052602260045260246000fd5b7f4e487b7100000000000000000000000000000000000000000000000000000000600052604160045260246000fd5b600080fd5b600080fd5b600080fd5b600080fd5b6000601f19601f830116905091905056fea2646970667358221220fce55380f3189d68d174f417b00b654d28137104f00923324214fea43dfb455e64736f6c63430008070033",
					"opcodes": "PUSH1 0x80 PUSH1 0x40 MSTORE CALLVALUE DUP1 ISZERO PUSH2 0x10 JUMPI PUSH1 0x0 DUP1 REVERT JUMPDEST POP PUSH1 0x0 PUSH1 0x40 MLOAD DUP1 PUSH1 0xA0 ADD PUSH1 0x40 MSTORE DUP1 PUSH1 0x6 PUSH1 0xFF AND DUP2 MSTORE PUSH1 0x20 ADD PUSH1 0x7 PUSH1 0xFF AND DUP2 MSTORE PUSH1 0x20 ADD PUSH1 0x8 PUSH1 0xFF AND DUP2 MSTORE PUSH1 0x20 ADD PUSH1 0x9 PUSH1 0xFF AND DUP2 MSTORE PUSH1 0x20 ADD PUSH1 0xA PUSH1 0xFF AND DUP2 MSTORE POP SWAP1 POP PUSH1 0x40 MLOAD DUP1 PUSH1 0x40 ADD PUSH1 0x40 MSTORE DUP1 PUSH1 0x40 MLOAD DUP1 PUSH1 0x40 ADD PUSH1 0x40 MSTORE DUP1 PUSH1 0x3 DUP2 MSTORE PUSH1 0x20 ADD PUSH32 0x6162630000000000000000000000000000000000000000000000000000000000 DUP2 MSTORE POP DUP2 MSTORE PUSH1 0x20 ADD DUP3 DUP2 MSTORE POP PUSH1 0x0 DUP1 DUP3 ADD MLOAD DUP2 PUSH1 0x0 ADD SWAP1 DUP1 MLOAD SWAP1 PUSH1 0x20 ADD SWAP1 PUSH2 0xB7 SWAP3 SWAP2 SWAP1 PUSH2 0xD9 JUMP JUMPDEST POP PUSH1 0x20 DUP3 ADD MLOAD DUP2 PUSH1 0x1 ADD SWAP1 PUSH1 0x5 PUSH2 0xCF SWAP3 SWAP2 SWAP1 PUSH2 0x15F JUMP JUMPDEST POP SWAP1 POP POP POP PUSH2 0x277 JUMP JUMPDEST DUP3 DUP1 SLOAD PUSH2 0xE5 SWAP1 PUSH2 0x216 JUMP JUMPDEST SWAP1 PUSH1 0x0 MSTORE PUSH1 0x20 PUSH1 0x0 KECCAK256 SWAP1 PUSH1 0x1F ADD PUSH1 0x20 SWAP1 DIV DUP2 ADD SWAP3 DUP3 PUSH2 0x107 JUMPI PUSH1 0x0 DUP6 SSTORE PUSH2 0x14E JUMP JUMPDEST DUP3 PUSH1 0x1F LT PUSH2 0x120 JUMPI DUP1 MLOAD PUSH1 0xFF NOT AND DUP4 DUP1 ADD OR DUP6 SSTORE PUSH2 0x14E JUMP JUMPDEST DUP3 DUP1 ADD PUSH1 0x1 ADD DUP6 SSTORE DUP3 ISZERO PUSH2 0x14E JUMPI SWAP2 DUP3 ADD JUMPDEST DUP3 DUP2 GT ISZERO PUSH2 0x14D JUMPI DUP3 MLOAD DUP3 SSTORE SWAP2 PUSH1 0x20 ADD SWAP2 SWAP1 PUSH1 0x1 ADD SWAP1 PUSH2 0x132 JUMP JUMPDEST JUMPDEST POP SWAP1 POP PUSH2 0x15B SWAP2 SWAP1 PUSH2 0x1F9 JUMP JUMPDEST POP SWAP1 JUMP JUMPDEST DUP3 PUSH1 0x5 PUSH1 0x1F ADD PUSH1 0x20 SWAP1 DIV DUP2 ADD SWAP3 DUP3 ISZERO PUSH2 0x1E8 JUMPI SWAP2 PUSH1 0x20 MUL DUP3 ADD PUSH1 0x0 JUMPDEST DUP4 DUP3 GT ISZERO PUSH2 0x1B9 JUMPI DUP4 MLOAD DUP4 DUP3 PUSH2 0x100 EXP DUP2 SLOAD DUP2 PUSH1 0xFF MUL NOT AND SWAP1 DUP4 PUSH1 0xFF AND MUL OR SWAP1 SSTORE POP SWAP3 PUSH1 0x20 ADD SWAP3 PUSH1 0x1 ADD PUSH1 0x20 DUP2 PUSH1 0x0 ADD DIV SWAP3 DUP4 ADD SWAP3 PUSH1 0x1 SUB MUL PUSH2 0x17B JUMP JUMPDEST DUP1 ISZERO PUSH2 0x1E6 JUMPI DUP3 DUP2 PUSH2 0x100 EXP DUP2 SLOAD SWAP1 PUSH1 0xFF MUL NOT AND SWAP1 SSTORE PUSH1 0x1 ADD PUSH1 0x20 DUP2 PUSH1 0x0 ADD DIV SWAP3 DUP4 ADD SWAP3 PUSH1 0x1 SUB MUL PUSH2 0x1B9 JUMP JUMPDEST POP JUMPDEST POP SWAP1 POP PUSH2 0x1F5 SWAP2 SWAP1 PUSH2 0x1F9 JUMP JUMPDEST POP SWAP1 JUMP JUMPDEST JUMPDEST DUP1 DUP3 GT ISZERO PUSH2 0x212 JUMPI PUSH1 0x0 DUP2 PUSH1 0x0 SWAP1 SSTORE POP PUSH1 0x1 ADD PUSH2 0x1FA JUMP JUMPDEST POP SWAP1 JUMP JUMPDEST PUSH1 0x0 PUSH1 0x2 DUP3 DIV SWAP1 POP PUSH1 0x1 DUP3 AND DUP1 PUSH2 0x22E JUMPI PUSH1 0x7F DUP3 AND SWAP2 POP JUMPDEST PUSH1 0x20 DUP3 LT DUP2 EQ ISZERO PUSH2 0x242 JUMPI PUSH2 0x241 PUSH2 0x248 JUMP JUMPDEST JUMPDEST POP SWAP2 SWAP1 POP JUMP JUMPDEST PUSH32 0x4E487B7100000000000000000000000000000000000000000000000000000000 PUSH1 0x0 MSTORE PUSH1 0x22 PUSH1 0x4 MSTORE PUSH1 0x24 PUSH1 0x0 REVERT JUMPDEST PUSH2 0x63E DUP1 PUSH2 0x286 PUSH1 0x0 CODECOPY PUSH1 0x0 RETURN INVALID PUSH1 0x80 PUSH1 0x40 MSTORE CALLVALUE DUP1 ISZERO PUSH2 0x10 JUMPI PUSH1 0x0 DUP1 REVERT JUMPDEST POP PUSH1 0x4 CALLDATASIZE LT PUSH2 0x41 JUMPI PUSH1 0x0 CALLDATALOAD PUSH1 0xE0 SHR DUP1 PUSH4 0x9B1B3F2 EQ PUSH2 0x46 JUMPI DUP1 PUSH4 0x912245B0 EQ PUSH2 0x64 JUMPI DUP1 PUSH4 0xEF4093FE EQ PUSH2 0x82 JUMPI JUMPDEST PUSH1 0x0 DUP1 REVERT JUMPDEST PUSH2 0x4E PUSH2 0x9E JUMP JUMPDEST PUSH1 0x40 MLOAD PUSH2 0x5B SWAP2 SWAP1 PUSH2 0x3F7 JUMP JUMPDEST PUSH1 0x40 MLOAD DUP1 SWAP2 SUB SWAP1 RETURN JUMPDEST PUSH2 0x6C PUSH2 0x112 JUMP JUMPDEST PUSH1 0x40 MLOAD PUSH2 0x79 SWAP2 SWAP1 PUSH2 0x412 JUMP JUMPDEST PUSH1 0x40 MLOAD DUP1 SWAP2 SUB SWAP1 RETURN JUMPDEST PUSH2 0x9C PUSH1 0x4 DUP1 CALLDATASIZE SUB DUP2 ADD SWAP1 PUSH2 0x97 SWAP2 SWAP1 PUSH2 0x2F7 JUMP JUMPDEST PUSH2 0x1A6 JUMP JUMPDEST STOP JUMPDEST PUSH2 0xA6 PUSH2 0x1C2 JUMP JUMPDEST PUSH1 0x0 PUSH1 0x1 ADD PUSH1 0x5 DUP1 PUSH1 0x20 MUL PUSH1 0x40 MLOAD SWAP1 DUP2 ADD PUSH1 0x40 MSTORE DUP1 SWAP3 SWAP2 SWAP1 DUP3 PUSH1 0x5 DUP1 ISZERO PUSH2 0x108 JUMPI PUSH1 0x20 MUL DUP3 ADD SWAP2 PUSH1 0x0 SWAP1 JUMPDEST DUP3 DUP3 SWAP1 SLOAD SWAP1 PUSH2 0x100 EXP SWAP1 DIV PUSH1 0xFF AND PUSH1 0xFF AND DUP2 MSTORE PUSH1 0x20 ADD SWAP1 PUSH1 0x1 ADD SWAP1 PUSH1 0x20 DUP3 PUSH1 0x0 ADD DIV SWAP3 DUP4 ADD SWAP3 PUSH1 0x1 SUB DUP3 MUL SWAP2 POP DUP1 DUP5 GT PUSH2 0xD1 JUMPI SWAP1 POP JUMPDEST POP POP POP POP POP SWAP1 POP SWAP1 JUMP JUMPDEST PUSH1 0x0 DUP1 PUSH1 0x0 ADD DUP1 SLOAD PUSH2 0x123 SWAP1 PUSH2 0x522 JUMP JUMPDEST DUP1 PUSH1 0x1F ADD PUSH1 0x20 DUP1 SWAP2 DIV MUL PUSH1 0x20 ADD PUSH1 0x40 MLOAD SWAP1 DUP2 ADD PUSH1 0x40 MSTORE DUP1 SWAP3 SWAP2 SWAP1 DUP2 DUP2 MSTORE PUSH1 0x20 ADD DUP3 DUP1 SLOAD PUSH2 0x14F SWAP1 PUSH2 0x522 JUMP JUMPDEST DUP1 ISZERO PUSH2 0x19C JUMPI DUP1 PUSH1 0x1F LT PUSH2 0x171 JUMPI PUSH2 0x100 DUP1 DUP4 SLOAD DIV MUL DUP4 MSTORE SWAP2 PUSH1 0x20 ADD SWAP2 PUSH2 0x19C JUMP JUMPDEST DUP3 ADD SWAP2 SWAP1 PUSH1 0x0 MSTORE PUSH1 0x20 PUSH1 0x0 KECCAK256 SWAP1 JUMPDEST DUP2 SLOAD DUP2 MSTORE SWAP1 PUSH1 0x1 ADD SWAP1 PUSH1 0x20 ADD DUP1 DUP4 GT PUSH2 0x17F JUMPI DUP3 SWAP1 SUB PUSH1 0x1F AND DUP3 ADD SWAP2 JUMPDEST POP POP POP POP POP SWAP1 POP DUP2 JUMP JUMPDEST DUP1 PUSH1 0x0 DUP1 ADD SWAP1 DUP1 MLOAD SWAP1 PUSH1 0x20 ADD SWAP1 PUSH2 0x1BE SWAP3 SWAP2 SWAP1 PUSH2 0x1E4 JUMP JUMPDEST POP POP JUMP JUMPDEST PUSH1 0x40 MLOAD DUP1 PUSH1 0xA0 ADD PUSH1 0x40 MSTORE DUP1 PUSH1 0x5 SWAP1 PUSH1 0x20 DUP3 MUL DUP1 CALLDATASIZE DUP4 CALLDATACOPY DUP1 DUP3 ADD SWAP2 POP POP SWAP1 POP POP SWAP1 JUMP JUMPDEST DUP3 DUP1 SLOAD PUSH2 0x1F0 SWAP1 PUSH2 0x522 JUMP JUMPDEST SWAP1 PUSH1 0x0 MSTORE PUSH1 0x20 PUSH1 0x0 KECCAK256 SWAP1 PUSH1 0x1F ADD PUSH1 0x20 SWAP1 DIV DUP2 ADD SWAP3 DUP3 PUSH2 0x212 JUMPI PUSH1 0x0 DUP6 SSTORE PUSH2 0x259 JUMP JUMPDEST DUP3 PUSH1 0x1F LT PUSH2 0x22B JUMPI DUP1 MLOAD PUSH1 0xFF NOT AND DUP4 DUP1 ADD OR DUP6 SSTORE PUSH2 0x259 JUMP JUMPDEST DUP3 DUP1 ADD PUSH1 0x1 ADD DUP6 SSTORE DUP3 ISZERO PUSH2 0x259 JUMPI SWAP2 DUP3 ADD JUMPDEST DUP3 DUP2 GT ISZERO PUSH2 0x258 JUMPI DUP3 MLOAD DUP3 SSTORE SWAP2 PUSH1 0x20 ADD SWAP2 SWAP1 PUSH1 0x1 ADD SWAP1 PUSH2 0x23D JUMP JUMPDEST JUMPDEST POP SWAP1 POP PUSH2 0x266 SWAP2 SWAP1 PUSH2 0x26A JUMP JUMPDEST POP SWAP1 JUMP JUMPDEST JUMPDEST DUP1 DUP3 GT ISZERO PUSH2 0x283 JUMPI PUSH1 0x0 DUP2 PUSH1 0x0 SWAP1 SSTORE POP PUSH1 0x1 ADD PUSH2 0x26B JUMP JUMPDEST POP SWAP1 JUMP JUMPDEST PUSH1 0x0 PUSH2 0x29A PUSH2 0x295 DUP5 PUSH2 0x459 JUMP JUMPDEST PUSH2 0x434 JUMP JUMPDEST SWAP1 POP DUP3 DUP2 MSTORE PUSH1 0x20 DUP2 ADD DUP5 DUP5 DUP5 ADD GT ISZERO PUSH2 0x2B6 JUMPI PUSH2 0x2B5 PUSH2 0x5E8 JUMP JUMPDEST JUMPDEST PUSH2 0x2C1 DUP5 DUP3 DUP6 PUSH2 0x4E0 JUMP JUMPDEST POP SWAP4 SWAP3 POP POP POP JUMP JUMPDEST PUSH1 0x0 DUP3 PUSH1 0x1F DUP4 ADD SLT PUSH2 0x2DE JUMPI PUSH2 0x2DD PUSH2 0x5E3 JUMP JUMPDEST JUMPDEST DUP2 CALLDATALOAD PUSH2 0x2EE DUP5 DUP3 PUSH1 0x20 DUP7 ADD PUSH2 0x287 JUMP JUMPDEST SWAP2 POP POP SWAP3 SWAP2 POP POP JUMP JUMPDEST PUSH1 0x0 PUSH1 0x20 DUP3 DUP5 SUB SLT ISZERO PUSH2 0x30D JUMPI PUSH2 0x30C PUSH2 0x5F2 JUMP JUMPDEST JUMPDEST PUSH1 0x0 DUP3 ADD CALLDATALOAD PUSH8 0xFFFFFFFFFFFFFFFF DUP2 GT ISZERO PUSH2 0x32B JUMPI PUSH2 0x32A PUSH2 0x5ED JUMP JUMPDEST JUMPDEST PUSH2 0x337 DUP5 DUP3 DUP6 ADD PUSH2 0x2C9 JUMP JUMPDEST SWAP2 POP POP SWAP3 SWAP2 POP POP JUMP JUMPDEST PUSH1 0x0 PUSH2 0x34C DUP4 DUP4 PUSH2 0x3E8 JUMP JUMPDEST PUSH1 0x20 DUP4 ADD SWAP1 POP SWAP3 SWAP2 POP POP JUMP JUMPDEST PUSH2 0x361 DUP2 PUSH2 0x494 JUMP JUMPDEST PUSH2 0x36B DUP2 DUP5 PUSH2 0x4B7 JUMP JUMPDEST SWAP3 POP PUSH2 0x376 DUP3 PUSH2 0x48A JUMP JUMPDEST DUP1 PUSH1 0x0 JUMPDEST DUP4 DUP2 LT ISZERO PUSH2 0x3A7 JUMPI DUP2 MLOAD PUSH2 0x38E DUP8 DUP3 PUSH2 0x340 JUMP JUMPDEST SWAP7 POP PUSH2 0x399 DUP4 PUSH2 0x4AA JUMP JUMPDEST SWAP3 POP POP PUSH1 0x1 DUP2 ADD SWAP1 POP PUSH2 0x37A JUMP JUMPDEST POP POP POP POP POP POP JUMP JUMPDEST PUSH1 0x0 PUSH2 0x3BA DUP3 PUSH2 0x49F JUMP JUMPDEST PUSH2 0x3C4 DUP2 DUP6 PUSH2 0x4C2 JUMP JUMPDEST SWAP4 POP PUSH2 0x3D4 DUP2 DUP6 PUSH1 0x20 DUP7 ADD PUSH2 0x4EF JUMP JUMPDEST PUSH2 0x3DD DUP2 PUSH2 0x5F7 JUMP JUMPDEST DUP5 ADD SWAP2 POP POP SWAP3 SWAP2 POP POP JUMP JUMPDEST PUSH2 0x3F1 DUP2 PUSH2 0x4D3 JUMP JUMPDEST DUP3 MSTORE POP POP JUMP JUMPDEST PUSH1 0x0 PUSH1 0xA0 DUP3 ADD SWAP1 POP PUSH2 0x40C PUSH1 0x0 DUP4 ADD DUP5 PUSH2 0x358 JUMP JUMPDEST SWAP3 SWAP2 POP POP JUMP JUMPDEST PUSH1 0x0 PUSH1 0x20 DUP3 ADD SWAP1 POP DUP2 DUP2 SUB PUSH1 0x0 DUP4 ADD MSTORE PUSH2 0x42C DUP2 DUP5 PUSH2 0x3AF JUMP JUMPDEST SWAP1 POP SWAP3 SWAP2 POP POP JUMP JUMPDEST PUSH1 0x0 PUSH2 0x43E PUSH2 0x44F JUMP JUMPDEST SWAP1 POP PUSH2 0x44A DUP3 DUP3 PUSH2 0x554 JUMP JUMPDEST SWAP2 SWAP1 POP JUMP JUMPDEST PUSH1 0x0 PUSH1 0x40 MLOAD SWAP1 POP SWAP1 JUMP JUMPDEST PUSH1 0x0 PUSH8 0xFFFFFFFFFFFFFFFF DUP3 GT ISZERO PUSH2 0x474 JUMPI PUSH2 0x473 PUSH2 0x5B4 JUMP JUMPDEST JUMPDEST PUSH2 0x47D DUP3 PUSH2 0x5F7 JUMP JUMPDEST SWAP1 POP PUSH1 0x20 DUP2 ADD SWAP1 POP SWAP2 SWAP1 POP JUMP JUMPDEST PUSH1 0x0 DUP2 SWAP1 POP SWAP2 SWAP1 POP JUMP JUMPDEST PUSH1 0x0 PUSH1 0x5 SWAP1 POP SWAP2 SWAP1 POP JUMP JUMPDEST PUSH1 0x0 DUP2 MLOAD SWAP1 POP SWAP2 SWAP1 POP JUMP JUMPDEST PUSH1 0x0 PUSH1 0x20 DUP3 ADD SWAP1 POP SWAP2 SWAP1 POP JUMP JUMPDEST PUSH1 0x0 DUP2 SWAP1 POP SWAP3 SWAP2 POP POP JUMP JUMPDEST PUSH1 0x0 DUP3 DUP3 MSTORE PUSH1 0x20 DUP3 ADD SWAP1 POP SWAP3 SWAP2 POP POP JUMP JUMPDEST PUSH1 0x0 PUSH1 0xFF DUP3 AND SWAP1 POP SWAP2 SWAP1 POP JUMP JUMPDEST DUP3 DUP2 DUP4 CALLDATACOPY PUSH1 0x0 DUP4 DUP4 ADD MSTORE POP POP POP JUMP JUMPDEST PUSH1 0x0 JUMPDEST DUP4 DUP2 LT ISZERO PUSH2 0x50D JUMPI DUP1 DUP3 ADD MLOAD DUP2 DUP5 ADD MSTORE PUSH1 0x20 DUP2 ADD SWAP1 POP PUSH2 0x4F2 JUMP JUMPDEST DUP4 DUP2 GT ISZERO PUSH2 0x51C JUMPI PUSH1 0x0 DUP5 DUP5 ADD MSTORE JUMPDEST POP POP POP POP JUMP JUMPDEST PUSH1 0x0 PUSH1 0x2 DUP3 DIV SWAP1 POP PUSH1 0x1 DUP3 AND DUP1 PUSH2 0x53A JUMPI PUSH1 0x7F DUP3 AND SWAP2 POP JUMPDEST PUSH1 0x20 DUP3 LT DUP2 EQ ISZERO PUSH2 0x54E JUMPI PUSH2 0x54D PUSH2 0x585 JUMP JUMPDEST JUMPDEST POP SWAP2 SWAP1 POP JUMP JUMPDEST PUSH2 0x55D DUP3 PUSH2 0x5F7 JUMP JUMPDEST DUP2 ADD DUP2 DUP2 LT PUSH8 0xFFFFFFFFFFFFFFFF DUP3 GT OR ISZERO PUSH2 0x57C JUMPI PUSH2 0x57B PUSH2 0x5B4 JUMP JUMPDEST JUMPDEST DUP1 PUSH1 0x40 MSTORE POP POP POP JUMP JUMPDEST PUSH32 0x4E487B7100000000000000000000000000000000000000000000000000000000 PUSH1 0x0 MSTORE PUSH1 0x22 PUSH1 0x4 MSTORE PUSH1 0x24 PUSH1 0x0 REVERT JUMPDEST PUSH32 0x4E487B7100000000000000000000000000000000000000000000000000000000 PUSH1 0x0 MSTORE PUSH1 0x41 PUSH1 0x4 MSTORE PUSH1 0x24 PUSH1 0x0 REVERT JUMPDEST PUSH1 0x0 DUP1 REVERT JUMPDEST PUSH1 0x0 DUP1 REVERT JUMPDEST PUSH1 0x0 DUP1 REVERT JUMPDEST PUSH1 0x0 DUP1 REVERT JUMPDEST PUSH1 0x0 PUSH1 0x1F NOT PUSH1 0x1F DUP4 ADD AND SWAP1 POP SWAP2 SWAP1 POP JUMP INVALID LOG2 PUSH5 0x6970667358 0x22 SLT KECCAK256 0xFC 0xE5 MSTORE8 DUP1 RETURN XOR SWAP14 PUSH9 0xD174F417B00B654D28 SGT PUSH18 0x4F00923324214FEA43DFB455E64736F6C63 NUMBER STOP ADDMOD SMOD STOP CALLER "
				},
				"gasEstimates": {
					"creation": {
						"codeDepositCost": "319600",
						"executionCost": "infinite",
						"totalCost": "infinite"
					},
					"external": {
						"getStruct()": "infinite",
						"stru_b()": "infinite",
						"updateStruct(string)": "infinite"
					}
				},
				"methodIdentifiers": {
					"getStruct()": "09b1b3f2",
					"stru_b()": "912245b0",
					"updateStruct(string)": "ef4093fe"
				}
			},
			"storageLayout": {
				"storage": [
					{
						"astId": 11,
						"contract": "22Storage.sol:Storage",
						"label": "stru_b",
						"offset": 0,
						"slot": "0",
						"type": "t_struct(Stru)8_storage"
					}
				],
				"types": {
					"t_array(t_uint8)5_storage": {
						"base": "t_uint8",
						"encoding": "inplace",
						"label": "uint8[5]",
						"numberOfBytes": "32"
					},
					"t_string_storage": {
						"encoding": "bytes",
						"label": "string",
						"numberOfBytes": "32"
					},
					"t_struct(Stru)8_storage": {
						"encoding": "inplace",
						"label": "struct Storage.Stru",
						"members": [
							{
								"astId": 3,
								"contract": "22Storage.sol:Storage",
								"label": "str",
								"offset": 0,
								"slot": "0",
								"type": "t_string_storage"
							},
							{
								"astId": 7,
								"contract": "22Storage.sol:Storage",
								"label": "arry",
								"offset": 0,
								"slot": "1",
								"type": "t_array(t_uint8)5_storage"
							}
						],
						"numberOfBytes": "64"
					},
					"t_uint8": {
						"encoding": "inplace",
						"label": "uint8",
						"numberOfBytes": "1"
					}
				}
			},
			"userdoc": {
				"kind": "user",
				"methods": {},
				"version": 1
			}
		}
	}
}