{
	"16Outputs.sol": {
		"Outputs": {
			"abi": [
				{
					"inputs": [],
					"name": "b",
					"outputs": [
						{
							"internalType": "bool",
							"name": "",
							"type": "bool"
						}
					],
					"stateMutability": "view",
					"type": "function"
				},
				{
					"inputs": [],
					"name": "captureOutputs",
					"outputs": [],
					"stateMutability": "nonpayable",
					"type": "function"
				},
				{
					"inputs": [],
					"name": "displayOutputs",
					"outputs": [
						{
							"internalType": "uint256",
							"name": "",
							"type": "uint256"
						},
						{
							"internalType": "bool",
							"name": "",
							"type": "bool"
						},
						{
							"internalType": "string",
							"name": "",
							"type": "string"
						}
					],
					"stateMutability": "view",
					"type": "function"
				},
				{
					"inputs": [],
					"name": "i",
					"outputs": [
						{
							"internalType": "uint256",
							"name": "",
							"type": "uint256"
						}
					],
					"stateMutability": "view",
					"type": "function"
				},
				{
					"inputs": [],
					"name": "returnMultiple",
					"outputs": [
						{
							"internalType": "uint256",
							"name": "",
							"type": "uint256"
						},
						{
							"internalType": "bool",
							"name": "",
							"type": "bool"
						},
						{
							"internalType": "string",
							"name": "",
							"type": "string"
						}
					],
					"stateMutability": "pure",
					"type": "function"
				},
				{
					"inputs": [],
					"name": "s",
					"outputs": [
						{
							"internalType": "string",
							"name": "",
							"type": "string"
						}
					],
					"stateMutability": "view",
					"type": "function"
				}
			],
			"devdoc": {
				"kind": "dev",
				"methods": {},
				"version": 1
			},
			"evm": {
				"assembly": "    /* \"16Outputs.sol\":530:909  contract Outputs{... */\n  mstore(0x40, 0x80)\n  callvalue\n  dup1\n  iszero\n  tag_1\n  jumpi\n  0x00\n  dup1\n  revert\ntag_1:\n  pop\n  dataSize(sub_0)\n  dup1\n  dataOffset(sub_0)\n  0x00\n  codecopy\n  0x00\n  return\nstop\n\nsub_0: assembly {\n        /* \"16Outputs.sol\":530:909  contract Outputs{... */\n      mstore(0x40, 0x80)\n      callvalue\n      dup1\n      iszero\n      tag_1\n      jumpi\n      0x00\n      dup1\n      revert\n    tag_1:\n      pop\n      jumpi(tag_2, lt(calldatasize, 0x04))\n      shr(0xe0, calldataload(0x00))\n      dup1\n      0x26a89e04\n      eq\n      tag_3\n      jumpi\n      dup1\n      0x4df7e3d0\n      eq\n      tag_4\n      jumpi\n      dup1\n      0x64f13521\n      eq\n      tag_5\n      jumpi\n      dup1\n      0x86b714e2\n      eq\n      tag_6\n      jumpi\n      dup1\n      0xe5aa3d58\n      eq\n      tag_7\n      jumpi\n      dup1\n      0xe61e4008\n      eq\n      tag_8\n      jumpi\n    tag_2:\n      0x00\n      dup1\n      revert\n        /* \"16Outputs.sol\":724:801  function captureOutputs() public{... */\n    tag_3:\n      tag_9\n      tag_10\n      jump\t// in\n    tag_9:\n      stop\n        /* \"16Outputs.sol\":571:584  bool public b */\n    tag_4:\n      tag_11\n      tag_12\n      jump\t// in\n    tag_11:\n      mload(0x40)\n      tag_13\n      swap2\n      swap1\n      tag_14\n      jump\t// in\n    tag_13:\n      mload(0x40)\n      dup1\n      swap2\n      sub\n      swap1\n      return\n        /* \"16Outputs.sol\":807:907  function displayOutputs() public view returns(uint,bool,string memory){... */\n    tag_5:\n      tag_15\n      tag_16\n      jump\t// in\n    tag_15:\n      mload(0x40)\n      tag_17\n      swap4\n      swap3\n      swap2\n      swap1\n      tag_18\n      jump\t// in\n    tag_17:\n      mload(0x40)\n      dup1\n      swap2\n      sub\n      swap1\n      return\n        /* \"16Outputs.sol\":590:605  string public s */\n    tag_6:\n      tag_19\n      tag_20\n      jump\t// in\n    tag_19:\n      mload(0x40)\n      tag_21\n      swap2\n      swap1\n      tag_22\n      jump\t// in\n    tag_21:\n      mload(0x40)\n      dup1\n      swap2\n      sub\n      swap1\n      return\n        /* \"16Outputs.sol\":552:565  uint public i */\n    tag_7:\n      tag_23\n      tag_24\n      jump\t// in\n    tag_23:\n      mload(0x40)\n      tag_25\n      swap2\n      swap1\n      tag_26\n      jump\t// in\n    tag_25:\n      mload(0x40)\n      dup1\n      swap2\n      sub\n      swap1\n      return\n        /* \"16Outputs.sol\":611:718  function returnMultiple() public pure returns(uint,bool,string memory){... */\n    tag_8:\n      tag_27\n      tag_28\n      jump\t// in\n    tag_27:\n      mload(0x40)\n      tag_29\n      swap4\n      swap3\n      swap2\n      swap1\n      tag_18\n      jump\t// in\n    tag_29:\n      mload(0x40)\n      dup1\n      swap2\n      sub\n      swap1\n      return\n        /* \"16Outputs.sol\":724:801  function captureOutputs() public{... */\n    tag_10:\n        /* \"16Outputs.sol\":778:794  returnMultiple() */\n      tag_31\n        /* \"16Outputs.sol\":778:792  returnMultiple */\n      tag_28\n        /* \"16Outputs.sol\":778:794  returnMultiple() */\n      jump\t// in\n    tag_31:\n        /* \"16Outputs.sol\":767:768  i */\n      0x00\n      dup1\n        /* \"16Outputs.sol\":770:771  b */\n      0x01\n      0x00\n        /* \"16Outputs.sol\":773:774  s */\n      0x02\n      0x00\n        /* \"16Outputs.sol\":766:794  (i, b, s) = returnMultiple() */\n      dup7\n      swap2\n      swap1\n      pop\n      swap1\n      dup1\n      mload\n      swap1\n      0x20\n      add\n      swap1\n      tag_32\n      swap3\n      swap2\n      swap1\n      tag_33\n      jump\t// in\n    tag_32:\n      pop\n      dup6\n      swap2\n      swap1\n      0x0100\n      exp\n      dup2\n      sload\n      dup2\n      0xff\n      mul\n      not\n      and\n      swap1\n      dup4\n      iszero\n      iszero\n      mul\n      or\n      swap1\n      sstore\n      pop\n      dup5\n      swap2\n      swap1\n      pop\n      sstore\n      pop\n      pop\n      pop\n        /* \"16Outputs.sol\":724:801  function captureOutputs() public{... */\n      jump\t// out\n        /* \"16Outputs.sol\":571:584  bool public b */\n    tag_12:\n      0x01\n      0x00\n      swap1\n      sload\n      swap1\n      0x0100\n      exp\n      swap1\n      div\n      0xff\n      and\n      dup2\n      jump\t// out\n        /* \"16Outputs.sol\":807:907  function displayOutputs() public view returns(uint,bool,string memory){... */\n    tag_16:\n        /* \"16Outputs.sol\":853:857  uint */\n      0x00\n        /* \"16Outputs.sol\":858:862  bool */\n      dup1\n        /* \"16Outputs.sol\":863:876  string memory */\n      0x60\n        /* \"16Outputs.sol\":894:895  i */\n      sload(0x00)\n        /* \"16Outputs.sol\":896:897  b */\n      0x01\n      0x00\n      swap1\n      sload\n      swap1\n      0x0100\n      exp\n      swap1\n      div\n      0xff\n      and\n        /* \"16Outputs.sol\":898:899  s */\n      0x02\n        /* \"16Outputs.sol\":887:900  return(i,b,s) */\n      dup1\n      dup1\n      sload\n      tag_35\n      swap1\n      tag_36\n      jump\t// in\n    tag_35:\n      dup1\n      0x1f\n      add\n      0x20\n      dup1\n      swap2\n      div\n      mul\n      0x20\n      add\n      mload(0x40)\n      swap1\n      dup2\n      add\n      0x40\n      mstore\n      dup1\n      swap3\n      swap2\n      swap1\n      dup2\n      dup2\n      mstore\n      0x20\n      add\n      dup3\n      dup1\n      sload\n      tag_37\n      swap1\n      tag_36\n      jump\t// in\n    tag_37:\n      dup1\n      iszero\n      tag_38\n      jumpi\n      dup1\n      0x1f\n      lt\n      tag_39\n      jumpi\n      0x0100\n      dup1\n      dup4\n      sload\n      div\n      mul\n      dup4\n      mstore\n      swap2\n      0x20\n      add\n      swap2\n      jump(tag_38)\n    tag_39:\n      dup3\n      add\n      swap2\n      swap1\n      0x00\n      mstore\n      keccak256(0x00, 0x20)\n      swap1\n    tag_40:\n      dup2\n      sload\n      dup2\n      mstore\n      swap1\n      0x01\n      add\n      swap1\n      0x20\n      add\n      dup1\n      dup4\n      gt\n      tag_40\n      jumpi\n      dup3\n      swap1\n      sub\n      0x1f\n      and\n      dup3\n      add\n      swap2\n    tag_38:\n      pop\n      pop\n      pop\n      pop\n      pop\n      swap1\n      pop\n      swap3\n      pop\n      swap3\n      pop\n      swap3\n      pop\n        /* \"16Outputs.sol\":807:907  function displayOutputs() public view returns(uint,bool,string memory){... */\n      swap1\n      swap2\n      swap3\n      jump\t// out\n        /* \"16Outputs.sol\":590:605  string public s */\n    tag_20:\n      0x02\n      dup1\n      sload\n      tag_41\n      swap1\n      tag_36\n      jump\t// in\n    tag_41:\n      dup1\n      0x1f\n      add\n      0x20\n      dup1\n      swap2\n      div\n      mul\n      0x20\n      add\n      mload(0x40)\n      swap1\n      dup2\n      add\n      0x40\n      mstore\n      dup1\n      swap3\n      swap2\n      swap1\n      dup2\n      dup2\n      mstore\n      0x20\n      add\n      dup3\n      dup1\n      sload\n      tag_42\n      swap1\n      tag_36\n      jump\t// in\n    tag_42:\n      dup1\n      iszero\n      tag_43\n      jumpi\n      dup1\n      0x1f\n      lt\n      tag_44\n      jumpi\n      0x0100\n      dup1\n      dup4\n      sload\n      div\n      mul\n      dup4\n      mstore\n      swap2\n      0x20\n      add\n      swap2\n      jump(tag_43)\n    tag_44:\n      dup3\n      add\n      swap2\n      swap1\n      0x00\n      mstore\n      keccak256(0x00, 0x20)\n      swap1\n    tag_45:\n      dup2\n      sload\n      dup2\n      mstore\n      swap1\n      0x01\n      add\n      swap1\n      0x20\n      add\n      dup1\n      dup4\n      gt\n      tag_45\n      jumpi\n      dup3\n      swap1\n      sub\n      0x1f\n      and\n      dup3\n      add\n      swap2\n    tag_43:\n      pop\n      pop\n      pop\n      pop\n      pop\n      dup2\n      jump\t// out\n        /* \"16Outputs.sol\":552:565  uint public i */\n    tag_24:\n      sload(0x00)\n      dup2\n      jump\t// out\n        /* \"16Outputs.sol\":611:718  function returnMultiple() public pure returns(uint,bool,string memory){... */\n    tag_28:\n        /* \"16Outputs.sol\":657:661  uint */\n      0x00\n        /* \"16Outputs.sol\":662:666  bool */\n      dup1\n        /* \"16Outputs.sol\":667:680  string memory */\n      0x60\n        /* \"16Outputs.sol\":698:699  1 */\n      0x01\n        /* \"16Outputs.sol\":700:704  true */\n      dup1\n        /* \"16Outputs.sol\":691:711  return(1,true,\"abc\") */\n      mload(0x40)\n      dup1\n      0x40\n      add\n      0x40\n      mstore\n      dup1\n      0x03\n      dup2\n      mstore\n      0x20\n      add\n      0x6162630000000000000000000000000000000000000000000000000000000000\n      dup2\n      mstore\n      pop\n      swap3\n      pop\n      swap3\n      pop\n      swap3\n      pop\n        /* \"16Outputs.sol\":611:718  function returnMultiple() public pure returns(uint,bool,string memory){... */\n      swap1\n      swap2\n      swap3\n      jump\t// out\n    tag_33:\n      dup3\n      dup1\n      sload\n      tag_47\n      swap1\n      tag_36\n      jump\t// in\n    tag_47:\n      swap1\n      0x00\n      mstore\n      keccak256(0x00, 0x20)\n      swap1\n      0x1f\n      add\n      0x20\n      swap1\n      div\n      dup2\n      add\n      swap3\n      dup3\n      tag_49\n      jumpi\n      0x00\n      dup6\n      sstore\n      jump(tag_48)\n    tag_49:\n      dup3\n      0x1f\n      lt\n      tag_50\n      jumpi\n      dup1\n      mload\n      not(0xff)\n      and\n      dup4\n      dup1\n      add\n      or\n      dup6\n      sstore\n      jump(tag_48)\n    tag_50:\n      dup3\n      dup1\n      add\n      0x01\n      add\n      dup6\n      sstore\n      dup3\n      iszero\n      tag_48\n      jumpi\n      swap2\n      dup3\n      add\n    tag_51:\n      dup3\n      dup2\n      gt\n      iszero\n      tag_52\n      jumpi\n      dup3\n      mload\n      dup3\n      sstore\n      swap2\n      0x20\n      add\n      swap2\n      swap1\n      0x01\n      add\n      swap1\n      jump(tag_51)\n    tag_52:\n    tag_48:\n      pop\n      swap1\n      pop\n      tag_53\n      swap2\n      swap1\n      tag_54\n      jump\t// in\n    tag_53:\n      pop\n      swap1\n      jump\t// out\n    tag_54:\n    tag_55:\n      dup1\n      dup3\n      gt\n      iszero\n      tag_56\n      jumpi\n      0x00\n      dup2\n      0x00\n      swap1\n      sstore\n      pop\n      0x01\n      add\n      jump(tag_55)\n    tag_56:\n      pop\n      swap1\n      jump\t// out\n        /* \"#utility.yul\":7:116   */\n    tag_58:\n        /* \"#utility.yul\":88:109   */\n      tag_60\n        /* \"#utility.yul\":103:108   */\n      dup2\n        /* \"#utility.yul\":88:109   */\n      tag_61\n      jump\t// in\n    tag_60:\n        /* \"#utility.yul\":83:86   */\n      dup3\n        /* \"#utility.yul\":76:110   */\n      mstore\n        /* \"#utility.yul\":7:116   */\n      pop\n      pop\n      jump\t// out\n        /* \"#utility.yul\":122:486   */\n    tag_62:\n        /* \"#utility.yul\":210:213   */\n      0x00\n        /* \"#utility.yul\":238:277   */\n      tag_64\n        /* \"#utility.yul\":271:276   */\n      dup3\n        /* \"#utility.yul\":238:277   */\n      tag_65\n      jump\t// in\n    tag_64:\n        /* \"#utility.yul\":293:364   */\n      tag_66\n        /* \"#utility.yul\":357:363   */\n      dup2\n        /* \"#utility.yul\":352:355   */\n      dup6\n        /* \"#utility.yul\":293:364   */\n      tag_67\n      jump\t// in\n    tag_66:\n        /* \"#utility.yul\":286:364   */\n      swap4\n      pop\n        /* \"#utility.yul\":373:425   */\n      tag_68\n        /* \"#utility.yul\":418:424   */\n      dup2\n        /* \"#utility.yul\":413:416   */\n      dup6\n        /* \"#utility.yul\":406:410   */\n      0x20\n        /* \"#utility.yul\":399:404   */\n      dup7\n        /* \"#utility.yul\":395:411   */\n      add\n        /* \"#utility.yul\":373:425   */\n      tag_69\n      jump\t// in\n    tag_68:\n        /* \"#utility.yul\":450:479   */\n      tag_70\n        /* \"#utility.yul\":472:478   */\n      dup2\n        /* \"#utility.yul\":450:479   */\n      tag_71\n      jump\t// in\n    tag_70:\n        /* \"#utility.yul\":445:448   */\n      dup5\n        /* \"#utility.yul\":441:480   */\n      add\n        /* \"#utility.yul\":434:480   */\n      swap2\n      pop\n        /* \"#utility.yul\":214:486   */\n      pop\n        /* \"#utility.yul\":122:486   */\n      swap3\n      swap2\n      pop\n      pop\n      jump\t// out\n        /* \"#utility.yul\":492:610   */\n    tag_72:\n        /* \"#utility.yul\":579:603   */\n      tag_74\n        /* \"#utility.yul\":597:602   */\n      dup2\n        /* \"#utility.yul\":579:603   */\n      tag_75\n      jump\t// in\n    tag_74:\n        /* \"#utility.yul\":574:577   */\n      dup3\n        /* \"#utility.yul\":567:604   */\n      mstore\n        /* \"#utility.yul\":492:610   */\n      pop\n      pop\n      jump\t// out\n        /* \"#utility.yul\":616:826   */\n    tag_14:\n        /* \"#utility.yul\":703:707   */\n      0x00\n        /* \"#utility.yul\":741:743   */\n      0x20\n        /* \"#utility.yul\":730:739   */\n      dup3\n        /* \"#utility.yul\":726:744   */\n      add\n        /* \"#utility.yul\":718:744   */\n      swap1\n      pop\n        /* \"#utility.yul\":754:819   */\n      tag_77\n        /* \"#utility.yul\":816:817   */\n      0x00\n        /* \"#utility.yul\":805:814   */\n      dup4\n        /* \"#utility.yul\":801:818   */\n      add\n        /* \"#utility.yul\":792:798   */\n      dup5\n        /* \"#utility.yul\":754:819   */\n      tag_58\n      jump\t// in\n    tag_77:\n        /* \"#utility.yul\":616:826   */\n      swap3\n      swap2\n      pop\n      pop\n      jump\t// out\n        /* \"#utility.yul\":832:1145   */\n    tag_22:\n        /* \"#utility.yul\":945:949   */\n      0x00\n        /* \"#utility.yul\":983:985   */\n      0x20\n        /* \"#utility.yul\":972:981   */\n      dup3\n        /* \"#utility.yul\":968:986   */\n      add\n        /* \"#utility.yul\":960:986   */\n      swap1\n      pop\n        /* \"#utility.yul\":1032:1041   */\n      dup2\n        /* \"#utility.yul\":1026:1030   */\n      dup2\n        /* \"#utility.yul\":1022:1042   */\n      sub\n        /* \"#utility.yul\":1018:1019   */\n      0x00\n        /* \"#utility.yul\":1007:1016   */\n      dup4\n        /* \"#utility.yul\":1003:1020   */\n      add\n        /* \"#utility.yul\":996:1043   */\n      mstore\n        /* \"#utility.yul\":1060:1138   */\n      tag_79\n        /* \"#utility.yul\":1133:1137   */\n      dup2\n        /* \"#utility.yul\":1124:1130   */\n      dup5\n        /* \"#utility.yul\":1060:1138   */\n      tag_62\n      jump\t// in\n    tag_79:\n        /* \"#utility.yul\":1052:1138   */\n      swap1\n      pop\n        /* \"#utility.yul\":832:1145   */\n      swap3\n      swap2\n      pop\n      pop\n      jump\t// out\n        /* \"#utility.yul\":1151:1373   */\n    tag_26:\n        /* \"#utility.yul\":1244:1248   */\n      0x00\n        /* \"#utility.yul\":1282:1284   */\n      0x20\n        /* \"#utility.yul\":1271:1280   */\n      dup3\n        /* \"#utility.yul\":1267:1285   */\n      add\n        /* \"#utility.yul\":1259:1285   */\n      swap1\n      pop\n        /* \"#utility.yul\":1295:1366   */\n      tag_81\n        /* \"#utility.yul\":1363:1364   */\n      0x00\n        /* \"#utility.yul\":1352:1361   */\n      dup4\n        /* \"#utility.yul\":1348:1365   */\n      add\n        /* \"#utility.yul\":1339:1345   */\n      dup5\n        /* \"#utility.yul\":1295:1366   */\n      tag_72\n      jump\t// in\n    tag_81:\n        /* \"#utility.yul\":1151:1373   */\n      swap3\n      swap2\n      pop\n      pop\n      jump\t// out\n        /* \"#utility.yul\":1379:1900   */\n    tag_18:\n        /* \"#utility.yul\":1542:1546   */\n      0x00\n        /* \"#utility.yul\":1580:1582   */\n      0x60\n        /* \"#utility.yul\":1569:1578   */\n      dup3\n        /* \"#utility.yul\":1565:1583   */\n      add\n        /* \"#utility.yul\":1557:1583   */\n      swap1\n      pop\n        /* \"#utility.yul\":1593:1664   */\n      tag_83\n        /* \"#utility.yul\":1661:1662   */\n      0x00\n        /* \"#utility.yul\":1650:1659   */\n      dup4\n        /* \"#utility.yul\":1646:1663   */\n      add\n        /* \"#utility.yul\":1637:1643   */\n      dup7\n        /* \"#utility.yul\":1593:1664   */\n      tag_72\n      jump\t// in\n    tag_83:\n        /* \"#utility.yul\":1674:1740   */\n      tag_84\n        /* \"#utility.yul\":1736:1738   */\n      0x20\n        /* \"#utility.yul\":1725:1734   */\n      dup4\n        /* \"#utility.yul\":1721:1739   */\n      add\n        /* \"#utility.yul\":1712:1718   */\n      dup6\n        /* \"#utility.yul\":1674:1740   */\n      tag_58\n      jump\t// in\n    tag_84:\n        /* \"#utility.yul\":1787:1796   */\n      dup2\n        /* \"#utility.yul\":1781:1785   */\n      dup2\n        /* \"#utility.yul\":1777:1797   */\n      sub\n        /* \"#utility.yul\":1772:1774   */\n      0x40\n        /* \"#utility.yul\":1761:1770   */\n      dup4\n        /* \"#utility.yul\":1757:1775   */\n      add\n        /* \"#utility.yul\":1750:1798   */\n      mstore\n        /* \"#utility.yul\":1815:1893   */\n      tag_85\n        /* \"#utility.yul\":1888:1892   */\n      dup2\n        /* \"#utility.yul\":1879:1885   */\n      dup5\n        /* \"#utility.yul\":1815:1893   */\n      tag_62\n      jump\t// in\n    tag_85:\n        /* \"#utility.yul\":1807:1893   */\n      swap1\n      pop\n        /* \"#utility.yul\":1379:1900   */\n      swap5\n      swap4\n      pop\n      pop\n      pop\n      pop\n      jump\t// out\n        /* \"#utility.yul\":1906:2005   */\n    tag_65:\n        /* \"#utility.yul\":1958:1964   */\n      0x00\n        /* \"#utility.yul\":1992:1997   */\n      dup2\n        /* \"#utility.yul\":1986:1998   */\n      mload\n        /* \"#utility.yul\":1976:1998   */\n      swap1\n      pop\n        /* \"#utility.yul\":1906:2005   */\n      swap2\n      swap1\n      pop\n      jump\t// out\n        /* \"#utility.yul\":2011:2180   */\n    tag_67:\n        /* \"#utility.yul\":2095:2106   */\n      0x00\n        /* \"#utility.yul\":2129:2135   */\n      dup3\n        /* \"#utility.yul\":2124:2127   */\n      dup3\n        /* \"#utility.yul\":2117:2136   */\n      mstore\n        /* \"#utility.yul\":2169:2173   */\n      0x20\n        /* \"#utility.yul\":2164:2167   */\n      dup3\n        /* \"#utility.yul\":2160:2174   */\n      add\n        /* \"#utility.yul\":2145:2174   */\n      swap1\n      pop\n        /* \"#utility.yul\":2011:2180   */\n      swap3\n      swap2\n      pop\n      pop\n      jump\t// out\n        /* \"#utility.yul\":2186:2276   */\n    tag_61:\n        /* \"#utility.yul\":2220:2227   */\n      0x00\n        /* \"#utility.yul\":2263:2268   */\n      dup2\n        /* \"#utility.yul\":2256:2269   */\n      iszero\n        /* \"#utility.yul\":2249:2270   */\n      iszero\n        /* \"#utility.yul\":2238:2270   */\n      swap1\n      pop\n        /* \"#utility.yul\":2186:2276   */\n      swap2\n      swap1\n      pop\n      jump\t// out\n        /* \"#utility.yul\":2282:2359   */\n    tag_75:\n        /* \"#utility.yul\":2319:2326   */\n      0x00\n        /* \"#utility.yul\":2348:2353   */\n      dup2\n        /* \"#utility.yul\":2337:2353   */\n      swap1\n      pop\n        /* \"#utility.yul\":2282:2359   */\n      swap2\n      swap1\n      pop\n      jump\t// out\n        /* \"#utility.yul\":2365:2672   */\n    tag_69:\n        /* \"#utility.yul\":2433:2434   */\n      0x00\n        /* \"#utility.yul\":2443:2556   */\n    tag_91:\n        /* \"#utility.yul\":2457:2463   */\n      dup4\n        /* \"#utility.yul\":2454:2455   */\n      dup2\n        /* \"#utility.yul\":2451:2464   */\n      lt\n        /* \"#utility.yul\":2443:2556   */\n      iszero\n      tag_93\n      jumpi\n        /* \"#utility.yul\":2542:2543   */\n      dup1\n        /* \"#utility.yul\":2537:2540   */\n      dup3\n        /* \"#utility.yul\":2533:2544   */\n      add\n        /* \"#utility.yul\":2527:2545   */\n      mload\n        /* \"#utility.yul\":2523:2524   */\n      dup2\n        /* \"#utility.yul\":2518:2521   */\n      dup5\n        /* \"#utility.yul\":2514:2525   */\n      add\n        /* \"#utility.yul\":2507:2546   */\n      mstore\n        /* \"#utility.yul\":2479:2481   */\n      0x20\n        /* \"#utility.yul\":2476:2477   */\n      dup2\n        /* \"#utility.yul\":2472:2482   */\n      add\n        /* \"#utility.yul\":2467:2482   */\n      swap1\n      pop\n        /* \"#utility.yul\":2443:2556   */\n      jump(tag_91)\n    tag_93:\n        /* \"#utility.yul\":2574:2580   */\n      dup4\n        /* \"#utility.yul\":2571:2572   */\n      dup2\n        /* \"#utility.yul\":2568:2581   */\n      gt\n        /* \"#utility.yul\":2565:2666   */\n      iszero\n      tag_94\n      jumpi\n        /* \"#utility.yul\":2654:2655   */\n      0x00\n        /* \"#utility.yul\":2645:2651   */\n      dup5\n        /* \"#utility.yul\":2640:2643   */\n      dup5\n        /* \"#utility.yul\":2636:2652   */\n      add\n        /* \"#utility.yul\":2629:2656   */\n      mstore\n        /* \"#utility.yul\":2565:2666   */\n    tag_94:\n        /* \"#utility.yul\":2414:2672   */\n      pop\n        /* \"#utility.yul\":2365:2672   */\n      pop\n      pop\n      pop\n      jump\t// out\n        /* \"#utility.yul\":2678:2998   */\n    tag_36:\n        /* \"#utility.yul\":2722:2728   */\n      0x00\n        /* \"#utility.yul\":2759:2760   */\n      0x02\n        /* \"#utility.yul\":2753:2757   */\n      dup3\n        /* \"#utility.yul\":2749:2761   */\n      div\n        /* \"#utility.yul\":2739:2761   */\n      swap1\n      pop\n        /* \"#utility.yul\":2806:2807   */\n      0x01\n        /* \"#utility.yul\":2800:2804   */\n      dup3\n        /* \"#utility.yul\":2796:2808   */\n      and\n        /* \"#utility.yul\":2827:2845   */\n      dup1\n        /* \"#utility.yul\":2817:2898   */\n      tag_96\n      jumpi\n        /* \"#utility.yul\":2883:2887   */\n      0x7f\n        /* \"#utility.yul\":2875:2881   */\n      dup3\n        /* \"#utility.yul\":2871:2888   */\n      and\n        /* \"#utility.yul\":2861:2888   */\n      swap2\n      pop\n        /* \"#utility.yul\":2817:2898   */\n    tag_96:\n        /* \"#utility.yul\":2945:2947   */\n      0x20\n        /* \"#utility.yul\":2937:2943   */\n      dup3\n        /* \"#utility.yul\":2934:2948   */\n      lt\n        /* \"#utility.yul\":2914:2932   */\n      dup2\n        /* \"#utility.yul\":2911:2949   */\n      eq\n        /* \"#utility.yul\":2908:2992   */\n      iszero\n      tag_97\n      jumpi\n        /* \"#utility.yul\":2964:2982   */\n      tag_98\n      tag_99\n      jump\t// in\n    tag_98:\n        /* \"#utility.yul\":2908:2992   */\n    tag_97:\n        /* \"#utility.yul\":2729:2998   */\n      pop\n        /* \"#utility.yul\":2678:2998   */\n      swap2\n      swap1\n      pop\n      jump\t// out\n        /* \"#utility.yul\":3004:3184   */\n    tag_99:\n        /* \"#utility.yul\":3052:3129   */\n      0x4e487b7100000000000000000000000000000000000000000000000000000000\n        /* \"#utility.yul\":3049:3050   */\n      0x00\n        /* \"#utility.yul\":3042:3130   */\n      mstore\n        /* \"#utility.yul\":3149:3153   */\n      0x22\n        /* \"#utility.yul\":3146:3147   */\n      0x04\n        /* \"#utility.yul\":3139:3154   */\n      mstore\n        /* \"#utility.yul\":3173:3177   */\n      0x24\n        /* \"#utility.yul\":3170:3171   */\n      0x00\n        /* \"#utility.yul\":3163:3178   */\n      revert\n        /* \"#utility.yul\":3190:3292   */\n    tag_71:\n        /* \"#utility.yul\":3231:3237   */\n      0x00\n        /* \"#utility.yul\":3282:3284   */\n      0x1f\n        /* \"#utility.yul\":3278:3285   */\n      not\n        /* \"#utility.yul\":3273:3275   */\n      0x1f\n        /* \"#utility.yul\":3266:3271   */\n      dup4\n        /* \"#utility.yul\":3262:3276   */\n      add\n        /* \"#utility.yul\":3258:3286   */\n      and\n        /* \"#utility.yul\":3248:3286   */\n      swap1\n      pop\n        /* \"#utility.yul\":3190:3292   */\n      swap2\n      swap1\n      pop\n      jump\t// out\n\n    auxdata: 0xa26469706673582212209de38fb124f706a772c4375b1f300ba3b4cbe44e0fb463e93bee5de9f4b6944d64736f6c63430008070033\n}\n",
				"bytecode": {
					"linkReferences": {},
					"object": "608060405234801561001057600080fd5b50610596806100206000396000f3fe608060405234801561001057600080fd5b50600436106100625760003560e01c806326a89e04146100675780634df7e3d01461007157806364f135211461008f57806386b714e2146100af578063e5aa3d58146100cd578063e61e4008146100eb575b600080fd5b61006f61010b565b005b610079610158565b60405161008691906103f3565b60405180910390f35b61009761016b565b6040516100a69392919061044b565b60405180910390f35b6100b761021c565b6040516100c4919061040e565b60405180910390f35b6100d56102aa565b6040516100e29190610430565b60405180910390f35b6100f36102b0565b6040516101029392919061044b565b60405180910390f35b6101136102b0565b60008060016000600260008691905090805190602001906101359291906102f9565b508591906101000a81548160ff0219169083151502179055508491905055505050565b600160009054906101000a900460ff1681565b6000806060600054600160009054906101000a900460ff166002808054610191906104ee565b80601f01602080910402602001604051908101604052809291908181526020018280546101bd906104ee565b801561020a5780601f106101df5761010080835404028352916020019161020a565b820191906000526020600020905b8154815290600101906020018083116101ed57829003601f168201915b50505050509050925092509250909192565b60028054610229906104ee565b80601f0160208091040260200160405190810160405280929190818152602001828054610255906104ee565b80156102a25780601f10610277576101008083540402835291602001916102a2565b820191906000526020600020905b81548152906001019060200180831161028557829003601f168201915b505050505081565b60005481565b60008060606001806040518060400160405280600381526020017f6162630000000000000000000000000000000000000000000000000000000000815250925092509250909192565b828054610305906104ee565b90600052602060002090601f016020900481019282610327576000855561036e565b82601f1061034057805160ff191683800117855561036e565b8280016001018555821561036e579182015b8281111561036d578251825591602001919060010190610352565b5b50905061037b919061037f565b5090565b5b80821115610398576000816000905550600101610380565b5090565b6103a5816104a5565b82525050565b60006103b682610489565b6103c08185610494565b93506103d08185602086016104bb565b6103d98161054f565b840191505092915050565b6103ed816104b1565b82525050565b6000602082019050610408600083018461039c565b92915050565b6000602082019050818103600083015261042881846103ab565b905092915050565b600060208201905061044560008301846103e4565b92915050565b600060608201905061046060008301866103e4565b61046d602083018561039c565b818103604083015261047f81846103ab565b9050949350505050565b600081519050919050565b600082825260208201905092915050565b60008115159050919050565b6000819050919050565b60005b838110156104d95780820151818401526020810190506104be565b838111156104e8576000848401525b50505050565b6000600282049050600182168061050657607f821691505b6020821081141561051a57610519610520565b5b50919050565b7f4e487b7100000000000000000000000000000000000000000000000000000000600052602260045260246000fd5b6000601f19601f830116905091905056fea26469706673582212209de38fb124f706a772c4375b1f300ba3b4cbe44e0fb463e93bee5de9f4b6944d64736f6c63430008070033",
					"opcodes": "PUSH1 0x80 PUSH1 0x40 MSTORE CALLVALUE DUP1 ISZERO PUSH2 0x10 JUMPI PUSH1 0x0 DUP1 REVERT JUMPDEST POP PUSH2 0x596 DUP1 PUSH2 0x20 PUSH1 0x0 CODECOPY PUSH1 0x0 RETURN INVALID PUSH1 0x80 PUSH1 0x40 MSTORE CALLVALUE DUP1 ISZERO PUSH2 0x10 JUMPI PUSH1 0x0 DUP1 REVERT JUMPDEST POP PUSH1 0x4 CALLDATASIZE LT PUSH2 0x62 JUMPI PUSH1 0x0 CALLDATALOAD PUSH1 0xE0 SHR DUP1 PUSH4 0x26A89E04 EQ PUSH2 0x67 JUMPI DUP1 PUSH4 0x4DF7E3D0 EQ PUSH2 0x71 JUMPI DUP1 PUSH4 0x64F13521 EQ PUSH2 0x8F JUMPI DUP1 PUSH4 0x86B714E2 EQ PUSH2 0xAF JUMPI DUP1 PUSH4 0xE5AA3D58 EQ PUSH2 0xCD JUMPI DUP1 PUSH4 0xE61E4008 EQ PUSH2 0xEB JUMPI JUMPDEST PUSH1 0x0 DUP1 REVERT JUMPDEST PUSH2 0x6F PUSH2 0x10B JUMP JUMPDEST STOP JUMPDEST PUSH2 0x79 PUSH2 0x158 JUMP JUMPDEST PUSH1 0x40 MLOAD PUSH2 0x86 SWAP2 SWAP1 PUSH2 0x3F3 JUMP JUMPDEST PUSH1 0x40 MLOAD DUP1 SWAP2 SUB SWAP1 RETURN JUMPDEST PUSH2 0x97 PUSH2 0x16B JUMP JUMPDEST PUSH1 0x40 MLOAD PUSH2 0xA6 SWAP4 SWAP3 SWAP2 SWAP1 PUSH2 0x44B JUMP JUMPDEST PUSH1 0x40 MLOAD DUP1 SWAP2 SUB SWAP1 RETURN JUMPDEST PUSH2 0xB7 PUSH2 0x21C JUMP JUMPDEST PUSH1 0x40 MLOAD PUSH2 0xC4 SWAP2 SWAP1 PUSH2 0x40E JUMP JUMPDEST PUSH1 0x40 MLOAD DUP1 SWAP2 SUB SWAP1 RETURN JUMPDEST PUSH2 0xD5 PUSH2 0x2AA JUMP JUMPDEST PUSH1 0x40 MLOAD PUSH2 0xE2 SWAP2 SWAP1 PUSH2 0x430 JUMP JUMPDEST PUSH1 0x40 MLOAD DUP1 SWAP2 SUB SWAP1 RETURN JUMPDEST PUSH2 0xF3 PUSH2 0x2B0 JUMP JUMPDEST PUSH1 0x40 MLOAD PUSH2 0x102 SWAP4 SWAP3 SWAP2 SWAP1 PUSH2 0x44B JUMP JUMPDEST PUSH1 0x40 MLOAD DUP1 SWAP2 SUB SWAP1 RETURN JUMPDEST PUSH2 0x113 PUSH2 0x2B0 JUMP JUMPDEST PUSH1 0x0 DUP1 PUSH1 0x1 PUSH1 0x0 PUSH1 0x2 PUSH1 0x0 DUP7 SWAP2 SWAP1 POP SWAP1 DUP1 MLOAD SWAP1 PUSH1 0x20 ADD SWAP1 PUSH2 0x135 SWAP3 SWAP2 SWAP1 PUSH2 0x2F9 JUMP JUMPDEST POP DUP6 SWAP2 SWAP1 PUSH2 0x100 EXP DUP2 SLOAD DUP2 PUSH1 0xFF MUL NOT AND SWAP1 DUP4 ISZERO ISZERO MUL OR SWAP1 SSTORE POP DUP5 SWAP2 SWAP1 POP SSTORE POP POP POP JUMP JUMPDEST PUSH1 0x1 PUSH1 0x0 SWAP1 SLOAD SWAP1 PUSH2 0x100 EXP SWAP1 DIV PUSH1 0xFF AND DUP2 JUMP JUMPDEST PUSH1 0x0 DUP1 PUSH1 0x60 PUSH1 0x0 SLOAD PUSH1 0x1 PUSH1 0x0 SWAP1 SLOAD SWAP1 PUSH2 0x100 EXP SWAP1 DIV PUSH1 0xFF AND PUSH1 0x2 DUP1 DUP1 SLOAD PUSH2 0x191 SWAP1 PUSH2 0x4EE JUMP JUMPDEST DUP1 PUSH1 0x1F ADD PUSH1 0x20 DUP1 SWAP2 DIV MUL PUSH1 0x20 ADD PUSH1 0x40 MLOAD SWAP1 DUP2 ADD PUSH1 0x40 MSTORE DUP1 SWAP3 SWAP2 SWAP1 DUP2 DUP2 MSTORE PUSH1 0x20 ADD DUP3 DUP1 SLOAD PUSH2 0x1BD SWAP1 PUSH2 0x4EE JUMP JUMPDEST DUP1 ISZERO PUSH2 0x20A JUMPI DUP1 PUSH1 0x1F LT PUSH2 0x1DF JUMPI PUSH2 0x100 DUP1 DUP4 SLOAD DIV MUL DUP4 MSTORE SWAP2 PUSH1 0x20 ADD SWAP2 PUSH2 0x20A JUMP JUMPDEST DUP3 ADD SWAP2 SWAP1 PUSH1 0x0 MSTORE PUSH1 0x20 PUSH1 0x0 KECCAK256 SWAP1 JUMPDEST DUP2 SLOAD DUP2 MSTORE SWAP1 PUSH1 0x1 ADD SWAP1 PUSH1 0x20 ADD DUP1 DUP4 GT PUSH2 0x1ED JUMPI DUP3 SWAP1 SUB PUSH1 0x1F AND DUP3 ADD SWAP2 JUMPDEST POP POP POP POP POP SWAP1 POP SWAP3 POP SWAP3 POP SWAP3 POP SWAP1 SWAP2 SWAP3 JUMP JUMPDEST PUSH1 0x2 DUP1 SLOAD PUSH2 0x229 SWAP1 PUSH2 0x4EE JUMP JUMPDEST DUP1 PUSH1 0x1F ADD PUSH1 0x20 DUP1 SWAP2 DIV MUL PUSH1 0x20 ADD PUSH1 0x40 MLOAD SWAP1 DUP2 ADD PUSH1 0x40 MSTORE DUP1 SWAP3 SWAP2 SWAP1 DUP2 DUP2 MSTORE PUSH1 0x20 ADD DUP3 DUP1 SLOAD PUSH2 0x255 SWAP1 PUSH2 0x4EE JUMP JUMPDEST DUP1 ISZERO PUSH2 0x2A2 JUMPI DUP1 PUSH1 0x1F LT PUSH2 0x277 JUMPI PUSH2 0x100 DUP1 DUP4 SLOAD DIV MUL DUP4 MSTORE SWAP2 PUSH1 0x20 ADD SWAP2 PUSH2 0x2A2 JUMP JUMPDEST DUP3 ADD SWAP2 SWAP1 PUSH1 0x0 MSTORE PUSH1 0x20 PUSH1 0x0 KECCAK256 SWAP1 JUMPDEST DUP2 SLOAD DUP2 MSTORE SWAP1 PUSH1 0x1 ADD SWAP1 PUSH1 0x20 ADD DUP1 DUP4 GT PUSH2 0x285 JUMPI DUP3 SWAP1 SUB PUSH1 0x1F AND DUP3 ADD SWAP2 JUMPDEST POP POP POP POP POP DUP2 JUMP JUMPDEST PUSH1 0x0 SLOAD DUP2 JUMP JUMPDEST PUSH1 0x0 DUP1 PUSH1 0x60 PUSH1 0x1 DUP1 PUSH1 0x40 MLOAD DUP1 PUSH1 0x40 ADD PUSH1 0x40 MSTORE DUP1 PUSH1 0x3 DUP2 MSTORE PUSH1 0x20 ADD PUSH32 0x6162630000000000000000000000000000000000000000000000000000000000 DUP2 MSTORE POP SWAP3 POP SWAP3 POP SWAP3 POP SWAP1 SWAP2 SWAP3 JUMP JUMPDEST DUP3 DUP1 SLOAD PUSH2 0x305 SWAP1 PUSH2 0x4EE JUMP JUMPDEST SWAP1 PUSH1 0x0 MSTORE PUSH1 0x20 PUSH1 0x0 KECCAK256 SWAP1 PUSH1 0x1F ADD PUSH1 0x20 SWAP1 DIV DUP2 ADD SWAP3 DUP3 PUSH2 0x327 JUMPI PUSH1 0x0 DUP6 SSTORE PUSH2 0x36E JUMP JUMPDEST DUP3 PUSH1 0x1F LT PUSH2 0x340 JUMPI DUP1 MLOAD PUSH1 0xFF NOT AND DUP4 DUP1 ADD OR DUP6 SSTORE PUSH2 0x36E JUMP JUMPDEST DUP3 DUP1 ADD PUSH1 0x1 ADD DUP6 SSTORE DUP3 ISZERO PUSH2 0x36E JUMPI SWAP2 DUP3 ADD JUMPDEST DUP3 DUP2 GT ISZERO PUSH2 0x36D JUMPI DUP3 MLOAD DUP3 SSTORE SWAP2 PUSH1 0x20 ADD SWAP2 SWAP1 PUSH1 0x1 ADD SWAP1 PUSH2 0x352 JUMP JUMPDEST JUMPDEST POP SWAP1 POP PUSH2 0x37B SWAP2 SWAP1 PUSH2 0x37F JUMP JUMPDEST POP SWAP1 JUMP JUMPDEST JUMPDEST DUP1 DUP3 GT ISZERO PUSH2 0x398 JUMPI PUSH1 0x0 DUP2 PUSH1 0x0 SWAP1 SSTORE POP PUSH1 0x1 ADD PUSH2 0x380 JUMP JUMPDEST POP SWAP1 JUMP JUMPDEST PUSH2 0x3A5 DUP2 PUSH2 0x4A5 JUMP JUMPDEST DUP3 MSTORE POP POP JUMP JUMPDEST PUSH1 0x0 PUSH2 0x3B6 DUP3 PUSH2 0x489 JUMP JUMPDEST PUSH2 0x3C0 DUP2 DUP6 PUSH2 0x494 JUMP JUMPDEST SWAP4 POP PUSH2 0x3D0 DUP2 DUP6 PUSH1 0x20 DUP7 ADD PUSH2 0x4BB JUMP JUMPDEST PUSH2 0x3D9 DUP2 PUSH2 0x54F JUMP JUMPDEST DUP5 ADD SWAP2 POP POP SWAP3 SWAP2 POP POP JUMP JUMPDEST PUSH2 0x3ED DUP2 PUSH2 0x4B1 JUMP JUMPDEST DUP3 MSTORE POP POP JUMP JUMPDEST PUSH1 0x0 PUSH1 0x20 DUP3 ADD SWAP1 POP PUSH2 0x408 PUSH1 0x0 DUP4 ADD DUP5 PUSH2 0x39C JUMP JUMPDEST SWAP3 SWAP2 POP POP JUMP JUMPDEST PUSH1 0x0 PUSH1 0x20 DUP3 ADD SWAP1 POP DUP2 DUP2 SUB PUSH1 0x0 DUP4 ADD MSTORE PUSH2 0x428 DUP2 DUP5 PUSH2 0x3AB JUMP JUMPDEST SWAP1 POP SWAP3 SWAP2 POP POP JUMP JUMPDEST PUSH1 0x0 PUSH1 0x20 DUP3 ADD SWAP1 POP PUSH2 0x445 PUSH1 0x0 DUP4 ADD DUP5 PUSH2 0x3E4 JUMP JUMPDEST SWAP3 SWAP2 POP POP JUMP JUMPDEST PUSH1 0x0 PUSH1 0x60 DUP3 ADD SWAP1 POP PUSH2 0x460 PUSH1 0x0 DUP4 ADD DUP7 PUSH2 0x3E4 JUMP JUMPDEST PUSH2 0x46D PUSH1 0x20 DUP4 ADD DUP6 PUSH2 0x39C JUMP JUMPDEST DUP2 DUP2 SUB PUSH1 0x40 DUP4 ADD MSTORE PUSH2 0x47F DUP2 DUP5 PUSH2 0x3AB JUMP JUMPDEST SWAP1 POP SWAP5 SWAP4 POP POP POP POP JUMP JUMPDEST PUSH1 0x0 DUP2 MLOAD SWAP1 POP SWAP2 SWAP1 POP JUMP JUMPDEST PUSH1 0x0 DUP3 DUP3 MSTORE PUSH1 0x20 DUP3 ADD SWAP1 POP SWAP3 SWAP2 POP POP JUMP JUMPDEST PUSH1 0x0 DUP2 ISZERO ISZERO SWAP1 POP SWAP2 SWAP1 POP JUMP JUMPDEST PUSH1 0x0 DUP2 SWAP1 POP SWAP2 SWAP1 POP JUMP JUMPDEST PUSH1 0x0 JUMPDEST DUP4 DUP2 LT ISZERO PUSH2 0x4D9 JUMPI DUP1 DUP3 ADD MLOAD DUP2 DUP5 ADD MSTORE PUSH1 0x20 DUP2 ADD SWAP1 POP PUSH2 0x4BE JUMP JUMPDEST DUP4 DUP2 GT ISZERO PUSH2 0x4E8 JUMPI PUSH1 0x0 DUP5 DUP5 ADD MSTORE JUMPDEST POP POP POP POP JUMP JUMPDEST PUSH1 0x0 PUSH1 0x2 DUP3 DIV SWAP1 POP PUSH1 0x1 DUP3 AND DUP1 PUSH2 0x506 JUMPI PUSH1 0x7F DUP3 AND SWAP2 POP JUMPDEST PUSH1 0x20 DUP3 LT DUP2 EQ ISZERO PUSH2 0x51A JUMPI PUSH2 0x519 PUSH2 0x520 JUMP JUMPDEST JUMPDEST POP SWAP2 SWAP1 POP JUMP JUMPDEST PUSH32 0x4E487B7100000000000000000000000000000000000000000000000000000000 PUSH1 0x0 MSTORE PUSH1 0x22 PUSH1 0x4 MSTORE PUSH1 0x24 PUSH1 0x0 REVERT JUMPDEST PUSH1 0x0 PUSH1 0x1F NOT PUSH1 0x1F DUP4 ADD AND SWAP1 POP SWAP2 SWAP1 POP JUMP INVALID LOG2 PUSH5 0x6970667358 0x22 SLT KECCAK256 SWAP14 0xE3 DUP16 0xB1 0x24 0xF7 MOD 0xA7 PUSH19 0xC4375B1F300BA3B4CBE44E0FB463E93BEE5DE9 DELEGATECALL 0xB6 SWAP5 0x4D PUSH5 0x736F6C6343 STOP ADDMOD SMOD STOP CALLER "
				},
				"gasEstimates": {
					"creation": {
						"codeDepositCost": "286000",
						"executionCost": "324",
						"totalCost": "286324"
					},
					"external": {
						"b()": "2471",
						"captureOutputs()": "infinite",
						"displayOutputs()": "infinite",
						"i()": "2495",
						"returnMultiple()": "infinite",
						"s()": "infinite"
					}
				},
				"methodIdentifiers": {
					"b()": "4df7e3d0",
					"captureOutputs()": "26a89e04",
					"displayOutputs()": "64f13521",
					"i()": "e5aa3d58",
					"returnMultiple()": "e61e4008",
					"s()": "86b714e2"
				}
			},
			"storageLayout": {
				"storage": [
					{
						"astId": 3,
						"contract": "16Outputs.sol:Outputs",
						"label": "i",
						"offset": 0,
						"slot": "0",
						"type": "t_uint256"
					},
					{
						"astId": 5,
						"contract": "16Outputs.sol:Outputs",
						"label": "b",
						"offset": 0,
						"slot": "1",
						"type": "t_bool"
					},
					{
						"astId": 7,
						"contract": "16Outputs.sol:Outputs",
						"label": "s",
						"offset": 0,
						"slot": "2",
						"type": "t_string_storage"
					}
				],
				"types": {
					"t_bool": {
						"encoding": "inplace",
						"label": "bool",
						"numberOfBytes": "1"
					},
					"t_string_storage": {
						"encoding": "bytes",
						"label": "string",
						"numberOfBytes": "32"
					},
					"t_uint256": {
						"encoding": "inplace",
						"label": "uint256",
						"numberOfBytes": "32"
					}
				}
			},
			"userdoc": {
				"kind": "user",
				"methods": {},
				"version": 1
			}
		}
	}
}