{
	"52StakingRewards.sol": {
		"StakingRewards": {
			"abi": [
				{
					"inputs": [
						{
							"internalType": "address",
							"name": "_stakingToken",
							"type": "address"
						},
						{
							"internalType": "address",
							"name": "_rewardToken",
							"type": "address"
						}
					],
					"stateMutability": "nonpayable",
					"type": "constructor"
				},
				{
					"inputs": [
						{
							"internalType": "address",
							"name": "",
							"type": "address"
						}
					],
					"name": "balanceOf",
					"outputs": [
						{
							"internalType": "uint256",
							"name": "",
							"type": "uint256"
						}
					],
					"stateMutability": "view",
					"type": "function"
				},
				{
					"inputs": [],
					"name": "duration",
					"outputs": [
						{
							"internalType": "uint256",
							"name": "",
							"type": "uint256"
						}
					],
					"stateMutability": "view",
					"type": "function"
				},
				{
					"inputs": [
						{
							"internalType": "address",
							"name": "_account",
							"type": "address"
						}
					],
					"name": "earned",
					"outputs": [
						{
							"internalType": "uint256",
							"name": "",
							"type": "uint256"
						}
					],
					"stateMutability": "view",
					"type": "function"
				},
				{
					"inputs": [],
					"name": "finishAt",
					"outputs": [
						{
							"internalType": "uint256",
							"name": "",
							"type": "uint256"
						}
					],
					"stateMutability": "view",
					"type": "function"
				},
				{
					"inputs": [],
					"name": "getReward",
					"outputs": [],
					"stateMutability": "nonpayable",
					"type": "function"
				},
				{
					"inputs": [],
					"name": "lastTimeRewardApplicable",
					"outputs": [
						{
							"internalType": "uint256",
							"name": "",
							"type": "uint256"
						}
					],
					"stateMutability": "view",
					"type": "function"
				},
				{
					"inputs": [
						{
							"internalType": "uint256",
							"name": "_amount",
							"type": "uint256"
						}
					],
					"name": "notifyRewardAmount",
					"outputs": [],
					"stateMutability": "nonpayable",
					"type": "function"
				},
				{
					"inputs": [],
					"name": "owner",
					"outputs": [
						{
							"internalType": "address",
							"name": "",
							"type": "address"
						}
					],
					"stateMutability": "view",
					"type": "function"
				},
				{
					"inputs": [],
					"name": "rewardPerToken",
					"outputs": [
						{
							"internalType": "uint256",
							"name": "",
							"type": "uint256"
						}
					],
					"stateMutability": "view",
					"type": "function"
				},
				{
					"inputs": [],
					"name": "rewardPerTokenStored",
					"outputs": [
						{
							"internalType": "uint256",
							"name": "",
							"type": "uint256"
						}
					],
					"stateMutability": "view",
					"type": "function"
				},
				{
					"inputs": [],
					"name": "rewardRate",
					"outputs": [
						{
							"internalType": "uint256",
							"name": "",
							"type": "uint256"
						}
					],
					"stateMutability": "view",
					"type": "function"
				},
				{
					"inputs": [],
					"name": "rewardToken",
					"outputs": [
						{
							"internalType": "contract IERC20",
							"name": "",
							"type": "address"
						}
					],
					"stateMutability": "view",
					"type": "function"
				},
				{
					"inputs": [
						{
							"internalType": "address",
							"name": "",
							"type": "address"
						}
					],
					"name": "rewards",
					"outputs": [
						{
							"internalType": "uint256",
							"name": "",
							"type": "uint256"
						}
					],
					"stateMutability": "view",
					"type": "function"
				},
				{
					"inputs": [
						{
							"internalType": "uint256",
							"name": "_duration",
							"type": "uint256"
						}
					],
					"name": "setRewardsDuration",
					"outputs": [],
					"stateMutability": "nonpayable",
					"type": "function"
				},
				{
					"inputs": [
						{
							"internalType": "uint256",
							"name": "_amount",
							"type": "uint256"
						}
					],
					"name": "stake",
					"outputs": [],
					"stateMutability": "nonpayable",
					"type": "function"
				},
				{
					"inputs": [],
					"name": "stakingToken",
					"outputs": [
						{
							"internalType": "contract IERC20",
							"name": "",
							"type": "address"
						}
					],
					"stateMutability": "view",
					"type": "function"
				},
				{
					"inputs": [],
					"name": "totalSupply",
					"outputs": [
						{
							"internalType": "uint256",
							"name": "",
							"type": "uint256"
						}
					],
					"stateMutability": "view",
					"type": "function"
				},
				{
					"inputs": [],
					"name": "updatedAt",
					"outputs": [
						{
							"internalType": "uint256",
							"name": "",
							"type": "uint256"
						}
					],
					"stateMutability": "view",
					"type": "function"
				},
				{
					"inputs": [
						{
							"internalType": "address",
							"name": "",
							"type": "address"
						}
					],
					"name": "userRewardPerTokenPaid",
					"outputs": [
						{
							"internalType": "uint256",
							"name": "",
							"type": "uint256"
						}
					],
					"stateMutability": "view",
					"type": "function"
				},
				{
					"inputs": [
						{
							"internalType": "uint256",
							"name": "_amount",
							"type": "uint256"
						}
					],
					"name": "withdraw",
					"outputs": [],
					"stateMutability": "nonpayable",
					"type": "function"
				}
			],
			"devdoc": {
				"kind": "dev",
				"methods": {},
				"version": 1
			},
			"evm": {
				"assembly": "    /* \"52StakingRewards.sol\":82:4224  contract StakingRewards{... */\n  mstore(0x40, 0xc0)\n    /* \"52StakingRewards.sol\":1344:1525  constructor(address _stakingToken, address _rewardToken){... */\n  callvalue\n  dup1\n  iszero\n  tag_1\n  jumpi\n  0x00\n  dup1\n  revert\ntag_1:\n  pop\n  mload(0x40)\n  sub(codesize, bytecodeSize)\n  dup1\n  bytecodeSize\n  dup4\n  codecopy\n  dup2\n  dup2\n  add\n  0x40\n  mstore\n  dup2\n  add\n  swap1\n  tag_2\n  swap2\n  swap1\n  tag_3\n  jump\t// in\ntag_2:\n    /* \"52StakingRewards.sol\":1418:1428  msg.sender */\n  caller\n    /* \"52StakingRewards.sol\":1410:1415  owner */\n  0x00\n  dup1\n    /* \"52StakingRewards.sol\":1410:1428  owner = msg.sender */\n  0x0100\n  exp\n  dup2\n  sload\n  dup2\n  0xffffffffffffffffffffffffffffffffffffffff\n  mul\n  not\n  and\n  swap1\n  dup4\n  0xffffffffffffffffffffffffffffffffffffffff\n  and\n  mul\n  or\n  swap1\n  sstore\n  pop\n    /* \"52StakingRewards.sol\":1460:1473  _stakingToken */\n  dup2\n    /* \"52StakingRewards.sol\":1438:1474  stakingToken = IERC20(_stakingToken) */\n  0xffffffffffffffffffffffffffffffffffffffff\n  and\n  0x80\n  dup2\n  0xffffffffffffffffffffffffffffffffffffffff\n  and\n  0x60\n  shl\n  dup2\n  mstore\n  pop\n  pop\n    /* \"52StakingRewards.sol\":1505:1517  _rewardToken */\n  dup1\n    /* \"52StakingRewards.sol\":1484:1518  rewardToken = IERC20(_rewardToken) */\n  0xffffffffffffffffffffffffffffffffffffffff\n  and\n  0xa0\n  dup2\n  0xffffffffffffffffffffffffffffffffffffffff\n  and\n  0x60\n  shl\n  dup2\n  mstore\n  pop\n  pop\n    /* \"52StakingRewards.sol\":1344:1525  constructor(address _stakingToken, address _rewardToken){... */\n  pop\n  pop\n    /* \"52StakingRewards.sol\":82:4224  contract StakingRewards{... */\n  jump(tag_6)\n    /* \"#utility.yul\":7:150   */\ntag_8:\n    /* \"#utility.yul\":64:69   */\n  0x00\n    /* \"#utility.yul\":95:101   */\n  dup2\n    /* \"#utility.yul\":89:102   */\n  mload\n    /* \"#utility.yul\":80:102   */\n  swap1\n  pop\n    /* \"#utility.yul\":111:144   */\n  tag_10\n    /* \"#utility.yul\":138:143   */\n  dup2\n    /* \"#utility.yul\":111:144   */\n  tag_11\n  jump\t// in\ntag_10:\n    /* \"#utility.yul\":7:150   */\n  swap3\n  swap2\n  pop\n  pop\n  jump\t// out\n    /* \"#utility.yul\":156:663   */\ntag_3:\n    /* \"#utility.yul\":235:241   */\n  0x00\n    /* \"#utility.yul\":243:249   */\n  dup1\n    /* \"#utility.yul\":292:294   */\n  0x40\n    /* \"#utility.yul\":280:289   */\n  dup4\n    /* \"#utility.yul\":271:278   */\n  dup6\n    /* \"#utility.yul\":267:290   */\n  sub\n    /* \"#utility.yul\":263:295   */\n  slt\n    /* \"#utility.yul\":260:379   */\n  iszero\n  tag_13\n  jumpi\n    /* \"#utility.yul\":298:377   */\n  tag_14\n  tag_15\n  jump\t// in\ntag_14:\n    /* \"#utility.yul\":260:379   */\ntag_13:\n    /* \"#utility.yul\":418:419   */\n  0x00\n    /* \"#utility.yul\":443:507   */\n  tag_16\n    /* \"#utility.yul\":499:506   */\n  dup6\n    /* \"#utility.yul\":490:496   */\n  dup3\n    /* \"#utility.yul\":479:488   */\n  dup7\n    /* \"#utility.yul\":475:497   */\n  add\n    /* \"#utility.yul\":443:507   */\n  tag_8\n  jump\t// in\ntag_16:\n    /* \"#utility.yul\":433:507   */\n  swap3\n  pop\n    /* \"#utility.yul\":389:517   */\n  pop\n    /* \"#utility.yul\":556:558   */\n  0x20\n    /* \"#utility.yul\":582:646   */\n  tag_17\n    /* \"#utility.yul\":638:645   */\n  dup6\n    /* \"#utility.yul\":629:635   */\n  dup3\n    /* \"#utility.yul\":618:627   */\n  dup7\n    /* \"#utility.yul\":614:636   */\n  add\n    /* \"#utility.yul\":582:646   */\n  tag_8\n  jump\t// in\ntag_17:\n    /* \"#utility.yul\":572:646   */\n  swap2\n  pop\n    /* \"#utility.yul\":527:656   */\n  pop\n    /* \"#utility.yul\":156:663   */\n  swap3\n  pop\n  swap3\n  swap1\n  pop\n  jump\t// out\n    /* \"#utility.yul\":750:846   */\ntag_20:\n    /* \"#utility.yul\":787:794   */\n  0x00\n    /* \"#utility.yul\":816:840   */\n  tag_22\n    /* \"#utility.yul\":834:839   */\n  dup3\n    /* \"#utility.yul\":816:840   */\n  tag_23\n  jump\t// in\ntag_22:\n    /* \"#utility.yul\":805:840   */\n  swap1\n  pop\n    /* \"#utility.yul\":750:846   */\n  swap2\n  swap1\n  pop\n  jump\t// out\n    /* \"#utility.yul\":852:978   */\ntag_23:\n    /* \"#utility.yul\":889:896   */\n  0x00\n    /* \"#utility.yul\":929:971   */\n  0xffffffffffffffffffffffffffffffffffffffff\n    /* \"#utility.yul\":922:927   */\n  dup3\n    /* \"#utility.yul\":918:972   */\n  and\n    /* \"#utility.yul\":907:972   */\n  swap1\n  pop\n    /* \"#utility.yul\":852:978   */\n  swap2\n  swap1\n  pop\n  jump\t// out\n    /* \"#utility.yul\":1107:1224   */\ntag_15:\n    /* \"#utility.yul\":1216:1217   */\n  0x00\n    /* \"#utility.yul\":1213:1214   */\n  dup1\n    /* \"#utility.yul\":1206:1218   */\n  revert\n    /* \"#utility.yul\":1230:1352   */\ntag_11:\n    /* \"#utility.yul\":1303:1327   */\n  tag_29\n    /* \"#utility.yul\":1321:1326   */\n  dup2\n    /* \"#utility.yul\":1303:1327   */\n  tag_20\n  jump\t// in\ntag_29:\n    /* \"#utility.yul\":1296:1301   */\n  dup2\n    /* \"#utility.yul\":1293:1328   */\n  eq\n    /* \"#utility.yul\":1283:1346   */\n  tag_30\n  jumpi\n    /* \"#utility.yul\":1342:1343   */\n  0x00\n    /* \"#utility.yul\":1339:1340   */\n  dup1\n    /* \"#utility.yul\":1332:1344   */\n  revert\n    /* \"#utility.yul\":1283:1346   */\ntag_30:\n    /* \"#utility.yul\":1230:1352   */\n  pop\n  jump\t// out\n    /* \"52StakingRewards.sol\":82:4224  contract StakingRewards{... */\ntag_6:\n  shr(0x60, mload(0x80))\n  shr(0x60, mload(0xa0))\n  codecopy(0x00, dataOffset(sub_0), dataSize(sub_0))\n  0x00\n  assignImmutable(\"0xcc193713febc75d3d9bd2f9ce113f403ff19633f15c8cdbcf79756ae23e77f9a\")\n  0x00\n  assignImmutable(\"0x043ab7193d962ca510e48770a5a13714f4684febe0e5affcfd1eb73cfed1f218\")\n  return(0x00, dataSize(sub_0))\nstop\n\nsub_0: assembly {\n        /* \"52StakingRewards.sol\":82:4224  contract StakingRewards{... */\n      mstore(0x40, 0x80)\n      callvalue\n      dup1\n      iszero\n      tag_1\n      jumpi\n      0x00\n      dup1\n      revert\n    tag_1:\n      pop\n      jumpi(tag_2, lt(calldatasize, 0x04))\n      shr(0xe0, calldataload(0x00))\n      dup1\n      0x7519ab50\n      gt\n      tag_23\n      jumpi\n      dup1\n      0xa694fc3a\n      gt\n      tag_24\n      jumpi\n      dup1\n      0xa694fc3a\n      eq\n      tag_18\n      jumpi\n      dup1\n      0xcc1a378f\n      eq\n      tag_19\n      jumpi\n      dup1\n      0xcd3daf9d\n      eq\n      tag_20\n      jumpi\n      dup1\n      0xdf136d65\n      eq\n      tag_21\n      jumpi\n      dup1\n      0xf7c618c1\n      eq\n      tag_22\n      jumpi\n      jump(tag_2)\n    tag_24:\n      dup1\n      0x7519ab50\n      eq\n      tag_13\n      jumpi\n      dup1\n      0x7b0a47ee\n      eq\n      tag_14\n      jumpi\n      dup1\n      0x80faa57d\n      eq\n      tag_15\n      jumpi\n      dup1\n      0x8b876347\n      eq\n      tag_16\n      jumpi\n      dup1\n      0x8da5cb5b\n      eq\n      tag_17\n      jumpi\n      jump(tag_2)\n    tag_23:\n      dup1\n      0x3c6b16ab\n      gt\n      tag_25\n      jumpi\n      dup1\n      0x3c6b16ab\n      eq\n      tag_8\n      jumpi\n      dup1\n      0x3d18b912\n      eq\n      tag_9\n      jumpi\n      dup1\n      0x67d3b488\n      eq\n      tag_10\n      jumpi\n      dup1\n      0x70a08231\n      eq\n      tag_11\n      jumpi\n      dup1\n      0x72f702f3\n      eq\n      tag_12\n      jumpi\n      jump(tag_2)\n    tag_25:\n      dup1\n      0x8cc262\n      eq\n      tag_3\n      jumpi\n      dup1\n      0x0700037d\n      eq\n      tag_4\n      jumpi\n      dup1\n      0x0fb5a6b4\n      eq\n      tag_5\n      jumpi\n      dup1\n      0x18160ddd\n      eq\n      tag_6\n      jumpi\n      dup1\n      0x2e1a7d4d\n      eq\n      tag_7\n      jumpi\n    tag_2:\n      0x00\n      dup1\n      revert\n        /* \"52StakingRewards.sol\":3702:3889  function earned(address _account) public view returns(uint) {... */\n    tag_3:\n      tag_26\n      0x04\n      dup1\n      calldatasize\n      sub\n      dup2\n      add\n      swap1\n      tag_27\n      swap2\n      swap1\n      tag_28\n      jump\t// in\n    tag_27:\n      tag_29\n      jump\t// in\n    tag_26:\n      mload(0x40)\n      tag_30\n      swap2\n      swap1\n      tag_31\n      jump\t// in\n    tag_30:\n      mload(0x40)\n      dup1\n      swap2\n      sub\n      swap1\n      return\n        /* \"52StakingRewards.sol\":669:708  mapping(address => uint) public rewards */\n    tag_4:\n      tag_32\n      0x04\n      dup1\n      calldatasize\n      sub\n      dup2\n      add\n      swap1\n      tag_33\n      swap2\n      swap1\n      tag_28\n      jump\t// in\n    tag_33:\n      tag_34\n      jump\t// in\n    tag_32:\n      mload(0x40)\n      tag_35\n      swap2\n      swap1\n      tag_31\n      jump\t// in\n    tag_35:\n      mload(0x40)\n      dup1\n      swap2\n      sub\n      swap1\n      return\n        /* \"52StakingRewards.sol\":372:392  uint public duration */\n    tag_5:\n      tag_36\n      tag_37\n      jump\t// in\n    tag_36:\n      mload(0x40)\n      tag_38\n      swap2\n      swap1\n      tag_31\n      jump\t// in\n    tag_38:\n      mload(0x40)\n      dup1\n      swap2\n      sub\n      swap1\n      return\n        /* \"52StakingRewards.sol\":829:852  uint public totalSupply */\n    tag_6:\n      tag_39\n      tag_40\n      jump\t// in\n    tag_39:\n      mload(0x40)\n      tag_41\n      swap2\n      swap1\n      tag_31\n      jump\t// in\n    tag_41:\n      mload(0x40)\n      dup1\n      swap2\n      sub\n      swap1\n      return\n        /* \"52StakingRewards.sol\":3097:3288  function withdraw(uint _amount) external updateReward(msg.sender) {... */\n    tag_7:\n      tag_42\n      0x04\n      dup1\n      calldatasize\n      sub\n      dup2\n      add\n      swap1\n      tag_43\n      swap2\n      swap1\n      tag_44\n      jump\t// in\n    tag_43:\n      tag_45\n      jump\t// in\n    tag_42:\n      stop\n        /* \"52StakingRewards.sol\":1876:2710  function notifyRewardAmount(uint _amount) external onlyOwner updateReward(address(0)){... */\n    tag_8:\n      tag_46\n      0x04\n      dup1\n      calldatasize\n      sub\n      dup2\n      add\n      swap1\n      tag_47\n      swap2\n      swap1\n      tag_44\n      jump\t// in\n    tag_47:\n      tag_48\n      jump\t// in\n    tag_46:\n      stop\n        /* \"52StakingRewards.sol\":3901:4130  function getReward() external updateReward(msg.sender){... */\n    tag_9:\n      tag_49\n      tag_50\n      jump\t// in\n    tag_49:\n      stop\n        /* \"52StakingRewards.sol\":398:418  uint public finishAt */\n    tag_10:\n      tag_51\n      tag_52\n      jump\t// in\n    tag_51:\n      mload(0x40)\n      tag_53\n      swap2\n      swap1\n      tag_31\n      jump\t// in\n    tag_53:\n      mload(0x40)\n      dup1\n      swap2\n      sub\n      swap1\n      return\n        /* \"52StakingRewards.sol\":886:927  mapping(address => uint) public balanceOf */\n    tag_11:\n      tag_54\n      0x04\n      dup1\n      calldatasize\n      sub\n      dup2\n      add\n      swap1\n      tag_55\n      swap2\n      swap1\n      tag_28\n      jump\t// in\n    tag_55:\n      tag_56\n      jump\t// in\n    tag_54:\n      mload(0x40)\n      tag_57\n      swap2\n      swap1\n      tag_31\n      jump\t// in\n    tag_57:\n      mload(0x40)\n      dup1\n      swap2\n      sub\n      swap1\n      return\n        /* \"52StakingRewards.sol\":146:182  IERC20 public immutable stakingToken */\n    tag_12:\n      tag_58\n      tag_59\n      jump\t// in\n    tag_58:\n      mload(0x40)\n      tag_60\n      swap2\n      swap1\n      tag_61\n      jump\t// in\n    tag_60:\n      mload(0x40)\n      dup1\n      swap2\n      sub\n      swap1\n      return\n        /* \"52StakingRewards.sol\":424:445  uint public updatedAt */\n    tag_13:\n      tag_62\n      tag_63\n      jump\t// in\n    tag_62:\n      mload(0x40)\n      tag_64\n      swap2\n      swap1\n      tag_31\n      jump\t// in\n    tag_64:\n      mload(0x40)\n      dup1\n      swap2\n      sub\n      swap1\n      return\n        /* \"52StakingRewards.sol\":451:473  uint public rewardRate */\n    tag_14:\n      tag_65\n      tag_66\n      jump\t// in\n    tag_65:\n      mload(0x40)\n      tag_67\n      swap2\n      swap1\n      tag_31\n      jump\t// in\n    tag_67:\n      mload(0x40)\n      dup1\n      swap2\n      sub\n      swap1\n      return\n        /* \"52StakingRewards.sol\":3294:3408  function lastTimeRewardApplicable() public view returns(uint){... */\n    tag_15:\n      tag_68\n      tag_69\n      jump\t// in\n    tag_68:\n      mload(0x40)\n      tag_70\n      swap2\n      swap1\n      tag_31\n      jump\t// in\n    tag_70:\n      mload(0x40)\n      dup1\n      swap2\n      sub\n      swap1\n      return\n        /* \"52StakingRewards.sol\":575:629  mapping(address => uint) public userRewardPerTokenPaid */\n    tag_16:\n      tag_71\n      0x04\n      dup1\n      calldatasize\n      sub\n      dup2\n      add\n      swap1\n      tag_72\n      swap2\n      swap1\n      tag_28\n      jump\t// in\n    tag_72:\n      tag_73\n      jump\t// in\n    tag_71:\n      mload(0x40)\n      tag_74\n      swap2\n      swap1\n      tag_31\n      jump\t// in\n    tag_74:\n      mload(0x40)\n      dup1\n      swap2\n      sub\n      swap1\n      return\n        /* \"52StakingRewards.sol\":270:290  address public owner */\n    tag_17:\n      tag_75\n      tag_76\n      jump\t// in\n    tag_75:\n      mload(0x40)\n      tag_77\n      swap2\n      swap1\n      tag_78\n      jump\t// in\n    tag_77:\n      mload(0x40)\n      dup1\n      swap2\n      sub\n      swap1\n      return\n        /* \"52StakingRewards.sol\":2740:3067  function stake(uint _amount) external updateReward(msg.sender){... */\n    tag_18:\n      tag_79\n      0x04\n      dup1\n      calldatasize\n      sub\n      dup2\n      add\n      swap1\n      tag_80\n      swap2\n      swap1\n      tag_44\n      jump\t// in\n    tag_80:\n      tag_81\n      jump\t// in\n    tag_79:\n      stop\n        /* \"52StakingRewards.sol\":1593:1831  function setRewardsDuration(uint _duration) external onlyOwner{... */\n    tag_19:\n      tag_82\n      0x04\n      dup1\n      calldatasize\n      sub\n      dup2\n      add\n      swap1\n      tag_83\n      swap2\n      swap1\n      tag_44\n      jump\t// in\n    tag_83:\n      tag_84\n      jump\t// in\n    tag_82:\n      stop\n        /* \"52StakingRewards.sol\":3414:3663  function rewardPerToken()public view returns(uint){... */\n    tag_20:\n      tag_85\n      tag_86\n      jump\t// in\n    tag_85:\n      mload(0x40)\n      tag_87\n      swap2\n      swap1\n      tag_31\n      jump\t// in\n    tag_87:\n      mload(0x40)\n      dup1\n      swap2\n      sub\n      swap1\n      return\n        /* \"52StakingRewards.sol\":479:511  uint public rewardPerTokenStored */\n    tag_21:\n      tag_88\n      tag_89\n      jump\t// in\n    tag_88:\n      mload(0x40)\n      tag_90\n      swap2\n      swap1\n      tag_31\n      jump\t// in\n    tag_90:\n      mload(0x40)\n      dup1\n      swap2\n      sub\n      swap1\n      return\n        /* \"52StakingRewards.sol\":229:264  IERC20 public immutable rewardToken */\n    tag_22:\n      tag_91\n      tag_92\n      jump\t// in\n    tag_91:\n      mload(0x40)\n      tag_93\n      swap2\n      swap1\n      tag_61\n      jump\t// in\n    tag_93:\n      mload(0x40)\n      dup1\n      swap2\n      sub\n      swap1\n      return\n        /* \"52StakingRewards.sol\":3702:3889  function earned(address _account) public view returns(uint) {... */\n    tag_29:\n        /* \"52StakingRewards.sol\":3756:3760  uint */\n      0x00\n        /* \"52StakingRewards.sol\":3865:3872  rewards */\n      0x07\n        /* \"52StakingRewards.sol\":3865:3882  rewards[_account] */\n      0x00\n        /* \"52StakingRewards.sol\":3873:3881  _account */\n      dup4\n        /* \"52StakingRewards.sol\":3865:3882  rewards[_account] */\n      0xffffffffffffffffffffffffffffffffffffffff\n      and\n      0xffffffffffffffffffffffffffffffffffffffff\n      and\n      dup2\n      mstore\n      0x20\n      add\n      swap1\n      dup2\n      mstore\n      0x20\n      add\n      0x00\n      keccak256\n      sload\n        /* \"52StakingRewards.sol\":3858:3862  1e18 */\n      0x0de0b6b3a7640000\n        /* \"52StakingRewards.sol\":3822:3844  userRewardPerTokenPaid */\n      0x06\n        /* \"52StakingRewards.sol\":3822:3854  userRewardPerTokenPaid[_account] */\n      0x00\n        /* \"52StakingRewards.sol\":3845:3853  _account */\n      dup6\n        /* \"52StakingRewards.sol\":3822:3854  userRewardPerTokenPaid[_account] */\n      0xffffffffffffffffffffffffffffffffffffffff\n      and\n      0xffffffffffffffffffffffffffffffffffffffff\n      and\n      dup2\n      mstore\n      0x20\n      add\n      swap1\n      dup2\n      mstore\n      0x20\n      add\n      0x00\n      keccak256\n      sload\n        /* \"52StakingRewards.sol\":3803:3819  rewardPerToken() */\n      tag_95\n        /* \"52StakingRewards.sol\":3803:3817  rewardPerToken */\n      tag_86\n        /* \"52StakingRewards.sol\":3803:3819  rewardPerToken() */\n      jump\t// in\n    tag_95:\n        /* \"52StakingRewards.sol\":3803:3854  rewardPerToken() - userRewardPerTokenPaid[_account] */\n      tag_96\n      swap2\n      swap1\n      tag_97\n      jump\t// in\n    tag_96:\n        /* \"52StakingRewards.sol\":3780:3789  balanceOf */\n      0x09\n        /* \"52StakingRewards.sol\":3780:3799  balanceOf[_account] */\n      0x00\n        /* \"52StakingRewards.sol\":3790:3798  _account */\n      dup7\n        /* \"52StakingRewards.sol\":3780:3799  balanceOf[_account] */\n      0xffffffffffffffffffffffffffffffffffffffff\n      and\n      0xffffffffffffffffffffffffffffffffffffffff\n      and\n      dup2\n      mstore\n      0x20\n      add\n      swap1\n      dup2\n      mstore\n      0x20\n      add\n      0x00\n      keccak256\n      sload\n        /* \"52StakingRewards.sol\":3780:3855  balanceOf[_account] * (rewardPerToken() - userRewardPerTokenPaid[_account]) */\n      tag_98\n      swap2\n      swap1\n      tag_99\n      jump\t// in\n    tag_98:\n        /* \"52StakingRewards.sol\":3779:3862  (balanceOf[_account] * (rewardPerToken() - userRewardPerTokenPaid[_account]))/ 1e18 */\n      tag_100\n      swap2\n      swap1\n      tag_101\n      jump\t// in\n    tag_100:\n        /* \"52StakingRewards.sol\":3779:3882  (balanceOf[_account] * (rewardPerToken() - userRewardPerTokenPaid[_account]))/ 1e18 + rewards[_account] */\n      tag_102\n      swap2\n      swap1\n      tag_103\n      jump\t// in\n    tag_102:\n        /* \"52StakingRewards.sol\":3772:3882  return (balanceOf[_account] * (rewardPerToken() - userRewardPerTokenPaid[_account]))/ 1e18 + rewards[_account] */\n      swap1\n      pop\n        /* \"52StakingRewards.sol\":3702:3889  function earned(address _account) public view returns(uint) {... */\n      swap2\n      swap1\n      pop\n      jump\t// out\n        /* \"52StakingRewards.sol\":669:708  mapping(address => uint) public rewards */\n    tag_34:\n      mstore(0x20, 0x07)\n      dup1\n      0x00\n      mstore\n      keccak256(0x00, 0x40)\n      0x00\n      swap2\n      pop\n      swap1\n      pop\n      sload\n      dup2\n      jump\t// out\n        /* \"52StakingRewards.sol\":372:392  uint public duration */\n    tag_37:\n      sload(0x01)\n      dup2\n      jump\t// out\n        /* \"52StakingRewards.sol\":829:852  uint public totalSupply */\n    tag_40:\n      sload(0x08)\n      dup2\n      jump\t// out\n        /* \"52StakingRewards.sol\":3097:3288  function withdraw(uint _amount) external updateReward(msg.sender) {... */\n    tag_45:\n        /* \"52StakingRewards.sol\":3151:3161  msg.sender */\n      caller\n        /* \"52StakingRewards.sol\":1089:1105  rewardPerToken() */\n      tag_105\n        /* \"52StakingRewards.sol\":1089:1103  rewardPerToken */\n      tag_86\n        /* \"52StakingRewards.sol\":1089:1105  rewardPerToken() */\n      jump\t// in\n    tag_105:\n        /* \"52StakingRewards.sol\":1066:1086  rewardPerTokenStored */\n      0x05\n        /* \"52StakingRewards.sol\":1066:1105  rewardPerTokenStored = rewardPerToken() */\n      dup2\n      swap1\n      sstore\n      pop\n        /* \"52StakingRewards.sol\":1127:1153  lastTimeRewardApplicable() */\n      tag_106\n        /* \"52StakingRewards.sol\":1127:1151  lastTimeRewardApplicable */\n      tag_69\n        /* \"52StakingRewards.sol\":1127:1153  lastTimeRewardApplicable() */\n      jump\t// in\n    tag_106:\n        /* \"52StakingRewards.sol\":1115:1124  updatedAt */\n      0x03\n        /* \"52StakingRewards.sol\":1115:1153  updatedAt = lastTimeRewardApplicable() */\n      dup2\n      swap1\n      sstore\n      pop\n        /* \"52StakingRewards.sol\":1187:1188  0 */\n      0x00\n        /* \"52StakingRewards.sol\":1167:1189  _account != address(0) */\n      0xffffffffffffffffffffffffffffffffffffffff\n      and\n        /* \"52StakingRewards.sol\":1167:1175  _account */\n      dup2\n        /* \"52StakingRewards.sol\":1167:1189  _account != address(0) */\n      0xffffffffffffffffffffffffffffffffffffffff\n      and\n      eq\n        /* \"52StakingRewards.sol\":1164:1320  if(_account != address(0)){... */\n      tag_107\n      jumpi\n        /* \"52StakingRewards.sol\":1224:1240  earned(_account) */\n      tag_108\n        /* \"52StakingRewards.sol\":1231:1239  _account */\n      dup2\n        /* \"52StakingRewards.sol\":1224:1230  earned */\n      tag_29\n        /* \"52StakingRewards.sol\":1224:1240  earned(_account) */\n      jump\t// in\n    tag_108:\n        /* \"52StakingRewards.sol\":1204:1211  rewards */\n      0x07\n        /* \"52StakingRewards.sol\":1204:1221  rewards[_account] */\n      0x00\n        /* \"52StakingRewards.sol\":1212:1220  _account */\n      dup4\n        /* \"52StakingRewards.sol\":1204:1221  rewards[_account] */\n      0xffffffffffffffffffffffffffffffffffffffff\n      and\n      0xffffffffffffffffffffffffffffffffffffffff\n      and\n      dup2\n      mstore\n      0x20\n      add\n      swap1\n      dup2\n      mstore\n      0x20\n      add\n      0x00\n      keccak256\n        /* \"52StakingRewards.sol\":1204:1240  rewards[_account] = earned(_account) */\n      dup2\n      swap1\n      sstore\n      pop\n        /* \"52StakingRewards.sol\":1289:1309  rewardPerTokenStored */\n      sload(0x05)\n        /* \"52StakingRewards.sol\":1254:1276  userRewardPerTokenPaid */\n      0x06\n        /* \"52StakingRewards.sol\":1254:1286  userRewardPerTokenPaid[_account] */\n      0x00\n        /* \"52StakingRewards.sol\":1277:1285  _account */\n      dup4\n        /* \"52StakingRewards.sol\":1254:1286  userRewardPerTokenPaid[_account] */\n      0xffffffffffffffffffffffffffffffffffffffff\n      and\n      0xffffffffffffffffffffffffffffffffffffffff\n      and\n      dup2\n      mstore\n      0x20\n      add\n      swap1\n      dup2\n      mstore\n      0x20\n      add\n      0x00\n      keccak256\n        /* \"52StakingRewards.sol\":1254:1309  userRewardPerTokenPaid[_account] = rewardPerTokenStored */\n      dup2\n      swap1\n      sstore\n      pop\n        /* \"52StakingRewards.sol\":1164:1320  if(_account != address(0)){... */\n    tag_107:\n        /* \"52StakingRewards.sol\":3191:3192  0 */\n      0x00\n        /* \"52StakingRewards.sol\":3181:3188  _amount */\n      dup3\n        /* \"52StakingRewards.sol\":3181:3192  _amount > 0 */\n      gt\n        /* \"52StakingRewards.sol\":3173:3207  require(_amount > 0,\"_amount = 0\") */\n      tag_110\n      jumpi\n      mload(0x40)\n      0x08c379a000000000000000000000000000000000000000000000000000000000\n      dup2\n      mstore\n      0x04\n      add\n      tag_111\n      swap1\n      tag_112\n      jump\t// in\n    tag_111:\n      mload(0x40)\n      dup1\n      swap2\n      sub\n      swap1\n      revert\n    tag_110:\n        /* \"52StakingRewards.sol\":3242:3249  _amount */\n      dup2\n        /* \"52StakingRewards.sol\":3217:3226  balanceOf */\n      0x09\n        /* \"52StakingRewards.sol\":3217:3238  balanceOf[msg.sender] */\n      0x00\n        /* \"52StakingRewards.sol\":3227:3237  msg.sender */\n      caller\n        /* \"52StakingRewards.sol\":3217:3238  balanceOf[msg.sender] */\n      0xffffffffffffffffffffffffffffffffffffffff\n      and\n      0xffffffffffffffffffffffffffffffffffffffff\n      and\n      dup2\n      mstore\n      0x20\n      add\n      swap1\n      dup2\n      mstore\n      0x20\n      add\n      0x00\n      keccak256\n      0x00\n        /* \"52StakingRewards.sol\":3217:3249  balanceOf[msg.sender] -= _amount */\n      dup3\n      dup3\n      sload\n      tag_113\n      swap2\n      swap1\n      tag_97\n      jump\t// in\n    tag_113:\n      swap3\n      pop\n      pop\n      dup2\n      swap1\n      sstore\n      pop\n        /* \"52StakingRewards.sol\":3274:3281  _amount */\n      dup2\n        /* \"52StakingRewards.sol\":3259:3270  totalSupply */\n      0x08\n      0x00\n        /* \"52StakingRewards.sol\":3259:3281  totalSupply -= _amount */\n      dup3\n      dup3\n      sload\n      tag_114\n      swap2\n      swap1\n      tag_97\n      jump\t// in\n    tag_114:\n      swap3\n      pop\n      pop\n      dup2\n      swap1\n      sstore\n      pop\n        /* \"52StakingRewards.sol\":3097:3288  function withdraw(uint _amount) external updateReward(msg.sender) {... */\n      pop\n      pop\n      jump\t// out\n        /* \"52StakingRewards.sol\":1876:2710  function notifyRewardAmount(uint _amount) external onlyOwner updateReward(address(0)){... */\n    tag_48:\n        /* \"52StakingRewards.sol\":987:992  owner */\n      0x00\n      dup1\n      sload\n      swap1\n      0x0100\n      exp\n      swap1\n      div\n      0xffffffffffffffffffffffffffffffffffffffff\n      and\n        /* \"52StakingRewards.sol\":973:992  msg.sender == owner */\n      0xffffffffffffffffffffffffffffffffffffffff\n      and\n        /* \"52StakingRewards.sol\":973:983  msg.sender */\n      caller\n        /* \"52StakingRewards.sol\":973:992  msg.sender == owner */\n      0xffffffffffffffffffffffffffffffffffffffff\n      and\n      eq\n        /* \"52StakingRewards.sol\":965:993  require(msg.sender == owner) */\n      tag_116\n      jumpi\n      0x00\n      dup1\n      revert\n    tag_116:\n        /* \"52StakingRewards.sol\":1958:1959  0 */\n      0x00\n        /* \"52StakingRewards.sol\":1089:1105  rewardPerToken() */\n      tag_118\n        /* \"52StakingRewards.sol\":1089:1103  rewardPerToken */\n      tag_86\n        /* \"52StakingRewards.sol\":1089:1105  rewardPerToken() */\n      jump\t// in\n    tag_118:\n        /* \"52StakingRewards.sol\":1066:1086  rewardPerTokenStored */\n      0x05\n        /* \"52StakingRewards.sol\":1066:1105  rewardPerTokenStored = rewardPerToken() */\n      dup2\n      swap1\n      sstore\n      pop\n        /* \"52StakingRewards.sol\":1127:1153  lastTimeRewardApplicable() */\n      tag_119\n        /* \"52StakingRewards.sol\":1127:1151  lastTimeRewardApplicable */\n      tag_69\n        /* \"52StakingRewards.sol\":1127:1153  lastTimeRewardApplicable() */\n      jump\t// in\n    tag_119:\n        /* \"52StakingRewards.sol\":1115:1124  updatedAt */\n      0x03\n        /* \"52StakingRewards.sol\":1115:1153  updatedAt = lastTimeRewardApplicable() */\n      dup2\n      swap1\n      sstore\n      pop\n        /* \"52StakingRewards.sol\":1187:1188  0 */\n      0x00\n        /* \"52StakingRewards.sol\":1167:1189  _account != address(0) */\n      0xffffffffffffffffffffffffffffffffffffffff\n      and\n        /* \"52StakingRewards.sol\":1167:1175  _account */\n      dup2\n        /* \"52StakingRewards.sol\":1167:1189  _account != address(0) */\n      0xffffffffffffffffffffffffffffffffffffffff\n      and\n      eq\n        /* \"52StakingRewards.sol\":1164:1320  if(_account != address(0)){... */\n      tag_120\n      jumpi\n        /* \"52StakingRewards.sol\":1224:1240  earned(_account) */\n      tag_121\n        /* \"52StakingRewards.sol\":1231:1239  _account */\n      dup2\n        /* \"52StakingRewards.sol\":1224:1230  earned */\n      tag_29\n        /* \"52StakingRewards.sol\":1224:1240  earned(_account) */\n      jump\t// in\n    tag_121:\n        /* \"52StakingRewards.sol\":1204:1211  rewards */\n      0x07\n        /* \"52StakingRewards.sol\":1204:1221  rewards[_account] */\n      0x00\n        /* \"52StakingRewards.sol\":1212:1220  _account */\n      dup4\n        /* \"52StakingRewards.sol\":1204:1221  rewards[_account] */\n      0xffffffffffffffffffffffffffffffffffffffff\n      and\n      0xffffffffffffffffffffffffffffffffffffffff\n      and\n      dup2\n      mstore\n      0x20\n      add\n      swap1\n      dup2\n      mstore\n      0x20\n      add\n      0x00\n      keccak256\n        /* \"52StakingRewards.sol\":1204:1240  rewards[_account] = earned(_account) */\n      dup2\n      swap1\n      sstore\n      pop\n        /* \"52StakingRewards.sol\":1289:1309  rewardPerTokenStored */\n      sload(0x05)\n        /* \"52StakingRewards.sol\":1254:1276  userRewardPerTokenPaid */\n      0x06\n        /* \"52StakingRewards.sol\":1254:1286  userRewardPerTokenPaid[_account] */\n      0x00\n        /* \"52StakingRewards.sol\":1277:1285  _account */\n      dup4\n        /* \"52StakingRewards.sol\":1254:1286  userRewardPerTokenPaid[_account] */\n      0xffffffffffffffffffffffffffffffffffffffff\n      and\n      0xffffffffffffffffffffffffffffffffffffffff\n      and\n      dup2\n      mstore\n      0x20\n      add\n      swap1\n      dup2\n      mstore\n      0x20\n      add\n      0x00\n      keccak256\n        /* \"52StakingRewards.sol\":1254:1309  userRewardPerTokenPaid[_account] = rewardPerTokenStored */\n      dup2\n      swap1\n      sstore\n      pop\n        /* \"52StakingRewards.sol\":1164:1320  if(_account != address(0)){... */\n    tag_120:\n        /* \"52StakingRewards.sol\":2030:2038  finishAt */\n      sload(0x02)\n        /* \"52StakingRewards.sol\":2012:2027  block.timestamp */\n      timestamp\n        /* \"52StakingRewards.sol\":2012:2038  block.timestamp > finishAt */\n      gt\n        /* \"52StakingRewards.sol\":2009:2396  if(block.timestamp > finishAt){ ... */\n      iszero\n      tag_123\n      jumpi\n        /* \"52StakingRewards.sol\":2159:2167  duration */\n      sload(0x01)\n        /* \"52StakingRewards.sol\":2151:2158  _amount */\n      dup3\n        /* \"52StakingRewards.sol\":2151:2167  _amount/duration */\n      tag_124\n      swap2\n      swap1\n      tag_101\n      jump\t// in\n    tag_124:\n        /* \"52StakingRewards.sol\":2138:2148  rewardRate */\n      0x04\n        /* \"52StakingRewards.sol\":2138:2167  rewardRate = _amount/duration */\n      dup2\n      swap1\n      sstore\n      pop\n        /* \"52StakingRewards.sol\":2009:2396  if(block.timestamp > finishAt){ ... */\n      jump(tag_125)\n    tag_123:\n        /* \"52StakingRewards.sol\":2262:2280  uint remindRewards */\n      0x00\n        /* \"52StakingRewards.sol\":2314:2324  rewardRate */\n      sload(0x04)\n        /* \"52StakingRewards.sol\":2295:2310  block.timestamp */\n      timestamp\n        /* \"52StakingRewards.sol\":2284:2292  finishAt */\n      sload(0x02)\n        /* \"52StakingRewards.sol\":2284:2310  finishAt - block.timestamp */\n      tag_126\n      swap2\n      swap1\n      tag_97\n      jump\t// in\n    tag_126:\n        /* \"52StakingRewards.sol\":2283:2324  (finishAt - block.timestamp) * rewardRate */\n      tag_127\n      swap2\n      swap1\n      tag_99\n      jump\t// in\n    tag_127:\n        /* \"52StakingRewards.sol\":2262:2324  uint remindRewards = (finishAt - block.timestamp) * rewardRate */\n      swap1\n      pop\n        /* \"52StakingRewards.sol\":2377:2385  duration */\n      sload(0x01)\n        /* \"52StakingRewards.sol\":2368:2375  _amount */\n      dup4\n        /* \"52StakingRewards.sol\":2352:2365  remindRewards */\n      dup3\n        /* \"52StakingRewards.sol\":2352:2375  remindRewards + _amount */\n      tag_128\n      swap2\n      swap1\n      tag_103\n      jump\t// in\n    tag_128:\n        /* \"52StakingRewards.sol\":2351:2385  (remindRewards + _amount)/duration */\n      tag_129\n      swap2\n      swap1\n      tag_101\n      jump\t// in\n    tag_129:\n        /* \"52StakingRewards.sol\":2338:2348  rewardRate */\n      0x04\n        /* \"52StakingRewards.sol\":2338:2385  rewardRate = (remindRewards + _amount)/duration */\n      dup2\n      swap1\n      sstore\n      pop\n        /* \"52StakingRewards.sol\":2182:2396  {... */\n      pop\n        /* \"52StakingRewards.sol\":2009:2396  if(block.timestamp > finishAt){ ... */\n    tag_125:\n        /* \"52StakingRewards.sol\":2426:2427  0 */\n      0x00\n        /* \"52StakingRewards.sol\":2413:2423  rewardRate */\n      sload(0x04)\n        /* \"52StakingRewards.sol\":2413:2427  rewardRate > 0 */\n      gt\n        /* \"52StakingRewards.sol\":2405:2446  require(rewardRate > 0,\"rewardRate is 0\") */\n      tag_130\n      jumpi\n      mload(0x40)\n      0x08c379a000000000000000000000000000000000000000000000000000000000\n      dup2\n      mstore\n      0x04\n      add\n      tag_131\n      swap1\n      tag_132\n      jump\t// in\n    tag_131:\n      mload(0x40)\n      dup1\n      swap2\n      sub\n      swap1\n      revert\n    tag_130:\n        /* \"52StakingRewards.sol\":2489:2500  rewardToken */\n      immutable(\"0xcc193713febc75d3d9bd2f9ce113f403ff19633f15c8cdbcf79756ae23e77f9a\")\n        /* \"52StakingRewards.sol\":2489:2510  rewardToken.balanceOf */\n      0xffffffffffffffffffffffffffffffffffffffff\n      and\n      0x70a08231\n        /* \"52StakingRewards.sol\":2519:2523  this */\n      address\n        /* \"52StakingRewards.sol\":2489:2525  rewardToken.balanceOf(address(this)) */\n      mload(0x40)\n      dup3\n      0xffffffff\n      and\n      0xe0\n      shl\n      dup2\n      mstore\n      0x04\n      add\n      tag_133\n      swap2\n      swap1\n      tag_78\n      jump\t// in\n    tag_133:\n      0x20\n      mload(0x40)\n      dup1\n      dup4\n      sub\n      dup2\n      dup7\n      dup1\n      extcodesize\n      iszero\n      dup1\n      iszero\n      tag_134\n      jumpi\n      0x00\n      dup1\n      revert\n    tag_134:\n      pop\n      gas\n      staticcall\n      iszero\n      dup1\n      iszero\n      tag_136\n      jumpi\n      returndatasize\n      0x00\n      dup1\n      returndatacopy\n      revert(0x00, returndatasize)\n    tag_136:\n      pop\n      pop\n      pop\n      pop\n      mload(0x40)\n      returndatasize\n      not(0x1f)\n      0x1f\n      dup3\n      add\n      and\n      dup3\n      add\n      dup1\n      0x40\n      mstore\n      pop\n      dup2\n      add\n      swap1\n      tag_137\n      swap2\n      swap1\n      tag_138\n      jump\t// in\n    tag_137:\n        /* \"52StakingRewards.sol\":2477:2485  duration */\n      sload(0x01)\n        /* \"52StakingRewards.sol\":2464:2474  rewardRate */\n      sload(0x04)\n        /* \"52StakingRewards.sol\":2464:2485  rewardRate * duration */\n      tag_139\n      swap2\n      swap1\n      tag_99\n      jump\t// in\n    tag_139:\n        /* \"52StakingRewards.sol\":2464:2525  rewardRate * duration <= rewardToken.balanceOf(address(this)) */\n      gt\n      iszero\n        /* \"52StakingRewards.sol\":2456:2554  require(rewardRate * duration <= rewardToken.balanceOf(address(this)),\"reardAmount > rewardToken\") */\n      tag_140\n      jumpi\n      mload(0x40)\n      0x08c379a000000000000000000000000000000000000000000000000000000000\n      dup2\n      mstore\n      0x04\n      add\n      tag_141\n      swap1\n      tag_142\n      jump\t// in\n    tag_141:\n      mload(0x40)\n      dup1\n      swap2\n      sub\n      swap1\n      revert\n    tag_140:\n        /* \"52StakingRewards.sol\":2594:2602  duration */\n      sload(0x01)\n        /* \"52StakingRewards.sol\":2576:2591  block.timestamp */\n      timestamp\n        /* \"52StakingRewards.sol\":2576:2602  block.timestamp + duration */\n      tag_143\n      swap2\n      swap1\n      tag_103\n      jump\t// in\n    tag_143:\n        /* \"52StakingRewards.sol\":2565:2573  finishAt */\n      0x02\n        /* \"52StakingRewards.sol\":2565:2602  finishAt = block.timestamp + duration */\n      dup2\n      swap1\n      sstore\n      pop\n        /* \"52StakingRewards.sol\":2658:2666  duration */\n      sload(0x01)\n        /* \"52StakingRewards.sol\":2645:2655  rewardRate */\n      sload(0x04)\n        /* \"52StakingRewards.sol\":2635:2642  _amount */\n      dup4\n        /* \"52StakingRewards.sol\":2635:2655  _amount * rewardRate */\n      tag_144\n      swap2\n      swap1\n      tag_99\n      jump\t// in\n    tag_144:\n        /* \"52StakingRewards.sol\":2635:2666  _amount * rewardRate / duration */\n      tag_145\n      swap2\n      swap1\n      tag_101\n      jump\t// in\n    tag_145:\n        /* \"52StakingRewards.sol\":2612:2632  rewardPerTokenStored */\n      0x05\n        /* \"52StakingRewards.sol\":2612:2666  rewardPerTokenStored = _amount * rewardRate / duration */\n      dup2\n      swap1\n      sstore\n      pop\n        /* \"52StakingRewards.sol\":2688:2703  block.timestamp */\n      timestamp\n        /* \"52StakingRewards.sol\":2676:2685  updatedAt */\n      0x03\n        /* \"52StakingRewards.sol\":2676:2703  updatedAt = block.timestamp */\n      dup2\n      swap1\n      sstore\n      pop\n        /* \"52StakingRewards.sol\":1003:1004  _ */\n      pop\n        /* \"52StakingRewards.sol\":1876:2710  function notifyRewardAmount(uint _amount) external onlyOwner updateReward(address(0)){... */\n      pop\n      jump\t// out\n        /* \"52StakingRewards.sol\":3901:4130  function getReward() external updateReward(msg.sender){... */\n    tag_50:\n        /* \"52StakingRewards.sol\":3944:3954  msg.sender */\n      caller\n        /* \"52StakingRewards.sol\":1089:1105  rewardPerToken() */\n      tag_147\n        /* \"52StakingRewards.sol\":1089:1103  rewardPerToken */\n      tag_86\n        /* \"52StakingRewards.sol\":1089:1105  rewardPerToken() */\n      jump\t// in\n    tag_147:\n        /* \"52StakingRewards.sol\":1066:1086  rewardPerTokenStored */\n      0x05\n        /* \"52StakingRewards.sol\":1066:1105  rewardPerTokenStored = rewardPerToken() */\n      dup2\n      swap1\n      sstore\n      pop\n        /* \"52StakingRewards.sol\":1127:1153  lastTimeRewardApplicable() */\n      tag_148\n        /* \"52StakingRewards.sol\":1127:1151  lastTimeRewardApplicable */\n      tag_69\n        /* \"52StakingRewards.sol\":1127:1153  lastTimeRewardApplicable() */\n      jump\t// in\n    tag_148:\n        /* \"52StakingRewards.sol\":1115:1124  updatedAt */\n      0x03\n        /* \"52StakingRewards.sol\":1115:1153  updatedAt = lastTimeRewardApplicable() */\n      dup2\n      swap1\n      sstore\n      pop\n        /* \"52StakingRewards.sol\":1187:1188  0 */\n      0x00\n        /* \"52StakingRewards.sol\":1167:1189  _account != address(0) */\n      0xffffffffffffffffffffffffffffffffffffffff\n      and\n        /* \"52StakingRewards.sol\":1167:1175  _account */\n      dup2\n        /* \"52StakingRewards.sol\":1167:1189  _account != address(0) */\n      0xffffffffffffffffffffffffffffffffffffffff\n      and\n      eq\n        /* \"52StakingRewards.sol\":1164:1320  if(_account != address(0)){... */\n      tag_149\n      jumpi\n        /* \"52StakingRewards.sol\":1224:1240  earned(_account) */\n      tag_150\n        /* \"52StakingRewards.sol\":1231:1239  _account */\n      dup2\n        /* \"52StakingRewards.sol\":1224:1230  earned */\n      tag_29\n        /* \"52StakingRewards.sol\":1224:1240  earned(_account) */\n      jump\t// in\n    tag_150:\n        /* \"52StakingRewards.sol\":1204:1211  rewards */\n      0x07\n        /* \"52StakingRewards.sol\":1204:1221  rewards[_account] */\n      0x00\n        /* \"52StakingRewards.sol\":1212:1220  _account */\n      dup4\n        /* \"52StakingRewards.sol\":1204:1221  rewards[_account] */\n      0xffffffffffffffffffffffffffffffffffffffff\n      and\n      0xffffffffffffffffffffffffffffffffffffffff\n      and\n      dup2\n      mstore\n      0x20\n      add\n      swap1\n      dup2\n      mstore\n      0x20\n      add\n      0x00\n      keccak256\n        /* \"52StakingRewards.sol\":1204:1240  rewards[_account] = earned(_account) */\n      dup2\n      swap1\n      sstore\n      pop\n        /* \"52StakingRewards.sol\":1289:1309  rewardPerTokenStored */\n      sload(0x05)\n        /* \"52StakingRewards.sol\":1254:1276  userRewardPerTokenPaid */\n      0x06\n        /* \"52StakingRewards.sol\":1254:1286  userRewardPerTokenPaid[_account] */\n      0x00\n        /* \"52StakingRewards.sol\":1277:1285  _account */\n      dup4\n        /* \"52StakingRewards.sol\":1254:1286  userRewardPerTokenPaid[_account] */\n      0xffffffffffffffffffffffffffffffffffffffff\n      and\n      0xffffffffffffffffffffffffffffffffffffffff\n      and\n      dup2\n      mstore\n      0x20\n      add\n      swap1\n      dup2\n      mstore\n      0x20\n      add\n      0x00\n      keccak256\n        /* \"52StakingRewards.sol\":1254:1309  userRewardPerTokenPaid[_account] = rewardPerTokenStored */\n      dup2\n      swap1\n      sstore\n      pop\n        /* \"52StakingRewards.sol\":1164:1320  if(_account != address(0)){... */\n    tag_149:\n        /* \"52StakingRewards.sol\":3965:3976  uint reward */\n      0x00\n        /* \"52StakingRewards.sol\":3979:3986  rewards */\n      0x07\n        /* \"52StakingRewards.sol\":3979:3998  rewards[msg.sender] */\n      0x00\n        /* \"52StakingRewards.sol\":3987:3997  msg.sender */\n      caller\n        /* \"52StakingRewards.sol\":3979:3998  rewards[msg.sender] */\n      0xffffffffffffffffffffffffffffffffffffffff\n      and\n      0xffffffffffffffffffffffffffffffffffffffff\n      and\n      dup2\n      mstore\n      0x20\n      add\n      swap1\n      dup2\n      mstore\n      0x20\n      add\n      0x00\n      keccak256\n      sload\n        /* \"52StakingRewards.sol\":3965:3998  uint reward = rewards[msg.sender] */\n      swap1\n      pop\n        /* \"52StakingRewards.sol\":4020:4021  0 */\n      0x00\n        /* \"52StakingRewards.sol\":4011:4017  reward */\n      dup2\n        /* \"52StakingRewards.sol\":4011:4021  reward > 0 */\n      gt\n        /* \"52StakingRewards.sol\":4008:4124  if(reward > 0){... */\n      iszero\n      tag_152\n      jumpi\n        /* \"52StakingRewards.sol\":4058:4059  0 */\n      0x00\n        /* \"52StakingRewards.sol\":4036:4043  rewards */\n      0x07\n        /* \"52StakingRewards.sol\":4036:4055  rewards[msg.sender] */\n      0x00\n        /* \"52StakingRewards.sol\":4044:4054  msg.sender */\n      caller\n        /* \"52StakingRewards.sol\":4036:4055  rewards[msg.sender] */\n      0xffffffffffffffffffffffffffffffffffffffff\n      and\n      0xffffffffffffffffffffffffffffffffffffffff\n      and\n      dup2\n      mstore\n      0x20\n      add\n      swap1\n      dup2\n      mstore\n      0x20\n      add\n      0x00\n      keccak256\n        /* \"52StakingRewards.sol\":4036:4059  rewards[msg.sender] = 0 */\n      dup2\n      swap1\n      sstore\n      pop\n        /* \"52StakingRewards.sol\":4073:4084  rewardToken */\n      immutable(\"0xcc193713febc75d3d9bd2f9ce113f403ff19633f15c8cdbcf79756ae23e77f9a\")\n        /* \"52StakingRewards.sol\":4073:4093  rewardToken.transfer */\n      0xffffffffffffffffffffffffffffffffffffffff\n      and\n      0xa9059cbb\n        /* \"52StakingRewards.sol\":4094:4104  msg.sender */\n      caller\n        /* \"52StakingRewards.sol\":4106:4112  reward */\n      dup4\n        /* \"52StakingRewards.sol\":4073:4113  rewardToken.transfer(msg.sender, reward) */\n      mload(0x40)\n      dup4\n      0xffffffff\n      and\n      0xe0\n      shl\n      dup2\n      mstore\n      0x04\n      add\n      tag_153\n      swap3\n      swap2\n      swap1\n      tag_154\n      jump\t// in\n    tag_153:\n      0x20\n      mload(0x40)\n      dup1\n      dup4\n      sub\n      dup2\n      0x00\n      dup8\n      dup1\n      extcodesize\n      iszero\n      dup1\n      iszero\n      tag_155\n      jumpi\n      0x00\n      dup1\n      revert\n    tag_155:\n      pop\n      gas\n      call\n      iszero\n      dup1\n      iszero\n      tag_157\n      jumpi\n      returndatasize\n      0x00\n      dup1\n      returndatacopy\n      revert(0x00, returndatasize)\n    tag_157:\n      pop\n      pop\n      pop\n      pop\n      mload(0x40)\n      returndatasize\n      not(0x1f)\n      0x1f\n      dup3\n      add\n      and\n      dup3\n      add\n      dup1\n      0x40\n      mstore\n      pop\n      dup2\n      add\n      swap1\n      tag_158\n      swap2\n      swap1\n      tag_159\n      jump\t// in\n    tag_158:\n      pop\n        /* \"52StakingRewards.sol\":4008:4124  if(reward > 0){... */\n    tag_152:\n        /* \"52StakingRewards.sol\":3955:4130  {... */\n      pop\n        /* \"52StakingRewards.sol\":3901:4130  function getReward() external updateReward(msg.sender){... */\n      pop\n      jump\t// out\n        /* \"52StakingRewards.sol\":398:418  uint public finishAt */\n    tag_52:\n      sload(0x02)\n      dup2\n      jump\t// out\n        /* \"52StakingRewards.sol\":886:927  mapping(address => uint) public balanceOf */\n    tag_56:\n      mstore(0x20, 0x09)\n      dup1\n      0x00\n      mstore\n      keccak256(0x00, 0x40)\n      0x00\n      swap2\n      pop\n      swap1\n      pop\n      sload\n      dup2\n      jump\t// out\n        /* \"52StakingRewards.sol\":146:182  IERC20 public immutable stakingToken */\n    tag_59:\n      immutable(\"0x043ab7193d962ca510e48770a5a13714f4684febe0e5affcfd1eb73cfed1f218\")\n      dup2\n      jump\t// out\n        /* \"52StakingRewards.sol\":424:445  uint public updatedAt */\n    tag_63:\n      sload(0x03)\n      dup2\n      jump\t// out\n        /* \"52StakingRewards.sol\":451:473  uint public rewardRate */\n    tag_66:\n      sload(0x04)\n      dup2\n      jump\t// out\n        /* \"52StakingRewards.sol\":3294:3408  function lastTimeRewardApplicable() public view returns(uint){... */\n    tag_69:\n        /* \"52StakingRewards.sol\":3350:3354  uint */\n      0x00\n        /* \"52StakingRewards.sol\":3372:3401  min(block.timestamp,finishAt) */\n      tag_161\n        /* \"52StakingRewards.sol\":3376:3391  block.timestamp */\n      timestamp\n        /* \"52StakingRewards.sol\":3392:3400  finishAt */\n      sload(0x02)\n        /* \"52StakingRewards.sol\":3372:3375  min */\n      tag_162\n        /* \"52StakingRewards.sol\":3372:3401  min(block.timestamp,finishAt) */\n      jump\t// in\n    tag_161:\n        /* \"52StakingRewards.sol\":3365:3401  return min(block.timestamp,finishAt) */\n      swap1\n      pop\n        /* \"52StakingRewards.sol\":3294:3408  function lastTimeRewardApplicable() public view returns(uint){... */\n      swap1\n      jump\t// out\n        /* \"52StakingRewards.sol\":575:629  mapping(address => uint) public userRewardPerTokenPaid */\n    tag_73:\n      mstore(0x20, 0x06)\n      dup1\n      0x00\n      mstore\n      keccak256(0x00, 0x40)\n      0x00\n      swap2\n      pop\n      swap1\n      pop\n      sload\n      dup2\n      jump\t// out\n        /* \"52StakingRewards.sol\":270:290  address public owner */\n    tag_76:\n      0x00\n      dup1\n      sload\n      swap1\n      0x0100\n      exp\n      swap1\n      div\n      0xffffffffffffffffffffffffffffffffffffffff\n      and\n      dup2\n      jump\t// out\n        /* \"52StakingRewards.sol\":2740:3067  function stake(uint _amount) external updateReward(msg.sender){... */\n    tag_81:\n        /* \"52StakingRewards.sol\":2791:2801  msg.sender */\n      caller\n        /* \"52StakingRewards.sol\":1089:1105  rewardPerToken() */\n      tag_164\n        /* \"52StakingRewards.sol\":1089:1103  rewardPerToken */\n      tag_86\n        /* \"52StakingRewards.sol\":1089:1105  rewardPerToken() */\n      jump\t// in\n    tag_164:\n        /* \"52StakingRewards.sol\":1066:1086  rewardPerTokenStored */\n      0x05\n        /* \"52StakingRewards.sol\":1066:1105  rewardPerTokenStored = rewardPerToken() */\n      dup2\n      swap1\n      sstore\n      pop\n        /* \"52StakingRewards.sol\":1127:1153  lastTimeRewardApplicable() */\n      tag_165\n        /* \"52StakingRewards.sol\":1127:1151  lastTimeRewardApplicable */\n      tag_69\n        /* \"52StakingRewards.sol\":1127:1153  lastTimeRewardApplicable() */\n      jump\t// in\n    tag_165:\n        /* \"52StakingRewards.sol\":1115:1124  updatedAt */\n      0x03\n        /* \"52StakingRewards.sol\":1115:1153  updatedAt = lastTimeRewardApplicable() */\n      dup2\n      swap1\n      sstore\n      pop\n        /* \"52StakingRewards.sol\":1187:1188  0 */\n      0x00\n        /* \"52StakingRewards.sol\":1167:1189  _account != address(0) */\n      0xffffffffffffffffffffffffffffffffffffffff\n      and\n        /* \"52StakingRewards.sol\":1167:1175  _account */\n      dup2\n        /* \"52StakingRewards.sol\":1167:1189  _account != address(0) */\n      0xffffffffffffffffffffffffffffffffffffffff\n      and\n      eq\n        /* \"52StakingRewards.sol\":1164:1320  if(_account != address(0)){... */\n      tag_166\n      jumpi\n        /* \"52StakingRewards.sol\":1224:1240  earned(_account) */\n      tag_167\n        /* \"52StakingRewards.sol\":1231:1239  _account */\n      dup2\n        /* \"52StakingRewards.sol\":1224:1230  earned */\n      tag_29\n        /* \"52StakingRewards.sol\":1224:1240  earned(_account) */\n      jump\t// in\n    tag_167:\n        /* \"52StakingRewards.sol\":1204:1211  rewards */\n      0x07\n        /* \"52StakingRewards.sol\":1204:1221  rewards[_account] */\n      0x00\n        /* \"52StakingRewards.sol\":1212:1220  _account */\n      dup4\n        /* \"52StakingRewards.sol\":1204:1221  rewards[_account] */\n      0xffffffffffffffffffffffffffffffffffffffff\n      and\n      0xffffffffffffffffffffffffffffffffffffffff\n      and\n      dup2\n      mstore\n      0x20\n      add\n      swap1\n      dup2\n      mstore\n      0x20\n      add\n      0x00\n      keccak256\n        /* \"52StakingRewards.sol\":1204:1240  rewards[_account] = earned(_account) */\n      dup2\n      swap1\n      sstore\n      pop\n        /* \"52StakingRewards.sol\":1289:1309  rewardPerTokenStored */\n      sload(0x05)\n        /* \"52StakingRewards.sol\":1254:1276  userRewardPerTokenPaid */\n      0x06\n        /* \"52StakingRewards.sol\":1254:1286  userRewardPerTokenPaid[_account] */\n      0x00\n        /* \"52StakingRewards.sol\":1277:1285  _account */\n      dup4\n        /* \"52StakingRewards.sol\":1254:1286  userRewardPerTokenPaid[_account] */\n      0xffffffffffffffffffffffffffffffffffffffff\n      and\n      0xffffffffffffffffffffffffffffffffffffffff\n      and\n      dup2\n      mstore\n      0x20\n      add\n      swap1\n      dup2\n      mstore\n      0x20\n      add\n      0x00\n      keccak256\n        /* \"52StakingRewards.sol\":1254:1309  userRewardPerTokenPaid[_account] = rewardPerTokenStored */\n      dup2\n      swap1\n      sstore\n      pop\n        /* \"52StakingRewards.sol\":1164:1320  if(_account != address(0)){... */\n    tag_166:\n        /* \"52StakingRewards.sol\":2830:2831  0 */\n      0x00\n        /* \"52StakingRewards.sol\":2820:2827  _amount */\n      dup3\n        /* \"52StakingRewards.sol\":2820:2831  _amount > 0 */\n      gt\n        /* \"52StakingRewards.sol\":2812:2846  require(_amount > 0,\"_amount = 0\") */\n      tag_169\n      jumpi\n      mload(0x40)\n      0x08c379a000000000000000000000000000000000000000000000000000000000\n      dup2\n      mstore\n      0x04\n      add\n      tag_170\n      swap1\n      tag_112\n      jump\t// in\n    tag_170:\n      mload(0x40)\n      dup1\n      swap2\n      sub\n      swap1\n      revert\n    tag_169:\n        /* \"52StakingRewards.sol\":2856:2868  stakingToken */\n      immutable(\"0x043ab7193d962ca510e48770a5a13714f4684febe0e5affcfd1eb73cfed1f218\")\n        /* \"52StakingRewards.sol\":2856:2881  stakingToken.transferFrom */\n      0xffffffffffffffffffffffffffffffffffffffff\n      and\n      0x23b872dd\n        /* \"52StakingRewards.sol\":2882:2892  msg.sender */\n      caller\n        /* \"52StakingRewards.sol\":2901:2905  this */\n      address\n        /* \"52StakingRewards.sol\":2907:2914  _amount */\n      dup6\n        /* \"52StakingRewards.sol\":2856:2915  stakingToken.transferFrom(msg.sender,address(this),_amount) */\n      mload(0x40)\n      dup5\n      0xffffffff\n      and\n      0xe0\n      shl\n      dup2\n      mstore\n      0x04\n      add\n      tag_171\n      swap4\n      swap3\n      swap2\n      swap1\n      tag_172\n      jump\t// in\n    tag_171:\n      0x20\n      mload(0x40)\n      dup1\n      dup4\n      sub\n      dup2\n      0x00\n      dup8\n      dup1\n      extcodesize\n      iszero\n      dup1\n      iszero\n      tag_173\n      jumpi\n      0x00\n      dup1\n      revert\n    tag_173:\n      pop\n      gas\n      call\n      iszero\n      dup1\n      iszero\n      tag_175\n      jumpi\n      returndatasize\n      0x00\n      dup1\n      returndatacopy\n      revert(0x00, returndatasize)\n    tag_175:\n      pop\n      pop\n      pop\n      pop\n      mload(0x40)\n      returndatasize\n      not(0x1f)\n      0x1f\n      dup3\n      add\n      and\n      dup3\n      add\n      dup1\n      0x40\n      mstore\n      pop\n      dup2\n      add\n      swap1\n      tag_176\n      swap2\n      swap1\n      tag_159\n      jump\t// in\n    tag_176:\n      pop\n        /* \"52StakingRewards.sol\":2988:2995  _amount */\n      dup2\n        /* \"52StakingRewards.sol\":2963:2972  balanceOf */\n      0x09\n        /* \"52StakingRewards.sol\":2963:2984  balanceOf[msg.sender] */\n      0x00\n        /* \"52StakingRewards.sol\":2973:2983  msg.sender */\n      caller\n        /* \"52StakingRewards.sol\":2963:2984  balanceOf[msg.sender] */\n      0xffffffffffffffffffffffffffffffffffffffff\n      and\n      0xffffffffffffffffffffffffffffffffffffffff\n      and\n      dup2\n      mstore\n      0x20\n      add\n      swap1\n      dup2\n      mstore\n      0x20\n      add\n      0x00\n      keccak256\n      0x00\n        /* \"52StakingRewards.sol\":2963:2995  balanceOf[msg.sender] += _amount */\n      dup3\n      dup3\n      sload\n      tag_177\n      swap2\n      swap1\n      tag_103\n      jump\t// in\n    tag_177:\n      swap3\n      pop\n      pop\n      dup2\n      swap1\n      sstore\n      pop\n        /* \"52StakingRewards.sol\":3052:3059  _amount */\n      dup2\n        /* \"52StakingRewards.sol\":3037:3048  totalSupply */\n      0x08\n      0x00\n        /* \"52StakingRewards.sol\":3037:3059  totalSupply += _amount */\n      dup3\n      dup3\n      sload\n      tag_178\n      swap2\n      swap1\n      tag_103\n      jump\t// in\n    tag_178:\n      swap3\n      pop\n      pop\n      dup2\n      swap1\n      sstore\n      pop\n        /* \"52StakingRewards.sol\":2740:3067  function stake(uint _amount) external updateReward(msg.sender){... */\n      pop\n      pop\n      jump\t// out\n        /* \"52StakingRewards.sol\":1593:1831  function setRewardsDuration(uint _duration) external onlyOwner{... */\n    tag_84:\n        /* \"52StakingRewards.sol\":987:992  owner */\n      0x00\n      dup1\n      sload\n      swap1\n      0x0100\n      exp\n      swap1\n      div\n      0xffffffffffffffffffffffffffffffffffffffff\n      and\n        /* \"52StakingRewards.sol\":973:992  msg.sender == owner */\n      0xffffffffffffffffffffffffffffffffffffffff\n      and\n        /* \"52StakingRewards.sol\":973:983  msg.sender */\n      caller\n        /* \"52StakingRewards.sol\":973:992  msg.sender == owner */\n      0xffffffffffffffffffffffffffffffffffffffff\n      and\n      eq\n        /* \"52StakingRewards.sol\":965:993  require(msg.sender == owner) */\n      tag_180\n      jumpi\n      0x00\n      dup1\n      revert\n    tag_180:\n        /* \"52StakingRewards.sol\":1743:1758  block.timestamp */\n      timestamp\n        /* \"52StakingRewards.sol\":1732:1740  finishAt */\n      sload(0x02)\n        /* \"52StakingRewards.sol\":1732:1758  finishAt < block.timestamp */\n      lt\n        /* \"52StakingRewards.sol\":1724:1794  require(finishAt < block.timestamp,\"staking is till doing.not finish\") */\n      tag_182\n      jumpi\n      mload(0x40)\n      0x08c379a000000000000000000000000000000000000000000000000000000000\n      dup2\n      mstore\n      0x04\n      add\n      tag_183\n      swap1\n      tag_184\n      jump\t// in\n    tag_183:\n      mload(0x40)\n      dup1\n      swap2\n      sub\n      swap1\n      revert\n    tag_182:\n        /* \"52StakingRewards.sol\":1815:1824  _duration */\n      dup1\n        /* \"52StakingRewards.sol\":1804:1812  duration */\n      0x01\n        /* \"52StakingRewards.sol\":1804:1824  duration = _duration */\n      dup2\n      swap1\n      sstore\n      pop\n        /* \"52StakingRewards.sol\":1593:1831  function setRewardsDuration(uint _duration) external onlyOwner{... */\n      pop\n      jump\t// out\n        /* \"52StakingRewards.sol\":3414:3663  function rewardPerToken()public view returns(uint){... */\n    tag_86:\n        /* \"52StakingRewards.sol\":3459:3463  uint */\n      0x00\n        /* \"52StakingRewards.sol\":3490:3491  0 */\n      dup1\n        /* \"52StakingRewards.sol\":3477:3488  totalSupply */\n      sload(0x08)\n        /* \"52StakingRewards.sol\":3477:3491  totalSupply==0 */\n      eq\n        /* \"52StakingRewards.sol\":3474:3544  if(totalSupply==0){... */\n      iszero\n      tag_186\n      jumpi\n        /* \"52StakingRewards.sol\":3513:3533  rewardPerTokenStored */\n      sload(0x05)\n        /* \"52StakingRewards.sol\":3506:3533  return rewardPerTokenStored */\n      swap1\n      pop\n      jump(tag_185)\n        /* \"52StakingRewards.sol\":3474:3544  if(totalSupply==0){... */\n    tag_186:\n        /* \"52StakingRewards.sol\":3645:3656  totalSupply */\n      sload(0x08)\n        /* \"52StakingRewards.sol\":3639:3643  1e18 */\n      0x0de0b6b3a7640000\n        /* \"52StakingRewards.sol\":3626:3635  updatedAt */\n      sload(0x03)\n        /* \"52StakingRewards.sol\":3597:3623  lastTimeRewardApplicable() */\n      tag_187\n        /* \"52StakingRewards.sol\":3597:3621  lastTimeRewardApplicable */\n      tag_69\n        /* \"52StakingRewards.sol\":3597:3623  lastTimeRewardApplicable() */\n      jump\t// in\n    tag_187:\n        /* \"52StakingRewards.sol\":3597:3635  lastTimeRewardApplicable() - updatedAt */\n      tag_188\n      swap2\n      swap1\n      tag_97\n      jump\t// in\n    tag_188:\n        /* \"52StakingRewards.sol\":3583:3593  rewardRate */\n      sload(0x04)\n        /* \"52StakingRewards.sol\":3583:3636  rewardRate * (lastTimeRewardApplicable() - updatedAt) */\n      tag_189\n      swap2\n      swap1\n      tag_99\n      jump\t// in\n    tag_189:\n        /* \"52StakingRewards.sol\":3583:3643  rewardRate * (lastTimeRewardApplicable() - updatedAt) * 1e18 */\n      tag_190\n      swap2\n      swap1\n      tag_99\n      jump\t// in\n    tag_190:\n        /* \"52StakingRewards.sol\":3583:3656  rewardRate * (lastTimeRewardApplicable() - updatedAt) * 1e18 /totalSupply */\n      tag_191\n      swap2\n      swap1\n      tag_101\n      jump\t// in\n    tag_191:\n        /* \"52StakingRewards.sol\":3560:3580  rewardPerTokenStored */\n      sload(0x05)\n        /* \"52StakingRewards.sol\":3560:3656  rewardPerTokenStored + rewardRate * (lastTimeRewardApplicable() - updatedAt) * 1e18 /totalSupply */\n      tag_192\n      swap2\n      swap1\n      tag_103\n      jump\t// in\n    tag_192:\n        /* \"52StakingRewards.sol\":3553:3656  return rewardPerTokenStored + rewardRate * (lastTimeRewardApplicable() - updatedAt) * 1e18 /totalSupply */\n      swap1\n      pop\n        /* \"52StakingRewards.sol\":3414:3663  function rewardPerToken()public view returns(uint){... */\n    tag_185:\n      swap1\n      jump\t// out\n        /* \"52StakingRewards.sol\":479:511  uint public rewardPerTokenStored */\n    tag_89:\n      sload(0x05)\n      dup2\n      jump\t// out\n        /* \"52StakingRewards.sol\":229:264  IERC20 public immutable rewardToken */\n    tag_92:\n      immutable(\"0xcc193713febc75d3d9bd2f9ce113f403ff19633f15c8cdbcf79756ae23e77f9a\")\n      dup2\n      jump\t// out\n        /* \"52StakingRewards.sol\":4136:4222  function min(uint x,uint y) private pure returns(uint){... */\n    tag_162:\n        /* \"52StakingRewards.sol\":4185:4189  uint */\n      0x00\n        /* \"52StakingRewards.sol\":4210:4211  y */\n      dup2\n        /* \"52StakingRewards.sol\":4207:4208  x */\n      dup4\n        /* \"52StakingRewards.sol\":4207:4211  x<=y */\n      gt\n      iszero\n        /* \"52StakingRewards.sol\":4207:4215  x<=y?x:y */\n      tag_194\n      jumpi\n        /* \"52StakingRewards.sol\":4214:4215  y */\n      dup2\n        /* \"52StakingRewards.sol\":4207:4215  x<=y?x:y */\n      jump(tag_195)\n    tag_194:\n        /* \"52StakingRewards.sol\":4212:4213  x */\n      dup3\n        /* \"52StakingRewards.sol\":4207:4215  x<=y?x:y */\n    tag_195:\n        /* \"52StakingRewards.sol\":4200:4215  return x<=y?x:y */\n      swap1\n      pop\n        /* \"52StakingRewards.sol\":4136:4222  function min(uint x,uint y) private pure returns(uint){... */\n      swap3\n      swap2\n      pop\n      pop\n      jump\t// out\n        /* \"#utility.yul\":7:146   */\n    tag_197:\n        /* \"#utility.yul\":53:58   */\n      0x00\n        /* \"#utility.yul\":91:97   */\n      dup2\n        /* \"#utility.yul\":78:98   */\n      calldataload\n        /* \"#utility.yul\":69:98   */\n      swap1\n      pop\n        /* \"#utility.yul\":107:140   */\n      tag_199\n        /* \"#utility.yul\":134:139   */\n      dup2\n        /* \"#utility.yul\":107:140   */\n      tag_200\n      jump\t// in\n    tag_199:\n        /* \"#utility.yul\":7:146   */\n      swap3\n      swap2\n      pop\n      pop\n      jump\t// out\n        /* \"#utility.yul\":152:289   */\n    tag_201:\n        /* \"#utility.yul\":206:211   */\n      0x00\n        /* \"#utility.yul\":237:243   */\n      dup2\n        /* \"#utility.yul\":231:244   */\n      mload\n        /* \"#utility.yul\":222:244   */\n      swap1\n      pop\n        /* \"#utility.yul\":253:283   */\n      tag_203\n        /* \"#utility.yul\":277:282   */\n      dup2\n        /* \"#utility.yul\":253:283   */\n      tag_204\n      jump\t// in\n    tag_203:\n        /* \"#utility.yul\":152:289   */\n      swap3\n      swap2\n      pop\n      pop\n      jump\t// out\n        /* \"#utility.yul\":295:434   */\n    tag_205:\n        /* \"#utility.yul\":341:346   */\n      0x00\n        /* \"#utility.yul\":379:385   */\n      dup2\n        /* \"#utility.yul\":366:386   */\n      calldataload\n        /* \"#utility.yul\":357:386   */\n      swap1\n      pop\n        /* \"#utility.yul\":395:428   */\n      tag_207\n        /* \"#utility.yul\":422:427   */\n      dup2\n        /* \"#utility.yul\":395:428   */\n      tag_208\n      jump\t// in\n    tag_207:\n        /* \"#utility.yul\":295:434   */\n      swap3\n      swap2\n      pop\n      pop\n      jump\t// out\n        /* \"#utility.yul\":440:583   */\n    tag_209:\n        /* \"#utility.yul\":497:502   */\n      0x00\n        /* \"#utility.yul\":528:534   */\n      dup2\n        /* \"#utility.yul\":522:535   */\n      mload\n        /* \"#utility.yul\":513:535   */\n      swap1\n      pop\n        /* \"#utility.yul\":544:577   */\n      tag_211\n        /* \"#utility.yul\":571:576   */\n      dup2\n        /* \"#utility.yul\":544:577   */\n      tag_208\n      jump\t// in\n    tag_211:\n        /* \"#utility.yul\":440:583   */\n      swap3\n      swap2\n      pop\n      pop\n      jump\t// out\n        /* \"#utility.yul\":589:918   */\n    tag_28:\n        /* \"#utility.yul\":648:654   */\n      0x00\n        /* \"#utility.yul\":697:699   */\n      0x20\n        /* \"#utility.yul\":685:694   */\n      dup3\n        /* \"#utility.yul\":676:683   */\n      dup5\n        /* \"#utility.yul\":672:695   */\n      sub\n        /* \"#utility.yul\":668:700   */\n      slt\n        /* \"#utility.yul\":665:784   */\n      iszero\n      tag_213\n      jumpi\n        /* \"#utility.yul\":703:782   */\n      tag_214\n      tag_215\n      jump\t// in\n    tag_214:\n        /* \"#utility.yul\":665:784   */\n    tag_213:\n        /* \"#utility.yul\":823:824   */\n      0x00\n        /* \"#utility.yul\":848:901   */\n      tag_216\n        /* \"#utility.yul\":893:900   */\n      dup5\n        /* \"#utility.yul\":884:890   */\n      dup3\n        /* \"#utility.yul\":873:882   */\n      dup6\n        /* \"#utility.yul\":869:891   */\n      add\n        /* \"#utility.yul\":848:901   */\n      tag_197\n      jump\t// in\n    tag_216:\n        /* \"#utility.yul\":838:901   */\n      swap2\n      pop\n        /* \"#utility.yul\":794:911   */\n      pop\n        /* \"#utility.yul\":589:918   */\n      swap3\n      swap2\n      pop\n      pop\n      jump\t// out\n        /* \"#utility.yul\":924:1269   */\n    tag_159:\n        /* \"#utility.yul\":991:997   */\n      0x00\n        /* \"#utility.yul\":1040:1042   */\n      0x20\n        /* \"#utility.yul\":1028:1037   */\n      dup3\n        /* \"#utility.yul\":1019:1026   */\n      dup5\n        /* \"#utility.yul\":1015:1038   */\n      sub\n        /* \"#utility.yul\":1011:1043   */\n      slt\n        /* \"#utility.yul\":1008:1127   */\n      iszero\n      tag_218\n      jumpi\n        /* \"#utility.yul\":1046:1125   */\n      tag_219\n      tag_215\n      jump\t// in\n    tag_219:\n        /* \"#utility.yul\":1008:1127   */\n    tag_218:\n        /* \"#utility.yul\":1166:1167   */\n      0x00\n        /* \"#utility.yul\":1191:1252   */\n      tag_220\n        /* \"#utility.yul\":1244:1251   */\n      dup5\n        /* \"#utility.yul\":1235:1241   */\n      dup3\n        /* \"#utility.yul\":1224:1233   */\n      dup6\n        /* \"#utility.yul\":1220:1242   */\n      add\n        /* \"#utility.yul\":1191:1252   */\n      tag_201\n      jump\t// in\n    tag_220:\n        /* \"#utility.yul\":1181:1252   */\n      swap2\n      pop\n        /* \"#utility.yul\":1137:1262   */\n      pop\n        /* \"#utility.yul\":924:1269   */\n      swap3\n      swap2\n      pop\n      pop\n      jump\t// out\n        /* \"#utility.yul\":1275:1604   */\n    tag_44:\n        /* \"#utility.yul\":1334:1340   */\n      0x00\n        /* \"#utility.yul\":1383:1385   */\n      0x20\n        /* \"#utility.yul\":1371:1380   */\n      dup3\n        /* \"#utility.yul\":1362:1369   */\n      dup5\n        /* \"#utility.yul\":1358:1381   */\n      sub\n        /* \"#utility.yul\":1354:1386   */\n      slt\n        /* \"#utility.yul\":1351:1470   */\n      iszero\n      tag_222\n      jumpi\n        /* \"#utility.yul\":1389:1468   */\n      tag_223\n      tag_215\n      jump\t// in\n    tag_223:\n        /* \"#utility.yul\":1351:1470   */\n    tag_222:\n        /* \"#utility.yul\":1509:1510   */\n      0x00\n        /* \"#utility.yul\":1534:1587   */\n      tag_224\n        /* \"#utility.yul\":1579:1586   */\n      dup5\n        /* \"#utility.yul\":1570:1576   */\n      dup3\n        /* \"#utility.yul\":1559:1568   */\n      dup6\n        /* \"#utility.yul\":1555:1577   */\n      add\n        /* \"#utility.yul\":1534:1587   */\n      tag_205\n      jump\t// in\n    tag_224:\n        /* \"#utility.yul\":1524:1587   */\n      swap2\n      pop\n        /* \"#utility.yul\":1480:1597   */\n      pop\n        /* \"#utility.yul\":1275:1604   */\n      swap3\n      swap2\n      pop\n      pop\n      jump\t// out\n        /* \"#utility.yul\":1610:1961   */\n    tag_138:\n        /* \"#utility.yul\":1680:1686   */\n      0x00\n        /* \"#utility.yul\":1729:1731   */\n      0x20\n        /* \"#utility.yul\":1717:1726   */\n      dup3\n        /* \"#utility.yul\":1708:1715   */\n      dup5\n        /* \"#utility.yul\":1704:1727   */\n      sub\n        /* \"#utility.yul\":1700:1732   */\n      slt\n        /* \"#utility.yul\":1697:1816   */\n      iszero\n      tag_226\n      jumpi\n        /* \"#utility.yul\":1735:1814   */\n      tag_227\n      tag_215\n      jump\t// in\n    tag_227:\n        /* \"#utility.yul\":1697:1816   */\n    tag_226:\n        /* \"#utility.yul\":1855:1856   */\n      0x00\n        /* \"#utility.yul\":1880:1944   */\n      tag_228\n        /* \"#utility.yul\":1936:1943   */\n      dup5\n        /* \"#utility.yul\":1927:1933   */\n      dup3\n        /* \"#utility.yul\":1916:1925   */\n      dup6\n        /* \"#utility.yul\":1912:1934   */\n      add\n        /* \"#utility.yul\":1880:1944   */\n      tag_209\n      jump\t// in\n    tag_228:\n        /* \"#utility.yul\":1870:1944   */\n      swap2\n      pop\n        /* \"#utility.yul\":1826:1954   */\n      pop\n        /* \"#utility.yul\":1610:1961   */\n      swap3\n      swap2\n      pop\n      pop\n      jump\t// out\n        /* \"#utility.yul\":1967:2085   */\n    tag_229:\n        /* \"#utility.yul\":2054:2078   */\n      tag_231\n        /* \"#utility.yul\":2072:2077   */\n      dup2\n        /* \"#utility.yul\":2054:2078   */\n      tag_232\n      jump\t// in\n    tag_231:\n        /* \"#utility.yul\":2049:2052   */\n      dup3\n        /* \"#utility.yul\":2042:2079   */\n      mstore\n        /* \"#utility.yul\":1967:2085   */\n      pop\n      pop\n      jump\t// out\n        /* \"#utility.yul\":2091:2248   */\n    tag_233:\n        /* \"#utility.yul\":2191:2241   */\n      tag_235\n        /* \"#utility.yul\":2235:2240   */\n      dup2\n        /* \"#utility.yul\":2191:2241   */\n      tag_236\n      jump\t// in\n    tag_235:\n        /* \"#utility.yul\":2186:2189   */\n      dup3\n        /* \"#utility.yul\":2179:2242   */\n      mstore\n        /* \"#utility.yul\":2091:2248   */\n      pop\n      pop\n      jump\t// out\n        /* \"#utility.yul\":2254:2620   */\n    tag_237:\n        /* \"#utility.yul\":2396:2399   */\n      0x00\n        /* \"#utility.yul\":2417:2484   */\n      tag_239\n        /* \"#utility.yul\":2481:2483   */\n      0x0b\n        /* \"#utility.yul\":2476:2479   */\n      dup4\n        /* \"#utility.yul\":2417:2484   */\n      tag_240\n      jump\t// in\n    tag_239:\n        /* \"#utility.yul\":2410:2484   */\n      swap2\n      pop\n        /* \"#utility.yul\":2493:2586   */\n      tag_241\n        /* \"#utility.yul\":2582:2585   */\n      dup3\n        /* \"#utility.yul\":2493:2586   */\n      tag_242\n      jump\t// in\n    tag_241:\n        /* \"#utility.yul\":2611:2613   */\n      0x20\n        /* \"#utility.yul\":2606:2609   */\n      dup3\n        /* \"#utility.yul\":2602:2614   */\n      add\n        /* \"#utility.yul\":2595:2614   */\n      swap1\n      pop\n        /* \"#utility.yul\":2254:2620   */\n      swap2\n      swap1\n      pop\n      jump\t// out\n        /* \"#utility.yul\":2626:2992   */\n    tag_243:\n        /* \"#utility.yul\":2768:2771   */\n      0x00\n        /* \"#utility.yul\":2789:2856   */\n      tag_245\n        /* \"#utility.yul\":2853:2855   */\n      0x0f\n        /* \"#utility.yul\":2848:2851   */\n      dup4\n        /* \"#utility.yul\":2789:2856   */\n      tag_240\n      jump\t// in\n    tag_245:\n        /* \"#utility.yul\":2782:2856   */\n      swap2\n      pop\n        /* \"#utility.yul\":2865:2958   */\n      tag_246\n        /* \"#utility.yul\":2954:2957   */\n      dup3\n        /* \"#utility.yul\":2865:2958   */\n      tag_247\n      jump\t// in\n    tag_246:\n        /* \"#utility.yul\":2983:2985   */\n      0x20\n        /* \"#utility.yul\":2978:2981   */\n      dup3\n        /* \"#utility.yul\":2974:2986   */\n      add\n        /* \"#utility.yul\":2967:2986   */\n      swap1\n      pop\n        /* \"#utility.yul\":2626:2992   */\n      swap2\n      swap1\n      pop\n      jump\t// out\n        /* \"#utility.yul\":2998:3364   */\n    tag_248:\n        /* \"#utility.yul\":3140:3143   */\n      0x00\n        /* \"#utility.yul\":3161:3228   */\n      tag_250\n        /* \"#utility.yul\":3225:3227   */\n      0x19\n        /* \"#utility.yul\":3220:3223   */\n      dup4\n        /* \"#utility.yul\":3161:3228   */\n      tag_240\n      jump\t// in\n    tag_250:\n        /* \"#utility.yul\":3154:3228   */\n      swap2\n      pop\n        /* \"#utility.yul\":3237:3330   */\n      tag_251\n        /* \"#utility.yul\":3326:3329   */\n      dup3\n        /* \"#utility.yul\":3237:3330   */\n      tag_252\n      jump\t// in\n    tag_251:\n        /* \"#utility.yul\":3355:3357   */\n      0x20\n        /* \"#utility.yul\":3350:3353   */\n      dup3\n        /* \"#utility.yul\":3346:3358   */\n      add\n        /* \"#utility.yul\":3339:3358   */\n      swap1\n      pop\n        /* \"#utility.yul\":2998:3364   */\n      swap2\n      swap1\n      pop\n      jump\t// out\n        /* \"#utility.yul\":3370:3736   */\n    tag_253:\n        /* \"#utility.yul\":3512:3515   */\n      0x00\n        /* \"#utility.yul\":3533:3600   */\n      tag_255\n        /* \"#utility.yul\":3597:3599   */\n      0x20\n        /* \"#utility.yul\":3592:3595   */\n      dup4\n        /* \"#utility.yul\":3533:3600   */\n      tag_240\n      jump\t// in\n    tag_255:\n        /* \"#utility.yul\":3526:3600   */\n      swap2\n      pop\n        /* \"#utility.yul\":3609:3702   */\n      tag_256\n        /* \"#utility.yul\":3698:3701   */\n      dup3\n        /* \"#utility.yul\":3609:3702   */\n      tag_257\n      jump\t// in\n    tag_256:\n        /* \"#utility.yul\":3727:3729   */\n      0x20\n        /* \"#utility.yul\":3722:3725   */\n      dup3\n        /* \"#utility.yul\":3718:3730   */\n      add\n        /* \"#utility.yul\":3711:3730   */\n      swap1\n      pop\n        /* \"#utility.yul\":3370:3736   */\n      swap2\n      swap1\n      pop\n      jump\t// out\n        /* \"#utility.yul\":3742:3860   */\n    tag_258:\n        /* \"#utility.yul\":3829:3853   */\n      tag_260\n        /* \"#utility.yul\":3847:3852   */\n      dup2\n        /* \"#utility.yul\":3829:3853   */\n      tag_261\n      jump\t// in\n    tag_260:\n        /* \"#utility.yul\":3824:3827   */\n      dup3\n        /* \"#utility.yul\":3817:3854   */\n      mstore\n        /* \"#utility.yul\":3742:3860   */\n      pop\n      pop\n      jump\t// out\n        /* \"#utility.yul\":3866:4088   */\n    tag_78:\n        /* \"#utility.yul\":3959:3963   */\n      0x00\n        /* \"#utility.yul\":3997:3999   */\n      0x20\n        /* \"#utility.yul\":3986:3995   */\n      dup3\n        /* \"#utility.yul\":3982:4000   */\n      add\n        /* \"#utility.yul\":3974:4000   */\n      swap1\n      pop\n        /* \"#utility.yul\":4010:4081   */\n      tag_263\n        /* \"#utility.yul\":4078:4079   */\n      0x00\n        /* \"#utility.yul\":4067:4076   */\n      dup4\n        /* \"#utility.yul\":4063:4080   */\n      add\n        /* \"#utility.yul\":4054:4060   */\n      dup5\n        /* \"#utility.yul\":4010:4081   */\n      tag_229\n      jump\t// in\n    tag_263:\n        /* \"#utility.yul\":3866:4088   */\n      swap3\n      swap2\n      pop\n      pop\n      jump\t// out\n        /* \"#utility.yul\":4094:4536   */\n    tag_172:\n        /* \"#utility.yul\":4243:4247   */\n      0x00\n        /* \"#utility.yul\":4281:4283   */\n      0x60\n        /* \"#utility.yul\":4270:4279   */\n      dup3\n        /* \"#utility.yul\":4266:4284   */\n      add\n        /* \"#utility.yul\":4258:4284   */\n      swap1\n      pop\n        /* \"#utility.yul\":4294:4365   */\n      tag_265\n        /* \"#utility.yul\":4362:4363   */\n      0x00\n        /* \"#utility.yul\":4351:4360   */\n      dup4\n        /* \"#utility.yul\":4347:4364   */\n      add\n        /* \"#utility.yul\":4338:4344   */\n      dup7\n        /* \"#utility.yul\":4294:4365   */\n      tag_229\n      jump\t// in\n    tag_265:\n        /* \"#utility.yul\":4375:4447   */\n      tag_266\n        /* \"#utility.yul\":4443:4445   */\n      0x20\n        /* \"#utility.yul\":4432:4441   */\n      dup4\n        /* \"#utility.yul\":4428:4446   */\n      add\n        /* \"#utility.yul\":4419:4425   */\n      dup6\n        /* \"#utility.yul\":4375:4447   */\n      tag_229\n      jump\t// in\n    tag_266:\n        /* \"#utility.yul\":4457:4529   */\n      tag_267\n        /* \"#utility.yul\":4525:4527   */\n      0x40\n        /* \"#utility.yul\":4514:4523   */\n      dup4\n        /* \"#utility.yul\":4510:4528   */\n      add\n        /* \"#utility.yul\":4501:4507   */\n      dup5\n        /* \"#utility.yul\":4457:4529   */\n      tag_258\n      jump\t// in\n    tag_267:\n        /* \"#utility.yul\":4094:4536   */\n      swap5\n      swap4\n      pop\n      pop\n      pop\n      pop\n      jump\t// out\n        /* \"#utility.yul\":4542:4874   */\n    tag_154:\n        /* \"#utility.yul\":4663:4667   */\n      0x00\n        /* \"#utility.yul\":4701:4703   */\n      0x40\n        /* \"#utility.yul\":4690:4699   */\n      dup3\n        /* \"#utility.yul\":4686:4704   */\n      add\n        /* \"#utility.yul\":4678:4704   */\n      swap1\n      pop\n        /* \"#utility.yul\":4714:4785   */\n      tag_269\n        /* \"#utility.yul\":4782:4783   */\n      0x00\n        /* \"#utility.yul\":4771:4780   */\n      dup4\n        /* \"#utility.yul\":4767:4784   */\n      add\n        /* \"#utility.yul\":4758:4764   */\n      dup6\n        /* \"#utility.yul\":4714:4785   */\n      tag_229\n      jump\t// in\n    tag_269:\n        /* \"#utility.yul\":4795:4867   */\n      tag_270\n        /* \"#utility.yul\":4863:4865   */\n      0x20\n        /* \"#utility.yul\":4852:4861   */\n      dup4\n        /* \"#utility.yul\":4848:4866   */\n      add\n        /* \"#utility.yul\":4839:4845   */\n      dup5\n        /* \"#utility.yul\":4795:4867   */\n      tag_258\n      jump\t// in\n    tag_270:\n        /* \"#utility.yul\":4542:4874   */\n      swap4\n      swap3\n      pop\n      pop\n      pop\n      jump\t// out\n        /* \"#utility.yul\":4880:5128   */\n    tag_61:\n        /* \"#utility.yul\":4986:4990   */\n      0x00\n        /* \"#utility.yul\":5024:5026   */\n      0x20\n        /* \"#utility.yul\":5013:5022   */\n      dup3\n        /* \"#utility.yul\":5009:5027   */\n      add\n        /* \"#utility.yul\":5001:5027   */\n      swap1\n      pop\n        /* \"#utility.yul\":5037:5121   */\n      tag_272\n        /* \"#utility.yul\":5118:5119   */\n      0x00\n        /* \"#utility.yul\":5107:5116   */\n      dup4\n        /* \"#utility.yul\":5103:5120   */\n      add\n        /* \"#utility.yul\":5094:5100   */\n      dup5\n        /* \"#utility.yul\":5037:5121   */\n      tag_233\n      jump\t// in\n    tag_272:\n        /* \"#utility.yul\":4880:5128   */\n      swap3\n      swap2\n      pop\n      pop\n      jump\t// out\n        /* \"#utility.yul\":5134:5553   */\n    tag_112:\n        /* \"#utility.yul\":5300:5304   */\n      0x00\n        /* \"#utility.yul\":5338:5340   */\n      0x20\n        /* \"#utility.yul\":5327:5336   */\n      dup3\n        /* \"#utility.yul\":5323:5341   */\n      add\n        /* \"#utility.yul\":5315:5341   */\n      swap1\n      pop\n        /* \"#utility.yul\":5387:5396   */\n      dup2\n        /* \"#utility.yul\":5381:5385   */\n      dup2\n        /* \"#utility.yul\":5377:5397   */\n      sub\n        /* \"#utility.yul\":5373:5374   */\n      0x00\n        /* \"#utility.yul\":5362:5371   */\n      dup4\n        /* \"#utility.yul\":5358:5375   */\n      add\n        /* \"#utility.yul\":5351:5398   */\n      mstore\n        /* \"#utility.yul\":5415:5546   */\n      tag_274\n        /* \"#utility.yul\":5541:5545   */\n      dup2\n        /* \"#utility.yul\":5415:5546   */\n      tag_237\n      jump\t// in\n    tag_274:\n        /* \"#utility.yul\":5407:5546   */\n      swap1\n      pop\n        /* \"#utility.yul\":5134:5553   */\n      swap2\n      swap1\n      pop\n      jump\t// out\n        /* \"#utility.yul\":5559:5978   */\n    tag_132:\n        /* \"#utility.yul\":5725:5729   */\n      0x00\n        /* \"#utility.yul\":5763:5765   */\n      0x20\n        /* \"#utility.yul\":5752:5761   */\n      dup3\n        /* \"#utility.yul\":5748:5766   */\n      add\n        /* \"#utility.yul\":5740:5766   */\n      swap1\n      pop\n        /* \"#utility.yul\":5812:5821   */\n      dup2\n        /* \"#utility.yul\":5806:5810   */\n      dup2\n        /* \"#utility.yul\":5802:5822   */\n      sub\n        /* \"#utility.yul\":5798:5799   */\n      0x00\n        /* \"#utility.yul\":5787:5796   */\n      dup4\n        /* \"#utility.yul\":5783:5800   */\n      add\n        /* \"#utility.yul\":5776:5823   */\n      mstore\n        /* \"#utility.yul\":5840:5971   */\n      tag_276\n        /* \"#utility.yul\":5966:5970   */\n      dup2\n        /* \"#utility.yul\":5840:5971   */\n      tag_243\n      jump\t// in\n    tag_276:\n        /* \"#utility.yul\":5832:5971   */\n      swap1\n      pop\n        /* \"#utility.yul\":5559:5978   */\n      swap2\n      swap1\n      pop\n      jump\t// out\n        /* \"#utility.yul\":5984:6403   */\n    tag_142:\n        /* \"#utility.yul\":6150:6154   */\n      0x00\n        /* \"#utility.yul\":6188:6190   */\n      0x20\n        /* \"#utility.yul\":6177:6186   */\n      dup3\n        /* \"#utility.yul\":6173:6191   */\n      add\n        /* \"#utility.yul\":6165:6191   */\n      swap1\n      pop\n        /* \"#utility.yul\":6237:6246   */\n      dup2\n        /* \"#utility.yul\":6231:6235   */\n      dup2\n        /* \"#utility.yul\":6227:6247   */\n      sub\n        /* \"#utility.yul\":6223:6224   */\n      0x00\n        /* \"#utility.yul\":6212:6221   */\n      dup4\n        /* \"#utility.yul\":6208:6225   */\n      add\n        /* \"#utility.yul\":6201:6248   */\n      mstore\n        /* \"#utility.yul\":6265:6396   */\n      tag_278\n        /* \"#utility.yul\":6391:6395   */\n      dup2\n        /* \"#utility.yul\":6265:6396   */\n      tag_248\n      jump\t// in\n    tag_278:\n        /* \"#utility.yul\":6257:6396   */\n      swap1\n      pop\n        /* \"#utility.yul\":5984:6403   */\n      swap2\n      swap1\n      pop\n      jump\t// out\n        /* \"#utility.yul\":6409:6828   */\n    tag_184:\n        /* \"#utility.yul\":6575:6579   */\n      0x00\n        /* \"#utility.yul\":6613:6615   */\n      0x20\n        /* \"#utility.yul\":6602:6611   */\n      dup3\n        /* \"#utility.yul\":6598:6616   */\n      add\n        /* \"#utility.yul\":6590:6616   */\n      swap1\n      pop\n        /* \"#utility.yul\":6662:6671   */\n      dup2\n        /* \"#utility.yul\":6656:6660   */\n      dup2\n        /* \"#utility.yul\":6652:6672   */\n      sub\n        /* \"#utility.yul\":6648:6649   */\n      0x00\n        /* \"#utility.yul\":6637:6646   */\n      dup4\n        /* \"#utility.yul\":6633:6650   */\n      add\n        /* \"#utility.yul\":6626:6673   */\n      mstore\n        /* \"#utility.yul\":6690:6821   */\n      tag_280\n        /* \"#utility.yul\":6816:6820   */\n      dup2\n        /* \"#utility.yul\":6690:6821   */\n      tag_253\n      jump\t// in\n    tag_280:\n        /* \"#utility.yul\":6682:6821   */\n      swap1\n      pop\n        /* \"#utility.yul\":6409:6828   */\n      swap2\n      swap1\n      pop\n      jump\t// out\n        /* \"#utility.yul\":6834:7056   */\n    tag_31:\n        /* \"#utility.yul\":6927:6931   */\n      0x00\n        /* \"#utility.yul\":6965:6967   */\n      0x20\n        /* \"#utility.yul\":6954:6963   */\n      dup3\n        /* \"#utility.yul\":6950:6968   */\n      add\n        /* \"#utility.yul\":6942:6968   */\n      swap1\n      pop\n        /* \"#utility.yul\":6978:7049   */\n      tag_282\n        /* \"#utility.yul\":7046:7047   */\n      0x00\n        /* \"#utility.yul\":7035:7044   */\n      dup4\n        /* \"#utility.yul\":7031:7048   */\n      add\n        /* \"#utility.yul\":7022:7028   */\n      dup5\n        /* \"#utility.yul\":6978:7049   */\n      tag_258\n      jump\t// in\n    tag_282:\n        /* \"#utility.yul\":6834:7056   */\n      swap3\n      swap2\n      pop\n      pop\n      jump\t// out\n        /* \"#utility.yul\":7143:7312   */\n    tag_240:\n        /* \"#utility.yul\":7227:7238   */\n      0x00\n        /* \"#utility.yul\":7261:7267   */\n      dup3\n        /* \"#utility.yul\":7256:7259   */\n      dup3\n        /* \"#utility.yul\":7249:7268   */\n      mstore\n        /* \"#utility.yul\":7301:7305   */\n      0x20\n        /* \"#utility.yul\":7296:7299   */\n      dup3\n        /* \"#utility.yul\":7292:7306   */\n      add\n        /* \"#utility.yul\":7277:7306   */\n      swap1\n      pop\n        /* \"#utility.yul\":7143:7312   */\n      swap3\n      swap2\n      pop\n      pop\n      jump\t// out\n        /* \"#utility.yul\":7318:7623   */\n    tag_103:\n        /* \"#utility.yul\":7358:7361   */\n      0x00\n        /* \"#utility.yul\":7377:7397   */\n      tag_287\n        /* \"#utility.yul\":7395:7396   */\n      dup3\n        /* \"#utility.yul\":7377:7397   */\n      tag_261\n      jump\t// in\n    tag_287:\n        /* \"#utility.yul\":7372:7397   */\n      swap2\n      pop\n        /* \"#utility.yul\":7411:7431   */\n      tag_288\n        /* \"#utility.yul\":7429:7430   */\n      dup4\n        /* \"#utility.yul\":7411:7431   */\n      tag_261\n      jump\t// in\n    tag_288:\n        /* \"#utility.yul\":7406:7431   */\n      swap3\n      pop\n        /* \"#utility.yul\":7565:7566   */\n      dup3\n        /* \"#utility.yul\":7497:7563   */\n      0xffffffffffffffffffffffffffffffffffffffffffffffffffffffffffffffff\n        /* \"#utility.yul\":7493:7567   */\n      sub\n        /* \"#utility.yul\":7490:7491   */\n      dup3\n        /* \"#utility.yul\":7487:7568   */\n      gt\n        /* \"#utility.yul\":7484:7591   */\n      iszero\n      tag_289\n      jumpi\n        /* \"#utility.yul\":7571:7589   */\n      tag_290\n      tag_291\n      jump\t// in\n    tag_290:\n        /* \"#utility.yul\":7484:7591   */\n    tag_289:\n        /* \"#utility.yul\":7615:7616   */\n      dup3\n        /* \"#utility.yul\":7612:7613   */\n      dup3\n        /* \"#utility.yul\":7608:7617   */\n      add\n        /* \"#utility.yul\":7601:7617   */\n      swap1\n      pop\n        /* \"#utility.yul\":7318:7623   */\n      swap3\n      swap2\n      pop\n      pop\n      jump\t// out\n        /* \"#utility.yul\":7629:7814   */\n    tag_101:\n        /* \"#utility.yul\":7669:7670   */\n      0x00\n        /* \"#utility.yul\":7686:7706   */\n      tag_293\n        /* \"#utility.yul\":7704:7705   */\n      dup3\n        /* \"#utility.yul\":7686:7706   */\n      tag_261\n      jump\t// in\n    tag_293:\n        /* \"#utility.yul\":7681:7706   */\n      swap2\n      pop\n        /* \"#utility.yul\":7720:7740   */\n      tag_294\n        /* \"#utility.yul\":7738:7739   */\n      dup4\n        /* \"#utility.yul\":7720:7740   */\n      tag_261\n      jump\t// in\n    tag_294:\n        /* \"#utility.yul\":7715:7740   */\n      swap3\n      pop\n        /* \"#utility.yul\":7759:7760   */\n      dup3\n        /* \"#utility.yul\":7749:7784   */\n      tag_295\n      jumpi\n        /* \"#utility.yul\":7764:7782   */\n      tag_296\n      tag_297\n      jump\t// in\n    tag_296:\n        /* \"#utility.yul\":7749:7784   */\n    tag_295:\n        /* \"#utility.yul\":7806:7807   */\n      dup3\n        /* \"#utility.yul\":7803:7804   */\n      dup3\n        /* \"#utility.yul\":7799:7808   */\n      div\n        /* \"#utility.yul\":7794:7808   */\n      swap1\n      pop\n        /* \"#utility.yul\":7629:7814   */\n      swap3\n      swap2\n      pop\n      pop\n      jump\t// out\n        /* \"#utility.yul\":7820:8168   */\n    tag_99:\n        /* \"#utility.yul\":7860:7867   */\n      0x00\n        /* \"#utility.yul\":7883:7903   */\n      tag_299\n        /* \"#utility.yul\":7901:7902   */\n      dup3\n        /* \"#utility.yul\":7883:7903   */\n      tag_261\n      jump\t// in\n    tag_299:\n        /* \"#utility.yul\":7878:7903   */\n      swap2\n      pop\n        /* \"#utility.yul\":7917:7937   */\n      tag_300\n        /* \"#utility.yul\":7935:7936   */\n      dup4\n        /* \"#utility.yul\":7917:7937   */\n      tag_261\n      jump\t// in\n    tag_300:\n        /* \"#utility.yul\":7912:7937   */\n      swap3\n      pop\n        /* \"#utility.yul\":8105:8106   */\n      dup2\n        /* \"#utility.yul\":8037:8103   */\n      0xffffffffffffffffffffffffffffffffffffffffffffffffffffffffffffffff\n        /* \"#utility.yul\":8033:8107   */\n      div\n        /* \"#utility.yul\":8030:8031   */\n      dup4\n        /* \"#utility.yul\":8027:8108   */\n      gt\n        /* \"#utility.yul\":8022:8023   */\n      dup3\n        /* \"#utility.yul\":8015:8024   */\n      iszero\n        /* \"#utility.yul\":8008:8025   */\n      iszero\n        /* \"#utility.yul\":8004:8109   */\n      and\n        /* \"#utility.yul\":8001:8132   */\n      iszero\n      tag_301\n      jumpi\n        /* \"#utility.yul\":8112:8130   */\n      tag_302\n      tag_291\n      jump\t// in\n    tag_302:\n        /* \"#utility.yul\":8001:8132   */\n    tag_301:\n        /* \"#utility.yul\":8160:8161   */\n      dup3\n        /* \"#utility.yul\":8157:8158   */\n      dup3\n        /* \"#utility.yul\":8153:8162   */\n      mul\n        /* \"#utility.yul\":8142:8162   */\n      swap1\n      pop\n        /* \"#utility.yul\":7820:8168   */\n      swap3\n      swap2\n      pop\n      pop\n      jump\t// out\n        /* \"#utility.yul\":8174:8365   */\n    tag_97:\n        /* \"#utility.yul\":8214:8218   */\n      0x00\n        /* \"#utility.yul\":8234:8254   */\n      tag_304\n        /* \"#utility.yul\":8252:8253   */\n      dup3\n        /* \"#utility.yul\":8234:8254   */\n      tag_261\n      jump\t// in\n    tag_304:\n        /* \"#utility.yul\":8229:8254   */\n      swap2\n      pop\n        /* \"#utility.yul\":8268:8288   */\n      tag_305\n        /* \"#utility.yul\":8286:8287   */\n      dup4\n        /* \"#utility.yul\":8268:8288   */\n      tag_261\n      jump\t// in\n    tag_305:\n        /* \"#utility.yul\":8263:8288   */\n      swap3\n      pop\n        /* \"#utility.yul\":8307:8308   */\n      dup3\n        /* \"#utility.yul\":8304:8305   */\n      dup3\n        /* \"#utility.yul\":8301:8309   */\n      lt\n        /* \"#utility.yul\":8298:8332   */\n      iszero\n      tag_306\n      jumpi\n        /* \"#utility.yul\":8312:8330   */\n      tag_307\n      tag_291\n      jump\t// in\n    tag_307:\n        /* \"#utility.yul\":8298:8332   */\n    tag_306:\n        /* \"#utility.yul\":8357:8358   */\n      dup3\n        /* \"#utility.yul\":8354:8355   */\n      dup3\n        /* \"#utility.yul\":8350:8359   */\n      sub\n        /* \"#utility.yul\":8342:8359   */\n      swap1\n      pop\n        /* \"#utility.yul\":8174:8365   */\n      swap3\n      swap2\n      pop\n      pop\n      jump\t// out\n        /* \"#utility.yul\":8371:8467   */\n    tag_232:\n        /* \"#utility.yul\":8408:8415   */\n      0x00\n        /* \"#utility.yul\":8437:8461   */\n      tag_309\n        /* \"#utility.yul\":8455:8460   */\n      dup3\n        /* \"#utility.yul\":8437:8461   */\n      tag_310\n      jump\t// in\n    tag_309:\n        /* \"#utility.yul\":8426:8461   */\n      swap1\n      pop\n        /* \"#utility.yul\":8371:8467   */\n      swap2\n      swap1\n      pop\n      jump\t// out\n        /* \"#utility.yul\":8473:8563   */\n    tag_311:\n        /* \"#utility.yul\":8507:8514   */\n      0x00\n        /* \"#utility.yul\":8550:8555   */\n      dup2\n        /* \"#utility.yul\":8543:8556   */\n      iszero\n        /* \"#utility.yul\":8536:8557   */\n      iszero\n        /* \"#utility.yul\":8525:8557   */\n      swap1\n      pop\n        /* \"#utility.yul\":8473:8563   */\n      swap2\n      swap1\n      pop\n      jump\t// out\n        /* \"#utility.yul\":8569:8695   */\n    tag_310:\n        /* \"#utility.yul\":8606:8613   */\n      0x00\n        /* \"#utility.yul\":8646:8688   */\n      0xffffffffffffffffffffffffffffffffffffffff\n        /* \"#utility.yul\":8639:8644   */\n      dup3\n        /* \"#utility.yul\":8635:8689   */\n      and\n        /* \"#utility.yul\":8624:8689   */\n      swap1\n      pop\n        /* \"#utility.yul\":8569:8695   */\n      swap2\n      swap1\n      pop\n      jump\t// out\n        /* \"#utility.yul\":8701:8778   */\n    tag_261:\n        /* \"#utility.yul\":8738:8745   */\n      0x00\n        /* \"#utility.yul\":8767:8772   */\n      dup2\n        /* \"#utility.yul\":8756:8772   */\n      swap1\n      pop\n        /* \"#utility.yul\":8701:8778   */\n      swap2\n      swap1\n      pop\n      jump\t// out\n        /* \"#utility.yul\":8784:8923   */\n    tag_236:\n        /* \"#utility.yul\":8847:8856   */\n      0x00\n        /* \"#utility.yul\":8880:8917   */\n      tag_316\n        /* \"#utility.yul\":8911:8916   */\n      dup3\n        /* \"#utility.yul\":8880:8917   */\n      tag_317\n      jump\t// in\n    tag_316:\n        /* \"#utility.yul\":8867:8917   */\n      swap1\n      pop\n        /* \"#utility.yul\":8784:8923   */\n      swap2\n      swap1\n      pop\n      jump\t// out\n        /* \"#utility.yul\":8929:9055   */\n    tag_317:\n        /* \"#utility.yul\":8979:8988   */\n      0x00\n        /* \"#utility.yul\":9012:9049   */\n      tag_319\n        /* \"#utility.yul\":9043:9048   */\n      dup3\n        /* \"#utility.yul\":9012:9049   */\n      tag_320\n      jump\t// in\n    tag_319:\n        /* \"#utility.yul\":8999:9049   */\n      swap1\n      pop\n        /* \"#utility.yul\":8929:9055   */\n      swap2\n      swap1\n      pop\n      jump\t// out\n        /* \"#utility.yul\":9061:9174   */\n    tag_320:\n        /* \"#utility.yul\":9111:9120   */\n      0x00\n        /* \"#utility.yul\":9144:9168   */\n      tag_322\n        /* \"#utility.yul\":9162:9167   */\n      dup3\n        /* \"#utility.yul\":9144:9168   */\n      tag_310\n      jump\t// in\n    tag_322:\n        /* \"#utility.yul\":9131:9168   */\n      swap1\n      pop\n        /* \"#utility.yul\":9061:9174   */\n      swap2\n      swap1\n      pop\n      jump\t// out\n        /* \"#utility.yul\":9180:9360   */\n    tag_291:\n        /* \"#utility.yul\":9228:9305   */\n      0x4e487b7100000000000000000000000000000000000000000000000000000000\n        /* \"#utility.yul\":9225:9226   */\n      0x00\n        /* \"#utility.yul\":9218:9306   */\n      mstore\n        /* \"#utility.yul\":9325:9329   */\n      0x11\n        /* \"#utility.yul\":9322:9323   */\n      0x04\n        /* \"#utility.yul\":9315:9330   */\n      mstore\n        /* \"#utility.yul\":9349:9353   */\n      0x24\n        /* \"#utility.yul\":9346:9347   */\n      0x00\n        /* \"#utility.yul\":9339:9354   */\n      revert\n        /* \"#utility.yul\":9366:9546   */\n    tag_297:\n        /* \"#utility.yul\":9414:9491   */\n      0x4e487b7100000000000000000000000000000000000000000000000000000000\n        /* \"#utility.yul\":9411:9412   */\n      0x00\n        /* \"#utility.yul\":9404:9492   */\n      mstore\n        /* \"#utility.yul\":9511:9515   */\n      0x12\n        /* \"#utility.yul\":9508:9509   */\n      0x04\n        /* \"#utility.yul\":9501:9516   */\n      mstore\n        /* \"#utility.yul\":9535:9539   */\n      0x24\n        /* \"#utility.yul\":9532:9533   */\n      0x00\n        /* \"#utility.yul\":9525:9540   */\n      revert\n        /* \"#utility.yul\":9675:9792   */\n    tag_215:\n        /* \"#utility.yul\":9784:9785   */\n      0x00\n        /* \"#utility.yul\":9781:9782   */\n      dup1\n        /* \"#utility.yul\":9774:9786   */\n      revert\n        /* \"#utility.yul\":9798:9959   */\n    tag_242:\n        /* \"#utility.yul\":9938:9951   */\n      0x5f616d6f756e74203d2030000000000000000000000000000000000000000000\n        /* \"#utility.yul\":9934:9935   */\n      0x00\n        /* \"#utility.yul\":9926:9932   */\n      dup3\n        /* \"#utility.yul\":9922:9936   */\n      add\n        /* \"#utility.yul\":9915:9952   */\n      mstore\n        /* \"#utility.yul\":9798:9959   */\n      pop\n      jump\t// out\n        /* \"#utility.yul\":9965:10130   */\n    tag_247:\n        /* \"#utility.yul\":10105:10122   */\n      0x7265776172645261746520697320300000000000000000000000000000000000\n        /* \"#utility.yul\":10101:10102   */\n      0x00\n        /* \"#utility.yul\":10093:10099   */\n      dup3\n        /* \"#utility.yul\":10089:10103   */\n      add\n        /* \"#utility.yul\":10082:10123   */\n      mstore\n        /* \"#utility.yul\":9965:10130   */\n      pop\n      jump\t// out\n        /* \"#utility.yul\":10136:10311   */\n    tag_252:\n        /* \"#utility.yul\":10276:10303   */\n      0x7265617264416d6f756e74203e20726577617264546f6b656e00000000000000\n        /* \"#utility.yul\":10272:10273   */\n      0x00\n        /* \"#utility.yul\":10264:10270   */\n      dup3\n        /* \"#utility.yul\":10260:10274   */\n      add\n        /* \"#utility.yul\":10253:10304   */\n      mstore\n        /* \"#utility.yul\":10136:10311   */\n      pop\n      jump\t// out\n        /* \"#utility.yul\":10317:10499   */\n    tag_257:\n        /* \"#utility.yul\":10457:10491   */\n      0x7374616b696e672069732074696c6c20646f696e672e6e6f742066696e697368\n        /* \"#utility.yul\":10453:10454   */\n      0x00\n        /* \"#utility.yul\":10445:10451   */\n      dup3\n        /* \"#utility.yul\":10441:10455   */\n      add\n        /* \"#utility.yul\":10434:10492   */\n      mstore\n        /* \"#utility.yul\":10317:10499   */\n      pop\n      jump\t// out\n        /* \"#utility.yul\":10505:10627   */\n    tag_200:\n        /* \"#utility.yul\":10578:10602   */\n      tag_333\n        /* \"#utility.yul\":10596:10601   */\n      dup2\n        /* \"#utility.yul\":10578:10602   */\n      tag_232\n      jump\t// in\n    tag_333:\n        /* \"#utility.yul\":10571:10576   */\n      dup2\n        /* \"#utility.yul\":10568:10603   */\n      eq\n        /* \"#utility.yul\":10558:10621   */\n      tag_334\n      jumpi\n        /* \"#utility.yul\":10617:10618   */\n      0x00\n        /* \"#utility.yul\":10614:10615   */\n      dup1\n        /* \"#utility.yul\":10607:10619   */\n      revert\n        /* \"#utility.yul\":10558:10621   */\n    tag_334:\n        /* \"#utility.yul\":10505:10627   */\n      pop\n      jump\t// out\n        /* \"#utility.yul\":10633:10749   */\n    tag_204:\n        /* \"#utility.yul\":10703:10724   */\n      tag_336\n        /* \"#utility.yul\":10718:10723   */\n      dup2\n        /* \"#utility.yul\":10703:10724   */\n      tag_311\n      jump\t// in\n    tag_336:\n        /* \"#utility.yul\":10696:10701   */\n      dup2\n        /* \"#utility.yul\":10693:10725   */\n      eq\n        /* \"#utility.yul\":10683:10743   */\n      tag_337\n      jumpi\n        /* \"#utility.yul\":10739:10740   */\n      0x00\n        /* \"#utility.yul\":10736:10737   */\n      dup1\n        /* \"#utility.yul\":10729:10741   */\n      revert\n        /* \"#utility.yul\":10683:10743   */\n    tag_337:\n        /* \"#utility.yul\":10633:10749   */\n      pop\n      jump\t// out\n        /* \"#utility.yul\":10755:10877   */\n    tag_208:\n        /* \"#utility.yul\":10828:10852   */\n      tag_339\n        /* \"#utility.yul\":10846:10851   */\n      dup2\n        /* \"#utility.yul\":10828:10852   */\n      tag_261\n      jump\t// in\n    tag_339:\n        /* \"#utility.yul\":10821:10826   */\n      dup2\n        /* \"#utility.yul\":10818:10853   */\n      eq\n        /* \"#utility.yul\":10808:10871   */\n      tag_340\n      jumpi\n        /* \"#utility.yul\":10867:10868   */\n      0x00\n        /* \"#utility.yul\":10864:10865   */\n      dup1\n        /* \"#utility.yul\":10857:10869   */\n      revert\n        /* \"#utility.yul\":10808:10871   */\n    tag_340:\n        /* \"#utility.yul\":10755:10877   */\n      pop\n      jump\t// out\n\n    auxdata: 0xa2646970667358221220c09338e7ed88dd7261bd44147bcbba94552c03d4573b139c35a4dd6ddeebf86964736f6c63430008070033\n}\n",
				"bytecode": {
					"linkReferences": {},
					"object": "60c06040523480156200001157600080fd5b50604051620017ef380380620017ef833981810160405281019062000037919062000104565b336000806101000a81548173ffffffffffffffffffffffffffffffffffffffff021916908373ffffffffffffffffffffffffffffffffffffffff1602179055508173ffffffffffffffffffffffffffffffffffffffff1660808173ffffffffffffffffffffffffffffffffffffffff1660601b815250508073ffffffffffffffffffffffffffffffffffffffff1660a08173ffffffffffffffffffffffffffffffffffffffff1660601b8152505050506200019e565b600081519050620000fe8162000184565b92915050565b600080604083850312156200011e576200011d6200017f565b5b60006200012e85828601620000ed565b92505060206200014185828601620000ed565b9150509250929050565b600062000158826200015f565b9050919050565b600073ffffffffffffffffffffffffffffffffffffffff82169050919050565b600080fd5b6200018f816200014b565b81146200019b57600080fd5b50565b60805160601c60a05160601c611610620001df6000396000818161085b01528181610b0b0152610fbc015260008181610bdc0152610d8201526116106000f3fe608060405234801561001057600080fd5b506004361061012b5760003560e01c80637519ab50116100ad578063a694fc3a11610071578063a694fc3a14610322578063cc1a378f1461033e578063cd3daf9d1461035a578063df136d6514610378578063f7c618c1146103965761012b565b80637519ab501461027a5780637b0a47ee1461029857806380faa57d146102b65780638b876347146102d45780638da5cb5b146103045761012b565b80633c6b16ab116100f45780633c6b16ab146101e85780633d18b9121461020457806367d3b4881461020e57806370a082311461022c57806372f702f31461025c5761012b565b80628cc262146101305780630700037d146101605780630fb5a6b41461019057806318160ddd146101ae5780632e1a7d4d146101cc575b600080fd5b61014a6004803603810190610145919061104c565b6103b4565b60405161015791906112cf565b60405180910390f35b61017a6004803603810190610175919061104c565b6104b6565b60405161018791906112cf565b60405180910390f35b6101986104ce565b6040516101a591906112cf565b60405180910390f35b6101b66104d4565b6040516101c391906112cf565b60405180910390f35b6101e660048036038101906101e191906110a6565b6104da565b005b61020260048036038101906101fd91906110a6565b610674565b005b61020c610993565b005b610216610bbc565b60405161022391906112cf565b60405180910390f35b6102466004803603810190610241919061104c565b610bc2565b60405161025391906112cf565b60405180910390f35b610264610bda565b6040516102719190611234565b60405180910390f35b610282610bfe565b60405161028f91906112cf565b60405180910390f35b6102a0610c04565b6040516102ad91906112cf565b60405180910390f35b6102be610c0a565b6040516102cb91906112cf565b60405180910390f35b6102ee60048036038101906102e9919061104c565b610c1d565b6040516102fb91906112cf565b60405180910390f35b61030c610c35565b60405161031991906111b9565b60405180910390f35b61033c600480360381019061033791906110a6565b610c59565b005b610358600480360381019061035391906110a6565b610ea3565b005b610362610f49565b60405161036f91906112cf565b60405180910390f35b610380610fb4565b60405161038d91906112cf565b60405180910390f35b61039e610fba565b6040516103ab9190611234565b60405180910390f35b6000600760008373ffffffffffffffffffffffffffffffffffffffff1673ffffffffffffffffffffffffffffffffffffffff16815260200190815260200160002054670de0b6b3a7640000600660008573ffffffffffffffffffffffffffffffffffffffff1673ffffffffffffffffffffffffffffffffffffffff16815260200190815260200160002054610447610f49565b61045191906113dc565b600960008673ffffffffffffffffffffffffffffffffffffffff1673ffffffffffffffffffffffffffffffffffffffff1681526020019081526020016000205461049b9190611382565b6104a59190611351565b6104af91906112fb565b9050919050565b60076020528060005260406000206000915090505481565b60015481565b60085481565b336104e3610f49565b6005819055506104f1610c0a565b600381905550600073ffffffffffffffffffffffffffffffffffffffff168173ffffffffffffffffffffffffffffffffffffffff16146105be57610534816103b4565b600760008373ffffffffffffffffffffffffffffffffffffffff1673ffffffffffffffffffffffffffffffffffffffff16815260200190815260200160002081905550600554600660008373ffffffffffffffffffffffffffffffffffffffff1673ffffffffffffffffffffffffffffffffffffffff168152602001908152602001600020819055505b60008211610601576040517f08c379a00000000000000000000000000000000000000000000000000000000081526004016105f89061124f565b60405180910390fd5b81600960003373ffffffffffffffffffffffffffffffffffffffff1673ffffffffffffffffffffffffffffffffffffffff168152602001908152602001600020600082825461065091906113dc565b92505081905550816008600082825461066991906113dc565b925050819055505050565b60008054906101000a900473ffffffffffffffffffffffffffffffffffffffff1673ffffffffffffffffffffffffffffffffffffffff163373ffffffffffffffffffffffffffffffffffffffff16146106cc57600080fd5b60006106d6610f49565b6005819055506106e4610c0a565b600381905550600073ffffffffffffffffffffffffffffffffffffffff168173ffffffffffffffffffffffffffffffffffffffff16146107b157610727816103b4565b600760008373ffffffffffffffffffffffffffffffffffffffff1673ffffffffffffffffffffffffffffffffffffffff16815260200190815260200160002081905550600554600660008373ffffffffffffffffffffffffffffffffffffffff1673ffffffffffffffffffffffffffffffffffffffff168152602001908152602001600020819055505b6002544211156107d457600154826107c99190611351565b600481905550610814565b6000600454426002546107e791906113dc565b6107f19190611382565b9050600154838261080291906112fb565b61080c9190611351565b600481905550505b600060045411610859576040517f08c379a00000000000000000000000000000000000000000000000000000000081526004016108509061126f565b60405180910390fd5b7f000000000000000000000000000000000000000000000000000000000000000073ffffffffffffffffffffffffffffffffffffffff166370a08231306040518263ffffffff1660e01b81526004016108b291906111b9565b60206040518083038186803b1580156108ca57600080fd5b505afa1580156108de573d6000803e3d6000fd5b505050506040513d601f19601f8201168201806040525081019061090291906110d3565b6001546004546109129190611382565b1115610953576040517f08c379a000000000000000000000000000000000000000000000000000000000815260040161094a9061128f565b60405180910390fd5b6001544261096191906112fb565b600281905550600154600454836109789190611382565b6109829190611351565b600581905550426003819055505050565b3361099c610f49565b6005819055506109aa610c0a565b600381905550600073ffffffffffffffffffffffffffffffffffffffff168173ffffffffffffffffffffffffffffffffffffffff1614610a77576109ed816103b4565b600760008373ffffffffffffffffffffffffffffffffffffffff1673ffffffffffffffffffffffffffffffffffffffff16815260200190815260200160002081905550600554600660008373ffffffffffffffffffffffffffffffffffffffff1673ffffffffffffffffffffffffffffffffffffffff168152602001908152602001600020819055505b6000600760003373ffffffffffffffffffffffffffffffffffffffff1673ffffffffffffffffffffffffffffffffffffffff1681526020019081526020016000205490506000811115610bb8576000600760003373ffffffffffffffffffffffffffffffffffffffff1673ffffffffffffffffffffffffffffffffffffffff168152602001908152602001600020819055507f000000000000000000000000000000000000000000000000000000000000000073ffffffffffffffffffffffffffffffffffffffff1663a9059cbb33836040518363ffffffff1660e01b8152600401610b6492919061120b565b602060405180830381600087803b158015610b7e57600080fd5b505af1158015610b92573d6000803e3d6000fd5b505050506040513d601f19601f82011682018060405250810190610bb69190611079565b505b5050565b60025481565b60096020528060005260406000206000915090505481565b7f000000000000000000000000000000000000000000000000000000000000000081565b60035481565b60045481565b6000610c1842600254610fde565b905090565b60066020528060005260406000206000915090505481565b60008054906101000a900473ffffffffffffffffffffffffffffffffffffffff1681565b33610c62610f49565b600581905550610c70610c0a565b600381905550600073ffffffffffffffffffffffffffffffffffffffff168173ffffffffffffffffffffffffffffffffffffffff1614610d3d57610cb3816103b4565b600760008373ffffffffffffffffffffffffffffffffffffffff1673ffffffffffffffffffffffffffffffffffffffff16815260200190815260200160002081905550600554600660008373ffffffffffffffffffffffffffffffffffffffff1673ffffffffffffffffffffffffffffffffffffffff168152602001908152602001600020819055505b60008211610d80576040517f08c379a0000000000000000000000000000000000000000000000000000000008152600401610d779061124f565b60405180910390fd5b7f000000000000000000000000000000000000000000000000000000000000000073ffffffffffffffffffffffffffffffffffffffff166323b872dd3330856040518463ffffffff1660e01b8152600401610ddd939291906111d4565b602060405180830381600087803b158015610df757600080fd5b505af1158015610e0b573d6000803e3d6000fd5b505050506040513d601f19601f82011682018060405250810190610e2f9190611079565b5081600960003373ffffffffffffffffffffffffffffffffffffffff1673ffffffffffffffffffffffffffffffffffffffff1681526020019081526020016000206000828254610e7f91906112fb565b925050819055508160086000828254610e9891906112fb565b925050819055505050565b60008054906101000a900473ffffffffffffffffffffffffffffffffffffffff1673ffffffffffffffffffffffffffffffffffffffff163373ffffffffffffffffffffffffffffffffffffffff1614610efb57600080fd5b4260025410610f3f576040517f08c379a0000000000000000000000000000000000000000000000000000000008152600401610f36906112af565b60405180910390fd5b8060018190555050565b6000806008541415610f5f576005549050610fb1565b600854670de0b6b3a7640000600354610f76610c0a565b610f8091906113dc565b600454610f8d9190611382565b610f979190611382565b610fa19190611351565b600554610fae91906112fb565b90505b90565b60055481565b7f000000000000000000000000000000000000000000000000000000000000000081565b600081831115610fee5781610ff0565b825b905092915050565b60008135905061100781611595565b92915050565b60008151905061101c816115ac565b92915050565b600081359050611031816115c3565b92915050565b600081519050611046816115c3565b92915050565b600060208284031215611062576110616114ec565b5b600061107084828501610ff8565b91505092915050565b60006020828403121561108f5761108e6114ec565b5b600061109d8482850161100d565b91505092915050565b6000602082840312156110bc576110bb6114ec565b5b60006110ca84828501611022565b91505092915050565b6000602082840312156110e9576110e86114ec565b5b60006110f784828501611037565b91505092915050565b61110981611410565b82525050565b61111881611458565b82525050565b600061112b600b836112ea565b9150611136826114f1565b602082019050919050565b600061114e600f836112ea565b91506111598261151a565b602082019050919050565b60006111716019836112ea565b915061117c82611543565b602082019050919050565b60006111946020836112ea565b915061119f8261156c565b602082019050919050565b6111b38161144e565b82525050565b60006020820190506111ce6000830184611100565b92915050565b60006060820190506111e96000830186611100565b6111f66020830185611100565b61120360408301846111aa565b949350505050565b60006040820190506112206000830185611100565b61122d60208301846111aa565b9392505050565b6000602082019050611249600083018461110f565b92915050565b600060208201905081810360008301526112688161111e565b9050919050565b6000602082019050818103600083015261128881611141565b9050919050565b600060208201905081810360008301526112a881611164565b9050919050565b600060208201905081810360008301526112c881611187565b9050919050565b60006020820190506112e460008301846111aa565b92915050565b600082825260208201905092915050565b60006113068261144e565b91506113118361144e565b9250827fffffffffffffffffffffffffffffffffffffffffffffffffffffffffffffffff038211156113465761134561148e565b5b828201905092915050565b600061135c8261144e565b91506113678361144e565b925082611377576113766114bd565b5b828204905092915050565b600061138d8261144e565b91506113988361144e565b9250817fffffffffffffffffffffffffffffffffffffffffffffffffffffffffffffffff04831182151516156113d1576113d061148e565b5b828202905092915050565b60006113e78261144e565b91506113f28361144e565b9250828210156114055761140461148e565b5b828203905092915050565b600061141b8261142e565b9050919050565b60008115159050919050565b600073ffffffffffffffffffffffffffffffffffffffff82169050919050565b6000819050919050565b60006114638261146a565b9050919050565b60006114758261147c565b9050919050565b60006114878261142e565b9050919050565b7f4e487b7100000000000000000000000000000000000000000000000000000000600052601160045260246000fd5b7f4e487b7100000000000000000000000000000000000000000000000000000000600052601260045260246000fd5b600080fd5b7f5f616d6f756e74203d2030000000000000000000000000000000000000000000600082015250565b7f7265776172645261746520697320300000000000000000000000000000000000600082015250565b7f7265617264416d6f756e74203e20726577617264546f6b656e00000000000000600082015250565b7f7374616b696e672069732074696c6c20646f696e672e6e6f742066696e697368600082015250565b61159e81611410565b81146115a957600080fd5b50565b6115b581611422565b81146115c057600080fd5b50565b6115cc8161144e565b81146115d757600080fd5b5056fea2646970667358221220c09338e7ed88dd7261bd44147bcbba94552c03d4573b139c35a4dd6ddeebf86964736f6c63430008070033",
					"opcodes": "PUSH1 0xC0 PUSH1 0x40 MSTORE CALLVALUE DUP1 ISZERO PUSH3 0x11 JUMPI PUSH1 0x0 DUP1 REVERT JUMPDEST POP PUSH1 0x40 MLOAD PUSH3 0x17EF CODESIZE SUB DUP1 PUSH3 0x17EF DUP4 CODECOPY DUP2 DUP2 ADD PUSH1 0x40 MSTORE DUP2 ADD SWAP1 PUSH3 0x37 SWAP2 SWAP1 PUSH3 0x104 JUMP JUMPDEST CALLER PUSH1 0x0 DUP1 PUSH2 0x100 EXP DUP2 SLOAD DUP2 PUSH20 0xFFFFFFFFFFFFFFFFFFFFFFFFFFFFFFFFFFFFFFFF MUL NOT AND SWAP1 DUP4 PUSH20 0xFFFFFFFFFFFFFFFFFFFFFFFFFFFFFFFFFFFFFFFF AND MUL OR SWAP1 SSTORE POP DUP2 PUSH20 0xFFFFFFFFFFFFFFFFFFFFFFFFFFFFFFFFFFFFFFFF AND PUSH1 0x80 DUP2 PUSH20 0xFFFFFFFFFFFFFFFFFFFFFFFFFFFFFFFFFFFFFFFF AND PUSH1 0x60 SHL DUP2 MSTORE POP POP DUP1 PUSH20 0xFFFFFFFFFFFFFFFFFFFFFFFFFFFFFFFFFFFFFFFF AND PUSH1 0xA0 DUP2 PUSH20 0xFFFFFFFFFFFFFFFFFFFFFFFFFFFFFFFFFFFFFFFF AND PUSH1 0x60 SHL DUP2 MSTORE POP POP POP POP PUSH3 0x19E JUMP JUMPDEST PUSH1 0x0 DUP2 MLOAD SWAP1 POP PUSH3 0xFE DUP2 PUSH3 0x184 JUMP JUMPDEST SWAP3 SWAP2 POP POP JUMP JUMPDEST PUSH1 0x0 DUP1 PUSH1 0x40 DUP4 DUP6 SUB SLT ISZERO PUSH3 0x11E JUMPI PUSH3 0x11D PUSH3 0x17F JUMP JUMPDEST JUMPDEST PUSH1 0x0 PUSH3 0x12E DUP6 DUP3 DUP7 ADD PUSH3 0xED JUMP JUMPDEST SWAP3 POP POP PUSH1 0x20 PUSH3 0x141 DUP6 DUP3 DUP7 ADD PUSH3 0xED JUMP JUMPDEST SWAP2 POP POP SWAP3 POP SWAP3 SWAP1 POP JUMP JUMPDEST PUSH1 0x0 PUSH3 0x158 DUP3 PUSH3 0x15F JUMP JUMPDEST SWAP1 POP SWAP2 SWAP1 POP JUMP JUMPDEST PUSH1 0x0 PUSH20 0xFFFFFFFFFFFFFFFFFFFFFFFFFFFFFFFFFFFFFFFF DUP3 AND SWAP1 POP SWAP2 SWAP1 POP JUMP JUMPDEST PUSH1 0x0 DUP1 REVERT JUMPDEST PUSH3 0x18F DUP2 PUSH3 0x14B JUMP JUMPDEST DUP2 EQ PUSH3 0x19B JUMPI PUSH1 0x0 DUP1 REVERT JUMPDEST POP JUMP JUMPDEST PUSH1 0x80 MLOAD PUSH1 0x60 SHR PUSH1 0xA0 MLOAD PUSH1 0x60 SHR PUSH2 0x1610 PUSH3 0x1DF PUSH1 0x0 CODECOPY PUSH1 0x0 DUP2 DUP2 PUSH2 0x85B ADD MSTORE DUP2 DUP2 PUSH2 0xB0B ADD MSTORE PUSH2 0xFBC ADD MSTORE PUSH1 0x0 DUP2 DUP2 PUSH2 0xBDC ADD MSTORE PUSH2 0xD82 ADD MSTORE PUSH2 0x1610 PUSH1 0x0 RETURN INVALID PUSH1 0x80 PUSH1 0x40 MSTORE CALLVALUE DUP1 ISZERO PUSH2 0x10 JUMPI PUSH1 0x0 DUP1 REVERT JUMPDEST POP PUSH1 0x4 CALLDATASIZE LT PUSH2 0x12B JUMPI PUSH1 0x0 CALLDATALOAD PUSH1 0xE0 SHR DUP1 PUSH4 0x7519AB50 GT PUSH2 0xAD JUMPI DUP1 PUSH4 0xA694FC3A GT PUSH2 0x71 JUMPI DUP1 PUSH4 0xA694FC3A EQ PUSH2 0x322 JUMPI DUP1 PUSH4 0xCC1A378F EQ PUSH2 0x33E JUMPI DUP1 PUSH4 0xCD3DAF9D EQ PUSH2 0x35A JUMPI DUP1 PUSH4 0xDF136D65 EQ PUSH2 0x378 JUMPI DUP1 PUSH4 0xF7C618C1 EQ PUSH2 0x396 JUMPI PUSH2 0x12B JUMP JUMPDEST DUP1 PUSH4 0x7519AB50 EQ PUSH2 0x27A JUMPI DUP1 PUSH4 0x7B0A47EE EQ PUSH2 0x298 JUMPI DUP1 PUSH4 0x80FAA57D EQ PUSH2 0x2B6 JUMPI DUP1 PUSH4 0x8B876347 EQ PUSH2 0x2D4 JUMPI DUP1 PUSH4 0x8DA5CB5B EQ PUSH2 0x304 JUMPI PUSH2 0x12B JUMP JUMPDEST DUP1 PUSH4 0x3C6B16AB GT PUSH2 0xF4 JUMPI DUP1 PUSH4 0x3C6B16AB EQ PUSH2 0x1E8 JUMPI DUP1 PUSH4 0x3D18B912 EQ PUSH2 0x204 JUMPI DUP1 PUSH4 0x67D3B488 EQ PUSH2 0x20E JUMPI DUP1 PUSH4 0x70A08231 EQ PUSH2 0x22C JUMPI DUP1 PUSH4 0x72F702F3 EQ PUSH2 0x25C JUMPI PUSH2 0x12B JUMP JUMPDEST DUP1 PUSH3 0x8CC262 EQ PUSH2 0x130 JUMPI DUP1 PUSH4 0x700037D EQ PUSH2 0x160 JUMPI DUP1 PUSH4 0xFB5A6B4 EQ PUSH2 0x190 JUMPI DUP1 PUSH4 0x18160DDD EQ PUSH2 0x1AE JUMPI DUP1 PUSH4 0x2E1A7D4D EQ PUSH2 0x1CC JUMPI JUMPDEST PUSH1 0x0 DUP1 REVERT JUMPDEST PUSH2 0x14A PUSH1 0x4 DUP1 CALLDATASIZE SUB DUP2 ADD SWAP1 PUSH2 0x145 SWAP2 SWAP1 PUSH2 0x104C JUMP JUMPDEST PUSH2 0x3B4 JUMP JUMPDEST PUSH1 0x40 MLOAD PUSH2 0x157 SWAP2 SWAP1 PUSH2 0x12CF JUMP JUMPDEST PUSH1 0x40 MLOAD DUP1 SWAP2 SUB SWAP1 RETURN JUMPDEST PUSH2 0x17A PUSH1 0x4 DUP1 CALLDATASIZE SUB DUP2 ADD SWAP1 PUSH2 0x175 SWAP2 SWAP1 PUSH2 0x104C JUMP JUMPDEST PUSH2 0x4B6 JUMP JUMPDEST PUSH1 0x40 MLOAD PUSH2 0x187 SWAP2 SWAP1 PUSH2 0x12CF JUMP JUMPDEST PUSH1 0x40 MLOAD DUP1 SWAP2 SUB SWAP1 RETURN JUMPDEST PUSH2 0x198 PUSH2 0x4CE JUMP JUMPDEST PUSH1 0x40 MLOAD PUSH2 0x1A5 SWAP2 SWAP1 PUSH2 0x12CF JUMP JUMPDEST PUSH1 0x40 MLOAD DUP1 SWAP2 SUB SWAP1 RETURN JUMPDEST PUSH2 0x1B6 PUSH2 0x4D4 JUMP JUMPDEST PUSH1 0x40 MLOAD PUSH2 0x1C3 SWAP2 SWAP1 PUSH2 0x12CF JUMP JUMPDEST PUSH1 0x40 MLOAD DUP1 SWAP2 SUB SWAP1 RETURN JUMPDEST PUSH2 0x1E6 PUSH1 0x4 DUP1 CALLDATASIZE SUB DUP2 ADD SWAP1 PUSH2 0x1E1 SWAP2 SWAP1 PUSH2 0x10A6 JUMP JUMPDEST PUSH2 0x4DA JUMP JUMPDEST STOP JUMPDEST PUSH2 0x202 PUSH1 0x4 DUP1 CALLDATASIZE SUB DUP2 ADD SWAP1 PUSH2 0x1FD SWAP2 SWAP1 PUSH2 0x10A6 JUMP JUMPDEST PUSH2 0x674 JUMP JUMPDEST STOP JUMPDEST PUSH2 0x20C PUSH2 0x993 JUMP JUMPDEST STOP JUMPDEST PUSH2 0x216 PUSH2 0xBBC JUMP JUMPDEST PUSH1 0x40 MLOAD PUSH2 0x223 SWAP2 SWAP1 PUSH2 0x12CF JUMP JUMPDEST PUSH1 0x40 MLOAD DUP1 SWAP2 SUB SWAP1 RETURN JUMPDEST PUSH2 0x246 PUSH1 0x4 DUP1 CALLDATASIZE SUB DUP2 ADD SWAP1 PUSH2 0x241 SWAP2 SWAP1 PUSH2 0x104C JUMP JUMPDEST PUSH2 0xBC2 JUMP JUMPDEST PUSH1 0x40 MLOAD PUSH2 0x253 SWAP2 SWAP1 PUSH2 0x12CF JUMP JUMPDEST PUSH1 0x40 MLOAD DUP1 SWAP2 SUB SWAP1 RETURN JUMPDEST PUSH2 0x264 PUSH2 0xBDA JUMP JUMPDEST PUSH1 0x40 MLOAD PUSH2 0x271 SWAP2 SWAP1 PUSH2 0x1234 JUMP JUMPDEST PUSH1 0x40 MLOAD DUP1 SWAP2 SUB SWAP1 RETURN JUMPDEST PUSH2 0x282 PUSH2 0xBFE JUMP JUMPDEST PUSH1 0x40 MLOAD PUSH2 0x28F SWAP2 SWAP1 PUSH2 0x12CF JUMP JUMPDEST PUSH1 0x40 MLOAD DUP1 SWAP2 SUB SWAP1 RETURN JUMPDEST PUSH2 0x2A0 PUSH2 0xC04 JUMP JUMPDEST PUSH1 0x40 MLOAD PUSH2 0x2AD SWAP2 SWAP1 PUSH2 0x12CF JUMP JUMPDEST PUSH1 0x40 MLOAD DUP1 SWAP2 SUB SWAP1 RETURN JUMPDEST PUSH2 0x2BE PUSH2 0xC0A JUMP JUMPDEST PUSH1 0x40 MLOAD PUSH2 0x2CB SWAP2 SWAP1 PUSH2 0x12CF JUMP JUMPDEST PUSH1 0x40 MLOAD DUP1 SWAP2 SUB SWAP1 RETURN JUMPDEST PUSH2 0x2EE PUSH1 0x4 DUP1 CALLDATASIZE SUB DUP2 ADD SWAP1 PUSH2 0x2E9 SWAP2 SWAP1 PUSH2 0x104C JUMP JUMPDEST PUSH2 0xC1D JUMP JUMPDEST PUSH1 0x40 MLOAD PUSH2 0x2FB SWAP2 SWAP1 PUSH2 0x12CF JUMP JUMPDEST PUSH1 0x40 MLOAD DUP1 SWAP2 SUB SWAP1 RETURN JUMPDEST PUSH2 0x30C PUSH2 0xC35 JUMP JUMPDEST PUSH1 0x40 MLOAD PUSH2 0x319 SWAP2 SWAP1 PUSH2 0x11B9 JUMP JUMPDEST PUSH1 0x40 MLOAD DUP1 SWAP2 SUB SWAP1 RETURN JUMPDEST PUSH2 0x33C PUSH1 0x4 DUP1 CALLDATASIZE SUB DUP2 ADD SWAP1 PUSH2 0x337 SWAP2 SWAP1 PUSH2 0x10A6 JUMP JUMPDEST PUSH2 0xC59 JUMP JUMPDEST STOP JUMPDEST PUSH2 0x358 PUSH1 0x4 DUP1 CALLDATASIZE SUB DUP2 ADD SWAP1 PUSH2 0x353 SWAP2 SWAP1 PUSH2 0x10A6 JUMP JUMPDEST PUSH2 0xEA3 JUMP JUMPDEST STOP JUMPDEST PUSH2 0x362 PUSH2 0xF49 JUMP JUMPDEST PUSH1 0x40 MLOAD PUSH2 0x36F SWAP2 SWAP1 PUSH2 0x12CF JUMP JUMPDEST PUSH1 0x40 MLOAD DUP1 SWAP2 SUB SWAP1 RETURN JUMPDEST PUSH2 0x380 PUSH2 0xFB4 JUMP JUMPDEST PUSH1 0x40 MLOAD PUSH2 0x38D SWAP2 SWAP1 PUSH2 0x12CF JUMP JUMPDEST PUSH1 0x40 MLOAD DUP1 SWAP2 SUB SWAP1 RETURN JUMPDEST PUSH2 0x39E PUSH2 0xFBA JUMP JUMPDEST PUSH1 0x40 MLOAD PUSH2 0x3AB SWAP2 SWAP1 PUSH2 0x1234 JUMP JUMPDEST PUSH1 0x40 MLOAD DUP1 SWAP2 SUB SWAP1 RETURN JUMPDEST PUSH1 0x0 PUSH1 0x7 PUSH1 0x0 DUP4 PUSH20 0xFFFFFFFFFFFFFFFFFFFFFFFFFFFFFFFFFFFFFFFF AND PUSH20 0xFFFFFFFFFFFFFFFFFFFFFFFFFFFFFFFFFFFFFFFF AND DUP2 MSTORE PUSH1 0x20 ADD SWAP1 DUP2 MSTORE PUSH1 0x20 ADD PUSH1 0x0 KECCAK256 SLOAD PUSH8 0xDE0B6B3A7640000 PUSH1 0x6 PUSH1 0x0 DUP6 PUSH20 0xFFFFFFFFFFFFFFFFFFFFFFFFFFFFFFFFFFFFFFFF AND PUSH20 0xFFFFFFFFFFFFFFFFFFFFFFFFFFFFFFFFFFFFFFFF AND DUP2 MSTORE PUSH1 0x20 ADD SWAP1 DUP2 MSTORE PUSH1 0x20 ADD PUSH1 0x0 KECCAK256 SLOAD PUSH2 0x447 PUSH2 0xF49 JUMP JUMPDEST PUSH2 0x451 SWAP2 SWAP1 PUSH2 0x13DC JUMP JUMPDEST PUSH1 0x9 PUSH1 0x0 DUP7 PUSH20 0xFFFFFFFFFFFFFFFFFFFFFFFFFFFFFFFFFFFFFFFF AND PUSH20 0xFFFFFFFFFFFFFFFFFFFFFFFFFFFFFFFFFFFFFFFF AND DUP2 MSTORE PUSH1 0x20 ADD SWAP1 DUP2 MSTORE PUSH1 0x20 ADD PUSH1 0x0 KECCAK256 SLOAD PUSH2 0x49B SWAP2 SWAP1 PUSH2 0x1382 JUMP JUMPDEST PUSH2 0x4A5 SWAP2 SWAP1 PUSH2 0x1351 JUMP JUMPDEST PUSH2 0x4AF SWAP2 SWAP1 PUSH2 0x12FB JUMP JUMPDEST SWAP1 POP SWAP2 SWAP1 POP JUMP JUMPDEST PUSH1 0x7 PUSH1 0x20 MSTORE DUP1 PUSH1 0x0 MSTORE PUSH1 0x40 PUSH1 0x0 KECCAK256 PUSH1 0x0 SWAP2 POP SWAP1 POP SLOAD DUP2 JUMP JUMPDEST PUSH1 0x1 SLOAD DUP2 JUMP JUMPDEST PUSH1 0x8 SLOAD DUP2 JUMP JUMPDEST CALLER PUSH2 0x4E3 PUSH2 0xF49 JUMP JUMPDEST PUSH1 0x5 DUP2 SWAP1 SSTORE POP PUSH2 0x4F1 PUSH2 0xC0A JUMP JUMPDEST PUSH1 0x3 DUP2 SWAP1 SSTORE POP PUSH1 0x0 PUSH20 0xFFFFFFFFFFFFFFFFFFFFFFFFFFFFFFFFFFFFFFFF AND DUP2 PUSH20 0xFFFFFFFFFFFFFFFFFFFFFFFFFFFFFFFFFFFFFFFF AND EQ PUSH2 0x5BE JUMPI PUSH2 0x534 DUP2 PUSH2 0x3B4 JUMP JUMPDEST PUSH1 0x7 PUSH1 0x0 DUP4 PUSH20 0xFFFFFFFFFFFFFFFFFFFFFFFFFFFFFFFFFFFFFFFF AND PUSH20 0xFFFFFFFFFFFFFFFFFFFFFFFFFFFFFFFFFFFFFFFF AND DUP2 MSTORE PUSH1 0x20 ADD SWAP1 DUP2 MSTORE PUSH1 0x20 ADD PUSH1 0x0 KECCAK256 DUP2 SWAP1 SSTORE POP PUSH1 0x5 SLOAD PUSH1 0x6 PUSH1 0x0 DUP4 PUSH20 0xFFFFFFFFFFFFFFFFFFFFFFFFFFFFFFFFFFFFFFFF AND PUSH20 0xFFFFFFFFFFFFFFFFFFFFFFFFFFFFFFFFFFFFFFFF AND DUP2 MSTORE PUSH1 0x20 ADD SWAP1 DUP2 MSTORE PUSH1 0x20 ADD PUSH1 0x0 KECCAK256 DUP2 SWAP1 SSTORE POP JUMPDEST PUSH1 0x0 DUP3 GT PUSH2 0x601 JUMPI PUSH1 0x40 MLOAD PUSH32 0x8C379A000000000000000000000000000000000000000000000000000000000 DUP2 MSTORE PUSH1 0x4 ADD PUSH2 0x5F8 SWAP1 PUSH2 0x124F JUMP JUMPDEST PUSH1 0x40 MLOAD DUP1 SWAP2 SUB SWAP1 REVERT JUMPDEST DUP2 PUSH1 0x9 PUSH1 0x0 CALLER PUSH20 0xFFFFFFFFFFFFFFFFFFFFFFFFFFFFFFFFFFFFFFFF AND PUSH20 0xFFFFFFFFFFFFFFFFFFFFFFFFFFFFFFFFFFFFFFFF AND DUP2 MSTORE PUSH1 0x20 ADD SWAP1 DUP2 MSTORE PUSH1 0x20 ADD PUSH1 0x0 KECCAK256 PUSH1 0x0 DUP3 DUP3 SLOAD PUSH2 0x650 SWAP2 SWAP1 PUSH2 0x13DC JUMP JUMPDEST SWAP3 POP POP DUP2 SWAP1 SSTORE POP DUP2 PUSH1 0x8 PUSH1 0x0 DUP3 DUP3 SLOAD PUSH2 0x669 SWAP2 SWAP1 PUSH2 0x13DC JUMP JUMPDEST SWAP3 POP POP DUP2 SWAP1 SSTORE POP POP POP JUMP JUMPDEST PUSH1 0x0 DUP1 SLOAD SWAP1 PUSH2 0x100 EXP SWAP1 DIV PUSH20 0xFFFFFFFFFFFFFFFFFFFFFFFFFFFFFFFFFFFFFFFF AND PUSH20 0xFFFFFFFFFFFFFFFFFFFFFFFFFFFFFFFFFFFFFFFF AND CALLER PUSH20 0xFFFFFFFFFFFFFFFFFFFFFFFFFFFFFFFFFFFFFFFF AND EQ PUSH2 0x6CC JUMPI PUSH1 0x0 DUP1 REVERT JUMPDEST PUSH1 0x0 PUSH2 0x6D6 PUSH2 0xF49 JUMP JUMPDEST PUSH1 0x5 DUP2 SWAP1 SSTORE POP PUSH2 0x6E4 PUSH2 0xC0A JUMP JUMPDEST PUSH1 0x3 DUP2 SWAP1 SSTORE POP PUSH1 0x0 PUSH20 0xFFFFFFFFFFFFFFFFFFFFFFFFFFFFFFFFFFFFFFFF AND DUP2 PUSH20 0xFFFFFFFFFFFFFFFFFFFFFFFFFFFFFFFFFFFFFFFF AND EQ PUSH2 0x7B1 JUMPI PUSH2 0x727 DUP2 PUSH2 0x3B4 JUMP JUMPDEST PUSH1 0x7 PUSH1 0x0 DUP4 PUSH20 0xFFFFFFFFFFFFFFFFFFFFFFFFFFFFFFFFFFFFFFFF AND PUSH20 0xFFFFFFFFFFFFFFFFFFFFFFFFFFFFFFFFFFFFFFFF AND DUP2 MSTORE PUSH1 0x20 ADD SWAP1 DUP2 MSTORE PUSH1 0x20 ADD PUSH1 0x0 KECCAK256 DUP2 SWAP1 SSTORE POP PUSH1 0x5 SLOAD PUSH1 0x6 PUSH1 0x0 DUP4 PUSH20 0xFFFFFFFFFFFFFFFFFFFFFFFFFFFFFFFFFFFFFFFF AND PUSH20 0xFFFFFFFFFFFFFFFFFFFFFFFFFFFFFFFFFFFFFFFF AND DUP2 MSTORE PUSH1 0x20 ADD SWAP1 DUP2 MSTORE PUSH1 0x20 ADD PUSH1 0x0 KECCAK256 DUP2 SWAP1 SSTORE POP JUMPDEST PUSH1 0x2 SLOAD TIMESTAMP GT ISZERO PUSH2 0x7D4 JUMPI PUSH1 0x1 SLOAD DUP3 PUSH2 0x7C9 SWAP2 SWAP1 PUSH2 0x1351 JUMP JUMPDEST PUSH1 0x4 DUP2 SWAP1 SSTORE POP PUSH2 0x814 JUMP JUMPDEST PUSH1 0x0 PUSH1 0x4 SLOAD TIMESTAMP PUSH1 0x2 SLOAD PUSH2 0x7E7 SWAP2 SWAP1 PUSH2 0x13DC JUMP JUMPDEST PUSH2 0x7F1 SWAP2 SWAP1 PUSH2 0x1382 JUMP JUMPDEST SWAP1 POP PUSH1 0x1 SLOAD DUP4 DUP3 PUSH2 0x802 SWAP2 SWAP1 PUSH2 0x12FB JUMP JUMPDEST PUSH2 0x80C SWAP2 SWAP1 PUSH2 0x1351 JUMP JUMPDEST PUSH1 0x4 DUP2 SWAP1 SSTORE POP POP JUMPDEST PUSH1 0x0 PUSH1 0x4 SLOAD GT PUSH2 0x859 JUMPI PUSH1 0x40 MLOAD PUSH32 0x8C379A000000000000000000000000000000000000000000000000000000000 DUP2 MSTORE PUSH1 0x4 ADD PUSH2 0x850 SWAP1 PUSH2 0x126F JUMP JUMPDEST PUSH1 0x40 MLOAD DUP1 SWAP2 SUB SWAP1 REVERT JUMPDEST PUSH32 0x0 PUSH20 0xFFFFFFFFFFFFFFFFFFFFFFFFFFFFFFFFFFFFFFFF AND PUSH4 0x70A08231 ADDRESS PUSH1 0x40 MLOAD DUP3 PUSH4 0xFFFFFFFF AND PUSH1 0xE0 SHL DUP2 MSTORE PUSH1 0x4 ADD PUSH2 0x8B2 SWAP2 SWAP1 PUSH2 0x11B9 JUMP JUMPDEST PUSH1 0x20 PUSH1 0x40 MLOAD DUP1 DUP4 SUB DUP2 DUP7 DUP1 EXTCODESIZE ISZERO DUP1 ISZERO PUSH2 0x8CA JUMPI PUSH1 0x0 DUP1 REVERT JUMPDEST POP GAS STATICCALL ISZERO DUP1 ISZERO PUSH2 0x8DE JUMPI RETURNDATASIZE PUSH1 0x0 DUP1 RETURNDATACOPY RETURNDATASIZE PUSH1 0x0 REVERT JUMPDEST POP POP POP POP PUSH1 0x40 MLOAD RETURNDATASIZE PUSH1 0x1F NOT PUSH1 0x1F DUP3 ADD AND DUP3 ADD DUP1 PUSH1 0x40 MSTORE POP DUP2 ADD SWAP1 PUSH2 0x902 SWAP2 SWAP1 PUSH2 0x10D3 JUMP JUMPDEST PUSH1 0x1 SLOAD PUSH1 0x4 SLOAD PUSH2 0x912 SWAP2 SWAP1 PUSH2 0x1382 JUMP JUMPDEST GT ISZERO PUSH2 0x953 JUMPI PUSH1 0x40 MLOAD PUSH32 0x8C379A000000000000000000000000000000000000000000000000000000000 DUP2 MSTORE PUSH1 0x4 ADD PUSH2 0x94A SWAP1 PUSH2 0x128F JUMP JUMPDEST PUSH1 0x40 MLOAD DUP1 SWAP2 SUB SWAP1 REVERT JUMPDEST PUSH1 0x1 SLOAD TIMESTAMP PUSH2 0x961 SWAP2 SWAP1 PUSH2 0x12FB JUMP JUMPDEST PUSH1 0x2 DUP2 SWAP1 SSTORE POP PUSH1 0x1 SLOAD PUSH1 0x4 SLOAD DUP4 PUSH2 0x978 SWAP2 SWAP1 PUSH2 0x1382 JUMP JUMPDEST PUSH2 0x982 SWAP2 SWAP1 PUSH2 0x1351 JUMP JUMPDEST PUSH1 0x5 DUP2 SWAP1 SSTORE POP TIMESTAMP PUSH1 0x3 DUP2 SWAP1 SSTORE POP POP POP JUMP JUMPDEST CALLER PUSH2 0x99C PUSH2 0xF49 JUMP JUMPDEST PUSH1 0x5 DUP2 SWAP1 SSTORE POP PUSH2 0x9AA PUSH2 0xC0A JUMP JUMPDEST PUSH1 0x3 DUP2 SWAP1 SSTORE POP PUSH1 0x0 PUSH20 0xFFFFFFFFFFFFFFFFFFFFFFFFFFFFFFFFFFFFFFFF AND DUP2 PUSH20 0xFFFFFFFFFFFFFFFFFFFFFFFFFFFFFFFFFFFFFFFF AND EQ PUSH2 0xA77 JUMPI PUSH2 0x9ED DUP2 PUSH2 0x3B4 JUMP JUMPDEST PUSH1 0x7 PUSH1 0x0 DUP4 PUSH20 0xFFFFFFFFFFFFFFFFFFFFFFFFFFFFFFFFFFFFFFFF AND PUSH20 0xFFFFFFFFFFFFFFFFFFFFFFFFFFFFFFFFFFFFFFFF AND DUP2 MSTORE PUSH1 0x20 ADD SWAP1 DUP2 MSTORE PUSH1 0x20 ADD PUSH1 0x0 KECCAK256 DUP2 SWAP1 SSTORE POP PUSH1 0x5 SLOAD PUSH1 0x6 PUSH1 0x0 DUP4 PUSH20 0xFFFFFFFFFFFFFFFFFFFFFFFFFFFFFFFFFFFFFFFF AND PUSH20 0xFFFFFFFFFFFFFFFFFFFFFFFFFFFFFFFFFFFFFFFF AND DUP2 MSTORE PUSH1 0x20 ADD SWAP1 DUP2 MSTORE PUSH1 0x20 ADD PUSH1 0x0 KECCAK256 DUP2 SWAP1 SSTORE POP JUMPDEST PUSH1 0x0 PUSH1 0x7 PUSH1 0x0 CALLER PUSH20 0xFFFFFFFFFFFFFFFFFFFFFFFFFFFFFFFFFFFFFFFF AND PUSH20 0xFFFFFFFFFFFFFFFFFFFFFFFFFFFFFFFFFFFFFFFF AND DUP2 MSTORE PUSH1 0x20 ADD SWAP1 DUP2 MSTORE PUSH1 0x20 ADD PUSH1 0x0 KECCAK256 SLOAD SWAP1 POP PUSH1 0x0 DUP2 GT ISZERO PUSH2 0xBB8 JUMPI PUSH1 0x0 PUSH1 0x7 PUSH1 0x0 CALLER PUSH20 0xFFFFFFFFFFFFFFFFFFFFFFFFFFFFFFFFFFFFFFFF AND PUSH20 0xFFFFFFFFFFFFFFFFFFFFFFFFFFFFFFFFFFFFFFFF AND DUP2 MSTORE PUSH1 0x20 ADD SWAP1 DUP2 MSTORE PUSH1 0x20 ADD PUSH1 0x0 KECCAK256 DUP2 SWAP1 SSTORE POP PUSH32 0x0 PUSH20 0xFFFFFFFFFFFFFFFFFFFFFFFFFFFFFFFFFFFFFFFF AND PUSH4 0xA9059CBB CALLER DUP4 PUSH1 0x40 MLOAD DUP4 PUSH4 0xFFFFFFFF AND PUSH1 0xE0 SHL DUP2 MSTORE PUSH1 0x4 ADD PUSH2 0xB64 SWAP3 SWAP2 SWAP1 PUSH2 0x120B JUMP JUMPDEST PUSH1 0x20 PUSH1 0x40 MLOAD DUP1 DUP4 SUB DUP2 PUSH1 0x0 DUP8 DUP1 EXTCODESIZE ISZERO DUP1 ISZERO PUSH2 0xB7E JUMPI PUSH1 0x0 DUP1 REVERT JUMPDEST POP GAS CALL ISZERO DUP1 ISZERO PUSH2 0xB92 JUMPI RETURNDATASIZE PUSH1 0x0 DUP1 RETURNDATACOPY RETURNDATASIZE PUSH1 0x0 REVERT JUMPDEST POP POP POP POP PUSH1 0x40 MLOAD RETURNDATASIZE PUSH1 0x1F NOT PUSH1 0x1F DUP3 ADD AND DUP3 ADD DUP1 PUSH1 0x40 MSTORE POP DUP2 ADD SWAP1 PUSH2 0xBB6 SWAP2 SWAP1 PUSH2 0x1079 JUMP JUMPDEST POP JUMPDEST POP POP JUMP JUMPDEST PUSH1 0x2 SLOAD DUP2 JUMP JUMPDEST PUSH1 0x9 PUSH1 0x20 MSTORE DUP1 PUSH1 0x0 MSTORE PUSH1 0x40 PUSH1 0x0 KECCAK256 PUSH1 0x0 SWAP2 POP SWAP1 POP SLOAD DUP2 JUMP JUMPDEST PUSH32 0x0 DUP2 JUMP JUMPDEST PUSH1 0x3 SLOAD DUP2 JUMP JUMPDEST PUSH1 0x4 SLOAD DUP2 JUMP JUMPDEST PUSH1 0x0 PUSH2 0xC18 TIMESTAMP PUSH1 0x2 SLOAD PUSH2 0xFDE JUMP JUMPDEST SWAP1 POP SWAP1 JUMP JUMPDEST PUSH1 0x6 PUSH1 0x20 MSTORE DUP1 PUSH1 0x0 MSTORE PUSH1 0x40 PUSH1 0x0 KECCAK256 PUSH1 0x0 SWAP2 POP SWAP1 POP SLOAD DUP2 JUMP JUMPDEST PUSH1 0x0 DUP1 SLOAD SWAP1 PUSH2 0x100 EXP SWAP1 DIV PUSH20 0xFFFFFFFFFFFFFFFFFFFFFFFFFFFFFFFFFFFFFFFF AND DUP2 JUMP JUMPDEST CALLER PUSH2 0xC62 PUSH2 0xF49 JUMP JUMPDEST PUSH1 0x5 DUP2 SWAP1 SSTORE POP PUSH2 0xC70 PUSH2 0xC0A JUMP JUMPDEST PUSH1 0x3 DUP2 SWAP1 SSTORE POP PUSH1 0x0 PUSH20 0xFFFFFFFFFFFFFFFFFFFFFFFFFFFFFFFFFFFFFFFF AND DUP2 PUSH20 0xFFFFFFFFFFFFFFFFFFFFFFFFFFFFFFFFFFFFFFFF AND EQ PUSH2 0xD3D JUMPI PUSH2 0xCB3 DUP2 PUSH2 0x3B4 JUMP JUMPDEST PUSH1 0x7 PUSH1 0x0 DUP4 PUSH20 0xFFFFFFFFFFFFFFFFFFFFFFFFFFFFFFFFFFFFFFFF AND PUSH20 0xFFFFFFFFFFFFFFFFFFFFFFFFFFFFFFFFFFFFFFFF AND DUP2 MSTORE PUSH1 0x20 ADD SWAP1 DUP2 MSTORE PUSH1 0x20 ADD PUSH1 0x0 KECCAK256 DUP2 SWAP1 SSTORE POP PUSH1 0x5 SLOAD PUSH1 0x6 PUSH1 0x0 DUP4 PUSH20 0xFFFFFFFFFFFFFFFFFFFFFFFFFFFFFFFFFFFFFFFF AND PUSH20 0xFFFFFFFFFFFFFFFFFFFFFFFFFFFFFFFFFFFFFFFF AND DUP2 MSTORE PUSH1 0x20 ADD SWAP1 DUP2 MSTORE PUSH1 0x20 ADD PUSH1 0x0 KECCAK256 DUP2 SWAP1 SSTORE POP JUMPDEST PUSH1 0x0 DUP3 GT PUSH2 0xD80 JUMPI PUSH1 0x40 MLOAD PUSH32 0x8C379A000000000000000000000000000000000000000000000000000000000 DUP2 MSTORE PUSH1 0x4 ADD PUSH2 0xD77 SWAP1 PUSH2 0x124F JUMP JUMPDEST PUSH1 0x40 MLOAD DUP1 SWAP2 SUB SWAP1 REVERT JUMPDEST PUSH32 0x0 PUSH20 0xFFFFFFFFFFFFFFFFFFFFFFFFFFFFFFFFFFFFFFFF AND PUSH4 0x23B872DD CALLER ADDRESS DUP6 PUSH1 0x40 MLOAD DUP5 PUSH4 0xFFFFFFFF AND PUSH1 0xE0 SHL DUP2 MSTORE PUSH1 0x4 ADD PUSH2 0xDDD SWAP4 SWAP3 SWAP2 SWAP1 PUSH2 0x11D4 JUMP JUMPDEST PUSH1 0x20 PUSH1 0x40 MLOAD DUP1 DUP4 SUB DUP2 PUSH1 0x0 DUP8 DUP1 EXTCODESIZE ISZERO DUP1 ISZERO PUSH2 0xDF7 JUMPI PUSH1 0x0 DUP1 REVERT JUMPDEST POP GAS CALL ISZERO DUP1 ISZERO PUSH2 0xE0B JUMPI RETURNDATASIZE PUSH1 0x0 DUP1 RETURNDATACOPY RETURNDATASIZE PUSH1 0x0 REVERT JUMPDEST POP POP POP POP PUSH1 0x40 MLOAD RETURNDATASIZE PUSH1 0x1F NOT PUSH1 0x1F DUP3 ADD AND DUP3 ADD DUP1 PUSH1 0x40 MSTORE POP DUP2 ADD SWAP1 PUSH2 0xE2F SWAP2 SWAP1 PUSH2 0x1079 JUMP JUMPDEST POP DUP2 PUSH1 0x9 PUSH1 0x0 CALLER PUSH20 0xFFFFFFFFFFFFFFFFFFFFFFFFFFFFFFFFFFFFFFFF AND PUSH20 0xFFFFFFFFFFFFFFFFFFFFFFFFFFFFFFFFFFFFFFFF AND DUP2 MSTORE PUSH1 0x20 ADD SWAP1 DUP2 MSTORE PUSH1 0x20 ADD PUSH1 0x0 KECCAK256 PUSH1 0x0 DUP3 DUP3 SLOAD PUSH2 0xE7F SWAP2 SWAP1 PUSH2 0x12FB JUMP JUMPDEST SWAP3 POP POP DUP2 SWAP1 SSTORE POP DUP2 PUSH1 0x8 PUSH1 0x0 DUP3 DUP3 SLOAD PUSH2 0xE98 SWAP2 SWAP1 PUSH2 0x12FB JUMP JUMPDEST SWAP3 POP POP DUP2 SWAP1 SSTORE POP POP POP JUMP JUMPDEST PUSH1 0x0 DUP1 SLOAD SWAP1 PUSH2 0x100 EXP SWAP1 DIV PUSH20 0xFFFFFFFFFFFFFFFFFFFFFFFFFFFFFFFFFFFFFFFF AND PUSH20 0xFFFFFFFFFFFFFFFFFFFFFFFFFFFFFFFFFFFFFFFF AND CALLER PUSH20 0xFFFFFFFFFFFFFFFFFFFFFFFFFFFFFFFFFFFFFFFF AND EQ PUSH2 0xEFB JUMPI PUSH1 0x0 DUP1 REVERT JUMPDEST TIMESTAMP PUSH1 0x2 SLOAD LT PUSH2 0xF3F JUMPI PUSH1 0x40 MLOAD PUSH32 0x8C379A000000000000000000000000000000000000000000000000000000000 DUP2 MSTORE PUSH1 0x4 ADD PUSH2 0xF36 SWAP1 PUSH2 0x12AF JUMP JUMPDEST PUSH1 0x40 MLOAD DUP1 SWAP2 SUB SWAP1 REVERT JUMPDEST DUP1 PUSH1 0x1 DUP2 SWAP1 SSTORE POP POP JUMP JUMPDEST PUSH1 0x0 DUP1 PUSH1 0x8 SLOAD EQ ISZERO PUSH2 0xF5F JUMPI PUSH1 0x5 SLOAD SWAP1 POP PUSH2 0xFB1 JUMP JUMPDEST PUSH1 0x8 SLOAD PUSH8 0xDE0B6B3A7640000 PUSH1 0x3 SLOAD PUSH2 0xF76 PUSH2 0xC0A JUMP JUMPDEST PUSH2 0xF80 SWAP2 SWAP1 PUSH2 0x13DC JUMP JUMPDEST PUSH1 0x4 SLOAD PUSH2 0xF8D SWAP2 SWAP1 PUSH2 0x1382 JUMP JUMPDEST PUSH2 0xF97 SWAP2 SWAP1 PUSH2 0x1382 JUMP JUMPDEST PUSH2 0xFA1 SWAP2 SWAP1 PUSH2 0x1351 JUMP JUMPDEST PUSH1 0x5 SLOAD PUSH2 0xFAE SWAP2 SWAP1 PUSH2 0x12FB JUMP JUMPDEST SWAP1 POP JUMPDEST SWAP1 JUMP JUMPDEST PUSH1 0x5 SLOAD DUP2 JUMP JUMPDEST PUSH32 0x0 DUP2 JUMP JUMPDEST PUSH1 0x0 DUP2 DUP4 GT ISZERO PUSH2 0xFEE JUMPI DUP2 PUSH2 0xFF0 JUMP JUMPDEST DUP3 JUMPDEST SWAP1 POP SWAP3 SWAP2 POP POP JUMP JUMPDEST PUSH1 0x0 DUP2 CALLDATALOAD SWAP1 POP PUSH2 0x1007 DUP2 PUSH2 0x1595 JUMP JUMPDEST SWAP3 SWAP2 POP POP JUMP JUMPDEST PUSH1 0x0 DUP2 MLOAD SWAP1 POP PUSH2 0x101C DUP2 PUSH2 0x15AC JUMP JUMPDEST SWAP3 SWAP2 POP POP JUMP JUMPDEST PUSH1 0x0 DUP2 CALLDATALOAD SWAP1 POP PUSH2 0x1031 DUP2 PUSH2 0x15C3 JUMP JUMPDEST SWAP3 SWAP2 POP POP JUMP JUMPDEST PUSH1 0x0 DUP2 MLOAD SWAP1 POP PUSH2 0x1046 DUP2 PUSH2 0x15C3 JUMP JUMPDEST SWAP3 SWAP2 POP POP JUMP JUMPDEST PUSH1 0x0 PUSH1 0x20 DUP3 DUP5 SUB SLT ISZERO PUSH2 0x1062 JUMPI PUSH2 0x1061 PUSH2 0x14EC JUMP JUMPDEST JUMPDEST PUSH1 0x0 PUSH2 0x1070 DUP5 DUP3 DUP6 ADD PUSH2 0xFF8 JUMP JUMPDEST SWAP2 POP POP SWAP3 SWAP2 POP POP JUMP JUMPDEST PUSH1 0x0 PUSH1 0x20 DUP3 DUP5 SUB SLT ISZERO PUSH2 0x108F JUMPI PUSH2 0x108E PUSH2 0x14EC JUMP JUMPDEST JUMPDEST PUSH1 0x0 PUSH2 0x109D DUP5 DUP3 DUP6 ADD PUSH2 0x100D JUMP JUMPDEST SWAP2 POP POP SWAP3 SWAP2 POP POP JUMP JUMPDEST PUSH1 0x0 PUSH1 0x20 DUP3 DUP5 SUB SLT ISZERO PUSH2 0x10BC JUMPI PUSH2 0x10BB PUSH2 0x14EC JUMP JUMPDEST JUMPDEST PUSH1 0x0 PUSH2 0x10CA DUP5 DUP3 DUP6 ADD PUSH2 0x1022 JUMP JUMPDEST SWAP2 POP POP SWAP3 SWAP2 POP POP JUMP JUMPDEST PUSH1 0x0 PUSH1 0x20 DUP3 DUP5 SUB SLT ISZERO PUSH2 0x10E9 JUMPI PUSH2 0x10E8 PUSH2 0x14EC JUMP JUMPDEST JUMPDEST PUSH1 0x0 PUSH2 0x10F7 DUP5 DUP3 DUP6 ADD PUSH2 0x1037 JUMP JUMPDEST SWAP2 POP POP SWAP3 SWAP2 POP POP JUMP JUMPDEST PUSH2 0x1109 DUP2 PUSH2 0x1410 JUMP JUMPDEST DUP3 MSTORE POP POP JUMP JUMPDEST PUSH2 0x1118 DUP2 PUSH2 0x1458 JUMP JUMPDEST DUP3 MSTORE POP POP JUMP JUMPDEST PUSH1 0x0 PUSH2 0x112B PUSH1 0xB DUP4 PUSH2 0x12EA JUMP JUMPDEST SWAP2 POP PUSH2 0x1136 DUP3 PUSH2 0x14F1 JUMP JUMPDEST PUSH1 0x20 DUP3 ADD SWAP1 POP SWAP2 SWAP1 POP JUMP JUMPDEST PUSH1 0x0 PUSH2 0x114E PUSH1 0xF DUP4 PUSH2 0x12EA JUMP JUMPDEST SWAP2 POP PUSH2 0x1159 DUP3 PUSH2 0x151A JUMP JUMPDEST PUSH1 0x20 DUP3 ADD SWAP1 POP SWAP2 SWAP1 POP JUMP JUMPDEST PUSH1 0x0 PUSH2 0x1171 PUSH1 0x19 DUP4 PUSH2 0x12EA JUMP JUMPDEST SWAP2 POP PUSH2 0x117C DUP3 PUSH2 0x1543 JUMP JUMPDEST PUSH1 0x20 DUP3 ADD SWAP1 POP SWAP2 SWAP1 POP JUMP JUMPDEST PUSH1 0x0 PUSH2 0x1194 PUSH1 0x20 DUP4 PUSH2 0x12EA JUMP JUMPDEST SWAP2 POP PUSH2 0x119F DUP3 PUSH2 0x156C JUMP JUMPDEST PUSH1 0x20 DUP3 ADD SWAP1 POP SWAP2 SWAP1 POP JUMP JUMPDEST PUSH2 0x11B3 DUP2 PUSH2 0x144E JUMP JUMPDEST DUP3 MSTORE POP POP JUMP JUMPDEST PUSH1 0x0 PUSH1 0x20 DUP3 ADD SWAP1 POP PUSH2 0x11CE PUSH1 0x0 DUP4 ADD DUP5 PUSH2 0x1100 JUMP JUMPDEST SWAP3 SWAP2 POP POP JUMP JUMPDEST PUSH1 0x0 PUSH1 0x60 DUP3 ADD SWAP1 POP PUSH2 0x11E9 PUSH1 0x0 DUP4 ADD DUP7 PUSH2 0x1100 JUMP JUMPDEST PUSH2 0x11F6 PUSH1 0x20 DUP4 ADD DUP6 PUSH2 0x1100 JUMP JUMPDEST PUSH2 0x1203 PUSH1 0x40 DUP4 ADD DUP5 PUSH2 0x11AA JUMP JUMPDEST SWAP5 SWAP4 POP POP POP POP JUMP JUMPDEST PUSH1 0x0 PUSH1 0x40 DUP3 ADD SWAP1 POP PUSH2 0x1220 PUSH1 0x0 DUP4 ADD DUP6 PUSH2 0x1100 JUMP JUMPDEST PUSH2 0x122D PUSH1 0x20 DUP4 ADD DUP5 PUSH2 0x11AA JUMP JUMPDEST SWAP4 SWAP3 POP POP POP JUMP JUMPDEST PUSH1 0x0 PUSH1 0x20 DUP3 ADD SWAP1 POP PUSH2 0x1249 PUSH1 0x0 DUP4 ADD DUP5 PUSH2 0x110F JUMP JUMPDEST SWAP3 SWAP2 POP POP JUMP JUMPDEST PUSH1 0x0 PUSH1 0x20 DUP3 ADD SWAP1 POP DUP2 DUP2 SUB PUSH1 0x0 DUP4 ADD MSTORE PUSH2 0x1268 DUP2 PUSH2 0x111E JUMP JUMPDEST SWAP1 POP SWAP2 SWAP1 POP JUMP JUMPDEST PUSH1 0x0 PUSH1 0x20 DUP3 ADD SWAP1 POP DUP2 DUP2 SUB PUSH1 0x0 DUP4 ADD MSTORE PUSH2 0x1288 DUP2 PUSH2 0x1141 JUMP JUMPDEST SWAP1 POP SWAP2 SWAP1 POP JUMP JUMPDEST PUSH1 0x0 PUSH1 0x20 DUP3 ADD SWAP1 POP DUP2 DUP2 SUB PUSH1 0x0 DUP4 ADD MSTORE PUSH2 0x12A8 DUP2 PUSH2 0x1164 JUMP JUMPDEST SWAP1 POP SWAP2 SWAP1 POP JUMP JUMPDEST PUSH1 0x0 PUSH1 0x20 DUP3 ADD SWAP1 POP DUP2 DUP2 SUB PUSH1 0x0 DUP4 ADD MSTORE PUSH2 0x12C8 DUP2 PUSH2 0x1187 JUMP JUMPDEST SWAP1 POP SWAP2 SWAP1 POP JUMP JUMPDEST PUSH1 0x0 PUSH1 0x20 DUP3 ADD SWAP1 POP PUSH2 0x12E4 PUSH1 0x0 DUP4 ADD DUP5 PUSH2 0x11AA JUMP JUMPDEST SWAP3 SWAP2 POP POP JUMP JUMPDEST PUSH1 0x0 DUP3 DUP3 MSTORE PUSH1 0x20 DUP3 ADD SWAP1 POP SWAP3 SWAP2 POP POP JUMP JUMPDEST PUSH1 0x0 PUSH2 0x1306 DUP3 PUSH2 0x144E JUMP JUMPDEST SWAP2 POP PUSH2 0x1311 DUP4 PUSH2 0x144E JUMP JUMPDEST SWAP3 POP DUP3 PUSH32 0xFFFFFFFFFFFFFFFFFFFFFFFFFFFFFFFFFFFFFFFFFFFFFFFFFFFFFFFFFFFFFFFF SUB DUP3 GT ISZERO PUSH2 0x1346 JUMPI PUSH2 0x1345 PUSH2 0x148E JUMP JUMPDEST JUMPDEST DUP3 DUP3 ADD SWAP1 POP SWAP3 SWAP2 POP POP JUMP JUMPDEST PUSH1 0x0 PUSH2 0x135C DUP3 PUSH2 0x144E JUMP JUMPDEST SWAP2 POP PUSH2 0x1367 DUP4 PUSH2 0x144E JUMP JUMPDEST SWAP3 POP DUP3 PUSH2 0x1377 JUMPI PUSH2 0x1376 PUSH2 0x14BD JUMP JUMPDEST JUMPDEST DUP3 DUP3 DIV SWAP1 POP SWAP3 SWAP2 POP POP JUMP JUMPDEST PUSH1 0x0 PUSH2 0x138D DUP3 PUSH2 0x144E JUMP JUMPDEST SWAP2 POP PUSH2 0x1398 DUP4 PUSH2 0x144E JUMP JUMPDEST SWAP3 POP DUP2 PUSH32 0xFFFFFFFFFFFFFFFFFFFFFFFFFFFFFFFFFFFFFFFFFFFFFFFFFFFFFFFFFFFFFFFF DIV DUP4 GT DUP3 ISZERO ISZERO AND ISZERO PUSH2 0x13D1 JUMPI PUSH2 0x13D0 PUSH2 0x148E JUMP JUMPDEST JUMPDEST DUP3 DUP3 MUL SWAP1 POP SWAP3 SWAP2 POP POP JUMP JUMPDEST PUSH1 0x0 PUSH2 0x13E7 DUP3 PUSH2 0x144E JUMP JUMPDEST SWAP2 POP PUSH2 0x13F2 DUP4 PUSH2 0x144E JUMP JUMPDEST SWAP3 POP DUP3 DUP3 LT ISZERO PUSH2 0x1405 JUMPI PUSH2 0x1404 PUSH2 0x148E JUMP JUMPDEST JUMPDEST DUP3 DUP3 SUB SWAP1 POP SWAP3 SWAP2 POP POP JUMP JUMPDEST PUSH1 0x0 PUSH2 0x141B DUP3 PUSH2 0x142E JUMP JUMPDEST SWAP1 POP SWAP2 SWAP1 POP JUMP JUMPDEST PUSH1 0x0 DUP2 ISZERO ISZERO SWAP1 POP SWAP2 SWAP1 POP JUMP JUMPDEST PUSH1 0x0 PUSH20 0xFFFFFFFFFFFFFFFFFFFFFFFFFFFFFFFFFFFFFFFF DUP3 AND SWAP1 POP SWAP2 SWAP1 POP JUMP JUMPDEST PUSH1 0x0 DUP2 SWAP1 POP SWAP2 SWAP1 POP JUMP JUMPDEST PUSH1 0x0 PUSH2 0x1463 DUP3 PUSH2 0x146A JUMP JUMPDEST SWAP1 POP SWAP2 SWAP1 POP JUMP JUMPDEST PUSH1 0x0 PUSH2 0x1475 DUP3 PUSH2 0x147C JUMP JUMPDEST SWAP1 POP SWAP2 SWAP1 POP JUMP JUMPDEST PUSH1 0x0 PUSH2 0x1487 DUP3 PUSH2 0x142E JUMP JUMPDEST SWAP1 POP SWAP2 SWAP1 POP JUMP JUMPDEST PUSH32 0x4E487B7100000000000000000000000000000000000000000000000000000000 PUSH1 0x0 MSTORE PUSH1 0x11 PUSH1 0x4 MSTORE PUSH1 0x24 PUSH1 0x0 REVERT JUMPDEST PUSH32 0x4E487B7100000000000000000000000000000000000000000000000000000000 PUSH1 0x0 MSTORE PUSH1 0x12 PUSH1 0x4 MSTORE PUSH1 0x24 PUSH1 0x0 REVERT JUMPDEST PUSH1 0x0 DUP1 REVERT JUMPDEST PUSH32 0x5F616D6F756E74203D2030000000000000000000000000000000000000000000 PUSH1 0x0 DUP3 ADD MSTORE POP JUMP JUMPDEST PUSH32 0x7265776172645261746520697320300000000000000000000000000000000000 PUSH1 0x0 DUP3 ADD MSTORE POP JUMP JUMPDEST PUSH32 0x7265617264416D6F756E74203E20726577617264546F6B656E00000000000000 PUSH1 0x0 DUP3 ADD MSTORE POP JUMP JUMPDEST PUSH32 0x7374616B696E672069732074696C6C20646F696E672E6E6F742066696E697368 PUSH1 0x0 DUP3 ADD MSTORE POP JUMP JUMPDEST PUSH2 0x159E DUP2 PUSH2 0x1410 JUMP JUMPDEST DUP2 EQ PUSH2 0x15A9 JUMPI PUSH1 0x0 DUP1 REVERT JUMPDEST POP JUMP JUMPDEST PUSH2 0x15B5 DUP2 PUSH2 0x1422 JUMP JUMPDEST DUP2 EQ PUSH2 0x15C0 JUMPI PUSH1 0x0 DUP1 REVERT JUMPDEST POP JUMP JUMPDEST PUSH2 0x15CC DUP2 PUSH2 0x144E JUMP JUMPDEST DUP2 EQ PUSH2 0x15D7 JUMPI PUSH1 0x0 DUP1 REVERT JUMPDEST POP JUMP INVALID LOG2 PUSH5 0x6970667358 0x22 SLT KECCAK256 0xC0 SWAP4 CODESIZE 0xE7 0xED DUP9 0xDD PUSH19 0x61BD44147BCBBA94552C03D4573B139C35A4DD PUSH14 0xDEEBF86964736F6C634300080700 CALLER "
				},
				"gasEstimates": {
					"creation": {
						"codeDepositCost": "1129600",
						"executionCost": "infinite",
						"totalCost": "infinite"
					},
					"external": {
						"balanceOf(address)": "2903",
						"duration()": "2497",
						"earned(address)": "infinite",
						"finishAt()": "2496",
						"getReward()": "infinite",
						"lastTimeRewardApplicable()": "2588",
						"notifyRewardAmount(uint256)": "infinite",
						"owner()": "2622",
						"rewardPerToken()": "infinite",
						"rewardPerTokenStored()": "2517",
						"rewardRate()": "2474",
						"rewardToken()": "infinite",
						"rewards(address)": "2860",
						"setRewardsDuration(uint256)": "26853",
						"stake(uint256)": "infinite",
						"stakingToken()": "infinite",
						"totalSupply()": "2519",
						"updatedAt()": "2452",
						"userRewardPerTokenPaid(address)": "2903",
						"withdraw(uint256)": "infinite"
					},
					"internal": {
						"min(uint256,uint256)": "67"
					}
				},
				"methodIdentifiers": {
					"balanceOf(address)": "70a08231",
					"duration()": "0fb5a6b4",
					"earned(address)": "008cc262",
					"finishAt()": "67d3b488",
					"getReward()": "3d18b912",
					"lastTimeRewardApplicable()": "80faa57d",
					"notifyRewardAmount(uint256)": "3c6b16ab",
					"owner()": "8da5cb5b",
					"rewardPerToken()": "cd3daf9d",
					"rewardPerTokenStored()": "df136d65",
					"rewardRate()": "7b0a47ee",
					"rewardToken()": "f7c618c1",
					"rewards(address)": "0700037d",
					"setRewardsDuration(uint256)": "cc1a378f",
					"stake(uint256)": "a694fc3a",
					"stakingToken()": "72f702f3",
					"totalSupply()": "18160ddd",
					"updatedAt()": "7519ab50",
					"userRewardPerTokenPaid(address)": "8b876347",
					"withdraw(uint256)": "2e1a7d4d"
				}
			},
			"storageLayout": {
				"storage": [
					{
						"astId": 88,
						"contract": "52StakingRewards.sol:StakingRewards",
						"label": "owner",
						"offset": 0,
						"slot": "0",
						"type": "t_address"
					},
					{
						"astId": 91,
						"contract": "52StakingRewards.sol:StakingRewards",
						"label": "duration",
						"offset": 0,
						"slot": "1",
						"type": "t_uint256"
					},
					{
						"astId": 93,
						"contract": "52StakingRewards.sol:StakingRewards",
						"label": "finishAt",
						"offset": 0,
						"slot": "2",
						"type": "t_uint256"
					},
					{
						"astId": 95,
						"contract": "52StakingRewards.sol:StakingRewards",
						"label": "updatedAt",
						"offset": 0,
						"slot": "3",
						"type": "t_uint256"
					},
					{
						"astId": 97,
						"contract": "52StakingRewards.sol:StakingRewards",
						"label": "rewardRate",
						"offset": 0,
						"slot": "4",
						"type": "t_uint256"
					},
					{
						"astId": 99,
						"contract": "52StakingRewards.sol:StakingRewards",
						"label": "rewardPerTokenStored",
						"offset": 0,
						"slot": "5",
						"type": "t_uint256"
					},
					{
						"astId": 103,
						"contract": "52StakingRewards.sol:StakingRewards",
						"label": "userRewardPerTokenPaid",
						"offset": 0,
						"slot": "6",
						"type": "t_mapping(t_address,t_uint256)"
					},
					{
						"astId": 107,
						"contract": "52StakingRewards.sol:StakingRewards",
						"label": "rewards",
						"offset": 0,
						"slot": "7",
						"type": "t_mapping(t_address,t_uint256)"
					},
					{
						"astId": 110,
						"contract": "52StakingRewards.sol:StakingRewards",
						"label": "totalSupply",
						"offset": 0,
						"slot": "8",
						"type": "t_uint256"
					},
					{
						"astId": 114,
						"contract": "52StakingRewards.sol:StakingRewards",
						"label": "balanceOf",
						"offset": 0,
						"slot": "9",
						"type": "t_mapping(t_address,t_uint256)"
					}
				],
				"types": {
					"t_address": {
						"encoding": "inplace",
						"label": "address",
						"numberOfBytes": "20"
					},
					"t_mapping(t_address,t_uint256)": {
						"encoding": "mapping",
						"key": "t_address",
						"label": "mapping(address => uint256)",
						"numberOfBytes": "32",
						"value": "t_uint256"
					},
					"t_uint256": {
						"encoding": "inplace",
						"label": "uint256",
						"numberOfBytes": "32"
					}
				}
			},
			"userdoc": {
				"kind": "user",
				"methods": {
					"duration()": {
						"notice": "以下这些状态变量来跟踪用户获得的奖励*"
					},
					"totalSupply()": {
						"notice": "以下这些状态变量来跟踪质押代币的总供应量，和每个用户的质押总额*"
					}
				},
				"version": 1
			}
		}
	}
}