{
	"48Abi.sol": {
		"Abi": {
			"abi": [
				{
					"inputs": [
						{
							"internalType": "bytes",
							"name": "data",
							"type": "bytes"
						}
					],
					"name": "decode",
					"outputs": [
						{
							"internalType": "string",
							"name": "x",
							"type": "string"
						},
						{
							"internalType": "uint256",
							"name": "y",
							"type": "uint256"
						},
						{
							"internalType": "address",
							"name": "addr",
							"type": "address"
						},
						{
							"internalType": "uint256[]",
							"name": "arr",
							"type": "uint256[]"
						},
						{
							"components": [
								{
									"internalType": "string",
									"name": "name",
									"type": "string"
								},
								{
									"internalType": "uint256[2]",
									"name": "nums",
									"type": "uint256[2]"
								}
							],
							"internalType": "struct Abi.Mystruct",
							"name": "Mystructor",
							"type": "tuple"
						}
					],
					"stateMutability": "pure",
					"type": "function"
				},
				{
					"inputs": [
						{
							"internalType": "string",
							"name": "x",
							"type": "string"
						},
						{
							"internalType": "uint256",
							"name": "y",
							"type": "uint256"
						},
						{
							"internalType": "address",
							"name": "addr",
							"type": "address"
						},
						{
							"internalType": "uint256[]",
							"name": "arr",
							"type": "uint256[]"
						},
						{
							"components": [
								{
									"internalType": "string",
									"name": "name",
									"type": "string"
								},
								{
									"internalType": "uint256[2]",
									"name": "nums",
									"type": "uint256[2]"
								}
							],
							"internalType": "struct Abi.Mystruct",
							"name": "Mystructor",
							"type": "tuple"
						}
					],
					"name": "encode",
					"outputs": [
						{
							"internalType": "bytes",
							"name": "",
							"type": "bytes"
						}
					],
					"stateMutability": "pure",
					"type": "function"
				}
			],
			"devdoc": {
				"kind": "dev",
				"methods": {},
				"version": 1
			},
			"evm": {
				"assembly": "    /* \"48Abi.sol\":58:638  contract Abi{... */\n  mstore(0x40, 0x80)\n  callvalue\n  dup1\n  iszero\n  tag_1\n  jumpi\n  0x00\n  dup1\n  revert\ntag_1:\n  pop\n  dataSize(sub_0)\n  dup1\n  dataOffset(sub_0)\n  0x00\n  codecopy\n  0x00\n  return\nstop\n\nsub_0: assembly {\n        /* \"48Abi.sol\":58:638  contract Abi{... */\n      mstore(0x40, 0x80)\n      callvalue\n      dup1\n      iszero\n      tag_1\n      jumpi\n      0x00\n      dup1\n      revert\n    tag_1:\n      pop\n      jumpi(tag_2, lt(calldatasize, 0x04))\n      shr(0xe0, calldataload(0x00))\n      dup1\n      0x0cc6a8be\n      eq\n      tag_3\n      jumpi\n      dup1\n      0xe5c5e9a3\n      eq\n      tag_4\n      jumpi\n    tag_2:\n      0x00\n      dup1\n      revert\n        /* \"48Abi.sol\":146:393  function encode(... */\n    tag_3:\n      tag_5\n      0x04\n      dup1\n      calldatasize\n      sub\n      dup2\n      add\n      swap1\n      tag_6\n      swap2\n      swap1\n      tag_7\n      jump\t// in\n    tag_6:\n      tag_8\n      jump\t// in\n    tag_5:\n      mload(0x40)\n      tag_9\n      swap2\n      swap1\n      tag_10\n      jump\t// in\n    tag_9:\n      mload(0x40)\n      dup1\n      swap2\n      sub\n      swap1\n      return\n        /* \"48Abi.sol\":399:636  function decode(bytes calldata data)external pure returns(string memory x,uint y,address addr,uint[] memory arr,Mystruct memory Mystructor){... */\n    tag_4:\n      tag_11\n      0x04\n      dup1\n      calldatasize\n      sub\n      dup2\n      add\n      swap1\n      tag_12\n      swap2\n      swap1\n      tag_13\n      jump\t// in\n    tag_12:\n      tag_14\n      jump\t// in\n    tag_11:\n      mload(0x40)\n      tag_15\n      swap6\n      swap5\n      swap4\n      swap3\n      swap2\n      swap1\n      tag_16\n      jump\t// in\n    tag_15:\n      mload(0x40)\n      dup1\n      swap2\n      sub\n      swap1\n      return\n        /* \"48Abi.sol\":146:393  function encode(... */\n    tag_8:\n        /* \"48Abi.sol\":321:333  bytes memory */\n      0x60\n        /* \"48Abi.sol\":362:363  x */\n      dup8\n      dup8\n        /* \"48Abi.sol\":364:365  y */\n      dup8\n        /* \"48Abi.sol\":366:370  addr */\n      dup8\n        /* \"48Abi.sol\":371:374  arr */\n      dup8\n      dup8\n        /* \"48Abi.sol\":375:385  Mystructor */\n      dup8\n        /* \"48Abi.sol\":351:386  abi.encode(x,y,addr,arr,Mystructor) */\n      add(0x20, mload(0x40))\n      tag_18\n      swap8\n      swap7\n      swap6\n      swap5\n      swap4\n      swap3\n      swap2\n      swap1\n      tag_19\n      jump\t// in\n    tag_18:\n      mload(0x40)\n      0x20\n      dup2\n      dup4\n      sub\n      sub\n      dup2\n      mstore\n      swap1\n      0x40\n      mstore\n        /* \"48Abi.sol\":344:386  return abi.encode(x,y,addr,arr,Mystructor) */\n      swap1\n      pop\n        /* \"48Abi.sol\":146:393  function encode(... */\n      swap8\n      swap7\n      pop\n      pop\n      pop\n      pop\n      pop\n      pop\n      pop\n      jump\t// out\n        /* \"48Abi.sol\":399:636  function decode(bytes calldata data)external pure returns(string memory x,uint y,address addr,uint[] memory arr,Mystruct memory Mystructor){... */\n    tag_14:\n        /* \"48Abi.sol\":457:472  string memory x */\n      0x60\n        /* \"48Abi.sol\":473:479  uint y */\n      0x00\n        /* \"48Abi.sol\":480:492  address addr */\n      dup1\n        /* \"48Abi.sol\":493:510  uint[] memory arr */\n      0x60\n        /* \"48Abi.sol\":511:537  Mystruct memory Mystructor */\n      tag_20\n      tag_21\n      jump\t// in\n    tag_20:\n        /* \"48Abi.sol\":585:589  data */\n      dup7\n      dup7\n        /* \"48Abi.sol\":574:629  abi.decode(data, (string,uint,address,uint[],Mystruct)) */\n      dup2\n      add\n      swap1\n      tag_23\n      swap2\n      swap1\n      tag_24\n      jump\t// in\n    tag_23:\n        /* \"48Abi.sol\":548:629  (x,y,addr,arr,Mystructor)=abi.decode(data, (string,uint,address,uint[],Mystruct)) */\n      dup1\n      swap6\n      pop\n      dup2\n      swap7\n      pop\n      dup3\n      swap8\n      pop\n      dup4\n      swap9\n      pop\n      dup5\n      swap10\n      pop\n      pop\n      pop\n      pop\n      pop\n      pop\n        /* \"48Abi.sol\":399:636  function decode(bytes calldata data)external pure returns(string memory x,uint y,address addr,uint[] memory arr,Mystruct memory Mystructor){... */\n      swap3\n      swap6\n      pop\n      swap3\n      swap6\n      swap1\n      swap4\n      pop\n      jump\t// out\n    tag_21:\n      mload(0x40)\n      dup1\n      0x40\n      add\n      0x40\n      mstore\n      dup1\n      0x60\n      dup2\n      mstore\n      0x20\n      add\n      tag_25\n      tag_26\n      jump\t// in\n    tag_25:\n      dup2\n      mstore\n      pop\n      swap1\n      jump\t// out\n    tag_26:\n      mload(0x40)\n      dup1\n      0x40\n      add\n      0x40\n      mstore\n      dup1\n      0x02\n      swap1\n      0x20\n      dup3\n      mul\n      dup1\n      calldatasize\n      dup4\n      calldatacopy\n      dup1\n      dup3\n      add\n      swap2\n      pop\n      pop\n      swap1\n      pop\n      pop\n      swap1\n      jump\t// out\n        /* \"#utility.yul\":25:680   */\n    tag_28:\n        /* \"#utility.yul\":119:124   */\n      0x00\n        /* \"#utility.yul\":144:223   */\n      tag_30\n        /* \"#utility.yul\":160:222   */\n      tag_31\n        /* \"#utility.yul\":215:221   */\n      dup5\n        /* \"#utility.yul\":160:222   */\n      tag_32\n      jump\t// in\n    tag_31:\n        /* \"#utility.yul\":144:223   */\n      tag_33\n      jump\t// in\n    tag_30:\n        /* \"#utility.yul\":135:223   */\n      swap1\n      pop\n        /* \"#utility.yul\":243:248   */\n      dup1\n        /* \"#utility.yul\":269:275   */\n      dup3\n        /* \"#utility.yul\":319:322   */\n      dup6\n        /* \"#utility.yul\":311:315   */\n      0x20\n        /* \"#utility.yul\":303:309   */\n      dup7\n        /* \"#utility.yul\":299:316   */\n      mul\n        /* \"#utility.yul\":294:297   */\n      dup3\n        /* \"#utility.yul\":290:317   */\n      add\n        /* \"#utility.yul\":287:323   */\n      gt\n        /* \"#utility.yul\":284:427   */\n      iszero\n      tag_34\n      jumpi\n        /* \"#utility.yul\":338:417   */\n      tag_35\n      tag_36\n      jump\t// in\n    tag_35:\n        /* \"#utility.yul\":284:427   */\n    tag_34:\n        /* \"#utility.yul\":451:452   */\n      0x00\n        /* \"#utility.yul\":436:674   */\n    tag_37:\n        /* \"#utility.yul\":461:467   */\n      dup6\n        /* \"#utility.yul\":458:459   */\n      dup2\n        /* \"#utility.yul\":455:468   */\n      lt\n        /* \"#utility.yul\":436:674   */\n      iszero\n      tag_39\n      jumpi\n        /* \"#utility.yul\":529:532   */\n      dup2\n        /* \"#utility.yul\":558:595   */\n      tag_40\n        /* \"#utility.yul\":591:594   */\n      dup9\n        /* \"#utility.yul\":579:589   */\n      dup3\n        /* \"#utility.yul\":558:595   */\n      tag_41\n      jump\t// in\n    tag_40:\n        /* \"#utility.yul\":553:556   */\n      dup5\n        /* \"#utility.yul\":546:596   */\n      mstore\n        /* \"#utility.yul\":625:629   */\n      0x20\n        /* \"#utility.yul\":620:623   */\n      dup5\n        /* \"#utility.yul\":616:630   */\n      add\n        /* \"#utility.yul\":609:630   */\n      swap4\n      pop\n        /* \"#utility.yul\":659:663   */\n      0x20\n        /* \"#utility.yul\":654:657   */\n      dup4\n        /* \"#utility.yul\":650:664   */\n      add\n        /* \"#utility.yul\":643:664   */\n      swap3\n      pop\n        /* \"#utility.yul\":496:674   */\n      pop\n        /* \"#utility.yul\":483:484   */\n      0x01\n        /* \"#utility.yul\":480:481   */\n      dup2\n        /* \"#utility.yul\":476:485   */\n      add\n        /* \"#utility.yul\":471:485   */\n      swap1\n      pop\n        /* \"#utility.yul\":436:674   */\n      jump(tag_37)\n    tag_39:\n        /* \"#utility.yul\":440:454   */\n      pop\n        /* \"#utility.yul\":125:680   */\n      pop\n      pop\n        /* \"#utility.yul\":25:680   */\n      swap4\n      swap3\n      pop\n      pop\n      pop\n      jump\t// out\n        /* \"#utility.yul\":703:1425   */\n    tag_42:\n        /* \"#utility.yul\":799:804   */\n      0x00\n        /* \"#utility.yul\":824:905   */\n      tag_44\n        /* \"#utility.yul\":840:904   */\n      tag_45\n        /* \"#utility.yul\":897:903   */\n      dup5\n        /* \"#utility.yul\":840:904   */\n      tag_46\n      jump\t// in\n    tag_45:\n        /* \"#utility.yul\":824:905   */\n      tag_33\n      jump\t// in\n    tag_44:\n        /* \"#utility.yul\":815:905   */\n      swap1\n      pop\n        /* \"#utility.yul\":925:930   */\n      dup1\n        /* \"#utility.yul\":954:960   */\n      dup4\n        /* \"#utility.yul\":947:952   */\n      dup3\n        /* \"#utility.yul\":940:961   */\n      mstore\n        /* \"#utility.yul\":988:992   */\n      0x20\n        /* \"#utility.yul\":981:986   */\n      dup3\n        /* \"#utility.yul\":977:993   */\n      add\n        /* \"#utility.yul\":970:993   */\n      swap1\n      pop\n        /* \"#utility.yul\":1014:1020   */\n      dup3\n        /* \"#utility.yul\":1064:1067   */\n      dup6\n        /* \"#utility.yul\":1056:1060   */\n      0x20\n        /* \"#utility.yul\":1048:1054   */\n      dup7\n        /* \"#utility.yul\":1044:1061   */\n      mul\n        /* \"#utility.yul\":1039:1042   */\n      dup3\n        /* \"#utility.yul\":1035:1062   */\n      add\n        /* \"#utility.yul\":1032:1068   */\n      gt\n        /* \"#utility.yul\":1029:1172   */\n      iszero\n      tag_47\n      jumpi\n        /* \"#utility.yul\":1083:1162   */\n      tag_48\n      tag_36\n      jump\t// in\n    tag_48:\n        /* \"#utility.yul\":1029:1172   */\n    tag_47:\n        /* \"#utility.yul\":1196:1197   */\n      0x00\n        /* \"#utility.yul\":1181:1419   */\n    tag_49:\n        /* \"#utility.yul\":1206:1212   */\n      dup6\n        /* \"#utility.yul\":1203:1204   */\n      dup2\n        /* \"#utility.yul\":1200:1213   */\n      lt\n        /* \"#utility.yul\":1181:1419   */\n      iszero\n      tag_51\n      jumpi\n        /* \"#utility.yul\":1274:1277   */\n      dup2\n        /* \"#utility.yul\":1303:1340   */\n      tag_52\n        /* \"#utility.yul\":1336:1339   */\n      dup9\n        /* \"#utility.yul\":1324:1334   */\n      dup3\n        /* \"#utility.yul\":1303:1340   */\n      tag_41\n      jump\t// in\n    tag_52:\n        /* \"#utility.yul\":1298:1301   */\n      dup5\n        /* \"#utility.yul\":1291:1341   */\n      mstore\n        /* \"#utility.yul\":1370:1374   */\n      0x20\n        /* \"#utility.yul\":1365:1368   */\n      dup5\n        /* \"#utility.yul\":1361:1375   */\n      add\n        /* \"#utility.yul\":1354:1375   */\n      swap4\n      pop\n        /* \"#utility.yul\":1404:1408   */\n      0x20\n        /* \"#utility.yul\":1399:1402   */\n      dup4\n        /* \"#utility.yul\":1395:1409   */\n      add\n        /* \"#utility.yul\":1388:1409   */\n      swap3\n      pop\n        /* \"#utility.yul\":1241:1419   */\n      pop\n        /* \"#utility.yul\":1228:1229   */\n      0x01\n        /* \"#utility.yul\":1225:1226   */\n      dup2\n        /* \"#utility.yul\":1221:1230   */\n      add\n        /* \"#utility.yul\":1216:1230   */\n      swap1\n      pop\n        /* \"#utility.yul\":1181:1419   */\n      jump(tag_49)\n    tag_51:\n        /* \"#utility.yul\":1185:1199   */\n      pop\n        /* \"#utility.yul\":805:1425   */\n      pop\n      pop\n        /* \"#utility.yul\":703:1425   */\n      swap4\n      swap3\n      pop\n      pop\n      pop\n      jump\t// out\n        /* \"#utility.yul\":1431:1843   */\n    tag_53:\n        /* \"#utility.yul\":1509:1514   */\n      0x00\n        /* \"#utility.yul\":1534:1600   */\n      tag_55\n        /* \"#utility.yul\":1550:1599   */\n      tag_56\n        /* \"#utility.yul\":1592:1598   */\n      dup5\n        /* \"#utility.yul\":1550:1599   */\n      tag_57\n      jump\t// in\n    tag_56:\n        /* \"#utility.yul\":1534:1600   */\n      tag_33\n      jump\t// in\n    tag_55:\n        /* \"#utility.yul\":1525:1600   */\n      swap1\n      pop\n        /* \"#utility.yul\":1623:1629   */\n      dup3\n        /* \"#utility.yul\":1616:1621   */\n      dup2\n        /* \"#utility.yul\":1609:1630   */\n      mstore\n        /* \"#utility.yul\":1661:1665   */\n      0x20\n        /* \"#utility.yul\":1654:1659   */\n      dup2\n        /* \"#utility.yul\":1650:1666   */\n      add\n        /* \"#utility.yul\":1699:1702   */\n      dup5\n        /* \"#utility.yul\":1690:1696   */\n      dup5\n        /* \"#utility.yul\":1685:1688   */\n      dup5\n        /* \"#utility.yul\":1681:1697   */\n      add\n        /* \"#utility.yul\":1678:1703   */\n      gt\n        /* \"#utility.yul\":1675:1787   */\n      iszero\n      tag_58\n      jumpi\n        /* \"#utility.yul\":1706:1785   */\n      tag_59\n      tag_60\n      jump\t// in\n    tag_59:\n        /* \"#utility.yul\":1675:1787   */\n    tag_58:\n        /* \"#utility.yul\":1796:1837   */\n      tag_61\n        /* \"#utility.yul\":1830:1836   */\n      dup5\n        /* \"#utility.yul\":1825:1828   */\n      dup3\n        /* \"#utility.yul\":1820:1823   */\n      dup6\n        /* \"#utility.yul\":1796:1837   */\n      tag_62\n      jump\t// in\n    tag_61:\n        /* \"#utility.yul\":1515:1843   */\n      pop\n        /* \"#utility.yul\":1431:1843   */\n      swap4\n      swap3\n      pop\n      pop\n      pop\n      jump\t// out\n        /* \"#utility.yul\":1849:1988   */\n    tag_63:\n        /* \"#utility.yul\":1895:1900   */\n      0x00\n        /* \"#utility.yul\":1933:1939   */\n      dup2\n        /* \"#utility.yul\":1920:1940   */\n      calldataload\n        /* \"#utility.yul\":1911:1940   */\n      swap1\n      pop\n        /* \"#utility.yul\":1949:1982   */\n      tag_65\n        /* \"#utility.yul\":1976:1981   */\n      dup2\n        /* \"#utility.yul\":1949:1982   */\n      tag_66\n      jump\t// in\n    tag_65:\n        /* \"#utility.yul\":1849:1988   */\n      swap3\n      swap2\n      pop\n      pop\n      jump\t// out\n        /* \"#utility.yul\":1994:2149   */\n    tag_67:\n        /* \"#utility.yul\":2048:2053   */\n      0x00\n        /* \"#utility.yul\":2086:2092   */\n      dup2\n        /* \"#utility.yul\":2073:2093   */\n      calldataload\n        /* \"#utility.yul\":2064:2093   */\n      swap1\n      pop\n        /* \"#utility.yul\":2102:2143   */\n      tag_69\n        /* \"#utility.yul\":2137:2142   */\n      dup2\n        /* \"#utility.yul\":2102:2143   */\n      tag_70\n      jump\t// in\n    tag_69:\n        /* \"#utility.yul\":1994:2149   */\n      swap3\n      swap2\n      pop\n      pop\n      jump\t// out\n        /* \"#utility.yul\":2173:2512   */\n    tag_71:\n        /* \"#utility.yul\":2242:2247   */\n      0x00\n        /* \"#utility.yul\":2291:2294   */\n      dup3\n        /* \"#utility.yul\":2284:2288   */\n      0x1f\n        /* \"#utility.yul\":2276:2282   */\n      dup4\n        /* \"#utility.yul\":2272:2289   */\n      add\n        /* \"#utility.yul\":2268:2295   */\n      slt\n        /* \"#utility.yul\":2258:2380   */\n      tag_73\n      jumpi\n        /* \"#utility.yul\":2299:2378   */\n      tag_74\n      tag_75\n      jump\t// in\n    tag_74:\n        /* \"#utility.yul\":2258:2380   */\n    tag_73:\n        /* \"#utility.yul\":2403:2407   */\n      0x02\n        /* \"#utility.yul\":2425:2506   */\n      tag_76\n        /* \"#utility.yul\":2502:2505   */\n      dup5\n        /* \"#utility.yul\":2494:2500   */\n      dup3\n        /* \"#utility.yul\":2486:2492   */\n      dup6\n        /* \"#utility.yul\":2425:2506   */\n      tag_28\n      jump\t// in\n    tag_76:\n        /* \"#utility.yul\":2416:2506   */\n      swap2\n      pop\n        /* \"#utility.yul\":2248:2512   */\n      pop\n        /* \"#utility.yul\":2173:2512   */\n      swap3\n      swap2\n      pop\n      pop\n      jump\t// out\n        /* \"#utility.yul\":2535:3103   */\n    tag_77:\n        /* \"#utility.yul\":2608:2616   */\n      0x00\n        /* \"#utility.yul\":2618:2624   */\n      dup1\n        /* \"#utility.yul\":2668:2671   */\n      dup4\n        /* \"#utility.yul\":2661:2665   */\n      0x1f\n        /* \"#utility.yul\":2653:2659   */\n      dup5\n        /* \"#utility.yul\":2649:2666   */\n      add\n        /* \"#utility.yul\":2645:2672   */\n      slt\n        /* \"#utility.yul\":2635:2757   */\n      tag_79\n      jumpi\n        /* \"#utility.yul\":2676:2755   */\n      tag_80\n      tag_75\n      jump\t// in\n    tag_80:\n        /* \"#utility.yul\":2635:2757   */\n    tag_79:\n        /* \"#utility.yul\":2789:2795   */\n      dup3\n        /* \"#utility.yul\":2776:2796   */\n      calldataload\n        /* \"#utility.yul\":2766:2796   */\n      swap1\n      pop\n        /* \"#utility.yul\":2819:2837   */\n      0xffffffffffffffff\n        /* \"#utility.yul\":2811:2817   */\n      dup2\n        /* \"#utility.yul\":2808:2838   */\n      gt\n        /* \"#utility.yul\":2805:2922   */\n      iszero\n      tag_81\n      jumpi\n        /* \"#utility.yul\":2841:2920   */\n      tag_82\n      tag_83\n      jump\t// in\n    tag_82:\n        /* \"#utility.yul\":2805:2922   */\n    tag_81:\n        /* \"#utility.yul\":2955:2959   */\n      0x20\n        /* \"#utility.yul\":2947:2953   */\n      dup4\n        /* \"#utility.yul\":2943:2960   */\n      add\n        /* \"#utility.yul\":2931:2960   */\n      swap2\n      pop\n        /* \"#utility.yul\":3009:3012   */\n      dup4\n        /* \"#utility.yul\":3001:3005   */\n      0x20\n        /* \"#utility.yul\":2993:2999   */\n      dup3\n        /* \"#utility.yul\":2989:3006   */\n      mul\n        /* \"#utility.yul\":2979:2987   */\n      dup4\n        /* \"#utility.yul\":2975:3007   */\n      add\n        /* \"#utility.yul\":2972:3013   */\n      gt\n        /* \"#utility.yul\":2969:3097   */\n      iszero\n      tag_84\n      jumpi\n        /* \"#utility.yul\":3016:3095   */\n      tag_85\n      tag_36\n      jump\t// in\n    tag_85:\n        /* \"#utility.yul\":2969:3097   */\n    tag_84:\n        /* \"#utility.yul\":2535:3103   */\n      swap3\n      pop\n      swap3\n      swap1\n      pop\n      jump\t// out\n        /* \"#utility.yul\":3126:3496   */\n    tag_86:\n        /* \"#utility.yul\":3197:3202   */\n      0x00\n        /* \"#utility.yul\":3246:3249   */\n      dup3\n        /* \"#utility.yul\":3239:3243   */\n      0x1f\n        /* \"#utility.yul\":3231:3237   */\n      dup4\n        /* \"#utility.yul\":3227:3244   */\n      add\n        /* \"#utility.yul\":3223:3250   */\n      slt\n        /* \"#utility.yul\":3213:3335   */\n      tag_88\n      jumpi\n        /* \"#utility.yul\":3254:3333   */\n      tag_89\n      tag_75\n      jump\t// in\n    tag_89:\n        /* \"#utility.yul\":3213:3335   */\n    tag_88:\n        /* \"#utility.yul\":3371:3377   */\n      dup2\n        /* \"#utility.yul\":3358:3378   */\n      calldataload\n        /* \"#utility.yul\":3396:3490   */\n      tag_90\n        /* \"#utility.yul\":3486:3489   */\n      dup5\n        /* \"#utility.yul\":3478:3484   */\n      dup3\n        /* \"#utility.yul\":3471:3475   */\n      0x20\n        /* \"#utility.yul\":3463:3469   */\n      dup7\n        /* \"#utility.yul\":3459:3476   */\n      add\n        /* \"#utility.yul\":3396:3490   */\n      tag_42\n      jump\t// in\n    tag_90:\n        /* \"#utility.yul\":3387:3490   */\n      swap2\n      pop\n        /* \"#utility.yul\":3203:3496   */\n      pop\n        /* \"#utility.yul\":3126:3496   */\n      swap3\n      swap2\n      pop\n      pop\n      jump\t// out\n        /* \"#utility.yul\":3515:4067   */\n    tag_91:\n        /* \"#utility.yul\":3572:3580   */\n      0x00\n        /* \"#utility.yul\":3582:3588   */\n      dup1\n        /* \"#utility.yul\":3632:3635   */\n      dup4\n        /* \"#utility.yul\":3625:3629   */\n      0x1f\n        /* \"#utility.yul\":3617:3623   */\n      dup5\n        /* \"#utility.yul\":3613:3630   */\n      add\n        /* \"#utility.yul\":3609:3636   */\n      slt\n        /* \"#utility.yul\":3599:3721   */\n      tag_93\n      jumpi\n        /* \"#utility.yul\":3640:3719   */\n      tag_94\n      tag_75\n      jump\t// in\n    tag_94:\n        /* \"#utility.yul\":3599:3721   */\n    tag_93:\n        /* \"#utility.yul\":3753:3759   */\n      dup3\n        /* \"#utility.yul\":3740:3760   */\n      calldataload\n        /* \"#utility.yul\":3730:3760   */\n      swap1\n      pop\n        /* \"#utility.yul\":3783:3801   */\n      0xffffffffffffffff\n        /* \"#utility.yul\":3775:3781   */\n      dup2\n        /* \"#utility.yul\":3772:3802   */\n      gt\n        /* \"#utility.yul\":3769:3886   */\n      iszero\n      tag_95\n      jumpi\n        /* \"#utility.yul\":3805:3884   */\n      tag_96\n      tag_83\n      jump\t// in\n    tag_96:\n        /* \"#utility.yul\":3769:3886   */\n    tag_95:\n        /* \"#utility.yul\":3919:3923   */\n      0x20\n        /* \"#utility.yul\":3911:3917   */\n      dup4\n        /* \"#utility.yul\":3907:3924   */\n      add\n        /* \"#utility.yul\":3895:3924   */\n      swap2\n      pop\n        /* \"#utility.yul\":3973:3976   */\n      dup4\n        /* \"#utility.yul\":3965:3969   */\n      0x01\n        /* \"#utility.yul\":3957:3963   */\n      dup3\n        /* \"#utility.yul\":3953:3970   */\n      mul\n        /* \"#utility.yul\":3943:3951   */\n      dup4\n        /* \"#utility.yul\":3939:3971   */\n      add\n        /* \"#utility.yul\":3936:3977   */\n      gt\n        /* \"#utility.yul\":3933:4061   */\n      iszero\n      tag_97\n      jumpi\n        /* \"#utility.yul\":3980:4059   */\n      tag_98\n      tag_36\n      jump\t// in\n    tag_98:\n        /* \"#utility.yul\":3933:4061   */\n    tag_97:\n        /* \"#utility.yul\":3515:4067   */\n      swap3\n      pop\n      swap3\n      swap1\n      pop\n      jump\t// out\n        /* \"#utility.yul\":4087:4640   */\n    tag_99:\n        /* \"#utility.yul\":4145:4153   */\n      0x00\n        /* \"#utility.yul\":4155:4161   */\n      dup1\n        /* \"#utility.yul\":4205:4208   */\n      dup4\n        /* \"#utility.yul\":4198:4202   */\n      0x1f\n        /* \"#utility.yul\":4190:4196   */\n      dup5\n        /* \"#utility.yul\":4186:4203   */\n      add\n        /* \"#utility.yul\":4182:4209   */\n      slt\n        /* \"#utility.yul\":4172:4294   */\n      tag_101\n      jumpi\n        /* \"#utility.yul\":4213:4292   */\n      tag_102\n      tag_75\n      jump\t// in\n    tag_102:\n        /* \"#utility.yul\":4172:4294   */\n    tag_101:\n        /* \"#utility.yul\":4326:4332   */\n      dup3\n        /* \"#utility.yul\":4313:4333   */\n      calldataload\n        /* \"#utility.yul\":4303:4333   */\n      swap1\n      pop\n        /* \"#utility.yul\":4356:4374   */\n      0xffffffffffffffff\n        /* \"#utility.yul\":4348:4354   */\n      dup2\n        /* \"#utility.yul\":4345:4375   */\n      gt\n        /* \"#utility.yul\":4342:4459   */\n      iszero\n      tag_103\n      jumpi\n        /* \"#utility.yul\":4378:4457   */\n      tag_104\n      tag_83\n      jump\t// in\n    tag_104:\n        /* \"#utility.yul\":4342:4459   */\n    tag_103:\n        /* \"#utility.yul\":4492:4496   */\n      0x20\n        /* \"#utility.yul\":4484:4490   */\n      dup4\n        /* \"#utility.yul\":4480:4497   */\n      add\n        /* \"#utility.yul\":4468:4497   */\n      swap2\n      pop\n        /* \"#utility.yul\":4546:4549   */\n      dup4\n        /* \"#utility.yul\":4538:4542   */\n      0x01\n        /* \"#utility.yul\":4530:4536   */\n      dup3\n        /* \"#utility.yul\":4526:4543   */\n      mul\n        /* \"#utility.yul\":4516:4524   */\n      dup4\n        /* \"#utility.yul\":4512:4544   */\n      add\n        /* \"#utility.yul\":4509:4550   */\n      gt\n        /* \"#utility.yul\":4506:4634   */\n      iszero\n      tag_105\n      jumpi\n        /* \"#utility.yul\":4553:4632   */\n      tag_106\n      tag_36\n      jump\t// in\n    tag_106:\n        /* \"#utility.yul\":4506:4634   */\n    tag_105:\n        /* \"#utility.yul\":4087:4640   */\n      swap3\n      pop\n      swap3\n      swap1\n      pop\n      jump\t// out\n        /* \"#utility.yul\":4660:5000   */\n    tag_107:\n        /* \"#utility.yul\":4716:4721   */\n      0x00\n        /* \"#utility.yul\":4765:4768   */\n      dup3\n        /* \"#utility.yul\":4758:4762   */\n      0x1f\n        /* \"#utility.yul\":4750:4756   */\n      dup4\n        /* \"#utility.yul\":4746:4763   */\n      add\n        /* \"#utility.yul\":4742:4769   */\n      slt\n        /* \"#utility.yul\":4732:4854   */\n      tag_109\n      jumpi\n        /* \"#utility.yul\":4773:4852   */\n      tag_110\n      tag_75\n      jump\t// in\n    tag_110:\n        /* \"#utility.yul\":4732:4854   */\n    tag_109:\n        /* \"#utility.yul\":4890:4896   */\n      dup2\n        /* \"#utility.yul\":4877:4897   */\n      calldataload\n        /* \"#utility.yul\":4915:4994   */\n      tag_111\n        /* \"#utility.yul\":4990:4993   */\n      dup5\n        /* \"#utility.yul\":4982:4988   */\n      dup3\n        /* \"#utility.yul\":4975:4979   */\n      0x20\n        /* \"#utility.yul\":4967:4973   */\n      dup7\n        /* \"#utility.yul\":4963:4980   */\n      add\n        /* \"#utility.yul\":4915:4994   */\n      tag_53\n      jump\t// in\n    tag_111:\n        /* \"#utility.yul\":4906:4994   */\n      swap2\n      pop\n        /* \"#utility.yul\":4722:5000   */\n      pop\n        /* \"#utility.yul\":4660:5000   */\n      swap3\n      swap2\n      pop\n      pop\n      jump\t// out\n        /* \"#utility.yul\":5033:5262   */\n    tag_112:\n        /* \"#utility.yul\":5104:5109   */\n      0x00\n        /* \"#utility.yul\":5145:5147   */\n      0x60\n        /* \"#utility.yul\":5136:5142   */\n      dup3\n        /* \"#utility.yul\":5131:5134   */\n      dup5\n        /* \"#utility.yul\":5127:5143   */\n      sub\n        /* \"#utility.yul\":5123:5148   */\n      slt\n        /* \"#utility.yul\":5120:5232   */\n      iszero\n      tag_114\n      jumpi\n        /* \"#utility.yul\":5151:5230   */\n      tag_115\n      tag_116\n      jump\t// in\n    tag_115:\n        /* \"#utility.yul\":5120:5232   */\n    tag_114:\n        /* \"#utility.yul\":5250:5256   */\n      dup2\n        /* \"#utility.yul\":5241:5256   */\n      swap1\n      pop\n        /* \"#utility.yul\":5033:5262   */\n      swap3\n      swap2\n      pop\n      pop\n      jump\t// out\n        /* \"#utility.yul\":5295:6060   */\n    tag_117:\n        /* \"#utility.yul\":5367:5372   */\n      0x00\n        /* \"#utility.yul\":5411:5415   */\n      0x60\n        /* \"#utility.yul\":5399:5408   */\n      dup3\n        /* \"#utility.yul\":5394:5397   */\n      dup5\n        /* \"#utility.yul\":5390:5409   */\n      sub\n        /* \"#utility.yul\":5386:5416   */\n      slt\n        /* \"#utility.yul\":5383:5500   */\n      iszero\n      tag_119\n      jumpi\n        /* \"#utility.yul\":5419:5498   */\n      tag_120\n      tag_121\n      jump\t// in\n    tag_120:\n        /* \"#utility.yul\":5383:5500   */\n    tag_119:\n        /* \"#utility.yul\":5518:5539   */\n      tag_122\n        /* \"#utility.yul\":5534:5538   */\n      0x40\n        /* \"#utility.yul\":5518:5539   */\n      tag_33\n      jump\t// in\n    tag_122:\n        /* \"#utility.yul\":5509:5539   */\n      swap1\n      pop\n        /* \"#utility.yul\":5626:5627   */\n      0x00\n        /* \"#utility.yul\":5615:5624   */\n      dup3\n        /* \"#utility.yul\":5611:5628   */\n      add\n        /* \"#utility.yul\":5598:5629   */\n      calldataload\n        /* \"#utility.yul\":5656:5674   */\n      0xffffffffffffffff\n        /* \"#utility.yul\":5648:5654   */\n      dup2\n        /* \"#utility.yul\":5645:5675   */\n      gt\n        /* \"#utility.yul\":5642:5759   */\n      iszero\n      tag_123\n      jumpi\n        /* \"#utility.yul\":5678:5757   */\n      tag_124\n      tag_125\n      jump\t// in\n    tag_124:\n        /* \"#utility.yul\":5642:5759   */\n    tag_123:\n        /* \"#utility.yul\":5798:5857   */\n      tag_126\n        /* \"#utility.yul\":5853:5856   */\n      dup5\n        /* \"#utility.yul\":5844:5850   */\n      dup3\n        /* \"#utility.yul\":5833:5842   */\n      dup6\n        /* \"#utility.yul\":5829:5851   */\n      add\n        /* \"#utility.yul\":5798:5857   */\n      tag_107\n      jump\t// in\n    tag_126:\n        /* \"#utility.yul\":5791:5795   */\n      0x00\n        /* \"#utility.yul\":5784:5789   */\n      dup4\n        /* \"#utility.yul\":5780:5796   */\n      add\n        /* \"#utility.yul\":5773:5858   */\n      mstore\n        /* \"#utility.yul\":5549:5869   */\n      pop\n        /* \"#utility.yul\":5928:5930   */\n      0x20\n        /* \"#utility.yul\":5969:6041   */\n      tag_127\n        /* \"#utility.yul\":6037:6040   */\n      dup5\n        /* \"#utility.yul\":6028:6034   */\n      dup3\n        /* \"#utility.yul\":6017:6026   */\n      dup6\n        /* \"#utility.yul\":6013:6035   */\n      add\n        /* \"#utility.yul\":5969:6041   */\n      tag_71\n      jump\t// in\n    tag_127:\n        /* \"#utility.yul\":5962:5966   */\n      0x20\n        /* \"#utility.yul\":5955:5960   */\n      dup4\n        /* \"#utility.yul\":5951:5967   */\n      add\n        /* \"#utility.yul\":5944:6042   */\n      mstore\n        /* \"#utility.yul\":5879:6053   */\n      pop\n        /* \"#utility.yul\":5295:6060   */\n      swap3\n      swap2\n      pop\n      pop\n      jump\t// out\n        /* \"#utility.yul\":6066:6205   */\n    tag_41:\n        /* \"#utility.yul\":6112:6117   */\n      0x00\n        /* \"#utility.yul\":6150:6156   */\n      dup2\n        /* \"#utility.yul\":6137:6157   */\n      calldataload\n        /* \"#utility.yul\":6128:6157   */\n      swap1\n      pop\n        /* \"#utility.yul\":6166:6199   */\n      tag_129\n        /* \"#utility.yul\":6193:6198   */\n      dup2\n        /* \"#utility.yul\":6166:6199   */\n      tag_130\n      jump\t// in\n    tag_129:\n        /* \"#utility.yul\":6066:6205   */\n      swap3\n      swap2\n      pop\n      pop\n      jump\t// out\n        /* \"#utility.yul\":6211:6738   */\n    tag_13:\n        /* \"#utility.yul\":6281:6287   */\n      0x00\n        /* \"#utility.yul\":6289:6295   */\n      dup1\n        /* \"#utility.yul\":6338:6340   */\n      0x20\n        /* \"#utility.yul\":6326:6335   */\n      dup4\n        /* \"#utility.yul\":6317:6324   */\n      dup6\n        /* \"#utility.yul\":6313:6336   */\n      sub\n        /* \"#utility.yul\":6309:6341   */\n      slt\n        /* \"#utility.yul\":6306:6425   */\n      iszero\n      tag_132\n      jumpi\n        /* \"#utility.yul\":6344:6423   */\n      tag_133\n      tag_134\n      jump\t// in\n    tag_133:\n        /* \"#utility.yul\":6306:6425   */\n    tag_132:\n        /* \"#utility.yul\":6492:6493   */\n      0x00\n        /* \"#utility.yul\":6481:6490   */\n      dup4\n        /* \"#utility.yul\":6477:6494   */\n      add\n        /* \"#utility.yul\":6464:6495   */\n      calldataload\n        /* \"#utility.yul\":6522:6540   */\n      0xffffffffffffffff\n        /* \"#utility.yul\":6514:6520   */\n      dup2\n        /* \"#utility.yul\":6511:6541   */\n      gt\n        /* \"#utility.yul\":6508:6625   */\n      iszero\n      tag_135\n      jumpi\n        /* \"#utility.yul\":6544:6623   */\n      tag_136\n      tag_137\n      jump\t// in\n    tag_136:\n        /* \"#utility.yul\":6508:6625   */\n    tag_135:\n        /* \"#utility.yul\":6657:6721   */\n      tag_138\n        /* \"#utility.yul\":6713:6720   */\n      dup6\n        /* \"#utility.yul\":6704:6710   */\n      dup3\n        /* \"#utility.yul\":6693:6702   */\n      dup7\n        /* \"#utility.yul\":6689:6711   */\n      add\n        /* \"#utility.yul\":6657:6721   */\n      tag_91\n      jump\t// in\n    tag_138:\n        /* \"#utility.yul\":6639:6721   */\n      swap3\n      pop\n      swap3\n      pop\n        /* \"#utility.yul\":6435:6731   */\n      pop\n        /* \"#utility.yul\":6211:6738   */\n      swap3\n      pop\n      swap3\n      swap1\n      pop\n      jump\t// out\n        /* \"#utility.yul\":6744:8295   */\n    tag_7:\n        /* \"#utility.yul\":6903:6909   */\n      0x00\n        /* \"#utility.yul\":6911:6917   */\n      dup1\n        /* \"#utility.yul\":6919:6925   */\n      0x00\n        /* \"#utility.yul\":6927:6933   */\n      dup1\n        /* \"#utility.yul\":6935:6941   */\n      0x00\n        /* \"#utility.yul\":6943:6949   */\n      dup1\n        /* \"#utility.yul\":6951:6957   */\n      0x00\n        /* \"#utility.yul\":7000:7003   */\n      0xa0\n        /* \"#utility.yul\":6988:6997   */\n      dup9\n        /* \"#utility.yul\":6979:6986   */\n      dup11\n        /* \"#utility.yul\":6975:6998   */\n      sub\n        /* \"#utility.yul\":6971:7004   */\n      slt\n        /* \"#utility.yul\":6968:7088   */\n      iszero\n      tag_140\n      jumpi\n        /* \"#utility.yul\":7007:7086   */\n      tag_141\n      tag_134\n      jump\t// in\n    tag_141:\n        /* \"#utility.yul\":6968:7088   */\n    tag_140:\n        /* \"#utility.yul\":7155:7156   */\n      0x00\n        /* \"#utility.yul\":7144:7153   */\n      dup9\n        /* \"#utility.yul\":7140:7157   */\n      add\n        /* \"#utility.yul\":7127:7158   */\n      calldataload\n        /* \"#utility.yul\":7185:7203   */\n      0xffffffffffffffff\n        /* \"#utility.yul\":7177:7183   */\n      dup2\n        /* \"#utility.yul\":7174:7204   */\n      gt\n        /* \"#utility.yul\":7171:7288   */\n      iszero\n      tag_142\n      jumpi\n        /* \"#utility.yul\":7207:7286   */\n      tag_143\n      tag_137\n      jump\t// in\n    tag_143:\n        /* \"#utility.yul\":7171:7288   */\n    tag_142:\n        /* \"#utility.yul\":7320:7385   */\n      tag_144\n        /* \"#utility.yul\":7377:7384   */\n      dup11\n        /* \"#utility.yul\":7368:7374   */\n      dup3\n        /* \"#utility.yul\":7357:7366   */\n      dup12\n        /* \"#utility.yul\":7353:7375   */\n      add\n        /* \"#utility.yul\":7320:7385   */\n      tag_99\n      jump\t// in\n    tag_144:\n        /* \"#utility.yul\":7302:7385   */\n      swap8\n      pop\n      swap8\n      pop\n        /* \"#utility.yul\":7098:7395   */\n      pop\n        /* \"#utility.yul\":7434:7436   */\n      0x20\n        /* \"#utility.yul\":7460:7513   */\n      tag_145\n        /* \"#utility.yul\":7505:7512   */\n      dup11\n        /* \"#utility.yul\":7496:7502   */\n      dup3\n        /* \"#utility.yul\":7485:7494   */\n      dup12\n        /* \"#utility.yul\":7481:7503   */\n      add\n        /* \"#utility.yul\":7460:7513   */\n      tag_41\n      jump\t// in\n    tag_145:\n        /* \"#utility.yul\":7450:7513   */\n      swap6\n      pop\n        /* \"#utility.yul\":7405:7523   */\n      pop\n        /* \"#utility.yul\":7562:7564   */\n      0x40\n        /* \"#utility.yul\":7588:7641   */\n      tag_146\n        /* \"#utility.yul\":7633:7640   */\n      dup11\n        /* \"#utility.yul\":7624:7630   */\n      dup3\n        /* \"#utility.yul\":7613:7622   */\n      dup12\n        /* \"#utility.yul\":7609:7631   */\n      add\n        /* \"#utility.yul\":7588:7641   */\n      tag_63\n      jump\t// in\n    tag_146:\n        /* \"#utility.yul\":7578:7641   */\n      swap5\n      pop\n        /* \"#utility.yul\":7533:7651   */\n      pop\n        /* \"#utility.yul\":7718:7720   */\n      0x60\n        /* \"#utility.yul\":7707:7716   */\n      dup9\n        /* \"#utility.yul\":7703:7721   */\n      add\n        /* \"#utility.yul\":7690:7722   */\n      calldataload\n        /* \"#utility.yul\":7749:7767   */\n      0xffffffffffffffff\n        /* \"#utility.yul\":7741:7747   */\n      dup2\n        /* \"#utility.yul\":7738:7768   */\n      gt\n        /* \"#utility.yul\":7735:7852   */\n      iszero\n      tag_147\n      jumpi\n        /* \"#utility.yul\":7771:7850   */\n      tag_148\n      tag_137\n      jump\t// in\n    tag_148:\n        /* \"#utility.yul\":7735:7852   */\n    tag_147:\n        /* \"#utility.yul\":7884:7964   */\n      tag_149\n        /* \"#utility.yul\":7956:7963   */\n      dup11\n        /* \"#utility.yul\":7947:7953   */\n      dup3\n        /* \"#utility.yul\":7936:7945   */\n      dup12\n        /* \"#utility.yul\":7932:7954   */\n      add\n        /* \"#utility.yul\":7884:7964   */\n      tag_77\n      jump\t// in\n    tag_149:\n        /* \"#utility.yul\":7866:7964   */\n      swap4\n      pop\n      swap4\n      pop\n        /* \"#utility.yul\":7661:7974   */\n      pop\n        /* \"#utility.yul\":8041:8044   */\n      0x80\n        /* \"#utility.yul\":8030:8039   */\n      dup9\n        /* \"#utility.yul\":8026:8045   */\n      add\n        /* \"#utility.yul\":8013:8046   */\n      calldataload\n        /* \"#utility.yul\":8073:8091   */\n      0xffffffffffffffff\n        /* \"#utility.yul\":8065:8071   */\n      dup2\n        /* \"#utility.yul\":8062:8092   */\n      gt\n        /* \"#utility.yul\":8059:8176   */\n      iszero\n      tag_150\n      jumpi\n        /* \"#utility.yul\":8095:8174   */\n      tag_151\n      tag_137\n      jump\t// in\n    tag_151:\n        /* \"#utility.yul\":8059:8176   */\n    tag_150:\n        /* \"#utility.yul\":8200:8278   */\n      tag_152\n        /* \"#utility.yul\":8270:8277   */\n      dup11\n        /* \"#utility.yul\":8261:8267   */\n      dup3\n        /* \"#utility.yul\":8250:8259   */\n      dup12\n        /* \"#utility.yul\":8246:8268   */\n      add\n        /* \"#utility.yul\":8200:8278   */\n      tag_112\n      jump\t// in\n    tag_152:\n        /* \"#utility.yul\":8190:8278   */\n      swap2\n      pop\n        /* \"#utility.yul\":7984:8288   */\n      pop\n        /* \"#utility.yul\":6744:8295   */\n      swap3\n      swap6\n      swap9\n      swap2\n      swap5\n      swap8\n      pop\n      swap3\n      swap6\n      pop\n      jump\t// out\n        /* \"#utility.yul\":8301:9824   */\n    tag_24:\n        /* \"#utility.yul\":8462:8468   */\n      0x00\n        /* \"#utility.yul\":8470:8476   */\n      dup1\n        /* \"#utility.yul\":8478:8484   */\n      0x00\n        /* \"#utility.yul\":8486:8492   */\n      dup1\n        /* \"#utility.yul\":8494:8500   */\n      0x00\n        /* \"#utility.yul\":8543:8546   */\n      0xa0\n        /* \"#utility.yul\":8531:8540   */\n      dup7\n        /* \"#utility.yul\":8522:8529   */\n      dup9\n        /* \"#utility.yul\":8518:8541   */\n      sub\n        /* \"#utility.yul\":8514:8547   */\n      slt\n        /* \"#utility.yul\":8511:8631   */\n      iszero\n      tag_154\n      jumpi\n        /* \"#utility.yul\":8550:8629   */\n      tag_155\n      tag_134\n      jump\t// in\n    tag_155:\n        /* \"#utility.yul\":8511:8631   */\n    tag_154:\n        /* \"#utility.yul\":8698:8699   */\n      0x00\n        /* \"#utility.yul\":8687:8696   */\n      dup7\n        /* \"#utility.yul\":8683:8700   */\n      add\n        /* \"#utility.yul\":8670:8701   */\n      calldataload\n        /* \"#utility.yul\":8728:8746   */\n      0xffffffffffffffff\n        /* \"#utility.yul\":8720:8726   */\n      dup2\n        /* \"#utility.yul\":8717:8747   */\n      gt\n        /* \"#utility.yul\":8714:8831   */\n      iszero\n      tag_156\n      jumpi\n        /* \"#utility.yul\":8750:8829   */\n      tag_157\n      tag_137\n      jump\t// in\n    tag_157:\n        /* \"#utility.yul\":8714:8831   */\n    tag_156:\n        /* \"#utility.yul\":8855:8918   */\n      tag_158\n        /* \"#utility.yul\":8910:8917   */\n      dup9\n        /* \"#utility.yul\":8901:8907   */\n      dup3\n        /* \"#utility.yul\":8890:8899   */\n      dup10\n        /* \"#utility.yul\":8886:8908   */\n      add\n        /* \"#utility.yul\":8855:8918   */\n      tag_107\n      jump\t// in\n    tag_158:\n        /* \"#utility.yul\":8845:8918   */\n      swap6\n      pop\n        /* \"#utility.yul\":8641:8928   */\n      pop\n        /* \"#utility.yul\":8967:8969   */\n      0x20\n        /* \"#utility.yul\":8993:9046   */\n      tag_159\n        /* \"#utility.yul\":9038:9045   */\n      dup9\n        /* \"#utility.yul\":9029:9035   */\n      dup3\n        /* \"#utility.yul\":9018:9027   */\n      dup10\n        /* \"#utility.yul\":9014:9036   */\n      add\n        /* \"#utility.yul\":8993:9046   */\n      tag_41\n      jump\t// in\n    tag_159:\n        /* \"#utility.yul\":8983:9046   */\n      swap5\n      pop\n        /* \"#utility.yul\":8938:9056   */\n      pop\n        /* \"#utility.yul\":9095:9097   */\n      0x40\n        /* \"#utility.yul\":9121:9182   */\n      tag_160\n        /* \"#utility.yul\":9174:9181   */\n      dup9\n        /* \"#utility.yul\":9165:9171   */\n      dup3\n        /* \"#utility.yul\":9154:9163   */\n      dup10\n        /* \"#utility.yul\":9150:9172   */\n      add\n        /* \"#utility.yul\":9121:9182   */\n      tag_67\n      jump\t// in\n    tag_160:\n        /* \"#utility.yul\":9111:9182   */\n      swap4\n      pop\n        /* \"#utility.yul\":9066:9192   */\n      pop\n        /* \"#utility.yul\":9259:9261   */\n      0x60\n        /* \"#utility.yul\":9248:9257   */\n      dup7\n        /* \"#utility.yul\":9244:9262   */\n      add\n        /* \"#utility.yul\":9231:9263   */\n      calldataload\n        /* \"#utility.yul\":9290:9308   */\n      0xffffffffffffffff\n        /* \"#utility.yul\":9282:9288   */\n      dup2\n        /* \"#utility.yul\":9279:9309   */\n      gt\n        /* \"#utility.yul\":9276:9393   */\n      iszero\n      tag_161\n      jumpi\n        /* \"#utility.yul\":9312:9391   */\n      tag_162\n      tag_137\n      jump\t// in\n    tag_162:\n        /* \"#utility.yul\":9276:9393   */\n    tag_161:\n        /* \"#utility.yul\":9417:9495   */\n      tag_163\n        /* \"#utility.yul\":9487:9494   */\n      dup9\n        /* \"#utility.yul\":9478:9484   */\n      dup3\n        /* \"#utility.yul\":9467:9476   */\n      dup10\n        /* \"#utility.yul\":9463:9485   */\n      add\n        /* \"#utility.yul\":9417:9495   */\n      tag_86\n      jump\t// in\n    tag_163:\n        /* \"#utility.yul\":9407:9495   */\n      swap3\n      pop\n        /* \"#utility.yul\":9202:9505   */\n      pop\n        /* \"#utility.yul\":9572:9575   */\n      0x80\n        /* \"#utility.yul\":9561:9570   */\n      dup7\n        /* \"#utility.yul\":9557:9576   */\n      add\n        /* \"#utility.yul\":9544:9577   */\n      calldataload\n        /* \"#utility.yul\":9604:9622   */\n      0xffffffffffffffff\n        /* \"#utility.yul\":9596:9602   */\n      dup2\n        /* \"#utility.yul\":9593:9623   */\n      gt\n        /* \"#utility.yul\":9590:9707   */\n      iszero\n      tag_164\n      jumpi\n        /* \"#utility.yul\":9626:9705   */\n      tag_165\n      tag_137\n      jump\t// in\n    tag_165:\n        /* \"#utility.yul\":9590:9707   */\n    tag_164:\n        /* \"#utility.yul\":9731:9807   */\n      tag_166\n        /* \"#utility.yul\":9799:9806   */\n      dup9\n        /* \"#utility.yul\":9790:9796   */\n      dup3\n        /* \"#utility.yul\":9779:9788   */\n      dup10\n        /* \"#utility.yul\":9775:9797   */\n      add\n        /* \"#utility.yul\":9731:9807   */\n      tag_117\n      jump\t// in\n    tag_166:\n        /* \"#utility.yul\":9721:9807   */\n      swap2\n      pop\n        /* \"#utility.yul\":9515:9817   */\n      pop\n        /* \"#utility.yul\":8301:9824   */\n      swap3\n      swap6\n      pop\n      swap3\n      swap6\n      swap1\n      swap4\n      pop\n      jump\t// out\n        /* \"#utility.yul\":9830:10009   */\n    tag_167:\n        /* \"#utility.yul\":9899:9909   */\n      0x00\n        /* \"#utility.yul\":9920:9966   */\n      tag_169\n        /* \"#utility.yul\":9962:9965   */\n      dup4\n        /* \"#utility.yul\":9954:9960   */\n      dup4\n        /* \"#utility.yul\":9920:9966   */\n      tag_170\n      jump\t// in\n    tag_169:\n        /* \"#utility.yul\":9998:10002   */\n      0x20\n        /* \"#utility.yul\":9993:9996   */\n      dup4\n        /* \"#utility.yul\":9989:10003   */\n      add\n        /* \"#utility.yul\":9975:10003   */\n      swap1\n      pop\n        /* \"#utility.yul\":9830:10009   */\n      swap3\n      swap2\n      pop\n      pop\n      jump\t// out\n        /* \"#utility.yul\":10015:10133   */\n    tag_171:\n        /* \"#utility.yul\":10102:10126   */\n      tag_173\n        /* \"#utility.yul\":10120:10125   */\n      dup2\n        /* \"#utility.yul\":10102:10126   */\n      tag_174\n      jump\t// in\n    tag_173:\n        /* \"#utility.yul\":10097:10100   */\n      dup3\n        /* \"#utility.yul\":10090:10127   */\n      mstore\n        /* \"#utility.yul\":10015:10133   */\n      pop\n      pop\n      jump\t// out\n        /* \"#utility.yul\":10171:10331   */\n    tag_175:\n        /* \"#utility.yul\":10284:10325   */\n      tag_177\n        /* \"#utility.yul\":10320:10324   */\n      0x40\n        /* \"#utility.yul\":10315:10318   */\n      dup4\n        /* \"#utility.yul\":10308:10313   */\n      dup4\n        /* \"#utility.yul\":10284:10325   */\n      tag_62\n      jump\t// in\n    tag_177:\n        /* \"#utility.yul\":10171:10331   */\n      pop\n      pop\n      jump\t// out\n        /* \"#utility.yul\":10369:11043   */\n    tag_178:\n        /* \"#utility.yul\":10495:10547   */\n      tag_180\n        /* \"#utility.yul\":10541:10546   */\n      dup2\n        /* \"#utility.yul\":10495:10547   */\n      tag_181\n      jump\t// in\n    tag_180:\n        /* \"#utility.yul\":10563:10637   */\n      tag_182\n        /* \"#utility.yul\":10630:10636   */\n      dup2\n        /* \"#utility.yul\":10625:10628   */\n      dup5\n        /* \"#utility.yul\":10563:10637   */\n      tag_183\n      jump\t// in\n    tag_182:\n        /* \"#utility.yul\":10556:10637   */\n      swap3\n      pop\n        /* \"#utility.yul\":10661:10715   */\n      tag_184\n        /* \"#utility.yul\":10709:10714   */\n      dup3\n        /* \"#utility.yul\":10661:10715   */\n      tag_185\n      jump\t// in\n    tag_184:\n        /* \"#utility.yul\":10738:10745   */\n      dup1\n        /* \"#utility.yul\":10769:10770   */\n      0x00\n        /* \"#utility.yul\":10754:11036   */\n    tag_186:\n        /* \"#utility.yul\":10779:10785   */\n      dup4\n        /* \"#utility.yul\":10776:10777   */\n      dup2\n        /* \"#utility.yul\":10773:10786   */\n      lt\n        /* \"#utility.yul\":10754:11036   */\n      iszero\n      tag_188\n      jumpi\n        /* \"#utility.yul\":10855:10861   */\n      dup2\n        /* \"#utility.yul\":10849:10862   */\n      mload\n        /* \"#utility.yul\":10882:10945   */\n      tag_189\n        /* \"#utility.yul\":10941:10944   */\n      dup8\n        /* \"#utility.yul\":10926:10939   */\n      dup3\n        /* \"#utility.yul\":10882:10945   */\n      tag_167\n      jump\t// in\n    tag_189:\n        /* \"#utility.yul\":10875:10945   */\n      swap7\n      pop\n        /* \"#utility.yul\":10968:11026   */\n      tag_190\n        /* \"#utility.yul\":11019:11025   */\n      dup4\n        /* \"#utility.yul\":10968:11026   */\n      tag_191\n      jump\t// in\n    tag_190:\n        /* \"#utility.yul\":10958:11026   */\n      swap3\n      pop\n        /* \"#utility.yul\":10814:11036   */\n      pop\n        /* \"#utility.yul\":10801:10802   */\n      0x01\n        /* \"#utility.yul\":10798:10799   */\n      dup2\n        /* \"#utility.yul\":10794:10803   */\n      add\n        /* \"#utility.yul\":10789:10803   */\n      swap1\n      pop\n        /* \"#utility.yul\":10754:11036   */\n      jump(tag_186)\n    tag_188:\n        /* \"#utility.yul\":10758:10772   */\n      pop\n        /* \"#utility.yul\":10471:11043   */\n      pop\n      pop\n      pop\n        /* \"#utility.yul\":10369:11043   */\n      pop\n      pop\n      jump\t// out\n        /* \"#utility.yul\":11079:11616   */\n    tag_192:\n        /* \"#utility.yul\":11207:11210   */\n      0x00\n        /* \"#utility.yul\":11228:11314   */\n      tag_194\n        /* \"#utility.yul\":11307:11313   */\n      dup4\n        /* \"#utility.yul\":11302:11305   */\n      dup6\n        /* \"#utility.yul\":11228:11314   */\n      tag_195\n      jump\t// in\n    tag_194:\n        /* \"#utility.yul\":11221:11314   */\n      swap4\n      pop\n        /* \"#utility.yul\":11338:11404   */\n      0x07ffffffffffffffffffffffffffffffffffffffffffffffffffffffffffffff\n        /* \"#utility.yul\":11330:11336   */\n      dup4\n        /* \"#utility.yul\":11327:11405   */\n      gt\n        /* \"#utility.yul\":11324:11489   */\n      iszero\n      tag_196\n      jumpi\n        /* \"#utility.yul\":11408:11487   */\n      tag_197\n      tag_198\n      jump\t// in\n    tag_197:\n        /* \"#utility.yul\":11324:11489   */\n    tag_196:\n        /* \"#utility.yul\":11520:11524   */\n      0x20\n        /* \"#utility.yul\":11512:11518   */\n      dup4\n        /* \"#utility.yul\":11508:11525   */\n      mul\n        /* \"#utility.yul\":11498:11525   */\n      swap3\n      pop\n        /* \"#utility.yul\":11535:11578   */\n      tag_199\n        /* \"#utility.yul\":11571:11577   */\n      dup4\n        /* \"#utility.yul\":11566:11569   */\n      dup6\n        /* \"#utility.yul\":11559:11564   */\n      dup5\n        /* \"#utility.yul\":11535:11578   */\n      tag_62\n      jump\t// in\n    tag_199:\n        /* \"#utility.yul\":11603:11609   */\n      dup3\n        /* \"#utility.yul\":11598:11601   */\n      dup5\n        /* \"#utility.yul\":11594:11610   */\n      add\n        /* \"#utility.yul\":11587:11610   */\n      swap1\n      pop\n        /* \"#utility.yul\":11079:11616   */\n      swap4\n      swap3\n      pop\n      pop\n      pop\n      jump\t// out\n        /* \"#utility.yul\":11652:12384   */\n    tag_200:\n        /* \"#utility.yul\":11771:11774   */\n      0x00\n        /* \"#utility.yul\":11800:11854   */\n      tag_202\n        /* \"#utility.yul\":11848:11853   */\n      dup3\n        /* \"#utility.yul\":11800:11854   */\n      tag_203\n      jump\t// in\n    tag_202:\n        /* \"#utility.yul\":11870:11956   */\n      tag_204\n        /* \"#utility.yul\":11949:11955   */\n      dup2\n        /* \"#utility.yul\":11944:11947   */\n      dup6\n        /* \"#utility.yul\":11870:11956   */\n      tag_195\n      jump\t// in\n    tag_204:\n        /* \"#utility.yul\":11863:11956   */\n      swap4\n      pop\n        /* \"#utility.yul\":11980:12036   */\n      tag_205\n        /* \"#utility.yul\":12030:12035   */\n      dup4\n        /* \"#utility.yul\":11980:12036   */\n      tag_206\n      jump\t// in\n    tag_205:\n        /* \"#utility.yul\":12059:12066   */\n      dup1\n        /* \"#utility.yul\":12090:12091   */\n      0x00\n        /* \"#utility.yul\":12075:12359   */\n    tag_207:\n        /* \"#utility.yul\":12100:12106   */\n      dup4\n        /* \"#utility.yul\":12097:12098   */\n      dup2\n        /* \"#utility.yul\":12094:12107   */\n      lt\n        /* \"#utility.yul\":12075:12359   */\n      iszero\n      tag_209\n      jumpi\n        /* \"#utility.yul\":12176:12182   */\n      dup2\n        /* \"#utility.yul\":12170:12183   */\n      mload\n        /* \"#utility.yul\":12203:12266   */\n      tag_210\n        /* \"#utility.yul\":12262:12265   */\n      dup9\n        /* \"#utility.yul\":12247:12260   */\n      dup3\n        /* \"#utility.yul\":12203:12266   */\n      tag_167\n      jump\t// in\n    tag_210:\n        /* \"#utility.yul\":12196:12266   */\n      swap8\n      pop\n        /* \"#utility.yul\":12289:12349   */\n      tag_211\n        /* \"#utility.yul\":12342:12348   */\n      dup4\n        /* \"#utility.yul\":12289:12349   */\n      tag_212\n      jump\t// in\n    tag_211:\n        /* \"#utility.yul\":12279:12349   */\n      swap3\n      pop\n        /* \"#utility.yul\":12135:12359   */\n      pop\n        /* \"#utility.yul\":12122:12123   */\n      0x01\n        /* \"#utility.yul\":12119:12120   */\n      dup2\n        /* \"#utility.yul\":12115:12124   */\n      add\n        /* \"#utility.yul\":12110:12124   */\n      swap1\n      pop\n        /* \"#utility.yul\":12075:12359   */\n      jump(tag_207)\n    tag_209:\n        /* \"#utility.yul\":12079:12093   */\n      pop\n        /* \"#utility.yul\":12375:12378   */\n      dup6\n        /* \"#utility.yul\":12368:12378   */\n      swap4\n      pop\n        /* \"#utility.yul\":11776:12384   */\n      pop\n      pop\n      pop\n        /* \"#utility.yul\":11652:12384   */\n      swap3\n      swap2\n      pop\n      pop\n      jump\t// out\n        /* \"#utility.yul\":12390:12750   */\n    tag_213:\n        /* \"#utility.yul\":12476:12479   */\n      0x00\n        /* \"#utility.yul\":12504:12542   */\n      tag_215\n        /* \"#utility.yul\":12536:12541   */\n      dup3\n        /* \"#utility.yul\":12504:12542   */\n      tag_216\n      jump\t// in\n    tag_215:\n        /* \"#utility.yul\":12558:12628   */\n      tag_217\n        /* \"#utility.yul\":12621:12627   */\n      dup2\n        /* \"#utility.yul\":12616:12619   */\n      dup6\n        /* \"#utility.yul\":12558:12628   */\n      tag_218\n      jump\t// in\n    tag_217:\n        /* \"#utility.yul\":12551:12628   */\n      swap4\n      pop\n        /* \"#utility.yul\":12637:12689   */\n      tag_219\n        /* \"#utility.yul\":12682:12688   */\n      dup2\n        /* \"#utility.yul\":12677:12680   */\n      dup6\n        /* \"#utility.yul\":12670:12674   */\n      0x20\n        /* \"#utility.yul\":12663:12668   */\n      dup7\n        /* \"#utility.yul\":12659:12675   */\n      add\n        /* \"#utility.yul\":12637:12689   */\n      tag_220\n      jump\t// in\n    tag_219:\n        /* \"#utility.yul\":12714:12743   */\n      tag_221\n        /* \"#utility.yul\":12736:12742   */\n      dup2\n        /* \"#utility.yul\":12714:12743   */\n      tag_222\n      jump\t// in\n    tag_221:\n        /* \"#utility.yul\":12709:12712   */\n      dup5\n        /* \"#utility.yul\":12705:12744   */\n      add\n        /* \"#utility.yul\":12698:12744   */\n      swap2\n      pop\n        /* \"#utility.yul\":12480:12750   */\n      pop\n        /* \"#utility.yul\":12390:12750   */\n      swap3\n      swap2\n      pop\n      pop\n      jump\t// out\n        /* \"#utility.yul\":12780:13064   */\n    tag_223:\n        /* \"#utility.yul\":12868:12871   */\n      0x00\n        /* \"#utility.yul\":12889:12950   */\n      tag_225\n        /* \"#utility.yul\":12943:12949   */\n      dup4\n        /* \"#utility.yul\":12938:12941   */\n      dup6\n        /* \"#utility.yul\":12889:12950   */\n      tag_226\n      jump\t// in\n    tag_225:\n        /* \"#utility.yul\":12882:12950   */\n      swap4\n      pop\n        /* \"#utility.yul\":12960:13003   */\n      tag_227\n        /* \"#utility.yul\":12996:13002   */\n      dup4\n        /* \"#utility.yul\":12991:12994   */\n      dup6\n        /* \"#utility.yul\":12984:12989   */\n      dup5\n        /* \"#utility.yul\":12960:13003   */\n      tag_62\n      jump\t// in\n    tag_227:\n        /* \"#utility.yul\":13028:13057   */\n      tag_228\n        /* \"#utility.yul\":13050:13056   */\n      dup4\n        /* \"#utility.yul\":13028:13057   */\n      tag_222\n      jump\t// in\n    tag_228:\n        /* \"#utility.yul\":13023:13026   */\n      dup5\n        /* \"#utility.yul\":13019:13058   */\n      add\n        /* \"#utility.yul\":13012:13058   */\n      swap1\n      pop\n        /* \"#utility.yul\":12780:13064   */\n      swap4\n      swap3\n      pop\n      pop\n      pop\n      jump\t// out\n        /* \"#utility.yul\":13094:13398   */\n    tag_229:\n        /* \"#utility.yul\":13192:13195   */\n      0x00\n        /* \"#utility.yul\":13213:13284   */\n      tag_231\n        /* \"#utility.yul\":13277:13283   */\n      dup4\n        /* \"#utility.yul\":13272:13275   */\n      dup6\n        /* \"#utility.yul\":13213:13284   */\n      tag_232\n      jump\t// in\n    tag_231:\n        /* \"#utility.yul\":13206:13284   */\n      swap4\n      pop\n        /* \"#utility.yul\":13294:13337   */\n      tag_233\n        /* \"#utility.yul\":13330:13336   */\n      dup4\n        /* \"#utility.yul\":13325:13328   */\n      dup6\n        /* \"#utility.yul\":13318:13323   */\n      dup5\n        /* \"#utility.yul\":13294:13337   */\n      tag_62\n      jump\t// in\n    tag_233:\n        /* \"#utility.yul\":13362:13391   */\n      tag_234\n        /* \"#utility.yul\":13384:13390   */\n      dup4\n        /* \"#utility.yul\":13362:13391   */\n      tag_222\n      jump\t// in\n    tag_234:\n        /* \"#utility.yul\":13357:13360   */\n      dup5\n        /* \"#utility.yul\":13353:13392   */\n      add\n        /* \"#utility.yul\":13346:13392   */\n      swap1\n      pop\n        /* \"#utility.yul\":13094:13398   */\n      swap4\n      swap3\n      pop\n      pop\n      pop\n      jump\t// out\n        /* \"#utility.yul\":13404:13748   */\n    tag_235:\n        /* \"#utility.yul\":13482:13485   */\n      0x00\n        /* \"#utility.yul\":13510:13549   */\n      tag_237\n        /* \"#utility.yul\":13543:13548   */\n      dup3\n        /* \"#utility.yul\":13510:13549   */\n      tag_238\n      jump\t// in\n    tag_237:\n        /* \"#utility.yul\":13565:13626   */\n      tag_239\n        /* \"#utility.yul\":13619:13625   */\n      dup2\n        /* \"#utility.yul\":13614:13617   */\n      dup6\n        /* \"#utility.yul\":13565:13626   */\n      tag_226\n      jump\t// in\n    tag_239:\n        /* \"#utility.yul\":13558:13626   */\n      swap4\n      pop\n        /* \"#utility.yul\":13635:13687   */\n      tag_240\n        /* \"#utility.yul\":13680:13686   */\n      dup2\n        /* \"#utility.yul\":13675:13678   */\n      dup6\n        /* \"#utility.yul\":13668:13672   */\n      0x20\n        /* \"#utility.yul\":13661:13666   */\n      dup7\n        /* \"#utility.yul\":13657:13673   */\n      add\n        /* \"#utility.yul\":13635:13687   */\n      tag_220\n      jump\t// in\n    tag_240:\n        /* \"#utility.yul\":13712:13741   */\n      tag_241\n        /* \"#utility.yul\":13734:13740   */\n      dup2\n        /* \"#utility.yul\":13712:13741   */\n      tag_222\n      jump\t// in\n    tag_241:\n        /* \"#utility.yul\":13707:13710   */\n      dup5\n        /* \"#utility.yul\":13703:13742   */\n      add\n        /* \"#utility.yul\":13696:13742   */\n      swap2\n      pop\n        /* \"#utility.yul\":13486:13748   */\n      pop\n        /* \"#utility.yul\":13404:13748   */\n      swap3\n      swap2\n      pop\n      pop\n      jump\t// out\n        /* \"#utility.yul\":13754:14118   */\n    tag_242:\n        /* \"#utility.yul\":13842:13845   */\n      0x00\n        /* \"#utility.yul\":13870:13909   */\n      tag_244\n        /* \"#utility.yul\":13903:13908   */\n      dup3\n        /* \"#utility.yul\":13870:13909   */\n      tag_238\n      jump\t// in\n    tag_244:\n        /* \"#utility.yul\":13925:13996   */\n      tag_245\n        /* \"#utility.yul\":13989:13995   */\n      dup2\n        /* \"#utility.yul\":13984:13987   */\n      dup6\n        /* \"#utility.yul\":13925:13996   */\n      tag_232\n      jump\t// in\n    tag_245:\n        /* \"#utility.yul\":13918:13996   */\n      swap4\n      pop\n        /* \"#utility.yul\":14005:14057   */\n      tag_246\n        /* \"#utility.yul\":14050:14056   */\n      dup2\n        /* \"#utility.yul\":14045:14048   */\n      dup6\n        /* \"#utility.yul\":14038:14042   */\n      0x20\n        /* \"#utility.yul\":14031:14036   */\n      dup7\n        /* \"#utility.yul\":14027:14043   */\n      add\n        /* \"#utility.yul\":14005:14057   */\n      tag_220\n      jump\t// in\n    tag_246:\n        /* \"#utility.yul\":14082:14111   */\n      tag_247\n        /* \"#utility.yul\":14104:14110   */\n      dup2\n        /* \"#utility.yul\":14082:14111   */\n      tag_222\n      jump\t// in\n    tag_247:\n        /* \"#utility.yul\":14077:14080   */\n      dup5\n        /* \"#utility.yul\":14073:14112   */\n      add\n        /* \"#utility.yul\":14066:14112   */\n      swap2\n      pop\n        /* \"#utility.yul\":13846:14118   */\n      pop\n        /* \"#utility.yul\":13754:14118   */\n      swap3\n      swap2\n      pop\n      pop\n      jump\t// out\n        /* \"#utility.yul\":14174:14947   */\n    tag_248:\n        /* \"#utility.yul\":14291:14294   */\n      0x00\n        /* \"#utility.yul\":14327:14331   */\n      0x60\n        /* \"#utility.yul\":14322:14325   */\n      dup4\n        /* \"#utility.yul\":14318:14332   */\n      add\n        /* \"#utility.yul\":14411:14473   */\n      tag_250\n        /* \"#utility.yul\":14467:14471   */\n      0x00\n        /* \"#utility.yul\":14460:14465   */\n      dup5\n        /* \"#utility.yul\":14456:14472   */\n      add\n        /* \"#utility.yul\":14449:14454   */\n      dup5\n        /* \"#utility.yul\":14411:14473   */\n      tag_251\n      jump\t// in\n    tag_250:\n        /* \"#utility.yul\":14520:14523   */\n      dup6\n        /* \"#utility.yul\":14514:14518   */\n      dup4\n        /* \"#utility.yul\":14510:14524   */\n      sub\n        /* \"#utility.yul\":14503:14507   */\n      0x00\n        /* \"#utility.yul\":14498:14501   */\n      dup8\n        /* \"#utility.yul\":14494:14508   */\n      add\n        /* \"#utility.yul\":14487:14525   */\n      mstore\n        /* \"#utility.yul\":14546:14635   */\n      tag_252\n        /* \"#utility.yul\":14630:14634   */\n      dup4\n        /* \"#utility.yul\":14616:14628   */\n      dup3\n        /* \"#utility.yul\":14602:14614   */\n      dup5\n        /* \"#utility.yul\":14546:14635   */\n      tag_223\n      jump\t// in\n    tag_252:\n        /* \"#utility.yul\":14538:14635   */\n      swap3\n      pop\n        /* \"#utility.yul\":14342:14646   */\n      pop\n      pop\n        /* \"#utility.yul\":14711:14786   */\n      tag_253\n        /* \"#utility.yul\":14780:14784   */\n      0x20\n        /* \"#utility.yul\":14773:14778   */\n      dup5\n        /* \"#utility.yul\":14769:14785   */\n      add\n        /* \"#utility.yul\":14762:14767   */\n      dup5\n        /* \"#utility.yul\":14711:14786   */\n      tag_254\n      jump\t// in\n    tag_253:\n        /* \"#utility.yul\":14799:14910   */\n      tag_255\n        /* \"#utility.yul\":14904:14908   */\n      0x20\n        /* \"#utility.yul\":14899:14902   */\n      dup7\n        /* \"#utility.yul\":14895:14909   */\n      add\n        /* \"#utility.yul\":14881:14893   */\n      dup3\n        /* \"#utility.yul\":14799:14910   */\n      tag_175\n      jump\t// in\n    tag_255:\n        /* \"#utility.yul\":14656:14920   */\n      pop\n        /* \"#utility.yul\":14937:14941   */\n      dup1\n        /* \"#utility.yul\":14930:14941   */\n      swap2\n      pop\n        /* \"#utility.yul\":14296:14947   */\n      pop\n        /* \"#utility.yul\":14174:14947   */\n      swap3\n      swap2\n      pop\n      pop\n      jump\t// out\n        /* \"#utility.yul\":15003:15651   */\n    tag_256:\n        /* \"#utility.yul\":15118:15121   */\n      0x00\n        /* \"#utility.yul\":15154:15158   */\n      0x60\n        /* \"#utility.yul\":15149:15152   */\n      dup4\n        /* \"#utility.yul\":15145:15159   */\n      add\n        /* \"#utility.yul\":15241:15245   */\n      0x00\n        /* \"#utility.yul\":15234:15239   */\n      dup4\n        /* \"#utility.yul\":15230:15246   */\n      add\n        /* \"#utility.yul\":15224:15247   */\n      mload\n        /* \"#utility.yul\":15294:15297   */\n      dup5\n        /* \"#utility.yul\":15288:15292   */\n      dup3\n        /* \"#utility.yul\":15284:15298   */\n      sub\n        /* \"#utility.yul\":15277:15281   */\n      0x00\n        /* \"#utility.yul\":15272:15275   */\n      dup7\n        /* \"#utility.yul\":15268:15282   */\n      add\n        /* \"#utility.yul\":15261:15299   */\n      mstore\n        /* \"#utility.yul\":15320:15393   */\n      tag_258\n        /* \"#utility.yul\":15388:15392   */\n      dup3\n        /* \"#utility.yul\":15374:15386   */\n      dup3\n        /* \"#utility.yul\":15320:15393   */\n      tag_235\n      jump\t// in\n    tag_258:\n        /* \"#utility.yul\":15312:15393   */\n      swap2\n      pop\n        /* \"#utility.yul\":15169:15404   */\n      pop\n        /* \"#utility.yul\":15486:15490   */\n      0x20\n        /* \"#utility.yul\":15479:15484   */\n      dup4\n        /* \"#utility.yul\":15475:15491   */\n      add\n        /* \"#utility.yul\":15469:15492   */\n      mload\n        /* \"#utility.yul\":15505:15614   */\n      tag_259\n        /* \"#utility.yul\":15608:15612   */\n      0x20\n        /* \"#utility.yul\":15603:15606   */\n      dup7\n        /* \"#utility.yul\":15599:15613   */\n      add\n        /* \"#utility.yul\":15585:15597   */\n      dup3\n        /* \"#utility.yul\":15505:15614   */\n      tag_178\n      jump\t// in\n    tag_259:\n        /* \"#utility.yul\":15414:15624   */\n      pop\n        /* \"#utility.yul\":15641:15645   */\n      dup1\n        /* \"#utility.yul\":15634:15645   */\n      swap2\n      pop\n        /* \"#utility.yul\":15123:15651   */\n      pop\n        /* \"#utility.yul\":15003:15651   */\n      swap3\n      swap2\n      pop\n      pop\n      jump\t// out\n        /* \"#utility.yul\":15657:15765   */\n    tag_170:\n        /* \"#utility.yul\":15734:15758   */\n      tag_261\n        /* \"#utility.yul\":15752:15757   */\n      dup2\n        /* \"#utility.yul\":15734:15758   */\n      tag_262\n      jump\t// in\n    tag_261:\n        /* \"#utility.yul\":15729:15732   */\n      dup3\n        /* \"#utility.yul\":15722:15759   */\n      mstore\n        /* \"#utility.yul\":15657:15765   */\n      pop\n      pop\n      jump\t// out\n        /* \"#utility.yul\":15771:15889   */\n    tag_263:\n        /* \"#utility.yul\":15858:15882   */\n      tag_265\n        /* \"#utility.yul\":15876:15881   */\n      dup2\n        /* \"#utility.yul\":15858:15882   */\n      tag_262\n      jump\t// in\n    tag_265:\n        /* \"#utility.yul\":15853:15856   */\n      dup3\n        /* \"#utility.yul\":15846:15883   */\n      mstore\n        /* \"#utility.yul\":15771:15889   */\n      pop\n      pop\n      jump\t// out\n        /* \"#utility.yul\":15895:16204   */\n    tag_10:\n        /* \"#utility.yul\":16006:16010   */\n      0x00\n        /* \"#utility.yul\":16044:16046   */\n      0x20\n        /* \"#utility.yul\":16033:16042   */\n      dup3\n        /* \"#utility.yul\":16029:16047   */\n      add\n        /* \"#utility.yul\":16021:16047   */\n      swap1\n      pop\n        /* \"#utility.yul\":16093:16102   */\n      dup2\n        /* \"#utility.yul\":16087:16091   */\n      dup2\n        /* \"#utility.yul\":16083:16103   */\n      sub\n        /* \"#utility.yul\":16079:16080   */\n      0x00\n        /* \"#utility.yul\":16068:16077   */\n      dup4\n        /* \"#utility.yul\":16064:16081   */\n      add\n        /* \"#utility.yul\":16057:16104   */\n      mstore\n        /* \"#utility.yul\":16121:16197   */\n      tag_267\n        /* \"#utility.yul\":16192:16196   */\n      dup2\n        /* \"#utility.yul\":16183:16189   */\n      dup5\n        /* \"#utility.yul\":16121:16197   */\n      tag_213\n      jump\t// in\n    tag_267:\n        /* \"#utility.yul\":16113:16197   */\n      swap1\n      pop\n        /* \"#utility.yul\":15895:16204   */\n      swap3\n      swap2\n      pop\n      pop\n      jump\t// out\n        /* \"#utility.yul\":16210:17303   */\n    tag_19:\n        /* \"#utility.yul\":16553:16557   */\n      0x00\n        /* \"#utility.yul\":16591:16594   */\n      0xa0\n        /* \"#utility.yul\":16580:16589   */\n      dup3\n        /* \"#utility.yul\":16576:16595   */\n      add\n        /* \"#utility.yul\":16568:16595   */\n      swap1\n      pop\n        /* \"#utility.yul\":16641:16650   */\n      dup2\n        /* \"#utility.yul\":16635:16639   */\n      dup2\n        /* \"#utility.yul\":16631:16651   */\n      sub\n        /* \"#utility.yul\":16627:16628   */\n      0x00\n        /* \"#utility.yul\":16616:16625   */\n      dup4\n        /* \"#utility.yul\":16612:16629   */\n      add\n        /* \"#utility.yul\":16605:16652   */\n      mstore\n        /* \"#utility.yul\":16669:16757   */\n      tag_269\n        /* \"#utility.yul\":16752:16756   */\n      dup2\n        /* \"#utility.yul\":16743:16749   */\n      dup10\n        /* \"#utility.yul\":16735:16741   */\n      dup12\n        /* \"#utility.yul\":16669:16757   */\n      tag_229\n      jump\t// in\n    tag_269:\n        /* \"#utility.yul\":16661:16757   */\n      swap1\n      pop\n        /* \"#utility.yul\":16767:16839   */\n      tag_270\n        /* \"#utility.yul\":16835:16837   */\n      0x20\n        /* \"#utility.yul\":16824:16833   */\n      dup4\n        /* \"#utility.yul\":16820:16838   */\n      add\n        /* \"#utility.yul\":16811:16817   */\n      dup9\n        /* \"#utility.yul\":16767:16839   */\n      tag_263\n      jump\t// in\n    tag_270:\n        /* \"#utility.yul\":16849:16921   */\n      tag_271\n        /* \"#utility.yul\":16917:16919   */\n      0x40\n        /* \"#utility.yul\":16906:16915   */\n      dup4\n        /* \"#utility.yul\":16902:16920   */\n      add\n        /* \"#utility.yul\":16893:16899   */\n      dup8\n        /* \"#utility.yul\":16849:16921   */\n      tag_171\n      jump\t// in\n    tag_271:\n        /* \"#utility.yul\":16968:16977   */\n      dup2\n        /* \"#utility.yul\":16962:16966   */\n      dup2\n        /* \"#utility.yul\":16958:16978   */\n      sub\n        /* \"#utility.yul\":16953:16955   */\n      0x60\n        /* \"#utility.yul\":16942:16951   */\n      dup4\n        /* \"#utility.yul\":16938:16956   */\n      add\n        /* \"#utility.yul\":16931:16979   */\n      mstore\n        /* \"#utility.yul\":16996:17114   */\n      tag_272\n        /* \"#utility.yul\":17109:17113   */\n      dup2\n        /* \"#utility.yul\":17100:17106   */\n      dup6\n        /* \"#utility.yul\":17092:17098   */\n      dup8\n        /* \"#utility.yul\":16996:17114   */\n      tag_192\n      jump\t// in\n    tag_272:\n        /* \"#utility.yul\":16988:17114   */\n      swap1\n      pop\n        /* \"#utility.yul\":17162:17171   */\n      dup2\n        /* \"#utility.yul\":17156:17160   */\n      dup2\n        /* \"#utility.yul\":17152:17172   */\n      sub\n        /* \"#utility.yul\":17146:17149   */\n      0x80\n        /* \"#utility.yul\":17135:17144   */\n      dup4\n        /* \"#utility.yul\":17131:17150   */\n      add\n        /* \"#utility.yul\":17124:17173   */\n      mstore\n        /* \"#utility.yul\":17190:17296   */\n      tag_273\n        /* \"#utility.yul\":17291:17295   */\n      dup2\n        /* \"#utility.yul\":17282:17288   */\n      dup5\n        /* \"#utility.yul\":17190:17296   */\n      tag_248\n      jump\t// in\n    tag_273:\n        /* \"#utility.yul\":17182:17296   */\n      swap1\n      pop\n        /* \"#utility.yul\":16210:17303   */\n      swap9\n      swap8\n      pop\n      pop\n      pop\n      pop\n      pop\n      pop\n      pop\n      pop\n      jump\t// out\n        /* \"#utility.yul\":17309:18358   */\n    tag_16:\n        /* \"#utility.yul\":17630:17634   */\n      0x00\n        /* \"#utility.yul\":17668:17671   */\n      0xa0\n        /* \"#utility.yul\":17657:17666   */\n      dup3\n        /* \"#utility.yul\":17653:17672   */\n      add\n        /* \"#utility.yul\":17645:17672   */\n      swap1\n      pop\n        /* \"#utility.yul\":17718:17727   */\n      dup2\n        /* \"#utility.yul\":17712:17716   */\n      dup2\n        /* \"#utility.yul\":17708:17728   */\n      sub\n        /* \"#utility.yul\":17704:17705   */\n      0x00\n        /* \"#utility.yul\":17693:17702   */\n      dup4\n        /* \"#utility.yul\":17689:17706   */\n      add\n        /* \"#utility.yul\":17682:17729   */\n      mstore\n        /* \"#utility.yul\":17746:17824   */\n      tag_275\n        /* \"#utility.yul\":17819:17823   */\n      dup2\n        /* \"#utility.yul\":17810:17816   */\n      dup9\n        /* \"#utility.yul\":17746:17824   */\n      tag_242\n      jump\t// in\n    tag_275:\n        /* \"#utility.yul\":17738:17824   */\n      swap1\n      pop\n        /* \"#utility.yul\":17834:17906   */\n      tag_276\n        /* \"#utility.yul\":17902:17904   */\n      0x20\n        /* \"#utility.yul\":17891:17900   */\n      dup4\n        /* \"#utility.yul\":17887:17905   */\n      add\n        /* \"#utility.yul\":17878:17884   */\n      dup8\n        /* \"#utility.yul\":17834:17906   */\n      tag_263\n      jump\t// in\n    tag_276:\n        /* \"#utility.yul\":17916:17988   */\n      tag_277\n        /* \"#utility.yul\":17984:17986   */\n      0x40\n        /* \"#utility.yul\":17973:17982   */\n      dup4\n        /* \"#utility.yul\":17969:17987   */\n      add\n        /* \"#utility.yul\":17960:17966   */\n      dup7\n        /* \"#utility.yul\":17916:17988   */\n      tag_171\n      jump\t// in\n    tag_277:\n        /* \"#utility.yul\":18035:18044   */\n      dup2\n        /* \"#utility.yul\":18029:18033   */\n      dup2\n        /* \"#utility.yul\":18025:18045   */\n      sub\n        /* \"#utility.yul\":18020:18022   */\n      0x60\n        /* \"#utility.yul\":18009:18018   */\n      dup4\n        /* \"#utility.yul\":18005:18023   */\n      add\n        /* \"#utility.yul\":17998:18046   */\n      mstore\n        /* \"#utility.yul\":18063:18171   */\n      tag_278\n        /* \"#utility.yul\":18166:18170   */\n      dup2\n        /* \"#utility.yul\":18157:18163   */\n      dup6\n        /* \"#utility.yul\":18063:18171   */\n      tag_200\n      jump\t// in\n    tag_278:\n        /* \"#utility.yul\":18055:18171   */\n      swap1\n      pop\n        /* \"#utility.yul\":18219:18228   */\n      dup2\n        /* \"#utility.yul\":18213:18217   */\n      dup2\n        /* \"#utility.yul\":18209:18229   */\n      sub\n        /* \"#utility.yul\":18203:18206   */\n      0x80\n        /* \"#utility.yul\":18192:18201   */\n      dup4\n        /* \"#utility.yul\":18188:18207   */\n      add\n        /* \"#utility.yul\":18181:18230   */\n      mstore\n        /* \"#utility.yul\":18247:18351   */\n      tag_279\n        /* \"#utility.yul\":18346:18350   */\n      dup2\n        /* \"#utility.yul\":18337:18343   */\n      dup5\n        /* \"#utility.yul\":18247:18351   */\n      tag_256\n      jump\t// in\n    tag_279:\n        /* \"#utility.yul\":18239:18351   */\n      swap1\n      pop\n        /* \"#utility.yul\":17309:18358   */\n      swap7\n      swap6\n      pop\n      pop\n      pop\n      pop\n      pop\n      pop\n      jump\t// out\n        /* \"#utility.yul\":18364:18493   */\n    tag_33:\n        /* \"#utility.yul\":18398:18404   */\n      0x00\n        /* \"#utility.yul\":18425:18445   */\n      tag_281\n      tag_282\n      jump\t// in\n    tag_281:\n        /* \"#utility.yul\":18415:18445   */\n      swap1\n      pop\n        /* \"#utility.yul\":18454:18487   */\n      tag_283\n        /* \"#utility.yul\":18482:18486   */\n      dup3\n        /* \"#utility.yul\":18474:18480   */\n      dup3\n        /* \"#utility.yul\":18454:18487   */\n      tag_284\n      jump\t// in\n    tag_283:\n        /* \"#utility.yul\":18364:18493   */\n      swap2\n      swap1\n      pop\n      jump\t// out\n        /* \"#utility.yul\":18499:18574   */\n    tag_282:\n        /* \"#utility.yul\":18532:18538   */\n      0x00\n        /* \"#utility.yul\":18565:18567   */\n      0x40\n        /* \"#utility.yul\":18559:18568   */\n      mload\n        /* \"#utility.yul\":18549:18568   */\n      swap1\n      pop\n        /* \"#utility.yul\":18499:18574   */\n      swap1\n      jump\t// out\n        /* \"#utility.yul\":18580:18829   */\n    tag_32:\n        /* \"#utility.yul\":18655:18659   */\n      0x00\n        /* \"#utility.yul\":18745:18763   */\n      0xffffffffffffffff\n        /* \"#utility.yul\":18737:18743   */\n      dup3\n        /* \"#utility.yul\":18734:18764   */\n      gt\n        /* \"#utility.yul\":18731:18787   */\n      iszero\n      tag_287\n      jumpi\n        /* \"#utility.yul\":18767:18785   */\n      tag_288\n      tag_289\n      jump\t// in\n    tag_288:\n        /* \"#utility.yul\":18731:18787   */\n    tag_287:\n        /* \"#utility.yul\":18817:18821   */\n      0x20\n        /* \"#utility.yul\":18809:18815   */\n      dup3\n        /* \"#utility.yul\":18805:18822   */\n      mul\n        /* \"#utility.yul\":18797:18822   */\n      swap1\n      pop\n        /* \"#utility.yul\":18580:18829   */\n      swap2\n      swap1\n      pop\n      jump\t// out\n        /* \"#utility.yul\":18835:19146   */\n    tag_46:\n        /* \"#utility.yul\":18912:18916   */\n      0x00\n        /* \"#utility.yul\":19002:19020   */\n      0xffffffffffffffff\n        /* \"#utility.yul\":18994:19000   */\n      dup3\n        /* \"#utility.yul\":18991:19021   */\n      gt\n        /* \"#utility.yul\":18988:19044   */\n      iszero\n      tag_291\n      jumpi\n        /* \"#utility.yul\":19024:19042   */\n      tag_292\n      tag_289\n      jump\t// in\n    tag_292:\n        /* \"#utility.yul\":18988:19044   */\n    tag_291:\n        /* \"#utility.yul\":19074:19078   */\n      0x20\n        /* \"#utility.yul\":19066:19072   */\n      dup3\n        /* \"#utility.yul\":19062:19079   */\n      mul\n        /* \"#utility.yul\":19054:19079   */\n      swap1\n      pop\n        /* \"#utility.yul\":19134:19138   */\n      0x20\n        /* \"#utility.yul\":19128:19132   */\n      dup2\n        /* \"#utility.yul\":19124:19139   */\n      add\n        /* \"#utility.yul\":19116:19139   */\n      swap1\n      pop\n        /* \"#utility.yul\":18835:19146   */\n      swap2\n      swap1\n      pop\n      jump\t// out\n        /* \"#utility.yul\":19152:19460   */\n    tag_57:\n        /* \"#utility.yul\":19214:19218   */\n      0x00\n        /* \"#utility.yul\":19304:19322   */\n      0xffffffffffffffff\n        /* \"#utility.yul\":19296:19302   */\n      dup3\n        /* \"#utility.yul\":19293:19323   */\n      gt\n        /* \"#utility.yul\":19290:19346   */\n      iszero\n      tag_294\n      jumpi\n        /* \"#utility.yul\":19326:19344   */\n      tag_295\n      tag_289\n      jump\t// in\n    tag_295:\n        /* \"#utility.yul\":19290:19346   */\n    tag_294:\n        /* \"#utility.yul\":19364:19393   */\n      tag_296\n        /* \"#utility.yul\":19386:19392   */\n      dup3\n        /* \"#utility.yul\":19364:19393   */\n      tag_222\n      jump\t// in\n    tag_296:\n        /* \"#utility.yul\":19356:19393   */\n      swap1\n      pop\n        /* \"#utility.yul\":19448:19452   */\n      0x20\n        /* \"#utility.yul\":19442:19446   */\n      dup2\n        /* \"#utility.yul\":19438:19453   */\n      add\n        /* \"#utility.yul\":19430:19453   */\n      swap1\n      pop\n        /* \"#utility.yul\":19152:19460   */\n      swap2\n      swap1\n      pop\n      jump\t// out\n        /* \"#utility.yul\":19466:19564   */\n    tag_185:\n        /* \"#utility.yul\":19531:19535   */\n      0x00\n        /* \"#utility.yul\":19554:19557   */\n      dup2\n        /* \"#utility.yul\":19546:19557   */\n      swap1\n      pop\n        /* \"#utility.yul\":19466:19564   */\n      swap2\n      swap1\n      pop\n      jump\t// out\n        /* \"#utility.yul\":19570:19702   */\n    tag_206:\n        /* \"#utility.yul\":19637:19641   */\n      0x00\n        /* \"#utility.yul\":19660:19663   */\n      dup2\n        /* \"#utility.yul\":19652:19663   */\n      swap1\n      pop\n        /* \"#utility.yul\":19690:19694   */\n      0x20\n        /* \"#utility.yul\":19685:19688   */\n      dup3\n        /* \"#utility.yul\":19681:19695   */\n      add\n        /* \"#utility.yul\":19673:19695   */\n      swap1\n      pop\n        /* \"#utility.yul\":19570:19702   */\n      swap2\n      swap1\n      pop\n      jump\t// out\n        /* \"#utility.yul\":19708:19812   */\n    tag_181:\n        /* \"#utility.yul\":19773:19779   */\n      0x00\n        /* \"#utility.yul\":19801:19805   */\n      0x02\n        /* \"#utility.yul\":19791:19805   */\n      swap1\n      pop\n        /* \"#utility.yul\":19708:19812   */\n      swap2\n      swap1\n      pop\n      jump\t// out\n        /* \"#utility.yul\":19818:19932   */\n    tag_203:\n        /* \"#utility.yul\":19885:19891   */\n      0x00\n        /* \"#utility.yul\":19919:19924   */\n      dup2\n        /* \"#utility.yul\":19913:19925   */\n      mload\n        /* \"#utility.yul\":19903:19925   */\n      swap1\n      pop\n        /* \"#utility.yul\":19818:19932   */\n      swap2\n      swap1\n      pop\n      jump\t// out\n        /* \"#utility.yul\":19938:20036   */\n    tag_216:\n        /* \"#utility.yul\":19989:19995   */\n      0x00\n        /* \"#utility.yul\":20023:20028   */\n      dup2\n        /* \"#utility.yul\":20017:20029   */\n      mload\n        /* \"#utility.yul\":20007:20029   */\n      swap1\n      pop\n        /* \"#utility.yul\":19938:20036   */\n      swap2\n      swap1\n      pop\n      jump\t// out\n        /* \"#utility.yul\":20042:20141   */\n    tag_238:\n        /* \"#utility.yul\":20094:20100   */\n      0x00\n        /* \"#utility.yul\":20128:20133   */\n      dup2\n        /* \"#utility.yul\":20122:20134   */\n      mload\n        /* \"#utility.yul\":20112:20134   */\n      swap1\n      pop\n        /* \"#utility.yul\":20042:20141   */\n      swap2\n      swap1\n      pop\n      jump\t// out\n        /* \"#utility.yul\":20147:20258   */\n    tag_191:\n        /* \"#utility.yul\":20215:20219   */\n      0x00\n        /* \"#utility.yul\":20247:20251   */\n      0x20\n        /* \"#utility.yul\":20242:20245   */\n      dup3\n        /* \"#utility.yul\":20238:20252   */\n      add\n        /* \"#utility.yul\":20230:20252   */\n      swap1\n      pop\n        /* \"#utility.yul\":20147:20258   */\n      swap2\n      swap1\n      pop\n      jump\t// out\n        /* \"#utility.yul\":20264:20377   */\n    tag_212:\n        /* \"#utility.yul\":20334:20338   */\n      0x00\n        /* \"#utility.yul\":20366:20370   */\n      0x20\n        /* \"#utility.yul\":20361:20364   */\n      dup3\n        /* \"#utility.yul\":20357:20371   */\n      add\n        /* \"#utility.yul\":20349:20371   */\n      swap1\n      pop\n        /* \"#utility.yul\":20264:20377   */\n      swap2\n      swap1\n      pop\n      jump\t// out\n        /* \"#utility.yul\":20383:20516   */\n    tag_183:\n        /* \"#utility.yul\":20470:20481   */\n      0x00\n        /* \"#utility.yul\":20507:20510   */\n      dup2\n        /* \"#utility.yul\":20492:20510   */\n      swap1\n      pop\n        /* \"#utility.yul\":20383:20516   */\n      swap3\n      swap2\n      pop\n      pop\n      jump\t// out\n        /* \"#utility.yul\":20522:20706   */\n    tag_195:\n        /* \"#utility.yul\":20621:20632   */\n      0x00\n        /* \"#utility.yul\":20655:20661   */\n      dup3\n        /* \"#utility.yul\":20650:20653   */\n      dup3\n        /* \"#utility.yul\":20643:20662   */\n      mstore\n        /* \"#utility.yul\":20695:20699   */\n      0x20\n        /* \"#utility.yul\":20690:20693   */\n      dup3\n        /* \"#utility.yul\":20686:20700   */\n      add\n        /* \"#utility.yul\":20671:20700   */\n      swap1\n      pop\n        /* \"#utility.yul\":20522:20706   */\n      swap3\n      swap2\n      pop\n      pop\n      jump\t// out\n        /* \"#utility.yul\":20712:20880   */\n    tag_218:\n        /* \"#utility.yul\":20795:20806   */\n      0x00\n        /* \"#utility.yul\":20829:20835   */\n      dup3\n        /* \"#utility.yul\":20824:20827   */\n      dup3\n        /* \"#utility.yul\":20817:20836   */\n      mstore\n        /* \"#utility.yul\":20869:20873   */\n      0x20\n        /* \"#utility.yul\":20864:20867   */\n      dup3\n        /* \"#utility.yul\":20860:20874   */\n      add\n        /* \"#utility.yul\":20845:20874   */\n      swap1\n      pop\n        /* \"#utility.yul\":20712:20880   */\n      swap3\n      swap2\n      pop\n      pop\n      jump\t// out\n        /* \"#utility.yul\":20886:21045   */\n    tag_226:\n        /* \"#utility.yul\":20960:20971   */\n      0x00\n        /* \"#utility.yul\":20994:21000   */\n      dup3\n        /* \"#utility.yul\":20989:20992   */\n      dup3\n        /* \"#utility.yul\":20982:21001   */\n      mstore\n        /* \"#utility.yul\":21034:21038   */\n      0x20\n        /* \"#utility.yul\":21029:21032   */\n      dup3\n        /* \"#utility.yul\":21025:21039   */\n      add\n        /* \"#utility.yul\":21010:21039   */\n      swap1\n      pop\n        /* \"#utility.yul\":20886:21045   */\n      swap3\n      swap2\n      pop\n      pop\n      jump\t// out\n        /* \"#utility.yul\":21051:21220   */\n    tag_232:\n        /* \"#utility.yul\":21135:21146   */\n      0x00\n        /* \"#utility.yul\":21169:21175   */\n      dup3\n        /* \"#utility.yul\":21164:21167   */\n      dup3\n        /* \"#utility.yul\":21157:21176   */\n      mstore\n        /* \"#utility.yul\":21209:21213   */\n      0x20\n        /* \"#utility.yul\":21204:21207   */\n      dup3\n        /* \"#utility.yul\":21200:21214   */\n      add\n        /* \"#utility.yul\":21185:21214   */\n      swap1\n      pop\n        /* \"#utility.yul\":21051:21220   */\n      swap3\n      swap2\n      pop\n      pop\n      jump\t// out\n        /* \"#utility.yul\":21226:21337   */\n    tag_254:\n        /* \"#utility.yul\":21303:21308   */\n      0x00\n        /* \"#utility.yul\":21328:21331   */\n      dup3\n        /* \"#utility.yul\":21319:21331   */\n      swap1\n      pop\n        /* \"#utility.yul\":21226:21337   */\n      swap3\n      swap2\n      pop\n      pop\n      jump\t// out\n        /* \"#utility.yul\":21343:22058   */\n    tag_251:\n        /* \"#utility.yul\":21408:21413   */\n      0x00\n        /* \"#utility.yul\":21415:21421   */\n      dup1\n        /* \"#utility.yul\":21471:21474   */\n      dup4\n        /* \"#utility.yul\":21458:21475   */\n      calldataload\n        /* \"#utility.yul\":21563:21564   */\n      0x01\n        /* \"#utility.yul\":21557:21561   */\n      0x20\n        /* \"#utility.yul\":21553:21565   */\n      sub\n        /* \"#utility.yul\":21542:21550   */\n      dup5\n        /* \"#utility.yul\":21526:21540   */\n      calldatasize\n        /* \"#utility.yul\":21522:21551   */\n      sub\n        /* \"#utility.yul\":21518:21566   */\n      sub\n        /* \"#utility.yul\":21498:21516   */\n      dup2\n        /* \"#utility.yul\":21494:21567   */\n      slt\n        /* \"#utility.yul\":21484:21652   */\n      tag_312\n      jumpi\n        /* \"#utility.yul\":21571:21650   */\n      tag_313\n      tag_314\n      jump\t// in\n    tag_313:\n        /* \"#utility.yul\":21484:21652   */\n    tag_312:\n        /* \"#utility.yul\":21694:21702   */\n      dup4\n        /* \"#utility.yul\":21674:21692   */\n      dup2\n        /* \"#utility.yul\":21670:21703   */\n      add\n        /* \"#utility.yul\":21661:21703   */\n      swap3\n      pop\n        /* \"#utility.yul\":21736:21741   */\n      dup3\n        /* \"#utility.yul\":21723:21742   */\n      calldataload\n        /* \"#utility.yul\":21713:21742   */\n      swap2\n      pop\n        /* \"#utility.yul\":21771:21775   */\n      0x20\n        /* \"#utility.yul\":21764:21769   */\n      dup4\n        /* \"#utility.yul\":21760:21776   */\n      add\n        /* \"#utility.yul\":21751:21776   */\n      swap3\n      pop\n        /* \"#utility.yul\":21799:21817   */\n      0xffffffffffffffff\n        /* \"#utility.yul\":21791:21797   */\n      dup3\n        /* \"#utility.yul\":21788:21818   */\n      gt\n        /* \"#utility.yul\":21785:21902   */\n      iszero\n      tag_315\n      jumpi\n        /* \"#utility.yul\":21821:21900   */\n      tag_316\n      tag_317\n      jump\t// in\n    tag_316:\n        /* \"#utility.yul\":21785:21902   */\n    tag_315:\n        /* \"#utility.yul\":21960:21964   */\n      0x01\n        /* \"#utility.yul\":21952:21958   */\n      dup3\n        /* \"#utility.yul\":21948:21965   */\n      mul\n        /* \"#utility.yul\":21932:21946   */\n      calldatasize\n        /* \"#utility.yul\":21928:21966   */\n      sub\n        /* \"#utility.yul\":21918:21926   */\n      dup5\n        /* \"#utility.yul\":21914:21967   */\n      sgt\n        /* \"#utility.yul\":21911:22051   */\n      iszero\n      tag_318\n      jumpi\n        /* \"#utility.yul\":21970:22049   */\n      tag_319\n      tag_320\n      jump\t// in\n    tag_319:\n        /* \"#utility.yul\":21911:22051   */\n    tag_318:\n        /* \"#utility.yul\":21422:22058   */\n      pop\n        /* \"#utility.yul\":21343:22058   */\n      swap3\n      pop\n      swap3\n      swap1\n      pop\n      jump\t// out\n        /* \"#utility.yul\":22064:22160   */\n    tag_174:\n        /* \"#utility.yul\":22101:22108   */\n      0x00\n        /* \"#utility.yul\":22130:22154   */\n      tag_322\n        /* \"#utility.yul\":22148:22153   */\n      dup3\n        /* \"#utility.yul\":22130:22154   */\n      tag_323\n      jump\t// in\n    tag_322:\n        /* \"#utility.yul\":22119:22154   */\n      swap1\n      pop\n        /* \"#utility.yul\":22064:22160   */\n      swap2\n      swap1\n      pop\n      jump\t// out\n        /* \"#utility.yul\":22166:22270   */\n    tag_324:\n        /* \"#utility.yul\":22211:22218   */\n      0x00\n        /* \"#utility.yul\":22240:22264   */\n      tag_326\n        /* \"#utility.yul\":22258:22263   */\n      dup3\n        /* \"#utility.yul\":22240:22264   */\n      tag_323\n      jump\t// in\n    tag_326:\n        /* \"#utility.yul\":22229:22264   */\n      swap1\n      pop\n        /* \"#utility.yul\":22166:22270   */\n      swap2\n      swap1\n      pop\n      jump\t// out\n        /* \"#utility.yul\":22276:22402   */\n    tag_323:\n        /* \"#utility.yul\":22313:22320   */\n      0x00\n        /* \"#utility.yul\":22353:22395   */\n      0xffffffffffffffffffffffffffffffffffffffff\n        /* \"#utility.yul\":22346:22351   */\n      dup3\n        /* \"#utility.yul\":22342:22396   */\n      and\n        /* \"#utility.yul\":22331:22396   */\n      swap1\n      pop\n        /* \"#utility.yul\":22276:22402   */\n      swap2\n      swap1\n      pop\n      jump\t// out\n        /* \"#utility.yul\":22408:22485   */\n    tag_262:\n        /* \"#utility.yul\":22445:22452   */\n      0x00\n        /* \"#utility.yul\":22474:22479   */\n      dup2\n        /* \"#utility.yul\":22463:22479   */\n      swap1\n      pop\n        /* \"#utility.yul\":22408:22485   */\n      swap2\n      swap1\n      pop\n      jump\t// out\n        /* \"#utility.yul\":22491:22645   */\n    tag_62:\n        /* \"#utility.yul\":22575:22581   */\n      dup3\n        /* \"#utility.yul\":22570:22573   */\n      dup2\n        /* \"#utility.yul\":22565:22568   */\n      dup4\n        /* \"#utility.yul\":22552:22582   */\n      calldatacopy\n        /* \"#utility.yul\":22637:22638   */\n      0x00\n        /* \"#utility.yul\":22628:22634   */\n      dup4\n        /* \"#utility.yul\":22623:22626   */\n      dup4\n        /* \"#utility.yul\":22619:22635   */\n      add\n        /* \"#utility.yul\":22612:22639   */\n      mstore\n        /* \"#utility.yul\":22491:22645   */\n      pop\n      pop\n      pop\n      jump\t// out\n        /* \"#utility.yul\":22651:22958   */\n    tag_220:\n        /* \"#utility.yul\":22719:22720   */\n      0x00\n        /* \"#utility.yul\":22729:22842   */\n    tag_331:\n        /* \"#utility.yul\":22743:22749   */\n      dup4\n        /* \"#utility.yul\":22740:22741   */\n      dup2\n        /* \"#utility.yul\":22737:22750   */\n      lt\n        /* \"#utility.yul\":22729:22842   */\n      iszero\n      tag_333\n      jumpi\n        /* \"#utility.yul\":22828:22829   */\n      dup1\n        /* \"#utility.yul\":22823:22826   */\n      dup3\n        /* \"#utility.yul\":22819:22830   */\n      add\n        /* \"#utility.yul\":22813:22831   */\n      mload\n        /* \"#utility.yul\":22809:22810   */\n      dup2\n        /* \"#utility.yul\":22804:22807   */\n      dup5\n        /* \"#utility.yul\":22800:22811   */\n      add\n        /* \"#utility.yul\":22793:22832   */\n      mstore\n        /* \"#utility.yul\":22765:22767   */\n      0x20\n        /* \"#utility.yul\":22762:22763   */\n      dup2\n        /* \"#utility.yul\":22758:22768   */\n      add\n        /* \"#utility.yul\":22753:22768   */\n      swap1\n      pop\n        /* \"#utility.yul\":22729:22842   */\n      jump(tag_331)\n    tag_333:\n        /* \"#utility.yul\":22860:22866   */\n      dup4\n        /* \"#utility.yul\":22857:22858   */\n      dup2\n        /* \"#utility.yul\":22854:22867   */\n      gt\n        /* \"#utility.yul\":22851:22952   */\n      iszero\n      tag_334\n      jumpi\n        /* \"#utility.yul\":22940:22941   */\n      0x00\n        /* \"#utility.yul\":22931:22937   */\n      dup5\n        /* \"#utility.yul\":22926:22929   */\n      dup5\n        /* \"#utility.yul\":22922:22938   */\n      add\n        /* \"#utility.yul\":22915:22942   */\n      mstore\n        /* \"#utility.yul\":22851:22952   */\n    tag_334:\n        /* \"#utility.yul\":22700:22958   */\n      pop\n        /* \"#utility.yul\":22651:22958   */\n      pop\n      pop\n      pop\n      jump\t// out\n        /* \"#utility.yul\":22964:23245   */\n    tag_284:\n        /* \"#utility.yul\":23047:23074   */\n      tag_336\n        /* \"#utility.yul\":23069:23073   */\n      dup3\n        /* \"#utility.yul\":23047:23074   */\n      tag_222\n      jump\t// in\n    tag_336:\n        /* \"#utility.yul\":23039:23045   */\n      dup2\n        /* \"#utility.yul\":23035:23075   */\n      add\n        /* \"#utility.yul\":23177:23183   */\n      dup2\n        /* \"#utility.yul\":23165:23175   */\n      dup2\n        /* \"#utility.yul\":23162:23184   */\n      lt\n        /* \"#utility.yul\":23141:23159   */\n      0xffffffffffffffff\n        /* \"#utility.yul\":23129:23139   */\n      dup3\n        /* \"#utility.yul\":23126:23160   */\n      gt\n        /* \"#utility.yul\":23123:23185   */\n      or\n        /* \"#utility.yul\":23120:23208   */\n      iszero\n      tag_337\n      jumpi\n        /* \"#utility.yul\":23188:23206   */\n      tag_338\n      tag_289\n      jump\t// in\n    tag_338:\n        /* \"#utility.yul\":23120:23208   */\n    tag_337:\n        /* \"#utility.yul\":23228:23238   */\n      dup1\n        /* \"#utility.yul\":23224:23226   */\n      0x40\n        /* \"#utility.yul\":23217:23239   */\n      mstore\n        /* \"#utility.yul\":23007:23245   */\n      pop\n        /* \"#utility.yul\":22964:23245   */\n      pop\n      pop\n      jump\t// out\n        /* \"#utility.yul\":23251:23431   */\n    tag_289:\n        /* \"#utility.yul\":23299:23376   */\n      0x4e487b7100000000000000000000000000000000000000000000000000000000\n        /* \"#utility.yul\":23296:23297   */\n      0x00\n        /* \"#utility.yul\":23289:23377   */\n      mstore\n        /* \"#utility.yul\":23396:23400   */\n      0x41\n        /* \"#utility.yul\":23393:23394   */\n      0x04\n        /* \"#utility.yul\":23386:23401   */\n      mstore\n        /* \"#utility.yul\":23420:23424   */\n      0x24\n        /* \"#utility.yul\":23417:23418   */\n      0x00\n        /* \"#utility.yul\":23410:23425   */\n      revert\n        /* \"#utility.yul\":23437:23554   */\n    tag_317:\n        /* \"#utility.yul\":23546:23547   */\n      0x00\n        /* \"#utility.yul\":23543:23544   */\n      dup1\n        /* \"#utility.yul\":23536:23548   */\n      revert\n        /* \"#utility.yul\":23560:23677   */\n    tag_83:\n        /* \"#utility.yul\":23669:23670   */\n      0x00\n        /* \"#utility.yul\":23666:23667   */\n      dup1\n        /* \"#utility.yul\":23659:23671   */\n      revert\n        /* \"#utility.yul\":23683:23800   */\n    tag_75:\n        /* \"#utility.yul\":23792:23793   */\n      0x00\n        /* \"#utility.yul\":23789:23790   */\n      dup1\n        /* \"#utility.yul\":23782:23794   */\n      revert\n        /* \"#utility.yul\":23806:23923   */\n    tag_116:\n        /* \"#utility.yul\":23915:23916   */\n      0x00\n        /* \"#utility.yul\":23912:23913   */\n      dup1\n        /* \"#utility.yul\":23905:23917   */\n      revert\n        /* \"#utility.yul\":23929:24046   */\n    tag_121:\n        /* \"#utility.yul\":24038:24039   */\n      0x00\n        /* \"#utility.yul\":24035:24036   */\n      dup1\n        /* \"#utility.yul\":24028:24040   */\n      revert\n        /* \"#utility.yul\":24052:24169   */\n    tag_320:\n        /* \"#utility.yul\":24161:24162   */\n      0x00\n        /* \"#utility.yul\":24158:24159   */\n      dup1\n        /* \"#utility.yul\":24151:24163   */\n      revert\n        /* \"#utility.yul\":24175:24292   */\n    tag_125:\n        /* \"#utility.yul\":24284:24285   */\n      0x00\n        /* \"#utility.yul\":24281:24282   */\n      dup1\n        /* \"#utility.yul\":24274:24286   */\n      revert\n        /* \"#utility.yul\":24298:24415   */\n    tag_36:\n        /* \"#utility.yul\":24407:24408   */\n      0x00\n        /* \"#utility.yul\":24404:24405   */\n      dup1\n        /* \"#utility.yul\":24397:24409   */\n      revert\n        /* \"#utility.yul\":24421:24538   */\n    tag_60:\n        /* \"#utility.yul\":24530:24531   */\n      0x00\n        /* \"#utility.yul\":24527:24528   */\n      dup1\n        /* \"#utility.yul\":24520:24532   */\n      revert\n        /* \"#utility.yul\":24544:24661   */\n    tag_137:\n        /* \"#utility.yul\":24653:24654   */\n      0x00\n        /* \"#utility.yul\":24650:24651   */\n      dup1\n        /* \"#utility.yul\":24643:24655   */\n      revert\n        /* \"#utility.yul\":24667:24784   */\n    tag_198:\n        /* \"#utility.yul\":24776:24777   */\n      0x00\n        /* \"#utility.yul\":24773:24774   */\n      dup1\n        /* \"#utility.yul\":24766:24778   */\n      revert\n        /* \"#utility.yul\":24790:24907   */\n    tag_314:\n        /* \"#utility.yul\":24899:24900   */\n      0x00\n        /* \"#utility.yul\":24896:24897   */\n      dup1\n        /* \"#utility.yul\":24889:24901   */\n      revert\n        /* \"#utility.yul\":24913:25030   */\n    tag_134:\n        /* \"#utility.yul\":25022:25023   */\n      0x00\n        /* \"#utility.yul\":25019:25020   */\n      dup1\n        /* \"#utility.yul\":25012:25024   */\n      revert\n        /* \"#utility.yul\":25036:25138   */\n    tag_222:\n        /* \"#utility.yul\":25077:25083   */\n      0x00\n        /* \"#utility.yul\":25128:25130   */\n      0x1f\n        /* \"#utility.yul\":25124:25131   */\n      not\n        /* \"#utility.yul\":25119:25121   */\n      0x1f\n        /* \"#utility.yul\":25112:25117   */\n      dup4\n        /* \"#utility.yul\":25108:25122   */\n      add\n        /* \"#utility.yul\":25104:25132   */\n      and\n        /* \"#utility.yul\":25094:25132   */\n      swap1\n      pop\n        /* \"#utility.yul\":25036:25138   */\n      swap2\n      swap1\n      pop\n      jump\t// out\n        /* \"#utility.yul\":25144:25266   */\n    tag_66:\n        /* \"#utility.yul\":25217:25241   */\n      tag_355\n        /* \"#utility.yul\":25235:25240   */\n      dup2\n        /* \"#utility.yul\":25217:25241   */\n      tag_174\n      jump\t// in\n    tag_355:\n        /* \"#utility.yul\":25210:25215   */\n      dup2\n        /* \"#utility.yul\":25207:25242   */\n      eq\n        /* \"#utility.yul\":25197:25260   */\n      tag_356\n      jumpi\n        /* \"#utility.yul\":25256:25257   */\n      0x00\n        /* \"#utility.yul\":25253:25254   */\n      dup1\n        /* \"#utility.yul\":25246:25258   */\n      revert\n        /* \"#utility.yul\":25197:25260   */\n    tag_356:\n        /* \"#utility.yul\":25144:25266   */\n      pop\n      jump\t// out\n        /* \"#utility.yul\":25272:25410   */\n    tag_70:\n        /* \"#utility.yul\":25353:25385   */\n      tag_358\n        /* \"#utility.yul\":25379:25384   */\n      dup2\n        /* \"#utility.yul\":25353:25385   */\n      tag_324\n      jump\t// in\n    tag_358:\n        /* \"#utility.yul\":25346:25351   */\n      dup2\n        /* \"#utility.yul\":25343:25386   */\n      eq\n        /* \"#utility.yul\":25333:25404   */\n      tag_359\n      jumpi\n        /* \"#utility.yul\":25400:25401   */\n      0x00\n        /* \"#utility.yul\":25397:25398   */\n      dup1\n        /* \"#utility.yul\":25390:25402   */\n      revert\n        /* \"#utility.yul\":25333:25404   */\n    tag_359:\n        /* \"#utility.yul\":25272:25410   */\n      pop\n      jump\t// out\n        /* \"#utility.yul\":25416:25538   */\n    tag_130:\n        /* \"#utility.yul\":25489:25513   */\n      tag_361\n        /* \"#utility.yul\":25507:25512   */\n      dup2\n        /* \"#utility.yul\":25489:25513   */\n      tag_262\n      jump\t// in\n    tag_361:\n        /* \"#utility.yul\":25482:25487   */\n      dup2\n        /* \"#utility.yul\":25479:25514   */\n      eq\n        /* \"#utility.yul\":25469:25532   */\n      tag_362\n      jumpi\n        /* \"#utility.yul\":25528:25529   */\n      0x00\n        /* \"#utility.yul\":25525:25526   */\n      dup1\n        /* \"#utility.yul\":25518:25530   */\n      revert\n        /* \"#utility.yul\":25469:25532   */\n    tag_362:\n        /* \"#utility.yul\":25416:25538   */\n      pop\n      jump\t// out\n\n    auxdata: 0xa2646970667358221220e993baf1567e5c3451382a98056297bc3a124112b9f446e0b2c9beeaae16281764736f6c63430008070033\n}\n",
				"bytecode": {
					"linkReferences": {},
					"object": "608060405234801561001057600080fd5b50610e27806100206000396000f3fe608060405234801561001057600080fd5b50600436106100365760003560e01c80630cc6a8be1461003b578063e5c5e9a31461006b575b600080fd5b61005560048036038101906100509190610511565b61009f565b60405161006291906109af565b60405180910390f35b610085600480360381019061008091906104c4565b6100da565b604051610096959493929190610a3d565b60405180910390f35b6060878787878787876040516020016100be97969594939291906109d1565b6040516020818303038152906040529050979650505050505050565b606060008060606100e9610116565b86868101906100f891906105e9565b80955081965082975083985084995050505050509295509295909350565b604051806040016040528060608152602001610130610136565b81525090565b6040518060400160405280600290602082028036833780820191505090505090565b600061016b61016684610aca565b610aa5565b9050808285602086028201111561018557610184610d7d565b5b60005b858110156101b5578161019b88826104af565b845260208401935060208301925050600181019050610188565b5050509392505050565b60006101d26101cd84610af0565b610aa5565b905080838252602082019050828560208602820111156101f5576101f4610d7d565b5b60005b85811015610225578161020b88826104af565b8452602084019350602083019250506001810190506101f8565b5050509392505050565b600061024261023d84610b1c565b610aa5565b90508281526020810184848401111561025e5761025d610d82565b5b610269848285610cb8565b509392505050565b60008135905061028081610dac565b92915050565b60008135905061029581610dc3565b92915050565b600082601f8301126102b0576102af610d64565b5b60026102bd848285610158565b91505092915050565b60008083601f8401126102dc576102db610d64565b5b8235905067ffffffffffffffff8111156102f9576102f8610d5f565b5b60208301915083602082028301111561031557610314610d7d565b5b9250929050565b600082601f83011261033157610330610d64565b5b81356103418482602086016101bf565b91505092915050565b60008083601f8401126103605761035f610d64565b5b8235905067ffffffffffffffff81111561037d5761037c610d5f565b5b60208301915083600182028301111561039957610398610d7d565b5b9250929050565b60008083601f8401126103b6576103b5610d64565b5b8235905067ffffffffffffffff8111156103d3576103d2610d5f565b5b6020830191508360018202830111156103ef576103ee610d7d565b5b9250929050565b600082601f83011261040b5761040a610d64565b5b813561041b84826020860161022f565b91505092915050565b60006060828403121561043a57610439610d69565b5b81905092915050565b60006060828403121561045957610458610d6e565b5b6104636040610aa5565b9050600082013567ffffffffffffffff81111561048357610482610d78565b5b61048f848285016103f6565b60008301525060206104a38482850161029b565b60208301525092915050565b6000813590506104be81610dda565b92915050565b600080602083850312156104db576104da610d96565b5b600083013567ffffffffffffffff8111156104f9576104f8610d87565b5b6105058582860161034a565b92509250509250929050565b600080600080600080600060a0888a0312156105305761052f610d96565b5b600088013567ffffffffffffffff81111561054e5761054d610d87565b5b61055a8a828b016103a0565b9750975050602061056d8a828b016104af565b955050604061057e8a828b01610271565b945050606088013567ffffffffffffffff81111561059f5761059e610d87565b5b6105ab8a828b016102c6565b9350935050608088013567ffffffffffffffff8111156105ce576105cd610d87565b5b6105da8a828b01610424565b91505092959891949750929550565b600080600080600060a0868803121561060557610604610d96565b5b600086013567ffffffffffffffff81111561062357610622610d87565b5b61062f888289016103f6565b9550506020610640888289016104af565b945050604061065188828901610286565b935050606086013567ffffffffffffffff81111561067257610671610d87565b5b61067e8882890161031c565b925050608086013567ffffffffffffffff81111561069f5761069e610d87565b5b6106ab88828901610443565b9150509295509295909350565b60006106c48383610991565b60208301905092915050565b6106d981610c6a565b82525050565b6106eb60408383610cb8565b5050565b6106f881610b67565b6107028184610bad565b925061070d82610b4d565b8060005b8381101561073e57815161072587826106b8565b965061073083610b93565b925050600181019050610711565b505050505050565b60006107528385610bb8565b93507f07ffffffffffffffffffffffffffffffffffffffffffffffffffffffffffffff83111561078557610784610d8c565b5b602083029250610796838584610cb8565b82840190509392505050565b60006107ad82610b72565b6107b78185610bb8565b93506107c283610b57565b8060005b838110156107f35781516107da88826106b8565b97506107e583610ba0565b9250506001810190506107c6565b5085935050505092915050565b600061080b82610b7d565b6108158185610bc9565b9350610825818560208601610cc7565b61082e81610d9b565b840191505092915050565b60006108458385610bda565b9350610852838584610cb8565b61085b83610d9b565b840190509392505050565b60006108728385610beb565b935061087f838584610cb8565b61088883610d9b565b840190509392505050565b600061089e82610b88565b6108a88185610bda565b93506108b8818560208601610cc7565b6108c181610d9b565b840191505092915050565b60006108d782610b88565b6108e18185610beb565b93506108f1818560208601610cc7565b6108fa81610d9b565b840191505092915050565b6000606083016109186000840184610c07565b858303600087015261092b838284610839565b9250505061093c6020840184610bfc565b61094960208601826106df565b508091505092915050565b600060608301600083015184820360008601526109718282610893565b915050602083015161098660208601826106ef565b508091505092915050565b61099a81610cae565b82525050565b6109a981610cae565b82525050565b600060208201905081810360008301526109c98184610800565b905092915050565b600060a08201905081810360008301526109ec81898b610866565b90506109fb60208301886109a0565b610a0860408301876106d0565b8181036060830152610a1b818587610746565b90508181036080830152610a2f8184610905565b905098975050505050505050565b600060a0820190508181036000830152610a5781886108cc565b9050610a6660208301876109a0565b610a7360408301866106d0565b8181036060830152610a8581856107a2565b90508181036080830152610a998184610954565b90509695505050505050565b6000610aaf610ac0565b9050610abb8282610cfa565b919050565b6000604051905090565b600067ffffffffffffffff821115610ae557610ae4610d2b565b5b602082029050919050565b600067ffffffffffffffff821115610b0b57610b0a610d2b565b5b602082029050602081019050919050565b600067ffffffffffffffff821115610b3757610b36610d2b565b5b610b4082610d9b565b9050602081019050919050565b6000819050919050565b6000819050602082019050919050565b600060029050919050565b600081519050919050565b600081519050919050565b600081519050919050565b6000602082019050919050565b6000602082019050919050565b600081905092915050565b600082825260208201905092915050565b600082825260208201905092915050565b600082825260208201905092915050565b600082825260208201905092915050565b600082905092915050565b60008083356001602003843603038112610c2457610c23610d91565b5b83810192508235915060208301925067ffffffffffffffff821115610c4c57610c4b610d5a565b5b600182023603841315610c6257610c61610d73565b5b509250929050565b6000610c7582610c8e565b9050919050565b6000610c8782610c8e565b9050919050565b600073ffffffffffffffffffffffffffffffffffffffff82169050919050565b6000819050919050565b82818337600083830152505050565b60005b83811015610ce5578082015181840152602081019050610cca565b83811115610cf4576000848401525b50505050565b610d0382610d9b565b810181811067ffffffffffffffff82111715610d2257610d21610d2b565b5b80604052505050565b7f4e487b7100000000000000000000000000000000000000000000000000000000600052604160045260246000fd5b600080fd5b600080fd5b600080fd5b600080fd5b600080fd5b600080fd5b600080fd5b600080fd5b600080fd5b600080fd5b600080fd5b600080fd5b600080fd5b6000601f19601f8301169050919050565b610db581610c6a565b8114610dc057600080fd5b50565b610dcc81610c7c565b8114610dd757600080fd5b50565b610de381610cae565b8114610dee57600080fd5b5056fea2646970667358221220e993baf1567e5c3451382a98056297bc3a124112b9f446e0b2c9beeaae16281764736f6c63430008070033",
					"opcodes": "PUSH1 0x80 PUSH1 0x40 MSTORE CALLVALUE DUP1 ISZERO PUSH2 0x10 JUMPI PUSH1 0x0 DUP1 REVERT JUMPDEST POP PUSH2 0xE27 DUP1 PUSH2 0x20 PUSH1 0x0 CODECOPY PUSH1 0x0 RETURN INVALID PUSH1 0x80 PUSH1 0x40 MSTORE CALLVALUE DUP1 ISZERO PUSH2 0x10 JUMPI PUSH1 0x0 DUP1 REVERT JUMPDEST POP PUSH1 0x4 CALLDATASIZE LT PUSH2 0x36 JUMPI PUSH1 0x0 CALLDATALOAD PUSH1 0xE0 SHR DUP1 PUSH4 0xCC6A8BE EQ PUSH2 0x3B JUMPI DUP1 PUSH4 0xE5C5E9A3 EQ PUSH2 0x6B JUMPI JUMPDEST PUSH1 0x0 DUP1 REVERT JUMPDEST PUSH2 0x55 PUSH1 0x4 DUP1 CALLDATASIZE SUB DUP2 ADD SWAP1 PUSH2 0x50 SWAP2 SWAP1 PUSH2 0x511 JUMP JUMPDEST PUSH2 0x9F JUMP JUMPDEST PUSH1 0x40 MLOAD PUSH2 0x62 SWAP2 SWAP1 PUSH2 0x9AF JUMP JUMPDEST PUSH1 0x40 MLOAD DUP1 SWAP2 SUB SWAP1 RETURN JUMPDEST PUSH2 0x85 PUSH1 0x4 DUP1 CALLDATASIZE SUB DUP2 ADD SWAP1 PUSH2 0x80 SWAP2 SWAP1 PUSH2 0x4C4 JUMP JUMPDEST PUSH2 0xDA JUMP JUMPDEST PUSH1 0x40 MLOAD PUSH2 0x96 SWAP6 SWAP5 SWAP4 SWAP3 SWAP2 SWAP1 PUSH2 0xA3D JUMP JUMPDEST PUSH1 0x40 MLOAD DUP1 SWAP2 SUB SWAP1 RETURN JUMPDEST PUSH1 0x60 DUP8 DUP8 DUP8 DUP8 DUP8 DUP8 DUP8 PUSH1 0x40 MLOAD PUSH1 0x20 ADD PUSH2 0xBE SWAP8 SWAP7 SWAP6 SWAP5 SWAP4 SWAP3 SWAP2 SWAP1 PUSH2 0x9D1 JUMP JUMPDEST PUSH1 0x40 MLOAD PUSH1 0x20 DUP2 DUP4 SUB SUB DUP2 MSTORE SWAP1 PUSH1 0x40 MSTORE SWAP1 POP SWAP8 SWAP7 POP POP POP POP POP POP POP JUMP JUMPDEST PUSH1 0x60 PUSH1 0x0 DUP1 PUSH1 0x60 PUSH2 0xE9 PUSH2 0x116 JUMP JUMPDEST DUP7 DUP7 DUP2 ADD SWAP1 PUSH2 0xF8 SWAP2 SWAP1 PUSH2 0x5E9 JUMP JUMPDEST DUP1 SWAP6 POP DUP2 SWAP7 POP DUP3 SWAP8 POP DUP4 SWAP9 POP DUP5 SWAP10 POP POP POP POP POP POP SWAP3 SWAP6 POP SWAP3 SWAP6 SWAP1 SWAP4 POP JUMP JUMPDEST PUSH1 0x40 MLOAD DUP1 PUSH1 0x40 ADD PUSH1 0x40 MSTORE DUP1 PUSH1 0x60 DUP2 MSTORE PUSH1 0x20 ADD PUSH2 0x130 PUSH2 0x136 JUMP JUMPDEST DUP2 MSTORE POP SWAP1 JUMP JUMPDEST PUSH1 0x40 MLOAD DUP1 PUSH1 0x40 ADD PUSH1 0x40 MSTORE DUP1 PUSH1 0x2 SWAP1 PUSH1 0x20 DUP3 MUL DUP1 CALLDATASIZE DUP4 CALLDATACOPY DUP1 DUP3 ADD SWAP2 POP POP SWAP1 POP POP SWAP1 JUMP JUMPDEST PUSH1 0x0 PUSH2 0x16B PUSH2 0x166 DUP5 PUSH2 0xACA JUMP JUMPDEST PUSH2 0xAA5 JUMP JUMPDEST SWAP1 POP DUP1 DUP3 DUP6 PUSH1 0x20 DUP7 MUL DUP3 ADD GT ISZERO PUSH2 0x185 JUMPI PUSH2 0x184 PUSH2 0xD7D JUMP JUMPDEST JUMPDEST PUSH1 0x0 JUMPDEST DUP6 DUP2 LT ISZERO PUSH2 0x1B5 JUMPI DUP2 PUSH2 0x19B DUP9 DUP3 PUSH2 0x4AF JUMP JUMPDEST DUP5 MSTORE PUSH1 0x20 DUP5 ADD SWAP4 POP PUSH1 0x20 DUP4 ADD SWAP3 POP POP PUSH1 0x1 DUP2 ADD SWAP1 POP PUSH2 0x188 JUMP JUMPDEST POP POP POP SWAP4 SWAP3 POP POP POP JUMP JUMPDEST PUSH1 0x0 PUSH2 0x1D2 PUSH2 0x1CD DUP5 PUSH2 0xAF0 JUMP JUMPDEST PUSH2 0xAA5 JUMP JUMPDEST SWAP1 POP DUP1 DUP4 DUP3 MSTORE PUSH1 0x20 DUP3 ADD SWAP1 POP DUP3 DUP6 PUSH1 0x20 DUP7 MUL DUP3 ADD GT ISZERO PUSH2 0x1F5 JUMPI PUSH2 0x1F4 PUSH2 0xD7D JUMP JUMPDEST JUMPDEST PUSH1 0x0 JUMPDEST DUP6 DUP2 LT ISZERO PUSH2 0x225 JUMPI DUP2 PUSH2 0x20B DUP9 DUP3 PUSH2 0x4AF JUMP JUMPDEST DUP5 MSTORE PUSH1 0x20 DUP5 ADD SWAP4 POP PUSH1 0x20 DUP4 ADD SWAP3 POP POP PUSH1 0x1 DUP2 ADD SWAP1 POP PUSH2 0x1F8 JUMP JUMPDEST POP POP POP SWAP4 SWAP3 POP POP POP JUMP JUMPDEST PUSH1 0x0 PUSH2 0x242 PUSH2 0x23D DUP5 PUSH2 0xB1C JUMP JUMPDEST PUSH2 0xAA5 JUMP JUMPDEST SWAP1 POP DUP3 DUP2 MSTORE PUSH1 0x20 DUP2 ADD DUP5 DUP5 DUP5 ADD GT ISZERO PUSH2 0x25E JUMPI PUSH2 0x25D PUSH2 0xD82 JUMP JUMPDEST JUMPDEST PUSH2 0x269 DUP5 DUP3 DUP6 PUSH2 0xCB8 JUMP JUMPDEST POP SWAP4 SWAP3 POP POP POP JUMP JUMPDEST PUSH1 0x0 DUP2 CALLDATALOAD SWAP1 POP PUSH2 0x280 DUP2 PUSH2 0xDAC JUMP JUMPDEST SWAP3 SWAP2 POP POP JUMP JUMPDEST PUSH1 0x0 DUP2 CALLDATALOAD SWAP1 POP PUSH2 0x295 DUP2 PUSH2 0xDC3 JUMP JUMPDEST SWAP3 SWAP2 POP POP JUMP JUMPDEST PUSH1 0x0 DUP3 PUSH1 0x1F DUP4 ADD SLT PUSH2 0x2B0 JUMPI PUSH2 0x2AF PUSH2 0xD64 JUMP JUMPDEST JUMPDEST PUSH1 0x2 PUSH2 0x2BD DUP5 DUP3 DUP6 PUSH2 0x158 JUMP JUMPDEST SWAP2 POP POP SWAP3 SWAP2 POP POP JUMP JUMPDEST PUSH1 0x0 DUP1 DUP4 PUSH1 0x1F DUP5 ADD SLT PUSH2 0x2DC JUMPI PUSH2 0x2DB PUSH2 0xD64 JUMP JUMPDEST JUMPDEST DUP3 CALLDATALOAD SWAP1 POP PUSH8 0xFFFFFFFFFFFFFFFF DUP2 GT ISZERO PUSH2 0x2F9 JUMPI PUSH2 0x2F8 PUSH2 0xD5F JUMP JUMPDEST JUMPDEST PUSH1 0x20 DUP4 ADD SWAP2 POP DUP4 PUSH1 0x20 DUP3 MUL DUP4 ADD GT ISZERO PUSH2 0x315 JUMPI PUSH2 0x314 PUSH2 0xD7D JUMP JUMPDEST JUMPDEST SWAP3 POP SWAP3 SWAP1 POP JUMP JUMPDEST PUSH1 0x0 DUP3 PUSH1 0x1F DUP4 ADD SLT PUSH2 0x331 JUMPI PUSH2 0x330 PUSH2 0xD64 JUMP JUMPDEST JUMPDEST DUP2 CALLDATALOAD PUSH2 0x341 DUP5 DUP3 PUSH1 0x20 DUP7 ADD PUSH2 0x1BF JUMP JUMPDEST SWAP2 POP POP SWAP3 SWAP2 POP POP JUMP JUMPDEST PUSH1 0x0 DUP1 DUP4 PUSH1 0x1F DUP5 ADD SLT PUSH2 0x360 JUMPI PUSH2 0x35F PUSH2 0xD64 JUMP JUMPDEST JUMPDEST DUP3 CALLDATALOAD SWAP1 POP PUSH8 0xFFFFFFFFFFFFFFFF DUP2 GT ISZERO PUSH2 0x37D JUMPI PUSH2 0x37C PUSH2 0xD5F JUMP JUMPDEST JUMPDEST PUSH1 0x20 DUP4 ADD SWAP2 POP DUP4 PUSH1 0x1 DUP3 MUL DUP4 ADD GT ISZERO PUSH2 0x399 JUMPI PUSH2 0x398 PUSH2 0xD7D JUMP JUMPDEST JUMPDEST SWAP3 POP SWAP3 SWAP1 POP JUMP JUMPDEST PUSH1 0x0 DUP1 DUP4 PUSH1 0x1F DUP5 ADD SLT PUSH2 0x3B6 JUMPI PUSH2 0x3B5 PUSH2 0xD64 JUMP JUMPDEST JUMPDEST DUP3 CALLDATALOAD SWAP1 POP PUSH8 0xFFFFFFFFFFFFFFFF DUP2 GT ISZERO PUSH2 0x3D3 JUMPI PUSH2 0x3D2 PUSH2 0xD5F JUMP JUMPDEST JUMPDEST PUSH1 0x20 DUP4 ADD SWAP2 POP DUP4 PUSH1 0x1 DUP3 MUL DUP4 ADD GT ISZERO PUSH2 0x3EF JUMPI PUSH2 0x3EE PUSH2 0xD7D JUMP JUMPDEST JUMPDEST SWAP3 POP SWAP3 SWAP1 POP JUMP JUMPDEST PUSH1 0x0 DUP3 PUSH1 0x1F DUP4 ADD SLT PUSH2 0x40B JUMPI PUSH2 0x40A PUSH2 0xD64 JUMP JUMPDEST JUMPDEST DUP2 CALLDATALOAD PUSH2 0x41B DUP5 DUP3 PUSH1 0x20 DUP7 ADD PUSH2 0x22F JUMP JUMPDEST SWAP2 POP POP SWAP3 SWAP2 POP POP JUMP JUMPDEST PUSH1 0x0 PUSH1 0x60 DUP3 DUP5 SUB SLT ISZERO PUSH2 0x43A JUMPI PUSH2 0x439 PUSH2 0xD69 JUMP JUMPDEST JUMPDEST DUP2 SWAP1 POP SWAP3 SWAP2 POP POP JUMP JUMPDEST PUSH1 0x0 PUSH1 0x60 DUP3 DUP5 SUB SLT ISZERO PUSH2 0x459 JUMPI PUSH2 0x458 PUSH2 0xD6E JUMP JUMPDEST JUMPDEST PUSH2 0x463 PUSH1 0x40 PUSH2 0xAA5 JUMP JUMPDEST SWAP1 POP PUSH1 0x0 DUP3 ADD CALLDATALOAD PUSH8 0xFFFFFFFFFFFFFFFF DUP2 GT ISZERO PUSH2 0x483 JUMPI PUSH2 0x482 PUSH2 0xD78 JUMP JUMPDEST JUMPDEST PUSH2 0x48F DUP5 DUP3 DUP6 ADD PUSH2 0x3F6 JUMP JUMPDEST PUSH1 0x0 DUP4 ADD MSTORE POP PUSH1 0x20 PUSH2 0x4A3 DUP5 DUP3 DUP6 ADD PUSH2 0x29B JUMP JUMPDEST PUSH1 0x20 DUP4 ADD MSTORE POP SWAP3 SWAP2 POP POP JUMP JUMPDEST PUSH1 0x0 DUP2 CALLDATALOAD SWAP1 POP PUSH2 0x4BE DUP2 PUSH2 0xDDA JUMP JUMPDEST SWAP3 SWAP2 POP POP JUMP JUMPDEST PUSH1 0x0 DUP1 PUSH1 0x20 DUP4 DUP6 SUB SLT ISZERO PUSH2 0x4DB JUMPI PUSH2 0x4DA PUSH2 0xD96 JUMP JUMPDEST JUMPDEST PUSH1 0x0 DUP4 ADD CALLDATALOAD PUSH8 0xFFFFFFFFFFFFFFFF DUP2 GT ISZERO PUSH2 0x4F9 JUMPI PUSH2 0x4F8 PUSH2 0xD87 JUMP JUMPDEST JUMPDEST PUSH2 0x505 DUP6 DUP3 DUP7 ADD PUSH2 0x34A JUMP JUMPDEST SWAP3 POP SWAP3 POP POP SWAP3 POP SWAP3 SWAP1 POP JUMP JUMPDEST PUSH1 0x0 DUP1 PUSH1 0x0 DUP1 PUSH1 0x0 DUP1 PUSH1 0x0 PUSH1 0xA0 DUP9 DUP11 SUB SLT ISZERO PUSH2 0x530 JUMPI PUSH2 0x52F PUSH2 0xD96 JUMP JUMPDEST JUMPDEST PUSH1 0x0 DUP9 ADD CALLDATALOAD PUSH8 0xFFFFFFFFFFFFFFFF DUP2 GT ISZERO PUSH2 0x54E JUMPI PUSH2 0x54D PUSH2 0xD87 JUMP JUMPDEST JUMPDEST PUSH2 0x55A DUP11 DUP3 DUP12 ADD PUSH2 0x3A0 JUMP JUMPDEST SWAP8 POP SWAP8 POP POP PUSH1 0x20 PUSH2 0x56D DUP11 DUP3 DUP12 ADD PUSH2 0x4AF JUMP JUMPDEST SWAP6 POP POP PUSH1 0x40 PUSH2 0x57E DUP11 DUP3 DUP12 ADD PUSH2 0x271 JUMP JUMPDEST SWAP5 POP POP PUSH1 0x60 DUP9 ADD CALLDATALOAD PUSH8 0xFFFFFFFFFFFFFFFF DUP2 GT ISZERO PUSH2 0x59F JUMPI PUSH2 0x59E PUSH2 0xD87 JUMP JUMPDEST JUMPDEST PUSH2 0x5AB DUP11 DUP3 DUP12 ADD PUSH2 0x2C6 JUMP JUMPDEST SWAP4 POP SWAP4 POP POP PUSH1 0x80 DUP9 ADD CALLDATALOAD PUSH8 0xFFFFFFFFFFFFFFFF DUP2 GT ISZERO PUSH2 0x5CE JUMPI PUSH2 0x5CD PUSH2 0xD87 JUMP JUMPDEST JUMPDEST PUSH2 0x5DA DUP11 DUP3 DUP12 ADD PUSH2 0x424 JUMP JUMPDEST SWAP2 POP POP SWAP3 SWAP6 SWAP9 SWAP2 SWAP5 SWAP8 POP SWAP3 SWAP6 POP JUMP JUMPDEST PUSH1 0x0 DUP1 PUSH1 0x0 DUP1 PUSH1 0x0 PUSH1 0xA0 DUP7 DUP9 SUB SLT ISZERO PUSH2 0x605 JUMPI PUSH2 0x604 PUSH2 0xD96 JUMP JUMPDEST JUMPDEST PUSH1 0x0 DUP7 ADD CALLDATALOAD PUSH8 0xFFFFFFFFFFFFFFFF DUP2 GT ISZERO PUSH2 0x623 JUMPI PUSH2 0x622 PUSH2 0xD87 JUMP JUMPDEST JUMPDEST PUSH2 0x62F DUP9 DUP3 DUP10 ADD PUSH2 0x3F6 JUMP JUMPDEST SWAP6 POP POP PUSH1 0x20 PUSH2 0x640 DUP9 DUP3 DUP10 ADD PUSH2 0x4AF JUMP JUMPDEST SWAP5 POP POP PUSH1 0x40 PUSH2 0x651 DUP9 DUP3 DUP10 ADD PUSH2 0x286 JUMP JUMPDEST SWAP4 POP POP PUSH1 0x60 DUP7 ADD CALLDATALOAD PUSH8 0xFFFFFFFFFFFFFFFF DUP2 GT ISZERO PUSH2 0x672 JUMPI PUSH2 0x671 PUSH2 0xD87 JUMP JUMPDEST JUMPDEST PUSH2 0x67E DUP9 DUP3 DUP10 ADD PUSH2 0x31C JUMP JUMPDEST SWAP3 POP POP PUSH1 0x80 DUP7 ADD CALLDATALOAD PUSH8 0xFFFFFFFFFFFFFFFF DUP2 GT ISZERO PUSH2 0x69F JUMPI PUSH2 0x69E PUSH2 0xD87 JUMP JUMPDEST JUMPDEST PUSH2 0x6AB DUP9 DUP3 DUP10 ADD PUSH2 0x443 JUMP JUMPDEST SWAP2 POP POP SWAP3 SWAP6 POP SWAP3 SWAP6 SWAP1 SWAP4 POP JUMP JUMPDEST PUSH1 0x0 PUSH2 0x6C4 DUP4 DUP4 PUSH2 0x991 JUMP JUMPDEST PUSH1 0x20 DUP4 ADD SWAP1 POP SWAP3 SWAP2 POP POP JUMP JUMPDEST PUSH2 0x6D9 DUP2 PUSH2 0xC6A JUMP JUMPDEST DUP3 MSTORE POP POP JUMP JUMPDEST PUSH2 0x6EB PUSH1 0x40 DUP4 DUP4 PUSH2 0xCB8 JUMP JUMPDEST POP POP JUMP JUMPDEST PUSH2 0x6F8 DUP2 PUSH2 0xB67 JUMP JUMPDEST PUSH2 0x702 DUP2 DUP5 PUSH2 0xBAD JUMP JUMPDEST SWAP3 POP PUSH2 0x70D DUP3 PUSH2 0xB4D JUMP JUMPDEST DUP1 PUSH1 0x0 JUMPDEST DUP4 DUP2 LT ISZERO PUSH2 0x73E JUMPI DUP2 MLOAD PUSH2 0x725 DUP8 DUP3 PUSH2 0x6B8 JUMP JUMPDEST SWAP7 POP PUSH2 0x730 DUP4 PUSH2 0xB93 JUMP JUMPDEST SWAP3 POP POP PUSH1 0x1 DUP2 ADD SWAP1 POP PUSH2 0x711 JUMP JUMPDEST POP POP POP POP POP POP JUMP JUMPDEST PUSH1 0x0 PUSH2 0x752 DUP4 DUP6 PUSH2 0xBB8 JUMP JUMPDEST SWAP4 POP PUSH32 0x7FFFFFFFFFFFFFFFFFFFFFFFFFFFFFFFFFFFFFFFFFFFFFFFFFFFFFFFFFFFFFF DUP4 GT ISZERO PUSH2 0x785 JUMPI PUSH2 0x784 PUSH2 0xD8C JUMP JUMPDEST JUMPDEST PUSH1 0x20 DUP4 MUL SWAP3 POP PUSH2 0x796 DUP4 DUP6 DUP5 PUSH2 0xCB8 JUMP JUMPDEST DUP3 DUP5 ADD SWAP1 POP SWAP4 SWAP3 POP POP POP JUMP JUMPDEST PUSH1 0x0 PUSH2 0x7AD DUP3 PUSH2 0xB72 JUMP JUMPDEST PUSH2 0x7B7 DUP2 DUP6 PUSH2 0xBB8 JUMP JUMPDEST SWAP4 POP PUSH2 0x7C2 DUP4 PUSH2 0xB57 JUMP JUMPDEST DUP1 PUSH1 0x0 JUMPDEST DUP4 DUP2 LT ISZERO PUSH2 0x7F3 JUMPI DUP2 MLOAD PUSH2 0x7DA DUP9 DUP3 PUSH2 0x6B8 JUMP JUMPDEST SWAP8 POP PUSH2 0x7E5 DUP4 PUSH2 0xBA0 JUMP JUMPDEST SWAP3 POP POP PUSH1 0x1 DUP2 ADD SWAP1 POP PUSH2 0x7C6 JUMP JUMPDEST POP DUP6 SWAP4 POP POP POP POP SWAP3 SWAP2 POP POP JUMP JUMPDEST PUSH1 0x0 PUSH2 0x80B DUP3 PUSH2 0xB7D JUMP JUMPDEST PUSH2 0x815 DUP2 DUP6 PUSH2 0xBC9 JUMP JUMPDEST SWAP4 POP PUSH2 0x825 DUP2 DUP6 PUSH1 0x20 DUP7 ADD PUSH2 0xCC7 JUMP JUMPDEST PUSH2 0x82E DUP2 PUSH2 0xD9B JUMP JUMPDEST DUP5 ADD SWAP2 POP POP SWAP3 SWAP2 POP POP JUMP JUMPDEST PUSH1 0x0 PUSH2 0x845 DUP4 DUP6 PUSH2 0xBDA JUMP JUMPDEST SWAP4 POP PUSH2 0x852 DUP4 DUP6 DUP5 PUSH2 0xCB8 JUMP JUMPDEST PUSH2 0x85B DUP4 PUSH2 0xD9B JUMP JUMPDEST DUP5 ADD SWAP1 POP SWAP4 SWAP3 POP POP POP JUMP JUMPDEST PUSH1 0x0 PUSH2 0x872 DUP4 DUP6 PUSH2 0xBEB JUMP JUMPDEST SWAP4 POP PUSH2 0x87F DUP4 DUP6 DUP5 PUSH2 0xCB8 JUMP JUMPDEST PUSH2 0x888 DUP4 PUSH2 0xD9B JUMP JUMPDEST DUP5 ADD SWAP1 POP SWAP4 SWAP3 POP POP POP JUMP JUMPDEST PUSH1 0x0 PUSH2 0x89E DUP3 PUSH2 0xB88 JUMP JUMPDEST PUSH2 0x8A8 DUP2 DUP6 PUSH2 0xBDA JUMP JUMPDEST SWAP4 POP PUSH2 0x8B8 DUP2 DUP6 PUSH1 0x20 DUP7 ADD PUSH2 0xCC7 JUMP JUMPDEST PUSH2 0x8C1 DUP2 PUSH2 0xD9B JUMP JUMPDEST DUP5 ADD SWAP2 POP POP SWAP3 SWAP2 POP POP JUMP JUMPDEST PUSH1 0x0 PUSH2 0x8D7 DUP3 PUSH2 0xB88 JUMP JUMPDEST PUSH2 0x8E1 DUP2 DUP6 PUSH2 0xBEB JUMP JUMPDEST SWAP4 POP PUSH2 0x8F1 DUP2 DUP6 PUSH1 0x20 DUP7 ADD PUSH2 0xCC7 JUMP JUMPDEST PUSH2 0x8FA DUP2 PUSH2 0xD9B JUMP JUMPDEST DUP5 ADD SWAP2 POP POP SWAP3 SWAP2 POP POP JUMP JUMPDEST PUSH1 0x0 PUSH1 0x60 DUP4 ADD PUSH2 0x918 PUSH1 0x0 DUP5 ADD DUP5 PUSH2 0xC07 JUMP JUMPDEST DUP6 DUP4 SUB PUSH1 0x0 DUP8 ADD MSTORE PUSH2 0x92B DUP4 DUP3 DUP5 PUSH2 0x839 JUMP JUMPDEST SWAP3 POP POP POP PUSH2 0x93C PUSH1 0x20 DUP5 ADD DUP5 PUSH2 0xBFC JUMP JUMPDEST PUSH2 0x949 PUSH1 0x20 DUP7 ADD DUP3 PUSH2 0x6DF JUMP JUMPDEST POP DUP1 SWAP2 POP POP SWAP3 SWAP2 POP POP JUMP JUMPDEST PUSH1 0x0 PUSH1 0x60 DUP4 ADD PUSH1 0x0 DUP4 ADD MLOAD DUP5 DUP3 SUB PUSH1 0x0 DUP7 ADD MSTORE PUSH2 0x971 DUP3 DUP3 PUSH2 0x893 JUMP JUMPDEST SWAP2 POP POP PUSH1 0x20 DUP4 ADD MLOAD PUSH2 0x986 PUSH1 0x20 DUP7 ADD DUP3 PUSH2 0x6EF JUMP JUMPDEST POP DUP1 SWAP2 POP POP SWAP3 SWAP2 POP POP JUMP JUMPDEST PUSH2 0x99A DUP2 PUSH2 0xCAE JUMP JUMPDEST DUP3 MSTORE POP POP JUMP JUMPDEST PUSH2 0x9A9 DUP2 PUSH2 0xCAE JUMP JUMPDEST DUP3 MSTORE POP POP JUMP JUMPDEST PUSH1 0x0 PUSH1 0x20 DUP3 ADD SWAP1 POP DUP2 DUP2 SUB PUSH1 0x0 DUP4 ADD MSTORE PUSH2 0x9C9 DUP2 DUP5 PUSH2 0x800 JUMP JUMPDEST SWAP1 POP SWAP3 SWAP2 POP POP JUMP JUMPDEST PUSH1 0x0 PUSH1 0xA0 DUP3 ADD SWAP1 POP DUP2 DUP2 SUB PUSH1 0x0 DUP4 ADD MSTORE PUSH2 0x9EC DUP2 DUP10 DUP12 PUSH2 0x866 JUMP JUMPDEST SWAP1 POP PUSH2 0x9FB PUSH1 0x20 DUP4 ADD DUP9 PUSH2 0x9A0 JUMP JUMPDEST PUSH2 0xA08 PUSH1 0x40 DUP4 ADD DUP8 PUSH2 0x6D0 JUMP JUMPDEST DUP2 DUP2 SUB PUSH1 0x60 DUP4 ADD MSTORE PUSH2 0xA1B DUP2 DUP6 DUP8 PUSH2 0x746 JUMP JUMPDEST SWAP1 POP DUP2 DUP2 SUB PUSH1 0x80 DUP4 ADD MSTORE PUSH2 0xA2F DUP2 DUP5 PUSH2 0x905 JUMP JUMPDEST SWAP1 POP SWAP9 SWAP8 POP POP POP POP POP POP POP POP JUMP JUMPDEST PUSH1 0x0 PUSH1 0xA0 DUP3 ADD SWAP1 POP DUP2 DUP2 SUB PUSH1 0x0 DUP4 ADD MSTORE PUSH2 0xA57 DUP2 DUP9 PUSH2 0x8CC JUMP JUMPDEST SWAP1 POP PUSH2 0xA66 PUSH1 0x20 DUP4 ADD DUP8 PUSH2 0x9A0 JUMP JUMPDEST PUSH2 0xA73 PUSH1 0x40 DUP4 ADD DUP7 PUSH2 0x6D0 JUMP JUMPDEST DUP2 DUP2 SUB PUSH1 0x60 DUP4 ADD MSTORE PUSH2 0xA85 DUP2 DUP6 PUSH2 0x7A2 JUMP JUMPDEST SWAP1 POP DUP2 DUP2 SUB PUSH1 0x80 DUP4 ADD MSTORE PUSH2 0xA99 DUP2 DUP5 PUSH2 0x954 JUMP JUMPDEST SWAP1 POP SWAP7 SWAP6 POP POP POP POP POP POP JUMP JUMPDEST PUSH1 0x0 PUSH2 0xAAF PUSH2 0xAC0 JUMP JUMPDEST SWAP1 POP PUSH2 0xABB DUP3 DUP3 PUSH2 0xCFA JUMP JUMPDEST SWAP2 SWAP1 POP JUMP JUMPDEST PUSH1 0x0 PUSH1 0x40 MLOAD SWAP1 POP SWAP1 JUMP JUMPDEST PUSH1 0x0 PUSH8 0xFFFFFFFFFFFFFFFF DUP3 GT ISZERO PUSH2 0xAE5 JUMPI PUSH2 0xAE4 PUSH2 0xD2B JUMP JUMPDEST JUMPDEST PUSH1 0x20 DUP3 MUL SWAP1 POP SWAP2 SWAP1 POP JUMP JUMPDEST PUSH1 0x0 PUSH8 0xFFFFFFFFFFFFFFFF DUP3 GT ISZERO PUSH2 0xB0B JUMPI PUSH2 0xB0A PUSH2 0xD2B JUMP JUMPDEST JUMPDEST PUSH1 0x20 DUP3 MUL SWAP1 POP PUSH1 0x20 DUP2 ADD SWAP1 POP SWAP2 SWAP1 POP JUMP JUMPDEST PUSH1 0x0 PUSH8 0xFFFFFFFFFFFFFFFF DUP3 GT ISZERO PUSH2 0xB37 JUMPI PUSH2 0xB36 PUSH2 0xD2B JUMP JUMPDEST JUMPDEST PUSH2 0xB40 DUP3 PUSH2 0xD9B JUMP JUMPDEST SWAP1 POP PUSH1 0x20 DUP2 ADD SWAP1 POP SWAP2 SWAP1 POP JUMP JUMPDEST PUSH1 0x0 DUP2 SWAP1 POP SWAP2 SWAP1 POP JUMP JUMPDEST PUSH1 0x0 DUP2 SWAP1 POP PUSH1 0x20 DUP3 ADD SWAP1 POP SWAP2 SWAP1 POP JUMP JUMPDEST PUSH1 0x0 PUSH1 0x2 SWAP1 POP SWAP2 SWAP1 POP JUMP JUMPDEST PUSH1 0x0 DUP2 MLOAD SWAP1 POP SWAP2 SWAP1 POP JUMP JUMPDEST PUSH1 0x0 DUP2 MLOAD SWAP1 POP SWAP2 SWAP1 POP JUMP JUMPDEST PUSH1 0x0 DUP2 MLOAD SWAP1 POP SWAP2 SWAP1 POP JUMP JUMPDEST PUSH1 0x0 PUSH1 0x20 DUP3 ADD SWAP1 POP SWAP2 SWAP1 POP JUMP JUMPDEST PUSH1 0x0 PUSH1 0x20 DUP3 ADD SWAP1 POP SWAP2 SWAP1 POP JUMP JUMPDEST PUSH1 0x0 DUP2 SWAP1 POP SWAP3 SWAP2 POP POP JUMP JUMPDEST PUSH1 0x0 DUP3 DUP3 MSTORE PUSH1 0x20 DUP3 ADD SWAP1 POP SWAP3 SWAP2 POP POP JUMP JUMPDEST PUSH1 0x0 DUP3 DUP3 MSTORE PUSH1 0x20 DUP3 ADD SWAP1 POP SWAP3 SWAP2 POP POP JUMP JUMPDEST PUSH1 0x0 DUP3 DUP3 MSTORE PUSH1 0x20 DUP3 ADD SWAP1 POP SWAP3 SWAP2 POP POP JUMP JUMPDEST PUSH1 0x0 DUP3 DUP3 MSTORE PUSH1 0x20 DUP3 ADD SWAP1 POP SWAP3 SWAP2 POP POP JUMP JUMPDEST PUSH1 0x0 DUP3 SWAP1 POP SWAP3 SWAP2 POP POP JUMP JUMPDEST PUSH1 0x0 DUP1 DUP4 CALLDATALOAD PUSH1 0x1 PUSH1 0x20 SUB DUP5 CALLDATASIZE SUB SUB DUP2 SLT PUSH2 0xC24 JUMPI PUSH2 0xC23 PUSH2 0xD91 JUMP JUMPDEST JUMPDEST DUP4 DUP2 ADD SWAP3 POP DUP3 CALLDATALOAD SWAP2 POP PUSH1 0x20 DUP4 ADD SWAP3 POP PUSH8 0xFFFFFFFFFFFFFFFF DUP3 GT ISZERO PUSH2 0xC4C JUMPI PUSH2 0xC4B PUSH2 0xD5A JUMP JUMPDEST JUMPDEST PUSH1 0x1 DUP3 MUL CALLDATASIZE SUB DUP5 SGT ISZERO PUSH2 0xC62 JUMPI PUSH2 0xC61 PUSH2 0xD73 JUMP JUMPDEST JUMPDEST POP SWAP3 POP SWAP3 SWAP1 POP JUMP JUMPDEST PUSH1 0x0 PUSH2 0xC75 DUP3 PUSH2 0xC8E JUMP JUMPDEST SWAP1 POP SWAP2 SWAP1 POP JUMP JUMPDEST PUSH1 0x0 PUSH2 0xC87 DUP3 PUSH2 0xC8E JUMP JUMPDEST SWAP1 POP SWAP2 SWAP1 POP JUMP JUMPDEST PUSH1 0x0 PUSH20 0xFFFFFFFFFFFFFFFFFFFFFFFFFFFFFFFFFFFFFFFF DUP3 AND SWAP1 POP SWAP2 SWAP1 POP JUMP JUMPDEST PUSH1 0x0 DUP2 SWAP1 POP SWAP2 SWAP1 POP JUMP JUMPDEST DUP3 DUP2 DUP4 CALLDATACOPY PUSH1 0x0 DUP4 DUP4 ADD MSTORE POP POP POP JUMP JUMPDEST PUSH1 0x0 JUMPDEST DUP4 DUP2 LT ISZERO PUSH2 0xCE5 JUMPI DUP1 DUP3 ADD MLOAD DUP2 DUP5 ADD MSTORE PUSH1 0x20 DUP2 ADD SWAP1 POP PUSH2 0xCCA JUMP JUMPDEST DUP4 DUP2 GT ISZERO PUSH2 0xCF4 JUMPI PUSH1 0x0 DUP5 DUP5 ADD MSTORE JUMPDEST POP POP POP POP JUMP JUMPDEST PUSH2 0xD03 DUP3 PUSH2 0xD9B JUMP JUMPDEST DUP2 ADD DUP2 DUP2 LT PUSH8 0xFFFFFFFFFFFFFFFF DUP3 GT OR ISZERO PUSH2 0xD22 JUMPI PUSH2 0xD21 PUSH2 0xD2B JUMP JUMPDEST JUMPDEST DUP1 PUSH1 0x40 MSTORE POP POP POP JUMP JUMPDEST PUSH32 0x4E487B7100000000000000000000000000000000000000000000000000000000 PUSH1 0x0 MSTORE PUSH1 0x41 PUSH1 0x4 MSTORE PUSH1 0x24 PUSH1 0x0 REVERT JUMPDEST PUSH1 0x0 DUP1 REVERT JUMPDEST PUSH1 0x0 DUP1 REVERT JUMPDEST PUSH1 0x0 DUP1 REVERT JUMPDEST PUSH1 0x0 DUP1 REVERT JUMPDEST PUSH1 0x0 DUP1 REVERT JUMPDEST PUSH1 0x0 DUP1 REVERT JUMPDEST PUSH1 0x0 DUP1 REVERT JUMPDEST PUSH1 0x0 DUP1 REVERT JUMPDEST PUSH1 0x0 DUP1 REVERT JUMPDEST PUSH1 0x0 DUP1 REVERT JUMPDEST PUSH1 0x0 DUP1 REVERT JUMPDEST PUSH1 0x0 DUP1 REVERT JUMPDEST PUSH1 0x0 DUP1 REVERT JUMPDEST PUSH1 0x0 PUSH1 0x1F NOT PUSH1 0x1F DUP4 ADD AND SWAP1 POP SWAP2 SWAP1 POP JUMP JUMPDEST PUSH2 0xDB5 DUP2 PUSH2 0xC6A JUMP JUMPDEST DUP2 EQ PUSH2 0xDC0 JUMPI PUSH1 0x0 DUP1 REVERT JUMPDEST POP JUMP JUMPDEST PUSH2 0xDCC DUP2 PUSH2 0xC7C JUMP JUMPDEST DUP2 EQ PUSH2 0xDD7 JUMPI PUSH1 0x0 DUP1 REVERT JUMPDEST POP JUMP JUMPDEST PUSH2 0xDE3 DUP2 PUSH2 0xCAE JUMP JUMPDEST DUP2 EQ PUSH2 0xDEE JUMPI PUSH1 0x0 DUP1 REVERT JUMPDEST POP JUMP INVALID LOG2 PUSH5 0x6970667358 0x22 SLT KECCAK256 0xE9 SWAP4 0xBA CALL JUMP PUSH31 0x5C3451382A98056297BC3A124112B9F446E0B2C9BEEAAE16281764736F6C63 NUMBER STOP ADDMOD SMOD STOP CALLER "
				},
				"gasEstimates": {
					"creation": {
						"codeDepositCost": "724600",
						"executionCost": "760",
						"totalCost": "725360"
					},
					"external": {
						"decode(bytes)": "infinite",
						"encode(string,uint256,address,uint256[],(string,uint256[2]))": "infinite"
					}
				},
				"methodIdentifiers": {
					"decode(bytes)": "e5c5e9a3",
					"encode(string,uint256,address,uint256[],(string,uint256[2]))": "0cc6a8be"
				}
			},
			"storageLayout": {
				"storage": [],
				"types": null
			},
			"userdoc": {
				"kind": "user",
				"methods": {},
				"version": 1
			}
		}
	}
}