{
	"49TimeLock.sol": {
		"TimeLock": {
			"abi": [
				{
					"inputs": [
						{
							"internalType": "uint256",
							"name": "_delay",
							"type": "uint256"
						}
					],
					"stateMutability": "nonpayable",
					"type": "constructor"
				},
				{
					"inputs": [],
					"name": "admin",
					"outputs": [
						{
							"internalType": "address",
							"name": "",
							"type": "address"
						}
					],
					"stateMutability": "view",
					"type": "function"
				},
				{
					"inputs": [
						{
							"internalType": "address",
							"name": "target",
							"type": "address"
						},
						{
							"internalType": "uint256",
							"name": "value",
							"type": "uint256"
						},
						{
							"internalType": "string",
							"name": "signature",
							"type": "string"
						},
						{
							"internalType": "bytes",
							"name": "data",
							"type": "bytes"
						},
						{
							"internalType": "uint256",
							"name": "executeTime",
							"type": "uint256"
						}
					],
					"name": "cancelQueueTransaction",
					"outputs": [],
					"stateMutability": "nonpayable",
					"type": "function"
				},
				{
					"inputs": [
						{
							"internalType": "address",
							"name": "_newAdmin",
							"type": "address"
						}
					],
					"name": "changeAdmin",
					"outputs": [],
					"stateMutability": "nonpayable",
					"type": "function"
				},
				{
					"inputs": [],
					"name": "delay",
					"outputs": [
						{
							"internalType": "uint256",
							"name": "",
							"type": "uint256"
						}
					],
					"stateMutability": "view",
					"type": "function"
				},
				{
					"inputs": [
						{
							"internalType": "address",
							"name": "target",
							"type": "address"
						},
						{
							"internalType": "uint256",
							"name": "value",
							"type": "uint256"
						},
						{
							"internalType": "string",
							"name": "signature",
							"type": "string"
						},
						{
							"internalType": "bytes",
							"name": "data",
							"type": "bytes"
						},
						{
							"internalType": "uint256",
							"name": "executeTime",
							"type": "uint256"
						}
					],
					"name": "executeTransaction",
					"outputs": [
						{
							"internalType": "bytes",
							"name": "",
							"type": "bytes"
						}
					],
					"stateMutability": "payable",
					"type": "function"
				},
				{
					"inputs": [],
					"name": "getBlockTimestamp",
					"outputs": [
						{
							"internalType": "uint256",
							"name": "",
							"type": "uint256"
						}
					],
					"stateMutability": "view",
					"type": "function"
				},
				{
					"inputs": [
						{
							"internalType": "address",
							"name": "target",
							"type": "address"
						},
						{
							"internalType": "uint256",
							"name": "value",
							"type": "uint256"
						},
						{
							"internalType": "string",
							"name": "signature",
							"type": "string"
						},
						{
							"internalType": "bytes",
							"name": "data",
							"type": "bytes"
						},
						{
							"internalType": "uint256",
							"name": "executeTime",
							"type": "uint256"
						}
					],
					"name": "getTxHash",
					"outputs": [
						{
							"internalType": "bytes32",
							"name": "",
							"type": "bytes32"
						}
					],
					"stateMutability": "pure",
					"type": "function"
				},
				{
					"inputs": [],
					"name": "lock_duration",
					"outputs": [
						{
							"internalType": "uint256",
							"name": "",
							"type": "uint256"
						}
					],
					"stateMutability": "view",
					"type": "function"
				},
				{
					"inputs": [
						{
							"internalType": "bytes32",
							"name": "",
							"type": "bytes32"
						}
					],
					"name": "queuedTransaction",
					"outputs": [
						{
							"internalType": "bool",
							"name": "",
							"type": "bool"
						}
					],
					"stateMutability": "view",
					"type": "function"
				},
				{
					"inputs": [
						{
							"internalType": "address",
							"name": "target",
							"type": "address"
						},
						{
							"internalType": "uint256",
							"name": "value",
							"type": "uint256"
						},
						{
							"internalType": "string",
							"name": "signature",
							"type": "string"
						},
						{
							"internalType": "bytes",
							"name": "data",
							"type": "bytes"
						},
						{
							"internalType": "uint256",
							"name": "executeTime",
							"type": "uint256"
						}
					],
					"name": "queuedTransactions",
					"outputs": [
						{
							"internalType": "bytes32",
							"name": "",
							"type": "bytes32"
						}
					],
					"stateMutability": "nonpayable",
					"type": "function"
				}
			],
			"devdoc": {
				"kind": "dev",
				"methods": {},
				"version": 1
			},
			"evm": {
				"assembly": "    /* \"49TimeLock.sol\":58:4324  contract TimeLock{... */\n  mstore(0x40, 0x80)\n    /* \"49TimeLock.sol\":631:714  constructor(uint _delay){... */\n  callvalue\n  dup1\n  iszero\n  tag_1\n  jumpi\n  0x00\n  dup1\n  revert\ntag_1:\n  pop\n  mload(0x40)\n  sub(codesize, bytecodeSize)\n  dup1\n  bytecodeSize\n  dup4\n  codecopy\n  dup2\n  add\n  0x40\n  dup2\n  swap1\n  mstore\n  tag_2\n  swap2\n  tag_3\n  jump\t// in\ntag_2:\n    /* \"49TimeLock.sol\":665:670  admin */\n  0x00\n    /* \"49TimeLock.sol\":665:683  admin = msg.sender */\n  dup1\n  sload\n  not(sub(shl(0xa0, 0x01), 0x01))\n  and\n    /* \"49TimeLock.sol\":673:683  msg.sender */\n  caller\n    /* \"49TimeLock.sol\":665:683  admin = msg.sender */\n  or\n  swap1\n  sstore\n  0x01\n    /* \"49TimeLock.sol\":693:707  delay = _delay */\n  sstore\n    /* \"49TimeLock.sol\":58:4324  contract TimeLock{... */\n  jump(tag_7)\n    /* \"#utility.yul\":14:198   */\ntag_3:\n    /* \"#utility.yul\":84:90   */\n  0x00\n    /* \"#utility.yul\":137:139   */\n  0x20\n    /* \"#utility.yul\":125:134   */\n  dup3\n    /* \"#utility.yul\":116:123   */\n  dup5\n    /* \"#utility.yul\":112:135   */\n  sub\n    /* \"#utility.yul\":108:140   */\n  slt\n    /* \"#utility.yul\":105:157   */\n  iszero\n  tag_9\n  jumpi\n    /* \"#utility.yul\":153:154   */\n  0x00\n    /* \"#utility.yul\":150:151   */\n  dup1\n    /* \"#utility.yul\":143:155   */\n  revert\n    /* \"#utility.yul\":105:157   */\ntag_9:\n  pop\n    /* \"#utility.yul\":176:192   */\n  mload\n  swap2\n    /* \"#utility.yul\":14:198   */\n  swap1\n  pop\n  jump\t// out\ntag_7:\n    /* \"49TimeLock.sol\":58:4324  contract TimeLock{... */\n  dataSize(sub_0)\n  dup1\n  dataOffset(sub_0)\n  0x00\n  codecopy\n  0x00\n  return\nstop\n\nsub_0: assembly {\n        /* \"49TimeLock.sol\":58:4324  contract TimeLock{... */\n      mstore(0x40, 0x80)\n      jumpi(tag_1, lt(calldatasize, 0x04))\n      shr(0xe0, calldataload(0x00))\n      dup1\n      0x930f1c05\n      gt\n      tag_12\n      jumpi\n      dup1\n      0xd13bb0ed\n      gt\n      tag_13\n      jumpi\n      dup1\n      0xd13bb0ed\n      eq\n      tag_9\n      jumpi\n      dup1\n      0xe465b292\n      eq\n      tag_10\n      jumpi\n      dup1\n      0xf851a440\n      eq\n      tag_11\n      jumpi\n      0x00\n      dup1\n      revert\n    tag_13:\n      dup1\n      0x930f1c05\n      eq\n      tag_7\n      jumpi\n      dup1\n      0xceddcc44\n      eq\n      tag_8\n      jumpi\n      0x00\n      dup1\n      revert\n    tag_12:\n      dup1\n      0x6a42b8f8\n      gt\n      tag_14\n      jumpi\n      dup1\n      0x6a42b8f8\n      eq\n      tag_4\n      jumpi\n      dup1\n      0x796b89b9\n      eq\n      tag_5\n      jumpi\n      dup1\n      0x8f283970\n      eq\n      tag_6\n      jumpi\n      0x00\n      dup1\n      revert\n    tag_14:\n      dup1\n      0x04a71576\n      eq\n      tag_2\n      jumpi\n      dup1\n      0x0825f38f\n      eq\n      tag_3\n      jumpi\n    tag_1:\n      0x00\n      dup1\n      revert\n        /* \"49TimeLock.sol\":3936:4322  function getTxHash(... */\n    tag_2:\n      callvalue\n      dup1\n      iszero\n      tag_15\n      jumpi\n      0x00\n      dup1\n      revert\n    tag_15:\n      pop\n      tag_16\n      tag_17\n      calldatasize\n      0x04\n      tag_18\n      jump\t// in\n    tag_17:\n      tag_19\n      jump\t// in\n    tag_16:\n      mload(0x40)\n        /* \"#utility.yul\":4541:4566   */\n      swap1\n      dup2\n      mstore\n        /* \"#utility.yul\":4529:4531   */\n      0x20\n        /* \"#utility.yul\":4514:4532   */\n      add\n        /* \"49TimeLock.sol\":3936:4322  function getTxHash(... */\n    tag_20:\n      mload(0x40)\n      dup1\n      swap2\n      sub\n      swap1\n      return\n        /* \"49TimeLock.sol\":2554:3899  function executeTransaction(... */\n    tag_3:\n      tag_22\n      tag_23\n      calldatasize\n      0x04\n      tag_18\n      jump\t// in\n    tag_23:\n      tag_24\n      jump\t// in\n    tag_22:\n      mload(0x40)\n      tag_20\n      swap2\n      swap1\n      tag_26\n      jump\t// in\n        /* \"49TimeLock.sol\":481:498  uint public delay */\n    tag_4:\n      callvalue\n      dup1\n      iszero\n      tag_27\n      jumpi\n      0x00\n      dup1\n      revert\n    tag_27:\n      pop\n      tag_16\n      sload(0x01)\n      dup2\n      jump\n        /* \"49TimeLock.sol\":900:993  function getBlockTimestamp() public view returns(uint){... */\n    tag_5:\n      callvalue\n      dup1\n      iszero\n      tag_32\n      jumpi\n      0x00\n      dup1\n      revert\n    tag_32:\n      pop\n        /* \"49TimeLock.sol\":971:986  block.timestamp */\n      timestamp\n        /* \"49TimeLock.sol\":900:993  function getBlockTimestamp() public view returns(uint){... */\n      jump(tag_16)\n        /* \"49TimeLock.sol\":771:867  function changeAdmin(address _newAdmin) external onlyTimeLock {... */\n    tag_6:\n      callvalue\n      dup1\n      iszero\n      tag_36\n      jumpi\n      0x00\n      dup1\n      revert\n    tag_36:\n      pop\n      tag_37\n      tag_38\n      calldatasize\n      0x04\n      tag_39\n      jump\t// in\n    tag_38:\n      tag_40\n      jump\t// in\n    tag_37:\n      stop\n        /* \"49TimeLock.sol\":1042:1816  function queuedTransactions(... */\n    tag_7:\n      callvalue\n      dup1\n      iszero\n      tag_41\n      jumpi\n      0x00\n      dup1\n      revert\n    tag_41:\n      pop\n      tag_16\n      tag_43\n      calldatasize\n      0x04\n      tag_18\n      jump\t// in\n    tag_43:\n      tag_44\n      jump\t// in\n        /* \"49TimeLock.sol\":385:433  uint public constant lock_duration = 150 seconds */\n    tag_8:\n      callvalue\n      dup1\n      iszero\n      tag_46\n      jumpi\n      0x00\n      dup1\n      revert\n    tag_46:\n      pop\n      tag_16\n        /* \"49TimeLock.sol\":422:433  150 seconds */\n      0x96\n        /* \"49TimeLock.sol\":385:433  uint public constant lock_duration = 150 seconds */\n      dup2\n      jump\n        /* \"49TimeLock.sol\":1880:2529  function cancelQueueTransaction(... */\n    tag_9:\n      callvalue\n      dup1\n      iszero\n      tag_50\n      jumpi\n      0x00\n      dup1\n      revert\n    tag_50:\n      pop\n      tag_37\n      tag_52\n      calldatasize\n      0x04\n      tag_18\n      jump\t// in\n    tag_52:\n      tag_53\n      jump\t// in\n        /* \"49TimeLock.sol\":559:608  mapping(bytes32 => bool) public queuedTransaction */\n    tag_10:\n      callvalue\n      dup1\n      iszero\n      tag_54\n      jumpi\n      0x00\n      dup1\n      revert\n    tag_54:\n      pop\n      tag_55\n      tag_56\n      calldatasize\n      0x04\n      tag_57\n      jump\t// in\n    tag_56:\n      mstore(0x20, 0x02)\n      0x00\n      swap1\n      dup2\n      mstore\n      0x40\n      swap1\n      keccak256\n      sload\n      0xff\n      and\n      dup2\n      jump\n    tag_55:\n      mload(0x40)\n        /* \"#utility.yul\":4368:4382   */\n      swap1\n      iszero\n        /* \"#utility.yul\":4361:4383   */\n      iszero\n        /* \"#utility.yul\":4343:4384   */\n      dup2\n      mstore\n        /* \"#utility.yul\":4331:4333   */\n      0x20\n        /* \"#utility.yul\":4316:4334   */\n      add\n        /* \"49TimeLock.sol\":559:608  mapping(bytes32 => bool) public queuedTransaction */\n      tag_20\n        /* \"#utility.yul\":4203:4390   */\n      jump\n        /* \"49TimeLock.sol\":359:379  address public admin */\n    tag_11:\n      callvalue\n      dup1\n      iszero\n      tag_61\n      jumpi\n      0x00\n      dup1\n      revert\n    tag_61:\n      pop\n      sload(0x00)\n      tag_62\n      swap1\n      0xffffffffffffffffffffffffffffffffffffffff\n      and\n      dup2\n      jump\n    tag_62:\n      mload(0x40)\n        /* \"#utility.yul\":3499:3541   */\n      0xffffffffffffffffffffffffffffffffffffffff\n        /* \"#utility.yul\":3487:3542   */\n      swap1\n      swap2\n      and\n        /* \"#utility.yul\":3469:3543   */\n      dup2\n      mstore\n        /* \"#utility.yul\":3457:3459   */\n      0x20\n        /* \"#utility.yul\":3442:3460   */\n      add\n        /* \"49TimeLock.sol\":359:379  address public admin */\n      tag_20\n        /* \"#utility.yul\":3323:3549   */\n      jump\n        /* \"49TimeLock.sol\":3936:4322  function getTxHash(... */\n    tag_19:\n        /* \"49TimeLock.sol\":4228:4235  bytes32 */\n      0x00\n        /* \"49TimeLock.sol\":4274:4280  target */\n      dup6\n        /* \"49TimeLock.sol\":4281:4286  value */\n      dup6\n        /* \"49TimeLock.sol\":4287:4291  data */\n      dup5\n        /* \"49TimeLock.sol\":4292:4303  executeTime */\n      dup5\n        /* \"49TimeLock.sol\":4304:4313  signature */\n      dup8\n        /* \"49TimeLock.sol\":4263:4314  abi.encode(target,value,data,executeTime,signature) */\n      add(0x20, mload(0x40))\n      tag_67\n      swap6\n      swap5\n      swap4\n      swap3\n      swap2\n      swap1\n      tag_68\n      jump\t// in\n    tag_67:\n      mload(0x40)\n      0x20\n      dup2\n      dup4\n      sub\n      sub\n      dup2\n      mstore\n      swap1\n      0x40\n      mstore\n        /* \"49TimeLock.sol\":4253:4315  keccak256(abi.encode(target,value,data,executeTime,signature)) */\n      dup1\n      mload\n      swap1\n      0x20\n      add\n      keccak256\n        /* \"49TimeLock.sol\":4246:4315  return keccak256(abi.encode(target,value,data,executeTime,signature)) */\n      swap1\n      pop\n        /* \"49TimeLock.sol\":3936:4322  function getTxHash(... */\n      swap6\n      swap5\n      pop\n      pop\n      pop\n      pop\n      pop\n      jump\t// out\n        /* \"49TimeLock.sol\":2554:3899  function executeTransaction(... */\n    tag_24:\n        /* \"49TimeLock.sol\":172:177  admin */\n      sload(0x00)\n        /* \"49TimeLock.sol\":2920:2932  bytes memory */\n      0x60\n      swap1\n        /* \"49TimeLock.sol\":172:177  admin */\n      0xffffffffffffffffffffffffffffffffffffffff\n      and\n        /* \"49TimeLock.sol\":158:168  msg.sender */\n      caller\n        /* \"49TimeLock.sol\":158:177  msg.sender == admin */\n      eq\n        /* \"49TimeLock.sol\":150:197  require(msg.sender == admin,\"caller not admin\") */\n      tag_70\n      jumpi\n      mload(0x40)\n      0x08c379a000000000000000000000000000000000000000000000000000000000\n      dup2\n      mstore\n        /* \"#utility.yul\":6060:6062   */\n      0x20\n        /* \"49TimeLock.sol\":150:197  require(msg.sender == admin,\"caller not admin\") */\n      0x04\n      dup3\n      add\n        /* \"#utility.yul\":6042:6063   */\n      mstore\n        /* \"#utility.yul\":6099:6101   */\n      0x10\n        /* \"#utility.yul\":6079:6097   */\n      0x24\n      dup3\n      add\n        /* \"#utility.yul\":6072:6102   */\n      mstore\n        /* \"#utility.yul\":6138:6156   */\n      0x63616c6c6572206e6f742061646d696e00000000000000000000000000000000\n        /* \"#utility.yul\":6118:6136   */\n      0x44\n      dup3\n      add\n        /* \"#utility.yul\":6111:6157   */\n      mstore\n        /* \"#utility.yul\":6174:6192   */\n      0x64\n      add\n        /* \"49TimeLock.sol\":150:197  require(msg.sender == admin,\"caller not admin\") */\n    tag_71:\n      mload(0x40)\n      dup1\n      swap2\n      sub\n      swap1\n      revert\n    tag_70:\n        /* \"49TimeLock.sol\":2966:2980  bytes32 txHash */\n      0x00\n        /* \"49TimeLock.sol\":2983:3033  getTxHash(target,value,signature,data,executeTime) */\n      tag_74\n        /* \"49TimeLock.sol\":2993:2999  target */\n      dup8\n        /* \"49TimeLock.sol\":3000:3005  value */\n      dup8\n        /* \"49TimeLock.sol\":3006:3015  signature */\n      dup8\n        /* \"49TimeLock.sol\":3016:3020  data */\n      dup8\n        /* \"49TimeLock.sol\":3021:3032  executeTime */\n      dup8\n        /* \"49TimeLock.sol\":2983:2992  getTxHash */\n      tag_19\n        /* \"49TimeLock.sol\":2983:3033  getTxHash(target,value,signature,data,executeTime) */\n      jump\t// in\n    tag_74:\n        /* \"49TimeLock.sol\":3101:3126  queuedTransaction[txHash] */\n      0x00\n      dup2\n      dup2\n      mstore\n        /* \"49TimeLock.sol\":3101:3118  queuedTransaction */\n      0x02\n        /* \"49TimeLock.sol\":3101:3126  queuedTransaction[txHash] */\n      0x20\n      mstore\n      0x40\n      swap1\n      keccak256\n      sload\n        /* \"49TimeLock.sol\":2966:3033  bytes32 txHash = getTxHash(target,value,signature,data,executeTime) */\n      swap1\n      swap2\n      pop\n        /* \"49TimeLock.sol\":3101:3126  queuedTransaction[txHash] */\n      0xff\n      and\n        /* \"49TimeLock.sol\":3093:3157  require(queuedTransaction[txHash],\"transaction is not in queue\") */\n      tag_75\n      jumpi\n      mload(0x40)\n      0x08c379a000000000000000000000000000000000000000000000000000000000\n      dup2\n      mstore\n        /* \"#utility.yul\":5001:5003   */\n      0x20\n        /* \"49TimeLock.sol\":3093:3157  require(queuedTransaction[txHash],\"transaction is not in queue\") */\n      0x04\n      dup3\n      add\n        /* \"#utility.yul\":4983:5004   */\n      mstore\n        /* \"#utility.yul\":5040:5042   */\n      0x1b\n        /* \"#utility.yul\":5020:5038   */\n      0x24\n      dup3\n      add\n        /* \"#utility.yul\":5013:5043   */\n      mstore\n        /* \"#utility.yul\":5079:5108   */\n      0x7472616e73616374696f6e206973206e6f7420696e2071756575650000000000\n        /* \"#utility.yul\":5059:5077   */\n      0x44\n      dup3\n      add\n        /* \"#utility.yul\":5052:5109   */\n      mstore\n        /* \"#utility.yul\":5126:5144   */\n      0x64\n      add\n        /* \"49TimeLock.sol\":3093:3157  require(queuedTransaction[txHash],\"transaction is not in queue\") */\n      tag_71\n        /* \"#utility.yul\":4799:5150   */\n      jump\n        /* \"49TimeLock.sol\":3093:3157  require(queuedTransaction[txHash],\"transaction is not in queue\") */\n    tag_75:\n        /* \"49TimeLock.sol\":3257:3268  executeTime */\n      dup3\n        /* \"49TimeLock.sol\":971:986  block.timestamp */\n      timestamp\n        /* \"49TimeLock.sol\":3234:3268  getBlockTimestamp() >= executeTime */\n      lt\n      iszero\n        /* \"49TimeLock.sol\":3226:3292  require(getBlockTimestamp() >= executeTime,\"invalid execute time\") */\n      tag_79\n      jumpi\n      mload(0x40)\n      0x08c379a000000000000000000000000000000000000000000000000000000000\n      dup2\n      mstore\n        /* \"#utility.yul\":5711:5713   */\n      0x20\n        /* \"49TimeLock.sol\":3226:3292  require(getBlockTimestamp() >= executeTime,\"invalid execute time\") */\n      0x04\n      dup3\n      add\n        /* \"#utility.yul\":5693:5714   */\n      mstore\n        /* \"#utility.yul\":5750:5752   */\n      0x14\n        /* \"#utility.yul\":5730:5748   */\n      0x24\n      dup3\n      add\n        /* \"#utility.yul\":5723:5753   */\n      mstore\n        /* \"#utility.yul\":5789:5811   */\n      0x696e76616c696420657865637574652074696d65000000000000000000000000\n        /* \"#utility.yul\":5769:5787   */\n      0x44\n      dup3\n      add\n        /* \"#utility.yul\":5762:5812   */\n      mstore\n        /* \"#utility.yul\":5829:5847   */\n      0x64\n      add\n        /* \"49TimeLock.sol\":3226:3292  require(getBlockTimestamp() >= executeTime,\"invalid execute time\") */\n      tag_71\n        /* \"#utility.yul\":5509:5853   */\n      jump\n        /* \"49TimeLock.sol\":3226:3292  require(getBlockTimestamp() >= executeTime,\"invalid execute time\") */\n    tag_79:\n        /* \"49TimeLock.sol\":3377:3404  executeTime + lock_duration */\n      tag_82\n        /* \"49TimeLock.sol\":422:433  150 seconds */\n      0x96\n        /* \"49TimeLock.sol\":3377:3388  executeTime */\n      dup5\n        /* \"49TimeLock.sol\":3377:3404  executeTime + lock_duration */\n      tag_83\n      jump\t// in\n    tag_82:\n        /* \"49TimeLock.sol\":971:986  block.timestamp */\n      timestamp\n        /* \"49TimeLock.sol\":3354:3404  getBlockTimestamp() <= executeTime + lock_duration */\n      gt\n      iszero\n        /* \"49TimeLock.sol\":3346:3429  require(getBlockTimestamp() <= executeTime + lock_duration,\"invalid lock_duration\") */\n      tag_85\n      jumpi\n      mload(0x40)\n      0x08c379a000000000000000000000000000000000000000000000000000000000\n      dup2\n      mstore\n        /* \"#utility.yul\":7103:7105   */\n      0x20\n        /* \"49TimeLock.sol\":3346:3429  require(getBlockTimestamp() <= executeTime + lock_duration,\"invalid lock_duration\") */\n      0x04\n      dup3\n      add\n        /* \"#utility.yul\":7085:7106   */\n      mstore\n        /* \"#utility.yul\":7142:7144   */\n      0x15\n        /* \"#utility.yul\":7122:7140   */\n      0x24\n      dup3\n      add\n        /* \"#utility.yul\":7115:7145   */\n      mstore\n        /* \"#utility.yul\":7181:7204   */\n      0x696e76616c6964206c6f636b5f6475726174696f6e0000000000000000000000\n        /* \"#utility.yul\":7161:7179   */\n      0x44\n      dup3\n      add\n        /* \"#utility.yul\":7154:7205   */\n      mstore\n        /* \"#utility.yul\":7222:7240   */\n      0x64\n      add\n        /* \"49TimeLock.sol\":3346:3429  require(getBlockTimestamp() <= executeTime + lock_duration,\"invalid lock_duration\") */\n      tag_71\n        /* \"#utility.yul\":6901:7246   */\n      jump\n        /* \"49TimeLock.sol\":3346:3429  require(getBlockTimestamp() <= executeTime + lock_duration,\"invalid lock_duration\") */\n    tag_85:\n        /* \"49TimeLock.sol\":3514:3519  false */\n      0x00\n        /* \"49TimeLock.sol\":3486:3511  queuedTransaction[txHash] */\n      dup2\n      dup2\n      mstore\n        /* \"49TimeLock.sol\":3486:3503  queuedTransaction */\n      0x02\n        /* \"49TimeLock.sol\":3486:3511  queuedTransaction[txHash] */\n      0x20\n      mstore\n      0x40\n      swap1\n      keccak256\n        /* \"49TimeLock.sol\":3486:3519  queuedTransaction[txHash] = false */\n      dup1\n      sload\n      0xffffffffffffffffffffffffffffffffffffffffffffffffffffffffffffff00\n      and\n      swap1\n      sstore\n        /* \"49TimeLock.sol\":3564:3587  bytes(signature).length */\n      dup5\n      mload\n        /* \"49TimeLock.sol\":3530:3551  bytes memory callData */\n      0x60\n      swap1\n        /* \"49TimeLock.sol\":3561:3731  if(bytes(signature).length == 0){... */\n      tag_88\n      jumpi\n      pop\n        /* \"49TimeLock.sol\":3618:3622  data */\n      dup4\n        /* \"49TimeLock.sol\":3561:3731  if(bytes(signature).length == 0){... */\n      jump(tag_89)\n    tag_88:\n        /* \"49TimeLock.sol\":3702:3711  signature */\n      dup6\n        /* \"49TimeLock.sol\":3686:3713  keccak256(bytes(signature)) */\n      dup1\n      mload\n      swap1\n      0x20\n      add\n      keccak256\n        /* \"49TimeLock.sol\":3715:3719  data */\n      dup6\n        /* \"49TimeLock.sol\":3662:3720  abi.encodePacked(bytes4(keccak256(bytes(signature))),data) */\n      add(0x20, mload(0x40))\n      tag_90\n      swap3\n      swap2\n      swap1\n      tag_91\n      jump\t// in\n    tag_90:\n      mload(0x40)\n      0x20\n      dup2\n      dup4\n      sub\n      sub\n      dup2\n      mstore\n      swap1\n      0x40\n      mstore\n        /* \"49TimeLock.sol\":3651:3720  callData = abi.encodePacked(bytes4(keccak256(bytes(signature))),data) */\n      swap1\n      pop\n        /* \"49TimeLock.sol\":3561:3731  if(bytes(signature).length == 0){... */\n    tag_89:\n        /* \"49TimeLock.sol\":3741:3753  bool success */\n      0x00\n        /* \"49TimeLock.sol\":3754:3777  bytes memory returnData */\n      dup1\n        /* \"49TimeLock.sol\":3781:3787  target */\n      dup10\n        /* \"49TimeLock.sol\":3781:3792  target.call */\n      0xffffffffffffffffffffffffffffffffffffffff\n      and\n        /* \"49TimeLock.sol\":3800:3805  value */\n      dup10\n        /* \"49TimeLock.sol\":3807:3815  callData */\n      dup5\n        /* \"49TimeLock.sol\":3781:3816  target.call{value: value}(callData) */\n      mload(0x40)\n      tag_92\n      swap2\n      swap1\n      tag_93\n      jump\t// in\n    tag_92:\n      0x00\n      mload(0x40)\n      dup1\n      dup4\n      sub\n      dup2\n      dup6\n      dup8\n      gas\n      call\n      swap3\n      pop\n      pop\n      pop\n      returndatasize\n      dup1\n      0x00\n      dup2\n      eq\n      tag_96\n      jumpi\n      mload(0x40)\n      swap2\n      pop\n      and(add(returndatasize, 0x3f), not(0x1f))\n      dup3\n      add\n      0x40\n      mstore\n      returndatasize\n      dup3\n      mstore\n      returndatasize\n      0x00\n      0x20\n      dup5\n      add\n      returndatacopy\n      jump(tag_95)\n    tag_96:\n      0x60\n      swap2\n      pop\n    tag_95:\n      pop\n        /* \"49TimeLock.sol\":3740:3816  (bool success,bytes memory returnData) = target.call{value: value}(callData) */\n      swap2\n      pop\n      swap2\n      pop\n        /* \"49TimeLock.sol\":3834:3841  success */\n      dup2\n        /* \"49TimeLock.sol\":3826:3863  require(success,\"transaction failed\") */\n      tag_97\n      jumpi\n      mload(0x40)\n      0x08c379a000000000000000000000000000000000000000000000000000000000\n      dup2\n      mstore\n        /* \"#utility.yul\":7453:7455   */\n      0x20\n        /* \"49TimeLock.sol\":3826:3863  require(success,\"transaction failed\") */\n      0x04\n      dup3\n      add\n        /* \"#utility.yul\":7435:7456   */\n      mstore\n        /* \"#utility.yul\":7492:7494   */\n      0x12\n        /* \"#utility.yul\":7472:7490   */\n      0x24\n      dup3\n      add\n        /* \"#utility.yul\":7465:7495   */\n      mstore\n        /* \"#utility.yul\":7531:7551   */\n      0x7472616e73616374696f6e206661696c65640000000000000000000000000000\n        /* \"#utility.yul\":7511:7529   */\n      0x44\n      dup3\n      add\n        /* \"#utility.yul\":7504:7552   */\n      mstore\n        /* \"#utility.yul\":7569:7587   */\n      0x64\n      add\n        /* \"49TimeLock.sol\":3826:3863  require(success,\"transaction failed\") */\n      tag_71\n        /* \"#utility.yul\":7251:7593   */\n      jump\n        /* \"49TimeLock.sol\":3826:3863  require(success,\"transaction failed\") */\n    tag_97:\n        /* \"49TimeLock.sol\":3881:3891  returnData */\n      swap10\n        /* \"49TimeLock.sol\":2554:3899  function executeTransaction(... */\n      swap9\n      pop\n      pop\n      pop\n      pop\n      pop\n      pop\n      pop\n      pop\n      pop\n      jump\t// out\n        /* \"49TimeLock.sol\":771:867  function changeAdmin(address _newAdmin) external onlyTimeLock {... */\n    tag_40:\n        /* \"49TimeLock.sol\":266:276  msg.sender */\n      caller\n        /* \"49TimeLock.sol\":288:292  this */\n      address\n        /* \"49TimeLock.sol\":266:293  msg.sender == address(this) */\n      eq\n        /* \"49TimeLock.sol\":258:316  require(msg.sender == address(this),\"caller not TimeLock\") */\n      tag_102\n      jumpi\n      mload(0x40)\n      0x08c379a000000000000000000000000000000000000000000000000000000000\n      dup2\n      mstore\n        /* \"#utility.yul\":6755:6757   */\n      0x20\n        /* \"49TimeLock.sol\":258:316  require(msg.sender == address(this),\"caller not TimeLock\") */\n      0x04\n      dup3\n      add\n        /* \"#utility.yul\":6737:6758   */\n      mstore\n        /* \"#utility.yul\":6794:6796   */\n      0x13\n        /* \"#utility.yul\":6774:6792   */\n      0x24\n      dup3\n      add\n        /* \"#utility.yul\":6767:6797   */\n      mstore\n        /* \"#utility.yul\":6833:6854   */\n      0x63616c6c6572206e6f742054696d654c6f636b00000000000000000000000000\n        /* \"#utility.yul\":6813:6831   */\n      0x44\n      dup3\n      add\n        /* \"#utility.yul\":6806:6855   */\n      mstore\n        /* \"#utility.yul\":6872:6890   */\n      0x64\n      add\n        /* \"49TimeLock.sol\":258:316  require(msg.sender == address(this),\"caller not TimeLock\") */\n      tag_71\n        /* \"#utility.yul\":6553:6896   */\n      jump\n        /* \"49TimeLock.sol\":258:316  require(msg.sender == address(this),\"caller not TimeLock\") */\n    tag_102:\n        /* \"49TimeLock.sol\":843:848  admin */\n      0x00\n        /* \"49TimeLock.sol\":843:860  admin = _newAdmin */\n      dup1\n      sload\n      0xffffffffffffffffffffffff0000000000000000000000000000000000000000\n      and\n      0xffffffffffffffffffffffffffffffffffffffff\n      swap3\n      swap1\n      swap3\n      and\n      swap2\n      swap1\n      swap2\n      or\n      swap1\n      sstore\n        /* \"49TimeLock.sol\":771:867  function changeAdmin(address _newAdmin) external onlyTimeLock {... */\n      jump\t// out\n        /* \"49TimeLock.sol\":1042:1816  function queuedTransactions(... */\n    tag_44:\n        /* \"49TimeLock.sol\":1399:1406  bytes32 */\n      0x00\n        /* \"49TimeLock.sol\":172:177  admin */\n      dup1\n      sload\n      0xffffffffffffffffffffffffffffffffffffffff\n      and\n        /* \"49TimeLock.sol\":158:168  msg.sender */\n      caller\n        /* \"49TimeLock.sol\":158:177  msg.sender == admin */\n      eq\n        /* \"49TimeLock.sol\":150:197  require(msg.sender == admin,\"caller not admin\") */\n      tag_107\n      jumpi\n      mload(0x40)\n      0x08c379a000000000000000000000000000000000000000000000000000000000\n      dup2\n      mstore\n        /* \"#utility.yul\":6060:6062   */\n      0x20\n        /* \"49TimeLock.sol\":150:197  require(msg.sender == admin,\"caller not admin\") */\n      0x04\n      dup3\n      add\n        /* \"#utility.yul\":6042:6063   */\n      mstore\n        /* \"#utility.yul\":6099:6101   */\n      0x10\n        /* \"#utility.yul\":6079:6097   */\n      0x24\n      dup3\n      add\n        /* \"#utility.yul\":6072:6102   */\n      mstore\n        /* \"#utility.yul\":6138:6156   */\n      0x63616c6c6572206e6f742061646d696e00000000000000000000000000000000\n        /* \"#utility.yul\":6118:6136   */\n      0x44\n      dup3\n      add\n        /* \"#utility.yul\":6111:6157   */\n      mstore\n        /* \"#utility.yul\":6174:6192   */\n      0x64\n      add\n        /* \"49TimeLock.sol\":150:197  require(msg.sender == admin,\"caller not admin\") */\n      tag_71\n        /* \"#utility.yul\":5858:6198   */\n      jump\n        /* \"49TimeLock.sol\":150:197  require(msg.sender == admin,\"caller not admin\") */\n    tag_107:\n        /* \"49TimeLock.sol\":1507:1512  delay */\n      sload(0x01)\n        /* \"49TimeLock.sol\":1485:1512  getBlockTimestamp() + delay */\n      tag_111\n      swap1\n        /* \"49TimeLock.sol\":971:986  block.timestamp */\n      timestamp\n        /* \"49TimeLock.sol\":1485:1512  getBlockTimestamp() + delay */\n      tag_83\n      jump\t// in\n    tag_111:\n        /* \"49TimeLock.sol\":1469:1480  executeTime */\n      dup3\n        /* \"49TimeLock.sol\":1469:1513  executeTime >= (getBlockTimestamp() + delay) */\n      lt\n      iszero\n        /* \"49TimeLock.sol\":1461:1537  require(executeTime >= (getBlockTimestamp() + delay),\"invalid execute time\") */\n      tag_112\n      jumpi\n      mload(0x40)\n      0x08c379a000000000000000000000000000000000000000000000000000000000\n      dup2\n      mstore\n        /* \"#utility.yul\":5711:5713   */\n      0x20\n        /* \"49TimeLock.sol\":1461:1537  require(executeTime >= (getBlockTimestamp() + delay),\"invalid execute time\") */\n      0x04\n      dup3\n      add\n        /* \"#utility.yul\":5693:5714   */\n      mstore\n        /* \"#utility.yul\":5750:5752   */\n      0x14\n        /* \"#utility.yul\":5730:5748   */\n      0x24\n      dup3\n      add\n        /* \"#utility.yul\":5723:5753   */\n      mstore\n        /* \"#utility.yul\":5789:5811   */\n      0x696e76616c696420657865637574652074696d65000000000000000000000000\n        /* \"#utility.yul\":5769:5787   */\n      0x44\n      dup3\n      add\n        /* \"#utility.yul\":5762:5812   */\n      mstore\n        /* \"#utility.yul\":5829:5847   */\n      0x64\n      add\n        /* \"49TimeLock.sol\":1461:1537  require(executeTime >= (getBlockTimestamp() + delay),\"invalid execute time\") */\n      tag_71\n        /* \"#utility.yul\":5509:5853   */\n      jump\n        /* \"49TimeLock.sol\":1461:1537  require(executeTime >= (getBlockTimestamp() + delay),\"invalid execute time\") */\n    tag_112:\n        /* \"49TimeLock.sol\":1570:1584  bytes32 txHash */\n      0x00\n        /* \"49TimeLock.sol\":1587:1637  getTxHash(target,value,signature,data,executeTime) */\n      tag_114\n        /* \"49TimeLock.sol\":1597:1603  target */\n      dup8\n        /* \"49TimeLock.sol\":1604:1609  value */\n      dup8\n        /* \"49TimeLock.sol\":1610:1619  signature */\n      dup8\n        /* \"49TimeLock.sol\":1620:1624  data */\n      dup8\n        /* \"49TimeLock.sol\":1625:1636  executeTime */\n      dup8\n        /* \"49TimeLock.sol\":1587:1596  getTxHash */\n      tag_19\n        /* \"49TimeLock.sol\":1587:1637  getTxHash(target,value,signature,data,executeTime) */\n      jump\t// in\n    tag_114:\n        /* \"49TimeLock.sol\":1656:1681  queuedTransaction[txHash] */\n      0x00\n      dup2\n      dup2\n      mstore\n        /* \"49TimeLock.sol\":1656:1673  queuedTransaction */\n      0x02\n        /* \"49TimeLock.sol\":1656:1681  queuedTransaction[txHash] */\n      0x20\n      mstore\n      0x40\n      swap1\n      keccak256\n      sload\n        /* \"49TimeLock.sol\":1570:1637  bytes32 txHash = getTxHash(target,value,signature,data,executeTime) */\n      swap1\n      swap2\n      pop\n        /* \"49TimeLock.sol\":1656:1681  queuedTransaction[txHash] */\n      0xff\n      and\n        /* \"49TimeLock.sol\":1655:1681  !queuedTransaction[txHash] */\n      iszero\n        /* \"49TimeLock.sol\":1647:1706  require(!queuedTransaction[txHash],\"transaction has exits\") */\n      tag_115\n      jumpi\n      mload(0x40)\n      0x08c379a000000000000000000000000000000000000000000000000000000000\n      dup2\n      mstore\n        /* \"#utility.yul\":6405:6407   */\n      0x20\n        /* \"49TimeLock.sol\":1647:1706  require(!queuedTransaction[txHash],\"transaction has exits\") */\n      0x04\n      dup3\n      add\n        /* \"#utility.yul\":6387:6408   */\n      mstore\n        /* \"#utility.yul\":6444:6446   */\n      0x15\n        /* \"#utility.yul\":6424:6442   */\n      0x24\n      dup3\n      add\n        /* \"#utility.yul\":6417:6447   */\n      mstore\n        /* \"#utility.yul\":6483:6506   */\n      0x7472616e73616374696f6e206861732065786974730000000000000000000000\n        /* \"#utility.yul\":6463:6481   */\n      0x44\n      dup3\n      add\n        /* \"#utility.yul\":6456:6507   */\n      mstore\n        /* \"#utility.yul\":6524:6542   */\n      0x64\n      add\n        /* \"49TimeLock.sol\":1647:1706  require(!queuedTransaction[txHash],\"transaction has exits\") */\n      tag_71\n        /* \"#utility.yul\":6203:6548   */\n      jump\n        /* \"49TimeLock.sol\":1647:1706  require(!queuedTransaction[txHash],\"transaction has exits\") */\n    tag_115:\n        /* \"49TimeLock.sol\":1754:1779  queuedTransaction[txHash] */\n      0x00\n      dup2\n      dup2\n      mstore\n        /* \"49TimeLock.sol\":1754:1771  queuedTransaction */\n      0x02\n        /* \"49TimeLock.sol\":1754:1779  queuedTransaction[txHash] */\n      0x20\n      mstore\n      0x40\n      swap1\n      keccak256\n        /* \"49TimeLock.sol\":1754:1786  queuedTransaction[txHash] = true */\n      dup1\n      sload\n      0xffffffffffffffffffffffffffffffffffffffffffffffffffffffffffffff00\n      and\n        /* \"49TimeLock.sol\":1782:1786  true */\n      0x01\n        /* \"49TimeLock.sol\":1754:1786  queuedTransaction[txHash] = true */\n      or\n      swap1\n      sstore\n        /* \"49TimeLock.sol\":1772:1778  txHash */\n      swap1\n      pop\n        /* \"49TimeLock.sol\":1042:1816  function queuedTransactions(... */\n      swap6\n      swap5\n      pop\n      pop\n      pop\n      pop\n      pop\n      jump\t// out\n        /* \"49TimeLock.sol\":1880:2529  function cancelQueueTransaction(... */\n    tag_53:\n        /* \"49TimeLock.sol\":172:177  admin */\n      and(0xffffffffffffffffffffffffffffffffffffffff, sload(0x00))\n        /* \"49TimeLock.sol\":158:168  msg.sender */\n      caller\n        /* \"49TimeLock.sol\":158:177  msg.sender == admin */\n      eq\n        /* \"49TimeLock.sol\":150:197  require(msg.sender == admin,\"caller not admin\") */\n      tag_119\n      jumpi\n      mload(0x40)\n      0x08c379a000000000000000000000000000000000000000000000000000000000\n      dup2\n      mstore\n        /* \"#utility.yul\":6060:6062   */\n      0x20\n        /* \"49TimeLock.sol\":150:197  require(msg.sender == admin,\"caller not admin\") */\n      0x04\n      dup3\n      add\n        /* \"#utility.yul\":6042:6063   */\n      mstore\n        /* \"#utility.yul\":6099:6101   */\n      0x10\n        /* \"#utility.yul\":6079:6097   */\n      0x24\n      dup3\n      add\n        /* \"#utility.yul\":6072:6102   */\n      mstore\n        /* \"#utility.yul\":6138:6156   */\n      0x63616c6c6572206e6f742061646d696e00000000000000000000000000000000\n        /* \"#utility.yul\":6118:6136   */\n      0x44\n      dup3\n      add\n        /* \"#utility.yul\":6111:6157   */\n      mstore\n        /* \"#utility.yul\":6174:6192   */\n      0x64\n      add\n        /* \"49TimeLock.sol\":150:197  require(msg.sender == admin,\"caller not admin\") */\n      tag_71\n        /* \"#utility.yul\":5858:6198   */\n      jump\n        /* \"49TimeLock.sol\":150:197  require(msg.sender == admin,\"caller not admin\") */\n    tag_119:\n        /* \"49TimeLock.sol\":2249:2263  bytes32 txHash */\n      0x00\n        /* \"49TimeLock.sol\":2266:2316  getTxHash(target,value,signature,data,executeTime) */\n      tag_122\n        /* \"49TimeLock.sol\":2276:2282  target */\n      dup7\n        /* \"49TimeLock.sol\":2283:2288  value */\n      dup7\n        /* \"49TimeLock.sol\":2289:2298  signature */\n      dup7\n        /* \"49TimeLock.sol\":2299:2303  data */\n      dup7\n        /* \"49TimeLock.sol\":2304:2315  executeTime */\n      dup7\n        /* \"49TimeLock.sol\":2266:2275  getTxHash */\n      tag_19\n        /* \"49TimeLock.sol\":2266:2316  getTxHash(target,value,signature,data,executeTime) */\n      jump\t// in\n    tag_122:\n        /* \"49TimeLock.sol\":2387:2412  queuedTransaction[txHash] */\n      0x00\n      dup2\n      dup2\n      mstore\n        /* \"49TimeLock.sol\":2387:2404  queuedTransaction */\n      0x02\n        /* \"49TimeLock.sol\":2387:2412  queuedTransaction[txHash] */\n      0x20\n      mstore\n      0x40\n      swap1\n      keccak256\n      sload\n        /* \"49TimeLock.sol\":2249:2316  bytes32 txHash = getTxHash(target,value,signature,data,executeTime) */\n      swap1\n      swap2\n      pop\n        /* \"49TimeLock.sol\":2387:2412  queuedTransaction[txHash] */\n      0xff\n      and\n        /* \"49TimeLock.sol\":2379:2441  require(queuedTransaction[txHash],\"transaction not in queued\") */\n      tag_123\n      jumpi\n      mload(0x40)\n      0x08c379a000000000000000000000000000000000000000000000000000000000\n      dup2\n      mstore\n        /* \"#utility.yul\":5357:5359   */\n      0x20\n        /* \"49TimeLock.sol\":2379:2441  require(queuedTransaction[txHash],\"transaction not in queued\") */\n      0x04\n      dup3\n      add\n        /* \"#utility.yul\":5339:5360   */\n      mstore\n        /* \"#utility.yul\":5396:5398   */\n      0x19\n        /* \"#utility.yul\":5376:5394   */\n      0x24\n      dup3\n      add\n        /* \"#utility.yul\":5369:5399   */\n      mstore\n        /* \"#utility.yul\":5435:5462   */\n      0x7472616e73616374696f6e206e6f7420696e2071756575656400000000000000\n        /* \"#utility.yul\":5415:5433   */\n      0x44\n      dup3\n      add\n        /* \"#utility.yul\":5408:5463   */\n      mstore\n        /* \"#utility.yul\":5480:5498   */\n      0x64\n      add\n        /* \"49TimeLock.sol\":2379:2441  require(queuedTransaction[txHash],\"transaction not in queued\") */\n      tag_71\n        /* \"#utility.yul\":5155:5504   */\n      jump\n        /* \"49TimeLock.sol\":2379:2441  require(queuedTransaction[txHash],\"transaction not in queued\") */\n    tag_123:\n        /* \"49TimeLock.sol\":2517:2522  false */\n      0x00\n        /* \"49TimeLock.sol\":2489:2514  queuedTransaction[txHash] */\n      swap1\n      dup2\n      mstore\n        /* \"49TimeLock.sol\":2489:2506  queuedTransaction */\n      0x02\n        /* \"49TimeLock.sol\":2489:2514  queuedTransaction[txHash] */\n      0x20\n      mstore\n      0x40\n      swap1\n      keccak256\n        /* \"49TimeLock.sol\":2489:2522  queuedTransaction[txHash] = false */\n      dup1\n      sload\n      0xffffffffffffffffffffffffffffffffffffffffffffffffffffffffffffff00\n      and\n      swap1\n      sstore\n      pop\n      pop\n      pop\n      pop\n      pop\n        /* \"49TimeLock.sol\":1880:2529  function cancelQueueTransaction(... */\n      jump\t// out\n        /* \"#utility.yul\":14:704   */\n    tag_127:\n        /* \"#utility.yul\":78:83   */\n      0x00\n        /* \"#utility.yul\":108:126   */\n      0xffffffffffffffff\n        /* \"#utility.yul\":149:151   */\n      dup1\n        /* \"#utility.yul\":141:147   */\n      dup5\n        /* \"#utility.yul\":138:152   */\n      gt\n        /* \"#utility.yul\":135:175   */\n      iszero\n      tag_130\n      jumpi\n        /* \"#utility.yul\":155:173   */\n      tag_130\n      tag_131\n      jump\t// in\n    tag_130:\n        /* \"#utility.yul\":289:291   */\n      0x40\n        /* \"#utility.yul\":283:292   */\n      mload\n        /* \"#utility.yul\":355:357   */\n      0x1f\n        /* \"#utility.yul\":343:358   */\n      dup6\n      add\n        /* \"#utility.yul\":194:260   */\n      0xffffffffffffffffffffffffffffffffffffffffffffffffffffffffffffffe0\n        /* \"#utility.yul\":339:363   */\n      swap1\n      dup2\n      and\n        /* \"#utility.yul\":365:367   */\n      0x3f\n        /* \"#utility.yul\":335:368   */\n      add\n        /* \"#utility.yul\":331:373   */\n      and\n        /* \"#utility.yul\":319:374   */\n      dup2\n      add\n      swap1\n        /* \"#utility.yul\":389:407   */\n      dup3\n      dup3\n      gt\n        /* \"#utility.yul\":409:431   */\n      dup2\n      dup4\n      lt\n        /* \"#utility.yul\":386:432   */\n      or\n        /* \"#utility.yul\":383:455   */\n      iszero\n      tag_133\n      jumpi\n        /* \"#utility.yul\":435:453   */\n      tag_133\n      tag_131\n      jump\t// in\n    tag_133:\n        /* \"#utility.yul\":475:485   */\n      dup2\n        /* \"#utility.yul\":471:473   */\n      0x40\n        /* \"#utility.yul\":464:486   */\n      mstore\n        /* \"#utility.yul\":504:510   */\n      dup1\n        /* \"#utility.yul\":495:510   */\n      swap4\n      pop\n        /* \"#utility.yul\":534:540   */\n      dup6\n        /* \"#utility.yul\":526:532   */\n      dup2\n        /* \"#utility.yul\":519:541   */\n      mstore\n        /* \"#utility.yul\":574:577   */\n      dup7\n        /* \"#utility.yul\":565:571   */\n      dup7\n        /* \"#utility.yul\":560:563   */\n      dup7\n        /* \"#utility.yul\":556:572   */\n      add\n        /* \"#utility.yul\":553:578   */\n      gt\n        /* \"#utility.yul\":550:595   */\n      iszero\n      tag_134\n      jumpi\n        /* \"#utility.yul\":591:592   */\n      0x00\n        /* \"#utility.yul\":588:589   */\n      dup1\n        /* \"#utility.yul\":581:593   */\n      revert\n        /* \"#utility.yul\":550:595   */\n    tag_134:\n        /* \"#utility.yul\":641:647   */\n      dup6\n        /* \"#utility.yul\":636:639   */\n      dup6\n        /* \"#utility.yul\":629:633   */\n      0x20\n        /* \"#utility.yul\":621:627   */\n      dup4\n        /* \"#utility.yul\":617:634   */\n      add\n        /* \"#utility.yul\":604:648   */\n      calldatacopy\n        /* \"#utility.yul\":696:697   */\n      0x00\n        /* \"#utility.yul\":689:693   */\n      0x20\n        /* \"#utility.yul\":680:686   */\n      dup8\n        /* \"#utility.yul\":672:678   */\n      dup4\n        /* \"#utility.yul\":668:687   */\n      add\n        /* \"#utility.yul\":664:694   */\n      add\n        /* \"#utility.yul\":657:698   */\n      mstore\n      pop\n      pop\n      pop\n        /* \"#utility.yul\":14:704   */\n      swap4\n      swap3\n      pop\n      pop\n      pop\n      jump\t// out\n        /* \"#utility.yul\":709:905   */\n    tag_135:\n        /* \"#utility.yul\":777:797   */\n      dup1\n      calldataload\n        /* \"#utility.yul\":837:879   */\n      0xffffffffffffffffffffffffffffffffffffffff\n        /* \"#utility.yul\":826:880   */\n      dup2\n      and\n        /* \"#utility.yul\":816:881   */\n      dup2\n      eq\n        /* \"#utility.yul\":806:899   */\n      tag_137\n      jumpi\n        /* \"#utility.yul\":895:896   */\n      0x00\n        /* \"#utility.yul\":892:893   */\n      dup1\n        /* \"#utility.yul\":885:897   */\n      revert\n        /* \"#utility.yul\":806:899   */\n    tag_137:\n        /* \"#utility.yul\":709:905   */\n      swap2\n      swap1\n      pop\n      jump\t// out\n        /* \"#utility.yul\":910:1096   */\n    tag_39:\n        /* \"#utility.yul\":969:975   */\n      0x00\n        /* \"#utility.yul\":1022:1024   */\n      0x20\n        /* \"#utility.yul\":1010:1019   */\n      dup3\n        /* \"#utility.yul\":1001:1008   */\n      dup5\n        /* \"#utility.yul\":997:1020   */\n      sub\n        /* \"#utility.yul\":993:1025   */\n      slt\n        /* \"#utility.yul\":990:1042   */\n      iszero\n      tag_139\n      jumpi\n        /* \"#utility.yul\":1038:1039   */\n      0x00\n        /* \"#utility.yul\":1035:1036   */\n      dup1\n        /* \"#utility.yul\":1028:1040   */\n      revert\n        /* \"#utility.yul\":990:1042   */\n    tag_139:\n        /* \"#utility.yul\":1061:1090   */\n      tag_140\n        /* \"#utility.yul\":1080:1089   */\n      dup3\n        /* \"#utility.yul\":1061:1090   */\n      tag_135\n      jump\t// in\n    tag_140:\n        /* \"#utility.yul\":1051:1090   */\n      swap4\n        /* \"#utility.yul\":910:1096   */\n      swap3\n      pop\n      pop\n      pop\n      jump\t// out\n        /* \"#utility.yul\":1101:2111   */\n    tag_18:\n        /* \"#utility.yul\":1215:1221   */\n      0x00\n        /* \"#utility.yul\":1223:1229   */\n      dup1\n        /* \"#utility.yul\":1231:1237   */\n      0x00\n        /* \"#utility.yul\":1239:1245   */\n      dup1\n        /* \"#utility.yul\":1247:1253   */\n      0x00\n        /* \"#utility.yul\":1300:1303   */\n      0xa0\n        /* \"#utility.yul\":1288:1297   */\n      dup7\n        /* \"#utility.yul\":1279:1286   */\n      dup9\n        /* \"#utility.yul\":1275:1298   */\n      sub\n        /* \"#utility.yul\":1271:1304   */\n      slt\n        /* \"#utility.yul\":1268:1321   */\n      iszero\n      tag_142\n      jumpi\n        /* \"#utility.yul\":1317:1318   */\n      0x00\n        /* \"#utility.yul\":1314:1315   */\n      dup1\n        /* \"#utility.yul\":1307:1319   */\n      revert\n        /* \"#utility.yul\":1268:1321   */\n    tag_142:\n        /* \"#utility.yul\":1340:1369   */\n      tag_143\n        /* \"#utility.yul\":1359:1368   */\n      dup7\n        /* \"#utility.yul\":1340:1369   */\n      tag_135\n      jump\t// in\n    tag_143:\n        /* \"#utility.yul\":1330:1369   */\n      swap5\n      pop\n        /* \"#utility.yul\":1416:1418   */\n      0x20\n        /* \"#utility.yul\":1405:1414   */\n      dup7\n        /* \"#utility.yul\":1401:1419   */\n      add\n        /* \"#utility.yul\":1388:1420   */\n      calldataload\n        /* \"#utility.yul\":1378:1420   */\n      swap4\n      pop\n        /* \"#utility.yul\":1471:1473   */\n      0x40\n        /* \"#utility.yul\":1460:1469   */\n      dup7\n        /* \"#utility.yul\":1456:1474   */\n      add\n        /* \"#utility.yul\":1443:1475   */\n      calldataload\n        /* \"#utility.yul\":1494:1512   */\n      0xffffffffffffffff\n        /* \"#utility.yul\":1535:1537   */\n      dup1\n        /* \"#utility.yul\":1527:1533   */\n      dup3\n        /* \"#utility.yul\":1524:1538   */\n      gt\n        /* \"#utility.yul\":1521:1555   */\n      iszero\n      tag_144\n      jumpi\n        /* \"#utility.yul\":1551:1552   */\n      0x00\n        /* \"#utility.yul\":1548:1549   */\n      dup1\n        /* \"#utility.yul\":1541:1553   */\n      revert\n        /* \"#utility.yul\":1521:1555   */\n    tag_144:\n        /* \"#utility.yul\":1589:1595   */\n      dup2\n        /* \"#utility.yul\":1578:1587   */\n      dup9\n        /* \"#utility.yul\":1574:1596   */\n      add\n        /* \"#utility.yul\":1564:1596   */\n      swap2\n      pop\n        /* \"#utility.yul\":1634:1641   */\n      dup9\n        /* \"#utility.yul\":1627:1631   */\n      0x1f\n        /* \"#utility.yul\":1623:1625   */\n      dup4\n        /* \"#utility.yul\":1619:1632   */\n      add\n        /* \"#utility.yul\":1615:1642   */\n      slt\n        /* \"#utility.yul\":1605:1660   */\n      tag_145\n      jumpi\n        /* \"#utility.yul\":1656:1657   */\n      0x00\n        /* \"#utility.yul\":1653:1654   */\n      dup1\n        /* \"#utility.yul\":1646:1658   */\n      revert\n        /* \"#utility.yul\":1605:1660   */\n    tag_145:\n        /* \"#utility.yul\":1679:1752   */\n      tag_146\n        /* \"#utility.yul\":1744:1751   */\n      dup10\n        /* \"#utility.yul\":1739:1741   */\n      dup4\n        /* \"#utility.yul\":1726:1742   */\n      calldataload\n        /* \"#utility.yul\":1721:1723   */\n      0x20\n        /* \"#utility.yul\":1717:1719   */\n      dup6\n        /* \"#utility.yul\":1713:1724   */\n      add\n        /* \"#utility.yul\":1679:1752   */\n      tag_127\n      jump\t// in\n    tag_146:\n        /* \"#utility.yul\":1669:1752   */\n      swap5\n      pop\n        /* \"#utility.yul\":1805:1807   */\n      0x60\n        /* \"#utility.yul\":1794:1803   */\n      dup9\n        /* \"#utility.yul\":1790:1808   */\n      add\n        /* \"#utility.yul\":1777:1809   */\n      calldataload\n        /* \"#utility.yul\":1761:1809   */\n      swap2\n      pop\n        /* \"#utility.yul\":1834:1836   */\n      dup1\n        /* \"#utility.yul\":1824:1832   */\n      dup3\n        /* \"#utility.yul\":1821:1837   */\n      gt\n        /* \"#utility.yul\":1818:1854   */\n      iszero\n      tag_147\n      jumpi\n        /* \"#utility.yul\":1850:1851   */\n      0x00\n        /* \"#utility.yul\":1847:1848   */\n      dup1\n        /* \"#utility.yul\":1840:1852   */\n      revert\n        /* \"#utility.yul\":1818:1854   */\n    tag_147:\n      pop\n        /* \"#utility.yul\":1873:1897   */\n      dup7\n      add\n        /* \"#utility.yul\":1928:1932   */\n      0x1f\n        /* \"#utility.yul\":1920:1933   */\n      dup2\n      add\n        /* \"#utility.yul\":1916:1943   */\n      dup9\n      sgt\n        /* \"#utility.yul\":1906:1961   */\n      tag_148\n      jumpi\n        /* \"#utility.yul\":1957:1958   */\n      0x00\n        /* \"#utility.yul\":1954:1955   */\n      dup1\n        /* \"#utility.yul\":1947:1959   */\n      revert\n        /* \"#utility.yul\":1906:1961   */\n    tag_148:\n        /* \"#utility.yul\":1980:2053   */\n      tag_149\n        /* \"#utility.yul\":2045:2052   */\n      dup9\n        /* \"#utility.yul\":2040:2042   */\n      dup3\n        /* \"#utility.yul\":2027:2043   */\n      calldataload\n        /* \"#utility.yul\":2022:2024   */\n      0x20\n        /* \"#utility.yul\":2018:2020   */\n      dup5\n        /* \"#utility.yul\":2014:2025   */\n      add\n        /* \"#utility.yul\":1980:2053   */\n      tag_127\n      jump\t// in\n    tag_149:\n        /* \"#utility.yul\":1101:2111   */\n      swap6\n      swap9\n      swap5\n      swap8\n      pop\n      swap3\n      swap6\n        /* \"#utility.yul\":2100:2103   */\n      0x80\n        /* \"#utility.yul\":2085:2104   */\n      add\n        /* \"#utility.yul\":2072:2105   */\n      calldataload\n      swap4\n        /* \"#utility.yul\":1101:2111   */\n      swap3\n      pop\n      pop\n      pop\n      jump\t// out\n        /* \"#utility.yul\":2116:2296   */\n    tag_57:\n        /* \"#utility.yul\":2175:2181   */\n      0x00\n        /* \"#utility.yul\":2228:2230   */\n      0x20\n        /* \"#utility.yul\":2216:2225   */\n      dup3\n        /* \"#utility.yul\":2207:2214   */\n      dup5\n        /* \"#utility.yul\":2203:2226   */\n      sub\n        /* \"#utility.yul\":2199:2231   */\n      slt\n        /* \"#utility.yul\":2196:2248   */\n      iszero\n      tag_151\n      jumpi\n        /* \"#utility.yul\":2244:2245   */\n      0x00\n        /* \"#utility.yul\":2241:2242   */\n      dup1\n        /* \"#utility.yul\":2234:2246   */\n      revert\n        /* \"#utility.yul\":2196:2248   */\n    tag_151:\n      pop\n        /* \"#utility.yul\":2267:2290   */\n      calldataload\n      swap2\n        /* \"#utility.yul\":2116:2296   */\n      swap1\n      pop\n      jump\t// out\n        /* \"#utility.yul\":2301:2617   */\n    tag_152:\n        /* \"#utility.yul\":2342:2345   */\n      0x00\n        /* \"#utility.yul\":2380:2385   */\n      dup2\n        /* \"#utility.yul\":2374:2386   */\n      mload\n        /* \"#utility.yul\":2407:2413   */\n      dup1\n        /* \"#utility.yul\":2402:2405   */\n      dup5\n        /* \"#utility.yul\":2395:2414   */\n      mstore\n        /* \"#utility.yul\":2423:2486   */\n      tag_154\n        /* \"#utility.yul\":2479:2485   */\n      dup2\n        /* \"#utility.yul\":2472:2476   */\n      0x20\n        /* \"#utility.yul\":2467:2470   */\n      dup7\n        /* \"#utility.yul\":2463:2477   */\n      add\n        /* \"#utility.yul\":2456:2460   */\n      0x20\n        /* \"#utility.yul\":2449:2454   */\n      dup7\n        /* \"#utility.yul\":2445:2461   */\n      add\n        /* \"#utility.yul\":2423:2486   */\n      tag_155\n      jump\t// in\n    tag_154:\n        /* \"#utility.yul\":2531:2533   */\n      0x1f\n        /* \"#utility.yul\":2519:2534   */\n      add\n        /* \"#utility.yul\":2536:2602   */\n      0xffffffffffffffffffffffffffffffffffffffffffffffffffffffffffffffe0\n        /* \"#utility.yul\":2515:2603   */\n      and\n        /* \"#utility.yul\":2506:2604   */\n      swap3\n      swap1\n      swap3\n      add\n        /* \"#utility.yul\":2606:2610   */\n      0x20\n        /* \"#utility.yul\":2502:2611   */\n      add\n      swap3\n        /* \"#utility.yul\":2301:2617   */\n      swap2\n      pop\n      pop\n      jump\t// out\n        /* \"#utility.yul\":2622:3039   */\n    tag_91:\n        /* \"#utility.yul\":2819:2885   */\n      0xffffffff00000000000000000000000000000000000000000000000000000000\n        /* \"#utility.yul\":2811:2817   */\n      dup4\n        /* \"#utility.yul\":2807:2886   */\n      and\n        /* \"#utility.yul\":2802:2805   */\n      dup2\n        /* \"#utility.yul\":2795:2887   */\n      mstore\n        /* \"#utility.yul\":2777:2780   */\n      0x00\n        /* \"#utility.yul\":2916:2922   */\n      dup3\n        /* \"#utility.yul\":2910:2923   */\n      mload\n        /* \"#utility.yul\":2932:2993   */\n      tag_157\n        /* \"#utility.yul\":2986:2992   */\n      dup2\n        /* \"#utility.yul\":2982:2983   */\n      0x04\n        /* \"#utility.yul\":2977:2980   */\n      dup6\n        /* \"#utility.yul\":2973:2984   */\n      add\n        /* \"#utility.yul\":2966:2970   */\n      0x20\n        /* \"#utility.yul\":2958:2964   */\n      dup8\n        /* \"#utility.yul\":2954:2971   */\n      add\n        /* \"#utility.yul\":2932:2993   */\n      tag_155\n      jump\t// in\n    tag_157:\n        /* \"#utility.yul\":3013:3029   */\n      swap2\n      swap1\n      swap2\n      add\n        /* \"#utility.yul\":3031:3032   */\n      0x04\n        /* \"#utility.yul\":3009:3033   */\n      add\n      swap4\n        /* \"#utility.yul\":2622:3039   */\n      swap3\n      pop\n      pop\n      pop\n      jump\t// out\n        /* \"#utility.yul\":3044:3318   */\n    tag_93:\n        /* \"#utility.yul\":3173:3176   */\n      0x00\n        /* \"#utility.yul\":3211:3217   */\n      dup3\n        /* \"#utility.yul\":3205:3218   */\n      mload\n        /* \"#utility.yul\":3227:3280   */\n      tag_159\n        /* \"#utility.yul\":3273:3279   */\n      dup2\n        /* \"#utility.yul\":3268:3271   */\n      dup5\n        /* \"#utility.yul\":3261:3265   */\n      0x20\n        /* \"#utility.yul\":3253:3259   */\n      dup8\n        /* \"#utility.yul\":3249:3266   */\n      add\n        /* \"#utility.yul\":3227:3280   */\n      tag_155\n      jump\t// in\n    tag_159:\n        /* \"#utility.yul\":3296:3312   */\n      swap2\n      swap1\n      swap2\n      add\n      swap3\n        /* \"#utility.yul\":3044:3318   */\n      swap2\n      pop\n      pop\n      jump\t// out\n        /* \"#utility.yul\":3554:4198   */\n    tag_68:\n        /* \"#utility.yul\":3845:3887   */\n      0xffffffffffffffffffffffffffffffffffffffff\n        /* \"#utility.yul\":3837:3843   */\n      dup7\n        /* \"#utility.yul\":3833:3888   */\n      and\n        /* \"#utility.yul\":3822:3831   */\n      dup2\n        /* \"#utility.yul\":3815:3889   */\n      mstore\n        /* \"#utility.yul\":3925:3931   */\n      dup5\n        /* \"#utility.yul\":3920:3922   */\n      0x20\n        /* \"#utility.yul\":3909:3918   */\n      dup3\n        /* \"#utility.yul\":3905:3923   */\n      add\n        /* \"#utility.yul\":3898:3932   */\n      mstore\n        /* \"#utility.yul\":3968:3971   */\n      0xa0\n        /* \"#utility.yul\":3963:3965   */\n      0x40\n        /* \"#utility.yul\":3952:3961   */\n      dup3\n        /* \"#utility.yul\":3948:3966   */\n      add\n        /* \"#utility.yul\":3941:3972   */\n      mstore\n        /* \"#utility.yul\":3796:3800   */\n      0x00\n        /* \"#utility.yul\":3995:4040   */\n      tag_162\n        /* \"#utility.yul\":4035:4038   */\n      0xa0\n        /* \"#utility.yul\":4024:4033   */\n      dup4\n        /* \"#utility.yul\":4020:4039   */\n      add\n        /* \"#utility.yul\":4012:4018   */\n      dup7\n        /* \"#utility.yul\":3995:4040   */\n      tag_152\n      jump\t// in\n    tag_162:\n        /* \"#utility.yul\":4076:4082   */\n      dup5\n        /* \"#utility.yul\":4071:4073   */\n      0x60\n        /* \"#utility.yul\":4060:4069   */\n      dup5\n        /* \"#utility.yul\":4056:4074   */\n      add\n        /* \"#utility.yul\":4049:4083   */\n      mstore\n        /* \"#utility.yul\":4132:4141   */\n      dup3\n        /* \"#utility.yul\":4124:4130   */\n      dup2\n        /* \"#utility.yul\":4120:4142   */\n      sub\n        /* \"#utility.yul\":4114:4117   */\n      0x80\n        /* \"#utility.yul\":4103:4112   */\n      dup5\n        /* \"#utility.yul\":4099:4118   */\n      add\n        /* \"#utility.yul\":4092:4143   */\n      mstore\n        /* \"#utility.yul\":4160:4192   */\n      tag_163\n        /* \"#utility.yul\":4185:4191   */\n      dup2\n        /* \"#utility.yul\":4177:4183   */\n      dup6\n        /* \"#utility.yul\":4160:4192   */\n      tag_152\n      jump\t// in\n    tag_163:\n        /* \"#utility.yul\":4152:4192   */\n      swap9\n        /* \"#utility.yul\":3554:4198   */\n      swap8\n      pop\n      pop\n      pop\n      pop\n      pop\n      pop\n      pop\n      pop\n      jump\t// out\n        /* \"#utility.yul\":4577:4794   */\n    tag_26:\n        /* \"#utility.yul\":4724:4726   */\n      0x20\n        /* \"#utility.yul\":4713:4722   */\n      dup2\n        /* \"#utility.yul\":4706:4727   */\n      mstore\n        /* \"#utility.yul\":4687:4691   */\n      0x00\n        /* \"#utility.yul\":4744:4788   */\n      tag_140\n        /* \"#utility.yul\":4784:4786   */\n      0x20\n        /* \"#utility.yul\":4773:4782   */\n      dup4\n        /* \"#utility.yul\":4769:4787   */\n      add\n        /* \"#utility.yul\":4761:4767   */\n      dup5\n        /* \"#utility.yul\":4744:4788   */\n      tag_152\n      jump\t// in\n        /* \"#utility.yul\":7780:8062   */\n    tag_83:\n        /* \"#utility.yul\":7820:7823   */\n      0x00\n        /* \"#utility.yul\":7851:7852   */\n      dup3\n        /* \"#utility.yul\":7847:7853   */\n      not\n        /* \"#utility.yul\":7844:7845   */\n      dup3\n        /* \"#utility.yul\":7841:7854   */\n      gt\n        /* \"#utility.yul\":7838:8031   */\n      iszero\n      tag_178\n      jumpi\n        /* \"#utility.yul\":7887:7964   */\n      0x4e487b7100000000000000000000000000000000000000000000000000000000\n        /* \"#utility.yul\":7884:7885   */\n      0x00\n        /* \"#utility.yul\":7877:7965   */\n      mstore\n        /* \"#utility.yul\":7988:7992   */\n      0x11\n        /* \"#utility.yul\":7985:7986   */\n      0x04\n        /* \"#utility.yul\":7978:7993   */\n      mstore\n        /* \"#utility.yul\":8016:8020   */\n      0x24\n        /* \"#utility.yul\":8013:8014   */\n      0x00\n        /* \"#utility.yul\":8006:8021   */\n      revert\n        /* \"#utility.yul\":7838:8031   */\n    tag_178:\n      pop\n        /* \"#utility.yul\":8047:8056   */\n      add\n      swap1\n        /* \"#utility.yul\":7780:8062   */\n      jump\t// out\n        /* \"#utility.yul\":8067:8325   */\n    tag_155:\n        /* \"#utility.yul\":8139:8140   */\n      0x00\n        /* \"#utility.yul\":8149:8262   */\n    tag_180:\n        /* \"#utility.yul\":8163:8169   */\n      dup4\n        /* \"#utility.yul\":8160:8161   */\n      dup2\n        /* \"#utility.yul\":8157:8170   */\n      lt\n        /* \"#utility.yul\":8149:8262   */\n      iszero\n      tag_182\n      jumpi\n        /* \"#utility.yul\":8239:8250   */\n      dup2\n      dup2\n      add\n        /* \"#utility.yul\":8233:8251   */\n      mload\n        /* \"#utility.yul\":8220:8231   */\n      dup4\n      dup3\n      add\n        /* \"#utility.yul\":8213:8252   */\n      mstore\n        /* \"#utility.yul\":8185:8187   */\n      0x20\n        /* \"#utility.yul\":8178:8188   */\n      add\n        /* \"#utility.yul\":8149:8262   */\n      jump(tag_180)\n    tag_182:\n        /* \"#utility.yul\":8280:8286   */\n      dup4\n        /* \"#utility.yul\":8277:8278   */\n      dup2\n        /* \"#utility.yul\":8274:8287   */\n      gt\n        /* \"#utility.yul\":8271:8319   */\n      iszero\n      tag_183\n      jumpi\n        /* \"#utility.yul\":8315:8316   */\n      0x00\n        /* \"#utility.yul\":8306:8312   */\n      dup5\n        /* \"#utility.yul\":8301:8304   */\n      dup5\n        /* \"#utility.yul\":8297:8313   */\n      add\n        /* \"#utility.yul\":8290:8317   */\n      mstore\n        /* \"#utility.yul\":8271:8319   */\n    tag_183:\n      pop\n        /* \"#utility.yul\":8067:8325   */\n      pop\n      pop\n      pop\n      jump\t// out\n        /* \"#utility.yul\":8330:8514   */\n    tag_131:\n        /* \"#utility.yul\":8382:8459   */\n      0x4e487b7100000000000000000000000000000000000000000000000000000000\n        /* \"#utility.yul\":8379:8380   */\n      0x00\n        /* \"#utility.yul\":8372:8460   */\n      mstore\n        /* \"#utility.yul\":8479:8483   */\n      0x41\n        /* \"#utility.yul\":8476:8477   */\n      0x04\n        /* \"#utility.yul\":8469:8484   */\n      mstore\n        /* \"#utility.yul\":8503:8507   */\n      0x24\n        /* \"#utility.yul\":8500:8501   */\n      0x00\n        /* \"#utility.yul\":8493:8508   */\n      revert\n\n    auxdata: 0xa264697066735822122043334a1c0cc2393da2fc62c8810f12c1d6f5029e00ebf12ed3d665b6610f2d7b64736f6c63430008070033\n}\n",
				"bytecode": {
					"linkReferences": {},
					"object": "608060405234801561001057600080fd5b50604051610d7f380380610d7f83398101604081905261002f91610049565b600080546001600160a01b03191633179055600155610062565b60006020828403121561005b57600080fd5b5051919050565b610d0e806100716000396000f3fe6080604052600436106100b15760003560e01c8063930f1c0511610069578063d13bb0ed1161004e578063d13bb0ed14610189578063e465b292146101a9578063f851a440146101e957600080fd5b8063930f1c0514610154578063ceddcc441461017457600080fd5b80636a42b8f81161009a5780636a42b8f814610109578063796b89b91461011f5780638f2839701461013257600080fd5b806304a71576146100b65780630825f38f146100e9575b600080fd5b3480156100c257600080fd5b506100d66100d1366004610a56565b61023b565b6040519081526020015b60405180910390f35b6100fc6100f7366004610a56565b610277565b6040516100e09190610c27565b34801561011557600080fd5b506100d660015481565b34801561012b57600080fd5b50426100d6565b34801561013e57600080fd5b5061015261014d366004610a34565b6105bc565b005b34801561016057600080fd5b506100d661016f366004610a56565b61066c565b34801561018057600080fd5b506100d6609681565b34801561019557600080fd5b506101526101a4366004610a56565b610831565b3480156101b557600080fd5b506101d96101c4366004610b07565b60026020526000908152604090205460ff1681565b60405190151581526020016100e0565b3480156101f557600080fd5b506000546102169073ffffffffffffffffffffffffffffffffffffffff1681565b60405173ffffffffffffffffffffffffffffffffffffffff90911681526020016100e0565b60008585848487604051602001610256959493929190610bce565b60405160208183030381529060405280519060200120905095945050505050565b60005460609073ffffffffffffffffffffffffffffffffffffffff163314610300576040517f08c379a000000000000000000000000000000000000000000000000000000000815260206004820152601060248201527f63616c6c6572206e6f742061646d696e0000000000000000000000000000000060448201526064015b60405180910390fd5b600061030f878787878761023b565b60008181526002602052604090205490915060ff1661038a576040517f08c379a000000000000000000000000000000000000000000000000000000000815260206004820152601b60248201527f7472616e73616374696f6e206973206e6f7420696e207175657565000000000060448201526064016102f7565b824210156103f4576040517f08c379a000000000000000000000000000000000000000000000000000000000815260206004820152601460248201527f696e76616c696420657865637574652074696d6500000000000000000000000060448201526064016102f7565b6103ff609684610c3a565b421115610468576040517f08c379a000000000000000000000000000000000000000000000000000000000815260206004820152601560248201527f696e76616c6964206c6f636b5f6475726174696f6e000000000000000000000060448201526064016102f7565b600081815260026020526040902080547fffffffffffffffffffffffffffffffffffffffffffffffffffffffffffffff0016905584516060906104ac5750836104d8565b8580519060200120856040516020016104c6929190610b6a565b60405160208183030381529060405290505b6000808973ffffffffffffffffffffffffffffffffffffffff1689846040516105019190610bb2565b60006040518083038185875af1925050503d806000811461053e576040519150601f19603f3d011682016040523d82523d6000602084013e610543565b606091505b5091509150816105af576040517f08c379a000000000000000000000000000000000000000000000000000000000815260206004820152601260248201527f7472616e73616374696f6e206661696c6564000000000000000000000000000060448201526064016102f7565b9998505050505050505050565b333014610625576040517f08c379a000000000000000000000000000000000000000000000000000000000815260206004820152601360248201527f63616c6c6572206e6f742054696d654c6f636b0000000000000000000000000060448201526064016102f7565b600080547fffffffffffffffffffffffff00000000000000000000000000000000000000001673ffffffffffffffffffffffffffffffffffffffff92909216919091179055565b6000805473ffffffffffffffffffffffffffffffffffffffff1633146106ee576040517f08c379a000000000000000000000000000000000000000000000000000000000815260206004820152601060248201527f63616c6c6572206e6f742061646d696e0000000000000000000000000000000060448201526064016102f7565b6001546106fb9042610c3a565b821015610764576040517f08c379a000000000000000000000000000000000000000000000000000000000815260206004820152601460248201527f696e76616c696420657865637574652074696d6500000000000000000000000060448201526064016102f7565b6000610773878787878761023b565b60008181526002602052604090205490915060ff16156107ef576040517f08c379a000000000000000000000000000000000000000000000000000000000815260206004820152601560248201527f7472616e73616374696f6e20686173206578697473000000000000000000000060448201526064016102f7565b600081815260026020526040902080547fffffffffffffffffffffffffffffffffffffffffffffffffffffffffffffff00166001179055905095945050505050565b60005473ffffffffffffffffffffffffffffffffffffffff1633146108b2576040517f08c379a000000000000000000000000000000000000000000000000000000000815260206004820152601060248201527f63616c6c6572206e6f742061646d696e0000000000000000000000000000000060448201526064016102f7565b60006108c1868686868661023b565b60008181526002602052604090205490915060ff1661093c576040517f08c379a000000000000000000000000000000000000000000000000000000000815260206004820152601960248201527f7472616e73616374696f6e206e6f7420696e207175657565640000000000000060448201526064016102f7565b600090815260026020526040902080547fffffffffffffffffffffffffffffffffffffffffffffffffffffffffffffff001690555050505050565b600067ffffffffffffffff8084111561099257610992610ca9565b604051601f85017fffffffffffffffffffffffffffffffffffffffffffffffffffffffffffffffe0908116603f011681019082821181831017156109d8576109d8610ca9565b816040528093508581528686860111156109f157600080fd5b858560208301376000602087830101525050509392505050565b803573ffffffffffffffffffffffffffffffffffffffff81168114610a2f57600080fd5b919050565b600060208284031215610a4657600080fd5b610a4f82610a0b565b9392505050565b600080600080600060a08688031215610a6e57600080fd5b610a7786610a0b565b945060208601359350604086013567ffffffffffffffff80821115610a9b57600080fd5b818801915088601f830112610aaf57600080fd5b610abe89833560208501610977565b94506060880135915080821115610ad457600080fd5b508601601f81018813610ae657600080fd5b610af588823560208401610977565b95989497509295608001359392505050565b600060208284031215610b1957600080fd5b5035919050565b60008151808452610b38816020860160208601610c79565b601f017fffffffffffffffffffffffffffffffffffffffffffffffffffffffffffffffe0169290920160200192915050565b7fffffffff000000000000000000000000000000000000000000000000000000008316815260008251610ba4816004850160208701610c79565b919091016004019392505050565b60008251610bc4818460208701610c79565b9190910192915050565b73ffffffffffffffffffffffffffffffffffffffff8616815284602082015260a060408201526000610c0360a0830186610b20565b8460608401528281036080840152610c1b8185610b20565b98975050505050505050565b602081526000610a4f6020830184610b20565b60008219821115610c74577f4e487b7100000000000000000000000000000000000000000000000000000000600052601160045260246000fd5b500190565b60005b83811015610c94578181015183820152602001610c7c565b83811115610ca3576000848401525b50505050565b7f4e487b7100000000000000000000000000000000000000000000000000000000600052604160045260246000fdfea264697066735822122043334a1c0cc2393da2fc62c8810f12c1d6f5029e00ebf12ed3d665b6610f2d7b64736f6c63430008070033",
					"opcodes": "PUSH1 0x80 PUSH1 0x40 MSTORE CALLVALUE DUP1 ISZERO PUSH2 0x10 JUMPI PUSH1 0x0 DUP1 REVERT JUMPDEST POP PUSH1 0x40 MLOAD PUSH2 0xD7F CODESIZE SUB DUP1 PUSH2 0xD7F DUP4 CODECOPY DUP2 ADD PUSH1 0x40 DUP2 SWAP1 MSTORE PUSH2 0x2F SWAP2 PUSH2 0x49 JUMP JUMPDEST PUSH1 0x0 DUP1 SLOAD PUSH1 0x1 PUSH1 0x1 PUSH1 0xA0 SHL SUB NOT AND CALLER OR SWAP1 SSTORE PUSH1 0x1 SSTORE PUSH2 0x62 JUMP JUMPDEST PUSH1 0x0 PUSH1 0x20 DUP3 DUP5 SUB SLT ISZERO PUSH2 0x5B JUMPI PUSH1 0x0 DUP1 REVERT JUMPDEST POP MLOAD SWAP2 SWAP1 POP JUMP JUMPDEST PUSH2 0xD0E DUP1 PUSH2 0x71 PUSH1 0x0 CODECOPY PUSH1 0x0 RETURN INVALID PUSH1 0x80 PUSH1 0x40 MSTORE PUSH1 0x4 CALLDATASIZE LT PUSH2 0xB1 JUMPI PUSH1 0x0 CALLDATALOAD PUSH1 0xE0 SHR DUP1 PUSH4 0x930F1C05 GT PUSH2 0x69 JUMPI DUP1 PUSH4 0xD13BB0ED GT PUSH2 0x4E JUMPI DUP1 PUSH4 0xD13BB0ED EQ PUSH2 0x189 JUMPI DUP1 PUSH4 0xE465B292 EQ PUSH2 0x1A9 JUMPI DUP1 PUSH4 0xF851A440 EQ PUSH2 0x1E9 JUMPI PUSH1 0x0 DUP1 REVERT JUMPDEST DUP1 PUSH4 0x930F1C05 EQ PUSH2 0x154 JUMPI DUP1 PUSH4 0xCEDDCC44 EQ PUSH2 0x174 JUMPI PUSH1 0x0 DUP1 REVERT JUMPDEST DUP1 PUSH4 0x6A42B8F8 GT PUSH2 0x9A JUMPI DUP1 PUSH4 0x6A42B8F8 EQ PUSH2 0x109 JUMPI DUP1 PUSH4 0x796B89B9 EQ PUSH2 0x11F JUMPI DUP1 PUSH4 0x8F283970 EQ PUSH2 0x132 JUMPI PUSH1 0x0 DUP1 REVERT JUMPDEST DUP1 PUSH4 0x4A71576 EQ PUSH2 0xB6 JUMPI DUP1 PUSH4 0x825F38F EQ PUSH2 0xE9 JUMPI JUMPDEST PUSH1 0x0 DUP1 REVERT JUMPDEST CALLVALUE DUP1 ISZERO PUSH2 0xC2 JUMPI PUSH1 0x0 DUP1 REVERT JUMPDEST POP PUSH2 0xD6 PUSH2 0xD1 CALLDATASIZE PUSH1 0x4 PUSH2 0xA56 JUMP JUMPDEST PUSH2 0x23B JUMP JUMPDEST PUSH1 0x40 MLOAD SWAP1 DUP2 MSTORE PUSH1 0x20 ADD JUMPDEST PUSH1 0x40 MLOAD DUP1 SWAP2 SUB SWAP1 RETURN JUMPDEST PUSH2 0xFC PUSH2 0xF7 CALLDATASIZE PUSH1 0x4 PUSH2 0xA56 JUMP JUMPDEST PUSH2 0x277 JUMP JUMPDEST PUSH1 0x40 MLOAD PUSH2 0xE0 SWAP2 SWAP1 PUSH2 0xC27 JUMP JUMPDEST CALLVALUE DUP1 ISZERO PUSH2 0x115 JUMPI PUSH1 0x0 DUP1 REVERT JUMPDEST POP PUSH2 0xD6 PUSH1 0x1 SLOAD DUP2 JUMP JUMPDEST CALLVALUE DUP1 ISZERO PUSH2 0x12B JUMPI PUSH1 0x0 DUP1 REVERT JUMPDEST POP TIMESTAMP PUSH2 0xD6 JUMP JUMPDEST CALLVALUE DUP1 ISZERO PUSH2 0x13E JUMPI PUSH1 0x0 DUP1 REVERT JUMPDEST POP PUSH2 0x152 PUSH2 0x14D CALLDATASIZE PUSH1 0x4 PUSH2 0xA34 JUMP JUMPDEST PUSH2 0x5BC JUMP JUMPDEST STOP JUMPDEST CALLVALUE DUP1 ISZERO PUSH2 0x160 JUMPI PUSH1 0x0 DUP1 REVERT JUMPDEST POP PUSH2 0xD6 PUSH2 0x16F CALLDATASIZE PUSH1 0x4 PUSH2 0xA56 JUMP JUMPDEST PUSH2 0x66C JUMP JUMPDEST CALLVALUE DUP1 ISZERO PUSH2 0x180 JUMPI PUSH1 0x0 DUP1 REVERT JUMPDEST POP PUSH2 0xD6 PUSH1 0x96 DUP2 JUMP JUMPDEST CALLVALUE DUP1 ISZERO PUSH2 0x195 JUMPI PUSH1 0x0 DUP1 REVERT JUMPDEST POP PUSH2 0x152 PUSH2 0x1A4 CALLDATASIZE PUSH1 0x4 PUSH2 0xA56 JUMP JUMPDEST PUSH2 0x831 JUMP JUMPDEST CALLVALUE DUP1 ISZERO PUSH2 0x1B5 JUMPI PUSH1 0x0 DUP1 REVERT JUMPDEST POP PUSH2 0x1D9 PUSH2 0x1C4 CALLDATASIZE PUSH1 0x4 PUSH2 0xB07 JUMP JUMPDEST PUSH1 0x2 PUSH1 0x20 MSTORE PUSH1 0x0 SWAP1 DUP2 MSTORE PUSH1 0x40 SWAP1 KECCAK256 SLOAD PUSH1 0xFF AND DUP2 JUMP JUMPDEST PUSH1 0x40 MLOAD SWAP1 ISZERO ISZERO DUP2 MSTORE PUSH1 0x20 ADD PUSH2 0xE0 JUMP JUMPDEST CALLVALUE DUP1 ISZERO PUSH2 0x1F5 JUMPI PUSH1 0x0 DUP1 REVERT JUMPDEST POP PUSH1 0x0 SLOAD PUSH2 0x216 SWAP1 PUSH20 0xFFFFFFFFFFFFFFFFFFFFFFFFFFFFFFFFFFFFFFFF AND DUP2 JUMP JUMPDEST PUSH1 0x40 MLOAD PUSH20 0xFFFFFFFFFFFFFFFFFFFFFFFFFFFFFFFFFFFFFFFF SWAP1 SWAP2 AND DUP2 MSTORE PUSH1 0x20 ADD PUSH2 0xE0 JUMP JUMPDEST PUSH1 0x0 DUP6 DUP6 DUP5 DUP5 DUP8 PUSH1 0x40 MLOAD PUSH1 0x20 ADD PUSH2 0x256 SWAP6 SWAP5 SWAP4 SWAP3 SWAP2 SWAP1 PUSH2 0xBCE JUMP JUMPDEST PUSH1 0x40 MLOAD PUSH1 0x20 DUP2 DUP4 SUB SUB DUP2 MSTORE SWAP1 PUSH1 0x40 MSTORE DUP1 MLOAD SWAP1 PUSH1 0x20 ADD KECCAK256 SWAP1 POP SWAP6 SWAP5 POP POP POP POP POP JUMP JUMPDEST PUSH1 0x0 SLOAD PUSH1 0x60 SWAP1 PUSH20 0xFFFFFFFFFFFFFFFFFFFFFFFFFFFFFFFFFFFFFFFF AND CALLER EQ PUSH2 0x300 JUMPI PUSH1 0x40 MLOAD PUSH32 0x8C379A000000000000000000000000000000000000000000000000000000000 DUP2 MSTORE PUSH1 0x20 PUSH1 0x4 DUP3 ADD MSTORE PUSH1 0x10 PUSH1 0x24 DUP3 ADD MSTORE PUSH32 0x63616C6C6572206E6F742061646D696E00000000000000000000000000000000 PUSH1 0x44 DUP3 ADD MSTORE PUSH1 0x64 ADD JUMPDEST PUSH1 0x40 MLOAD DUP1 SWAP2 SUB SWAP1 REVERT JUMPDEST PUSH1 0x0 PUSH2 0x30F DUP8 DUP8 DUP8 DUP8 DUP8 PUSH2 0x23B JUMP JUMPDEST PUSH1 0x0 DUP2 DUP2 MSTORE PUSH1 0x2 PUSH1 0x20 MSTORE PUSH1 0x40 SWAP1 KECCAK256 SLOAD SWAP1 SWAP2 POP PUSH1 0xFF AND PUSH2 0x38A JUMPI PUSH1 0x40 MLOAD PUSH32 0x8C379A000000000000000000000000000000000000000000000000000000000 DUP2 MSTORE PUSH1 0x20 PUSH1 0x4 DUP3 ADD MSTORE PUSH1 0x1B PUSH1 0x24 DUP3 ADD MSTORE PUSH32 0x7472616E73616374696F6E206973206E6F7420696E2071756575650000000000 PUSH1 0x44 DUP3 ADD MSTORE PUSH1 0x64 ADD PUSH2 0x2F7 JUMP JUMPDEST DUP3 TIMESTAMP LT ISZERO PUSH2 0x3F4 JUMPI PUSH1 0x40 MLOAD PUSH32 0x8C379A000000000000000000000000000000000000000000000000000000000 DUP2 MSTORE PUSH1 0x20 PUSH1 0x4 DUP3 ADD MSTORE PUSH1 0x14 PUSH1 0x24 DUP3 ADD MSTORE PUSH32 0x696E76616C696420657865637574652074696D65000000000000000000000000 PUSH1 0x44 DUP3 ADD MSTORE PUSH1 0x64 ADD PUSH2 0x2F7 JUMP JUMPDEST PUSH2 0x3FF PUSH1 0x96 DUP5 PUSH2 0xC3A JUMP JUMPDEST TIMESTAMP GT ISZERO PUSH2 0x468 JUMPI PUSH1 0x40 MLOAD PUSH32 0x8C379A000000000000000000000000000000000000000000000000000000000 DUP2 MSTORE PUSH1 0x20 PUSH1 0x4 DUP3 ADD MSTORE PUSH1 0x15 PUSH1 0x24 DUP3 ADD MSTORE PUSH32 0x696E76616C6964206C6F636B5F6475726174696F6E0000000000000000000000 PUSH1 0x44 DUP3 ADD MSTORE PUSH1 0x64 ADD PUSH2 0x2F7 JUMP JUMPDEST PUSH1 0x0 DUP2 DUP2 MSTORE PUSH1 0x2 PUSH1 0x20 MSTORE PUSH1 0x40 SWAP1 KECCAK256 DUP1 SLOAD PUSH32 0xFFFFFFFFFFFFFFFFFFFFFFFFFFFFFFFFFFFFFFFFFFFFFFFFFFFFFFFFFFFFFF00 AND SWAP1 SSTORE DUP5 MLOAD PUSH1 0x60 SWAP1 PUSH2 0x4AC JUMPI POP DUP4 PUSH2 0x4D8 JUMP JUMPDEST DUP6 DUP1 MLOAD SWAP1 PUSH1 0x20 ADD KECCAK256 DUP6 PUSH1 0x40 MLOAD PUSH1 0x20 ADD PUSH2 0x4C6 SWAP3 SWAP2 SWAP1 PUSH2 0xB6A JUMP JUMPDEST PUSH1 0x40 MLOAD PUSH1 0x20 DUP2 DUP4 SUB SUB DUP2 MSTORE SWAP1 PUSH1 0x40 MSTORE SWAP1 POP JUMPDEST PUSH1 0x0 DUP1 DUP10 PUSH20 0xFFFFFFFFFFFFFFFFFFFFFFFFFFFFFFFFFFFFFFFF AND DUP10 DUP5 PUSH1 0x40 MLOAD PUSH2 0x501 SWAP2 SWAP1 PUSH2 0xBB2 JUMP JUMPDEST PUSH1 0x0 PUSH1 0x40 MLOAD DUP1 DUP4 SUB DUP2 DUP6 DUP8 GAS CALL SWAP3 POP POP POP RETURNDATASIZE DUP1 PUSH1 0x0 DUP2 EQ PUSH2 0x53E JUMPI PUSH1 0x40 MLOAD SWAP2 POP PUSH1 0x1F NOT PUSH1 0x3F RETURNDATASIZE ADD AND DUP3 ADD PUSH1 0x40 MSTORE RETURNDATASIZE DUP3 MSTORE RETURNDATASIZE PUSH1 0x0 PUSH1 0x20 DUP5 ADD RETURNDATACOPY PUSH2 0x543 JUMP JUMPDEST PUSH1 0x60 SWAP2 POP JUMPDEST POP SWAP2 POP SWAP2 POP DUP2 PUSH2 0x5AF JUMPI PUSH1 0x40 MLOAD PUSH32 0x8C379A000000000000000000000000000000000000000000000000000000000 DUP2 MSTORE PUSH1 0x20 PUSH1 0x4 DUP3 ADD MSTORE PUSH1 0x12 PUSH1 0x24 DUP3 ADD MSTORE PUSH32 0x7472616E73616374696F6E206661696C65640000000000000000000000000000 PUSH1 0x44 DUP3 ADD MSTORE PUSH1 0x64 ADD PUSH2 0x2F7 JUMP JUMPDEST SWAP10 SWAP9 POP POP POP POP POP POP POP POP POP JUMP JUMPDEST CALLER ADDRESS EQ PUSH2 0x625 JUMPI PUSH1 0x40 MLOAD PUSH32 0x8C379A000000000000000000000000000000000000000000000000000000000 DUP2 MSTORE PUSH1 0x20 PUSH1 0x4 DUP3 ADD MSTORE PUSH1 0x13 PUSH1 0x24 DUP3 ADD MSTORE PUSH32 0x63616C6C6572206E6F742054696D654C6F636B00000000000000000000000000 PUSH1 0x44 DUP3 ADD MSTORE PUSH1 0x64 ADD PUSH2 0x2F7 JUMP JUMPDEST PUSH1 0x0 DUP1 SLOAD PUSH32 0xFFFFFFFFFFFFFFFFFFFFFFFF0000000000000000000000000000000000000000 AND PUSH20 0xFFFFFFFFFFFFFFFFFFFFFFFFFFFFFFFFFFFFFFFF SWAP3 SWAP1 SWAP3 AND SWAP2 SWAP1 SWAP2 OR SWAP1 SSTORE JUMP JUMPDEST PUSH1 0x0 DUP1 SLOAD PUSH20 0xFFFFFFFFFFFFFFFFFFFFFFFFFFFFFFFFFFFFFFFF AND CALLER EQ PUSH2 0x6EE JUMPI PUSH1 0x40 MLOAD PUSH32 0x8C379A000000000000000000000000000000000000000000000000000000000 DUP2 MSTORE PUSH1 0x20 PUSH1 0x4 DUP3 ADD MSTORE PUSH1 0x10 PUSH1 0x24 DUP3 ADD MSTORE PUSH32 0x63616C6C6572206E6F742061646D696E00000000000000000000000000000000 PUSH1 0x44 DUP3 ADD MSTORE PUSH1 0x64 ADD PUSH2 0x2F7 JUMP JUMPDEST PUSH1 0x1 SLOAD PUSH2 0x6FB SWAP1 TIMESTAMP PUSH2 0xC3A JUMP JUMPDEST DUP3 LT ISZERO PUSH2 0x764 JUMPI PUSH1 0x40 MLOAD PUSH32 0x8C379A000000000000000000000000000000000000000000000000000000000 DUP2 MSTORE PUSH1 0x20 PUSH1 0x4 DUP3 ADD MSTORE PUSH1 0x14 PUSH1 0x24 DUP3 ADD MSTORE PUSH32 0x696E76616C696420657865637574652074696D65000000000000000000000000 PUSH1 0x44 DUP3 ADD MSTORE PUSH1 0x64 ADD PUSH2 0x2F7 JUMP JUMPDEST PUSH1 0x0 PUSH2 0x773 DUP8 DUP8 DUP8 DUP8 DUP8 PUSH2 0x23B JUMP JUMPDEST PUSH1 0x0 DUP2 DUP2 MSTORE PUSH1 0x2 PUSH1 0x20 MSTORE PUSH1 0x40 SWAP1 KECCAK256 SLOAD SWAP1 SWAP2 POP PUSH1 0xFF AND ISZERO PUSH2 0x7EF JUMPI PUSH1 0x40 MLOAD PUSH32 0x8C379A000000000000000000000000000000000000000000000000000000000 DUP2 MSTORE PUSH1 0x20 PUSH1 0x4 DUP3 ADD MSTORE PUSH1 0x15 PUSH1 0x24 DUP3 ADD MSTORE PUSH32 0x7472616E73616374696F6E206861732065786974730000000000000000000000 PUSH1 0x44 DUP3 ADD MSTORE PUSH1 0x64 ADD PUSH2 0x2F7 JUMP JUMPDEST PUSH1 0x0 DUP2 DUP2 MSTORE PUSH1 0x2 PUSH1 0x20 MSTORE PUSH1 0x40 SWAP1 KECCAK256 DUP1 SLOAD PUSH32 0xFFFFFFFFFFFFFFFFFFFFFFFFFFFFFFFFFFFFFFFFFFFFFFFFFFFFFFFFFFFFFF00 AND PUSH1 0x1 OR SWAP1 SSTORE SWAP1 POP SWAP6 SWAP5 POP POP POP POP POP JUMP JUMPDEST PUSH1 0x0 SLOAD PUSH20 0xFFFFFFFFFFFFFFFFFFFFFFFFFFFFFFFFFFFFFFFF AND CALLER EQ PUSH2 0x8B2 JUMPI PUSH1 0x40 MLOAD PUSH32 0x8C379A000000000000000000000000000000000000000000000000000000000 DUP2 MSTORE PUSH1 0x20 PUSH1 0x4 DUP3 ADD MSTORE PUSH1 0x10 PUSH1 0x24 DUP3 ADD MSTORE PUSH32 0x63616C6C6572206E6F742061646D696E00000000000000000000000000000000 PUSH1 0x44 DUP3 ADD MSTORE PUSH1 0x64 ADD PUSH2 0x2F7 JUMP JUMPDEST PUSH1 0x0 PUSH2 0x8C1 DUP7 DUP7 DUP7 DUP7 DUP7 PUSH2 0x23B JUMP JUMPDEST PUSH1 0x0 DUP2 DUP2 MSTORE PUSH1 0x2 PUSH1 0x20 MSTORE PUSH1 0x40 SWAP1 KECCAK256 SLOAD SWAP1 SWAP2 POP PUSH1 0xFF AND PUSH2 0x93C JUMPI PUSH1 0x40 MLOAD PUSH32 0x8C379A000000000000000000000000000000000000000000000000000000000 DUP2 MSTORE PUSH1 0x20 PUSH1 0x4 DUP3 ADD MSTORE PUSH1 0x19 PUSH1 0x24 DUP3 ADD MSTORE PUSH32 0x7472616E73616374696F6E206E6F7420696E2071756575656400000000000000 PUSH1 0x44 DUP3 ADD MSTORE PUSH1 0x64 ADD PUSH2 0x2F7 JUMP JUMPDEST PUSH1 0x0 SWAP1 DUP2 MSTORE PUSH1 0x2 PUSH1 0x20 MSTORE PUSH1 0x40 SWAP1 KECCAK256 DUP1 SLOAD PUSH32 0xFFFFFFFFFFFFFFFFFFFFFFFFFFFFFFFFFFFFFFFFFFFFFFFFFFFFFFFFFFFFFF00 AND SWAP1 SSTORE POP POP POP POP POP JUMP JUMPDEST PUSH1 0x0 PUSH8 0xFFFFFFFFFFFFFFFF DUP1 DUP5 GT ISZERO PUSH2 0x992 JUMPI PUSH2 0x992 PUSH2 0xCA9 JUMP JUMPDEST PUSH1 0x40 MLOAD PUSH1 0x1F DUP6 ADD PUSH32 0xFFFFFFFFFFFFFFFFFFFFFFFFFFFFFFFFFFFFFFFFFFFFFFFFFFFFFFFFFFFFFFE0 SWAP1 DUP2 AND PUSH1 0x3F ADD AND DUP2 ADD SWAP1 DUP3 DUP3 GT DUP2 DUP4 LT OR ISZERO PUSH2 0x9D8 JUMPI PUSH2 0x9D8 PUSH2 0xCA9 JUMP JUMPDEST DUP2 PUSH1 0x40 MSTORE DUP1 SWAP4 POP DUP6 DUP2 MSTORE DUP7 DUP7 DUP7 ADD GT ISZERO PUSH2 0x9F1 JUMPI PUSH1 0x0 DUP1 REVERT JUMPDEST DUP6 DUP6 PUSH1 0x20 DUP4 ADD CALLDATACOPY PUSH1 0x0 PUSH1 0x20 DUP8 DUP4 ADD ADD MSTORE POP POP POP SWAP4 SWAP3 POP POP POP JUMP JUMPDEST DUP1 CALLDATALOAD PUSH20 0xFFFFFFFFFFFFFFFFFFFFFFFFFFFFFFFFFFFFFFFF DUP2 AND DUP2 EQ PUSH2 0xA2F JUMPI PUSH1 0x0 DUP1 REVERT JUMPDEST SWAP2 SWAP1 POP JUMP JUMPDEST PUSH1 0x0 PUSH1 0x20 DUP3 DUP5 SUB SLT ISZERO PUSH2 0xA46 JUMPI PUSH1 0x0 DUP1 REVERT JUMPDEST PUSH2 0xA4F DUP3 PUSH2 0xA0B JUMP JUMPDEST SWAP4 SWAP3 POP POP POP JUMP JUMPDEST PUSH1 0x0 DUP1 PUSH1 0x0 DUP1 PUSH1 0x0 PUSH1 0xA0 DUP7 DUP9 SUB SLT ISZERO PUSH2 0xA6E JUMPI PUSH1 0x0 DUP1 REVERT JUMPDEST PUSH2 0xA77 DUP7 PUSH2 0xA0B JUMP JUMPDEST SWAP5 POP PUSH1 0x20 DUP7 ADD CALLDATALOAD SWAP4 POP PUSH1 0x40 DUP7 ADD CALLDATALOAD PUSH8 0xFFFFFFFFFFFFFFFF DUP1 DUP3 GT ISZERO PUSH2 0xA9B JUMPI PUSH1 0x0 DUP1 REVERT JUMPDEST DUP2 DUP9 ADD SWAP2 POP DUP9 PUSH1 0x1F DUP4 ADD SLT PUSH2 0xAAF JUMPI PUSH1 0x0 DUP1 REVERT JUMPDEST PUSH2 0xABE DUP10 DUP4 CALLDATALOAD PUSH1 0x20 DUP6 ADD PUSH2 0x977 JUMP JUMPDEST SWAP5 POP PUSH1 0x60 DUP9 ADD CALLDATALOAD SWAP2 POP DUP1 DUP3 GT ISZERO PUSH2 0xAD4 JUMPI PUSH1 0x0 DUP1 REVERT JUMPDEST POP DUP7 ADD PUSH1 0x1F DUP2 ADD DUP9 SGT PUSH2 0xAE6 JUMPI PUSH1 0x0 DUP1 REVERT JUMPDEST PUSH2 0xAF5 DUP9 DUP3 CALLDATALOAD PUSH1 0x20 DUP5 ADD PUSH2 0x977 JUMP JUMPDEST SWAP6 SWAP9 SWAP5 SWAP8 POP SWAP3 SWAP6 PUSH1 0x80 ADD CALLDATALOAD SWAP4 SWAP3 POP POP POP JUMP JUMPDEST PUSH1 0x0 PUSH1 0x20 DUP3 DUP5 SUB SLT ISZERO PUSH2 0xB19 JUMPI PUSH1 0x0 DUP1 REVERT JUMPDEST POP CALLDATALOAD SWAP2 SWAP1 POP JUMP JUMPDEST PUSH1 0x0 DUP2 MLOAD DUP1 DUP5 MSTORE PUSH2 0xB38 DUP2 PUSH1 0x20 DUP7 ADD PUSH1 0x20 DUP7 ADD PUSH2 0xC79 JUMP JUMPDEST PUSH1 0x1F ADD PUSH32 0xFFFFFFFFFFFFFFFFFFFFFFFFFFFFFFFFFFFFFFFFFFFFFFFFFFFFFFFFFFFFFFE0 AND SWAP3 SWAP1 SWAP3 ADD PUSH1 0x20 ADD SWAP3 SWAP2 POP POP JUMP JUMPDEST PUSH32 0xFFFFFFFF00000000000000000000000000000000000000000000000000000000 DUP4 AND DUP2 MSTORE PUSH1 0x0 DUP3 MLOAD PUSH2 0xBA4 DUP2 PUSH1 0x4 DUP6 ADD PUSH1 0x20 DUP8 ADD PUSH2 0xC79 JUMP JUMPDEST SWAP2 SWAP1 SWAP2 ADD PUSH1 0x4 ADD SWAP4 SWAP3 POP POP POP JUMP JUMPDEST PUSH1 0x0 DUP3 MLOAD PUSH2 0xBC4 DUP2 DUP5 PUSH1 0x20 DUP8 ADD PUSH2 0xC79 JUMP JUMPDEST SWAP2 SWAP1 SWAP2 ADD SWAP3 SWAP2 POP POP JUMP JUMPDEST PUSH20 0xFFFFFFFFFFFFFFFFFFFFFFFFFFFFFFFFFFFFFFFF DUP7 AND DUP2 MSTORE DUP5 PUSH1 0x20 DUP3 ADD MSTORE PUSH1 0xA0 PUSH1 0x40 DUP3 ADD MSTORE PUSH1 0x0 PUSH2 0xC03 PUSH1 0xA0 DUP4 ADD DUP7 PUSH2 0xB20 JUMP JUMPDEST DUP5 PUSH1 0x60 DUP5 ADD MSTORE DUP3 DUP2 SUB PUSH1 0x80 DUP5 ADD MSTORE PUSH2 0xC1B DUP2 DUP6 PUSH2 0xB20 JUMP JUMPDEST SWAP9 SWAP8 POP POP POP POP POP POP POP POP JUMP JUMPDEST PUSH1 0x20 DUP2 MSTORE PUSH1 0x0 PUSH2 0xA4F PUSH1 0x20 DUP4 ADD DUP5 PUSH2 0xB20 JUMP JUMPDEST PUSH1 0x0 DUP3 NOT DUP3 GT ISZERO PUSH2 0xC74 JUMPI PUSH32 0x4E487B7100000000000000000000000000000000000000000000000000000000 PUSH1 0x0 MSTORE PUSH1 0x11 PUSH1 0x4 MSTORE PUSH1 0x24 PUSH1 0x0 REVERT JUMPDEST POP ADD SWAP1 JUMP JUMPDEST PUSH1 0x0 JUMPDEST DUP4 DUP2 LT ISZERO PUSH2 0xC94 JUMPI DUP2 DUP2 ADD MLOAD DUP4 DUP3 ADD MSTORE PUSH1 0x20 ADD PUSH2 0xC7C JUMP JUMPDEST DUP4 DUP2 GT ISZERO PUSH2 0xCA3 JUMPI PUSH1 0x0 DUP5 DUP5 ADD MSTORE JUMPDEST POP POP POP POP JUMP JUMPDEST PUSH32 0x4E487B7100000000000000000000000000000000000000000000000000000000 PUSH1 0x0 MSTORE PUSH1 0x41 PUSH1 0x4 MSTORE PUSH1 0x24 PUSH1 0x0 REVERT INVALID LOG2 PUSH5 0x6970667358 0x22 SLT KECCAK256 NUMBER CALLER 0x4A SHR 0xC 0xC2 CODECOPY RETURNDATASIZE LOG2 0xFC PUSH3 0xC8810F SLT 0xC1 0xD6 CREATE2 MUL SWAP15 STOP 0xEB CALL 0x2E 0xD3 0xD6 PUSH6 0xB6610F2D7B64 PUSH20 0x6F6C634300080700330000000000000000000000 "
				},
				"gasEstimates": {
					"creation": {
						"codeDepositCost": "668400",
						"executionCost": "infinite",
						"totalCost": "infinite"
					},
					"external": {
						"admin()": "1079",
						"cancelQueueTransaction(address,uint256,string,bytes,uint256)": "infinite",
						"changeAdmin(address)": "21220",
						"delay()": "1007",
						"executeTransaction(address,uint256,string,bytes,uint256)": "infinite",
						"getBlockTimestamp()": "225",
						"getTxHash(address,uint256,string,bytes,uint256)": "infinite",
						"lock_duration()": "229",
						"queuedTransaction(bytes32)": "1194",
						"queuedTransactions(address,uint256,string,bytes,uint256)": "infinite"
					}
				},
				"methodIdentifiers": {
					"admin()": "f851a440",
					"cancelQueueTransaction(address,uint256,string,bytes,uint256)": "d13bb0ed",
					"changeAdmin(address)": "8f283970",
					"delay()": "6a42b8f8",
					"executeTransaction(address,uint256,string,bytes,uint256)": "0825f38f",
					"getBlockTimestamp()": "796b89b9",
					"getTxHash(address,uint256,string,bytes,uint256)": "04a71576",
					"lock_duration()": "ceddcc44",
					"queuedTransaction(bytes32)": "e465b292",
					"queuedTransactions(address,uint256,string,bytes,uint256)": "930f1c05"
				}
			},
			"storageLayout": {
				"storage": [
					{
						"astId": 30,
						"contract": "49TimeLock.sol:TimeLock",
						"label": "admin",
						"offset": 0,
						"slot": "0",
						"type": "t_address"
					},
					{
						"astId": 35,
						"contract": "49TimeLock.sol:TimeLock",
						"label": "delay",
						"offset": 0,
						"slot": "1",
						"type": "t_uint256"
					},
					{
						"astId": 39,
						"contract": "49TimeLock.sol:TimeLock",
						"label": "queuedTransaction",
						"offset": 0,
						"slot": "2",
						"type": "t_mapping(t_bytes32,t_bool)"
					}
				],
				"types": {
					"t_address": {
						"encoding": "inplace",
						"label": "address",
						"numberOfBytes": "20"
					},
					"t_bool": {
						"encoding": "inplace",
						"label": "bool",
						"numberOfBytes": "1"
					},
					"t_bytes32": {
						"encoding": "inplace",
						"label": "bytes32",
						"numberOfBytes": "32"
					},
					"t_mapping(t_bytes32,t_bool)": {
						"encoding": "mapping",
						"key": "t_bytes32",
						"label": "mapping(bytes32 => bool)",
						"numberOfBytes": "32",
						"value": "t_bool"
					},
					"t_uint256": {
						"encoding": "inplace",
						"label": "uint256",
						"numberOfBytes": "32"
					}
				}
			},
			"userdoc": {
				"kind": "user",
				"methods": {},
				"version": 1
			}
		}
	}
}