{
	"45DA1.sol": {
		"DA1": {
			"abi": [
				{
					"inputs": [
						{
							"internalType": "uint256",
							"name": "_startPrice",
							"type": "uint256"
						},
						{
							"internalType": "uint256",
							"name": "_endPrice",
							"type": "uint256"
						},
						{
							"internalType": "uint256",
							"name": "_tokenId",
							"type": "uint256"
						},
						{
							"internalType": "address",
							"name": "_nftContract",
							"type": "address"
						},
						{
							"internalType": "address",
							"name": "_seller",
							"type": "address"
						}
					],
					"stateMutability": "nonpayable",
					"type": "constructor"
				},
				{
					"anonymous": false,
					"inputs": [
						{
							"indexed": false,
							"internalType": "address",
							"name": "_who",
							"type": "address"
						},
						{
							"indexed": false,
							"internalType": "uint256",
							"name": "_price",
							"type": "uint256"
						},
						{
							"indexed": false,
							"internalType": "uint256",
							"name": "_time",
							"type": "uint256"
						}
					],
					"name": "buyLog",
					"type": "event"
				},
				{
					"inputs": [],
					"name": "auction",
					"outputs": [
						{
							"internalType": "uint256",
							"name": "startPrice",
							"type": "uint256"
						},
						{
							"internalType": "uint256",
							"name": "endPrice",
							"type": "uint256"
						},
						{
							"internalType": "uint256",
							"name": "startTime",
							"type": "uint256"
						},
						{
							"internalType": "uint256",
							"name": "duration",
							"type": "uint256"
						},
						{
							"internalType": "uint256",
							"name": "tokenId",
							"type": "uint256"
						},
						{
							"internalType": "uint256",
							"name": "currentTime",
							"type": "uint256"
						},
						{
							"internalType": "uint256",
							"name": "endTime",
							"type": "uint256"
						},
						{
							"internalType": "address",
							"name": "seller",
							"type": "address"
						},
						{
							"internalType": "address",
							"name": "nftContract",
							"type": "address"
						}
					],
					"stateMutability": "view",
					"type": "function"
				},
				{
					"inputs": [],
					"name": "buy",
					"outputs": [
						{
							"internalType": "uint256",
							"name": "",
							"type": "uint256"
						}
					],
					"stateMutability": "payable",
					"type": "function"
				},
				{
					"inputs": [],
					"name": "getCurrentPrice",
					"outputs": [
						{
							"internalType": "uint256",
							"name": "",
							"type": "uint256"
						}
					],
					"stateMutability": "view",
					"type": "function"
				},
				{
					"inputs": [],
					"name": "refund",
					"outputs": [],
					"stateMutability": "payable",
					"type": "function"
				}
			],
			"devdoc": {
				"kind": "dev",
				"methods": {},
				"version": 1
			},
			"evm": {
				"assembly": "    /* \"45DA1.sol\":237:3261  contract DA1{... */\n  mstore(0x40, 0x80)\n    /* \"45DA1.sol\":784:1326  constructor(... */\n  callvalue\n  dup1\n  iszero\n  tag_1\n  jumpi\n  0x00\n  dup1\n  revert\ntag_1:\n  pop\n  mload(0x40)\n  sub(codesize, bytecodeSize)\n  dup1\n  bytecodeSize\n  dup4\n  codecopy\n  dup2\n  dup2\n  add\n  0x40\n  mstore\n  dup2\n  add\n  swap1\n  tag_2\n  swap2\n  swap1\n  tag_3\n  jump\t// in\ntag_2:\n    /* \"45DA1.sol\":961:972  _startPrice */\n  dup5\n    /* \"45DA1.sol\":940:947  auction */\n  0x00\n    /* \"45DA1.sol\":940:958  auction.startPrice */\n  dup1\n  add\n    /* \"45DA1.sol\":940:972  auction.startPrice = _startPrice */\n  dup2\n  swap1\n  sstore\n  pop\n    /* \"45DA1.sol\":1001:1010  _endPrice */\n  dup4\n    /* \"45DA1.sol\":982:989  auction */\n  0x00\n    /* \"45DA1.sol\":982:998  auction.endPrice */\n  0x01\n  add\n    /* \"45DA1.sol\":982:1010  auction.endPrice = _endPrice */\n  dup2\n  swap1\n  sstore\n  pop\n    /* \"45DA1.sol\":1040:1055  block.timestamp */\n  timestamp\n    /* \"45DA1.sol\":1020:1027  auction */\n  0x00\n    /* \"45DA1.sol\":1020:1037  auction.startTime */\n  0x02\n  add\n    /* \"45DA1.sol\":1020:1055  auction.startTime = block.timestamp */\n  dup2\n  swap1\n  sstore\n  pop\n    /* \"45DA1.sol\":1084:1095  100 minutes */\n  0x1770\n    /* \"45DA1.sol\":1065:1072  auction */\n  0x00\n    /* \"45DA1.sol\":1065:1081  auction.duration */\n  0x03\n  add\n    /* \"45DA1.sol\":1065:1095  auction.duration = 100 minutes */\n  dup2\n  swap1\n  sstore\n  pop\n    /* \"45DA1.sol\":1127:1139  _nftContract */\n  dup2\n    /* \"45DA1.sol\":1105:1112  auction */\n  0x00\n    /* \"45DA1.sol\":1105:1124  auction.nftContract */\n  0x08\n  add\n  0x00\n    /* \"45DA1.sol\":1105:1139  auction.nftContract = _nftContract */\n  0x0100\n  exp\n  dup2\n  sload\n  dup2\n  0xffffffffffffffffffffffffffffffffffffffff\n  mul\n  not\n  and\n  swap1\n  dup4\n  0xffffffffffffffffffffffffffffffffffffffff\n  and\n  mul\n  or\n  swap1\n  sstore\n  pop\n    /* \"45DA1.sol\":1166:1173  _seller */\n  dup1\n    /* \"45DA1.sol\":1149:1156  auction */\n  0x00\n    /* \"45DA1.sol\":1149:1163  auction.seller */\n  0x07\n  add\n  0x00\n    /* \"45DA1.sol\":1149:1173  auction.seller = _seller */\n  0x0100\n  exp\n  dup2\n  sload\n  dup2\n  0xffffffffffffffffffffffffffffffffffffffff\n  mul\n  not\n  and\n  swap1\n  dup4\n  0xffffffffffffffffffffffffffffffffffffffff\n  and\n  mul\n  or\n  swap1\n  sstore\n  pop\n    /* \"45DA1.sol\":1201:1209  _tokenId */\n  dup3\n    /* \"45DA1.sol\":1183:1190  auction */\n  0x00\n    /* \"45DA1.sol\":1183:1198  auction.tokenId */\n  0x04\n  add\n    /* \"45DA1.sol\":1183:1209  auction.tokenId = _tokenId */\n  dup2\n  swap1\n  sstore\n  pop\n    /* \"45DA1.sol\":1257:1272  block.timestamp */\n  timestamp\n    /* \"45DA1.sol\":1237:1244  auction */\n  0x00\n    /* \"45DA1.sol\":1237:1254  auction.startTime */\n  0x02\n  add\n  sload\n    /* \"45DA1.sol\":1237:1272  auction.startTime + block.timestamp */\n  tag_6\n  swap2\n  swap1\n  tag_7\n  jump\t// in\ntag_6:\n    /* \"45DA1.sol\":1219:1226  auction */\n  0x00\n    /* \"45DA1.sol\":1219:1234  auction.endTime */\n  0x06\n  add\n    /* \"45DA1.sol\":1219:1272  auction.endTime = auction.startTime + block.timestamp */\n  dup2\n  swap1\n  sstore\n  pop\n    /* \"45DA1.sol\":1304:1319  block.timestamp */\n  timestamp\n    /* \"45DA1.sol\":1282:1289  auction */\n  0x00\n    /* \"45DA1.sol\":1282:1301  auction.currentTime */\n  0x05\n  add\n    /* \"45DA1.sol\":1282:1319  auction.currentTime = block.timestamp */\n  dup2\n  swap1\n  sstore\n  pop\n    /* \"45DA1.sol\":784:1326  constructor(... */\n  pop\n  pop\n  pop\n  pop\n  pop\n    /* \"45DA1.sol\":237:3261  contract DA1{... */\n  jump(tag_8)\n    /* \"#utility.yul\":7:150   */\ntag_10:\n    /* \"#utility.yul\":64:69   */\n  0x00\n    /* \"#utility.yul\":95:101   */\n  dup2\n    /* \"#utility.yul\":89:102   */\n  mload\n    /* \"#utility.yul\":80:102   */\n  swap1\n  pop\n    /* \"#utility.yul\":111:144   */\n  tag_12\n    /* \"#utility.yul\":138:143   */\n  dup2\n    /* \"#utility.yul\":111:144   */\n  tag_13\n  jump\t// in\ntag_12:\n    /* \"#utility.yul\":7:150   */\n  swap3\n  swap2\n  pop\n  pop\n  jump\t// out\n    /* \"#utility.yul\":156:299   */\ntag_14:\n    /* \"#utility.yul\":213:218   */\n  0x00\n    /* \"#utility.yul\":244:250   */\n  dup2\n    /* \"#utility.yul\":238:251   */\n  mload\n    /* \"#utility.yul\":229:251   */\n  swap1\n  pop\n    /* \"#utility.yul\":260:293   */\n  tag_16\n    /* \"#utility.yul\":287:292   */\n  dup2\n    /* \"#utility.yul\":260:293   */\n  tag_17\n  jump\t// in\ntag_16:\n    /* \"#utility.yul\":156:299   */\n  swap3\n  swap2\n  pop\n  pop\n  jump\t// out\n    /* \"#utility.yul\":305:1282   */\ntag_3:\n    /* \"#utility.yul\":411:417   */\n  0x00\n    /* \"#utility.yul\":419:425   */\n  dup1\n    /* \"#utility.yul\":427:433   */\n  0x00\n    /* \"#utility.yul\":435:441   */\n  dup1\n    /* \"#utility.yul\":443:449   */\n  0x00\n    /* \"#utility.yul\":492:495   */\n  0xa0\n    /* \"#utility.yul\":480:489   */\n  dup7\n    /* \"#utility.yul\":471:478   */\n  dup9\n    /* \"#utility.yul\":467:490   */\n  sub\n    /* \"#utility.yul\":463:496   */\n  slt\n    /* \"#utility.yul\":460:580   */\n  iszero\n  tag_19\n  jumpi\n    /* \"#utility.yul\":499:578   */\n  tag_20\n  tag_21\n  jump\t// in\ntag_20:\n    /* \"#utility.yul\":460:580   */\ntag_19:\n    /* \"#utility.yul\":619:620   */\n  0x00\n    /* \"#utility.yul\":644:708   */\n  tag_22\n    /* \"#utility.yul\":700:707   */\n  dup9\n    /* \"#utility.yul\":691:697   */\n  dup3\n    /* \"#utility.yul\":680:689   */\n  dup10\n    /* \"#utility.yul\":676:698   */\n  add\n    /* \"#utility.yul\":644:708   */\n  tag_14\n  jump\t// in\ntag_22:\n    /* \"#utility.yul\":634:708   */\n  swap6\n  pop\n    /* \"#utility.yul\":590:718   */\n  pop\n    /* \"#utility.yul\":757:759   */\n  0x20\n    /* \"#utility.yul\":783:847   */\n  tag_23\n    /* \"#utility.yul\":839:846   */\n  dup9\n    /* \"#utility.yul\":830:836   */\n  dup3\n    /* \"#utility.yul\":819:828   */\n  dup10\n    /* \"#utility.yul\":815:837   */\n  add\n    /* \"#utility.yul\":783:847   */\n  tag_14\n  jump\t// in\ntag_23:\n    /* \"#utility.yul\":773:847   */\n  swap5\n  pop\n    /* \"#utility.yul\":728:857   */\n  pop\n    /* \"#utility.yul\":896:898   */\n  0x40\n    /* \"#utility.yul\":922:986   */\n  tag_24\n    /* \"#utility.yul\":978:985   */\n  dup9\n    /* \"#utility.yul\":969:975   */\n  dup3\n    /* \"#utility.yul\":958:967   */\n  dup10\n    /* \"#utility.yul\":954:976   */\n  add\n    /* \"#utility.yul\":922:986   */\n  tag_14\n  jump\t// in\ntag_24:\n    /* \"#utility.yul\":912:986   */\n  swap4\n  pop\n    /* \"#utility.yul\":867:996   */\n  pop\n    /* \"#utility.yul\":1035:1037   */\n  0x60\n    /* \"#utility.yul\":1061:1125   */\n  tag_25\n    /* \"#utility.yul\":1117:1124   */\n  dup9\n    /* \"#utility.yul\":1108:1114   */\n  dup3\n    /* \"#utility.yul\":1097:1106   */\n  dup10\n    /* \"#utility.yul\":1093:1115   */\n  add\n    /* \"#utility.yul\":1061:1125   */\n  tag_10\n  jump\t// in\ntag_25:\n    /* \"#utility.yul\":1051:1125   */\n  swap3\n  pop\n    /* \"#utility.yul\":1006:1135   */\n  pop\n    /* \"#utility.yul\":1174:1177   */\n  0x80\n    /* \"#utility.yul\":1201:1265   */\n  tag_26\n    /* \"#utility.yul\":1257:1264   */\n  dup9\n    /* \"#utility.yul\":1248:1254   */\n  dup3\n    /* \"#utility.yul\":1237:1246   */\n  dup10\n    /* \"#utility.yul\":1233:1255   */\n  add\n    /* \"#utility.yul\":1201:1265   */\n  tag_10\n  jump\t// in\ntag_26:\n    /* \"#utility.yul\":1191:1265   */\n  swap2\n  pop\n    /* \"#utility.yul\":1145:1275   */\n  pop\n    /* \"#utility.yul\":305:1282   */\n  swap3\n  swap6\n  pop\n  swap3\n  swap6\n  swap1\n  swap4\n  pop\n  jump\t// out\n    /* \"#utility.yul\":1369:1674   */\ntag_7:\n    /* \"#utility.yul\":1409:1412   */\n  0x00\n    /* \"#utility.yul\":1428:1448   */\n  tag_30\n    /* \"#utility.yul\":1446:1447   */\n  dup3\n    /* \"#utility.yul\":1428:1448   */\n  tag_31\n  jump\t// in\ntag_30:\n    /* \"#utility.yul\":1423:1448   */\n  swap2\n  pop\n    /* \"#utility.yul\":1462:1482   */\n  tag_32\n    /* \"#utility.yul\":1480:1481   */\n  dup4\n    /* \"#utility.yul\":1462:1482   */\n  tag_31\n  jump\t// in\ntag_32:\n    /* \"#utility.yul\":1457:1482   */\n  swap3\n  pop\n    /* \"#utility.yul\":1616:1617   */\n  dup3\n    /* \"#utility.yul\":1548:1614   */\n  0xffffffffffffffffffffffffffffffffffffffffffffffffffffffffffffffff\n    /* \"#utility.yul\":1544:1618   */\n  sub\n    /* \"#utility.yul\":1541:1542   */\n  dup3\n    /* \"#utility.yul\":1538:1619   */\n  gt\n    /* \"#utility.yul\":1535:1642   */\n  iszero\n  tag_33\n  jumpi\n    /* \"#utility.yul\":1622:1640   */\n  tag_34\n  tag_35\n  jump\t// in\ntag_34:\n    /* \"#utility.yul\":1535:1642   */\ntag_33:\n    /* \"#utility.yul\":1666:1667   */\n  dup3\n    /* \"#utility.yul\":1663:1664   */\n  dup3\n    /* \"#utility.yul\":1659:1668   */\n  add\n    /* \"#utility.yul\":1652:1668   */\n  swap1\n  pop\n    /* \"#utility.yul\":1369:1674   */\n  swap3\n  swap2\n  pop\n  pop\n  jump\t// out\n    /* \"#utility.yul\":1680:1776   */\ntag_36:\n    /* \"#utility.yul\":1717:1724   */\n  0x00\n    /* \"#utility.yul\":1746:1770   */\n  tag_38\n    /* \"#utility.yul\":1764:1769   */\n  dup3\n    /* \"#utility.yul\":1746:1770   */\n  tag_39\n  jump\t// in\ntag_38:\n    /* \"#utility.yul\":1735:1770   */\n  swap1\n  pop\n    /* \"#utility.yul\":1680:1776   */\n  swap2\n  swap1\n  pop\n  jump\t// out\n    /* \"#utility.yul\":1782:1908   */\ntag_39:\n    /* \"#utility.yul\":1819:1826   */\n  0x00\n    /* \"#utility.yul\":1859:1901   */\n  0xffffffffffffffffffffffffffffffffffffffff\n    /* \"#utility.yul\":1852:1857   */\n  dup3\n    /* \"#utility.yul\":1848:1902   */\n  and\n    /* \"#utility.yul\":1837:1902   */\n  swap1\n  pop\n    /* \"#utility.yul\":1782:1908   */\n  swap2\n  swap1\n  pop\n  jump\t// out\n    /* \"#utility.yul\":1914:1991   */\ntag_31:\n    /* \"#utility.yul\":1951:1958   */\n  0x00\n    /* \"#utility.yul\":1980:1985   */\n  dup2\n    /* \"#utility.yul\":1969:1985   */\n  swap1\n  pop\n    /* \"#utility.yul\":1914:1991   */\n  swap2\n  swap1\n  pop\n  jump\t// out\n    /* \"#utility.yul\":1997:2177   */\ntag_35:\n    /* \"#utility.yul\":2045:2122   */\n  0x4e487b7100000000000000000000000000000000000000000000000000000000\n    /* \"#utility.yul\":2042:2043   */\n  0x00\n    /* \"#utility.yul\":2035:2123   */\n  mstore\n    /* \"#utility.yul\":2142:2146   */\n  0x11\n    /* \"#utility.yul\":2139:2140   */\n  0x04\n    /* \"#utility.yul\":2132:2147   */\n  mstore\n    /* \"#utility.yul\":2166:2170   */\n  0x24\n    /* \"#utility.yul\":2163:2164   */\n  0x00\n    /* \"#utility.yul\":2156:2171   */\n  revert\n    /* \"#utility.yul\":2306:2423   */\ntag_21:\n    /* \"#utility.yul\":2415:2416   */\n  0x00\n    /* \"#utility.yul\":2412:2413   */\n  dup1\n    /* \"#utility.yul\":2405:2417   */\n  revert\n    /* \"#utility.yul\":2429:2551   */\ntag_13:\n    /* \"#utility.yul\":2502:2526   */\n  tag_47\n    /* \"#utility.yul\":2520:2525   */\n  dup2\n    /* \"#utility.yul\":2502:2526   */\n  tag_36\n  jump\t// in\ntag_47:\n    /* \"#utility.yul\":2495:2500   */\n  dup2\n    /* \"#utility.yul\":2492:2527   */\n  eq\n    /* \"#utility.yul\":2482:2545   */\n  tag_48\n  jumpi\n    /* \"#utility.yul\":2541:2542   */\n  0x00\n    /* \"#utility.yul\":2538:2539   */\n  dup1\n    /* \"#utility.yul\":2531:2543   */\n  revert\n    /* \"#utility.yul\":2482:2545   */\ntag_48:\n    /* \"#utility.yul\":2429:2551   */\n  pop\n  jump\t// out\n    /* \"#utility.yul\":2557:2679   */\ntag_17:\n    /* \"#utility.yul\":2630:2654   */\n  tag_50\n    /* \"#utility.yul\":2648:2653   */\n  dup2\n    /* \"#utility.yul\":2630:2654   */\n  tag_31\n  jump\t// in\ntag_50:\n    /* \"#utility.yul\":2623:2628   */\n  dup2\n    /* \"#utility.yul\":2620:2655   */\n  eq\n    /* \"#utility.yul\":2610:2673   */\n  tag_51\n  jumpi\n    /* \"#utility.yul\":2669:2670   */\n  0x00\n    /* \"#utility.yul\":2666:2667   */\n  dup1\n    /* \"#utility.yul\":2659:2671   */\n  revert\n    /* \"#utility.yul\":2610:2673   */\ntag_51:\n    /* \"#utility.yul\":2557:2679   */\n  pop\n  jump\t// out\n    /* \"45DA1.sol\":237:3261  contract DA1{... */\ntag_8:\n  dataSize(sub_0)\n  dup1\n  dataOffset(sub_0)\n  0x00\n  codecopy\n  0x00\n  return\nstop\n\nsub_0: assembly {\n        /* \"45DA1.sol\":237:3261  contract DA1{... */\n      mstore(0x40, 0x80)\n      jumpi(tag_1, lt(calldatasize, 0x04))\n      shr(0xe0, calldataload(0x00))\n      dup1\n      0x590e1ae3\n      eq\n      tag_2\n      jumpi\n      dup1\n      0x7d9f6db5\n      eq\n      tag_3\n      jumpi\n      dup1\n      0xa6f2ae3a\n      eq\n      tag_4\n      jumpi\n      dup1\n      0xeb91d37e\n      eq\n      tag_5\n      jumpi\n    tag_1:\n      0x00\n      dup1\n      revert\n        /* \"45DA1.sol\":2926:3093  function refund() external payable{... */\n    tag_2:\n      tag_6\n      tag_7\n      jump\t// in\n    tag_6:\n      stop\n        /* \"45DA1.sol\":717:739  Auction public auction */\n    tag_3:\n      callvalue\n      dup1\n      iszero\n      tag_8\n      jumpi\n      0x00\n      dup1\n      revert\n    tag_8:\n      pop\n      tag_9\n      tag_10\n      jump\t// in\n    tag_9:\n      mload(0x40)\n      tag_11\n      swap10\n      swap9\n      swap8\n      swap7\n      swap6\n      swap5\n      swap4\n      swap3\n      swap2\n      swap1\n      tag_12\n      jump\t// in\n    tag_11:\n      mload(0x40)\n      dup1\n      swap2\n      sub\n      swap1\n      return\n        /* \"45DA1.sol\":1978:2920  function buy() external payable returns(uint){... */\n    tag_4:\n      tag_13\n      tag_14\n      jump\t// in\n    tag_13:\n      mload(0x40)\n      tag_15\n      swap2\n      swap1\n      tag_16\n      jump\t// in\n    tag_15:\n      mload(0x40)\n      dup1\n      swap2\n      sub\n      swap1\n      return\n        /* \"45DA1.sol\":1388:1930  function getCurrentPrice()public view returns(uint){... */\n    tag_5:\n      callvalue\n      dup1\n      iszero\n      tag_17\n      jumpi\n      0x00\n      dup1\n      revert\n    tag_17:\n      pop\n      tag_18\n      tag_19\n      jump\t// in\n    tag_18:\n      mload(0x40)\n      tag_20\n      swap2\n      swap1\n      tag_16\n      jump\t// in\n    tag_20:\n      mload(0x40)\n      dup1\n      swap2\n      sub\n      swap1\n      return\n        /* \"45DA1.sol\":2926:3093  function refund() external payable{... */\n    tag_7:\n        /* \"45DA1.sol\":2985:3002  getCurrentPrice() */\n      tag_22\n        /* \"45DA1.sol\":2985:3000  getCurrentPrice */\n      tag_19\n        /* \"45DA1.sol\":2985:3002  getCurrentPrice() */\n      jump\t// in\n    tag_22:\n        /* \"45DA1.sol\":2973:2982  msg.value */\n      callvalue\n        /* \"45DA1.sol\":2973:3002  msg.value > getCurrentPrice() */\n      gt\n        /* \"45DA1.sol\":2970:3087  if(msg.value > getCurrentPrice()){... */\n      iszero\n      tag_23\n      jumpi\n        /* \"45DA1.sol\":3025:3035  msg.sender */\n      caller\n        /* \"45DA1.sol\":3017:3045  payable(msg.sender).transfer */\n      0xffffffffffffffffffffffffffffffffffffffff\n      and\n        /* \"45DA1.sol\":3017:3076  payable(msg.sender).transfer(msg.value - getCurrentPrice()) */\n      0x08fc\n        /* \"45DA1.sol\":3058:3075  getCurrentPrice() */\n      tag_24\n        /* \"45DA1.sol\":3058:3073  getCurrentPrice */\n      tag_19\n        /* \"45DA1.sol\":3058:3075  getCurrentPrice() */\n      jump\t// in\n    tag_24:\n        /* \"45DA1.sol\":3046:3055  msg.value */\n      callvalue\n        /* \"45DA1.sol\":3046:3075  msg.value - getCurrentPrice() */\n      tag_25\n      swap2\n      swap1\n      tag_26\n      jump\t// in\n    tag_25:\n        /* \"45DA1.sol\":3017:3076  payable(msg.sender).transfer(msg.value - getCurrentPrice()) */\n      swap1\n      dup2\n      iszero\n      mul\n      swap1\n      mload(0x40)\n      0x00\n      mload(0x40)\n      dup1\n      dup4\n      sub\n      dup2\n      dup6\n      dup9\n      dup9\n      call\n      swap4\n      pop\n      pop\n      pop\n      pop\n      iszero\n      dup1\n      iszero\n      tag_28\n      jumpi\n      returndatasize\n      0x00\n      dup1\n      returndatacopy\n      revert(0x00, returndatasize)\n    tag_28:\n      pop\n        /* \"45DA1.sol\":2970:3087  if(msg.value > getCurrentPrice()){... */\n    tag_23:\n        /* \"45DA1.sol\":2926:3093  function refund() external payable{... */\n      jump\t// out\n        /* \"45DA1.sol\":717:739  Auction public auction */\n    tag_10:\n      0x00\n      dup1\n      0x00\n      add\n      sload\n      swap1\n      dup1\n      0x01\n      add\n      sload\n      swap1\n      dup1\n      0x02\n      add\n      sload\n      swap1\n      dup1\n      0x03\n      add\n      sload\n      swap1\n      dup1\n      0x04\n      add\n      sload\n      swap1\n      dup1\n      0x05\n      add\n      sload\n      swap1\n      dup1\n      0x06\n      add\n      sload\n      swap1\n      dup1\n      0x07\n      add\n      0x00\n      swap1\n      sload\n      swap1\n      0x0100\n      exp\n      swap1\n      div\n      0xffffffffffffffffffffffffffffffffffffffff\n      and\n      swap1\n      dup1\n      0x08\n      add\n      0x00\n      swap1\n      sload\n      swap1\n      0x0100\n      exp\n      swap1\n      div\n      0xffffffffffffffffffffffffffffffffffffffff\n      and\n      swap1\n      pop\n      dup10\n      jump\t// out\n        /* \"45DA1.sol\":1978:2920  function buy() external payable returns(uint){... */\n    tag_14:\n        /* \"45DA1.sol\":2018:2022  uint */\n      0x00\n        /* \"45DA1.sol\":2121:2128  auction */\n      dup1\n        /* \"45DA1.sol\":2121:2137  auction.duration */\n      0x03\n      add\n      sload\n        /* \"45DA1.sol\":2101:2108  auction */\n      0x00\n        /* \"45DA1.sol\":2101:2118  auction.startTime */\n      0x02\n      add\n      sload\n        /* \"45DA1.sol\":2101:2137  auction.startTime + auction.duration */\n      tag_30\n      swap2\n      swap1\n      tag_31\n      jump\t// in\n    tag_30:\n        /* \"45DA1.sol\":2082:2097  block.timestamp */\n      timestamp\n        /* \"45DA1.sol\":2082:2137  block.timestamp <= auction.startTime + auction.duration */\n      gt\n      iszero\n        /* \"45DA1.sol\":2074:2159  require(block.timestamp <= auction.startTime + auction.duration,\"Auction is expired\") */\n      tag_32\n      jumpi\n      mload(0x40)\n      0x08c379a000000000000000000000000000000000000000000000000000000000\n      dup2\n      mstore\n      0x04\n      add\n      tag_33\n      swap1\n      tag_34\n      jump\t// in\n    tag_33:\n      mload(0x40)\n      dup1\n      swap2\n      sub\n      swap1\n      revert\n    tag_32:\n        /* \"45DA1.sol\":2263:2270  auction */\n      0x00\n        /* \"45DA1.sol\":2263:2277  auction.seller */\n      0x07\n      add\n      0x00\n      swap1\n      sload\n      swap1\n      0x0100\n      exp\n      swap1\n      div\n      0xffffffffffffffffffffffffffffffffffffffff\n      and\n        /* \"45DA1.sol\":2206:2277  IERC721(auction.nftContract).ownerOf(auction.tokenId) == auction.seller */\n      0xffffffffffffffffffffffffffffffffffffffff\n      and\n        /* \"45DA1.sol\":2214:2221  auction */\n      0x00\n        /* \"45DA1.sol\":2214:2233  auction.nftContract */\n      0x08\n      add\n      0x00\n      swap1\n      sload\n      swap1\n      0x0100\n      exp\n      swap1\n      div\n      0xffffffffffffffffffffffffffffffffffffffff\n      and\n        /* \"45DA1.sol\":2206:2242  IERC721(auction.nftContract).ownerOf */\n      0xffffffffffffffffffffffffffffffffffffffff\n      and\n      0x6352211e\n        /* \"45DA1.sol\":2243:2250  auction */\n      0x00\n        /* \"45DA1.sol\":2243:2258  auction.tokenId */\n      0x04\n      add\n      sload\n        /* \"45DA1.sol\":2206:2259  IERC721(auction.nftContract).ownerOf(auction.tokenId) */\n      mload(0x40)\n      dup3\n      0xffffffff\n      and\n      0xe0\n      shl\n      dup2\n      mstore\n      0x04\n      add\n      tag_35\n      swap2\n      swap1\n      tag_16\n      jump\t// in\n    tag_35:\n      0x20\n      mload(0x40)\n      dup1\n      dup4\n      sub\n      dup2\n      dup7\n      dup1\n      extcodesize\n      iszero\n      dup1\n      iszero\n      tag_36\n      jumpi\n      0x00\n      dup1\n      revert\n    tag_36:\n      pop\n      gas\n      staticcall\n      iszero\n      dup1\n      iszero\n      tag_38\n      jumpi\n      returndatasize\n      0x00\n      dup1\n      returndatacopy\n      revert(0x00, returndatasize)\n    tag_38:\n      pop\n      pop\n      pop\n      pop\n      mload(0x40)\n      returndatasize\n      not(0x1f)\n      0x1f\n      dup3\n      add\n      and\n      dup3\n      add\n      dup1\n      0x40\n      mstore\n      pop\n      dup2\n      add\n      swap1\n      tag_39\n      swap2\n      swap1\n      tag_40\n      jump\t// in\n    tag_39:\n        /* \"45DA1.sol\":2206:2277  IERC721(auction.nftContract).ownerOf(auction.tokenId) == auction.seller */\n      0xffffffffffffffffffffffffffffffffffffffff\n      and\n      eq\n        /* \"45DA1.sol\":2198:2305  require(IERC721(auction.nftContract).ownerOf(auction.tokenId) == auction.seller,\"NFT has bought by others\") */\n      tag_41\n      jumpi\n      mload(0x40)\n      0x08c379a000000000000000000000000000000000000000000000000000000000\n      dup2\n      mstore\n      0x04\n      add\n      tag_42\n      swap1\n      tag_43\n      jump\t// in\n    tag_42:\n      mload(0x40)\n      dup1\n      swap2\n      sub\n      swap1\n      revert\n    tag_41:\n        /* \"45DA1.sol\":2395:2412  getCurrentPrice() */\n      tag_44\n        /* \"45DA1.sol\":2395:2410  getCurrentPrice */\n      tag_19\n        /* \"45DA1.sol\":2395:2412  getCurrentPrice() */\n      jump\t// in\n    tag_44:\n        /* \"45DA1.sol\":2382:2391  msg.value */\n      callvalue\n        /* \"45DA1.sol\":2382:2412  msg.value >= getCurrentPrice() */\n      lt\n      iszero\n        /* \"45DA1.sol\":2374:2454  require(msg.value >= getCurrentPrice(),\"Your price is lower than currentPirce!\") */\n      tag_45\n      jumpi\n      mload(0x40)\n      0x08c379a000000000000000000000000000000000000000000000000000000000\n      dup2\n      mstore\n      0x04\n      add\n      tag_46\n      swap1\n      tag_47\n      jump\t// in\n    tag_46:\n      mload(0x40)\n      dup1\n      swap2\n      sub\n      swap1\n      revert\n    tag_45:\n        /* \"45DA1.sol\":2507:2514  auction */\n      0x00\n        /* \"45DA1.sol\":2507:2526  auction.nftContract */\n      0x08\n      add\n      0x00\n      swap1\n      sload\n      swap1\n      0x0100\n      exp\n      swap1\n      div\n      0xffffffffffffffffffffffffffffffffffffffff\n      and\n        /* \"45DA1.sol\":2499:2544  IERC721(auction.nftContract).safeTransferFrom */\n      0xffffffffffffffffffffffffffffffffffffffff\n      and\n      0x42842e0e\n        /* \"45DA1.sol\":2545:2552  auction */\n      0x00\n        /* \"45DA1.sol\":2545:2559  auction.seller */\n      0x07\n      add\n      0x00\n      swap1\n      sload\n      swap1\n      0x0100\n      exp\n      swap1\n      div\n      0xffffffffffffffffffffffffffffffffffffffff\n      and\n        /* \"45DA1.sol\":2560:2570  msg.sender */\n      caller\n        /* \"45DA1.sol\":2571:2578  auction */\n      0x00\n        /* \"45DA1.sol\":2571:2586  auction.tokenId */\n      0x04\n      add\n      sload\n        /* \"45DA1.sol\":2499:2587  IERC721(auction.nftContract).safeTransferFrom(auction.seller,msg.sender,auction.tokenId) */\n      mload(0x40)\n      dup5\n      0xffffffff\n      and\n      0xe0\n      shl\n      dup2\n      mstore\n      0x04\n      add\n      tag_48\n      swap4\n      swap3\n      swap2\n      swap1\n      tag_49\n      jump\t// in\n    tag_48:\n      0x00\n      mload(0x40)\n      dup1\n      dup4\n      sub\n      dup2\n      0x00\n      dup8\n      dup1\n      extcodesize\n      iszero\n      dup1\n      iszero\n      tag_50\n      jumpi\n      0x00\n      dup1\n      revert\n    tag_50:\n      pop\n      gas\n      call\n      iszero\n      dup1\n      iszero\n      tag_52\n      jumpi\n      returndatasize\n      0x00\n      dup1\n      returndatacopy\n      revert(0x00, returndatasize)\n    tag_52:\n      pop\n      pop\n      pop\n      pop\n        /* \"45DA1.sol\":2743:2753  msg.sender */\n      caller\n        /* \"45DA1.sol\":2686:2753  IERC721(auction.nftContract).ownerOf(auction.tokenId) == msg.sender */\n      0xffffffffffffffffffffffffffffffffffffffff\n      and\n        /* \"45DA1.sol\":2694:2701  auction */\n      0x00\n        /* \"45DA1.sol\":2694:2713  auction.nftContract */\n      0x08\n      add\n      0x00\n      swap1\n      sload\n      swap1\n      0x0100\n      exp\n      swap1\n      div\n      0xffffffffffffffffffffffffffffffffffffffff\n      and\n        /* \"45DA1.sol\":2686:2722  IERC721(auction.nftContract).ownerOf */\n      0xffffffffffffffffffffffffffffffffffffffff\n      and\n      0x6352211e\n        /* \"45DA1.sol\":2723:2730  auction */\n      0x00\n        /* \"45DA1.sol\":2723:2738  auction.tokenId */\n      0x04\n      add\n      sload\n        /* \"45DA1.sol\":2686:2739  IERC721(auction.nftContract).ownerOf(auction.tokenId) */\n      mload(0x40)\n      dup3\n      0xffffffff\n      and\n      0xe0\n      shl\n      dup2\n      mstore\n      0x04\n      add\n      tag_53\n      swap2\n      swap1\n      tag_16\n      jump\t// in\n    tag_53:\n      0x20\n      mload(0x40)\n      dup1\n      dup4\n      sub\n      dup2\n      dup7\n      dup1\n      extcodesize\n      iszero\n      dup1\n      iszero\n      tag_54\n      jumpi\n      0x00\n      dup1\n      revert\n    tag_54:\n      pop\n      gas\n      staticcall\n      iszero\n      dup1\n      iszero\n      tag_56\n      jumpi\n      returndatasize\n      0x00\n      dup1\n      returndatacopy\n      revert(0x00, returndatasize)\n    tag_56:\n      pop\n      pop\n      pop\n      pop\n      mload(0x40)\n      returndatasize\n      not(0x1f)\n      0x1f\n      dup3\n      add\n      and\n      dup3\n      add\n      dup1\n      0x40\n      mstore\n      pop\n      dup2\n      add\n      swap1\n      tag_57\n      swap2\n      swap1\n      tag_40\n      jump\t// in\n    tag_57:\n        /* \"45DA1.sol\":2686:2753  IERC721(auction.nftContract).ownerOf(auction.tokenId) == msg.sender */\n      0xffffffffffffffffffffffffffffffffffffffff\n      and\n      eq\n        /* \"45DA1.sol\":2682:2913  if (IERC721(auction.nftContract).ownerOf(auction.tokenId) == msg.sender){... */\n      iszero\n      tag_58\n      jumpi\n        /* \"45DA1.sol\":2776:2783  auction */\n      0x00\n        /* \"45DA1.sol\":2776:2790  auction.seller */\n      0x07\n      add\n      0x00\n      swap1\n      sload\n      swap1\n      0x0100\n      exp\n      swap1\n      div\n      0xffffffffffffffffffffffffffffffffffffffff\n      and\n        /* \"45DA1.sol\":2768:2800  payable(auction.seller).transfer */\n      0xffffffffffffffffffffffffffffffffffffffff\n      and\n        /* \"45DA1.sol\":2768:2819  payable(auction.seller).transfer(getCurrentPrice()) */\n      0x08fc\n        /* \"45DA1.sol\":2801:2818  getCurrentPrice() */\n      tag_59\n        /* \"45DA1.sol\":2801:2816  getCurrentPrice */\n      tag_19\n        /* \"45DA1.sol\":2801:2818  getCurrentPrice() */\n      jump\t// in\n    tag_59:\n        /* \"45DA1.sol\":2768:2819  payable(auction.seller).transfer(getCurrentPrice()) */\n      swap1\n      dup2\n      iszero\n      mul\n      swap1\n      mload(0x40)\n      0x00\n      mload(0x40)\n      dup1\n      dup4\n      sub\n      dup2\n      dup6\n      dup9\n      dup9\n      call\n      swap4\n      pop\n      pop\n      pop\n      pop\n      iszero\n      dup1\n      iszero\n      tag_61\n      jumpi\n      returndatasize\n      0x00\n      dup1\n      returndatacopy\n      revert(0x00, returndatasize)\n    tag_61:\n      pop\n        /* \"45DA1.sol\":2840:2857  getCurrentPrice() */\n      tag_62\n        /* \"45DA1.sol\":2840:2855  getCurrentPrice */\n      tag_19\n        /* \"45DA1.sol\":2840:2857  getCurrentPrice() */\n      jump\t// in\n    tag_62:\n        /* \"45DA1.sol\":2833:2857  return getCurrentPrice() */\n      swap1\n      pop\n      jump(tag_29)\n        /* \"45DA1.sol\":2682:2913  if (IERC721(auction.nftContract).ownerOf(auction.tokenId) == msg.sender){... */\n    tag_58:\n        /* \"45DA1.sol\":2893:2902  msg.value */\n      callvalue\n        /* \"45DA1.sol\":2886:2902  return msg.value */\n      swap1\n      pop\n        /* \"45DA1.sol\":1978:2920  function buy() external payable returns(uint){... */\n    tag_29:\n      swap1\n      jump\t// out\n        /* \"45DA1.sol\":1388:1930  function getCurrentPrice()public view returns(uint){... */\n    tag_19:\n        /* \"45DA1.sol\":1434:1438  uint */\n      0x00\n        /* \"45DA1.sol\":1537:1544  auction */\n      dup1\n        /* \"45DA1.sol\":1537:1553  auction.duration */\n      0x03\n      add\n      sload\n        /* \"45DA1.sol\":1517:1524  auction */\n      0x00\n        /* \"45DA1.sol\":1517:1534  auction.startTime */\n      0x02\n      add\n      sload\n        /* \"45DA1.sol\":1517:1553  auction.startTime + auction.duration */\n      tag_65\n      swap2\n      swap1\n      tag_31\n      jump\t// in\n    tag_65:\n        /* \"45DA1.sol\":1498:1513  block.timestamp */\n      timestamp\n        /* \"45DA1.sol\":1498:1553  block.timestamp <= auction.startTime + auction.duration */\n      gt\n      iszero\n        /* \"45DA1.sol\":1490:1575  require(block.timestamp <= auction.startTime + auction.duration,\"Auction is expired\") */\n      tag_66\n      jumpi\n      mload(0x40)\n      0x08c379a000000000000000000000000000000000000000000000000000000000\n      dup2\n      mstore\n      0x04\n      add\n      tag_67\n      swap1\n      tag_34\n      jump\t// in\n    tag_67:\n      mload(0x40)\n      dup1\n      swap2\n      sub\n      swap1\n      revert\n    tag_66:\n        /* \"45DA1.sol\":1585:1598  uint discount */\n      0x00\n        /* \"45DA1.sol\":1641:1648  auction */\n      dup1\n        /* \"45DA1.sol\":1641:1657  auction.duration */\n      0x03\n      add\n      sload\n        /* \"45DA1.sol\":1623:1630  auction */\n      0x00\n        /* \"45DA1.sol\":1623:1639  auction.endPrice */\n      0x01\n      add\n      sload\n        /* \"45DA1.sol\":1602:1609  auction */\n      0x00\n        /* \"45DA1.sol\":1602:1620  auction.startPrice */\n      dup1\n      add\n      sload\n        /* \"45DA1.sol\":1602:1639  auction.startPrice - auction.endPrice */\n      tag_68\n      swap2\n      swap1\n      tag_26\n      jump\t// in\n    tag_68:\n        /* \"45DA1.sol\":1601:1657  (auction.startPrice - auction.endPrice)/auction.duration */\n      tag_69\n      swap2\n      swap1\n      tag_70\n      jump\t// in\n    tag_69:\n        /* \"45DA1.sol\":1585:1657  uint discount = (auction.startPrice - auction.endPrice)/auction.duration */\n      swap1\n      pop\n        /* \"45DA1.sol\":1710:1717  auction */\n      0x00\n        /* \"45DA1.sol\":1710:1726  auction.duration */\n      0x03\n      add\n      sload\n        /* \"45DA1.sol\":1690:1697  auction */\n      0x00\n        /* \"45DA1.sol\":1690:1707  auction.startTime */\n      0x02\n      add\n      sload\n        /* \"45DA1.sol\":1690:1726  auction.startTime + auction.duration */\n      tag_71\n      swap2\n      swap1\n      tag_31\n      jump\t// in\n    tag_71:\n        /* \"45DA1.sol\":1671:1686  block.timestamp */\n      timestamp\n        /* \"45DA1.sol\":1671:1726  block.timestamp >= auction.startTime + auction.duration */\n      lt\n        /* \"45DA1.sol\":1667:1924  if (block.timestamp >= auction.startTime + auction.duration){... */\n      tag_72\n      jumpi\n        /* \"45DA1.sol\":1748:1755  auction */\n      0x00\n        /* \"45DA1.sol\":1748:1764  auction.endPrice */\n      0x01\n      add\n      sload\n        /* \"45DA1.sol\":1741:1764  return auction.endPrice */\n      swap2\n      pop\n      pop\n      jump(tag_64)\n        /* \"45DA1.sol\":1667:1924  if (block.timestamp >= auction.startTime + auction.duration){... */\n    tag_72:\n        /* \"45DA1.sol\":1793:1810  uint currentPrice */\n      0x00\n        /* \"45DA1.sol\":1872:1880  discount */\n      dup2\n        /* \"45DA1.sol\":1853:1860  auction */\n      0x00\n        /* \"45DA1.sol\":1853:1870  auction.startTime */\n      0x02\n      add\n      sload\n        /* \"45DA1.sol\":1835:1850  block.timestamp */\n      timestamp\n        /* \"45DA1.sol\":1835:1870  block.timestamp - auction.startTime */\n      tag_74\n      swap2\n      swap1\n      tag_26\n      jump\t// in\n    tag_74:\n        /* \"45DA1.sol\":1834:1880  (block.timestamp - auction.startTime)*discount */\n      tag_75\n      swap2\n      swap1\n      tag_76\n      jump\t// in\n    tag_75:\n        /* \"45DA1.sol\":1813:1820  auction */\n      0x00\n        /* \"45DA1.sol\":1813:1831  auction.startPrice */\n      dup1\n      add\n      sload\n        /* \"45DA1.sol\":1813:1880  auction.startPrice - (block.timestamp - auction.startTime)*discount */\n      tag_77\n      swap2\n      swap1\n      tag_26\n      jump\t// in\n    tag_77:\n        /* \"45DA1.sol\":1793:1880  uint currentPrice = auction.startPrice - (block.timestamp - auction.startTime)*discount */\n      swap1\n      pop\n        /* \"45DA1.sol\":1901:1913  currentPrice */\n      dup1\n        /* \"45DA1.sol\":1894:1913  return currentPrice */\n      swap3\n      pop\n      pop\n      pop\n        /* \"45DA1.sol\":1388:1930  function getCurrentPrice()public view returns(uint){... */\n    tag_64:\n      swap1\n      jump\t// out\n        /* \"#utility.yul\":7:150   */\n    tag_79:\n        /* \"#utility.yul\":64:69   */\n      0x00\n        /* \"#utility.yul\":95:101   */\n      dup2\n        /* \"#utility.yul\":89:102   */\n      mload\n        /* \"#utility.yul\":80:102   */\n      swap1\n      pop\n        /* \"#utility.yul\":111:144   */\n      tag_81\n        /* \"#utility.yul\":138:143   */\n      dup2\n        /* \"#utility.yul\":111:144   */\n      tag_82\n      jump\t// in\n    tag_81:\n        /* \"#utility.yul\":7:150   */\n      swap3\n      swap2\n      pop\n      pop\n      jump\t// out\n        /* \"#utility.yul\":156:507   */\n    tag_40:\n        /* \"#utility.yul\":226:232   */\n      0x00\n        /* \"#utility.yul\":275:277   */\n      0x20\n        /* \"#utility.yul\":263:272   */\n      dup3\n        /* \"#utility.yul\":254:261   */\n      dup5\n        /* \"#utility.yul\":250:273   */\n      sub\n        /* \"#utility.yul\":246:278   */\n      slt\n        /* \"#utility.yul\":243:362   */\n      iszero\n      tag_84\n      jumpi\n        /* \"#utility.yul\":281:360   */\n      tag_85\n      tag_86\n      jump\t// in\n    tag_85:\n        /* \"#utility.yul\":243:362   */\n    tag_84:\n        /* \"#utility.yul\":401:402   */\n      0x00\n        /* \"#utility.yul\":426:490   */\n      tag_87\n        /* \"#utility.yul\":482:489   */\n      dup5\n        /* \"#utility.yul\":473:479   */\n      dup3\n        /* \"#utility.yul\":462:471   */\n      dup6\n        /* \"#utility.yul\":458:480   */\n      add\n        /* \"#utility.yul\":426:490   */\n      tag_79\n      jump\t// in\n    tag_87:\n        /* \"#utility.yul\":416:490   */\n      swap2\n      pop\n        /* \"#utility.yul\":372:500   */\n      pop\n        /* \"#utility.yul\":156:507   */\n      swap3\n      swap2\n      pop\n      pop\n      jump\t// out\n        /* \"#utility.yul\":513:631   */\n    tag_88:\n        /* \"#utility.yul\":600:624   */\n      tag_90\n        /* \"#utility.yul\":618:623   */\n      dup2\n        /* \"#utility.yul\":600:624   */\n      tag_91\n      jump\t// in\n    tag_90:\n        /* \"#utility.yul\":595:598   */\n      dup3\n        /* \"#utility.yul\":588:625   */\n      mstore\n        /* \"#utility.yul\":513:631   */\n      pop\n      pop\n      jump\t// out\n        /* \"#utility.yul\":637:1003   */\n    tag_92:\n        /* \"#utility.yul\":779:782   */\n      0x00\n        /* \"#utility.yul\":800:867   */\n      tag_94\n        /* \"#utility.yul\":864:866   */\n      0x12\n        /* \"#utility.yul\":859:862   */\n      dup4\n        /* \"#utility.yul\":800:867   */\n      tag_95\n      jump\t// in\n    tag_94:\n        /* \"#utility.yul\":793:867   */\n      swap2\n      pop\n        /* \"#utility.yul\":876:969   */\n      tag_96\n        /* \"#utility.yul\":965:968   */\n      dup3\n        /* \"#utility.yul\":876:969   */\n      tag_97\n      jump\t// in\n    tag_96:\n        /* \"#utility.yul\":994:996   */\n      0x20\n        /* \"#utility.yul\":989:992   */\n      dup3\n        /* \"#utility.yul\":985:997   */\n      add\n        /* \"#utility.yul\":978:997   */\n      swap1\n      pop\n        /* \"#utility.yul\":637:1003   */\n      swap2\n      swap1\n      pop\n      jump\t// out\n        /* \"#utility.yul\":1009:1375   */\n    tag_98:\n        /* \"#utility.yul\":1151:1154   */\n      0x00\n        /* \"#utility.yul\":1172:1239   */\n      tag_100\n        /* \"#utility.yul\":1236:1238   */\n      0x26\n        /* \"#utility.yul\":1231:1234   */\n      dup4\n        /* \"#utility.yul\":1172:1239   */\n      tag_95\n      jump\t// in\n    tag_100:\n        /* \"#utility.yul\":1165:1239   */\n      swap2\n      pop\n        /* \"#utility.yul\":1248:1341   */\n      tag_101\n        /* \"#utility.yul\":1337:1340   */\n      dup3\n        /* \"#utility.yul\":1248:1341   */\n      tag_102\n      jump\t// in\n    tag_101:\n        /* \"#utility.yul\":1366:1368   */\n      0x40\n        /* \"#utility.yul\":1361:1364   */\n      dup3\n        /* \"#utility.yul\":1357:1369   */\n      add\n        /* \"#utility.yul\":1350:1369   */\n      swap1\n      pop\n        /* \"#utility.yul\":1009:1375   */\n      swap2\n      swap1\n      pop\n      jump\t// out\n        /* \"#utility.yul\":1381:1747   */\n    tag_103:\n        /* \"#utility.yul\":1523:1526   */\n      0x00\n        /* \"#utility.yul\":1544:1611   */\n      tag_105\n        /* \"#utility.yul\":1608:1610   */\n      0x18\n        /* \"#utility.yul\":1603:1606   */\n      dup4\n        /* \"#utility.yul\":1544:1611   */\n      tag_95\n      jump\t// in\n    tag_105:\n        /* \"#utility.yul\":1537:1611   */\n      swap2\n      pop\n        /* \"#utility.yul\":1620:1713   */\n      tag_106\n        /* \"#utility.yul\":1709:1712   */\n      dup3\n        /* \"#utility.yul\":1620:1713   */\n      tag_107\n      jump\t// in\n    tag_106:\n        /* \"#utility.yul\":1738:1740   */\n      0x20\n        /* \"#utility.yul\":1733:1736   */\n      dup3\n        /* \"#utility.yul\":1729:1741   */\n      add\n        /* \"#utility.yul\":1722:1741   */\n      swap1\n      pop\n        /* \"#utility.yul\":1381:1747   */\n      swap2\n      swap1\n      pop\n      jump\t// out\n        /* \"#utility.yul\":1753:1871   */\n    tag_108:\n        /* \"#utility.yul\":1840:1864   */\n      tag_110\n        /* \"#utility.yul\":1858:1863   */\n      dup2\n        /* \"#utility.yul\":1840:1864   */\n      tag_111\n      jump\t// in\n    tag_110:\n        /* \"#utility.yul\":1835:1838   */\n      dup3\n        /* \"#utility.yul\":1828:1865   */\n      mstore\n        /* \"#utility.yul\":1753:1871   */\n      pop\n      pop\n      jump\t// out\n        /* \"#utility.yul\":1877:2319   */\n    tag_49:\n        /* \"#utility.yul\":2026:2030   */\n      0x00\n        /* \"#utility.yul\":2064:2066   */\n      0x60\n        /* \"#utility.yul\":2053:2062   */\n      dup3\n        /* \"#utility.yul\":2049:2067   */\n      add\n        /* \"#utility.yul\":2041:2067   */\n      swap1\n      pop\n        /* \"#utility.yul\":2077:2148   */\n      tag_113\n        /* \"#utility.yul\":2145:2146   */\n      0x00\n        /* \"#utility.yul\":2134:2143   */\n      dup4\n        /* \"#utility.yul\":2130:2147   */\n      add\n        /* \"#utility.yul\":2121:2127   */\n      dup7\n        /* \"#utility.yul\":2077:2148   */\n      tag_88\n      jump\t// in\n    tag_113:\n        /* \"#utility.yul\":2158:2230   */\n      tag_114\n        /* \"#utility.yul\":2226:2228   */\n      0x20\n        /* \"#utility.yul\":2215:2224   */\n      dup4\n        /* \"#utility.yul\":2211:2229   */\n      add\n        /* \"#utility.yul\":2202:2208   */\n      dup6\n        /* \"#utility.yul\":2158:2230   */\n      tag_88\n      jump\t// in\n    tag_114:\n        /* \"#utility.yul\":2240:2312   */\n      tag_115\n        /* \"#utility.yul\":2308:2310   */\n      0x40\n        /* \"#utility.yul\":2297:2306   */\n      dup4\n        /* \"#utility.yul\":2293:2311   */\n      add\n        /* \"#utility.yul\":2284:2290   */\n      dup5\n        /* \"#utility.yul\":2240:2312   */\n      tag_108\n      jump\t// in\n    tag_115:\n        /* \"#utility.yul\":1877:2319   */\n      swap5\n      swap4\n      pop\n      pop\n      pop\n      pop\n      jump\t// out\n        /* \"#utility.yul\":2325:2744   */\n    tag_34:\n        /* \"#utility.yul\":2491:2495   */\n      0x00\n        /* \"#utility.yul\":2529:2531   */\n      0x20\n        /* \"#utility.yul\":2518:2527   */\n      dup3\n        /* \"#utility.yul\":2514:2532   */\n      add\n        /* \"#utility.yul\":2506:2532   */\n      swap1\n      pop\n        /* \"#utility.yul\":2578:2587   */\n      dup2\n        /* \"#utility.yul\":2572:2576   */\n      dup2\n        /* \"#utility.yul\":2568:2588   */\n      sub\n        /* \"#utility.yul\":2564:2565   */\n      0x00\n        /* \"#utility.yul\":2553:2562   */\n      dup4\n        /* \"#utility.yul\":2549:2566   */\n      add\n        /* \"#utility.yul\":2542:2589   */\n      mstore\n        /* \"#utility.yul\":2606:2737   */\n      tag_117\n        /* \"#utility.yul\":2732:2736   */\n      dup2\n        /* \"#utility.yul\":2606:2737   */\n      tag_92\n      jump\t// in\n    tag_117:\n        /* \"#utility.yul\":2598:2737   */\n      swap1\n      pop\n        /* \"#utility.yul\":2325:2744   */\n      swap2\n      swap1\n      pop\n      jump\t// out\n        /* \"#utility.yul\":2750:3169   */\n    tag_47:\n        /* \"#utility.yul\":2916:2920   */\n      0x00\n        /* \"#utility.yul\":2954:2956   */\n      0x20\n        /* \"#utility.yul\":2943:2952   */\n      dup3\n        /* \"#utility.yul\":2939:2957   */\n      add\n        /* \"#utility.yul\":2931:2957   */\n      swap1\n      pop\n        /* \"#utility.yul\":3003:3012   */\n      dup2\n        /* \"#utility.yul\":2997:3001   */\n      dup2\n        /* \"#utility.yul\":2993:3013   */\n      sub\n        /* \"#utility.yul\":2989:2990   */\n      0x00\n        /* \"#utility.yul\":2978:2987   */\n      dup4\n        /* \"#utility.yul\":2974:2991   */\n      add\n        /* \"#utility.yul\":2967:3014   */\n      mstore\n        /* \"#utility.yul\":3031:3162   */\n      tag_119\n        /* \"#utility.yul\":3157:3161   */\n      dup2\n        /* \"#utility.yul\":3031:3162   */\n      tag_98\n      jump\t// in\n    tag_119:\n        /* \"#utility.yul\":3023:3162   */\n      swap1\n      pop\n        /* \"#utility.yul\":2750:3169   */\n      swap2\n      swap1\n      pop\n      jump\t// out\n        /* \"#utility.yul\":3175:3594   */\n    tag_43:\n        /* \"#utility.yul\":3341:3345   */\n      0x00\n        /* \"#utility.yul\":3379:3381   */\n      0x20\n        /* \"#utility.yul\":3368:3377   */\n      dup3\n        /* \"#utility.yul\":3364:3382   */\n      add\n        /* \"#utility.yul\":3356:3382   */\n      swap1\n      pop\n        /* \"#utility.yul\":3428:3437   */\n      dup2\n        /* \"#utility.yul\":3422:3426   */\n      dup2\n        /* \"#utility.yul\":3418:3438   */\n      sub\n        /* \"#utility.yul\":3414:3415   */\n      0x00\n        /* \"#utility.yul\":3403:3412   */\n      dup4\n        /* \"#utility.yul\":3399:3416   */\n      add\n        /* \"#utility.yul\":3392:3439   */\n      mstore\n        /* \"#utility.yul\":3456:3587   */\n      tag_121\n        /* \"#utility.yul\":3582:3586   */\n      dup2\n        /* \"#utility.yul\":3456:3587   */\n      tag_103\n      jump\t// in\n    tag_121:\n        /* \"#utility.yul\":3448:3587   */\n      swap1\n      pop\n        /* \"#utility.yul\":3175:3594   */\n      swap2\n      swap1\n      pop\n      jump\t// out\n        /* \"#utility.yul\":3600:3822   */\n    tag_16:\n        /* \"#utility.yul\":3693:3697   */\n      0x00\n        /* \"#utility.yul\":3731:3733   */\n      0x20\n        /* \"#utility.yul\":3720:3729   */\n      dup3\n        /* \"#utility.yul\":3716:3734   */\n      add\n        /* \"#utility.yul\":3708:3734   */\n      swap1\n      pop\n        /* \"#utility.yul\":3744:3815   */\n      tag_123\n        /* \"#utility.yul\":3812:3813   */\n      0x00\n        /* \"#utility.yul\":3801:3810   */\n      dup4\n        /* \"#utility.yul\":3797:3814   */\n      add\n        /* \"#utility.yul\":3788:3794   */\n      dup5\n        /* \"#utility.yul\":3744:3815   */\n      tag_108\n      jump\t// in\n    tag_123:\n        /* \"#utility.yul\":3600:3822   */\n      swap3\n      swap2\n      pop\n      pop\n      jump\t// out\n        /* \"#utility.yul\":3828:4936   */\n    tag_12:\n        /* \"#utility.yul\":4145:4149   */\n      0x00\n        /* \"#utility.yul\":4183:4186   */\n      0x0120\n        /* \"#utility.yul\":4172:4181   */\n      dup3\n        /* \"#utility.yul\":4168:4187   */\n      add\n        /* \"#utility.yul\":4160:4187   */\n      swap1\n      pop\n        /* \"#utility.yul\":4197:4268   */\n      tag_125\n        /* \"#utility.yul\":4265:4266   */\n      0x00\n        /* \"#utility.yul\":4254:4263   */\n      dup4\n        /* \"#utility.yul\":4250:4267   */\n      add\n        /* \"#utility.yul\":4241:4247   */\n      dup13\n        /* \"#utility.yul\":4197:4268   */\n      tag_108\n      jump\t// in\n    tag_125:\n        /* \"#utility.yul\":4278:4350   */\n      tag_126\n        /* \"#utility.yul\":4346:4348   */\n      0x20\n        /* \"#utility.yul\":4335:4344   */\n      dup4\n        /* \"#utility.yul\":4331:4349   */\n      add\n        /* \"#utility.yul\":4322:4328   */\n      dup12\n        /* \"#utility.yul\":4278:4350   */\n      tag_108\n      jump\t// in\n    tag_126:\n        /* \"#utility.yul\":4360:4432   */\n      tag_127\n        /* \"#utility.yul\":4428:4430   */\n      0x40\n        /* \"#utility.yul\":4417:4426   */\n      dup4\n        /* \"#utility.yul\":4413:4431   */\n      add\n        /* \"#utility.yul\":4404:4410   */\n      dup11\n        /* \"#utility.yul\":4360:4432   */\n      tag_108\n      jump\t// in\n    tag_127:\n        /* \"#utility.yul\":4442:4514   */\n      tag_128\n        /* \"#utility.yul\":4510:4512   */\n      0x60\n        /* \"#utility.yul\":4499:4508   */\n      dup4\n        /* \"#utility.yul\":4495:4513   */\n      add\n        /* \"#utility.yul\":4486:4492   */\n      dup10\n        /* \"#utility.yul\":4442:4514   */\n      tag_108\n      jump\t// in\n    tag_128:\n        /* \"#utility.yul\":4524:4597   */\n      tag_129\n        /* \"#utility.yul\":4592:4595   */\n      0x80\n        /* \"#utility.yul\":4581:4590   */\n      dup4\n        /* \"#utility.yul\":4577:4596   */\n      add\n        /* \"#utility.yul\":4568:4574   */\n      dup9\n        /* \"#utility.yul\":4524:4597   */\n      tag_108\n      jump\t// in\n    tag_129:\n        /* \"#utility.yul\":4607:4680   */\n      tag_130\n        /* \"#utility.yul\":4675:4678   */\n      0xa0\n        /* \"#utility.yul\":4664:4673   */\n      dup4\n        /* \"#utility.yul\":4660:4679   */\n      add\n        /* \"#utility.yul\":4651:4657   */\n      dup8\n        /* \"#utility.yul\":4607:4680   */\n      tag_108\n      jump\t// in\n    tag_130:\n        /* \"#utility.yul\":4690:4763   */\n      tag_131\n        /* \"#utility.yul\":4758:4761   */\n      0xc0\n        /* \"#utility.yul\":4747:4756   */\n      dup4\n        /* \"#utility.yul\":4743:4762   */\n      add\n        /* \"#utility.yul\":4734:4740   */\n      dup7\n        /* \"#utility.yul\":4690:4763   */\n      tag_108\n      jump\t// in\n    tag_131:\n        /* \"#utility.yul\":4773:4846   */\n      tag_132\n        /* \"#utility.yul\":4841:4844   */\n      0xe0\n        /* \"#utility.yul\":4830:4839   */\n      dup4\n        /* \"#utility.yul\":4826:4845   */\n      add\n        /* \"#utility.yul\":4817:4823   */\n      dup6\n        /* \"#utility.yul\":4773:4846   */\n      tag_88\n      jump\t// in\n    tag_132:\n        /* \"#utility.yul\":4856:4929   */\n      tag_133\n        /* \"#utility.yul\":4924:4927   */\n      0x0100\n        /* \"#utility.yul\":4913:4922   */\n      dup4\n        /* \"#utility.yul\":4909:4928   */\n      add\n        /* \"#utility.yul\":4900:4906   */\n      dup5\n        /* \"#utility.yul\":4856:4929   */\n      tag_88\n      jump\t// in\n    tag_133:\n        /* \"#utility.yul\":3828:4936   */\n      swap11\n      swap10\n      pop\n      pop\n      pop\n      pop\n      pop\n      pop\n      pop\n      pop\n      pop\n      pop\n      jump\t// out\n        /* \"#utility.yul\":5023:5192   */\n    tag_95:\n        /* \"#utility.yul\":5107:5118   */\n      0x00\n        /* \"#utility.yul\":5141:5147   */\n      dup3\n        /* \"#utility.yul\":5136:5139   */\n      dup3\n        /* \"#utility.yul\":5129:5148   */\n      mstore\n        /* \"#utility.yul\":5181:5185   */\n      0x20\n        /* \"#utility.yul\":5176:5179   */\n      dup3\n        /* \"#utility.yul\":5172:5186   */\n      add\n        /* \"#utility.yul\":5157:5186   */\n      swap1\n      pop\n        /* \"#utility.yul\":5023:5192   */\n      swap3\n      swap2\n      pop\n      pop\n      jump\t// out\n        /* \"#utility.yul\":5198:5503   */\n    tag_31:\n        /* \"#utility.yul\":5238:5241   */\n      0x00\n        /* \"#utility.yul\":5257:5277   */\n      tag_138\n        /* \"#utility.yul\":5275:5276   */\n      dup3\n        /* \"#utility.yul\":5257:5277   */\n      tag_111\n      jump\t// in\n    tag_138:\n        /* \"#utility.yul\":5252:5277   */\n      swap2\n      pop\n        /* \"#utility.yul\":5291:5311   */\n      tag_139\n        /* \"#utility.yul\":5309:5310   */\n      dup4\n        /* \"#utility.yul\":5291:5311   */\n      tag_111\n      jump\t// in\n    tag_139:\n        /* \"#utility.yul\":5286:5311   */\n      swap3\n      pop\n        /* \"#utility.yul\":5445:5446   */\n      dup3\n        /* \"#utility.yul\":5377:5443   */\n      0xffffffffffffffffffffffffffffffffffffffffffffffffffffffffffffffff\n        /* \"#utility.yul\":5373:5447   */\n      sub\n        /* \"#utility.yul\":5370:5371   */\n      dup3\n        /* \"#utility.yul\":5367:5448   */\n      gt\n        /* \"#utility.yul\":5364:5471   */\n      iszero\n      tag_140\n      jumpi\n        /* \"#utility.yul\":5451:5469   */\n      tag_141\n      tag_142\n      jump\t// in\n    tag_141:\n        /* \"#utility.yul\":5364:5471   */\n    tag_140:\n        /* \"#utility.yul\":5495:5496   */\n      dup3\n        /* \"#utility.yul\":5492:5493   */\n      dup3\n        /* \"#utility.yul\":5488:5497   */\n      add\n        /* \"#utility.yul\":5481:5497   */\n      swap1\n      pop\n        /* \"#utility.yul\":5198:5503   */\n      swap3\n      swap2\n      pop\n      pop\n      jump\t// out\n        /* \"#utility.yul\":5509:5694   */\n    tag_70:\n        /* \"#utility.yul\":5549:5550   */\n      0x00\n        /* \"#utility.yul\":5566:5586   */\n      tag_144\n        /* \"#utility.yul\":5584:5585   */\n      dup3\n        /* \"#utility.yul\":5566:5586   */\n      tag_111\n      jump\t// in\n    tag_144:\n        /* \"#utility.yul\":5561:5586   */\n      swap2\n      pop\n        /* \"#utility.yul\":5600:5620   */\n      tag_145\n        /* \"#utility.yul\":5618:5619   */\n      dup4\n        /* \"#utility.yul\":5600:5620   */\n      tag_111\n      jump\t// in\n    tag_145:\n        /* \"#utility.yul\":5595:5620   */\n      swap3\n      pop\n        /* \"#utility.yul\":5639:5640   */\n      dup3\n        /* \"#utility.yul\":5629:5664   */\n      tag_146\n      jumpi\n        /* \"#utility.yul\":5644:5662   */\n      tag_147\n      tag_148\n      jump\t// in\n    tag_147:\n        /* \"#utility.yul\":5629:5664   */\n    tag_146:\n        /* \"#utility.yul\":5686:5687   */\n      dup3\n        /* \"#utility.yul\":5683:5684   */\n      dup3\n        /* \"#utility.yul\":5679:5688   */\n      div\n        /* \"#utility.yul\":5674:5688   */\n      swap1\n      pop\n        /* \"#utility.yul\":5509:5694   */\n      swap3\n      swap2\n      pop\n      pop\n      jump\t// out\n        /* \"#utility.yul\":5700:6048   */\n    tag_76:\n        /* \"#utility.yul\":5740:5747   */\n      0x00\n        /* \"#utility.yul\":5763:5783   */\n      tag_150\n        /* \"#utility.yul\":5781:5782   */\n      dup3\n        /* \"#utility.yul\":5763:5783   */\n      tag_111\n      jump\t// in\n    tag_150:\n        /* \"#utility.yul\":5758:5783   */\n      swap2\n      pop\n        /* \"#utility.yul\":5797:5817   */\n      tag_151\n        /* \"#utility.yul\":5815:5816   */\n      dup4\n        /* \"#utility.yul\":5797:5817   */\n      tag_111\n      jump\t// in\n    tag_151:\n        /* \"#utility.yul\":5792:5817   */\n      swap3\n      pop\n        /* \"#utility.yul\":5985:5986   */\n      dup2\n        /* \"#utility.yul\":5917:5983   */\n      0xffffffffffffffffffffffffffffffffffffffffffffffffffffffffffffffff\n        /* \"#utility.yul\":5913:5987   */\n      div\n        /* \"#utility.yul\":5910:5911   */\n      dup4\n        /* \"#utility.yul\":5907:5988   */\n      gt\n        /* \"#utility.yul\":5902:5903   */\n      dup3\n        /* \"#utility.yul\":5895:5904   */\n      iszero\n        /* \"#utility.yul\":5888:5905   */\n      iszero\n        /* \"#utility.yul\":5884:5989   */\n      and\n        /* \"#utility.yul\":5881:6012   */\n      iszero\n      tag_152\n      jumpi\n        /* \"#utility.yul\":5992:6010   */\n      tag_153\n      tag_142\n      jump\t// in\n    tag_153:\n        /* \"#utility.yul\":5881:6012   */\n    tag_152:\n        /* \"#utility.yul\":6040:6041   */\n      dup3\n        /* \"#utility.yul\":6037:6038   */\n      dup3\n        /* \"#utility.yul\":6033:6042   */\n      mul\n        /* \"#utility.yul\":6022:6042   */\n      swap1\n      pop\n        /* \"#utility.yul\":5700:6048   */\n      swap3\n      swap2\n      pop\n      pop\n      jump\t// out\n        /* \"#utility.yul\":6054:6245   */\n    tag_26:\n        /* \"#utility.yul\":6094:6098   */\n      0x00\n        /* \"#utility.yul\":6114:6134   */\n      tag_155\n        /* \"#utility.yul\":6132:6133   */\n      dup3\n        /* \"#utility.yul\":6114:6134   */\n      tag_111\n      jump\t// in\n    tag_155:\n        /* \"#utility.yul\":6109:6134   */\n      swap2\n      pop\n        /* \"#utility.yul\":6148:6168   */\n      tag_156\n        /* \"#utility.yul\":6166:6167   */\n      dup4\n        /* \"#utility.yul\":6148:6168   */\n      tag_111\n      jump\t// in\n    tag_156:\n        /* \"#utility.yul\":6143:6168   */\n      swap3\n      pop\n        /* \"#utility.yul\":6187:6188   */\n      dup3\n        /* \"#utility.yul\":6184:6185   */\n      dup3\n        /* \"#utility.yul\":6181:6189   */\n      lt\n        /* \"#utility.yul\":6178:6212   */\n      iszero\n      tag_157\n      jumpi\n        /* \"#utility.yul\":6192:6210   */\n      tag_158\n      tag_142\n      jump\t// in\n    tag_158:\n        /* \"#utility.yul\":6178:6212   */\n    tag_157:\n        /* \"#utility.yul\":6237:6238   */\n      dup3\n        /* \"#utility.yul\":6234:6235   */\n      dup3\n        /* \"#utility.yul\":6230:6239   */\n      sub\n        /* \"#utility.yul\":6222:6239   */\n      swap1\n      pop\n        /* \"#utility.yul\":6054:6245   */\n      swap3\n      swap2\n      pop\n      pop\n      jump\t// out\n        /* \"#utility.yul\":6251:6347   */\n    tag_91:\n        /* \"#utility.yul\":6288:6295   */\n      0x00\n        /* \"#utility.yul\":6317:6341   */\n      tag_160\n        /* \"#utility.yul\":6335:6340   */\n      dup3\n        /* \"#utility.yul\":6317:6341   */\n      tag_161\n      jump\t// in\n    tag_160:\n        /* \"#utility.yul\":6306:6341   */\n      swap1\n      pop\n        /* \"#utility.yul\":6251:6347   */\n      swap2\n      swap1\n      pop\n      jump\t// out\n        /* \"#utility.yul\":6353:6479   */\n    tag_161:\n        /* \"#utility.yul\":6390:6397   */\n      0x00\n        /* \"#utility.yul\":6430:6472   */\n      0xffffffffffffffffffffffffffffffffffffffff\n        /* \"#utility.yul\":6423:6428   */\n      dup3\n        /* \"#utility.yul\":6419:6473   */\n      and\n        /* \"#utility.yul\":6408:6473   */\n      swap1\n      pop\n        /* \"#utility.yul\":6353:6479   */\n      swap2\n      swap1\n      pop\n      jump\t// out\n        /* \"#utility.yul\":6485:6562   */\n    tag_111:\n        /* \"#utility.yul\":6522:6529   */\n      0x00\n        /* \"#utility.yul\":6551:6556   */\n      dup2\n        /* \"#utility.yul\":6540:6556   */\n      swap1\n      pop\n        /* \"#utility.yul\":6485:6562   */\n      swap2\n      swap1\n      pop\n      jump\t// out\n        /* \"#utility.yul\":6568:6748   */\n    tag_142:\n        /* \"#utility.yul\":6616:6693   */\n      0x4e487b7100000000000000000000000000000000000000000000000000000000\n        /* \"#utility.yul\":6613:6614   */\n      0x00\n        /* \"#utility.yul\":6606:6694   */\n      mstore\n        /* \"#utility.yul\":6713:6717   */\n      0x11\n        /* \"#utility.yul\":6710:6711   */\n      0x04\n        /* \"#utility.yul\":6703:6718   */\n      mstore\n        /* \"#utility.yul\":6737:6741   */\n      0x24\n        /* \"#utility.yul\":6734:6735   */\n      0x00\n        /* \"#utility.yul\":6727:6742   */\n      revert\n        /* \"#utility.yul\":6754:6934   */\n    tag_148:\n        /* \"#utility.yul\":6802:6879   */\n      0x4e487b7100000000000000000000000000000000000000000000000000000000\n        /* \"#utility.yul\":6799:6800   */\n      0x00\n        /* \"#utility.yul\":6792:6880   */\n      mstore\n        /* \"#utility.yul\":6899:6903   */\n      0x12\n        /* \"#utility.yul\":6896:6897   */\n      0x04\n        /* \"#utility.yul\":6889:6904   */\n      mstore\n        /* \"#utility.yul\":6923:6927   */\n      0x24\n        /* \"#utility.yul\":6920:6921   */\n      0x00\n        /* \"#utility.yul\":6913:6928   */\n      revert\n        /* \"#utility.yul\":7063:7180   */\n    tag_86:\n        /* \"#utility.yul\":7172:7173   */\n      0x00\n        /* \"#utility.yul\":7169:7170   */\n      dup1\n        /* \"#utility.yul\":7162:7174   */\n      revert\n        /* \"#utility.yul\":7186:7354   */\n    tag_97:\n        /* \"#utility.yul\":7326:7346   */\n      0x41756374696f6e20697320657870697265640000000000000000000000000000\n        /* \"#utility.yul\":7322:7323   */\n      0x00\n        /* \"#utility.yul\":7314:7320   */\n      dup3\n        /* \"#utility.yul\":7310:7324   */\n      add\n        /* \"#utility.yul\":7303:7347   */\n      mstore\n        /* \"#utility.yul\":7186:7354   */\n      pop\n      jump\t// out\n        /* \"#utility.yul\":7360:7585   */\n    tag_102:\n        /* \"#utility.yul\":7500:7534   */\n      0x596f7572207072696365206973206c6f776572207468616e2063757272656e74\n        /* \"#utility.yul\":7496:7497   */\n      0x00\n        /* \"#utility.yul\":7488:7494   */\n      dup3\n        /* \"#utility.yul\":7484:7498   */\n      add\n        /* \"#utility.yul\":7477:7535   */\n      mstore\n        /* \"#utility.yul\":7569:7577   */\n      0x5069726365210000000000000000000000000000000000000000000000000000\n        /* \"#utility.yul\":7564:7566   */\n      0x20\n        /* \"#utility.yul\":7556:7562   */\n      dup3\n        /* \"#utility.yul\":7552:7567   */\n      add\n        /* \"#utility.yul\":7545:7578   */\n      mstore\n        /* \"#utility.yul\":7360:7585   */\n      pop\n      jump\t// out\n        /* \"#utility.yul\":7591:7765   */\n    tag_107:\n        /* \"#utility.yul\":7731:7757   */\n      0x4e46542068617320626f75676874206279206f74686572730000000000000000\n        /* \"#utility.yul\":7727:7728   */\n      0x00\n        /* \"#utility.yul\":7719:7725   */\n      dup3\n        /* \"#utility.yul\":7715:7729   */\n      add\n        /* \"#utility.yul\":7708:7758   */\n      mstore\n        /* \"#utility.yul\":7591:7765   */\n      pop\n      jump\t// out\n        /* \"#utility.yul\":7771:7893   */\n    tag_82:\n        /* \"#utility.yul\":7844:7868   */\n      tag_173\n        /* \"#utility.yul\":7862:7867   */\n      dup2\n        /* \"#utility.yul\":7844:7868   */\n      tag_91\n      jump\t// in\n    tag_173:\n        /* \"#utility.yul\":7837:7842   */\n      dup2\n        /* \"#utility.yul\":7834:7869   */\n      eq\n        /* \"#utility.yul\":7824:7887   */\n      tag_174\n      jumpi\n        /* \"#utility.yul\":7883:7884   */\n      0x00\n        /* \"#utility.yul\":7880:7881   */\n      dup1\n        /* \"#utility.yul\":7873:7885   */\n      revert\n        /* \"#utility.yul\":7824:7887   */\n    tag_174:\n        /* \"#utility.yul\":7771:7893   */\n      pop\n      jump\t// out\n\n    auxdata: 0xa26469706673582212208d2f1470f417fc060479a6f5e5858bf82c31c74186a50017231e22cec3284fce64736f6c63430008070033\n}\n",
				"bytecode": {
					"linkReferences": {},
					"object": "60806040523480156200001157600080fd5b5060405162000e5038038062000e50833981810160405281019062000037919062000151565b846000800181905550836000600101819055504260006002018190555061177060006003018190555081600060080160006101000a81548173ffffffffffffffffffffffffffffffffffffffff021916908373ffffffffffffffffffffffffffffffffffffffff16021790555080600060070160006101000a81548173ffffffffffffffffffffffffffffffffffffffff021916908373ffffffffffffffffffffffffffffffffffffffff1602179055508260006004018190555042600060020154620001059190620001d9565b600060060181905550426000600501819055505050505050620002dc565b6000815190506200013481620002a8565b92915050565b6000815190506200014b81620002c2565b92915050565b600080600080600060a0868803121562000170576200016f620002a3565b5b600062000180888289016200013a565b955050602062000193888289016200013a565b9450506040620001a6888289016200013a565b9350506060620001b98882890162000123565b9250506080620001cc8882890162000123565b9150509295509295909350565b6000620001e6826200026a565b9150620001f3836200026a565b9250827fffffffffffffffffffffffffffffffffffffffffffffffffffffffffffffffff038211156200022b576200022a62000274565b5b828201905092915050565b600062000243826200024a565b9050919050565b600073ffffffffffffffffffffffffffffffffffffffff82169050919050565b6000819050919050565b7f4e487b7100000000000000000000000000000000000000000000000000000000600052601160045260246000fd5b600080fd5b620002b38162000236565b8114620002bf57600080fd5b50565b620002cd816200026a565b8114620002d957600080fd5b50565b610b6480620002ec6000396000f3fe60806040526004361061003f5760003560e01c8063590e1ae3146100445780637d9f6db51461004e578063a6f2ae3a14610081578063eb91d37e1461009f575b600080fd5b61004c6100ca565b005b34801561005a57600080fd5b50610063610135565b60405161007899989796959493929190610824565b60405180910390f35b6100896101b1565b6040516100969190610809565b60405180910390f35b3480156100ab57600080fd5b506100b46105c6565b6040516100c19190610809565b60405180910390f35b6100d26105c6565b341115610133573373ffffffffffffffffffffffffffffffffffffffff166108fc6100fb6105c6565b3461010691906109a3565b9081150290604051600060405180830381858888f19350505050158015610131573d6000803e3d6000fd5b505b565b60008060000154908060010154908060020154908060030154908060040154908060050154908060060154908060070160009054906101000a900473ffffffffffffffffffffffffffffffffffffffff16908060080160009054906101000a900473ffffffffffffffffffffffffffffffffffffffff16905089565b600080600301546000600201546101c891906108c2565b42111561020a576040517f08c379a0000000000000000000000000000000000000000000000000000000008152600401610201906107a9565b60405180910390fd5b600060070160009054906101000a900473ffffffffffffffffffffffffffffffffffffffff1673ffffffffffffffffffffffffffffffffffffffff16600060080160009054906101000a900473ffffffffffffffffffffffffffffffffffffffff1673ffffffffffffffffffffffffffffffffffffffff16636352211e6000600401546040518263ffffffff1660e01b81526004016102a99190610809565b60206040518083038186803b1580156102c157600080fd5b505afa1580156102d5573d6000803e3d6000fd5b505050506040513d601f19601f820116820180604052508101906102f991906106be565b73ffffffffffffffffffffffffffffffffffffffff161461034f576040517f08c379a0000000000000000000000000000000000000000000000000000000008152600401610346906107e9565b60405180910390fd5b6103576105c6565b341015610399576040517f08c379a0000000000000000000000000000000000000000000000000000000008152600401610390906107c9565b60405180910390fd5b600060080160009054906101000a900473ffffffffffffffffffffffffffffffffffffffff1673ffffffffffffffffffffffffffffffffffffffff166342842e0e600060070160009054906101000a900473ffffffffffffffffffffffffffffffffffffffff16336000600401546040518463ffffffff1660e01b815260040161042593929190610772565b600060405180830381600087803b15801561043f57600080fd5b505af1158015610453573d6000803e3d6000fd5b505050503373ffffffffffffffffffffffffffffffffffffffff16600060080160009054906101000a900473ffffffffffffffffffffffffffffffffffffffff1673ffffffffffffffffffffffffffffffffffffffff16636352211e6000600401546040518263ffffffff1660e01b81526004016104d19190610809565b60206040518083038186803b1580156104e957600080fd5b505afa1580156104fd573d6000803e3d6000fd5b505050506040513d601f19601f8201168201806040525081019061052191906106be565b73ffffffffffffffffffffffffffffffffffffffff1614156105bf57600060070160009054906101000a900473ffffffffffffffffffffffffffffffffffffffff1673ffffffffffffffffffffffffffffffffffffffff166108fc6105846105c6565b9081150290604051600060405180830381858888f193505050501580156105af573d6000803e3d6000fd5b506105b86105c6565b90506105c3565b3490505b90565b600080600301546000600201546105dd91906108c2565b42111561061f576040517f08c379a0000000000000000000000000000000000000000000000000000000008152600401610616906107a9565b60405180910390fd5b60008060030154600060010154600080015461063b91906109a3565b6106459190610918565b905060006003015460006002015461065d91906108c2565b4210610671576000600101549150506106a6565b6000816000600201544261068591906109a3565b61068f9190610949565b600080015461069e91906109a3565b905080925050505b90565b6000815190506106b881610b17565b92915050565b6000602082840312156106d4576106d3610a71565b5b60006106e2848285016106a9565b91505092915050565b6106f4816109d7565b82525050565b60006107076012836108b1565b915061071282610a76565b602082019050919050565b600061072a6026836108b1565b915061073582610a9f565b604082019050919050565b600061074d6018836108b1565b915061075882610aee565b602082019050919050565b61076c81610a09565b82525050565b600060608201905061078760008301866106eb565b61079460208301856106eb565b6107a16040830184610763565b949350505050565b600060208201905081810360008301526107c2816106fa565b9050919050565b600060208201905081810360008301526107e28161071d565b9050919050565b6000602082019050818103600083015261080281610740565b9050919050565b600060208201905061081e6000830184610763565b92915050565b60006101208201905061083a600083018c610763565b610847602083018b610763565b610854604083018a610763565b6108616060830189610763565b61086e6080830188610763565b61087b60a0830187610763565b61088860c0830186610763565b61089560e08301856106eb565b6108a36101008301846106eb565b9a9950505050505050505050565b600082825260208201905092915050565b60006108cd82610a09565b91506108d883610a09565b9250827fffffffffffffffffffffffffffffffffffffffffffffffffffffffffffffffff0382111561090d5761090c610a13565b5b828201905092915050565b600061092382610a09565b915061092e83610a09565b92508261093e5761093d610a42565b5b828204905092915050565b600061095482610a09565b915061095f83610a09565b9250817fffffffffffffffffffffffffffffffffffffffffffffffffffffffffffffffff048311821515161561099857610997610a13565b5b828202905092915050565b60006109ae82610a09565b91506109b983610a09565b9250828210156109cc576109cb610a13565b5b828203905092915050565b60006109e2826109e9565b9050919050565b600073ffffffffffffffffffffffffffffffffffffffff82169050919050565b6000819050919050565b7f4e487b7100000000000000000000000000000000000000000000000000000000600052601160045260246000fd5b7f4e487b7100000000000000000000000000000000000000000000000000000000600052601260045260246000fd5b600080fd5b7f41756374696f6e20697320657870697265640000000000000000000000000000600082015250565b7f596f7572207072696365206973206c6f776572207468616e2063757272656e7460008201527f5069726365210000000000000000000000000000000000000000000000000000602082015250565b7f4e46542068617320626f75676874206279206f74686572730000000000000000600082015250565b610b20816109d7565b8114610b2b57600080fd5b5056fea26469706673582212208d2f1470f417fc060479a6f5e5858bf82c31c74186a50017231e22cec3284fce64736f6c63430008070033",
					"opcodes": "PUSH1 0x80 PUSH1 0x40 MSTORE CALLVALUE DUP1 ISZERO PUSH3 0x11 JUMPI PUSH1 0x0 DUP1 REVERT JUMPDEST POP PUSH1 0x40 MLOAD PUSH3 0xE50 CODESIZE SUB DUP1 PUSH3 0xE50 DUP4 CODECOPY DUP2 DUP2 ADD PUSH1 0x40 MSTORE DUP2 ADD SWAP1 PUSH3 0x37 SWAP2 SWAP1 PUSH3 0x151 JUMP JUMPDEST DUP5 PUSH1 0x0 DUP1 ADD DUP2 SWAP1 SSTORE POP DUP4 PUSH1 0x0 PUSH1 0x1 ADD DUP2 SWAP1 SSTORE POP TIMESTAMP PUSH1 0x0 PUSH1 0x2 ADD DUP2 SWAP1 SSTORE POP PUSH2 0x1770 PUSH1 0x0 PUSH1 0x3 ADD DUP2 SWAP1 SSTORE POP DUP2 PUSH1 0x0 PUSH1 0x8 ADD PUSH1 0x0 PUSH2 0x100 EXP DUP2 SLOAD DUP2 PUSH20 0xFFFFFFFFFFFFFFFFFFFFFFFFFFFFFFFFFFFFFFFF MUL NOT AND SWAP1 DUP4 PUSH20 0xFFFFFFFFFFFFFFFFFFFFFFFFFFFFFFFFFFFFFFFF AND MUL OR SWAP1 SSTORE POP DUP1 PUSH1 0x0 PUSH1 0x7 ADD PUSH1 0x0 PUSH2 0x100 EXP DUP2 SLOAD DUP2 PUSH20 0xFFFFFFFFFFFFFFFFFFFFFFFFFFFFFFFFFFFFFFFF MUL NOT AND SWAP1 DUP4 PUSH20 0xFFFFFFFFFFFFFFFFFFFFFFFFFFFFFFFFFFFFFFFF AND MUL OR SWAP1 SSTORE POP DUP3 PUSH1 0x0 PUSH1 0x4 ADD DUP2 SWAP1 SSTORE POP TIMESTAMP PUSH1 0x0 PUSH1 0x2 ADD SLOAD PUSH3 0x105 SWAP2 SWAP1 PUSH3 0x1D9 JUMP JUMPDEST PUSH1 0x0 PUSH1 0x6 ADD DUP2 SWAP1 SSTORE POP TIMESTAMP PUSH1 0x0 PUSH1 0x5 ADD DUP2 SWAP1 SSTORE POP POP POP POP POP POP PUSH3 0x2DC JUMP JUMPDEST PUSH1 0x0 DUP2 MLOAD SWAP1 POP PUSH3 0x134 DUP2 PUSH3 0x2A8 JUMP JUMPDEST SWAP3 SWAP2 POP POP JUMP JUMPDEST PUSH1 0x0 DUP2 MLOAD SWAP1 POP PUSH3 0x14B DUP2 PUSH3 0x2C2 JUMP JUMPDEST SWAP3 SWAP2 POP POP JUMP JUMPDEST PUSH1 0x0 DUP1 PUSH1 0x0 DUP1 PUSH1 0x0 PUSH1 0xA0 DUP7 DUP9 SUB SLT ISZERO PUSH3 0x170 JUMPI PUSH3 0x16F PUSH3 0x2A3 JUMP JUMPDEST JUMPDEST PUSH1 0x0 PUSH3 0x180 DUP9 DUP3 DUP10 ADD PUSH3 0x13A JUMP JUMPDEST SWAP6 POP POP PUSH1 0x20 PUSH3 0x193 DUP9 DUP3 DUP10 ADD PUSH3 0x13A JUMP JUMPDEST SWAP5 POP POP PUSH1 0x40 PUSH3 0x1A6 DUP9 DUP3 DUP10 ADD PUSH3 0x13A JUMP JUMPDEST SWAP4 POP POP PUSH1 0x60 PUSH3 0x1B9 DUP9 DUP3 DUP10 ADD PUSH3 0x123 JUMP JUMPDEST SWAP3 POP POP PUSH1 0x80 PUSH3 0x1CC DUP9 DUP3 DUP10 ADD PUSH3 0x123 JUMP JUMPDEST SWAP2 POP POP SWAP3 SWAP6 POP SWAP3 SWAP6 SWAP1 SWAP4 POP JUMP JUMPDEST PUSH1 0x0 PUSH3 0x1E6 DUP3 PUSH3 0x26A JUMP JUMPDEST SWAP2 POP PUSH3 0x1F3 DUP4 PUSH3 0x26A JUMP JUMPDEST SWAP3 POP DUP3 PUSH32 0xFFFFFFFFFFFFFFFFFFFFFFFFFFFFFFFFFFFFFFFFFFFFFFFFFFFFFFFFFFFFFFFF SUB DUP3 GT ISZERO PUSH3 0x22B JUMPI PUSH3 0x22A PUSH3 0x274 JUMP JUMPDEST JUMPDEST DUP3 DUP3 ADD SWAP1 POP SWAP3 SWAP2 POP POP JUMP JUMPDEST PUSH1 0x0 PUSH3 0x243 DUP3 PUSH3 0x24A JUMP JUMPDEST SWAP1 POP SWAP2 SWAP1 POP JUMP JUMPDEST PUSH1 0x0 PUSH20 0xFFFFFFFFFFFFFFFFFFFFFFFFFFFFFFFFFFFFFFFF DUP3 AND SWAP1 POP SWAP2 SWAP1 POP JUMP JUMPDEST PUSH1 0x0 DUP2 SWAP1 POP SWAP2 SWAP1 POP JUMP JUMPDEST PUSH32 0x4E487B7100000000000000000000000000000000000000000000000000000000 PUSH1 0x0 MSTORE PUSH1 0x11 PUSH1 0x4 MSTORE PUSH1 0x24 PUSH1 0x0 REVERT JUMPDEST PUSH1 0x0 DUP1 REVERT JUMPDEST PUSH3 0x2B3 DUP2 PUSH3 0x236 JUMP JUMPDEST DUP2 EQ PUSH3 0x2BF JUMPI PUSH1 0x0 DUP1 REVERT JUMPDEST POP JUMP JUMPDEST PUSH3 0x2CD DUP2 PUSH3 0x26A JUMP JUMPDEST DUP2 EQ PUSH3 0x2D9 JUMPI PUSH1 0x0 DUP1 REVERT JUMPDEST POP JUMP JUMPDEST PUSH2 0xB64 DUP1 PUSH3 0x2EC PUSH1 0x0 CODECOPY PUSH1 0x0 RETURN INVALID PUSH1 0x80 PUSH1 0x40 MSTORE PUSH1 0x4 CALLDATASIZE LT PUSH2 0x3F JUMPI PUSH1 0x0 CALLDATALOAD PUSH1 0xE0 SHR DUP1 PUSH4 0x590E1AE3 EQ PUSH2 0x44 JUMPI DUP1 PUSH4 0x7D9F6DB5 EQ PUSH2 0x4E JUMPI DUP1 PUSH4 0xA6F2AE3A EQ PUSH2 0x81 JUMPI DUP1 PUSH4 0xEB91D37E EQ PUSH2 0x9F JUMPI JUMPDEST PUSH1 0x0 DUP1 REVERT JUMPDEST PUSH2 0x4C PUSH2 0xCA JUMP JUMPDEST STOP JUMPDEST CALLVALUE DUP1 ISZERO PUSH2 0x5A JUMPI PUSH1 0x0 DUP1 REVERT JUMPDEST POP PUSH2 0x63 PUSH2 0x135 JUMP JUMPDEST PUSH1 0x40 MLOAD PUSH2 0x78 SWAP10 SWAP9 SWAP8 SWAP7 SWAP6 SWAP5 SWAP4 SWAP3 SWAP2 SWAP1 PUSH2 0x824 JUMP JUMPDEST PUSH1 0x40 MLOAD DUP1 SWAP2 SUB SWAP1 RETURN JUMPDEST PUSH2 0x89 PUSH2 0x1B1 JUMP JUMPDEST PUSH1 0x40 MLOAD PUSH2 0x96 SWAP2 SWAP1 PUSH2 0x809 JUMP JUMPDEST PUSH1 0x40 MLOAD DUP1 SWAP2 SUB SWAP1 RETURN JUMPDEST CALLVALUE DUP1 ISZERO PUSH2 0xAB JUMPI PUSH1 0x0 DUP1 REVERT JUMPDEST POP PUSH2 0xB4 PUSH2 0x5C6 JUMP JUMPDEST PUSH1 0x40 MLOAD PUSH2 0xC1 SWAP2 SWAP1 PUSH2 0x809 JUMP JUMPDEST PUSH1 0x40 MLOAD DUP1 SWAP2 SUB SWAP1 RETURN JUMPDEST PUSH2 0xD2 PUSH2 0x5C6 JUMP JUMPDEST CALLVALUE GT ISZERO PUSH2 0x133 JUMPI CALLER PUSH20 0xFFFFFFFFFFFFFFFFFFFFFFFFFFFFFFFFFFFFFFFF AND PUSH2 0x8FC PUSH2 0xFB PUSH2 0x5C6 JUMP JUMPDEST CALLVALUE PUSH2 0x106 SWAP2 SWAP1 PUSH2 0x9A3 JUMP JUMPDEST SWAP1 DUP2 ISZERO MUL SWAP1 PUSH1 0x40 MLOAD PUSH1 0x0 PUSH1 0x40 MLOAD DUP1 DUP4 SUB DUP2 DUP6 DUP9 DUP9 CALL SWAP4 POP POP POP POP ISZERO DUP1 ISZERO PUSH2 0x131 JUMPI RETURNDATASIZE PUSH1 0x0 DUP1 RETURNDATACOPY RETURNDATASIZE PUSH1 0x0 REVERT JUMPDEST POP JUMPDEST JUMP JUMPDEST PUSH1 0x0 DUP1 PUSH1 0x0 ADD SLOAD SWAP1 DUP1 PUSH1 0x1 ADD SLOAD SWAP1 DUP1 PUSH1 0x2 ADD SLOAD SWAP1 DUP1 PUSH1 0x3 ADD SLOAD SWAP1 DUP1 PUSH1 0x4 ADD SLOAD SWAP1 DUP1 PUSH1 0x5 ADD SLOAD SWAP1 DUP1 PUSH1 0x6 ADD SLOAD SWAP1 DUP1 PUSH1 0x7 ADD PUSH1 0x0 SWAP1 SLOAD SWAP1 PUSH2 0x100 EXP SWAP1 DIV PUSH20 0xFFFFFFFFFFFFFFFFFFFFFFFFFFFFFFFFFFFFFFFF AND SWAP1 DUP1 PUSH1 0x8 ADD PUSH1 0x0 SWAP1 SLOAD SWAP1 PUSH2 0x100 EXP SWAP1 DIV PUSH20 0xFFFFFFFFFFFFFFFFFFFFFFFFFFFFFFFFFFFFFFFF AND SWAP1 POP DUP10 JUMP JUMPDEST PUSH1 0x0 DUP1 PUSH1 0x3 ADD SLOAD PUSH1 0x0 PUSH1 0x2 ADD SLOAD PUSH2 0x1C8 SWAP2 SWAP1 PUSH2 0x8C2 JUMP JUMPDEST TIMESTAMP GT ISZERO PUSH2 0x20A JUMPI PUSH1 0x40 MLOAD PUSH32 0x8C379A000000000000000000000000000000000000000000000000000000000 DUP2 MSTORE PUSH1 0x4 ADD PUSH2 0x201 SWAP1 PUSH2 0x7A9 JUMP JUMPDEST PUSH1 0x40 MLOAD DUP1 SWAP2 SUB SWAP1 REVERT JUMPDEST PUSH1 0x0 PUSH1 0x7 ADD PUSH1 0x0 SWAP1 SLOAD SWAP1 PUSH2 0x100 EXP SWAP1 DIV PUSH20 0xFFFFFFFFFFFFFFFFFFFFFFFFFFFFFFFFFFFFFFFF AND PUSH20 0xFFFFFFFFFFFFFFFFFFFFFFFFFFFFFFFFFFFFFFFF AND PUSH1 0x0 PUSH1 0x8 ADD PUSH1 0x0 SWAP1 SLOAD SWAP1 PUSH2 0x100 EXP SWAP1 DIV PUSH20 0xFFFFFFFFFFFFFFFFFFFFFFFFFFFFFFFFFFFFFFFF AND PUSH20 0xFFFFFFFFFFFFFFFFFFFFFFFFFFFFFFFFFFFFFFFF AND PUSH4 0x6352211E PUSH1 0x0 PUSH1 0x4 ADD SLOAD PUSH1 0x40 MLOAD DUP3 PUSH4 0xFFFFFFFF AND PUSH1 0xE0 SHL DUP2 MSTORE PUSH1 0x4 ADD PUSH2 0x2A9 SWAP2 SWAP1 PUSH2 0x809 JUMP JUMPDEST PUSH1 0x20 PUSH1 0x40 MLOAD DUP1 DUP4 SUB DUP2 DUP7 DUP1 EXTCODESIZE ISZERO DUP1 ISZERO PUSH2 0x2C1 JUMPI PUSH1 0x0 DUP1 REVERT JUMPDEST POP GAS STATICCALL ISZERO DUP1 ISZERO PUSH2 0x2D5 JUMPI RETURNDATASIZE PUSH1 0x0 DUP1 RETURNDATACOPY RETURNDATASIZE PUSH1 0x0 REVERT JUMPDEST POP POP POP POP PUSH1 0x40 MLOAD RETURNDATASIZE PUSH1 0x1F NOT PUSH1 0x1F DUP3 ADD AND DUP3 ADD DUP1 PUSH1 0x40 MSTORE POP DUP2 ADD SWAP1 PUSH2 0x2F9 SWAP2 SWAP1 PUSH2 0x6BE JUMP JUMPDEST PUSH20 0xFFFFFFFFFFFFFFFFFFFFFFFFFFFFFFFFFFFFFFFF AND EQ PUSH2 0x34F JUMPI PUSH1 0x40 MLOAD PUSH32 0x8C379A000000000000000000000000000000000000000000000000000000000 DUP2 MSTORE PUSH1 0x4 ADD PUSH2 0x346 SWAP1 PUSH2 0x7E9 JUMP JUMPDEST PUSH1 0x40 MLOAD DUP1 SWAP2 SUB SWAP1 REVERT JUMPDEST PUSH2 0x357 PUSH2 0x5C6 JUMP JUMPDEST CALLVALUE LT ISZERO PUSH2 0x399 JUMPI PUSH1 0x40 MLOAD PUSH32 0x8C379A000000000000000000000000000000000000000000000000000000000 DUP2 MSTORE PUSH1 0x4 ADD PUSH2 0x390 SWAP1 PUSH2 0x7C9 JUMP JUMPDEST PUSH1 0x40 MLOAD DUP1 SWAP2 SUB SWAP1 REVERT JUMPDEST PUSH1 0x0 PUSH1 0x8 ADD PUSH1 0x0 SWAP1 SLOAD SWAP1 PUSH2 0x100 EXP SWAP1 DIV PUSH20 0xFFFFFFFFFFFFFFFFFFFFFFFFFFFFFFFFFFFFFFFF AND PUSH20 0xFFFFFFFFFFFFFFFFFFFFFFFFFFFFFFFFFFFFFFFF AND PUSH4 0x42842E0E PUSH1 0x0 PUSH1 0x7 ADD PUSH1 0x0 SWAP1 SLOAD SWAP1 PUSH2 0x100 EXP SWAP1 DIV PUSH20 0xFFFFFFFFFFFFFFFFFFFFFFFFFFFFFFFFFFFFFFFF AND CALLER PUSH1 0x0 PUSH1 0x4 ADD SLOAD PUSH1 0x40 MLOAD DUP5 PUSH4 0xFFFFFFFF AND PUSH1 0xE0 SHL DUP2 MSTORE PUSH1 0x4 ADD PUSH2 0x425 SWAP4 SWAP3 SWAP2 SWAP1 PUSH2 0x772 JUMP JUMPDEST PUSH1 0x0 PUSH1 0x40 MLOAD DUP1 DUP4 SUB DUP2 PUSH1 0x0 DUP8 DUP1 EXTCODESIZE ISZERO DUP1 ISZERO PUSH2 0x43F JUMPI PUSH1 0x0 DUP1 REVERT JUMPDEST POP GAS CALL ISZERO DUP1 ISZERO PUSH2 0x453 JUMPI RETURNDATASIZE PUSH1 0x0 DUP1 RETURNDATACOPY RETURNDATASIZE PUSH1 0x0 REVERT JUMPDEST POP POP POP POP CALLER PUSH20 0xFFFFFFFFFFFFFFFFFFFFFFFFFFFFFFFFFFFFFFFF AND PUSH1 0x0 PUSH1 0x8 ADD PUSH1 0x0 SWAP1 SLOAD SWAP1 PUSH2 0x100 EXP SWAP1 DIV PUSH20 0xFFFFFFFFFFFFFFFFFFFFFFFFFFFFFFFFFFFFFFFF AND PUSH20 0xFFFFFFFFFFFFFFFFFFFFFFFFFFFFFFFFFFFFFFFF AND PUSH4 0x6352211E PUSH1 0x0 PUSH1 0x4 ADD SLOAD PUSH1 0x40 MLOAD DUP3 PUSH4 0xFFFFFFFF AND PUSH1 0xE0 SHL DUP2 MSTORE PUSH1 0x4 ADD PUSH2 0x4D1 SWAP2 SWAP1 PUSH2 0x809 JUMP JUMPDEST PUSH1 0x20 PUSH1 0x40 MLOAD DUP1 DUP4 SUB DUP2 DUP7 DUP1 EXTCODESIZE ISZERO DUP1 ISZERO PUSH2 0x4E9 JUMPI PUSH1 0x0 DUP1 REVERT JUMPDEST POP GAS STATICCALL ISZERO DUP1 ISZERO PUSH2 0x4FD JUMPI RETURNDATASIZE PUSH1 0x0 DUP1 RETURNDATACOPY RETURNDATASIZE PUSH1 0x0 REVERT JUMPDEST POP POP POP POP PUSH1 0x40 MLOAD RETURNDATASIZE PUSH1 0x1F NOT PUSH1 0x1F DUP3 ADD AND DUP3 ADD DUP1 PUSH1 0x40 MSTORE POP DUP2 ADD SWAP1 PUSH2 0x521 SWAP2 SWAP1 PUSH2 0x6BE JUMP JUMPDEST PUSH20 0xFFFFFFFFFFFFFFFFFFFFFFFFFFFFFFFFFFFFFFFF AND EQ ISZERO PUSH2 0x5BF JUMPI PUSH1 0x0 PUSH1 0x7 ADD PUSH1 0x0 SWAP1 SLOAD SWAP1 PUSH2 0x100 EXP SWAP1 DIV PUSH20 0xFFFFFFFFFFFFFFFFFFFFFFFFFFFFFFFFFFFFFFFF AND PUSH20 0xFFFFFFFFFFFFFFFFFFFFFFFFFFFFFFFFFFFFFFFF AND PUSH2 0x8FC PUSH2 0x584 PUSH2 0x5C6 JUMP JUMPDEST SWAP1 DUP2 ISZERO MUL SWAP1 PUSH1 0x40 MLOAD PUSH1 0x0 PUSH1 0x40 MLOAD DUP1 DUP4 SUB DUP2 DUP6 DUP9 DUP9 CALL SWAP4 POP POP POP POP ISZERO DUP1 ISZERO PUSH2 0x5AF JUMPI RETURNDATASIZE PUSH1 0x0 DUP1 RETURNDATACOPY RETURNDATASIZE PUSH1 0x0 REVERT JUMPDEST POP PUSH2 0x5B8 PUSH2 0x5C6 JUMP JUMPDEST SWAP1 POP PUSH2 0x5C3 JUMP JUMPDEST CALLVALUE SWAP1 POP JUMPDEST SWAP1 JUMP JUMPDEST PUSH1 0x0 DUP1 PUSH1 0x3 ADD SLOAD PUSH1 0x0 PUSH1 0x2 ADD SLOAD PUSH2 0x5DD SWAP2 SWAP1 PUSH2 0x8C2 JUMP JUMPDEST TIMESTAMP GT ISZERO PUSH2 0x61F JUMPI PUSH1 0x40 MLOAD PUSH32 0x8C379A000000000000000000000000000000000000000000000000000000000 DUP2 MSTORE PUSH1 0x4 ADD PUSH2 0x616 SWAP1 PUSH2 0x7A9 JUMP JUMPDEST PUSH1 0x40 MLOAD DUP1 SWAP2 SUB SWAP1 REVERT JUMPDEST PUSH1 0x0 DUP1 PUSH1 0x3 ADD SLOAD PUSH1 0x0 PUSH1 0x1 ADD SLOAD PUSH1 0x0 DUP1 ADD SLOAD PUSH2 0x63B SWAP2 SWAP1 PUSH2 0x9A3 JUMP JUMPDEST PUSH2 0x645 SWAP2 SWAP1 PUSH2 0x918 JUMP JUMPDEST SWAP1 POP PUSH1 0x0 PUSH1 0x3 ADD SLOAD PUSH1 0x0 PUSH1 0x2 ADD SLOAD PUSH2 0x65D SWAP2 SWAP1 PUSH2 0x8C2 JUMP JUMPDEST TIMESTAMP LT PUSH2 0x671 JUMPI PUSH1 0x0 PUSH1 0x1 ADD SLOAD SWAP2 POP POP PUSH2 0x6A6 JUMP JUMPDEST PUSH1 0x0 DUP2 PUSH1 0x0 PUSH1 0x2 ADD SLOAD TIMESTAMP PUSH2 0x685 SWAP2 SWAP1 PUSH2 0x9A3 JUMP JUMPDEST PUSH2 0x68F SWAP2 SWAP1 PUSH2 0x949 JUMP JUMPDEST PUSH1 0x0 DUP1 ADD SLOAD PUSH2 0x69E SWAP2 SWAP1 PUSH2 0x9A3 JUMP JUMPDEST SWAP1 POP DUP1 SWAP3 POP POP POP JUMPDEST SWAP1 JUMP JUMPDEST PUSH1 0x0 DUP2 MLOAD SWAP1 POP PUSH2 0x6B8 DUP2 PUSH2 0xB17 JUMP JUMPDEST SWAP3 SWAP2 POP POP JUMP JUMPDEST PUSH1 0x0 PUSH1 0x20 DUP3 DUP5 SUB SLT ISZERO PUSH2 0x6D4 JUMPI PUSH2 0x6D3 PUSH2 0xA71 JUMP JUMPDEST JUMPDEST PUSH1 0x0 PUSH2 0x6E2 DUP5 DUP3 DUP6 ADD PUSH2 0x6A9 JUMP JUMPDEST SWAP2 POP POP SWAP3 SWAP2 POP POP JUMP JUMPDEST PUSH2 0x6F4 DUP2 PUSH2 0x9D7 JUMP JUMPDEST DUP3 MSTORE POP POP JUMP JUMPDEST PUSH1 0x0 PUSH2 0x707 PUSH1 0x12 DUP4 PUSH2 0x8B1 JUMP JUMPDEST SWAP2 POP PUSH2 0x712 DUP3 PUSH2 0xA76 JUMP JUMPDEST PUSH1 0x20 DUP3 ADD SWAP1 POP SWAP2 SWAP1 POP JUMP JUMPDEST PUSH1 0x0 PUSH2 0x72A PUSH1 0x26 DUP4 PUSH2 0x8B1 JUMP JUMPDEST SWAP2 POP PUSH2 0x735 DUP3 PUSH2 0xA9F JUMP JUMPDEST PUSH1 0x40 DUP3 ADD SWAP1 POP SWAP2 SWAP1 POP JUMP JUMPDEST PUSH1 0x0 PUSH2 0x74D PUSH1 0x18 DUP4 PUSH2 0x8B1 JUMP JUMPDEST SWAP2 POP PUSH2 0x758 DUP3 PUSH2 0xAEE JUMP JUMPDEST PUSH1 0x20 DUP3 ADD SWAP1 POP SWAP2 SWAP1 POP JUMP JUMPDEST PUSH2 0x76C DUP2 PUSH2 0xA09 JUMP JUMPDEST DUP3 MSTORE POP POP JUMP JUMPDEST PUSH1 0x0 PUSH1 0x60 DUP3 ADD SWAP1 POP PUSH2 0x787 PUSH1 0x0 DUP4 ADD DUP7 PUSH2 0x6EB JUMP JUMPDEST PUSH2 0x794 PUSH1 0x20 DUP4 ADD DUP6 PUSH2 0x6EB JUMP JUMPDEST PUSH2 0x7A1 PUSH1 0x40 DUP4 ADD DUP5 PUSH2 0x763 JUMP JUMPDEST SWAP5 SWAP4 POP POP POP POP JUMP JUMPDEST PUSH1 0x0 PUSH1 0x20 DUP3 ADD SWAP1 POP DUP2 DUP2 SUB PUSH1 0x0 DUP4 ADD MSTORE PUSH2 0x7C2 DUP2 PUSH2 0x6FA JUMP JUMPDEST SWAP1 POP SWAP2 SWAP1 POP JUMP JUMPDEST PUSH1 0x0 PUSH1 0x20 DUP3 ADD SWAP1 POP DUP2 DUP2 SUB PUSH1 0x0 DUP4 ADD MSTORE PUSH2 0x7E2 DUP2 PUSH2 0x71D JUMP JUMPDEST SWAP1 POP SWAP2 SWAP1 POP JUMP JUMPDEST PUSH1 0x0 PUSH1 0x20 DUP3 ADD SWAP1 POP DUP2 DUP2 SUB PUSH1 0x0 DUP4 ADD MSTORE PUSH2 0x802 DUP2 PUSH2 0x740 JUMP JUMPDEST SWAP1 POP SWAP2 SWAP1 POP JUMP JUMPDEST PUSH1 0x0 PUSH1 0x20 DUP3 ADD SWAP1 POP PUSH2 0x81E PUSH1 0x0 DUP4 ADD DUP5 PUSH2 0x763 JUMP JUMPDEST SWAP3 SWAP2 POP POP JUMP JUMPDEST PUSH1 0x0 PUSH2 0x120 DUP3 ADD SWAP1 POP PUSH2 0x83A PUSH1 0x0 DUP4 ADD DUP13 PUSH2 0x763 JUMP JUMPDEST PUSH2 0x847 PUSH1 0x20 DUP4 ADD DUP12 PUSH2 0x763 JUMP JUMPDEST PUSH2 0x854 PUSH1 0x40 DUP4 ADD DUP11 PUSH2 0x763 JUMP JUMPDEST PUSH2 0x861 PUSH1 0x60 DUP4 ADD DUP10 PUSH2 0x763 JUMP JUMPDEST PUSH2 0x86E PUSH1 0x80 DUP4 ADD DUP9 PUSH2 0x763 JUMP JUMPDEST PUSH2 0x87B PUSH1 0xA0 DUP4 ADD DUP8 PUSH2 0x763 JUMP JUMPDEST PUSH2 0x888 PUSH1 0xC0 DUP4 ADD DUP7 PUSH2 0x763 JUMP JUMPDEST PUSH2 0x895 PUSH1 0xE0 DUP4 ADD DUP6 PUSH2 0x6EB JUMP JUMPDEST PUSH2 0x8A3 PUSH2 0x100 DUP4 ADD DUP5 PUSH2 0x6EB JUMP JUMPDEST SWAP11 SWAP10 POP POP POP POP POP POP POP POP POP POP JUMP JUMPDEST PUSH1 0x0 DUP3 DUP3 MSTORE PUSH1 0x20 DUP3 ADD SWAP1 POP SWAP3 SWAP2 POP POP JUMP JUMPDEST PUSH1 0x0 PUSH2 0x8CD DUP3 PUSH2 0xA09 JUMP JUMPDEST SWAP2 POP PUSH2 0x8D8 DUP4 PUSH2 0xA09 JUMP JUMPDEST SWAP3 POP DUP3 PUSH32 0xFFFFFFFFFFFFFFFFFFFFFFFFFFFFFFFFFFFFFFFFFFFFFFFFFFFFFFFFFFFFFFFF SUB DUP3 GT ISZERO PUSH2 0x90D JUMPI PUSH2 0x90C PUSH2 0xA13 JUMP JUMPDEST JUMPDEST DUP3 DUP3 ADD SWAP1 POP SWAP3 SWAP2 POP POP JUMP JUMPDEST PUSH1 0x0 PUSH2 0x923 DUP3 PUSH2 0xA09 JUMP JUMPDEST SWAP2 POP PUSH2 0x92E DUP4 PUSH2 0xA09 JUMP JUMPDEST SWAP3 POP DUP3 PUSH2 0x93E JUMPI PUSH2 0x93D PUSH2 0xA42 JUMP JUMPDEST JUMPDEST DUP3 DUP3 DIV SWAP1 POP SWAP3 SWAP2 POP POP JUMP JUMPDEST PUSH1 0x0 PUSH2 0x954 DUP3 PUSH2 0xA09 JUMP JUMPDEST SWAP2 POP PUSH2 0x95F DUP4 PUSH2 0xA09 JUMP JUMPDEST SWAP3 POP DUP2 PUSH32 0xFFFFFFFFFFFFFFFFFFFFFFFFFFFFFFFFFFFFFFFFFFFFFFFFFFFFFFFFFFFFFFFF DIV DUP4 GT DUP3 ISZERO ISZERO AND ISZERO PUSH2 0x998 JUMPI PUSH2 0x997 PUSH2 0xA13 JUMP JUMPDEST JUMPDEST DUP3 DUP3 MUL SWAP1 POP SWAP3 SWAP2 POP POP JUMP JUMPDEST PUSH1 0x0 PUSH2 0x9AE DUP3 PUSH2 0xA09 JUMP JUMPDEST SWAP2 POP PUSH2 0x9B9 DUP4 PUSH2 0xA09 JUMP JUMPDEST SWAP3 POP DUP3 DUP3 LT ISZERO PUSH2 0x9CC JUMPI PUSH2 0x9CB PUSH2 0xA13 JUMP JUMPDEST JUMPDEST DUP3 DUP3 SUB SWAP1 POP SWAP3 SWAP2 POP POP JUMP JUMPDEST PUSH1 0x0 PUSH2 0x9E2 DUP3 PUSH2 0x9E9 JUMP JUMPDEST SWAP1 POP SWAP2 SWAP1 POP JUMP JUMPDEST PUSH1 0x0 PUSH20 0xFFFFFFFFFFFFFFFFFFFFFFFFFFFFFFFFFFFFFFFF DUP3 AND SWAP1 POP SWAP2 SWAP1 POP JUMP JUMPDEST PUSH1 0x0 DUP2 SWAP1 POP SWAP2 SWAP1 POP JUMP JUMPDEST PUSH32 0x4E487B7100000000000000000000000000000000000000000000000000000000 PUSH1 0x0 MSTORE PUSH1 0x11 PUSH1 0x4 MSTORE PUSH1 0x24 PUSH1 0x0 REVERT JUMPDEST PUSH32 0x4E487B7100000000000000000000000000000000000000000000000000000000 PUSH1 0x0 MSTORE PUSH1 0x12 PUSH1 0x4 MSTORE PUSH1 0x24 PUSH1 0x0 REVERT JUMPDEST PUSH1 0x0 DUP1 REVERT JUMPDEST PUSH32 0x41756374696F6E20697320657870697265640000000000000000000000000000 PUSH1 0x0 DUP3 ADD MSTORE POP JUMP JUMPDEST PUSH32 0x596F7572207072696365206973206C6F776572207468616E2063757272656E74 PUSH1 0x0 DUP3 ADD MSTORE PUSH32 0x5069726365210000000000000000000000000000000000000000000000000000 PUSH1 0x20 DUP3 ADD MSTORE POP JUMP JUMPDEST PUSH32 0x4E46542068617320626F75676874206279206F74686572730000000000000000 PUSH1 0x0 DUP3 ADD MSTORE POP JUMP JUMPDEST PUSH2 0xB20 DUP2 PUSH2 0x9D7 JUMP JUMPDEST DUP2 EQ PUSH2 0xB2B JUMPI PUSH1 0x0 DUP1 REVERT JUMPDEST POP JUMP INVALID LOG2 PUSH5 0x6970667358 0x22 SLT KECCAK256 DUP14 0x2F EQ PUSH17 0xF417FC060479A6F5E5858BF82C31C74186 0xA5 STOP OR 0x23 0x1E 0x22 0xCE 0xC3 0x28 0x4F 0xCE PUSH5 0x736F6C6343 STOP ADDMOD SMOD STOP CALLER "
				},
				"gasEstimates": {
					"creation": {
						"codeDepositCost": "583200",
						"executionCost": "infinite",
						"totalCost": "infinite"
					},
					"external": {
						"auction()": "infinite",
						"buy()": "infinite",
						"getCurrentPrice()": "infinite",
						"refund()": "infinite"
					}
				},
				"methodIdentifiers": {
					"auction()": "7d9f6db5",
					"buy()": "a6f2ae3a",
					"getCurrentPrice()": "eb91d37e",
					"refund()": "590e1ae3"
				}
			},
			"storageLayout": {
				"storage": [
					{
						"astId": 24,
						"contract": "45DA1.sol:DA1",
						"label": "auction",
						"offset": 0,
						"slot": "0",
						"type": "t_struct(Auction)21_storage"
					}
				],
				"types": {
					"t_address": {
						"encoding": "inplace",
						"label": "address",
						"numberOfBytes": "20"
					},
					"t_struct(Auction)21_storage": {
						"encoding": "inplace",
						"label": "struct DA1.Auction",
						"members": [
							{
								"astId": 4,
								"contract": "45DA1.sol:DA1",
								"label": "startPrice",
								"offset": 0,
								"slot": "0",
								"type": "t_uint256"
							},
							{
								"astId": 6,
								"contract": "45DA1.sol:DA1",
								"label": "endPrice",
								"offset": 0,
								"slot": "1",
								"type": "t_uint256"
							},
							{
								"astId": 8,
								"contract": "45DA1.sol:DA1",
								"label": "startTime",
								"offset": 0,
								"slot": "2",
								"type": "t_uint256"
							},
							{
								"astId": 10,
								"contract": "45DA1.sol:DA1",
								"label": "duration",
								"offset": 0,
								"slot": "3",
								"type": "t_uint256"
							},
							{
								"astId": 12,
								"contract": "45DA1.sol:DA1",
								"label": "tokenId",
								"offset": 0,
								"slot": "4",
								"type": "t_uint256"
							},
							{
								"astId": 14,
								"contract": "45DA1.sol:DA1",
								"label": "currentTime",
								"offset": 0,
								"slot": "5",
								"type": "t_uint256"
							},
							{
								"astId": 16,
								"contract": "45DA1.sol:DA1",
								"label": "endTime",
								"offset": 0,
								"slot": "6",
								"type": "t_uint256"
							},
							{
								"astId": 18,
								"contract": "45DA1.sol:DA1",
								"label": "seller",
								"offset": 0,
								"slot": "7",
								"type": "t_address"
							},
							{
								"astId": 20,
								"contract": "45DA1.sol:DA1",
								"label": "nftContract",
								"offset": 0,
								"slot": "8",
								"type": "t_address"
							}
						],
						"numberOfBytes": "288"
					},
					"t_uint256": {
						"encoding": "inplace",
						"label": "uint256",
						"numberOfBytes": "32"
					}
				}
			},
			"userdoc": {
				"kind": "user",
				"methods": {},
				"version": 1
			}
		}
	}
}