{
	"42ERC20.sol": {
		"ERC20": {
			"abi": [
				{
					"inputs": [
						{
							"internalType": "string",
							"name": "_name",
							"type": "string"
						},
						{
							"internalType": "string",
							"name": "_symbol",
							"type": "string"
						}
					],
					"stateMutability": "nonpayable",
					"type": "constructor"
				},
				{
					"anonymous": false,
					"inputs": [
						{
							"indexed": true,
							"internalType": "address",
							"name": "owner",
							"type": "address"
						},
						{
							"indexed": true,
							"internalType": "address",
							"name": "spender",
							"type": "address"
						},
						{
							"indexed": false,
							"internalType": "uint256",
							"name": "value",
							"type": "uint256"
						}
					],
					"name": "Approval",
					"type": "event"
				},
				{
					"anonymous": false,
					"inputs": [
						{
							"indexed": true,
							"internalType": "address",
							"name": "from",
							"type": "address"
						},
						{
							"indexed": true,
							"internalType": "address",
							"name": "to",
							"type": "address"
						},
						{
							"indexed": false,
							"internalType": "uint256",
							"name": "value",
							"type": "uint256"
						}
					],
					"name": "Transfer",
					"type": "event"
				},
				{
					"anonymous": false,
					"inputs": [
						{
							"indexed": true,
							"internalType": "address",
							"name": "owner",
							"type": "address"
						},
						{
							"indexed": true,
							"internalType": "address",
							"name": "spender",
							"type": "address"
						},
						{
							"indexed": false,
							"internalType": "uint256",
							"name": "money",
							"type": "uint256"
						}
					],
					"name": "approveLog",
					"type": "event"
				},
				{
					"anonymous": false,
					"inputs": [
						{
							"indexed": true,
							"internalType": "address",
							"name": "from",
							"type": "address"
						},
						{
							"indexed": true,
							"internalType": "address",
							"name": "to",
							"type": "address"
						},
						{
							"indexed": false,
							"internalType": "uint256",
							"name": "money",
							"type": "uint256"
						}
					],
					"name": "transferLog",
					"type": "event"
				},
				{
					"inputs": [
						{
							"internalType": "address",
							"name": "",
							"type": "address"
						},
						{
							"internalType": "address",
							"name": "",
							"type": "address"
						}
					],
					"name": "allowance",
					"outputs": [
						{
							"internalType": "uint256",
							"name": "",
							"type": "uint256"
						}
					],
					"stateMutability": "view",
					"type": "function"
				},
				{
					"inputs": [
						{
							"internalType": "address",
							"name": "spender",
							"type": "address"
						},
						{
							"internalType": "uint256",
							"name": "amount",
							"type": "uint256"
						}
					],
					"name": "approve",
					"outputs": [
						{
							"internalType": "bool",
							"name": "",
							"type": "bool"
						}
					],
					"stateMutability": "nonpayable",
					"type": "function"
				},
				{
					"inputs": [
						{
							"internalType": "address",
							"name": "",
							"type": "address"
						}
					],
					"name": "balanceOf",
					"outputs": [
						{
							"internalType": "uint256",
							"name": "",
							"type": "uint256"
						}
					],
					"stateMutability": "view",
					"type": "function"
				},
				{
					"inputs": [
						{
							"internalType": "uint256",
							"name": "amount",
							"type": "uint256"
						}
					],
					"name": "burn",
					"outputs": [],
					"stateMutability": "nonpayable",
					"type": "function"
				},
				{
					"inputs": [],
					"name": "decimals",
					"outputs": [
						{
							"internalType": "uint8",
							"name": "",
							"type": "uint8"
						}
					],
					"stateMutability": "view",
					"type": "function"
				},
				{
					"inputs": [
						{
							"internalType": "uint256",
							"name": "amount",
							"type": "uint256"
						}
					],
					"name": "mint",
					"outputs": [],
					"stateMutability": "nonpayable",
					"type": "function"
				},
				{
					"inputs": [],
					"name": "name",
					"outputs": [
						{
							"internalType": "string",
							"name": "",
							"type": "string"
						}
					],
					"stateMutability": "view",
					"type": "function"
				},
				{
					"inputs": [],
					"name": "symbol",
					"outputs": [
						{
							"internalType": "string",
							"name": "",
							"type": "string"
						}
					],
					"stateMutability": "view",
					"type": "function"
				},
				{
					"inputs": [],
					"name": "totalSupply",
					"outputs": [
						{
							"internalType": "uint256",
							"name": "",
							"type": "uint256"
						}
					],
					"stateMutability": "view",
					"type": "function"
				},
				{
					"inputs": [
						{
							"internalType": "address",
							"name": "recipient",
							"type": "address"
						},
						{
							"internalType": "uint256",
							"name": "amount",
							"type": "uint256"
						}
					],
					"name": "transfer",
					"outputs": [
						{
							"internalType": "bool",
							"name": "",
							"type": "bool"
						}
					],
					"stateMutability": "nonpayable",
					"type": "function"
				},
				{
					"inputs": [
						{
							"internalType": "address",
							"name": "from",
							"type": "address"
						},
						{
							"internalType": "address",
							"name": "to",
							"type": "address"
						},
						{
							"internalType": "uint256",
							"name": "amount",
							"type": "uint256"
						}
					],
					"name": "transferFrom",
					"outputs": [
						{
							"internalType": "bool",
							"name": "",
							"type": "bool"
						}
					],
					"stateMutability": "nonpayable",
					"type": "function"
				}
			],
			"devdoc": {
				"kind": "dev",
				"methods": {
					"approve(address,uint256)": {
						"details": "调用者账户给`spender`账户授权 `amount`数量代币。 如果成功，返回 `true`. 释放 {Approval} 事件."
					},
					"transferFrom(address,address,uint256)": {
						"details": "通过授权机制，从`from`账户向`to`账户转账`amount`数量代币。转账的部分会从调用者的`allowance`中扣除。 如果成功，返回 `true`. 释放 {Transfer} 事件."
					}
				},
				"stateVariables": {
					"allowance": {
						"details": "返回`owner`账户授权给`spender`账户的额度，默认为0。 当{approve} 或 {transferFrom} 被调用时，`allowance`会改变."
					},
					"balanceOf": {
						"details": "返回账户`account`所持有的代币数."
					},
					"totalSupply": {
						"details": "返回代币总供给."
					}
				},
				"version": 1
			},
			"evm": {
				"assembly": "    /* \"42ERC20.sol\":2498:2525  string public name = \"Test\" */\n  0xc0\n    /* \"42ERC20.sol\":2038:4551  contract ERC20 is IERC20{... */\n  0x40\n    /* \"42ERC20.sol\":2498:2525  string public name = \"Test\" */\n  mstore\n  0x04\n    /* \"42ERC20.sol\":2038:4551  contract ERC20 is IERC20{... */\n  0x80\n    /* \"42ERC20.sol\":2498:2525  string public name = \"Test\" */\n  dup2\n  swap1\n  mstore\n  shl(0xe2, 0x15195cdd)\n  0xa0\n  swap1\n  dup2\n  mstore\n  tag_1\n  swap2\n  0x03\n  swap2\n  swap1\n  tag_2\n  jump\t// in\ntag_1:\n  pop\n    /* \"42ERC20.sol\":2565:2594  string public symbol = \"Test\" */\n  0x40\n  dup1\n  mload\n  dup1\n  dup3\n  add\n  swap1\n  swap2\n  mstore\n  0x04\n  dup1\n  dup3\n  mstore\n  shl(0xe2, 0x15195cdd)\n  0x20\n  swap1\n  swap3\n  add\n  swap2\n  dup3\n  mstore\n  tag_3\n  swap2\n  dup2\n  tag_2\n  jump\t// in\ntag_3:\n  pop\n    /* \"42ERC20.sol\":2644:2670  uint8 public decimals = 18 */\n  0x05\n  dup1\n  sload\n  not(0xff)\n  and\n    /* \"42ERC20.sol\":2668:2670  18 */\n  0x12\n    /* \"42ERC20.sol\":2644:2670  uint8 public decimals = 18 */\n  or\n  swap1\n  sstore\n    /* \"42ERC20.sol\":2723:2832  constructor(string memory _name,string memory _symbol){... */\n  callvalue\n  dup1\n  iszero\n  tag_4\n  jumpi\n  0x00\n  dup1\n  revert\ntag_4:\n  pop\n  mload(0x40)\n  sub(codesize, bytecodeSize)\n  dup1\n  bytecodeSize\n  dup4\n  codecopy\n  dup2\n  add\n  0x40\n  dup2\n  swap1\n  mstore\n  tag_5\n  swap2\n  tag_6\n  jump\t// in\ntag_5:\n    /* \"42ERC20.sol\":2787:2799  name = _name */\n  dup2\n  mload\n  tag_9\n  swap1\n    /* \"42ERC20.sol\":2787:2791  name */\n  0x03\n  swap1\n    /* \"42ERC20.sol\":2787:2799  name = _name */\n  0x20\n  dup6\n  add\n  swap1\n  tag_2\n  jump\t// in\ntag_9:\n  pop\n    /* \"42ERC20.sol\":2809:2825  symbol = _symbol */\n  dup1\n  mload\n  tag_10\n  swap1\n    /* \"42ERC20.sol\":2809:2815  symbol */\n  0x04\n  swap1\n    /* \"42ERC20.sol\":2809:2825  symbol = _symbol */\n  0x20\n  dup5\n  add\n  swap1\n  tag_2\n  jump\t// in\ntag_10:\n  pop\n    /* \"42ERC20.sol\":2723:2832  constructor(string memory _name,string memory _symbol){... */\n  pop\n  pop\n    /* \"42ERC20.sol\":2038:4551  contract ERC20 is IERC20{... */\n  jump(tag_23)\ntag_2:\n  dup3\n  dup1\n  sload\n  tag_12\n  swap1\n  tag_13\n  jump\t// in\ntag_12:\n  swap1\n  0x00\n  mstore\n  keccak256(0x00, 0x20)\n  swap1\n  0x1f\n  add\n  0x20\n  swap1\n  div\n  dup2\n  add\n  swap3\n  dup3\n  tag_15\n  jumpi\n  0x00\n  dup6\n  sstore\n  jump(tag_18)\ntag_15:\n  dup3\n  0x1f\n  lt\n  tag_16\n  jumpi\n  dup1\n  mload\n  not(0xff)\n  and\n  dup4\n  dup1\n  add\n  or\n  dup6\n  sstore\n  jump(tag_18)\ntag_16:\n  dup3\n  dup1\n  add\n  0x01\n  add\n  dup6\n  sstore\n  dup3\n  iszero\n  tag_18\n  jumpi\n  swap2\n  dup3\n  add\ntag_17:\n  dup3\n  dup2\n  gt\n  iszero\n  tag_18\n  jumpi\n  dup3\n  mload\n  dup3\n  sstore\n  swap2\n  0x20\n  add\n  swap2\n  swap1\n  0x01\n  add\n  swap1\n  jump(tag_17)\ntag_18:\n  pop\n  tag_19\n  swap3\n  swap2\n  pop\n  tag_20\n  jump\t// in\ntag_19:\n  pop\n  swap1\n  jump\t// out\ntag_20:\ntag_21:\n  dup1\n  dup3\n  gt\n  iszero\n  tag_19\n  jumpi\n  0x00\n  dup2\n  sstore\n  0x01\n  add\n  jump(tag_21)\n    /* \"#utility.yul\":14:899   */\ntag_24:\n    /* \"#utility.yul\":68:73   */\n  0x00\n    /* \"#utility.yul\":121:124   */\n  dup3\n    /* \"#utility.yul\":114:118   */\n  0x1f\n    /* \"#utility.yul\":106:112   */\n  dup4\n    /* \"#utility.yul\":102:119   */\n  add\n    /* \"#utility.yul\":98:125   */\n  slt\n    /* \"#utility.yul\":88:143   */\n  tag_26\n  jumpi\n    /* \"#utility.yul\":139:140   */\n  0x00\n    /* \"#utility.yul\":136:137   */\n  dup1\n    /* \"#utility.yul\":129:141   */\n  revert\n    /* \"#utility.yul\":88:143   */\ntag_26:\n    /* \"#utility.yul\":162:175   */\n  dup2\n  mload\n  sub(shl(0x40, 0x01), 0x01)\n    /* \"#utility.yul\":224:234   */\n  dup1\n  dup3\n  gt\n    /* \"#utility.yul\":221:257   */\n  iszero\n  tag_28\n  jumpi\n    /* \"#utility.yul\":237:255   */\n  tag_28\n  tag_29\n  jump\t// in\ntag_28:\n    /* \"#utility.yul\":312:314   */\n  0x40\n    /* \"#utility.yul\":306:315   */\n  mload\n    /* \"#utility.yul\":280:282   */\n  0x1f\n    /* \"#utility.yul\":366:379   */\n  dup4\n  add\n  not(0x1f)\n    /* \"#utility.yul\":362:384   */\n  swap1\n  dup2\n  and\n    /* \"#utility.yul\":386:388   */\n  0x3f\n    /* \"#utility.yul\":358:389   */\n  add\n    /* \"#utility.yul\":354:394   */\n  and\n    /* \"#utility.yul\":342:395   */\n  dup2\n  add\n  swap1\n    /* \"#utility.yul\":410:428   */\n  dup3\n  dup3\n  gt\n    /* \"#utility.yul\":430:452   */\n  dup2\n  dup4\n  lt\n    /* \"#utility.yul\":407:453   */\n  or\n    /* \"#utility.yul\":404:476   */\n  iszero\n  tag_31\n  jumpi\n    /* \"#utility.yul\":456:474   */\n  tag_31\n  tag_29\n  jump\t// in\ntag_31:\n    /* \"#utility.yul\":496:506   */\n  dup2\n    /* \"#utility.yul\":492:494   */\n  0x40\n    /* \"#utility.yul\":485:507   */\n  mstore\n    /* \"#utility.yul\":531:533   */\n  dup4\n    /* \"#utility.yul\":523:529   */\n  dup2\n    /* \"#utility.yul\":516:534   */\n  mstore\n    /* \"#utility.yul\":553:557   */\n  0x20\n    /* \"#utility.yul\":543:557   */\n  swap3\n  pop\n    /* \"#utility.yul\":598:601   */\n  dup7\n    /* \"#utility.yul\":593:595   */\n  dup4\n    /* \"#utility.yul\":588:590   */\n  dup6\n    /* \"#utility.yul\":580:586   */\n  dup9\n    /* \"#utility.yul\":576:591   */\n  add\n    /* \"#utility.yul\":572:596   */\n  add\n    /* \"#utility.yul\":569:602   */\n  gt\n    /* \"#utility.yul\":566:619   */\n  iszero\n  tag_32\n  jumpi\n    /* \"#utility.yul\":615:616   */\n  0x00\n    /* \"#utility.yul\":612:613   */\n  dup1\n    /* \"#utility.yul\":605:617   */\n  revert\n    /* \"#utility.yul\":566:619   */\ntag_32:\n    /* \"#utility.yul\":637:638   */\n  0x00\n    /* \"#utility.yul\":628:638   */\n  swap2\n  pop\n    /* \"#utility.yul\":647:780   */\ntag_33:\n    /* \"#utility.yul\":661:663   */\n  dup4\n    /* \"#utility.yul\":658:659   */\n  dup3\n    /* \"#utility.yul\":655:664   */\n  lt\n    /* \"#utility.yul\":647:780   */\n  iszero\n  tag_35\n  jumpi\n    /* \"#utility.yul\":749:763   */\n  dup6\n  dup3\n  add\n    /* \"#utility.yul\":745:768   */\n  dup4\n  add\n    /* \"#utility.yul\":739:769   */\n  mload\n    /* \"#utility.yul\":718:732   */\n  dup2\n  dup4\n  add\n    /* \"#utility.yul\":714:737   */\n  dup5\n  add\n    /* \"#utility.yul\":707:770   */\n  mstore\n    /* \"#utility.yul\":672:682   */\n  swap1\n  dup3\n  add\n  swap1\n    /* \"#utility.yul\":647:780   */\n  jump(tag_33)\ntag_35:\n    /* \"#utility.yul\":798:800   */\n  dup4\n    /* \"#utility.yul\":795:796   */\n  dup3\n    /* \"#utility.yul\":792:801   */\n  gt\n    /* \"#utility.yul\":789:869   */\n  iszero\n  tag_36\n  jumpi\n    /* \"#utility.yul\":857:858   */\n  0x00\n    /* \"#utility.yul\":852:854   */\n  dup4\n    /* \"#utility.yul\":847:849   */\n  dup6\n    /* \"#utility.yul\":839:845   */\n  dup4\n    /* \"#utility.yul\":835:850   */\n  add\n    /* \"#utility.yul\":831:855   */\n  add\n    /* \"#utility.yul\":824:859   */\n  mstore\n    /* \"#utility.yul\":789:869   */\ntag_36:\n    /* \"#utility.yul\":887:893   */\n  swap7\n    /* \"#utility.yul\":14:899   */\n  swap6\n  pop\n  pop\n  pop\n  pop\n  pop\n  pop\n  jump\t// out\n    /* \"#utility.yul\":904:1466   */\ntag_6:\n    /* \"#utility.yul\":1003:1009   */\n  0x00\n    /* \"#utility.yul\":1011:1017   */\n  dup1\n    /* \"#utility.yul\":1064:1066   */\n  0x40\n    /* \"#utility.yul\":1052:1061   */\n  dup4\n    /* \"#utility.yul\":1043:1050   */\n  dup6\n    /* \"#utility.yul\":1039:1062   */\n  sub\n    /* \"#utility.yul\":1035:1067   */\n  slt\n    /* \"#utility.yul\":1032:1084   */\n  iszero\n  tag_38\n  jumpi\n    /* \"#utility.yul\":1080:1081   */\n  0x00\n    /* \"#utility.yul\":1077:1078   */\n  dup1\n    /* \"#utility.yul\":1070:1082   */\n  revert\n    /* \"#utility.yul\":1032:1084   */\ntag_38:\n    /* \"#utility.yul\":1107:1123   */\n  dup3\n  mload\n  sub(shl(0x40, 0x01), 0x01)\n    /* \"#utility.yul\":1172:1186   */\n  dup1\n  dup3\n  gt\n    /* \"#utility.yul\":1169:1203   */\n  iszero\n  tag_39\n  jumpi\n    /* \"#utility.yul\":1199:1200   */\n  0x00\n    /* \"#utility.yul\":1196:1197   */\n  dup1\n    /* \"#utility.yul\":1189:1201   */\n  revert\n    /* \"#utility.yul\":1169:1203   */\ntag_39:\n    /* \"#utility.yul\":1222:1283   */\n  tag_40\n    /* \"#utility.yul\":1275:1282   */\n  dup7\n    /* \"#utility.yul\":1266:1272   */\n  dup4\n    /* \"#utility.yul\":1255:1264   */\n  dup8\n    /* \"#utility.yul\":1251:1273   */\n  add\n    /* \"#utility.yul\":1222:1283   */\n  tag_24\n  jump\t// in\ntag_40:\n    /* \"#utility.yul\":1212:1283   */\n  swap4\n  pop\n    /* \"#utility.yul\":1329:1331   */\n  0x20\n    /* \"#utility.yul\":1318:1327   */\n  dup6\n    /* \"#utility.yul\":1314:1332   */\n  add\n    /* \"#utility.yul\":1308:1333   */\n  mload\n    /* \"#utility.yul\":1292:1333   */\n  swap2\n  pop\n    /* \"#utility.yul\":1358:1360   */\n  dup1\n    /* \"#utility.yul\":1348:1356   */\n  dup3\n    /* \"#utility.yul\":1345:1361   */\n  gt\n    /* \"#utility.yul\":1342:1378   */\n  iszero\n  tag_41\n  jumpi\n    /* \"#utility.yul\":1374:1375   */\n  0x00\n    /* \"#utility.yul\":1371:1372   */\n  dup1\n    /* \"#utility.yul\":1364:1376   */\n  revert\n    /* \"#utility.yul\":1342:1378   */\ntag_41:\n  pop\n    /* \"#utility.yul\":1397:1460   */\n  tag_42\n    /* \"#utility.yul\":1452:1459   */\n  dup6\n    /* \"#utility.yul\":1441:1449   */\n  dup3\n    /* \"#utility.yul\":1430:1439   */\n  dup7\n    /* \"#utility.yul\":1426:1450   */\n  add\n    /* \"#utility.yul\":1397:1460   */\n  tag_24\n  jump\t// in\ntag_42:\n    /* \"#utility.yul\":1387:1460   */\n  swap2\n  pop\n  pop\n    /* \"#utility.yul\":904:1466   */\n  swap3\n  pop\n  swap3\n  swap1\n  pop\n  jump\t// out\n    /* \"#utility.yul\":1471:1851   */\ntag_13:\n    /* \"#utility.yul\":1550:1551   */\n  0x01\n    /* \"#utility.yul\":1546:1558   */\n  dup2\n  dup2\n  shr\n  swap1\n    /* \"#utility.yul\":1593:1605   */\n  dup3\n  and\n  dup1\n    /* \"#utility.yul\":1614:1675   */\n  tag_44\n  jumpi\n    /* \"#utility.yul\":1668:1672   */\n  0x7f\n    /* \"#utility.yul\":1660:1666   */\n  dup3\n    /* \"#utility.yul\":1656:1673   */\n  and\n    /* \"#utility.yul\":1646:1673   */\n  swap2\n  pop\n    /* \"#utility.yul\":1614:1675   */\ntag_44:\n    /* \"#utility.yul\":1721:1723   */\n  0x20\n    /* \"#utility.yul\":1713:1719   */\n  dup3\n    /* \"#utility.yul\":1710:1724   */\n  lt\n    /* \"#utility.yul\":1690:1708   */\n  dup2\n    /* \"#utility.yul\":1687:1725   */\n  eq\n    /* \"#utility.yul\":1684:1845   */\n  iszero\n  tag_45\n  jumpi\n    /* \"#utility.yul\":1767:1777   */\n  0x4e487b71\n    /* \"#utility.yul\":1762:1765   */\n  0xe0\n    /* \"#utility.yul\":1758:1778   */\n  shl\n    /* \"#utility.yul\":1755:1756   */\n  0x00\n    /* \"#utility.yul\":1748:1779   */\n  mstore\n    /* \"#utility.yul\":1802:1806   */\n  0x22\n    /* \"#utility.yul\":1799:1800   */\n  0x04\n    /* \"#utility.yul\":1792:1807   */\n  mstore\n    /* \"#utility.yul\":1830:1834   */\n  0x24\n    /* \"#utility.yul\":1827:1828   */\n  0x00\n    /* \"#utility.yul\":1820:1835   */\n  revert\n    /* \"#utility.yul\":1684:1845   */\ntag_45:\n  pop\n    /* \"#utility.yul\":1471:1851   */\n  swap2\n  swap1\n  pop\n  jump\t// out\n    /* \"#utility.yul\":1856:1983   */\ntag_29:\n    /* \"#utility.yul\":1917:1927   */\n  0x4e487b71\n    /* \"#utility.yul\":1912:1915   */\n  0xe0\n    /* \"#utility.yul\":1908:1928   */\n  shl\n    /* \"#utility.yul\":1905:1906   */\n  0x00\n    /* \"#utility.yul\":1898:1929   */\n  mstore\n    /* \"#utility.yul\":1948:1952   */\n  0x41\n    /* \"#utility.yul\":1945:1946   */\n  0x04\n    /* \"#utility.yul\":1938:1953   */\n  mstore\n    /* \"#utility.yul\":1972:1976   */\n  0x24\n    /* \"#utility.yul\":1969:1970   */\n  0x00\n    /* \"#utility.yul\":1962:1977   */\n  revert\n    /* \"#utility.yul\":1856:1983   */\ntag_23:\n    /* \"42ERC20.sol\":2038:4551  contract ERC20 is IERC20{... */\n  dataSize(sub_0)\n  dup1\n  dataOffset(sub_0)\n  0x00\n  codecopy\n  0x00\n  return\nstop\n\nsub_0: assembly {\n        /* \"42ERC20.sol\":2038:4551  contract ERC20 is IERC20{... */\n      mstore(0x40, 0x80)\n      callvalue\n      dup1\n      iszero\n      tag_1\n      jumpi\n      0x00\n      dup1\n      revert\n    tag_1:\n      pop\n      jumpi(tag_2, lt(calldatasize, 0x04))\n      shr(0xe0, calldataload(0x00))\n      dup1\n      0x42966c68\n      gt\n      tag_14\n      jumpi\n      dup1\n      0xa0712d68\n      gt\n      tag_15\n      jumpi\n      dup1\n      0xa0712d68\n      eq\n      tag_11\n      jumpi\n      dup1\n      0xa9059cbb\n      eq\n      tag_12\n      jumpi\n      dup1\n      0xdd62ed3e\n      eq\n      tag_13\n      jumpi\n      0x00\n      dup1\n      revert\n    tag_15:\n      dup1\n      0x42966c68\n      eq\n      tag_8\n      jumpi\n      dup1\n      0x70a08231\n      eq\n      tag_9\n      jumpi\n      dup1\n      0x95d89b41\n      eq\n      tag_10\n      jumpi\n      0x00\n      dup1\n      revert\n    tag_14:\n      dup1\n      0x18160ddd\n      gt\n      tag_16\n      jumpi\n      dup1\n      0x18160ddd\n      eq\n      tag_5\n      jumpi\n      dup1\n      0x23b872dd\n      eq\n      tag_6\n      jumpi\n      dup1\n      0x313ce567\n      eq\n      tag_7\n      jumpi\n      0x00\n      dup1\n      revert\n    tag_16:\n      dup1\n      0x06fdde03\n      eq\n      tag_3\n      jumpi\n      dup1\n      0x095ea7b3\n      eq\n      tag_4\n      jumpi\n    tag_2:\n      0x00\n      dup1\n      revert\n        /* \"42ERC20.sol\":2498:2525  string public name = \"Test\" */\n    tag_3:\n      tag_17\n      tag_18\n      jump\t// in\n    tag_17:\n      mload(0x40)\n      tag_19\n      swap2\n      swap1\n      tag_20\n      jump\t// in\n    tag_19:\n      mload(0x40)\n      dup1\n      swap2\n      sub\n      swap1\n      return\n        /* \"42ERC20.sol\":3315:3561  function approve(address spender,uint256 amount)external override returns(bool){... */\n    tag_4:\n      tag_21\n      tag_22\n      calldatasize\n      0x04\n      tag_23\n      jump\t// in\n    tag_22:\n      tag_24\n      jump\t// in\n    tag_21:\n      mload(0x40)\n        /* \"#utility.yul\":1613:1627   */\n      swap1\n      iszero\n        /* \"#utility.yul\":1606:1628   */\n      iszero\n        /* \"#utility.yul\":1588:1629   */\n      dup2\n      mstore\n        /* \"#utility.yul\":1576:1578   */\n      0x20\n        /* \"#utility.yul\":1561:1579   */\n      add\n        /* \"42ERC20.sol\":3315:3561  function approve(address spender,uint256 amount)external override returns(bool){... */\n      tag_19\n        /* \"#utility.yul\":1448:1635   */\n      jump\n        /* \"42ERC20.sol\":2102:2134  uint public override totalSupply */\n    tag_5:\n      tag_27\n      sload(0x00)\n      dup2\n      jump\n    tag_27:\n      mload(0x40)\n        /* \"#utility.yul\":2808:2833   */\n      swap1\n      dup2\n      mstore\n        /* \"#utility.yul\":2796:2798   */\n      0x20\n        /* \"#utility.yul\":2781:2799   */\n      add\n        /* \"42ERC20.sol\":2102:2134  uint public override totalSupply */\n      tag_19\n        /* \"#utility.yul\":2662:2839   */\n      jump\n        /* \"42ERC20.sol\":3567:4080  function transferFrom(address from,address to,uint256 amount)external override returns(bool){... */\n    tag_6:\n      tag_21\n      tag_32\n      calldatasize\n      0x04\n      tag_33\n      jump\t// in\n    tag_32:\n      tag_34\n      jump\t// in\n        /* \"42ERC20.sol\":2644:2670  uint8 public decimals = 18 */\n    tag_7:\n      sload(0x05)\n      tag_36\n      swap1\n      0xff\n      and\n      dup2\n      jump\n    tag_36:\n      mload(0x40)\n        /* \"#utility.yul\":3016:3020   */\n      0xff\n        /* \"#utility.yul\":3004:3021   */\n      swap1\n      swap2\n      and\n        /* \"#utility.yul\":2986:3022   */\n      dup2\n      mstore\n        /* \"#utility.yul\":2974:2976   */\n      0x20\n        /* \"#utility.yul\":2959:2977   */\n      add\n        /* \"42ERC20.sol\":2644:2670  uint8 public decimals = 18 */\n      tag_19\n        /* \"#utility.yul\":2844:3028   */\n      jump\n        /* \"42ERC20.sol\":4379:4549  function burn(uint amount)external {... */\n    tag_8:\n      tag_40\n      tag_41\n      calldatasize\n      0x04\n      tag_42\n      jump\t// in\n    tag_41:\n      tag_43\n      jump\t// in\n    tag_40:\n      stop\n        /* \"42ERC20.sol\":2168:2221  mapping(address => uint256)public override  balanceOf */\n    tag_9:\n      tag_27\n      tag_45\n      calldatasize\n      0x04\n      tag_46\n      jump\t// in\n    tag_45:\n      mstore(0x20, 0x01)\n      0x00\n      swap1\n      dup2\n      mstore\n      0x40\n      swap1\n      keccak256\n      sload\n      dup2\n      jump\n        /* \"42ERC20.sol\":2565:2594  string public symbol = \"Test\" */\n    tag_10:\n      tag_17\n      tag_50\n      jump\t// in\n        /* \"42ERC20.sol\":4139:4311  function mint(uint amount)external {... */\n    tag_11:\n      tag_40\n      tag_53\n      calldatasize\n      0x04\n      tag_42\n      jump\t// in\n    tag_53:\n      tag_54\n      jump\t// in\n        /* \"42ERC20.sol\":3063:3309  function transfer(address recipient,uint256 amount)external override returns(bool){... */\n    tag_12:\n      tag_21\n      tag_56\n      calldatasize\n      0x04\n      tag_23\n      jump\t// in\n    tag_56:\n      tag_57\n      jump\t// in\n        /* \"42ERC20.sol\":2396:2466  mapping(address => mapping(address => uint)) public override allowance */\n    tag_13:\n      tag_27\n      tag_60\n      calldatasize\n      0x04\n      tag_61\n      jump\t// in\n    tag_60:\n      0x02\n      0x20\n      swap1\n      dup2\n      mstore\n      0x00\n      swap3\n      dup4\n      mstore\n      0x40\n      dup1\n      dup5\n      keccak256\n      swap1\n      swap2\n      mstore\n      swap1\n      dup3\n      mstore\n      swap1\n      keccak256\n      sload\n      dup2\n      jump\n        /* \"42ERC20.sol\":2498:2525  string public name = \"Test\" */\n    tag_18:\n      0x03\n      dup1\n      sload\n      tag_64\n      swap1\n      tag_65\n      jump\t// in\n    tag_64:\n      dup1\n      0x1f\n      add\n      0x20\n      dup1\n      swap2\n      div\n      mul\n      0x20\n      add\n      mload(0x40)\n      swap1\n      dup2\n      add\n      0x40\n      mstore\n      dup1\n      swap3\n      swap2\n      swap1\n      dup2\n      dup2\n      mstore\n      0x20\n      add\n      dup3\n      dup1\n      sload\n      tag_66\n      swap1\n      tag_65\n      jump\t// in\n    tag_66:\n      dup1\n      iszero\n      tag_67\n      jumpi\n      dup1\n      0x1f\n      lt\n      tag_68\n      jumpi\n      0x0100\n      dup1\n      dup4\n      sload\n      div\n      mul\n      dup4\n      mstore\n      swap2\n      0x20\n      add\n      swap2\n      jump(tag_67)\n    tag_68:\n      dup3\n      add\n      swap2\n      swap1\n      0x00\n      mstore\n      keccak256(0x00, 0x20)\n      swap1\n    tag_69:\n      dup2\n      sload\n      dup2\n      mstore\n      swap1\n      0x01\n      add\n      swap1\n      0x20\n      add\n      dup1\n      dup4\n      gt\n      tag_69\n      jumpi\n      dup3\n      swap1\n      sub\n      0x1f\n      and\n      dup3\n      add\n      swap2\n    tag_67:\n      pop\n      pop\n      pop\n      pop\n      pop\n      dup2\n      jump\t// out\n        /* \"42ERC20.sol\":3315:3561  function approve(address spender,uint256 amount)external override returns(bool){... */\n    tag_24:\n        /* \"42ERC20.sol\":3414:3424  msg.sender */\n      caller\n        /* \"42ERC20.sol\":3389:3393  bool */\n      0x00\n        /* \"42ERC20.sol\":3404:3425  allowance[msg.sender] */\n      dup2\n      dup2\n      mstore\n        /* \"42ERC20.sol\":3404:3413  allowance */\n      0x02\n        /* \"42ERC20.sol\":3404:3425  allowance[msg.sender] */\n      0x20\n      swap1\n      dup2\n      mstore\n      0x40\n      dup1\n      dup4\n      keccak256\n      0xffffffffffffffffffffffffffffffffffffffff\n        /* \"42ERC20.sol\":3404:3434  allowance[msg.sender][spender] */\n      dup8\n      and\n      dup1\n      dup6\n      mstore\n      swap3\n      mstore\n      dup1\n      dup4\n      keccak256\n        /* \"42ERC20.sol\":3404:3443  allowance[msg.sender][spender] = amount */\n      dup6\n      swap1\n      sstore\n        /* \"42ERC20.sol\":3458:3495  approveLog(msg.sender,spender,amount) */\n      mload\n        /* \"42ERC20.sol\":3389:3393  bool */\n      swap2\n      swap3\n        /* \"42ERC20.sol\":3404:3434  allowance[msg.sender][spender] */\n      swap1\n      swap2\n        /* \"42ERC20.sol\":3458:3495  approveLog(msg.sender,spender,amount) */\n      0x1d64a338236710e317fc91de1d5aeefd2c1afdbb0f77cd8e6995fd9c4be14310\n      swap1\n      tag_71\n      swap1\n        /* \"42ERC20.sol\":3437:3443  amount */\n      dup7\n        /* \"#utility.yul\":2808:2833   */\n      dup2\n      mstore\n        /* \"#utility.yul\":2796:2798   */\n      0x20\n        /* \"#utility.yul\":2781:2799   */\n      add\n      swap1\n        /* \"#utility.yul\":2662:2839   */\n      jump\n        /* \"42ERC20.sol\":3458:3495  approveLog(msg.sender,spender,amount) */\n    tag_71:\n      mload(0x40)\n      dup1\n      swap2\n      sub\n      swap1\n      log3\n        /* \"42ERC20.sol\":3505:3523  balanceOf[spender] */\n      0xffffffffffffffffffffffffffffffffffffffff\n      dup4\n      and\n      0x00\n      swap1\n      dup2\n      mstore\n        /* \"42ERC20.sol\":3505:3514  balanceOf */\n      0x01\n        /* \"42ERC20.sol\":3505:3523  balanceOf[spender] */\n      0x20\n      mstore\n      0x40\n      dup2\n      keccak256\n        /* \"42ERC20.sol\":3505:3533  balanceOf[spender] += amount */\n      dup1\n      sload\n        /* \"42ERC20.sol\":3527:3533  amount */\n      dup5\n      swap3\n        /* \"42ERC20.sol\":3505:3523  balanceOf[spender] */\n      swap1\n        /* \"42ERC20.sol\":3505:3533  balanceOf[spender] += amount */\n      tag_72\n      swap1\n        /* \"42ERC20.sol\":3527:3533  amount */\n      dup5\n      swap1\n        /* \"42ERC20.sol\":3505:3533  balanceOf[spender] += amount */\n      tag_73\n      jump\t// in\n    tag_72:\n      swap1\n      swap2\n      sstore\n      pop\n        /* \"42ERC20.sol\":3550:3554  true */\n      0x01\n      swap5\n        /* \"42ERC20.sol\":3315:3561  function approve(address spender,uint256 amount)external override returns(bool){... */\n      swap4\n      pop\n      pop\n      pop\n      pop\n      jump\t// out\n        /* \"42ERC20.sol\":3567:4080  function transferFrom(address from,address to,uint256 amount)external override returns(bool){... */\n    tag_34:\n        /* \"42ERC20.sol\":3822:3837  allowance[from] */\n      0xffffffffffffffffffffffffffffffffffffffff\n      dup4\n      and\n        /* \"42ERC20.sol\":3654:3658  bool */\n      0x00\n        /* \"42ERC20.sol\":3822:3837  allowance[from] */\n      swap1\n      dup2\n      mstore\n        /* \"42ERC20.sol\":3822:3831  allowance */\n      0x02\n        /* \"42ERC20.sol\":3822:3837  allowance[from] */\n      0x20\n      swap1\n      dup2\n      mstore\n      0x40\n      dup1\n      dup4\n      keccak256\n        /* \"42ERC20.sol\":3838:3848  msg.sender */\n      caller\n        /* \"42ERC20.sol\":3822:3849  allowance[from][msg.sender] */\n      dup5\n      mstore\n      swap1\n      swap2\n      mstore\n      dup2\n      keccak256\n      sload\n        /* \"42ERC20.sol\":3822:3858  allowance[from][msg.sender]<= amount */\n      dup3\n      lt\n      iszero\n        /* \"42ERC20.sol\":3814:3894  require(allowance[from][msg.sender]<= amount,\"allowance money less than amount\") */\n      tag_75\n      jumpi\n      mload(0x40)\n      0x08c379a000000000000000000000000000000000000000000000000000000000\n      dup2\n      mstore\n        /* \"#utility.yul\":2503:2505   */\n      0x20\n        /* \"42ERC20.sol\":3814:3894  require(allowance[from][msg.sender]<= amount,\"allowance money less than amount\") */\n      0x04\n      dup3\n      add\n        /* \"#utility.yul\":2485:2506   */\n      dup2\n      swap1\n      mstore\n        /* \"#utility.yul\":2522:2540   */\n      0x24\n      dup3\n      add\n        /* \"#utility.yul\":2515:2545   */\n      mstore\n        /* \"#utility.yul\":2581:2615   */\n      0x616c6c6f77616e6365206d6f6e6579206c657373207468616e20616d6f756e74\n        /* \"#utility.yul\":2561:2579   */\n      0x44\n      dup3\n      add\n        /* \"#utility.yul\":2554:2616   */\n      mstore\n        /* \"#utility.yul\":2633:2651   */\n      0x64\n      add\n        /* \"42ERC20.sol\":3814:3894  require(allowance[from][msg.sender]<= amount,\"allowance money less than amount\") */\n      mload(0x40)\n      dup1\n      swap2\n      sub\n      swap1\n      revert\n    tag_75:\n        /* \"42ERC20.sol\":3904:3919  allowance[from] */\n      0xffffffffffffffffffffffffffffffffffffffff\n      dup5\n      and\n      0x00\n      swap1\n      dup2\n      mstore\n        /* \"42ERC20.sol\":3904:3913  allowance */\n      0x02\n        /* \"42ERC20.sol\":3904:3919  allowance[from] */\n      0x20\n      swap1\n      dup2\n      mstore\n      0x40\n      dup1\n      dup4\n      keccak256\n        /* \"42ERC20.sol\":3920:3930  msg.sender */\n      caller\n        /* \"42ERC20.sol\":3904:3931  allowance[from][msg.sender] */\n      dup5\n      mstore\n      swap1\n      swap2\n      mstore\n      dup2\n      keccak256\n        /* \"42ERC20.sol\":3904:3941  allowance[from][msg.sender] -= amount */\n      dup1\n      sload\n        /* \"42ERC20.sol\":3935:3941  amount */\n      dup5\n      swap3\n        /* \"42ERC20.sol\":3904:3919  allowance[from] */\n      swap1\n        /* \"42ERC20.sol\":3904:3941  allowance[from][msg.sender] -= amount */\n      tag_78\n      swap1\n        /* \"42ERC20.sol\":3935:3941  amount */\n      dup5\n      swap1\n        /* \"42ERC20.sol\":3904:3941  allowance[from][msg.sender] -= amount */\n      tag_79\n      jump\t// in\n    tag_78:\n      swap1\n      swap2\n      sstore\n      pop\n      pop\n        /* \"42ERC20.sol\":3951:3966  balanceOf[from] */\n      0xffffffffffffffffffffffffffffffffffffffff\n      dup5\n      and\n      0x00\n      swap1\n      dup2\n      mstore\n        /* \"42ERC20.sol\":3951:3960  balanceOf */\n      0x01\n        /* \"42ERC20.sol\":3951:3966  balanceOf[from] */\n      0x20\n      mstore\n      0x40\n      dup2\n      keccak256\n        /* \"42ERC20.sol\":3951:3976  balanceOf[from] -= amount */\n      dup1\n      sload\n        /* \"42ERC20.sol\":3970:3976  amount */\n      dup5\n      swap3\n        /* \"42ERC20.sol\":3951:3966  balanceOf[from] */\n      swap1\n        /* \"42ERC20.sol\":3951:3976  balanceOf[from] -= amount */\n      tag_80\n      swap1\n        /* \"42ERC20.sol\":3970:3976  amount */\n      dup5\n      swap1\n        /* \"42ERC20.sol\":3951:3976  balanceOf[from] -= amount */\n      tag_79\n      jump\t// in\n    tag_80:\n      swap1\n      swap2\n      sstore\n      pop\n      pop\n        /* \"42ERC20.sol\":3986:3999  balanceOf[to] */\n      0xffffffffffffffffffffffffffffffffffffffff\n      dup4\n      and\n      0x00\n      swap1\n      dup2\n      mstore\n        /* \"42ERC20.sol\":3986:3995  balanceOf */\n      0x01\n        /* \"42ERC20.sol\":3986:3999  balanceOf[to] */\n      0x20\n      mstore\n      0x40\n      dup2\n      keccak256\n        /* \"42ERC20.sol\":3986:4009  balanceOf[to] += amount */\n      dup1\n      sload\n        /* \"42ERC20.sol\":4003:4009  amount */\n      dup5\n      swap3\n        /* \"42ERC20.sol\":3986:3999  balanceOf[to] */\n      swap1\n        /* \"42ERC20.sol\":3986:4009  balanceOf[to] += amount */\n      tag_81\n      swap1\n        /* \"42ERC20.sol\":4003:4009  amount */\n      dup5\n      swap1\n        /* \"42ERC20.sol\":3986:4009  balanceOf[to] += amount */\n      tag_73\n      jump\t// in\n    tag_81:\n      swap3\n      pop\n      pop\n      dup2\n      swap1\n      sstore\n      pop\n        /* \"42ERC20.sol\":4041:4043  to */\n      dup3\n        /* \"42ERC20.sol\":4024:4051  transferLog(from,to,amount) */\n      0xffffffffffffffffffffffffffffffffffffffff\n      and\n        /* \"42ERC20.sol\":4036:4040  from */\n      dup5\n        /* \"42ERC20.sol\":4024:4051  transferLog(from,to,amount) */\n      0xffffffffffffffffffffffffffffffffffffffff\n      and\n      0x2201ba208c4911c272080234aab59a1c2a0dc0be34da59b1a1f388c7c303c6ca\n        /* \"42ERC20.sol\":4044:4050  amount */\n      dup5\n        /* \"42ERC20.sol\":4024:4051  transferLog(from,to,amount) */\n      mload(0x40)\n      tag_82\n      swap2\n        /* \"#utility.yul\":2808:2833   */\n      dup2\n      mstore\n        /* \"#utility.yul\":2796:2798   */\n      0x20\n        /* \"#utility.yul\":2781:2799   */\n      add\n      swap1\n        /* \"#utility.yul\":2662:2839   */\n      jump\n        /* \"42ERC20.sol\":4024:4051  transferLog(from,to,amount) */\n    tag_82:\n      mload(0x40)\n      dup1\n      swap2\n      sub\n      swap1\n      log3\n      pop\n        /* \"42ERC20.sol\":4068:4072  true */\n      0x01\n        /* \"42ERC20.sol\":3567:4080  function transferFrom(address from,address to,uint256 amount)external override returns(bool){... */\n      swap4\n      swap3\n      pop\n      pop\n      pop\n      jump\t// out\n        /* \"42ERC20.sol\":4379:4549  function burn(uint amount)external {... */\n    tag_43:\n        /* \"42ERC20.sol\":4434:4444  msg.sender */\n      caller\n        /* \"42ERC20.sol\":4424:4445  balanceOf[msg.sender] */\n      0x00\n      swap1\n      dup2\n      mstore\n        /* \"42ERC20.sol\":4424:4433  balanceOf */\n      0x01\n        /* \"42ERC20.sol\":4424:4445  balanceOf[msg.sender] */\n      0x20\n      mstore\n      0x40\n      dup2\n      keccak256\n        /* \"42ERC20.sol\":4424:4455  balanceOf[msg.sender] -= amount */\n      dup1\n      sload\n        /* \"42ERC20.sol\":4449:4455  amount */\n      dup4\n      swap3\n        /* \"42ERC20.sol\":4424:4445  balanceOf[msg.sender] */\n      swap1\n        /* \"42ERC20.sol\":4424:4455  balanceOf[msg.sender] -= amount */\n      tag_84\n      swap1\n        /* \"42ERC20.sol\":4449:4455  amount */\n      dup5\n      swap1\n        /* \"42ERC20.sol\":4424:4455  balanceOf[msg.sender] -= amount */\n      tag_79\n      jump\t// in\n    tag_84:\n      swap3\n      pop\n      pop\n      dup2\n      swap1\n      sstore\n      pop\n        /* \"42ERC20.sol\":4480:4486  amount */\n      dup1\n        /* \"42ERC20.sol\":4465:4476  totalSupply */\n      0x00\n      dup1\n        /* \"42ERC20.sol\":4465:4486  totalSupply -= amount */\n      dup3\n      dup3\n      sload\n      tag_85\n      swap2\n      swap1\n      tag_79\n      jump\t// in\n    tag_85:\n      swap1\n      swap2\n      sstore\n      pop\n      pop\n        /* \"42ERC20.sol\":4501:4542  transferLog(msg.sender,address(0),amount) */\n      mload(0x40)\n        /* \"#utility.yul\":2808:2833   */\n      dup2\n      dup2\n      mstore\n        /* \"42ERC20.sol\":4532:4533  0 */\n      0x00\n      swap1\n        /* \"42ERC20.sol\":4513:4523  msg.sender */\n      caller\n      swap1\n        /* \"42ERC20.sol\":4501:4542  transferLog(msg.sender,address(0),amount) */\n      0x2201ba208c4911c272080234aab59a1c2a0dc0be34da59b1a1f388c7c303c6ca\n      swap1\n        /* \"#utility.yul\":2796:2798   */\n      0x20\n        /* \"#utility.yul\":2781:2799   */\n      add\n        /* \"42ERC20.sol\":4501:4542  transferLog(msg.sender,address(0),amount) */\n    tag_86:\n      mload(0x40)\n      dup1\n      swap2\n      sub\n      swap1\n      log3\n        /* \"42ERC20.sol\":4379:4549  function burn(uint amount)external {... */\n      pop\n      jump\t// out\n        /* \"42ERC20.sol\":2565:2594  string public symbol = \"Test\" */\n    tag_50:\n      0x04\n      dup1\n      sload\n      tag_64\n      swap1\n      tag_65\n      jump\t// in\n        /* \"42ERC20.sol\":4139:4311  function mint(uint amount)external {... */\n    tag_54:\n        /* \"42ERC20.sol\":4194:4204  msg.sender */\n      caller\n        /* \"42ERC20.sol\":4184:4205  balanceOf[msg.sender] */\n      0x00\n      swap1\n      dup2\n      mstore\n        /* \"42ERC20.sol\":4184:4193  balanceOf */\n      0x01\n        /* \"42ERC20.sol\":4184:4205  balanceOf[msg.sender] */\n      0x20\n      mstore\n      0x40\n      dup2\n      keccak256\n        /* \"42ERC20.sol\":4184:4215  balanceOf[msg.sender] += amount */\n      dup1\n      sload\n        /* \"42ERC20.sol\":4209:4215  amount */\n      dup4\n      swap3\n        /* \"42ERC20.sol\":4184:4205  balanceOf[msg.sender] */\n      swap1\n        /* \"42ERC20.sol\":4184:4215  balanceOf[msg.sender] += amount */\n      tag_93\n      swap1\n        /* \"42ERC20.sol\":4209:4215  amount */\n      dup5\n      swap1\n        /* \"42ERC20.sol\":4184:4215  balanceOf[msg.sender] += amount */\n      tag_73\n      jump\t// in\n    tag_93:\n      swap3\n      pop\n      pop\n      dup2\n      swap1\n      sstore\n      pop\n        /* \"42ERC20.sol\":4240:4246  amount */\n      dup1\n        /* \"42ERC20.sol\":4225:4236  totalSupply */\n      0x00\n      dup1\n        /* \"42ERC20.sol\":4225:4246  totalSupply += amount */\n      dup3\n      dup3\n      sload\n      tag_94\n      swap2\n      swap1\n      tag_73\n      jump\t// in\n    tag_94:\n      swap1\n      swap2\n      sstore\n      pop\n      pop\n        /* \"42ERC20.sol\":4261:4304  transferLog(address(0), msg.sender, amount) */\n      mload(0x40)\n        /* \"#utility.yul\":2808:2833   */\n      dup2\n      dup2\n      mstore\n        /* \"42ERC20.sol\":4285:4295  msg.sender */\n      caller\n      swap1\n        /* \"42ERC20.sol\":4281:4282  0 */\n      0x00\n      swap1\n        /* \"42ERC20.sol\":4261:4304  transferLog(address(0), msg.sender, amount) */\n      0x2201ba208c4911c272080234aab59a1c2a0dc0be34da59b1a1f388c7c303c6ca\n      swap1\n        /* \"#utility.yul\":2796:2798   */\n      0x20\n        /* \"#utility.yul\":2781:2799   */\n      add\n        /* \"42ERC20.sol\":4261:4304  transferLog(address(0), msg.sender, amount) */\n      tag_86\n        /* \"#utility.yul\":2662:2839   */\n      jump\n        /* \"42ERC20.sol\":3063:3309  function transfer(address recipient,uint256 amount)external override returns(bool){... */\n    tag_57:\n        /* \"42ERC20.sol\":3165:3175  msg.sender */\n      caller\n        /* \"42ERC20.sol\":3140:3144  bool */\n      0x00\n        /* \"42ERC20.sol\":3155:3176  balanceOf[msg.sender] */\n      swap1\n      dup2\n      mstore\n        /* \"42ERC20.sol\":3155:3164  balanceOf */\n      0x01\n        /* \"42ERC20.sol\":3155:3176  balanceOf[msg.sender] */\n      0x20\n      mstore\n      0x40\n      dup2\n      keccak256\n        /* \"42ERC20.sol\":3155:3186  balanceOf[msg.sender] -= amount */\n      dup1\n      sload\n        /* \"42ERC20.sol\":3180:3186  amount */\n      dup4\n      swap2\n        /* \"42ERC20.sol\":3155:3176  balanceOf[msg.sender] */\n      swap1\n        /* \"42ERC20.sol\":3140:3144  bool */\n      dup4\n      swap1\n        /* \"42ERC20.sol\":3155:3186  balanceOf[msg.sender] -= amount */\n      tag_97\n      swap1\n        /* \"42ERC20.sol\":3180:3186  amount */\n      dup5\n      swap1\n        /* \"42ERC20.sol\":3155:3186  balanceOf[msg.sender] -= amount */\n      tag_79\n      jump\t// in\n    tag_97:\n      swap1\n      swap2\n      sstore\n      pop\n      pop\n        /* \"42ERC20.sol\":3196:3216  balanceOf[recipient] */\n      0xffffffffffffffffffffffffffffffffffffffff\n      dup4\n      and\n      0x00\n      swap1\n      dup2\n      mstore\n        /* \"42ERC20.sol\":3196:3205  balanceOf */\n      0x01\n        /* \"42ERC20.sol\":3196:3216  balanceOf[recipient] */\n      0x20\n      mstore\n      0x40\n      dup2\n      keccak256\n        /* \"42ERC20.sol\":3196:3226  balanceOf[recipient] += amount */\n      dup1\n      sload\n        /* \"42ERC20.sol\":3220:3226  amount */\n      dup5\n      swap3\n        /* \"42ERC20.sol\":3196:3216  balanceOf[recipient] */\n      swap1\n        /* \"42ERC20.sol\":3196:3226  balanceOf[recipient] += amount */\n      tag_98\n      swap1\n        /* \"42ERC20.sol\":3220:3226  amount */\n      dup5\n      swap1\n        /* \"42ERC20.sol\":3196:3226  balanceOf[recipient] += amount */\n      tag_73\n      jump\t// in\n    tag_98:\n      swap1\n      swap2\n      sstore\n      pop\n      pop\n        /* \"42ERC20.sol\":3241:3281  transferLog(msg.sender,recipient,amount) */\n      mload(0x40)\n        /* \"#utility.yul\":2808:2833   */\n      dup3\n      dup2\n      mstore\n        /* \"42ERC20.sol\":3241:3281  transferLog(msg.sender,recipient,amount) */\n      0xffffffffffffffffffffffffffffffffffffffff\n      dup5\n      and\n      swap1\n        /* \"42ERC20.sol\":3253:3263  msg.sender */\n      caller\n      swap1\n        /* \"42ERC20.sol\":3241:3281  transferLog(msg.sender,recipient,amount) */\n      0x2201ba208c4911c272080234aab59a1c2a0dc0be34da59b1a1f388c7c303c6ca\n      swap1\n        /* \"#utility.yul\":2796:2798   */\n      0x20\n        /* \"#utility.yul\":2781:2799   */\n      add\n        /* \"42ERC20.sol\":3241:3281  transferLog(msg.sender,recipient,amount) */\n      mload(0x40)\n      dup1\n      swap2\n      sub\n      swap1\n      log3\n      pop\n        /* \"42ERC20.sol\":3298:3302  true */\n      0x01\n        /* \"42ERC20.sol\":3063:3309  function transfer(address recipient,uint256 amount)external override returns(bool){... */\n      swap3\n      swap2\n      pop\n      pop\n      jump\t// out\n        /* \"#utility.yul\":14:210   */\n    tag_101:\n        /* \"#utility.yul\":82:102   */\n      dup1\n      calldataload\n        /* \"#utility.yul\":142:184   */\n      0xffffffffffffffffffffffffffffffffffffffff\n        /* \"#utility.yul\":131:185   */\n      dup2\n      and\n        /* \"#utility.yul\":121:186   */\n      dup2\n      eq\n        /* \"#utility.yul\":111:204   */\n      tag_103\n      jumpi\n        /* \"#utility.yul\":200:201   */\n      0x00\n        /* \"#utility.yul\":197:198   */\n      dup1\n        /* \"#utility.yul\":190:202   */\n      revert\n        /* \"#utility.yul\":111:204   */\n    tag_103:\n        /* \"#utility.yul\":14:210   */\n      swap2\n      swap1\n      pop\n      jump\t// out\n        /* \"#utility.yul\":215:401   */\n    tag_46:\n        /* \"#utility.yul\":274:280   */\n      0x00\n        /* \"#utility.yul\":327:329   */\n      0x20\n        /* \"#utility.yul\":315:324   */\n      dup3\n        /* \"#utility.yul\":306:313   */\n      dup5\n        /* \"#utility.yul\":302:325   */\n      sub\n        /* \"#utility.yul\":298:330   */\n      slt\n        /* \"#utility.yul\":295:347   */\n      iszero\n      tag_105\n      jumpi\n        /* \"#utility.yul\":343:344   */\n      0x00\n        /* \"#utility.yul\":340:341   */\n      dup1\n        /* \"#utility.yul\":333:345   */\n      revert\n        /* \"#utility.yul\":295:347   */\n    tag_105:\n        /* \"#utility.yul\":366:395   */\n      tag_106\n        /* \"#utility.yul\":385:394   */\n      dup3\n        /* \"#utility.yul\":366:395   */\n      tag_101\n      jump\t// in\n    tag_106:\n        /* \"#utility.yul\":356:395   */\n      swap4\n        /* \"#utility.yul\":215:401   */\n      swap3\n      pop\n      pop\n      pop\n      jump\t// out\n        /* \"#utility.yul\":406:666   */\n    tag_61:\n        /* \"#utility.yul\":474:480   */\n      0x00\n        /* \"#utility.yul\":482:488   */\n      dup1\n        /* \"#utility.yul\":535:537   */\n      0x40\n        /* \"#utility.yul\":523:532   */\n      dup4\n        /* \"#utility.yul\":514:521   */\n      dup6\n        /* \"#utility.yul\":510:533   */\n      sub\n        /* \"#utility.yul\":506:538   */\n      slt\n        /* \"#utility.yul\":503:555   */\n      iszero\n      tag_108\n      jumpi\n        /* \"#utility.yul\":551:552   */\n      0x00\n        /* \"#utility.yul\":548:549   */\n      dup1\n        /* \"#utility.yul\":541:553   */\n      revert\n        /* \"#utility.yul\":503:555   */\n    tag_108:\n        /* \"#utility.yul\":574:603   */\n      tag_109\n        /* \"#utility.yul\":593:602   */\n      dup4\n        /* \"#utility.yul\":574:603   */\n      tag_101\n      jump\t// in\n    tag_109:\n        /* \"#utility.yul\":564:603   */\n      swap2\n      pop\n        /* \"#utility.yul\":622:660   */\n      tag_110\n        /* \"#utility.yul\":656:658   */\n      0x20\n        /* \"#utility.yul\":645:654   */\n      dup5\n        /* \"#utility.yul\":641:659   */\n      add\n        /* \"#utility.yul\":622:660   */\n      tag_101\n      jump\t// in\n    tag_110:\n        /* \"#utility.yul\":612:660   */\n      swap1\n      pop\n        /* \"#utility.yul\":406:666   */\n      swap3\n      pop\n      swap3\n      swap1\n      pop\n      jump\t// out\n        /* \"#utility.yul\":671:999   */\n    tag_33:\n        /* \"#utility.yul\":748:754   */\n      0x00\n        /* \"#utility.yul\":756:762   */\n      dup1\n        /* \"#utility.yul\":764:770   */\n      0x00\n        /* \"#utility.yul\":817:819   */\n      0x60\n        /* \"#utility.yul\":805:814   */\n      dup5\n        /* \"#utility.yul\":796:803   */\n      dup7\n        /* \"#utility.yul\":792:815   */\n      sub\n        /* \"#utility.yul\":788:820   */\n      slt\n        /* \"#utility.yul\":785:837   */\n      iszero\n      tag_112\n      jumpi\n        /* \"#utility.yul\":833:834   */\n      0x00\n        /* \"#utility.yul\":830:831   */\n      dup1\n        /* \"#utility.yul\":823:835   */\n      revert\n        /* \"#utility.yul\":785:837   */\n    tag_112:\n        /* \"#utility.yul\":856:885   */\n      tag_113\n        /* \"#utility.yul\":875:884   */\n      dup5\n        /* \"#utility.yul\":856:885   */\n      tag_101\n      jump\t// in\n    tag_113:\n        /* \"#utility.yul\":846:885   */\n      swap3\n      pop\n        /* \"#utility.yul\":904:942   */\n      tag_114\n        /* \"#utility.yul\":938:940   */\n      0x20\n        /* \"#utility.yul\":927:936   */\n      dup6\n        /* \"#utility.yul\":923:941   */\n      add\n        /* \"#utility.yul\":904:942   */\n      tag_101\n      jump\t// in\n    tag_114:\n        /* \"#utility.yul\":894:942   */\n      swap2\n      pop\n        /* \"#utility.yul\":989:991   */\n      0x40\n        /* \"#utility.yul\":978:987   */\n      dup5\n        /* \"#utility.yul\":974:992   */\n      add\n        /* \"#utility.yul\":961:993   */\n      calldataload\n        /* \"#utility.yul\":951:993   */\n      swap1\n      pop\n        /* \"#utility.yul\":671:999   */\n      swap3\n      pop\n      swap3\n      pop\n      swap3\n      jump\t// out\n        /* \"#utility.yul\":1004:1258   */\n    tag_23:\n        /* \"#utility.yul\":1072:1078   */\n      0x00\n        /* \"#utility.yul\":1080:1086   */\n      dup1\n        /* \"#utility.yul\":1133:1135   */\n      0x40\n        /* \"#utility.yul\":1121:1130   */\n      dup4\n        /* \"#utility.yul\":1112:1119   */\n      dup6\n        /* \"#utility.yul\":1108:1131   */\n      sub\n        /* \"#utility.yul\":1104:1136   */\n      slt\n        /* \"#utility.yul\":1101:1153   */\n      iszero\n      tag_116\n      jumpi\n        /* \"#utility.yul\":1149:1150   */\n      0x00\n        /* \"#utility.yul\":1146:1147   */\n      dup1\n        /* \"#utility.yul\":1139:1151   */\n      revert\n        /* \"#utility.yul\":1101:1153   */\n    tag_116:\n        /* \"#utility.yul\":1172:1201   */\n      tag_117\n        /* \"#utility.yul\":1191:1200   */\n      dup4\n        /* \"#utility.yul\":1172:1201   */\n      tag_101\n      jump\t// in\n    tag_117:\n        /* \"#utility.yul\":1162:1201   */\n      swap5\n        /* \"#utility.yul\":1248:1250   */\n      0x20\n        /* \"#utility.yul\":1233:1251   */\n      swap4\n      swap1\n      swap4\n      add\n        /* \"#utility.yul\":1220:1252   */\n      calldataload\n      swap4\n      pop\n      pop\n      pop\n        /* \"#utility.yul\":1004:1258   */\n      jump\t// out\n        /* \"#utility.yul\":1263:1443   */\n    tag_42:\n        /* \"#utility.yul\":1322:1328   */\n      0x00\n        /* \"#utility.yul\":1375:1377   */\n      0x20\n        /* \"#utility.yul\":1363:1372   */\n      dup3\n        /* \"#utility.yul\":1354:1361   */\n      dup5\n        /* \"#utility.yul\":1350:1373   */\n      sub\n        /* \"#utility.yul\":1346:1378   */\n      slt\n        /* \"#utility.yul\":1343:1395   */\n      iszero\n      tag_119\n      jumpi\n        /* \"#utility.yul\":1391:1392   */\n      0x00\n        /* \"#utility.yul\":1388:1389   */\n      dup1\n        /* \"#utility.yul\":1381:1393   */\n      revert\n        /* \"#utility.yul\":1343:1395   */\n    tag_119:\n      pop\n        /* \"#utility.yul\":1414:1437   */\n      calldataload\n      swap2\n        /* \"#utility.yul\":1263:1443   */\n      swap1\n      pop\n      jump\t// out\n        /* \"#utility.yul\":1640:2296   */\n    tag_20:\n        /* \"#utility.yul\":1752:1756   */\n      0x00\n        /* \"#utility.yul\":1781:1783   */\n      0x20\n        /* \"#utility.yul\":1810:1812   */\n      dup1\n        /* \"#utility.yul\":1799:1808   */\n      dup4\n        /* \"#utility.yul\":1792:1813   */\n      mstore\n        /* \"#utility.yul\":1842:1848   */\n      dup4\n        /* \"#utility.yul\":1836:1849   */\n      mload\n        /* \"#utility.yul\":1885:1891   */\n      dup1\n        /* \"#utility.yul\":1880:1882   */\n      dup3\n        /* \"#utility.yul\":1869:1878   */\n      dup6\n        /* \"#utility.yul\":1865:1883   */\n      add\n        /* \"#utility.yul\":1858:1892   */\n      mstore\n        /* \"#utility.yul\":1910:1911   */\n      0x00\n        /* \"#utility.yul\":1920:2060   */\n    tag_122:\n        /* \"#utility.yul\":1934:1940   */\n      dup2\n        /* \"#utility.yul\":1931:1932   */\n      dup2\n        /* \"#utility.yul\":1928:1941   */\n      lt\n        /* \"#utility.yul\":1920:2060   */\n      iszero\n      tag_124\n      jumpi\n        /* \"#utility.yul\":2029:2043   */\n      dup6\n      dup2\n      add\n        /* \"#utility.yul\":2025:2048   */\n      dup4\n      add\n        /* \"#utility.yul\":2019:2049   */\n      mload\n        /* \"#utility.yul\":1995:2012   */\n      dup6\n      dup3\n      add\n        /* \"#utility.yul\":2014:2016   */\n      0x40\n        /* \"#utility.yul\":1991:2017   */\n      add\n        /* \"#utility.yul\":1984:2050   */\n      mstore\n        /* \"#utility.yul\":1949:1959   */\n      dup3\n      add\n        /* \"#utility.yul\":1920:2060   */\n      jump(tag_122)\n    tag_124:\n        /* \"#utility.yul\":2078:2084   */\n      dup2\n        /* \"#utility.yul\":2075:2076   */\n      dup2\n        /* \"#utility.yul\":2072:2085   */\n      gt\n        /* \"#utility.yul\":2069:2160   */\n      iszero\n      tag_125\n      jumpi\n        /* \"#utility.yul\":2148:2149   */\n      0x00\n        /* \"#utility.yul\":2143:2145   */\n      0x40\n        /* \"#utility.yul\":2134:2140   */\n      dup4\n        /* \"#utility.yul\":2123:2132   */\n      dup8\n        /* \"#utility.yul\":2119:2141   */\n      add\n        /* \"#utility.yul\":2115:2146   */\n      add\n        /* \"#utility.yul\":2108:2150   */\n      mstore\n        /* \"#utility.yul\":2069:2160   */\n    tag_125:\n      pop\n        /* \"#utility.yul\":2212:2214   */\n      0x1f\n        /* \"#utility.yul\":2200:2215   */\n      add\n        /* \"#utility.yul\":2217:2283   */\n      0xffffffffffffffffffffffffffffffffffffffffffffffffffffffffffffffe0\n        /* \"#utility.yul\":2196:2284   */\n      and\n        /* \"#utility.yul\":2181:2285   */\n      swap3\n      swap1\n      swap3\n      add\n        /* \"#utility.yul\":2287:2289   */\n      0x40\n        /* \"#utility.yul\":2177:2290   */\n      add\n      swap4\n        /* \"#utility.yul\":1640:2296   */\n      swap3\n      pop\n      pop\n      pop\n      jump\t// out\n        /* \"#utility.yul\":3033:3161   */\n    tag_73:\n        /* \"#utility.yul\":3073:3076   */\n      0x00\n        /* \"#utility.yul\":3104:3105   */\n      dup3\n        /* \"#utility.yul\":3100:3106   */\n      not\n        /* \"#utility.yul\":3097:3098   */\n      dup3\n        /* \"#utility.yul\":3094:3107   */\n      gt\n        /* \"#utility.yul\":3091:3130   */\n      iszero\n      tag_131\n      jumpi\n        /* \"#utility.yul\":3110:3128   */\n      tag_131\n      tag_132\n      jump\t// in\n    tag_131:\n      pop\n        /* \"#utility.yul\":3146:3155   */\n      add\n      swap1\n        /* \"#utility.yul\":3033:3161   */\n      jump\t// out\n        /* \"#utility.yul\":3166:3291   */\n    tag_79:\n        /* \"#utility.yul\":3206:3210   */\n      0x00\n        /* \"#utility.yul\":3234:3235   */\n      dup3\n        /* \"#utility.yul\":3231:3232   */\n      dup3\n        /* \"#utility.yul\":3228:3236   */\n      lt\n        /* \"#utility.yul\":3225:3259   */\n      iszero\n      tag_135\n      jumpi\n        /* \"#utility.yul\":3239:3257   */\n      tag_135\n      tag_132\n      jump\t// in\n    tag_135:\n      pop\n        /* \"#utility.yul\":3276:3285   */\n      sub\n      swap1\n        /* \"#utility.yul\":3166:3291   */\n      jump\t// out\n        /* \"#utility.yul\":3296:3733   */\n    tag_65:\n        /* \"#utility.yul\":3375:3376   */\n      0x01\n        /* \"#utility.yul\":3371:3383   */\n      dup2\n      dup2\n      shr\n      swap1\n        /* \"#utility.yul\":3418:3430   */\n      dup3\n      and\n      dup1\n        /* \"#utility.yul\":3439:3500   */\n      tag_137\n      jumpi\n        /* \"#utility.yul\":3493:3497   */\n      0x7f\n        /* \"#utility.yul\":3485:3491   */\n      dup3\n        /* \"#utility.yul\":3481:3498   */\n      and\n        /* \"#utility.yul\":3471:3498   */\n      swap2\n      pop\n        /* \"#utility.yul\":3439:3500   */\n    tag_137:\n        /* \"#utility.yul\":3546:3548   */\n      0x20\n        /* \"#utility.yul\":3538:3544   */\n      dup3\n        /* \"#utility.yul\":3535:3549   */\n      lt\n        /* \"#utility.yul\":3515:3533   */\n      dup2\n        /* \"#utility.yul\":3512:3550   */\n      eq\n        /* \"#utility.yul\":3509:3727   */\n      iszero\n      tag_138\n      jumpi\n        /* \"#utility.yul\":3583:3660   */\n      0x4e487b7100000000000000000000000000000000000000000000000000000000\n        /* \"#utility.yul\":3580:3581   */\n      0x00\n        /* \"#utility.yul\":3573:3661   */\n      mstore\n        /* \"#utility.yul\":3684:3688   */\n      0x22\n        /* \"#utility.yul\":3681:3682   */\n      0x04\n        /* \"#utility.yul\":3674:3689   */\n      mstore\n        /* \"#utility.yul\":3712:3716   */\n      0x24\n        /* \"#utility.yul\":3709:3710   */\n      0x00\n        /* \"#utility.yul\":3702:3717   */\n      revert\n        /* \"#utility.yul\":3509:3727   */\n    tag_138:\n      pop\n        /* \"#utility.yul\":3296:3733   */\n      swap2\n      swap1\n      pop\n      jump\t// out\n        /* \"#utility.yul\":3738:3922   */\n    tag_132:\n        /* \"#utility.yul\":3790:3867   */\n      0x4e487b7100000000000000000000000000000000000000000000000000000000\n        /* \"#utility.yul\":3787:3788   */\n      0x00\n        /* \"#utility.yul\":3780:3868   */\n      mstore\n        /* \"#utility.yul\":3887:3891   */\n      0x11\n        /* \"#utility.yul\":3884:3885   */\n      0x04\n        /* \"#utility.yul\":3877:3892   */\n      mstore\n        /* \"#utility.yul\":3911:3915   */\n      0x24\n        /* \"#utility.yul\":3908:3909   */\n      0x00\n        /* \"#utility.yul\":3901:3916   */\n      revert\n\n    auxdata: 0xa2646970667358221220f1922fb92f7e4050d9d801d004d8a778612d56c1f9b45a896efaa58737aad3fe64736f6c63430008070033\n}\n",
				"bytecode": {
					"linkReferences": {},
					"object": "60c0604052600460808190526315195cdd60e21b60a0908152620000279160039190620000c5565b506040805180820190915260048082526315195cdd60e21b6020909201918252620000539181620000c5565b506005805460ff191660121790553480156200006e57600080fd5b5060405162000be438038062000be4833981016040819052620000919162000222565b8151620000a6906003906020850190620000c5565b508051620000bc906004906020840190620000c5565b505050620002df565b828054620000d3906200028c565b90600052602060002090601f016020900481019282620000f7576000855562000142565b82601f106200011257805160ff191683800117855562000142565b8280016001018555821562000142579182015b828111156200014257825182559160200191906001019062000125565b506200015092915062000154565b5090565b5b8082111562000150576000815560010162000155565b600082601f8301126200017d57600080fd5b81516001600160401b03808211156200019a576200019a620002c9565b604051601f8301601f19908116603f01168101908282118183101715620001c557620001c5620002c9565b81604052838152602092508683858801011115620001e257600080fd5b600091505b83821015620002065785820183015181830184015290820190620001e7565b83821115620002185760008385830101525b9695505050505050565b600080604083850312156200023657600080fd5b82516001600160401b03808211156200024e57600080fd5b6200025c868387016200016b565b935060208501519150808211156200027357600080fd5b5062000282858286016200016b565b9150509250929050565b600181811c90821680620002a157607f821691505b60208210811415620002c357634e487b7160e01b600052602260045260246000fd5b50919050565b634e487b7160e01b600052604160045260246000fd5b6108f580620002ef6000396000f3fe608060405234801561001057600080fd5b50600436106100c95760003560e01c806342966c6811610081578063a0712d681161005b578063a0712d6814610195578063a9059cbb146101a8578063dd62ed3e146101bb57600080fd5b806342966c681461015857806370a082311461016d57806395d89b411461018d57600080fd5b806318160ddd116100b257806318160ddd1461010f57806323b872dd14610126578063313ce5671461013957600080fd5b806306fdde03146100ce578063095ea7b3146100ec575b600080fd5b6100d66101e6565b6040516100e3919061079a565b60405180910390f35b6100ff6100fa366004610757565b610274565b60405190151581526020016100e3565b61011860005481565b6040519081526020016100e3565b6100ff61013436600461071b565b610327565b6005546101469060ff1681565b60405160ff90911681526020016100e3565b61016b610166366004610781565b6104f1565b005b61011861017b3660046106c6565b60016020526000908152604090205481565b6100d6610569565b61016b6101a3366004610781565b610576565b6100ff6101b6366004610757565b6105e7565b6101186101c93660046106e8565b600260209081526000928352604080842090915290825290205481565b600380546101f39061083c565b80601f016020809104026020016040519081016040528092919081815260200182805461021f9061083c565b801561026c5780601f106102415761010080835404028352916020019161026c565b820191906000526020600020905b81548152906001019060200180831161024f57829003601f168201915b505050505081565b33600081815260026020908152604080832073ffffffffffffffffffffffffffffffffffffffff8716808552925280832085905551919290917f1d64a338236710e317fc91de1d5aeefd2c1afdbb0f77cd8e6995fd9c4be14310906102dc9086815260200190565b60405180910390a373ffffffffffffffffffffffffffffffffffffffff83166000908152600160205260408120805484929061031990849061080d565b909155506001949350505050565b73ffffffffffffffffffffffffffffffffffffffff831660009081526002602090815260408083203384529091528120548210156103c5576040517f08c379a000000000000000000000000000000000000000000000000000000000815260206004820181905260248201527f616c6c6f77616e6365206d6f6e6579206c657373207468616e20616d6f756e74604482015260640160405180910390fd5b73ffffffffffffffffffffffffffffffffffffffff8416600090815260026020908152604080832033845290915281208054849290610405908490610825565b909155505073ffffffffffffffffffffffffffffffffffffffff84166000908152600160205260408120805484929061043f908490610825565b909155505073ffffffffffffffffffffffffffffffffffffffff83166000908152600160205260408120805484929061047990849061080d565b925050819055508273ffffffffffffffffffffffffffffffffffffffff168473ffffffffffffffffffffffffffffffffffffffff167f2201ba208c4911c272080234aab59a1c2a0dc0be34da59b1a1f388c7c303c6ca846040516104df91815260200190565b60405180910390a35060019392505050565b3360009081526001602052604081208054839290610510908490610825565b92505081905550806000808282546105289190610825565b909155505060405181815260009033907f2201ba208c4911c272080234aab59a1c2a0dc0be34da59b1a1f388c7c303c6ca906020015b60405180910390a350565b600480546101f39061083c565b336000908152600160205260408120805483929061059590849061080d565b92505081905550806000808282546105ad919061080d565b909155505060405181815233906000907f2201ba208c4911c272080234aab59a1c2a0dc0be34da59b1a1f388c7c303c6ca9060200161055e565b33600090815260016020526040812080548391908390610608908490610825565b909155505073ffffffffffffffffffffffffffffffffffffffff83166000908152600160205260408120805484929061064290849061080d565b909155505060405182815273ffffffffffffffffffffffffffffffffffffffff84169033907f2201ba208c4911c272080234aab59a1c2a0dc0be34da59b1a1f388c7c303c6ca9060200160405180910390a350600192915050565b803573ffffffffffffffffffffffffffffffffffffffff811681146106c157600080fd5b919050565b6000602082840312156106d857600080fd5b6106e18261069d565b9392505050565b600080604083850312156106fb57600080fd5b6107048361069d565b91506107126020840161069d565b90509250929050565b60008060006060848603121561073057600080fd5b6107398461069d565b92506107476020850161069d565b9150604084013590509250925092565b6000806040838503121561076a57600080fd5b6107738361069d565b946020939093013593505050565b60006020828403121561079357600080fd5b5035919050565b600060208083528351808285015260005b818110156107c7578581018301518582016040015282016107ab565b818111156107d9576000604083870101525b50601f017fffffffffffffffffffffffffffffffffffffffffffffffffffffffffffffffe016929092016040019392505050565b6000821982111561082057610820610890565b500190565b60008282101561083757610837610890565b500390565b600181811c9082168061085057607f821691505b6020821081141561088a577f4e487b7100000000000000000000000000000000000000000000000000000000600052602260045260246000fd5b50919050565b7f4e487b7100000000000000000000000000000000000000000000000000000000600052601160045260246000fdfea2646970667358221220f1922fb92f7e4050d9d801d004d8a778612d56c1f9b45a896efaa58737aad3fe64736f6c63430008070033",
					"opcodes": "PUSH1 0xC0 PUSH1 0x40 MSTORE PUSH1 0x4 PUSH1 0x80 DUP2 SWAP1 MSTORE PUSH4 0x15195CDD PUSH1 0xE2 SHL PUSH1 0xA0 SWAP1 DUP2 MSTORE PUSH3 0x27 SWAP2 PUSH1 0x3 SWAP2 SWAP1 PUSH3 0xC5 JUMP JUMPDEST POP PUSH1 0x40 DUP1 MLOAD DUP1 DUP3 ADD SWAP1 SWAP2 MSTORE PUSH1 0x4 DUP1 DUP3 MSTORE PUSH4 0x15195CDD PUSH1 0xE2 SHL PUSH1 0x20 SWAP1 SWAP3 ADD SWAP2 DUP3 MSTORE PUSH3 0x53 SWAP2 DUP2 PUSH3 0xC5 JUMP JUMPDEST POP PUSH1 0x5 DUP1 SLOAD PUSH1 0xFF NOT AND PUSH1 0x12 OR SWAP1 SSTORE CALLVALUE DUP1 ISZERO PUSH3 0x6E JUMPI PUSH1 0x0 DUP1 REVERT JUMPDEST POP PUSH1 0x40 MLOAD PUSH3 0xBE4 CODESIZE SUB DUP1 PUSH3 0xBE4 DUP4 CODECOPY DUP2 ADD PUSH1 0x40 DUP2 SWAP1 MSTORE PUSH3 0x91 SWAP2 PUSH3 0x222 JUMP JUMPDEST DUP2 MLOAD PUSH3 0xA6 SWAP1 PUSH1 0x3 SWAP1 PUSH1 0x20 DUP6 ADD SWAP1 PUSH3 0xC5 JUMP JUMPDEST POP DUP1 MLOAD PUSH3 0xBC SWAP1 PUSH1 0x4 SWAP1 PUSH1 0x20 DUP5 ADD SWAP1 PUSH3 0xC5 JUMP JUMPDEST POP POP POP PUSH3 0x2DF JUMP JUMPDEST DUP3 DUP1 SLOAD PUSH3 0xD3 SWAP1 PUSH3 0x28C JUMP JUMPDEST SWAP1 PUSH1 0x0 MSTORE PUSH1 0x20 PUSH1 0x0 KECCAK256 SWAP1 PUSH1 0x1F ADD PUSH1 0x20 SWAP1 DIV DUP2 ADD SWAP3 DUP3 PUSH3 0xF7 JUMPI PUSH1 0x0 DUP6 SSTORE PUSH3 0x142 JUMP JUMPDEST DUP3 PUSH1 0x1F LT PUSH3 0x112 JUMPI DUP1 MLOAD PUSH1 0xFF NOT AND DUP4 DUP1 ADD OR DUP6 SSTORE PUSH3 0x142 JUMP JUMPDEST DUP3 DUP1 ADD PUSH1 0x1 ADD DUP6 SSTORE DUP3 ISZERO PUSH3 0x142 JUMPI SWAP2 DUP3 ADD JUMPDEST DUP3 DUP2 GT ISZERO PUSH3 0x142 JUMPI DUP3 MLOAD DUP3 SSTORE SWAP2 PUSH1 0x20 ADD SWAP2 SWAP1 PUSH1 0x1 ADD SWAP1 PUSH3 0x125 JUMP JUMPDEST POP PUSH3 0x150 SWAP3 SWAP2 POP PUSH3 0x154 JUMP JUMPDEST POP SWAP1 JUMP JUMPDEST JUMPDEST DUP1 DUP3 GT ISZERO PUSH3 0x150 JUMPI PUSH1 0x0 DUP2 SSTORE PUSH1 0x1 ADD PUSH3 0x155 JUMP JUMPDEST PUSH1 0x0 DUP3 PUSH1 0x1F DUP4 ADD SLT PUSH3 0x17D JUMPI PUSH1 0x0 DUP1 REVERT JUMPDEST DUP2 MLOAD PUSH1 0x1 PUSH1 0x1 PUSH1 0x40 SHL SUB DUP1 DUP3 GT ISZERO PUSH3 0x19A JUMPI PUSH3 0x19A PUSH3 0x2C9 JUMP JUMPDEST PUSH1 0x40 MLOAD PUSH1 0x1F DUP4 ADD PUSH1 0x1F NOT SWAP1 DUP2 AND PUSH1 0x3F ADD AND DUP2 ADD SWAP1 DUP3 DUP3 GT DUP2 DUP4 LT OR ISZERO PUSH3 0x1C5 JUMPI PUSH3 0x1C5 PUSH3 0x2C9 JUMP JUMPDEST DUP2 PUSH1 0x40 MSTORE DUP4 DUP2 MSTORE PUSH1 0x20 SWAP3 POP DUP7 DUP4 DUP6 DUP9 ADD ADD GT ISZERO PUSH3 0x1E2 JUMPI PUSH1 0x0 DUP1 REVERT JUMPDEST PUSH1 0x0 SWAP2 POP JUMPDEST DUP4 DUP3 LT ISZERO PUSH3 0x206 JUMPI DUP6 DUP3 ADD DUP4 ADD MLOAD DUP2 DUP4 ADD DUP5 ADD MSTORE SWAP1 DUP3 ADD SWAP1 PUSH3 0x1E7 JUMP JUMPDEST DUP4 DUP3 GT ISZERO PUSH3 0x218 JUMPI PUSH1 0x0 DUP4 DUP6 DUP4 ADD ADD MSTORE JUMPDEST SWAP7 SWAP6 POP POP POP POP POP POP JUMP JUMPDEST PUSH1 0x0 DUP1 PUSH1 0x40 DUP4 DUP6 SUB SLT ISZERO PUSH3 0x236 JUMPI PUSH1 0x0 DUP1 REVERT JUMPDEST DUP3 MLOAD PUSH1 0x1 PUSH1 0x1 PUSH1 0x40 SHL SUB DUP1 DUP3 GT ISZERO PUSH3 0x24E JUMPI PUSH1 0x0 DUP1 REVERT JUMPDEST PUSH3 0x25C DUP7 DUP4 DUP8 ADD PUSH3 0x16B JUMP JUMPDEST SWAP4 POP PUSH1 0x20 DUP6 ADD MLOAD SWAP2 POP DUP1 DUP3 GT ISZERO PUSH3 0x273 JUMPI PUSH1 0x0 DUP1 REVERT JUMPDEST POP PUSH3 0x282 DUP6 DUP3 DUP7 ADD PUSH3 0x16B JUMP JUMPDEST SWAP2 POP POP SWAP3 POP SWAP3 SWAP1 POP JUMP JUMPDEST PUSH1 0x1 DUP2 DUP2 SHR SWAP1 DUP3 AND DUP1 PUSH3 0x2A1 JUMPI PUSH1 0x7F DUP3 AND SWAP2 POP JUMPDEST PUSH1 0x20 DUP3 LT DUP2 EQ ISZERO PUSH3 0x2C3 JUMPI PUSH4 0x4E487B71 PUSH1 0xE0 SHL PUSH1 0x0 MSTORE PUSH1 0x22 PUSH1 0x4 MSTORE PUSH1 0x24 PUSH1 0x0 REVERT JUMPDEST POP SWAP2 SWAP1 POP JUMP JUMPDEST PUSH4 0x4E487B71 PUSH1 0xE0 SHL PUSH1 0x0 MSTORE PUSH1 0x41 PUSH1 0x4 MSTORE PUSH1 0x24 PUSH1 0x0 REVERT JUMPDEST PUSH2 0x8F5 DUP1 PUSH3 0x2EF PUSH1 0x0 CODECOPY PUSH1 0x0 RETURN INVALID PUSH1 0x80 PUSH1 0x40 MSTORE CALLVALUE DUP1 ISZERO PUSH2 0x10 JUMPI PUSH1 0x0 DUP1 REVERT JUMPDEST POP PUSH1 0x4 CALLDATASIZE LT PUSH2 0xC9 JUMPI PUSH1 0x0 CALLDATALOAD PUSH1 0xE0 SHR DUP1 PUSH4 0x42966C68 GT PUSH2 0x81 JUMPI DUP1 PUSH4 0xA0712D68 GT PUSH2 0x5B JUMPI DUP1 PUSH4 0xA0712D68 EQ PUSH2 0x195 JUMPI DUP1 PUSH4 0xA9059CBB EQ PUSH2 0x1A8 JUMPI DUP1 PUSH4 0xDD62ED3E EQ PUSH2 0x1BB JUMPI PUSH1 0x0 DUP1 REVERT JUMPDEST DUP1 PUSH4 0x42966C68 EQ PUSH2 0x158 JUMPI DUP1 PUSH4 0x70A08231 EQ PUSH2 0x16D JUMPI DUP1 PUSH4 0x95D89B41 EQ PUSH2 0x18D JUMPI PUSH1 0x0 DUP1 REVERT JUMPDEST DUP1 PUSH4 0x18160DDD GT PUSH2 0xB2 JUMPI DUP1 PUSH4 0x18160DDD EQ PUSH2 0x10F JUMPI DUP1 PUSH4 0x23B872DD EQ PUSH2 0x126 JUMPI DUP1 PUSH4 0x313CE567 EQ PUSH2 0x139 JUMPI PUSH1 0x0 DUP1 REVERT JUMPDEST DUP1 PUSH4 0x6FDDE03 EQ PUSH2 0xCE JUMPI DUP1 PUSH4 0x95EA7B3 EQ PUSH2 0xEC JUMPI JUMPDEST PUSH1 0x0 DUP1 REVERT JUMPDEST PUSH2 0xD6 PUSH2 0x1E6 JUMP JUMPDEST PUSH1 0x40 MLOAD PUSH2 0xE3 SWAP2 SWAP1 PUSH2 0x79A JUMP JUMPDEST PUSH1 0x40 MLOAD DUP1 SWAP2 SUB SWAP1 RETURN JUMPDEST PUSH2 0xFF PUSH2 0xFA CALLDATASIZE PUSH1 0x4 PUSH2 0x757 JUMP JUMPDEST PUSH2 0x274 JUMP JUMPDEST PUSH1 0x40 MLOAD SWAP1 ISZERO ISZERO DUP2 MSTORE PUSH1 0x20 ADD PUSH2 0xE3 JUMP JUMPDEST PUSH2 0x118 PUSH1 0x0 SLOAD DUP2 JUMP JUMPDEST PUSH1 0x40 MLOAD SWAP1 DUP2 MSTORE PUSH1 0x20 ADD PUSH2 0xE3 JUMP JUMPDEST PUSH2 0xFF PUSH2 0x134 CALLDATASIZE PUSH1 0x4 PUSH2 0x71B JUMP JUMPDEST PUSH2 0x327 JUMP JUMPDEST PUSH1 0x5 SLOAD PUSH2 0x146 SWAP1 PUSH1 0xFF AND DUP2 JUMP JUMPDEST PUSH1 0x40 MLOAD PUSH1 0xFF SWAP1 SWAP2 AND DUP2 MSTORE PUSH1 0x20 ADD PUSH2 0xE3 JUMP JUMPDEST PUSH2 0x16B PUSH2 0x166 CALLDATASIZE PUSH1 0x4 PUSH2 0x781 JUMP JUMPDEST PUSH2 0x4F1 JUMP JUMPDEST STOP JUMPDEST PUSH2 0x118 PUSH2 0x17B CALLDATASIZE PUSH1 0x4 PUSH2 0x6C6 JUMP JUMPDEST PUSH1 0x1 PUSH1 0x20 MSTORE PUSH1 0x0 SWAP1 DUP2 MSTORE PUSH1 0x40 SWAP1 KECCAK256 SLOAD DUP2 JUMP JUMPDEST PUSH2 0xD6 PUSH2 0x569 JUMP JUMPDEST PUSH2 0x16B PUSH2 0x1A3 CALLDATASIZE PUSH1 0x4 PUSH2 0x781 JUMP JUMPDEST PUSH2 0x576 JUMP JUMPDEST PUSH2 0xFF PUSH2 0x1B6 CALLDATASIZE PUSH1 0x4 PUSH2 0x757 JUMP JUMPDEST PUSH2 0x5E7 JUMP JUMPDEST PUSH2 0x118 PUSH2 0x1C9 CALLDATASIZE PUSH1 0x4 PUSH2 0x6E8 JUMP JUMPDEST PUSH1 0x2 PUSH1 0x20 SWAP1 DUP2 MSTORE PUSH1 0x0 SWAP3 DUP4 MSTORE PUSH1 0x40 DUP1 DUP5 KECCAK256 SWAP1 SWAP2 MSTORE SWAP1 DUP3 MSTORE SWAP1 KECCAK256 SLOAD DUP2 JUMP JUMPDEST PUSH1 0x3 DUP1 SLOAD PUSH2 0x1F3 SWAP1 PUSH2 0x83C JUMP JUMPDEST DUP1 PUSH1 0x1F ADD PUSH1 0x20 DUP1 SWAP2 DIV MUL PUSH1 0x20 ADD PUSH1 0x40 MLOAD SWAP1 DUP2 ADD PUSH1 0x40 MSTORE DUP1 SWAP3 SWAP2 SWAP1 DUP2 DUP2 MSTORE PUSH1 0x20 ADD DUP3 DUP1 SLOAD PUSH2 0x21F SWAP1 PUSH2 0x83C JUMP JUMPDEST DUP1 ISZERO PUSH2 0x26C JUMPI DUP1 PUSH1 0x1F LT PUSH2 0x241 JUMPI PUSH2 0x100 DUP1 DUP4 SLOAD DIV MUL DUP4 MSTORE SWAP2 PUSH1 0x20 ADD SWAP2 PUSH2 0x26C JUMP JUMPDEST DUP3 ADD SWAP2 SWAP1 PUSH1 0x0 MSTORE PUSH1 0x20 PUSH1 0x0 KECCAK256 SWAP1 JUMPDEST DUP2 SLOAD DUP2 MSTORE SWAP1 PUSH1 0x1 ADD SWAP1 PUSH1 0x20 ADD DUP1 DUP4 GT PUSH2 0x24F JUMPI DUP3 SWAP1 SUB PUSH1 0x1F AND DUP3 ADD SWAP2 JUMPDEST POP POP POP POP POP DUP2 JUMP JUMPDEST CALLER PUSH1 0x0 DUP2 DUP2 MSTORE PUSH1 0x2 PUSH1 0x20 SWAP1 DUP2 MSTORE PUSH1 0x40 DUP1 DUP4 KECCAK256 PUSH20 0xFFFFFFFFFFFFFFFFFFFFFFFFFFFFFFFFFFFFFFFF DUP8 AND DUP1 DUP6 MSTORE SWAP3 MSTORE DUP1 DUP4 KECCAK256 DUP6 SWAP1 SSTORE MLOAD SWAP2 SWAP3 SWAP1 SWAP2 PUSH32 0x1D64A338236710E317FC91DE1D5AEEFD2C1AFDBB0F77CD8E6995FD9C4BE14310 SWAP1 PUSH2 0x2DC SWAP1 DUP7 DUP2 MSTORE PUSH1 0x20 ADD SWAP1 JUMP JUMPDEST PUSH1 0x40 MLOAD DUP1 SWAP2 SUB SWAP1 LOG3 PUSH20 0xFFFFFFFFFFFFFFFFFFFFFFFFFFFFFFFFFFFFFFFF DUP4 AND PUSH1 0x0 SWAP1 DUP2 MSTORE PUSH1 0x1 PUSH1 0x20 MSTORE PUSH1 0x40 DUP2 KECCAK256 DUP1 SLOAD DUP5 SWAP3 SWAP1 PUSH2 0x319 SWAP1 DUP5 SWAP1 PUSH2 0x80D JUMP JUMPDEST SWAP1 SWAP2 SSTORE POP PUSH1 0x1 SWAP5 SWAP4 POP POP POP POP JUMP JUMPDEST PUSH20 0xFFFFFFFFFFFFFFFFFFFFFFFFFFFFFFFFFFFFFFFF DUP4 AND PUSH1 0x0 SWAP1 DUP2 MSTORE PUSH1 0x2 PUSH1 0x20 SWAP1 DUP2 MSTORE PUSH1 0x40 DUP1 DUP4 KECCAK256 CALLER DUP5 MSTORE SWAP1 SWAP2 MSTORE DUP2 KECCAK256 SLOAD DUP3 LT ISZERO PUSH2 0x3C5 JUMPI PUSH1 0x40 MLOAD PUSH32 0x8C379A000000000000000000000000000000000000000000000000000000000 DUP2 MSTORE PUSH1 0x20 PUSH1 0x4 DUP3 ADD DUP2 SWAP1 MSTORE PUSH1 0x24 DUP3 ADD MSTORE PUSH32 0x616C6C6F77616E6365206D6F6E6579206C657373207468616E20616D6F756E74 PUSH1 0x44 DUP3 ADD MSTORE PUSH1 0x64 ADD PUSH1 0x40 MLOAD DUP1 SWAP2 SUB SWAP1 REVERT JUMPDEST PUSH20 0xFFFFFFFFFFFFFFFFFFFFFFFFFFFFFFFFFFFFFFFF DUP5 AND PUSH1 0x0 SWAP1 DUP2 MSTORE PUSH1 0x2 PUSH1 0x20 SWAP1 DUP2 MSTORE PUSH1 0x40 DUP1 DUP4 KECCAK256 CALLER DUP5 MSTORE SWAP1 SWAP2 MSTORE DUP2 KECCAK256 DUP1 SLOAD DUP5 SWAP3 SWAP1 PUSH2 0x405 SWAP1 DUP5 SWAP1 PUSH2 0x825 JUMP JUMPDEST SWAP1 SWAP2 SSTORE POP POP PUSH20 0xFFFFFFFFFFFFFFFFFFFFFFFFFFFFFFFFFFFFFFFF DUP5 AND PUSH1 0x0 SWAP1 DUP2 MSTORE PUSH1 0x1 PUSH1 0x20 MSTORE PUSH1 0x40 DUP2 KECCAK256 DUP1 SLOAD DUP5 SWAP3 SWAP1 PUSH2 0x43F SWAP1 DUP5 SWAP1 PUSH2 0x825 JUMP JUMPDEST SWAP1 SWAP2 SSTORE POP POP PUSH20 0xFFFFFFFFFFFFFFFFFFFFFFFFFFFFFFFFFFFFFFFF DUP4 AND PUSH1 0x0 SWAP1 DUP2 MSTORE PUSH1 0x1 PUSH1 0x20 MSTORE PUSH1 0x40 DUP2 KECCAK256 DUP1 SLOAD DUP5 SWAP3 SWAP1 PUSH2 0x479 SWAP1 DUP5 SWAP1 PUSH2 0x80D JUMP JUMPDEST SWAP3 POP POP DUP2 SWAP1 SSTORE POP DUP3 PUSH20 0xFFFFFFFFFFFFFFFFFFFFFFFFFFFFFFFFFFFFFFFF AND DUP5 PUSH20 0xFFFFFFFFFFFFFFFFFFFFFFFFFFFFFFFFFFFFFFFF AND PUSH32 0x2201BA208C4911C272080234AAB59A1C2A0DC0BE34DA59B1A1F388C7C303C6CA DUP5 PUSH1 0x40 MLOAD PUSH2 0x4DF SWAP2 DUP2 MSTORE PUSH1 0x20 ADD SWAP1 JUMP JUMPDEST PUSH1 0x40 MLOAD DUP1 SWAP2 SUB SWAP1 LOG3 POP PUSH1 0x1 SWAP4 SWAP3 POP POP POP JUMP JUMPDEST CALLER PUSH1 0x0 SWAP1 DUP2 MSTORE PUSH1 0x1 PUSH1 0x20 MSTORE PUSH1 0x40 DUP2 KECCAK256 DUP1 SLOAD DUP4 SWAP3 SWAP1 PUSH2 0x510 SWAP1 DUP5 SWAP1 PUSH2 0x825 JUMP JUMPDEST SWAP3 POP POP DUP2 SWAP1 SSTORE POP DUP1 PUSH1 0x0 DUP1 DUP3 DUP3 SLOAD PUSH2 0x528 SWAP2 SWAP1 PUSH2 0x825 JUMP JUMPDEST SWAP1 SWAP2 SSTORE POP POP PUSH1 0x40 MLOAD DUP2 DUP2 MSTORE PUSH1 0x0 SWAP1 CALLER SWAP1 PUSH32 0x2201BA208C4911C272080234AAB59A1C2A0DC0BE34DA59B1A1F388C7C303C6CA SWAP1 PUSH1 0x20 ADD JUMPDEST PUSH1 0x40 MLOAD DUP1 SWAP2 SUB SWAP1 LOG3 POP JUMP JUMPDEST PUSH1 0x4 DUP1 SLOAD PUSH2 0x1F3 SWAP1 PUSH2 0x83C JUMP JUMPDEST CALLER PUSH1 0x0 SWAP1 DUP2 MSTORE PUSH1 0x1 PUSH1 0x20 MSTORE PUSH1 0x40 DUP2 KECCAK256 DUP1 SLOAD DUP4 SWAP3 SWAP1 PUSH2 0x595 SWAP1 DUP5 SWAP1 PUSH2 0x80D JUMP JUMPDEST SWAP3 POP POP DUP2 SWAP1 SSTORE POP DUP1 PUSH1 0x0 DUP1 DUP3 DUP3 SLOAD PUSH2 0x5AD SWAP2 SWAP1 PUSH2 0x80D JUMP JUMPDEST SWAP1 SWAP2 SSTORE POP POP PUSH1 0x40 MLOAD DUP2 DUP2 MSTORE CALLER SWAP1 PUSH1 0x0 SWAP1 PUSH32 0x2201BA208C4911C272080234AAB59A1C2A0DC0BE34DA59B1A1F388C7C303C6CA SWAP1 PUSH1 0x20 ADD PUSH2 0x55E JUMP JUMPDEST CALLER PUSH1 0x0 SWAP1 DUP2 MSTORE PUSH1 0x1 PUSH1 0x20 MSTORE PUSH1 0x40 DUP2 KECCAK256 DUP1 SLOAD DUP4 SWAP2 SWAP1 DUP4 SWAP1 PUSH2 0x608 SWAP1 DUP5 SWAP1 PUSH2 0x825 JUMP JUMPDEST SWAP1 SWAP2 SSTORE POP POP PUSH20 0xFFFFFFFFFFFFFFFFFFFFFFFFFFFFFFFFFFFFFFFF DUP4 AND PUSH1 0x0 SWAP1 DUP2 MSTORE PUSH1 0x1 PUSH1 0x20 MSTORE PUSH1 0x40 DUP2 KECCAK256 DUP1 SLOAD DUP5 SWAP3 SWAP1 PUSH2 0x642 SWAP1 DUP5 SWAP1 PUSH2 0x80D JUMP JUMPDEST SWAP1 SWAP2 SSTORE POP POP PUSH1 0x40 MLOAD DUP3 DUP2 MSTORE PUSH20 0xFFFFFFFFFFFFFFFFFFFFFFFFFFFFFFFFFFFFFFFF DUP5 AND SWAP1 CALLER SWAP1 PUSH32 0x2201BA208C4911C272080234AAB59A1C2A0DC0BE34DA59B1A1F388C7C303C6CA SWAP1 PUSH1 0x20 ADD PUSH1 0x40 MLOAD DUP1 SWAP2 SUB SWAP1 LOG3 POP PUSH1 0x1 SWAP3 SWAP2 POP POP JUMP JUMPDEST DUP1 CALLDATALOAD PUSH20 0xFFFFFFFFFFFFFFFFFFFFFFFFFFFFFFFFFFFFFFFF DUP2 AND DUP2 EQ PUSH2 0x6C1 JUMPI PUSH1 0x0 DUP1 REVERT JUMPDEST SWAP2 SWAP1 POP JUMP JUMPDEST PUSH1 0x0 PUSH1 0x20 DUP3 DUP5 SUB SLT ISZERO PUSH2 0x6D8 JUMPI PUSH1 0x0 DUP1 REVERT JUMPDEST PUSH2 0x6E1 DUP3 PUSH2 0x69D JUMP JUMPDEST SWAP4 SWAP3 POP POP POP JUMP JUMPDEST PUSH1 0x0 DUP1 PUSH1 0x40 DUP4 DUP6 SUB SLT ISZERO PUSH2 0x6FB JUMPI PUSH1 0x0 DUP1 REVERT JUMPDEST PUSH2 0x704 DUP4 PUSH2 0x69D JUMP JUMPDEST SWAP2 POP PUSH2 0x712 PUSH1 0x20 DUP5 ADD PUSH2 0x69D JUMP JUMPDEST SWAP1 POP SWAP3 POP SWAP3 SWAP1 POP JUMP JUMPDEST PUSH1 0x0 DUP1 PUSH1 0x0 PUSH1 0x60 DUP5 DUP7 SUB SLT ISZERO PUSH2 0x730 JUMPI PUSH1 0x0 DUP1 REVERT JUMPDEST PUSH2 0x739 DUP5 PUSH2 0x69D JUMP JUMPDEST SWAP3 POP PUSH2 0x747 PUSH1 0x20 DUP6 ADD PUSH2 0x69D JUMP JUMPDEST SWAP2 POP PUSH1 0x40 DUP5 ADD CALLDATALOAD SWAP1 POP SWAP3 POP SWAP3 POP SWAP3 JUMP JUMPDEST PUSH1 0x0 DUP1 PUSH1 0x40 DUP4 DUP6 SUB SLT ISZERO PUSH2 0x76A JUMPI PUSH1 0x0 DUP1 REVERT JUMPDEST PUSH2 0x773 DUP4 PUSH2 0x69D JUMP JUMPDEST SWAP5 PUSH1 0x20 SWAP4 SWAP1 SWAP4 ADD CALLDATALOAD SWAP4 POP POP POP JUMP JUMPDEST PUSH1 0x0 PUSH1 0x20 DUP3 DUP5 SUB SLT ISZERO PUSH2 0x793 JUMPI PUSH1 0x0 DUP1 REVERT JUMPDEST POP CALLDATALOAD SWAP2 SWAP1 POP JUMP JUMPDEST PUSH1 0x0 PUSH1 0x20 DUP1 DUP4 MSTORE DUP4 MLOAD DUP1 DUP3 DUP6 ADD MSTORE PUSH1 0x0 JUMPDEST DUP2 DUP2 LT ISZERO PUSH2 0x7C7 JUMPI DUP6 DUP2 ADD DUP4 ADD MLOAD DUP6 DUP3 ADD PUSH1 0x40 ADD MSTORE DUP3 ADD PUSH2 0x7AB JUMP JUMPDEST DUP2 DUP2 GT ISZERO PUSH2 0x7D9 JUMPI PUSH1 0x0 PUSH1 0x40 DUP4 DUP8 ADD ADD MSTORE JUMPDEST POP PUSH1 0x1F ADD PUSH32 0xFFFFFFFFFFFFFFFFFFFFFFFFFFFFFFFFFFFFFFFFFFFFFFFFFFFFFFFFFFFFFFE0 AND SWAP3 SWAP1 SWAP3 ADD PUSH1 0x40 ADD SWAP4 SWAP3 POP POP POP JUMP JUMPDEST PUSH1 0x0 DUP3 NOT DUP3 GT ISZERO PUSH2 0x820 JUMPI PUSH2 0x820 PUSH2 0x890 JUMP JUMPDEST POP ADD SWAP1 JUMP JUMPDEST PUSH1 0x0 DUP3 DUP3 LT ISZERO PUSH2 0x837 JUMPI PUSH2 0x837 PUSH2 0x890 JUMP JUMPDEST POP SUB SWAP1 JUMP JUMPDEST PUSH1 0x1 DUP2 DUP2 SHR SWAP1 DUP3 AND DUP1 PUSH2 0x850 JUMPI PUSH1 0x7F DUP3 AND SWAP2 POP JUMPDEST PUSH1 0x20 DUP3 LT DUP2 EQ ISZERO PUSH2 0x88A JUMPI PUSH32 0x4E487B7100000000000000000000000000000000000000000000000000000000 PUSH1 0x0 MSTORE PUSH1 0x22 PUSH1 0x4 MSTORE PUSH1 0x24 PUSH1 0x0 REVERT JUMPDEST POP SWAP2 SWAP1 POP JUMP JUMPDEST PUSH32 0x4E487B7100000000000000000000000000000000000000000000000000000000 PUSH1 0x0 MSTORE PUSH1 0x11 PUSH1 0x4 MSTORE PUSH1 0x24 PUSH1 0x0 REVERT INVALID LOG2 PUSH5 0x6970667358 0x22 SLT KECCAK256 CALL SWAP3 0x2F 0xB9 0x2F PUSH31 0x4050D9D801D004D8A778612D56C1F9B45A896EFAA58737AAD3FE64736F6C63 NUMBER STOP ADDMOD SMOD STOP CALLER "
				},
				"gasEstimates": {
					"creation": {
						"codeDepositCost": "458600",
						"executionCost": "infinite",
						"totalCost": "infinite"
					},
					"external": {
						"allowance(address,address)": "infinite",
						"approve(address,uint256)": "43394",
						"balanceOf(address)": "1252",
						"burn(uint256)": "infinite",
						"decimals()": "1080",
						"mint(uint256)": "infinite",
						"name()": "infinite",
						"symbol()": "infinite",
						"totalSupply()": "1018",
						"transfer(address,uint256)": "44193",
						"transferFrom(address,address,uint256)": "infinite"
					}
				},
				"methodIdentifiers": {
					"allowance(address,address)": "dd62ed3e",
					"approve(address,uint256)": "095ea7b3",
					"balanceOf(address)": "70a08231",
					"burn(uint256)": "42966c68",
					"decimals()": "313ce567",
					"mint(uint256)": "a0712d68",
					"name()": "06fdde03",
					"symbol()": "95d89b41",
					"totalSupply()": "18160ddd",
					"transfer(address,uint256)": "a9059cbb",
					"transferFrom(address,address,uint256)": "23b872dd"
				}
			},
			"storageLayout": {
				"storage": [
					{
						"astId": 7,
						"contract": "42ERC20.sol:ERC20",
						"label": "totalSupply",
						"offset": 0,
						"slot": "0",
						"type": "t_uint256"
					},
					{
						"astId": 12,
						"contract": "42ERC20.sol:ERC20",
						"label": "balanceOf",
						"offset": 0,
						"slot": "1",
						"type": "t_mapping(t_address,t_uint256)"
					},
					{
						"astId": 19,
						"contract": "42ERC20.sol:ERC20",
						"label": "allowance",
						"offset": 0,
						"slot": "2",
						"type": "t_mapping(t_address,t_mapping(t_address,t_uint256))"
					},
					{
						"astId": 22,
						"contract": "42ERC20.sol:ERC20",
						"label": "name",
						"offset": 0,
						"slot": "3",
						"type": "t_string_storage"
					},
					{
						"astId": 25,
						"contract": "42ERC20.sol:ERC20",
						"label": "symbol",
						"offset": 0,
						"slot": "4",
						"type": "t_string_storage"
					},
					{
						"astId": 28,
						"contract": "42ERC20.sol:ERC20",
						"label": "decimals",
						"offset": 0,
						"slot": "5",
						"type": "t_uint8"
					}
				],
				"types": {
					"t_address": {
						"encoding": "inplace",
						"label": "address",
						"numberOfBytes": "20"
					},
					"t_mapping(t_address,t_mapping(t_address,t_uint256))": {
						"encoding": "mapping",
						"key": "t_address",
						"label": "mapping(address => mapping(address => uint256))",
						"numberOfBytes": "32",
						"value": "t_mapping(t_address,t_uint256)"
					},
					"t_mapping(t_address,t_uint256)": {
						"encoding": "mapping",
						"key": "t_address",
						"label": "mapping(address => uint256)",
						"numberOfBytes": "32",
						"value": "t_uint256"
					},
					"t_string_storage": {
						"encoding": "bytes",
						"label": "string",
						"numberOfBytes": "32"
					},
					"t_uint256": {
						"encoding": "inplace",
						"label": "uint256",
						"numberOfBytes": "32"
					},
					"t_uint8": {
						"encoding": "inplace",
						"label": "uint8",
						"numberOfBytes": "1"
					}
				}
			},
			"userdoc": {
				"kind": "user",
				"methods": {},
				"version": 1
			}
		}
	}
}