{
	"47MultiDelegateCall.sol": {
		"TestMultiDelegateCall": {
			"abi": [
				{
					"inputs": [],
					"name": "DelegateCallFail",
					"type": "error"
				},
				{
					"anonymous": false,
					"inputs": [
						{
							"indexed": false,
							"internalType": "address",
							"name": "caller",
							"type": "address"
						},
						{
							"indexed": false,
							"internalType": "string",
							"name": "func",
							"type": "string"
						},
						{
							"indexed": false,
							"internalType": "uint256",
							"name": "i",
							"type": "uint256"
						}
					],
					"name": "Log",
					"type": "event"
				},
				{
					"inputs": [
						{
							"internalType": "uint256",
							"name": "x",
							"type": "uint256"
						},
						{
							"internalType": "uint256",
							"name": "y",
							"type": "uint256"
						}
					],
					"name": "func1",
					"outputs": [],
					"stateMutability": "nonpayable",
					"type": "function"
				},
				{
					"inputs": [],
					"name": "func2",
					"outputs": [
						{
							"internalType": "uint256",
							"name": "",
							"type": "uint256"
						}
					],
					"stateMutability": "nonpayable",
					"type": "function"
				},
				{
					"inputs": [
						{
							"internalType": "bytes[]",
							"name": "data",
							"type": "bytes[]"
						}
					],
					"name": "multiDelegateCall",
					"outputs": [
						{
							"internalType": "bytes[]",
							"name": "results",
							"type": "bytes[]"
						}
					],
					"stateMutability": "payable",
					"type": "function"
				}
			],
			"devdoc": {
				"kind": "dev",
				"methods": {},
				"version": 1
			},
			"evm": {
				"assembly": "    /* \"47MultiDelegateCall.sol\":775:1088  contract TestMultiDelegateCall is MultiDelegateCall{... */\n  mstore(0x40, 0x80)\n  callvalue\n  dup1\n  iszero\n  tag_1\n  jumpi\n  0x00\n  dup1\n  revert\ntag_1:\n  pop\n  dataSize(sub_0)\n  dup1\n  dataOffset(sub_0)\n  0x00\n  codecopy\n  0x00\n  return\nstop\n\nsub_0: assembly {\n        /* \"47MultiDelegateCall.sol\":775:1088  contract TestMultiDelegateCall is MultiDelegateCall{... */\n      mstore(0x40, 0x80)\n      jumpi(tag_1, lt(calldatasize, 0x04))\n      shr(0xe0, calldataload(0x00))\n      dup1\n      0x3cb80085\n      eq\n      tag_2\n      jumpi\n      dup1\n      0x415c2d96\n      eq\n      tag_3\n      jumpi\n      dup1\n      0xb1ade4db\n      eq\n      tag_4\n      jumpi\n    tag_1:\n      0x00\n      dup1\n      revert\n        /* \"47MultiDelegateCall.sol\":882:973  function func1(uint x,uint y)external {... */\n    tag_2:\n      callvalue\n      dup1\n      iszero\n      tag_5\n      jumpi\n      0x00\n      dup1\n      revert\n    tag_5:\n      pop\n      tag_6\n      0x04\n      dup1\n      calldatasize\n      sub\n      dup2\n      add\n      swap1\n      tag_7\n      swap2\n      swap1\n      tag_8\n      jump\t// in\n    tag_7:\n      tag_9\n      jump\t// in\n    tag_6:\n      stop\n        /* \"47MultiDelegateCall.sol\":386:771  function multiDelegateCall(bytes[] calldata data) external payable returns (bytes[] memory results){... */\n    tag_3:\n      tag_10\n      0x04\n      dup1\n      calldatasize\n      sub\n      dup2\n      add\n      swap1\n      tag_11\n      swap2\n      swap1\n      tag_12\n      jump\t// in\n    tag_11:\n      tag_13\n      jump\t// in\n    tag_10:\n      mload(0x40)\n      tag_14\n      swap2\n      swap1\n      tag_15\n      jump\t// in\n    tag_14:\n      mload(0x40)\n      dup1\n      swap2\n      sub\n      swap1\n      return\n        /* \"47MultiDelegateCall.sol\":979:1086  function func2()external returns(uint){... */\n    tag_4:\n      callvalue\n      dup1\n      iszero\n      tag_16\n      jumpi\n      0x00\n      dup1\n      revert\n    tag_16:\n      pop\n      tag_17\n      tag_18\n      jump\t// in\n    tag_17:\n      mload(0x40)\n      tag_19\n      swap2\n      swap1\n      tag_20\n      jump\t// in\n    tag_19:\n      mload(0x40)\n      dup1\n      swap2\n      sub\n      swap1\n      return\n        /* \"47MultiDelegateCall.sol\":882:973  function func1(uint x,uint y)external {... */\n    tag_9:\n        /* \"47MultiDelegateCall.sol\":935:966  Log(msg.sender, \"func1\", x + y) */\n      0xfd33e90d0eac940755277aa91045b95664988beeeafc4ed7d1281a6d83afbc00\n        /* \"47MultiDelegateCall.sol\":939:949  msg.sender */\n      caller\n        /* \"47MultiDelegateCall.sol\":964:965  y */\n      dup3\n        /* \"47MultiDelegateCall.sol\":960:961  x */\n      dup5\n        /* \"47MultiDelegateCall.sol\":960:965  x + y */\n      tag_22\n      swap2\n      swap1\n      tag_23\n      jump\t// in\n    tag_22:\n        /* \"47MultiDelegateCall.sol\":935:966  Log(msg.sender, \"func1\", x + y) */\n      mload(0x40)\n      tag_24\n      swap3\n      swap2\n      swap1\n      tag_25\n      jump\t// in\n    tag_24:\n      mload(0x40)\n      dup1\n      swap2\n      sub\n      swap1\n      log1\n        /* \"47MultiDelegateCall.sol\":882:973  function func1(uint x,uint y)external {... */\n      pop\n      pop\n      jump\t// out\n        /* \"47MultiDelegateCall.sol\":386:771  function multiDelegateCall(bytes[] calldata data) external payable returns (bytes[] memory results){... */\n    tag_13:\n        /* \"47MultiDelegateCall.sol\":462:484  bytes[] memory results */\n      0x60\n        /* \"47MultiDelegateCall.sol\":517:521  data */\n      dup3\n      dup3\n        /* \"47MultiDelegateCall.sol\":517:528  data.length */\n      swap1\n      pop\n        /* \"47MultiDelegateCall.sol\":505:529  new bytes[](data.length) */\n      0xffffffffffffffff\n      dup2\n      gt\n      iszero\n      tag_27\n      jumpi\n      tag_28\n      tag_29\n      jump\t// in\n    tag_28:\n    tag_27:\n      mload(0x40)\n      swap1\n      dup1\n      dup3\n      mstore\n      dup1\n      0x20\n      mul\n      0x20\n      add\n      dup3\n      add\n      0x40\n      mstore\n      dup1\n      iszero\n      tag_30\n      jumpi\n      dup2\n      0x20\n      add\n    tag_31:\n      0x60\n      dup2\n      mstore\n      0x20\n      add\n      swap1\n      0x01\n      swap1\n      sub\n      swap1\n      dup2\n      tag_31\n      jumpi\n      swap1\n      pop\n    tag_30:\n      pop\n        /* \"47MultiDelegateCall.sol\":495:529  results = new bytes[](data.length) */\n      swap1\n      pop\n        /* \"47MultiDelegateCall.sol\":544:550  uint i */\n      0x00\n        /* \"47MultiDelegateCall.sol\":539:765  for (uint i;i<data.length;i++){... */\n    tag_32:\n        /* \"47MultiDelegateCall.sol\":553:557  data */\n      dup4\n      dup4\n        /* \"47MultiDelegateCall.sol\":553:564  data.length */\n      swap1\n      pop\n        /* \"47MultiDelegateCall.sol\":551:552  i */\n      dup2\n        /* \"47MultiDelegateCall.sol\":551:564  i<data.length */\n      lt\n        /* \"47MultiDelegateCall.sol\":539:765  for (uint i;i<data.length;i++){... */\n      iszero\n      tag_33\n      jumpi\n        /* \"47MultiDelegateCall.sol\":584:591  bool ok */\n      0x00\n        /* \"47MultiDelegateCall.sol\":592:608  bytes memory res */\n      dup1\n        /* \"47MultiDelegateCall.sol\":619:623  this */\n      address\n        /* \"47MultiDelegateCall.sol\":611:637  address(this).delegatecall */\n      0xffffffffffffffffffffffffffffffffffffffff\n      and\n        /* \"47MultiDelegateCall.sol\":638:642  data */\n      dup7\n      dup7\n        /* \"47MultiDelegateCall.sol\":643:644  i */\n      dup6\n        /* \"47MultiDelegateCall.sol\":638:645  data[i] */\n      dup2\n      dup2\n      lt\n      tag_35\n      jumpi\n      tag_36\n      tag_37\n      jump\t// in\n    tag_36:\n    tag_35:\n      swap1\n      pop\n      0x20\n      mul\n      dup2\n      add\n      swap1\n      tag_38\n      swap2\n      swap1\n      tag_39\n      jump\t// in\n    tag_38:\n        /* \"47MultiDelegateCall.sol\":611:646  address(this).delegatecall(data[i]) */\n      mload(0x40)\n      tag_40\n      swap3\n      swap2\n      swap1\n      tag_41\n      jump\t// in\n    tag_40:\n      0x00\n      mload(0x40)\n      dup1\n      dup4\n      sub\n      dup2\n      dup6\n      gas\n      delegatecall\n      swap2\n      pop\n      pop\n      returndatasize\n      dup1\n      0x00\n      dup2\n      eq\n      tag_44\n      jumpi\n      mload(0x40)\n      swap2\n      pop\n      and(add(returndatasize, 0x3f), not(0x1f))\n      dup3\n      add\n      0x40\n      mstore\n      returndatasize\n      dup3\n      mstore\n      returndatasize\n      0x00\n      0x20\n      dup5\n      add\n      returndatacopy\n      jump(tag_43)\n    tag_44:\n      0x60\n      swap2\n      pop\n    tag_43:\n      pop\n        /* \"47MultiDelegateCall.sol\":583:646  (bool ok,bytes memory res)= address(this).delegatecall(data[i]) */\n      swap2\n      pop\n      swap2\n      pop\n        /* \"47MultiDelegateCall.sol\":664:666  ok */\n      dup2\n        /* \"47MultiDelegateCall.sol\":660:725  if(!ok){... */\n      tag_45\n      jumpi\n        /* \"47MultiDelegateCall.sol\":692:710  DelegateCallFail() */\n      mload(0x40)\n      0xe0b3c24600000000000000000000000000000000000000000000000000000000\n      dup2\n      mstore\n      0x04\n      add\n      mload(0x40)\n      dup1\n      swap2\n      sub\n      swap1\n      revert\n        /* \"47MultiDelegateCall.sol\":660:725  if(!ok){... */\n    tag_45:\n        /* \"47MultiDelegateCall.sol\":751:754  res */\n      dup1\n        /* \"47MultiDelegateCall.sol\":738:745  results */\n      dup5\n        /* \"47MultiDelegateCall.sol\":746:747  i */\n      dup5\n        /* \"47MultiDelegateCall.sol\":738:748  results[i] */\n      dup2\n      mload\n      dup2\n      lt\n      tag_46\n      jumpi\n      tag_47\n      tag_37\n      jump\t// in\n    tag_47:\n    tag_46:\n      0x20\n      mul\n      0x20\n      add\n      add\n        /* \"47MultiDelegateCall.sol\":738:754  results[i] = res */\n      dup2\n      swap1\n      mstore\n      pop\n        /* \"47MultiDelegateCall.sol\":569:765  {... */\n      pop\n      pop\n        /* \"47MultiDelegateCall.sol\":565:568  i++ */\n      dup1\n      dup1\n      tag_48\n      swap1\n      tag_49\n      jump\t// in\n    tag_48:\n      swap2\n      pop\n      pop\n        /* \"47MultiDelegateCall.sol\":539:765  for (uint i;i<data.length;i++){... */\n      jump(tag_32)\n    tag_33:\n      pop\n        /* \"47MultiDelegateCall.sol\":386:771  function multiDelegateCall(bytes[] calldata data) external payable returns (bytes[] memory results){... */\n      swap3\n      swap2\n      pop\n      pop\n      jump\t// out\n        /* \"47MultiDelegateCall.sol\":979:1086  function func2()external returns(uint){... */\n    tag_18:\n        /* \"47MultiDelegateCall.sol\":1012:1016  uint */\n      0x00\n        /* \"47MultiDelegateCall.sol\":1032:1059  Log(msg.sender, \"func2\", 2) */\n      0xfd33e90d0eac940755277aa91045b95664988beeeafc4ed7d1281a6d83afbc00\n        /* \"47MultiDelegateCall.sol\":1036:1046  msg.sender */\n      caller\n        /* \"47MultiDelegateCall.sol\":1057:1058  2 */\n      0x02\n        /* \"47MultiDelegateCall.sol\":1032:1059  Log(msg.sender, \"func2\", 2) */\n      mload(0x40)\n      tag_51\n      swap3\n      swap2\n      swap1\n      tag_52\n      jump\t// in\n    tag_51:\n      mload(0x40)\n      dup1\n      swap2\n      sub\n      swap1\n      log1\n        /* \"47MultiDelegateCall.sol\":1076:1079  111 */\n      0x6f\n        /* \"47MultiDelegateCall.sol\":1069:1079  return 111 */\n      swap1\n      pop\n        /* \"47MultiDelegateCall.sol\":979:1086  function func2()external returns(uint){... */\n      swap1\n      jump\t// out\n        /* \"#utility.yul\":22:601   */\n    tag_54:\n        /* \"#utility.yul\":106:114   */\n      0x00\n        /* \"#utility.yul\":116:122   */\n      dup1\n        /* \"#utility.yul\":166:169   */\n      dup4\n        /* \"#utility.yul\":159:163   */\n      0x1f\n        /* \"#utility.yul\":151:157   */\n      dup5\n        /* \"#utility.yul\":147:164   */\n      add\n        /* \"#utility.yul\":143:170   */\n      slt\n        /* \"#utility.yul\":133:255   */\n      tag_56\n      jumpi\n        /* \"#utility.yul\":174:253   */\n      tag_57\n      tag_58\n      jump\t// in\n    tag_57:\n        /* \"#utility.yul\":133:255   */\n    tag_56:\n        /* \"#utility.yul\":287:293   */\n      dup3\n        /* \"#utility.yul\":274:294   */\n      calldataload\n        /* \"#utility.yul\":264:294   */\n      swap1\n      pop\n        /* \"#utility.yul\":317:335   */\n      0xffffffffffffffff\n        /* \"#utility.yul\":309:315   */\n      dup2\n        /* \"#utility.yul\":306:336   */\n      gt\n        /* \"#utility.yul\":303:420   */\n      iszero\n      tag_59\n      jumpi\n        /* \"#utility.yul\":339:418   */\n      tag_60\n      tag_61\n      jump\t// in\n    tag_60:\n        /* \"#utility.yul\":303:420   */\n    tag_59:\n        /* \"#utility.yul\":453:457   */\n      0x20\n        /* \"#utility.yul\":445:451   */\n      dup4\n        /* \"#utility.yul\":441:458   */\n      add\n        /* \"#utility.yul\":429:458   */\n      swap2\n      pop\n        /* \"#utility.yul\":507:510   */\n      dup4\n        /* \"#utility.yul\":499:503   */\n      0x20\n        /* \"#utility.yul\":491:497   */\n      dup3\n        /* \"#utility.yul\":487:504   */\n      mul\n        /* \"#utility.yul\":477:485   */\n      dup4\n        /* \"#utility.yul\":473:505   */\n      add\n        /* \"#utility.yul\":470:511   */\n      gt\n        /* \"#utility.yul\":467:595   */\n      iszero\n      tag_62\n      jumpi\n        /* \"#utility.yul\":514:593   */\n      tag_63\n      tag_64\n      jump\t// in\n    tag_63:\n        /* \"#utility.yul\":467:595   */\n    tag_62:\n        /* \"#utility.yul\":22:601   */\n      swap3\n      pop\n      swap3\n      swap1\n      pop\n      jump\t// out\n        /* \"#utility.yul\":607:746   */\n    tag_65:\n        /* \"#utility.yul\":653:658   */\n      0x00\n        /* \"#utility.yul\":691:697   */\n      dup2\n        /* \"#utility.yul\":678:698   */\n      calldataload\n        /* \"#utility.yul\":669:698   */\n      swap1\n      pop\n        /* \"#utility.yul\":707:740   */\n      tag_67\n        /* \"#utility.yul\":734:739   */\n      dup2\n        /* \"#utility.yul\":707:740   */\n      tag_68\n      jump\t// in\n    tag_67:\n        /* \"#utility.yul\":607:746   */\n      swap3\n      swap2\n      pop\n      pop\n      jump\t// out\n        /* \"#utility.yul\":752:1333   */\n    tag_12:\n        /* \"#utility.yul\":849:855   */\n      0x00\n        /* \"#utility.yul\":857:863   */\n      dup1\n        /* \"#utility.yul\":906:908   */\n      0x20\n        /* \"#utility.yul\":894:903   */\n      dup4\n        /* \"#utility.yul\":885:892   */\n      dup6\n        /* \"#utility.yul\":881:904   */\n      sub\n        /* \"#utility.yul\":877:909   */\n      slt\n        /* \"#utility.yul\":874:993   */\n      iszero\n      tag_70\n      jumpi\n        /* \"#utility.yul\":912:991   */\n      tag_71\n      tag_72\n      jump\t// in\n    tag_71:\n        /* \"#utility.yul\":874:993   */\n    tag_70:\n        /* \"#utility.yul\":1060:1061   */\n      0x00\n        /* \"#utility.yul\":1049:1058   */\n      dup4\n        /* \"#utility.yul\":1045:1062   */\n      add\n        /* \"#utility.yul\":1032:1063   */\n      calldataload\n        /* \"#utility.yul\":1090:1108   */\n      0xffffffffffffffff\n        /* \"#utility.yul\":1082:1088   */\n      dup2\n        /* \"#utility.yul\":1079:1109   */\n      gt\n        /* \"#utility.yul\":1076:1193   */\n      iszero\n      tag_73\n      jumpi\n        /* \"#utility.yul\":1112:1191   */\n      tag_74\n      tag_75\n      jump\t// in\n    tag_74:\n        /* \"#utility.yul\":1076:1193   */\n    tag_73:\n        /* \"#utility.yul\":1225:1316   */\n      tag_76\n        /* \"#utility.yul\":1308:1315   */\n      dup6\n        /* \"#utility.yul\":1299:1305   */\n      dup3\n        /* \"#utility.yul\":1288:1297   */\n      dup7\n        /* \"#utility.yul\":1284:1306   */\n      add\n        /* \"#utility.yul\":1225:1316   */\n      tag_54\n      jump\t// in\n    tag_76:\n        /* \"#utility.yul\":1207:1316   */\n      swap3\n      pop\n      swap3\n      pop\n        /* \"#utility.yul\":1003:1326   */\n      pop\n        /* \"#utility.yul\":752:1333   */\n      swap3\n      pop\n      swap3\n      swap1\n      pop\n      jump\t// out\n        /* \"#utility.yul\":1339:1813   */\n    tag_8:\n        /* \"#utility.yul\":1407:1413   */\n      0x00\n        /* \"#utility.yul\":1415:1421   */\n      dup1\n        /* \"#utility.yul\":1464:1466   */\n      0x40\n        /* \"#utility.yul\":1452:1461   */\n      dup4\n        /* \"#utility.yul\":1443:1450   */\n      dup6\n        /* \"#utility.yul\":1439:1462   */\n      sub\n        /* \"#utility.yul\":1435:1467   */\n      slt\n        /* \"#utility.yul\":1432:1551   */\n      iszero\n      tag_78\n      jumpi\n        /* \"#utility.yul\":1470:1549   */\n      tag_79\n      tag_72\n      jump\t// in\n    tag_79:\n        /* \"#utility.yul\":1432:1551   */\n    tag_78:\n        /* \"#utility.yul\":1590:1591   */\n      0x00\n        /* \"#utility.yul\":1615:1668   */\n      tag_80\n        /* \"#utility.yul\":1660:1667   */\n      dup6\n        /* \"#utility.yul\":1651:1657   */\n      dup3\n        /* \"#utility.yul\":1640:1649   */\n      dup7\n        /* \"#utility.yul\":1636:1658   */\n      add\n        /* \"#utility.yul\":1615:1668   */\n      tag_65\n      jump\t// in\n    tag_80:\n        /* \"#utility.yul\":1605:1668   */\n      swap3\n      pop\n        /* \"#utility.yul\":1561:1678   */\n      pop\n        /* \"#utility.yul\":1717:1719   */\n      0x20\n        /* \"#utility.yul\":1743:1796   */\n      tag_81\n        /* \"#utility.yul\":1788:1795   */\n      dup6\n        /* \"#utility.yul\":1779:1785   */\n      dup3\n        /* \"#utility.yul\":1768:1777   */\n      dup7\n        /* \"#utility.yul\":1764:1786   */\n      add\n        /* \"#utility.yul\":1743:1796   */\n      tag_65\n      jump\t// in\n    tag_81:\n        /* \"#utility.yul\":1733:1796   */\n      swap2\n      pop\n        /* \"#utility.yul\":1688:1806   */\n      pop\n        /* \"#utility.yul\":1339:1813   */\n      swap3\n      pop\n      swap3\n      swap1\n      pop\n      jump\t// out\n        /* \"#utility.yul\":1819:2011   */\n    tag_82:\n        /* \"#utility.yul\":1906:1916   */\n      0x00\n        /* \"#utility.yul\":1941:2005   */\n      tag_84\n        /* \"#utility.yul\":2001:2004   */\n      dup4\n        /* \"#utility.yul\":1993:1999   */\n      dup4\n        /* \"#utility.yul\":1941:2005   */\n      tag_85\n      jump\t// in\n    tag_84:\n        /* \"#utility.yul\":1927:2005   */\n      swap1\n      pop\n        /* \"#utility.yul\":1819:2011   */\n      swap3\n      swap2\n      pop\n      pop\n      jump\t// out\n        /* \"#utility.yul\":2017:2135   */\n    tag_86:\n        /* \"#utility.yul\":2104:2128   */\n      tag_88\n        /* \"#utility.yul\":2122:2127   */\n      dup2\n        /* \"#utility.yul\":2104:2128   */\n      tag_89\n      jump\t// in\n    tag_88:\n        /* \"#utility.yul\":2099:2102   */\n      dup3\n        /* \"#utility.yul\":2092:2129   */\n      mstore\n        /* \"#utility.yul\":2017:2135   */\n      pop\n      pop\n      jump\t// out\n        /* \"#utility.yul\":2167:3150   */\n    tag_90:\n        /* \"#utility.yul\":2304:2307   */\n      0x00\n        /* \"#utility.yul\":2333:2396   */\n      tag_92\n        /* \"#utility.yul\":2390:2395   */\n      dup3\n        /* \"#utility.yul\":2333:2396   */\n      tag_93\n      jump\t// in\n    tag_92:\n        /* \"#utility.yul\":2412:2507   */\n      tag_94\n        /* \"#utility.yul\":2500:2506   */\n      dup2\n        /* \"#utility.yul\":2495:2498   */\n      dup6\n        /* \"#utility.yul\":2412:2507   */\n      tag_95\n      jump\t// in\n    tag_94:\n        /* \"#utility.yul\":2405:2507   */\n      swap4\n      pop\n        /* \"#utility.yul\":2533:2536   */\n      dup4\n        /* \"#utility.yul\":2578:2582   */\n      0x20\n        /* \"#utility.yul\":2570:2576   */\n      dup3\n        /* \"#utility.yul\":2566:2583   */\n      mul\n        /* \"#utility.yul\":2561:2564   */\n      dup6\n        /* \"#utility.yul\":2557:2584   */\n      add\n        /* \"#utility.yul\":2608:2673   */\n      tag_96\n        /* \"#utility.yul\":2667:2672   */\n      dup6\n        /* \"#utility.yul\":2608:2673   */\n      tag_97\n      jump\t// in\n    tag_96:\n        /* \"#utility.yul\":2696:2703   */\n      dup1\n        /* \"#utility.yul\":2727:2728   */\n      0x00\n        /* \"#utility.yul\":2712:3105   */\n    tag_98:\n        /* \"#utility.yul\":2737:2743   */\n      dup6\n        /* \"#utility.yul\":2734:2735   */\n      dup2\n        /* \"#utility.yul\":2731:2744   */\n      lt\n        /* \"#utility.yul\":2712:3105   */\n      iszero\n      tag_100\n      jumpi\n        /* \"#utility.yul\":2808:2817   */\n      dup5\n        /* \"#utility.yul\":2802:2806   */\n      dup5\n        /* \"#utility.yul\":2798:2818   */\n      sub\n        /* \"#utility.yul\":2793:2796   */\n      dup10\n        /* \"#utility.yul\":2786:2819   */\n      mstore\n        /* \"#utility.yul\":2859:2865   */\n      dup2\n        /* \"#utility.yul\":2853:2866   */\n      mload\n        /* \"#utility.yul\":2887:2969   */\n      tag_101\n        /* \"#utility.yul\":2964:2968   */\n      dup6\n        /* \"#utility.yul\":2949:2962   */\n      dup3\n        /* \"#utility.yul\":2887:2969   */\n      tag_82\n      jump\t// in\n    tag_101:\n        /* \"#utility.yul\":2879:2969   */\n      swap5\n      pop\n        /* \"#utility.yul\":2992:3061   */\n      tag_102\n        /* \"#utility.yul\":3054:3060   */\n      dup4\n        /* \"#utility.yul\":2992:3061   */\n      tag_103\n      jump\t// in\n    tag_102:\n        /* \"#utility.yul\":2982:3061   */\n      swap3\n      pop\n        /* \"#utility.yul\":3090:3094   */\n      0x20\n        /* \"#utility.yul\":3085:3088   */\n      dup11\n        /* \"#utility.yul\":3081:3095   */\n      add\n        /* \"#utility.yul\":3074:3095   */\n      swap10\n      pop\n        /* \"#utility.yul\":2772:3105   */\n      pop\n        /* \"#utility.yul\":2759:2760   */\n      0x01\n        /* \"#utility.yul\":2756:2757   */\n      dup2\n        /* \"#utility.yul\":2752:2761   */\n      add\n        /* \"#utility.yul\":2747:2761   */\n      swap1\n      pop\n        /* \"#utility.yul\":2712:3105   */\n      jump(tag_98)\n    tag_100:\n        /* \"#utility.yul\":2716:2730   */\n      pop\n        /* \"#utility.yul\":3121:3125   */\n      dup3\n        /* \"#utility.yul\":3114:3125   */\n      swap8\n      pop\n        /* \"#utility.yul\":3141:3144   */\n      dup8\n        /* \"#utility.yul\":3134:3144   */\n      swap6\n      pop\n        /* \"#utility.yul\":2309:3150   */\n      pop\n      pop\n      pop\n      pop\n      pop\n        /* \"#utility.yul\":2167:3150   */\n      swap3\n      swap2\n      pop\n      pop\n      jump\t// out\n        /* \"#utility.yul\":3178:3492   */\n    tag_104:\n        /* \"#utility.yul\":3292:3295   */\n      0x00\n        /* \"#utility.yul\":3313:3401   */\n      tag_106\n        /* \"#utility.yul\":3394:3400   */\n      dup4\n        /* \"#utility.yul\":3389:3392   */\n      dup6\n        /* \"#utility.yul\":3313:3401   */\n      tag_107\n      jump\t// in\n    tag_106:\n        /* \"#utility.yul\":3306:3401   */\n      swap4\n      pop\n        /* \"#utility.yul\":3411:3454   */\n      tag_108\n        /* \"#utility.yul\":3447:3453   */\n      dup4\n        /* \"#utility.yul\":3442:3445   */\n      dup6\n        /* \"#utility.yul\":3435:3440   */\n      dup5\n        /* \"#utility.yul\":3411:3454   */\n      tag_109\n      jump\t// in\n    tag_108:\n        /* \"#utility.yul\":3479:3485   */\n      dup3\n        /* \"#utility.yul\":3474:3477   */\n      dup5\n        /* \"#utility.yul\":3470:3486   */\n      add\n        /* \"#utility.yul\":3463:3486   */\n      swap1\n      pop\n        /* \"#utility.yul\":3178:3492   */\n      swap4\n      swap3\n      pop\n      pop\n      pop\n      jump\t// out\n        /* \"#utility.yul\":3498:3838   */\n    tag_85:\n        /* \"#utility.yul\":3574:3577   */\n      0x00\n        /* \"#utility.yul\":3602:3640   */\n      tag_111\n        /* \"#utility.yul\":3634:3639   */\n      dup3\n        /* \"#utility.yul\":3602:3640   */\n      tag_112\n      jump\t// in\n    tag_111:\n        /* \"#utility.yul\":3656:3716   */\n      tag_113\n        /* \"#utility.yul\":3709:3715   */\n      dup2\n        /* \"#utility.yul\":3704:3707   */\n      dup6\n        /* \"#utility.yul\":3656:3716   */\n      tag_114\n      jump\t// in\n    tag_113:\n        /* \"#utility.yul\":3649:3716   */\n      swap4\n      pop\n        /* \"#utility.yul\":3725:3777   */\n      tag_115\n        /* \"#utility.yul\":3770:3776   */\n      dup2\n        /* \"#utility.yul\":3765:3768   */\n      dup6\n        /* \"#utility.yul\":3758:3762   */\n      0x20\n        /* \"#utility.yul\":3751:3756   */\n      dup7\n        /* \"#utility.yul\":3747:3763   */\n      add\n        /* \"#utility.yul\":3725:3777   */\n      tag_116\n      jump\t// in\n    tag_115:\n        /* \"#utility.yul\":3802:3831   */\n      tag_117\n        /* \"#utility.yul\":3824:3830   */\n      dup2\n        /* \"#utility.yul\":3802:3831   */\n      tag_118\n      jump\t// in\n    tag_117:\n        /* \"#utility.yul\":3797:3800   */\n      dup5\n        /* \"#utility.yul\":3793:3832   */\n      add\n        /* \"#utility.yul\":3786:3832   */\n      swap2\n      pop\n        /* \"#utility.yul\":3578:3838   */\n      pop\n        /* \"#utility.yul\":3498:3838   */\n      swap3\n      swap2\n      pop\n      pop\n      jump\t// out\n        /* \"#utility.yul\":3844:3991   */\n    tag_119:\n        /* \"#utility.yul\":3939:3984   */\n      tag_121\n        /* \"#utility.yul\":3978:3983   */\n      dup2\n        /* \"#utility.yul\":3939:3984   */\n      tag_122\n      jump\t// in\n    tag_121:\n        /* \"#utility.yul\":3934:3937   */\n      dup3\n        /* \"#utility.yul\":3927:3985   */\n      mstore\n        /* \"#utility.yul\":3844:3991   */\n      pop\n      pop\n      jump\t// out\n        /* \"#utility.yul\":3997:4362   */\n    tag_123:\n        /* \"#utility.yul\":4139:4142   */\n      0x00\n        /* \"#utility.yul\":4160:4226   */\n      tag_125\n        /* \"#utility.yul\":4224:4225   */\n      0x05\n        /* \"#utility.yul\":4219:4222   */\n      dup4\n        /* \"#utility.yul\":4160:4226   */\n      tag_126\n      jump\t// in\n    tag_125:\n        /* \"#utility.yul\":4153:4226   */\n      swap2\n      pop\n        /* \"#utility.yul\":4235:4328   */\n      tag_127\n        /* \"#utility.yul\":4324:4327   */\n      dup3\n        /* \"#utility.yul\":4235:4328   */\n      tag_128\n      jump\t// in\n    tag_127:\n        /* \"#utility.yul\":4353:4355   */\n      0x20\n        /* \"#utility.yul\":4348:4351   */\n      dup3\n        /* \"#utility.yul\":4344:4356   */\n      add\n        /* \"#utility.yul\":4337:4356   */\n      swap1\n      pop\n        /* \"#utility.yul\":3997:4362   */\n      swap2\n      swap1\n      pop\n      jump\t// out\n        /* \"#utility.yul\":4368:4733   */\n    tag_129:\n        /* \"#utility.yul\":4510:4513   */\n      0x00\n        /* \"#utility.yul\":4531:4597   */\n      tag_131\n        /* \"#utility.yul\":4595:4596   */\n      0x05\n        /* \"#utility.yul\":4590:4593   */\n      dup4\n        /* \"#utility.yul\":4531:4597   */\n      tag_126\n      jump\t// in\n    tag_131:\n        /* \"#utility.yul\":4524:4597   */\n      swap2\n      pop\n        /* \"#utility.yul\":4606:4699   */\n      tag_132\n        /* \"#utility.yul\":4695:4698   */\n      dup3\n        /* \"#utility.yul\":4606:4699   */\n      tag_133\n      jump\t// in\n    tag_132:\n        /* \"#utility.yul\":4724:4726   */\n      0x20\n        /* \"#utility.yul\":4719:4722   */\n      dup3\n        /* \"#utility.yul\":4715:4727   */\n      add\n        /* \"#utility.yul\":4708:4727   */\n      swap1\n      pop\n        /* \"#utility.yul\":4368:4733   */\n      swap2\n      swap1\n      pop\n      jump\t// out\n        /* \"#utility.yul\":4739:4857   */\n    tag_134:\n        /* \"#utility.yul\":4826:4850   */\n      tag_136\n        /* \"#utility.yul\":4844:4849   */\n      dup2\n        /* \"#utility.yul\":4826:4850   */\n      tag_137\n      jump\t// in\n    tag_136:\n        /* \"#utility.yul\":4821:4824   */\n      dup3\n        /* \"#utility.yul\":4814:4851   */\n      mstore\n        /* \"#utility.yul\":4739:4857   */\n      pop\n      pop\n      jump\t// out\n        /* \"#utility.yul\":4863:5154   */\n    tag_41:\n        /* \"#utility.yul\":5003:5006   */\n      0x00\n        /* \"#utility.yul\":5025:5128   */\n      tag_139\n        /* \"#utility.yul\":5124:5127   */\n      dup3\n        /* \"#utility.yul\":5115:5121   */\n      dup5\n        /* \"#utility.yul\":5107:5113   */\n      dup7\n        /* \"#utility.yul\":5025:5128   */\n      tag_104\n      jump\t// in\n    tag_139:\n        /* \"#utility.yul\":5018:5128   */\n      swap2\n      pop\n        /* \"#utility.yul\":5145:5148   */\n      dup2\n        /* \"#utility.yul\":5138:5148   */\n      swap1\n      pop\n        /* \"#utility.yul\":4863:5154   */\n      swap4\n      swap3\n      pop\n      pop\n      pop\n      jump\t// out\n        /* \"#utility.yul\":5160:5799   */\n    tag_25:\n        /* \"#utility.yul\":5382:5386   */\n      0x00\n        /* \"#utility.yul\":5420:5422   */\n      0x60\n        /* \"#utility.yul\":5409:5418   */\n      dup3\n        /* \"#utility.yul\":5405:5423   */\n      add\n        /* \"#utility.yul\":5397:5423   */\n      swap1\n      pop\n        /* \"#utility.yul\":5433:5504   */\n      tag_141\n        /* \"#utility.yul\":5501:5502   */\n      0x00\n        /* \"#utility.yul\":5490:5499   */\n      dup4\n        /* \"#utility.yul\":5486:5503   */\n      add\n        /* \"#utility.yul\":5477:5483   */\n      dup6\n        /* \"#utility.yul\":5433:5504   */\n      tag_86\n      jump\t// in\n    tag_141:\n        /* \"#utility.yul\":5551:5560   */\n      dup2\n        /* \"#utility.yul\":5545:5549   */\n      dup2\n        /* \"#utility.yul\":5541:5561   */\n      sub\n        /* \"#utility.yul\":5536:5538   */\n      0x20\n        /* \"#utility.yul\":5525:5534   */\n      dup4\n        /* \"#utility.yul\":5521:5539   */\n      add\n        /* \"#utility.yul\":5514:5562   */\n      mstore\n        /* \"#utility.yul\":5579:5710   */\n      tag_142\n        /* \"#utility.yul\":5705:5709   */\n      dup2\n        /* \"#utility.yul\":5579:5710   */\n      tag_123\n      jump\t// in\n    tag_142:\n        /* \"#utility.yul\":5571:5710   */\n      swap1\n      pop\n        /* \"#utility.yul\":5720:5792   */\n      tag_143\n        /* \"#utility.yul\":5788:5790   */\n      0x40\n        /* \"#utility.yul\":5777:5786   */\n      dup4\n        /* \"#utility.yul\":5773:5791   */\n      add\n        /* \"#utility.yul\":5764:5770   */\n      dup5\n        /* \"#utility.yul\":5720:5792   */\n      tag_134\n      jump\t// in\n    tag_143:\n        /* \"#utility.yul\":5160:5799   */\n      swap4\n      swap3\n      pop\n      pop\n      pop\n      jump\t// out\n        /* \"#utility.yul\":5805:6460   */\n    tag_52:\n        /* \"#utility.yul\":6035:6039   */\n      0x00\n        /* \"#utility.yul\":6073:6075   */\n      0x60\n        /* \"#utility.yul\":6062:6071   */\n      dup3\n        /* \"#utility.yul\":6058:6076   */\n      add\n        /* \"#utility.yul\":6050:6076   */\n      swap1\n      pop\n        /* \"#utility.yul\":6086:6157   */\n      tag_145\n        /* \"#utility.yul\":6154:6155   */\n      0x00\n        /* \"#utility.yul\":6143:6152   */\n      dup4\n        /* \"#utility.yul\":6139:6156   */\n      add\n        /* \"#utility.yul\":6130:6136   */\n      dup6\n        /* \"#utility.yul\":6086:6157   */\n      tag_86\n      jump\t// in\n    tag_145:\n        /* \"#utility.yul\":6204:6213   */\n      dup2\n        /* \"#utility.yul\":6198:6202   */\n      dup2\n        /* \"#utility.yul\":6194:6214   */\n      sub\n        /* \"#utility.yul\":6189:6191   */\n      0x20\n        /* \"#utility.yul\":6178:6187   */\n      dup4\n        /* \"#utility.yul\":6174:6192   */\n      add\n        /* \"#utility.yul\":6167:6215   */\n      mstore\n        /* \"#utility.yul\":6232:6363   */\n      tag_146\n        /* \"#utility.yul\":6358:6362   */\n      dup2\n        /* \"#utility.yul\":6232:6363   */\n      tag_129\n      jump\t// in\n    tag_146:\n        /* \"#utility.yul\":6224:6363   */\n      swap1\n      pop\n        /* \"#utility.yul\":6373:6453   */\n      tag_147\n        /* \"#utility.yul\":6449:6451   */\n      0x40\n        /* \"#utility.yul\":6438:6447   */\n      dup4\n        /* \"#utility.yul\":6434:6452   */\n      add\n        /* \"#utility.yul\":6425:6431   */\n      dup5\n        /* \"#utility.yul\":6373:6453   */\n      tag_119\n      jump\t// in\n    tag_147:\n        /* \"#utility.yul\":5805:6460   */\n      swap4\n      swap3\n      pop\n      pop\n      pop\n      jump\t// out\n        /* \"#utility.yul\":6466:6875   */\n    tag_15:\n        /* \"#utility.yul\":6627:6631   */\n      0x00\n        /* \"#utility.yul\":6665:6667   */\n      0x20\n        /* \"#utility.yul\":6654:6663   */\n      dup3\n        /* \"#utility.yul\":6650:6668   */\n      add\n        /* \"#utility.yul\":6642:6668   */\n      swap1\n      pop\n        /* \"#utility.yul\":6714:6723   */\n      dup2\n        /* \"#utility.yul\":6708:6712   */\n      dup2\n        /* \"#utility.yul\":6704:6724   */\n      sub\n        /* \"#utility.yul\":6700:6701   */\n      0x00\n        /* \"#utility.yul\":6689:6698   */\n      dup4\n        /* \"#utility.yul\":6685:6702   */\n      add\n        /* \"#utility.yul\":6678:6725   */\n      mstore\n        /* \"#utility.yul\":6742:6868   */\n      tag_149\n        /* \"#utility.yul\":6863:6867   */\n      dup2\n        /* \"#utility.yul\":6854:6860   */\n      dup5\n        /* \"#utility.yul\":6742:6868   */\n      tag_90\n      jump\t// in\n    tag_149:\n        /* \"#utility.yul\":6734:6868   */\n      swap1\n      pop\n        /* \"#utility.yul\":6466:6875   */\n      swap3\n      swap2\n      pop\n      pop\n      jump\t// out\n        /* \"#utility.yul\":6881:7103   */\n    tag_20:\n        /* \"#utility.yul\":6974:6978   */\n      0x00\n        /* \"#utility.yul\":7012:7014   */\n      0x20\n        /* \"#utility.yul\":7001:7010   */\n      dup3\n        /* \"#utility.yul\":6997:7015   */\n      add\n        /* \"#utility.yul\":6989:7015   */\n      swap1\n      pop\n        /* \"#utility.yul\":7025:7096   */\n      tag_151\n        /* \"#utility.yul\":7093:7094   */\n      0x00\n        /* \"#utility.yul\":7082:7091   */\n      dup4\n        /* \"#utility.yul\":7078:7095   */\n      add\n        /* \"#utility.yul\":7069:7075   */\n      dup5\n        /* \"#utility.yul\":7025:7096   */\n      tag_134\n      jump\t// in\n    tag_151:\n        /* \"#utility.yul\":6881:7103   */\n      swap3\n      swap2\n      pop\n      pop\n      jump\t// out\n        /* \"#utility.yul\":7109:7833   */\n    tag_39:\n        /* \"#utility.yul\":7186:7190   */\n      0x00\n        /* \"#utility.yul\":7192:7198   */\n      dup1\n        /* \"#utility.yul\":7248:7259   */\n      dup4\n        /* \"#utility.yul\":7235:7260   */\n      calldataload\n        /* \"#utility.yul\":7348:7349   */\n      0x01\n        /* \"#utility.yul\":7342:7346   */\n      0x20\n        /* \"#utility.yul\":7338:7350   */\n      sub\n        /* \"#utility.yul\":7327:7335   */\n      dup5\n        /* \"#utility.yul\":7311:7325   */\n      calldatasize\n        /* \"#utility.yul\":7307:7336   */\n      sub\n        /* \"#utility.yul\":7303:7351   */\n      sub\n        /* \"#utility.yul\":7283:7301   */\n      dup2\n        /* \"#utility.yul\":7279:7352   */\n      slt\n        /* \"#utility.yul\":7269:7437   */\n      tag_153\n      jumpi\n        /* \"#utility.yul\":7356:7435   */\n      tag_154\n      tag_155\n      jump\t// in\n    tag_154:\n        /* \"#utility.yul\":7269:7437   */\n    tag_153:\n        /* \"#utility.yul\":7468:7486   */\n      dup1\n        /* \"#utility.yul\":7458:7466   */\n      dup5\n        /* \"#utility.yul\":7454:7487   */\n      add\n        /* \"#utility.yul\":7446:7487   */\n      swap3\n      pop\n        /* \"#utility.yul\":7520:7524   */\n      dup3\n        /* \"#utility.yul\":7507:7525   */\n      calldataload\n        /* \"#utility.yul\":7497:7525   */\n      swap2\n      pop\n        /* \"#utility.yul\":7548:7566   */\n      0xffffffffffffffff\n        /* \"#utility.yul\":7540:7546   */\n      dup3\n        /* \"#utility.yul\":7537:7567   */\n      gt\n        /* \"#utility.yul\":7534:7651   */\n      iszero\n      tag_156\n      jumpi\n        /* \"#utility.yul\":7570:7649   */\n      tag_157\n      tag_158\n      jump\t// in\n    tag_157:\n        /* \"#utility.yul\":7534:7651   */\n    tag_156:\n        /* \"#utility.yul\":7678:7680   */\n      0x20\n        /* \"#utility.yul\":7672:7676   */\n      dup4\n        /* \"#utility.yul\":7668:7681   */\n      add\n        /* \"#utility.yul\":7660:7681   */\n      swap3\n      pop\n        /* \"#utility.yul\":7735:7739   */\n      0x01\n        /* \"#utility.yul\":7727:7733   */\n      dup3\n        /* \"#utility.yul\":7723:7740   */\n      mul\n        /* \"#utility.yul\":7707:7721   */\n      calldatasize\n        /* \"#utility.yul\":7703:7741   */\n      sub\n        /* \"#utility.yul\":7697:7701   */\n      dup4\n        /* \"#utility.yul\":7693:7742   */\n      sgt\n        /* \"#utility.yul\":7690:7826   */\n      iszero\n      tag_159\n      jumpi\n        /* \"#utility.yul\":7745:7824   */\n      tag_160\n      tag_161\n      jump\t// in\n    tag_160:\n        /* \"#utility.yul\":7690:7826   */\n    tag_159:\n        /* \"#utility.yul\":7199:7833   */\n      pop\n        /* \"#utility.yul\":7109:7833   */\n      swap3\n      pop\n      swap3\n      swap1\n      pop\n      jump\t// out\n        /* \"#utility.yul\":7920:8061   */\n    tag_97:\n        /* \"#utility.yul\":7996:8000   */\n      0x00\n        /* \"#utility.yul\":8019:8022   */\n      dup2\n        /* \"#utility.yul\":8011:8022   */\n      swap1\n      pop\n        /* \"#utility.yul\":8049:8053   */\n      0x20\n        /* \"#utility.yul\":8044:8047   */\n      dup3\n        /* \"#utility.yul\":8040:8054   */\n      add\n        /* \"#utility.yul\":8032:8054   */\n      swap1\n      pop\n        /* \"#utility.yul\":7920:8061   */\n      swap2\n      swap1\n      pop\n      jump\t// out\n        /* \"#utility.yul\":8067:8190   */\n    tag_93:\n        /* \"#utility.yul\":8143:8149   */\n      0x00\n        /* \"#utility.yul\":8177:8182   */\n      dup2\n        /* \"#utility.yul\":8171:8183   */\n      mload\n        /* \"#utility.yul\":8161:8183   */\n      swap1\n      pop\n        /* \"#utility.yul\":8067:8190   */\n      swap2\n      swap1\n      pop\n      jump\t// out\n        /* \"#utility.yul\":8196:8294   */\n    tag_112:\n        /* \"#utility.yul\":8247:8253   */\n      0x00\n        /* \"#utility.yul\":8281:8286   */\n      dup2\n        /* \"#utility.yul\":8275:8287   */\n      mload\n        /* \"#utility.yul\":8265:8287   */\n      swap1\n      pop\n        /* \"#utility.yul\":8196:8294   */\n      swap2\n      swap1\n      pop\n      jump\t// out\n        /* \"#utility.yul\":8300:8422   */\n    tag_103:\n        /* \"#utility.yul\":8379:8383   */\n      0x00\n        /* \"#utility.yul\":8411:8415   */\n      0x20\n        /* \"#utility.yul\":8406:8409   */\n      dup3\n        /* \"#utility.yul\":8402:8416   */\n      add\n        /* \"#utility.yul\":8394:8416   */\n      swap1\n      pop\n        /* \"#utility.yul\":8300:8422   */\n      swap2\n      swap1\n      pop\n      jump\t// out\n        /* \"#utility.yul\":8428:8621   */\n    tag_95:\n        /* \"#utility.yul\":8536:8547   */\n      0x00\n        /* \"#utility.yul\":8570:8576   */\n      dup3\n        /* \"#utility.yul\":8565:8568   */\n      dup3\n        /* \"#utility.yul\":8558:8577   */\n      mstore\n        /* \"#utility.yul\":8610:8614   */\n      0x20\n        /* \"#utility.yul\":8605:8608   */\n      dup3\n        /* \"#utility.yul\":8601:8615   */\n      add\n        /* \"#utility.yul\":8586:8615   */\n      swap1\n      pop\n        /* \"#utility.yul\":8428:8621   */\n      swap3\n      swap2\n      pop\n      pop\n      jump\t// out\n        /* \"#utility.yul\":8627:8785   */\n    tag_114:\n        /* \"#utility.yul\":8700:8711   */\n      0x00\n        /* \"#utility.yul\":8734:8740   */\n      dup3\n        /* \"#utility.yul\":8729:8732   */\n      dup3\n        /* \"#utility.yul\":8722:8741   */\n      mstore\n        /* \"#utility.yul\":8774:8778   */\n      0x20\n        /* \"#utility.yul\":8769:8772   */\n      dup3\n        /* \"#utility.yul\":8765:8779   */\n      add\n        /* \"#utility.yul\":8750:8779   */\n      swap1\n      pop\n        /* \"#utility.yul\":8627:8785   */\n      swap3\n      swap2\n      pop\n      pop\n      jump\t// out\n        /* \"#utility.yul\":8791:8938   */\n    tag_107:\n        /* \"#utility.yul\":8892:8903   */\n      0x00\n        /* \"#utility.yul\":8929:8932   */\n      dup2\n        /* \"#utility.yul\":8914:8932   */\n      swap1\n      pop\n        /* \"#utility.yul\":8791:8938   */\n      swap3\n      swap2\n      pop\n      pop\n      jump\t// out\n        /* \"#utility.yul\":8944:9113   */\n    tag_126:\n        /* \"#utility.yul\":9028:9039   */\n      0x00\n        /* \"#utility.yul\":9062:9068   */\n      dup3\n        /* \"#utility.yul\":9057:9060   */\n      dup3\n        /* \"#utility.yul\":9050:9069   */\n      mstore\n        /* \"#utility.yul\":9102:9106   */\n      0x20\n        /* \"#utility.yul\":9097:9100   */\n      dup3\n        /* \"#utility.yul\":9093:9107   */\n      add\n        /* \"#utility.yul\":9078:9107   */\n      swap1\n      pop\n        /* \"#utility.yul\":8944:9113   */\n      swap3\n      swap2\n      pop\n      pop\n      jump\t// out\n        /* \"#utility.yul\":9119:9424   */\n    tag_23:\n        /* \"#utility.yul\":9159:9162   */\n      0x00\n        /* \"#utility.yul\":9178:9198   */\n      tag_173\n        /* \"#utility.yul\":9196:9197   */\n      dup3\n        /* \"#utility.yul\":9178:9198   */\n      tag_137\n      jump\t// in\n    tag_173:\n        /* \"#utility.yul\":9173:9198   */\n      swap2\n      pop\n        /* \"#utility.yul\":9212:9232   */\n      tag_174\n        /* \"#utility.yul\":9230:9231   */\n      dup4\n        /* \"#utility.yul\":9212:9232   */\n      tag_137\n      jump\t// in\n    tag_174:\n        /* \"#utility.yul\":9207:9232   */\n      swap3\n      pop\n        /* \"#utility.yul\":9366:9367   */\n      dup3\n        /* \"#utility.yul\":9298:9364   */\n      0xffffffffffffffffffffffffffffffffffffffffffffffffffffffffffffffff\n        /* \"#utility.yul\":9294:9368   */\n      sub\n        /* \"#utility.yul\":9291:9292   */\n      dup3\n        /* \"#utility.yul\":9288:9369   */\n      gt\n        /* \"#utility.yul\":9285:9392   */\n      iszero\n      tag_175\n      jumpi\n        /* \"#utility.yul\":9372:9390   */\n      tag_176\n      tag_177\n      jump\t// in\n    tag_176:\n        /* \"#utility.yul\":9285:9392   */\n    tag_175:\n        /* \"#utility.yul\":9416:9417   */\n      dup3\n        /* \"#utility.yul\":9413:9414   */\n      dup3\n        /* \"#utility.yul\":9409:9418   */\n      add\n        /* \"#utility.yul\":9402:9418   */\n      swap1\n      pop\n        /* \"#utility.yul\":9119:9424   */\n      swap3\n      swap2\n      pop\n      pop\n      jump\t// out\n        /* \"#utility.yul\":9430:9526   */\n    tag_89:\n        /* \"#utility.yul\":9467:9474   */\n      0x00\n        /* \"#utility.yul\":9496:9520   */\n      tag_179\n        /* \"#utility.yul\":9514:9519   */\n      dup3\n        /* \"#utility.yul\":9496:9520   */\n      tag_180\n      jump\t// in\n    tag_179:\n        /* \"#utility.yul\":9485:9520   */\n      swap1\n      pop\n        /* \"#utility.yul\":9430:9526   */\n      swap2\n      swap1\n      pop\n      jump\t// out\n        /* \"#utility.yul\":9532:9658   */\n    tag_180:\n        /* \"#utility.yul\":9569:9576   */\n      0x00\n        /* \"#utility.yul\":9609:9651   */\n      0xffffffffffffffffffffffffffffffffffffffff\n        /* \"#utility.yul\":9602:9607   */\n      dup3\n        /* \"#utility.yul\":9598:9652   */\n      and\n        /* \"#utility.yul\":9587:9652   */\n      swap1\n      pop\n        /* \"#utility.yul\":9532:9658   */\n      swap2\n      swap1\n      pop\n      jump\t// out\n        /* \"#utility.yul\":9664:9741   */\n    tag_137:\n        /* \"#utility.yul\":9701:9708   */\n      0x00\n        /* \"#utility.yul\":9730:9735   */\n      dup2\n        /* \"#utility.yul\":9719:9735   */\n      swap1\n      pop\n        /* \"#utility.yul\":9664:9741   */\n      swap2\n      swap1\n      pop\n      jump\t// out\n        /* \"#utility.yul\":9747:9868   */\n    tag_122:\n        /* \"#utility.yul\":9805:9814   */\n      0x00\n        /* \"#utility.yul\":9838:9862   */\n      tag_184\n        /* \"#utility.yul\":9856:9861   */\n      dup3\n        /* \"#utility.yul\":9838:9862   */\n      tag_137\n      jump\t// in\n    tag_184:\n        /* \"#utility.yul\":9825:9862   */\n      swap1\n      pop\n        /* \"#utility.yul\":9747:9868   */\n      swap2\n      swap1\n      pop\n      jump\t// out\n        /* \"#utility.yul\":9874:10028   */\n    tag_109:\n        /* \"#utility.yul\":9958:9964   */\n      dup3\n        /* \"#utility.yul\":9953:9956   */\n      dup2\n        /* \"#utility.yul\":9948:9951   */\n      dup4\n        /* \"#utility.yul\":9935:9965   */\n      calldatacopy\n        /* \"#utility.yul\":10020:10021   */\n      0x00\n        /* \"#utility.yul\":10011:10017   */\n      dup4\n        /* \"#utility.yul\":10006:10009   */\n      dup4\n        /* \"#utility.yul\":10002:10018   */\n      add\n        /* \"#utility.yul\":9995:10022   */\n      mstore\n        /* \"#utility.yul\":9874:10028   */\n      pop\n      pop\n      pop\n      jump\t// out\n        /* \"#utility.yul\":10034:10341   */\n    tag_116:\n        /* \"#utility.yul\":10102:10103   */\n      0x00\n        /* \"#utility.yul\":10112:10225   */\n    tag_187:\n        /* \"#utility.yul\":10126:10132   */\n      dup4\n        /* \"#utility.yul\":10123:10124   */\n      dup2\n        /* \"#utility.yul\":10120:10133   */\n      lt\n        /* \"#utility.yul\":10112:10225   */\n      iszero\n      tag_189\n      jumpi\n        /* \"#utility.yul\":10211:10212   */\n      dup1\n        /* \"#utility.yul\":10206:10209   */\n      dup3\n        /* \"#utility.yul\":10202:10213   */\n      add\n        /* \"#utility.yul\":10196:10214   */\n      mload\n        /* \"#utility.yul\":10192:10193   */\n      dup2\n        /* \"#utility.yul\":10187:10190   */\n      dup5\n        /* \"#utility.yul\":10183:10194   */\n      add\n        /* \"#utility.yul\":10176:10215   */\n      mstore\n        /* \"#utility.yul\":10148:10150   */\n      0x20\n        /* \"#utility.yul\":10145:10146   */\n      dup2\n        /* \"#utility.yul\":10141:10151   */\n      add\n        /* \"#utility.yul\":10136:10151   */\n      swap1\n      pop\n        /* \"#utility.yul\":10112:10225   */\n      jump(tag_187)\n    tag_189:\n        /* \"#utility.yul\":10243:10249   */\n      dup4\n        /* \"#utility.yul\":10240:10241   */\n      dup2\n        /* \"#utility.yul\":10237:10250   */\n      gt\n        /* \"#utility.yul\":10234:10335   */\n      iszero\n      tag_190\n      jumpi\n        /* \"#utility.yul\":10323:10324   */\n      0x00\n        /* \"#utility.yul\":10314:10320   */\n      dup5\n        /* \"#utility.yul\":10309:10312   */\n      dup5\n        /* \"#utility.yul\":10305:10321   */\n      add\n        /* \"#utility.yul\":10298:10325   */\n      mstore\n        /* \"#utility.yul\":10234:10335   */\n    tag_190:\n        /* \"#utility.yul\":10083:10341   */\n      pop\n        /* \"#utility.yul\":10034:10341   */\n      pop\n      pop\n      pop\n      jump\t// out\n        /* \"#utility.yul\":10347:10580   */\n    tag_49:\n        /* \"#utility.yul\":10386:10389   */\n      0x00\n        /* \"#utility.yul\":10409:10433   */\n      tag_192\n        /* \"#utility.yul\":10427:10432   */\n      dup3\n        /* \"#utility.yul\":10409:10433   */\n      tag_137\n      jump\t// in\n    tag_192:\n        /* \"#utility.yul\":10400:10433   */\n      swap2\n      pop\n        /* \"#utility.yul\":10455:10521   */\n      0xffffffffffffffffffffffffffffffffffffffffffffffffffffffffffffffff\n        /* \"#utility.yul\":10448:10453   */\n      dup3\n        /* \"#utility.yul\":10445:10522   */\n      eq\n        /* \"#utility.yul\":10442:10545   */\n      iszero\n      tag_193\n      jumpi\n        /* \"#utility.yul\":10525:10543   */\n      tag_194\n      tag_177\n      jump\t// in\n    tag_194:\n        /* \"#utility.yul\":10442:10545   */\n    tag_193:\n        /* \"#utility.yul\":10572:10573   */\n      0x01\n        /* \"#utility.yul\":10565:10570   */\n      dup3\n        /* \"#utility.yul\":10561:10574   */\n      add\n        /* \"#utility.yul\":10554:10574   */\n      swap1\n      pop\n        /* \"#utility.yul\":10347:10580   */\n      swap2\n      swap1\n      pop\n      jump\t// out\n        /* \"#utility.yul\":10586:10766   */\n    tag_177:\n        /* \"#utility.yul\":10634:10711   */\n      0x4e487b7100000000000000000000000000000000000000000000000000000000\n        /* \"#utility.yul\":10631:10632   */\n      0x00\n        /* \"#utility.yul\":10624:10712   */\n      mstore\n        /* \"#utility.yul\":10731:10735   */\n      0x11\n        /* \"#utility.yul\":10728:10729   */\n      0x04\n        /* \"#utility.yul\":10721:10736   */\n      mstore\n        /* \"#utility.yul\":10755:10759   */\n      0x24\n        /* \"#utility.yul\":10752:10753   */\n      0x00\n        /* \"#utility.yul\":10745:10760   */\n      revert\n        /* \"#utility.yul\":10772:10952   */\n    tag_37:\n        /* \"#utility.yul\":10820:10897   */\n      0x4e487b7100000000000000000000000000000000000000000000000000000000\n        /* \"#utility.yul\":10817:10818   */\n      0x00\n        /* \"#utility.yul\":10810:10898   */\n      mstore\n        /* \"#utility.yul\":10917:10921   */\n      0x32\n        /* \"#utility.yul\":10914:10915   */\n      0x04\n        /* \"#utility.yul\":10907:10922   */\n      mstore\n        /* \"#utility.yul\":10941:10945   */\n      0x24\n        /* \"#utility.yul\":10938:10939   */\n      0x00\n        /* \"#utility.yul\":10931:10946   */\n      revert\n        /* \"#utility.yul\":10958:11138   */\n    tag_29:\n        /* \"#utility.yul\":11006:11083   */\n      0x4e487b7100000000000000000000000000000000000000000000000000000000\n        /* \"#utility.yul\":11003:11004   */\n      0x00\n        /* \"#utility.yul\":10996:11084   */\n      mstore\n        /* \"#utility.yul\":11103:11107   */\n      0x41\n        /* \"#utility.yul\":11100:11101   */\n      0x04\n        /* \"#utility.yul\":11093:11108   */\n      mstore\n        /* \"#utility.yul\":11127:11131   */\n      0x24\n        /* \"#utility.yul\":11124:11125   */\n      0x00\n        /* \"#utility.yul\":11117:11132   */\n      revert\n        /* \"#utility.yul\":11144:11261   */\n    tag_61:\n        /* \"#utility.yul\":11253:11254   */\n      0x00\n        /* \"#utility.yul\":11250:11251   */\n      dup1\n        /* \"#utility.yul\":11243:11255   */\n      revert\n        /* \"#utility.yul\":11267:11384   */\n    tag_58:\n        /* \"#utility.yul\":11376:11377   */\n      0x00\n        /* \"#utility.yul\":11373:11374   */\n      dup1\n        /* \"#utility.yul\":11366:11378   */\n      revert\n        /* \"#utility.yul\":11390:11507   */\n    tag_158:\n        /* \"#utility.yul\":11499:11500   */\n      0x00\n        /* \"#utility.yul\":11496:11497   */\n      dup1\n        /* \"#utility.yul\":11489:11501   */\n      revert\n        /* \"#utility.yul\":11513:11630   */\n    tag_155:\n        /* \"#utility.yul\":11622:11623   */\n      0x00\n        /* \"#utility.yul\":11619:11620   */\n      dup1\n        /* \"#utility.yul\":11612:11624   */\n      revert\n        /* \"#utility.yul\":11636:11753   */\n    tag_64:\n        /* \"#utility.yul\":11745:11746   */\n      0x00\n        /* \"#utility.yul\":11742:11743   */\n      dup1\n        /* \"#utility.yul\":11735:11747   */\n      revert\n        /* \"#utility.yul\":11759:11876   */\n    tag_161:\n        /* \"#utility.yul\":11868:11869   */\n      0x00\n        /* \"#utility.yul\":11865:11866   */\n      dup1\n        /* \"#utility.yul\":11858:11870   */\n      revert\n        /* \"#utility.yul\":11882:11999   */\n    tag_75:\n        /* \"#utility.yul\":11991:11992   */\n      0x00\n        /* \"#utility.yul\":11988:11989   */\n      dup1\n        /* \"#utility.yul\":11981:11993   */\n      revert\n        /* \"#utility.yul\":12005:12122   */\n    tag_72:\n        /* \"#utility.yul\":12114:12115   */\n      0x00\n        /* \"#utility.yul\":12111:12112   */\n      dup1\n        /* \"#utility.yul\":12104:12116   */\n      revert\n        /* \"#utility.yul\":12128:12230   */\n    tag_118:\n        /* \"#utility.yul\":12169:12175   */\n      0x00\n        /* \"#utility.yul\":12220:12222   */\n      0x1f\n        /* \"#utility.yul\":12216:12223   */\n      not\n        /* \"#utility.yul\":12211:12213   */\n      0x1f\n        /* \"#utility.yul\":12204:12209   */\n      dup4\n        /* \"#utility.yul\":12200:12214   */\n      add\n        /* \"#utility.yul\":12196:12224   */\n      and\n        /* \"#utility.yul\":12186:12224   */\n      swap1\n      pop\n        /* \"#utility.yul\":12128:12230   */\n      swap2\n      swap1\n      pop\n      jump\t// out\n        /* \"#utility.yul\":12236:12391   */\n    tag_128:\n        /* \"#utility.yul\":12376:12383   */\n      0x66756e6331000000000000000000000000000000000000000000000000000000\n        /* \"#utility.yul\":12372:12373   */\n      0x00\n        /* \"#utility.yul\":12364:12370   */\n      dup3\n        /* \"#utility.yul\":12360:12374   */\n      add\n        /* \"#utility.yul\":12353:12384   */\n      mstore\n        /* \"#utility.yul\":12236:12391   */\n      pop\n      jump\t// out\n        /* \"#utility.yul\":12397:12552   */\n    tag_133:\n        /* \"#utility.yul\":12537:12544   */\n      0x66756e6332000000000000000000000000000000000000000000000000000000\n        /* \"#utility.yul\":12533:12534   */\n      0x00\n        /* \"#utility.yul\":12525:12531   */\n      dup3\n        /* \"#utility.yul\":12521:12535   */\n      add\n        /* \"#utility.yul\":12514:12545   */\n      mstore\n        /* \"#utility.yul\":12397:12552   */\n      pop\n      jump\t// out\n        /* \"#utility.yul\":12558:12680   */\n    tag_68:\n        /* \"#utility.yul\":12631:12655   */\n      tag_210\n        /* \"#utility.yul\":12649:12654   */\n      dup2\n        /* \"#utility.yul\":12631:12655   */\n      tag_137\n      jump\t// in\n    tag_210:\n        /* \"#utility.yul\":12624:12629   */\n      dup2\n        /* \"#utility.yul\":12621:12656   */\n      eq\n        /* \"#utility.yul\":12611:12674   */\n      tag_211\n      jumpi\n        /* \"#utility.yul\":12670:12671   */\n      0x00\n        /* \"#utility.yul\":12667:12668   */\n      dup1\n        /* \"#utility.yul\":12660:12672   */\n      revert\n        /* \"#utility.yul\":12611:12674   */\n    tag_211:\n        /* \"#utility.yul\":12558:12680   */\n      pop\n      jump\t// out\n\n    auxdata: 0xa26469706673582212204838cb326adba84f0f198764e1f46d66bc0d515fb8d1a825d9c6be7fc288823664736f6c63430008070033\n}\n",
				"bytecode": {
					"linkReferences": {},
					"object": "608060405234801561001057600080fd5b50610937806100206000396000f3fe6080604052600436106100345760003560e01c80633cb8008514610039578063415c2d9614610062578063b1ade4db14610092575b600080fd5b34801561004557600080fd5b50610060600480360381019061005b9190610367565b6100bd565b005b61007c6004803603810190610077919061031a565b610105565b6040516100899190610592565b60405180910390f35b34801561009e57600080fd5b506100a761026c565b6040516100b491906105b4565b60405180910390f35b7ffd33e90d0eac940755277aa91045b95664988beeeafc4ed7d1281a6d83afbc003382846100eb91906106a3565b6040516100f992919061051a565b60405180910390a15050565b60608282905067ffffffffffffffff81111561012457610123610830565b5b60405190808252806020026020018201604052801561015757816020015b60608152602001906001900390816101425790505b50905060005b83839050811015610265576000803073ffffffffffffffffffffffffffffffffffffffff1686868581811061019557610194610801565b5b90506020028101906101a791906105cf565b6040516101b5929190610501565b600060405180830381855af49150503d80600081146101f0576040519150601f19603f3d011682016040523d82523d6000602084013e6101f5565b606091505b509150915081610231576040517fe0b3c24600000000000000000000000000000000000000000000000000000000815260040160405180910390fd5b8084848151811061024557610244610801565b5b60200260200101819052505050808061025d90610789565b91505061015d565b5092915050565b60007ffd33e90d0eac940755277aa91045b95664988beeeafc4ed7d1281a6d83afbc003360026040516102a0929190610556565b60405180910390a1606f905090565b60008083601f8401126102c5576102c4610864565b5b8235905067ffffffffffffffff8111156102e2576102e161085f565b5b6020830191508360208202830111156102fe576102fd610873565b5b9250929050565b600081359050610314816108ea565b92915050565b6000806020838503121561033157610330610882565b5b600083013567ffffffffffffffff81111561034f5761034e61087d565b5b61035b858286016102af565b92509250509250929050565b6000806040838503121561037e5761037d610882565b5b600061038c85828601610305565b925050602061039d85828601610305565b9150509250929050565b60006103b38383610464565b905092915050565b6103c4816106f9565b82525050565b60006103d582610642565b6103df8185610665565b9350836020820285016103f185610632565b8060005b8581101561042d578484038952815161040e85826103a7565b945061041983610658565b925060208a019950506001810190506103f5565b50829750879550505050505092915050565b600061044b8385610687565b9350610458838584610747565b82840190509392505050565b600061046f8261064d565b6104798185610676565b9350610489818560208601610756565b61049281610887565b840191505092915050565b6104a681610735565b82525050565b60006104b9600583610692565b91506104c482610898565b602082019050919050565b60006104dc600583610692565b91506104e7826108c1565b602082019050919050565b6104fb8161072b565b82525050565b600061050e82848661043f565b91508190509392505050565b600060608201905061052f60008301856103bb565b8181036020830152610540816104ac565b905061054f60408301846104f2565b9392505050565b600060608201905061056b60008301856103bb565b818103602083015261057c816104cf565b905061058b604083018461049d565b9392505050565b600060208201905081810360008301526105ac81846103ca565b905092915050565b60006020820190506105c960008301846104f2565b92915050565b600080833560016020038436030381126105ec576105eb61086e565b5b80840192508235915067ffffffffffffffff82111561060e5761060d610869565b5b60208301925060018202360383131561062a57610629610878565b5b509250929050565b6000819050602082019050919050565b600081519050919050565b600081519050919050565b6000602082019050919050565b600082825260208201905092915050565b600082825260208201905092915050565b600081905092915050565b600082825260208201905092915050565b60006106ae8261072b565b91506106b98361072b565b9250827fffffffffffffffffffffffffffffffffffffffffffffffffffffffffffffffff038211156106ee576106ed6107d2565b5b828201905092915050565b60006107048261070b565b9050919050565b600073ffffffffffffffffffffffffffffffffffffffff82169050919050565b6000819050919050565b60006107408261072b565b9050919050565b82818337600083830152505050565b60005b83811015610774578082015181840152602081019050610759565b83811115610783576000848401525b50505050565b60006107948261072b565b91507fffffffffffffffffffffffffffffffffffffffffffffffffffffffffffffffff8214156107c7576107c66107d2565b5b600182019050919050565b7f4e487b7100000000000000000000000000000000000000000000000000000000600052601160045260246000fd5b7f4e487b7100000000000000000000000000000000000000000000000000000000600052603260045260246000fd5b7f4e487b7100000000000000000000000000000000000000000000000000000000600052604160045260246000fd5b600080fd5b600080fd5b600080fd5b600080fd5b600080fd5b600080fd5b600080fd5b600080fd5b6000601f19601f8301169050919050565b7f66756e6331000000000000000000000000000000000000000000000000000000600082015250565b7f66756e6332000000000000000000000000000000000000000000000000000000600082015250565b6108f38161072b565b81146108fe57600080fd5b5056fea26469706673582212204838cb326adba84f0f198764e1f46d66bc0d515fb8d1a825d9c6be7fc288823664736f6c63430008070033",
					"opcodes": "PUSH1 0x80 PUSH1 0x40 MSTORE CALLVALUE DUP1 ISZERO PUSH2 0x10 JUMPI PUSH1 0x0 DUP1 REVERT JUMPDEST POP PUSH2 0x937 DUP1 PUSH2 0x20 PUSH1 0x0 CODECOPY PUSH1 0x0 RETURN INVALID PUSH1 0x80 PUSH1 0x40 MSTORE PUSH1 0x4 CALLDATASIZE LT PUSH2 0x34 JUMPI PUSH1 0x0 CALLDATALOAD PUSH1 0xE0 SHR DUP1 PUSH4 0x3CB80085 EQ PUSH2 0x39 JUMPI DUP1 PUSH4 0x415C2D96 EQ PUSH2 0x62 JUMPI DUP1 PUSH4 0xB1ADE4DB EQ PUSH2 0x92 JUMPI JUMPDEST PUSH1 0x0 DUP1 REVERT JUMPDEST CALLVALUE DUP1 ISZERO PUSH2 0x45 JUMPI PUSH1 0x0 DUP1 REVERT JUMPDEST POP PUSH2 0x60 PUSH1 0x4 DUP1 CALLDATASIZE SUB DUP2 ADD SWAP1 PUSH2 0x5B SWAP2 SWAP1 PUSH2 0x367 JUMP JUMPDEST PUSH2 0xBD JUMP JUMPDEST STOP JUMPDEST PUSH2 0x7C PUSH1 0x4 DUP1 CALLDATASIZE SUB DUP2 ADD SWAP1 PUSH2 0x77 SWAP2 SWAP1 PUSH2 0x31A JUMP JUMPDEST PUSH2 0x105 JUMP JUMPDEST PUSH1 0x40 MLOAD PUSH2 0x89 SWAP2 SWAP1 PUSH2 0x592 JUMP JUMPDEST PUSH1 0x40 MLOAD DUP1 SWAP2 SUB SWAP1 RETURN JUMPDEST CALLVALUE DUP1 ISZERO PUSH2 0x9E JUMPI PUSH1 0x0 DUP1 REVERT JUMPDEST POP PUSH2 0xA7 PUSH2 0x26C JUMP JUMPDEST PUSH1 0x40 MLOAD PUSH2 0xB4 SWAP2 SWAP1 PUSH2 0x5B4 JUMP JUMPDEST PUSH1 0x40 MLOAD DUP1 SWAP2 SUB SWAP1 RETURN JUMPDEST PUSH32 0xFD33E90D0EAC940755277AA91045B95664988BEEEAFC4ED7D1281A6D83AFBC00 CALLER DUP3 DUP5 PUSH2 0xEB SWAP2 SWAP1 PUSH2 0x6A3 JUMP JUMPDEST PUSH1 0x40 MLOAD PUSH2 0xF9 SWAP3 SWAP2 SWAP1 PUSH2 0x51A JUMP JUMPDEST PUSH1 0x40 MLOAD DUP1 SWAP2 SUB SWAP1 LOG1 POP POP JUMP JUMPDEST PUSH1 0x60 DUP3 DUP3 SWAP1 POP PUSH8 0xFFFFFFFFFFFFFFFF DUP2 GT ISZERO PUSH2 0x124 JUMPI PUSH2 0x123 PUSH2 0x830 JUMP JUMPDEST JUMPDEST PUSH1 0x40 MLOAD SWAP1 DUP1 DUP3 MSTORE DUP1 PUSH1 0x20 MUL PUSH1 0x20 ADD DUP3 ADD PUSH1 0x40 MSTORE DUP1 ISZERO PUSH2 0x157 JUMPI DUP2 PUSH1 0x20 ADD JUMPDEST PUSH1 0x60 DUP2 MSTORE PUSH1 0x20 ADD SWAP1 PUSH1 0x1 SWAP1 SUB SWAP1 DUP2 PUSH2 0x142 JUMPI SWAP1 POP JUMPDEST POP SWAP1 POP PUSH1 0x0 JUMPDEST DUP4 DUP4 SWAP1 POP DUP2 LT ISZERO PUSH2 0x265 JUMPI PUSH1 0x0 DUP1 ADDRESS PUSH20 0xFFFFFFFFFFFFFFFFFFFFFFFFFFFFFFFFFFFFFFFF AND DUP7 DUP7 DUP6 DUP2 DUP2 LT PUSH2 0x195 JUMPI PUSH2 0x194 PUSH2 0x801 JUMP JUMPDEST JUMPDEST SWAP1 POP PUSH1 0x20 MUL DUP2 ADD SWAP1 PUSH2 0x1A7 SWAP2 SWAP1 PUSH2 0x5CF JUMP JUMPDEST PUSH1 0x40 MLOAD PUSH2 0x1B5 SWAP3 SWAP2 SWAP1 PUSH2 0x501 JUMP JUMPDEST PUSH1 0x0 PUSH1 0x40 MLOAD DUP1 DUP4 SUB DUP2 DUP6 GAS DELEGATECALL SWAP2 POP POP RETURNDATASIZE DUP1 PUSH1 0x0 DUP2 EQ PUSH2 0x1F0 JUMPI PUSH1 0x40 MLOAD SWAP2 POP PUSH1 0x1F NOT PUSH1 0x3F RETURNDATASIZE ADD AND DUP3 ADD PUSH1 0x40 MSTORE RETURNDATASIZE DUP3 MSTORE RETURNDATASIZE PUSH1 0x0 PUSH1 0x20 DUP5 ADD RETURNDATACOPY PUSH2 0x1F5 JUMP JUMPDEST PUSH1 0x60 SWAP2 POP JUMPDEST POP SWAP2 POP SWAP2 POP DUP2 PUSH2 0x231 JUMPI PUSH1 0x40 MLOAD PUSH32 0xE0B3C24600000000000000000000000000000000000000000000000000000000 DUP2 MSTORE PUSH1 0x4 ADD PUSH1 0x40 MLOAD DUP1 SWAP2 SUB SWAP1 REVERT JUMPDEST DUP1 DUP5 DUP5 DUP2 MLOAD DUP2 LT PUSH2 0x245 JUMPI PUSH2 0x244 PUSH2 0x801 JUMP JUMPDEST JUMPDEST PUSH1 0x20 MUL PUSH1 0x20 ADD ADD DUP2 SWAP1 MSTORE POP POP POP DUP1 DUP1 PUSH2 0x25D SWAP1 PUSH2 0x789 JUMP JUMPDEST SWAP2 POP POP PUSH2 0x15D JUMP JUMPDEST POP SWAP3 SWAP2 POP POP JUMP JUMPDEST PUSH1 0x0 PUSH32 0xFD33E90D0EAC940755277AA91045B95664988BEEEAFC4ED7D1281A6D83AFBC00 CALLER PUSH1 0x2 PUSH1 0x40 MLOAD PUSH2 0x2A0 SWAP3 SWAP2 SWAP1 PUSH2 0x556 JUMP JUMPDEST PUSH1 0x40 MLOAD DUP1 SWAP2 SUB SWAP1 LOG1 PUSH1 0x6F SWAP1 POP SWAP1 JUMP JUMPDEST PUSH1 0x0 DUP1 DUP4 PUSH1 0x1F DUP5 ADD SLT PUSH2 0x2C5 JUMPI PUSH2 0x2C4 PUSH2 0x864 JUMP JUMPDEST JUMPDEST DUP3 CALLDATALOAD SWAP1 POP PUSH8 0xFFFFFFFFFFFFFFFF DUP2 GT ISZERO PUSH2 0x2E2 JUMPI PUSH2 0x2E1 PUSH2 0x85F JUMP JUMPDEST JUMPDEST PUSH1 0x20 DUP4 ADD SWAP2 POP DUP4 PUSH1 0x20 DUP3 MUL DUP4 ADD GT ISZERO PUSH2 0x2FE JUMPI PUSH2 0x2FD PUSH2 0x873 JUMP JUMPDEST JUMPDEST SWAP3 POP SWAP3 SWAP1 POP JUMP JUMPDEST PUSH1 0x0 DUP2 CALLDATALOAD SWAP1 POP PUSH2 0x314 DUP2 PUSH2 0x8EA JUMP JUMPDEST SWAP3 SWAP2 POP POP JUMP JUMPDEST PUSH1 0x0 DUP1 PUSH1 0x20 DUP4 DUP6 SUB SLT ISZERO PUSH2 0x331 JUMPI PUSH2 0x330 PUSH2 0x882 JUMP JUMPDEST JUMPDEST PUSH1 0x0 DUP4 ADD CALLDATALOAD PUSH8 0xFFFFFFFFFFFFFFFF DUP2 GT ISZERO PUSH2 0x34F JUMPI PUSH2 0x34E PUSH2 0x87D JUMP JUMPDEST JUMPDEST PUSH2 0x35B DUP6 DUP3 DUP7 ADD PUSH2 0x2AF JUMP JUMPDEST SWAP3 POP SWAP3 POP POP SWAP3 POP SWAP3 SWAP1 POP JUMP JUMPDEST PUSH1 0x0 DUP1 PUSH1 0x40 DUP4 DUP6 SUB SLT ISZERO PUSH2 0x37E JUMPI PUSH2 0x37D PUSH2 0x882 JUMP JUMPDEST JUMPDEST PUSH1 0x0 PUSH2 0x38C DUP6 DUP3 DUP7 ADD PUSH2 0x305 JUMP JUMPDEST SWAP3 POP POP PUSH1 0x20 PUSH2 0x39D DUP6 DUP3 DUP7 ADD PUSH2 0x305 JUMP JUMPDEST SWAP2 POP POP SWAP3 POP SWAP3 SWAP1 POP JUMP JUMPDEST PUSH1 0x0 PUSH2 0x3B3 DUP4 DUP4 PUSH2 0x464 JUMP JUMPDEST SWAP1 POP SWAP3 SWAP2 POP POP JUMP JUMPDEST PUSH2 0x3C4 DUP2 PUSH2 0x6F9 JUMP JUMPDEST DUP3 MSTORE POP POP JUMP JUMPDEST PUSH1 0x0 PUSH2 0x3D5 DUP3 PUSH2 0x642 JUMP JUMPDEST PUSH2 0x3DF DUP2 DUP6 PUSH2 0x665 JUMP JUMPDEST SWAP4 POP DUP4 PUSH1 0x20 DUP3 MUL DUP6 ADD PUSH2 0x3F1 DUP6 PUSH2 0x632 JUMP JUMPDEST DUP1 PUSH1 0x0 JUMPDEST DUP6 DUP2 LT ISZERO PUSH2 0x42D JUMPI DUP5 DUP5 SUB DUP10 MSTORE DUP2 MLOAD PUSH2 0x40E DUP6 DUP3 PUSH2 0x3A7 JUMP JUMPDEST SWAP5 POP PUSH2 0x419 DUP4 PUSH2 0x658 JUMP JUMPDEST SWAP3 POP PUSH1 0x20 DUP11 ADD SWAP10 POP POP PUSH1 0x1 DUP2 ADD SWAP1 POP PUSH2 0x3F5 JUMP JUMPDEST POP DUP3 SWAP8 POP DUP8 SWAP6 POP POP POP POP POP POP SWAP3 SWAP2 POP POP JUMP JUMPDEST PUSH1 0x0 PUSH2 0x44B DUP4 DUP6 PUSH2 0x687 JUMP JUMPDEST SWAP4 POP PUSH2 0x458 DUP4 DUP6 DUP5 PUSH2 0x747 JUMP JUMPDEST DUP3 DUP5 ADD SWAP1 POP SWAP4 SWAP3 POP POP POP JUMP JUMPDEST PUSH1 0x0 PUSH2 0x46F DUP3 PUSH2 0x64D JUMP JUMPDEST PUSH2 0x479 DUP2 DUP6 PUSH2 0x676 JUMP JUMPDEST SWAP4 POP PUSH2 0x489 DUP2 DUP6 PUSH1 0x20 DUP7 ADD PUSH2 0x756 JUMP JUMPDEST PUSH2 0x492 DUP2 PUSH2 0x887 JUMP JUMPDEST DUP5 ADD SWAP2 POP POP SWAP3 SWAP2 POP POP JUMP JUMPDEST PUSH2 0x4A6 DUP2 PUSH2 0x735 JUMP JUMPDEST DUP3 MSTORE POP POP JUMP JUMPDEST PUSH1 0x0 PUSH2 0x4B9 PUSH1 0x5 DUP4 PUSH2 0x692 JUMP JUMPDEST SWAP2 POP PUSH2 0x4C4 DUP3 PUSH2 0x898 JUMP JUMPDEST PUSH1 0x20 DUP3 ADD SWAP1 POP SWAP2 SWAP1 POP JUMP JUMPDEST PUSH1 0x0 PUSH2 0x4DC PUSH1 0x5 DUP4 PUSH2 0x692 JUMP JUMPDEST SWAP2 POP PUSH2 0x4E7 DUP3 PUSH2 0x8C1 JUMP JUMPDEST PUSH1 0x20 DUP3 ADD SWAP1 POP SWAP2 SWAP1 POP JUMP JUMPDEST PUSH2 0x4FB DUP2 PUSH2 0x72B JUMP JUMPDEST DUP3 MSTORE POP POP JUMP JUMPDEST PUSH1 0x0 PUSH2 0x50E DUP3 DUP5 DUP7 PUSH2 0x43F JUMP JUMPDEST SWAP2 POP DUP2 SWAP1 POP SWAP4 SWAP3 POP POP POP JUMP JUMPDEST PUSH1 0x0 PUSH1 0x60 DUP3 ADD SWAP1 POP PUSH2 0x52F PUSH1 0x0 DUP4 ADD DUP6 PUSH2 0x3BB JUMP JUMPDEST DUP2 DUP2 SUB PUSH1 0x20 DUP4 ADD MSTORE PUSH2 0x540 DUP2 PUSH2 0x4AC JUMP JUMPDEST SWAP1 POP PUSH2 0x54F PUSH1 0x40 DUP4 ADD DUP5 PUSH2 0x4F2 JUMP JUMPDEST SWAP4 SWAP3 POP POP POP JUMP JUMPDEST PUSH1 0x0 PUSH1 0x60 DUP3 ADD SWAP1 POP PUSH2 0x56B PUSH1 0x0 DUP4 ADD DUP6 PUSH2 0x3BB JUMP JUMPDEST DUP2 DUP2 SUB PUSH1 0x20 DUP4 ADD MSTORE PUSH2 0x57C DUP2 PUSH2 0x4CF JUMP JUMPDEST SWAP1 POP PUSH2 0x58B PUSH1 0x40 DUP4 ADD DUP5 PUSH2 0x49D JUMP JUMPDEST SWAP4 SWAP3 POP POP POP JUMP JUMPDEST PUSH1 0x0 PUSH1 0x20 DUP3 ADD SWAP1 POP DUP2 DUP2 SUB PUSH1 0x0 DUP4 ADD MSTORE PUSH2 0x5AC DUP2 DUP5 PUSH2 0x3CA JUMP JUMPDEST SWAP1 POP SWAP3 SWAP2 POP POP JUMP JUMPDEST PUSH1 0x0 PUSH1 0x20 DUP3 ADD SWAP1 POP PUSH2 0x5C9 PUSH1 0x0 DUP4 ADD DUP5 PUSH2 0x4F2 JUMP JUMPDEST SWAP3 SWAP2 POP POP JUMP JUMPDEST PUSH1 0x0 DUP1 DUP4 CALLDATALOAD PUSH1 0x1 PUSH1 0x20 SUB DUP5 CALLDATASIZE SUB SUB DUP2 SLT PUSH2 0x5EC JUMPI PUSH2 0x5EB PUSH2 0x86E JUMP JUMPDEST JUMPDEST DUP1 DUP5 ADD SWAP3 POP DUP3 CALLDATALOAD SWAP2 POP PUSH8 0xFFFFFFFFFFFFFFFF DUP3 GT ISZERO PUSH2 0x60E JUMPI PUSH2 0x60D PUSH2 0x869 JUMP JUMPDEST JUMPDEST PUSH1 0x20 DUP4 ADD SWAP3 POP PUSH1 0x1 DUP3 MUL CALLDATASIZE SUB DUP4 SGT ISZERO PUSH2 0x62A JUMPI PUSH2 0x629 PUSH2 0x878 JUMP JUMPDEST JUMPDEST POP SWAP3 POP SWAP3 SWAP1 POP JUMP JUMPDEST PUSH1 0x0 DUP2 SWAP1 POP PUSH1 0x20 DUP3 ADD SWAP1 POP SWAP2 SWAP1 POP JUMP JUMPDEST PUSH1 0x0 DUP2 MLOAD SWAP1 POP SWAP2 SWAP1 POP JUMP JUMPDEST PUSH1 0x0 DUP2 MLOAD SWAP1 POP SWAP2 SWAP1 POP JUMP JUMPDEST PUSH1 0x0 PUSH1 0x20 DUP3 ADD SWAP1 POP SWAP2 SWAP1 POP JUMP JUMPDEST PUSH1 0x0 DUP3 DUP3 MSTORE PUSH1 0x20 DUP3 ADD SWAP1 POP SWAP3 SWAP2 POP POP JUMP JUMPDEST PUSH1 0x0 DUP3 DUP3 MSTORE PUSH1 0x20 DUP3 ADD SWAP1 POP SWAP3 SWAP2 POP POP JUMP JUMPDEST PUSH1 0x0 DUP2 SWAP1 POP SWAP3 SWAP2 POP POP JUMP JUMPDEST PUSH1 0x0 DUP3 DUP3 MSTORE PUSH1 0x20 DUP3 ADD SWAP1 POP SWAP3 SWAP2 POP POP JUMP JUMPDEST PUSH1 0x0 PUSH2 0x6AE DUP3 PUSH2 0x72B JUMP JUMPDEST SWAP2 POP PUSH2 0x6B9 DUP4 PUSH2 0x72B JUMP JUMPDEST SWAP3 POP DUP3 PUSH32 0xFFFFFFFFFFFFFFFFFFFFFFFFFFFFFFFFFFFFFFFFFFFFFFFFFFFFFFFFFFFFFFFF SUB DUP3 GT ISZERO PUSH2 0x6EE JUMPI PUSH2 0x6ED PUSH2 0x7D2 JUMP JUMPDEST JUMPDEST DUP3 DUP3 ADD SWAP1 POP SWAP3 SWAP2 POP POP JUMP JUMPDEST PUSH1 0x0 PUSH2 0x704 DUP3 PUSH2 0x70B JUMP JUMPDEST SWAP1 POP SWAP2 SWAP1 POP JUMP JUMPDEST PUSH1 0x0 PUSH20 0xFFFFFFFFFFFFFFFFFFFFFFFFFFFFFFFFFFFFFFFF DUP3 AND SWAP1 POP SWAP2 SWAP1 POP JUMP JUMPDEST PUSH1 0x0 DUP2 SWAP1 POP SWAP2 SWAP1 POP JUMP JUMPDEST PUSH1 0x0 PUSH2 0x740 DUP3 PUSH2 0x72B JUMP JUMPDEST SWAP1 POP SWAP2 SWAP1 POP JUMP JUMPDEST DUP3 DUP2 DUP4 CALLDATACOPY PUSH1 0x0 DUP4 DUP4 ADD MSTORE POP POP POP JUMP JUMPDEST PUSH1 0x0 JUMPDEST DUP4 DUP2 LT ISZERO PUSH2 0x774 JUMPI DUP1 DUP3 ADD MLOAD DUP2 DUP5 ADD MSTORE PUSH1 0x20 DUP2 ADD SWAP1 POP PUSH2 0x759 JUMP JUMPDEST DUP4 DUP2 GT ISZERO PUSH2 0x783 JUMPI PUSH1 0x0 DUP5 DUP5 ADD MSTORE JUMPDEST POP POP POP POP JUMP JUMPDEST PUSH1 0x0 PUSH2 0x794 DUP3 PUSH2 0x72B JUMP JUMPDEST SWAP2 POP PUSH32 0xFFFFFFFFFFFFFFFFFFFFFFFFFFFFFFFFFFFFFFFFFFFFFFFFFFFFFFFFFFFFFFFF DUP3 EQ ISZERO PUSH2 0x7C7 JUMPI PUSH2 0x7C6 PUSH2 0x7D2 JUMP JUMPDEST JUMPDEST PUSH1 0x1 DUP3 ADD SWAP1 POP SWAP2 SWAP1 POP JUMP JUMPDEST PUSH32 0x4E487B7100000000000000000000000000000000000000000000000000000000 PUSH1 0x0 MSTORE PUSH1 0x11 PUSH1 0x4 MSTORE PUSH1 0x24 PUSH1 0x0 REVERT JUMPDEST PUSH32 0x4E487B7100000000000000000000000000000000000000000000000000000000 PUSH1 0x0 MSTORE PUSH1 0x32 PUSH1 0x4 MSTORE PUSH1 0x24 PUSH1 0x0 REVERT JUMPDEST PUSH32 0x4E487B7100000000000000000000000000000000000000000000000000000000 PUSH1 0x0 MSTORE PUSH1 0x41 PUSH1 0x4 MSTORE PUSH1 0x24 PUSH1 0x0 REVERT JUMPDEST PUSH1 0x0 DUP1 REVERT JUMPDEST PUSH1 0x0 DUP1 REVERT JUMPDEST PUSH1 0x0 DUP1 REVERT JUMPDEST PUSH1 0x0 DUP1 REVERT JUMPDEST PUSH1 0x0 DUP1 REVERT JUMPDEST PUSH1 0x0 DUP1 REVERT JUMPDEST PUSH1 0x0 DUP1 REVERT JUMPDEST PUSH1 0x0 DUP1 REVERT JUMPDEST PUSH1 0x0 PUSH1 0x1F NOT PUSH1 0x1F DUP4 ADD AND SWAP1 POP SWAP2 SWAP1 POP JUMP JUMPDEST PUSH32 0x66756E6331000000000000000000000000000000000000000000000000000000 PUSH1 0x0 DUP3 ADD MSTORE POP JUMP JUMPDEST PUSH32 0x66756E6332000000000000000000000000000000000000000000000000000000 PUSH1 0x0 DUP3 ADD MSTORE POP JUMP JUMPDEST PUSH2 0x8F3 DUP2 PUSH2 0x72B JUMP JUMPDEST DUP2 EQ PUSH2 0x8FE JUMPI PUSH1 0x0 DUP1 REVERT JUMPDEST POP JUMP INVALID LOG2 PUSH5 0x6970667358 0x22 SLT KECCAK256 BASEFEE CODESIZE 0xCB ORIGIN PUSH11 0xDBA84F0F198764E1F46D66 0xBC 0xD MLOAD 0x5F 0xB8 0xD1 0xA8 0x25 0xD9 0xC6 0xBE PUSH32 0xC288823664736F6C634300080700330000000000000000000000000000000000 "
				},
				"gasEstimates": {
					"creation": {
						"codeDepositCost": "471800",
						"executionCost": "505",
						"totalCost": "472305"
					},
					"external": {
						"func1(uint256,uint256)": "infinite",
						"func2()": "infinite",
						"multiDelegateCall(bytes[])": "infinite"
					}
				},
				"methodIdentifiers": {
					"func1(uint256,uint256)": "3cb80085",
					"func2()": "b1ade4db",
					"multiDelegateCall(bytes[])": "415c2d96"
				}
			},
			"storageLayout": {
				"storage": [],
				"types": null
			},
			"userdoc": {
				"kind": "user",
				"methods": {},
				"version": 1
			}
		}
	}
}