{
	"47MultiDelegateCall.sol": {
		"Helper": {
			"abi": [
				{
					"inputs": [
						{
							"internalType": "uint256",
							"name": "x",
							"type": "uint256"
						},
						{
							"internalType": "uint256",
							"name": "y",
							"type": "uint256"
						}
					],
					"name": "getFunc1Data",
					"outputs": [
						{
							"internalType": "bytes",
							"name": "",
							"type": "bytes"
						}
					],
					"stateMutability": "pure",
					"type": "function"
				},
				{
					"inputs": [],
					"name": "getFunc2Data",
					"outputs": [
						{
							"internalType": "bytes",
							"name": "",
							"type": "bytes"
						}
					],
					"stateMutability": "pure",
					"type": "function"
				}
			],
			"devdoc": {
				"kind": "dev",
				"methods": {},
				"version": 1
			},
			"evm": {
				"assembly": "    /* \"47MultiDelegateCall.sol\":1131:1461  contract Helper{... */\n  mstore(0x40, 0x80)\n  callvalue\n  dup1\n  iszero\n  tag_1\n  jumpi\n  0x00\n  dup1\n  revert\ntag_1:\n  pop\n  dataSize(sub_0)\n  dup1\n  dataOffset(sub_0)\n  0x00\n  codecopy\n  0x00\n  return\nstop\n\nsub_0: assembly {\n        /* \"47MultiDelegateCall.sol\":1131:1461  contract Helper{... */\n      mstore(0x40, 0x80)\n      callvalue\n      dup1\n      iszero\n      tag_1\n      jumpi\n      0x00\n      dup1\n      revert\n    tag_1:\n      pop\n      jumpi(tag_2, lt(calldatasize, 0x04))\n      shr(0xe0, calldataload(0x00))\n      dup1\n      0x73fc3495\n      eq\n      tag_3\n      jumpi\n      dup1\n      0x96db41be\n      eq\n      tag_4\n      jumpi\n    tag_2:\n      0x00\n      dup1\n      revert\n        /* \"47MultiDelegateCall.sol\":1152:1311  function getFunc1Data(uint x,uint y)external pure returns(bytes memory){... */\n    tag_3:\n      tag_5\n      0x04\n      dup1\n      calldatasize\n      sub\n      dup2\n      add\n      swap1\n      tag_6\n      swap2\n      swap1\n      tag_7\n      jump\t// in\n    tag_6:\n      tag_8\n      jump\t// in\n    tag_5:\n      mload(0x40)\n      tag_9\n      swap2\n      swap1\n      tag_10\n      jump\t// in\n    tag_9:\n      mload(0x40)\n      dup1\n      swap2\n      sub\n      swap1\n      return\n        /* \"47MultiDelegateCall.sol\":1317:1459  function getFunc2Data()external pure returns(bytes memory){... */\n    tag_4:\n      tag_11\n      tag_12\n      jump\t// in\n    tag_11:\n      mload(0x40)\n      tag_13\n      swap2\n      swap1\n      tag_10\n      jump\t// in\n    tag_13:\n      mload(0x40)\n      dup1\n      swap2\n      sub\n      swap1\n      return\n        /* \"47MultiDelegateCall.sol\":1152:1311  function getFunc1Data(uint x,uint y)external pure returns(bytes memory){... */\n    tag_8:\n        /* \"47MultiDelegateCall.sol\":1210:1222  bytes memory */\n      0x60\n        /* \"47MultiDelegateCall.sol\":1263:1299  TestMultiDelegateCall.func1.selector */\n      shl(0xe0, 0x3cb80085)\n        /* \"47MultiDelegateCall.sol\":1300:1301  x */\n      dup4\n        /* \"47MultiDelegateCall.sol\":1302:1303  y */\n      dup4\n        /* \"47MultiDelegateCall.sol\":1240:1304  abi.encodeWithSelector(TestMultiDelegateCall.func1.selector,x,y) */\n      add(0x24, mload(0x40))\n      tag_15\n      swap3\n      swap2\n      swap1\n      tag_16\n      jump\t// in\n    tag_15:\n      mload(0x40)\n      0x20\n      dup2\n      dup4\n      sub\n      sub\n      dup2\n      mstore\n      swap1\n      0x40\n      mstore\n      swap1\n      not(0xffffffffffffffffffffffffffffffffffffffffffffffffffffffff)\n      and\n      0x20\n      dup3\n      add\n      dup1\n      mload\n      0xffffffffffffffffffffffffffffffffffffffffffffffffffffffff\n      dup4\n      dup2\n      dup4\n      and\n      or\n      dup4\n      mstore\n      pop\n      pop\n      pop\n      pop\n        /* \"47MultiDelegateCall.sol\":1233:1304  return abi.encodeWithSelector(TestMultiDelegateCall.func1.selector,x,y) */\n      swap1\n      pop\n        /* \"47MultiDelegateCall.sol\":1152:1311  function getFunc1Data(uint x,uint y)external pure returns(bytes memory){... */\n      swap3\n      swap2\n      pop\n      pop\n      jump\t// out\n        /* \"47MultiDelegateCall.sol\":1317:1459  function getFunc2Data()external pure returns(bytes memory){... */\n    tag_12:\n        /* \"47MultiDelegateCall.sol\":1362:1374  bytes memory */\n      0x60\n        /* \"47MultiDelegateCall.sol\":1415:1451  TestMultiDelegateCall.func2.selector */\n      shl(0xe0, 0xb1ade4db)\n        /* \"47MultiDelegateCall.sol\":1392:1452  abi.encodeWithSelector(TestMultiDelegateCall.func2.selector) */\n      add(0x24, mload(0x40))\n      mload(0x40)\n      0x20\n      dup2\n      dup4\n      sub\n      sub\n      dup2\n      mstore\n      swap1\n      0x40\n      mstore\n      swap1\n      not(0xffffffffffffffffffffffffffffffffffffffffffffffffffffffff)\n      and\n      0x20\n      dup3\n      add\n      dup1\n      mload\n      0xffffffffffffffffffffffffffffffffffffffffffffffffffffffff\n      dup4\n      dup2\n      dup4\n      and\n      or\n      dup4\n      mstore\n      pop\n      pop\n      pop\n      pop\n        /* \"47MultiDelegateCall.sol\":1385:1452  return abi.encodeWithSelector(TestMultiDelegateCall.func2.selector) */\n      swap1\n      pop\n        /* \"47MultiDelegateCall.sol\":1317:1459  function getFunc2Data()external pure returns(bytes memory){... */\n      swap1\n      jump\t// out\n        /* \"#utility.yul\":7:146   */\n    tag_19:\n        /* \"#utility.yul\":53:58   */\n      0x00\n        /* \"#utility.yul\":91:97   */\n      dup2\n        /* \"#utility.yul\":78:98   */\n      calldataload\n        /* \"#utility.yul\":69:98   */\n      swap1\n      pop\n        /* \"#utility.yul\":107:140   */\n      tag_21\n        /* \"#utility.yul\":134:139   */\n      dup2\n        /* \"#utility.yul\":107:140   */\n      tag_22\n      jump\t// in\n    tag_21:\n        /* \"#utility.yul\":7:146   */\n      swap3\n      swap2\n      pop\n      pop\n      jump\t// out\n        /* \"#utility.yul\":152:626   */\n    tag_7:\n        /* \"#utility.yul\":220:226   */\n      0x00\n        /* \"#utility.yul\":228:234   */\n      dup1\n        /* \"#utility.yul\":277:279   */\n      0x40\n        /* \"#utility.yul\":265:274   */\n      dup4\n        /* \"#utility.yul\":256:263   */\n      dup6\n        /* \"#utility.yul\":252:275   */\n      sub\n        /* \"#utility.yul\":248:280   */\n      slt\n        /* \"#utility.yul\":245:364   */\n      iszero\n      tag_24\n      jumpi\n        /* \"#utility.yul\":283:362   */\n      tag_25\n      tag_26\n      jump\t// in\n    tag_25:\n        /* \"#utility.yul\":245:364   */\n    tag_24:\n        /* \"#utility.yul\":403:404   */\n      0x00\n        /* \"#utility.yul\":428:481   */\n      tag_27\n        /* \"#utility.yul\":473:480   */\n      dup6\n        /* \"#utility.yul\":464:470   */\n      dup3\n        /* \"#utility.yul\":453:462   */\n      dup7\n        /* \"#utility.yul\":449:471   */\n      add\n        /* \"#utility.yul\":428:481   */\n      tag_19\n      jump\t// in\n    tag_27:\n        /* \"#utility.yul\":418:481   */\n      swap3\n      pop\n        /* \"#utility.yul\":374:491   */\n      pop\n        /* \"#utility.yul\":530:532   */\n      0x20\n        /* \"#utility.yul\":556:609   */\n      tag_28\n        /* \"#utility.yul\":601:608   */\n      dup6\n        /* \"#utility.yul\":592:598   */\n      dup3\n        /* \"#utility.yul\":581:590   */\n      dup7\n        /* \"#utility.yul\":577:599   */\n      add\n        /* \"#utility.yul\":556:609   */\n      tag_19\n      jump\t// in\n    tag_28:\n        /* \"#utility.yul\":546:609   */\n      swap2\n      pop\n        /* \"#utility.yul\":501:619   */\n      pop\n        /* \"#utility.yul\":152:626   */\n      swap3\n      pop\n      swap3\n      swap1\n      pop\n      jump\t// out\n        /* \"#utility.yul\":632:992   */\n    tag_29:\n        /* \"#utility.yul\":718:721   */\n      0x00\n        /* \"#utility.yul\":746:784   */\n      tag_31\n        /* \"#utility.yul\":778:783   */\n      dup3\n        /* \"#utility.yul\":746:784   */\n      tag_32\n      jump\t// in\n    tag_31:\n        /* \"#utility.yul\":800:870   */\n      tag_33\n        /* \"#utility.yul\":863:869   */\n      dup2\n        /* \"#utility.yul\":858:861   */\n      dup6\n        /* \"#utility.yul\":800:870   */\n      tag_34\n      jump\t// in\n    tag_33:\n        /* \"#utility.yul\":793:870   */\n      swap4\n      pop\n        /* \"#utility.yul\":879:931   */\n      tag_35\n        /* \"#utility.yul\":924:930   */\n      dup2\n        /* \"#utility.yul\":919:922   */\n      dup6\n        /* \"#utility.yul\":912:916   */\n      0x20\n        /* \"#utility.yul\":905:910   */\n      dup7\n        /* \"#utility.yul\":901:917   */\n      add\n        /* \"#utility.yul\":879:931   */\n      tag_36\n      jump\t// in\n    tag_35:\n        /* \"#utility.yul\":956:985   */\n      tag_37\n        /* \"#utility.yul\":978:984   */\n      dup2\n        /* \"#utility.yul\":956:985   */\n      tag_38\n      jump\t// in\n    tag_37:\n        /* \"#utility.yul\":951:954   */\n      dup5\n        /* \"#utility.yul\":947:986   */\n      add\n        /* \"#utility.yul\":940:986   */\n      swap2\n      pop\n        /* \"#utility.yul\":722:992   */\n      pop\n        /* \"#utility.yul\":632:992   */\n      swap3\n      swap2\n      pop\n      pop\n      jump\t// out\n        /* \"#utility.yul\":998:1116   */\n    tag_39:\n        /* \"#utility.yul\":1085:1109   */\n      tag_41\n        /* \"#utility.yul\":1103:1108   */\n      dup2\n        /* \"#utility.yul\":1085:1109   */\n      tag_42\n      jump\t// in\n    tag_41:\n        /* \"#utility.yul\":1080:1083   */\n      dup3\n        /* \"#utility.yul\":1073:1110   */\n      mstore\n        /* \"#utility.yul\":998:1116   */\n      pop\n      pop\n      jump\t// out\n        /* \"#utility.yul\":1122:1431   */\n    tag_10:\n        /* \"#utility.yul\":1233:1237   */\n      0x00\n        /* \"#utility.yul\":1271:1273   */\n      0x20\n        /* \"#utility.yul\":1260:1269   */\n      dup3\n        /* \"#utility.yul\":1256:1274   */\n      add\n        /* \"#utility.yul\":1248:1274   */\n      swap1\n      pop\n        /* \"#utility.yul\":1320:1329   */\n      dup2\n        /* \"#utility.yul\":1314:1318   */\n      dup2\n        /* \"#utility.yul\":1310:1330   */\n      sub\n        /* \"#utility.yul\":1306:1307   */\n      0x00\n        /* \"#utility.yul\":1295:1304   */\n      dup4\n        /* \"#utility.yul\":1291:1308   */\n      add\n        /* \"#utility.yul\":1284:1331   */\n      mstore\n        /* \"#utility.yul\":1348:1424   */\n      tag_44\n        /* \"#utility.yul\":1419:1423   */\n      dup2\n        /* \"#utility.yul\":1410:1416   */\n      dup5\n        /* \"#utility.yul\":1348:1424   */\n      tag_29\n      jump\t// in\n    tag_44:\n        /* \"#utility.yul\":1340:1424   */\n      swap1\n      pop\n        /* \"#utility.yul\":1122:1431   */\n      swap3\n      swap2\n      pop\n      pop\n      jump\t// out\n        /* \"#utility.yul\":1437:1769   */\n    tag_16:\n        /* \"#utility.yul\":1558:1562   */\n      0x00\n        /* \"#utility.yul\":1596:1598   */\n      0x40\n        /* \"#utility.yul\":1585:1594   */\n      dup3\n        /* \"#utility.yul\":1581:1599   */\n      add\n        /* \"#utility.yul\":1573:1599   */\n      swap1\n      pop\n        /* \"#utility.yul\":1609:1680   */\n      tag_46\n        /* \"#utility.yul\":1677:1678   */\n      0x00\n        /* \"#utility.yul\":1666:1675   */\n      dup4\n        /* \"#utility.yul\":1662:1679   */\n      add\n        /* \"#utility.yul\":1653:1659   */\n      dup6\n        /* \"#utility.yul\":1609:1680   */\n      tag_39\n      jump\t// in\n    tag_46:\n        /* \"#utility.yul\":1690:1762   */\n      tag_47\n        /* \"#utility.yul\":1758:1760   */\n      0x20\n        /* \"#utility.yul\":1747:1756   */\n      dup4\n        /* \"#utility.yul\":1743:1761   */\n      add\n        /* \"#utility.yul\":1734:1740   */\n      dup5\n        /* \"#utility.yul\":1690:1762   */\n      tag_39\n      jump\t// in\n    tag_47:\n        /* \"#utility.yul\":1437:1769   */\n      swap4\n      swap3\n      pop\n      pop\n      pop\n      jump\t// out\n        /* \"#utility.yul\":1856:1954   */\n    tag_32:\n        /* \"#utility.yul\":1907:1913   */\n      0x00\n        /* \"#utility.yul\":1941:1946   */\n      dup2\n        /* \"#utility.yul\":1935:1947   */\n      mload\n        /* \"#utility.yul\":1925:1947   */\n      swap1\n      pop\n        /* \"#utility.yul\":1856:1954   */\n      swap2\n      swap1\n      pop\n      jump\t// out\n        /* \"#utility.yul\":1960:2128   */\n    tag_34:\n        /* \"#utility.yul\":2043:2054   */\n      0x00\n        /* \"#utility.yul\":2077:2083   */\n      dup3\n        /* \"#utility.yul\":2072:2075   */\n      dup3\n        /* \"#utility.yul\":2065:2084   */\n      mstore\n        /* \"#utility.yul\":2117:2121   */\n      0x20\n        /* \"#utility.yul\":2112:2115   */\n      dup3\n        /* \"#utility.yul\":2108:2122   */\n      add\n        /* \"#utility.yul\":2093:2122   */\n      swap1\n      pop\n        /* \"#utility.yul\":1960:2128   */\n      swap3\n      swap2\n      pop\n      pop\n      jump\t// out\n        /* \"#utility.yul\":2134:2211   */\n    tag_42:\n        /* \"#utility.yul\":2171:2178   */\n      0x00\n        /* \"#utility.yul\":2200:2205   */\n      dup2\n        /* \"#utility.yul\":2189:2205   */\n      swap1\n      pop\n        /* \"#utility.yul\":2134:2211   */\n      swap2\n      swap1\n      pop\n      jump\t// out\n        /* \"#utility.yul\":2217:2524   */\n    tag_36:\n        /* \"#utility.yul\":2285:2286   */\n      0x00\n        /* \"#utility.yul\":2295:2408   */\n    tag_54:\n        /* \"#utility.yul\":2309:2315   */\n      dup4\n        /* \"#utility.yul\":2306:2307   */\n      dup2\n        /* \"#utility.yul\":2303:2316   */\n      lt\n        /* \"#utility.yul\":2295:2408   */\n      iszero\n      tag_56\n      jumpi\n        /* \"#utility.yul\":2394:2395   */\n      dup1\n        /* \"#utility.yul\":2389:2392   */\n      dup3\n        /* \"#utility.yul\":2385:2396   */\n      add\n        /* \"#utility.yul\":2379:2397   */\n      mload\n        /* \"#utility.yul\":2375:2376   */\n      dup2\n        /* \"#utility.yul\":2370:2373   */\n      dup5\n        /* \"#utility.yul\":2366:2377   */\n      add\n        /* \"#utility.yul\":2359:2398   */\n      mstore\n        /* \"#utility.yul\":2331:2333   */\n      0x20\n        /* \"#utility.yul\":2328:2329   */\n      dup2\n        /* \"#utility.yul\":2324:2334   */\n      add\n        /* \"#utility.yul\":2319:2334   */\n      swap1\n      pop\n        /* \"#utility.yul\":2295:2408   */\n      jump(tag_54)\n    tag_56:\n        /* \"#utility.yul\":2426:2432   */\n      dup4\n        /* \"#utility.yul\":2423:2424   */\n      dup2\n        /* \"#utility.yul\":2420:2433   */\n      gt\n        /* \"#utility.yul\":2417:2518   */\n      iszero\n      tag_57\n      jumpi\n        /* \"#utility.yul\":2506:2507   */\n      0x00\n        /* \"#utility.yul\":2497:2503   */\n      dup5\n        /* \"#utility.yul\":2492:2495   */\n      dup5\n        /* \"#utility.yul\":2488:2504   */\n      add\n        /* \"#utility.yul\":2481:2508   */\n      mstore\n        /* \"#utility.yul\":2417:2518   */\n    tag_57:\n        /* \"#utility.yul\":2266:2524   */\n      pop\n        /* \"#utility.yul\":2217:2524   */\n      pop\n      pop\n      pop\n      jump\t// out\n        /* \"#utility.yul\":2653:2770   */\n    tag_26:\n        /* \"#utility.yul\":2762:2763   */\n      0x00\n        /* \"#utility.yul\":2759:2760   */\n      dup1\n        /* \"#utility.yul\":2752:2764   */\n      revert\n        /* \"#utility.yul\":2776:2878   */\n    tag_38:\n        /* \"#utility.yul\":2817:2823   */\n      0x00\n        /* \"#utility.yul\":2868:2870   */\n      0x1f\n        /* \"#utility.yul\":2864:2871   */\n      not\n        /* \"#utility.yul\":2859:2861   */\n      0x1f\n        /* \"#utility.yul\":2852:2857   */\n      dup4\n        /* \"#utility.yul\":2848:2862   */\n      add\n        /* \"#utility.yul\":2844:2872   */\n      and\n        /* \"#utility.yul\":2834:2872   */\n      swap1\n      pop\n        /* \"#utility.yul\":2776:2878   */\n      swap2\n      swap1\n      pop\n      jump\t// out\n        /* \"#utility.yul\":2884:3006   */\n    tag_22:\n        /* \"#utility.yul\":2957:2981   */\n      tag_63\n        /* \"#utility.yul\":2975:2980   */\n      dup2\n        /* \"#utility.yul\":2957:2981   */\n      tag_42\n      jump\t// in\n    tag_63:\n        /* \"#utility.yul\":2950:2955   */\n      dup2\n        /* \"#utility.yul\":2947:2982   */\n      eq\n        /* \"#utility.yul\":2937:3000   */\n      tag_64\n      jumpi\n        /* \"#utility.yul\":2996:2997   */\n      0x00\n        /* \"#utility.yul\":2993:2994   */\n      dup1\n        /* \"#utility.yul\":2986:2998   */\n      revert\n        /* \"#utility.yul\":2937:3000   */\n    tag_64:\n        /* \"#utility.yul\":2884:3006   */\n      pop\n      jump\t// out\n\n    auxdata: 0xa26469706673582212200f29ab49f2fb150159b2c9d2ecf2c9b37aefb6c4e7c49c14e96a209a9f51a7e764736f6c63430008070033\n}\n",
				"bytecode": {
					"linkReferences": {},
					"object": "608060405234801561001057600080fd5b50610321806100206000396000f3fe608060405234801561001057600080fd5b50600436106100365760003560e01c806373fc34951461003b57806396db41be1461006b575b600080fd5b61005560048036038101906100509190610192565b610089565b604051610062919061021a565b60405180910390f35b61007361010b565b604051610080919061021a565b60405180910390f35b6060633cb8008560e01b83836040516024016100a692919061023c565b604051602081830303815290604052907bffffffffffffffffffffffffffffffffffffffffffffffffffffffff19166020820180517bffffffffffffffffffffffffffffffffffffffffffffffffffffffff8381831617835250505050905092915050565b606063b1ade4db60e01b604051602401604051602081830303815290604052907bffffffffffffffffffffffffffffffffffffffffffffffffffffffff19166020820180517bffffffffffffffffffffffffffffffffffffffffffffffffffffffff8381831617835250505050905090565b60008135905061018c816102d4565b92915050565b600080604083850312156101a9576101a86102be565b5b60006101b78582860161017d565b92505060206101c88582860161017d565b9150509250929050565b60006101dd82610265565b6101e78185610270565b93506101f781856020860161028b565b610200816102c3565b840191505092915050565b61021481610281565b82525050565b6000602082019050818103600083015261023481846101d2565b905092915050565b6000604082019050610251600083018561020b565b61025e602083018461020b565b9392505050565b600081519050919050565b600082825260208201905092915050565b6000819050919050565b60005b838110156102a957808201518184015260208101905061028e565b838111156102b8576000848401525b50505050565b600080fd5b6000601f19601f8301169050919050565b6102dd81610281565b81146102e857600080fd5b5056fea26469706673582212200f29ab49f2fb150159b2c9d2ecf2c9b37aefb6c4e7c49c14e96a209a9f51a7e764736f6c63430008070033",
					"opcodes": "PUSH1 0x80 PUSH1 0x40 MSTORE CALLVALUE DUP1 ISZERO PUSH2 0x10 JUMPI PUSH1 0x0 DUP1 REVERT JUMPDEST POP PUSH2 0x321 DUP1 PUSH2 0x20 PUSH1 0x0 CODECOPY PUSH1 0x0 RETURN INVALID PUSH1 0x80 PUSH1 0x40 MSTORE CALLVALUE DUP1 ISZERO PUSH2 0x10 JUMPI PUSH1 0x0 DUP1 REVERT JUMPDEST POP PUSH1 0x4 CALLDATASIZE LT PUSH2 0x36 JUMPI PUSH1 0x0 CALLDATALOAD PUSH1 0xE0 SHR DUP1 PUSH4 0x73FC3495 EQ PUSH2 0x3B JUMPI DUP1 PUSH4 0x96DB41BE EQ PUSH2 0x6B JUMPI JUMPDEST PUSH1 0x0 DUP1 REVERT JUMPDEST PUSH2 0x55 PUSH1 0x4 DUP1 CALLDATASIZE SUB DUP2 ADD SWAP1 PUSH2 0x50 SWAP2 SWAP1 PUSH2 0x192 JUMP JUMPDEST PUSH2 0x89 JUMP JUMPDEST PUSH1 0x40 MLOAD PUSH2 0x62 SWAP2 SWAP1 PUSH2 0x21A JUMP JUMPDEST PUSH1 0x40 MLOAD DUP1 SWAP2 SUB SWAP1 RETURN JUMPDEST PUSH2 0x73 PUSH2 0x10B JUMP JUMPDEST PUSH1 0x40 MLOAD PUSH2 0x80 SWAP2 SWAP1 PUSH2 0x21A JUMP JUMPDEST PUSH1 0x40 MLOAD DUP1 SWAP2 SUB SWAP1 RETURN JUMPDEST PUSH1 0x60 PUSH4 0x3CB80085 PUSH1 0xE0 SHL DUP4 DUP4 PUSH1 0x40 MLOAD PUSH1 0x24 ADD PUSH2 0xA6 SWAP3 SWAP2 SWAP1 PUSH2 0x23C JUMP JUMPDEST PUSH1 0x40 MLOAD PUSH1 0x20 DUP2 DUP4 SUB SUB DUP2 MSTORE SWAP1 PUSH1 0x40 MSTORE SWAP1 PUSH28 0xFFFFFFFFFFFFFFFFFFFFFFFFFFFFFFFFFFFFFFFFFFFFFFFFFFFFFFFF NOT AND PUSH1 0x20 DUP3 ADD DUP1 MLOAD PUSH28 0xFFFFFFFFFFFFFFFFFFFFFFFFFFFFFFFFFFFFFFFFFFFFFFFFFFFFFFFF DUP4 DUP2 DUP4 AND OR DUP4 MSTORE POP POP POP POP SWAP1 POP SWAP3 SWAP2 POP POP JUMP JUMPDEST PUSH1 0x60 PUSH4 0xB1ADE4DB PUSH1 0xE0 SHL PUSH1 0x40 MLOAD PUSH1 0x24 ADD PUSH1 0x40 MLOAD PUSH1 0x20 DUP2 DUP4 SUB SUB DUP2 MSTORE SWAP1 PUSH1 0x40 MSTORE SWAP1 PUSH28 0xFFFFFFFFFFFFFFFFFFFFFFFFFFFFFFFFFFFFFFFFFFFFFFFFFFFFFFFF NOT AND PUSH1 0x20 DUP3 ADD DUP1 MLOAD PUSH28 0xFFFFFFFFFFFFFFFFFFFFFFFFFFFFFFFFFFFFFFFFFFFFFFFFFFFFFFFF DUP4 DUP2 DUP4 AND OR DUP4 MSTORE POP POP POP POP SWAP1 POP SWAP1 JUMP JUMPDEST PUSH1 0x0 DUP2 CALLDATALOAD SWAP1 POP PUSH2 0x18C DUP2 PUSH2 0x2D4 JUMP JUMPDEST SWAP3 SWAP2 POP POP JUMP JUMPDEST PUSH1 0x0 DUP1 PUSH1 0x40 DUP4 DUP6 SUB SLT ISZERO PUSH2 0x1A9 JUMPI PUSH2 0x1A8 PUSH2 0x2BE JUMP JUMPDEST JUMPDEST PUSH1 0x0 PUSH2 0x1B7 DUP6 DUP3 DUP7 ADD PUSH2 0x17D JUMP JUMPDEST SWAP3 POP POP PUSH1 0x20 PUSH2 0x1C8 DUP6 DUP3 DUP7 ADD PUSH2 0x17D JUMP JUMPDEST SWAP2 POP POP SWAP3 POP SWAP3 SWAP1 POP JUMP JUMPDEST PUSH1 0x0 PUSH2 0x1DD DUP3 PUSH2 0x265 JUMP JUMPDEST PUSH2 0x1E7 DUP2 DUP6 PUSH2 0x270 JUMP JUMPDEST SWAP4 POP PUSH2 0x1F7 DUP2 DUP6 PUSH1 0x20 DUP7 ADD PUSH2 0x28B JUMP JUMPDEST PUSH2 0x200 DUP2 PUSH2 0x2C3 JUMP JUMPDEST DUP5 ADD SWAP2 POP POP SWAP3 SWAP2 POP POP JUMP JUMPDEST PUSH2 0x214 DUP2 PUSH2 0x281 JUMP JUMPDEST DUP3 MSTORE POP POP JUMP JUMPDEST PUSH1 0x0 PUSH1 0x20 DUP3 ADD SWAP1 POP DUP2 DUP2 SUB PUSH1 0x0 DUP4 ADD MSTORE PUSH2 0x234 DUP2 DUP5 PUSH2 0x1D2 JUMP JUMPDEST SWAP1 POP SWAP3 SWAP2 POP POP JUMP JUMPDEST PUSH1 0x0 PUSH1 0x40 DUP3 ADD SWAP1 POP PUSH2 0x251 PUSH1 0x0 DUP4 ADD DUP6 PUSH2 0x20B JUMP JUMPDEST PUSH2 0x25E PUSH1 0x20 DUP4 ADD DUP5 PUSH2 0x20B JUMP JUMPDEST SWAP4 SWAP3 POP POP POP JUMP JUMPDEST PUSH1 0x0 DUP2 MLOAD SWAP1 POP SWAP2 SWAP1 POP JUMP JUMPDEST PUSH1 0x0 DUP3 DUP3 MSTORE PUSH1 0x20 DUP3 ADD SWAP1 POP SWAP3 SWAP2 POP POP JUMP JUMPDEST PUSH1 0x0 DUP2 SWAP1 POP SWAP2 SWAP1 POP JUMP JUMPDEST PUSH1 0x0 JUMPDEST DUP4 DUP2 LT ISZERO PUSH2 0x2A9 JUMPI DUP1 DUP3 ADD MLOAD DUP2 DUP5 ADD MSTORE PUSH1 0x20 DUP2 ADD SWAP1 POP PUSH2 0x28E JUMP JUMPDEST DUP4 DUP2 GT ISZERO PUSH2 0x2B8 JUMPI PUSH1 0x0 DUP5 DUP5 ADD MSTORE JUMPDEST POP POP POP POP JUMP JUMPDEST PUSH1 0x0 DUP1 REVERT JUMPDEST PUSH1 0x0 PUSH1 0x1F NOT PUSH1 0x1F DUP4 ADD AND SWAP1 POP SWAP2 SWAP1 POP JUMP JUMPDEST PUSH2 0x2DD DUP2 PUSH2 0x281 JUMP JUMPDEST DUP2 EQ PUSH2 0x2E8 JUMPI PUSH1 0x0 DUP1 REVERT JUMPDEST POP JUMP INVALID LOG2 PUSH5 0x6970667358 0x22 SLT KECCAK256 0xF 0x29 0xAB 0x49 CALLCODE 0xFB ISZERO ADD MSIZE 0xB2 0xC9 0xD2 0xEC CALLCODE 0xC9 0xB3 PUSH27 0xEFB6C4E7C49C14E96A209A9F51A7E764736F6C6343000807003300 "
				},
				"gasEstimates": {
					"creation": {
						"codeDepositCost": "160200",
						"executionCost": "208",
						"totalCost": "160408"
					},
					"external": {
						"getFunc1Data(uint256,uint256)": "infinite",
						"getFunc2Data()": "infinite"
					}
				},
				"methodIdentifiers": {
					"getFunc1Data(uint256,uint256)": "73fc3495",
					"getFunc2Data()": "96db41be"
				}
			},
			"storageLayout": {
				"storage": [],
				"types": null
			},
			"userdoc": {
				"kind": "user",
				"methods": {},
				"version": 1
			}
		}
	}
}