{
	"data": {
		"bytecode": {
			"linkReferences": {},
			"object": "60806040523480156200001157600080fd5b5060405162000e5038038062000e50833981810160405281019062000037919062000151565b846000800181905550836000600101819055504260006002018190555061177060006003018190555081600060080160006101000a81548173ffffffffffffffffffffffffffffffffffffffff021916908373ffffffffffffffffffffffffffffffffffffffff16021790555080600060070160006101000a81548173ffffffffffffffffffffffffffffffffffffffff021916908373ffffffffffffffffffffffffffffffffffffffff1602179055508260006004018190555042600060020154620001059190620001d9565b600060060181905550426000600501819055505050505050620002dc565b6000815190506200013481620002a8565b92915050565b6000815190506200014b81620002c2565b92915050565b600080600080600060a0868803121562000170576200016f620002a3565b5b600062000180888289016200013a565b955050602062000193888289016200013a565b9450506040620001a6888289016200013a565b9350506060620001b98882890162000123565b9250506080620001cc8882890162000123565b9150509295509295909350565b6000620001e6826200026a565b9150620001f3836200026a565b9250827fffffffffffffffffffffffffffffffffffffffffffffffffffffffffffffffff038211156200022b576200022a62000274565b5b828201905092915050565b600062000243826200024a565b9050919050565b600073ffffffffffffffffffffffffffffffffffffffff82169050919050565b6000819050919050565b7f4e487b7100000000000000000000000000000000000000000000000000000000600052601160045260246000fd5b600080fd5b620002b38162000236565b8114620002bf57600080fd5b50565b620002cd816200026a565b8114620002d957600080fd5b50565b610b6480620002ec6000396000f3fe60806040526004361061003f5760003560e01c8063590e1ae3146100445780637d9f6db51461004e578063a6f2ae3a14610081578063eb91d37e1461009f575b600080fd5b61004c6100ca565b005b34801561005a57600080fd5b50610063610135565b60405161007899989796959493929190610824565b60405180910390f35b6100896101b1565b6040516100969190610809565b60405180910390f35b3480156100ab57600080fd5b506100b46105c6565b6040516100c19190610809565b60405180910390f35b6100d26105c6565b341115610133573373ffffffffffffffffffffffffffffffffffffffff166108fc6100fb6105c6565b3461010691906109a3565b9081150290604051600060405180830381858888f19350505050158015610131573d6000803e3d6000fd5b505b565b60008060000154908060010154908060020154908060030154908060040154908060050154908060060154908060070160009054906101000a900473ffffffffffffffffffffffffffffffffffffffff16908060080160009054906101000a900473ffffffffffffffffffffffffffffffffffffffff16905089565b600080600301546000600201546101c891906108c2565b42111561020a576040517f08c379a0000000000000000000000000000000000000000000000000000000008152600401610201906107a9565b60405180910390fd5b600060070160009054906101000a900473ffffffffffffffffffffffffffffffffffffffff1673ffffffffffffffffffffffffffffffffffffffff16600060080160009054906101000a900473ffffffffffffffffffffffffffffffffffffffff1673ffffffffffffffffffffffffffffffffffffffff16636352211e6000600401546040518263ffffffff1660e01b81526004016102a99190610809565b60206040518083038186803b1580156102c157600080fd5b505afa1580156102d5573d6000803e3d6000fd5b505050506040513d601f19601f820116820180604052508101906102f991906106be565b73ffffffffffffffffffffffffffffffffffffffff161461034f576040517f08c379a0000000000000000000000000000000000000000000000000000000008152600401610346906107e9565b60405180910390fd5b6103576105c6565b341015610399576040517f08c379a0000000000000000000000000000000000000000000000000000000008152600401610390906107c9565b60405180910390fd5b600060080160009054906101000a900473ffffffffffffffffffffffffffffffffffffffff1673ffffffffffffffffffffffffffffffffffffffff166342842e0e600060070160009054906101000a900473ffffffffffffffffffffffffffffffffffffffff16336000600401546040518463ffffffff1660e01b815260040161042593929190610772565b600060405180830381600087803b15801561043f57600080fd5b505af1158015610453573d6000803e3d6000fd5b505050503373ffffffffffffffffffffffffffffffffffffffff16600060080160009054906101000a900473ffffffffffffffffffffffffffffffffffffffff1673ffffffffffffffffffffffffffffffffffffffff16636352211e6000600401546040518263ffffffff1660e01b81526004016104d19190610809565b60206040518083038186803b1580156104e957600080fd5b505afa1580156104fd573d6000803e3d6000fd5b505050506040513d601f19601f8201168201806040525081019061052191906106be565b73ffffffffffffffffffffffffffffffffffffffff1614156105bf57600060070160009054906101000a900473ffffffffffffffffffffffffffffffffffffffff1673ffffffffffffffffffffffffffffffffffffffff166108fc6105846105c6565b9081150290604051600060405180830381858888f193505050501580156105af573d6000803e3d6000fd5b506105b86105c6565b90506105c3565b3490505b90565b600080600301546000600201546105dd91906108c2565b42111561061f576040517f08c379a0000000000000000000000000000000000000000000000000000000008152600401610616906107a9565b60405180910390fd5b60008060030154600060010154600080015461063b91906109a3565b6106459190610918565b905060006003015460006002015461065d91906108c2565b4210610671576000600101549150506106a6565b6000816000600201544261068591906109a3565b61068f9190610949565b600080015461069e91906109a3565b905080925050505b90565b6000815190506106b881610b17565b92915050565b6000602082840312156106d4576106d3610a71565b5b60006106e2848285016106a9565b91505092915050565b6106f4816109d7565b82525050565b60006107076012836108b1565b915061071282610a76565b602082019050919050565b600061072a6026836108b1565b915061073582610a9f565b604082019050919050565b600061074d6018836108b1565b915061075882610aee565b602082019050919050565b61076c81610a09565b82525050565b600060608201905061078760008301866106eb565b61079460208301856106eb565b6107a16040830184610763565b949350505050565b600060208201905081810360008301526107c2816106fa565b9050919050565b600060208201905081810360008301526107e28161071d565b9050919050565b6000602082019050818103600083015261080281610740565b9050919050565b600060208201905061081e6000830184610763565b92915050565b60006101208201905061083a600083018c610763565b610847602083018b610763565b610854604083018a610763565b6108616060830189610763565b61086e6080830188610763565b61087b60a0830187610763565b61088860c0830186610763565b61089560e08301856106eb565b6108a36101008301846106eb565b9a9950505050505050505050565b600082825260208201905092915050565b60006108cd82610a09565b91506108d883610a09565b9250827fffffffffffffffffffffffffffffffffffffffffffffffffffffffffffffffff0382111561090d5761090c610a13565b5b828201905092915050565b600061092382610a09565b915061092e83610a09565b92508261093e5761093d610a42565b5b828204905092915050565b600061095482610a09565b915061095f83610a09565b9250817fffffffffffffffffffffffffffffffffffffffffffffffffffffffffffffffff048311821515161561099857610997610a13565b5b828202905092915050565b60006109ae82610a09565b91506109b983610a09565b9250828210156109cc576109cb610a13565b5b828203905092915050565b60006109e2826109e9565b9050919050565b600073ffffffffffffffffffffffffffffffffffffffff82169050919050565b6000819050919050565b7f4e487b7100000000000000000000000000000000000000000000000000000000600052601160045260246000fd5b7f4e487b7100000000000000000000000000000000000000000000000000000000600052601260045260246000fd5b600080fd5b7f41756374696f6e20697320657870697265640000000000000000000000000000600082015250565b7f596f7572207072696365206973206c6f776572207468616e2063757272656e7460008201527f5069726365210000000000000000000000000000000000000000000000000000602082015250565b7f4e46542068617320626f75676874206279206f74686572730000000000000000600082015250565b610b20816109d7565b8114610b2b57600080fd5b5056fea26469706673582212208d2f1470f417fc060479a6f5e5858bf82c31c74186a50017231e22cec3284fce64736f6c63430008070033",
			"opcodes": "PUSH1 0x80 PUSH1 0x40 MSTORE CALLVALUE DUP1 ISZERO PUSH3 0x11 JUMPI PUSH1 0x0 DUP1 REVERT JUMPDEST POP PUSH1 0x40 MLOAD PUSH3 0xE50 CODESIZE SUB DUP1 PUSH3 0xE50 DUP4 CODECOPY DUP2 DUP2 ADD PUSH1 0x40 MSTORE DUP2 ADD SWAP1 PUSH3 0x37 SWAP2 SWAP1 PUSH3 0x151 JUMP JUMPDEST DUP5 PUSH1 0x0 DUP1 ADD DUP2 SWAP1 SSTORE POP DUP4 PUSH1 0x0 PUSH1 0x1 ADD DUP2 SWAP1 SSTORE POP TIMESTAMP PUSH1 0x0 PUSH1 0x2 ADD DUP2 SWAP1 SSTORE POP PUSH2 0x1770 PUSH1 0x0 PUSH1 0x3 ADD DUP2 SWAP1 SSTORE POP DUP2 PUSH1 0x0 PUSH1 0x8 ADD PUSH1 0x0 PUSH2 0x100 EXP DUP2 SLOAD DUP2 PUSH20 0xFFFFFFFFFFFFFFFFFFFFFFFFFFFFFFFFFFFFFFFF MUL NOT AND SWAP1 DUP4 PUSH20 0xFFFFFFFFFFFFFFFFFFFFFFFFFFFFFFFFFFFFFFFF AND MUL OR SWAP1 SSTORE POP DUP1 PUSH1 0x0 PUSH1 0x7 ADD PUSH1 0x0 PUSH2 0x100 EXP DUP2 SLOAD DUP2 PUSH20 0xFFFFFFFFFFFFFFFFFFFFFFFFFFFFFFFFFFFFFFFF MUL NOT AND SWAP1 DUP4 PUSH20 0xFFFFFFFFFFFFFFFFFFFFFFFFFFFFFFFFFFFFFFFF AND MUL OR SWAP1 SSTORE POP DUP3 PUSH1 0x0 PUSH1 0x4 ADD DUP2 SWAP1 SSTORE POP TIMESTAMP PUSH1 0x0 PUSH1 0x2 ADD SLOAD PUSH3 0x105 SWAP2 SWAP1 PUSH3 0x1D9 JUMP JUMPDEST PUSH1 0x0 PUSH1 0x6 ADD DUP2 SWAP1 SSTORE POP TIMESTAMP PUSH1 0x0 PUSH1 0x5 ADD DUP2 SWAP1 SSTORE POP POP POP POP POP POP PUSH3 0x2DC JUMP JUMPDEST PUSH1 0x0 DUP2 MLOAD SWAP1 POP PUSH3 0x134 DUP2 PUSH3 0x2A8 JUMP JUMPDEST SWAP3 SWAP2 POP POP JUMP JUMPDEST PUSH1 0x0 DUP2 MLOAD SWAP1 POP PUSH3 0x14B DUP2 PUSH3 0x2C2 JUMP JUMPDEST SWAP3 SWAP2 POP POP JUMP JUMPDEST PUSH1 0x0 DUP1 PUSH1 0x0 DUP1 PUSH1 0x0 PUSH1 0xA0 DUP7 DUP9 SUB SLT ISZERO PUSH3 0x170 JUMPI PUSH3 0x16F PUSH3 0x2A3 JUMP JUMPDEST JUMPDEST PUSH1 0x0 PUSH3 0x180 DUP9 DUP3 DUP10 ADD PUSH3 0x13A JUMP JUMPDEST SWAP6 POP POP PUSH1 0x20 PUSH3 0x193 DUP9 DUP3 DUP10 ADD PUSH3 0x13A JUMP JUMPDEST SWAP5 POP POP PUSH1 0x40 PUSH3 0x1A6 DUP9 DUP3 DUP10 ADD PUSH3 0x13A JUMP JUMPDEST SWAP4 POP POP PUSH1 0x60 PUSH3 0x1B9 DUP9 DUP3 DUP10 ADD PUSH3 0x123 JUMP JUMPDEST SWAP3 POP POP PUSH1 0x80 PUSH3 0x1CC DUP9 DUP3 DUP10 ADD PUSH3 0x123 JUMP JUMPDEST SWAP2 POP POP SWAP3 SWAP6 POP SWAP3 SWAP6 SWAP1 SWAP4 POP JUMP JUMPDEST PUSH1 0x0 PUSH3 0x1E6 DUP3 PUSH3 0x26A JUMP JUMPDEST SWAP2 POP PUSH3 0x1F3 DUP4 PUSH3 0x26A JUMP JUMPDEST SWAP3 POP DUP3 PUSH32 0xFFFFFFFFFFFFFFFFFFFFFFFFFFFFFFFFFFFFFFFFFFFFFFFFFFFFFFFFFFFFFFFF SUB DUP3 GT ISZERO PUSH3 0x22B JUMPI PUSH3 0x22A PUSH3 0x274 JUMP JUMPDEST JUMPDEST DUP3 DUP3 ADD SWAP1 POP SWAP3 SWAP2 POP POP JUMP JUMPDEST PUSH1 0x0 PUSH3 0x243 DUP3 PUSH3 0x24A JUMP JUMPDEST SWAP1 POP SWAP2 SWAP1 POP JUMP JUMPDEST PUSH1 0x0 PUSH20 0xFFFFFFFFFFFFFFFFFFFFFFFFFFFFFFFFFFFFFFFF DUP3 AND SWAP1 POP SWAP2 SWAP1 POP JUMP JUMPDEST PUSH1 0x0 DUP2 SWAP1 POP SWAP2 SWAP1 POP JUMP JUMPDEST PUSH32 0x4E487B7100000000000000000000000000000000000000000000000000000000 PUSH1 0x0 MSTORE PUSH1 0x11 PUSH1 0x4 MSTORE PUSH1 0x24 PUSH1 0x0 REVERT JUMPDEST PUSH1 0x0 DUP1 REVERT JUMPDEST PUSH3 0x2B3 DUP2 PUSH3 0x236 JUMP JUMPDEST DUP2 EQ PUSH3 0x2BF JUMPI PUSH1 0x0 DUP1 REVERT JUMPDEST POP JUMP JUMPDEST PUSH3 0x2CD DUP2 PUSH3 0x26A JUMP JUMPDEST DUP2 EQ PUSH3 0x2D9 JUMPI PUSH1 0x0 DUP1 REVERT JUMPDEST POP JUMP JUMPDEST PUSH2 0xB64 DUP1 PUSH3 0x2EC PUSH1 0x0 CODECOPY PUSH1 0x0 RETURN INVALID PUSH1 0x80 PUSH1 0x40 MSTORE PUSH1 0x4 CALLDATASIZE LT PUSH2 0x3F JUMPI PUSH1 0x0 CALLDATALOAD PUSH1 0xE0 SHR DUP1 PUSH4 0x590E1AE3 EQ PUSH2 0x44 JUMPI DUP1 PUSH4 0x7D9F6DB5 EQ PUSH2 0x4E JUMPI DUP1 PUSH4 0xA6F2AE3A EQ PUSH2 0x81 JUMPI DUP1 PUSH4 0xEB91D37E EQ PUSH2 0x9F JUMPI JUMPDEST PUSH1 0x0 DUP1 REVERT JUMPDEST PUSH2 0x4C PUSH2 0xCA JUMP JUMPDEST STOP JUMPDEST CALLVALUE DUP1 ISZERO PUSH2 0x5A JUMPI PUSH1 0x0 DUP1 REVERT JUMPDEST POP PUSH2 0x63 PUSH2 0x135 JUMP JUMPDEST PUSH1 0x40 MLOAD PUSH2 0x78 SWAP10 SWAP9 SWAP8 SWAP7 SWAP6 SWAP5 SWAP4 SWAP3 SWAP2 SWAP1 PUSH2 0x824 JUMP JUMPDEST PUSH1 0x40 MLOAD DUP1 SWAP2 SUB SWAP1 RETURN JUMPDEST PUSH2 0x89 PUSH2 0x1B1 JUMP JUMPDEST PUSH1 0x40 MLOAD PUSH2 0x96 SWAP2 SWAP1 PUSH2 0x809 JUMP JUMPDEST PUSH1 0x40 MLOAD DUP1 SWAP2 SUB SWAP1 RETURN JUMPDEST CALLVALUE DUP1 ISZERO PUSH2 0xAB JUMPI PUSH1 0x0 DUP1 REVERT JUMPDEST POP PUSH2 0xB4 PUSH2 0x5C6 JUMP JUMPDEST PUSH1 0x40 MLOAD PUSH2 0xC1 SWAP2 SWAP1 PUSH2 0x809 JUMP JUMPDEST PUSH1 0x40 MLOAD DUP1 SWAP2 SUB SWAP1 RETURN JUMPDEST PUSH2 0xD2 PUSH2 0x5C6 JUMP JUMPDEST CALLVALUE GT ISZERO PUSH2 0x133 JUMPI CALLER PUSH20 0xFFFFFFFFFFFFFFFFFFFFFFFFFFFFFFFFFFFFFFFF AND PUSH2 0x8FC PUSH2 0xFB PUSH2 0x5C6 JUMP JUMPDEST CALLVALUE PUSH2 0x106 SWAP2 SWAP1 PUSH2 0x9A3 JUMP JUMPDEST SWAP1 DUP2 ISZERO MUL SWAP1 PUSH1 0x40 MLOAD PUSH1 0x0 PUSH1 0x40 MLOAD DUP1 DUP4 SUB DUP2 DUP6 DUP9 DUP9 CALL SWAP4 POP POP POP POP ISZERO DUP1 ISZERO PUSH2 0x131 JUMPI RETURNDATASIZE PUSH1 0x0 DUP1 RETURNDATACOPY RETURNDATASIZE PUSH1 0x0 REVERT JUMPDEST POP JUMPDEST JUMP JUMPDEST PUSH1 0x0 DUP1 PUSH1 0x0 ADD SLOAD SWAP1 DUP1 PUSH1 0x1 ADD SLOAD SWAP1 DUP1 PUSH1 0x2 ADD SLOAD SWAP1 DUP1 PUSH1 0x3 ADD SLOAD SWAP1 DUP1 PUSH1 0x4 ADD SLOAD SWAP1 DUP1 PUSH1 0x5 ADD SLOAD SWAP1 DUP1 PUSH1 0x6 ADD SLOAD SWAP1 DUP1 PUSH1 0x7 ADD PUSH1 0x0 SWAP1 SLOAD SWAP1 PUSH2 0x100 EXP SWAP1 DIV PUSH20 0xFFFFFFFFFFFFFFFFFFFFFFFFFFFFFFFFFFFFFFFF AND SWAP1 DUP1 PUSH1 0x8 ADD PUSH1 0x0 SWAP1 SLOAD SWAP1 PUSH2 0x100 EXP SWAP1 DIV PUSH20 0xFFFFFFFFFFFFFFFFFFFFFFFFFFFFFFFFFFFFFFFF AND SWAP1 POP DUP10 JUMP JUMPDEST PUSH1 0x0 DUP1 PUSH1 0x3 ADD SLOAD PUSH1 0x0 PUSH1 0x2 ADD SLOAD PUSH2 0x1C8 SWAP2 SWAP1 PUSH2 0x8C2 JUMP JUMPDEST TIMESTAMP GT ISZERO PUSH2 0x20A JUMPI PUSH1 0x40 MLOAD PUSH32 0x8C379A000000000000000000000000000000000000000000000000000000000 DUP2 MSTORE PUSH1 0x4 ADD PUSH2 0x201 SWAP1 PUSH2 0x7A9 JUMP JUMPDEST PUSH1 0x40 MLOAD DUP1 SWAP2 SUB SWAP1 REVERT JUMPDEST PUSH1 0x0 PUSH1 0x7 ADD PUSH1 0x0 SWAP1 SLOAD SWAP1 PUSH2 0x100 EXP SWAP1 DIV PUSH20 0xFFFFFFFFFFFFFFFFFFFFFFFFFFFFFFFFFFFFFFFF AND PUSH20 0xFFFFFFFFFFFFFFFFFFFFFFFFFFFFFFFFFFFFFFFF AND PUSH1 0x0 PUSH1 0x8 ADD PUSH1 0x0 SWAP1 SLOAD SWAP1 PUSH2 0x100 EXP SWAP1 DIV PUSH20 0xFFFFFFFFFFFFFFFFFFFFFFFFFFFFFFFFFFFFFFFF AND PUSH20 0xFFFFFFFFFFFFFFFFFFFFFFFFFFFFFFFFFFFFFFFF AND PUSH4 0x6352211E PUSH1 0x0 PUSH1 0x4 ADD SLOAD PUSH1 0x40 MLOAD DUP3 PUSH4 0xFFFFFFFF AND PUSH1 0xE0 SHL DUP2 MSTORE PUSH1 0x4 ADD PUSH2 0x2A9 SWAP2 SWAP1 PUSH2 0x809 JUMP JUMPDEST PUSH1 0x20 PUSH1 0x40 MLOAD DUP1 DUP4 SUB DUP2 DUP7 DUP1 EXTCODESIZE ISZERO DUP1 ISZERO PUSH2 0x2C1 JUMPI PUSH1 0x0 DUP1 REVERT JUMPDEST POP GAS STATICCALL ISZERO DUP1 ISZERO PUSH2 0x2D5 JUMPI RETURNDATASIZE PUSH1 0x0 DUP1 RETURNDATACOPY RETURNDATASIZE PUSH1 0x0 REVERT JUMPDEST POP POP POP POP PUSH1 0x40 MLOAD RETURNDATASIZE PUSH1 0x1F NOT PUSH1 0x1F DUP3 ADD AND DUP3 ADD DUP1 PUSH1 0x40 MSTORE POP DUP2 ADD SWAP1 PUSH2 0x2F9 SWAP2 SWAP1 PUSH2 0x6BE JUMP JUMPDEST PUSH20 0xFFFFFFFFFFFFFFFFFFFFFFFFFFFFFFFFFFFFFFFF AND EQ PUSH2 0x34F JUMPI PUSH1 0x40 MLOAD PUSH32 0x8C379A000000000000000000000000000000000000000000000000000000000 DUP2 MSTORE PUSH1 0x4 ADD PUSH2 0x346 SWAP1 PUSH2 0x7E9 JUMP JUMPDEST PUSH1 0x40 MLOAD DUP1 SWAP2 SUB SWAP1 REVERT JUMPDEST PUSH2 0x357 PUSH2 0x5C6 JUMP JUMPDEST CALLVALUE LT ISZERO PUSH2 0x399 JUMPI PUSH1 0x40 MLOAD PUSH32 0x8C379A000000000000000000000000000000000000000000000000000000000 DUP2 MSTORE PUSH1 0x4 ADD PUSH2 0x390 SWAP1 PUSH2 0x7C9 JUMP JUMPDEST PUSH1 0x40 MLOAD DUP1 SWAP2 SUB SWAP1 REVERT JUMPDEST PUSH1 0x0 PUSH1 0x8 ADD PUSH1 0x0 SWAP1 SLOAD SWAP1 PUSH2 0x100 EXP SWAP1 DIV PUSH20 0xFFFFFFFFFFFFFFFFFFFFFFFFFFFFFFFFFFFFFFFF AND PUSH20 0xFFFFFFFFFFFFFFFFFFFFFFFFFFFFFFFFFFFFFFFF AND PUSH4 0x42842E0E PUSH1 0x0 PUSH1 0x7 ADD PUSH1 0x0 SWAP1 SLOAD SWAP1 PUSH2 0x100 EXP SWAP1 DIV PUSH20 0xFFFFFFFFFFFFFFFFFFFFFFFFFFFFFFFFFFFFFFFF AND CALLER PUSH1 0x0 PUSH1 0x4 ADD SLOAD PUSH1 0x40 MLOAD DUP5 PUSH4 0xFFFFFFFF AND PUSH1 0xE0 SHL DUP2 MSTORE PUSH1 0x4 ADD PUSH2 0x425 SWAP4 SWAP3 SWAP2 SWAP1 PUSH2 0x772 JUMP JUMPDEST PUSH1 0x0 PUSH1 0x40 MLOAD DUP1 DUP4 SUB DUP2 PUSH1 0x0 DUP8 DUP1 EXTCODESIZE ISZERO DUP1 ISZERO PUSH2 0x43F JUMPI PUSH1 0x0 DUP1 REVERT JUMPDEST POP GAS CALL ISZERO DUP1 ISZERO PUSH2 0x453 JUMPI RETURNDATASIZE PUSH1 0x0 DUP1 RETURNDATACOPY RETURNDATASIZE PUSH1 0x0 REVERT JUMPDEST POP POP POP POP CALLER PUSH20 0xFFFFFFFFFFFFFFFFFFFFFFFFFFFFFFFFFFFFFFFF AND PUSH1 0x0 PUSH1 0x8 ADD PUSH1 0x0 SWAP1 SLOAD SWAP1 PUSH2 0x100 EXP SWAP1 DIV PUSH20 0xFFFFFFFFFFFFFFFFFFFFFFFFFFFFFFFFFFFFFFFF AND PUSH20 0xFFFFFFFFFFFFFFFFFFFFFFFFFFFFFFFFFFFFFFFF AND PUSH4 0x6352211E PUSH1 0x0 PUSH1 0x4 ADD SLOAD PUSH1 0x40 MLOAD DUP3 PUSH4 0xFFFFFFFF AND PUSH1 0xE0 SHL DUP2 MSTORE PUSH1 0x4 ADD PUSH2 0x4D1 SWAP2 SWAP1 PUSH2 0x809 JUMP JUMPDEST PUSH1 0x20 PUSH1 0x40 MLOAD DUP1 DUP4 SUB DUP2 DUP7 DUP1 EXTCODESIZE ISZERO DUP1 ISZERO PUSH2 0x4E9 JUMPI PUSH1 0x0 DUP1 REVERT JUMPDEST POP GAS STATICCALL ISZERO DUP1 ISZERO PUSH2 0x4FD JUMPI RETURNDATASIZE PUSH1 0x0 DUP1 RETURNDATACOPY RETURNDATASIZE PUSH1 0x0 REVERT JUMPDEST POP POP POP POP PUSH1 0x40 MLOAD RETURNDATASIZE PUSH1 0x1F NOT PUSH1 0x1F DUP3 ADD AND DUP3 ADD DUP1 PUSH1 0x40 MSTORE POP DUP2 ADD SWAP1 PUSH2 0x521 SWAP2 SWAP1 PUSH2 0x6BE JUMP JUMPDEST PUSH20 0xFFFFFFFFFFFFFFFFFFFFFFFFFFFFFFFFFFFFFFFF AND EQ ISZERO PUSH2 0x5BF JUMPI PUSH1 0x0 PUSH1 0x7 ADD PUSH1 0x0 SWAP1 SLOAD SWAP1 PUSH2 0x100 EXP SWAP1 DIV PUSH20 0xFFFFFFFFFFFFFFFFFFFFFFFFFFFFFFFFFFFFFFFF AND PUSH20 0xFFFFFFFFFFFFFFFFFFFFFFFFFFFFFFFFFFFFFFFF AND PUSH2 0x8FC PUSH2 0x584 PUSH2 0x5C6 JUMP JUMPDEST SWAP1 DUP2 ISZERO MUL SWAP1 PUSH1 0x40 MLOAD PUSH1 0x0 PUSH1 0x40 MLOAD DUP1 DUP4 SUB DUP2 DUP6 DUP9 DUP9 CALL SWAP4 POP POP POP POP ISZERO DUP1 ISZERO PUSH2 0x5AF JUMPI RETURNDATASIZE PUSH1 0x0 DUP1 RETURNDATACOPY RETURNDATASIZE PUSH1 0x0 REVERT JUMPDEST POP PUSH2 0x5B8 PUSH2 0x5C6 JUMP JUMPDEST SWAP1 POP PUSH2 0x5C3 JUMP JUMPDEST CALLVALUE SWAP1 POP JUMPDEST SWAP1 JUMP JUMPDEST PUSH1 0x0 DUP1 PUSH1 0x3 ADD SLOAD PUSH1 0x0 PUSH1 0x2 ADD SLOAD PUSH2 0x5DD SWAP2 SWAP1 PUSH2 0x8C2 JUMP JUMPDEST TIMESTAMP GT ISZERO PUSH2 0x61F JUMPI PUSH1 0x40 MLOAD PUSH32 0x8C379A000000000000000000000000000000000000000000000000000000000 DUP2 MSTORE PUSH1 0x4 ADD PUSH2 0x616 SWAP1 PUSH2 0x7A9 JUMP JUMPDEST PUSH1 0x40 MLOAD DUP1 SWAP2 SUB SWAP1 REVERT JUMPDEST PUSH1 0x0 DUP1 PUSH1 0x3 ADD SLOAD PUSH1 0x0 PUSH1 0x1 ADD SLOAD PUSH1 0x0 DUP1 ADD SLOAD PUSH2 0x63B SWAP2 SWAP1 PUSH2 0x9A3 JUMP JUMPDEST PUSH2 0x645 SWAP2 SWAP1 PUSH2 0x918 JUMP JUMPDEST SWAP1 POP PUSH1 0x0 PUSH1 0x3 ADD SLOAD PUSH1 0x0 PUSH1 0x2 ADD SLOAD PUSH2 0x65D SWAP2 SWAP1 PUSH2 0x8C2 JUMP JUMPDEST TIMESTAMP LT PUSH2 0x671 JUMPI PUSH1 0x0 PUSH1 0x1 ADD SLOAD SWAP2 POP POP PUSH2 0x6A6 JUMP JUMPDEST PUSH1 0x0 DUP2 PUSH1 0x0 PUSH1 0x2 ADD SLOAD TIMESTAMP PUSH2 0x685 SWAP2 SWAP1 PUSH2 0x9A3 JUMP JUMPDEST PUSH2 0x68F SWAP2 SWAP1 PUSH2 0x949 JUMP JUMPDEST PUSH1 0x0 DUP1 ADD SLOAD PUSH2 0x69E SWAP2 SWAP1 PUSH2 0x9A3 JUMP JUMPDEST SWAP1 POP DUP1 SWAP3 POP POP POP JUMPDEST SWAP1 JUMP JUMPDEST PUSH1 0x0 DUP2 MLOAD SWAP1 POP PUSH2 0x6B8 DUP2 PUSH2 0xB17 JUMP JUMPDEST SWAP3 SWAP2 POP POP JUMP JUMPDEST PUSH1 0x0 PUSH1 0x20 DUP3 DUP5 SUB SLT ISZERO PUSH2 0x6D4 JUMPI PUSH2 0x6D3 PUSH2 0xA71 JUMP JUMPDEST JUMPDEST PUSH1 0x0 PUSH2 0x6E2 DUP5 DUP3 DUP6 ADD PUSH2 0x6A9 JUMP JUMPDEST SWAP2 POP POP SWAP3 SWAP2 POP POP JUMP JUMPDEST PUSH2 0x6F4 DUP2 PUSH2 0x9D7 JUMP JUMPDEST DUP3 MSTORE POP POP JUMP JUMPDEST PUSH1 0x0 PUSH2 0x707 PUSH1 0x12 DUP4 PUSH2 0x8B1 JUMP JUMPDEST SWAP2 POP PUSH2 0x712 DUP3 PUSH2 0xA76 JUMP JUMPDEST PUSH1 0x20 DUP3 ADD SWAP1 POP SWAP2 SWAP1 POP JUMP JUMPDEST PUSH1 0x0 PUSH2 0x72A PUSH1 0x26 DUP4 PUSH2 0x8B1 JUMP JUMPDEST SWAP2 POP PUSH2 0x735 DUP3 PUSH2 0xA9F JUMP JUMPDEST PUSH1 0x40 DUP3 ADD SWAP1 POP SWAP2 SWAP1 POP JUMP JUMPDEST PUSH1 0x0 PUSH2 0x74D PUSH1 0x18 DUP4 PUSH2 0x8B1 JUMP JUMPDEST SWAP2 POP PUSH2 0x758 DUP3 PUSH2 0xAEE JUMP JUMPDEST PUSH1 0x20 DUP3 ADD SWAP1 POP SWAP2 SWAP1 POP JUMP JUMPDEST PUSH2 0x76C DUP2 PUSH2 0xA09 JUMP JUMPDEST DUP3 MSTORE POP POP JUMP JUMPDEST PUSH1 0x0 PUSH1 0x60 DUP3 ADD SWAP1 POP PUSH2 0x787 PUSH1 0x0 DUP4 ADD DUP7 PUSH2 0x6EB JUMP JUMPDEST PUSH2 0x794 PUSH1 0x20 DUP4 ADD DUP6 PUSH2 0x6EB JUMP JUMPDEST PUSH2 0x7A1 PUSH1 0x40 DUP4 ADD DUP5 PUSH2 0x763 JUMP JUMPDEST SWAP5 SWAP4 POP POP POP POP JUMP JUMPDEST PUSH1 0x0 PUSH1 0x20 DUP3 ADD SWAP1 POP DUP2 DUP2 SUB PUSH1 0x0 DUP4 ADD MSTORE PUSH2 0x7C2 DUP2 PUSH2 0x6FA JUMP JUMPDEST SWAP1 POP SWAP2 SWAP1 POP JUMP JUMPDEST PUSH1 0x0 PUSH1 0x20 DUP3 ADD SWAP1 POP DUP2 DUP2 SUB PUSH1 0x0 DUP4 ADD MSTORE PUSH2 0x7E2 DUP2 PUSH2 0x71D JUMP JUMPDEST SWAP1 POP SWAP2 SWAP1 POP JUMP JUMPDEST PUSH1 0x0 PUSH1 0x20 DUP3 ADD SWAP1 POP DUP2 DUP2 SUB PUSH1 0x0 DUP4 ADD MSTORE PUSH2 0x802 DUP2 PUSH2 0x740 JUMP JUMPDEST SWAP1 POP SWAP2 SWAP1 POP JUMP JUMPDEST PUSH1 0x0 PUSH1 0x20 DUP3 ADD SWAP1 POP PUSH2 0x81E PUSH1 0x0 DUP4 ADD DUP5 PUSH2 0x763 JUMP JUMPDEST SWAP3 SWAP2 POP POP JUMP JUMPDEST PUSH1 0x0 PUSH2 0x120 DUP3 ADD SWAP1 POP PUSH2 0x83A PUSH1 0x0 DUP4 ADD DUP13 PUSH2 0x763 JUMP JUMPDEST PUSH2 0x847 PUSH1 0x20 DUP4 ADD DUP12 PUSH2 0x763 JUMP JUMPDEST PUSH2 0x854 PUSH1 0x40 DUP4 ADD DUP11 PUSH2 0x763 JUMP JUMPDEST PUSH2 0x861 PUSH1 0x60 DUP4 ADD DUP10 PUSH2 0x763 JUMP JUMPDEST PUSH2 0x86E PUSH1 0x80 DUP4 ADD DUP9 PUSH2 0x763 JUMP JUMPDEST PUSH2 0x87B PUSH1 0xA0 DUP4 ADD DUP8 PUSH2 0x763 JUMP JUMPDEST PUSH2 0x888 PUSH1 0xC0 DUP4 ADD DUP7 PUSH2 0x763 JUMP JUMPDEST PUSH2 0x895 PUSH1 0xE0 DUP4 ADD DUP6 PUSH2 0x6EB JUMP JUMPDEST PUSH2 0x8A3 PUSH2 0x100 DUP4 ADD DUP5 PUSH2 0x6EB JUMP JUMPDEST SWAP11 SWAP10 POP POP POP POP POP POP POP POP POP POP JUMP JUMPDEST PUSH1 0x0 DUP3 DUP3 MSTORE PUSH1 0x20 DUP3 ADD SWAP1 POP SWAP3 SWAP2 POP POP JUMP JUMPDEST PUSH1 0x0 PUSH2 0x8CD DUP3 PUSH2 0xA09 JUMP JUMPDEST SWAP2 POP PUSH2 0x8D8 DUP4 PUSH2 0xA09 JUMP JUMPDEST SWAP3 POP DUP3 PUSH32 0xFFFFFFFFFFFFFFFFFFFFFFFFFFFFFFFFFFFFFFFFFFFFFFFFFFFFFFFFFFFFFFFF SUB DUP3 GT ISZERO PUSH2 0x90D JUMPI PUSH2 0x90C PUSH2 0xA13 JUMP JUMPDEST JUMPDEST DUP3 DUP3 ADD SWAP1 POP SWAP3 SWAP2 POP POP JUMP JUMPDEST PUSH1 0x0 PUSH2 0x923 DUP3 PUSH2 0xA09 JUMP JUMPDEST SWAP2 POP PUSH2 0x92E DUP4 PUSH2 0xA09 JUMP JUMPDEST SWAP3 POP DUP3 PUSH2 0x93E JUMPI PUSH2 0x93D PUSH2 0xA42 JUMP JUMPDEST JUMPDEST DUP3 DUP3 DIV SWAP1 POP SWAP3 SWAP2 POP POP JUMP JUMPDEST PUSH1 0x0 PUSH2 0x954 DUP3 PUSH2 0xA09 JUMP JUMPDEST SWAP2 POP PUSH2 0x95F DUP4 PUSH2 0xA09 JUMP JUMPDEST SWAP3 POP DUP2 PUSH32 0xFFFFFFFFFFFFFFFFFFFFFFFFFFFFFFFFFFFFFFFFFFFFFFFFFFFFFFFFFFFFFFFF DIV DUP4 GT DUP3 ISZERO ISZERO AND ISZERO PUSH2 0x998 JUMPI PUSH2 0x997 PUSH2 0xA13 JUMP JUMPDEST JUMPDEST DUP3 DUP3 MUL SWAP1 POP SWAP3 SWAP2 POP POP JUMP JUMPDEST PUSH1 0x0 PUSH2 0x9AE DUP3 PUSH2 0xA09 JUMP JUMPDEST SWAP2 POP PUSH2 0x9B9 DUP4 PUSH2 0xA09 JUMP JUMPDEST SWAP3 POP DUP3 DUP3 LT ISZERO PUSH2 0x9CC JUMPI PUSH2 0x9CB PUSH2 0xA13 JUMP JUMPDEST JUMPDEST DUP3 DUP3 SUB SWAP1 POP SWAP3 SWAP2 POP POP JUMP JUMPDEST PUSH1 0x0 PUSH2 0x9E2 DUP3 PUSH2 0x9E9 JUMP JUMPDEST SWAP1 POP SWAP2 SWAP1 POP JUMP JUMPDEST PUSH1 0x0 PUSH20 0xFFFFFFFFFFFFFFFFFFFFFFFFFFFFFFFFFFFFFFFF DUP3 AND SWAP1 POP SWAP2 SWAP1 POP JUMP JUMPDEST PUSH1 0x0 DUP2 SWAP1 POP SWAP2 SWAP1 POP JUMP JUMPDEST PUSH32 0x4E487B7100000000000000000000000000000000000000000000000000000000 PUSH1 0x0 MSTORE PUSH1 0x11 PUSH1 0x4 MSTORE PUSH1 0x24 PUSH1 0x0 REVERT JUMPDEST PUSH32 0x4E487B7100000000000000000000000000000000000000000000000000000000 PUSH1 0x0 MSTORE PUSH1 0x12 PUSH1 0x4 MSTORE PUSH1 0x24 PUSH1 0x0 REVERT JUMPDEST PUSH1 0x0 DUP1 REVERT JUMPDEST PUSH32 0x41756374696F6E20697320657870697265640000000000000000000000000000 PUSH1 0x0 DUP3 ADD MSTORE POP JUMP JUMPDEST PUSH32 0x596F7572207072696365206973206C6F776572207468616E2063757272656E74 PUSH1 0x0 DUP3 ADD MSTORE PUSH32 0x5069726365210000000000000000000000000000000000000000000000000000 PUSH1 0x20 DUP3 ADD MSTORE POP JUMP JUMPDEST PUSH32 0x4E46542068617320626F75676874206279206F74686572730000000000000000 PUSH1 0x0 DUP3 ADD MSTORE POP JUMP JUMPDEST PUSH2 0xB20 DUP2 PUSH2 0x9D7 JUMP JUMPDEST DUP2 EQ PUSH2 0xB2B JUMPI PUSH1 0x0 DUP1 REVERT JUMPDEST POP JUMP INVALID LOG2 PUSH5 0x6970667358 0x22 SLT KECCAK256 DUP14 0x2F EQ PUSH17 0xF417FC060479A6F5E5858BF82C31C74186 0xA5 STOP OR 0x23 0x1E 0x22 0xCE 0xC3 0x28 0x4F 0xCE PUSH5 0x736F6C6343 STOP ADDMOD SMOD STOP CALLER "
		},
		"gasEstimates": {
			"creation": {
				"codeDepositCost": "583200",
				"executionCost": "infinite",
				"totalCost": "infinite"
			},
			"external": {
				"auction()": "infinite",
				"buy()": "infinite",
				"getCurrentPrice()": "infinite",
				"refund()": "infinite"
			}
		},
		"methodIdentifiers": {
			"auction()": "7d9f6db5",
			"buy()": "a6f2ae3a",
			"getCurrentPrice()": "eb91d37e",
			"refund()": "590e1ae3"
		}
	},
	"abi": [
		{
			"inputs": [
				{
					"internalType": "uint256",
					"name": "_startPrice",
					"type": "uint256"
				},
				{
					"internalType": "uint256",
					"name": "_endPrice",
					"type": "uint256"
				},
				{
					"internalType": "uint256",
					"name": "_tokenId",
					"type": "uint256"
				},
				{
					"internalType": "address",
					"name": "_nftContract",
					"type": "address"
				},
				{
					"internalType": "address",
					"name": "_seller",
					"type": "address"
				}
			],
			"stateMutability": "nonpayable",
			"type": "constructor"
		},
		{
			"anonymous": false,
			"inputs": [
				{
					"indexed": false,
					"internalType": "address",
					"name": "_who",
					"type": "address"
				},
				{
					"indexed": false,
					"internalType": "uint256",
					"name": "_price",
					"type": "uint256"
				},
				{
					"indexed": false,
					"internalType": "uint256",
					"name": "_time",
					"type": "uint256"
				}
			],
			"name": "buyLog",
			"type": "event"
		},
		{
			"inputs": [],
			"name": "auction",
			"outputs": [
				{
					"internalType": "uint256",
					"name": "startPrice",
					"type": "uint256"
				},
				{
					"internalType": "uint256",
					"name": "endPrice",
					"type": "uint256"
				},
				{
					"internalType": "uint256",
					"name": "startTime",
					"type": "uint256"
				},
				{
					"internalType": "uint256",
					"name": "duration",
					"type": "uint256"
				},
				{
					"internalType": "uint256",
					"name": "tokenId",
					"type": "uint256"
				},
				{
					"internalType": "uint256",
					"name": "currentTime",
					"type": "uint256"
				},
				{
					"internalType": "uint256",
					"name": "endTime",
					"type": "uint256"
				},
				{
					"internalType": "address",
					"name": "seller",
					"type": "address"
				},
				{
					"internalType": "address",
					"name": "nftContract",
					"type": "address"
				}
			],
			"stateMutability": "view",
			"type": "function"
		},
		{
			"inputs": [],
			"name": "buy",
			"outputs": [
				{
					"internalType": "uint256",
					"name": "",
					"type": "uint256"
				}
			],
			"stateMutability": "payable",
			"type": "function"
		},
		{
			"inputs": [],
			"name": "getCurrentPrice",
			"outputs": [
				{
					"internalType": "uint256",
					"name": "",
					"type": "uint256"
				}
			],
			"stateMutability": "view",
			"type": "function"
		},
		{
			"inputs": [],
			"name": "refund",
			"outputs": [],
			"stateMutability": "payable",
			"type": "function"
		}
	]
}