{
	"data": {
		"bytecode": {
			"linkReferences": {},
			"object": "6080604052600260005534801561001557600080fd5b50610299806100256000396000f3fe608060405234801561001057600080fd5b50600436106100415760003560e01c80635035df811461004657806360362514146100505780638381f58a1461006e575b600080fd5b61004e61008c565b005b610058610095565b6040516100659190610155565b60405180910390f35b6100766100fd565b6040516100839190610155565b60405180910390f35b60008081905550565b60008060005414156100dc576040517f08c379a00000000000000000000000000000000000000000000000000000000081526004016100d390610135565b60405180910390fd5b60026000808282546100ee9190610181565b92505081905550600054905090565b60005481565b6000610110602783610170565b915061011b82610214565b604082019050919050565b61012f816101db565b82525050565b6000602082019050818103600083015261014e81610103565b9050919050565b600060208201905061016a6000830184610126565b92915050565b600082825260208201905092915050565b600061018c826101db565b9150610197836101db565b9250817fffffffffffffffffffffffffffffffffffffffffffffffffffffffffffffffff04831182151516156101d0576101cf6101e5565b5b828202905092915050565b6000819050919050565b7f4e487b7100000000000000000000000000000000000000000000000000000000600052601160045260246000fd5b7f4e756d626572206973207a65726f20616e642063616e6e6f742062652070726f60008201527f6365737365642e0000000000000000000000000000000000000000000000000060208201525056fea26469706673582212204c2d2efeae2fb2a7dd1b591118b0c180870015e955cd1b5657eb9bf65f53732364736f6c63430008070033",
			"opcodes": "PUSH1 0x80 PUSH1 0x40 MSTORE PUSH1 0x2 PUSH1 0x0 SSTORE CALLVALUE DUP1 ISZERO PUSH2 0x15 JUMPI PUSH1 0x0 DUP1 REVERT JUMPDEST POP PUSH2 0x299 DUP1 PUSH2 0x25 PUSH1 0x0 CODECOPY PUSH1 0x0 RETURN INVALID PUSH1 0x80 PUSH1 0x40 MSTORE CALLVALUE DUP1 ISZERO PUSH2 0x10 JUMPI PUSH1 0x0 DUP1 REVERT JUMPDEST POP PUSH1 0x4 CALLDATASIZE LT PUSH2 0x41 JUMPI PUSH1 0x0 CALLDATALOAD PUSH1 0xE0 SHR DUP1 PUSH4 0x5035DF81 EQ PUSH2 0x46 JUMPI DUP1 PUSH4 0x60362514 EQ PUSH2 0x50 JUMPI DUP1 PUSH4 0x8381F58A EQ PUSH2 0x6E JUMPI JUMPDEST PUSH1 0x0 DUP1 REVERT JUMPDEST PUSH2 0x4E PUSH2 0x8C JUMP JUMPDEST STOP JUMPDEST PUSH2 0x58 PUSH2 0x95 JUMP JUMPDEST PUSH1 0x40 MLOAD PUSH2 0x65 SWAP2 SWAP1 PUSH2 0x155 JUMP JUMPDEST PUSH1 0x40 MLOAD DUP1 SWAP2 SUB SWAP1 RETURN JUMPDEST PUSH2 0x76 PUSH2 0xFD JUMP JUMPDEST PUSH1 0x40 MLOAD PUSH2 0x83 SWAP2 SWAP1 PUSH2 0x155 JUMP JUMPDEST PUSH1 0x40 MLOAD DUP1 SWAP2 SUB SWAP1 RETURN JUMPDEST PUSH1 0x0 DUP1 DUP2 SWAP1 SSTORE POP JUMP JUMPDEST PUSH1 0x0 DUP1 PUSH1 0x0 SLOAD EQ ISZERO PUSH2 0xDC JUMPI PUSH1 0x40 MLOAD PUSH32 0x8C379A000000000000000000000000000000000000000000000000000000000 DUP2 MSTORE PUSH1 0x4 ADD PUSH2 0xD3 SWAP1 PUSH2 0x135 JUMP JUMPDEST PUSH1 0x40 MLOAD DUP1 SWAP2 SUB SWAP1 REVERT JUMPDEST PUSH1 0x2 PUSH1 0x0 DUP1 DUP3 DUP3 SLOAD PUSH2 0xEE SWAP2 SWAP1 PUSH2 0x181 JUMP JUMPDEST SWAP3 POP POP DUP2 SWAP1 SSTORE POP PUSH1 0x0 SLOAD SWAP1 POP SWAP1 JUMP JUMPDEST PUSH1 0x0 SLOAD DUP2 JUMP JUMPDEST PUSH1 0x0 PUSH2 0x110 PUSH1 0x27 DUP4 PUSH2 0x170 JUMP JUMPDEST SWAP2 POP PUSH2 0x11B DUP3 PUSH2 0x214 JUMP JUMPDEST PUSH1 0x40 DUP3 ADD SWAP1 POP SWAP2 SWAP1 POP JUMP JUMPDEST PUSH2 0x12F DUP2 PUSH2 0x1DB JUMP JUMPDEST DUP3 MSTORE POP POP JUMP JUMPDEST PUSH1 0x0 PUSH1 0x20 DUP3 ADD SWAP1 POP DUP2 DUP2 SUB PUSH1 0x0 DUP4 ADD MSTORE PUSH2 0x14E DUP2 PUSH2 0x103 JUMP JUMPDEST SWAP1 POP SWAP2 SWAP1 POP JUMP JUMPDEST PUSH1 0x0 PUSH1 0x20 DUP3 ADD SWAP1 POP PUSH2 0x16A PUSH1 0x0 DUP4 ADD DUP5 PUSH2 0x126 JUMP JUMPDEST SWAP3 SWAP2 POP POP JUMP JUMPDEST PUSH1 0x0 DUP3 DUP3 MSTORE PUSH1 0x20 DUP3 ADD SWAP1 POP SWAP3 SWAP2 POP POP JUMP JUMPDEST PUSH1 0x0 PUSH2 0x18C DUP3 PUSH2 0x1DB JUMP JUMPDEST SWAP2 POP PUSH2 0x197 DUP4 PUSH2 0x1DB JUMP JUMPDEST SWAP3 POP DUP2 PUSH32 0xFFFFFFFFFFFFFFFFFFFFFFFFFFFFFFFFFFFFFFFFFFFFFFFFFFFFFFFFFFFFFFFF DIV DUP4 GT DUP3 ISZERO ISZERO AND ISZERO PUSH2 0x1D0 JUMPI PUSH2 0x1CF PUSH2 0x1E5 JUMP JUMPDEST JUMPDEST DUP3 DUP3 MUL SWAP1 POP SWAP3 SWAP2 POP POP JUMP JUMPDEST PUSH1 0x0 DUP2 SWAP1 POP SWAP2 SWAP1 POP JUMP JUMPDEST PUSH32 0x4E487B7100000000000000000000000000000000000000000000000000000000 PUSH1 0x0 MSTORE PUSH1 0x11 PUSH1 0x4 MSTORE PUSH1 0x24 PUSH1 0x0 REVERT JUMPDEST PUSH32 0x4E756D626572206973207A65726F20616E642063616E6E6F742062652070726F PUSH1 0x0 DUP3 ADD MSTORE PUSH32 0x6365737365642E00000000000000000000000000000000000000000000000000 PUSH1 0x20 DUP3 ADD MSTORE POP JUMP INVALID LOG2 PUSH5 0x6970667358 0x22 SLT KECCAK256 0x4C 0x2D 0x2E INVALID 0xAE 0x2F 0xB2 0xA7 0xDD SHL MSIZE GT XOR 0xB0 0xC1 DUP1 DUP8 STOP ISZERO 0xE9 SSTORE 0xCD SHL JUMP JUMPI 0xEB SWAP12 0xF6 0x5F MSTORE8 PUSH20 0x2364736F6C634300080700330000000000000000 "
		},
		"gasEstimates": {
			"creation": {
				"codeDepositCost": "133000",
				"executionCost": "22283",
				"totalCost": "155283"
			},
			"external": {
				"doubleNumber()": "infinite",
				"number()": "2451",
				"resetNumber()": "5136"
			}
		},
		"methodIdentifiers": {
			"doubleNumber()": "60362514",
			"number()": "8381f58a",
			"resetNumber()": "5035df81"
		}
	},
	"abi": [
		{
			"inputs": [],
			"name": "doubleNumber",
			"outputs": [
				{
					"internalType": "uint256",
					"name": "",
					"type": "uint256"
				}
			],
			"stateMutability": "nonpayable",
			"type": "function"
		},
		{
			"inputs": [],
			"name": "number",
			"outputs": [
				{
					"internalType": "uint256",
					"name": "",
					"type": "uint256"
				}
			],
			"stateMutability": "view",
			"type": "function"
		},
		{
			"inputs": [],
			"name": "resetNumber",
			"outputs": [],
			"stateMutability": "nonpayable",
			"type": "function"
		}
	]
}