{
	"data": {
		"bytecode": {
			"linkReferences": {},
			"object": "608060405260025f806101000a81548160ff0219169083600281111560255760246039565b5b02179055503480156034575f80fd5b506066565b7f4e487b71000000000000000000000000000000000000000000000000000000005f52602160045260245ffd5b60f7806100725f395ff3fe6080604052348015600e575f80fd5b50600436106026575f3560e01c80637828bb1e14602a575b5f80fd5b60306044565b604051603b9190607d565b60405180910390f35b5f805f9054906101000a900460ff16600281111560625760616094565b5b905090565b5f819050919050565b6077816067565b82525050565b5f602082019050608e5f8301846070565b92915050565b7f4e487b71000000000000000000000000000000000000000000000000000000005f52602160045260245ffdfea2646970667358221220e3985aad3f2fda6c0667b8f3bb0fbcfa6c96470b7ec24a8010516579bb4a92d964736f6c634300081a0033",
			"opcodes": "PUSH1 0x80 PUSH1 0x40 MSTORE PUSH1 0x2 PUSH0 DUP1 PUSH2 0x100 EXP DUP2 SLOAD DUP2 PUSH1 0xFF MUL NOT AND SWAP1 DUP4 PUSH1 0x2 DUP2 GT ISZERO PUSH1 0x25 JUMPI PUSH1 0x24 PUSH1 0x39 JUMP JUMPDEST JUMPDEST MUL OR SWAP1 SSTORE POP CALLVALUE DUP1 ISZERO PUSH1 0x34 JUMPI PUSH0 DUP1 REVERT JUMPDEST POP PUSH1 0x66 JUMP JUMPDEST PUSH32 0x4E487B7100000000000000000000000000000000000000000000000000000000 PUSH0 MSTORE PUSH1 0x21 PUSH1 0x4 MSTORE PUSH1 0x24 PUSH0 REVERT JUMPDEST PUSH1 0xF7 DUP1 PUSH2 0x72 PUSH0 CODECOPY PUSH0 RETURN INVALID PUSH1 0x80 PUSH1 0x40 MSTORE CALLVALUE DUP1 ISZERO PUSH1 0xE JUMPI PUSH0 DUP1 REVERT JUMPDEST POP PUSH1 0x4 CALLDATASIZE LT PUSH1 0x26 JUMPI PUSH0 CALLDATALOAD PUSH1 0xE0 SHR DUP1 PUSH4 0x7828BB1E EQ PUSH1 0x2A JUMPI JUMPDEST PUSH0 DUP1 REVERT JUMPDEST PUSH1 0x30 PUSH1 0x44 JUMP JUMPDEST PUSH1 0x40 MLOAD PUSH1 0x3B SWAP2 SWAP1 PUSH1 0x7D JUMP JUMPDEST PUSH1 0x40 MLOAD DUP1 SWAP2 SUB SWAP1 RETURN JUMPDEST PUSH0 DUP1 PUSH0 SWAP1 SLOAD SWAP1 PUSH2 0x100 EXP SWAP1 DIV PUSH1 0xFF AND PUSH1 0x2 DUP2 GT ISZERO PUSH1 0x62 JUMPI PUSH1 0x61 PUSH1 0x94 JUMP JUMPDEST JUMPDEST SWAP1 POP SWAP1 JUMP JUMPDEST PUSH0 DUP2 SWAP1 POP SWAP2 SWAP1 POP JUMP JUMPDEST PUSH1 0x77 DUP2 PUSH1 0x67 JUMP JUMPDEST DUP3 MSTORE POP POP JUMP JUMPDEST PUSH0 PUSH1 0x20 DUP3 ADD SWAP1 POP PUSH1 0x8E PUSH0 DUP4 ADD DUP5 PUSH1 0x70 JUMP JUMPDEST SWAP3 SWAP2 POP POP JUMP JUMPDEST PUSH32 0x4E487B7100000000000000000000000000000000000000000000000000000000 PUSH0 MSTORE PUSH1 0x21 PUSH1 0x4 MSTORE PUSH1 0x24 PUSH0 REVERT INVALID LOG2 PUSH5 0x6970667358 0x22 SLT KECCAK256 0xE3 SWAP9 GAS 0xAD EXTCODEHASH 0x2F 0xDA PUSH13 0x667B8F3BB0FBCFA6C96470B7E 0xC2 BLOBBASEFEE DUP1 LT MLOAD PUSH6 0x79BB4A92D964 PUSH20 0x6F6C634300081A00330000000000000000000000 "
		},
		"gasEstimates": {
			"creation": {
				"codeDepositCost": "49400",
				"executionCost": "24395",
				"totalCost": "73795"
			},
			"external": {
				"enumToUnit()": "2471"
			}
		},
		"methodIdentifiers": {
			"enumToUnit()": "7828bb1e"
		}
	},
	"abi": [
		{
			"inputs": [],
			"name": "enumToUnit",
			"outputs": [
				{
					"internalType": "uint256",
					"name": "",
					"type": "uint256"
				}
			],
			"stateMutability": "view",
			"type": "function"
		}
	]
}